{
  "contractName": "BorrowProxy",
  "abi": [
    {
      "inputs": [
        {
          "internalType": "address",
          "name": "weth_",
          "type": "address"
        },
        {
          "internalType": "address",
          "name": "dai_",
          "type": "address"
        },
        {
          "internalType": "address",
          "name": "treasury_",
          "type": "address"
        },
        {
          "internalType": "address",
          "name": "controller_",
          "type": "address"
        }
      ],
      "stateMutability": "nonpayable",
      "type": "constructor"
    },
    {
      "inputs": [],
      "name": "WETH",
      "outputs": [
        {
          "internalType": "bytes32",
          "name": "",
          "type": "bytes32"
        }
      ],
      "stateMutability": "view",
      "type": "function"
    },
    {
      "inputs": [],
      "name": "controller",
      "outputs": [
        {
          "internalType": "contract IController",
          "name": "",
          "type": "address"
        }
      ],
      "stateMutability": "view",
      "type": "function"
    },
    {
      "inputs": [],
      "name": "dai",
      "outputs": [
        {
          "internalType": "contract IDai",
          "name": "",
          "type": "address"
        }
      ],
      "stateMutability": "view",
      "type": "function"
    },
    {
      "inputs": [],
      "name": "treasury",
      "outputs": [
        {
          "internalType": "address",
          "name": "",
          "type": "address"
        }
      ],
      "stateMutability": "view",
      "type": "function"
    },
    {
      "inputs": [],
      "name": "weth",
      "outputs": [
        {
          "internalType": "contract IWeth",
          "name": "",
          "type": "address"
        }
      ],
      "stateMutability": "view",
      "type": "function"
    },
    {
      "stateMutability": "payable",
      "type": "receive"
    },
    {
      "inputs": [
        {
          "internalType": "address",
          "name": "to",
          "type": "address"
        }
      ],
      "name": "post",
      "outputs": [],
      "stateMutability": "payable",
      "type": "function"
    },
    {
      "inputs": [
        {
          "internalType": "address payable",
          "name": "to",
          "type": "address"
        },
        {
          "internalType": "uint256",
          "name": "amount",
          "type": "uint256"
        }
      ],
      "name": "withdraw",
      "outputs": [],
      "stateMutability": "nonpayable",
      "type": "function"
    },
    {
      "inputs": [
        {
          "internalType": "contract IPool",
          "name": "pool",
          "type": "address"
        },
        {
          "internalType": "bytes32",
          "name": "collateral",
          "type": "bytes32"
        },
        {
          "internalType": "uint256",
          "name": "maturity",
          "type": "uint256"
        },
        {
          "internalType": "address",
          "name": "to",
          "type": "address"
        },
        {
          "internalType": "uint256",
          "name": "maximumFYDai",
          "type": "uint256"
        },
        {
          "internalType": "uint256",
          "name": "daiToBorrow",
          "type": "uint256"
        }
      ],
      "name": "borrowDaiForMaximumFYDai",
      "outputs": [
        {
          "internalType": "uint256",
          "name": "",
          "type": "uint256"
        }
      ],
      "stateMutability": "nonpayable",
      "type": "function"
    },
    {
      "inputs": [
        {
          "internalType": "contract IPool",
          "name": "pool",
          "type": "address"
        },
        {
          "internalType": "address",
          "name": "to",
          "type": "address"
        },
        {
          "internalType": "uint128",
          "name": "fyDaiIn",
          "type": "uint128"
        },
        {
          "internalType": "uint128",
          "name": "minDaiOut",
          "type": "uint128"
        }
      ],
      "name": "sellFYDai",
      "outputs": [
        {
          "internalType": "uint256",
          "name": "",
          "type": "uint256"
        }
      ],
      "stateMutability": "nonpayable",
      "type": "function"
    },
    {
      "inputs": [
        {
          "internalType": "contract IPool",
          "name": "pool",
          "type": "address"
        },
        {
          "internalType": "address",
          "name": "to",
          "type": "address"
        },
        {
          "internalType": "uint128",
          "name": "daiIn",
          "type": "uint128"
        },
        {
          "internalType": "uint128",
          "name": "minFYDaiOut",
          "type": "uint128"
        }
      ],
      "name": "sellDai",
      "outputs": [
        {
          "internalType": "uint256",
          "name": "",
          "type": "uint256"
        }
      ],
      "stateMutability": "nonpayable",
      "type": "function"
    },
    {
      "inputs": [
        {
          "internalType": "address payable",
          "name": "to",
          "type": "address"
        },
        {
          "internalType": "uint256",
          "name": "amount",
          "type": "uint256"
        },
        {
          "internalType": "bytes",
          "name": "controllerSig",
          "type": "bytes"
        }
      ],
      "name": "withdrawWithSignature",
      "outputs": [],
      "stateMutability": "nonpayable",
      "type": "function"
    },
    {
      "inputs": [
        {
          "internalType": "contract IPool",
          "name": "pool",
          "type": "address"
        },
        {
          "internalType": "bytes32",
          "name": "collateral",
          "type": "bytes32"
        },
        {
          "internalType": "uint256",
          "name": "maturity",
          "type": "uint256"
        },
        {
          "internalType": "address",
          "name": "to",
          "type": "address"
        },
        {
          "internalType": "uint256",
          "name": "maximumFYDai",
          "type": "uint256"
        },
        {
          "internalType": "uint256",
          "name": "daiToBorrow",
          "type": "uint256"
        },
        {
          "internalType": "bytes",
          "name": "controllerSig",
          "type": "bytes"
        }
      ],
      "name": "borrowDaiForMaximumFYDaiWithSignature",
      "outputs": [
        {
          "internalType": "uint256",
          "name": "",
          "type": "uint256"
        }
      ],
      "stateMutability": "nonpayable",
      "type": "function"
    },
    {
      "inputs": [
        {
          "internalType": "bytes32",
          "name": "collateral",
          "type": "bytes32"
        },
        {
          "internalType": "uint256",
          "name": "maturity",
          "type": "uint256"
        },
        {
          "internalType": "address",
          "name": "to",
          "type": "address"
        },
        {
          "internalType": "uint256",
          "name": "daiAmount",
          "type": "uint256"
        },
        {
          "internalType": "bytes",
          "name": "daiSig",
          "type": "bytes"
        },
        {
          "internalType": "bytes",
          "name": "controllerSig",
          "type": "bytes"
        }
      ],
      "name": "repayDaiWithSignature",
      "outputs": [
        {
          "internalType": "uint256",
          "name": "",
          "type": "uint256"
        }
      ],
      "stateMutability": "nonpayable",
      "type": "function"
    },
    {
      "inputs": [
        {
          "internalType": "contract IPool",
          "name": "pool",
          "type": "address"
        },
        {
          "internalType": "address",
          "name": "to",
          "type": "address"
        },
        {
          "internalType": "uint128",
          "name": "fyDaiIn",
          "type": "uint128"
        },
        {
          "internalType": "uint128",
          "name": "minDaiOut",
          "type": "uint128"
        },
        {
          "internalType": "bytes",
          "name": "fyDaiSig",
          "type": "bytes"
        },
        {
          "internalType": "bytes",
          "name": "poolSig",
          "type": "bytes"
        }
      ],
      "name": "sellFYDaiWithSignature",
      "outputs": [
        {
          "internalType": "uint256",
          "name": "",
          "type": "uint256"
        }
      ],
      "stateMutability": "nonpayable",
      "type": "function"
    },
    {
      "inputs": [
        {
          "internalType": "contract IPool",
          "name": "pool",
          "type": "address"
        },
        {
          "internalType": "address",
          "name": "to",
          "type": "address"
        },
        {
          "internalType": "uint128",
          "name": "daiIn",
          "type": "uint128"
        },
        {
          "internalType": "uint128",
          "name": "minFYDaiOut",
          "type": "uint128"
        },
        {
          "internalType": "bytes",
          "name": "daiSig",
          "type": "bytes"
        },
        {
          "internalType": "bytes",
          "name": "poolSig",
          "type": "bytes"
        }
      ],
      "name": "sellDaiWithSignature",
      "outputs": [
        {
          "internalType": "uint256",
          "name": "",
          "type": "uint256"
        }
      ],
      "stateMutability": "nonpayable",
      "type": "function"
    }
  ],
  "bytecode": "0x61010060405234801561001157600080fd5b50604051611a22380380611a228339818101604052608081101561003457600080fd5b508051602082015160408301516060938401516001600160601b031990851b811660c05290841b811660e05291831b821660805290911b1660a05260805160601c60a05160601c60c05160601c60e05160601c611922610100600039806109305280610dcd5280610ea452806112b75250806108cf52806109695280610c9f5280610fef5280611255528061131f52806113dc52806115155250806111da528061129552806114f152508061090c5280610dfb5280610e755280610f44528061143d52506119226000f3fe6080604052600436106100ec5760003560e01c8063ae70747c1161008a578063f3fef3a311610059578063f3fef3a3146106f0578063f4b9fa7514610729578063f77c47911461073e578063fcf349cd14610753576100f3565b8063ae70747c14610389578063d6dd8a89146103dd578063d815095614610431578063d9c5bbc814610599576100f3565b8063671463cd116100c6578063671463cd1461020657806374191001146102f9578063a53636271461034e578063ad5c464814610374576100f3565b80633dfe8842146100f85780633fc8cef3146101c057806361d027b3146101f1576100f3565b366100f357005b600080fd5b34801561010457600080fd5b506101be6004803603606081101561011b57600080fd5b6001600160a01b0382351691602081013591810190606081016040820135600160201b81111561014a57600080fd5b82018360208201111561015c57600080fd5b803590602001918460018302840111600160201b8311171561017d57600080fd5b91908080601f0160208091040260200160405190810160405280939291908181526020018383808284376000920191909152509295506108bb945050505050565b005b3480156101cc57600080fd5b506101d561090a565b604080516001600160a01b039092168252519081900360200190f35b3480156101fd57600080fd5b506101d561092e565b34801561021257600080fd5b506102e7600480360360e081101561022957600080fd5b6001600160a01b0382358116926020810135926040820135926060830135169160808101359160a0820135919081019060e0810160c0820135600160201b81111561027357600080fd5b82018360208201111561028557600080fd5b803590602001918460018302840111600160201b831117156102a657600080fd5b91908080601f016020809104026020016040519081016040528093929190818152602001838380828437600092019190915250929550610952945050505050565b60408051918252519081900360200190f35b34801561030557600080fd5b506102e7600480360360c081101561031c57600080fd5b506001600160a01b03813581169160208101359160408201359160608101359091169060808101359060a001356109af565b6101be6004803603602081101561036457600080fd5b50356001600160a01b0316610daf565b34801561038057600080fd5b506102e7611055565b34801561039557600080fd5b506102e7600480360360808110156103ac57600080fd5b506001600160a01b0381358116916020810135909116906001600160801b0360408201358116916060013516611061565b3480156103e957600080fd5b506102e76004803603608081101561040057600080fd5b506001600160a01b0381358116916020810135909116906001600160801b036040820135811691606001351661115e565b34801561043d57600080fd5b506102e7600480360360c081101561045457600080fd5b6001600160a01b0382358116926020810135909116916001600160801b03604083013581169260608101359091169181019060a081016080820135600160201b8111156104a057600080fd5b8201836020820111156104b257600080fd5b803590602001918460018302840111600160201b831117156104d357600080fd5b91908080601f0160208091040260200160405190810160405280939291908181526020018383808284376000920191909152509295949360208101935035915050600160201b81111561052557600080fd5b82018360208201111561053757600080fd5b803590602001918460018302840111600160201b8311171561055857600080fd5b91908080601f0160208091040260200160405190810160405280939291908181526020018383808284376000920191909152509295506111c3945050505050565b3480156105a557600080fd5b506102e7600480360360c08110156105bc57600080fd5b8135916020810135916001600160a01b036040830135169160608101359181019060a081016080820135600160201b8111156105f757600080fd5b82018360208201111561060957600080fd5b803590602001918460018302840111600160201b8311171561062a57600080fd5b91908080601f0160208091040260200160405190810160405280939291908181526020018383808284376000920191909152509295949360208101935035915050600160201b81111561067c57600080fd5b82018360208201111561068e57600080fd5b803590602001918460018302840111600160201b831117156106af57600080fd5b91908080601f01602080910402602001604051908101604052809392919081815260200183838082843760009201919091525092955061123e945050505050565b3480156106fc57600080fd5b506101be6004803603604081101561071357600080fd5b506001600160a01b0381351690602001356113a1565b34801561073557600080fd5b506101d56114ef565b34801561074a57600080fd5b506101d5611513565b34801561075f57600080fd5b506102e7600480360360c081101561077657600080fd5b6001600160a01b0382358116926020810135909116916001600160801b03604083013581169260608101359091169181019060a081016080820135600160201b8111156107c257600080fd5b8201836020820111156107d457600080fd5b803590602001918460018302840111600160201b831117156107f557600080fd5b91908080601f0160208091040260200160405190810160405280939291908181526020018383808284376000920191909152509295949360208101935035915050600160201b81111561084757600080fd5b82018360208201111561085957600080fd5b803590602001918460018302840111600160201b8311171561087a57600080fd5b91908080601f016020809104026020016040519081016040528093929190818152602001838380828437600092019190915250929550611537945050505050565b8051156108fb576108fb6001600160a01b037f0000000000000000000000000000000000000000000000000000000000000000168263ffffffff6115ed16565b61090583836113a1565b505050565b7f000000000000000000000000000000000000000000000000000000000000000081565b7f000000000000000000000000000000000000000000000000000000000000000081565b805160009015610995576109956001600160a01b037f0000000000000000000000000000000000000000000000000000000000000000168363ffffffff6115ed16565b6109a38888888888886109af565b98975050505050505050565b600080876001600160a01b0316634e20e9526109ca8561168f565b6040518263ffffffff1660e01b815260040180826001600160801b03166001600160801b0316815260200191505060206040518083038186803b158015610a1057600080fd5b505afa158015610a24573d6000803e3d6000fd5b505050506040513d6020811015610a3a57600080fd5b50516001600160801b0316905083811115610a865760405162461bcd60e51b81526004018080602001828103825260238152602001806118ca6023913960400191505060405180910390fd5b6dffffffffffffffffffffffffffff8016886001600160a01b031663284f44446040518163ffffffff1660e01b815260040160206040518083038186803b158015610ad057600080fd5b505afa158015610ae4573d6000803e3d6000fd5b505050506040513d6020811015610afa57600080fd5b505160408051636eb1769f60e11b81523060048201526001600160a01b038c811660248301529151919092169163dd62ed3e916044808301926020929190829003018186803b158015610b4c57600080fd5b505afa158015610b60573d6000803e3d6000fd5b505050506040513d6020811015610b7657600080fd5b50511015610c6457876001600160a01b031663284f44446040518163ffffffff1660e01b815260040160206040518083038186803b158015610bb757600080fd5b505afa158015610bcb573d6000803e3d6000fd5b505050506040513d6020811015610be157600080fd5b50516040805163095ea7b360e01b81526001600160a01b038b8116600483015260001960248301529151919092169163095ea7b39160448083019260209291908290030181600087803b158015610c3757600080fd5b505af1158015610c4b573d6000803e3d6000fd5b505050506040513d6020811015610c6157600080fd5b50505b6040805163801d325f60e01b815260048101899052602481018890523360448201523060648201526084810183905290516001600160a01b037f0000000000000000000000000000000000000000000000000000000000000000169163801d325f9160a480830192600092919082900301818387803b158015610ce657600080fd5b505af1158015610cfa573d6000803e3d6000fd5b50505050876001600160a01b031663cc5783d33087610d188761168f565b604080516001600160e01b031960e087901b1681526001600160a01b0394851660048201529290931660248301526001600160801b03166044820152905160648083019260209291908290030181600087803b158015610d7757600080fd5b505af1158015610d8b573d6000803e3d6000fd5b505050506040513d6020811015610da157600080fd5b509098975050505050505050565b60408051636eb1769f60e11b81523060048201526001600160a01b037f0000000000000000000000000000000000000000000000000000000000000000811660248301529151600019927f0000000000000000000000000000000000000000000000000000000000000000169163dd62ed3e916044808301926020929190829003018186803b158015610e4157600080fd5b505afa158015610e55573d6000803e3d6000fd5b505050506040513d6020811015610e6b57600080fd5b50511015610f42577f00000000000000000000000000000000000000000000000000000000000000006001600160a01b031663095ea7b37f00000000000000000000000000000000000000000000000000000000000000006000196040518363ffffffff1660e01b815260040180836001600160a01b03166001600160a01b0316815260200182815260200192505050602060405180830381600087803b158015610f1557600080fd5b505af1158015610f29573d6000803e3d6000fd5b505050506040513d6020811015610f3f57600080fd5b50505b7f00000000000000000000000000000000000000000000000000000000000000006001600160a01b031663d0e30db0346040518263ffffffff1660e01b81526004016000604051808303818588803b158015610f9d57600080fd5b505af1158015610fb1573d6000803e3d6000fd5b5050604080516356dcf2a760e11b8152644554482d4160d81b60048201523060248201526001600160a01b03868116604483015234606483015291517f0000000000000000000000000000000000000000000000000000000000000000909216945063adb9e54e9350608480820193506000929182900301818387803b15801561103a57600080fd5b505af115801561104e573d6000803e3d6000fd5b5050505050565b644554482d4160d81b81565b60408051635935f49160e11b81523360048201526001600160a01b0385811660248301526001600160801b0385166044830152915160009283929088169163b26be9229160648082019260209290919082900301818787803b1580156110c657600080fd5b505af11580156110da573d6000803e3d6000fd5b505050506040513d60208110156110f057600080fd5b50516001600160801b0390811691508316811015611155576040805162461bcd60e51b815260206004820152601e60248201527f426f72726f7750726f78793a204c696d6974206e6f7420726561636865640000604482015290519081900360640190fd5b95945050505050565b604080516360561e0560e01b81523360048201526001600160a01b0385811660248301526001600160801b038516604483015291516000928392908816916360561e059160648082019260209290919082900301818787803b1580156110c657600080fd5b815160009015611207576112076001600160a01b037f000000000000000000000000000000000000000000000000000000000000000016888563ffffffff6116f116565b815115611227576112276001600160a01b0388168363ffffffff6115ed16565b61123387878787611061565b979650505050505050565b805160009015611281576112816001600160a01b037f0000000000000000000000000000000000000000000000000000000000000000168363ffffffff6115ed16565b8251156112e2576112e26001600160a01b037f0000000000000000000000000000000000000000000000000000000000000000167f00000000000000000000000000000000000000000000000000000000000000008563ffffffff6116f116565b604080516325d3cd1760e01b815260048101899052602481018890523360448201526001600160a01b0387811660648301526084820187905291517f0000000000000000000000000000000000000000000000000000000000000000909216916325d3cd179160a4808201926020929091908290030181600087803b15801561136a57600080fd5b505af115801561137e573d6000803e3d6000fd5b505050506040513d602081101561139457600080fd5b5090979650505050505050565b6040805163470660bb60e11b8152644554482d4160d81b60048201523360248201523060448201526064810183905290516001600160a01b037f00000000000000000000000000000000000000000000000000000000000000001691638e0cc17691608480830192600092919082900301818387803b15801561142357600080fd5b505af1158015611437573d6000803e3d6000fd5b505050507f00000000000000000000000000000000000000000000000000000000000000006001600160a01b0316632e1a7d4d826040518263ffffffff1660e01b815260040180828152602001915050600060405180830381600087803b1580156114a157600080fd5b505af11580156114b5573d6000803e3d6000fd5b50506040516001600160a01b038516925083156108fc02915083906000818181858888f19350505050158015610905573d6000803e3d6000fd5b7f000000000000000000000000000000000000000000000000000000000000000081565b7f000000000000000000000000000000000000000000000000000000000000000081565b8151600090156115c1576115c18784896001600160a01b031663284f44446040518163ffffffff1660e01b815260040160206040518083038186803b15801561157f57600080fd5b505afa158015611593573d6000803e3d6000fd5b505050506040513d60208110156115a957600080fd5b50516001600160a01b0316919063ffffffff61182116565b8151156115e1576115e16001600160a01b0388168363ffffffff6115ed16565b6112338787878761115e565b60008060006115fb846118ae565b60408051631a28ff0560e01b8152336004820152306024820152600019604482015260ff831660648201526084810185905260a48101849052905193965091945092506001600160a01b03871691631a28ff059160c48082019260009290919082900301818387803b15801561167057600080fd5b505af1158015611684573d6000803e3d6000fd5b505050505050505050565b60006001600160801b038211156116ed576040805162461bcd60e51b815260206004820152601960248201527f5969656c6450726f78793a2043617374206f766572666c6f7700000000000000604482015290519081900360640190fd5b5090565b60008060006116ff846118ae565b60408051623f675f60e91b8152336004820181905291519497509295509093506001600160a01b03891692638fcbaf0c9289918591637ecebe00916024808301926020929190829003018186803b15801561175957600080fd5b505afa15801561176d573d6000803e3d6000fd5b505050506040513d602081101561178357600080fd5b5051604080516001600160e01b031960e087901b1681526001600160a01b039485166004820152929093166024830152604482015260001960648201526001608482015260ff851660a482015260c4810187905260e48101869052905161010480830192600092919082900301818387803b15801561180157600080fd5b505af1158015611815573d6000803e3d6000fd5b50505050505050505050565b600080600061182f846118ae565b6040805163d505accf60e01b81523360048201526001600160a01b038a8116602483015260001960448301819052606483015260ff8416608483015260a4820186905260c48201859052915194975092955090935088169163d505accf9160e48082019260009290919082900301818387803b15801561180157600080fd5b60208101516040820151606090920151909260009190911a9056fe5969656c6450726f78793a20546f6f206d756368206679446169207265717569726564a2646970667358221220e6468a2c1af7092bf734679679cd0432fffea52f762330f7614ab2447f753b1864736f6c634300060a0033",
  "immutableReferences": {
    "22589": [
      {
        "length": 32,
        "start": 2316
      },
      {
        "length": 32,
        "start": 3579
      },
      {
        "length": 32,
        "start": 3701
      },
      {
        "length": 32,
        "start": 3908
      },
      {
        "length": 32,
        "start": 5181
      }
    ],
    "22591": [
      {
        "length": 32,
        "start": 4570
      },
      {
        "length": 32,
        "start": 4757
      },
      {
        "length": 32,
        "start": 5361
      }
    ],
    "22593": [
      {
        "length": 32,
        "start": 2255
      },
      {
        "length": 32,
        "start": 2409
      },
      {
        "length": 32,
        "start": 3231
      },
      {
        "length": 32,
        "start": 4079
      },
      {
        "length": 32,
        "start": 4693
      },
      {
        "length": 32,
        "start": 4895
      },
      {
        "length": 32,
        "start": 5084
      },
      {
        "length": 32,
        "start": 5397
      }
    ],
    "22595": [
      {
        "length": 32,
        "start": 2352
      },
      {
        "length": 32,
        "start": 3533
      },
      {
        "length": 32,
        "start": 3748
      },
      {
        "length": 32,
        "start": 4791
      }
    ]
  },
  "source": "// SPDX-License-Identifier: GPL-3.0-or-later\npragma solidity ^0.6.10;\n\nimport \"../interfaces/IWeth.sol\";\nimport \"../interfaces/IDai.sol\";\nimport \"../interfaces/IFYDai.sol\";\nimport \"../interfaces/IController.sol\";\nimport \"../interfaces/IPool.sol\";\nimport \"../helpers/SafeCast.sol\";\nimport \"../helpers/YieldAuth.sol\";\n\n\ncontract BorrowProxy {\n    using SafeCast for uint256;\n    using YieldAuth for IDai;\n    using YieldAuth for IFYDai;\n    using YieldAuth for IController;\n    using YieldAuth for IPool;\n\n    IWeth public immutable weth;\n    IDai public immutable dai;\n    IController public immutable controller;\n    address public immutable treasury;\n\n    bytes32 public constant WETH = \"ETH-A\";\n\n    constructor(address weth_, address dai_, address treasury_, address controller_) public {\n        controller = IController(controller_);\n        treasury = treasury_;\n\n        weth = IWeth(weth_);\n        dai = IDai(dai_);\n    }\n\n    /// @dev The WETH9 contract will send ether to YieldProxy on `weth.withdraw` using this function.\n    receive() external payable { }\n\n    /// @dev Users use `post` in YieldProxy to post ETH to the Controller (amount = msg.value), which will be converted to Weth here.\n    /// @param to Yield Vault to deposit collateral in.\n    function post(address to)\n        external payable {\n        // Approvals in the constructor don't work for contracts calling this via `addDelegatecall`\n        if (weth.allowance(address(this), treasury) < type(uint256).max) weth.approve(treasury, type(uint256).max);\n\n        weth.deposit{ value: msg.value }();\n        controller.post(WETH, address(this), to, msg.value);\n    }\n\n    /// @dev Users wishing to withdraw their Weth as ETH from the Controller should use this function.\n    /// Users must have called `controller.addDelegate(yieldProxy.address)` to authorize YieldProxy to act in their behalf.\n    /// @param to Wallet to send Eth to.\n    /// @param amount Amount of weth to move.\n    function withdraw(address payable to, uint256 amount)\n        public {\n        controller.withdraw(WETH, msg.sender, address(this), amount);\n        weth.withdraw(amount);\n        to.transfer(amount);\n    }\n\n    /// @dev Borrow fyDai from Controller and sell it immediately for Dai, for a maximum fyDai debt.\n    /// Must have approved the operator with `controller.addDelegate(yieldProxy.address)`.\n    /// @param collateral Valid collateral type.\n    /// @param maturity Maturity of an added series\n    /// @param to Wallet to send the resulting Dai to.\n    /// @param maximumFYDai Maximum amount of FYDai to borrow.\n    /// @param daiToBorrow Exact amount of Dai that should be obtained.\n    function borrowDaiForMaximumFYDai(\n        IPool pool,\n        bytes32 collateral,\n        uint256 maturity,\n        address to,\n        uint256 maximumFYDai,\n        uint256 daiToBorrow\n    )\n        public\n        returns (uint256)\n    {\n        uint256 fyDaiToBorrow = pool.buyDaiPreview(daiToBorrow.toUint128());\n        require (fyDaiToBorrow <= maximumFYDai, \"YieldProxy: Too much fyDai required\");\n\n        // allow the pool to pull FYDai/dai from us for LPing\n        if (pool.fyDai().allowance(address(this), address(pool)) < type(uint112).max) pool.fyDai().approve(address(pool), type(uint256).max);\n\n        // The collateral for this borrow needs to have been posted beforehand\n        controller.borrow(collateral, maturity, msg.sender, address(this), fyDaiToBorrow);\n        pool.buyDai(address(this), to, daiToBorrow.toUint128());\n\n        return fyDaiToBorrow;\n    }\n\n    /// @dev Sell fyDai for Dai\n    /// @param to Wallet receiving the dai being bought\n    /// @param fyDaiIn Amount of fyDai being sold\n    /// @param minDaiOut Minimum amount of dai being bought\n    function sellFYDai(IPool pool, address to, uint128 fyDaiIn, uint128 minDaiOut)\n        public\n        returns(uint256)\n    {\n        uint256 daiOut = pool.sellFYDai(msg.sender, to, fyDaiIn);\n        require(\n            daiOut >= minDaiOut,\n            \"BorrowProxy: Limit not reached\"\n        );\n        return daiOut;\n    }\n\n    /// @dev Sell Dai for fyDai\n    /// @param to Wallet receiving the fyDai being bought\n    /// @param daiIn Amount of dai being sold\n    /// @param minFYDaiOut Minimum amount of fyDai being bought\n    function sellDai(IPool pool, address to, uint128 daiIn, uint128 minFYDaiOut)\n        public\n        returns(uint256)\n    {\n        uint256 fyDaiOut = pool.sellDai(msg.sender, to, daiIn);\n        require(\n            fyDaiOut >= minFYDaiOut,\n            \"BorrowProxy: Limit not reached\"\n        );\n        return fyDaiOut;\n    }\n\n    /// --------------------------------------------------\n    /// Signature method wrappers\n    /// --------------------------------------------------\n\n    /// @dev Users wishing to withdraw their Weth as ETH from the Controller should use this function.\n    /// @param to Wallet to send Eth to.\n    /// @param amount Amount of weth to move.\n    /// @param controllerSig packed signature for delegation of this proxy in the controller. Ignored if '0x'.\n    function withdrawWithSignature(address payable to, uint256 amount, bytes memory controllerSig)\n        public {\n        if (controllerSig.length > 0) controller.addDelegatePacked(controllerSig);\n        withdraw(to, amount);\n    }\n\n    /// @dev Borrow fyDai from Controller and sell it immediately for Dai, for a maximum fyDai debt.\n    /// @param collateral Valid collateral type.\n    /// @param maturity Maturity of an added series\n    /// @param to Wallet to send the resulting Dai to.\n    /// @param maximumFYDai Maximum amount of FYDai to borrow.\n    /// @param daiToBorrow Exact amount of Dai that should be obtained.\n    /// @param controllerSig packed signature for delegation of this proxy in the controller. Ignored if '0x'.\n    function borrowDaiForMaximumFYDaiWithSignature(\n        IPool pool,\n        bytes32 collateral,\n        uint256 maturity,\n        address to,\n        uint256 maximumFYDai,\n        uint256 daiToBorrow,\n        bytes memory controllerSig\n    )\n        public\n        returns (uint256)\n    {\n        if (controllerSig.length > 0) controller.addDelegatePacked(controllerSig);\n        return borrowDaiForMaximumFYDai(pool, collateral, maturity, to, maximumFYDai, daiToBorrow);\n    }\n\n    /// @dev Burns Dai from caller to repay debt in a Yield Vault.\n    /// User debt is decreased for the given collateral and fyDai series, in Yield vault `to`.\n    /// The amount of debt repaid changes according to series maturity and MakerDAO rate and chi, depending on collateral type.\n    /// `A signature is provided as a parameter to this function, so that `dai.approve()` doesn't need to be called.\n    /// @param collateral Valid collateral type.\n    /// @param maturity Maturity of an added series\n    /// @param to Yield vault to repay debt for.\n    /// @param daiAmount Amount of Dai to use for debt repayment.\n    /// @param daiSig packed signature for permit of dai transfers to this proxy. Ignored if '0x'.\n    /// @param controllerSig packed signature for delegation of this proxy in the controller. Ignored if '0x'.\n    function repayDaiWithSignature(bytes32 collateral, uint256 maturity, address to, uint256 daiAmount, bytes memory daiSig, bytes memory controllerSig)\n        external\n        returns(uint256)\n    {\n        if (controllerSig.length > 0) controller.addDelegatePacked(controllerSig);\n        if (daiSig.length > 0) dai.permitPackedDai(treasury, daiSig);\n        controller.repayDai(collateral, maturity, msg.sender, to, daiAmount);\n    }\n\n    /// @dev Sell fyDai for Dai\n    /// @param to Wallet receiving the dai being bought\n    /// @param fyDaiIn Amount of fyDai being sold\n    /// @param minDaiOut Minimum amount of dai being bought\n    /// @param fyDaiSig packed signature for approving fyDai transfers to a pool. Ignored if '0x'.\n    /// @param poolSig packed signature for delegation of this proxy in a pool. Ignored if '0x'.\n    function sellFYDaiWithSignature(IPool pool, address to, uint128 fyDaiIn, uint128 minDaiOut, bytes memory fyDaiSig, bytes memory poolSig)\n        public\n        returns(uint256)\n    {\n        if (fyDaiSig.length > 0) pool.fyDai().permitPacked(address(pool), fyDaiSig);\n        if (poolSig.length > 0) pool.addDelegatePacked(poolSig);\n        return sellFYDai(pool, to, fyDaiIn, minDaiOut);\n    }\n\n    /// @dev Sell Dai for fyDai\n    /// @param to Wallet receiving the fyDai being bought\n    /// @param daiIn Amount of dai being sold\n    /// @param minFYDaiOut Minimum amount of fyDai being bought\n    /// @param daiSig packed signature for approving Dai transfers to a pool. Ignored if '0x'.\n    /// @param poolSig packed signature for delegation of this proxy in a pool. Ignored if '0x'.\n    function sellDaiWithSignature(IPool pool, address to, uint128 daiIn, uint128 minFYDaiOut, bytes memory daiSig, bytes memory poolSig)\n        external\n        returns(uint256)\n    {\n        if (daiSig.length > 0) dai.permitPackedDai(address(pool), daiSig);\n        if (poolSig.length > 0) pool.addDelegatePacked(poolSig);\n        return sellDai(pool, to, daiIn, minFYDaiOut);\n    }\n}\n",
  "sourcePath": "/Users/brucedonovan/dev/yield/yDai/contracts/peripheral/BorrowProxy.sol",
  "compiler": {
    "name": "solc",
    "version": "0.6.10+commit.00c0fcaf.Emscripten.clang"
  },
  "schemaVersion": "3.2.3",
  "updatedAt": "2020-11-12T09:01:49.551Z",
  "devdoc": {
    "methods": {
      "borrowDaiForMaximumFYDai(address,bytes32,uint256,address,uint256,uint256)": {
        "details": "Borrow fyDai from Controller and sell it immediately for Dai, for a maximum fyDai debt. Must have approved the operator with `controller.addDelegate(yieldProxy.address)`.",
        "params": {
          "collateral": "Valid collateral type.",
          "daiToBorrow": "Exact amount of Dai that should be obtained.",
          "maturity": "Maturity of an added series",
          "maximumFYDai": "Maximum amount of FYDai to borrow.",
          "to": "Wallet to send the resulting Dai to."
        }
      },
      "borrowDaiForMaximumFYDaiWithSignature(address,bytes32,uint256,address,uint256,uint256,bytes)": {
        "details": "Borrow fyDai from Controller and sell it immediately for Dai, for a maximum fyDai debt.",
        "params": {
          "collateral": "Valid collateral type.",
          "controllerSig": "packed signature for delegation of this proxy in the controller. Ignored if '0x'.",
          "daiToBorrow": "Exact amount of Dai that should be obtained.",
          "maturity": "Maturity of an added series",
          "maximumFYDai": "Maximum amount of FYDai to borrow.",
          "to": "Wallet to send the resulting Dai to."
        }
      },
      "post(address)": {
        "details": "Users use `post` in YieldProxy to post ETH to the Controller (amount = msg.value), which will be converted to Weth here.",
        "params": {
          "to": "Yield Vault to deposit collateral in."
        }
      },
      "repayDaiWithSignature(bytes32,uint256,address,uint256,bytes,bytes)": {
        "details": "Burns Dai from caller to repay debt in a Yield Vault. User debt is decreased for the given collateral and fyDai series, in Yield vault `to`. The amount of debt repaid changes according to series maturity and MakerDAO rate and chi, depending on collateral type. `A signature is provided as a parameter to this function, so that `dai.approve()` doesn't need to be called.",
        "params": {
          "collateral": "Valid collateral type.",
          "controllerSig": "packed signature for delegation of this proxy in the controller. Ignored if '0x'.",
          "daiAmount": "Amount of Dai to use for debt repayment.",
          "daiSig": "packed signature for permit of dai transfers to this proxy. Ignored if '0x'.",
          "maturity": "Maturity of an added series",
          "to": "Yield vault to repay debt for."
        }
      },
      "sellDai(address,address,uint128,uint128)": {
        "details": "Sell Dai for fyDai",
        "params": {
          "daiIn": "Amount of dai being sold",
          "minFYDaiOut": "Minimum amount of fyDai being bought",
          "to": "Wallet receiving the fyDai being bought"
        }
      },
      "sellDaiWithSignature(address,address,uint128,uint128,bytes,bytes)": {
        "details": "Sell Dai for fyDai",
        "params": {
          "daiIn": "Amount of dai being sold",
          "daiSig": "packed signature for approving Dai transfers to a pool. Ignored if '0x'.",
          "minFYDaiOut": "Minimum amount of fyDai being bought",
          "poolSig": "packed signature for delegation of this proxy in a pool. Ignored if '0x'.",
          "to": "Wallet receiving the fyDai being bought"
        }
      },
      "sellFYDai(address,address,uint128,uint128)": {
        "details": "Sell fyDai for Dai",
        "params": {
          "fyDaiIn": "Amount of fyDai being sold",
          "minDaiOut": "Minimum amount of dai being bought",
          "to": "Wallet receiving the dai being bought"
        }
      },
      "sellFYDaiWithSignature(address,address,uint128,uint128,bytes,bytes)": {
        "details": "Sell fyDai for Dai",
        "params": {
          "fyDaiIn": "Amount of fyDai being sold",
          "fyDaiSig": "packed signature for approving fyDai transfers to a pool. Ignored if '0x'.",
          "minDaiOut": "Minimum amount of dai being bought",
          "poolSig": "packed signature for delegation of this proxy in a pool. Ignored if '0x'.",
          "to": "Wallet receiving the dai being bought"
        }
      },
      "withdraw(address,uint256)": {
        "details": "Users wishing to withdraw their Weth as ETH from the Controller should use this function. Users must have called `controller.addDelegate(yieldProxy.address)` to authorize YieldProxy to act in their behalf.",
        "params": {
          "amount": "Amount of weth to move.",
          "to": "Wallet to send Eth to."
        }
      },
      "withdrawWithSignature(address,uint256,bytes)": {
        "details": "Users wishing to withdraw their Weth as ETH from the Controller should use this function.",
        "params": {
          "amount": "Amount of weth to move.",
          "controllerSig": "packed signature for delegation of this proxy in the controller. Ignored if '0x'.",
          "to": "Wallet to send Eth to."
        }
      }
    }
  },
  "userdoc": {
    "methods": {}
  }
}