{
  "contractName": "BorrowProxy",
  "abi": [
    {
      "inputs": [
        {
          "internalType": "contract IController",
          "name": "_controller",
          "type": "address"
        }
      ],
      "stateMutability": "nonpayable",
      "type": "constructor"
    },
    {
      "inputs": [],
      "name": "WETH",
      "outputs": [
        {
          "internalType": "bytes32",
          "name": "",
          "type": "bytes32"
        }
      ],
      "stateMutability": "view",
      "type": "function"
    },
    {
      "inputs": [],
      "name": "controller",
      "outputs": [
        {
          "internalType": "contract IController",
          "name": "",
          "type": "address"
        }
      ],
      "stateMutability": "view",
      "type": "function"
    },
    {
      "inputs": [],
      "name": "dai",
      "outputs": [
        {
          "internalType": "contract IDai",
          "name": "",
          "type": "address"
        }
      ],
      "stateMutability": "view",
      "type": "function"
    },
    {
      "inputs": [],
      "name": "treasury",
      "outputs": [
        {
          "internalType": "address",
          "name": "",
          "type": "address"
        }
      ],
      "stateMutability": "view",
      "type": "function"
    },
    {
      "inputs": [],
      "name": "weth",
      "outputs": [
        {
          "internalType": "contract IWeth",
          "name": "",
          "type": "address"
        }
      ],
      "stateMutability": "view",
      "type": "function"
    },
    {
      "stateMutability": "payable",
      "type": "receive"
    },
    {
      "inputs": [
        {
          "internalType": "address",
          "name": "to",
          "type": "address"
        }
      ],
      "name": "post",
      "outputs": [],
      "stateMutability": "payable",
      "type": "function"
    },
    {
      "inputs": [
        {
          "internalType": "address payable",
          "name": "to",
          "type": "address"
        },
        {
          "internalType": "uint256",
          "name": "amount",
          "type": "uint256"
        }
      ],
      "name": "withdraw",
      "outputs": [],
      "stateMutability": "nonpayable",
      "type": "function"
    },
    {
      "inputs": [
        {
          "internalType": "contract IPool",
          "name": "pool",
          "type": "address"
        },
        {
          "internalType": "bytes32",
          "name": "collateral",
          "type": "bytes32"
        },
        {
          "internalType": "uint256",
          "name": "maturity",
          "type": "uint256"
        },
        {
          "internalType": "address",
          "name": "to",
          "type": "address"
        },
        {
          "internalType": "uint256",
          "name": "daiToBorrow",
          "type": "uint256"
        },
        {
          "internalType": "uint256",
          "name": "maximumFYDai",
          "type": "uint256"
        }
      ],
      "name": "borrowDaiForMaximumFYDai",
      "outputs": [
        {
          "internalType": "uint256",
          "name": "",
          "type": "uint256"
        }
      ],
      "stateMutability": "nonpayable",
      "type": "function"
    },
    {
      "inputs": [
        {
          "internalType": "contract IPool",
          "name": "pool",
          "type": "address"
        },
        {
          "internalType": "bytes32",
          "name": "collateral",
          "type": "bytes32"
        },
        {
          "internalType": "uint256",
          "name": "maturity",
          "type": "uint256"
        },
        {
          "internalType": "address",
          "name": "to",
          "type": "address"
        },
        {
          "internalType": "uint256",
          "name": "minimumFYDaiRepayment",
          "type": "uint256"
        },
        {
          "internalType": "uint256",
          "name": "repaymentInDai",
          "type": "uint256"
        }
      ],
      "name": "repayMinimumFYDaiDebtForDai",
      "outputs": [
        {
          "internalType": "uint256",
          "name": "",
          "type": "uint256"
        }
      ],
      "stateMutability": "nonpayable",
      "type": "function"
    },
    {
      "inputs": [
        {
          "internalType": "contract IPool",
          "name": "pool",
          "type": "address"
        },
        {
          "internalType": "address",
          "name": "to",
          "type": "address"
        },
        {
          "internalType": "uint128",
          "name": "fyDaiIn",
          "type": "uint128"
        },
        {
          "internalType": "uint128",
          "name": "minDaiOut",
          "type": "uint128"
        }
      ],
      "name": "sellFYDai",
      "outputs": [
        {
          "internalType": "uint256",
          "name": "",
          "type": "uint256"
        }
      ],
      "stateMutability": "nonpayable",
      "type": "function"
    },
    {
      "inputs": [
        {
          "internalType": "contract IPool",
          "name": "pool",
          "type": "address"
        },
        {
          "internalType": "address",
          "name": "to",
          "type": "address"
        },
        {
          "internalType": "uint128",
          "name": "daiIn",
          "type": "uint128"
        },
        {
          "internalType": "uint128",
          "name": "minFYDaiOut",
          "type": "uint128"
        }
      ],
      "name": "sellDai",
      "outputs": [
        {
          "internalType": "uint256",
          "name": "",
          "type": "uint256"
        }
      ],
      "stateMutability": "nonpayable",
      "type": "function"
    },
    {
      "inputs": [
        {
          "internalType": "contract IPool",
          "name": "pool",
          "type": "address"
        },
        {
          "internalType": "address",
          "name": "to",
          "type": "address"
        },
        {
          "internalType": "uint128",
          "name": "daiOut",
          "type": "uint128"
        },
        {
          "internalType": "uint128",
          "name": "maxFYDaiIn",
          "type": "uint128"
        }
      ],
      "name": "buyDai",
      "outputs": [
        {
          "internalType": "uint256",
          "name": "",
          "type": "uint256"
        }
      ],
      "stateMutability": "nonpayable",
      "type": "function"
    },
    {
      "inputs": [],
      "name": "withdrawCheck",
      "outputs": [
        {
          "internalType": "bool",
          "name": "",
          "type": "bool"
        },
        {
          "internalType": "bool",
          "name": "",
          "type": "bool"
        }
      ],
      "stateMutability": "view",
      "type": "function"
    },
    {
      "inputs": [
        {
          "internalType": "address payable",
          "name": "to",
          "type": "address"
        },
        {
          "internalType": "uint256",
          "name": "amount",
          "type": "uint256"
        },
        {
          "internalType": "bytes",
          "name": "controllerSig",
          "type": "bytes"
        }
      ],
      "name": "withdrawWithSignature",
      "outputs": [],
      "stateMutability": "nonpayable",
      "type": "function"
    },
    {
      "inputs": [
        {
          "internalType": "contract IPool",
          "name": "pool",
          "type": "address"
        }
      ],
      "name": "borrowDaiForMaximumFYDaiCheck",
      "outputs": [
        {
          "internalType": "bool",
          "name": "",
          "type": "bool"
        },
        {
          "internalType": "bool",
          "name": "",
          "type": "bool"
        }
      ],
      "stateMutability": "view",
      "type": "function"
    },
    {
      "inputs": [
        {
          "internalType": "contract IPool",
          "name": "pool",
          "type": "address"
        }
      ],
      "name": "borrowDaiForMaximumFYDaiApprove",
      "outputs": [],
      "stateMutability": "nonpayable",
      "type": "function"
    },
    {
      "inputs": [
        {
          "internalType": "contract IPool",
          "name": "pool",
          "type": "address"
        },
        {
          "internalType": "bytes32",
          "name": "collateral",
          "type": "bytes32"
        },
        {
          "internalType": "uint256",
          "name": "maturity",
          "type": "uint256"
        },
        {
          "internalType": "address",
          "name": "to",
          "type": "address"
        },
        {
          "internalType": "uint256",
          "name": "daiToBorrow",
          "type": "uint256"
        },
        {
          "internalType": "uint256",
          "name": "maximumFYDai",
          "type": "uint256"
        },
        {
          "internalType": "bytes",
          "name": "controllerSig",
          "type": "bytes"
        }
      ],
      "name": "borrowDaiForMaximumFYDaiWithSignature",
      "outputs": [
        {
          "internalType": "uint256",
          "name": "",
          "type": "uint256"
        }
      ],
      "stateMutability": "nonpayable",
      "type": "function"
    },
    {
      "inputs": [],
      "name": "repayDaiCheck",
      "outputs": [
        {
          "internalType": "bool",
          "name": "",
          "type": "bool"
        },
        {
          "internalType": "bool",
          "name": "",
          "type": "bool"
        },
        {
          "internalType": "bool",
          "name": "",
          "type": "bool"
        }
      ],
      "stateMutability": "view",
      "type": "function"
    },
    {
      "inputs": [
        {
          "internalType": "bytes32",
          "name": "collateral",
          "type": "bytes32"
        },
        {
          "internalType": "uint256",
          "name": "maturity",
          "type": "uint256"
        },
        {
          "internalType": "address",
          "name": "to",
          "type": "address"
        },
        {
          "internalType": "uint256",
          "name": "daiAmount",
          "type": "uint256"
        },
        {
          "internalType": "bytes",
          "name": "daiSig",
          "type": "bytes"
        },
        {
          "internalType": "bytes",
          "name": "controllerSig",
          "type": "bytes"
        }
      ],
      "name": "repayDaiWithSignature",
      "outputs": [
        {
          "internalType": "uint256",
          "name": "",
          "type": "uint256"
        }
      ],
      "stateMutability": "nonpayable",
      "type": "function"
    },
    {
      "inputs": [
        {
          "internalType": "contract IPool",
          "name": "pool",
          "type": "address"
        }
      ],
      "name": "repayMinimumFYDaiDebtForDaiApprove",
      "outputs": [],
      "stateMutability": "nonpayable",
      "type": "function"
    },
    {
      "inputs": [
        {
          "internalType": "contract IPool",
          "name": "pool",
          "type": "address"
        }
      ],
      "name": "repayMinimumFYDaiDebtForDaiCheck",
      "outputs": [
        {
          "internalType": "bool",
          "name": "",
          "type": "bool"
        },
        {
          "internalType": "bool",
          "name": "",
          "type": "bool"
        },
        {
          "internalType": "bool",
          "name": "",
          "type": "bool"
        }
      ],
      "stateMutability": "view",
      "type": "function"
    },
    {
      "inputs": [
        {
          "internalType": "contract IPool",
          "name": "pool",
          "type": "address"
        },
        {
          "internalType": "bytes32",
          "name": "collateral",
          "type": "bytes32"
        },
        {
          "internalType": "uint256",
          "name": "maturity",
          "type": "uint256"
        },
        {
          "internalType": "address",
          "name": "to",
          "type": "address"
        },
        {
          "internalType": "uint256",
          "name": "minimumFYDaiRepayment",
          "type": "uint256"
        },
        {
          "internalType": "uint256",
          "name": "repaymentInDai",
          "type": "uint256"
        },
        {
          "internalType": "bytes",
          "name": "controllerSig",
          "type": "bytes"
        },
        {
          "internalType": "bytes",
          "name": "poolSig",
          "type": "bytes"
        }
      ],
      "name": "repayMinimumFYDaiDebtForDaiWithSignature",
      "outputs": [
        {
          "internalType": "uint256",
          "name": "",
          "type": "uint256"
        }
      ],
      "stateMutability": "nonpayable",
      "type": "function"
    },
    {
      "inputs": [
        {
          "internalType": "contract IPool",
          "name": "pool",
          "type": "address"
        }
      ],
      "name": "sellFYDaiCheck",
      "outputs": [
        {
          "internalType": "bool",
          "name": "",
          "type": "bool"
        },
        {
          "internalType": "bool",
          "name": "",
          "type": "bool"
        },
        {
          "internalType": "bool",
          "name": "",
          "type": "bool"
        }
      ],
      "stateMutability": "view",
      "type": "function"
    },
    {
      "inputs": [
        {
          "internalType": "contract IPool",
          "name": "pool",
          "type": "address"
        },
        {
          "internalType": "address",
          "name": "to",
          "type": "address"
        },
        {
          "internalType": "uint128",
          "name": "fyDaiIn",
          "type": "uint128"
        },
        {
          "internalType": "uint128",
          "name": "minDaiOut",
          "type": "uint128"
        },
        {
          "internalType": "bytes",
          "name": "fyDaiSig",
          "type": "bytes"
        },
        {
          "internalType": "bytes",
          "name": "poolSig",
          "type": "bytes"
        }
      ],
      "name": "sellFYDaiWithSignature",
      "outputs": [
        {
          "internalType": "uint256",
          "name": "",
          "type": "uint256"
        }
      ],
      "stateMutability": "nonpayable",
      "type": "function"
    },
    {
      "inputs": [
        {
          "internalType": "contract IPool",
          "name": "pool",
          "type": "address"
        }
      ],
      "name": "sellDaiCheck",
      "outputs": [
        {
          "internalType": "bool",
          "name": "",
          "type": "bool"
        },
        {
          "internalType": "bool",
          "name": "",
          "type": "bool"
        },
        {
          "internalType": "bool",
          "name": "",
          "type": "bool"
        }
      ],
      "stateMutability": "view",
      "type": "function"
    },
    {
      "inputs": [
        {
          "internalType": "contract IPool",
          "name": "pool",
          "type": "address"
        },
        {
          "internalType": "address",
          "name": "to",
          "type": "address"
        },
        {
          "internalType": "uint128",
          "name": "daiIn",
          "type": "uint128"
        },
        {
          "internalType": "uint128",
          "name": "minFYDaiOut",
          "type": "uint128"
        },
        {
          "internalType": "bytes",
          "name": "daiSig",
          "type": "bytes"
        },
        {
          "internalType": "bytes",
          "name": "poolSig",
          "type": "bytes"
        }
      ],
      "name": "sellDaiWithSignature",
      "outputs": [
        {
          "internalType": "uint256",
          "name": "",
          "type": "uint256"
        }
      ],
      "stateMutability": "nonpayable",
      "type": "function"
    },
    {
      "inputs": [
        {
          "internalType": "contract IPool",
          "name": "pool",
          "type": "address"
        }
      ],
      "name": "buyDaiCheck",
      "outputs": [
        {
          "internalType": "bool",
          "name": "",
          "type": "bool"
        },
        {
          "internalType": "bool",
          "name": "",
          "type": "bool"
        },
        {
          "internalType": "bool",
          "name": "",
          "type": "bool"
        }
      ],
      "stateMutability": "view",
      "type": "function"
    },
    {
      "inputs": [
        {
          "internalType": "contract IPool",
          "name": "pool",
          "type": "address"
        },
        {
          "internalType": "address",
          "name": "to",
          "type": "address"
        },
        {
          "internalType": "uint128",
          "name": "daiOut",
          "type": "uint128"
        },
        {
          "internalType": "uint128",
          "name": "maxFYDaiIn",
          "type": "uint128"
        },
        {
          "internalType": "bytes",
          "name": "fyDaiSig",
          "type": "bytes"
        },
        {
          "internalType": "bytes",
          "name": "poolSig",
          "type": "bytes"
        }
      ],
      "name": "buyDaiWithSignature",
      "outputs": [
        {
          "internalType": "uint256",
          "name": "",
          "type": "uint256"
        }
      ],
      "stateMutability": "nonpayable",
      "type": "function"
    }
  ],
  "bytecode": "0x6101006040523480156200001257600080fd5b506040516200321838038062003218833981810160405260208110156200003857600080fd5b5051604080516361d027b360e01b815290516000916001600160a01b038416916361d027b391600480820192602092909190829003018186803b1580156200007f57600080fd5b505afa15801562000094573d6000803e3d6000fd5b505050506040513d6020811015620000ab57600080fd5b505160408051633fc8cef360e01b815290519192506001600160a01b03831691633fc8cef391600480820192602092909190829003018186803b158015620000f257600080fd5b505afa15801562000107573d6000803e3d6000fd5b505050506040513d60208110156200011e57600080fd5b505160601b6001600160601b0319166080526040805163f4b9fa7560e01b815290516001600160a01b0383169163f4b9fa75916004808301926020929190829003018186803b1580156200017157600080fd5b505afa15801562000186573d6000803e3d6000fd5b505050506040513d60208110156200019d57600080fd5b5051606081811b6001600160601b031990811660a05283821b811660e05284821b1660c052608051901c926001600160a01b03918216929082169116612f846200029460003980610f61528061163e52806119d55280611b4b5280611c22528061251e528061261f528061278952508061100f528061122d52806112ca5280611406528061167f52806117d752806119175280611aae5280611d6d5280611fa952806121f952806127c852806128315280612a565280612b8f5250806119a5528061238252806126f752806127675280612b6b5250806114435280611b795280611bf35280611cc25280612ab75250612f846000f3fe6080604052600436106101bb5760003560e01c8063ae70747c116100ec578063d9c5bbc81161008a578063f3fef3a311610064578063f3fef3a314610d03578063f4b9fa7514610d3c578063f77c479114610d51578063fcf349cd14610d66576101c2565b8063d9c5bbc814610b46578063e810ecfb14610c9d578063ea47210014610cd0576101c2565b8063cee04e52116100c6578063cee04e5214610924578063d174af8b14610957578063d6dd8a891461098a578063d8150956146109de576101c2565b8063ae70747c14610827578063c45296331461087b578063cc53d7bf146108d0576101c2565b806361d027b31161015957806390d954631161013357806390d95463146107c257806399d97780146107d7578063a5363627146107ec578063ad5c464814610812576101c2565b806361d027b314610677578063671463cd1461068c578063741910011461076d576101c2565b80633a7cf759116101955780633a7cf759146103e35780633dfe88421461054b5780633fc8cef3146106135780635c61084b14610644576101c2565b806302d386bd146101c757806310c7310e1461021c5780632903dac31461026a576101c2565b366101c257005b600080fd5b3480156101d357600080fd5b506101fa600480360360208110156101ea57600080fd5b50356001600160a01b0316610ece565b6040805193151584529115156020840152151582820152519081900360600190f35b34801561022857600080fd5b5061024f6004803603602081101561023f57600080fd5b50356001600160a01b031661110d565b60408051921515835290151560208301528051918290030190f35b34801561027657600080fd5b506103d1600480360361010081101561028e57600080fd5b6001600160a01b0382358116926020810135926040820135926060830135169160808101359160a0820135919081019060e0810160c0820135600160201b8111156102d857600080fd5b8201836020820111156102ea57600080fd5b803590602001918460018302840111600160201b8311171561030b57600080fd5b91908080601f0160208091040260200160405190810160405280939291908181526020018383808284376000920191909152509295949360208101935035915050600160201b81111561035d57600080fd5b82018360208201111561036f57600080fd5b803590602001918460018302840111600160201b8311171561039057600080fd5b91908080601f0160208091040260200160405190810160405280939291908181526020018383808284376000920191909152509295506112ab945050505050565b60408051918252519081900360200190f35b3480156103ef57600080fd5b506103d1600480360360c081101561040657600080fd5b6001600160a01b0382358116926020810135909116916001600160801b03604083013581169260608101359091169181019060a081016080820135600160201b81111561045257600080fd5b82018360208201111561046457600080fd5b803590602001918460018302840111600160201b8311171561048557600080fd5b91908080601f0160208091040260200160405190810160405280939291908181526020018383808284376000920191909152509295949360208101935035915050600160201b8111156104d757600080fd5b8201836020820111156104e957600080fd5b803590602001918460018302840111600160201b8311171561050a57600080fd5b91908080601f016020809104026020016040519081016040528093929190818152602001838380828437600092019190915250929550611331945050505050565b34801561055757600080fd5b506106116004803603606081101561056e57600080fd5b6001600160a01b0382351691602081013591810190606081016040820135600160201b81111561059d57600080fd5b8201836020820111156105af57600080fd5b803590602001918460018302840111600160201b831117156105d057600080fd5b91908080601f0160208091040260200160405190810160405280939291908181526020018383808284376000920191909152509295506113f2945050505050565b005b34801561061f57600080fd5b50610628611441565b604080516001600160a01b039092168252519081900360200190f35b34801561065057600080fd5b506106116004803603602081101561066757600080fd5b50356001600160a01b0316611465565b34801561068357600080fd5b5061062861163c565b34801561069857600080fd5b506103d1600480360360e08110156106af57600080fd5b6001600160a01b0382358116926020810135926040820135926060830135169160808101359160a0820135919081019060e0810160c0820135600160201b8111156106f957600080fd5b82018360208201111561070b57600080fd5b803590602001918460018302840111600160201b8311171561072c57600080fd5b91908080601f016020809104026020016040519081016040528093929190818152602001838380828437600092019190915250929550611660945050505050565b34801561077957600080fd5b506103d1600480360360c081101561079057600080fd5b506001600160a01b03813581169160208101359160408201359160608101359091169060808101359060a001356116c5565b3480156107ce57600080fd5b5061024f6118e7565b3480156107e357600080fd5b506101fa611994565b6106116004803603602081101561080257600080fd5b50356001600160a01b0316611b2d565b34801561081e57600080fd5b506103d1611dd3565b34801561083357600080fd5b506103d16004803603608081101561084a57600080fd5b506001600160a01b0381358116916020810135909116906001600160801b0360408201358116916060013516611ddf565b34801561088757600080fd5b506103d1600480360360c081101561089e57600080fd5b506001600160a01b03813581169160208101359160408201359160608101359091169060808101359060a00135611edc565b3480156108dc57600080fd5b506103d1600480360360808110156108f357600080fd5b506001600160a01b0381358116916020810135909116906001600160801b036040820135811691606001351661227d565b34801561093057600080fd5b506101fa6004803603602081101561094757600080fd5b50356001600160a01b0316612371565b34801561096357600080fd5b506106116004803603602081101561097a57600080fd5b50356001600160a01b0316612491565b34801561099657600080fd5b506103d1600480360360808110156109ad57600080fd5b506001600160a01b0381358116916020810135909116906001600160801b036040820135811691606001351661267b565b3480156109ea57600080fd5b506103d1600480360360c0811015610a0157600080fd5b6001600160a01b0382358116926020810135909116916001600160801b03604083013581169260608101359091169181019060a081016080820135600160201b811115610a4d57600080fd5b820183602082011115610a5f57600080fd5b803590602001918460018302840111600160201b83111715610a8057600080fd5b91908080601f0160208091040260200160405190810160405280939291908181526020018383808284376000920191909152509295949360208101935035915050600160201b811115610ad257600080fd5b820183602082011115610ae457600080fd5b803590602001918460018302840111600160201b83111715610b0557600080fd5b91908080601f0160208091040260200160405190810160405280939291908181526020018383808284376000920191909152509295506126e0945050505050565b348015610b5257600080fd5b506103d1600480360360c0811015610b6957600080fd5b8135916020810135916001600160a01b036040830135169160608101359181019060a081016080820135600160201b811115610ba457600080fd5b820183602082011115610bb657600080fd5b803590602001918460018302840111600160201b83111715610bd757600080fd5b91908080601f0160208091040260200160405190810160405280939291908181526020018383808284376000920191909152509295949360208101935035915050600160201b811115610c2957600080fd5b820183602082011115610c3b57600080fd5b803590602001918460018302840111600160201b83111715610c5c57600080fd5b91908080601f016020809104026020016040519081016040528093929190818152602001838380828437600092019190915250929550612750945050505050565b348015610ca957600080fd5b506101fa60048036036020811015610cc057600080fd5b50356001600160a01b03166128b3565b348015610cdc57600080fd5b506101fa60048036036020811015610cf357600080fd5b50356001600160a01b0316612a00565b348015610d0f57600080fd5b5061061160048036036040811015610d2657600080fd5b506001600160a01b038135169060200135612a1b565b348015610d4857600080fd5b50610628612b69565b348015610d5d57600080fd5b50610628612b8d565b348015610d7257600080fd5b506103d1600480360360c0811015610d8957600080fd5b6001600160a01b0382358116926020810135909116916001600160801b03604083013581169260608101359091169181019060a081016080820135600160201b811115610dd557600080fd5b820183602082011115610de757600080fd5b803590602001918460018302840111600160201b83111715610e0857600080fd5b91908080601f0160208091040260200160405190810160405280939291908181526020018383808284376000920191909152509295949360208101935035915050600160201b811115610e5a57600080fd5b820183602082011115610e6c57600080fd5b803590602001918460018302840111600160201b83111715610e8d57600080fd5b91908080601f016020809104026020016040519081016040528093929190818152602001838380828437600092019190915250929550612bb1945050505050565b6000806000806001600160701b038016856001600160a01b031663284f44446040518163ffffffff1660e01b815260040160206040518083038186803b158015610f1757600080fd5b505afa158015610f2b573d6000803e3d6000fd5b505050506040513d6020811015610f4157600080fd5b505160408051636eb1769f60e11b81523060048201526001600160a01b037f0000000000000000000000000000000000000000000000000000000000000000811660248301529151919092169163dd62ed3e916044808301926020929190829003018186803b158015610fb357600080fd5b505afa158015610fc7573d6000803e3d6000fd5b505050506040513d6020811015610fdd57600080fd5b50516040805163f6bcbd3160e01b81523360048201523060248201529051929091101592506000916001600160a01b037f0000000000000000000000000000000000000000000000000000000000000000169163f6bcbd31916044808301926020929190829003018186803b15801561105557600080fd5b505afa158015611069573d6000803e3d6000fd5b505050506040513d602081101561107f57600080fd5b50516040805163f6bcbd3160e01b815233600482015230602482015290519192506000916001600160a01b0389169163f6bcbd31916044808301926020929190829003018186803b1580156110d357600080fd5b505afa1580156110e7573d6000803e3d6000fd5b505050506040513d60208110156110fd57600080fd5b5051929791965091945092505050565b60008060006001600160701b038016846001600160a01b031663284f44446040518163ffffffff1660e01b815260040160206040518083038186803b15801561115557600080fd5b505afa158015611169573d6000803e3d6000fd5b505050506040513d602081101561117f57600080fd5b505160408051636eb1769f60e11b81523060048201526001600160a01b0388811660248301529151919092169163dd62ed3e916044808301926020929190829003018186803b1580156111d157600080fd5b505afa1580156111e5573d6000803e3d6000fd5b505050506040513d60208110156111fb57600080fd5b50516040805163f6bcbd3160e01b81523360048201523060248201529051929091101592506000916001600160a01b037f0000000000000000000000000000000000000000000000000000000000000000169163f6bcbd31916044808301926020929190829003018186803b15801561127357600080fd5b505afa158015611287573d6000803e3d6000fd5b505050506040513d602081101561129d57600080fd5b505191935090915050915091565b60006112b689612491565b8251156112f6576112f66001600160a01b037f0000000000000000000000000000000000000000000000000000000000000000168463ffffffff612c2516565b815115611316576113166001600160a01b038a168363ffffffff612c2516565b611324898989898989611edc565b9998505050505050505050565b8151600090156113bb576113bb8784896001600160a01b031663284f44446040518163ffffffff1660e01b815260040160206040518083038186803b15801561137957600080fd5b505afa15801561138d573d6000803e3d6000fd5b505050506040513d60208110156113a357600080fd5b50516001600160a01b0316919063ffffffff612cc716565b8151156113db576113db6001600160a01b0388168363ffffffff612c2516565b6113e78787878761227d565b979650505050505050565b805115611432576114326001600160a01b037f0000000000000000000000000000000000000000000000000000000000000000168263ffffffff612c2516565b61143c8383612a1b565b505050565b7f000000000000000000000000000000000000000000000000000000000000000081565b6001600160701b038016816001600160a01b031663284f44446040518163ffffffff1660e01b815260040160206040518083038186803b1580156114a857600080fd5b505afa1580156114bc573d6000803e3d6000fd5b505050506040513d60208110156114d257600080fd5b505160408051636eb1769f60e11b81523060048201526001600160a01b0385811660248301529151919092169163dd62ed3e916044808301926020929190829003018186803b15801561152457600080fd5b505afa158015611538573d6000803e3d6000fd5b505050506040513d602081101561154e57600080fd5b5051101561163957806001600160a01b031663284f44446040518163ffffffff1660e01b815260040160206040518083038186803b15801561158f57600080fd5b505afa1580156115a3573d6000803e3d6000fd5b505050506040513d60208110156115b957600080fd5b50516040805163095ea7b360e01b81526001600160a01b03848116600483015260001960248301529151919092169163095ea7b39160448083019260209291908290030181600087803b15801561160f57600080fd5b505af1158015611623573d6000803e3d6000fd5b505050506040513d602081101561143c57600080fd5b50565b7f000000000000000000000000000000000000000000000000000000000000000081565b600061166b88611465565b8151156116ab576116ab6001600160a01b037f0000000000000000000000000000000000000000000000000000000000000000168363ffffffff612c2516565b6116b98888888888886116c5565b98975050505050505050565b600080876001600160a01b0316634e20e9526116e086612d74565b6040518263ffffffff1660e01b815260040180826001600160801b03166001600160801b0316815260200191505060206040518083038186803b15801561172657600080fd5b505afa15801561173a573d6000803e3d6000fd5b505050506040513d602081101561175057600080fd5b50516001600160801b031690508281111561179c5760405162461bcd60e51b8152600401808060200182810382526024815260200180612f2b6024913960400191505060405180910390fd5b6040805163801d325f60e01b815260048101899052602481018890523360448201523060648201526084810183905290516001600160a01b037f0000000000000000000000000000000000000000000000000000000000000000169163801d325f9160a480830192600092919082900301818387803b15801561181e57600080fd5b505af1158015611832573d6000803e3d6000fd5b50505050876001600160a01b031663cc5783d3308761185088612d74565b604080516001600160e01b031960e087901b1681526001600160a01b0394851660048201529290931660248301526001600160801b03166044820152905160648083019260209291908290030181600087803b1580156118af57600080fd5b505af11580156118c3573d6000803e3d6000fd5b505050506040513d60208110156118d957600080fd5b509098975050505050505050565b6040805163f6bcbd3160e01b81523360048201523060248201529051600091829160019183916001600160a01b037f0000000000000000000000000000000000000000000000000000000000000000169163f6bcbd31916044808301926020929190829003018186803b15801561195d57600080fd5b505afa158015611971573d6000803e3d6000fd5b505050506040513d602081101561198757600080fd5b5051919350909150509091565b6000806000806001905060006000197f00000000000000000000000000000000000000000000000000000000000000006001600160a01b031663dd62ed3e337f00000000000000000000000000000000000000000000000000000000000000006040518363ffffffff1660e01b815260040180836001600160a01b03166001600160a01b03168152602001826001600160a01b03166001600160a01b031681526020019250505060206040518083038186803b158015611a5357600080fd5b505afa158015611a67573d6000803e3d6000fd5b505050506040513d6020811015611a7d57600080fd5b50516040805163f6bcbd3160e01b815233600482015230602482015290519290911492506000916001600160a01b037f0000000000000000000000000000000000000000000000000000000000000000169163f6bcbd31916044808301926020929190829003018186803b158015611af457600080fd5b505afa158015611b08573d6000803e3d6000fd5b505050506040513d6020811015611b1e57600080fd5b50519296919550919350915050565b60408051636eb1769f60e11b81523060048201526001600160a01b037f0000000000000000000000000000000000000000000000000000000000000000811660248301529151600019927f0000000000000000000000000000000000000000000000000000000000000000169163dd62ed3e916044808301926020929190829003018186803b158015611bbf57600080fd5b505afa158015611bd3573d6000803e3d6000fd5b505050506040513d6020811015611be957600080fd5b50511015611cc0577f00000000000000000000000000000000000000000000000000000000000000006001600160a01b031663095ea7b37f00000000000000000000000000000000000000000000000000000000000000006000196040518363ffffffff1660e01b815260040180836001600160a01b03166001600160a01b0316815260200182815260200192505050602060405180830381600087803b158015611c9357600080fd5b505af1158015611ca7573d6000803e3d6000fd5b505050506040513d6020811015611cbd57600080fd5b50505b7f00000000000000000000000000000000000000000000000000000000000000006001600160a01b031663d0e30db0346040518263ffffffff1660e01b81526004016000604051808303818588803b158015611d1b57600080fd5b505af1158015611d2f573d6000803e3d6000fd5b5050604080516356dcf2a760e11b8152644554482d4160d81b60048201523060248201526001600160a01b03868116604483015234606483015291517f0000000000000000000000000000000000000000000000000000000000000000909216945063adb9e54e9350608480820193506000929182900301818387803b158015611db857600080fd5b505af1158015611dcc573d6000803e3d6000fd5b5050505050565b644554482d4160d81b81565b60408051635935f49160e11b81523360048201526001600160a01b0385811660248301526001600160801b0385166044830152915160009283929088169163b26be9229160648082019260209290919082900301818787803b158015611e4457600080fd5b505af1158015611e58573d6000803e3d6000fd5b505050506040513d6020811015611e6e57600080fd5b50516001600160801b0390811691508316811015611ed3576040805162461bcd60e51b815260206004820152601e60248201527f426f72726f7750726f78793a204c696d6974206e6f7420726561636865640000604482015290519081900360640190fd5b95945050505050565b600080876001600160a01b03166385561a34611ef785612d74565b6040518263ffffffff1660e01b815260040180826001600160801b03166001600160801b0316815260200191505060206040518083038186803b158015611f3d57600080fd5b505afa158015611f51573d6000803e3d6000fd5b505050506040513d6020811015611f6757600080fd5b5051604080516324c94bb560e21b8152600481018a9052602481018990526001600160a01b03888116604483015291516001600160801b0390931693506000927f0000000000000000000000000000000000000000000000000000000000000000909216916393252ed491606480820192602092909190829003018186803b158015611ff257600080fd5b505afa158015612006573d6000803e3d6000fd5b505050506040513d602081101561201c57600080fd5b505190508082116120d257886001600160a01b031663b26be922333061204188612d74565b604080516001600160e01b031960e087901b1681526001600160a01b0394851660048201529290931660248301526001600160801b03166044820152905160648083019260209291908290030181600087803b1580156120a057600080fd5b505af11580156120b4573d6000803e3d6000fd5b505050506040513d60208110156120ca57600080fd5b5061217d9050565b886001600160a01b0316637543e39c33306120ec85612d74565b604080516001600160e01b031960e087901b1681526001600160a01b0394851660048201529290931660248301526001600160801b03166044820152905160648083019260209291908290030181600087803b15801561214b57600080fd5b505af115801561215f573d6000803e3d6000fd5b505050506040513d602081101561217557600080fd5b509091508190505b848210156121bc5760405162461bcd60e51b8152600401808060200182810382526029815260200180612f026029913960400191505060405180910390fd5b6040805163b93dd41d60e01b8152600481018a9052602481018990523060448201526001600160a01b0388811660648301526084820185905291517f00000000000000000000000000000000000000000000000000000000000000009092169163b93dd41d9160a4808201926020929091908290030181600087803b15801561224457600080fd5b505af1158015612258573d6000803e3d6000fd5b505050506040513d602081101561226e57600080fd5b50919998505050505050505050565b6040805163cc5783d360e01b81523360048201526001600160a01b0385811660248301526001600160801b0385166044830152915160009283929088169163cc5783d39160648082019260209290919082900301818787803b1580156122e257600080fd5b505af11580156122f6573d6000803e3d6000fd5b505050506040513d602081101561230c57600080fd5b50516001600160801b0390811691508316811115611ed3576040805162461bcd60e51b815260206004820152601b60248201527f426f72726f7750726f78793a204c696d69742065786365656465640000000000604482015290519081900360640190fd5b6000806000806001905060006000197f00000000000000000000000000000000000000000000000000000000000000006001600160a01b031663dd62ed3e33896040518363ffffffff1660e01b815260040180836001600160a01b03166001600160a01b03168152602001826001600160a01b03166001600160a01b031681526020019250505060206040518083038186803b15801561241057600080fd5b505afa158015612424573d6000803e3d6000fd5b505050506040513d602081101561243a57600080fd5b50516040805163f6bcbd3160e01b815233600482015230602482015290519290911492506000916001600160a01b0389169163f6bcbd31916044808301926020929190829003018186803b1580156110d357600080fd5b6001600160701b038016816001600160a01b031663284f44446040518163ffffffff1660e01b815260040160206040518083038186803b1580156124d457600080fd5b505afa1580156124e8573d6000803e3d6000fd5b505050506040513d60208110156124fe57600080fd5b505160408051636eb1769f60e11b81523060048201526001600160a01b037f0000000000000000000000000000000000000000000000000000000000000000811660248301529151919092169163dd62ed3e916044808301926020929190829003018186803b15801561257057600080fd5b505afa158015612584573d6000803e3d6000fd5b505050506040513d602081101561259a57600080fd5b5051101561163957806001600160a01b031663284f44446040518163ffffffff1660e01b815260040160206040518083038186803b1580156125db57600080fd5b505afa1580156125ef573d6000803e3d6000fd5b505050506040513d602081101561260557600080fd5b50516040805163095ea7b360e01b81526001600160a01b037f00000000000000000000000000000000000000000000000000000000000000008116600483015260001960248301529151919092169163095ea7b39160448083019260209291908290030181600087803b15801561160f57600080fd5b604080516360561e0560e01b81523360048201526001600160a01b0385811660248301526001600160801b038516604483015291516000928392908816916360561e059160648082019260209290919082900301818787803b158015611e4457600080fd5b815160009015612724576127246001600160a01b037f000000000000000000000000000000000000000000000000000000000000000016888563ffffffff612dd616565b815115612744576127446001600160a01b0388168363ffffffff612c2516565b6113e787878787611ddf565b8151600090156127b4576127b46001600160a01b037f0000000000000000000000000000000000000000000000000000000000000000167f00000000000000000000000000000000000000000000000000000000000000008563ffffffff612dd616565b8151156127f4576127f46001600160a01b037f0000000000000000000000000000000000000000000000000000000000000000168363ffffffff612c2516565b604080516325d3cd1760e01b815260048101899052602481018890523360448201526001600160a01b0387811660648301526084820187905291517f0000000000000000000000000000000000000000000000000000000000000000909216916325d3cd179160a4808201926020929091908290030181600087803b15801561287c57600080fd5b505af1158015612890573d6000803e3d6000fd5b505050506040513d60208110156128a657600080fd5b5090979650505050505050565b6000806000806001905060006001600160701b038016866001600160a01b031663284f44446040518163ffffffff1660e01b815260040160206040518083038186803b15801561290257600080fd5b505afa158015612916573d6000803e3d6000fd5b505050506040513d602081101561292c57600080fd5b505160408051636eb1769f60e11b81523360048201526001600160a01b038a811660248301529151919092169163dd62ed3e916044808301926020929190829003018186803b15801561297e57600080fd5b505afa158015612992573d6000803e3d6000fd5b505050506040513d60208110156129a857600080fd5b50516040805163f6bcbd3160e01b81523360048201523060248201529051929091101592506000916001600160a01b0389169163f6bcbd31916044808301926020929190829003018186803b1580156110d357600080fd5b6000806000612a0e846128b3565b9250925092509193909250565b6040805163470660bb60e11b8152644554482d4160d81b60048201523360248201523060448201526064810183905290516001600160a01b037f00000000000000000000000000000000000000000000000000000000000000001691638e0cc17691608480830192600092919082900301818387803b158015612a9d57600080fd5b505af1158015612ab1573d6000803e3d6000fd5b505050507f00000000000000000000000000000000000000000000000000000000000000006001600160a01b0316632e1a7d4d826040518263ffffffff1660e01b815260040180828152602001915050600060405180830381600087803b158015612b1b57600080fd5b505af1158015612b2f573d6000803e3d6000fd5b50506040516001600160a01b038516925083156108fc02915083906000818181858888f1935050505015801561143c573d6000803e3d6000fd5b7f000000000000000000000000000000000000000000000000000000000000000081565b7f000000000000000000000000000000000000000000000000000000000000000081565b815160009015612bf957612bf98784896001600160a01b031663284f44446040518163ffffffff1660e01b815260040160206040518083038186803b15801561137957600080fd5b815115612c1957612c196001600160a01b0388168363ffffffff612c2516565b6113e78787878761267b565b6000806000612c3384612ee6565b60408051631a28ff0560e01b8152336004820152306024820152600019604482015260ff831660648201526084810185905260a48101849052905193965091945092506001600160a01b03871691631a28ff059160c48082019260009290919082900301818387803b158015612ca857600080fd5b505af1158015612cbc573d6000803e3d6000fd5b505050505050505050565b6000806000612cd584612ee6565b6040805163d505accf60e01b81523360048201526001600160a01b038a8116602483015260001960448301819052606483015260ff8416608483015260a4820186905260c48201859052915194975092955090935088169163d505accf9160e48082019260009290919082900301818387803b158015612d5457600080fd5b505af1158015612d68573d6000803e3d6000fd5b50505050505050505050565b60006001600160801b03821115612dd2576040805162461bcd60e51b815260206004820152601760248201527f53616665436173743a2043617374206f766572666c6f77000000000000000000604482015290519081900360640190fd5b5090565b6000806000612de484612ee6565b60408051623f675f60e91b8152336004820181905291519497509295509093506001600160a01b03891692638fcbaf0c9289918591637ecebe00916024808301926020929190829003018186803b158015612e3e57600080fd5b505afa158015612e52573d6000803e3d6000fd5b505050506040513d6020811015612e6857600080fd5b5051604080516001600160e01b031960e087901b1681526001600160a01b039485166004820152929093166024830152604482015260001960648201526001608482015260ff851660a482015260c4810187905260e48101869052905161010480830192600092919082900301818387803b158015612d5457600080fd5b60208101516040820151606090920151909260009190911a9056fe426f72726f7750726f78793a204e6f7420656e6f756768206679446169206465627420726570616964426f72726f7750726f78793a20546f6f206d756368206679446169207265717569726564a264697066735822122034d9f0cd9d1ce1870a283438db72a962adedb4bbb74e85bd111effbadf7ba9db64736f6c634300060a0033",
  "immutableReferences": {
    "22654": [
      {
        "length": 32,
        "start": 5187
      },
      {
        "length": 32,
        "start": 7033
      },
      {
        "length": 32,
        "start": 7155
      },
      {
        "length": 32,
        "start": 7362
      },
      {
        "length": 32,
        "start": 10935
      }
    ],
    "22656": [
      {
        "length": 32,
        "start": 6565
      },
      {
        "length": 32,
        "start": 9090
      },
      {
        "length": 32,
        "start": 9975
      },
      {
        "length": 32,
        "start": 10087
      },
      {
        "length": 32,
        "start": 11115
      }
    ],
    "22658": [
      {
        "length": 32,
        "start": 4111
      },
      {
        "length": 32,
        "start": 4653
      },
      {
        "length": 32,
        "start": 4810
      },
      {
        "length": 32,
        "start": 5126
      },
      {
        "length": 32,
        "start": 5759
      },
      {
        "length": 32,
        "start": 6103
      },
      {
        "length": 32,
        "start": 6423
      },
      {
        "length": 32,
        "start": 6830
      },
      {
        "length": 32,
        "start": 7533
      },
      {
        "length": 32,
        "start": 8105
      },
      {
        "length": 32,
        "start": 8697
      },
      {
        "length": 32,
        "start": 10184
      },
      {
        "length": 32,
        "start": 10289
      },
      {
        "length": 32,
        "start": 10838
      },
      {
        "length": 32,
        "start": 11151
      }
    ],
    "22660": [
      {
        "length": 32,
        "start": 3937
      },
      {
        "length": 32,
        "start": 5694
      },
      {
        "length": 32,
        "start": 6613
      },
      {
        "length": 32,
        "start": 6987
      },
      {
        "length": 32,
        "start": 7202
      },
      {
        "length": 32,
        "start": 9502
      },
      {
        "length": 32,
        "start": 9759
      },
      {
        "length": 32,
        "start": 10121
      }
    ]
  },
  "source": "// SPDX-License-Identifier: GPL-3.0-or-later\npragma solidity ^0.6.10;\n\nimport \"../interfaces/IWeth.sol\";\nimport \"../interfaces/IDai.sol\";\nimport \"../interfaces/IFYDai.sol\";\nimport \"../interfaces/ITreasury.sol\";\nimport \"../interfaces/IController.sol\";\nimport \"../interfaces/IPool.sol\";\nimport \"../helpers/SafeCast.sol\";\nimport \"../helpers/YieldAuth.sol\";\n\n\ncontract BorrowProxy {\n    using SafeCast for uint256;\n    using YieldAuth for IDai;\n    using YieldAuth for IFYDai;\n    using YieldAuth for IController;\n    using YieldAuth for IPool;\n\n    IWeth public immutable weth;\n    IDai public immutable dai;\n    IController public immutable controller;\n    address public immutable treasury;\n\n    bytes32 public constant WETH = \"ETH-A\";\n\n    constructor(IController _controller) public {\n        ITreasury _treasury = _controller.treasury();\n        weth = _treasury.weth();\n        dai = _treasury.dai();\n        treasury = address(_treasury);\n        controller = _controller;\n    }\n\n    /// @dev The WETH9 contract will send ether to BorrowProxy on `weth.withdraw` using this function.\n    receive() external payable { }\n\n    /// @dev Users use `post` in BorrowProxy to post ETH to the Controller (amount = msg.value), which will be converted to Weth here.\n    /// @param to Yield Vault to deposit collateral in.\n    function post(address to)\n        external payable {\n        // Approvals in the constructor don't work for contracts calling this via `addDelegatecall`\n        if (weth.allowance(address(this), treasury) < type(uint256).max) weth.approve(treasury, type(uint256).max);\n\n        weth.deposit{ value: msg.value }();\n        controller.post(WETH, address(this), to, msg.value);\n    }\n\n    /// @dev Users wishing to withdraw their Weth as ETH from the Controller should use this function.\n    /// Users must have called `controller.addDelegate(borrowProxy.address)` or `withdrawWithSignature` to authorize BorrowProxy to act in their behalf.\n    /// @param to Wallet to send Eth to.\n    /// @param amount Amount of weth to move.\n    function withdraw(address payable to, uint256 amount)\n        public {\n        controller.withdraw(WETH, msg.sender, address(this), amount);\n        weth.withdraw(amount);\n        to.transfer(amount);\n    }\n\n    /// @dev Borrow fyDai from Controller and sell it immediately for Dai, for a maximum fyDai debt.\n    /// Must have approved the operator with `controller.addDelegate(borrowProxy.address)` or with `borrowDaiForMaximumFYDaiWithSignature`.\n    /// Caller must have called `borrowDaiForMaximumFYDaiWithSignature` at least once before to set proxy approvals.\n    /// @param collateral Valid collateral type.\n    /// @param maturity Maturity of an added series\n    /// @param to Wallet to send the resulting Dai to.\n    /// @param daiToBorrow Exact amount of Dai that should be obtained.\n    /// @param maximumFYDai Maximum amount of FYDai to borrow.\n    function borrowDaiForMaximumFYDai(\n        IPool pool,\n        bytes32 collateral,\n        uint256 maturity,\n        address to,\n        uint256 daiToBorrow,\n        uint256 maximumFYDai\n    )\n        public\n        returns (uint256)\n    {\n        uint256 fyDaiToBorrow = pool.buyDaiPreview(daiToBorrow.toUint128());\n        require (fyDaiToBorrow <= maximumFYDai, \"BorrowProxy: Too much fyDai required\");\n\n        // The collateral for this borrow needs to have been posted beforehand\n        controller.borrow(collateral, maturity, msg.sender, address(this), fyDaiToBorrow);\n        pool.buyDai(address(this), to, daiToBorrow.toUint128());\n\n        return fyDaiToBorrow;\n    }\n\n    /// @dev Repay an amount of fyDai debt in Controller using a given amount of Dai exchanged for fyDai at pool rates, with a minimum of fyDai debt required to be paid.\n    /// Must have approved the operator with `controller.addDelegate(borrowProxy.address)` or with `repayMinimumFYDaiDebtForDaiWithSignature`.\n    /// Must have approved the operator with `pool.addDelegate(borrowProxy.address)` or with `repayMinimumFYDaiDebtForDaiWithSignature`.\n    /// If `repaymentInDai` exceeds the existing debt, only the necessary Dai will be used.\n    /// @param collateral Valid collateral type.\n    /// @param maturity Maturity of an added series\n    /// @param to Yield Vault to repay fyDai debt for.\n    /// @param minimumFYDaiRepayment Minimum amount of fyDai debt to repay.\n    /// @param repaymentInDai Exact amount of Dai that should be spent on the repayment.\n    function repayMinimumFYDaiDebtForDai(\n        IPool pool,\n        bytes32 collateral,\n        uint256 maturity,\n        address to,\n        uint256 minimumFYDaiRepayment,\n        uint256 repaymentInDai\n    )\n        public\n        returns (uint256)\n    {\n        uint256 fyDaiRepayment = pool.sellDaiPreview(repaymentInDai.toUint128());\n        uint256 fyDaiDebt = controller.debtFYDai(collateral, maturity, to);\n        if(fyDaiRepayment <= fyDaiDebt) { // Sell no more Dai than needed to cancel all the debt\n            pool.sellDai(msg.sender, address(this), repaymentInDai.toUint128());\n        } else { // If we have too much Dai, then don't sell it all and buy the exact amount of fyDai needed instead.\n            pool.buyFYDai(msg.sender, address(this), fyDaiDebt.toUint128());\n            fyDaiRepayment = fyDaiDebt;\n        }\n        require (fyDaiRepayment >= minimumFYDaiRepayment, \"BorrowProxy: Not enough fyDai debt repaid\");\n        controller.repayFYDai(collateral, maturity, address(this), to, fyDaiRepayment);\n\n        return fyDaiRepayment;\n    }\n\n    /// @dev Sell fyDai for Dai\n    /// Caller must have approved the fyDai transfer with `fyDai.approve(fyDaiUsed)` or with `sellFYDaiWithSignature`.\n    /// Caller must have approved the proxy using`pool.addDelegate(borrowProxy)` or with `sellFYDaiWithSignature`.\n    /// @param to Wallet receiving the dai being bought\n    /// @param fyDaiIn Amount of fyDai being sold\n    /// @param minDaiOut Minimum amount of dai being bought\n    function sellFYDai(IPool pool, address to, uint128 fyDaiIn, uint128 minDaiOut)\n        public\n        returns(uint256)\n    {\n        uint256 daiOut = pool.sellFYDai(msg.sender, to, fyDaiIn);\n        require(\n            daiOut >= minDaiOut,\n            \"BorrowProxy: Limit not reached\"\n        );\n        return daiOut;\n    }\n\n    /// @dev Sell Dai for fyDai\n    /// Caller must have approved the dai transfer with `dai.approve(fyDaiUsed)` or with `sellDaiWithSignature`.\n    /// Caller must have approved the proxy using`pool.addDelegate(borrowProxy)` or with `sellDaiWithSignature`.\n    /// @param to Wallet receiving the fyDai being bought\n    /// @param daiIn Amount of dai being sold\n    /// @param minFYDaiOut Minimum amount of fyDai being bought\n    function sellDai(IPool pool, address to, uint128 daiIn, uint128 minFYDaiOut)\n        public\n        returns(uint256)\n    {\n        uint256 fyDaiOut = pool.sellDai(msg.sender, to, daiIn);\n        require(\n            fyDaiOut >= minFYDaiOut,\n            \"BorrowProxy: Limit not reached\"\n        );\n        return fyDaiOut;\n    }\n\n    /// @dev Buy Dai for fyDai\n    /// Caller must have approved the fyDai transfer with `fyDai.approve(maxFYDaiIn)` or with `buyDaiWithSignature`.\n    /// Caller must have approved the proxy using`pool.addDelegate(borrowProxy)` or with `buyDaiWithSignature`.\n    /// @param to Wallet receiving the dai being bought\n    /// @param daiOut Amount of dai being bought\n    /// @param maxFYDaiIn Maximum amount of fyDai being sold\n    function buyDai(IPool pool, address to, uint128 daiOut, uint128 maxFYDaiIn)\n        public\n        returns(uint256)\n    {\n        uint256 fyDaiIn = pool.buyDai(msg.sender, to, daiOut);\n        require(\n            maxFYDaiIn >= fyDaiIn,\n            \"BorrowProxy: Limit exceeded\"\n        );\n        return fyDaiIn;\n    }\n\n    /// --------------------------------------------------\n    /// Signature method wrappers\n    /// --------------------------------------------------\n\n    /// @dev Determine whether all approvals and signatures are in place for `withdrawWithSignature`.\n    /// `return[0]` is always `true`, meaning that no proxy approvals are ever needed.\n    /// If `return[1]` is `false`, `withdrawWithSignature` must be called with a controller signature.\n    /// If `return` is `(true, true)`, `withdrawWithSignature` won't fail because of missing approvals or signatures.\n    function withdrawCheck() public view returns (bool, bool) {\n        bool approvals = true; // sellFYDai doesn't need proxy approvals\n        bool controllerSig = controller.delegated(msg.sender, address(this));\n        return (approvals, controllerSig);\n    }\n\n    /// @dev Users wishing to withdraw their Weth as ETH from the Controller should use this function.\n    /// @param to Wallet to send Eth to.\n    /// @param amount Amount of weth to move.\n    /// @param controllerSig packed signature for delegation of this proxy in the controller. Ignored if '0x'.\n    function withdrawWithSignature(address payable to, uint256 amount, bytes memory controllerSig)\n        public {\n        if (controllerSig.length > 0) controller.addDelegatePacked(controllerSig);\n        withdraw(to, amount);\n    }\n\n    /// @dev Determine whether all approvals and signatures are in place for `borrowDaiForMaximumFYDai` with a given pool.\n    /// If `return[0]` is `false`, calling `borrowDaiForMaximumFYDaiWithSignature` will set the approvals.\n    /// If `return[1]` is `false`, `borrowDaiForMaximumFYDaiWithSignature` must be called with a controller signature\n    /// If `return` is `(true, true)`, `borrowDaiForMaximumFYDai` won't fail because of missing approvals or signatures.\n    function borrowDaiForMaximumFYDaiCheck(IPool pool) public view returns (bool, bool) {\n        bool approvals = pool.fyDai().allowance(address(this), address(pool)) >= type(uint112).max;\n        bool controllerSig = controller.delegated(msg.sender, address(this));\n        return (approvals, controllerSig);\n    }\n\n    /// @dev Set proxy approvals for `borrowDaiForMaximumFYDai` with a given pool.\n    function borrowDaiForMaximumFYDaiApprove(IPool pool) public {\n        // allow the pool to pull FYDai/dai from us for LPing\n        if (pool.fyDai().allowance(address(this), address(pool)) < type(uint112).max)\n            pool.fyDai().approve(address(pool), type(uint256).max);\n    }\n\n    /// @dev Borrow fyDai from Controller and sell it immediately for Dai, for a maximum fyDai debt.\n    /// @param collateral Valid collateral type.\n    /// @param maturity Maturity of an added series\n    /// @param to Wallet to send the resulting Dai to.\n    /// @param daiToBorrow Exact amount of Dai that should be obtained.\n    /// @param maximumFYDai Maximum amount of FYDai to borrow.\n    /// @param controllerSig packed signature for delegation of this proxy in the controller. Ignored if '0x'.\n    function borrowDaiForMaximumFYDaiWithSignature(\n        IPool pool,\n        bytes32 collateral,\n        uint256 maturity,\n        address to,\n        uint256 daiToBorrow,\n        uint256 maximumFYDai,\n        bytes memory controllerSig\n    )\n        public\n        returns (uint256)\n    {\n        borrowDaiForMaximumFYDaiApprove(pool);\n        if (controllerSig.length > 0) controller.addDelegatePacked(controllerSig);\n        return borrowDaiForMaximumFYDai(pool, collateral, maturity, to, daiToBorrow, maximumFYDai);\n    }\n\n    /// @dev Determine whether all approvals and signatures are in place for `repayDaiWithSignature`.\n    /// `return[0]` is always `true`, meaning that no proxy approvals are ever needed.\n    /// If `return[1]` is `false`, `repayDaiWithSignature` must be called with a dai permit signature.\n    /// If `return[2]` is `false`, `repayDaiWithSignature` must be called with a controller signature.\n    /// If `return` is `(true, true, true)`, `repayDaiWithSignature` won't fail because of missing approvals or signatures.\n    /// If `return` is `(true, true, any)`, `controller.repayDai` can be called directly and won't fail because of missing approvals or signatures.\n    function repayDaiCheck() public view returns (bool, bool, bool) {\n        bool approvals = true; // repayDai doesn't need proxy approvals\n        bool daiSig = dai.allowance(msg.sender, treasury) == type(uint256).max;\n        bool controllerSig = controller.delegated(msg.sender, address(this));\n        return (approvals, daiSig, controllerSig);\n    }\n\n    /// @dev Burns Dai from caller to repay debt in a Yield Vault.\n    /// User debt is decreased for the given collateral and fyDai series, in Yield vault `to`.\n    /// The amount of debt repaid changes according to series maturity and MakerDAO rate and chi, depending on collateral type.\n    /// `A signature is provided as a parameter to this function, so that `dai.approve()` doesn't need to be called.\n    /// @param collateral Valid collateral type.\n    /// @param maturity Maturity of an added series\n    /// @param to Yield vault to repay debt for.\n    /// @param daiAmount Amount of Dai to use for debt repayment.\n    /// @param daiSig packed signature for permit of dai transfers to this proxy. Ignored if '0x'.\n    /// @param controllerSig packed signature for delegation of this proxy in the controller. Ignored if '0x'.\n    function repayDaiWithSignature(\n        bytes32 collateral,\n        uint256 maturity,\n        address to,\n        uint256 daiAmount,\n        bytes memory daiSig,\n        bytes memory controllerSig\n    )\n        external\n        returns(uint256)\n    {\n        if (daiSig.length > 0) dai.permitPackedDai(treasury, daiSig);\n        if (controllerSig.length > 0) controller.addDelegatePacked(controllerSig);\n        controller.repayDai(collateral, maturity, msg.sender, to, daiAmount);\n    }\n\n    /// @dev Set proxy approvals for `repayMinimumFYDaiDebtForDai` with a given pool.\n    function repayMinimumFYDaiDebtForDaiApprove(IPool pool) public {\n        // allow the treasury to pull FYDai from us for repaying\n        if (pool.fyDai().allowance(address(this), treasury) < type(uint112).max)\n            pool.fyDai().approve(treasury, type(uint256).max);\n    }\n\n    /// @dev Determine whether all approvals and signatures are in place for `repayMinimumFYDaiDebtForDai` with a given pool.\n    /// If `return[0]` is `false`, calling `repayMinimumFYDaiDebtForDaiWithSignature` will set the approvals.\n    /// If `return[1]` is `false`, `repayMinimumFYDaiDebtForDaiWithSignature` must be called with a controller signature\n    /// If `return[2]` is `false`, `repayMinimumFYDaiDebtForDaiWithSignature` must be called with a pool signature\n    /// If `return` is `(true, true, true)`, `repayMinimumFYDaiDebtForDai` won't fail because of missing approvals or signatures.\n    function repayMinimumFYDaiDebtForDaiCheck(IPool pool) public view returns (bool, bool, bool) {\n        bool approvals = pool.fyDai().allowance(address(this), treasury) >= type(uint112).max;\n        bool controllerSig = controller.delegated(msg.sender, address(this));\n        bool poolSig = pool.delegated(msg.sender, address(this));\n        return (approvals, controllerSig, poolSig);\n    }\n\n    /// @dev Repay an amount of fyDai debt in Controller using a given amount of Dai exchanged for fyDai at pool rates, with a minimum of fyDai debt required to be paid.\n    /// Must have approved the operator with `controller.addDelegate(borrowProxy.address)` or with `repayMinimumFYDaiDebtForDaiWithSignature`.\n    /// Must have approved the operator with `pool.addDelegate(borrowProxy.address)` or with `repayMinimumFYDaiDebtForDaiWithSignature`.\n    /// If `repaymentInDai` exceeds the existing debt, only the necessary Dai will be used.\n    /// @param collateral Valid collateral type.\n    /// @param maturity Maturity of an added series\n    /// @param to Yield Vault to repay fyDai debt for.\n    /// @param minimumFYDaiRepayment Minimum amount of fyDai debt to repay.\n    /// @param repaymentInDai Exact amount of Dai that should be spent on the repayment.\n    /// @param controllerSig packed signature for delegation of this proxy in the controller. Ignored if '0x'.\n    /// @param poolSig packed signature for delegation of this proxy in a pool. Ignored if '0x'.\n    function repayMinimumFYDaiDebtForDaiWithSignature(\n        IPool pool,\n        bytes32 collateral,\n        uint256 maturity,\n        address to,\n        uint256 minimumFYDaiRepayment,\n        uint256 repaymentInDai,\n        bytes memory controllerSig,\n        bytes memory poolSig\n    )\n        public\n        returns (uint256)\n    {\n        repayMinimumFYDaiDebtForDaiApprove(pool);\n        if (controllerSig.length > 0) controller.addDelegatePacked(controllerSig);\n        if (poolSig.length > 0) pool.addDelegatePacked(poolSig);\n        return repayMinimumFYDaiDebtForDai(pool, collateral, maturity, to, minimumFYDaiRepayment, repaymentInDai);\n    }\n\n    /// @dev Determine whether all approvals and signatures are in place for `sellFYDai`.\n    /// `return[0]` is always `true`, meaning that no proxy approvals are ever needed.\n    /// If `return[1]` is `false`, `sellFYDaiWithSignature` must be called with a fyDai permit signature.\n    /// If `return[2]` is `false`, `sellFYDaiWithSignature` must be called with a pool signature.\n    /// If `return` is `(true, true, true)`, `sellFYDai` won't fail because of missing approvals or signatures.\n    function sellFYDaiCheck(IPool pool) public view returns (bool, bool, bool) {\n        bool approvals = true; // sellFYDai doesn't need proxy approvals\n        bool fyDaiSig = pool.fyDai().allowance(msg.sender, address(pool)) >= type(uint112).max;\n        bool poolSig = pool.delegated(msg.sender, address(this));\n        return (approvals, fyDaiSig, poolSig);\n    }\n\n    /// @dev Sell fyDai for Dai\n    /// @param to Wallet receiving the dai being bought\n    /// @param fyDaiIn Amount of fyDai being sold\n    /// @param minDaiOut Minimum amount of dai being bought\n    /// @param fyDaiSig packed signature for approving fyDai transfers to a pool. Ignored if '0x'.\n    /// @param poolSig packed signature for delegation of this proxy in a pool. Ignored if '0x'.\n    function sellFYDaiWithSignature(\n        IPool pool,\n        address to,\n        uint128 fyDaiIn,\n        uint128 minDaiOut,\n        bytes memory fyDaiSig,\n        bytes memory poolSig\n    )\n        public\n        returns(uint256)\n    {\n        if (fyDaiSig.length > 0) pool.fyDai().permitPacked(address(pool), fyDaiSig);\n        if (poolSig.length > 0) pool.addDelegatePacked(poolSig);\n        return sellFYDai(pool, to, fyDaiIn, minDaiOut);\n    }\n\n    /// @dev Determine whether all approvals and signatures are in place for `sellDai`.\n    /// `return[0]` is always `true`, meaning that no proxy approvals are ever needed.\n    /// If `return[1]` is `false`, `sellDaiWithSignature` must be called with a dai permit signature.\n    /// If `return[2]` is `false`, `sellDaiWithSignature` must be called with a pool signature.\n    /// If `return` is `(true, true, true)`, `sellDai` won't fail because of missing approvals or signatures.\n    function sellDaiCheck(IPool pool) public view returns (bool, bool, bool) {\n        bool approvals = true; // sellDai doesn't need proxy approvals\n        bool daiSig = dai.allowance(msg.sender, address(pool)) == type(uint256).max;\n        bool poolSig = pool.delegated(msg.sender, address(this));\n        return (approvals, daiSig, poolSig);\n    }\n\n    /// @dev Sell Dai for fyDai\n    /// @param to Wallet receiving the fyDai being bought\n    /// @param daiIn Amount of dai being sold\n    /// @param minFYDaiOut Minimum amount of fyDai being bought\n    /// @param daiSig packed signature for approving Dai transfers to a pool. Ignored if '0x'.\n    /// @param poolSig packed signature for delegation of this proxy in a pool. Ignored if '0x'.\n    function sellDaiWithSignature(\n        IPool pool,\n        address to,\n        uint128 daiIn,\n        uint128 minFYDaiOut,\n        bytes memory daiSig,\n        bytes memory poolSig\n    )\n        external\n        returns(uint256)\n    {\n        if (daiSig.length > 0) dai.permitPackedDai(address(pool), daiSig);\n        if (poolSig.length > 0) pool.addDelegatePacked(poolSig);\n        return sellDai(pool, to, daiIn, minFYDaiOut);\n    }\n\n    /// @dev Determine whether all approvals and signatures are in place for `buyDai`.\n    /// `return[0]` is always `true`, meaning that no proxy approvals are ever needed.\n    /// If `return[1]` is `false`, `buyDaiWithSignature` must be called with a fyDai permit signature.\n    /// If `return[2]` is `false`, `buyDaiWithSignature` must be called with a pool signature.\n    /// If `return` is `(true, true, true)`, `buyDai` won't fail because of missing approvals or signatures.\n    function buyDaiCheck(IPool pool) public view returns (bool, bool, bool) {\n        return sellFYDaiCheck(pool);\n    }\n\n    /// @dev Buy Dai for fyDai and permits infinite fyDai to the pool\n    /// @param to Wallet receiving the dai being bought\n    /// @param daiOut Amount of dai being bought\n    /// @param maxFYDaiIn Maximum amount of fyDai being sold\n    /// @param fyDaiSig packed signature for approving fyDai transfers to a pool. Ignored if '0x'.\n    /// @param poolSig packed signature for delegation of this proxy in a pool. Ignored if '0x'.\n    function buyDaiWithSignature(\n        IPool pool,\n        address to,\n        uint128 daiOut,\n        uint128 maxFYDaiIn,\n        bytes memory fyDaiSig,\n        bytes memory poolSig\n    )\n        external\n        returns(uint256)\n    {\n        if (fyDaiSig.length > 0) pool.fyDai().permitPacked(address(pool), fyDaiSig);\n        if (poolSig.length > 0) pool.addDelegatePacked(poolSig);\n        return buyDai(pool, to, daiOut, maxFYDaiIn);\n    }\n\n}\n",
  "sourcePath": "/Users/brucedonovan/dev/yield/yDai/contracts/peripheral/BorrowProxy.sol",
  "compiler": {
    "name": "solc",
    "version": "0.6.10+commit.00c0fcaf.Emscripten.clang"
  },
  "schemaVersion": "3.2.3",
  "updatedAt": "2020-11-20T12:19:16.875Z",
  "devdoc": {
    "methods": {
      "borrowDaiForMaximumFYDai(address,bytes32,uint256,address,uint256,uint256)": {
        "details": "Borrow fyDai from Controller and sell it immediately for Dai, for a maximum fyDai debt. Must have approved the operator with `controller.addDelegate(borrowProxy.address)` or with `borrowDaiForMaximumFYDaiWithSignature`. Caller must have called `borrowDaiForMaximumFYDaiWithSignature` at least once before to set proxy approvals.",
        "params": {
          "collateral": "Valid collateral type.",
          "daiToBorrow": "Exact amount of Dai that should be obtained.",
          "maturity": "Maturity of an added series",
          "maximumFYDai": "Maximum amount of FYDai to borrow.",
          "to": "Wallet to send the resulting Dai to."
        }
      },
      "borrowDaiForMaximumFYDaiApprove(address)": {
        "details": "Set proxy approvals for `borrowDaiForMaximumFYDai` with a given pool."
      },
      "borrowDaiForMaximumFYDaiCheck(address)": {
        "details": "Determine whether all approvals and signatures are in place for `borrowDaiForMaximumFYDai` with a given pool. If `return[0]` is `false`, calling `borrowDaiForMaximumFYDaiWithSignature` will set the approvals. If `return[1]` is `false`, `borrowDaiForMaximumFYDaiWithSignature` must be called with a controller signature If `return` is `(true, true)`, `borrowDaiForMaximumFYDai` won't fail because of missing approvals or signatures."
      },
      "borrowDaiForMaximumFYDaiWithSignature(address,bytes32,uint256,address,uint256,uint256,bytes)": {
        "details": "Borrow fyDai from Controller and sell it immediately for Dai, for a maximum fyDai debt.",
        "params": {
          "collateral": "Valid collateral type.",
          "controllerSig": "packed signature for delegation of this proxy in the controller. Ignored if '0x'.",
          "daiToBorrow": "Exact amount of Dai that should be obtained.",
          "maturity": "Maturity of an added series",
          "maximumFYDai": "Maximum amount of FYDai to borrow.",
          "to": "Wallet to send the resulting Dai to."
        }
      },
      "buyDai(address,address,uint128,uint128)": {
        "details": "Buy Dai for fyDai Caller must have approved the fyDai transfer with `fyDai.approve(maxFYDaiIn)` or with `buyDaiWithSignature`. Caller must have approved the proxy using`pool.addDelegate(borrowProxy)` or with `buyDaiWithSignature`.",
        "params": {
          "daiOut": "Amount of dai being bought",
          "maxFYDaiIn": "Maximum amount of fyDai being sold",
          "to": "Wallet receiving the dai being bought"
        }
      },
      "buyDaiCheck(address)": {
        "details": "Determine whether all approvals and signatures are in place for `buyDai`. `return[0]` is always `true`, meaning that no proxy approvals are ever needed. If `return[1]` is `false`, `buyDaiWithSignature` must be called with a fyDai permit signature. If `return[2]` is `false`, `buyDaiWithSignature` must be called with a pool signature. If `return` is `(true, true, true)`, `buyDai` won't fail because of missing approvals or signatures."
      },
      "buyDaiWithSignature(address,address,uint128,uint128,bytes,bytes)": {
        "details": "Buy Dai for fyDai and permits infinite fyDai to the pool",
        "params": {
          "daiOut": "Amount of dai being bought",
          "fyDaiSig": "packed signature for approving fyDai transfers to a pool. Ignored if '0x'.",
          "maxFYDaiIn": "Maximum amount of fyDai being sold",
          "poolSig": "packed signature for delegation of this proxy in a pool. Ignored if '0x'.",
          "to": "Wallet receiving the dai being bought"
        }
      },
      "post(address)": {
        "details": "Users use `post` in BorrowProxy to post ETH to the Controller (amount = msg.value), which will be converted to Weth here.",
        "params": {
          "to": "Yield Vault to deposit collateral in."
        }
      },
      "repayDaiCheck()": {
        "details": "Determine whether all approvals and signatures are in place for `repayDaiWithSignature`. `return[0]` is always `true`, meaning that no proxy approvals are ever needed. If `return[1]` is `false`, `repayDaiWithSignature` must be called with a dai permit signature. If `return[2]` is `false`, `repayDaiWithSignature` must be called with a controller signature. If `return` is `(true, true, true)`, `repayDaiWithSignature` won't fail because of missing approvals or signatures. If `return` is `(true, true, any)`, `controller.repayDai` can be called directly and won't fail because of missing approvals or signatures."
      },
      "repayDaiWithSignature(bytes32,uint256,address,uint256,bytes,bytes)": {
        "details": "Burns Dai from caller to repay debt in a Yield Vault. User debt is decreased for the given collateral and fyDai series, in Yield vault `to`. The amount of debt repaid changes according to series maturity and MakerDAO rate and chi, depending on collateral type. `A signature is provided as a parameter to this function, so that `dai.approve()` doesn't need to be called.",
        "params": {
          "collateral": "Valid collateral type.",
          "controllerSig": "packed signature for delegation of this proxy in the controller. Ignored if '0x'.",
          "daiAmount": "Amount of Dai to use for debt repayment.",
          "daiSig": "packed signature for permit of dai transfers to this proxy. Ignored if '0x'.",
          "maturity": "Maturity of an added series",
          "to": "Yield vault to repay debt for."
        }
      },
      "repayMinimumFYDaiDebtForDai(address,bytes32,uint256,address,uint256,uint256)": {
        "details": "Repay an amount of fyDai debt in Controller using a given amount of Dai exchanged for fyDai at pool rates, with a minimum of fyDai debt required to be paid. Must have approved the operator with `controller.addDelegate(borrowProxy.address)` or with `repayMinimumFYDaiDebtForDaiWithSignature`. Must have approved the operator with `pool.addDelegate(borrowProxy.address)` or with `repayMinimumFYDaiDebtForDaiWithSignature`. If `repaymentInDai` exceeds the existing debt, only the necessary Dai will be used.",
        "params": {
          "collateral": "Valid collateral type.",
          "maturity": "Maturity of an added series",
          "minimumFYDaiRepayment": "Minimum amount of fyDai debt to repay.",
          "repaymentInDai": "Exact amount of Dai that should be spent on the repayment.",
          "to": "Yield Vault to repay fyDai debt for."
        }
      },
      "repayMinimumFYDaiDebtForDaiApprove(address)": {
        "details": "Set proxy approvals for `repayMinimumFYDaiDebtForDai` with a given pool."
      },
      "repayMinimumFYDaiDebtForDaiCheck(address)": {
        "details": "Determine whether all approvals and signatures are in place for `repayMinimumFYDaiDebtForDai` with a given pool. If `return[0]` is `false`, calling `repayMinimumFYDaiDebtForDaiWithSignature` will set the approvals. If `return[1]` is `false`, `repayMinimumFYDaiDebtForDaiWithSignature` must be called with a controller signature If `return[2]` is `false`, `repayMinimumFYDaiDebtForDaiWithSignature` must be called with a pool signature If `return` is `(true, true, true)`, `repayMinimumFYDaiDebtForDai` won't fail because of missing approvals or signatures."
      },
      "repayMinimumFYDaiDebtForDaiWithSignature(address,bytes32,uint256,address,uint256,uint256,bytes,bytes)": {
        "details": "Repay an amount of fyDai debt in Controller using a given amount of Dai exchanged for fyDai at pool rates, with a minimum of fyDai debt required to be paid. Must have approved the operator with `controller.addDelegate(borrowProxy.address)` or with `repayMinimumFYDaiDebtForDaiWithSignature`. Must have approved the operator with `pool.addDelegate(borrowProxy.address)` or with `repayMinimumFYDaiDebtForDaiWithSignature`. If `repaymentInDai` exceeds the existing debt, only the necessary Dai will be used.",
        "params": {
          "collateral": "Valid collateral type.",
          "controllerSig": "packed signature for delegation of this proxy in the controller. Ignored if '0x'.",
          "maturity": "Maturity of an added series",
          "minimumFYDaiRepayment": "Minimum amount of fyDai debt to repay.",
          "poolSig": "packed signature for delegation of this proxy in a pool. Ignored if '0x'.",
          "repaymentInDai": "Exact amount of Dai that should be spent on the repayment.",
          "to": "Yield Vault to repay fyDai debt for."
        }
      },
      "sellDai(address,address,uint128,uint128)": {
        "details": "Sell Dai for fyDai Caller must have approved the dai transfer with `dai.approve(fyDaiUsed)` or with `sellDaiWithSignature`. Caller must have approved the proxy using`pool.addDelegate(borrowProxy)` or with `sellDaiWithSignature`.",
        "params": {
          "daiIn": "Amount of dai being sold",
          "minFYDaiOut": "Minimum amount of fyDai being bought",
          "to": "Wallet receiving the fyDai being bought"
        }
      },
      "sellDaiCheck(address)": {
        "details": "Determine whether all approvals and signatures are in place for `sellDai`. `return[0]` is always `true`, meaning that no proxy approvals are ever needed. If `return[1]` is `false`, `sellDaiWithSignature` must be called with a dai permit signature. If `return[2]` is `false`, `sellDaiWithSignature` must be called with a pool signature. If `return` is `(true, true, true)`, `sellDai` won't fail because of missing approvals or signatures."
      },
      "sellDaiWithSignature(address,address,uint128,uint128,bytes,bytes)": {
        "details": "Sell Dai for fyDai",
        "params": {
          "daiIn": "Amount of dai being sold",
          "daiSig": "packed signature for approving Dai transfers to a pool. Ignored if '0x'.",
          "minFYDaiOut": "Minimum amount of fyDai being bought",
          "poolSig": "packed signature for delegation of this proxy in a pool. Ignored if '0x'.",
          "to": "Wallet receiving the fyDai being bought"
        }
      },
      "sellFYDai(address,address,uint128,uint128)": {
        "details": "Sell fyDai for Dai Caller must have approved the fyDai transfer with `fyDai.approve(fyDaiUsed)` or with `sellFYDaiWithSignature`. Caller must have approved the proxy using`pool.addDelegate(borrowProxy)` or with `sellFYDaiWithSignature`.",
        "params": {
          "fyDaiIn": "Amount of fyDai being sold",
          "minDaiOut": "Minimum amount of dai being bought",
          "to": "Wallet receiving the dai being bought"
        }
      },
      "sellFYDaiCheck(address)": {
        "details": "Determine whether all approvals and signatures are in place for `sellFYDai`. `return[0]` is always `true`, meaning that no proxy approvals are ever needed. If `return[1]` is `false`, `sellFYDaiWithSignature` must be called with a fyDai permit signature. If `return[2]` is `false`, `sellFYDaiWithSignature` must be called with a pool signature. If `return` is `(true, true, true)`, `sellFYDai` won't fail because of missing approvals or signatures."
      },
      "sellFYDaiWithSignature(address,address,uint128,uint128,bytes,bytes)": {
        "details": "Sell fyDai for Dai",
        "params": {
          "fyDaiIn": "Amount of fyDai being sold",
          "fyDaiSig": "packed signature for approving fyDai transfers to a pool. Ignored if '0x'.",
          "minDaiOut": "Minimum amount of dai being bought",
          "poolSig": "packed signature for delegation of this proxy in a pool. Ignored if '0x'.",
          "to": "Wallet receiving the dai being bought"
        }
      },
      "withdraw(address,uint256)": {
        "details": "Users wishing to withdraw their Weth as ETH from the Controller should use this function. Users must have called `controller.addDelegate(borrowProxy.address)` or `withdrawWithSignature` to authorize BorrowProxy to act in their behalf.",
        "params": {
          "amount": "Amount of weth to move.",
          "to": "Wallet to send Eth to."
        }
      },
      "withdrawCheck()": {
        "details": "Determine whether all approvals and signatures are in place for `withdrawWithSignature`. `return[0]` is always `true`, meaning that no proxy approvals are ever needed. If `return[1]` is `false`, `withdrawWithSignature` must be called with a controller signature. If `return` is `(true, true)`, `withdrawWithSignature` won't fail because of missing approvals or signatures."
      },
      "withdrawWithSignature(address,uint256,bytes)": {
        "details": "Users wishing to withdraw their Weth as ETH from the Controller should use this function.",
        "params": {
          "amount": "Amount of weth to move.",
          "controllerSig": "packed signature for delegation of this proxy in the controller. Ignored if '0x'.",
          "to": "Wallet to send Eth to."
        }
      }
    }
  },
  "userdoc": {
    "methods": {}
  }
}