{
  "contractName": "ChaiOracle",
  "abi": [
    {
      "inputs": [
        {
          "internalType": "address",
          "name": "pot_",
          "type": "address"
        }
      ],
      "stateMutability": "nonpayable",
      "type": "constructor"
    },
    {
      "inputs": [],
      "name": "RAD",
      "outputs": [
        {
          "internalType": "uint8",
          "name": "",
          "type": "uint8"
        }
      ],
      "stateMutability": "view",
      "type": "function",
      "constant": true
    },
    {
      "inputs": [],
      "name": "RAY",
      "outputs": [
        {
          "internalType": "uint8",
          "name": "",
          "type": "uint8"
        }
      ],
      "stateMutability": "view",
      "type": "function",
      "constant": true
    },
    {
      "inputs": [],
      "name": "WAD",
      "outputs": [
        {
          "internalType": "uint8",
          "name": "",
          "type": "uint8"
        }
      ],
      "stateMutability": "view",
      "type": "function",
      "constant": true
    },
    {
      "inputs": [],
      "name": "_pot",
      "outputs": [
        {
          "internalType": "contract IPot",
          "name": "",
          "type": "address"
        }
      ],
      "stateMutability": "view",
      "type": "function",
      "constant": true
    },
    {
      "inputs": [],
      "name": "price",
      "outputs": [
        {
          "internalType": "uint256",
          "name": "",
          "type": "uint256"
        }
      ],
      "stateMutability": "nonpayable",
      "type": "function"
    }
  ],
  "bytecode": "0x608060405234801561001057600080fd5b5060405161042b38038061042b8339818101604052602081101561003357600080fd5b8101908080519060200190929190505050806000806101000a81548173ffffffffffffffffffffffffffffffffffffffff021916908373ffffffffffffffffffffffffffffffffffffffff16021790555050610397806100946000396000f3fe608060405234801561001057600080fd5b50600436106100575760003560e01c806306f405fd1461005c578063552033c4146100805780636a146024146100a4578063a035b1fe146100c8578063ac2f573f146100e6575b600080fd5b610064610130565b604051808260ff1660ff16815260200191505060405180910390f35b610088610135565b604051808260ff1660ff16815260200191505060405180910390f35b6100ac61013a565b604051808260ff1660ff16815260200191505060405180910390f35b6100d061013f565b6040518082815260200191505060405180910390f35b6100ee61033c565b604051808273ffffffffffffffffffffffffffffffffffffffff1673ffffffffffffffffffffffffffffffffffffffff16815260200191505060405180910390f35b602d81565b601b81565b601281565b60008060009054906101000a900473ffffffffffffffffffffffffffffffffffffffff1673ffffffffffffffffffffffffffffffffffffffff166320aba08b6040518163ffffffff1660e01b8152600401602060405180830381600087803b1580156101aa57600080fd5b505af11580156101be573d6000803e3d6000fd5b505050506040513d60208110156101d457600080fd5b81019080805190602001909291905050504211610292576000809054906101000a900473ffffffffffffffffffffffffffffffffffffffff1673ffffffffffffffffffffffffffffffffffffffff1663c92aecc46040518163ffffffff1660e01b815260040160206040518083038186803b15801561025257600080fd5b505afa158015610266573d6000803e3d6000fd5b505050506040513d602081101561027c57600080fd5b8101908080519060200190929190505050610337565b6000809054906101000a900473ffffffffffffffffffffffffffffffffffffffff1673ffffffffffffffffffffffffffffffffffffffff16639f678cca6040518163ffffffff1660e01b8152600401602060405180830381600087803b1580156102fb57600080fd5b505af115801561030f573d6000803e3d6000fd5b505050506040513d602081101561032557600080fd5b81019080805190602001909291905050505b905090565b6000809054906101000a900473ffffffffffffffffffffffffffffffffffffffff168156fea2646970667358221220a93f0d2329fa46654dae809b54061ab0ebc0b1a6b91b4e11d95b2303a7c2c00764736f6c63430006020033",
  "source": "pragma solidity ^0.6.2;\nimport \"@hq20/contracts/contracts/math/DecimalMath.sol\";\nimport \"./Constants.sol\";\nimport \"./interfaces/IPot.sol\";\nimport \"./interfaces/IOracle.sol\";\n\n\n/// @dev ChaiOracle retrieves the price for Chai as the DSR fee from Pot\ncontract ChaiOracle is IOracle, Constants {\n    using DecimalMath for uint256;\n    using DecimalMath for uint8;\n\n    IPot public _pot;\n\n    /// @dev ChaiOracle connects to Pot\n    constructor (address pot_) public {\n        _pot = IPot(pot_);\n    }\n\n    /// @dev We update chi and retrieve it from pot as the price\n    /// chai = (1/chi) * dai\n    /// dai = chi * chai\n    /// price = chi\n    function price() public override returns(uint256) {\n        return (now > _pot.rho()) ? _pot.drip() : _pot.chi();\n    }\n}",
  "sourcePath": "/Users/bruce/dev/yieldprotocol/ytoken-mvp/contracts/ChaiOracle.sol",
  "compiler": {
    "name": "solc",
    "version": "0.6.2+commit.bacdbe57.Emscripten.clang"
  },
  "schemaVersion": "3.0.23",
  "updatedAt": "2020-06-11T16:17:06.088Z",
  "networkType": "ethereum",
  "devdoc": {
    "details": "ChaiOracle retrieves the price for Chai as the DSR fee from Pot",
    "methods": {
      "constructor": {
        "details": "ChaiOracle connects to Pot"
      },
      "price()": {
        "details": "We update chi and retrieve it from pot as the price chai = (1/chi) * dai dai = chi * chai price = chi"
      }
    }
  },
  "userdoc": {
    "methods": {}
  }
}