{
  "contractName": "ChaiOracle",
  "abi": [
    {
      "inputs": [
        {
          "internalType": "address",
          "name": "pot_",
          "type": "address"
        }
      ],
      "stateMutability": "nonpayable",
      "type": "constructor"
    },
    {
      "inputs": [],
      "name": "RAD",
      "outputs": [
        {
          "internalType": "uint8",
          "name": "",
          "type": "uint8"
        }
      ],
      "stateMutability": "view",
      "type": "function",
      "constant": true
    },
    {
      "inputs": [],
      "name": "RAY",
      "outputs": [
        {
          "internalType": "uint8",
          "name": "",
          "type": "uint8"
        }
      ],
      "stateMutability": "view",
      "type": "function",
      "constant": true
    },
    {
      "inputs": [],
      "name": "WAD",
      "outputs": [
        {
          "internalType": "uint8",
          "name": "",
          "type": "uint8"
        }
      ],
      "stateMutability": "view",
      "type": "function",
      "constant": true
    },
    {
      "inputs": [],
      "name": "_pot",
      "outputs": [
        {
          "internalType": "contract IPot",
          "name": "",
          "type": "address"
        }
      ],
      "stateMutability": "view",
      "type": "function",
      "constant": true
    },
    {
      "inputs": [],
      "name": "price",
      "outputs": [
        {
          "internalType": "uint256",
          "name": "",
          "type": "uint256"
        }
      ],
      "stateMutability": "nonpayable",
      "type": "function"
    }
  ],
  "bytecode": "0x608060405234801561001057600080fd5b506040516106ca3803806106ca8339818101604052602081101561003357600080fd5b8101908080519060200190929190505050806000806101000a81548173ffffffffffffffffffffffffffffffffffffffff021916908373ffffffffffffffffffffffffffffffffffffffff16021790555050610636806100946000396000f3fe608060405234801561001057600080fd5b50600436106100575760003560e01c806306f405fd1461005c578063552033c4146100805780636a146024146100a4578063a035b1fe146100c8578063ac2f573f146100e6575b600080fd5b610064610130565b604051808260ff1660ff16815260200191505060405180910390f35b610088610135565b604051808260ff1660ff16815260200191505060405180910390f35b6100ac61013a565b604051808260ff1660ff16815260200191505060405180910390f35b6100d061013f565b6040518082815260200191505060405180910390f35b6100ee610362565b604051808273ffffffffffffffffffffffffffffffffffffffff1673ffffffffffffffffffffffffffffffffffffffff16815260200191505060405180910390f35b602d81565b601b81565b601281565b6000806000809054906101000a900473ffffffffffffffffffffffffffffffffffffffff1673ffffffffffffffffffffffffffffffffffffffff166320aba08b6040518163ffffffff1660e01b8152600401602060405180830381600087803b1580156101ab57600080fd5b505af11580156101bf573d6000803e3d6000fd5b505050506040513d60208110156101d557600080fd5b81019080805190602001909291905050504211610293576000809054906101000a900473ffffffffffffffffffffffffffffffffffffffff1673ffffffffffffffffffffffffffffffffffffffff1663c92aecc46040518163ffffffff1660e01b815260040160206040518083038186803b15801561025357600080fd5b505afa158015610267573d6000803e3d6000fd5b505050506040513d602081101561027d57600080fd5b8101908080519060200190929190505050610338565b6000809054906101000a900473ffffffffffffffffffffffffffffffffffffffff1673ffffffffffffffffffffffffffffffffffffffff16639f678cca6040518163ffffffff1660e01b8152600401602060405180830381600087803b1580156102fc57600080fd5b505af1158015610310573d6000803e3d6000fd5b505050506040513d602081101561032657600080fd5b81019080805190602001909291905050505b905061035c81601b61034d601b60ff16610387565b6104119092919063ffffffff16565b91505090565b6000809054906101000a900473ffffffffffffffffffffffffffffffffffffffff1681565b6000604d8260ff161115610403576040517f08c379a00000000000000000000000000000000000000000000000000000000081526004018080602001828103825260118152602001807f546f6f206d616e7920646563696d616c7300000000000000000000000000000081525060200191505060405180910390fd5b8160ff16600a0a9050919050565b60006104408361043261042385610387565b8761044990919063ffffffff16565b6104cf90919063ffffffff16565b90509392505050565b60008083141561045c57600090506104c9565b600082840290508284828161046d57fe5b04146104c4576040517f08c379a00000000000000000000000000000000000000000000000000000000081526004018080602001828103825260218152602001806105e06021913960400191505060405180910390fd5b809150505b92915050565b600061051183836040518060400160405280601a81526020017f536166654d6174683a206469766973696f6e206279207a65726f000000000000815250610519565b905092915050565b600080831182906105c5576040517f08c379a00000000000000000000000000000000000000000000000000000000081526004018080602001828103825283818151815260200191508051906020019080838360005b8381101561058a57808201518184015260208101905061056f565b50505050905090810190601f1680156105b75780820380516001836020036101000a031916815260200191505b509250505060405180910390fd5b5060008385816105d157fe5b04905080915050939250505056fe536166654d6174683a206d756c7469706c69636174696f6e206f766572666c6f77a2646970667358221220f580295e4422bef71068f7123b664cad2d1b45811db95f7b6000dea6fc18c19564736f6c63430006020033",
  "source": "pragma solidity ^0.6.2;\nimport \"@hq20/contracts/contracts/math/DecimalMath.sol\";\nimport \"./Constants.sol\";\nimport \"./interfaces/IPot.sol\";\nimport \"./interfaces/IOracle.sol\";\n\n\n/// @dev ChaiOracle retrieves the price for Chai as the DSR fee from Pot\ncontract ChaiOracle is IOracle, Constants {\n    using DecimalMath for uint256;\n    using DecimalMath for uint8;\n\n    IPot public _pot;\n\n    /// @dev ChaiOracle connects to Pot\n    constructor (address pot_) public {\n        _pot = IPot(pot_);\n    }\n\n    /// @dev We update chi and retrieve it from pot as the price\n    /// Chai = Dai * price\n    /// Dai = chi * Chai\n    /// Chai = chi * Chai * price\n    function price() public override returns(uint256) {\n        uint256 chi = (now > _pot.rho()) ? _pot.drip() : _pot.chi();\n        return RAY.unit().divd(chi, RAY);\n    }\n}",
  "sourcePath": "/Users/bruce/dev/yieldprotocol/ytoken-mvp/contracts/ChaiOracle.sol",
  "compiler": {
    "name": "solc",
    "version": "0.6.2+commit.bacdbe57.Emscripten.clang"
  },
  "schemaVersion": "3.0.23",
  "updatedAt": "2020-06-01T11:27:33.007Z",
  "networkType": "ethereum",
  "devdoc": {
    "details": "ChaiOracle retrieves the price for Chai as the DSR fee from Pot",
    "methods": {
      "constructor": {
        "details": "ChaiOracle connects to Pot"
      },
      "price()": {
        "details": "We update chi and retrieve it from pot as the price Chai = Dai * price Dai = chi * Chai Chai = chi * Chai * price"
      }
    }
  },
  "userdoc": {
    "methods": {}
  }
}