{
  "contractName": "ChaiOracle",
  "abi": [
    {
      "inputs": [
        {
          "internalType": "address",
          "name": "pot_",
          "type": "address"
        }
      ],
      "stateMutability": "nonpayable",
      "type": "constructor"
    },
    {
      "inputs": [],
      "name": "CHAI",
      "outputs": [
        {
          "internalType": "bytes32",
          "name": "",
          "type": "bytes32"
        }
      ],
      "stateMutability": "view",
      "type": "function",
      "constant": true
    },
    {
      "inputs": [],
      "name": "RAD",
      "outputs": [
        {
          "internalType": "uint8",
          "name": "",
          "type": "uint8"
        }
      ],
      "stateMutability": "view",
      "type": "function",
      "constant": true
    },
    {
      "inputs": [],
      "name": "RAY",
      "outputs": [
        {
          "internalType": "uint8",
          "name": "",
          "type": "uint8"
        }
      ],
      "stateMutability": "view",
      "type": "function",
      "constant": true
    },
    {
      "inputs": [],
      "name": "WAD",
      "outputs": [
        {
          "internalType": "uint8",
          "name": "",
          "type": "uint8"
        }
      ],
      "stateMutability": "view",
      "type": "function",
      "constant": true
    },
    {
      "inputs": [],
      "name": "WETH",
      "outputs": [
        {
          "internalType": "bytes32",
          "name": "",
          "type": "bytes32"
        }
      ],
      "stateMutability": "view",
      "type": "function",
      "constant": true
    },
    {
      "inputs": [],
      "name": "_pot",
      "outputs": [
        {
          "internalType": "contract IPot",
          "name": "",
          "type": "address"
        }
      ],
      "stateMutability": "view",
      "type": "function",
      "constant": true
    },
    {
      "inputs": [],
      "name": "price",
      "outputs": [
        {
          "internalType": "uint256",
          "name": "",
          "type": "uint256"
        }
      ],
      "stateMutability": "nonpayable",
      "type": "function"
    }
  ],
  "bytecode": "0x608060405234801561001057600080fd5b506040516104d53803806104d58339818101604052602081101561003357600080fd5b8101908080519060200190929190505050806000806101000a81548173ffffffffffffffffffffffffffffffffffffffff021916908373ffffffffffffffffffffffffffffffffffffffff16021790555050610441806100946000396000f3fe608060405234801561001057600080fd5b506004361061007d5760003560e01c8063a035b1fe1161005b578063a035b1fe146100ee578063ac2f573f1461010c578063ad5c464814610156578063b6dbf9ce146101745761007d565b806306f405fd14610082578063552033c4146100a65780636a146024146100ca575b600080fd5b61008a610192565b604051808260ff1660ff16815260200191505060405180910390f35b6100ae610197565b604051808260ff1660ff16815260200191505060405180910390f35b6100d261019c565b604051808260ff1660ff16815260200191505060405180910390f35b6100f66101a1565b6040518082815260200191505060405180910390f35b61011461039e565b604051808273ffffffffffffffffffffffffffffffffffffffff1673ffffffffffffffffffffffffffffffffffffffff16815260200191505060405180910390f35b61015e6103c3565b6040518082815260200191505060405180910390f35b61017c6103e7565b6040518082815260200191505060405180910390f35b602d81565b601b81565b601281565b60008060009054906101000a900473ffffffffffffffffffffffffffffffffffffffff1673ffffffffffffffffffffffffffffffffffffffff166320aba08b6040518163ffffffff1660e01b8152600401602060405180830381600087803b15801561020c57600080fd5b505af1158015610220573d6000803e3d6000fd5b505050506040513d602081101561023657600080fd5b810190808051906020019092919050505042116102f4576000809054906101000a900473ffffffffffffffffffffffffffffffffffffffff1673ffffffffffffffffffffffffffffffffffffffff1663c92aecc46040518163ffffffff1660e01b815260040160206040518083038186803b1580156102b457600080fd5b505afa1580156102c8573d6000803e3d6000fd5b505050506040513d60208110156102de57600080fd5b8101908080519060200190929190505050610399565b6000809054906101000a900473ffffffffffffffffffffffffffffffffffffffff1673ffffffffffffffffffffffffffffffffffffffff16639f678cca6040518163ffffffff1660e01b8152600401602060405180830381600087803b15801561035d57600080fd5b505af1158015610371573d6000803e3d6000fd5b505050506040513d602081101561038757600080fd5b81019080805190602001909291905050505b905090565b6000809054906101000a900473ffffffffffffffffffffffffffffffffffffffff1681565b7f574554480000000000000000000000000000000000000000000000000000000081565b7f43484149000000000000000000000000000000000000000000000000000000008156fea26469706673582212208396c61fcb4d08e31f0c124cb45282f88f895c5267b41124b9b87ba3eb7828ec64736f6c63430006020033",
  "source": "pragma solidity ^0.6.2;\nimport \"@hq20/contracts/contracts/math/DecimalMath.sol\";\nimport \"./Constants.sol\";\nimport \"./interfaces/IPot.sol\";\nimport \"./interfaces/IOracle.sol\";\n\n\n/// @dev ChaiOracle retrieves the price for Chai as the DSR fee from Pot\ncontract ChaiOracle is IOracle, Constants {\n    using DecimalMath for uint256;\n    using DecimalMath for uint8;\n\n    IPot public _pot;\n\n    /// @dev ChaiOracle connects to Pot\n    constructor (address pot_) public {\n        _pot = IPot(pot_);\n    }\n\n    /// @dev We update chi and retrieve it from pot as the price\n    /// chai = (1/chi) * dai\n    /// dai = chi * chai\n    /// price = chi\n    function price() public override returns(uint256) {\n        return (now > _pot.rho()) ? _pot.drip() : _pot.chi();\n    }\n}",
  "sourcePath": "/Users/bruce/dev/yieldprotocol/ytoken-mvp/contracts/ChaiOracle.sol",
  "compiler": {
    "name": "solc",
    "version": "0.6.2+commit.bacdbe57.Emscripten.clang"
  },
  "schemaVersion": "3.0.23",
  "updatedAt": "2020-06-17T11:33:08.936Z",
  "networkType": "ethereum",
  "devdoc": {
    "details": "ChaiOracle retrieves the price for Chai as the DSR fee from Pot",
    "methods": {
      "constructor": {
        "details": "ChaiOracle connects to Pot"
      },
      "price()": {
        "details": "We update chi and retrieve it from pot as the price chai = (1/chi) * dai dai = chi * chai price = chi"
      }
    }
  },
  "userdoc": {
    "methods": {}
  }
}