{
  "contractName": "Chai",
  "abi": [
    {
      "inputs": [
        {
          "internalType": "address",
          "name": "vat_",
          "type": "address"
        },
        {
          "internalType": "address",
          "name": "pot_",
          "type": "address"
        },
        {
          "internalType": "address",
          "name": "daiJoin_",
          "type": "address"
        },
        {
          "internalType": "address",
          "name": "weth_",
          "type": "address"
        }
      ],
      "stateMutability": "nonpayable",
      "type": "constructor"
    },
    {
      "anonymous": false,
      "inputs": [
        {
          "indexed": true,
          "internalType": "address",
          "name": "src",
          "type": "address"
        },
        {
          "indexed": true,
          "internalType": "address",
          "name": "guy",
          "type": "address"
        },
        {
          "indexed": false,
          "internalType": "uint256",
          "name": "wad",
          "type": "uint256"
        }
      ],
      "name": "Approval",
      "type": "event"
    },
    {
      "anonymous": false,
      "inputs": [
        {
          "indexed": true,
          "internalType": "address",
          "name": "src",
          "type": "address"
        },
        {
          "indexed": true,
          "internalType": "address",
          "name": "dst",
          "type": "address"
        },
        {
          "indexed": false,
          "internalType": "uint256",
          "name": "wad",
          "type": "uint256"
        }
      ],
      "name": "Transfer",
      "type": "event"
    },
    {
      "inputs": [],
      "name": "DOMAIN_SEPARATOR",
      "outputs": [
        {
          "internalType": "bytes32",
          "name": "",
          "type": "bytes32"
        }
      ],
      "stateMutability": "view",
      "type": "function",
      "constant": true
    },
    {
      "inputs": [],
      "name": "PERMIT_TYPEHASH",
      "outputs": [
        {
          "internalType": "bytes32",
          "name": "",
          "type": "bytes32"
        }
      ],
      "stateMutability": "view",
      "type": "function",
      "constant": true
    },
    {
      "inputs": [
        {
          "internalType": "address",
          "name": "",
          "type": "address"
        },
        {
          "internalType": "address",
          "name": "",
          "type": "address"
        }
      ],
      "name": "allowance",
      "outputs": [
        {
          "internalType": "uint256",
          "name": "",
          "type": "uint256"
        }
      ],
      "stateMutability": "view",
      "type": "function",
      "constant": true
    },
    {
      "inputs": [
        {
          "internalType": "address",
          "name": "",
          "type": "address"
        }
      ],
      "name": "balanceOf",
      "outputs": [
        {
          "internalType": "uint256",
          "name": "",
          "type": "uint256"
        }
      ],
      "stateMutability": "view",
      "type": "function",
      "constant": true
    },
    {
      "inputs": [],
      "name": "daiJoin",
      "outputs": [
        {
          "internalType": "contract JoinLike",
          "name": "",
          "type": "address"
        }
      ],
      "stateMutability": "view",
      "type": "function",
      "constant": true
    },
    {
      "inputs": [],
      "name": "daiToken",
      "outputs": [
        {
          "internalType": "contract GemLike",
          "name": "",
          "type": "address"
        }
      ],
      "stateMutability": "view",
      "type": "function",
      "constant": true
    },
    {
      "inputs": [],
      "name": "decimals",
      "outputs": [
        {
          "internalType": "uint8",
          "name": "",
          "type": "uint8"
        }
      ],
      "stateMutability": "view",
      "type": "function",
      "constant": true
    },
    {
      "inputs": [],
      "name": "name",
      "outputs": [
        {
          "internalType": "string",
          "name": "",
          "type": "string"
        }
      ],
      "stateMutability": "view",
      "type": "function",
      "constant": true
    },
    {
      "inputs": [
        {
          "internalType": "address",
          "name": "",
          "type": "address"
        }
      ],
      "name": "nonces",
      "outputs": [
        {
          "internalType": "uint256",
          "name": "",
          "type": "uint256"
        }
      ],
      "stateMutability": "view",
      "type": "function",
      "constant": true
    },
    {
      "inputs": [],
      "name": "pot",
      "outputs": [
        {
          "internalType": "contract PotLike",
          "name": "",
          "type": "address"
        }
      ],
      "stateMutability": "view",
      "type": "function",
      "constant": true
    },
    {
      "inputs": [],
      "name": "symbol",
      "outputs": [
        {
          "internalType": "string",
          "name": "",
          "type": "string"
        }
      ],
      "stateMutability": "view",
      "type": "function",
      "constant": true
    },
    {
      "inputs": [],
      "name": "totalSupply",
      "outputs": [
        {
          "internalType": "uint256",
          "name": "",
          "type": "uint256"
        }
      ],
      "stateMutability": "view",
      "type": "function",
      "constant": true
    },
    {
      "inputs": [],
      "name": "vat",
      "outputs": [
        {
          "internalType": "contract VatLike",
          "name": "",
          "type": "address"
        }
      ],
      "stateMutability": "view",
      "type": "function",
      "constant": true
    },
    {
      "inputs": [],
      "name": "version",
      "outputs": [
        {
          "internalType": "string",
          "name": "",
          "type": "string"
        }
      ],
      "stateMutability": "view",
      "type": "function",
      "constant": true
    },
    {
      "inputs": [
        {
          "internalType": "address",
          "name": "dst",
          "type": "address"
        },
        {
          "internalType": "uint256",
          "name": "wad",
          "type": "uint256"
        }
      ],
      "name": "transfer",
      "outputs": [
        {
          "internalType": "bool",
          "name": "",
          "type": "bool"
        }
      ],
      "stateMutability": "nonpayable",
      "type": "function"
    },
    {
      "inputs": [
        {
          "internalType": "address",
          "name": "src",
          "type": "address"
        },
        {
          "internalType": "address",
          "name": "dst",
          "type": "address"
        },
        {
          "internalType": "uint256",
          "name": "wad",
          "type": "uint256"
        }
      ],
      "name": "move",
      "outputs": [
        {
          "internalType": "bool",
          "name": "",
          "type": "bool"
        }
      ],
      "stateMutability": "nonpayable",
      "type": "function"
    },
    {
      "inputs": [
        {
          "internalType": "address",
          "name": "src",
          "type": "address"
        },
        {
          "internalType": "address",
          "name": "dst",
          "type": "address"
        },
        {
          "internalType": "uint256",
          "name": "wad",
          "type": "uint256"
        }
      ],
      "name": "transferFrom",
      "outputs": [
        {
          "internalType": "bool",
          "name": "",
          "type": "bool"
        }
      ],
      "stateMutability": "nonpayable",
      "type": "function"
    },
    {
      "inputs": [
        {
          "internalType": "address",
          "name": "usr",
          "type": "address"
        },
        {
          "internalType": "uint256",
          "name": "wad",
          "type": "uint256"
        }
      ],
      "name": "approve",
      "outputs": [
        {
          "internalType": "bool",
          "name": "",
          "type": "bool"
        }
      ],
      "stateMutability": "nonpayable",
      "type": "function"
    },
    {
      "inputs": [
        {
          "internalType": "address",
          "name": "holder",
          "type": "address"
        },
        {
          "internalType": "address",
          "name": "spender",
          "type": "address"
        },
        {
          "internalType": "uint256",
          "name": "nonce",
          "type": "uint256"
        },
        {
          "internalType": "uint256",
          "name": "expiry",
          "type": "uint256"
        },
        {
          "internalType": "bool",
          "name": "allowed",
          "type": "bool"
        },
        {
          "internalType": "uint8",
          "name": "v",
          "type": "uint8"
        },
        {
          "internalType": "bytes32",
          "name": "r",
          "type": "bytes32"
        },
        {
          "internalType": "bytes32",
          "name": "s",
          "type": "bytes32"
        }
      ],
      "name": "permit",
      "outputs": [],
      "stateMutability": "nonpayable",
      "type": "function"
    },
    {
      "inputs": [
        {
          "internalType": "address",
          "name": "usr",
          "type": "address"
        }
      ],
      "name": "dai",
      "outputs": [
        {
          "internalType": "uint256",
          "name": "wad",
          "type": "uint256"
        }
      ],
      "stateMutability": "nonpayable",
      "type": "function"
    },
    {
      "inputs": [
        {
          "internalType": "address",
          "name": "dst",
          "type": "address"
        },
        {
          "internalType": "uint256",
          "name": "wad",
          "type": "uint256"
        }
      ],
      "name": "join",
      "outputs": [],
      "stateMutability": "nonpayable",
      "type": "function"
    },
    {
      "inputs": [
        {
          "internalType": "address",
          "name": "src",
          "type": "address"
        },
        {
          "internalType": "uint256",
          "name": "wad",
          "type": "uint256"
        }
      ],
      "name": "exit",
      "outputs": [],
      "stateMutability": "nonpayable",
      "type": "function"
    },
    {
      "inputs": [
        {
          "internalType": "address",
          "name": "src",
          "type": "address"
        },
        {
          "internalType": "uint256",
          "name": "wad",
          "type": "uint256"
        }
      ],
      "name": "draw",
      "outputs": [],
      "stateMutability": "nonpayable",
      "type": "function"
    }
  ],
  "bytecode": "0x608060405234801561001057600080fd5b5060405162001b2738038062001b278339818101604052608081101561003557600080fd5b5080516020820151604080840151606090940151600080546001600160a01b03199081166001600160a01b0380881691909117808455600180548416838916179055600280548416838b161790819055600380549094168387161790935585516328ec8bf160e21b815292821660048401529451969795969394169263a3b22fc49260248084019391929182900301818387803b1580156100d557600080fd5b505af11580156100e9573d6000803e3d6000fd5b505060008054600154604080516328ec8bf160e21b81526001600160a01b039283166004820152905191909216945063a3b22fc493506024808301939282900301818387803b15801561013b57600080fd5b505af115801561014f573d6000803e3d6000fd5b50506003546002546040805163095ea7b360e01b81526001600160a01b0392831660048201526000196024820152905191909216935063095ea7b3925060448083019260209291908290030181600087803b1580156101ad57600080fd5b505af11580156101c1573d6000803e3d6000fd5b505050506040513d60208110156101d757600080fd5b50505050505061193a80620001ed6000396000f3fe608060405234801561001057600080fd5b506004361061014d5760003560e01c806354fd4d50116100c3578063a9059cbb1161007c578063a9059cbb146103ef578063bb35783b1461041b578063be22f54614610451578063c11645bc14610459578063dd62ed3e14610461578063ef693bed1461048f5761014d565b806354fd4d50146103135780636c25b3461461031b57806370a08231146103415780637ecebe00146103675780638fcbaf0c1461038d57806395d89b41146103e75761014d565b8063313ce56711610115578063313ce567146102675780633644e5151461028557806336569e771461028d5780633b4da69f146102b15780634a03707c146102df5780634ba2363a1461030b5761014d565b806306fdde0314610152578063095ea7b3146101cf57806318160ddd1461020f57806323b872dd1461022957806330adf81f1461025f575b600080fd5b61015a6104bb565b6040805160208082528351818301528351919283929083019185019080838360005b8381101561019457818101518382015260200161017c565b50505050905090810190601f1680156101c15780820380516001836020036101000a031916815260200191505b509250505060405180910390f35b6101fb600480360360408110156101e557600080fd5b506001600160a01b0381351690602001356104db565b604080519115158252519081900360200190f35b610217610542565b60408051918252519081900360200190f35b6101fb6004803603606081101561023f57600080fd5b506001600160a01b03813581169160208101359091169060400135610548565b610217610772565b61026f610796565b6040805160ff9092168252519081900360200190f35b61021761079b565b6102956107bf565b604080516001600160a01b039092168252519081900360200190f35b6102dd600480360360408110156102c757600080fd5b506001600160a01b0381351690602001356107ce565b005b6102dd600480360360408110156102f557600080fd5b506001600160a01b038135169060200135610b40565b610295610cd0565b61015a610cdf565b6102176004803603602081101561033157600080fd5b50356001600160a01b0316610cfc565b6102176004803603602081101561035757600080fd5b50356001600160a01b0316610ead565b6102176004803603602081101561037d57600080fd5b50356001600160a01b0316610ebf565b6102dd60048036036101008110156103a457600080fd5b506001600160a01b038135811691602081013590911690604081013590606081013590608081013515159060ff60a0820135169060c08101359060e00135610ed1565b61015a6111df565b6101fb6004803603604081101561040557600080fd5b506001600160a01b0381351690602001356111ff565b6101fb6004803603606081101561043157600080fd5b506001600160a01b0381358116916020810135909116906040013561120c565b6102956113ae565b6102956113bd565b6102176004803603604081101561047757600080fd5b506001600160a01b03813581169160200135166113cc565b6102dd600480360360408110156104a557600080fd5b506001600160a01b0381351690602001356113e9565b604051806040016040528060048152602001634368616960e01b81525081565b3360008181526006602090815260408083206001600160a01b038716808552908352818420869055815186815291519394909390927f8c5be1e5ebec7d5bd14f71427d1e84f3dd0314c0f7b2291e5b200ac8c7c3b925928290030190a35060015b92915050565b60045481565b6001600160a01b0383166000908152600560205260408120548211156105b1576040805162461bcd60e51b8152602060048201526019602482015278636861692f696e73756666696369656e742d62616c616e636560381b604482015290519081900360640190fd5b6001600160a01b03841633148015906105ef57506001600160a01b038416600090815260066020908152604080832033845290915290205460001914155b156106bf576001600160a01b038416600090815260066020908152604080832033845290915290205482111561066c576040805162461bcd60e51b815260206004820152601b60248201527f636861692f696e73756666696369656e742d616c6c6f77616e63650000000000604482015290519081900360640190fd5b6001600160a01b038416600090815260066020908152604080832033845290915290205461069a9083611857565b6001600160a01b03851660009081526006602090815260408083203384529091529020555b6001600160a01b0384166000908152600560205260409020546106e29083611857565b6001600160a01b0380861660009081526005602052604080822093909355908516815220546107119083611867565b6001600160a01b0380851660008181526005602090815260409182902094909455805186815290519193928816927fddf252ad1be2c89b69c2b068fc378daa952ba7f163c4a11628f55a4df523b3ef92918290030190a35060019392505050565b7fea2aa0a1be11a07ed86d755c93467f4f82362b452371d1ba94d1715123511acb81565b601281565b7f0b50407de9fa158c2cba01a99633329490dfd22989a150c20e8c7b4c1fb0fcc381565b6000546001600160a01b031681565b600154604080516320aba08b60e01b815290516000926001600160a01b0316916320aba08b91600480830192602092919082900301818787803b15801561081457600080fd5b505af1158015610828573d6000803e3d6000fd5b505050506040513d602081101561083e57600080fd5b505142116108c757600160009054906101000a90046001600160a01b03166001600160a01b031663c92aecc46040518163ffffffff1660e01b8152600401602060405180830381600087803b15801561089657600080fd5b505af11580156108aa573d6000803e3d6000fd5b505050506040513d60208110156108c057600080fd5b5051610944565b600160009054906101000a90046001600160a01b03166001600160a01b0316639f678cca6040518163ffffffff1660e01b8152600401602060405180830381600087803b15801561091757600080fd5b505af115801561092b573d6000803e3d6000fd5b505050506040513d602081101561094157600080fd5b50515b905060006109528383611877565b6001600160a01b0385166000908152600560205260409020549091506109789082611867565b6001600160a01b03851660009081526005602052604090205560045461099e9082611867565b6004908155600354604080516323b872dd60e01b8152339381019390935230602484015260448301869052516001600160a01b03909116916323b872dd9160648083019260209291908290030181600087803b1580156109fd57600080fd5b505af1158015610a11573d6000803e3d6000fd5b505050506040513d6020811015610a2757600080fd5b505060025460408051633b4da69f60e01b81523060048201526024810186905290516001600160a01b0390921691633b4da69f9160448082019260009290919082900301818387803b158015610a7c57600080fd5b505af1158015610a90573d6000803e3d6000fd5b50506001546040805163049878f360e01b81526004810186905290516001600160a01b03909216935063049878f3925060248082019260009290919082900301818387803b158015610ae157600080fd5b505af1158015610af5573d6000803e3d6000fd5b50506040805184815290516001600160a01b0388169350600092507fddf252ad1be2c89b69c2b068fc378daa952ba7f163c4a11628f55a4df523b3ef9181900360200190a350505050565b600154604080516320aba08b60e01b815290516000926001600160a01b0316916320aba08b91600480830192602092919082900301818787803b158015610b8657600080fd5b505af1158015610b9a573d6000803e3d6000fd5b505050506040513d6020811015610bb057600080fd5b50514211610c3957600160009054906101000a90046001600160a01b03166001600160a01b031663c92aecc46040518163ffffffff1660e01b8152600401602060405180830381600087803b158015610c0857600080fd5b505af1158015610c1c573d6000803e3d6000fd5b505050506040513d6020811015610c3257600080fd5b5051610cb6565b600160009054906101000a90046001600160a01b03166001600160a01b0316639f678cca6040518163ffffffff1660e01b8152600401602060405180830381600087803b158015610c8957600080fd5b505af1158015610c9d573d6000803e3d6000fd5b505050506040513d6020811015610cb357600080fd5b50515b9050610ccb83610cc6848461189f565b6113e9565b505050565b6001546001600160a01b031681565b604051806040016040528060018152602001603160f81b81525081565b600080600160009054906101000a90046001600160a01b03166001600160a01b03166320aba08b6040518163ffffffff1660e01b8152600401602060405180830381600087803b158015610d4f57600080fd5b505af1158015610d63573d6000803e3d6000fd5b505050506040513d6020811015610d7957600080fd5b50514211610e0257600160009054906101000a90046001600160a01b03166001600160a01b031663c92aecc46040518163ffffffff1660e01b8152600401602060405180830381600087803b158015610dd157600080fd5b505af1158015610de5573d6000803e3d6000fd5b505050506040513d6020811015610dfb57600080fd5b5051610e7f565b600160009054906101000a90046001600160a01b03166001600160a01b0316639f678cca6040518163ffffffff1660e01b8152600401602060405180830381600087803b158015610e5257600080fd5b505af1158015610e66573d6000803e3d6000fd5b505050506040513d6020811015610e7c57600080fd5b50515b6001600160a01b038416600090815260056020526040902054909150610ea69082906118cb565b9392505050565b60056020526000908152604090205481565b60076020526000908152604090205481565b604080517fea2aa0a1be11a07ed86d755c93467f4f82362b452371d1ba94d1715123511acb6020808301919091526001600160a01b03808c16838501819052908b166060840152608083018a905260a0830189905287151560c0808501919091528451808503909101815260e08401855280519083012061190160f01b6101008501527f0b50407de9fa158c2cba01a99633329490dfd22989a150c20e8c7b4c1fb0fcc36101028501526101228085019190915284518085039091018152610142909301909352815191012090610fe5576040805162461bcd60e51b815260206004820152601360248201527231b430b497b4b73b30b634b2103437b63232b960691b604482015290519081900360640190fd5b6040805160008152602080820180845284905260ff8716828401526060820186905260808201859052915160019260a0808401939192601f1981019281900390910190855afa15801561103c573d6000803e3d6000fd5b505050602060405103516001600160a01b0316896001600160a01b0316146110a1576040805162461bcd60e51b815260206004820152601360248201527218da185a4bda5b9d985b1a590b5c195c9b5a5d606a1b604482015290519081900360640190fd5b8515806110ae5750854211155b6110f5576040805162461bcd60e51b815260206004820152601360248201527218da185a4bdc195c9b5a5d0b595e1c1a5c9959606a1b604482015290519081900360640190fd5b6001600160a01b0389166000908152600760205260409020805460018101909155871461115e576040805162461bcd60e51b8152602060048201526012602482015271636861692f696e76616c69642d6e6f6e636560701b604482015290519081900360640190fd5b60008561116c576000611170565b6000195b6001600160a01b03808c166000818152600660209081526040808320948f168084529482529182902085905581518581529151949550929391927f8c5be1e5ebec7d5bd14f71427d1e84f3dd0314c0f7b2291e5b200ac8c7c3b92592918290030190a350505050505050505050565b604051806040016040528060048152602001634348414960e01b81525081565b6000610ea6338484610548565b600080600160009054906101000a90046001600160a01b03166001600160a01b03166320aba08b6040518163ffffffff1660e01b8152600401602060405180830381600087803b15801561125f57600080fd5b505af1158015611273573d6000803e3d6000fd5b505050506040513d602081101561128957600080fd5b5051421161131257600160009054906101000a90046001600160a01b03166001600160a01b031663c92aecc46040518163ffffffff1660e01b8152600401602060405180830381600087803b1580156112e157600080fd5b505af11580156112f5573d6000803e3d6000fd5b505050506040513d602081101561130b57600080fd5b505161138f565b600160009054906101000a90046001600160a01b03166001600160a01b0316639f678cca6040518163ffffffff1660e01b8152600401602060405180830381600087803b15801561136257600080fd5b505af1158015611376573d6000803e3d6000fd5b505050506040513d602081101561138c57600080fd5b50515b90506113a585856113a0868561189f565b610548565b95945050505050565b6003546001600160a01b031681565b6002546001600160a01b031681565b600660209081526000928352604080842090915290825290205481565b6001600160a01b038216600090815260056020526040902054811115611452576040805162461bcd60e51b8152602060048201526019602482015278636861692f696e73756666696369656e742d62616c616e636560381b604482015290519081900360640190fd5b6001600160a01b038216331480159061149057506001600160a01b038216600090815260066020908152604080832033845290915290205460001914155b15611560576001600160a01b038216600090815260066020908152604080832033845290915290205481111561150d576040805162461bcd60e51b815260206004820152601b60248201527f636861692f696e73756666696369656e742d616c6c6f77616e63650000000000604482015290519081900360640190fd5b6001600160a01b038216600090815260066020908152604080832033845290915290205461153b9082611857565b6001600160a01b03831660009081526006602090815260408083203384529091529020555b6001600160a01b0382166000908152600560205260409020546115839082611857565b6001600160a01b0383166000908152600560205260409020556004546115a99082611857565b6004908155600154604080516320aba08b60e01b815290516000936001600160a01b03909316926320aba08b9280820192602092909182900301818787803b1580156115f457600080fd5b505af1158015611608573d6000803e3d6000fd5b505050506040513d602081101561161e57600080fd5b505142116116a757600160009054906101000a90046001600160a01b03166001600160a01b031663c92aecc46040518163ffffffff1660e01b8152600401602060405180830381600087803b15801561167657600080fd5b505af115801561168a573d6000803e3d6000fd5b505050506040513d60208110156116a057600080fd5b5051611724565b600160009054906101000a90046001600160a01b03166001600160a01b0316639f678cca6040518163ffffffff1660e01b8152600401602060405180830381600087803b1580156116f757600080fd5b505af115801561170b573d6000803e3d6000fd5b505050506040513d602081101561172157600080fd5b50515b60015460408051637f8661a160e01b81526004810186905290519293506001600160a01b0390911691637f8661a19160248082019260009290919082900301818387803b15801561177457600080fd5b505af1158015611788573d6000803e3d6000fd5b50506002546001600160a01b0316915063ef693bed9050336117aa84866118cb565b6040518363ffffffff1660e01b815260040180836001600160a01b03166001600160a01b0316815260200182815260200192505050600060405180830381600087803b1580156117f957600080fd5b505af115801561180d573d6000803e3d6000fd5b5050604080518581529051600093506001600160a01b03871692507fddf252ad1be2c89b69c2b068fc378daa952ba7f163c4a11628f55a4df523b3ef9181900360200190a3505050565b8082038281111561053c57600080fd5b8082018281101561053c57600080fd5b600081611890846b033b2e3c9fd0803ce80000006118e0565b8161189757fe5b049392505050565b6000816118906118bb856b033b2e3c9fd0803ce80000006118e0565b6118c6856001611857565b611867565b60006b033b2e3c9fd0803ce800000061189084845b60008115806118fb575050808202828282816118f857fe5b04145b61053c57600080fdfea2646970667358221220a583abeef2af2792bb3a22051442818682e60b7628dab87ce41eb8639591e1cf64736f6c634300060a0033",
  "immutableReferences": {},
  "source": "// SPDX-License-Identifier: AGPL-3.0-or-later\n// chai.sol -- a dai savings token\n// Copyright (C) 2017, 2018, 2019 dbrock, rain, mrchico, lucasvo, livnev\n\n// This program is free software: you can redistribute it and/or modify\n// it under the terms of the GNU Affero General Public License as published by\n// the Free Software Foundation, either version 3 of the License, or\n// (at your option) any later version.\n//\n// This program is distributed in the hope that it will be useful,\n// but WITHOUT ANY WARRANTY; without even the implied warranty of\n// MERCHANTABILITY or FITNESS FOR A PARTICULAR PURPOSE.  See the\n// GNU Affero General Public License for more details.\n//\n// You should have received a copy of the GNU Affero General Public License\n// along with this program.  If not, see <https://www.gnu.org/licenses/>.\n\npragma solidity ^0.6.2;\n\ninterface VatLike {\n    function hope(address) external;\n}\n\ninterface PotLike {\n    function chi() external returns (uint256);\n    function rho() external returns (uint256);\n    function drip() external returns (uint256);\n    function join(uint256) external;\n    function exit(uint256) external;\n}\n\ninterface JoinLike {\n    function join(address, uint) external;\n    function exit(address, uint) external;\n}\n\ninterface GemLike {\n    function transferFrom(address,address,uint) external returns (bool);\n    function approve(address,uint) external returns (bool);\n}\n\ncontract Chai {\n    // --- Data ---\n    VatLike  public vat;\n    PotLike  public pot;\n    JoinLike public daiJoin;\n    GemLike  public daiToken;\n\n    // --- ERC20 Data ---\n    string  public constant name     = \"Chai\";\n    string  public constant symbol   = \"CHAI\";\n    string  public constant version  = \"1\";\n    uint8   public constant decimals = 18;\n    uint256 public totalSupply;\n\n    mapping (address => uint)                      public balanceOf;\n    mapping (address => mapping (address => uint)) public allowance;\n    mapping (address => uint)                      public nonces;\n\n    event Approval(address indexed src, address indexed guy, uint wad);\n    event Transfer(address indexed src, address indexed dst, uint wad);\n\n    // --- Math ---\n    uint constant RAY = 10 ** 27;\n    function add(uint x, uint y) internal pure returns (uint z) {\n        require((z = x + y) >= x);\n    }\n    function sub(uint x, uint y) internal pure returns (uint z) {\n        require((z = x - y) <= x);\n    }\n    function mul(uint x, uint y) internal pure returns (uint z) {\n        require(y == 0 || (z = x * y) / y == x);\n    }\n    function rmul(uint x, uint y) internal pure returns (uint z) {\n        // always rounds down\n        z = mul(x, y) / RAY;\n    }\n    function rdiv(uint x, uint y) internal pure returns (uint z) {\n        // always rounds down\n        z = mul(x, RAY) / y;\n    }\n    function rdivup(uint x, uint y) internal pure returns (uint z) {\n        // always rounds up\n        z = add(mul(x, RAY), sub(y, 1)) / y;\n    }\n\n    // --- EIP712 niceties ---\n    bytes32 public constant DOMAIN_SEPARATOR = 0x0b50407de9fa158c2cba01a99633329490dfd22989a150c20e8c7b4c1fb0fcc3;\n    // keccak256(\"Permit(address holder,address spender,uint256 nonce,uint256 expiry,bool allowed)\"));\n    bytes32 public constant PERMIT_TYPEHASH  = 0xea2aa0a1be11a07ed86d755c93467f4f82362b452371d1ba94d1715123511acb;\n\n    constructor(address vat_, address pot_, address daiJoin_, address weth_) public {\n        /* assert (DOMAIN_SEPARATOR ==\n          keccak256(abi.encode(\n            keccak256(\"EIP712Domain(string name,string version,uint256 chainId,address verifyingContract)\"),\n            keccak256(bytes(name)), keccak256(bytes(version)), 1, address(this)))\n        ); */\n\n        vat = VatLike(vat_);\n        pot = PotLike(pot_);\n        daiJoin = JoinLike(daiJoin_);\n        daiToken = GemLike(weth_);\n\n        vat.hope(address(daiJoin));\n        vat.hope(address(pot));\n\n        daiToken.approve(address(daiJoin), uint(-1));\n    }\n\n    // --- Token ---\n    function transfer(address dst, uint wad) external returns (bool) {\n        return transferFrom(msg.sender, dst, wad);\n    }\n    // like transferFrom but dai-denominated\n    function move(address src, address dst, uint wad) external returns (bool) {\n        uint chi = (now > pot.rho()) ? pot.drip() : pot.chi();\n        // rounding up ensures dst gets at least wad dai\n        return transferFrom(src, dst, rdivup(wad, chi));\n    }\n    function transferFrom(address src, address dst, uint wad)\n        public returns (bool)\n    {\n        require(balanceOf[src] >= wad, \"chai/insufficient-balance\");\n        if (src != msg.sender && allowance[src][msg.sender] != uint(-1)) {\n            require(allowance[src][msg.sender] >= wad, \"chai/insufficient-allowance\");\n            allowance[src][msg.sender] = sub(allowance[src][msg.sender], wad);\n        }\n        balanceOf[src] = sub(balanceOf[src], wad);\n        balanceOf[dst] = add(balanceOf[dst], wad);\n        emit Transfer(src, dst, wad);\n        return true;\n    }\n    function approve(address usr, uint wad) external returns (bool) {\n        allowance[msg.sender][usr] = wad;\n        emit Approval(msg.sender, usr, wad);\n        return true;\n    }\n\n    // --- Approve by signature ---\n    function permit(address holder, address spender, uint256 nonce, uint256 expiry, bool allowed, uint8 v, bytes32 r, bytes32 s) external\n    {\n        bytes32 digest = keccak256(abi.encodePacked(\n            \"\\x19\\x01\",\n            DOMAIN_SEPARATOR,\n            keccak256(abi.encode(PERMIT_TYPEHASH,\n                                 holder,\n                                 spender,\n                                 nonce,\n                                 expiry,\n                                 allowed))));\n        require(holder != address(0), \"chai/invalid holder\");\n        require(holder == ecrecover(digest, v, r, s), \"chai/invalid-permit\");\n        require(expiry == 0 || now <= expiry, \"chai/permit-expired\");\n        require(nonce == nonces[holder]++, \"chai/invalid-nonce\");\n\n        uint can = allowed ? uint(-1) : 0;\n        allowance[holder][spender] = can;\n        emit Approval(holder, spender, can);\n    }\n\n    function dai(address usr) external returns (uint wad) {\n        uint chi = (now > pot.rho()) ? pot.drip() : pot.chi();\n        wad = rmul(chi, balanceOf[usr]);\n    }\n    // wad is denominated in dai\n    function join(address dst, uint wad) external {\n        uint chi = (now > pot.rho()) ? pot.drip() : pot.chi();\n        uint pie = rdiv(wad, chi);\n        balanceOf[dst] = add(balanceOf[dst], pie);\n        totalSupply    = add(totalSupply, pie);\n\n        daiToken.transferFrom(msg.sender, address(this), wad);\n        daiJoin.join(address(this), wad);\n        pot.join(pie);\n        emit Transfer(address(0), dst, pie);\n    }\n\n    // wad is denominated in (1/chi) * dai\n    function exit(address src, uint wad) public {\n        require(balanceOf[src] >= wad, \"chai/insufficient-balance\");\n        if (src != msg.sender && allowance[src][msg.sender] != uint(-1)) {\n            require(allowance[src][msg.sender] >= wad, \"chai/insufficient-allowance\");\n            allowance[src][msg.sender] = sub(allowance[src][msg.sender], wad);\n        }\n        balanceOf[src] = sub(balanceOf[src], wad);\n        totalSupply    = sub(totalSupply, wad);\n\n        uint chi = (now > pot.rho()) ? pot.drip() : pot.chi();\n        pot.exit(wad);\n        daiJoin.exit(msg.sender, rmul(chi, wad));\n        emit Transfer(src, address(0), wad);\n    }\n\n    // wad is denominated in dai\n    function draw(address src, uint wad) external {\n        uint chi = (now > pot.rho()) ? pot.drip() : pot.chi();\n        // rounding up ensures usr gets at least wad dai\n        exit(src, rdivup(wad, chi));\n    }\n}\n",
  "sourcePath": "/Users/brucedonovan/dev/yield/yDai/contracts/external/chai/chai.sol",
  "compiler": {
    "name": "solc",
    "version": "0.6.10+commit.00c0fcaf.Emscripten.clang"
  },
  "schemaVersion": "3.2.3",
  "updatedAt": "2020-09-08T15:13:37.390Z",
  "networkType": "ethereum",
  "devdoc": {
    "methods": {}
  },
  "userdoc": {
    "methods": {}
  }
}