{
  "contractName": "Constants",
  "abi": [
    {
      "inputs": [],
      "name": "CHAI",
      "outputs": [
        {
          "internalType": "bytes32",
          "name": "",
          "type": "bytes32"
        }
      ],
      "stateMutability": "view",
      "type": "function"
    },
    {
      "inputs": [],
      "name": "RAD",
      "outputs": [
        {
          "internalType": "uint8",
          "name": "",
          "type": "uint8"
        }
      ],
      "stateMutability": "view",
      "type": "function"
    },
    {
      "inputs": [],
      "name": "RAY",
      "outputs": [
        {
          "internalType": "uint8",
          "name": "",
          "type": "uint8"
        }
      ],
      "stateMutability": "view",
      "type": "function"
    },
    {
      "inputs": [],
      "name": "WAD",
      "outputs": [
        {
          "internalType": "uint8",
          "name": "",
          "type": "uint8"
        }
      ],
      "stateMutability": "view",
      "type": "function"
    },
    {
      "inputs": [],
      "name": "WETH",
      "outputs": [
        {
          "internalType": "bytes32",
          "name": "",
          "type": "bytes32"
        }
      ],
      "stateMutability": "view",
      "type": "function"
    }
  ],
  "bytecode": "0x608060405234801561001057600080fd5b50610191806100206000396000f3fe608060405234801561001057600080fd5b50600436106100575760003560e01c806306f405fd1461005c578063552033c4146100805780636a146024146100a4578063ad5c4648146100c8578063b6dbf9ce146100e6575b600080fd5b610064610104565b604051808260ff1660ff16815260200191505060405180910390f35b610088610109565b604051808260ff1660ff16815260200191505060405180910390f35b6100ac61010e565b604051808260ff1660ff16815260200191505060405180910390f35b6100d0610113565b6040518082815260200191505060405180910390f35b6100ee610137565b6040518082815260200191505060405180910390f35b602d81565b601b81565b601281565b7f574554480000000000000000000000000000000000000000000000000000000081565b7f43484149000000000000000000000000000000000000000000000000000000008156fea2646970667358221220c165e11bcc54a63243b67af27773903208f7aa72c89947575d625cab0fd9400564736f6c63430006020033",
  "source": "pragma solidity ^0.6.2;\n\n\ncontract Constants {\n    // Fixed point256 precisions from MakerDao\n    uint8 constant public WAD = 18;\n    uint8 constant public RAY = 27;\n    uint8 constant public RAD = 45;\n\n    bytes32 public constant WETH = \"WETH\"; // TODO: Upgrade to 0.6.9 and use immutable\n    bytes32 public constant CHAI = \"CHAI\"; // TODO: Upgrade to 0.6.9 and use immutable\n}",
  "sourcePath": "/Users/bruce/dev/yieldprotocol/ytoken-mvp/contracts/helpers/Constants.sol",
  "compiler": {
    "name": "solc",
    "version": "0.6.2+commit.bacdbe57.Emscripten.clang"
  },
  "schemaVersion": "3.0.23",
  "updatedAt": "2020-07-01T06:23:49.309Z",
  "devdoc": {
    "methods": {}
  },
  "userdoc": {
    "methods": {}
  }
}