{
  "contractName": "Constants",
  "abi": [
    {
      "inputs": [],
      "name": "RAD",
      "outputs": [
        {
          "internalType": "uint8",
          "name": "",
          "type": "uint8"
        }
      ],
      "stateMutability": "view",
      "type": "function"
    },
    {
      "inputs": [],
      "name": "RAY",
      "outputs": [
        {
          "internalType": "uint8",
          "name": "",
          "type": "uint8"
        }
      ],
      "stateMutability": "view",
      "type": "function"
    },
    {
      "inputs": [],
      "name": "WAD",
      "outputs": [
        {
          "internalType": "uint8",
          "name": "",
          "type": "uint8"
        }
      ],
      "stateMutability": "view",
      "type": "function"
    }
  ],
  "bytecode": "0x608060405234801561001057600080fd5b5060ec8061001f6000396000f3fe6080604052348015600f57600080fd5b5060043610603c5760003560e01c806306f405fd146041578063552033c41460635780636a146024146085575b600080fd5b604760a7565b604051808260ff1660ff16815260200191505060405180910390f35b606960ac565b604051808260ff1660ff16815260200191505060405180910390f35b608b60b1565b604051808260ff1660ff16815260200191505060405180910390f35b602d81565b601b81565b60128156fea2646970667358221220ec02d029ed2dec50d44edf4126fc8389aac9f95e0a28542f212672cd2fd84e6f64736f6c63430006020033",
  "source": "pragma solidity ^0.6.2;\n\n\ncontract Constants {\n    // Fixed point256 precisions from MakerDao\n    uint8 constant public WAD = 18;\n    uint8 constant public RAY = 27;\n    uint8 constant public RAD = 45;\n}",
  "sourcePath": "/Users/bruce/dev/yieldprotocol/ytoken-mvp/contracts/Constants.sol",
  "compiler": {
    "name": "solc",
    "version": "0.6.2+commit.bacdbe57.Emscripten.clang"
  },
  "schemaVersion": "3.0.23",
  "updatedAt": "2020-06-01T11:27:12.672Z",
  "devdoc": {
    "methods": {}
  },
  "userdoc": {
    "methods": {}
  }
}