{
  "contractName": "Controller",
  "abi": [
    {
      "inputs": [
        {
          "internalType": "address",
          "name": "vat_",
          "type": "address"
        },
        {
          "internalType": "address",
          "name": "weth_",
          "type": "address"
        },
        {
          "internalType": "address",
          "name": "dai_",
          "type": "address"
        },
        {
          "internalType": "address",
          "name": "pot_",
          "type": "address"
        },
        {
          "internalType": "address",
          "name": "chai_",
          "type": "address"
        },
        {
          "internalType": "address",
          "name": "gasToken_",
          "type": "address"
        },
        {
          "internalType": "address",
          "name": "treasury_",
          "type": "address"
        }
      ],
      "stateMutability": "nonpayable",
      "type": "constructor"
    },
    {
      "anonymous": false,
      "inputs": [
        {
          "indexed": true,
          "internalType": "bytes32",
          "name": "collateral",
          "type": "bytes32"
        },
        {
          "indexed": true,
          "internalType": "uint256",
          "name": "maturity",
          "type": "uint256"
        },
        {
          "indexed": true,
          "internalType": "address",
          "name": "user",
          "type": "address"
        },
        {
          "indexed": false,
          "internalType": "int256",
          "name": "amount",
          "type": "int256"
        }
      ],
      "name": "Borrowed",
      "type": "event"
    },
    {
      "anonymous": false,
      "inputs": [
        {
          "indexed": true,
          "internalType": "address",
          "name": "user",
          "type": "address"
        },
        {
          "indexed": true,
          "internalType": "address",
          "name": "delegate",
          "type": "address"
        },
        {
          "indexed": false,
          "internalType": "bool",
          "name": "enabled",
          "type": "bool"
        }
      ],
      "name": "Delegate",
      "type": "event"
    },
    {
      "anonymous": false,
      "inputs": [
        {
          "indexed": false,
          "internalType": "address",
          "name": "access",
          "type": "address"
        }
      ],
      "name": "GrantedAccess",
      "type": "event"
    },
    {
      "anonymous": false,
      "inputs": [
        {
          "indexed": true,
          "internalType": "address",
          "name": "previousOwner",
          "type": "address"
        },
        {
          "indexed": true,
          "internalType": "address",
          "name": "newOwner",
          "type": "address"
        }
      ],
      "name": "OwnershipTransferred",
      "type": "event"
    },
    {
      "anonymous": false,
      "inputs": [
        {
          "indexed": true,
          "internalType": "bytes32",
          "name": "collateral",
          "type": "bytes32"
        },
        {
          "indexed": true,
          "internalType": "address",
          "name": "user",
          "type": "address"
        },
        {
          "indexed": false,
          "internalType": "int256",
          "name": "amount",
          "type": "int256"
        }
      ],
      "name": "Posted",
      "type": "event"
    },
    {
      "inputs": [],
      "name": "CHAI",
      "outputs": [
        {
          "internalType": "bytes32",
          "name": "",
          "type": "bytes32"
        }
      ],
      "stateMutability": "view",
      "type": "function",
      "constant": true
    },
    {
      "inputs": [],
      "name": "UNIT",
      "outputs": [
        {
          "internalType": "uint256",
          "name": "",
          "type": "uint256"
        }
      ],
      "stateMutability": "view",
      "type": "function",
      "constant": true
    },
    {
      "inputs": [],
      "name": "WETH",
      "outputs": [
        {
          "internalType": "bytes32",
          "name": "",
          "type": "bytes32"
        }
      ],
      "stateMutability": "view",
      "type": "function",
      "constant": true
    },
    {
      "inputs": [
        {
          "internalType": "address",
          "name": "delegate",
          "type": "address"
        }
      ],
      "name": "addDelegate",
      "outputs": [],
      "stateMutability": "nonpayable",
      "type": "function"
    },
    {
      "inputs": [
        {
          "internalType": "bytes32",
          "name": "",
          "type": "bytes32"
        },
        {
          "internalType": "uint256",
          "name": "",
          "type": "uint256"
        },
        {
          "internalType": "address",
          "name": "",
          "type": "address"
        }
      ],
      "name": "debtYDai",
      "outputs": [
        {
          "internalType": "uint256",
          "name": "",
          "type": "uint256"
        }
      ],
      "stateMutability": "view",
      "type": "function",
      "constant": true
    },
    {
      "inputs": [],
      "name": "live",
      "outputs": [
        {
          "internalType": "bool",
          "name": "",
          "type": "bool"
        }
      ],
      "stateMutability": "view",
      "type": "function",
      "constant": true
    },
    {
      "inputs": [
        {
          "internalType": "address",
          "name": "user",
          "type": "address"
        }
      ],
      "name": "orchestrate",
      "outputs": [],
      "stateMutability": "nonpayable",
      "type": "function"
    },
    {
      "inputs": [],
      "name": "owner",
      "outputs": [
        {
          "internalType": "address",
          "name": "",
          "type": "address"
        }
      ],
      "stateMutability": "view",
      "type": "function",
      "constant": true
    },
    {
      "inputs": [
        {
          "internalType": "bytes32",
          "name": "",
          "type": "bytes32"
        },
        {
          "internalType": "address",
          "name": "",
          "type": "address"
        }
      ],
      "name": "posted",
      "outputs": [
        {
          "internalType": "uint256",
          "name": "",
          "type": "uint256"
        }
      ],
      "stateMutability": "view",
      "type": "function",
      "constant": true
    },
    {
      "inputs": [],
      "name": "renounceOwnership",
      "outputs": [],
      "stateMutability": "nonpayable",
      "type": "function"
    },
    {
      "inputs": [
        {
          "internalType": "address",
          "name": "delegate",
          "type": "address"
        }
      ],
      "name": "revokeDelegate",
      "outputs": [],
      "stateMutability": "nonpayable",
      "type": "function"
    },
    {
      "inputs": [
        {
          "internalType": "uint256",
          "name": "",
          "type": "uint256"
        }
      ],
      "name": "series",
      "outputs": [
        {
          "internalType": "contract IYDai",
          "name": "",
          "type": "address"
        }
      ],
      "stateMutability": "view",
      "type": "function",
      "constant": true
    },
    {
      "inputs": [
        {
          "internalType": "bytes32",
          "name": "",
          "type": "bytes32"
        },
        {
          "internalType": "uint256",
          "name": "",
          "type": "uint256"
        }
      ],
      "name": "systemDebtYDai",
      "outputs": [
        {
          "internalType": "uint256",
          "name": "",
          "type": "uint256"
        }
      ],
      "stateMutability": "view",
      "type": "function",
      "constant": true
    },
    {
      "inputs": [
        {
          "internalType": "bytes32",
          "name": "",
          "type": "bytes32"
        }
      ],
      "name": "systemPosted",
      "outputs": [
        {
          "internalType": "uint256",
          "name": "",
          "type": "uint256"
        }
      ],
      "stateMutability": "view",
      "type": "function",
      "constant": true
    },
    {
      "inputs": [
        {
          "internalType": "address",
          "name": "newOwner",
          "type": "address"
        }
      ],
      "name": "transferOwnership",
      "outputs": [],
      "stateMutability": "nonpayable",
      "type": "function"
    },
    {
      "inputs": [
        {
          "internalType": "uint256",
          "name": "maturity",
          "type": "uint256"
        }
      ],
      "name": "containsSeries",
      "outputs": [
        {
          "internalType": "bool",
          "name": "",
          "type": "bool"
        }
      ],
      "stateMutability": "view",
      "type": "function",
      "constant": true
    },
    {
      "inputs": [
        {
          "internalType": "address",
          "name": "yDaiContract",
          "type": "address"
        }
      ],
      "name": "addSeries",
      "outputs": [],
      "stateMutability": "nonpayable",
      "type": "function"
    },
    {
      "inputs": [],
      "name": "shutdown",
      "outputs": [],
      "stateMutability": "nonpayable",
      "type": "function"
    },
    {
      "inputs": [
        {
          "internalType": "bytes32",
          "name": "collateral",
          "type": "bytes32"
        },
        {
          "internalType": "uint256",
          "name": "maturity",
          "type": "uint256"
        },
        {
          "internalType": "uint256",
          "name": "yDaiAmount",
          "type": "uint256"
        }
      ],
      "name": "inDai",
      "outputs": [
        {
          "internalType": "uint256",
          "name": "",
          "type": "uint256"
        }
      ],
      "stateMutability": "nonpayable",
      "type": "function"
    },
    {
      "inputs": [
        {
          "internalType": "bytes32",
          "name": "collateral",
          "type": "bytes32"
        },
        {
          "internalType": "uint256",
          "name": "maturity",
          "type": "uint256"
        },
        {
          "internalType": "uint256",
          "name": "daiAmount",
          "type": "uint256"
        }
      ],
      "name": "inYDai",
      "outputs": [
        {
          "internalType": "uint256",
          "name": "",
          "type": "uint256"
        }
      ],
      "stateMutability": "nonpayable",
      "type": "function"
    },
    {
      "inputs": [
        {
          "internalType": "bytes32",
          "name": "collateral",
          "type": "bytes32"
        },
        {
          "internalType": "uint256",
          "name": "maturity",
          "type": "uint256"
        },
        {
          "internalType": "address",
          "name": "user",
          "type": "address"
        }
      ],
      "name": "debtDai",
      "outputs": [
        {
          "internalType": "uint256",
          "name": "",
          "type": "uint256"
        }
      ],
      "stateMutability": "nonpayable",
      "type": "function"
    },
    {
      "inputs": [
        {
          "internalType": "bytes32",
          "name": "collateral",
          "type": "bytes32"
        },
        {
          "internalType": "address",
          "name": "user",
          "type": "address"
        }
      ],
      "name": "totalDebtDai",
      "outputs": [
        {
          "internalType": "uint256",
          "name": "",
          "type": "uint256"
        }
      ],
      "stateMutability": "nonpayable",
      "type": "function"
    },
    {
      "inputs": [
        {
          "internalType": "bytes32",
          "name": "collateral",
          "type": "bytes32"
        },
        {
          "internalType": "address",
          "name": "user",
          "type": "address"
        }
      ],
      "name": "powerOf",
      "outputs": [
        {
          "internalType": "uint256",
          "name": "",
          "type": "uint256"
        }
      ],
      "stateMutability": "nonpayable",
      "type": "function"
    },
    {
      "inputs": [
        {
          "internalType": "bytes32",
          "name": "collateral",
          "type": "bytes32"
        },
        {
          "internalType": "address",
          "name": "user",
          "type": "address"
        }
      ],
      "name": "isCollateralized",
      "outputs": [
        {
          "internalType": "bool",
          "name": "",
          "type": "bool"
        }
      ],
      "stateMutability": "nonpayable",
      "type": "function"
    },
    {
      "inputs": [
        {
          "internalType": "bytes32",
          "name": "collateral",
          "type": "bytes32"
        },
        {
          "internalType": "address",
          "name": "from",
          "type": "address"
        },
        {
          "internalType": "address",
          "name": "to",
          "type": "address"
        },
        {
          "internalType": "uint256",
          "name": "amount",
          "type": "uint256"
        }
      ],
      "name": "post",
      "outputs": [],
      "stateMutability": "nonpayable",
      "type": "function"
    },
    {
      "inputs": [
        {
          "internalType": "bytes32",
          "name": "collateral",
          "type": "bytes32"
        },
        {
          "internalType": "address",
          "name": "from",
          "type": "address"
        },
        {
          "internalType": "address",
          "name": "to",
          "type": "address"
        },
        {
          "internalType": "uint256",
          "name": "amount",
          "type": "uint256"
        }
      ],
      "name": "withdraw",
      "outputs": [],
      "stateMutability": "nonpayable",
      "type": "function"
    },
    {
      "inputs": [
        {
          "internalType": "bytes32",
          "name": "collateral",
          "type": "bytes32"
        },
        {
          "internalType": "uint256",
          "name": "maturity",
          "type": "uint256"
        },
        {
          "internalType": "address",
          "name": "from",
          "type": "address"
        },
        {
          "internalType": "address",
          "name": "to",
          "type": "address"
        },
        {
          "internalType": "uint256",
          "name": "yDaiAmount",
          "type": "uint256"
        }
      ],
      "name": "borrow",
      "outputs": [],
      "stateMutability": "nonpayable",
      "type": "function"
    },
    {
      "inputs": [
        {
          "internalType": "bytes32",
          "name": "collateral",
          "type": "bytes32"
        },
        {
          "internalType": "uint256",
          "name": "maturity",
          "type": "uint256"
        },
        {
          "internalType": "address",
          "name": "from",
          "type": "address"
        },
        {
          "internalType": "address",
          "name": "to",
          "type": "address"
        },
        {
          "internalType": "uint256",
          "name": "yDaiAmount",
          "type": "uint256"
        }
      ],
      "name": "repayYDai",
      "outputs": [],
      "stateMutability": "nonpayable",
      "type": "function"
    },
    {
      "inputs": [
        {
          "internalType": "bytes32",
          "name": "collateral",
          "type": "bytes32"
        },
        {
          "internalType": "uint256",
          "name": "maturity",
          "type": "uint256"
        },
        {
          "internalType": "address",
          "name": "from",
          "type": "address"
        },
        {
          "internalType": "address",
          "name": "to",
          "type": "address"
        },
        {
          "internalType": "uint256",
          "name": "daiAmount",
          "type": "uint256"
        }
      ],
      "name": "repayDai",
      "outputs": [],
      "stateMutability": "nonpayable",
      "type": "function"
    },
    {
      "inputs": [
        {
          "internalType": "bytes32",
          "name": "collateral",
          "type": "bytes32"
        },
        {
          "internalType": "address",
          "name": "user",
          "type": "address"
        },
        {
          "internalType": "uint256",
          "name": "daiAmount",
          "type": "uint256"
        },
        {
          "internalType": "uint256",
          "name": "tokenAmount",
          "type": "uint256"
        }
      ],
      "name": "grab",
      "outputs": [],
      "stateMutability": "nonpayable",
      "type": "function"
    }
  ],
  "bytecode": "0x6080604052600f805460ff191660011790553480156200001e57600080fd5b5060405162002f1938038062002f19833981810160405260e08110156200004457600080fd5b508051602082015160408301516060840151608085015160a086015160c09096015194959394929391929091906000620000866001600160e01b03620001a016565b600080546001600160a01b0319166001600160a01b0383169081178255604051929350917f8be0079c531659141344cd1fd0a4f28419497f9722a3daafe3b4186f6b6457e0908290a350600380546001600160a01b03199081166001600160a01b03998a161790915560048054821696891696909617909555600580548616948816949094179093556006805485169187169190911790556007805484169286169290921790915560086020527fdb5bf7410ffcf9d4b546431cbc6d541870445938d46f89bdc2fd2ef7f81cc6c28054831693851693909317909255634348414960e01b6000527f8157a26e2f81c8da9c39091de67cadb771463c3d6eb78364440712b7808e3210805490911691909216179055620001a4565b3390565b612d6580620001b46000396000f3fe608060405234801561001057600080fd5b50600436106101da5760003560e01c8063ad5c464811610104578063dd62f423116100a2578063f2fde38b11610071578063f2fde38b146105e3578063f51a391a14610609578063fa352c0014610641578063fc0e74d114610667576101da565b8063dd62f4231461053c578063e68b7cf414610568578063e71bdf4114610594578063ed7eebf2146105ba576101da565b8063c06331dc116100de578063c06331dc146104a4578063c5ec0c17146104d0578063d0a3a7e414610502578063dc22cb6a1461051f576101da565b8063ad5c464814610458578063adb9e54e14610460578063b6dbf9ce1461049c576101da565b8063839cd27c1161017c57806391371ffb1161014b57806391371ffb146103d4578063957aa58c1461041657806398cdae5a1461041e5780639d8e217714610450576101da565b8063839cd27c146103345780638da5cb5b146103575780638da66ed91461037b5780638e0cc17614610398576101da565b80637ad29f40116101b85780637ad29f40146102665780637c43a201146102a6578063801d325f146102cc57806380f5a4401461030e576101da565b806325d3cd17146101df5780632f2ea5de14610223578063715018a61461025e575b600080fd5b610221600480360360a08110156101f557600080fd5b508035906020810135906001600160a01b0360408201358116916060810135909116906080013561066f565b005b61024c6004803603606081101561023957600080fd5b50803590602081013590604001356108ee565b60408051918252519081900360200190f35b610221610ace565b6102926004803603604081101561027c57600080fd5b50803590602001356001600160a01b0316610b70565b604080519115158252519081900360200190f35b610221600480360360208110156102bc57600080fd5b50356001600160a01b0316610b91565b610221600480360360a08110156102e257600080fd5b508035906020810135906001600160a01b03604082013581169160608101359091169060800135610d0d565b6102216004803603602081101561032457600080fd5b50356001600160a01b031661117b565b61024c6004803603604081101561034a57600080fd5b508035906020013561122f565b61035f61124c565b604080516001600160a01b039092168252519081900360200190f35b61024c6004803603602081101561039157600080fd5b503561125b565b610221600480360360808110156103ae57600080fd5b508035906001600160a01b0360208201358116916040810135909116906060013561126d565b610221600480360360a08110156103ea57600080fd5b508035906020810135906001600160a01b0360408201358116916060810135909116906080013561160f565b610292611863565b61024c6004803603606081101561043457600080fd5b50803590602081013590604001356001600160a01b031661186c565b61024c61188f565b61024c61189f565b6102216004803603608081101561047657600080fd5b508035906001600160a01b036020820135811691604081013590911690606001356118ab565b61024c611bbe565b61024c600480360360408110156104ba57600080fd5b50803590602001356001600160a01b0316611bc9565b61024c600480360360608110156104e657600080fd5b50803590602081013590604001356001600160a01b0316611e52565b6102926004803603602081101561051857600080fd5b5035611e92565b61035f6004803603602081101561053557600080fd5b5035611eaf565b61024c6004803603604081101561055257600080fd5b50803590602001356001600160a01b0316611eca565b61024c6004803603604081101561057e57600080fd5b50803590602001356001600160a01b0316611ee7565b610221600480360360208110156105aa57600080fd5b50356001600160a01b0316611f8f565b61024c600480360360608110156105d057600080fd5b5080359060208101359060400135611ffb565b610221600480360360208110156105f957600080fd5b50356001600160a01b0316612193565b6102216004803603608081101561061f57600080fd5b508035906001600160a01b03602082013516906040810135906060013561228b565b6102216004803603602081101561065757600080fd5b50356001600160a01b03166125dd565b610221612640565b84644554482d4160d81b81148061068c5750634348414960e01b81145b6106c75760405162461bcd60e51b8152600401808060200182810382526023815260200180612c3f6023913960400191505060405180910390fd5b846106d181611e92565b610722576040805162461bcd60e51b815260206004820152601f60248201527f436f6e74726f6c6c65723a20556e7265636f676e697a65642073657269657300604482015290519081900360640190fd5b84604051806060016040528060238152602001612c6260239139336001600160a01b038316148061077657506001600160a01b038216600090815260026020908152604080832033845290915290205460ff165b81906108005760405162461bcd60e51b81526004018080602001828103825283818151815260200191508051906020019080838360005b838110156107c55781810151838201526020016107ad565b50505050905090810190601f1680156107f25780820380516001836020036101000a031916815260200191505b509250505060405180910390fd5b50600f5460ff1615156001146108475760405162461bcd60e51b8152600401808060200182810382526027815260200180612c856027913960400191505060405180910390fd5b600061085d866108588c8c8b611e52565b612718565b6007546040805163f939199160e01b81526001600160a01b038c8116600483015260248201859052915193945091169163f93919919160448082019260009290919082900301818387803b1580156108b457600080fd5b505af11580156108c8573d6000803e3d6000fd5b505050506108e28a8a896108dd8e8e87611ffb565b61272e565b50505050505050505050565b600082815260096020908152604080832054815163ae4e7fdf60e01b815291516001600160a01b039091169263ae4e7fdf9260048082019391829003018186803b15801561093b57600080fd5b505afa15801561094f573d6000803e3d6000fd5b505050506040513d602081101561096557600080fd5b505115610ac457644554482d4160d81b841415610a1957610a12826009600086815260200190815260200160002060009054906101000a90046001600160a01b03166001600160a01b031663abf1614b6040518163ffffffff1660e01b8152600401602060405180830381600087803b1580156109e157600080fd5b505af11580156109f5573d6000803e3d6000fd5b505050506040513d6020811015610a0b57600080fd5b505161285d565b9050610ac7565b634348414960e01b841415610a8d57610a12826009600086815260200190815260200160002060009054906101000a90046001600160a01b03166001600160a01b031663cb2401986040518163ffffffff1660e01b8152600401602060405180830381600087803b1580156109e157600080fd5b60405162461bcd60e51b8152600401808060200182810382526022815260200180612cac6022913960400191505060405180910390fd5b50805b9392505050565b610ad661288b565b6000546001600160a01b03908116911614610b26576040805162461bcd60e51b81526020600482018190526024820152600080516020612cef833981519152604482015290519081900360640190fd5b600080546040516001600160a01b03909116907f8be0079c531659141344cd1fd0a4f28419497f9722a3daafe3b4186f6b6457e0908390a3600080546001600160a01b0319169055565b6000610b7c8383611ee7565b610b868484611bc9565b101590505b92915050565b610b9961288b565b6000546001600160a01b03908116911614610be9576040805162461bcd60e51b81526020600482018190526024820152600080516020612cef833981519152604482015290519081900360640190fd5b6000816001600160a01b031663204f83f96040518163ffffffff1660e01b815260040160206040518083038186803b158015610c2457600080fd5b505afa158015610c38573d6000803e3d6000fd5b505050506040513d6020811015610c4e57600080fd5b50519050610c5b81611e92565b15610cad576040805162461bcd60e51b815260206004820181905260248201527f436f6e74726f6c6c65723a2053657269657320616c7265616479206164646564604482015290519081900360640190fd5b600081815260096020526040812080546001600160a01b0319166001600160a01b039490941693909317909255600a805460018101825592527fc65a7bb8d6351c1cf70c95a316cc6a92839c986682d98bc35f958f4883f9d2a890910155565b84644554482d4160d81b811480610d2a5750634348414960e01b81145b610d655760405162461bcd60e51b8152600401808060200182810382526023815260200180612c3f6023913960400191505060405180910390fd5b84610d6f81611e92565b610dc0576040805162461bcd60e51b815260206004820152601f60248201527f436f6e74726f6c6c65723a20556e7265636f676e697a65642073657269657300604482015290519081900360640190fd5b84604051806060016040528060238152602001612c6260239139336001600160a01b0383161480610e1457506001600160a01b038216600090815260026020908152604080832033845290915290205460ff165b8190610e615760405162461bcd60e51b81526020600482018181528351602484015283519092839260449091019190850190808383600083156107c55781810151838201526020016107ad565b50600f5460ff161515600114610ea85760405162461bcd60e51b8152600401808060200182810382526027815260200180612c856027913960400191505060405180910390fd5b60008881526009602090815260409182902054825163ae4e7fdf60e01b815292516001600160a01b039091169263ae4e7fdf926004808301939192829003018186803b158015610ef757600080fd5b505afa158015610f0b573d6000803e3d6000fd5b505050506040513d6020811015610f2157600080fd5b5051151560011415610f7a576040805162461bcd60e51b815260206004820152601c60248201527f436f6e74726f6c6c65723a204e6f206d617475726520626f72726f7700000000604482015290519081900360640190fd5b6000898152600c602090815260408083208b845282528083206001600160a01b038b168452909152902054158015610fb0575060015b15610fbf57610fbf600a61288f565b6000898152600c602090815260408083208b845282528083206001600160a01b038b168452909152902054610ffa908663ffffffff61298216565b60008a8152600c602090815260408083208c845282528083206001600160a01b038c1684528252808320939093558b8252600e81528282208b835290522054611049908663ffffffff61298216565b60008a8152600e602090815260408083208c845290915290205561106d8988610b70565b6110ba576040805162461bcd60e51b815260206004820152601960248201527810dbdb9d1c9bdb1b195c8e88151bdbc81b5d58da081919589d603a1b604482015290519081900360640190fd5b6000888152600960205260408082205481516340c10f1960e01b81526001600160a01b038a81166004830152602482018a9052925192909116926340c10f199260448084019382900301818387803b15801561111557600080fd5b505af1158015611129573d6000803e3d6000fd5b50505050866001600160a01b0316888a7f3dc0ed286b1afbc2228a1e7f81fc3f66aa9f423dca0c6a283eafa53e93adefbe886040518082815260200191505060405180910390a4505050505050505050565b61118361288b565b6000546001600160a01b039081169116146111d3576040805162461bcd60e51b81526020600482018190526024820152600080516020612cef833981519152604482015290519081900360640190fd5b6001600160a01b038116600081815260016020818152604092839020805460ff1916909217909155815192835290517f6a7c5f28ea564fafc8b079663a2a9b9d26fe735d97c97611484ce044f40a16e29281900390910190a150565b600e60209081526000928352604080842090915290825290205481565b6000546001600160a01b031690565b600d6020526000908152604090205481565b83644554482d4160d81b81148061128a5750634348414960e01b81145b6112c55760405162461bcd60e51b8152600401808060200182810382526023815260200180612c3f6023913960400191505060405180910390fd5b83604051806060016040528060238152602001612c6260239139336001600160a01b038316148061131957506001600160a01b038216600090815260026020908152604080832033845290915290205460ff165b81906113665760405162461bcd60e51b81526020600482018181528351602484015283519092839260449091019190850190808383600083156107c55781810151838201526020016107ad565b50600f5460ff1615156001146113ad5760405162461bcd60e51b8152600401808060200182810382526027815260200180612c856027913960400191505060405180910390fd5b6000878152600b602090815260408083206001600160a01b038a1684529091529020546113e0908563ffffffff6129dc16565b6000888152600b602090815260408083206001600160a01b038b168452825280832093909355898252600d9052205461141f908563ffffffff6129dc16565b6000888152600d60205260409020556114388787610b70565b611485576040805162461bcd60e51b815260206004820152601960248201527810dbdb9d1c9bdb1b195c8e88151bdbc81b5d58da081919589d603a1b604482015290519081900360640190fd5b644554482d4160d81b87141561150757600754604080516322b25b7f60e21b81526001600160a01b0388811660048301526024820188905291519190921691638ac96dfc91604480830192600092919082900301818387803b1580156114ea57600080fd5b505af11580156114fe573d6000803e3d6000fd5b50505050611584565b634348414960e01b8714156115845760075460408051639fa8368960e01b81526001600160a01b0388811660048301526024820188905291519190921691639fa8368991604480830192600092919082900301818387803b15801561156b57600080fd5b505af115801561157f573d6000803e3d6000fd5b505050505b6000878152600b602090815260408083206001600160a01b038a1684529091529020541580156115b2575060015b156115c1576115c1600a612a1e565b856001600160a01b0316877fce1994727cf164e30801f140b3019e0d4862d430438ab41de1144b5db719c583866000036040518082815260200191505060405180910390a350505050505050565b84644554482d4160d81b81148061162c5750634348414960e01b81145b6116675760405162461bcd60e51b8152600401808060200182810382526023815260200180612c3f6023913960400191505060405180910390fd5b8461167181611e92565b6116c2576040805162461bcd60e51b815260206004820152601f60248201527f436f6e74726f6c6c65723a20556e7265636f676e697a65642073657269657300604482015290519081900360640190fd5b84604051806060016040528060238152602001612c6260239139336001600160a01b038316148061171657506001600160a01b038216600090815260026020908152604080832033845290915290205460ff165b81906117635760405162461bcd60e51b81526020600482018181528351602484015283519092839260449091019190850190808383600083156107c55781810151838201526020016107ad565b50600f5460ff1615156001146117aa5760405162461bcd60e51b8152600401808060200182810382526027815260200180612c856027913960400191505060405180910390fd5b6000898152600c602090815260408083208b845282528083206001600160a01b038a1684529091528120546117e0908790612718565b60008a815260096020526040808220548151632770a7eb60e21b81526001600160a01b038d81166004830152602482018690529251949550911692639dc29fac9260448084019391929182900301818387803b15801561183f57600080fd5b505af1158015611853573d6000803e3d6000fd5b505050506108e28a8a898461272e565b600f5460ff1681565b600c60209081526000938452604080852082529284528284209052825290205481565b6b033b2e3c9fd0803ce800000081565b644554482d4160d81b81565b83644554482d4160d81b8114806118c85750634348414960e01b81145b6119035760405162461bcd60e51b8152600401808060200182810382526023815260200180612c3f6023913960400191505060405180910390fd5b83604051806060016040528060238152602001612c6260239139336001600160a01b038316148061195757506001600160a01b038216600090815260026020908152604080832033845290915290205460ff165b81906119a45760405162461bcd60e51b81526020600482018181528351602484015283519092839260449091019190850190808383600083156107c55781810151838201526020016107ad565b50600f5460ff1615156001146119eb5760405162461bcd60e51b8152600401808060200182810382526027815260200180612c856027913960400191505060405180910390fd5b644554482d4160d81b871415611a6d576007546040805163134b55ef60e31b81526001600160a01b0389811660048301526024820188905291519190921691639a5aaf7891604480830192600092919082900301818387803b158015611a5057600080fd5b505af1158015611a64573d6000803e3d6000fd5b50505050611aea565b634348414960e01b871415611aea5760075460408051631997c36160e01b81526001600160a01b0389811660048301526024820188905291519190921691631997c36191604480830192600092919082900301818387803b158015611ad157600080fd5b505af1158015611ae5573d6000803e3d6000fd5b505050505b6000878152600b602090815260408083206001600160a01b0389168452909152902054611b1d908563ffffffff61298216565b6000888152600b602090815260408083206001600160a01b038a168452825280832093909355898252600d90522054611b5c908563ffffffff61298216565b600d600089815260200190815260200160002081905550846001600160a01b0316877fce1994727cf164e30801f140b3019e0d4862d430438ab41de1144b5db719c583866040518082815260200191505060405180910390a350505050505050565b634348414960e01b81565b6000644554482d4160d81b831415611c965760035460408051636cb1c69b60e11b8152644554482d4160d81b600482015290516000926001600160a01b03169163d9638d369160248083019260a0929190829003018186803b158015611c2e57600080fd5b505afa158015611c42573d6000803e3d6000fd5b505050506040513d60a0811015611c5857600080fd5b506040908101516000868152600b60209081528382206001600160a01b038816835290529190912054909150611c8e908261285d565b915050610b8b565b634348414960e01b831415611e4957600554604080516320aba08b60e01b815290516000926001600160a01b0316916320aba08b91600480830192602092919082900301818787803b158015611ceb57600080fd5b505af1158015611cff573d6000803e3d6000fd5b505050506040513d6020811015611d1557600080fd5b50514211611d9c57600560009054906101000a90046001600160a01b03166001600160a01b031663c92aecc46040518163ffffffff1660e01b815260040160206040518083038186803b158015611d6b57600080fd5b505afa158015611d7f573d6000803e3d6000fd5b505050506040513d6020811015611d9557600080fd5b5051611e19565b600560009054906101000a90046001600160a01b03166001600160a01b0316639f678cca6040518163ffffffff1660e01b8152600401602060405180830381600087803b158015611dec57600080fd5b505af1158015611e00573d6000803e3d6000fd5b505050506040513d6020811015611e1657600080fd5b50515b6000858152600b602090815260408083206001600160a01b0388168452909152902054909150611c8e908261285d565b50600092915050565b6000838152600c6020908152604080832085845282528083206001600160a01b0385168452909152812054611e8a90859085906108ee565b949350505050565b6000908152600960205260409020546001600160a01b0316151590565b6009602052600090815260409020546001600160a01b031681565b600b60209081526000928352604080842090915290825290205481565b600080805b600a54811015611f87576000858152600c60205260408120600a805483919085908110611f1557fe5b906000526020600020015481526020019081526020016000206000866001600160a01b03166001600160a01b03168152602001908152602001600020541115611f7f57611f7a85600a8381548110611f6957fe5b906000526020600020015486611e52565b820191505b600101611eec565b509392505050565b3360008181526002602090815260408083206001600160a01b03861680855290835292819020805460ff19166001908117909155815190815290519293927f045b0fef01772d2fbba53dbd38c9777806eac0865b00af43abcfbcaf50da9206929181900390910190a350565b600082815260096020908152604080832054815163ae4e7fdf60e01b815291516001600160a01b039091169263ae4e7fdf9260048082019391829003018186803b15801561204857600080fd5b505afa15801561205c573d6000803e3d6000fd5b505050506040513d602081101561207257600080fd5b505115610ac457644554482d4160d81b84141561211f57610a12826009600086815260200190815260200160002060009054906101000a90046001600160a01b03166001600160a01b031663abf1614b6040518163ffffffff1660e01b8152600401602060405180830381600087803b1580156120ee57600080fd5b505af1158015612102573d6000803e3d6000fd5b505050506040513d602081101561211857600080fd5b5051612aa1565b634348414960e01b841415610a8d57610a12826009600086815260200190815260200160002060009054906101000a90046001600160a01b03166001600160a01b031663cb2401986040518163ffffffff1660e01b8152600401602060405180830381600087803b1580156120ee57600080fd5b61219b61288b565b6000546001600160a01b039081169116146121eb576040805162461bcd60e51b81526020600482018190526024820152600080516020612cef833981519152604482015290519081900360640190fd5b6001600160a01b0381166122305760405162461bcd60e51b8152600401808060200182810382526026815260200180612c196026913960400191505060405180910390fd5b600080546040516001600160a01b03808516939216917f8be0079c531659141344cd1fd0a4f28419497f9722a3daafe3b4186f6b6457e091a3600080546001600160a01b0319166001600160a01b0392909216919091179055565b83644554482d4160d81b8114806122a85750634348414960e01b81145b6122e35760405162461bcd60e51b8152600401808060200182810382526023815260200180612c3f6023913960400191505060405180910390fd5b604080518082018252601a81527f436f6e74726f6c6c65723a204e6f7420417574686f72697a656400000000000060208083019190915233600090815260019091529190912054819060ff1661237a5760405162461bcd60e51b81526020600482018181528351602484015283519092839260449091019190850190808383600083156107c55781810151838201526020016107ad565b506123c883604051806060016040528060218152602001612d0f602191396000898152600b602090815260408083206001600160a01b038c168452909152902054919063ffffffff612ac316565b6000878152600b602090815260408083206001600160a01b038a168452825280832093909355888252600d90522054612407908463ffffffff6129dc16565b6000878152600d6020526040812091909155805b600a5481101561257f576000600a828154811061243457fe5b9060005260206000200154905060006124616124518b848c611e52565b6108588a8763ffffffff6129dc16565b9050612473848263ffffffff61298216565b93506124ba6124838b8484611ffb565b60008c8152600c6020908152604080832087845282528083206001600160a01b038f1684529091529020549063ffffffff6129dc16565b60008b8152600c6020908152604080832086845282528083206001600160a01b038e1684529091529020556125196124f38b8484611ffb565b60008c8152600e602090815260408083208784529091529020549063ffffffff6129dc16565b60008b8152600e602090815260408083208684528252808320939093558c8252600c815282822085835281528282206001600160a01b038d1683529052205461256657612566600a612a1e565b8784141561257557505061257f565b505060010161241b565b508481146125d4576040805162461bcd60e51b815260206004820181905260248201527f436f6e74726f6c6c65723a204e6f7420656e6f75676820757365722064656274604482015290519081900360640190fd5b50505050505050565b3360008181526002602090815260408083206001600160a01b038616808552908352818420805460ff19169055815193845290519093927f045b0fef01772d2fbba53dbd38c9777806eac0865b00af43abcfbcaf50da920692908290030190a350565b600760009054906101000a90046001600160a01b03166001600160a01b031663957aa58c6040518163ffffffff1660e01b815260040160206040518083038186803b15801561268e57600080fd5b505afa1580156126a2573d6000803e3d6000fd5b505050506040513d60208110156126b857600080fd5b50511561270c576040805162461bcd60e51b815260206004820152601860248201527f4465616c65723a205472656173757279206973206c6976650000000000000000604482015290519081900360640190fd5b600f805460ff19169055565b60008183106127275781610ac7565b5090919050565b6000848152600c6020908152604080832086845282528083206001600160a01b0386168452909152902054612769908263ffffffff6129dc16565b6000858152600c6020908152604080832087845282528083206001600160a01b0387168452825280832093909355868252600e8152828220868352905220546127b8908263ffffffff6129dc16565b6000858152600e60209081526040808320878452825280832093909355868252600c815282822086835281528282206001600160a01b038616835290522054158015612802575060015b1561281157612811600a612a1e565b816001600160a01b031683857f3dc0ed286b1afbc2228a1e7f81fc3f66aa9f423dca0c6a283eafa53e93adefbe846000036040518082815260200191505060405180910390a450505050565b6000610ac76b033b2e3c9fd0803ce800000061287f858563ffffffff612b1d16565b9063ffffffff612b7616565b3390565b600654604080516323b872dd60e01b81523360048201523060248201526044810184905290516001600160a01b03909216916323b872dd916064808201926020929091908290030181600087803b1580156128e957600080fd5b505af11580156128fd573d6000803e3d6000fd5b505050506040513d602081101561291357600080fd5b505161297f576006546040805163140e25ad60e31b81526004810184905290516001600160a01b039092169163a0712d689160248082019260009290919082900301818387803b15801561296657600080fd5b505af115801561297a573d6000803e3d6000fd5b505050505b50565b600082820183811015610ac7576040805162461bcd60e51b815260206004820152601b60248201527f536166654d6174683a206164646974696f6e206f766572666c6f770000000000604482015290519081900360640190fd5b6000610ac783836040518060400160405280601e81526020017f536166654d6174683a207375627472616374696f6e206f766572666c6f770000815250612ac3565b6006546040805163a9059cbb60e01b81523360048201526024810184905290516001600160a01b039092169163a9059cbb916044808201926020929091908290030181600087803b158015612a7257600080fd5b505af1158015612a86573d6000803e3d6000fd5b505050506040513d6020811015612a9c57600080fd5b505050565b6000610ac78261287f856b033b2e3c9fd0803ce800000063ffffffff612b1d16565b60008184841115612b155760405162461bcd60e51b81526020600482018181528351602484015283519092839260449091019190850190808383600083156107c55781810151838201526020016107ad565b505050900390565b600082612b2c57506000610b8b565b82820282848281612b3957fe5b0414610ac75760405162461bcd60e51b8152600401808060200182810382526021815260200180612cce6021913960400191505060405180910390fd5b6000610ac783836040518060400160405280601a81526020017f536166654d6174683a206469766973696f6e206279207a65726f00000000000081525060008183612c025760405162461bcd60e51b81526020600482018181528351602484015283519092839260449091019190850190808383600083156107c55781810151838201526020016107ad565b506000838581612c0e57fe5b049594505050505056fe4f776e61626c653a206e6577206f776e657220697320746865207a65726f2061646472657373436f6e74726f6c6c65723a20556e7265636f676e697a656420636f6c6c61746572616c436f6e74726f6c6c65723a204f6e6c7920486f6c646572204f722044656c6567617465436f6e74726f6c6c65723a204e6f7420617661696c61626c6520647572696e6720756e77696e64436f6e74726f6c6c65723a20556e737570706f7274656420636f6c6c61746572616c536166654d6174683a206d756c7469706c69636174696f6e206f766572666c6f774f776e61626c653a2063616c6c6572206973206e6f7420746865206f776e6572436f6e74726f6c6c65723a204e6f7420656e6f75676820636f6c6c61746572616ca2646970667358221220cabaa0420d8b5a496a0b3ec82b659a48255740e2135b02015e141ee711ad5c3364736f6c634300060a0033",
  "source": "pragma solidity ^0.6.10;\n\nimport \"@openzeppelin/contracts/math/Math.sol\";\nimport \"@openzeppelin/contracts/math/SafeMath.sol\";\nimport \"@openzeppelin/contracts/token/ERC20/IERC20.sol\";\nimport \"./interfaces/IVat.sol\";\nimport \"./interfaces/IPot.sol\";\nimport \"./interfaces/IChai.sol\";\nimport \"./interfaces/IGasToken.sol\";\nimport \"./interfaces/ITreasury.sol\";\nimport \"./interfaces/IController.sol\";\nimport \"./interfaces/IYDai.sol\";\nimport \"./helpers/Delegable.sol\";\nimport \"./helpers/DecimalMath.sol\";\nimport \"./helpers/Orchestrated.sol\";\n// import \"@nomiclabs/buidler/console.sol\";\n\n/**\n * @dev The Controller manages collateral and debt levels for all users, and it is a major user entry point for the Yield protocol.\n * Controller keeps track of a number of yDai contracts.\n * Controller allows users to post and withdraw Chai and Weth collateral.\n * Controller allows users to borrow yDai against their Chai and Weth collateral.\n * Controller allows users to repay their yDai debt with yDai or with Dai.\n * Controller integrates with yDai contracts for minting yDai on borrowing, and burning yDai on repaying debt with yDai.\n * Controller relies on Treasury for all other asset transfers.\n * Controller allows orchestrated contracts to erase any amount of debt or collateral for an user. This is to be used during liquidations or during unwind.\n * Users can delegate the control of their accounts in Controllers to any address.\n * Controller takes a bond in GasTokens from users on their first borrow.\n * This bond is released to the account causing the user debt to drop to zero. This could be the users themselves closing their positions, or liquidators.\n */\ncontract Controller is IController, Orchestrated(), Delegable(), DecimalMath {\n    using SafeMath for uint256;\n\n    event Posted(bytes32 indexed collateral, address indexed user, int256 amount);\n    event Borrowed(bytes32 indexed collateral, uint256 indexed maturity, address indexed user, int256 amount);\n\n    bytes32 public constant CHAI = \"CHAI\";\n    bytes32 public constant WETH = \"ETH-A\";\n\n    IVat internal _vat;\n    IERC20 internal _dai;\n    IPot internal _pot;\n    IGasToken internal _gasToken;\n    ITreasury internal _treasury;\n\n    mapping(bytes32 => IERC20) internal _token;                       // Weth or Chai\n    mapping(uint256 => IYDai) public override series;                 // YDai series, indexed by maturity\n    uint256[] internal seriesIterator;                                // We need to know all the series\n\n    mapping(bytes32 => mapping(address => uint256)) public override posted;               // Collateral posted by each user\n    mapping(bytes32 => mapping(uint256 => mapping(address => uint256))) public override debtYDai;  // Debt owed by each user, by series\n\n    mapping(bytes32 => uint256) public override systemPosted;                        // Sum of collateral posted by all users\n    mapping(bytes32 => mapping(uint256 => uint256)) public override systemDebtYDai;  // Sum of debt owed by all users, by series\n\n    bool public live = true;\n\n    constructor (\n        address vat_,\n        address weth_,\n        address dai_,\n        address pot_,\n        address chai_,\n        address gasToken_,\n        address treasury_\n    ) public {\n        _vat = IVat(vat_);\n        _dai = IERC20(dai_);\n        _pot = IPot(pot_);\n        _gasToken = IGasToken(gasToken_);\n        _treasury = ITreasury(treasury_);\n        _token[WETH] = IERC20(weth_);\n        _token[CHAI] = IERC20(chai_);\n    }\n\n    modifier onlyLive() {\n        require(live == true, \"Controller: Not available during unwind\");\n        _;\n    }\n\n    /// @dev Only series added through `addSeries` are valid.\n    modifier validSeries(uint256 maturity) {\n        require(\n            containsSeries(maturity),\n            \"Controller: Unrecognized series\"\n        );\n        _;\n    }\n\n    /// @dev Only valid collateral types are Weth and Chai.\n    modifier validCollateral(bytes32 collateral) {\n        require(\n            collateral == WETH || collateral == CHAI,\n            \"Controller: Unrecognized collateral\"\n        );\n        _;\n    }\n\n    /// @dev Returns if a series has been added to the Controller, for a given series identified by maturity\n    function containsSeries(uint256 maturity) public view returns (bool) {\n        return address(series[maturity]) != address(0);\n    }\n\n    /// @dev Adds an yDai series to this Controller\n    function addSeries(address yDaiContract) public onlyOwner {\n        uint256 maturity = IYDai(yDaiContract).maturity();\n        require(\n            !containsSeries(maturity),\n            \"Controller: Series already added\"\n        );\n        series[maturity] = IYDai(yDaiContract);\n        seriesIterator.push(maturity);\n    }\n\n    /// @dev Disables post, withdraw, borrow and repay. To be called only when Treasury shuts down.\n    function shutdown() public override {\n        require(\n            _treasury.live() == false,\n            \"Dealer: Treasury is live\"\n        );\n        live = false;\n    }\n\n    /// @dev Returns the dai equivalent of an yDai amount, for a given series identified by maturity\n    function inDai(bytes32 collateral, uint256 maturity, uint256 yDaiAmount) public returns (uint256) {\n        if (series[maturity].isMature()){\n            if (collateral == WETH){\n                return muld(yDaiAmount, series[maturity].rateGrowth());\n            } else if (collateral == CHAI) {\n                return muld(yDaiAmount, series[maturity].chiGrowth());\n            } else {\n                revert(\"Controller: Unsupported collateral\");\n            }\n        } else {\n            return yDaiAmount;\n        }\n    }\n\n    /// @dev Returns the yDai equivalent of a dai amount, for a given series identified by maturity\n    function inYDai(bytes32 collateral, uint256 maturity, uint256 daiAmount) public returns (uint256) {\n        if (series[maturity].isMature()){\n            if (collateral == WETH){\n                return divd(daiAmount, series[maturity].rateGrowth());\n            } else if (collateral == CHAI) {\n                return divd(daiAmount, series[maturity].chiGrowth());\n            } else {\n                revert(\"Controller: Unsupported collateral\");\n            }\n        } else {\n            return daiAmount;\n        }\n    }\n\n    /// @dev Return debt in dai of an user, for a given collateral and series identified by maturity\n    //\n    //                        rate_now\n    // debt_now = debt_mat * ----------\n    //                        rate_mat\n    //\n    function debtDai(bytes32 collateral, uint256 maturity, address user) public returns (uint256) {\n        return inDai(collateral, maturity, debtYDai[collateral][maturity][user]);\n    }\n\n    /// @dev Returns the total debt of an user, for a given collateral, across all series, in Dai\n    function totalDebtDai(bytes32 collateral, address user) public override returns (uint256) {\n        uint256 totalDebt;\n        for (uint256 i = 0; i < seriesIterator.length; i += 1) {\n            if (debtYDai[collateral][seriesIterator[i]][user] > 0) {\n                totalDebt = totalDebt + debtDai(collateral, seriesIterator[i], user);\n            }\n        } // We don't expect hundreds of maturities per controller\n        return totalDebt;\n    }\n\n    /// @dev Maximum borrowing power of an user in dai for a given collateral\n    //\n    // powerOf[user](wad) = posted[user](wad) * oracle.price()(ray)\n    //\n    function powerOf(bytes32 collateral, address user) public returns (uint256) {\n        // dai = price * collateral\n        if (collateral == WETH){\n            (,, uint256 spot,,) = _vat.ilks(WETH);  // Stability fee and collateralization ratio for Weth\n            return muld(posted[collateral][user], spot);\n        } else if (collateral == CHAI) {\n            uint256 chi = (now > _pot.rho()) ? _pot.drip() : _pot.chi();\n            return muld(posted[collateral][user], chi);\n        }\n        return 0;\n    }\n\n    /// @dev Return if the borrowing power for a given collateral of an user is equal or greater than its debt for the same collateral\n    function isCollateralized(bytes32 collateral, address user) public override returns (bool) {\n        return powerOf(collateral, user) >= totalDebtDai(collateral, user);\n    }\n\n    /// @dev Takes collateral _token from `from` address, and credits it to `to` collateral account.\n    // from --- Token ---> us(to)\n    function post(bytes32 collateral, address from, address to, uint256 amount)\n        public override \n        validCollateral(collateral)\n        onlyHolderOrDelegate(from, \"Controller: Only Holder Or Delegate\")\n        onlyLive\n    {\n        if (collateral == WETH){ // TODO: Refactor Treasury to be `push(collateral, amount)`\n            _treasury.pushWeth(from, amount);\n        } else if (collateral == CHAI) {\n            _treasury.pushChai(from, amount);\n        }\n        \n        posted[collateral][to] = posted[collateral][to].add(amount);\n        systemPosted[collateral] = systemPosted[collateral].add(amount);\n        emit Posted(collateral, to, int256(amount)); // TODO: Watch for overflow\n    }\n\n    /// @dev Returns collateral to `to` address, taking it from `from` collateral account.\n    // us(from) --- Token ---> to\n    function withdraw(bytes32 collateral, address from, address to, uint256 amount)\n        public override\n        validCollateral(collateral)\n        onlyHolderOrDelegate(from, \"Controller: Only Holder Or Delegate\")\n        onlyLive\n    {\n        posted[collateral][from] = posted[collateral][from].sub(amount); // Will revert if not enough posted\n        systemPosted[collateral] = systemPosted[collateral].sub(amount);\n\n        require(\n            isCollateralized(collateral, from),\n            \"Controller: Too much debt\"\n        );\n\n        if (collateral == WETH){ // TODO: Refactor Treasury to be `pull(collateral, amount)`\n            _treasury.pullWeth(to, amount);\n        } else if (collateral == CHAI) {\n            _treasury.pullChai(to, amount);\n        }\n\n        if (posted[collateral][from] == 0 && amount >= 0) {\n            returnBond(10);\n        }\n        emit Posted(collateral, from, -int256(amount)); // TODO: Watch for overflow\n    }\n\n    /// @dev Mint yDai for a given series for address `to` by locking its market value in collateral, user debt is increased in the given collateral.\n    //\n    // posted[user](wad) >= (debtYDai[user](wad)) * amount (wad)) * collateralization (ray)\n    //\n    // us(from) --- yDai ---> to\n    // debt++\n    function borrow(bytes32 collateral, uint256 maturity, address from, address to, uint256 yDaiAmount)\n        public override\n        validCollateral(collateral)\n        validSeries(maturity)\n        onlyHolderOrDelegate(from, \"Controller: Only Holder Or Delegate\")\n        onlyLive\n    {\n        require(\n            series[maturity].isMature() != true,\n            \"Controller: No mature borrow\"\n        );\n\n        if (debtYDai[collateral][maturity][from] == 0 && yDaiAmount >= 0) {\n            lockBond(10);\n        }\n        debtYDai[collateral][maturity][from] = debtYDai[collateral][maturity][from].add(yDaiAmount);\n        systemDebtYDai[collateral][maturity] = systemDebtYDai[collateral][maturity].add(yDaiAmount);\n\n        require(\n            isCollateralized(collateral, from),\n            \"Controller: Too much debt\"\n        );\n        series[maturity].mint(to, yDaiAmount);\n        emit Borrowed(collateral, maturity, from, int256(yDaiAmount)); // TODO: Watch for overflow\n    }\n\n    /// @dev Burns yDai of a given series from `from` address, user debt is decreased for the given collateral and yDai series.\n    //                                                  debt_nominal\n    // debt_discounted = debt_nominal - repay_amount * ---------------\n    //                                                  debt_now\n    //\n    // user(from) --- yDai ---> us(to)\n    // debt--\n    function repayYDai(bytes32 collateral, uint256 maturity, address from, address to, uint256 yDaiAmount)\n        public override\n        validCollateral(collateral)\n        validSeries(maturity)\n        onlyHolderOrDelegate(from, \"Controller: Only Holder Or Delegate\")\n        onlyLive\n    {\n        uint256 toRepay = Math.min(yDaiAmount, debtYDai[collateral][maturity][to]);\n        series[maturity].burn(from, toRepay);\n        _repay(collateral, maturity, to, toRepay);\n    }\n\n    /// @dev Takes dai from `from` address, user debt is decreased for the given collateral and yDai series.\n    //                                                  debt_nominal\n    // debt_discounted = debt_nominal - repay_amount * ---------------\n    //                                                  debt_now\n    //\n    // user --- dai ---> us\n    // debt--\n    function repayDai(bytes32 collateral, uint256 maturity, address from, address to, uint256 daiAmount)\n        public override\n        validCollateral(collateral)\n        validSeries(maturity)\n        onlyHolderOrDelegate(from, \"Controller: Only Holder Or Delegate\")\n        onlyLive\n    {\n        uint256 toRepay = Math.min(daiAmount, debtDai(collateral, maturity, to));\n        _treasury.pushDai(from, toRepay);                                      // Have Treasury process the dai\n        _repay(collateral, maturity, to, inYDai(collateral, maturity, toRepay));\n    }\n\n    /// @dev Removes an amount of debt from an user's vault. If interest was accrued debt is only paid proportionally.\n    //\n    //                                                principal\n    // principal_repayment = gross_repayment * ----------------------\n    //                                          principal + interest\n    //    \n    function _repay(bytes32 collateral, uint256 maturity, address user, uint256 yDaiAmount) internal {\n        // `inDai` calculates the interest accrued for a given amount and series\n\n        debtYDai[collateral][maturity][user] = debtYDai[collateral][maturity][user].sub(yDaiAmount);\n        systemDebtYDai[collateral][maturity] = systemDebtYDai[collateral][maturity].sub(yDaiAmount);\n        if (debtYDai[collateral][maturity][user] == 0 && yDaiAmount >= 0) {\n            returnBond(10);\n        }\n        emit Borrowed(collateral, maturity, user, -int256(yDaiAmount)); // TODO: Watch for overflow\n    }\n\n    /// @dev Removes collateral and debt for an user.\n    function grab(bytes32 collateral, address user, uint256 daiAmount, uint256 tokenAmount)\n        public override\n        validCollateral(collateral)\n        onlyOrchestrated(\"Controller: Not Authorized\")\n    {\n\n        posted[collateral][user] = posted[collateral][user].sub(\n            tokenAmount,\n            \"Controller: Not enough collateral\"\n        );\n        systemPosted[collateral] = systemPosted[collateral].sub(tokenAmount);\n\n        uint256 totalGrabbed;\n        for (uint256 i = 0; i < seriesIterator.length; i += 1) {\n            uint256 maturity = seriesIterator[i];\n            uint256 thisGrab = Math.min(debtDai(collateral, maturity, user), daiAmount.sub(totalGrabbed));\n            totalGrabbed = totalGrabbed.add(thisGrab); // SafeMath shouldn't be needed\n            debtYDai[collateral][maturity][user] =\n                debtYDai[collateral][maturity][user].sub(inYDai(collateral, maturity, thisGrab)); // SafeMath shouldn't be needed\n            systemDebtYDai[collateral][maturity] =\n                systemDebtYDai[collateral][maturity].sub(inYDai(collateral, maturity, thisGrab)); // SafeMath shouldn't be needed\n            if (debtYDai[collateral][maturity][user] == 0){\n                returnBond(10);\n            }\n            if (totalGrabbed == daiAmount) break;\n        } // We don't expect hundreds of maturities per controller\n        require(\n            totalGrabbed == daiAmount,\n            \"Controller: Not enough user debt\"\n        );\n    }\n\n    /// @dev Locks a liquidation bond in gas tokens\n    function lockBond(uint256 value) internal {\n        if (!_gasToken.transferFrom(msg.sender, address(this), value)) {\n            _gasToken.mint(value);\n        }\n    }\n\n    /// @dev Frees a liquidation bond in gas tokens\n    function returnBond(uint256 value) internal {\n        _gasToken.transfer(msg.sender, value);\n    }\n}",
  "sourcePath": "/Users/bruce/dev/yieldprotocol/ytoken-mvp/contracts/Controller.sol",
  "compiler": {
    "name": "solc",
    "version": "0.6.10+commit.00c0fcaf.Emscripten.clang"
  },
  "schemaVersion": "3.0.23",
  "updatedAt": "2020-07-15T08:10:31.274Z",
  "networkType": "ethereum",
  "devdoc": {
    "details": "The Controller manages collateral and debt levels for all users, and it is a major user entry point for the Yield protocol. Controller keeps track of a number of yDai contracts. Controller allows users to post and withdraw Chai and Weth collateral. Controller allows users to borrow yDai against their Chai and Weth collateral. Controller allows users to repay their yDai debt with yDai or with Dai. Controller integrates with yDai contracts for minting yDai on borrowing, and burning yDai on repaying debt with yDai. Controller relies on Treasury for all other asset transfers. Controller allows orchestrated contracts to erase any amount of debt or collateral for an user. This is to be used during liquidations or during unwind. Users can delegate the control of their accounts in Controllers to any address. Controller takes a bond in GasTokens from users on their first borrow. This bond is released to the account causing the user debt to drop to zero. This could be the users themselves closing their positions, or liquidators.",
    "methods": {
      "addDelegate(address)": {
        "details": "Enable a delegate to act on the behalf of caller"
      },
      "addSeries(address)": {
        "details": "Adds an yDai series to this Controller"
      },
      "borrow(bytes32,uint256,address,address,uint256)": {
        "details": "Mint yDai for a given series for address `to` by locking its market value in collateral, user debt is increased in the given collateral."
      },
      "containsSeries(uint256)": {
        "details": "Returns if a series has been added to the Controller, for a given series identified by maturity"
      },
      "debtDai(bytes32,uint256,address)": {
        "details": "Return debt in dai of an user, for a given collateral and series identified by maturity"
      },
      "grab(bytes32,address,uint256,uint256)": {
        "details": "Removes collateral and debt for an user."
      },
      "inDai(bytes32,uint256,uint256)": {
        "details": "Returns the dai equivalent of an yDai amount, for a given series identified by maturity"
      },
      "inYDai(bytes32,uint256,uint256)": {
        "details": "Returns the yDai equivalent of a dai amount, for a given series identified by maturity"
      },
      "isCollateralized(bytes32,address)": {
        "details": "Return if the borrowing power for a given collateral of an user is equal or greater than its debt for the same collateral"
      },
      "orchestrate(address)": {
        "details": "Add user to the authorized users list"
      },
      "owner()": {
        "details": "Returns the address of the current owner."
      },
      "post(bytes32,address,address,uint256)": {
        "details": "Takes collateral _token from `from` address, and credits it to `to` collateral account."
      },
      "powerOf(bytes32,address)": {
        "details": "Maximum borrowing power of an user in dai for a given collateral"
      },
      "renounceOwnership()": {
        "details": "Leaves the contract without owner. It will not be possible to call `onlyOwner` functions anymore. Can only be called by the current owner. NOTE: Renouncing ownership will leave the contract without an owner, thereby removing any functionality that is only available to the owner."
      },
      "repayDai(bytes32,uint256,address,address,uint256)": {
        "details": "Takes dai from `from` address, user debt is decreased for the given collateral and yDai series."
      },
      "repayYDai(bytes32,uint256,address,address,uint256)": {
        "details": "Burns yDai of a given series from `from` address, user debt is decreased for the given collateral and yDai series."
      },
      "revokeDelegate(address)": {
        "details": "Stop a delegate from acting on the behalf of caller"
      },
      "shutdown()": {
        "details": "Disables post, withdraw, borrow and repay. To be called only when Treasury shuts down."
      },
      "totalDebtDai(bytes32,address)": {
        "details": "Returns the total debt of an user, for a given collateral, across all series, in Dai"
      },
      "transferOwnership(address)": {
        "details": "Transfers ownership of the contract to a new account (`newOwner`). Can only be called by the current owner."
      },
      "withdraw(bytes32,address,address,uint256)": {
        "details": "Returns collateral to `to` address, taking it from `from` collateral account."
      }
    }
  },
  "userdoc": {
    "methods": {}
  }
}