{
  "contractName": "Controller",
  "abi": [
    {
      "inputs": [
        {
          "internalType": "address",
          "name": "treasury_",
          "type": "address"
        },
        {
          "internalType": "address[]",
          "name": "yDais",
          "type": "address[]"
        }
      ],
      "stateMutability": "nonpayable",
      "type": "constructor"
    },
    {
      "anonymous": false,
      "inputs": [
        {
          "indexed": true,
          "internalType": "bytes32",
          "name": "collateral",
          "type": "bytes32"
        },
        {
          "indexed": true,
          "internalType": "uint256",
          "name": "maturity",
          "type": "uint256"
        },
        {
          "indexed": true,
          "internalType": "address",
          "name": "user",
          "type": "address"
        },
        {
          "indexed": false,
          "internalType": "int256",
          "name": "amount",
          "type": "int256"
        }
      ],
      "name": "Borrowed",
      "type": "event"
    },
    {
      "anonymous": false,
      "inputs": [
        {
          "indexed": true,
          "internalType": "address",
          "name": "user",
          "type": "address"
        },
        {
          "indexed": true,
          "internalType": "address",
          "name": "delegate",
          "type": "address"
        },
        {
          "indexed": false,
          "internalType": "bool",
          "name": "enabled",
          "type": "bool"
        }
      ],
      "name": "Delegate",
      "type": "event"
    },
    {
      "anonymous": false,
      "inputs": [
        {
          "indexed": false,
          "internalType": "address",
          "name": "access",
          "type": "address"
        },
        {
          "indexed": false,
          "internalType": "bytes4",
          "name": "signature",
          "type": "bytes4"
        }
      ],
      "name": "GrantedAccess",
      "type": "event"
    },
    {
      "anonymous": false,
      "inputs": [
        {
          "indexed": true,
          "internalType": "address",
          "name": "previousOwner",
          "type": "address"
        },
        {
          "indexed": true,
          "internalType": "address",
          "name": "newOwner",
          "type": "address"
        }
      ],
      "name": "OwnershipTransferred",
      "type": "event"
    },
    {
      "anonymous": false,
      "inputs": [
        {
          "indexed": true,
          "internalType": "bytes32",
          "name": "collateral",
          "type": "bytes32"
        },
        {
          "indexed": true,
          "internalType": "address",
          "name": "user",
          "type": "address"
        },
        {
          "indexed": false,
          "internalType": "int256",
          "name": "amount",
          "type": "int256"
        }
      ],
      "name": "Posted",
      "type": "event"
    },
    {
      "inputs": [],
      "name": "CHAI",
      "outputs": [
        {
          "internalType": "bytes32",
          "name": "",
          "type": "bytes32"
        }
      ],
      "stateMutability": "view",
      "type": "function",
      "constant": true
    },
    {
      "inputs": [],
      "name": "DELEGABLE_DOMAIN",
      "outputs": [
        {
          "internalType": "bytes32",
          "name": "",
          "type": "bytes32"
        }
      ],
      "stateMutability": "view",
      "type": "function",
      "constant": true
    },
    {
      "inputs": [],
      "name": "DUST",
      "outputs": [
        {
          "internalType": "uint256",
          "name": "",
          "type": "uint256"
        }
      ],
      "stateMutability": "view",
      "type": "function",
      "constant": true
    },
    {
      "inputs": [],
      "name": "SIGNATURE_TYPEHASH",
      "outputs": [
        {
          "internalType": "bytes32",
          "name": "",
          "type": "bytes32"
        }
      ],
      "stateMutability": "view",
      "type": "function",
      "constant": true
    },
    {
      "inputs": [],
      "name": "THREE_MONTHS",
      "outputs": [
        {
          "internalType": "uint256",
          "name": "",
          "type": "uint256"
        }
      ],
      "stateMutability": "view",
      "type": "function",
      "constant": true
    },
    {
      "inputs": [],
      "name": "UNIT",
      "outputs": [
        {
          "internalType": "uint256",
          "name": "",
          "type": "uint256"
        }
      ],
      "stateMutability": "view",
      "type": "function",
      "constant": true
    },
    {
      "inputs": [],
      "name": "WETH",
      "outputs": [
        {
          "internalType": "bytes32",
          "name": "",
          "type": "bytes32"
        }
      ],
      "stateMutability": "view",
      "type": "function",
      "constant": true
    },
    {
      "inputs": [
        {
          "internalType": "address",
          "name": "delegate",
          "type": "address"
        }
      ],
      "name": "addDelegate",
      "outputs": [],
      "stateMutability": "nonpayable",
      "type": "function"
    },
    {
      "inputs": [
        {
          "internalType": "address",
          "name": "user",
          "type": "address"
        },
        {
          "internalType": "address",
          "name": "delegate",
          "type": "address"
        },
        {
          "internalType": "uint256",
          "name": "deadline",
          "type": "uint256"
        },
        {
          "internalType": "uint8",
          "name": "v",
          "type": "uint8"
        },
        {
          "internalType": "bytes32",
          "name": "r",
          "type": "bytes32"
        },
        {
          "internalType": "bytes32",
          "name": "s",
          "type": "bytes32"
        }
      ],
      "name": "addDelegateBySignature",
      "outputs": [],
      "stateMutability": "nonpayable",
      "type": "function"
    },
    {
      "inputs": [
        {
          "internalType": "address",
          "name": "user",
          "type": "address"
        },
        {
          "internalType": "bytes4[]",
          "name": "signatures",
          "type": "bytes4[]"
        }
      ],
      "name": "batchOrchestrate",
      "outputs": [],
      "stateMutability": "nonpayable",
      "type": "function"
    },
    {
      "inputs": [
        {
          "internalType": "bytes32",
          "name": "",
          "type": "bytes32"
        },
        {
          "internalType": "uint256",
          "name": "",
          "type": "uint256"
        },
        {
          "internalType": "address",
          "name": "",
          "type": "address"
        }
      ],
      "name": "debtYDai",
      "outputs": [
        {
          "internalType": "uint256",
          "name": "",
          "type": "uint256"
        }
      ],
      "stateMutability": "view",
      "type": "function",
      "constant": true
    },
    {
      "inputs": [
        {
          "internalType": "address",
          "name": "",
          "type": "address"
        },
        {
          "internalType": "address",
          "name": "",
          "type": "address"
        }
      ],
      "name": "delegated",
      "outputs": [
        {
          "internalType": "bool",
          "name": "",
          "type": "bool"
        }
      ],
      "stateMutability": "view",
      "type": "function",
      "constant": true
    },
    {
      "inputs": [],
      "name": "live",
      "outputs": [
        {
          "internalType": "bool",
          "name": "",
          "type": "bool"
        }
      ],
      "stateMutability": "view",
      "type": "function",
      "constant": true
    },
    {
      "inputs": [
        {
          "internalType": "address",
          "name": "user",
          "type": "address"
        },
        {
          "internalType": "bytes4",
          "name": "signature",
          "type": "bytes4"
        }
      ],
      "name": "orchestrate",
      "outputs": [],
      "stateMutability": "nonpayable",
      "type": "function"
    },
    {
      "inputs": [
        {
          "internalType": "address",
          "name": "",
          "type": "address"
        },
        {
          "internalType": "bytes4",
          "name": "",
          "type": "bytes4"
        }
      ],
      "name": "orchestration",
      "outputs": [
        {
          "internalType": "bool",
          "name": "",
          "type": "bool"
        }
      ],
      "stateMutability": "view",
      "type": "function",
      "constant": true
    },
    {
      "inputs": [],
      "name": "owner",
      "outputs": [
        {
          "internalType": "address",
          "name": "",
          "type": "address"
        }
      ],
      "stateMutability": "view",
      "type": "function",
      "constant": true
    },
    {
      "inputs": [
        {
          "internalType": "bytes32",
          "name": "",
          "type": "bytes32"
        },
        {
          "internalType": "address",
          "name": "",
          "type": "address"
        }
      ],
      "name": "posted",
      "outputs": [
        {
          "internalType": "uint256",
          "name": "",
          "type": "uint256"
        }
      ],
      "stateMutability": "view",
      "type": "function",
      "constant": true
    },
    {
      "inputs": [],
      "name": "pot",
      "outputs": [
        {
          "internalType": "contract IPot",
          "name": "",
          "type": "address"
        }
      ],
      "stateMutability": "view",
      "type": "function",
      "constant": true
    },
    {
      "inputs": [],
      "name": "renounceOwnership",
      "outputs": [],
      "stateMutability": "nonpayable",
      "type": "function"
    },
    {
      "inputs": [
        {
          "internalType": "address",
          "name": "delegate",
          "type": "address"
        }
      ],
      "name": "revokeDelegate",
      "outputs": [],
      "stateMutability": "nonpayable",
      "type": "function"
    },
    {
      "inputs": [
        {
          "internalType": "uint256",
          "name": "",
          "type": "uint256"
        }
      ],
      "name": "series",
      "outputs": [
        {
          "internalType": "contract IYDai",
          "name": "",
          "type": "address"
        }
      ],
      "stateMutability": "view",
      "type": "function",
      "constant": true
    },
    {
      "inputs": [
        {
          "internalType": "uint256",
          "name": "",
          "type": "uint256"
        }
      ],
      "name": "seriesIterator",
      "outputs": [
        {
          "internalType": "uint256",
          "name": "",
          "type": "uint256"
        }
      ],
      "stateMutability": "view",
      "type": "function",
      "constant": true
    },
    {
      "inputs": [
        {
          "internalType": "address",
          "name": "",
          "type": "address"
        }
      ],
      "name": "signatureCount",
      "outputs": [
        {
          "internalType": "uint256",
          "name": "",
          "type": "uint256"
        }
      ],
      "stateMutability": "view",
      "type": "function",
      "constant": true
    },
    {
      "inputs": [
        {
          "internalType": "address",
          "name": "newOwner",
          "type": "address"
        }
      ],
      "name": "transferOwnership",
      "outputs": [],
      "stateMutability": "nonpayable",
      "type": "function"
    },
    {
      "inputs": [],
      "name": "treasury",
      "outputs": [
        {
          "internalType": "contract ITreasury",
          "name": "",
          "type": "address"
        }
      ],
      "stateMutability": "view",
      "type": "function",
      "constant": true
    },
    {
      "inputs": [],
      "name": "vat",
      "outputs": [
        {
          "internalType": "contract IVat",
          "name": "",
          "type": "address"
        }
      ],
      "stateMutability": "view",
      "type": "function",
      "constant": true
    },
    {
      "inputs": [],
      "name": "shutdown",
      "outputs": [],
      "stateMutability": "nonpayable",
      "type": "function"
    },
    {
      "inputs": [
        {
          "internalType": "bytes32",
          "name": "collateral",
          "type": "bytes32"
        },
        {
          "internalType": "address",
          "name": "user",
          "type": "address"
        }
      ],
      "name": "isCollateralized",
      "outputs": [
        {
          "internalType": "bool",
          "name": "",
          "type": "bool"
        }
      ],
      "stateMutability": "view",
      "type": "function",
      "constant": true
    },
    {
      "inputs": [
        {
          "internalType": "bytes32",
          "name": "collateral",
          "type": "bytes32"
        },
        {
          "internalType": "address",
          "name": "user",
          "type": "address"
        }
      ],
      "name": "aboveDustOrZero",
      "outputs": [
        {
          "internalType": "bool",
          "name": "",
          "type": "bool"
        }
      ],
      "stateMutability": "view",
      "type": "function",
      "constant": true
    },
    {
      "inputs": [],
      "name": "totalSeries",
      "outputs": [
        {
          "internalType": "uint256",
          "name": "",
          "type": "uint256"
        }
      ],
      "stateMutability": "view",
      "type": "function",
      "constant": true
    },
    {
      "inputs": [
        {
          "internalType": "uint256",
          "name": "maturity",
          "type": "uint256"
        }
      ],
      "name": "containsSeries",
      "outputs": [
        {
          "internalType": "bool",
          "name": "",
          "type": "bool"
        }
      ],
      "stateMutability": "view",
      "type": "function",
      "constant": true
    },
    {
      "inputs": [
        {
          "internalType": "bytes32",
          "name": "collateral",
          "type": "bytes32"
        },
        {
          "internalType": "uint256",
          "name": "maturity",
          "type": "uint256"
        },
        {
          "internalType": "uint256",
          "name": "yDaiAmount",
          "type": "uint256"
        }
      ],
      "name": "inDai",
      "outputs": [
        {
          "internalType": "uint256",
          "name": "",
          "type": "uint256"
        }
      ],
      "stateMutability": "view",
      "type": "function",
      "constant": true
    },
    {
      "inputs": [
        {
          "internalType": "bytes32",
          "name": "collateral",
          "type": "bytes32"
        },
        {
          "internalType": "uint256",
          "name": "maturity",
          "type": "uint256"
        },
        {
          "internalType": "uint256",
          "name": "daiAmount",
          "type": "uint256"
        }
      ],
      "name": "inYDai",
      "outputs": [
        {
          "internalType": "uint256",
          "name": "",
          "type": "uint256"
        }
      ],
      "stateMutability": "view",
      "type": "function",
      "constant": true
    },
    {
      "inputs": [
        {
          "internalType": "bytes32",
          "name": "collateral",
          "type": "bytes32"
        },
        {
          "internalType": "uint256",
          "name": "maturity",
          "type": "uint256"
        },
        {
          "internalType": "address",
          "name": "user",
          "type": "address"
        }
      ],
      "name": "debtDai",
      "outputs": [
        {
          "internalType": "uint256",
          "name": "",
          "type": "uint256"
        }
      ],
      "stateMutability": "view",
      "type": "function",
      "constant": true
    },
    {
      "inputs": [
        {
          "internalType": "bytes32",
          "name": "collateral",
          "type": "bytes32"
        },
        {
          "internalType": "address",
          "name": "user",
          "type": "address"
        }
      ],
      "name": "totalDebtDai",
      "outputs": [
        {
          "internalType": "uint256",
          "name": "",
          "type": "uint256"
        }
      ],
      "stateMutability": "view",
      "type": "function",
      "constant": true
    },
    {
      "inputs": [
        {
          "internalType": "bytes32",
          "name": "collateral",
          "type": "bytes32"
        },
        {
          "internalType": "address",
          "name": "user",
          "type": "address"
        }
      ],
      "name": "powerOf",
      "outputs": [
        {
          "internalType": "uint256",
          "name": "",
          "type": "uint256"
        }
      ],
      "stateMutability": "view",
      "type": "function",
      "constant": true
    },
    {
      "inputs": [
        {
          "internalType": "bytes32",
          "name": "collateral",
          "type": "bytes32"
        },
        {
          "internalType": "address",
          "name": "user",
          "type": "address"
        }
      ],
      "name": "locked",
      "outputs": [
        {
          "internalType": "uint256",
          "name": "",
          "type": "uint256"
        }
      ],
      "stateMutability": "view",
      "type": "function",
      "constant": true
    },
    {
      "inputs": [
        {
          "internalType": "bytes32",
          "name": "collateral",
          "type": "bytes32"
        },
        {
          "internalType": "address",
          "name": "from",
          "type": "address"
        },
        {
          "internalType": "address",
          "name": "to",
          "type": "address"
        },
        {
          "internalType": "uint256",
          "name": "amount",
          "type": "uint256"
        }
      ],
      "name": "post",
      "outputs": [],
      "stateMutability": "nonpayable",
      "type": "function"
    },
    {
      "inputs": [
        {
          "internalType": "bytes32",
          "name": "collateral",
          "type": "bytes32"
        },
        {
          "internalType": "address",
          "name": "from",
          "type": "address"
        },
        {
          "internalType": "address",
          "name": "to",
          "type": "address"
        },
        {
          "internalType": "uint256",
          "name": "amount",
          "type": "uint256"
        }
      ],
      "name": "withdraw",
      "outputs": [],
      "stateMutability": "nonpayable",
      "type": "function"
    },
    {
      "inputs": [
        {
          "internalType": "bytes32",
          "name": "collateral",
          "type": "bytes32"
        },
        {
          "internalType": "uint256",
          "name": "maturity",
          "type": "uint256"
        },
        {
          "internalType": "address",
          "name": "from",
          "type": "address"
        },
        {
          "internalType": "address",
          "name": "to",
          "type": "address"
        },
        {
          "internalType": "uint256",
          "name": "yDaiAmount",
          "type": "uint256"
        }
      ],
      "name": "borrow",
      "outputs": [],
      "stateMutability": "nonpayable",
      "type": "function"
    },
    {
      "inputs": [
        {
          "internalType": "bytes32",
          "name": "collateral",
          "type": "bytes32"
        },
        {
          "internalType": "uint256",
          "name": "maturity",
          "type": "uint256"
        },
        {
          "internalType": "address",
          "name": "from",
          "type": "address"
        },
        {
          "internalType": "address",
          "name": "to",
          "type": "address"
        },
        {
          "internalType": "uint256",
          "name": "yDaiAmount",
          "type": "uint256"
        }
      ],
      "name": "repayYDai",
      "outputs": [],
      "stateMutability": "nonpayable",
      "type": "function"
    },
    {
      "inputs": [
        {
          "internalType": "bytes32",
          "name": "collateral",
          "type": "bytes32"
        },
        {
          "internalType": "uint256",
          "name": "maturity",
          "type": "uint256"
        },
        {
          "internalType": "address",
          "name": "from",
          "type": "address"
        },
        {
          "internalType": "address",
          "name": "to",
          "type": "address"
        },
        {
          "internalType": "uint256",
          "name": "daiAmount",
          "type": "uint256"
        }
      ],
      "name": "repayDai",
      "outputs": [],
      "stateMutability": "nonpayable",
      "type": "function"
    },
    {
      "inputs": [
        {
          "internalType": "bytes32",
          "name": "collateral",
          "type": "bytes32"
        },
        {
          "internalType": "address",
          "name": "user",
          "type": "address"
        }
      ],
      "name": "erase",
      "outputs": [
        {
          "internalType": "uint256",
          "name": "",
          "type": "uint256"
        },
        {
          "internalType": "uint256",
          "name": "",
          "type": "uint256"
        }
      ],
      "stateMutability": "nonpayable",
      "type": "function"
    }
  ],
  "bytecode": "0x60c06040527f0d077601844dd17f704bafff948229d27f33b57445915754dfe3d095fda2beb7608052600b805460ff191660011790553480156200004257600080fd5b506040516200360b3803806200360b833981810160405260408110156200006857600080fd5b8151602083018051604051929492938301929190846401000000008211156200009057600080fd5b908301906020820185811115620000a657600080fd5b8251866020820283011164010000000082111715620000c457600080fd5b82525081516020918201928201910280838360005b83811015620000f3578181015183820152602001620000d9565b505050509050016040525050506000620001126200039460201b60201c565b600080546001600160a01b0319166001600160a01b0383169081178255604051929350917f8be0079c531659141344cd1fd0a4f28419497f9722a3daafe3b4186f6b6457e0908290a3506040514690806052620035b982396040805191829003605201822082820182526005835264165a595b1960da1b6020938401528151808301835260018152603160f81b908401528151808401919091527f0dc8618f4925c4319195a39ada16304f511bf885ff9f3d63bc6b0f3979e46fb6818301527fc89efdaa54c0f20c7adf612882df0950f5a951637e0307cdcb4c672f298b8bc6606082015260808101949094523060a08086019190915281518086038201815260c08601808452815191850191909120909152600680546001600160a01b038981166001600160a01b031990921691909117918290556336569e7760e01b90925291519116936336569e77935060c4808201939291829003018186803b1580156200027c57600080fd5b505afa15801562000291573d6000803e3d6000fd5b505050506040513d6020811015620002a857600080fd5b5051600480546001600160a01b0319166001600160a01b03928316178155600654604080516325d11b1d60e11b815290519190931692634ba2363a9281810192602092909190829003018186803b1580156200030357600080fd5b505afa15801562000318573d6000803e3d6000fd5b505050506040513d60208110156200032f57600080fd5b5051600580546001600160a01b0319166001600160a01b0390921691909117905560005b81518110156200038b57620003828282815181106200036e57fe5b60200260200101516200039860201b60201c565b60010162000353565b505050620004e8565b3390565b6000816001600160a01b031663204f83f96040518163ffffffff1660e01b815260040160206040518083038186803b158015620003d457600080fd5b505afa158015620003e9573d6000803e3d6000fd5b505050506040513d60208110156200040057600080fd5b5051905062000418816001600160e01b03620004cb16565b156200046b576040805162461bcd60e51b815260206004820181905260248201527f436f6e74726f6c6c65723a2053657269657320616c7265616479206164646564604482015290519081900360640190fd5b600081815260076020526040812080546001600160a01b0319166001600160a01b0394909416939093179092556008805460018101825592527ff3f7a9fe364faab93b216da50a3214154f22a0a2b415b23a84c8169e8b636ee390910155565b6000908152600760205260409020546001600160a01b0316151590565b60805160a0516130a36200051660003980610cf052806113f8525080610c8b52806123e052506130a36000f3fe608060405234801561001057600080fd5b50600436106102695760003560e01c806398cdae5a11610151578063dd102225116100c3578063ecbefab711610087578063ecbefab71461083f578063ed7eebf214610847578063f2fde38b14610870578063f6bcbd3114610896578063fa352c00146108c4578063fc0e74d1146108ea57610269565b8063dd102225146106f1578063dd62f4231461070e578063e68b7cf41461073a578063e71bdf4114610766578063e80c72c01461078c57610269565b8063b6dbf9ce11610115578063b6dbf9ce14610649578063c06331dc14610651578063c0bd65d71461067d578063c5ec0c1714610685578063d0a3a7e4146106b7578063dc22cb6a146106d457610269565b806398cdae5a146105a55780639d8e2177146105d7578063ad5c4648146105df578063adb9e54e146105e7578063b5d832fe1461062357610269565b80634cd4423d116101ea5780637ad29f40116101ae5780637ad29f40146104a9578063801d325f146104d55780638da5cb5b146105175780638e0cc1761461051f57806391371ffb1461055b578063957aa58c1461059d57610269565b80634cd4423d1461041b5780634e0cd7991461045b57806358ada5261461046357806361d027b314610499578063715018a6146104a157610269565b80632f2ea5de116102315780632f2ea5de14610392578063354d9fe0146103bb57806336569e77146103e7578063459e414f1461040b5780634ba2363a1461041357610269565b8063028f7d551461026e5780630c6a595a146102a65780630d4c43be146102c05780631a28ff051461030557806325d3cd1714610350575b600080fd5b6102a46004803603604081101561028457600080fd5b5080356001600160a01b031690602001356001600160e01b0319166108f2565b005b6102ae6109c1565b60408051918252519081900360200190f35b6102ec600480360360408110156102d657600080fd5b50803590602001356001600160a01b03166109c7565b6040805192835260208301919091528051918290030190f35b6102a4600480360360c081101561031b57600080fd5b506001600160a01b03813581169160208101359091169060408101359060ff6060820135169060808101359060a00135610c0c565b6102a4600480360360a081101561036657600080fd5b508035906020810135906001600160a01b03604082013581169160608101359091169060800135610e2f565b6102ae600480360360608110156103a857600080fd5b5080359060208101359060400135611071565b6102ae600480360360408110156103d157600080fd5b50803590602001356001600160a01b0316611235565b6103ef6113e7565b604080516001600160a01b039092168252519081900360200190f35b6102ae6113f6565b6103ef61141a565b6104476004803603604081101561043157600080fd5b50803590602001356001600160a01b0316611429565b604080519115158252519081900360200190f35b6102ae611466565b6104476004803603604081101561047957600080fd5b5080356001600160a01b031690602001356001600160e01b031916611471565b6103ef611491565b6102a46114a0565b610447600480360360408110156104bf57600080fd5b50803590602001356001600160a01b0316611542565b6102a4600480360360a08110156104eb57600080fd5b508035906020810135906001600160a01b03604082013581169160608101359091169060800135611561565b6103ef611892565b6102a46004803603608081101561053557600080fd5b508035906001600160a01b036020820135811691604081013590911690606001356118a1565b6102a4600480360360a081101561057157600080fd5b508035906020810135906001600160a01b03604082013581169160608101359091169060800135611c35565b610447611e89565b6102ae600480360360608110156105bb57600080fd5b50803590602081013590604001356001600160a01b0316611e92565b6102ae611eb5565b6102ae611ec5565b6102a4600480360360808110156105fd57600080fd5b508035906001600160a01b03602082013581169160408101359091169060600135611ed1565b6102ae6004803603602081101561063957600080fd5b50356001600160a01b0316612209565b6102ae61221b565b6102ae6004803603604081101561066757600080fd5b50803590602001356001600160a01b0316612226565b6102ae6123de565b6102ae6004803603606081101561069b57600080fd5b50803590602081013590604001356001600160a01b0316612402565b610447600480360360208110156106cd57600080fd5b5035612442565b6103ef600480360360208110156106ea57600080fd5b503561245f565b6102ae6004803603602081101561070757600080fd5b503561247a565b6102ae6004803603604081101561072457600080fd5b50803590602001356001600160a01b0316612498565b6102ae6004803603604081101561075057600080fd5b50803590602001356001600160a01b03166124b5565b6102a46004803603602081101561077c57600080fd5b50356001600160a01b03166125ae565b6102a4600480360360408110156107a257600080fd5b6001600160a01b0382351691908101906040810160208201356401000000008111156107cd57600080fd5b8201836020820111156107df57600080fd5b8035906020019184602083028401116401000000008311171561080157600080fd5b9190808060200260200160405190810160405280939291908181526020018383602002808284376000920191909152509295506125bb945050505050565b6102ae612649565b6102ae6004803603606081101561085d57600080fd5b5080359060208101359060400135612650565b6102a46004803603602081101561088657600080fd5b50356001600160a01b03166127f4565b610447600480360360408110156108ac57600080fd5b506001600160a01b03813581169160200135166128ec565b6102a4600480360360208110156108da57600080fd5b50356001600160a01b031661290c565b6102a4612916565b6108fa6129ee565b6000546001600160a01b0390811691161461094a576040805162461bcd60e51b8152602060048201819052602482015260008051602061304e833981519152604482015290519081900360640190fd5b6001600160a01b03821660008181526001602081815260408084206001600160e01b0319871680865290835293819020805460ff1916909317909255815193845283019190915280517f80e6a982b9aa622283c64c5ba322fc345fe769ac330a174f3254e52926e5fcf89281900390910190a15050565b60085490565b60008083644554482d4160d81b8114806109e75750634348414960e01b81145b610a225760405162461bcd60e51b8152600401808060200182810382526023815260200180612f9d6023913960400191505060405180910390fd5b604080518082018252601a81527f436f6e74726f6c6c65723a204e6f7420417574686f72697a6564000000000000602080830191909152336000908152600182528381206001600160e01b031982351682529091529190912054819060ff16610b095760405162461bcd60e51b81526004018080602001828103825283818151815260200191508051906020019080838360005b83811015610ace578181015183820152602001610ab6565b50505050905090810190601f168015610afb5780820380516001836020036101000a031916815260200191505b509250505060405180910390fd5b5060008681526009602090815260408083206001600160a01b03891684528252808320805490849055600880548351818602810186019094528084529194936060939290830182828015610b7c57602002820191906000526020600020905b815481526020019060010190808311610b68575b50939450600093505050505b8151811015610bfd576000828281518110610b9f57fe5b60200260200101519050610bc4610bb78c838d612402565b859063ffffffff6129f216565b60008c8152600a602090815260408083209483529381528382206001600160a01b038e1683529052918220919091559250600101610b88565b50919890975095505050505050565b42841015610c61576040805162461bcd60e51b815260206004820152601c60248201527f44656c656761626c653a205369676e6174757265206578706972656400000000604482015290519081900360640190fd5b6001600160a01b0380871660008181526002602090815260408083208054600180820190925582517f00000000000000000000000000000000000000000000000000000000000000008186015280840196909652958b166060860152608085019590955260a08085018a90528151808603909101815260c08501825280519083012061190160f01b60e08601527f000000000000000000000000000000000000000000000000000000000000000060e286015261010280860182905282518087039091018152610122860180845281519185019190912090859052610142860180845281905260ff8a1661016287015261018286018990526101a2860188905291519095919491926101c2808401939192601f1981019281900390910190855afa158015610d93573d6000803e3d6000fd5b5050604051601f1901519150506001600160a01b03811615801590610dc95750886001600160a01b0316816001600160a01b0316145b610e1a576040805162461bcd60e51b815260206004820152601c60248201527f44656c656761626c653a20496e76616c6964207369676e617475726500000000604482015290519081900360640190fd5b610e248989612a53565b505050505050505050565b84644554482d4160d81b811480610e4c5750634348414960e01b81145b610e875760405162461bcd60e51b8152600401808060200182810382526023815260200180612f9d6023913960400191505060405180910390fd5b84610e9181612442565b610ee2576040805162461bcd60e51b815260206004820152601f60248201527f436f6e74726f6c6c65723a20556e7265636f676e697a65642073657269657300604482015290519081900360640190fd5b84604051806060016040528060238152602001612fc060239139336001600160a01b0383161480610f3657506001600160a01b038216600090815260036020908152604080832033845290915290205460ff165b8190610f835760405162461bcd60e51b8152602060048201818152835160248401528351909283926044909101919085019080838360008315610ace578181015183820152602001610ab6565b50600b5460ff161515600114610fca5760405162461bcd60e51b8152600401808060200182810382526027815260200180612fe36027913960400191505060405180910390fd5b6000610fe086610fdb8c8c8b612402565b612b3a565b6006546040805163f939199160e01b81526001600160a01b038c8116600483015260248201859052915193945091169163f93919919160448082019260009290919082900301818387803b15801561103757600080fd5b505af115801561104b573d6000803e3d6000fd5b505050506110658a8a896110608e8e87612650565b612b50565b50505050505050505050565b600083644554482d4160d81b8114806110905750634348414960e01b81145b6110cb5760405162461bcd60e51b8152600401808060200182810382526023815260200180612f9d6023913960400191505060405180910390fd5b60008481526007602090815260409182902054825163ae4e7fdf60e01b815292516001600160a01b0390911692839263ae4e7fdf92600480840193829003018186803b15801561111a57600080fd5b505afa15801561112e573d6000803e3d6000fd5b505050506040513d602081101561114457600080fd5b50511561122257644554482d4160d81b8614156111d1576111c984826001600160a01b031663abf1614b6040518163ffffffff1660e01b815260040160206040518083038186803b15801561119857600080fd5b505afa1580156111ac573d6000803e3d6000fd5b505050506040513d60208110156111c257600080fd5b5051612c02565b92505061122d565b634348414960e01b86141561121d576111c984826001600160a01b031663cb2401986040518163ffffffff1660e01b815260040160206040518083038186803b15801561119857600080fd5b61122b565b8392505061122d565b505b509392505050565b600082644554482d4160d81b8114806112545750634348414960e01b81145b61128f5760405162461bcd60e51b8152600401808060200182810382526023815260200180612f9d6023913960400191505060405180910390fd5b644554482d4160d81b841415611342576004805460408051636cb1c69b60e11b8152644554482d4160d81b93810193909352516000926001600160a01b039092169163d9638d369160248083019260a0929190829003018186803b1580156112f657600080fd5b505afa15801561130a573d6000803e3d6000fd5b505050506040513d60a081101561132057600080fd5b5060400151905061133a61133486866124b5565b82612c30565b9250506113e0565b634348414960e01b8414156113e0576113dd61135e85856124b5565b600560009054906101000a90046001600160a01b03166001600160a01b031663c92aecc46040518163ffffffff1660e01b815260040160206040518083038186803b1580156113ac57600080fd5b505afa1580156113c0573d6000803e3d6000fd5b505050506040513d60208110156113d657600080fd5b5051612c30565b91505b5092915050565b6004546001600160a01b031681565b7f000000000000000000000000000000000000000000000000000000000000000081565b6005546001600160a01b031681565b60008281526009602090815260408083206001600160a01b03851684529091528120548015806113dd575066b1a2bc2ec500001090505b92915050565b66b1a2bc2ec5000081565b600160209081526000928352604080842090915290825290205460ff1681565b6006546001600160a01b031681565b6114a86129ee565b6000546001600160a01b039081169116146114f8576040805162461bcd60e51b8152602060048201819052602482015260008051602061304e833981519152604482015290519081900360640190fd5b600080546040516001600160a01b03909116907f8be0079c531659141344cd1fd0a4f28419497f9722a3daafe3b4186f6b6457e0908390a3600080546001600160a01b0319169055565b600061154e83836124b5565b6115588484612226565b10159392505050565b84644554482d4160d81b81148061157e5750634348414960e01b81145b6115b95760405162461bcd60e51b8152600401808060200182810382526023815260200180612f9d6023913960400191505060405180910390fd5b846115c381612442565b611614576040805162461bcd60e51b815260206004820152601f60248201527f436f6e74726f6c6c65723a20556e7265636f676e697a65642073657269657300604482015290519081900360640190fd5b84604051806060016040528060238152602001612fc060239139336001600160a01b038316148061166857506001600160a01b038216600090815260036020908152604080832033845290915290205460ff165b81906116b55760405162461bcd60e51b8152602060048201818152835160248401528351909283926044909101919085019080838360008315610ace578181015183820152602001610ab6565b50600b5460ff1615156001146116fc5760405162461bcd60e51b8152600401808060200182810382526027815260200180612fe36027913960400191505060405180910390fd5b6000888152600760209081526040808320548c8452600a83528184208c855283528184206001600160a01b038c811686529352922054911690611745908763ffffffff6129f216565b60008b8152600a602090815260408083208d845282528083206001600160a01b038d16845290915290205561177a8a89611542565b6117c7576040805162461bcd60e51b815260206004820152601960248201527810dbdb9d1c9bdb1b195c8e88151bdbc81b5d58da081919589d603a1b604482015290519081900360640190fd5b806001600160a01b03166340c10f1988886040518363ffffffff1660e01b815260040180836001600160a01b03166001600160a01b0316815260200182815260200192505050600060405180830381600087803b15801561182757600080fd5b505af115801561183b573d6000803e3d6000fd5b50505050876001600160a01b0316898b7f3dc0ed286b1afbc2228a1e7f81fc3f66aa9f423dca0c6a283eafa53e93adefbe6118758a612c78565b60408051918252519081900360200190a450505050505050505050565b6000546001600160a01b031690565b83644554482d4160d81b8114806118be5750634348414960e01b81145b6118f95760405162461bcd60e51b8152600401808060200182810382526023815260200180612f9d6023913960400191505060405180910390fd5b83604051806060016040528060238152602001612fc060239139336001600160a01b038316148061194d57506001600160a01b038216600090815260036020908152604080832033845290915290205460ff165b819061199a5760405162461bcd60e51b8152602060048201818152835160248401528351909283926044909101919085019080838360008315610ace578181015183820152602001610ab6565b50600b5460ff1615156001146119e15760405162461bcd60e51b8152600401808060200182810382526027815260200180612fe36027913960400191505060405180910390fd5b60008781526009602090815260408083206001600160a01b038a168452909152902054611a14908563ffffffff612cda16565b60008881526009602090815260408083206001600160a01b038b168452909152902055611a418787611542565b611a8e576040805162461bcd60e51b815260206004820152601960248201527810dbdb9d1c9bdb1b195c8e88151bdbc81b5d58da081919589d603a1b604482015290519081900360640190fd5b644554482d4160d81b871415611b6457611aa88787611429565b611af2576040805162461bcd60e51b815260206004820152601660248201527510dbdb9d1c9bdb1b195c8e8810995b1bddc8191d5cdd60521b604482015290519081900360640190fd5b600654604080516322b25b7f60e21b81526001600160a01b0388811660048301526024820188905291519190921691638ac96dfc91604480830192600092919082900301818387803b158015611b4757600080fd5b505af1158015611b5b573d6000803e3d6000fd5b50505050611be1565b634348414960e01b871415611be15760065460408051639fa8368960e01b81526001600160a01b0388811660048301526024820188905291519190921691639fa8368991604480830192600092919082900301818387803b158015611bc857600080fd5b505af1158015611bdc573d6000803e3d6000fd5b505050505b856001600160a01b0316877fce1994727cf164e30801f140b3019e0d4862d430438ab41de1144b5db719c583611c1687612c78565b604080516000929092038252519081900360200190a350505050505050565b84644554482d4160d81b811480611c525750634348414960e01b81145b611c8d5760405162461bcd60e51b8152600401808060200182810382526023815260200180612f9d6023913960400191505060405180910390fd5b84611c9781612442565b611ce8576040805162461bcd60e51b815260206004820152601f60248201527f436f6e74726f6c6c65723a20556e7265636f676e697a65642073657269657300604482015290519081900360640190fd5b84604051806060016040528060238152602001612fc060239139336001600160a01b0383161480611d3c57506001600160a01b038216600090815260036020908152604080832033845290915290205460ff165b8190611d895760405162461bcd60e51b8152602060048201818152835160248401528351909283926044909101919085019080838360008315610ace578181015183820152602001610ab6565b50600b5460ff161515600114611dd05760405162461bcd60e51b8152600401808060200182810382526027815260200180612fe36027913960400191505060405180910390fd5b6000898152600a602090815260408083208b845282528083206001600160a01b038a168452909152812054611e06908790612b3a565b60008a815260076020526040808220548151632770a7eb60e21b81526001600160a01b038d81166004830152602482018690529251949550911692639dc29fac9260448084019391929182900301818387803b158015611e6557600080fd5b505af1158015611e79573d6000803e3d6000fd5b505050506110658a8a8984612b50565b600b5460ff1681565b600a60209081526000938452604080852082529284528284209052825290205481565b6b033b2e3c9fd0803ce800000081565b644554482d4160d81b81565b83644554482d4160d81b811480611eee5750634348414960e01b81145b611f295760405162461bcd60e51b8152600401808060200182810382526023815260200180612f9d6023913960400191505060405180910390fd5b83604051806060016040528060238152602001612fc060239139336001600160a01b0383161480611f7d57506001600160a01b038216600090815260036020908152604080832033845290915290205460ff165b8190611fca5760405162461bcd60e51b8152602060048201818152835160248401528351909283926044909101919085019080838360008315610ace578181015183820152602001610ab6565b50600b5460ff1615156001146120115760405162461bcd60e51b8152600401808060200182810382526027815260200180612fe36027913960400191505060405180910390fd5b60008781526009602090815260408083206001600160a01b0389168452909152902054612044908563ffffffff6129f216565b60008881526009602090815260408083206001600160a01b038a168452909152902055644554482d4160d81b87141561213d576120818786611429565b6120cb576040805162461bcd60e51b815260206004820152601660248201527510dbdb9d1c9bdb1b195c8e8810995b1bddc8191d5cdd60521b604482015290519081900360640190fd5b6006546040805163134b55ef60e31b81526001600160a01b0389811660048301526024820188905291519190921691639a5aaf7891604480830192600092919082900301818387803b15801561212057600080fd5b505af1158015612134573d6000803e3d6000fd5b505050506121ba565b634348414960e01b8714156121ba5760065460408051631997c36160e01b81526001600160a01b0389811660048301526024820188905291519190921691631997c36191604480830192600092919082900301818387803b1580156121a157600080fd5b505af11580156121b5573d6000803e3d6000fd5b505050505b846001600160a01b0316877fce1994727cf164e30801f140b3019e0d4862d430438ab41de1144b5db719c5836121ef87612c78565b60408051918252519081900360200190a350505050505050565b60026020526000908152604090205481565b634348414960e01b81565b6000644554482d4160d81b8314156122f7576004805460408051636cb1c69b60e11b8152644554482d4160d81b93810193909352516000926001600160a01b039092169163d9638d369160248083019260a0929190829003018186803b15801561228f57600080fd5b505afa1580156122a3573d6000803e3d6000fd5b505050506040513d60a08110156122b957600080fd5b506040908101516000868152600960209081528382206001600160a01b0388168352905291909120549091506122ef9082612c02565b915050611460565b634348414960e01b8314156123a7576005546040805163324abb3160e21b815290516000926001600160a01b03169163c92aecc4916004808301926020929190829003018186803b15801561234b57600080fd5b505afa15801561235f573d6000803e3d6000fd5b505050506040513d602081101561237557600080fd5b505160008581526009602090815260408083206001600160a01b03881684529091529020549091506122ef9082612c02565b60405162461bcd60e51b815260040180806020018281038252602381526020018061300a6023913960400191505060405180910390fd5b7f000000000000000000000000000000000000000000000000000000000000000081565b6000838152600a6020908152604080832085845282528083206001600160a01b038516845290915281205461243a9085908590611071565b949350505050565b6000908152600760205260409020546001600160a01b0316151590565b6007602052600090815260409020546001600160a01b031681565b6008818154811061248757fe5b600091825260209091200154905081565b600960209081526000928352604080842090915290825290205481565b6000806060600880548060200260200160405190810160405280929190818152602001828054801561250657602002820191906000526020600020905b8154815260200190600101908083116124f2575b50939450600093505050505b81518110156125a4576000868152600a602052604081208351829085908590811061253957fe5b602002602001015181526020019081526020016000206000876001600160a01b03166001600160a01b0316815260200190815260200160002054111561259c576125978683838151811061258957fe5b602002602001015187612402565b830192505b600101612512565b5090949350505050565b6125b83382612a53565b50565b6125c36129ee565b6000546001600160a01b03908116911614612613576040805162461bcd60e51b8152602060048201819052602482015260008051602061304e833981519152604482015290519081900360640190fd5b60005b81518110156126445761263c8383838151811061262f57fe5b60200260200101516108f2565b600101612616565b505050565b6276a70081565b600083644554482d4160d81b81148061266f5750634348414960e01b81145b6126aa5760405162461bcd60e51b8152600401808060200182810382526023815260200180612f9d6023913960400191505060405180910390fd5b60008481526007602090815260409182902054825163ae4e7fdf60e01b815292516001600160a01b0390911692839263ae4e7fdf92600480840193829003018186803b1580156126f957600080fd5b505afa15801561270d573d6000803e3d6000fd5b505050506040513d602081101561272357600080fd5b50511561122257644554482d4160d81b8614156127a8576111c984826001600160a01b031663abf1614b6040518163ffffffff1660e01b815260040160206040518083038186803b15801561277757600080fd5b505afa15801561278b573d6000803e3d6000fd5b505050506040513d60208110156127a157600080fd5b5051612d1c565b634348414960e01b86141561121d576111c984826001600160a01b031663cb2401986040518163ffffffff1660e01b815260040160206040518083038186803b15801561277757600080fd5b6127fc6129ee565b6000546001600160a01b0390811691161461284c576040805162461bcd60e51b8152602060048201819052602482015260008051602061304e833981519152604482015290519081900360640190fd5b6001600160a01b0381166128915760405162461bcd60e51b8152600401808060200182810382526026815260200180612f776026913960400191505060405180910390fd5b600080546040516001600160a01b03808516939216917f8be0079c531659141344cd1fd0a4f28419497f9722a3daafe3b4186f6b6457e091a3600080546001600160a01b0319166001600160a01b0392909216919091179055565b600360209081526000928352604080842090915290825290205460ff1681565b6125b83382612d3e565b600660009054906101000a90046001600160a01b03166001600160a01b031663957aa58c6040518163ffffffff1660e01b815260040160206040518083038186803b15801561296457600080fd5b505afa158015612978573d6000803e3d6000fd5b505050506040513d602081101561298e57600080fd5b5051156129e2576040805162461bcd60e51b815260206004820152601c60248201527f436f6e74726f6c6c65723a205472656173757279206973206c69766500000000604482015290519081900360640190fd5b600b805460ff19169055565b3390565b600082820183811015612a4c576040805162461bcd60e51b815260206004820152601b60248201527f536166654d6174683a206164646974696f6e206f766572666c6f770000000000604482015290519081900360640190fd5b9392505050565b6001600160a01b0380831660009081526003602090815260408083209385168352929052205460ff1615612ace576040805162461bcd60e51b815260206004820152601c60248201527f44656c656761626c653a20416c72656164792064656c65676174656400000000604482015290519081900360640190fd5b6001600160a01b03808316600081815260036020908152604080832094861680845294825291829020805460ff19166001908117909155825190815291517f045b0fef01772d2fbba53dbd38c9777806eac0865b00af43abcfbcaf50da92069281900390910190a35050565b6000818310612b495781612a4c565b5090919050565b6000848152600a6020908152604080832086845282528083206001600160a01b0386168452909152902054612b8b908263ffffffff612cda16565b6000858152600a6020908152604080832087845282528083206001600160a01b03871680855292529091209190915583857f3dc0ed286b1afbc2228a1e7f81fc3f66aa9f423dca0c6a283eafa53e93adefbe612be685612c78565b604080516000929092038252519081900360200190a450505050565b6000612a4c6b033b2e3c9fd0803ce8000000612c24858563ffffffff612e1c16565b9063ffffffff612e7516565b600080612c5383612c24866b204fce5e3e2502611000000063ffffffff612e1c16565b9050600a810615612c6d57600a8104600101915050611460565b600a90049050611460565b60006001600160ff1b03821115612cd6576040805162461bcd60e51b815260206004820152601960248201527f436f6e74726f6c6c65723a2043617374206f766572666c6f7700000000000000604482015290519081900360640190fd5b5090565b6000612a4c83836040518060400160405280601e81526020017f536166654d6174683a207375627472616374696f6e206f766572666c6f770000815250612eb7565b6000612a4c82612c24856b033b2e3c9fd0803ce800000063ffffffff612e1c16565b6001600160a01b0380831660009081526003602090815260408083209385168352929052205460ff16612db8576040805162461bcd60e51b815260206004820152601e60248201527f44656c656761626c653a20416c726561647920756e64656c6567617465640000604482015290519081900360640190fd5b6001600160a01b038083166000818152600360209081526040808320948616808452948252808320805460ff191690558051928352517f045b0fef01772d2fbba53dbd38c9777806eac0865b00af43abcfbcaf50da92069281900390910190a35050565b600082612e2b57506000611460565b82820282848281612e3857fe5b0414612a4c5760405162461bcd60e51b815260040180806020018281038252602181526020018061302d6021913960400191505060405180910390fd5b6000612a4c83836040518060400160405280601a81526020017f536166654d6174683a206469766973696f6e206279207a65726f000000000000815250612f11565b60008184841115612f095760405162461bcd60e51b8152602060048201818152835160248401528351909283926044909101919085019080838360008315610ace578181015183820152602001610ab6565b505050900390565b60008183612f605760405162461bcd60e51b8152602060048201818152835160248401528351909283926044909101919085019080838360008315610ace578181015183820152602001610ab6565b506000838581612f6c57fe5b049594505050505056fe4f776e61626c653a206e6577206f776e657220697320746865207a65726f2061646472657373436f6e74726f6c6c65723a20556e7265636f676e697a656420636f6c6c61746572616c436f6e74726f6c6c65723a204f6e6c7920486f6c646572204f722044656c6567617465436f6e74726f6c6c65723a204e6f7420617661696c61626c6520647572696e6720756e77696e64436f6e74726f6c6c65723a20496e76616c696420636f6c6c61746572616c2074797065536166654d6174683a206d756c7469706c69636174696f6e206f766572666c6f774f776e61626c653a2063616c6c6572206973206e6f7420746865206f776e6572a2646970667358221220d826ca5e5809dbd533a865bf69b35ef6f40351e7d3783abab3cf974d544543b764736f6c634300060a0033454950373132446f6d61696e28737472696e67206e616d652c737472696e672076657273696f6e2c75696e7432353620636861696e49642c6164647265737320766572696679696e67436f6e747261637429",
  "immutableReferences": {
    "9874": [
      {
        "length": 32,
        "start": 3211
      },
      {
        "length": 32,
        "start": 9184
      }
    ],
    "9876": [
      {
        "length": 32,
        "start": 3312
      },
      {
        "length": 32,
        "start": 5112
      }
    ]
  },
  "source": "// SPDX-License-Identifier: GPL-3.0-or-later\npragma solidity ^0.6.10;\n\nimport \"@openzeppelin/contracts/math/Math.sol\";\nimport \"@openzeppelin/contracts/math/SafeMath.sol\";\nimport \"./interfaces/IVat.sol\";\nimport \"./interfaces/IPot.sol\";\nimport \"./interfaces/ITreasury.sol\";\nimport \"./interfaces/IController.sol\";\nimport \"./interfaces/IYDai.sol\";\nimport \"./helpers/Delegable.sol\";\nimport \"./helpers/DecimalMath.sol\";\nimport \"./helpers/Orchestrated.sol\";\n\n\n/**\n * @dev The Controller manages collateral and debt levels for all users, and it is a major user entry point for the Yield protocol.\n * Controller keeps track of a number of yDai contracts.\n * Controller allows users to post and withdraw Chai and Weth collateral.\n * Any transactions resulting in a user weth collateral below dust are reverted.\n * Controller allows users to borrow yDai against their Chai and Weth collateral.\n * Controller allows users to repay their yDai debt with yDai or with Dai.\n * Controller integrates with yDai contracts for minting yDai on borrowing, and burning yDai on repaying debt with yDai.\n * Controller relies on Treasury for all other asset transfers.\n * Controller allows orchestrated contracts to erase any amount of debt or collateral for an user. This is to be used during liquidations or during unwind.\n * Users can delegate the control of their accounts in Controllers to any address.\n */\ncontract Controller is IController, Orchestrated(), Delegable(), DecimalMath {\n    using SafeMath for uint256;\n\n    event Posted(bytes32 indexed collateral, address indexed user, int256 amount);\n    event Borrowed(bytes32 indexed collateral, uint256 indexed maturity, address indexed user, int256 amount);\n\n    bytes32 public constant CHAI = \"CHAI\";\n    bytes32 public constant WETH = \"ETH-A\";\n    uint256 public constant DUST = 50e15; // 0.05 ETH\n    uint256 public constant THREE_MONTHS = 7776000;\n\n    IVat public vat;\n    IPot public pot;\n    ITreasury public override treasury;\n\n    mapping(uint256 => IYDai) public override series;                 // YDai series, indexed by maturity\n    uint256[] public override seriesIterator;                         // We need to know all the series\n\n    mapping(bytes32 => mapping(address => uint256)) public override posted;                        // Collateral posted by each user\n    mapping(bytes32 => mapping(uint256 => mapping(address => uint256))) public override debtYDai;  // Debt owed by each user, by series\n\n    bool public live = true;\n\n    /// @dev Set up addresses for vat, pot and Treasury.\n    constructor (\n        address treasury_,\n        address[] memory yDais\n\n    ) public {\n        treasury = ITreasury(treasury_);\n        vat = treasury.vat();\n        pot = treasury.pot();\n        for (uint256 i = 0; i < yDais.length; i += 1) {\n            addSeries(yDais[i]);\n        }\n    }\n\n    /// @dev Modified functions only callable while the Controller is not unwinding due to a MakerDAO shutdown.\n    modifier onlyLive() {\n        require(live == true, \"Controller: Not available during unwind\");\n        _;\n    }\n\n    /// @dev Only valid collateral types are Weth and Chai.\n    modifier validCollateral(bytes32 collateral) {\n        require(\n            collateral == WETH || collateral == CHAI,\n            \"Controller: Unrecognized collateral\"\n        );\n        _;\n    }\n\n    /// @dev Only series added through `addSeries` are valid.\n    modifier validSeries(uint256 maturity) {\n        require(\n            containsSeries(maturity),\n            \"Controller: Unrecognized series\"\n        );\n        _;\n    }\n\n    /// @dev Safe casting from uint256 to int256\n    function toInt256(uint256 x) internal pure returns(int256) {\n        require(\n            x <= uint256(type(int256).max),\n            \"Controller: Cast overflow\"\n        );\n        return int256(x);\n    }\n\n    /// @dev Disables post, withdraw, borrow and repay. To be called only when Treasury shuts down.\n    function shutdown() public override {\n        require(\n            treasury.live() == false,\n            \"Controller: Treasury is live\"\n        );\n        live = false;\n    }\n\n    /// @dev Return if the borrowing power for a given collateral of a user is equal or greater\n    /// than its debt for the same collateral\n    /// @param collateral Valid collateral type\n    /// @param user Address of the user vault\n    function isCollateralized(bytes32 collateral, address user) public view override returns (bool) {\n        return powerOf(collateral, user) >= totalDebtDai(collateral, user);\n    }\n\n    /// @dev Return if the collateral of an user is between zero and the dust level\n    /// @param collateral Valid collateral type\n    /// @param user Address of the user vault\n    function aboveDustOrZero(bytes32 collateral, address user) public view returns (bool) {\n        uint256 postedCollateral = posted[collateral][user];\n        return postedCollateral == 0 || DUST < postedCollateral;\n    }\n\n    /// @dev Return the total number of series registered\n    function totalSeries() public view override returns (uint256) {\n        return seriesIterator.length;\n    }\n\n    /// @dev Returns if a series has been added to the Controller.\n    /// @param maturity Maturity of the series to verify.\n    function containsSeries(uint256 maturity) public view override returns (bool) {\n        return address(series[maturity]) != address(0);\n    }\n\n    /// @dev Adds an yDai series to this Controller\n    /// After deployment, ownership should be renounced, so that no more series can be added.\n    /// @param yDaiContract Address of the yDai series to add.\n    function addSeries(address yDaiContract) private {\n        uint256 maturity = IYDai(yDaiContract).maturity();\n        require(\n            !containsSeries(maturity),\n            \"Controller: Series already added\"\n        );\n        series[maturity] = IYDai(yDaiContract);\n        seriesIterator.push(maturity);\n    }\n\n    /// @dev Dai equivalent of a yDai amount.\n    /// After maturity, the Dai value of a yDai grows according to either the stability fee (for WETH collateral) or the Dai Saving Rate (for Chai collateral).\n    /// @param collateral Valid collateral type\n    /// @param maturity Maturity of an added series\n    /// @param yDaiAmount Amount of yDai to convert.\n    /// @return Dai equivalent of an yDai amount.\n    function inDai(bytes32 collateral, uint256 maturity, uint256 yDaiAmount)\n        public view override\n        validCollateral(collateral)\n        returns (uint256)\n    {\n        IYDai yDai = series[maturity];\n        if (yDai.isMature()){\n            if (collateral == WETH){\n                return muld(yDaiAmount, yDai.rateGrowth());\n            } else if (collateral == CHAI) {\n                return muld(yDaiAmount, yDai.chiGrowth());\n            }\n        } else {\n            return yDaiAmount;\n        }\n    }\n\n    /// @dev yDai equivalent of a Dai amount.\n    /// After maturity, the yDai value of a Dai decreases according to either the stability fee (for WETH collateral) or the Dai Saving Rate (for Chai collateral).\n    /// @param collateral Valid collateral type\n    /// @param maturity Maturity of an added series\n    /// @param daiAmount Amount of Dai to convert.\n    /// @return yDai equivalent of a Dai amount.\n    function inYDai(bytes32 collateral, uint256 maturity, uint256 daiAmount)\n        public view override\n        validCollateral(collateral)\n        returns (uint256)\n    {\n        IYDai yDai = series[maturity];\n        if (yDai.isMature()){\n            if (collateral == WETH){\n                return divd(daiAmount, yDai.rateGrowth());\n            } else if (collateral == CHAI) {\n                return divd(daiAmount, yDai.chiGrowth());\n            }\n        } else {\n            return daiAmount;\n        }\n    }\n\n    /// @dev Debt in dai of an user\n    /// After maturity, the Dai debt of a position grows according to either the stability fee (for WETH collateral) or the Dai Saving Rate (for Chai collateral).\n    /// @param collateral Valid collateral type\n    /// @param maturity Maturity of an added series\n    /// @param user Address of the user vault\n    /// @return Debt in dai of an user\n    //\n    //                        rate_now\n    // debt_now = debt_mat * ----------\n    //                        rate_mat\n    //\n    function debtDai(bytes32 collateral, uint256 maturity, address user) public view override returns (uint256) {\n        return inDai(collateral, maturity, debtYDai[collateral][maturity][user]);\n    }\n\n    /// @dev Total debt of an user across all series, in Dai\n    /// The debt is summed across all series, taking into account interest on the debt after a series matures.\n    /// This function loops through all maturities, limiting the contract to hundreds of maturities.\n    /// @param collateral Valid collateral type\n    /// @param user Address of the user vault\n    /// @return Total debt of an user across all series, in Dai\n    function totalDebtDai(bytes32 collateral, address user) public view override returns (uint256) {\n        uint256 totalDebt;\n        uint256[] memory _seriesIterator = seriesIterator;\n        for (uint256 i = 0; i < _seriesIterator.length; i += 1) {\n            if (debtYDai[collateral][_seriesIterator[i]][user] > 0) {\n                totalDebt = totalDebt + debtDai(collateral, _seriesIterator[i], user);\n            }\n        } // We don't expect hundreds of maturities per controller\n        return totalDebt;\n    }\n\n    /// @dev Borrowing power (in dai) of a user for a specific series and collateral.\n    /// @param collateral Valid collateral type\n    /// @param user Address of the user vault\n    /// @return Borrowing power of an user in dai.\n    //\n    // powerOf[user](wad) = posted[user](wad) * price()(ray)\n    //\n    function powerOf(bytes32 collateral, address user) public view returns (uint256) {\n        // dai = price * collateral\n        if (collateral == WETH){\n            (,, uint256 spot,,) = vat.ilks(WETH);  // Stability fee and collateralization ratio for Weth\n            return muld(posted[collateral][user], spot);\n        } else if (collateral == CHAI) {\n            uint256 chi = pot.chi();\n            return muld(posted[collateral][user], chi);\n        } else {\n            revert(\"Controller: Invalid collateral type\");\n        }\n    }\n\n    /// @dev Returns the amount of collateral locked in borrowing operations.\n    /// @param collateral Valid collateral type.\n    /// @param user Address of the user vault.\n    function locked(bytes32 collateral, address user)\n        public view\n        validCollateral(collateral)\n        returns (uint256)\n    {\n        if (collateral == WETH){\n            (,, uint256 spot,,) = vat.ilks(WETH);  // Stability fee and collateralization ratio for Weth\n            return divdrup(totalDebtDai(collateral, user), spot);\n        } else if (collateral == CHAI) {\n            return divdrup(totalDebtDai(collateral, user), pot.chi());\n        }\n    }\n\n    /// @dev Takes collateral assets from `from` address, and credits them to `to` collateral account.\n    /// `from` can delegate to other addresses to take assets from him. Also needs to use `ERC20.approve`.\n    /// Calling ERC20.approve for Treasury contract is a prerequisite to this function\n    /// @param collateral Valid collateral type.\n    /// @param from Wallet to take collateral from.\n    /// @param to Yield vault to put the collateral in.\n    /// @param amount Amount of collateral to move.\n    // from --- Token ---> us(to)\n    function post(bytes32 collateral, address from, address to, uint256 amount)\n        public override \n        validCollateral(collateral)\n        onlyHolderOrDelegate(from, \"Controller: Only Holder Or Delegate\")\n        onlyLive\n    {\n        posted[collateral][to] = posted[collateral][to].add(amount);\n\n        if (collateral == WETH){\n            require(\n                aboveDustOrZero(collateral, to),\n                \"Controller: Below dust\"\n            );\n            treasury.pushWeth(from, amount);\n        } else if (collateral == CHAI) {\n            treasury.pushChai(from, amount);\n        }\n        \n        emit Posted(collateral, to, toInt256(amount));\n    }\n\n    /// @dev Returns collateral to `to` wallet, taking it from `from` Yield vault account.\n    /// `from` can delegate to other addresses to take assets from him.\n    /// @param collateral Valid collateral type.\n    /// @param from Yield vault to take collateral from.\n    /// @param to Wallet to put the collateral in.\n    /// @param amount Amount of collateral to move.\n    // us(from) --- Token ---> to\n    function withdraw(bytes32 collateral, address from, address to, uint256 amount)\n        public override\n        validCollateral(collateral)\n        onlyHolderOrDelegate(from, \"Controller: Only Holder Or Delegate\")\n        onlyLive\n    {\n        posted[collateral][from] = posted[collateral][from].sub(amount); // Will revert if not enough posted\n\n        require(\n            isCollateralized(collateral, from),\n            \"Controller: Too much debt\"\n        );\n\n        if (collateral == WETH){\n            require(\n                aboveDustOrZero(collateral, from),\n                \"Controller: Below dust\"\n            );\n            treasury.pullWeth(to, amount);\n        } else if (collateral == CHAI) {\n            treasury.pullChai(to, amount);\n        }\n\n        emit Posted(collateral, from, -toInt256(amount));\n    }\n\n    /// @dev Mint yDai for a given series for wallet `to` by increasing the user debt in Yield vault `from`\n    /// `from` can delegate to other addresses to borrow using his vault.\n    /// The collateral needed changes according to series maturity and MakerDAO rate and chi, depending on collateral type.\n    /// @param collateral Valid collateral type.\n    /// @param maturity Maturity of an added series\n    /// @param from Yield vault that gets an increased debt.\n    /// @param to Wallet to put the yDai in.\n    /// @param yDaiAmount Amount of yDai to borrow.\n    //\n    // posted[user](wad) >= (debtYDai[user](wad)) * amount (wad)) * collateralization (ray)\n    //\n    // us(from) --- yDai ---> to\n    // debt++\n    function borrow(bytes32 collateral, uint256 maturity, address from, address to, uint256 yDaiAmount)\n        public override\n        validCollateral(collateral)\n        validSeries(maturity)\n        onlyHolderOrDelegate(from, \"Controller: Only Holder Or Delegate\")\n        onlyLive\n    {\n        IYDai yDai = series[maturity];\n\n        debtYDai[collateral][maturity][from] = debtYDai[collateral][maturity][from].add(yDaiAmount);\n\n        require(\n            isCollateralized(collateral, from),\n            \"Controller: Too much debt\"\n        );\n\n        yDai.mint(to, yDaiAmount);\n        emit Borrowed(collateral, maturity, from, toInt256(yDaiAmount));\n    }\n\n    /// @dev Burns yDai from `from` wallet to repay debt in a Yield Vault.\n    /// User debt is decreased for the given collateral and yDai series, in Yield vault `to`.\n    /// `from` can delegate to other addresses to take yDai from him for the repayment.\n    /// @param collateral Valid collateral type.\n    /// @param maturity Maturity of an added series\n    /// @param from Wallet providing the yDai for repayment.\n    /// @param to Yield vault to repay debt for.\n    /// @param yDaiAmount Amount of yDai to use for debt repayment.\n    //\n    //                                                  debt_nominal\n    // debt_discounted = debt_nominal - repay_amount * ---------------\n    //                                                  debt_now\n    //\n    // user(from) --- yDai ---> us(to)\n    // debt--\n    function repayYDai(bytes32 collateral, uint256 maturity, address from, address to, uint256 yDaiAmount)\n        public override\n        validCollateral(collateral)\n        validSeries(maturity)\n        onlyHolderOrDelegate(from, \"Controller: Only Holder Or Delegate\")\n        onlyLive\n    {\n        uint256 toRepay = Math.min(yDaiAmount, debtYDai[collateral][maturity][to]);\n        series[maturity].burn(from, toRepay);\n        _repay(collateral, maturity, to, toRepay);\n    }\n\n    /// @dev Burns Dai from `from` wallet to repay debt in a Yield Vault.\n    /// User debt is decreased for the given collateral and yDai series, in Yield vault `to`.\n    /// The amount of debt repaid changes according to series maturity and MakerDAO rate and chi, depending on collateral type.\n    /// `from` can delegate to other addresses to take Dai from him for the repayment.\n    /// Calling ERC20.approve for Treasury contract is a prerequisite to this function\n    /// @param collateral Valid collateral type.\n    /// @param maturity Maturity of an added series\n    /// @param from Wallet providing the Dai for repayment.\n    /// @param to Yield vault to repay debt for.\n    /// @param daiAmount Amount of Dai to use for debt repayment.\n    //\n    //                                                  debt_nominal\n    // debt_discounted = debt_nominal - repay_amount * ---------------\n    //                                                  debt_now\n    //\n    // user --- dai ---> us\n    // debt--\n    function repayDai(bytes32 collateral, uint256 maturity, address from, address to, uint256 daiAmount)\n        public override\n        validCollateral(collateral)\n        validSeries(maturity)\n        onlyHolderOrDelegate(from, \"Controller: Only Holder Or Delegate\")\n        onlyLive\n    {\n        uint256 toRepay = Math.min(daiAmount, debtDai(collateral, maturity, to));\n        treasury.pushDai(from, toRepay);                                      // Have Treasury process the dai\n        _repay(collateral, maturity, to, inYDai(collateral, maturity, toRepay));\n    }\n\n    /// @dev Removes an amount of debt from an user's vault.\n    /// Internal function.\n    /// @param collateral Valid collateral type.\n    /// @param maturity Maturity of an added series\n    /// @param user Yield vault to repay debt for.\n    /// @param yDaiAmount Amount of yDai to use for debt repayment.\n\n    //\n    //                                                principal\n    // principal_repayment = gross_repayment * ----------------------\n    //                                          principal + interest\n    //    \n    function _repay(bytes32 collateral, uint256 maturity, address user, uint256 yDaiAmount) internal {\n        debtYDai[collateral][maturity][user] = debtYDai[collateral][maturity][user].sub(yDaiAmount);\n\n        emit Borrowed(collateral, maturity, user, -toInt256(yDaiAmount));\n    }\n\n    /// @dev Removes all collateral and debt for an user, for a given collateral type.\n    /// This function can only be called by other Yield contracts, not users directly.\n    /// @param collateral Valid collateral type.\n    /// @param user Address of the user vault\n    /// @return The amounts of collateral and debt removed from Controller.\n    function erase(bytes32 collateral, address user)\n        public override\n        validCollateral(collateral)\n        onlyOrchestrated(\"Controller: Not Authorized\")\n        returns (uint256, uint256)\n    {\n        uint256 userCollateral = posted[collateral][user];\n        delete posted[collateral][user];\n\n        uint256 userDebt;\n        uint256[] memory _seriesIterator = seriesIterator;\n        for (uint256 i = 0; i < _seriesIterator.length; i += 1) {\n            uint256 maturity = _seriesIterator[i];\n            userDebt = userDebt.add(debtDai(collateral, maturity, user)); // SafeMath shouldn't be needed\n            delete debtYDai[collateral][maturity][user];\n        } // We don't expect hundreds of maturities per controller\n\n        return (userCollateral, userDebt);\n    }\n}\n",
  "sourcePath": "/Users/brucedonovan/dev/yield/yDai/contracts/Controller.sol",
  "compiler": {
    "name": "solc",
    "version": "0.6.10+commit.00c0fcaf.Emscripten.clang"
  },
  "schemaVersion": "3.2.3",
  "updatedAt": "2020-09-08T15:13:43.068Z",
  "networkType": "ethereum",
  "devdoc": {
    "details": "The Controller manages collateral and debt levels for all users, and it is a major user entry point for the Yield protocol. Controller keeps track of a number of yDai contracts. Controller allows users to post and withdraw Chai and Weth collateral. Any transactions resulting in a user weth collateral below dust are reverted. Controller allows users to borrow yDai against their Chai and Weth collateral. Controller allows users to repay their yDai debt with yDai or with Dai. Controller integrates with yDai contracts for minting yDai on borrowing, and burning yDai on repaying debt with yDai. Controller relies on Treasury for all other asset transfers. Controller allows orchestrated contracts to erase any amount of debt or collateral for an user. This is to be used during liquidations or during unwind. Users can delegate the control of their accounts in Controllers to any address.",
    "methods": {
      "aboveDustOrZero(bytes32,address)": {
        "details": "Return if the collateral of an user is between zero and the dust level",
        "params": {
          "collateral": "Valid collateral type",
          "user": "Address of the user vault"
        }
      },
      "addDelegate(address)": {
        "details": "Enable a delegate to act on the behalf of caller"
      },
      "addDelegateBySignature(address,address,uint256,uint8,bytes32,bytes32)": {
        "details": "Add a delegate through an encoded signature"
      },
      "batchOrchestrate(address,bytes4[])": {
        "details": "Adds orchestration for the provided function signatures"
      },
      "borrow(bytes32,uint256,address,address,uint256)": {
        "details": "Mint yDai for a given series for wallet `to` by increasing the user debt in Yield vault `from` `from` can delegate to other addresses to borrow using his vault. The collateral needed changes according to series maturity and MakerDAO rate and chi, depending on collateral type.",
        "params": {
          "collateral": "Valid collateral type.",
          "from": "Yield vault that gets an increased debt.",
          "maturity": "Maturity of an added series",
          "to": "Wallet to put the yDai in.",
          "yDaiAmount": "Amount of yDai to borrow."
        }
      },
      "constructor": {
        "details": "Set up addresses for vat, pot and Treasury."
      },
      "containsSeries(uint256)": {
        "details": "Returns if a series has been added to the Controller.",
        "params": {
          "maturity": "Maturity of the series to verify."
        }
      },
      "debtDai(bytes32,uint256,address)": {
        "details": "Debt in dai of an user After maturity, the Dai debt of a position grows according to either the stability fee (for WETH collateral) or the Dai Saving Rate (for Chai collateral).",
        "params": {
          "collateral": "Valid collateral type",
          "maturity": "Maturity of an added series",
          "user": "Address of the user vault"
        },
        "returns": {
          "_0": "Debt in dai of an user"
        }
      },
      "erase(bytes32,address)": {
        "details": "Removes all collateral and debt for an user, for a given collateral type. This function can only be called by other Yield contracts, not users directly.",
        "params": {
          "collateral": "Valid collateral type.",
          "user": "Address of the user vault"
        },
        "returns": {
          "_0": "The amounts of collateral and debt removed from Controller."
        }
      },
      "inDai(bytes32,uint256,uint256)": {
        "details": "Dai equivalent of a yDai amount. After maturity, the Dai value of a yDai grows according to either the stability fee (for WETH collateral) or the Dai Saving Rate (for Chai collateral).",
        "params": {
          "collateral": "Valid collateral type",
          "maturity": "Maturity of an added series",
          "yDaiAmount": "Amount of yDai to convert."
        },
        "returns": {
          "_0": "Dai equivalent of an yDai amount."
        }
      },
      "inYDai(bytes32,uint256,uint256)": {
        "details": "yDai equivalent of a Dai amount. After maturity, the yDai value of a Dai decreases according to either the stability fee (for WETH collateral) or the Dai Saving Rate (for Chai collateral).",
        "params": {
          "collateral": "Valid collateral type",
          "daiAmount": "Amount of Dai to convert.",
          "maturity": "Maturity of an added series"
        },
        "returns": {
          "_0": "yDai equivalent of a Dai amount."
        }
      },
      "isCollateralized(bytes32,address)": {
        "details": "Return if the borrowing power for a given collateral of a user is equal or greater than its debt for the same collateral",
        "params": {
          "collateral": "Valid collateral type",
          "user": "Address of the user vault"
        }
      },
      "locked(bytes32,address)": {
        "details": "Returns the amount of collateral locked in borrowing operations.",
        "params": {
          "collateral": "Valid collateral type.",
          "user": "Address of the user vault."
        }
      },
      "orchestrate(address,bytes4)": {
        "details": "Add orchestration",
        "params": {
          "signature": "bytes4 signature of the function we are giving orchestrated access to. It seems to me a bad idea to give access to humans, and would use this only for predictable smart contracts.",
          "user": "Address of user or contract having access to this contract."
        }
      },
      "owner()": {
        "details": "Returns the address of the current owner."
      },
      "post(bytes32,address,address,uint256)": {
        "details": "Takes collateral assets from `from` address, and credits them to `to` collateral account. `from` can delegate to other addresses to take assets from him. Also needs to use `ERC20.approve`. Calling ERC20.approve for Treasury contract is a prerequisite to this function",
        "params": {
          "amount": "Amount of collateral to move.",
          "collateral": "Valid collateral type.",
          "from": "Wallet to take collateral from.",
          "to": "Yield vault to put the collateral in."
        }
      },
      "powerOf(bytes32,address)": {
        "details": "Borrowing power (in dai) of a user for a specific series and collateral.",
        "params": {
          "collateral": "Valid collateral type",
          "user": "Address of the user vault"
        },
        "returns": {
          "_0": "Borrowing power of an user in dai."
        }
      },
      "renounceOwnership()": {
        "details": "Leaves the contract without owner. It will not be possible to call `onlyOwner` functions anymore. Can only be called by the current owner. NOTE: Renouncing ownership will leave the contract without an owner, thereby removing any functionality that is only available to the owner."
      },
      "repayDai(bytes32,uint256,address,address,uint256)": {
        "details": "Burns Dai from `from` wallet to repay debt in a Yield Vault. User debt is decreased for the given collateral and yDai series, in Yield vault `to`. The amount of debt repaid changes according to series maturity and MakerDAO rate and chi, depending on collateral type. `from` can delegate to other addresses to take Dai from him for the repayment. Calling ERC20.approve for Treasury contract is a prerequisite to this function",
        "params": {
          "collateral": "Valid collateral type.",
          "daiAmount": "Amount of Dai to use for debt repayment.",
          "from": "Wallet providing the Dai for repayment.",
          "maturity": "Maturity of an added series",
          "to": "Yield vault to repay debt for."
        }
      },
      "repayYDai(bytes32,uint256,address,address,uint256)": {
        "details": "Burns yDai from `from` wallet to repay debt in a Yield Vault. User debt is decreased for the given collateral and yDai series, in Yield vault `to`. `from` can delegate to other addresses to take yDai from him for the repayment.",
        "params": {
          "collateral": "Valid collateral type.",
          "from": "Wallet providing the yDai for repayment.",
          "maturity": "Maturity of an added series",
          "to": "Yield vault to repay debt for.",
          "yDaiAmount": "Amount of yDai to use for debt repayment."
        }
      },
      "revokeDelegate(address)": {
        "details": "Stop a delegate from acting on the behalf of caller"
      },
      "shutdown()": {
        "details": "Disables post, withdraw, borrow and repay. To be called only when Treasury shuts down."
      },
      "totalDebtDai(bytes32,address)": {
        "details": "Total debt of an user across all series, in Dai The debt is summed across all series, taking into account interest on the debt after a series matures. This function loops through all maturities, limiting the contract to hundreds of maturities.",
        "params": {
          "collateral": "Valid collateral type",
          "user": "Address of the user vault"
        },
        "returns": {
          "_0": "Total debt of an user across all series, in Dai"
        }
      },
      "totalSeries()": {
        "details": "Return the total number of series registered"
      },
      "transferOwnership(address)": {
        "details": "Transfers ownership of the contract to a new account (`newOwner`). Can only be called by the current owner."
      },
      "withdraw(bytes32,address,address,uint256)": {
        "details": "Returns collateral to `to` wallet, taking it from `from` Yield vault account. `from` can delegate to other addresses to take assets from him.",
        "params": {
          "amount": "Amount of collateral to move.",
          "collateral": "Valid collateral type.",
          "from": "Yield vault to take collateral from.",
          "to": "Wallet to put the collateral in."
        }
      }
    }
  },
  "userdoc": {
    "methods": {}
  }
}