{
  "contractName": "ControllerView",
  "abi": [
    {
      "inputs": [
        {
          "internalType": "address",
          "name": "vat_",
          "type": "address"
        },
        {
          "internalType": "address",
          "name": "pot_",
          "type": "address"
        },
        {
          "internalType": "address",
          "name": "controller_",
          "type": "address"
        }
      ],
      "stateMutability": "nonpayable",
      "type": "constructor"
    },
    {
      "inputs": [],
      "name": "CHAI",
      "outputs": [
        {
          "internalType": "bytes32",
          "name": "",
          "type": "bytes32"
        }
      ],
      "stateMutability": "view",
      "type": "function",
      "constant": true
    },
    {
      "inputs": [],
      "name": "UNIT",
      "outputs": [
        {
          "internalType": "uint256",
          "name": "",
          "type": "uint256"
        }
      ],
      "stateMutability": "view",
      "type": "function",
      "constant": true
    },
    {
      "inputs": [],
      "name": "WETH",
      "outputs": [
        {
          "internalType": "bytes32",
          "name": "",
          "type": "bytes32"
        }
      ],
      "stateMutability": "view",
      "type": "function",
      "constant": true
    },
    {
      "inputs": [
        {
          "internalType": "bytes32",
          "name": "collateral",
          "type": "bytes32"
        },
        {
          "internalType": "address",
          "name": "user",
          "type": "address"
        }
      ],
      "name": "posted",
      "outputs": [
        {
          "internalType": "uint256",
          "name": "",
          "type": "uint256"
        }
      ],
      "stateMutability": "view",
      "type": "function",
      "constant": true
    },
    {
      "inputs": [],
      "name": "totalChaiPosted",
      "outputs": [
        {
          "internalType": "uint256",
          "name": "",
          "type": "uint256"
        }
      ],
      "stateMutability": "view",
      "type": "function",
      "constant": true
    },
    {
      "inputs": [
        {
          "internalType": "bytes32",
          "name": "collateral",
          "type": "bytes32"
        },
        {
          "internalType": "uint256",
          "name": "maturity",
          "type": "uint256"
        },
        {
          "internalType": "address",
          "name": "user",
          "type": "address"
        }
      ],
      "name": "debtYDai",
      "outputs": [
        {
          "internalType": "uint256",
          "name": "",
          "type": "uint256"
        }
      ],
      "stateMutability": "view",
      "type": "function",
      "constant": true
    },
    {
      "inputs": [
        {
          "internalType": "bytes32",
          "name": "collateral",
          "type": "bytes32"
        },
        {
          "internalType": "uint256",
          "name": "maturity",
          "type": "uint256"
        }
      ],
      "name": "totalDebtYDai",
      "outputs": [
        {
          "internalType": "uint256",
          "name": "",
          "type": "uint256"
        }
      ],
      "stateMutability": "view",
      "type": "function",
      "constant": true
    },
    {
      "inputs": [
        {
          "internalType": "bytes32",
          "name": "collateral",
          "type": "bytes32"
        },
        {
          "internalType": "address",
          "name": "user",
          "type": "address"
        }
      ],
      "name": "powerOf",
      "outputs": [
        {
          "internalType": "uint256",
          "name": "",
          "type": "uint256"
        }
      ],
      "stateMutability": "view",
      "type": "function",
      "constant": true
    },
    {
      "inputs": [
        {
          "internalType": "uint256",
          "name": "maturity",
          "type": "uint256"
        }
      ],
      "name": "chiGrowth",
      "outputs": [
        {
          "internalType": "uint256",
          "name": "",
          "type": "uint256"
        }
      ],
      "stateMutability": "view",
      "type": "function",
      "constant": true
    },
    {
      "inputs": [
        {
          "internalType": "uint256",
          "name": "maturity",
          "type": "uint256"
        }
      ],
      "name": "rateGrowth",
      "outputs": [
        {
          "internalType": "uint256",
          "name": "",
          "type": "uint256"
        }
      ],
      "stateMutability": "view",
      "type": "function",
      "constant": true
    },
    {
      "inputs": [
        {
          "internalType": "bytes32",
          "name": "collateral",
          "type": "bytes32"
        },
        {
          "internalType": "uint256",
          "name": "maturity",
          "type": "uint256"
        },
        {
          "internalType": "address",
          "name": "user",
          "type": "address"
        }
      ],
      "name": "debtDai",
      "outputs": [
        {
          "internalType": "uint256",
          "name": "",
          "type": "uint256"
        }
      ],
      "stateMutability": "view",
      "type": "function",
      "constant": true
    },
    {
      "inputs": [
        {
          "internalType": "bytes32",
          "name": "collateral",
          "type": "bytes32"
        },
        {
          "internalType": "address",
          "name": "user",
          "type": "address"
        }
      ],
      "name": "totalDebtDai",
      "outputs": [
        {
          "internalType": "uint256",
          "name": "",
          "type": "uint256"
        }
      ],
      "stateMutability": "view",
      "type": "function",
      "constant": true
    },
    {
      "inputs": [
        {
          "internalType": "bytes32",
          "name": "collateral",
          "type": "bytes32"
        },
        {
          "internalType": "address",
          "name": "user",
          "type": "address"
        }
      ],
      "name": "locked",
      "outputs": [
        {
          "internalType": "uint256",
          "name": "",
          "type": "uint256"
        }
      ],
      "stateMutability": "view",
      "type": "function",
      "constant": true
    }
  ],
  "bytecode": "0x608060405234801561001057600080fd5b5060405161134c38038061134c8339818101604052606081101561003357600080fd5b5080516020820151604090920151600080546001600160a01b039384166001600160a01b03199182161790915560018054948416948216949094179093556002805492909116919092161790556112bd8061008f6000396000f3fe608060405234801561001057600080fd5b50600436106100cf5760003560e01c80639d8e21771161008c578063c06331dc11610066578063c06331dc146101c1578063c5ec0c17146101ed578063dd62f4231461021f578063e68b7cf41461024b576100cf565b80639d8e2177146101a9578063ad5c4648146101b1578063b6dbf9ce146101b9576100cf565b8063354d9fe0146100d45780633ab54a20146101125780634cb89c4f1461012f57806361d6fb7f146101375780637d8c41d11461015a57806398cdae5a14610177575b600080fd5b610100600480360360408110156100ea57600080fd5b50803590602001356001600160a01b0316610277565b60408051918252519081900360200190f35b6101006004803603602081101561012857600080fd5b5035610426565b610100610656565b6101006004803603604081101561014d57600080fd5b50803590602001356106cc565b6101006004803603602081101561017057600080fd5b50356107ad565b6101006004803603606081101561018d57600080fd5b50803590602081013590604001356001600160a01b03166109b0565b610100610a9c565b610100610aac565b610100610ab8565b610100600480360360408110156101d757600080fd5b50803590602001356001600160a01b0316610ac3565b6101006004803603606081101561020357600080fd5b50803590602081013590604001356001600160a01b0316610c6a565b6101006004803603604081101561023557600080fd5b50803590602001356001600160a01b0316610e4d565b6101006004803603604081101561026157600080fd5b50803590602001356001600160a01b0316610efb565b600082644554482d4160d81b8114806102965750634348414960e01b81145b6102d15760405162461bcd60e51b815260040180806020018281038252602881526020018061121d6028913960400191505060405180910390fd5b644554482d4160d81b841415610381576000805460408051636cb1c69b60e11b8152644554482d4160d81b600482015290516001600160a01b039092169163d9638d369160248082019260a092909190829003018186803b15801561033557600080fd5b505afa158015610349573d6000803e3d6000fd5b505050506040513d60a081101561035f57600080fd5b506040015190506103796103738686610efb565b82611075565b92505061041f565b634348414960e01b84141561041f5761041c61039d8585610efb565b600160009054906101000a90046001600160a01b03166001600160a01b031663c92aecc46040518163ffffffff1660e01b815260040160206040518083038186803b1580156103eb57600080fd5b505afa1580156103ff573d6000803e3d6000fd5b505050506040513d602081101561041557600080fd5b5051611075565b91505b5092915050565b60025460408051636e1165b560e11b815260048101849052905160009283926001600160a01b039091169163dc22cb6a91602480820192602092909190829003018186803b15801561047757600080fd5b505afa15801561048b573d6000803e3d6000fd5b505050506040513d60208110156104a157600080fd5b50516040805163ae4e7fdf60e01b815290519192506001600160a01b0383169163ae4e7fdf91600480820192602092909190829003018186803b1580156104e757600080fd5b505afa1580156104fb573d6000803e3d6000fd5b505050506040513d602081101561051157600080fd5b5051151560011461058a57806001600160a01b03166312970eac6040518163ffffffff1660e01b815260040160206040518083038186803b15801561055557600080fd5b505afa158015610569573d6000803e3d6000fd5b505050506040513d602081101561057f57600080fd5b505191506106519050565b61064d610596846107ad565b6001546040805163324abb3160e21b81529051610648926001600160a01b03169163c92aecc4916004808301926020929190829003018186803b1580156105dc57600080fd5b505afa1580156105f0573d6000803e3d6000fd5b505050506040513d602081101561060657600080fd5b5051604080516304a5c3ab60e21b815290516001600160a01b038716916312970eac916004808301926020929190829003018186803b1580156103eb57600080fd5b6110ac565b9150505b919050565b60025460408051634cb89c4f60e01b815290516000926001600160a01b031691634cb89c4f916004808301926020929190829003018186803b15801561069b57600080fd5b505afa1580156106af573d6000803e3d6000fd5b505050506040513d60208110156106c557600080fd5b5051905090565b600082644554482d4160d81b8114806106eb5750634348414960e01b81145b6107265760405162461bcd60e51b815260040180806020018281038252602881526020018061121d6028913960400191505060405180910390fd5b600254604080516361d6fb7f60e01b8152600481018790526024810186905290516001600160a01b03909216916361d6fb7f91604480820192602092909190829003018186803b15801561077957600080fd5b505afa15801561078d573d6000803e3d6000fd5b505050506040513d60208110156107a357600080fd5b5051949350505050565b60025460408051636e1165b560e11b815260048101849052905160009283926001600160a01b039091169163dc22cb6a91602480820192602092909190829003018186803b1580156107fe57600080fd5b505afa158015610812573d6000803e3d6000fd5b505050506040513d602081101561082857600080fd5b50516040805163ae4e7fdf60e01b815290519192506001600160a01b0383169163ae4e7fdf91600480820192602092909190829003018186803b15801561086e57600080fd5b505afa158015610882573d6000803e3d6000fd5b505050506040513d602081101561089857600080fd5b505115156001146108dc57806001600160a01b03166393c19e186040518163ffffffff1660e01b815260040160206040518083038186803b15801561055557600080fd5b6000805460408051636cb1c69b60e11b8152644554482d4160d81b600482015290516001600160a01b039092169163d9638d369160248082019260a092909190829003018186803b15801561093057600080fd5b505afa158015610944573d6000803e3d6000fd5b505050506040513d60a081101561095a57600080fd5b506020908101516040805163127833c360e31b815290519193506109a79284926001600160a01b038716926393c19e18926004808301939192829003018186803b1580156103eb57600080fd5b92505050610651565b600083644554482d4160d81b8114806109cf5750634348414960e01b81145b610a0a5760405162461bcd60e51b815260040180806020018281038252602881526020018061121d6028913960400191505060405180910390fd5b60025460408051634c66d72d60e11b815260048101889052602481018790526001600160a01b038681166044830152915191909216916398cdae5a916064808301926020929190829003018186803b158015610a6557600080fd5b505afa158015610a79573d6000803e3d6000fd5b505050506040513d6020811015610a8f57600080fd5b505191505b509392505050565b6b033b2e3c9fd0803ce800000081565b644554482d4160d81b81565b634348414960e01b81565b600082644554482d4160d81b811480610ae25750634348414960e01b81145b610b1d5760405162461bcd60e51b815260040180806020018281038252602881526020018061121d6028913960400191505060405180910390fd5b644554482d4160d81b841415610bc5576000805460408051636cb1c69b60e11b8152644554482d4160d81b600482015290516001600160a01b039092169163d9638d369160248082019260a092909190829003018186803b158015610b8157600080fd5b505afa158015610b95573d6000803e3d6000fd5b505050506040513d60a0811015610bab57600080fd5b50604001519050610379610bbf8686610e4d565b826110c2565b634348414960e01b841415610c605761041c610be18585610e4d565b600160009054906101000a90046001600160a01b03166001600160a01b031663c92aecc46040518163ffffffff1660e01b815260040160206040518083038186803b158015610c2f57600080fd5b505afa158015610c43573d6000803e3d6000fd5b505050506040513d6020811015610c5957600080fd5b50516110c2565b5060009392505050565b600083644554482d4160d81b811480610c895750634348414960e01b81145b610cc45760405162461bcd60e51b815260040180806020018281038252602881526020018061121d6028913960400191505060405180910390fd5b60025460408051636e1165b560e11b81526004810187905290516000926001600160a01b03169163dc22cb6a916024808301926020929190829003018186803b158015610d1057600080fd5b505afa158015610d24573d6000803e3d6000fd5b505050506040513d6020811015610d3a57600080fd5b50516040805163ae4e7fdf60e01b815290519192506001600160a01b0383169163ae4e7fdf91600480820192602092909190829003018186803b158015610d8057600080fd5b505afa158015610d94573d6000803e3d6000fd5b505050506040513d6020811015610daa57600080fd5b505115610e4257644554482d4160d81b861415610de557610ddd610dcf8787876109b0565b610dd8876107ad565b6110c2565b925050610a94565b634348414960e01b861415610e0b57610ddd610e028787876109b0565b610dd887610426565b60405162461bcd60e51b81526004018080602001828103825260228152602001806112456022913960400191505060405180910390fd5b610ddd8686866109b0565b600082644554482d4160d81b811480610e6c5750634348414960e01b81145b610ea75760405162461bcd60e51b815260040180806020018281038252602881526020018061121d6028913960400191505060405180910390fd5b6002546040805163dd62f42360e01b8152600481018790526001600160a01b0386811660248301529151919092169163dd62f423916044808301926020929190829003018186803b15801561077957600080fd5b600082644554482d4160d81b811480610f1a5750634348414960e01b81145b610f555760405162461bcd60e51b815260040180806020018281038252602881526020018061121d6028913960400191505060405180910390fd5b6000805b600260009054906101000a90046001600160a01b03166001600160a01b0316630c6a595a6040518163ffffffff1660e01b815260040160206040518083038186803b158015610fa757600080fd5b505afa158015610fbb573d6000803e3d6000fd5b505050506040513d6020811015610fd157600080fd5b505181101561106c576002546040805163dd10222560e01b81526004810184905290516000926001600160a01b03169163dd102225916024808301926020929190829003018186803b15801561102657600080fd5b505afa15801561103a573d6000803e3d6000fd5b505050506040513d602081101561105057600080fd5b5051905061105f878288610c6a565b9092019150600101610f59565b50949350505050565b60006110a382611097856b033b2e3c9fd0803ce800000063ffffffff6110e416565b9063ffffffff61113d16565b90505b92915050565b60008183106110bb57816110a3565b5090919050565b60006110a36b033b2e3c9fd0803ce8000000611097858563ffffffff6110e416565b6000826110f3575060006110a6565b8282028284828161110057fe5b04146110a35760405162461bcd60e51b81526004018080602001828103825260218152602001806112676021913960400191505060405180910390fd5b60006110a383836040518060400160405280601a81526020017f536166654d6174683a206469766973696f6e206279207a65726f000000000000815250600081836112065760405162461bcd60e51b81526004018080602001828103825283818151815260200191508051906020019080838360005b838110156111cb5781810151838201526020016111b3565b50505050905090810190601f1680156111f85780820380516001836020036101000a031916815260200191505b509250505060405180910390fd5b50600083858161121257fe5b049594505050505056fe436f6c6c61746572616c50726f78793a20556e7265636f676e697a656420636f6c6c61746572616c436f6e74726f6c6c65723a20556e737570706f7274656420636f6c6c61746572616c536166654d6174683a206d756c7469706c69636174696f6e206f766572666c6f77a2646970667358221220a3ff9470b88c08c24b686bc4992c6619e5d5bd857c484a6d2418c927cf03052864736f6c634300060a0033",
  "source": "// SPDX-License-Identifier: GPL-3.0-or-later\npragma solidity ^0.6.10;\n\nimport \"@openzeppelin/contracts/math/Math.sol\";\nimport \"@openzeppelin/contracts/math/SafeMath.sol\";\nimport \"../interfaces/IVat.sol\";\nimport \"../interfaces/IPot.sol\";\nimport \"../interfaces/IController.sol\";\nimport \"../interfaces/IYDai.sol\";\nimport \"../helpers/DecimalMath.sol\";\nimport \"@nomiclabs/buidler/console.sol\";\n\ncontract ControllerView is DecimalMath {\n    using SafeMath for uint256;\n\n    bytes32 public constant CHAI = \"CHAI\";\n    bytes32 public constant WETH = \"ETH-A\";\n\n    IVat internal _vat;\n    IPot internal _pot;\n    IController internal _controller;\n\n    constructor (\n        address vat_,\n        address pot_,\n        address controller_\n    ) public {\n        _vat = IVat(vat_);\n        _pot = IPot(pot_);\n        _controller = IController(controller_);\n    }\n\n    /// @dev Only valid collateral types are Weth and Chai.\n    modifier validCollateral(bytes32 collateral) {\n        require(\n            collateral == WETH || collateral == CHAI,\n            \"CollateralProxy: Unrecognized collateral\"\n        );\n        _;\n    }\n\n    /// @dev Posted collateral for an user\n    /// Adding this one so that this contract can be used to display all data in Controller\n    function posted(bytes32 collateral, address user)\n        public view\n        validCollateral(collateral)\n        returns (uint256)\n    {\n        return _controller.posted(collateral, user);\n    }\n\n    /// @dev Posted chai for the overall system\n    /// Adding this one so that this contract can be used to display all data in Controller\n    function totalChaiPosted()\n        public view\n        returns (uint256)\n    {\n        return _controller.totalChaiPosted();\n    }\n\n    /// @dev Debt for a collateral, maturity and user, in YDai\n    /// Adding this one so that this contract can be used to display all data in Controller\n    function debtYDai(bytes32 collateral, uint256 maturity, address user)\n        public view\n        validCollateral(collateral)\n        returns (uint256)\n    {\n        return _controller.debtYDai(collateral, maturity, user);\n    }\n\n    /// @dev Overall Debt for a collateral and maturity, in YDai\n    /// Adding this one so that this contract can be used to display all data in Controller\n    function totalDebtYDai(bytes32 collateral, uint256 maturity)\n        public view\n        validCollateral(collateral)\n        returns (uint256)\n    {\n        return _controller.totalDebtYDai(collateral, maturity);\n    }\n\n    /// @dev Maximum borrowing power of an user in dai for a given collateral\n    function powerOf(bytes32 collateral, address user)\n        public view\n        validCollateral(collateral)\n        returns (uint256)\n    {\n        // dai = price * collateral\n        if (collateral == WETH){\n            (,, uint256 spot,,) = _vat.ilks(WETH);  // Stability fee and collateralization ratio for Weth\n            return muld(posted(collateral, user), spot);\n        } else if (collateral == CHAI) {\n            return muld(posted(collateral, user), _pot.chi());\n        }\n        return 0;\n    }\n\n    function chiGrowth(uint256 maturity)\n        public view\n        returns(uint256)\n    {\n        IYDai yDai = _controller.series(maturity);\n        if (yDai.isMature() != true) return yDai.chi0();\n        return Math.min(rateGrowth(maturity), divd(_pot.chi(), yDai.chi0()));\n    }\n\n    /// @dev Rate differential between maturity and now in RAY. Returns 1.0 if not mature.\n    //\n    //           rate_now\n    // rateGrowth() = ----------\n    //           rate_mat\n    //\n    function rateGrowth(uint256 maturity)\n        public view\n        returns(uint256)\n    {\n        IYDai yDai = _controller.series(maturity);\n        if (yDai.isMature() != true) return yDai.rate0();\n        else {\n            (, uint256 rateNow,,,) = _vat.ilks(WETH);\n            return divd(rateNow, yDai.rate0());\n        }\n    }\n\n    /// @dev Debt for a collateral, maturity and user, in Dai\n    function debtDai(bytes32 collateral, uint256 maturity, address user)\n        public view\n        validCollateral(collateral)\n        returns (uint256)\n    {\n        IYDai yDai = _controller.series(maturity);\n        if (yDai.isMature()){\n            if (collateral == WETH){\n                return muld(debtYDai(collateral, maturity, user), rateGrowth(maturity));\n            } else if (collateral == CHAI) {\n                return muld(debtYDai(collateral, maturity, user), chiGrowth(maturity));\n            } else {\n                revert(\"Controller: Unsupported collateral\");\n            }\n        } else {\n            return debtYDai(collateral, maturity, user);\n        }\n    }\n\n    /// @dev Returns the total debt of an user, for a given collateral, across all series, in Dai\n    function totalDebtDai(bytes32 collateral, address user)\n        public view\n        validCollateral(collateral)\n        returns (uint256)\n    {\n        uint256 totalDebt;\n        for (uint256 i = 0; i < _controller.totalSeries(); i += 1) {\n            uint256 maturity = _controller.seriesIterator(i);\n            totalDebt = totalDebt + debtDai(collateral, maturity, user);\n        }\n        return totalDebt;\n    }\n\n    function locked(bytes32 collateral, address user)\n        public view\n        validCollateral(collateral)\n        returns (uint256)\n    {\n        if (collateral == WETH){\n            (,, uint256 spot,,) = _vat.ilks(WETH);  // Stability fee and collateralization ratio for Weth\n            return divd(totalDebtDai(collateral, user), spot);\n        } else if (collateral == CHAI) {\n            return divd(totalDebtDai(collateral, user), _pot.chi());\n        }\n    }\n}",
  "sourcePath": "/Users/bruce/dev/yieldprotocol/ytoken-mvp/contracts/peripheral/ControllerView.sol",
  "compiler": {
    "name": "solc",
    "version": "0.6.10+commit.00c0fcaf.Emscripten.clang"
  },
  "schemaVersion": "3.0.23",
  "updatedAt": "2020-07-20T13:24:07.239Z",
  "networkType": "ethereum",
  "devdoc": {
    "methods": {
      "debtDai(bytes32,uint256,address)": {
        "details": "Debt for a collateral, maturity and user, in Dai"
      },
      "debtYDai(bytes32,uint256,address)": {
        "details": "Debt for a collateral, maturity and user, in YDai Adding this one so that this contract can be used to display all data in Controller"
      },
      "posted(bytes32,address)": {
        "details": "Posted collateral for an user Adding this one so that this contract can be used to display all data in Controller"
      },
      "powerOf(bytes32,address)": {
        "details": "Maximum borrowing power of an user in dai for a given collateral"
      },
      "rateGrowth(uint256)": {
        "details": "Rate differential between maturity and now in RAY. Returns 1.0 if not mature."
      },
      "totalChaiPosted()": {
        "details": "Posted chai for the overall system Adding this one so that this contract can be used to display all data in Controller"
      },
      "totalDebtDai(bytes32,address)": {
        "details": "Returns the total debt of an user, for a given collateral, across all series, in Dai"
      },
      "totalDebtYDai(bytes32,uint256)": {
        "details": "Overall Debt for a collateral and maturity, in YDai Adding this one so that this contract can be used to display all data in Controller"
      }
    }
  },
  "userdoc": {
    "methods": {}
  }
}