{
  "contractName": "Controller",
  "abi": [
    {
      "inputs": [
        {
          "internalType": "address",
          "name": "treasury_",
          "type": "address"
        },
        {
          "internalType": "address[]",
          "name": "fyDais",
          "type": "address[]"
        }
      ],
      "stateMutability": "nonpayable",
      "type": "constructor"
    },
    {
      "anonymous": false,
      "inputs": [
        {
          "indexed": true,
          "internalType": "bytes32",
          "name": "collateral",
          "type": "bytes32"
        },
        {
          "indexed": true,
          "internalType": "uint256",
          "name": "maturity",
          "type": "uint256"
        },
        {
          "indexed": true,
          "internalType": "address",
          "name": "user",
          "type": "address"
        },
        {
          "indexed": false,
          "internalType": "int256",
          "name": "amount",
          "type": "int256"
        }
      ],
      "name": "Borrowed",
      "type": "event"
    },
    {
      "anonymous": false,
      "inputs": [
        {
          "indexed": true,
          "internalType": "address",
          "name": "user",
          "type": "address"
        },
        {
          "indexed": true,
          "internalType": "address",
          "name": "delegate",
          "type": "address"
        },
        {
          "indexed": false,
          "internalType": "bool",
          "name": "enabled",
          "type": "bool"
        }
      ],
      "name": "Delegate",
      "type": "event"
    },
    {
      "anonymous": false,
      "inputs": [
        {
          "indexed": false,
          "internalType": "address",
          "name": "access",
          "type": "address"
        },
        {
          "indexed": false,
          "internalType": "bytes4",
          "name": "signature",
          "type": "bytes4"
        }
      ],
      "name": "GrantedAccess",
      "type": "event"
    },
    {
      "anonymous": false,
      "inputs": [
        {
          "indexed": true,
          "internalType": "address",
          "name": "previousOwner",
          "type": "address"
        },
        {
          "indexed": true,
          "internalType": "address",
          "name": "newOwner",
          "type": "address"
        }
      ],
      "name": "OwnershipTransferred",
      "type": "event"
    },
    {
      "anonymous": false,
      "inputs": [
        {
          "indexed": true,
          "internalType": "bytes32",
          "name": "collateral",
          "type": "bytes32"
        },
        {
          "indexed": true,
          "internalType": "address",
          "name": "user",
          "type": "address"
        },
        {
          "indexed": false,
          "internalType": "int256",
          "name": "amount",
          "type": "int256"
        }
      ],
      "name": "Posted",
      "type": "event"
    },
    {
      "inputs": [],
      "name": "CHAI",
      "outputs": [
        {
          "internalType": "bytes32",
          "name": "",
          "type": "bytes32"
        }
      ],
      "stateMutability": "view",
      "type": "function"
    },
    {
      "inputs": [],
      "name": "DELEGABLE_DOMAIN",
      "outputs": [
        {
          "internalType": "bytes32",
          "name": "",
          "type": "bytes32"
        }
      ],
      "stateMutability": "view",
      "type": "function"
    },
    {
      "inputs": [],
      "name": "DUST",
      "outputs": [
        {
          "internalType": "uint256",
          "name": "",
          "type": "uint256"
        }
      ],
      "stateMutability": "view",
      "type": "function"
    },
    {
      "inputs": [],
      "name": "SIGNATURE_TYPEHASH",
      "outputs": [
        {
          "internalType": "bytes32",
          "name": "",
          "type": "bytes32"
        }
      ],
      "stateMutability": "view",
      "type": "function"
    },
    {
      "inputs": [],
      "name": "THREE_MONTHS",
      "outputs": [
        {
          "internalType": "uint256",
          "name": "",
          "type": "uint256"
        }
      ],
      "stateMutability": "view",
      "type": "function"
    },
    {
      "inputs": [],
      "name": "UNIT",
      "outputs": [
        {
          "internalType": "uint256",
          "name": "",
          "type": "uint256"
        }
      ],
      "stateMutability": "view",
      "type": "function"
    },
    {
      "inputs": [],
      "name": "WETH",
      "outputs": [
        {
          "internalType": "bytes32",
          "name": "",
          "type": "bytes32"
        }
      ],
      "stateMutability": "view",
      "type": "function"
    },
    {
      "inputs": [
        {
          "internalType": "address",
          "name": "delegate",
          "type": "address"
        }
      ],
      "name": "addDelegate",
      "outputs": [],
      "stateMutability": "nonpayable",
      "type": "function"
    },
    {
      "inputs": [
        {
          "internalType": "address",
          "name": "user",
          "type": "address"
        },
        {
          "internalType": "address",
          "name": "delegate",
          "type": "address"
        },
        {
          "internalType": "uint256",
          "name": "deadline",
          "type": "uint256"
        },
        {
          "internalType": "uint8",
          "name": "v",
          "type": "uint8"
        },
        {
          "internalType": "bytes32",
          "name": "r",
          "type": "bytes32"
        },
        {
          "internalType": "bytes32",
          "name": "s",
          "type": "bytes32"
        }
      ],
      "name": "addDelegateBySignature",
      "outputs": [],
      "stateMutability": "nonpayable",
      "type": "function"
    },
    {
      "inputs": [
        {
          "internalType": "address",
          "name": "user",
          "type": "address"
        },
        {
          "internalType": "bytes4[]",
          "name": "signatures",
          "type": "bytes4[]"
        }
      ],
      "name": "batchOrchestrate",
      "outputs": [],
      "stateMutability": "nonpayable",
      "type": "function"
    },
    {
      "inputs": [
        {
          "internalType": "bytes32",
          "name": "",
          "type": "bytes32"
        },
        {
          "internalType": "uint256",
          "name": "",
          "type": "uint256"
        },
        {
          "internalType": "address",
          "name": "",
          "type": "address"
        }
      ],
      "name": "debtFYDai",
      "outputs": [
        {
          "internalType": "uint256",
          "name": "",
          "type": "uint256"
        }
      ],
      "stateMutability": "view",
      "type": "function"
    },
    {
      "inputs": [
        {
          "internalType": "address",
          "name": "",
          "type": "address"
        },
        {
          "internalType": "address",
          "name": "",
          "type": "address"
        }
      ],
      "name": "delegated",
      "outputs": [
        {
          "internalType": "bool",
          "name": "",
          "type": "bool"
        }
      ],
      "stateMutability": "view",
      "type": "function"
    },
    {
      "inputs": [],
      "name": "live",
      "outputs": [
        {
          "internalType": "bool",
          "name": "",
          "type": "bool"
        }
      ],
      "stateMutability": "view",
      "type": "function"
    },
    {
      "inputs": [
        {
          "internalType": "address",
          "name": "user",
          "type": "address"
        },
        {
          "internalType": "bytes4",
          "name": "signature",
          "type": "bytes4"
        }
      ],
      "name": "orchestrate",
      "outputs": [],
      "stateMutability": "nonpayable",
      "type": "function"
    },
    {
      "inputs": [
        {
          "internalType": "address",
          "name": "",
          "type": "address"
        },
        {
          "internalType": "bytes4",
          "name": "",
          "type": "bytes4"
        }
      ],
      "name": "orchestration",
      "outputs": [
        {
          "internalType": "bool",
          "name": "",
          "type": "bool"
        }
      ],
      "stateMutability": "view",
      "type": "function"
    },
    {
      "inputs": [],
      "name": "owner",
      "outputs": [
        {
          "internalType": "address",
          "name": "",
          "type": "address"
        }
      ],
      "stateMutability": "view",
      "type": "function"
    },
    {
      "inputs": [
        {
          "internalType": "bytes32",
          "name": "",
          "type": "bytes32"
        },
        {
          "internalType": "address",
          "name": "",
          "type": "address"
        }
      ],
      "name": "posted",
      "outputs": [
        {
          "internalType": "uint256",
          "name": "",
          "type": "uint256"
        }
      ],
      "stateMutability": "view",
      "type": "function"
    },
    {
      "inputs": [],
      "name": "pot",
      "outputs": [
        {
          "internalType": "contract IPot",
          "name": "",
          "type": "address"
        }
      ],
      "stateMutability": "view",
      "type": "function"
    },
    {
      "inputs": [],
      "name": "renounceOwnership",
      "outputs": [],
      "stateMutability": "nonpayable",
      "type": "function"
    },
    {
      "inputs": [
        {
          "internalType": "address",
          "name": "delegate",
          "type": "address"
        }
      ],
      "name": "revokeDelegate",
      "outputs": [],
      "stateMutability": "nonpayable",
      "type": "function"
    },
    {
      "inputs": [
        {
          "internalType": "uint256",
          "name": "",
          "type": "uint256"
        }
      ],
      "name": "series",
      "outputs": [
        {
          "internalType": "contract IFYDai",
          "name": "",
          "type": "address"
        }
      ],
      "stateMutability": "view",
      "type": "function"
    },
    {
      "inputs": [
        {
          "internalType": "uint256",
          "name": "",
          "type": "uint256"
        }
      ],
      "name": "seriesIterator",
      "outputs": [
        {
          "internalType": "uint256",
          "name": "",
          "type": "uint256"
        }
      ],
      "stateMutability": "view",
      "type": "function"
    },
    {
      "inputs": [
        {
          "internalType": "address",
          "name": "",
          "type": "address"
        }
      ],
      "name": "signatureCount",
      "outputs": [
        {
          "internalType": "uint256",
          "name": "",
          "type": "uint256"
        }
      ],
      "stateMutability": "view",
      "type": "function"
    },
    {
      "inputs": [
        {
          "internalType": "address",
          "name": "newOwner",
          "type": "address"
        }
      ],
      "name": "transferOwnership",
      "outputs": [],
      "stateMutability": "nonpayable",
      "type": "function"
    },
    {
      "inputs": [],
      "name": "treasury",
      "outputs": [
        {
          "internalType": "contract ITreasury",
          "name": "",
          "type": "address"
        }
      ],
      "stateMutability": "view",
      "type": "function"
    },
    {
      "inputs": [],
      "name": "vat",
      "outputs": [
        {
          "internalType": "contract IVat",
          "name": "",
          "type": "address"
        }
      ],
      "stateMutability": "view",
      "type": "function"
    },
    {
      "inputs": [],
      "name": "shutdown",
      "outputs": [],
      "stateMutability": "nonpayable",
      "type": "function"
    },
    {
      "inputs": [
        {
          "internalType": "bytes32",
          "name": "collateral",
          "type": "bytes32"
        },
        {
          "internalType": "address",
          "name": "user",
          "type": "address"
        }
      ],
      "name": "isCollateralized",
      "outputs": [
        {
          "internalType": "bool",
          "name": "",
          "type": "bool"
        }
      ],
      "stateMutability": "view",
      "type": "function"
    },
    {
      "inputs": [
        {
          "internalType": "bytes32",
          "name": "collateral",
          "type": "bytes32"
        },
        {
          "internalType": "address",
          "name": "user",
          "type": "address"
        }
      ],
      "name": "aboveDustOrZero",
      "outputs": [
        {
          "internalType": "bool",
          "name": "",
          "type": "bool"
        }
      ],
      "stateMutability": "view",
      "type": "function"
    },
    {
      "inputs": [],
      "name": "totalSeries",
      "outputs": [
        {
          "internalType": "uint256",
          "name": "",
          "type": "uint256"
        }
      ],
      "stateMutability": "view",
      "type": "function"
    },
    {
      "inputs": [
        {
          "internalType": "uint256",
          "name": "maturity",
          "type": "uint256"
        }
      ],
      "name": "containsSeries",
      "outputs": [
        {
          "internalType": "bool",
          "name": "",
          "type": "bool"
        }
      ],
      "stateMutability": "view",
      "type": "function"
    },
    {
      "inputs": [
        {
          "internalType": "bytes32",
          "name": "collateral",
          "type": "bytes32"
        },
        {
          "internalType": "uint256",
          "name": "maturity",
          "type": "uint256"
        },
        {
          "internalType": "uint256",
          "name": "fyDaiAmount",
          "type": "uint256"
        }
      ],
      "name": "inDai",
      "outputs": [
        {
          "internalType": "uint256",
          "name": "",
          "type": "uint256"
        }
      ],
      "stateMutability": "view",
      "type": "function"
    },
    {
      "inputs": [
        {
          "internalType": "bytes32",
          "name": "collateral",
          "type": "bytes32"
        },
        {
          "internalType": "uint256",
          "name": "maturity",
          "type": "uint256"
        },
        {
          "internalType": "uint256",
          "name": "daiAmount",
          "type": "uint256"
        }
      ],
      "name": "inFYDai",
      "outputs": [
        {
          "internalType": "uint256",
          "name": "",
          "type": "uint256"
        }
      ],
      "stateMutability": "view",
      "type": "function"
    },
    {
      "inputs": [
        {
          "internalType": "bytes32",
          "name": "collateral",
          "type": "bytes32"
        },
        {
          "internalType": "uint256",
          "name": "maturity",
          "type": "uint256"
        },
        {
          "internalType": "address",
          "name": "user",
          "type": "address"
        }
      ],
      "name": "debtDai",
      "outputs": [
        {
          "internalType": "uint256",
          "name": "",
          "type": "uint256"
        }
      ],
      "stateMutability": "view",
      "type": "function"
    },
    {
      "inputs": [
        {
          "internalType": "bytes32",
          "name": "collateral",
          "type": "bytes32"
        },
        {
          "internalType": "address",
          "name": "user",
          "type": "address"
        }
      ],
      "name": "totalDebtDai",
      "outputs": [
        {
          "internalType": "uint256",
          "name": "",
          "type": "uint256"
        }
      ],
      "stateMutability": "view",
      "type": "function"
    },
    {
      "inputs": [
        {
          "internalType": "bytes32",
          "name": "collateral",
          "type": "bytes32"
        },
        {
          "internalType": "address",
          "name": "user",
          "type": "address"
        }
      ],
      "name": "powerOf",
      "outputs": [
        {
          "internalType": "uint256",
          "name": "",
          "type": "uint256"
        }
      ],
      "stateMutability": "view",
      "type": "function"
    },
    {
      "inputs": [
        {
          "internalType": "bytes32",
          "name": "collateral",
          "type": "bytes32"
        },
        {
          "internalType": "address",
          "name": "user",
          "type": "address"
        }
      ],
      "name": "locked",
      "outputs": [
        {
          "internalType": "uint256",
          "name": "",
          "type": "uint256"
        }
      ],
      "stateMutability": "view",
      "type": "function"
    },
    {
      "inputs": [
        {
          "internalType": "bytes32",
          "name": "collateral",
          "type": "bytes32"
        },
        {
          "internalType": "address",
          "name": "from",
          "type": "address"
        },
        {
          "internalType": "address",
          "name": "to",
          "type": "address"
        },
        {
          "internalType": "uint256",
          "name": "amount",
          "type": "uint256"
        }
      ],
      "name": "post",
      "outputs": [],
      "stateMutability": "nonpayable",
      "type": "function"
    },
    {
      "inputs": [
        {
          "internalType": "bytes32",
          "name": "collateral",
          "type": "bytes32"
        },
        {
          "internalType": "address",
          "name": "from",
          "type": "address"
        },
        {
          "internalType": "address",
          "name": "to",
          "type": "address"
        },
        {
          "internalType": "uint256",
          "name": "amount",
          "type": "uint256"
        }
      ],
      "name": "withdraw",
      "outputs": [],
      "stateMutability": "nonpayable",
      "type": "function"
    },
    {
      "inputs": [
        {
          "internalType": "bytes32",
          "name": "collateral",
          "type": "bytes32"
        },
        {
          "internalType": "uint256",
          "name": "maturity",
          "type": "uint256"
        },
        {
          "internalType": "address",
          "name": "from",
          "type": "address"
        },
        {
          "internalType": "address",
          "name": "to",
          "type": "address"
        },
        {
          "internalType": "uint256",
          "name": "fyDaiAmount",
          "type": "uint256"
        }
      ],
      "name": "borrow",
      "outputs": [],
      "stateMutability": "nonpayable",
      "type": "function"
    },
    {
      "inputs": [
        {
          "internalType": "bytes32",
          "name": "collateral",
          "type": "bytes32"
        },
        {
          "internalType": "uint256",
          "name": "maturity",
          "type": "uint256"
        },
        {
          "internalType": "address",
          "name": "from",
          "type": "address"
        },
        {
          "internalType": "address",
          "name": "to",
          "type": "address"
        },
        {
          "internalType": "uint256",
          "name": "fyDaiAmount",
          "type": "uint256"
        }
      ],
      "name": "repayFYDai",
      "outputs": [
        {
          "internalType": "uint256",
          "name": "",
          "type": "uint256"
        }
      ],
      "stateMutability": "nonpayable",
      "type": "function"
    },
    {
      "inputs": [
        {
          "internalType": "bytes32",
          "name": "collateral",
          "type": "bytes32"
        },
        {
          "internalType": "uint256",
          "name": "maturity",
          "type": "uint256"
        },
        {
          "internalType": "address",
          "name": "from",
          "type": "address"
        },
        {
          "internalType": "address",
          "name": "to",
          "type": "address"
        },
        {
          "internalType": "uint256",
          "name": "daiAmount",
          "type": "uint256"
        }
      ],
      "name": "repayDai",
      "outputs": [
        {
          "internalType": "uint256",
          "name": "",
          "type": "uint256"
        }
      ],
      "stateMutability": "nonpayable",
      "type": "function"
    },
    {
      "inputs": [
        {
          "internalType": "bytes32",
          "name": "collateral",
          "type": "bytes32"
        },
        {
          "internalType": "address",
          "name": "user",
          "type": "address"
        }
      ],
      "name": "erase",
      "outputs": [
        {
          "internalType": "uint256",
          "name": "",
          "type": "uint256"
        },
        {
          "internalType": "uint256",
          "name": "",
          "type": "uint256"
        }
      ],
      "stateMutability": "nonpayable",
      "type": "function"
    }
  ],
  "bytecode": "0x60c06040527f0d077601844dd17f704bafff948229d27f33b57445915754dfe3d095fda2beb7608052600b805460ff191660011790553480156200004257600080fd5b50604051620036d9380380620036d9833981810160405260408110156200006857600080fd5b8151602083018051604051929492938301929190846401000000008211156200009057600080fd5b908301906020820185811115620000a657600080fd5b8251866020820283011164010000000082111715620000c457600080fd5b82525081516020918201928201910280838360005b83811015620000f3578181015183820152602001620000d9565b505050509050016040525050506000620001126200039460201b60201c565b600080546001600160a01b0319166001600160a01b0383169081178255604051929350917f8be0079c531659141344cd1fd0a4f28419497f9722a3daafe3b4186f6b6457e0908290a35060405146908060526200368782396040805191829003605201822082820182526005835264165a595b1960da1b6020938401528151808301835260018152603160f81b908401528151808401919091527f0dc8618f4925c4319195a39ada16304f511bf885ff9f3d63bc6b0f3979e46fb6818301527fc89efdaa54c0f20c7adf612882df0950f5a951637e0307cdcb4c672f298b8bc6606082015260808101949094523060a08086019190915281518086038201815260c08601808452815191850191909120909152600680546001600160a01b038981166001600160a01b031990921691909117918290556336569e7760e01b90925291519116936336569e77935060c4808201939291829003018186803b1580156200027c57600080fd5b505afa15801562000291573d6000803e3d6000fd5b505050506040513d6020811015620002a857600080fd5b5051600480546001600160a01b0319166001600160a01b03928316178155600654604080516325d11b1d60e11b815290519190931692634ba2363a9281810192602092909190829003018186803b1580156200030357600080fd5b505afa15801562000318573d6000803e3d6000fd5b505050506040513d60208110156200032f57600080fd5b5051600580546001600160a01b0319166001600160a01b0390921691909117905560005b81518110156200038b57620003828282815181106200036e57fe5b60200260200101516200039860201b60201c565b60010162000353565b505050620004e8565b3390565b6000816001600160a01b031663204f83f96040518163ffffffff1660e01b815260040160206040518083038186803b158015620003d457600080fd5b505afa158015620003e9573d6000803e3d6000fd5b505050506040513d60208110156200040057600080fd5b5051905062000418816001600160e01b03620004cb16565b156200046b576040805162461bcd60e51b815260206004820181905260248201527f436f6e74726f6c6c65723a2053657269657320616c7265616479206164646564604482015290519081900360640190fd5b600081815260076020526040812080546001600160a01b0319166001600160a01b0394909416939093179092556008805460018101825592527ff3f7a9fe364faab93b216da50a3214154f22a0a2b415b23a84c8169e8b636ee390910155565b6000908152600760205260409020546001600160a01b0316151590565b60805160a0516131716200051660003980610eb452806115a0525080610e4f528061258a52506131716000f3fe608060405234801561001057600080fd5b50600436106102695760003560e01c8063957aa58c11610151578063dc22cb6a116100c3578063e80c72c011610087578063e80c72c0146107b5578063ecbefab714610868578063f2fde38b14610870578063f6bcbd3114610896578063fa352c00146108c4578063fc0e74d1146108ea57610269565b8063dc22cb6a146106fd578063dd1022251461071a578063dd62f42314610737578063e68b7cf414610763578063e71bdf411461078f57610269565b8063b6dbf9ce11610115578063b6dbf9ce14610630578063b93dd41d14610638578063c06331dc1461067a578063c0bd65d7146106a6578063c5ec0c17146106ae578063d0a3a7e4146106e057610269565b8063957aa58c146105b65780639d8e2177146105be578063ad5c4648146105c6578063adb9e54e146105ce578063b5d832fe1461060a57610269565b80634ba2363a116101ea578063715018a6116101ae578063715018a6146104ca5780637ad29f40146104d2578063801d325f146104fe5780638da5cb5b146105405780638e0cc1761461054857806393252ed41461058457610269565b80634ba2363a1461043c5780634cd4423d146104445780634e0cd7991461048457806358ada5261461048c57806361d027b3146104c257610269565b806325d3cd171161023157806325d3cd17146103795780632f2ea5de146103bb578063354d9fe0146103e457806336569e7714610410578063459e414f1461043457610269565b8063028f7d551461026e5780630c6a595a146102a65780630d4c43be146102c0578063139a5628146103055780631a28ff051461032e575b600080fd5b6102a46004803603604081101561028457600080fd5b5080356001600160a01b031690602001356001600160e01b0319166108f2565b005b6102ae6109c1565b60408051918252519081900360200190f35b6102ec600480360360408110156102d657600080fd5b50803590602001356001600160a01b03166109c7565b6040805192835260208301919091528051918290030190f35b6102ae6004803603606081101561031b57600080fd5b5080359060208101359060400135610c0c565b6102a4600480360360c081101561034457600080fd5b506001600160a01b03813581169160208101359091169060408101359060ff6060820135169060808101359060a00135610dd0565b6102ae600480360360a081101561038f57600080fd5b508035906020810135906001600160a01b03604082013581169160608101359091169060800135610ff3565b6102ae600480360360608110156103d157600080fd5b5080359060208101359060400135611239565b6102ae600480360360408110156103fa57600080fd5b50803590602001356001600160a01b03166113dd565b61041861158f565b604080516001600160a01b039092168252519081900360200190f35b6102ae61159e565b6104186115c2565b6104706004803603604081101561045a57600080fd5b50803590602001356001600160a01b03166115d1565b604080519115158252519081900360200190f35b6102ae61160e565b610470600480360360408110156104a257600080fd5b5080356001600160a01b031690602001356001600160e01b031916611619565b610418611639565b6102a4611648565b610470600480360360408110156104e857600080fd5b50803590602001356001600160a01b03166116ea565b6102a4600480360360a081101561051457600080fd5b508035906020810135906001600160a01b03604082013581169160608101359091169060800135611709565b610418611a3a565b6102a46004803603608081101561055e57600080fd5b508035906001600160a01b03602082013581169160408101359091169060600135611a49565b6102ae6004803603606081101561059a57600080fd5b50803590602081013590604001356001600160a01b0316611ddd565b610470611e00565b6102ae611e09565b6102ae611e19565b6102a4600480360360808110156105e457600080fd5b508035906001600160a01b03602082013581169160408101359091169060600135611e25565b6102ae6004803603602081101561062057600080fd5b50356001600160a01b031661215d565b6102ae61216f565b6102ae600480360360a081101561064e57600080fd5b508035906020810135906001600160a01b0360408201358116916060810135909116906080013561217a565b6102ae6004803603604081101561069057600080fd5b50803590602001356001600160a01b03166123d0565b6102ae612588565b6102ae600480360360608110156106c457600080fd5b50803590602081013590604001356001600160a01b03166125ac565b610470600480360360208110156106f657600080fd5b50356125ec565b6104186004803603602081101561071357600080fd5b5035612609565b6102ae6004803603602081101561073057600080fd5b5035612624565b6102ae6004803603604081101561074d57600080fd5b50803590602001356001600160a01b0316612642565b6102ae6004803603604081101561077957600080fd5b50803590602001356001600160a01b031661265f565b6102a4600480360360208110156107a557600080fd5b50356001600160a01b0316612758565b6102a4600480360360408110156107cb57600080fd5b6001600160a01b0382351691908101906040810160208201356401000000008111156107f657600080fd5b82018360208201111561080857600080fd5b8035906020019184602083028401116401000000008311171561082a57600080fd5b919080806020026020016040519081016040528093929190818152602001838360200280828437600092019190915250929550612765945050505050565b6102ae6127f3565b6102a46004803603602081101561088657600080fd5b50356001600160a01b03166127fa565b610470600480360360408110156108ac57600080fd5b506001600160a01b03813581169160200135166128f2565b6102a4600480360360208110156108da57600080fd5b50356001600160a01b0316612912565b6102a461291c565b6108fa6129f4565b6000546001600160a01b0390811691161461094a576040805162461bcd60e51b8152602060048201819052602482015260008051602061311c833981519152604482015290519081900360640190fd5b6001600160a01b03821660008181526001602081815260408084206001600160e01b0319871680865290835293819020805460ff1916909317909255815193845283019190915280517f80e6a982b9aa622283c64c5ba322fc345fe769ac330a174f3254e52926e5fcf89281900390910190a15050565b60085490565b60008083644554482d4160d81b8114806109e75750634348414960e01b81145b610a225760405162461bcd60e51b815260040180806020018281038252602381526020018061306b6023913960400191505060405180910390fd5b604080518082018252601a81527f436f6e74726f6c6c65723a204e6f7420417574686f72697a6564000000000000602080830191909152336000908152600182528381206001600160e01b031982351682529091529190912054819060ff16610b095760405162461bcd60e51b81526004018080602001828103825283818151815260200191508051906020019080838360005b83811015610ace578181015183820152602001610ab6565b50505050905090810190601f168015610afb5780820380516001836020036101000a031916815260200191505b509250505060405180910390fd5b5060008681526009602090815260408083206001600160a01b03891684528252808320805490849055600880548351818602810186019094528084529194936060939290830182828015610b7c57602002820191906000526020600020905b815481526020019060010190808311610b68575b50939450600093505050505b8151811015610bfd576000828281518110610b9f57fe5b60200260200101519050610bc4610bb78c838d6125ac565b859063ffffffff6129f816565b60008c8152600a602090815260408083209483529381528382206001600160a01b038e1683529052918220919091559250600101610b88565b50919890975095505050505050565b600083644554482d4160d81b811480610c2b5750634348414960e01b81145b610c665760405162461bcd60e51b815260040180806020018281038252602381526020018061306b6023913960400191505060405180910390fd5b60008481526007602090815260409182902054825163ae4e7fdf60e01b815292516001600160a01b0390911692839263ae4e7fdf92600480840193829003018186803b158015610cb557600080fd5b505afa158015610cc9573d6000803e3d6000fd5b505050506040513d6020811015610cdf57600080fd5b505115610dbd57644554482d4160d81b861415610d6c57610d6484826001600160a01b031663abf1614b6040518163ffffffff1660e01b815260040160206040518083038186803b158015610d3357600080fd5b505afa158015610d47573d6000803e3d6000fd5b505050506040513d6020811015610d5d57600080fd5b5051612a59565b925050610dc8565b634348414960e01b861415610db857610d6484826001600160a01b031663cb2401986040518163ffffffff1660e01b815260040160206040518083038186803b158015610d3357600080fd5b610dc6565b83925050610dc8565b505b509392505050565b42841015610e25576040805162461bcd60e51b815260206004820152601c60248201527f44656c656761626c653a205369676e6174757265206578706972656400000000604482015290519081900360640190fd5b6001600160a01b0380871660008181526002602090815260408083208054600180820190925582517f00000000000000000000000000000000000000000000000000000000000000008186015280840196909652958b166060860152608085019590955260a08085018a90528151808603909101815260c08501825280519083012061190160f01b60e08601527f000000000000000000000000000000000000000000000000000000000000000060e286015261010280860182905282518087039091018152610122860180845281519185019190912090859052610142860180845281905260ff8a1661016287015261018286018990526101a2860188905291519095919491926101c2808401939192601f1981019281900390910190855afa158015610f57573d6000803e3d6000fd5b5050604051601f1901519150506001600160a01b03811615801590610f8d5750886001600160a01b0316816001600160a01b0316145b610fde576040805162461bcd60e51b815260206004820152601c60248201527f44656c656761626c653a20496e76616c6964207369676e617475726500000000604482015290519081900360640190fd5b610fe88989612a87565b505050505050505050565b600085644554482d4160d81b8114806110125750634348414960e01b81145b61104d5760405162461bcd60e51b815260040180806020018281038252602381526020018061306b6023913960400191505060405180910390fd5b85611057816125ec565b6110a8576040805162461bcd60e51b815260206004820152601f60248201527f436f6e74726f6c6c65723a20556e7265636f676e697a65642073657269657300604482015290519081900360640190fd5b8560405180606001604052806023815260200161308e60239139336001600160a01b03831614806110fc57506001600160a01b038216600090815260036020908152604080832033845290915290205460ff165b81906111495760405162461bcd60e51b8152602060048201818152835160248401528351909283926044909101919085019080838360008315610ace578181015183820152602001610ab6565b50600b5460ff1615156001146111905760405162461bcd60e51b81526004018080602001828103825260278152602001806130b16027913960400191505060405180910390fd5b60006111a6876111a18d8d8c6125ac565b612b6e565b6006546040805163f939199160e01b81526001600160a01b038d8116600483015260248201859052915193945091169163f93919919160448082019260009290919082900301818387803b1580156111fd57600080fd5b505af1158015611211573d6000803e3d6000fd5b5050505061122b8b8b8a6112268f8f87610c0c565b612b84565b9a9950505050505050505050565b600083644554482d4160d81b8114806112585750634348414960e01b81145b6112935760405162461bcd60e51b815260040180806020018281038252602381526020018061306b6023913960400191505060405180910390fd5b60008481526007602090815260409182902054825163ae4e7fdf60e01b815292516001600160a01b0390911692839263ae4e7fdf92600480840193829003018186803b1580156112e257600080fd5b505afa1580156112f6573d6000803e3d6000fd5b505050506040513d602081101561130c57600080fd5b505115610dbd57644554482d4160d81b86141561139157610d6484826001600160a01b031663abf1614b6040518163ffffffff1660e01b815260040160206040518083038186803b15801561136057600080fd5b505afa158015611374573d6000803e3d6000fd5b505050506040513d602081101561138a57600080fd5b5051612c36565b634348414960e01b861415610db857610d6484826001600160a01b031663cb2401986040518163ffffffff1660e01b815260040160206040518083038186803b15801561136057600080fd5b600082644554482d4160d81b8114806113fc5750634348414960e01b81145b6114375760405162461bcd60e51b815260040180806020018281038252602381526020018061306b6023913960400191505060405180910390fd5b644554482d4160d81b8414156114ea576004805460408051636cb1c69b60e11b8152644554482d4160d81b93810193909352516000926001600160a01b039092169163d9638d369160248083019260a0929190829003018186803b15801561149e57600080fd5b505afa1580156114b2573d6000803e3d6000fd5b505050506040513d60a08110156114c857600080fd5b506040015190506114e26114dc868661265f565b82612c58565b925050611588565b634348414960e01b84141561158857611585611506858561265f565b600560009054906101000a90046001600160a01b03166001600160a01b031663c92aecc46040518163ffffffff1660e01b815260040160206040518083038186803b15801561155457600080fd5b505afa158015611568573d6000803e3d6000fd5b505050506040513d602081101561157e57600080fd5b5051612c58565b91505b5092915050565b6004546001600160a01b031681565b7f000000000000000000000000000000000000000000000000000000000000000081565b6005546001600160a01b031681565b60008281526009602090815260408083206001600160a01b0385168452909152812054801580611585575066b1a2bc2ec500001090505b92915050565b66b1a2bc2ec5000081565b600160209081526000928352604080842090915290825290205460ff1681565b6006546001600160a01b031681565b6116506129f4565b6000546001600160a01b039081169116146116a0576040805162461bcd60e51b8152602060048201819052602482015260008051602061311c833981519152604482015290519081900360640190fd5b600080546040516001600160a01b03909116907f8be0079c531659141344cd1fd0a4f28419497f9722a3daafe3b4186f6b6457e0908390a3600080546001600160a01b0319169055565b60006116f6838361265f565b61170084846123d0565b10159392505050565b84644554482d4160d81b8114806117265750634348414960e01b81145b6117615760405162461bcd60e51b815260040180806020018281038252602381526020018061306b6023913960400191505060405180910390fd5b8461176b816125ec565b6117bc576040805162461bcd60e51b815260206004820152601f60248201527f436f6e74726f6c6c65723a20556e7265636f676e697a65642073657269657300604482015290519081900360640190fd5b8460405180606001604052806023815260200161308e60239139336001600160a01b038316148061181057506001600160a01b038216600090815260036020908152604080832033845290915290205460ff165b819061185d5760405162461bcd60e51b8152602060048201818152835160248401528351909283926044909101919085019080838360008315610ace578181015183820152602001610ab6565b50600b5460ff1615156001146118a45760405162461bcd60e51b81526004018080602001828103825260278152602001806130b16027913960400191505060405180910390fd5b6000888152600760209081526040808320548c8452600a83528184208c855283528184206001600160a01b038c8116865293529220549116906118ed908763ffffffff6129f816565b60008b8152600a602090815260408083208d845282528083206001600160a01b038d1684529091529020556119228a896116ea565b61196f576040805162461bcd60e51b815260206004820152601960248201527810dbdb9d1c9bdb1b195c8e88151bdbc81b5d58da081919589d603a1b604482015290519081900360640190fd5b806001600160a01b03166340c10f1988886040518363ffffffff1660e01b815260040180836001600160a01b03166001600160a01b0316815260200182815260200192505050600060405180830381600087803b1580156119cf57600080fd5b505af11580156119e3573d6000803e3d6000fd5b50505050876001600160a01b0316898b7f3dc0ed286b1afbc2228a1e7f81fc3f66aa9f423dca0c6a283eafa53e93adefbe611a1d8a612cc4565b60408051918252519081900360200190a450505050505050505050565b6000546001600160a01b031690565b83644554482d4160d81b811480611a665750634348414960e01b81145b611aa15760405162461bcd60e51b815260040180806020018281038252602381526020018061306b6023913960400191505060405180910390fd5b8360405180606001604052806023815260200161308e60239139336001600160a01b0383161480611af557506001600160a01b038216600090815260036020908152604080832033845290915290205460ff165b8190611b425760405162461bcd60e51b8152602060048201818152835160248401528351909283926044909101919085019080838360008315610ace578181015183820152602001610ab6565b50600b5460ff161515600114611b895760405162461bcd60e51b81526004018080602001828103825260278152602001806130b16027913960400191505060405180910390fd5b60008781526009602090815260408083206001600160a01b038a168452909152902054611bbc908563ffffffff612d2616565b60008881526009602090815260408083206001600160a01b038b168452909152902055611be987876116ea565b611c36576040805162461bcd60e51b815260206004820152601960248201527810dbdb9d1c9bdb1b195c8e88151bdbc81b5d58da081919589d603a1b604482015290519081900360640190fd5b644554482d4160d81b871415611d0c57611c5087876115d1565b611c9a576040805162461bcd60e51b815260206004820152601660248201527510dbdb9d1c9bdb1b195c8e8810995b1bddc8191d5cdd60521b604482015290519081900360640190fd5b600654604080516322b25b7f60e21b81526001600160a01b0388811660048301526024820188905291519190921691638ac96dfc91604480830192600092919082900301818387803b158015611cef57600080fd5b505af1158015611d03573d6000803e3d6000fd5b50505050611d89565b634348414960e01b871415611d895760065460408051639fa8368960e01b81526001600160a01b0388811660048301526024820188905291519190921691639fa8368991604480830192600092919082900301818387803b158015611d7057600080fd5b505af1158015611d84573d6000803e3d6000fd5b505050505b856001600160a01b0316877fce1994727cf164e30801f140b3019e0d4862d430438ab41de1144b5db719c583611dbe87612cc4565b604080516000929092038252519081900360200190a350505050505050565b600a60209081526000938452604080852082529284528284209052825290205481565b600b5460ff1681565b6b033b2e3c9fd0803ce800000081565b644554482d4160d81b81565b83644554482d4160d81b811480611e425750634348414960e01b81145b611e7d5760405162461bcd60e51b815260040180806020018281038252602381526020018061306b6023913960400191505060405180910390fd5b8360405180606001604052806023815260200161308e60239139336001600160a01b0383161480611ed157506001600160a01b038216600090815260036020908152604080832033845290915290205460ff165b8190611f1e5760405162461bcd60e51b8152602060048201818152835160248401528351909283926044909101919085019080838360008315610ace578181015183820152602001610ab6565b50600b5460ff161515600114611f655760405162461bcd60e51b81526004018080602001828103825260278152602001806130b16027913960400191505060405180910390fd5b60008781526009602090815260408083206001600160a01b0389168452909152902054611f98908563ffffffff6129f816565b60008881526009602090815260408083206001600160a01b038a168452909152902055644554482d4160d81b87141561209157611fd587866115d1565b61201f576040805162461bcd60e51b815260206004820152601660248201527510dbdb9d1c9bdb1b195c8e8810995b1bddc8191d5cdd60521b604482015290519081900360640190fd5b6006546040805163134b55ef60e31b81526001600160a01b0389811660048301526024820188905291519190921691639a5aaf7891604480830192600092919082900301818387803b15801561207457600080fd5b505af1158015612088573d6000803e3d6000fd5b5050505061210e565b634348414960e01b87141561210e5760065460408051631997c36160e01b81526001600160a01b0389811660048301526024820188905291519190921691631997c36191604480830192600092919082900301818387803b1580156120f557600080fd5b505af1158015612109573d6000803e3d6000fd5b505050505b846001600160a01b0316877fce1994727cf164e30801f140b3019e0d4862d430438ab41de1144b5db719c58361214387612cc4565b60408051918252519081900360200190a350505050505050565b60026020526000908152604090205481565b634348414960e01b81565b600085644554482d4160d81b8114806121995750634348414960e01b81145b6121d45760405162461bcd60e51b815260040180806020018281038252602381526020018061306b6023913960400191505060405180910390fd5b856121de816125ec565b61222f576040805162461bcd60e51b815260206004820152601f60248201527f436f6e74726f6c6c65723a20556e7265636f676e697a65642073657269657300604482015290519081900360640190fd5b8560405180606001604052806023815260200161308e60239139336001600160a01b038316148061228357506001600160a01b038216600090815260036020908152604080832033845290915290205460ff165b81906122d05760405162461bcd60e51b8152602060048201818152835160248401528351909283926044909101919085019080838360008315610ace578181015183820152602001610ab6565b50600b5460ff1615156001146123175760405162461bcd60e51b81526004018080602001828103825260278152602001806130b16027913960400191505060405180910390fd5b60008a8152600a602090815260408083208c845282528083206001600160a01b038b16845290915281205461234d908890612b6e565b60008b815260076020526040808220548151632770a7eb60e21b81526001600160a01b038e81166004830152602482018690529251949550911692639dc29fac9260448084019391929182900301818387803b1580156123ac57600080fd5b505af11580156123c0573d6000803e3d6000fd5b5050505061122b8b8b8a84612b84565b6000644554482d4160d81b8314156124a1576004805460408051636cb1c69b60e11b8152644554482d4160d81b93810193909352516000926001600160a01b039092169163d9638d369160248083019260a0929190829003018186803b15801561243957600080fd5b505afa15801561244d573d6000803e3d6000fd5b505050506040513d60a081101561246357600080fd5b506040908101516000868152600960209081528382206001600160a01b0388168352905291909120549091506124999082612c36565b915050611608565b634348414960e01b831415612551576005546040805163324abb3160e21b815290516000926001600160a01b03169163c92aecc4916004808301926020929190829003018186803b1580156124f557600080fd5b505afa158015612509573d6000803e3d6000fd5b505050506040513d602081101561251f57600080fd5b505160008581526009602090815260408083206001600160a01b03881684529091529020549091506124999082612c36565b60405162461bcd60e51b81526004018080602001828103825260238152602001806130d86023913960400191505060405180910390fd5b7f000000000000000000000000000000000000000000000000000000000000000081565b6000838152600a6020908152604080832085845282528083206001600160a01b03851684529091528120546125e49085908590611239565b949350505050565b6000908152600760205260409020546001600160a01b0316151590565b6007602052600090815260409020546001600160a01b031681565b6008818154811061263157fe5b600091825260209091200154905081565b600960209081526000928352604080842090915290825290205481565b600080606060088054806020026020016040519081016040528092919081815260200182805480156126b057602002820191906000526020600020905b81548152602001906001019080831161269c575b50939450600093505050505b815181101561274e576000868152600a60205260408120835182908590859081106126e357fe5b602002602001015181526020019081526020016000206000876001600160a01b03166001600160a01b03168152602001908152602001600020541115612746576127418683838151811061273357fe5b6020026020010151876125ac565b830192505b6001016126bc565b5090949350505050565b6127623382612a87565b50565b61276d6129f4565b6000546001600160a01b039081169116146127bd576040805162461bcd60e51b8152602060048201819052602482015260008051602061311c833981519152604482015290519081900360640190fd5b60005b81518110156127ee576127e6838383815181106127d957fe5b60200260200101516108f2565b6001016127c0565b505050565b6276a70081565b6128026129f4565b6000546001600160a01b03908116911614612852576040805162461bcd60e51b8152602060048201819052602482015260008051602061311c833981519152604482015290519081900360640190fd5b6001600160a01b0381166128975760405162461bcd60e51b81526004018080602001828103825260268152602001806130456026913960400191505060405180910390fd5b600080546040516001600160a01b03808516939216917f8be0079c531659141344cd1fd0a4f28419497f9722a3daafe3b4186f6b6457e091a3600080546001600160a01b0319166001600160a01b0392909216919091179055565b600360209081526000928352604080842090915290825290205460ff1681565b6127623382612d68565b600660009054906101000a90046001600160a01b03166001600160a01b031663957aa58c6040518163ffffffff1660e01b815260040160206040518083038186803b15801561296a57600080fd5b505afa15801561297e573d6000803e3d6000fd5b505050506040513d602081101561299457600080fd5b5051156129e8576040805162461bcd60e51b815260206004820152601c60248201527f436f6e74726f6c6c65723a205472656173757279206973206c69766500000000604482015290519081900360640190fd5b600b805460ff19169055565b3390565b600082820183811015612a52576040805162461bcd60e51b815260206004820152601b60248201527f536166654d6174683a206164646974696f6e206f766572666c6f770000000000604482015290519081900360640190fd5b9392505050565b6000612a5282612a7b856b033b2e3c9fd0803ce800000063ffffffff612e4616565b9063ffffffff612e9f16565b6001600160a01b0380831660009081526003602090815260408083209385168352929052205460ff1615612b02576040805162461bcd60e51b815260206004820152601c60248201527f44656c656761626c653a20416c72656164792064656c65676174656400000000604482015290519081900360640190fd5b6001600160a01b03808316600081815260036020908152604080832094861680845294825291829020805460ff19166001908117909155825190815291517f045b0fef01772d2fbba53dbd38c9777806eac0865b00af43abcfbcaf50da92069281900390910190a35050565b6000818310612b7d5781612a52565b5090919050565b6000848152600a6020908152604080832086845282528083206001600160a01b0386168452909152902054612bbf908263ffffffff612d2616565b6000858152600a6020908152604080832087845282528083206001600160a01b03871680855292529091209190915583857f3dc0ed286b1afbc2228a1e7f81fc3f66aa9f423dca0c6a283eafa53e93adefbe612c1a85612cc4565b604080516000929092038252519081900360200190a450505050565b6000612a526b033b2e3c9fd0803ce8000000612a7b858563ffffffff612e4616565b600080612c77846b033b2e3c9fd0803ce800000063ffffffff612e4616565b9050612c89818463ffffffff612ee116565b15612cb457612caf6001612ca3838663ffffffff612e9f16565b9063ffffffff6129f816565b611585565b611585818463ffffffff612e9f16565b60006001600160ff1b03821115612d22576040805162461bcd60e51b815260206004820152601960248201527f436f6e74726f6c6c65723a2043617374206f766572666c6f7700000000000000604482015290519081900360640190fd5b5090565b6000612a5283836040518060400160405280601e81526020017f536166654d6174683a207375627472616374696f6e206f766572666c6f770000815250612f23565b6001600160a01b0380831660009081526003602090815260408083209385168352929052205460ff16612de2576040805162461bcd60e51b815260206004820152601e60248201527f44656c656761626c653a20416c726561647920756e64656c6567617465640000604482015290519081900360640190fd5b6001600160a01b038083166000818152600360209081526040808320948616808452948252808320805460ff191690558051928352517f045b0fef01772d2fbba53dbd38c9777806eac0865b00af43abcfbcaf50da92069281900390910190a35050565b600082612e5557506000611608565b82820282848281612e6257fe5b0414612a525760405162461bcd60e51b81526004018080602001828103825260218152602001806130fb6021913960400191505060405180910390fd5b6000612a5283836040518060400160405280601a81526020017f536166654d6174683a206469766973696f6e206279207a65726f000000000000815250612f7d565b6000612a5283836040518060400160405280601881526020017f536166654d6174683a206d6f64756c6f206279207a65726f0000000000000000815250612fe2565b60008184841115612f755760405162461bcd60e51b8152602060048201818152835160248401528351909283926044909101919085019080838360008315610ace578181015183820152602001610ab6565b505050900390565b60008183612fcc5760405162461bcd60e51b8152602060048201818152835160248401528351909283926044909101919085019080838360008315610ace578181015183820152602001610ab6565b506000838581612fd857fe5b0495945050505050565b600081836130315760405162461bcd60e51b8152602060048201818152835160248401528351909283926044909101919085019080838360008315610ace578181015183820152602001610ab6565b5082848161303b57fe5b0694935050505056fe4f776e61626c653a206e6577206f776e657220697320746865207a65726f2061646472657373436f6e74726f6c6c65723a20556e7265636f676e697a656420636f6c6c61746572616c436f6e74726f6c6c65723a204f6e6c7920486f6c646572204f722044656c6567617465436f6e74726f6c6c65723a204e6f7420617661696c61626c6520647572696e6720756e77696e64436f6e74726f6c6c65723a20496e76616c696420636f6c6c61746572616c2074797065536166654d6174683a206d756c7469706c69636174696f6e206f766572666c6f774f776e61626c653a2063616c6c6572206973206e6f7420746865206f776e6572a264697066735822122030b4ab096465726c6a36ee3b636cce5a14364ad3489988c59e8513cfd24612aa64736f6c634300060a0033454950373132446f6d61696e28737472696e67206e616d652c737472696e672076657273696f6e2c75696e7432353620636861696e49642c6164647265737320766572696679696e67436f6e747261637429",
  "immutableReferences": {
    "9920": [
      {
        "length": 32,
        "start": 3663
      },
      {
        "length": 32,
        "start": 9610
      }
    ],
    "9922": [
      {
        "length": 32,
        "start": 3764
      },
      {
        "length": 32,
        "start": 5536
      }
    ]
  },
  "source": "// SPDX-License-Identifier: GPL-3.0-or-later\npragma solidity ^0.6.10;\n\nimport \"@openzeppelin/contracts/math/Math.sol\";\nimport \"@openzeppelin/contracts/math/SafeMath.sol\";\nimport \"./interfaces/IVat.sol\";\nimport \"./interfaces/IPot.sol\";\nimport \"./interfaces/ITreasury.sol\";\nimport \"./interfaces/IController.sol\";\nimport \"./interfaces/IFYDai.sol\";\nimport \"./helpers/Delegable.sol\";\nimport \"./helpers/DecimalMath.sol\";\nimport \"./helpers/Orchestrated.sol\";\n\n\n/**\n * @dev The Controller manages collateral and debt levels for all users, and it is a major user entry point for the Yield protocol.\n * Controller keeps track of a number of fyDai contracts.\n * Controller allows users to post and withdraw Chai and Weth collateral.\n * Any transactions resulting in a user weth collateral below dust are reverted.\n * Controller allows users to borrow fyDai against their Chai and Weth collateral.\n * Controller allows users to repay their fyDai debt with fyDai or with Dai.\n * Controller integrates with fyDai contracts for minting fyDai on borrowing, and burning fyDai on repaying debt with fyDai.\n * Controller relies on Treasury for all other asset transfers.\n * Controller allows orchestrated contracts to erase any amount of debt or collateral for an user. This is to be used during liquidations or during unwind.\n * Users can delegate the control of their accounts in Controllers to any address.\n */\ncontract Controller is IController, Orchestrated(), Delegable(), DecimalMath {\n    using SafeMath for uint256;\n\n    event Posted(bytes32 indexed collateral, address indexed user, int256 amount);\n    event Borrowed(bytes32 indexed collateral, uint256 indexed maturity, address indexed user, int256 amount);\n\n    bytes32 public constant CHAI = \"CHAI\";\n    bytes32 public constant WETH = \"ETH-A\";\n    uint256 public constant DUST = 50e15; // 0.05 ETH\n    uint256 public constant THREE_MONTHS = 7776000;\n\n    IVat public vat;\n    IPot public pot;\n    ITreasury public override treasury;\n\n    mapping(uint256 => IFYDai) public override series;                 // FYDai series, indexed by maturity\n    uint256[] public override seriesIterator;                         // We need to know all the series\n\n    mapping(bytes32 => mapping(address => uint256)) public override posted;                        // Collateral posted by each user\n    mapping(bytes32 => mapping(uint256 => mapping(address => uint256))) public override debtFYDai;  // Debt owed by each user, by series\n\n    bool public live = true;\n\n    /// @dev Set up addresses for vat, pot and Treasury.\n    constructor (\n        address treasury_,\n        address[] memory fyDais\n\n    ) public {\n        treasury = ITreasury(treasury_);\n        vat = treasury.vat();\n        pot = treasury.pot();\n        for (uint256 i = 0; i < fyDais.length; i += 1) {\n            addSeries(fyDais[i]);\n        }\n    }\n\n    /// @dev Modified functions only callable while the Controller is not unwinding due to a MakerDAO shutdown.\n    modifier onlyLive() {\n        require(live == true, \"Controller: Not available during unwind\");\n        _;\n    }\n\n    /// @dev Only valid collateral types are Weth and Chai.\n    modifier validCollateral(bytes32 collateral) {\n        require(\n            collateral == WETH || collateral == CHAI,\n            \"Controller: Unrecognized collateral\"\n        );\n        _;\n    }\n\n    /// @dev Only series added through `addSeries` are valid.\n    modifier validSeries(uint256 maturity) {\n        require(\n            containsSeries(maturity),\n            \"Controller: Unrecognized series\"\n        );\n        _;\n    }\n\n    /// @dev Safe casting from uint256 to int256\n    function toInt256(uint256 x) internal pure returns(int256) {\n        require(\n            x <= uint256(type(int256).max),\n            \"Controller: Cast overflow\"\n        );\n        return int256(x);\n    }\n\n    /// @dev Disables post, withdraw, borrow and repay. To be called only when Treasury shuts down.\n    function shutdown() public override {\n        require(\n            treasury.live() == false,\n            \"Controller: Treasury is live\"\n        );\n        live = false;\n    }\n\n    /// @dev Return if the borrowing power for a given collateral of a user is equal or greater\n    /// than its debt for the same collateral\n    /// @param collateral Valid collateral type\n    /// @param user Address of the user vault\n    function isCollateralized(bytes32 collateral, address user) public view override returns (bool) {\n        return powerOf(collateral, user) >= totalDebtDai(collateral, user);\n    }\n\n    /// @dev Return if the collateral of an user is between zero and the dust level\n    /// @param collateral Valid collateral type\n    /// @param user Address of the user vault\n    function aboveDustOrZero(bytes32 collateral, address user) public view returns (bool) {\n        uint256 postedCollateral = posted[collateral][user];\n        return postedCollateral == 0 || DUST < postedCollateral;\n    }\n\n    /// @dev Return the total number of series registered\n    function totalSeries() public view override returns (uint256) {\n        return seriesIterator.length;\n    }\n\n    /// @dev Returns if a series has been added to the Controller.\n    /// @param maturity Maturity of the series to verify.\n    function containsSeries(uint256 maturity) public view override returns (bool) {\n        return address(series[maturity]) != address(0);\n    }\n\n    /// @dev Adds an fyDai series to this Controller\n    /// After deployment, ownership should be renounced, so that no more series can be added.\n    /// @param fyDaiContract Address of the fyDai series to add.\n    function addSeries(address fyDaiContract) private {\n        uint256 maturity = IFYDai(fyDaiContract).maturity();\n        require(\n            !containsSeries(maturity),\n            \"Controller: Series already added\"\n        );\n        series[maturity] = IFYDai(fyDaiContract);\n        seriesIterator.push(maturity);\n    }\n\n    /// @dev Dai equivalent of an fyDai amount.\n    /// After maturity, the Dai value of an fyDai grows according to either the stability fee (for WETH collateral) or the Dai Saving Rate (for Chai collateral).\n    /// @param collateral Valid collateral type\n    /// @param maturity Maturity of an added series\n    /// @param fyDaiAmount Amount of fyDai to convert.\n    /// @return Dai equivalent of an fyDai amount.\n    function inDai(bytes32 collateral, uint256 maturity, uint256 fyDaiAmount)\n        public view override\n        validCollateral(collateral)\n        returns (uint256)\n    {\n        IFYDai fyDai = series[maturity];\n        if (fyDai.isMature()){\n            if (collateral == WETH){\n                return muld(fyDaiAmount, fyDai.rateGrowth());\n            } else if (collateral == CHAI) {\n                return muld(fyDaiAmount, fyDai.chiGrowth());\n            }\n        } else {\n            return fyDaiAmount;\n        }\n    }\n\n    /// @dev fyDai equivalent of a Dai amount.\n    /// After maturity, the fyDai value of a Dai decreases according to either the stability fee (for WETH collateral) or the Dai Saving Rate (for Chai collateral).\n    /// @param collateral Valid collateral type\n    /// @param maturity Maturity of an added series\n    /// @param daiAmount Amount of Dai to convert.\n    /// @return fyDai equivalent of a Dai amount.\n    function inFYDai(bytes32 collateral, uint256 maturity, uint256 daiAmount)\n        public view override\n        validCollateral(collateral)\n        returns (uint256)\n    {\n        IFYDai fyDai = series[maturity];\n        if (fyDai.isMature()){\n            if (collateral == WETH){\n                return divd(daiAmount, fyDai.rateGrowth());\n            } else if (collateral == CHAI) {\n                return divd(daiAmount, fyDai.chiGrowth());\n            }\n        } else {\n            return daiAmount;\n        }\n    }\n\n    /// @dev Debt in dai of an user\n    /// After maturity, the Dai debt of a position grows according to either the stability fee (for WETH collateral) or the Dai Saving Rate (for Chai collateral).\n    /// @param collateral Valid collateral type\n    /// @param maturity Maturity of an added series\n    /// @param user Address of the user vault\n    /// @return Debt in dai of an user\n    //\n    //                        rate_now\n    // debt_now = debt_mat * ----------\n    //                        rate_mat\n    //\n    function debtDai(bytes32 collateral, uint256 maturity, address user) public view override returns (uint256) {\n        return inDai(collateral, maturity, debtFYDai[collateral][maturity][user]);\n    }\n\n    /// @dev Total debt of an user across all series, in Dai\n    /// The debt is summed across all series, taking into account interest on the debt after a series matures.\n    /// This function loops through all maturities, limiting the contract to hundreds of maturities.\n    /// @param collateral Valid collateral type\n    /// @param user Address of the user vault\n    /// @return Total debt of an user across all series, in Dai\n    function totalDebtDai(bytes32 collateral, address user) public view override returns (uint256) {\n        uint256 totalDebt;\n        uint256[] memory _seriesIterator = seriesIterator;\n        for (uint256 i = 0; i < _seriesIterator.length; i += 1) {\n            if (debtFYDai[collateral][_seriesIterator[i]][user] > 0) {\n                totalDebt = totalDebt + debtDai(collateral, _seriesIterator[i], user);\n            }\n        } // We don't expect hundreds of maturities per controller\n        return totalDebt;\n    }\n\n    /// @dev Borrowing power (in dai) of a user for a specific series and collateral.\n    /// @param collateral Valid collateral type\n    /// @param user Address of the user vault\n    /// @return Borrowing power of an user in dai.\n    //\n    // powerOf[user](wad) = posted[user](wad) * price()(ray)\n    //\n    function powerOf(bytes32 collateral, address user) public view returns (uint256) {\n        // dai = price * collateral\n        if (collateral == WETH){\n            (,, uint256 spot,,) = vat.ilks(WETH);  // Stability fee and collateralization ratio for Weth\n            return muld(posted[collateral][user], spot);\n        } else if (collateral == CHAI) {\n            uint256 chi = pot.chi();\n            return muld(posted[collateral][user], chi);\n        } else {\n            revert(\"Controller: Invalid collateral type\");\n        }\n    }\n\n    /// @dev Returns the amount of collateral locked in borrowing operations.\n    /// @param collateral Valid collateral type.\n    /// @param user Address of the user vault.\n    function locked(bytes32 collateral, address user)\n        public view\n        validCollateral(collateral)\n        returns (uint256)\n    {\n        if (collateral == WETH){\n            (,, uint256 spot,,) = vat.ilks(WETH);  // Stability fee and collateralization ratio for Weth\n            return divdrup(totalDebtDai(collateral, user), spot);\n        } else if (collateral == CHAI) {\n            return divdrup(totalDebtDai(collateral, user), pot.chi());\n        }\n    }\n\n    /// @dev Takes collateral assets from `from` address, and credits them to `to` collateral account.\n    /// `from` can delegate to other addresses to take assets from him. Also needs to use `ERC20.approve`.\n    /// Calling ERC20.approve for Treasury contract is a prerequisite to this function\n    /// @param collateral Valid collateral type.\n    /// @param from Wallet to take collateral from.\n    /// @param to Yield vault to put the collateral in.\n    /// @param amount Amount of collateral to move.\n    // from --- Token ---> us(to)\n    function post(bytes32 collateral, address from, address to, uint256 amount)\n        public override \n        validCollateral(collateral)\n        onlyHolderOrDelegate(from, \"Controller: Only Holder Or Delegate\")\n        onlyLive\n    {\n        posted[collateral][to] = posted[collateral][to].add(amount);\n\n        if (collateral == WETH){\n            require(\n                aboveDustOrZero(collateral, to),\n                \"Controller: Below dust\"\n            );\n            treasury.pushWeth(from, amount);\n        } else if (collateral == CHAI) {\n            treasury.pushChai(from, amount);\n        }\n        \n        emit Posted(collateral, to, toInt256(amount));\n    }\n\n    /// @dev Returns collateral to `to` wallet, taking it from `from` Yield vault account.\n    /// `from` can delegate to other addresses to take assets from him.\n    /// @param collateral Valid collateral type.\n    /// @param from Yield vault to take collateral from.\n    /// @param to Wallet to put the collateral in.\n    /// @param amount Amount of collateral to move.\n    // us(from) --- Token ---> to\n    function withdraw(bytes32 collateral, address from, address to, uint256 amount)\n        public override\n        validCollateral(collateral)\n        onlyHolderOrDelegate(from, \"Controller: Only Holder Or Delegate\")\n        onlyLive\n    {\n        posted[collateral][from] = posted[collateral][from].sub(amount); // Will revert if not enough posted\n\n        require(\n            isCollateralized(collateral, from),\n            \"Controller: Too much debt\"\n        );\n\n        if (collateral == WETH){\n            require(\n                aboveDustOrZero(collateral, from),\n                \"Controller: Below dust\"\n            );\n            treasury.pullWeth(to, amount);\n        } else if (collateral == CHAI) {\n            treasury.pullChai(to, amount);\n        }\n\n        emit Posted(collateral, from, -toInt256(amount));\n    }\n\n    /// @dev Mint fyDai for a given series for wallet `to` by increasing the user debt in Yield vault `from`\n    /// `from` can delegate to other addresses to borrow using his vault.\n    /// The collateral needed changes according to series maturity and MakerDAO rate and chi, depending on collateral type.\n    /// @param collateral Valid collateral type.\n    /// @param maturity Maturity of an added series\n    /// @param from Yield vault that gets an increased debt.\n    /// @param to Wallet to put the fyDai in.\n    /// @param fyDaiAmount Amount of fyDai to borrow.\n    //\n    // posted[user](wad) >= (debtFYDai[user](wad)) * amount (wad)) * collateralization (ray)\n    //\n    // us(from) --- fyDai ---> to\n    // debt++\n    function borrow(bytes32 collateral, uint256 maturity, address from, address to, uint256 fyDaiAmount)\n        public override\n        validCollateral(collateral)\n        validSeries(maturity)\n        onlyHolderOrDelegate(from, \"Controller: Only Holder Or Delegate\")\n        onlyLive\n    {\n        IFYDai fyDai = series[maturity];\n\n        debtFYDai[collateral][maturity][from] = debtFYDai[collateral][maturity][from].add(fyDaiAmount);\n\n        require(\n            isCollateralized(collateral, from),\n            \"Controller: Too much debt\"\n        );\n\n        fyDai.mint(to, fyDaiAmount);\n        emit Borrowed(collateral, maturity, from, toInt256(fyDaiAmount));\n    }\n\n    /// @dev Burns fyDai from `from` wallet to repay debt in a Yield Vault.\n    /// User debt is decreased for the given collateral and fyDai series, in Yield vault `to`.\n    /// `from` can delegate to other addresses to take fyDai from him for the repayment.\n    /// @param collateral Valid collateral type.\n    /// @param maturity Maturity of an added series\n    /// @param from Wallet providing the fyDai for repayment.\n    /// @param to Yield vault to repay debt for.\n    /// @param fyDaiAmount Amount of fyDai to use for debt repayment.\n    //\n    //                                                  debt_nominal\n    // debt_discounted = debt_nominal - repay_amount * ---------------\n    //                                                  debt_now\n    //\n    // user(from) --- fyDai ---> us(to)\n    // debt--\n    function repayFYDai(bytes32 collateral, uint256 maturity, address from, address to, uint256 fyDaiAmount)\n        public override\n        validCollateral(collateral)\n        validSeries(maturity)\n        onlyHolderOrDelegate(from, \"Controller: Only Holder Or Delegate\")\n        onlyLive\n        returns (uint256)\n    {\n        uint256 toRepay = Math.min(fyDaiAmount, debtFYDai[collateral][maturity][to]);\n        series[maturity].burn(from, toRepay);\n        _repay(collateral, maturity, to, toRepay);\n        return toRepay;\n    }\n\n    /// @dev Burns Dai from `from` wallet to repay debt in a Yield Vault.\n    /// User debt is decreased for the given collateral and fyDai series, in Yield vault `to`.\n    /// The amount of debt repaid changes according to series maturity and MakerDAO rate and chi, depending on collateral type.\n    /// `from` can delegate to other addresses to take Dai from him for the repayment.\n    /// Calling ERC20.approve for Treasury contract is a prerequisite to this function\n    /// @param collateral Valid collateral type.\n    /// @param maturity Maturity of an added series\n    /// @param from Wallet providing the Dai for repayment.\n    /// @param to Yield vault to repay debt for.\n    /// @param daiAmount Amount of Dai to use for debt repayment.\n    //\n    //                                                  debt_nominal\n    // debt_discounted = debt_nominal - repay_amount * ---------------\n    //                                                  debt_now\n    //\n    // user --- dai ---> us\n    // debt--\n    function repayDai(bytes32 collateral, uint256 maturity, address from, address to, uint256 daiAmount)\n        public override\n        validCollateral(collateral)\n        validSeries(maturity)\n        onlyHolderOrDelegate(from, \"Controller: Only Holder Or Delegate\")\n        onlyLive\n        returns (uint256)\n    {\n        uint256 toRepay = Math.min(daiAmount, debtDai(collateral, maturity, to));\n        treasury.pushDai(from, toRepay);                                      // Have Treasury process the dai\n        _repay(collateral, maturity, to, inFYDai(collateral, maturity, toRepay));\n        return toRepay;\n    }\n\n    /// @dev Removes an amount of debt from an user's vault.\n    /// Internal function.\n    /// @param collateral Valid collateral type.\n    /// @param maturity Maturity of an added series\n    /// @param user Yield vault to repay debt for.\n    /// @param fyDaiAmount Amount of fyDai to use for debt repayment.\n\n    //\n    //                                                principal\n    // principal_repayment = gross_repayment * ----------------------\n    //                                          principal + interest\n    //    \n    function _repay(bytes32 collateral, uint256 maturity, address user, uint256 fyDaiAmount) internal {\n        debtFYDai[collateral][maturity][user] = debtFYDai[collateral][maturity][user].sub(fyDaiAmount);\n\n        emit Borrowed(collateral, maturity, user, -toInt256(fyDaiAmount));\n    }\n\n    /// @dev Removes all collateral and debt for an user, for a given collateral type.\n    /// This function can only be called by other Yield contracts, not users directly.\n    /// @param collateral Valid collateral type.\n    /// @param user Address of the user vault\n    /// @return The amounts of collateral and debt removed from Controller.\n    function erase(bytes32 collateral, address user)\n        public override\n        validCollateral(collateral)\n        onlyOrchestrated(\"Controller: Not Authorized\")\n        returns (uint256, uint256)\n    {\n        uint256 userCollateral = posted[collateral][user];\n        delete posted[collateral][user];\n\n        uint256 userDebt;\n        uint256[] memory _seriesIterator = seriesIterator;\n        for (uint256 i = 0; i < _seriesIterator.length; i += 1) {\n            uint256 maturity = _seriesIterator[i];\n            userDebt = userDebt.add(debtDai(collateral, maturity, user)); // SafeMath shouldn't be needed\n            delete debtFYDai[collateral][maturity][user];\n        } // We don't expect hundreds of maturities per controller\n\n        return (userCollateral, userDebt);\n    }\n}\n",
  "sourcePath": "/Users/brucedonovan/dev/yield/yDai/contracts/Controller.sol",
  "compiler": {
    "name": "solc",
    "version": "0.6.10+commit.00c0fcaf.Emscripten.clang"
  },
  "schemaVersion": "3.2.3",
  "updatedAt": "2020-10-06T08:33:41.768Z",
  "devdoc": {
    "details": "The Controller manages collateral and debt levels for all users, and it is a major user entry point for the Yield protocol. Controller keeps track of a number of fyDai contracts. Controller allows users to post and withdraw Chai and Weth collateral. Any transactions resulting in a user weth collateral below dust are reverted. Controller allows users to borrow fyDai against their Chai and Weth collateral. Controller allows users to repay their fyDai debt with fyDai or with Dai. Controller integrates with fyDai contracts for minting fyDai on borrowing, and burning fyDai on repaying debt with fyDai. Controller relies on Treasury for all other asset transfers. Controller allows orchestrated contracts to erase any amount of debt or collateral for an user. This is to be used during liquidations or during unwind. Users can delegate the control of their accounts in Controllers to any address.",
    "methods": {
      "aboveDustOrZero(bytes32,address)": {
        "details": "Return if the collateral of an user is between zero and the dust level",
        "params": {
          "collateral": "Valid collateral type",
          "user": "Address of the user vault"
        }
      },
      "addDelegate(address)": {
        "details": "Enable a delegate to act on the behalf of caller"
      },
      "addDelegateBySignature(address,address,uint256,uint8,bytes32,bytes32)": {
        "details": "Add a delegate through an encoded signature"
      },
      "batchOrchestrate(address,bytes4[])": {
        "details": "Adds orchestration for the provided function signatures"
      },
      "borrow(bytes32,uint256,address,address,uint256)": {
        "details": "Mint fyDai for a given series for wallet `to` by increasing the user debt in Yield vault `from` `from` can delegate to other addresses to borrow using his vault. The collateral needed changes according to series maturity and MakerDAO rate and chi, depending on collateral type.",
        "params": {
          "collateral": "Valid collateral type.",
          "from": "Yield vault that gets an increased debt.",
          "fyDaiAmount": "Amount of fyDai to borrow.",
          "maturity": "Maturity of an added series",
          "to": "Wallet to put the fyDai in."
        }
      },
      "constructor": {
        "details": "Set up addresses for vat, pot and Treasury."
      },
      "containsSeries(uint256)": {
        "details": "Returns if a series has been added to the Controller.",
        "params": {
          "maturity": "Maturity of the series to verify."
        }
      },
      "debtDai(bytes32,uint256,address)": {
        "details": "Debt in dai of an user After maturity, the Dai debt of a position grows according to either the stability fee (for WETH collateral) or the Dai Saving Rate (for Chai collateral).",
        "params": {
          "collateral": "Valid collateral type",
          "maturity": "Maturity of an added series",
          "user": "Address of the user vault"
        },
        "returns": {
          "_0": "Debt in dai of an user"
        }
      },
      "erase(bytes32,address)": {
        "details": "Removes all collateral and debt for an user, for a given collateral type. This function can only be called by other Yield contracts, not users directly.",
        "params": {
          "collateral": "Valid collateral type.",
          "user": "Address of the user vault"
        },
        "returns": {
          "_0": "The amounts of collateral and debt removed from Controller."
        }
      },
      "inDai(bytes32,uint256,uint256)": {
        "details": "Dai equivalent of an fyDai amount. After maturity, the Dai value of an fyDai grows according to either the stability fee (for WETH collateral) or the Dai Saving Rate (for Chai collateral).",
        "params": {
          "collateral": "Valid collateral type",
          "fyDaiAmount": "Amount of fyDai to convert.",
          "maturity": "Maturity of an added series"
        },
        "returns": {
          "_0": "Dai equivalent of an fyDai amount."
        }
      },
      "inFYDai(bytes32,uint256,uint256)": {
        "details": "fyDai equivalent of a Dai amount. After maturity, the fyDai value of a Dai decreases according to either the stability fee (for WETH collateral) or the Dai Saving Rate (for Chai collateral).",
        "params": {
          "collateral": "Valid collateral type",
          "daiAmount": "Amount of Dai to convert.",
          "maturity": "Maturity of an added series"
        },
        "returns": {
          "_0": "fyDai equivalent of a Dai amount."
        }
      },
      "isCollateralized(bytes32,address)": {
        "details": "Return if the borrowing power for a given collateral of a user is equal or greater than its debt for the same collateral",
        "params": {
          "collateral": "Valid collateral type",
          "user": "Address of the user vault"
        }
      },
      "locked(bytes32,address)": {
        "details": "Returns the amount of collateral locked in borrowing operations.",
        "params": {
          "collateral": "Valid collateral type.",
          "user": "Address of the user vault."
        }
      },
      "orchestrate(address,bytes4)": {
        "details": "Add orchestration",
        "params": {
          "signature": "bytes4 signature of the function we are giving orchestrated access to. It seems to me a bad idea to give access to humans, and would use this only for predictable smart contracts.",
          "user": "Address of user or contract having access to this contract."
        }
      },
      "owner()": {
        "details": "Returns the address of the current owner."
      },
      "post(bytes32,address,address,uint256)": {
        "details": "Takes collateral assets from `from` address, and credits them to `to` collateral account. `from` can delegate to other addresses to take assets from him. Also needs to use `ERC20.approve`. Calling ERC20.approve for Treasury contract is a prerequisite to this function",
        "params": {
          "amount": "Amount of collateral to move.",
          "collateral": "Valid collateral type.",
          "from": "Wallet to take collateral from.",
          "to": "Yield vault to put the collateral in."
        }
      },
      "powerOf(bytes32,address)": {
        "details": "Borrowing power (in dai) of a user for a specific series and collateral.",
        "params": {
          "collateral": "Valid collateral type",
          "user": "Address of the user vault"
        },
        "returns": {
          "_0": "Borrowing power of an user in dai."
        }
      },
      "renounceOwnership()": {
        "details": "Leaves the contract without owner. It will not be possible to call `onlyOwner` functions anymore. Can only be called by the current owner. NOTE: Renouncing ownership will leave the contract without an owner, thereby removing any functionality that is only available to the owner."
      },
      "repayDai(bytes32,uint256,address,address,uint256)": {
        "details": "Burns Dai from `from` wallet to repay debt in a Yield Vault. User debt is decreased for the given collateral and fyDai series, in Yield vault `to`. The amount of debt repaid changes according to series maturity and MakerDAO rate and chi, depending on collateral type. `from` can delegate to other addresses to take Dai from him for the repayment. Calling ERC20.approve for Treasury contract is a prerequisite to this function",
        "params": {
          "collateral": "Valid collateral type.",
          "daiAmount": "Amount of Dai to use for debt repayment.",
          "from": "Wallet providing the Dai for repayment.",
          "maturity": "Maturity of an added series",
          "to": "Yield vault to repay debt for."
        }
      },
      "repayFYDai(bytes32,uint256,address,address,uint256)": {
        "details": "Burns fyDai from `from` wallet to repay debt in a Yield Vault. User debt is decreased for the given collateral and fyDai series, in Yield vault `to`. `from` can delegate to other addresses to take fyDai from him for the repayment.",
        "params": {
          "collateral": "Valid collateral type.",
          "from": "Wallet providing the fyDai for repayment.",
          "fyDaiAmount": "Amount of fyDai to use for debt repayment.",
          "maturity": "Maturity of an added series",
          "to": "Yield vault to repay debt for."
        }
      },
      "revokeDelegate(address)": {
        "details": "Stop a delegate from acting on the behalf of caller"
      },
      "shutdown()": {
        "details": "Disables post, withdraw, borrow and repay. To be called only when Treasury shuts down."
      },
      "totalDebtDai(bytes32,address)": {
        "details": "Total debt of an user across all series, in Dai The debt is summed across all series, taking into account interest on the debt after a series matures. This function loops through all maturities, limiting the contract to hundreds of maturities.",
        "params": {
          "collateral": "Valid collateral type",
          "user": "Address of the user vault"
        },
        "returns": {
          "_0": "Total debt of an user across all series, in Dai"
        }
      },
      "totalSeries()": {
        "details": "Return the total number of series registered"
      },
      "transferOwnership(address)": {
        "details": "Transfers ownership of the contract to a new account (`newOwner`). Can only be called by the current owner."
      },
      "withdraw(bytes32,address,address,uint256)": {
        "details": "Returns collateral to `to` wallet, taking it from `from` Yield vault account. `from` can delegate to other addresses to take assets from him.",
        "params": {
          "amount": "Amount of collateral to move.",
          "collateral": "Valid collateral type.",
          "from": "Yield vault to take collateral from.",
          "to": "Wallet to put the collateral in."
        }
      }
    }
  },
  "userdoc": {
    "methods": {}
  }
}