{
  "contractName": "Controller",
  "abi": [
    {
      "inputs": [
        {
          "internalType": "address",
          "name": "vat_",
          "type": "address"
        },
        {
          "internalType": "address",
          "name": "pot_",
          "type": "address"
        },
        {
          "internalType": "address",
          "name": "treasury_",
          "type": "address"
        }
      ],
      "stateMutability": "nonpayable",
      "type": "constructor"
    },
    {
      "anonymous": false,
      "inputs": [
        {
          "indexed": true,
          "internalType": "bytes32",
          "name": "collateral",
          "type": "bytes32"
        },
        {
          "indexed": true,
          "internalType": "uint256",
          "name": "maturity",
          "type": "uint256"
        },
        {
          "indexed": true,
          "internalType": "address",
          "name": "user",
          "type": "address"
        },
        {
          "indexed": false,
          "internalType": "int256",
          "name": "amount",
          "type": "int256"
        }
      ],
      "name": "Borrowed",
      "type": "event"
    },
    {
      "anonymous": false,
      "inputs": [
        {
          "indexed": true,
          "internalType": "address",
          "name": "user",
          "type": "address"
        },
        {
          "indexed": true,
          "internalType": "address",
          "name": "delegate",
          "type": "address"
        },
        {
          "indexed": false,
          "internalType": "bool",
          "name": "enabled",
          "type": "bool"
        }
      ],
      "name": "Delegate",
      "type": "event"
    },
    {
      "anonymous": false,
      "inputs": [
        {
          "indexed": false,
          "internalType": "address",
          "name": "access",
          "type": "address"
        }
      ],
      "name": "GrantedAccess",
      "type": "event"
    },
    {
      "anonymous": false,
      "inputs": [
        {
          "indexed": true,
          "internalType": "address",
          "name": "previousOwner",
          "type": "address"
        },
        {
          "indexed": true,
          "internalType": "address",
          "name": "newOwner",
          "type": "address"
        }
      ],
      "name": "OwnershipTransferred",
      "type": "event"
    },
    {
      "anonymous": false,
      "inputs": [
        {
          "indexed": true,
          "internalType": "bytes32",
          "name": "collateral",
          "type": "bytes32"
        },
        {
          "indexed": true,
          "internalType": "address",
          "name": "user",
          "type": "address"
        },
        {
          "indexed": false,
          "internalType": "int256",
          "name": "amount",
          "type": "int256"
        }
      ],
      "name": "Posted",
      "type": "event"
    },
    {
      "inputs": [],
      "name": "CHAI",
      "outputs": [
        {
          "internalType": "bytes32",
          "name": "",
          "type": "bytes32"
        }
      ],
      "stateMutability": "view",
      "type": "function",
      "constant": true
    },
    {
      "inputs": [],
      "name": "DUST",
      "outputs": [
        {
          "internalType": "uint256",
          "name": "",
          "type": "uint256"
        }
      ],
      "stateMutability": "view",
      "type": "function",
      "constant": true
    },
    {
      "inputs": [],
      "name": "UNIT",
      "outputs": [
        {
          "internalType": "uint256",
          "name": "",
          "type": "uint256"
        }
      ],
      "stateMutability": "view",
      "type": "function",
      "constant": true
    },
    {
      "inputs": [],
      "name": "WETH",
      "outputs": [
        {
          "internalType": "bytes32",
          "name": "",
          "type": "bytes32"
        }
      ],
      "stateMutability": "view",
      "type": "function",
      "constant": true
    },
    {
      "inputs": [
        {
          "internalType": "address",
          "name": "delegate",
          "type": "address"
        }
      ],
      "name": "addDelegate",
      "outputs": [],
      "stateMutability": "nonpayable",
      "type": "function"
    },
    {
      "inputs": [
        {
          "internalType": "bytes32",
          "name": "",
          "type": "bytes32"
        },
        {
          "internalType": "uint256",
          "name": "",
          "type": "uint256"
        },
        {
          "internalType": "address",
          "name": "",
          "type": "address"
        }
      ],
      "name": "debtYDai",
      "outputs": [
        {
          "internalType": "uint256",
          "name": "",
          "type": "uint256"
        }
      ],
      "stateMutability": "view",
      "type": "function",
      "constant": true
    },
    {
      "inputs": [],
      "name": "live",
      "outputs": [
        {
          "internalType": "bool",
          "name": "",
          "type": "bool"
        }
      ],
      "stateMutability": "view",
      "type": "function",
      "constant": true
    },
    {
      "inputs": [
        {
          "internalType": "address",
          "name": "user",
          "type": "address"
        }
      ],
      "name": "orchestrate",
      "outputs": [],
      "stateMutability": "nonpayable",
      "type": "function"
    },
    {
      "inputs": [],
      "name": "owner",
      "outputs": [
        {
          "internalType": "address",
          "name": "",
          "type": "address"
        }
      ],
      "stateMutability": "view",
      "type": "function",
      "constant": true
    },
    {
      "inputs": [
        {
          "internalType": "bytes32",
          "name": "",
          "type": "bytes32"
        },
        {
          "internalType": "address",
          "name": "",
          "type": "address"
        }
      ],
      "name": "posted",
      "outputs": [
        {
          "internalType": "uint256",
          "name": "",
          "type": "uint256"
        }
      ],
      "stateMutability": "view",
      "type": "function",
      "constant": true
    },
    {
      "inputs": [],
      "name": "renounceOwnership",
      "outputs": [],
      "stateMutability": "nonpayable",
      "type": "function"
    },
    {
      "inputs": [
        {
          "internalType": "address",
          "name": "delegate",
          "type": "address"
        }
      ],
      "name": "revokeDelegate",
      "outputs": [],
      "stateMutability": "nonpayable",
      "type": "function"
    },
    {
      "inputs": [
        {
          "internalType": "uint256",
          "name": "",
          "type": "uint256"
        }
      ],
      "name": "series",
      "outputs": [
        {
          "internalType": "contract IYDai",
          "name": "",
          "type": "address"
        }
      ],
      "stateMutability": "view",
      "type": "function",
      "constant": true
    },
    {
      "inputs": [
        {
          "internalType": "uint256",
          "name": "",
          "type": "uint256"
        }
      ],
      "name": "seriesIterator",
      "outputs": [
        {
          "internalType": "uint256",
          "name": "",
          "type": "uint256"
        }
      ],
      "stateMutability": "view",
      "type": "function",
      "constant": true
    },
    {
      "inputs": [],
      "name": "totalChaiPosted",
      "outputs": [
        {
          "internalType": "uint256",
          "name": "",
          "type": "uint256"
        }
      ],
      "stateMutability": "view",
      "type": "function",
      "constant": true
    },
    {
      "inputs": [
        {
          "internalType": "bytes32",
          "name": "",
          "type": "bytes32"
        },
        {
          "internalType": "uint256",
          "name": "",
          "type": "uint256"
        }
      ],
      "name": "totalDebtYDai",
      "outputs": [
        {
          "internalType": "uint256",
          "name": "",
          "type": "uint256"
        }
      ],
      "stateMutability": "view",
      "type": "function",
      "constant": true
    },
    {
      "inputs": [
        {
          "internalType": "address",
          "name": "newOwner",
          "type": "address"
        }
      ],
      "name": "transferOwnership",
      "outputs": [],
      "stateMutability": "nonpayable",
      "type": "function"
    },
    {
      "inputs": [],
      "name": "totalSeries",
      "outputs": [
        {
          "internalType": "uint256",
          "name": "",
          "type": "uint256"
        }
      ],
      "stateMutability": "view",
      "type": "function",
      "constant": true
    },
    {
      "inputs": [
        {
          "internalType": "uint256",
          "name": "maturity",
          "type": "uint256"
        }
      ],
      "name": "containsSeries",
      "outputs": [
        {
          "internalType": "bool",
          "name": "",
          "type": "bool"
        }
      ],
      "stateMutability": "view",
      "type": "function",
      "constant": true
    },
    {
      "inputs": [
        {
          "internalType": "address",
          "name": "yDaiContract",
          "type": "address"
        }
      ],
      "name": "addSeries",
      "outputs": [],
      "stateMutability": "nonpayable",
      "type": "function"
    },
    {
      "inputs": [],
      "name": "shutdown",
      "outputs": [],
      "stateMutability": "nonpayable",
      "type": "function"
    },
    {
      "inputs": [
        {
          "internalType": "bytes32",
          "name": "collateral",
          "type": "bytes32"
        },
        {
          "internalType": "uint256",
          "name": "maturity",
          "type": "uint256"
        },
        {
          "internalType": "uint256",
          "name": "yDaiAmount",
          "type": "uint256"
        }
      ],
      "name": "inDai",
      "outputs": [
        {
          "internalType": "uint256",
          "name": "",
          "type": "uint256"
        }
      ],
      "stateMutability": "nonpayable",
      "type": "function"
    },
    {
      "inputs": [
        {
          "internalType": "bytes32",
          "name": "collateral",
          "type": "bytes32"
        },
        {
          "internalType": "uint256",
          "name": "maturity",
          "type": "uint256"
        },
        {
          "internalType": "uint256",
          "name": "daiAmount",
          "type": "uint256"
        }
      ],
      "name": "inYDai",
      "outputs": [
        {
          "internalType": "uint256",
          "name": "",
          "type": "uint256"
        }
      ],
      "stateMutability": "nonpayable",
      "type": "function"
    },
    {
      "inputs": [
        {
          "internalType": "bytes32",
          "name": "collateral",
          "type": "bytes32"
        },
        {
          "internalType": "uint256",
          "name": "maturity",
          "type": "uint256"
        },
        {
          "internalType": "address",
          "name": "user",
          "type": "address"
        }
      ],
      "name": "debtDai",
      "outputs": [
        {
          "internalType": "uint256",
          "name": "",
          "type": "uint256"
        }
      ],
      "stateMutability": "nonpayable",
      "type": "function"
    },
    {
      "inputs": [
        {
          "internalType": "bytes32",
          "name": "collateral",
          "type": "bytes32"
        },
        {
          "internalType": "address",
          "name": "user",
          "type": "address"
        }
      ],
      "name": "totalDebtDai",
      "outputs": [
        {
          "internalType": "uint256",
          "name": "",
          "type": "uint256"
        }
      ],
      "stateMutability": "nonpayable",
      "type": "function"
    },
    {
      "inputs": [
        {
          "internalType": "bytes32",
          "name": "collateral",
          "type": "bytes32"
        },
        {
          "internalType": "address",
          "name": "user",
          "type": "address"
        }
      ],
      "name": "powerOf",
      "outputs": [
        {
          "internalType": "uint256",
          "name": "",
          "type": "uint256"
        }
      ],
      "stateMutability": "nonpayable",
      "type": "function"
    },
    {
      "inputs": [
        {
          "internalType": "bytes32",
          "name": "collateral",
          "type": "bytes32"
        },
        {
          "internalType": "address",
          "name": "user",
          "type": "address"
        }
      ],
      "name": "isCollateralized",
      "outputs": [
        {
          "internalType": "bool",
          "name": "",
          "type": "bool"
        }
      ],
      "stateMutability": "nonpayable",
      "type": "function"
    },
    {
      "inputs": [
        {
          "internalType": "bytes32",
          "name": "collateral",
          "type": "bytes32"
        },
        {
          "internalType": "address",
          "name": "user",
          "type": "address"
        }
      ],
      "name": "aboveDustOrZero",
      "outputs": [
        {
          "internalType": "bool",
          "name": "",
          "type": "bool"
        }
      ],
      "stateMutability": "view",
      "type": "function",
      "constant": true
    },
    {
      "inputs": [
        {
          "internalType": "bytes32",
          "name": "collateral",
          "type": "bytes32"
        },
        {
          "internalType": "address",
          "name": "from",
          "type": "address"
        },
        {
          "internalType": "address",
          "name": "to",
          "type": "address"
        },
        {
          "internalType": "uint256",
          "name": "amount",
          "type": "uint256"
        }
      ],
      "name": "post",
      "outputs": [],
      "stateMutability": "nonpayable",
      "type": "function"
    },
    {
      "inputs": [
        {
          "internalType": "bytes32",
          "name": "collateral",
          "type": "bytes32"
        },
        {
          "internalType": "address",
          "name": "from",
          "type": "address"
        },
        {
          "internalType": "address",
          "name": "to",
          "type": "address"
        },
        {
          "internalType": "uint256",
          "name": "amount",
          "type": "uint256"
        }
      ],
      "name": "withdraw",
      "outputs": [],
      "stateMutability": "nonpayable",
      "type": "function"
    },
    {
      "inputs": [
        {
          "internalType": "bytes32",
          "name": "collateral",
          "type": "bytes32"
        },
        {
          "internalType": "uint256",
          "name": "maturity",
          "type": "uint256"
        },
        {
          "internalType": "address",
          "name": "from",
          "type": "address"
        },
        {
          "internalType": "address",
          "name": "to",
          "type": "address"
        },
        {
          "internalType": "uint256",
          "name": "yDaiAmount",
          "type": "uint256"
        }
      ],
      "name": "borrow",
      "outputs": [],
      "stateMutability": "nonpayable",
      "type": "function"
    },
    {
      "inputs": [
        {
          "internalType": "bytes32",
          "name": "collateral",
          "type": "bytes32"
        },
        {
          "internalType": "uint256",
          "name": "maturity",
          "type": "uint256"
        },
        {
          "internalType": "address",
          "name": "from",
          "type": "address"
        },
        {
          "internalType": "address",
          "name": "to",
          "type": "address"
        },
        {
          "internalType": "uint256",
          "name": "yDaiAmount",
          "type": "uint256"
        }
      ],
      "name": "repayYDai",
      "outputs": [],
      "stateMutability": "nonpayable",
      "type": "function"
    },
    {
      "inputs": [
        {
          "internalType": "bytes32",
          "name": "collateral",
          "type": "bytes32"
        },
        {
          "internalType": "uint256",
          "name": "maturity",
          "type": "uint256"
        },
        {
          "internalType": "address",
          "name": "from",
          "type": "address"
        },
        {
          "internalType": "address",
          "name": "to",
          "type": "address"
        },
        {
          "internalType": "uint256",
          "name": "daiAmount",
          "type": "uint256"
        }
      ],
      "name": "repayDai",
      "outputs": [],
      "stateMutability": "nonpayable",
      "type": "function"
    },
    {
      "inputs": [
        {
          "internalType": "bytes32",
          "name": "collateral",
          "type": "bytes32"
        },
        {
          "internalType": "address",
          "name": "user",
          "type": "address"
        }
      ],
      "name": "erase",
      "outputs": [
        {
          "internalType": "uint256",
          "name": "",
          "type": "uint256"
        },
        {
          "internalType": "uint256",
          "name": "",
          "type": "uint256"
        }
      ],
      "stateMutability": "nonpayable",
      "type": "function"
    }
  ],
  "bytecode": "0x6080604052600c805460ff1916600117905534801561001d57600080fd5b5060405162002c5738038062002c578339818101604052606081101561004257600080fd5b508051602082015160409092015190919060006100666001600160e01b036100f216565b600080546001600160a01b0319166001600160a01b0383169081178255604051929350917f8be0079c531659141344cd1fd0a4f28419497f9722a3daafe3b4186f6b6457e0908290a350600380546001600160a01b039485166001600160a01b0319918216179091556004805493851693821693909317909255600580549190931691161790556100f6565b3390565b612b5180620001066000396000f3fe608060405234801561001057600080fd5b50600436106102065760003560e01c806398cdae5a1161011a578063dc22cb6a116100ad578063e71bdf411161007c578063e71bdf4114610649578063ed7eebf21461066f578063f2fde38b14610698578063fa352c00146106be578063fc0e74d1146106e457610206565b8063dc22cb6a146105b7578063dd102225146105d4578063dd62f423146105f1578063e68b7cf41461061d57610206565b8063b6dbf9ce116100e9578063b6dbf9ce14610534578063c06331dc1461053c578063c5ec0c1714610568578063d0a3a7e41461059a57610206565b806398cdae5a146104b65780639d8e2177146104e8578063ad5c4648146104f0578063adb9e54e146104f857610206565b8063715018a61161019d57806380f5a4401161016c57806380f5a440146103e65780638da5cb5b1461040c5780638e0cc1761461043057806391371ffb1461046c578063957aa58c146104ae57610206565b8063715018a61461034a5780637ad29f40146103525780637c43a2011461037e578063801d325f146103a457610206565b80634cb89c4f116101d95780634cb89c4f146102d75780634cd4423d146102df5780634e0cd7991461031f57806361d6fb7f1461032757610206565b80630c6a595a1461020b5780630d4c43be1461022557806325d3cd171461026a5780632f2ea5de146102ae575b600080fd5b6102136106ec565b60408051918252519081900360200190f35b6102516004803603604081101561023b57600080fd5b50803590602001356001600160a01b03166106f2565b6040805192835260208301919091528051918290030190f35b6102ac600480360360a081101561028057600080fd5b508035906020810135906001600160a01b0360408201358116916060810135909116906080013561095e565b005b610213600480360360608110156102c457600080fd5b5080359060208101359060400135610ba0565b610213610d80565b61030b600480360360408110156102f557600080fd5b50803590602001356001600160a01b0316610d86565b604080519115158252519081900360200190f35b610213610de6565b6102136004803603604081101561033d57600080fd5b5080359060200135610df1565b6102ac610e0e565b61030b6004803603604081101561036857600080fd5b50803590602001356001600160a01b0316610eb0565b6102ac6004803603602081101561039457600080fd5b50356001600160a01b0316610ecf565b6102ac600480360360a08110156103ba57600080fd5b508035906020810135906001600160a01b0360408201358116916060810135909116906080013561104b565b6102ac600480360360208110156103fc57600080fd5b50356001600160a01b0316611474565b610414611528565b604080516001600160a01b039092168252519081900360200190f35b6102ac6004803603608081101561044657600080fd5b508035906001600160a01b03602082013581169160408101359091169060600135611537565b6102ac600480360360a081101561048257600080fd5b508035906020810135906001600160a01b036040820135811691606081013590911690608001356118db565b61030b611b2f565b610213600480360360608110156104cc57600080fd5b50803590602081013590604001356001600160a01b0316611b38565b610213611b5b565b610213611b6b565b6102ac6004803603608081101561050e57600080fd5b508035906001600160a01b03602082013581169160408101359091169060600135611b77565b610213611ebf565b6102136004803603604081101561055257600080fd5b50803590602001356001600160a01b0316611eca565b6102136004803603606081101561057e57600080fd5b50803590602081013590604001356001600160a01b0316612147565b61030b600480360360208110156105b057600080fd5b5035612187565b610414600480360360208110156105cd57600080fd5b50356121a4565b610213600480360360208110156105ea57600080fd5b50356121bf565b6102136004803603604081101561060757600080fd5b50803590602001356001600160a01b03166121dd565b6102136004803603604081101561063357600080fd5b50803590602001356001600160a01b03166121fa565b6102ac6004803603602081101561065f57600080fd5b50356001600160a01b03166122a2565b6102136004803603606081101561068557600080fd5b508035906020810135906040013561230e565b6102ac600480360360208110156106ae57600080fd5b50356001600160a01b03166124a6565b6102ac600480360360208110156106d457600080fd5b50356001600160a01b031661259e565b6102ac612601565b60075490565b60008083644554482d4160d81b8114806107125750634348414960e01b81145b61074d5760405162461bcd60e51b8152600401808060200182810382526023815260200180612a4c6023913960400191505060405180910390fd5b604080518082018252601a81527f436f6e74726f6c6c65723a204e6f7420417574686f72697a656400000000000060208083019190915233600090815260019091529190912054819060ff166108215760405162461bcd60e51b81526004018080602001828103825283818151815260200191508051906020019080838360005b838110156107e65781810151838201526020016107ce565b50505050905090810190601f1680156108135780820380516001836020036101000a031916815260200191505b509250505060405180910390fd5b5060008681526008602090815260408083206001600160a01b038916845290915281208054919055634348414960e01b87141561086f57600a5461086b908263ffffffff6126d916565b600a555b6000805b6007548110156109505760006007828154811061088c57fe5b906000526020600020015490506108b46108a78b838c612147565b849063ffffffff61271b16565b60008b815260096020908152604080832085845282528083206001600160a01b038e1684528252808320548e8452600b835281842086855290925290912054919450610906919063ffffffff6126d916565b60008b8152600b602090815260408083208584528252808320939093558c8252600981528282209382529283528181206001600160a01b038c168252909252812055600101610873565b509097909650945050505050565b84644554482d4160d81b81148061097b5750634348414960e01b81145b6109b65760405162461bcd60e51b8152600401808060200182810382526023815260200180612a4c6023913960400191505060405180910390fd5b846109c081612187565b610a11576040805162461bcd60e51b815260206004820152601f60248201527f436f6e74726f6c6c65723a20556e7265636f676e697a65642073657269657300604482015290519081900360640190fd5b84604051806060016040528060238152602001612a6f60239139336001600160a01b0383161480610a6557506001600160a01b038216600090815260026020908152604080832033845290915290205460ff165b8190610ab25760405162461bcd60e51b81526020600482018181528351602484015283519092839260449091019190850190808383600083156107e65781810151838201526020016107ce565b50600c5460ff161515600114610af95760405162461bcd60e51b8152600401808060200182810382526027815260200180612a926027913960400191505060405180910390fd5b6000610b0f86610b0a8c8c8b612147565b612775565b6005546040805163f939199160e01b81526001600160a01b038c8116600483015260248201859052915193945091169163f93919919160448082019260009290919082900301818387803b158015610b6657600080fd5b505af1158015610b7a573d6000803e3d6000fd5b50505050610b948a8a89610b8f8e8e8761230e565b61278b565b50505050505050505050565b600082815260066020908152604080832054815163ae4e7fdf60e01b815291516001600160a01b039091169263ae4e7fdf9260048082019391829003018186803b158015610bed57600080fd5b505afa158015610c01573d6000803e3d6000fd5b505050506040513d6020811015610c1757600080fd5b505115610d7657644554482d4160d81b841415610ccb57610cc4826006600086815260200190815260200160002060009054906101000a90046001600160a01b03166001600160a01b031663abf1614b6040518163ffffffff1660e01b8152600401602060405180830381600087803b158015610c9357600080fd5b505af1158015610ca7573d6000803e3d6000fd5b505050506040513d6020811015610cbd57600080fd5b505161287c565b9050610d79565b634348414960e01b841415610d3f57610cc4826006600086815260200190815260200160002060009054906101000a90046001600160a01b03166001600160a01b031663cb2401986040518163ffffffff1660e01b8152600401602060405180830381600087803b158015610c9357600080fd5b60405162461bcd60e51b8152600401808060200182810382526022815260200180612ab96022913960400191505060405180910390fd5b50805b9392505050565b600a5481565b60008281526008602090815260408083206001600160a01b03851684529091528120541580610ddd575060008381526008602090815260408083206001600160a01b038616845290915290205466b1a2bc2ec50000105b90505b92915050565b66b1a2bc2ec5000081565b600b60209081526000928352604080842090915290825290205481565b610e166128aa565b6000546001600160a01b03908116911614610e66576040805162461bcd60e51b81526020600482018190526024820152600080516020612afc833981519152604482015290519081900360640190fd5b600080546040516001600160a01b03909116907f8be0079c531659141344cd1fd0a4f28419497f9722a3daafe3b4186f6b6457e0908390a3600080546001600160a01b0319169055565b6000610ebc83836121fa565b610ec68484611eca565b10159392505050565b610ed76128aa565b6000546001600160a01b03908116911614610f27576040805162461bcd60e51b81526020600482018190526024820152600080516020612afc833981519152604482015290519081900360640190fd5b6000816001600160a01b031663204f83f96040518163ffffffff1660e01b815260040160206040518083038186803b158015610f6257600080fd5b505afa158015610f76573d6000803e3d6000fd5b505050506040513d6020811015610f8c57600080fd5b50519050610f9981612187565b15610feb576040805162461bcd60e51b815260206004820181905260248201527f436f6e74726f6c6c65723a2053657269657320616c7265616479206164646564604482015290519081900360640190fd5b600081815260066020526040812080546001600160a01b0319166001600160a01b0394909416939093179092556007805460018101825592527fa66cc928b5edb82af9bd49922954155ab7b0942694bea4ce44661d9a8736c68890910155565b84644554482d4160d81b8114806110685750634348414960e01b81145b6110a35760405162461bcd60e51b8152600401808060200182810382526023815260200180612a4c6023913960400191505060405180910390fd5b846110ad81612187565b6110fe576040805162461bcd60e51b815260206004820152601f60248201527f436f6e74726f6c6c65723a20556e7265636f676e697a65642073657269657300604482015290519081900360640190fd5b84604051806060016040528060238152602001612a6f60239139336001600160a01b038316148061115257506001600160a01b038216600090815260026020908152604080832033845290915290205460ff165b819061119f5760405162461bcd60e51b81526020600482018181528351602484015283519092839260449091019190850190808383600083156107e65781810151838201526020016107ce565b50600c5460ff1615156001146111e65760405162461bcd60e51b8152600401808060200182810382526027815260200180612a926027913960400191505060405180910390fd5b60008881526006602090815260409182902054825163ae4e7fdf60e01b815292516001600160a01b039091169263ae4e7fdf926004808301939192829003018186803b15801561123557600080fd5b505afa158015611249573d6000803e3d6000fd5b505050506040513d602081101561125f57600080fd5b50511515600114156112b8576040805162461bcd60e51b815260206004820152601c60248201527f436f6e74726f6c6c65723a204e6f206d617475726520626f72726f7700000000604482015290519081900360640190fd5b60008981526009602090815260408083208b845282528083206001600160a01b038b1684529091529020546112f3908663ffffffff61271b16565b60008a81526009602090815260408083208c845282528083206001600160a01b038c1684528252808320939093558b8252600b81528282208b835290522054611342908663ffffffff61271b16565b60008a8152600b602090815260408083208c84529091529020556113668988610eb0565b6113b3576040805162461bcd60e51b815260206004820152601960248201527810dbdb9d1c9bdb1b195c8e88151bdbc81b5d58da081919589d603a1b604482015290519081900360640190fd5b6000888152600660205260408082205481516340c10f1960e01b81526001600160a01b038a81166004830152602482018a9052925192909116926340c10f199260448084019382900301818387803b15801561140e57600080fd5b505af1158015611422573d6000803e3d6000fd5b50505050866001600160a01b0316888a7f3dc0ed286b1afbc2228a1e7f81fc3f66aa9f423dca0c6a283eafa53e93adefbe886040518082815260200191505060405180910390a4505050505050505050565b61147c6128aa565b6000546001600160a01b039081169116146114cc576040805162461bcd60e51b81526020600482018190526024820152600080516020612afc833981519152604482015290519081900360640190fd5b6001600160a01b038116600081815260016020818152604092839020805460ff1916909217909155815192835290517f6a7c5f28ea564fafc8b079663a2a9b9d26fe735d97c97611484ce044f40a16e29281900390910190a150565b6000546001600160a01b031690565b83644554482d4160d81b8114806115545750634348414960e01b81145b61158f5760405162461bcd60e51b8152600401808060200182810382526023815260200180612a4c6023913960400191505060405180910390fd5b83604051806060016040528060238152602001612a6f60239139336001600160a01b03831614806115e357506001600160a01b038216600090815260026020908152604080832033845290915290205460ff165b81906116305760405162461bcd60e51b81526020600482018181528351602484015283519092839260449091019190850190808383600083156107e65781810151838201526020016107ce565b50600c5460ff1615156001146116775760405162461bcd60e51b8152600401808060200182810382526027815260200180612a926027913960400191505060405180910390fd5b60008781526008602090815260408083206001600160a01b038a1684529091529020546116aa908563ffffffff6126d916565b60008881526008602090815260408083206001600160a01b038b1684529091529020556116d78787610eb0565b611724576040805162461bcd60e51b815260206004820152601960248201527810dbdb9d1c9bdb1b195c8e88151bdbc81b5d58da081919589d603a1b604482015290519081900360640190fd5b644554482d4160d81b8714156117fa5761173e8786610d86565b611788576040805162461bcd60e51b815260206004820152601660248201527510dbdb9d1c9bdb1b195c8e8810995b1bddc8191d5cdd60521b604482015290519081900360640190fd5b600554604080516322b25b7f60e21b81526001600160a01b0388811660048301526024820188905291519190921691638ac96dfc91604480830192600092919082900301818387803b1580156117dd57600080fd5b505af11580156117f1573d6000803e3d6000fd5b5050505061188d565b634348414960e01b87141561188d57600a5461181c908563ffffffff6126d916565b600a5560055460408051639fa8368960e01b81526001600160a01b0388811660048301526024820188905291519190921691639fa8368991604480830192600092919082900301818387803b15801561187457600080fd5b505af1158015611888573d6000803e3d6000fd5b505050505b856001600160a01b0316877fce1994727cf164e30801f140b3019e0d4862d430438ab41de1144b5db719c583866000036040518082815260200191505060405180910390a350505050505050565b84644554482d4160d81b8114806118f85750634348414960e01b81145b6119335760405162461bcd60e51b8152600401808060200182810382526023815260200180612a4c6023913960400191505060405180910390fd5b8461193d81612187565b61198e576040805162461bcd60e51b815260206004820152601f60248201527f436f6e74726f6c6c65723a20556e7265636f676e697a65642073657269657300604482015290519081900360640190fd5b84604051806060016040528060238152602001612a6f60239139336001600160a01b03831614806119e257506001600160a01b038216600090815260026020908152604080832033845290915290205460ff165b8190611a2f5760405162461bcd60e51b81526020600482018181528351602484015283519092839260449091019190850190808383600083156107e65781810151838201526020016107ce565b50600c5460ff161515600114611a765760405162461bcd60e51b8152600401808060200182810382526027815260200180612a926027913960400191505060405180910390fd5b60008981526009602090815260408083208b845282528083206001600160a01b038a168452909152812054611aac908790612775565b60008a815260066020526040808220548151632770a7eb60e21b81526001600160a01b038d81166004830152602482018690529251949550911692639dc29fac9260448084019391929182900301818387803b158015611b0b57600080fd5b505af1158015611b1f573d6000803e3d6000fd5b50505050610b948a8a898461278b565b600c5460ff1681565b600960209081526000938452604080852082529284528284209052825290205481565b6b033b2e3c9fd0803ce800000081565b644554482d4160d81b81565b83644554482d4160d81b811480611b945750634348414960e01b81145b611bcf5760405162461bcd60e51b8152600401808060200182810382526023815260200180612a4c6023913960400191505060405180910390fd5b83604051806060016040528060238152602001612a6f60239139336001600160a01b0383161480611c2357506001600160a01b038216600090815260026020908152604080832033845290915290205460ff165b8190611c705760405162461bcd60e51b81526020600482018181528351602484015283519092839260449091019190850190808383600083156107e65781810151838201526020016107ce565b50600c5460ff161515600114611cb75760405162461bcd60e51b8152600401808060200182810382526027815260200180612a926027913960400191505060405180910390fd5b60008781526008602090815260408083206001600160a01b0389168452909152902054611cea908563ffffffff61271b16565b60008881526008602090815260408083206001600160a01b038a168452909152902055644554482d4160d81b871415611de357611d278786610d86565b611d71576040805162461bcd60e51b815260206004820152601660248201527510dbdb9d1c9bdb1b195c8e8810995b1bddc8191d5cdd60521b604482015290519081900360640190fd5b6005546040805163134b55ef60e31b81526001600160a01b0389811660048301526024820188905291519190921691639a5aaf7891604480830192600092919082900301818387803b158015611dc657600080fd5b505af1158015611dda573d6000803e3d6000fd5b50505050611e76565b634348414960e01b871415611e7657600a54611e05908563ffffffff61271b16565b600a5560055460408051631997c36160e01b81526001600160a01b0389811660048301526024820188905291519190921691631997c36191604480830192600092919082900301818387803b158015611e5d57600080fd5b505af1158015611e71573d6000803e3d6000fd5b505050505b6040805185815290516001600160a01b0387169189917fce1994727cf164e30801f140b3019e0d4862d430438ab41de1144b5db719c5839181900360200190a350505050505050565b634348414960e01b81565b6000644554482d4160d81b831415611f975760035460408051636cb1c69b60e11b8152644554482d4160d81b600482015290516000926001600160a01b03169163d9638d369160248083019260a0929190829003018186803b158015611f2f57600080fd5b505afa158015611f43573d6000803e3d6000fd5b505050506040513d60a0811015611f5957600080fd5b506040908101516000868152600860209081528382206001600160a01b038816835290529190912054909150611f8f908261287c565b915050610de0565b634348414960e01b83141561213e576000600460009054906101000a90046001600160a01b03166001600160a01b03166320aba08b6040518163ffffffff1660e01b8152600401602060405180830381600087803b158015611ff857600080fd5b505af115801561200c573d6000803e3d6000fd5b505050506040513d602081101561202257600080fd5b5051421161209d57600480546040805163324abb3160e21b815290516001600160a01b039092169263c92aecc4928282019260209290829003018186803b15801561206c57600080fd5b505afa158015612080573d6000803e3d6000fd5b505050506040513d602081101561209657600080fd5b505161210e565b6004805460408051634fb3c66560e11b815290516001600160a01b0390921692639f678cca9282820192602092908290030181600087803b1580156120e157600080fd5b505af11580156120f5573d6000803e3d6000fd5b505050506040513d602081101561210b57600080fd5b50515b60008581526008602090815260408083206001600160a01b0388168452909152902054909150611f8f908261287c565b50600092915050565b600083815260096020908152604080832085845282528083206001600160a01b038516845290915281205461217f9085908590610ba0565b949350505050565b6000908152600660205260409020546001600160a01b0316151590565b6006602052600090815260409020546001600160a01b031681565b600781815481106121cc57fe5b600091825260209091200154905081565b600860209081526000928352604080842090915290825290205481565b600080805b60075481101561229a576000858152600960205260408120600780548391908590811061222857fe5b906000526020600020015481526020019081526020016000206000866001600160a01b03166001600160a01b031681526020019081526020016000205411156122925761228d856007838154811061227c57fe5b906000526020600020015486612147565b820191505b6001016121ff565b509392505050565b3360008181526002602090815260408083206001600160a01b03861680855290835292819020805460ff19166001908117909155815190815290519293927f045b0fef01772d2fbba53dbd38c9777806eac0865b00af43abcfbcaf50da9206929181900390910190a350565b600082815260066020908152604080832054815163ae4e7fdf60e01b815291516001600160a01b039091169263ae4e7fdf9260048082019391829003018186803b15801561235b57600080fd5b505afa15801561236f573d6000803e3d6000fd5b505050506040513d602081101561238557600080fd5b505115610d7657644554482d4160d81b84141561243257610cc4826006600086815260200190815260200160002060009054906101000a90046001600160a01b03166001600160a01b031663abf1614b6040518163ffffffff1660e01b8152600401602060405180830381600087803b15801561240157600080fd5b505af1158015612415573d6000803e3d6000fd5b505050506040513d602081101561242b57600080fd5b50516128ae565b634348414960e01b841415610d3f57610cc4826006600086815260200190815260200160002060009054906101000a90046001600160a01b03166001600160a01b031663cb2401986040518163ffffffff1660e01b8152600401602060405180830381600087803b15801561240157600080fd5b6124ae6128aa565b6000546001600160a01b039081169116146124fe576040805162461bcd60e51b81526020600482018190526024820152600080516020612afc833981519152604482015290519081900360640190fd5b6001600160a01b0381166125435760405162461bcd60e51b8152600401808060200182810382526026815260200180612a266026913960400191505060405180910390fd5b600080546040516001600160a01b03808516939216917f8be0079c531659141344cd1fd0a4f28419497f9722a3daafe3b4186f6b6457e091a3600080546001600160a01b0319166001600160a01b0392909216919091179055565b3360008181526002602090815260408083206001600160a01b038616808552908352818420805460ff19169055815193845290519093927f045b0fef01772d2fbba53dbd38c9777806eac0865b00af43abcfbcaf50da920692908290030190a350565b600560009054906101000a90046001600160a01b03166001600160a01b031663957aa58c6040518163ffffffff1660e01b815260040160206040518083038186803b15801561264f57600080fd5b505afa158015612663573d6000803e3d6000fd5b505050506040513d602081101561267957600080fd5b5051156126cd576040805162461bcd60e51b815260206004820152601c60248201527f436f6e74726f6c6c65723a205472656173757279206973206c69766500000000604482015290519081900360640190fd5b600c805460ff19169055565b6000610ddd83836040518060400160405280601e81526020017f536166654d6174683a207375627472616374696f6e206f766572666c6f7700008152506128d0565b600082820183811015610ddd576040805162461bcd60e51b815260206004820152601b60248201527f536166654d6174683a206164646974696f6e206f766572666c6f770000000000604482015290519081900360640190fd5b60008183106127845781610ddd565b5090919050565b600084815260096020908152604080832086845282528083206001600160a01b03861684529091529020546127c6908263ffffffff6126d916565b600085815260096020908152604080832087845282528083206001600160a01b0387168452825280832093909355868252600b815282822086835290522054612815908263ffffffff6126d916565b6000858152600b60209081526040808320878452825280832093909355825191849003825291516001600160a01b03851692869288927f3dc0ed286b1afbc2228a1e7f81fc3f66aa9f423dca0c6a283eafa53e93adefbe929181900390910190a450505050565b6000610ddd6b033b2e3c9fd0803ce800000061289e858563ffffffff61292a16565b9063ffffffff61298316565b3390565b6000610ddd8261289e856b033b2e3c9fd0803ce800000063ffffffff61292a16565b600081848411156129225760405162461bcd60e51b81526020600482018181528351602484015283519092839260449091019190850190808383600083156107e65781810151838201526020016107ce565b505050900390565b60008261293957506000610de0565b8282028284828161294657fe5b0414610ddd5760405162461bcd60e51b8152600401808060200182810382526021815260200180612adb6021913960400191505060405180910390fd5b6000610ddd83836040518060400160405280601a81526020017f536166654d6174683a206469766973696f6e206279207a65726f00000000000081525060008183612a0f5760405162461bcd60e51b81526020600482018181528351602484015283519092839260449091019190850190808383600083156107e65781810151838201526020016107ce565b506000838581612a1b57fe5b049594505050505056fe4f776e61626c653a206e6577206f776e657220697320746865207a65726f2061646472657373436f6e74726f6c6c65723a20556e7265636f676e697a656420636f6c6c61746572616c436f6e74726f6c6c65723a204f6e6c7920486f6c646572204f722044656c6567617465436f6e74726f6c6c65723a204e6f7420617661696c61626c6520647572696e6720756e77696e64436f6e74726f6c6c65723a20556e737570706f7274656420636f6c6c61746572616c536166654d6174683a206d756c7469706c69636174696f6e206f766572666c6f774f776e61626c653a2063616c6c6572206973206e6f7420746865206f776e6572a26469706673582212201ea3d384aef05f1dc9038de1176e227ecec0477d3cea250c83300e57718ff2a864736f6c634300060a0033",
  "source": "// SPDX-License-Identifier: GPL-3.0-or-later\npragma solidity ^0.6.10;\n\nimport \"@openzeppelin/contracts/math/Math.sol\";\nimport \"@openzeppelin/contracts/math/SafeMath.sol\";\nimport \"./interfaces/IVat.sol\";\nimport \"./interfaces/IPot.sol\";\nimport \"./interfaces/ITreasury.sol\";\nimport \"./interfaces/IController.sol\";\nimport \"./interfaces/IYDai.sol\";\nimport \"./helpers/Delegable.sol\";\nimport \"./helpers/DecimalMath.sol\";\nimport \"./helpers/Orchestrated.sol\";\nimport \"@nomiclabs/buidler/console.sol\";\n\n/**\n * @dev The Controller manages collateral and debt levels for all users, and it is a major user entry point for the Yield protocol.\n * Controller keeps track of a number of yDai contracts.\n * Controller allows users to post and withdraw Chai and Weth collateral.\n * Any transactions resulting in a user weth collateral below dust are reverted.\n * Controller allows users to borrow yDai against their Chai and Weth collateral.\n * Controller allows users to repay their yDai debt with yDai or with Dai.\n * Controller integrates with yDai contracts for minting yDai on borrowing, and burning yDai on repaying debt with yDai.\n * Controller relies on Treasury for all other asset transfers.\n * Controller allows orchestrated contracts to erase any amount of debt or collateral for an user. This is to be used during liquidations or during unwind.\n * Users can delegate the control of their accounts in Controllers to any address.\n */\ncontract Controller is IController, Orchestrated(), Delegable(), DecimalMath {\n    using SafeMath for uint256;\n\n    event Posted(bytes32 indexed collateral, address indexed user, int256 amount);\n    event Borrowed(bytes32 indexed collateral, uint256 indexed maturity, address indexed user, int256 amount);\n\n    bytes32 public constant CHAI = \"CHAI\";\n    bytes32 public constant WETH = \"ETH-A\";\n    uint256 public constant DUST = 50000000000000000; // 0.05 ETH\n\n    IVat internal _vat;\n    IPot internal _pot;\n    ITreasury internal _treasury;\n\n    mapping(uint256 => IYDai) public override series;                 // YDai series, indexed by maturity\n    uint256[] public override seriesIterator;                         // We need to know all the series\n\n    mapping(bytes32 => mapping(address => uint256)) public override posted;                        // Collateral posted by each user\n    mapping(bytes32 => mapping(uint256 => mapping(address => uint256))) public override debtYDai;  // Debt owed by each user, by series\n\n    uint256 public override totalChaiPosted;                                        // Sum of Chai posted by all users. Needed for skimming profits\n    mapping(bytes32 => mapping(uint256 => uint256)) public override totalDebtYDai;  // Sum of debt owed by all users, by series\n\n    bool public live = true;\n\n    constructor (\n        address vat_,\n        address pot_,\n        address treasury_\n    ) public {\n        _vat = IVat(vat_);\n        _pot = IPot(pot_);\n        _treasury = ITreasury(treasury_);\n    }\n\n    modifier onlyLive() {\n        require(live == true, \"Controller: Not available during unwind\");\n        _;\n    }\n\n    /// @dev Only valid collateral types are Weth and Chai.\n    modifier validCollateral(bytes32 collateral) {\n        require(\n            collateral == WETH || collateral == CHAI,\n            \"Controller: Unrecognized collateral\"\n        );\n        _;\n    }\n\n    /// @dev Only series added through `addSeries` are valid.\n    modifier validSeries(uint256 maturity) {\n        require(\n            containsSeries(maturity),\n            \"Controller: Unrecognized series\"\n        );\n        _;\n    }\n\n    /// @dev Return the total number of series registered\n    function totalSeries() public view override returns (uint256) {\n        return seriesIterator.length;\n    }\n\n    /// @dev Returns if a series has been added to the Controller, for a given series identified by maturity\n    function containsSeries(uint256 maturity) public view override returns (bool) {\n        return address(series[maturity]) != address(0);\n    }\n\n    /// @dev Adds an yDai series to this Controller\n    function addSeries(address yDaiContract) public onlyOwner {\n        uint256 maturity = IYDai(yDaiContract).maturity();\n        require(\n            !containsSeries(maturity),\n            \"Controller: Series already added\"\n        );\n        series[maturity] = IYDai(yDaiContract);\n        seriesIterator.push(maturity);\n    }\n\n    /// @dev Disables post, withdraw, borrow and repay. To be called only when Treasury shuts down.\n    function shutdown() public override {\n        require(\n            _treasury.live() == false,\n            \"Controller: Treasury is live\"\n        );\n        live = false;\n    }\n\n    /// @dev Returns the dai equivalent of an yDai amount, for a given series identified by maturity\n    function inDai(bytes32 collateral, uint256 maturity, uint256 yDaiAmount) public returns (uint256) {\n        if (series[maturity].isMature()){\n            if (collateral == WETH){\n                return muld(yDaiAmount, series[maturity].rateGrowth());\n            } else if (collateral == CHAI) {\n                return muld(yDaiAmount, series[maturity].chiGrowth());\n            } else {\n                revert(\"Controller: Unsupported collateral\");\n            }\n        } else {\n            return yDaiAmount;\n        }\n    }\n\n    /// @dev Returns the yDai equivalent of a dai amount, for a given series identified by maturity\n    function inYDai(bytes32 collateral, uint256 maturity, uint256 daiAmount) public returns (uint256) {\n        if (series[maturity].isMature()){\n            if (collateral == WETH){\n                return divd(daiAmount, series[maturity].rateGrowth());\n            } else if (collateral == CHAI) {\n                return divd(daiAmount, series[maturity].chiGrowth());\n            } else {\n                revert(\"Controller: Unsupported collateral\");\n            }\n        } else {\n            return daiAmount;\n        }\n    }\n\n    /// @dev Return debt in dai of an user, for a given collateral and series identified by maturity\n    //\n    //                        rate_now\n    // debt_now = debt_mat * ----------\n    //                        rate_mat\n    //\n    function debtDai(bytes32 collateral, uint256 maturity, address user) public returns (uint256) {\n        return inDai(collateral, maturity, debtYDai[collateral][maturity][user]);\n    }\n\n    /// @dev Returns the total debt of an user, for a given collateral, across all series, in Dai\n    function totalDebtDai(bytes32 collateral, address user) public override returns (uint256) {\n        uint256 totalDebt;\n        for (uint256 i = 0; i < seriesIterator.length; i += 1) {\n            if (debtYDai[collateral][seriesIterator[i]][user] > 0) {\n                totalDebt = totalDebt + debtDai(collateral, seriesIterator[i], user);\n            }\n        } // We don't expect hundreds of maturities per controller\n        return totalDebt;\n    }\n\n    /// @dev Maximum borrowing power of an user in dai for a given collateral\n    //\n    // powerOf[user](wad) = posted[user](wad) * price()(ray)\n    //\n    function powerOf(bytes32 collateral, address user) public returns (uint256) {\n        // dai = price * collateral\n        if (collateral == WETH){\n            (,, uint256 spot,,) = _vat.ilks(WETH);  // Stability fee and collateralization ratio for Weth\n            return muld(posted[collateral][user], spot);\n        } else if (collateral == CHAI) {\n            uint256 chi = (now > _pot.rho()) ? _pot.drip() : _pot.chi();\n            return muld(posted[collateral][user], chi);\n        }\n        return 0;\n    }\n\n    /// @dev Return if the borrowing power for a given collateral of an user is equal or greater than its debt for the same collateral\n    function isCollateralized(bytes32 collateral, address user) public override returns (bool) {\n        return powerOf(collateral, user) >= totalDebtDai(collateral, user);\n    }\n\n    /// @dev Return if the collateral of an user is between zero and the dust level\n    function aboveDustOrZero(bytes32 collateral, address user) public view returns (bool) {\n        return posted[collateral][user] == 0 || DUST < posted[collateral][user];\n    }\n\n    /// @dev Takes collateral _token from `from` address, and credits it to `to` collateral account.\n    // from --- Token ---> us(to)\n    function post(bytes32 collateral, address from, address to, uint256 amount)\n        public override \n        validCollateral(collateral)\n        onlyHolderOrDelegate(from, \"Controller: Only Holder Or Delegate\")\n        onlyLive\n    {\n        posted[collateral][to] = posted[collateral][to].add(amount);\n\n        if (collateral == WETH){ // TODO: Refactor Treasury to be `push(collateral, amount)`\n            require(\n                aboveDustOrZero(collateral, to),\n                \"Controller: Below dust\"\n            );\n            _treasury.pushWeth(from, amount);\n        } else if (collateral == CHAI) {\n            totalChaiPosted = totalChaiPosted.add(amount);\n            _treasury.pushChai(from, amount);\n        }\n        \n        emit Posted(collateral, to, int256(amount)); // TODO: Watch for overflow\n    }\n\n    /// @dev Returns collateral to `to` address, taking it from `from` collateral account.\n    // us(from) --- Token ---> to\n    function withdraw(bytes32 collateral, address from, address to, uint256 amount)\n        public override\n        validCollateral(collateral)\n        onlyHolderOrDelegate(from, \"Controller: Only Holder Or Delegate\")\n        onlyLive\n    {\n        posted[collateral][from] = posted[collateral][from].sub(amount); // Will revert if not enough posted\n\n        require(\n            isCollateralized(collateral, from),\n            \"Controller: Too much debt\"\n        );\n\n        if (collateral == WETH){ // TODO: Refactor Treasury to be `pull(collateral, amount)`\n            require(\n                aboveDustOrZero(collateral, to),\n                \"Controller: Below dust\"\n            );\n            _treasury.pullWeth(to, amount);\n        } else if (collateral == CHAI) {\n            totalChaiPosted = totalChaiPosted.sub(amount);\n            _treasury.pullChai(to, amount);\n        }\n\n        emit Posted(collateral, from, -int256(amount)); // TODO: Watch for overflow\n    }\n\n    /// @dev Mint yDai for a given series for address `to` by locking its market value in collateral, user debt is increased in the given collateral.\n    //\n    // posted[user](wad) >= (debtYDai[user](wad)) * amount (wad)) * collateralization (ray)\n    //\n    // us(from) --- yDai ---> to\n    // debt++\n    function borrow(bytes32 collateral, uint256 maturity, address from, address to, uint256 yDaiAmount)\n        public override\n        validCollateral(collateral)\n        validSeries(maturity)\n        onlyHolderOrDelegate(from, \"Controller: Only Holder Or Delegate\")\n        onlyLive\n    {\n        require(\n            series[maturity].isMature() != true,\n            \"Controller: No mature borrow\"\n        );\n\n        debtYDai[collateral][maturity][from] = debtYDai[collateral][maturity][from].add(yDaiAmount);\n        totalDebtYDai[collateral][maturity] = totalDebtYDai[collateral][maturity].add(yDaiAmount);\n\n        require(\n            isCollateralized(collateral, from),\n            \"Controller: Too much debt\"\n        );\n\n        series[maturity].mint(to, yDaiAmount);\n        emit Borrowed(collateral, maturity, from, int256(yDaiAmount)); // TODO: Watch for overflow\n    }\n\n    /// @dev Burns yDai of a given series from `from` address, user debt is decreased for the given collateral and yDai series.\n    //                                                  debt_nominal\n    // debt_discounted = debt_nominal - repay_amount * ---------------\n    //                                                  debt_now\n    //\n    // user(from) --- yDai ---> us(to)\n    // debt--\n    function repayYDai(bytes32 collateral, uint256 maturity, address from, address to, uint256 yDaiAmount)\n        public override\n        validCollateral(collateral)\n        validSeries(maturity)\n        onlyHolderOrDelegate(from, \"Controller: Only Holder Or Delegate\")\n        onlyLive\n    {\n        uint256 toRepay = Math.min(yDaiAmount, debtYDai[collateral][maturity][to]);\n        series[maturity].burn(from, toRepay);\n        _repay(collateral, maturity, to, toRepay);\n    }\n\n    /// @dev Takes dai from `from` address, user debt is decreased for the given collateral and yDai series.\n    //                                                  debt_nominal\n    // debt_discounted = debt_nominal - repay_amount * ---------------\n    //                                                  debt_now\n    //\n    // user --- dai ---> us\n    // debt--\n    function repayDai(bytes32 collateral, uint256 maturity, address from, address to, uint256 daiAmount)\n        public override\n        validCollateral(collateral)\n        validSeries(maturity)\n        onlyHolderOrDelegate(from, \"Controller: Only Holder Or Delegate\")\n        onlyLive\n    {\n        uint256 toRepay = Math.min(daiAmount, debtDai(collateral, maturity, to));\n        _treasury.pushDai(from, toRepay);                                      // Have Treasury process the dai\n        _repay(collateral, maturity, to, inYDai(collateral, maturity, toRepay));\n    }\n\n    /// @dev Removes an amount of debt from an user's vault. If interest was accrued debt is only paid proportionally.\n    //\n    //                                                principal\n    // principal_repayment = gross_repayment * ----------------------\n    //                                          principal + interest\n    //    \n    function _repay(bytes32 collateral, uint256 maturity, address user, uint256 yDaiAmount) internal {\n        debtYDai[collateral][maturity][user] = debtYDai[collateral][maturity][user].sub(yDaiAmount);\n        totalDebtYDai[collateral][maturity] = totalDebtYDai[collateral][maturity].sub(yDaiAmount);\n\n        emit Borrowed(collateral, maturity, user, -int256(yDaiAmount)); // TODO: Watch for overflow\n    }\n\n    /// @dev Removes all collateral and debt for an user, for a given collateral type.\n    function erase(bytes32 collateral, address user)\n        public override\n        validCollateral(collateral)\n        onlyOrchestrated(\"Controller: Not Authorized\")\n        returns (uint256, uint256)\n    {\n        uint256 userCollateral = posted[collateral][user];\n        delete posted[collateral][user];\n        if (collateral == CHAI) totalChaiPosted = totalChaiPosted.sub(userCollateral);\n\n        uint256 userDebt;\n        for (uint256 i = 0; i < seriesIterator.length; i += 1) {\n            uint256 maturity = seriesIterator[i];\n            userDebt = userDebt.add(debtDai(collateral, maturity, user)); // SafeMath shouldn't be needed\n            totalDebtYDai[collateral][maturity] =\n                totalDebtYDai[collateral][maturity].sub(debtYDai[collateral][maturity][user]); // SafeMath shouldn't be needed\n            delete debtYDai[collateral][maturity][user];\n        } // We don't expect hundreds of maturities per controller\n\n        return (userCollateral, userDebt);\n    }\n}\n",
  "sourcePath": "/Users/bruce/dev/yieldprotocol/ytoken-mvp/contracts/Controller.sol",
  "compiler": {
    "name": "solc",
    "version": "0.6.10+commit.00c0fcaf.Emscripten.clang"
  },
  "schemaVersion": "3.0.23",
  "updatedAt": "2020-07-20T13:24:06.936Z",
  "networkType": "ethereum",
  "devdoc": {
    "details": "The Controller manages collateral and debt levels for all users, and it is a major user entry point for the Yield protocol. Controller keeps track of a number of yDai contracts. Controller allows users to post and withdraw Chai and Weth collateral. Any transactions resulting in a user weth collateral below dust are reverted. Controller allows users to borrow yDai against their Chai and Weth collateral. Controller allows users to repay their yDai debt with yDai or with Dai. Controller integrates with yDai contracts for minting yDai on borrowing, and burning yDai on repaying debt with yDai. Controller relies on Treasury for all other asset transfers. Controller allows orchestrated contracts to erase any amount of debt or collateral for an user. This is to be used during liquidations or during unwind. Users can delegate the control of their accounts in Controllers to any address.",
    "methods": {
      "aboveDustOrZero(bytes32,address)": {
        "details": "Return if the collateral of an user is between zero and the dust level"
      },
      "addDelegate(address)": {
        "details": "Enable a delegate to act on the behalf of caller"
      },
      "addSeries(address)": {
        "details": "Adds an yDai series to this Controller"
      },
      "borrow(bytes32,uint256,address,address,uint256)": {
        "details": "Mint yDai for a given series for address `to` by locking its market value in collateral, user debt is increased in the given collateral."
      },
      "containsSeries(uint256)": {
        "details": "Returns if a series has been added to the Controller, for a given series identified by maturity"
      },
      "debtDai(bytes32,uint256,address)": {
        "details": "Return debt in dai of an user, for a given collateral and series identified by maturity"
      },
      "erase(bytes32,address)": {
        "details": "Removes all collateral and debt for an user, for a given collateral type."
      },
      "inDai(bytes32,uint256,uint256)": {
        "details": "Returns the dai equivalent of an yDai amount, for a given series identified by maturity"
      },
      "inYDai(bytes32,uint256,uint256)": {
        "details": "Returns the yDai equivalent of a dai amount, for a given series identified by maturity"
      },
      "isCollateralized(bytes32,address)": {
        "details": "Return if the borrowing power for a given collateral of an user is equal or greater than its debt for the same collateral"
      },
      "orchestrate(address)": {
        "details": "Add user to the authorized users list"
      },
      "owner()": {
        "details": "Returns the address of the current owner."
      },
      "post(bytes32,address,address,uint256)": {
        "details": "Takes collateral _token from `from` address, and credits it to `to` collateral account."
      },
      "powerOf(bytes32,address)": {
        "details": "Maximum borrowing power of an user in dai for a given collateral"
      },
      "renounceOwnership()": {
        "details": "Leaves the contract without owner. It will not be possible to call `onlyOwner` functions anymore. Can only be called by the current owner. NOTE: Renouncing ownership will leave the contract without an owner, thereby removing any functionality that is only available to the owner."
      },
      "repayDai(bytes32,uint256,address,address,uint256)": {
        "details": "Takes dai from `from` address, user debt is decreased for the given collateral and yDai series."
      },
      "repayYDai(bytes32,uint256,address,address,uint256)": {
        "details": "Burns yDai of a given series from `from` address, user debt is decreased for the given collateral and yDai series."
      },
      "revokeDelegate(address)": {
        "details": "Stop a delegate from acting on the behalf of caller"
      },
      "shutdown()": {
        "details": "Disables post, withdraw, borrow and repay. To be called only when Treasury shuts down."
      },
      "totalDebtDai(bytes32,address)": {
        "details": "Returns the total debt of an user, for a given collateral, across all series, in Dai"
      },
      "totalSeries()": {
        "details": "Return the total number of series registered"
      },
      "transferOwnership(address)": {
        "details": "Transfers ownership of the contract to a new account (`newOwner`). Can only be called by the current owner."
      },
      "withdraw(bytes32,address,address,uint256)": {
        "details": "Returns collateral to `to` address, taking it from `from` collateral account."
      }
    }
  },
  "userdoc": {
    "methods": {}
  }
}