{
  "contractName": "DaiJoin",
  "abi": [
    {
      "inputs": [
        {
          "internalType": "address",
          "name": "vat_",
          "type": "address"
        },
        {
          "internalType": "address",
          "name": "dai_",
          "type": "address"
        }
      ],
      "stateMutability": "nonpayable",
      "type": "constructor"
    },
    {
      "anonymous": true,
      "inputs": [
        {
          "indexed": true,
          "internalType": "bytes4",
          "name": "sig",
          "type": "bytes4"
        },
        {
          "indexed": true,
          "internalType": "address",
          "name": "usr",
          "type": "address"
        },
        {
          "indexed": true,
          "internalType": "bytes32",
          "name": "arg1",
          "type": "bytes32"
        },
        {
          "indexed": true,
          "internalType": "bytes32",
          "name": "arg2",
          "type": "bytes32"
        },
        {
          "indexed": false,
          "internalType": "bytes",
          "name": "data",
          "type": "bytes"
        }
      ],
      "name": "LogNote",
      "type": "event"
    },
    {
      "inputs": [],
      "name": "dai",
      "outputs": [
        {
          "internalType": "contract DSTokenLike",
          "name": "",
          "type": "address"
        }
      ],
      "stateMutability": "view",
      "type": "function",
      "constant": true
    },
    {
      "inputs": [],
      "name": "live",
      "outputs": [
        {
          "internalType": "uint256",
          "name": "",
          "type": "uint256"
        }
      ],
      "stateMutability": "view",
      "type": "function",
      "constant": true
    },
    {
      "inputs": [],
      "name": "vat",
      "outputs": [
        {
          "internalType": "contract VatLike",
          "name": "",
          "type": "address"
        }
      ],
      "stateMutability": "view",
      "type": "function",
      "constant": true
    },
    {
      "inputs": [
        {
          "internalType": "address",
          "name": "",
          "type": "address"
        }
      ],
      "name": "wards",
      "outputs": [
        {
          "internalType": "uint256",
          "name": "",
          "type": "uint256"
        }
      ],
      "stateMutability": "view",
      "type": "function",
      "constant": true
    },
    {
      "inputs": [
        {
          "internalType": "address",
          "name": "usr",
          "type": "address"
        }
      ],
      "name": "rely",
      "outputs": [],
      "stateMutability": "nonpayable",
      "type": "function"
    },
    {
      "inputs": [
        {
          "internalType": "address",
          "name": "usr",
          "type": "address"
        }
      ],
      "name": "deny",
      "outputs": [],
      "stateMutability": "nonpayable",
      "type": "function"
    },
    {
      "inputs": [],
      "name": "cage",
      "outputs": [],
      "stateMutability": "nonpayable",
      "type": "function"
    },
    {
      "inputs": [
        {
          "internalType": "address",
          "name": "usr",
          "type": "address"
        },
        {
          "internalType": "uint256",
          "name": "wad",
          "type": "uint256"
        }
      ],
      "name": "join",
      "outputs": [],
      "stateMutability": "nonpayable",
      "type": "function"
    },
    {
      "inputs": [
        {
          "internalType": "address",
          "name": "usr",
          "type": "address"
        },
        {
          "internalType": "uint256",
          "name": "wad",
          "type": "uint256"
        }
      ],
      "name": "exit",
      "outputs": [],
      "stateMutability": "nonpayable",
      "type": "function"
    }
  ],
  "bytecode": "0x608060405234801561001057600080fd5b5060405161068c38038061068c8339818101604052604081101561003357600080fd5b508051602091820151336000908152928390526040909220600190819055600381905580546001600160a01b039283166001600160a01b031991821617909155600280549290931691161790556105fd8061008f6000396000f3fe608060405234801561001057600080fd5b50600436106100935760003560e01c8063957aa58c11610066578063957aa58c146101185780639c52a7f114610132578063bf353dbb14610158578063ef693bed1461017e578063f4b9fa75146101aa57610093565b806336569e77146100985780633b4da69f146100bc57806365fae35e146100ea5780636924500914610110575b600080fd5b6100a06101b2565b604080516001600160a01b039092168252519081900360200190f35b6100e8600480360360408110156100d257600080fd5b506001600160a01b0381351690602001356101c1565b005b6100e86004803603602081101561010057600080fd5b50356001600160a01b03166102d9565b6100e8610353565b6101206103b7565b60408051918252519081900360200190f35b6100e86004803603602081101561014857600080fd5b50356001600160a01b03166103bd565b6101206004803603602081101561016e57600080fd5b50356001600160a01b0316610434565b6100e86004803603604081101561019457600080fd5b506001600160a01b038135169060200135610446565b6100a061058e565b6001546001600160a01b031681565b6001546001600160a01b031663bb35783b30846101ea6b033b2e3c9fd0803ce80000008661059d565b6040518463ffffffff1660e01b815260040180846001600160a01b03166001600160a01b03168152602001836001600160a01b03166001600160a01b031681526020018281526020019350505050600060405180830381600087803b15801561025257600080fd5b505af1158015610266573d6000803e3d6000fd5b505060025460408051632770a7eb60e21b81523360048201526024810186905290516001600160a01b039092169350639dc29fac925060448082019260009290919082900301818387803b1580156102bd57600080fd5b505af11580156102d1573d6000803e3d6000fd5b505050505050565b33600090815260208190526040902054600114610336576040805162461bcd60e51b815260206004820152601660248201527511185a529bda5b8bdb9bdd0b585d5d1a1bdc9a5e995960521b604482015290519081900360640190fd5b6001600160a01b0316600090815260208190526040902060019055565b336000908152602081905260409020546001146103b0576040805162461bcd60e51b815260206004820152601660248201527511185a529bda5b8bdb9bdd0b585d5d1a1bdc9a5e995960521b604482015290519081900360640190fd5b6000600355565b60035481565b3360009081526020819052604090205460011461041a576040805162461bcd60e51b815260206004820152601660248201527511185a529bda5b8bdb9bdd0b585d5d1a1bdc9a5e995960521b604482015290519081900360640190fd5b6001600160a01b0316600090815260208190526040812055565b60006020819052908152604090205481565b600354600114610490576040805162461bcd60e51b815260206004820152601060248201526f4461694a6f696e2f6e6f742d6c69766560801b604482015290519081900360640190fd5b6001546001600160a01b031663bb35783b33306104b96b033b2e3c9fd0803ce80000008661059d565b6040518463ffffffff1660e01b815260040180846001600160a01b03166001600160a01b03168152602001836001600160a01b03166001600160a01b031681526020018281526020019350505050600060405180830381600087803b15801561052157600080fd5b505af1158015610535573d6000803e3d6000fd5b5050600254604080516340c10f1960e01b81526001600160a01b0387811660048301526024820187905291519190921693506340c10f199250604480830192600092919082900301818387803b1580156102bd57600080fd5b6002546001600160a01b031681565b60008115806105b8575050808202828282816105b557fe5b04145b6105c157600080fd5b9291505056fea2646970667358221220cbf28afe23e55d08c5f1b0c1c24fb931c1e2d86f738e8ecb43078caa4b47320864736f6c634300060a0033",
  "immutableReferences": {},
  "source": "// SPDX-License-Identifier: AGPL-3.0-or-later\n/// join.sol -- Basic token adapters\n\n// Copyright (C) 2018 Rain <rainbreak@riseup.net>\n//\n// This program is free software: you can redistribute it and/or modify\n// it under the terms of the GNU Affero General Public License as published by\n// the Free Software Foundation, either version 3 of the License, or\n// (at your option) any later version.\n//\n// This program is distributed in the hope that it will be useful,\n// but WITHOUT ANY WARRANTY; without even the implied warranty of\n// MERCHANTABILITY or FITNESS FOR A PARTICULAR PURPOSE.  See the\n// GNU Affero General Public License for more details.\n//\n// You should have received a copy of the GNU Affero General Public License\n// along with this program.  If not, see <https://www.gnu.org/licenses/>.\n\npragma solidity ^0.6.0;\n\nimport \"./lib.sol\";\n\ninterface GemLike {\n    function decimals() external view returns (uint);\n    function transfer(address,uint) external returns (bool);\n    function transferFrom(address,address,uint) external returns (bool);\n}\n\ninterface DSTokenLike {\n    function mint(address,uint) external;\n    function burn(address,uint) external;\n}\n\ninterface VatLike {\n    function slip(bytes32,address,int) external;\n    function move(address,address,uint) external;\n}\n\n/*\n    Here we provide *adapters* to connect the Vat to arbitrary external\n    token implementations, creating a bounded context for the Vat. The\n    adapters here are provided as working examples:\n\n      - `GemJoin`: For well behaved ERC20 tokens, with simple transfer\n                   semantics.\n\n      - `ETHJoin`: For native Ether.\n\n      - `DaiJoin`: For connecting internal Dai balances to an external\n                   `DSToken` implementation.\n\n    In practice, adapter implementations will be varied and specific to\n    individual collateral types, accounting for different transfer\n    semantics and token standards.\n\n    Adapters need to implement two basic methods:\n\n      - `join`: enter collateral into the system\n      - `exit`: remove collateral from the system\n\n*/\n\ncontract GemJoin is LibNote {\n    // --- Auth ---\n    mapping (address => uint) public wards;\n    function rely(address usr) external note auth { wards[usr] = 1; }\n    function deny(address usr) external note auth { wards[usr] = 0; }\n    modifier auth {\n        require(wards[msg.sender] == 1, \"GemJoin/not-authorized\");\n        _;\n    }\n\n    VatLike public vat;\n    bytes32 public ilk;\n    GemLike public gem;\n    uint    public dec;\n    uint    public live;  // Access Flag\n\n    constructor(address vat_, bytes32 ilk_, address gem_) public {\n        wards[msg.sender] = 1;\n        live = 1;\n        vat = VatLike(vat_);\n        ilk = ilk_;\n        gem = GemLike(gem_);\n        dec = gem.decimals();\n    }\n    function cage() external note auth {\n        live = 0;\n    }\n    function join(address usr, uint wad) external note {\n        require(live == 1, \"GemJoin/not-live\");\n        require(int(wad) >= 0, \"GemJoin/overflow\");\n        vat.slip(ilk, usr, int(wad));\n        require(gem.transferFrom(msg.sender, address(this), wad), \"GemJoin/failed-transfer\");\n    }\n    function exit(address usr, uint wad) external note {\n        require(wad <= 2 ** 255, \"GemJoin/overflow\");\n        vat.slip(ilk, msg.sender, -int(wad));\n        require(gem.transfer(usr, wad), \"GemJoin/failed-transfer\");\n    }\n}\n\ncontract ETHJoin is LibNote {\n    // --- Auth ---\n    mapping (address => uint) public wards;\n    function rely(address usr) external note auth { wards[usr] = 1; }\n    function deny(address usr) external note auth { wards[usr] = 0; }\n    modifier auth {\n        require(wards[msg.sender] == 1, \"ETHJoin/not-authorized\");\n        _;\n    }\n\n    VatLike public vat;\n    bytes32 public ilk;\n    uint    public live;  // Access Flag\n\n    constructor(address vat_, bytes32 ilk_) public {\n        wards[msg.sender] = 1;\n        live = 1;\n        vat = VatLike(vat_);\n        ilk = ilk_;\n    }\n    function cage() external note auth {\n        live = 0;\n    }\n    function join(address usr) external payable note {\n        require(live == 1, \"ETHJoin/not-live\");\n        require(int(msg.value) >= 0, \"ETHJoin/overflow\");\n        vat.slip(ilk, usr, int(msg.value));\n    }\n    function exit(address payable usr, uint wad) external note {\n        require(int(wad) >= 0, \"ETHJoin/overflow\");\n        vat.slip(ilk, msg.sender, -int(wad));\n        usr.transfer(wad);\n    }\n}\n\ncontract DaiJoin is LibNote {\n    // --- Auth ---\n    mapping (address => uint) public wards;\n    function rely(address usr) external note auth { wards[usr] = 1; }\n    function deny(address usr) external note auth { wards[usr] = 0; }\n    modifier auth {\n        require(wards[msg.sender] == 1, \"DaiJoin/not-authorized\");\n        _;\n    }\n\n    VatLike public vat;\n    DSTokenLike public dai;\n    uint    public live;  // Access Flag\n\n    constructor(address vat_, address dai_) public {\n        wards[msg.sender] = 1;\n        live = 1;\n        vat = VatLike(vat_);\n        dai = DSTokenLike(dai_);\n    }\n    function cage() external note auth {\n        live = 0;\n    }\n    uint constant ONE = 10 ** 27;\n    function mul(uint x, uint y) internal pure returns (uint z) {\n        require(y == 0 || (z = x * y) / y == x);\n    }\n    function join(address usr, uint wad) external note {\n        vat.move(address(this), usr, mul(ONE, wad));\n        dai.burn(msg.sender, wad);\n    }\n    function exit(address usr, uint wad) external note {\n        require(live == 1, \"DaiJoin/not-live\");\n        vat.move(msg.sender, address(this), mul(ONE, wad));\n        dai.mint(usr, wad);\n    }\n}",
  "sourcePath": "/Users/brucedonovan/dev/yield/yDai/contracts/external/maker/join.sol",
  "compiler": {
    "name": "solc",
    "version": "0.6.10+commit.00c0fcaf.Emscripten.clang"
  },
  "schemaVersion": "3.2.3",
  "updatedAt": "2020-09-08T15:13:37.374Z",
  "networkType": "ethereum",
  "devdoc": {
    "methods": {}
  },
  "userdoc": {
    "methods": {}
  }
}