{
  "contractName": "DaiJoin",
  "abi": [
    {
      "inputs": [
        {
          "internalType": "address",
          "name": "vat_",
          "type": "address"
        },
        {
          "internalType": "address",
          "name": "dai_",
          "type": "address"
        }
      ],
      "stateMutability": "nonpayable",
      "type": "constructor"
    },
    {
      "anonymous": true,
      "inputs": [
        {
          "indexed": true,
          "internalType": "bytes4",
          "name": "sig",
          "type": "bytes4"
        },
        {
          "indexed": true,
          "internalType": "address",
          "name": "usr",
          "type": "address"
        },
        {
          "indexed": true,
          "internalType": "bytes32",
          "name": "arg1",
          "type": "bytes32"
        },
        {
          "indexed": true,
          "internalType": "bytes32",
          "name": "arg2",
          "type": "bytes32"
        },
        {
          "indexed": false,
          "internalType": "bytes",
          "name": "data",
          "type": "bytes"
        }
      ],
      "name": "LogNote",
      "type": "event"
    },
    {
      "inputs": [],
      "name": "dai",
      "outputs": [
        {
          "internalType": "contract DSTokenLike",
          "name": "",
          "type": "address"
        }
      ],
      "stateMutability": "view",
      "type": "function",
      "constant": true
    },
    {
      "inputs": [],
      "name": "live",
      "outputs": [
        {
          "internalType": "uint256",
          "name": "",
          "type": "uint256"
        }
      ],
      "stateMutability": "view",
      "type": "function",
      "constant": true
    },
    {
      "inputs": [],
      "name": "vat",
      "outputs": [
        {
          "internalType": "contract VatLike",
          "name": "",
          "type": "address"
        }
      ],
      "stateMutability": "view",
      "type": "function",
      "constant": true
    },
    {
      "inputs": [
        {
          "internalType": "address",
          "name": "",
          "type": "address"
        }
      ],
      "name": "wards",
      "outputs": [
        {
          "internalType": "uint256",
          "name": "",
          "type": "uint256"
        }
      ],
      "stateMutability": "view",
      "type": "function",
      "constant": true
    },
    {
      "inputs": [
        {
          "internalType": "address",
          "name": "usr",
          "type": "address"
        }
      ],
      "name": "rely",
      "outputs": [],
      "stateMutability": "nonpayable",
      "type": "function"
    },
    {
      "inputs": [
        {
          "internalType": "address",
          "name": "usr",
          "type": "address"
        }
      ],
      "name": "deny",
      "outputs": [],
      "stateMutability": "nonpayable",
      "type": "function"
    },
    {
      "inputs": [],
      "name": "cage",
      "outputs": [],
      "stateMutability": "nonpayable",
      "type": "function"
    },
    {
      "inputs": [
        {
          "internalType": "address",
          "name": "usr",
          "type": "address"
        },
        {
          "internalType": "uint256",
          "name": "wad",
          "type": "uint256"
        }
      ],
      "name": "join",
      "outputs": [],
      "stateMutability": "nonpayable",
      "type": "function"
    },
    {
      "inputs": [
        {
          "internalType": "address",
          "name": "usr",
          "type": "address"
        },
        {
          "internalType": "uint256",
          "name": "wad",
          "type": "uint256"
        }
      ],
      "name": "exit",
      "outputs": [],
      "stateMutability": "nonpayable",
      "type": "function"
    }
  ],
  "bytecode": "0x608060405234801561001057600080fd5b50604051610b93380380610b938339818101604052604081101561003357600080fd5b81019080805190602001909291908051906020019092919050505060016000803373ffffffffffffffffffffffffffffffffffffffff1673ffffffffffffffffffffffffffffffffffffffff16815260200190815260200160002081905550600160038190555081600160006101000a81548173ffffffffffffffffffffffffffffffffffffffff021916908373ffffffffffffffffffffffffffffffffffffffff16021790555080600260006101000a81548173ffffffffffffffffffffffffffffffffffffffff021916908373ffffffffffffffffffffffffffffffffffffffff1602179055505050610a668061012d6000396000f3fe608060405234801561001057600080fd5b50600436106100935760003560e01c8063957aa58c11610066578063957aa58c1461017e5780639c52a7f11461019c578063bf353dbb146101e0578063ef693bed14610238578063f4b9fa751461028657610093565b806336569e77146100985780633b4da69f146100e257806365fae35e146101305780636924500914610174575b600080fd5b6100a06102d0565b604051808273ffffffffffffffffffffffffffffffffffffffff1673ffffffffffffffffffffffffffffffffffffffff16815260200191505060405180910390f35b61012e600480360360408110156100f857600080fd5b81019080803573ffffffffffffffffffffffffffffffffffffffff169060200190929190803590602001909291905050506102f6565b005b6101726004803603602081101561014657600080fd5b81019080803573ffffffffffffffffffffffffffffffffffffffff1690602001909291905050506104c5565b005b61017c6105c0565b005b61018661067e565b6040518082815260200191505060405180910390f35b6101de600480360360208110156101b257600080fd5b81019080803573ffffffffffffffffffffffffffffffffffffffff169060200190929190505050610684565b005b610222600480360360208110156101f657600080fd5b81019080803573ffffffffffffffffffffffffffffffffffffffff16906020019092919050505061077f565b6040518082815260200191505060405180910390f35b6102846004803603604081101561024e57600080fd5b81019080803573ffffffffffffffffffffffffffffffffffffffff16906020019092919080359060200190929190505050610797565b005b61028e6109de565b604051808273ffffffffffffffffffffffffffffffffffffffff1673ffffffffffffffffffffffffffffffffffffffff16815260200191505060405180910390f35b600160009054906101000a900473ffffffffffffffffffffffffffffffffffffffff1681565b600160009054906101000a900473ffffffffffffffffffffffffffffffffffffffff1673ffffffffffffffffffffffffffffffffffffffff1663bb35783b308461034c6b033b2e3c9fd0803ce800000086610a04565b6040518463ffffffff1660e01b8152600401808473ffffffffffffffffffffffffffffffffffffffff1673ffffffffffffffffffffffffffffffffffffffff1681526020018373ffffffffffffffffffffffffffffffffffffffff1673ffffffffffffffffffffffffffffffffffffffff1681526020018281526020019350505050600060405180830381600087803b1580156103e857600080fd5b505af11580156103fc573d6000803e3d6000fd5b50505050600260009054906101000a900473ffffffffffffffffffffffffffffffffffffffff1673ffffffffffffffffffffffffffffffffffffffff16639dc29fac33836040518363ffffffff1660e01b8152600401808373ffffffffffffffffffffffffffffffffffffffff1673ffffffffffffffffffffffffffffffffffffffff16815260200182815260200192505050600060405180830381600087803b1580156104a957600080fd5b505af11580156104bd573d6000803e3d6000fd5b505050505050565b60016000803373ffffffffffffffffffffffffffffffffffffffff1673ffffffffffffffffffffffffffffffffffffffff1681526020019081526020016000205414610579576040517f08c379a00000000000000000000000000000000000000000000000000000000081526004018080602001828103825260168152602001807f4461694a6f696e2f6e6f742d617574686f72697a65640000000000000000000081525060200191505060405180910390fd5b60016000808373ffffffffffffffffffffffffffffffffffffffff1673ffffffffffffffffffffffffffffffffffffffff1681526020019081526020016000208190555050565b60016000803373ffffffffffffffffffffffffffffffffffffffff1673ffffffffffffffffffffffffffffffffffffffff1681526020019081526020016000205414610674576040517f08c379a00000000000000000000000000000000000000000000000000000000081526004018080602001828103825260168152602001807f4461694a6f696e2f6e6f742d617574686f72697a65640000000000000000000081525060200191505060405180910390fd5b6000600381905550565b60035481565b60016000803373ffffffffffffffffffffffffffffffffffffffff1673ffffffffffffffffffffffffffffffffffffffff1681526020019081526020016000205414610738576040517f08c379a00000000000000000000000000000000000000000000000000000000081526004018080602001828103825260168152602001807f4461694a6f696e2f6e6f742d617574686f72697a65640000000000000000000081525060200191505060405180910390fd5b60008060008373ffffffffffffffffffffffffffffffffffffffff1673ffffffffffffffffffffffffffffffffffffffff1681526020019081526020016000208190555050565b60006020528060005260406000206000915090505481565b60016003541461080f576040517f08c379a00000000000000000000000000000000000000000000000000000000081526004018080602001828103825260108152602001807f4461694a6f696e2f6e6f742d6c6976650000000000000000000000000000000081525060200191505060405180910390fd5b600160009054906101000a900473ffffffffffffffffffffffffffffffffffffffff1673ffffffffffffffffffffffffffffffffffffffff1663bb35783b33306108656b033b2e3c9fd0803ce800000086610a04565b6040518463ffffffff1660e01b8152600401808473ffffffffffffffffffffffffffffffffffffffff1673ffffffffffffffffffffffffffffffffffffffff1681526020018373ffffffffffffffffffffffffffffffffffffffff1673ffffffffffffffffffffffffffffffffffffffff1681526020018281526020019350505050600060405180830381600087803b15801561090157600080fd5b505af1158015610915573d6000803e3d6000fd5b50505050600260009054906101000a900473ffffffffffffffffffffffffffffffffffffffff1673ffffffffffffffffffffffffffffffffffffffff166340c10f1983836040518363ffffffff1660e01b8152600401808373ffffffffffffffffffffffffffffffffffffffff1673ffffffffffffffffffffffffffffffffffffffff16815260200182815260200192505050600060405180830381600087803b1580156109c257600080fd5b505af11580156109d6573d6000803e3d6000fd5b505050505050565b600260009054906101000a900473ffffffffffffffffffffffffffffffffffffffff1681565b600080821480610a215750828283850292508281610a1e57fe5b04145b610a2a57600080fd5b9291505056fea264697066735822122008d035b67e001a67e6f69adc68969d230515530ccc0ff79b8ec9eb1b30212d2d64736f6c63430006020033",
  "source": "/// join.sol -- Basic token adapters\n\n// Copyright (C) 2018 Rain <rainbreak@riseup.net>\n//\n// This program is free software: you can redistribute it and/or modify\n// it under the terms of the GNU Affero General Public License as published by\n// the Free Software Foundation, either version 3 of the License, or\n// (at your option) any later version.\n//\n// This program is distributed in the hope that it will be useful,\n// but WITHOUT ANY WARRANTY; without even the implied warranty of\n// MERCHANTABILITY or FITNESS FOR A PARTICULAR PURPOSE.  See the\n// GNU Affero General Public License for more details.\n//\n// You should have received a copy of the GNU Affero General Public License\n// along with this program.  If not, see <https://www.gnu.org/licenses/>.\n\npragma solidity ^0.6.0;\n\nimport \"./lib.sol\";\n\ninterface GemLike {\n    function decimals() external view returns (uint);\n    function transfer(address,uint) external returns (bool);\n    function transferFrom(address,address,uint) external returns (bool);\n}\n\ninterface DSTokenLike {\n    function mint(address,uint) external;\n    function burn(address,uint) external;\n}\n\ninterface VatLike {\n    function slip(bytes32,address,int) external;\n    function move(address,address,uint) external;\n}\n\n/*\n    Here we provide *adapters* to connect the Vat to arbitrary external\n    token implementations, creating a bounded context for the Vat. The\n    adapters here are provided as working examples:\n\n      - `GemJoin`: For well behaved ERC20 tokens, with simple transfer\n                   semantics.\n\n      - `ETHJoin`: For native Ether.\n\n      - `DaiJoin`: For connecting internal Dai balances to an external\n                   `DSToken` implementation.\n\n    In practice, adapter implementations will be varied and specific to\n    individual collateral types, accounting for different transfer\n    semantics and token standards.\n\n    Adapters need to implement two basic methods:\n\n      - `join`: enter collateral into the system\n      - `exit`: remove collateral from the system\n\n*/\n\ncontract GemJoin is LibNote {\n    // --- Auth ---\n    mapping (address => uint) public wards;\n    function rely(address usr) external note auth { wards[usr] = 1; }\n    function deny(address usr) external note auth { wards[usr] = 0; }\n    modifier auth {\n        require(wards[msg.sender] == 1, \"GemJoin/not-authorized\");\n        _;\n    }\n\n    VatLike public vat;\n    bytes32 public ilk;\n    GemLike public gem;\n    uint    public dec;\n    uint    public live;  // Access Flag\n\n    constructor(address vat_, bytes32 ilk_, address gem_) public {\n        wards[msg.sender] = 1;\n        live = 1;\n        vat = VatLike(vat_);\n        ilk = ilk_;\n        gem = GemLike(gem_);\n        dec = gem.decimals();\n    }\n    function cage() external note auth {\n        live = 0;\n    }\n    function join(address usr, uint wad) external note {\n        require(live == 1, \"GemJoin/not-live\");\n        require(int(wad) >= 0, \"GemJoin/overflow\");\n        vat.slip(ilk, usr, int(wad));\n        require(gem.transferFrom(msg.sender, address(this), wad), \"GemJoin/failed-transfer\");\n    }\n    function exit(address usr, uint wad) external note {\n        require(wad <= 2 ** 255, \"GemJoin/overflow\");\n        vat.slip(ilk, msg.sender, -int(wad));\n        require(gem.transfer(usr, wad), \"GemJoin/failed-transfer\");\n    }\n}\n\ncontract ETHJoin is LibNote {\n    // --- Auth ---\n    mapping (address => uint) public wards;\n    function rely(address usr) external note auth { wards[usr] = 1; }\n    function deny(address usr) external note auth { wards[usr] = 0; }\n    modifier auth {\n        require(wards[msg.sender] == 1, \"ETHJoin/not-authorized\");\n        _;\n    }\n\n    VatLike public vat;\n    bytes32 public ilk;\n    uint    public live;  // Access Flag\n\n    constructor(address vat_, bytes32 ilk_) public {\n        wards[msg.sender] = 1;\n        live = 1;\n        vat = VatLike(vat_);\n        ilk = ilk_;\n    }\n    function cage() external note auth {\n        live = 0;\n    }\n    function join(address usr) external payable note {\n        require(live == 1, \"ETHJoin/not-live\");\n        require(int(msg.value) >= 0, \"ETHJoin/overflow\");\n        vat.slip(ilk, usr, int(msg.value));\n    }\n    function exit(address payable usr, uint wad) external note {\n        require(int(wad) >= 0, \"ETHJoin/overflow\");\n        vat.slip(ilk, msg.sender, -int(wad));\n        usr.transfer(wad);\n    }\n}\n\ncontract DaiJoin is LibNote {\n    // --- Auth ---\n    mapping (address => uint) public wards;\n    function rely(address usr) external note auth { wards[usr] = 1; }\n    function deny(address usr) external note auth { wards[usr] = 0; }\n    modifier auth {\n        require(wards[msg.sender] == 1, \"DaiJoin/not-authorized\");\n        _;\n    }\n\n    VatLike public vat;\n    DSTokenLike public dai;\n    uint    public live;  // Access Flag\n\n    constructor(address vat_, address dai_) public {\n        wards[msg.sender] = 1;\n        live = 1;\n        vat = VatLike(vat_);\n        dai = DSTokenLike(dai_);\n    }\n    function cage() external note auth {\n        live = 0;\n    }\n    uint constant ONE = 10 ** 27;\n    function mul(uint x, uint y) internal pure returns (uint z) {\n        require(y == 0 || (z = x * y) / y == x);\n    }\n    function join(address usr, uint wad) external note {\n        vat.move(address(this), usr, mul(ONE, wad));\n        dai.burn(msg.sender, wad);\n    }\n    function exit(address usr, uint wad) external note {\n        require(live == 1, \"DaiJoin/not-live\");\n        vat.move(msg.sender, address(this), mul(ONE, wad));\n        dai.mint(usr, wad);\n    }\n}",
  "sourcePath": "/Users/bruce/dev/yieldprotocol/ytoken-mvp/contracts/maker/join.sol",
  "compiler": {
    "name": "solc",
    "version": "0.6.2+commit.bacdbe57.Emscripten.clang"
  },
  "schemaVersion": "3.0.23",
  "updatedAt": "2020-06-01T11:27:32.948Z",
  "networkType": "ethereum",
  "devdoc": {
    "methods": {}
  },
  "userdoc": {
    "methods": {}
  }
}