{
  "contractName": "DaiProxy",
  "abi": [
    {
      "inputs": [
        {
          "internalType": "address",
          "name": "vat_",
          "type": "address"
        },
        {
          "internalType": "address",
          "name": "pot_",
          "type": "address"
        },
        {
          "internalType": "address",
          "name": "controller_",
          "type": "address"
        },
        {
          "internalType": "address",
          "name": "pool_",
          "type": "address"
        }
      ],
      "stateMutability": "nonpayable",
      "type": "constructor"
    },
    {
      "inputs": [],
      "name": "CHAI",
      "outputs": [
        {
          "internalType": "bytes32",
          "name": "",
          "type": "bytes32"
        }
      ],
      "stateMutability": "view",
      "type": "function"
    },
    {
      "inputs": [],
      "name": "UNIT",
      "outputs": [
        {
          "internalType": "uint256",
          "name": "",
          "type": "uint256"
        }
      ],
      "stateMutability": "view",
      "type": "function"
    },
    {
      "inputs": [],
      "name": "WETH",
      "outputs": [
        {
          "internalType": "bytes32",
          "name": "",
          "type": "bytes32"
        }
      ],
      "stateMutability": "view",
      "type": "function"
    },
    {
      "inputs": [
        {
          "internalType": "bytes32",
          "name": "collateral",
          "type": "bytes32"
        },
        {
          "internalType": "uint256",
          "name": "maturity",
          "type": "uint256"
        },
        {
          "internalType": "address",
          "name": "to",
          "type": "address"
        },
        {
          "internalType": "uint256",
          "name": "maximumYDai",
          "type": "uint256"
        },
        {
          "internalType": "uint256",
          "name": "daiToBorrow",
          "type": "uint256"
        }
      ],
      "name": "borrowDaiForMaximumYDai",
      "outputs": [
        {
          "internalType": "uint256",
          "name": "",
          "type": "uint256"
        }
      ],
      "stateMutability": "nonpayable",
      "type": "function"
    },
    {
      "inputs": [
        {
          "internalType": "bytes32",
          "name": "collateral",
          "type": "bytes32"
        },
        {
          "internalType": "uint256",
          "name": "maturity",
          "type": "uint256"
        },
        {
          "internalType": "address",
          "name": "to",
          "type": "address"
        },
        {
          "internalType": "uint256",
          "name": "yDaiToBorrow",
          "type": "uint256"
        },
        {
          "internalType": "uint256",
          "name": "minimumDaiToBorrow",
          "type": "uint256"
        }
      ],
      "name": "borrowMinimumDaiForCollateral",
      "outputs": [
        {
          "internalType": "uint256",
          "name": "",
          "type": "uint256"
        }
      ],
      "stateMutability": "nonpayable",
      "type": "function"
    },
    {
      "inputs": [
        {
          "internalType": "bytes32",
          "name": "collateral",
          "type": "bytes32"
        },
        {
          "internalType": "uint256",
          "name": "maturity",
          "type": "uint256"
        },
        {
          "internalType": "address",
          "name": "to",
          "type": "address"
        },
        {
          "internalType": "uint256",
          "name": "yDaiRepayment",
          "type": "uint256"
        },
        {
          "internalType": "uint256",
          "name": "maximumRepaymentInDai",
          "type": "uint256"
        }
      ],
      "name": "repayYDaiDebtForMaximumDai",
      "outputs": [
        {
          "internalType": "uint256",
          "name": "",
          "type": "uint256"
        }
      ],
      "stateMutability": "nonpayable",
      "type": "function"
    },
    {
      "inputs": [
        {
          "internalType": "bytes32",
          "name": "collateral",
          "type": "bytes32"
        },
        {
          "internalType": "uint256",
          "name": "maturity",
          "type": "uint256"
        },
        {
          "internalType": "address",
          "name": "to",
          "type": "address"
        },
        {
          "internalType": "uint256",
          "name": "minimumYDaiRepayment",
          "type": "uint256"
        },
        {
          "internalType": "uint256",
          "name": "repaymentInDai",
          "type": "uint256"
        }
      ],
      "name": "repayMinimumYDaiDebtForDai",
      "outputs": [
        {
          "internalType": "uint256",
          "name": "",
          "type": "uint256"
        }
      ],
      "stateMutability": "nonpayable",
      "type": "function"
    }
  ],
  "bytecode": "0x608060405234801561001057600080fd5b506040516108a03803806108a08339818101604052608081101561003357600080fd5b50805160208201516040830151606090930151600080546001600160a01b039485166001600160a01b03199182161790915560018054938516938216939093179092556002805494841694831694909417909355600380549290931691161790556107fd806100a36000396000f3fe608060405234801561001057600080fd5b506004361061007d5760003560e01c806377b7b23d1161005b57806377b7b23d1461014e5780639d8e21771461018c578063ad5c464814610194578063b6dbf9ce1461019c5761007d565b806302232b011461008257806320a3f1ee146100d2578063765e39dc14610110575b600080fd5b6100c0600480360360a081101561009857600080fd5b508035906020810135906001600160a01b0360408201351690606081013590608001356101a4565b60408051918252519081900360200190f35b6100c0600480360360a08110156100e857600080fd5b508035906020810135906001600160a01b036040820135169060608101359060800135610380565b6100c0600480360360a081101561012657600080fd5b508035906020810135906001600160a01b0360408201351690606081013590608001356104cb565b6100c0600480360360a081101561016457600080fd5b508035906020810135906001600160a01b03604082013516906060810135906080013561061b565b6100c0610748565b6100c0610758565b6100c0610764565b60035460009081906001600160a01b0316634e20e9526101c38561076f565b6040518263ffffffff1660e01b815260040180826001600160801b03166001600160801b0316815260200191505060206040518083038186803b15801561020957600080fd5b505afa15801561021d573d6000803e3d6000fd5b505050506040513d602081101561023357600080fd5b50516001600160801b031690508381111561024d57600080fd5b6002546040805163801d325f60e01b8152600481018a9052602481018990523360448201523060648201526084810184905290516001600160a01b039092169163801d325f9160a48082019260009290919082900301818387803b1580156102b457600080fd5b505af11580156102c8573d6000803e3d6000fd5b50506003546001600160a01b0316915063cc5783d3905030876102ea8761076f565b604080516001600160e01b031960e087901b1681526001600160a01b0394851660048201529290931660248301526001600160801b03166044820152905160648083019260209291908290030181600087803b15801561034957600080fd5b505af115801561035d573d6000803e3d6000fd5b505050506040513d602081101561037357600080fd5b5090979650505050505050565b6002546040805163801d325f60e01b815260048101889052602481018790523360448201523060648201526084810185905290516000926001600160a01b03169163801d325f9160a4808301928692919082900301818387803b1580156103e657600080fd5b505af11580156103fa573d6000803e3d6000fd5b5050600354600092506001600160a01b0316905063c47b5b83308761041e8861076f565b604080516001600160e01b031960e087901b1681526001600160a01b0394851660048201529290931660248301526001600160801b03166044820152905160648083019260209291908290030181600087803b15801561047d57600080fd5b505af1158015610491573d6000803e3d6000fd5b505050506040513d60208110156104a757600080fd5b50516001600160801b03169050828110156104c157600080fd5b9695505050505050565b60035460009081906001600160a01b031663b26be92233306104ec8761076f565b604080516001600160e01b031960e087901b1681526001600160a01b0394851660048201529290931660248301526001600160801b03166044820152905160648083019260209291908290030181600087803b15801561054b57600080fd5b505af115801561055f573d6000803e3d6000fd5b505050506040513d602081101561057557600080fd5b50516001600160801b031690508381101561058f57600080fd5b600254604080516391371ffb60e01b8152600481018a9052602481018990523060448201526001600160a01b03888116606483015260848201859052915191909216916391371ffb9160a480830192600092919082900301818387803b1580156105f857600080fd5b505af115801561060c573d6000803e3d6000fd5b50929998505050505050505050565b60035460009081906001600160a01b031663d43fde70333061063c8861076f565b604080516001600160e01b031960e087901b1681526001600160a01b0394851660048201529290931660248301526001600160801b03166044820152905160648083019260209291908290030181600087803b15801561069b57600080fd5b505af11580156106af573d6000803e3d6000fd5b505050506040513d60208110156106c557600080fd5b50516001600160801b03169050828111156106df57600080fd5b600254604080516391371ffb60e01b8152600481018a9052602481018990523060448201526001600160a01b03888116606483015260848201889052915191909216916391371ffb9160a480830192600092919082900301818387803b1580156105f857600080fd5b6b033b2e3c9fd0803ce800000081565b644554482d4160d81b81565b634348414960e01b81565b60006001600160801b038211156107c3576040805162461bcd60e51b8152602060048201526013602482015272506f6f6c3a2043617374206f766572666c6f7760681b604482015290519081900360640190fd5b509056fea26469706673582212200b4309eff5bfb72c5472d6635ee8d41bf0635d244697cb2f6e0f204b9d3076e164736f6c634300060a0033",
  "immutableReferences": {},
  "source": "// SPDX-License-Identifier: GPL-3.0-or-later\r\npragma solidity ^0.6.10;\r\n\r\nimport \"../interfaces/IVat.sol\";\r\nimport \"../interfaces/IPot.sol\";\r\nimport \"../interfaces/IController.sol\";\r\nimport \"../interfaces/IPool.sol\";\r\nimport \"../helpers/DecimalMath.sol\";\r\n\r\n/**\r\n * @dev The DaiProxy is a proxy contract of Controller that allows users to immediately sell borrowed yDai for Dai, and to sell Dai at pool rates to repay YDai debt.\r\n */\r\ncontract DaiProxy is DecimalMath {\r\n\r\n    bytes32 public constant CHAI = \"CHAI\";\r\n    bytes32 public constant WETH = \"ETH-A\";\r\n\r\n    IVat internal _vat;\r\n    IPot internal _pot;\r\n    IController internal _controller;\r\n    IPool internal _pool;\r\n\r\n    /// @dev The constructor links ControllerDai to vat, pot, controller and pool.\r\n    constructor (\r\n        address vat_,\r\n        address pot_,\r\n        address controller_,\r\n        address pool_\r\n    ) public {\r\n        _vat = IVat(vat_);\r\n        _pot = IPot(pot_);\r\n        _controller = IController(controller_);\r\n        _pool = IPool(pool_);\r\n    }\r\n\r\n    /// @dev Safe casting from uint256 to uint128\r\n    function toUint128(uint256 x) internal pure returns(uint128) {\r\n        require(\r\n            x <= 340282366920938463463374607431768211455,\r\n            \"Pool: Cast overflow\"\r\n        );\r\n        return uint128(x);\r\n    }\r\n\r\n    /// @dev Borrow yDai from Controller and sell it immediately for Dai, for a maximum yDai debt.\r\n    /// Must have approved the operator with `controller.addDelegate(controllerDai.address)`.\r\n    /// @param collateral Valid collateral type.\r\n    /// @param maturity Maturity of an added series\r\n    /// @param to Wallet to send the resulting Dai to.\r\n    /// @param maximumYDai Maximum amount of YDai to borrow.\r\n    /// @param daiToBorrow Exact amount of Dai that should be obtained.\r\n    function borrowDaiForMaximumYDai(\r\n        bytes32 collateral,\r\n        uint256 maturity,\r\n        address to,\r\n        uint256 maximumYDai,\r\n        uint256 daiToBorrow\r\n    )\r\n        public\r\n        returns (uint256)\r\n    {\r\n        uint256 yDaiToBorrow = _pool.buyDaiPreview(toUint128(daiToBorrow));\r\n        require (yDaiToBorrow <= maximumYDai);\r\n\r\n        // The collateral for this borrow needs to have been posted beforehand\r\n        _controller.borrow(collateral, maturity, msg.sender, address(this), yDaiToBorrow);\r\n        _pool.buyDai(address(this), to, toUint128(daiToBorrow));\r\n\r\n        return yDaiToBorrow;\r\n    }\r\n\r\n    /// @dev Borrow yDai from Controller and sell it immediately for Dai, if a minimum amount of Dai can be obtained such.\r\n    /// Must have approved the operator with `controller.addDelegate(controllerDai.address)`.\r\n    /// @param collateral Valid collateral type.\r\n    /// @param maturity Maturity of an added series\r\n    /// @param to Wallet to sent the resulting Dai to.\r\n    /// @param yDaiToBorrow Amount of yDai to borrow.\r\n    /// @param minimumDaiToBorrow Minimum amount of Dai that should be borrowed.\r\n    function borrowMinimumDaiForCollateral(\r\n        bytes32 collateral,\r\n        uint256 maturity,\r\n        address to,\r\n        uint256 yDaiToBorrow,\r\n        uint256 minimumDaiToBorrow\r\n    )\r\n        public\r\n        returns (uint256)\r\n    {\r\n        // The collateral for this borrow needs to have been posted beforehand\r\n        _controller.borrow(collateral, maturity, msg.sender, address(this), yDaiToBorrow);\r\n        uint256 boughtDai = _pool.sellYDai(address(this), to, toUint128(yDaiToBorrow));\r\n        require (boughtDai >= minimumDaiToBorrow);\r\n\r\n        return boughtDai;\r\n    }\r\n\r\n    /// @dev Repay an amount of yDai debt in Controller using Dai exchanged for yDai at pool rates, up to a maximum amount of Dai spent.\r\n    /// Must have approved the operator with `controller.addDelegate(controllerDai.address)`.\r\n    /// @param collateral Valid collateral type.\r\n    /// @param maturity Maturity of an added series\r\n    /// @param to Yield Vault to repay yDai debt for.\r\n    /// @param yDaiRepayment Amount of yDai debt to repay.\r\n    /// @param maximumRepaymentInDai Maximum amount of Dai that should be spent on the repayment.\r\n    function repayYDaiDebtForMaximumDai(\r\n        bytes32 collateral,\r\n        uint256 maturity,\r\n        address to,\r\n        uint256 yDaiRepayment,\r\n        uint256 maximumRepaymentInDai\r\n    )\r\n        public\r\n        returns (uint256)\r\n    {\r\n        uint256 repaymentInDai = _pool.buyYDai(msg.sender, address(this), toUint128(yDaiRepayment));\r\n        require (repaymentInDai <= maximumRepaymentInDai);\r\n        _controller.repayYDai(collateral, maturity, address(this), to, yDaiRepayment);\r\n\r\n        return repaymentInDai;\r\n    }\r\n\r\n    /// @dev Repay an amount of yDai debt in Controller using a given amount of Dai exchanged for yDai at pool rates, with a minimum of yDai debt required to be paid.\r\n    /// Must have approved the operator with `controller.addDelegate(controllerDai.address)`.\r\n    /// @param collateral Valid collateral type.\r\n    /// @param maturity Maturity of an added series\r\n    /// @param to Yield Vault to repay yDai debt for.\r\n    /// @param minimumYDaiRepayment Minimum amount of yDai debt to repay.\r\n    /// @param repaymentInDai Exact amount of Dai that should be spent on the repayment.\r\n    function repayMinimumYDaiDebtForDai(\r\n        bytes32 collateral,\r\n        uint256 maturity,\r\n        address to,\r\n        uint256 minimumYDaiRepayment,\r\n        uint256 repaymentInDai\r\n    )\r\n        public\r\n        returns (uint256)\r\n    {\r\n        uint256 yDaiRepayment = _pool.sellDai(msg.sender, address(this), toUint128(repaymentInDai));\r\n        require (yDaiRepayment >= minimumYDaiRepayment);\r\n        _controller.repayYDai(collateral, maturity, address(this), to, yDaiRepayment);\r\n\r\n        return yDaiRepayment;\r\n    }\r\n}\r\n",
  "sourcePath": "C:/Users/bruce/dev/yield/yDai/contracts/peripheral/DaiProxy.sol",
  "compiler": {
    "name": "solc",
    "version": "0.6.10+commit.00c0fcaf.Emscripten.clang"
  },
  "schemaVersion": "3.2.3",
  "updatedAt": "2020-07-29T20:40:10.329Z",
  "devdoc": {
    "details": "The DaiProxy is a proxy contract of Controller that allows users to immediately sell borrowed yDai for Dai, and to sell Dai at pool rates to repay YDai debt.",
    "methods": {
      "borrowDaiForMaximumYDai(bytes32,uint256,address,uint256,uint256)": {
        "details": "Borrow yDai from Controller and sell it immediately for Dai, for a maximum yDai debt. Must have approved the operator with `controller.addDelegate(controllerDai.address)`.",
        "params": {
          "collateral": "Valid collateral type.",
          "daiToBorrow": "Exact amount of Dai that should be obtained.",
          "maturity": "Maturity of an added series",
          "maximumYDai": "Maximum amount of YDai to borrow.",
          "to": "Wallet to send the resulting Dai to."
        }
      },
      "borrowMinimumDaiForCollateral(bytes32,uint256,address,uint256,uint256)": {
        "details": "Borrow yDai from Controller and sell it immediately for Dai, if a minimum amount of Dai can be obtained such. Must have approved the operator with `controller.addDelegate(controllerDai.address)`.",
        "params": {
          "collateral": "Valid collateral type.",
          "maturity": "Maturity of an added series",
          "minimumDaiToBorrow": "Minimum amount of Dai that should be borrowed.",
          "to": "Wallet to sent the resulting Dai to.",
          "yDaiToBorrow": "Amount of yDai to borrow."
        }
      },
      "constructor": {
        "details": "The constructor links ControllerDai to vat, pot, controller and pool."
      },
      "repayMinimumYDaiDebtForDai(bytes32,uint256,address,uint256,uint256)": {
        "details": "Repay an amount of yDai debt in Controller using a given amount of Dai exchanged for yDai at pool rates, with a minimum of yDai debt required to be paid. Must have approved the operator with `controller.addDelegate(controllerDai.address)`.",
        "params": {
          "collateral": "Valid collateral type.",
          "maturity": "Maturity of an added series",
          "minimumYDaiRepayment": "Minimum amount of yDai debt to repay.",
          "repaymentInDai": "Exact amount of Dai that should be spent on the repayment.",
          "to": "Yield Vault to repay yDai debt for."
        }
      },
      "repayYDaiDebtForMaximumDai(bytes32,uint256,address,uint256,uint256)": {
        "details": "Repay an amount of yDai debt in Controller using Dai exchanged for yDai at pool rates, up to a maximum amount of Dai spent. Must have approved the operator with `controller.addDelegate(controllerDai.address)`.",
        "params": {
          "collateral": "Valid collateral type.",
          "maturity": "Maturity of an added series",
          "maximumRepaymentInDai": "Maximum amount of Dai that should be spent on the repayment.",
          "to": "Yield Vault to repay yDai debt for.",
          "yDaiRepayment": "Amount of yDai debt to repay."
        }
      }
    }
  },
  "userdoc": {
    "methods": {}
  }
}