{
  "contractName": "DaiProxy",
  "abi": [
    {
      "inputs": [
        {
          "internalType": "address",
          "name": "dai_",
          "type": "address"
        },
        {
          "internalType": "address",
          "name": "controller_",
          "type": "address"
        },
        {
          "internalType": "address[]",
          "name": "pools",
          "type": "address[]"
        }
      ],
      "stateMutability": "nonpayable",
      "type": "constructor"
    },
    {
      "inputs": [],
      "name": "CHAI",
      "outputs": [
        {
          "internalType": "bytes32",
          "name": "",
          "type": "bytes32"
        }
      ],
      "stateMutability": "view",
      "type": "function"
    },
    {
      "inputs": [],
      "name": "UNIT",
      "outputs": [
        {
          "internalType": "uint256",
          "name": "",
          "type": "uint256"
        }
      ],
      "stateMutability": "view",
      "type": "function"
    },
    {
      "inputs": [],
      "name": "WETH",
      "outputs": [
        {
          "internalType": "bytes32",
          "name": "",
          "type": "bytes32"
        }
      ],
      "stateMutability": "view",
      "type": "function"
    },
    {
      "inputs": [],
      "name": "controller",
      "outputs": [
        {
          "internalType": "contract IController",
          "name": "",
          "type": "address"
        }
      ],
      "stateMutability": "view",
      "type": "function"
    },
    {
      "inputs": [],
      "name": "dai",
      "outputs": [
        {
          "internalType": "contract IERC20",
          "name": "",
          "type": "address"
        }
      ],
      "stateMutability": "view",
      "type": "function"
    },
    {
      "inputs": [
        {
          "internalType": "address",
          "name": "pool",
          "type": "address"
        },
        {
          "internalType": "bytes32",
          "name": "collateral",
          "type": "bytes32"
        },
        {
          "internalType": "uint256",
          "name": "maturity",
          "type": "uint256"
        },
        {
          "internalType": "address",
          "name": "to",
          "type": "address"
        },
        {
          "internalType": "uint256",
          "name": "maximumYDai",
          "type": "uint256"
        },
        {
          "internalType": "uint256",
          "name": "daiToBorrow",
          "type": "uint256"
        }
      ],
      "name": "borrowDaiForMaximumYDai",
      "outputs": [
        {
          "internalType": "uint256",
          "name": "",
          "type": "uint256"
        }
      ],
      "stateMutability": "nonpayable",
      "type": "function"
    },
    {
      "inputs": [
        {
          "internalType": "address",
          "name": "pool",
          "type": "address"
        },
        {
          "internalType": "bytes32",
          "name": "collateral",
          "type": "bytes32"
        },
        {
          "internalType": "uint256",
          "name": "maturity",
          "type": "uint256"
        },
        {
          "internalType": "address",
          "name": "to",
          "type": "address"
        },
        {
          "internalType": "uint256",
          "name": "maximumYDai",
          "type": "uint256"
        },
        {
          "internalType": "uint256",
          "name": "daiToBorrow",
          "type": "uint256"
        },
        {
          "internalType": "uint256",
          "name": "deadline",
          "type": "uint256"
        },
        {
          "internalType": "uint8",
          "name": "v",
          "type": "uint8"
        },
        {
          "internalType": "bytes32",
          "name": "r",
          "type": "bytes32"
        },
        {
          "internalType": "bytes32",
          "name": "s",
          "type": "bytes32"
        }
      ],
      "name": "borrowDaiForMaximumYDaiBySignature",
      "outputs": [
        {
          "internalType": "uint256",
          "name": "",
          "type": "uint256"
        }
      ],
      "stateMutability": "nonpayable",
      "type": "function"
    },
    {
      "inputs": [
        {
          "internalType": "address",
          "name": "pool",
          "type": "address"
        },
        {
          "internalType": "bytes32",
          "name": "collateral",
          "type": "bytes32"
        },
        {
          "internalType": "uint256",
          "name": "maturity",
          "type": "uint256"
        },
        {
          "internalType": "address",
          "name": "to",
          "type": "address"
        },
        {
          "internalType": "uint256",
          "name": "yDaiToBorrow",
          "type": "uint256"
        },
        {
          "internalType": "uint256",
          "name": "minimumDaiToBorrow",
          "type": "uint256"
        }
      ],
      "name": "borrowMinimumDaiForYDai",
      "outputs": [
        {
          "internalType": "uint256",
          "name": "",
          "type": "uint256"
        }
      ],
      "stateMutability": "nonpayable",
      "type": "function"
    },
    {
      "inputs": [
        {
          "internalType": "address",
          "name": "pool",
          "type": "address"
        },
        {
          "internalType": "bytes32",
          "name": "collateral",
          "type": "bytes32"
        },
        {
          "internalType": "uint256",
          "name": "maturity",
          "type": "uint256"
        },
        {
          "internalType": "address",
          "name": "to",
          "type": "address"
        },
        {
          "internalType": "uint256",
          "name": "yDaiToBorrow",
          "type": "uint256"
        },
        {
          "internalType": "uint256",
          "name": "minimumDaiToBorrow",
          "type": "uint256"
        },
        {
          "internalType": "uint256",
          "name": "deadline",
          "type": "uint256"
        },
        {
          "internalType": "uint8",
          "name": "v",
          "type": "uint8"
        },
        {
          "internalType": "bytes32",
          "name": "r",
          "type": "bytes32"
        },
        {
          "internalType": "bytes32",
          "name": "s",
          "type": "bytes32"
        }
      ],
      "name": "borrowMinimumDaiForYDaiBySignature",
      "outputs": [
        {
          "internalType": "uint256",
          "name": "",
          "type": "uint256"
        }
      ],
      "stateMutability": "nonpayable",
      "type": "function"
    },
    {
      "inputs": [
        {
          "internalType": "address",
          "name": "pool",
          "type": "address"
        },
        {
          "internalType": "bytes32",
          "name": "collateral",
          "type": "bytes32"
        },
        {
          "internalType": "uint256",
          "name": "maturity",
          "type": "uint256"
        },
        {
          "internalType": "address",
          "name": "to",
          "type": "address"
        },
        {
          "internalType": "uint256",
          "name": "yDaiRepayment",
          "type": "uint256"
        },
        {
          "internalType": "uint256",
          "name": "maximumRepaymentInDai",
          "type": "uint256"
        }
      ],
      "name": "repayYDaiDebtForMaximumDai",
      "outputs": [
        {
          "internalType": "uint256",
          "name": "",
          "type": "uint256"
        }
      ],
      "stateMutability": "nonpayable",
      "type": "function"
    },
    {
      "inputs": [
        {
          "internalType": "address",
          "name": "pool",
          "type": "address"
        },
        {
          "internalType": "bytes32",
          "name": "collateral",
          "type": "bytes32"
        },
        {
          "internalType": "uint256",
          "name": "maturity",
          "type": "uint256"
        },
        {
          "internalType": "address",
          "name": "to",
          "type": "address"
        },
        {
          "internalType": "uint256",
          "name": "yDaiRepayment",
          "type": "uint256"
        },
        {
          "internalType": "uint256",
          "name": "maximumRepaymentInDai",
          "type": "uint256"
        },
        {
          "internalType": "uint256",
          "name": "deadline",
          "type": "uint256"
        },
        {
          "internalType": "uint8",
          "name": "v",
          "type": "uint8"
        },
        {
          "internalType": "bytes32",
          "name": "r",
          "type": "bytes32"
        },
        {
          "internalType": "bytes32",
          "name": "s",
          "type": "bytes32"
        }
      ],
      "name": "repayYDaiDebtForMaximumDaiBySignature",
      "outputs": [
        {
          "internalType": "uint256",
          "name": "",
          "type": "uint256"
        }
      ],
      "stateMutability": "nonpayable",
      "type": "function"
    },
    {
      "inputs": [
        {
          "internalType": "address",
          "name": "pool",
          "type": "address"
        },
        {
          "internalType": "bytes32",
          "name": "collateral",
          "type": "bytes32"
        },
        {
          "internalType": "uint256",
          "name": "maturity",
          "type": "uint256"
        },
        {
          "internalType": "address",
          "name": "to",
          "type": "address"
        },
        {
          "internalType": "uint256",
          "name": "minimumYDaiRepayment",
          "type": "uint256"
        },
        {
          "internalType": "uint256",
          "name": "repaymentInDai",
          "type": "uint256"
        }
      ],
      "name": "repayMinimumYDaiDebtForDai",
      "outputs": [
        {
          "internalType": "uint256",
          "name": "",
          "type": "uint256"
        }
      ],
      "stateMutability": "nonpayable",
      "type": "function"
    },
    {
      "inputs": [
        {
          "internalType": "address",
          "name": "pool",
          "type": "address"
        },
        {
          "internalType": "bytes32",
          "name": "collateral",
          "type": "bytes32"
        },
        {
          "internalType": "uint256",
          "name": "maturity",
          "type": "uint256"
        },
        {
          "internalType": "address",
          "name": "to",
          "type": "address"
        },
        {
          "internalType": "uint256",
          "name": "minimumYDaiRepayment",
          "type": "uint256"
        },
        {
          "internalType": "uint256",
          "name": "repaymentInDai",
          "type": "uint256"
        },
        {
          "internalType": "uint256",
          "name": "deadline",
          "type": "uint256"
        },
        {
          "internalType": "uint8",
          "name": "v",
          "type": "uint8"
        },
        {
          "internalType": "bytes32",
          "name": "r",
          "type": "bytes32"
        },
        {
          "internalType": "bytes32",
          "name": "s",
          "type": "bytes32"
        }
      ],
      "name": "repayMinimumYDaiDebtForDaiBySignature",
      "outputs": [
        {
          "internalType": "uint256",
          "name": "",
          "type": "uint256"
        }
      ],
      "stateMutability": "nonpayable",
      "type": "function"
    }
  ],
  "bytecode": "0x60806040523480156200001157600080fd5b506040516200123038038062001230833981810160405260608110156200003757600080fd5b815160208301516040808501805191519395929483019291846401000000008211156200006357600080fd5b9083019060208201858111156200007957600080fd5b82518660208202830111640100000000821117156200009757600080fd5b82525081516020918201928201910280838360005b83811015620000c6578181015183820152602001620000ac565b50505050919091016040525050600080546001600160a01b038088166001600160a01b031992831617835560018054918816919092161790559150505b81518110156200040f5760008282815181106200011c57fe5b60200260200101516001600160a01b031663aef52e3f6040518163ffffffff1660e01b815260040160206040518083038186803b1580156200015d57600080fd5b505afa15801562000172573d6000803e3d6000fd5b505050506040513d60208110156200018957600080fd5b50516001546040805163204f83f960e01b815290519293506001600160a01b039182169263d0a3a7e49285169163204f83f9916004808301926020929190829003018186803b158015620001dc57600080fd5b505afa158015620001f1573d6000803e3d6000fd5b505050506040513d60208110156200020857600080fd5b5051604080516001600160e01b031960e085901b1681526004810192909252516024808301926020929190829003018186803b1580156200024857600080fd5b505afa1580156200025d573d6000803e3d6000fd5b505050506040513d60208110156200027457600080fd5b5051620002b35760405162461bcd60e51b8152600401808060200182810382526028815260200180620012086028913960400191505060405180910390fd5b806001600160a01b031663095ea7b3848481518110620002cf57fe5b60200260200101516000196040518363ffffffff1660e01b815260040180836001600160a01b03166001600160a01b0316815260200182815260200192505050602060405180830381600087803b1580156200032a57600080fd5b505af11580156200033f573d6000803e3d6000fd5b505050506040513d60208110156200035657600080fd5b505060005483516001600160a01b039091169063095ea7b3908590859081106200037c57fe5b60200260200101516000196040518363ffffffff1660e01b815260040180836001600160a01b03166001600160a01b0316815260200182815260200192505050602060405180830381600087803b158015620003d757600080fd5b505af1158015620003ec573d6000803e3d6000fd5b505050506040513d60208110156200040357600080fd5b50505060010162000103565b50505050610de580620004236000396000f3fe608060405234801561001057600080fd5b50600436106100cf5760003560e01c80639d8e21771161008c578063b6dbf9ce11610066578063b6dbf9ce14610348578063b7d183b714610350578063f4b9fa75146103b6578063f77c4791146103da576100cf565b80639d8e2177146102f0578063ad5c4648146102f8578063aef0757614610300576100cf565b8063215b548c146100d457806337ba839b1461012e5780634651545c146101765780635047c7f4146101dc5780635caab63b146102245780637dc96aef1461028a575b600080fd5b61011c600480360360c08110156100ea57600080fd5b506001600160a01b03813581169160208101359160408201359160608101359091169060808101359060a001356103e2565b60408051918252519081900360200190f35b61011c600480360360c081101561014457600080fd5b506001600160a01b03813581169160208101359160408201359160608101359091169060808101359060a00135610561565b61011c600480360361014081101561018d57600080fd5b506001600160a01b03813581169160208101359160408201359160608101359091169060808101359060a08101359060c08101359060ff60e08201351690610100810135906101200135610780565b61011c600480360360c08110156101f257600080fd5b506001600160a01b03813581169160208101359160408201359160608101359091169060808101359060a00135610823565b61011c600480360361014081101561023b57600080fd5b506001600160a01b03813581169160208101359160408201359160608101359091169060808101359060a08101359060c08101359060ff60e0820135169061010081013590610120013561099d565b61011c60048036036101408110156102a157600080fd5b506001600160a01b03813581169160208101359160408201359160608101359091169060808101359060a08101359060c08101359060ff60e08201351690610100810135906101200135610a32565b61011c610ac7565b61011c610ad7565b61011c600480360360c081101561031657600080fd5b506001600160a01b03813581169160208101359160408201359160608101359091169060808101359060a00135610ae3565b61011c610c54565b61011c600480360361014081101561036757600080fd5b506001600160a01b03813581169160208101359160408201359160608101359091169060808101359060a08101359060c08101359060ff60e08201351690610100810135906101200135610c5f565b6103be610cf3565b604080516001600160a01b039092168252519081900360200190f35b6103be610d02565b600080876001600160a01b031663b26be92233306103ff87610d11565b604080516001600160e01b031960e087901b1681526001600160a01b0394851660048201529290931660248301526001600160801b03166044820152905160648083019260209291908290030181600087803b15801561045e57600080fd5b505af1158015610472573d6000803e3d6000fd5b505050506040513d602081101561048857600080fd5b50516001600160801b03169050838110156104d45760405162461bcd60e51b8152600401808060200182810382526025815260200180610d6a6025913960400191505060405180910390fd5b600154604080516391371ffb60e01b8152600481018a9052602481018990523060448201526001600160a01b03888116606483015260848201859052915191909216916391371ffb9160a480830192600092919082900301818387803b15801561053d57600080fd5b505af1158015610551573d6000803e3d6000fd5b50929a9950505050505050505050565b600086816001600160a01b038216634e20e95261057d86610d11565b6040518263ffffffff1660e01b815260040180826001600160801b03166001600160801b0316815260200191505060206040518083038186803b1580156105c357600080fd5b505afa1580156105d7573d6000803e3d6000fd5b505050506040513d60208110156105ed57600080fd5b50516001600160801b031690508481111561064f576040805162461bcd60e51b815260206004820181905260248201527f44616950726f78793a20546f6f206d7563682079446169207265717569726564604482015290519081900360640190fd5b6001546040805163801d325f60e01b8152600481018b9052602481018a90523360448201523060648201526084810184905290516001600160a01b039092169163801d325f9160a48082019260009290919082900301818387803b1580156106b657600080fd5b505af11580156106ca573d6000803e3d6000fd5b50505050816001600160a01b031663cc5783d330886106e888610d11565b604080516001600160e01b031960e087901b1681526001600160a01b0394851660048201529290931660248301526001600160801b03166044820152905160648083019260209291908290030181600087803b15801561074757600080fd5b505af115801561075b573d6000803e3d6000fd5b505050506040513d602081101561077157600080fd5b50909998505050505050505050565b60408051631a28ff0560e01b81523360048201523060248201526044810186905260ff851660648201526084810184905260a4810183905290516000916001600160a01b038d1691631a28ff059160c480820192869290919082900301818387803b1580156107ee57600080fd5b505af1158015610802573d6000803e3d6000fd5b505050506108148b8b8b8b8b8b6103e2565b9b9a5050505050505050505050565b6001546040805163801d325f60e01b815260048101889052602481018790523360448201523060648201526084810185905290516000926001600160a01b03169163801d325f9160a4808301928692919082900301818387803b15801561088957600080fd5b505af115801561089d573d6000803e3d6000fd5b505050506000876001600160a01b031663c47b5b8330876108bd88610d11565b604080516001600160e01b031960e087901b1681526001600160a01b0394851660048201529290931660248301526001600160801b03166044820152905160648083019260209291908290030181600087803b15801561091c57600080fd5b505af1158015610930573d6000803e3d6000fd5b505050506040513d602081101561094657600080fd5b50516001600160801b03169050828110156109925760405162461bcd60e51b8152600401808060200182810382526021815260200180610d8f6021913960400191505060405180910390fd5b979650505050505050565b60015460408051631a28ff0560e01b81523360048201523060248201526044810187905260ff861660648201526084810185905260a4810184905290516000926001600160a01b031691631a28ff059160c4808301928692919082900301818387803b158015610a0c57600080fd5b505af1158015610a20573d6000803e3d6000fd5b505050506108148b8b8b8b8b8b610823565b60015460408051631a28ff0560e01b81523360048201523060248201526044810187905260ff861660648201526084810185905260a4810184905290516000926001600160a01b031691631a28ff059160c4808301928692919082900301818387803b158015610aa157600080fd5b505af1158015610ab5573d6000803e3d6000fd5b505050506108148b8b8b8b8b8b610561565b6b033b2e3c9fd0803ce800000081565b644554482d4160d81b81565b600080876001600160a01b031663d43fde703330610b0088610d11565b604080516001600160e01b031960e087901b1681526001600160a01b0394851660048201529290931660248301526001600160801b03166044820152905160648083019260209291908290030181600087803b158015610b5f57600080fd5b505af1158015610b73573d6000803e3d6000fd5b505050506040513d6020811015610b8957600080fd5b50516001600160801b0316905082811115610beb576040805162461bcd60e51b815260206004820152601f60248201527f44616950726f78793a20546f6f206d7563682044616920726571756972656400604482015290519081900360640190fd5b600154604080516391371ffb60e01b8152600481018a9052602481018990523060448201526001600160a01b03888116606483015260848201889052915191909216916391371ffb9160a480830192600092919082900301818387803b15801561053d57600080fd5b634348414960e01b81565b60408051631a28ff0560e01b81523360048201523060248201526044810186905260ff851660648201526084810184905260a4810183905290516000916001600160a01b038d1691631a28ff059160c480820192869290919082900301818387803b158015610ccd57600080fd5b505af1158015610ce1573d6000803e3d6000fd5b505050506108148b8b8b8b8b8b610ae3565b6000546001600160a01b031681565b6001546001600160a01b031681565b60006001600160801b03821115610d65576040805162461bcd60e51b8152602060048201526013602482015272506f6f6c3a2043617374206f766572666c6f7760681b604482015290519081900360640190fd5b509056fe44616950726f78793a204e6f7420656e6f756768207944616920646562742072657061696444616950726f78793a204e6f7420656e6f75676820446169206f627461696e6564a2646970667358221220ceb2214f45101e3929b5d64a632878b890144fb6299e08776265a547e00beb8564736f6c634300060a003344616950726f78793a204d69736d61746368656420506f6f6c20616e6420436f6e74726f6c6c6572",
  "immutableReferences": {},
  "source": "// SPDX-License-Identifier: GPL-3.0-or-later\r\npragma solidity ^0.6.10;\r\n\r\nimport \"@openzeppelin/contracts/token/ERC20/IERC20.sol\";\r\nimport \"../interfaces/IVat.sol\";\r\nimport \"../interfaces/IPot.sol\";\r\nimport \"../interfaces/IController.sol\";\r\nimport \"../interfaces/IPool.sol\";\r\nimport \"../interfaces/IYDai.sol\";\r\nimport \"../helpers/DecimalMath.sol\";\r\n\r\n/**\r\n * @dev The DaiProxy is a proxy contract of Controller that allows users to immediately sell borrowed yDai for Dai, and to sell Dai at pool rates to repay YDai debt.\r\n */\r\ncontract DaiProxy is DecimalMath {\r\n\r\n    bytes32 public constant CHAI = \"CHAI\";\r\n    bytes32 public constant WETH = \"ETH-A\";\r\n\r\n    IERC20 public dai;\r\n    IController public controller;\r\n\r\n    /// @dev The constructor links DaiProxy to dai and controller.\r\n    constructor (\r\n        address dai_,\r\n        address controller_,\r\n        address[] memory pools\r\n    ) public {\r\n        dai = IERC20(dai_);\r\n        controller = IController(controller_);\r\n        for (uint i = 0; i < pools.length; i++) {\r\n            IYDai yDai = IPool(pools[i]).yDai();\r\n            require(\r\n                controller.containsSeries(yDai.maturity()),\r\n                \"DaiProxy: Mismatched Pool and Controller\"\r\n            );\r\n            yDai.approve(pools[i], uint256(-1));\r\n            dai.approve(pools[i], uint256(-1));            \r\n        }\r\n    }\r\n\r\n    /// @dev Safe casting from uint256 to uint128\r\n    function toUint128(uint256 x) internal pure returns(uint128) {\r\n        require(\r\n            x <= type(uint128).max,\r\n            \"Pool: Cast overflow\"\r\n        );\r\n        return uint128(x);\r\n    }\r\n\r\n    /// @dev Borrow yDai from Controller and sell it immediately for Dai, for a maximum yDai debt.\r\n    /// Must have approved the operator with `controller.addDelegate(daiProxy.address)`.\r\n    /// @param pool The pool to trade in (and therefore yDai series to borrow)\r\n    /// @param collateral Valid collateral type.\r\n    /// @param maturity Maturity of an added series\r\n    /// @param to Wallet to send the resulting Dai to.\r\n    /// @param maximumYDai Maximum amount of YDai to borrow.\r\n    /// @param daiToBorrow Exact amount of Dai that should be obtained.\r\n    function borrowDaiForMaximumYDai(\r\n        address pool,\r\n        bytes32 collateral,\r\n        uint256 maturity,\r\n        address to,\r\n        uint256 maximumYDai,\r\n        uint256 daiToBorrow\r\n    )\r\n        public\r\n        returns (uint256)\r\n    {\r\n        IPool _pool = IPool(pool);\r\n        uint256 yDaiToBorrow = _pool.buyDaiPreview(toUint128(daiToBorrow));\r\n        require (yDaiToBorrow <= maximumYDai, \"DaiProxy: Too much yDai required\");\r\n\r\n        // The collateral for this borrow needs to have been posted beforehand\r\n        controller.borrow(collateral, maturity, msg.sender, address(this), yDaiToBorrow);\r\n        _pool.buyDai(address(this), to, toUint128(daiToBorrow));\r\n\r\n        return yDaiToBorrow;\r\n    }\r\n\r\n    /// @dev Borrow yDai from Controller and sell it immediately for Dai, for a maximum yDai debt.\r\n    /// Uses an encoded signature for controller\r\n    /// @param pool The pool to trade in (and therefore yDai series to borrow)\r\n    /// @param collateral Valid collateral type.\r\n    /// @param maturity Maturity of an added series\r\n    /// @param to Wallet to send the resulting Dai to.\r\n    /// @param maximumYDai Maximum amount of YDai to borrow.\r\n    /// @param daiToBorrow Exact amount of Dai that should be obtained.\r\n    /// @param deadline Latest block timestamp for which the signature is valid\r\n    /// @param v Signature parameter\r\n    /// @param r Signature parameter\r\n    /// @param s Signature parameter\r\n    function borrowDaiForMaximumYDaiBySignature(\r\n        address pool,\r\n        bytes32 collateral,\r\n        uint256 maturity,\r\n        address to,\r\n        uint256 maximumYDai,\r\n        uint256 daiToBorrow,\r\n        uint deadline,\r\n        uint8 v,\r\n        bytes32 r,\r\n        bytes32 s\r\n    )\r\n        public\r\n        returns (uint256)\r\n    {\r\n        controller.addDelegateBySignature(msg.sender, address(this), deadline, v, r, s);\r\n        return borrowDaiForMaximumYDai(pool, collateral, maturity, to, maximumYDai, daiToBorrow);\r\n    }\r\n\r\n    /// @dev Borrow yDai from Controller and sell it immediately for Dai, if a minimum amount of Dai can be obtained such.\r\n    /// Must have approved the operator with `controller.addDelegate(daiProxy.address)`.\r\n    /// @param pool The pool to trade in (and therefore yDai series to borrow)\r\n    /// @param collateral Valid collateral type.\r\n    /// @param maturity Maturity of an added series\r\n    /// @param to Wallet to sent the resulting Dai to.\r\n    /// @param yDaiToBorrow Amount of yDai to borrow.\r\n    /// @param minimumDaiToBorrow Minimum amount of Dai that should be borrowed.\r\n    function borrowMinimumDaiForYDai(\r\n        address pool,\r\n        bytes32 collateral,\r\n        uint256 maturity,\r\n        address to,\r\n        uint256 yDaiToBorrow,\r\n        uint256 minimumDaiToBorrow\r\n    )\r\n        public\r\n        returns (uint256)\r\n    {\r\n        // The collateral for this borrow needs to have been posted beforehand\r\n        controller.borrow(collateral, maturity, msg.sender, address(this), yDaiToBorrow);\r\n        uint256 boughtDai = IPool(pool).sellYDai(address(this), to, toUint128(yDaiToBorrow));\r\n        require (boughtDai >= minimumDaiToBorrow, \"DaiProxy: Not enough Dai obtained\");\r\n\r\n        return boughtDai;\r\n    }\r\n\r\n    /// @dev Borrow yDai from Controller and sell it immediately for Dai, if a minimum amount of Dai can be obtained such.\r\n    /// Uses an encoded signature for controller\r\n    /// @param pool The pool to trade in (and therefore yDai series to borrow)\r\n    /// @param collateral Valid collateral type.\r\n    /// @param maturity Maturity of an added series\r\n    /// @param to Wallet to sent the resulting Dai to.\r\n    /// @param yDaiToBorrow Amount of yDai to borrow.\r\n    /// @param minimumDaiToBorrow Minimum amount of Dai that should be borrowed.\r\n    /// @param deadline Latest block timestamp for which the signature is valid\r\n    /// @param v Signature parameter\r\n    /// @param r Signature parameter\r\n    /// @param s Signature parameter\r\n    function borrowMinimumDaiForYDaiBySignature(\r\n        address pool,\r\n        bytes32 collateral,\r\n        uint256 maturity,\r\n        address to,\r\n        uint256 yDaiToBorrow,\r\n        uint256 minimumDaiToBorrow,\r\n        uint deadline,\r\n        uint8 v,\r\n        bytes32 r,\r\n        bytes32 s\r\n    )\r\n        public\r\n        returns (uint256)\r\n    {\r\n        controller.addDelegateBySignature(msg.sender, address(this), deadline, v, r, s);\r\n        return borrowMinimumDaiForYDai(pool, collateral, maturity, to, yDaiToBorrow, minimumDaiToBorrow);\r\n    }\r\n\r\n    /// @dev Repay an amount of yDai debt in Controller using Dai exchanged for yDai at pool rates, up to a maximum amount of Dai spent.\r\n    /// Must have approved the operator with `pool.addDelegate(daiProxy.address)`.\r\n    /// @param pool The pool to trade in (and therefore yDai series to repay)\r\n    /// @param collateral Valid collateral type.\r\n    /// @param maturity Maturity of an added series\r\n    /// @param to Yield Vault to repay yDai debt for.\r\n    /// @param yDaiRepayment Amount of yDai debt to repay.\r\n    /// @param maximumRepaymentInDai Maximum amount of Dai that should be spent on the repayment.\r\n    function repayYDaiDebtForMaximumDai(\r\n        address pool,\r\n        bytes32 collateral,\r\n        uint256 maturity,\r\n        address to,\r\n        uint256 yDaiRepayment,\r\n        uint256 maximumRepaymentInDai\r\n    )\r\n        public\r\n        returns (uint256)\r\n    {\r\n        uint256 repaymentInDai = IPool(pool).buyYDai(msg.sender, address(this), toUint128(yDaiRepayment));\r\n        require (repaymentInDai <= maximumRepaymentInDai, \"DaiProxy: Too much Dai required\");\r\n        controller.repayYDai(collateral, maturity, address(this), to, yDaiRepayment);\r\n\r\n        return repaymentInDai;\r\n    }\r\n\r\n    /// @dev Repay an amount of yDai debt in Controller using Dai exchanged for yDai at pool rates, up to a maximum amount of Dai spent.\r\n    /// Uses an encoded signature for pool\r\n    /// @param pool The pool to trade in (and therefore yDai series to repay)\r\n    /// @param collateral Valid collateral type.\r\n    /// @param maturity Maturity of an added series\r\n    /// @param to Yield Vault to repay yDai debt for.\r\n    /// @param yDaiRepayment Amount of yDai debt to repay.\r\n    /// @param maximumRepaymentInDai Maximum amount of Dai that should be spent on the repayment.\r\n    /// @param deadline Latest block timestamp for which the signature is valid\r\n    /// @param v Signature parameter\r\n    /// @param r Signature parameter\r\n    /// @param s Signature parameter\r\n    function repayYDaiDebtForMaximumDaiBySignature(\r\n        address pool,\r\n        bytes32 collateral,\r\n        uint256 maturity,\r\n        address to,\r\n        uint256 yDaiRepayment,\r\n        uint256 maximumRepaymentInDai,\r\n        uint deadline,\r\n        uint8 v,\r\n        bytes32 r,\r\n        bytes32 s\r\n    )\r\n        public\r\n        returns (uint256)\r\n    {\r\n        IPool(pool).addDelegateBySignature(msg.sender, address(this), deadline, v, r, s);\r\n        return repayYDaiDebtForMaximumDai(pool, collateral, maturity, to, yDaiRepayment, maximumRepaymentInDai);\r\n    }\r\n\r\n    /// @dev Repay an amount of yDai debt in Controller using a given amount of Dai exchanged for yDai at pool rates, with a minimum of yDai debt required to be paid.\r\n    /// Must have approved the operator with `pool.addDelegate(daiProxy.address)`.\r\n    /// @param pool The pool to trade in (and therefore yDai series to repay)\r\n    /// @param collateral Valid collateral type.\r\n    /// @param maturity Maturity of an added series\r\n    /// @param to Yield Vault to repay yDai debt for.\r\n    /// @param minimumYDaiRepayment Minimum amount of yDai debt to repay.\r\n    /// @param repaymentInDai Exact amount of Dai that should be spent on the repayment.\r\n    function repayMinimumYDaiDebtForDai(\r\n        address pool,\r\n        bytes32 collateral,\r\n        uint256 maturity,\r\n        address to,\r\n        uint256 minimumYDaiRepayment,\r\n        uint256 repaymentInDai\r\n    )\r\n        public\r\n        returns (uint256)\r\n    {\r\n        uint256 yDaiRepayment = IPool(pool).sellDai(msg.sender, address(this), toUint128(repaymentInDai));\r\n        require (yDaiRepayment >= minimumYDaiRepayment, \"DaiProxy: Not enough yDai debt repaid\");\r\n        controller.repayYDai(collateral, maturity, address(this), to, yDaiRepayment);\r\n\r\n        return yDaiRepayment;\r\n    }\r\n\r\n    /// @dev Repay an amount of yDai debt in Controller using a given amount of Dai exchanged for yDai at pool rates, with a minimum of yDai debt required to be paid.\r\n    /// Uses an encoded signature for pool\r\n    /// @param pool The pool to trade in (and therefore yDai series to repay)\r\n    /// @param collateral Valid collateral type.\r\n    /// @param maturity Maturity of an added series\r\n    /// @param to Yield Vault to repay yDai debt for.\r\n    /// @param minimumYDaiRepayment Minimum amount of yDai debt to repay.\r\n    /// @param repaymentInDai Exact amount of Dai that should be spent on the repayment.\r\n    /// @param deadline Latest block timestamp for which the signature is valid\r\n    /// @param v Signature parameter\r\n    /// @param r Signature parameter\r\n    /// @param s Signature parameter\r\n    function repayMinimumYDaiDebtForDaiBySignature(\r\n        address pool,\r\n        bytes32 collateral,\r\n        uint256 maturity,\r\n        address to,\r\n        uint256 minimumYDaiRepayment,\r\n        uint256 repaymentInDai,\r\n        uint deadline,\r\n        uint8 v,\r\n        bytes32 r,\r\n        bytes32 s\r\n    )\r\n        public\r\n        returns (uint256)\r\n    {\r\n        IPool(pool).addDelegateBySignature(msg.sender, address(this), deadline, v, r, s);\r\n        return repayMinimumYDaiDebtForDai(pool, collateral, maturity, to, minimumYDaiRepayment, repaymentInDai);\r\n    }\r\n}\r\n",
  "sourcePath": "C:/Users/bruce/dev/yield/yDai/contracts/peripheral/DaiProxy.sol",
  "compiler": {
    "name": "solc",
    "version": "0.6.10+commit.00c0fcaf.Emscripten.clang"
  },
  "schemaVersion": "3.2.3",
  "updatedAt": "2020-08-24T15:06:41.316Z",
  "devdoc": {
    "details": "The DaiProxy is a proxy contract of Controller that allows users to immediately sell borrowed yDai for Dai, and to sell Dai at pool rates to repay YDai debt.",
    "methods": {
      "borrowDaiForMaximumYDai(address,bytes32,uint256,address,uint256,uint256)": {
        "details": "Borrow yDai from Controller and sell it immediately for Dai, for a maximum yDai debt. Must have approved the operator with `controller.addDelegate(daiProxy.address)`.",
        "params": {
          "collateral": "Valid collateral type.",
          "daiToBorrow": "Exact amount of Dai that should be obtained.",
          "maturity": "Maturity of an added series",
          "maximumYDai": "Maximum amount of YDai to borrow.",
          "pool": "The pool to trade in (and therefore yDai series to borrow)",
          "to": "Wallet to send the resulting Dai to."
        }
      },
      "borrowDaiForMaximumYDaiBySignature(address,bytes32,uint256,address,uint256,uint256,uint256,uint8,bytes32,bytes32)": {
        "details": "Borrow yDai from Controller and sell it immediately for Dai, for a maximum yDai debt. Uses an encoded signature for controller",
        "params": {
          "collateral": "Valid collateral type.",
          "daiToBorrow": "Exact amount of Dai that should be obtained.",
          "deadline": "Latest block timestamp for which the signature is valid",
          "maturity": "Maturity of an added series",
          "maximumYDai": "Maximum amount of YDai to borrow.",
          "pool": "The pool to trade in (and therefore yDai series to borrow)",
          "r": "Signature parameter",
          "s": "Signature parameter",
          "to": "Wallet to send the resulting Dai to.",
          "v": "Signature parameter"
        }
      },
      "borrowMinimumDaiForYDai(address,bytes32,uint256,address,uint256,uint256)": {
        "details": "Borrow yDai from Controller and sell it immediately for Dai, if a minimum amount of Dai can be obtained such. Must have approved the operator with `controller.addDelegate(daiProxy.address)`.",
        "params": {
          "collateral": "Valid collateral type.",
          "maturity": "Maturity of an added series",
          "minimumDaiToBorrow": "Minimum amount of Dai that should be borrowed.",
          "pool": "The pool to trade in (and therefore yDai series to borrow)",
          "to": "Wallet to sent the resulting Dai to.",
          "yDaiToBorrow": "Amount of yDai to borrow."
        }
      },
      "borrowMinimumDaiForYDaiBySignature(address,bytes32,uint256,address,uint256,uint256,uint256,uint8,bytes32,bytes32)": {
        "details": "Borrow yDai from Controller and sell it immediately for Dai, if a minimum amount of Dai can be obtained such. Uses an encoded signature for controller",
        "params": {
          "collateral": "Valid collateral type.",
          "deadline": "Latest block timestamp for which the signature is valid",
          "maturity": "Maturity of an added series",
          "minimumDaiToBorrow": "Minimum amount of Dai that should be borrowed.",
          "pool": "The pool to trade in (and therefore yDai series to borrow)",
          "r": "Signature parameter",
          "s": "Signature parameter",
          "to": "Wallet to sent the resulting Dai to.",
          "v": "Signature parameter",
          "yDaiToBorrow": "Amount of yDai to borrow."
        }
      },
      "constructor": {
        "details": "The constructor links DaiProxy to dai and controller."
      },
      "repayMinimumYDaiDebtForDai(address,bytes32,uint256,address,uint256,uint256)": {
        "details": "Repay an amount of yDai debt in Controller using a given amount of Dai exchanged for yDai at pool rates, with a minimum of yDai debt required to be paid. Must have approved the operator with `pool.addDelegate(daiProxy.address)`.",
        "params": {
          "collateral": "Valid collateral type.",
          "maturity": "Maturity of an added series",
          "minimumYDaiRepayment": "Minimum amount of yDai debt to repay.",
          "pool": "The pool to trade in (and therefore yDai series to repay)",
          "repaymentInDai": "Exact amount of Dai that should be spent on the repayment.",
          "to": "Yield Vault to repay yDai debt for."
        }
      },
      "repayMinimumYDaiDebtForDaiBySignature(address,bytes32,uint256,address,uint256,uint256,uint256,uint8,bytes32,bytes32)": {
        "details": "Repay an amount of yDai debt in Controller using a given amount of Dai exchanged for yDai at pool rates, with a minimum of yDai debt required to be paid. Uses an encoded signature for pool",
        "params": {
          "collateral": "Valid collateral type.",
          "deadline": "Latest block timestamp for which the signature is valid",
          "maturity": "Maturity of an added series",
          "minimumYDaiRepayment": "Minimum amount of yDai debt to repay.",
          "pool": "The pool to trade in (and therefore yDai series to repay)",
          "r": "Signature parameter",
          "repaymentInDai": "Exact amount of Dai that should be spent on the repayment.",
          "s": "Signature parameter",
          "to": "Yield Vault to repay yDai debt for.",
          "v": "Signature parameter"
        }
      },
      "repayYDaiDebtForMaximumDai(address,bytes32,uint256,address,uint256,uint256)": {
        "details": "Repay an amount of yDai debt in Controller using Dai exchanged for yDai at pool rates, up to a maximum amount of Dai spent. Must have approved the operator with `pool.addDelegate(daiProxy.address)`.",
        "params": {
          "collateral": "Valid collateral type.",
          "maturity": "Maturity of an added series",
          "maximumRepaymentInDai": "Maximum amount of Dai that should be spent on the repayment.",
          "pool": "The pool to trade in (and therefore yDai series to repay)",
          "to": "Yield Vault to repay yDai debt for.",
          "yDaiRepayment": "Amount of yDai debt to repay."
        }
      },
      "repayYDaiDebtForMaximumDaiBySignature(address,bytes32,uint256,address,uint256,uint256,uint256,uint8,bytes32,bytes32)": {
        "details": "Repay an amount of yDai debt in Controller using Dai exchanged for yDai at pool rates, up to a maximum amount of Dai spent. Uses an encoded signature for pool",
        "params": {
          "collateral": "Valid collateral type.",
          "deadline": "Latest block timestamp for which the signature is valid",
          "maturity": "Maturity of an added series",
          "maximumRepaymentInDai": "Maximum amount of Dai that should be spent on the repayment.",
          "pool": "The pool to trade in (and therefore yDai series to repay)",
          "r": "Signature parameter",
          "s": "Signature parameter",
          "to": "Yield Vault to repay yDai debt for.",
          "v": "Signature parameter",
          "yDaiRepayment": "Amount of yDai debt to repay."
        }
      }
    }
  },
  "userdoc": {
    "methods": {}
  }
}