{
  "contractName": "DaiProxy",
  "abi": [
    {
      "inputs": [
        {
          "internalType": "address",
          "name": "vat_",
          "type": "address"
        },
        {
          "internalType": "address",
          "name": "dai_",
          "type": "address"
        },
        {
          "internalType": "address",
          "name": "pot_",
          "type": "address"
        },
        {
          "internalType": "address",
          "name": "controller_",
          "type": "address"
        },
        {
          "internalType": "address",
          "name": "pool_",
          "type": "address"
        }
      ],
      "stateMutability": "nonpayable",
      "type": "constructor"
    },
    {
      "inputs": [],
      "name": "CHAI",
      "outputs": [
        {
          "internalType": "bytes32",
          "name": "",
          "type": "bytes32"
        }
      ],
      "stateMutability": "view",
      "type": "function",
      "constant": true
    },
    {
      "inputs": [],
      "name": "UNIT",
      "outputs": [
        {
          "internalType": "uint256",
          "name": "",
          "type": "uint256"
        }
      ],
      "stateMutability": "view",
      "type": "function",
      "constant": true
    },
    {
      "inputs": [],
      "name": "WETH",
      "outputs": [
        {
          "internalType": "bytes32",
          "name": "",
          "type": "bytes32"
        }
      ],
      "stateMutability": "view",
      "type": "function",
      "constant": true
    },
    {
      "inputs": [
        {
          "internalType": "bytes32",
          "name": "collateral",
          "type": "bytes32"
        },
        {
          "internalType": "uint256",
          "name": "maturity",
          "type": "uint256"
        },
        {
          "internalType": "address",
          "name": "to",
          "type": "address"
        },
        {
          "internalType": "uint256",
          "name": "maximumYDai",
          "type": "uint256"
        },
        {
          "internalType": "uint256",
          "name": "daiToBorrow",
          "type": "uint256"
        }
      ],
      "name": "borrowDaiForMaximumYDai",
      "outputs": [
        {
          "internalType": "uint256",
          "name": "",
          "type": "uint256"
        }
      ],
      "stateMutability": "nonpayable",
      "type": "function"
    },
    {
      "inputs": [
        {
          "internalType": "bytes32",
          "name": "collateral",
          "type": "bytes32"
        },
        {
          "internalType": "uint256",
          "name": "maturity",
          "type": "uint256"
        },
        {
          "internalType": "address",
          "name": "to",
          "type": "address"
        },
        {
          "internalType": "uint256",
          "name": "yDaiToBorrow",
          "type": "uint256"
        },
        {
          "internalType": "uint256",
          "name": "minimumDaiToBorrow",
          "type": "uint256"
        }
      ],
      "name": "borrowMinimumDaiForYDai",
      "outputs": [
        {
          "internalType": "uint256",
          "name": "",
          "type": "uint256"
        }
      ],
      "stateMutability": "nonpayable",
      "type": "function"
    },
    {
      "inputs": [
        {
          "internalType": "bytes32",
          "name": "collateral",
          "type": "bytes32"
        },
        {
          "internalType": "uint256",
          "name": "maturity",
          "type": "uint256"
        },
        {
          "internalType": "address",
          "name": "to",
          "type": "address"
        },
        {
          "internalType": "uint256",
          "name": "yDaiRepayment",
          "type": "uint256"
        },
        {
          "internalType": "uint256",
          "name": "maximumRepaymentInDai",
          "type": "uint256"
        }
      ],
      "name": "repayYDaiDebtForMaximumDai",
      "outputs": [
        {
          "internalType": "uint256",
          "name": "",
          "type": "uint256"
        }
      ],
      "stateMutability": "nonpayable",
      "type": "function"
    },
    {
      "inputs": [
        {
          "internalType": "bytes32",
          "name": "collateral",
          "type": "bytes32"
        },
        {
          "internalType": "uint256",
          "name": "maturity",
          "type": "uint256"
        },
        {
          "internalType": "address",
          "name": "to",
          "type": "address"
        },
        {
          "internalType": "uint256",
          "name": "minimumYDaiRepayment",
          "type": "uint256"
        },
        {
          "internalType": "uint256",
          "name": "repaymentInDai",
          "type": "uint256"
        }
      ],
      "name": "repayMinimumYDaiDebtForDai",
      "outputs": [
        {
          "internalType": "uint256",
          "name": "",
          "type": "uint256"
        }
      ],
      "stateMutability": "nonpayable",
      "type": "function"
    }
  ],
  "bytecode": "0x608060405234801561001057600080fd5b50604051610cb3380380610cb3833981810160405260a081101561003357600080fd5b5080516020808301516040808501516060860151608090960151600080546001600160a01b03199081166001600160a01b03808a1691909117909255600180548216838816179055600280548216838616179055600480548216838b16178155600580549092168385161791829055855163aef52e3f60e01b815295519899969894979395919092169363aef52e3f93828401939092829003018186803b1580156100dd57600080fd5b505afa1580156100f1573d6000803e3d6000fd5b505050506040513d602081101561010757600080fd5b5051600380546001600160a01b0319166001600160a01b039283161790819055600480546040805163204f83f960e01b815290519185169463d0a3a7e494169263204f83f9928282019260209290829003018186803b15801561016957600080fd5b505afa15801561017d573d6000803e3d6000fd5b505050506040513d602081101561019357600080fd5b5051604080516001600160e01b031960e085901b1681526004810192909252516024808301926020929190829003018186803b1580156101d257600080fd5b505afa1580156101e6573d6000803e3d6000fd5b505050506040513d60208110156101fc57600080fd5b50516102395760405162461bcd60e51b8152600401808060200182810382526028815260200180610c8b6028913960400191505060405180910390fd5b6001546005546040805163095ea7b360e01b81526001600160a01b03928316600482015260001960248201529051919092169163095ea7b39160448083019260209291908290030181600087803b15801561029357600080fd5b505af11580156102a7573d6000803e3d6000fd5b505050506040513d60208110156102bd57600080fd5b50506003546005546040805163095ea7b360e01b81526001600160a01b03928316600482015260001960248201529051919092169163095ea7b39160448083019260209291908290030181600087803b15801561031957600080fd5b505af115801561032d573d6000803e3d6000fd5b505050506040513d602081101561034357600080fd5b50505050505050610932806103596000396000f3fe608060405234801561001057600080fd5b506004361061007d5760003560e01c80639d8e21771161005b5780639d8e21771461014e578063ad5c464814610156578063b6dbf9ce1461015e578063e0fe88de146101665761007d565b806302232b0114610082578063765e39dc146100d257806377b7b23d14610110575b600080fd5b6100c0600480360360a081101561009857600080fd5b508035906020810135906001600160a01b0360408201351690606081013590608001356101a4565b60408051918252519081900360200190f35b6100c0600480360360a08110156100e857600080fd5b508035906020810135906001600160a01b0360408201351690606081013590608001356103c6565b6100c0600480360360a081101561012657600080fd5b508035906020810135906001600160a01b036040820135169060608101359060800135610546565b6100c06106b9565b6100c06106c9565b6100c06106d5565b6100c0600480360360a081101561017c57600080fd5b508035906020810135906001600160a01b0360408201351690606081013590608001356106e0565b60055460009081906001600160a01b0316634e20e9526101c38561085e565b6040518263ffffffff1660e01b815260040180826001600160801b03166001600160801b0316815260200191505060206040518083038186803b15801561020957600080fd5b505afa15801561021d573d6000803e3d6000fd5b505050506040513d602081101561023357600080fd5b50516001600160801b0316905083811115610295576040805162461bcd60e51b815260206004820181905260248201527f44616950726f78793a20546f6f206d7563682079446169207265717569726564604482015290519081900360640190fd5b600480546040805163801d325f60e01b81529283018a90526024830189905233604484015230606484015260848301849052516001600160a01b039091169163801d325f9160a480830192600092919082900301818387803b1580156102fa57600080fd5b505af115801561030e573d6000803e3d6000fd5b50506005546001600160a01b0316915063cc5783d3905030876103308761085e565b604080516001600160e01b031960e087901b1681526001600160a01b0394851660048201529290931660248301526001600160801b03166044820152905160648083019260209291908290030181600087803b15801561038f57600080fd5b505af11580156103a3573d6000803e3d6000fd5b505050506040513d60208110156103b957600080fd5b5090979650505050505050565b60055460009081906001600160a01b031663b26be92233306103e78761085e565b604080516001600160e01b031960e087901b1681526001600160a01b0394851660048201529290931660248301526001600160801b03166044820152905160648083019260209291908290030181600087803b15801561044657600080fd5b505af115801561045a573d6000803e3d6000fd5b505050506040513d602081101561047057600080fd5b50516001600160801b03169050838110156104bc5760405162461bcd60e51b81526004018080602001828103825260258152602001806108b76025913960400191505060405180910390fd5b60048054604080516391371ffb60e01b81529283018a9052602483018990523060448401526001600160a01b0388811660648501526084840185905290519116916391371ffb9160a480830192600092919082900301818387803b15801561052357600080fd5b505af1158015610537573d6000803e3d6000fd5b50929998505050505050505050565b60055460009081906001600160a01b031663d43fde7033306105678861085e565b604080516001600160e01b031960e087901b1681526001600160a01b0394851660048201529290931660248301526001600160801b03166044820152905160648083019260209291908290030181600087803b1580156105c657600080fd5b505af11580156105da573d6000803e3d6000fd5b505050506040513d60208110156105f057600080fd5b50516001600160801b0316905082811115610652576040805162461bcd60e51b815260206004820152601f60248201527f44616950726f78793a20546f6f206d7563682044616920726571756972656400604482015290519081900360640190fd5b60048054604080516391371ffb60e01b81529283018a9052602483018990523060448401526001600160a01b0388811660648501526084840188905290519116916391371ffb9160a480830192600092919082900301818387803b15801561052357600080fd5b6b033b2e3c9fd0803ce800000081565b644554482d4160d81b81565b634348414960e01b81565b600480546040805163801d325f60e01b81529283018890526024830187905233604484015230606484015260848301859052516000926001600160a01b039092169163801d325f9160a4808301928692919082900301818387803b15801561074757600080fd5b505af115801561075b573d6000803e3d6000fd5b5050600554600092506001600160a01b0316905063c47b5b83308761077f8861085e565b604080516001600160e01b031960e087901b1681526001600160a01b0394851660048201529290931660248301526001600160801b03166044820152905160648083019260209291908290030181600087803b1580156107de57600080fd5b505af11580156107f2573d6000803e3d6000fd5b505050506040513d602081101561080857600080fd5b50516001600160801b03169050828110156108545760405162461bcd60e51b81526004018080602001828103825260218152602001806108dc6021913960400191505060405180910390fd5b9695505050505050565b60006001600160801b038211156108b2576040805162461bcd60e51b8152602060048201526013602482015272506f6f6c3a2043617374206f766572666c6f7760681b604482015290519081900360640190fd5b509056fe44616950726f78793a204e6f7420656e6f756768207944616920646562742072657061696444616950726f78793a204e6f7420656e6f75676820446169206f627461696e6564a264697066735822122062eb3eb1bfba5495d982559dbe2114d3e1d04b6e1f0ef213a782a299712fcbe864736f6c634300060a003344616950726f78793a204d69736d61746368656420506f6f6c20616e6420436f6e74726f6c6c6572",
  "immutableReferences": {},
  "source": "// SPDX-License-Identifier: GPL-3.0-or-later\r\npragma solidity ^0.6.10;\r\n\r\nimport \"@openzeppelin/contracts/token/ERC20/IERC20.sol\";\r\nimport \"../interfaces/IVat.sol\";\r\nimport \"../interfaces/IPot.sol\";\r\nimport \"../interfaces/IController.sol\";\r\nimport \"../interfaces/IPool.sol\";\r\nimport \"../interfaces/IYDai.sol\";\r\nimport \"../helpers/DecimalMath.sol\";\r\n\r\n/**\r\n * @dev The DaiProxy is a proxy contract of Controller that allows users to immediately sell borrowed yDai for Dai, and to sell Dai at pool rates to repay YDai debt.\r\n */\r\ncontract DaiProxy is DecimalMath {\r\n\r\n    bytes32 public constant CHAI = \"CHAI\";\r\n    bytes32 public constant WETH = \"ETH-A\";\r\n\r\n    IVat internal _vat;\r\n    IERC20 internal _dai;\r\n    IPot internal _pot;\r\n    IYDai internal _yDai;\r\n    IController internal _controller;\r\n    IPool internal _pool;\r\n\r\n    /// @dev The constructor links ControllerDai to vat, pot, controller and pool.\r\n    constructor (\r\n        address vat_,\r\n        address dai_,\r\n        address pot_,\r\n        address controller_,\r\n        address pool_\r\n    ) public {\r\n        _vat = IVat(vat_);\r\n        _dai = IERC20(dai_);\r\n        _pot = IPot(pot_);\r\n        _controller = IController(controller_);\r\n        _pool = IPool(pool_);\r\n\r\n        _yDai = _pool.yDai();\r\n        require(\r\n            _controller.containsSeries(_yDai.maturity()),\r\n            \"DaiProxy: Mismatched Pool and Controller\"\r\n        );\r\n        _dai.approve(address(_pool), uint256(-1));\r\n        _yDai.approve(address(_pool), uint256(-1));\r\n    }\r\n\r\n    /// @dev Safe casting from uint256 to uint128\r\n    function toUint128(uint256 x) internal pure returns(uint128) {\r\n        require(\r\n            x <= type(uint128).max,\r\n            \"Pool: Cast overflow\"\r\n        );\r\n        return uint128(x);\r\n    }\r\n\r\n    /// @dev Borrow yDai from Controller and sell it immediately for Dai, for a maximum yDai debt.\r\n    /// Must have approved the operator with `controller.addDelegate(controllerDai.address)`.\r\n    /// @param collateral Valid collateral type.\r\n    /// @param maturity Maturity of an added series\r\n    /// @param to Wallet to send the resulting Dai to.\r\n    /// @param maximumYDai Maximum amount of YDai to borrow.\r\n    /// @param daiToBorrow Exact amount of Dai that should be obtained.\r\n    function borrowDaiForMaximumYDai(\r\n        bytes32 collateral,\r\n        uint256 maturity,\r\n        address to,\r\n        uint256 maximumYDai,\r\n        uint256 daiToBorrow\r\n    )\r\n        public\r\n        returns (uint256)\r\n    {\r\n        uint256 yDaiToBorrow = _pool.buyDaiPreview(toUint128(daiToBorrow));\r\n        require (yDaiToBorrow <= maximumYDai, \"DaiProxy: Too much yDai required\");\r\n\r\n        // The collateral for this borrow needs to have been posted beforehand\r\n        _controller.borrow(collateral, maturity, msg.sender, address(this), yDaiToBorrow);\r\n        _pool.buyDai(address(this), to, toUint128(daiToBorrow));\r\n\r\n        return yDaiToBorrow;\r\n    }\r\n\r\n    /// @dev Borrow yDai from Controller and sell it immediately for Dai, if a minimum amount of Dai can be obtained such.\r\n    /// Must have approved the operator with `controller.addDelegate(controllerDai.address)`.\r\n    /// @param collateral Valid collateral type.\r\n    /// @param maturity Maturity of an added series\r\n    /// @param to Wallet to sent the resulting Dai to.\r\n    /// @param yDaiToBorrow Amount of yDai to borrow.\r\n    /// @param minimumDaiToBorrow Minimum amount of Dai that should be borrowed.\r\n    function borrowMinimumDaiForYDai(\r\n        bytes32 collateral,\r\n        uint256 maturity,\r\n        address to,\r\n        uint256 yDaiToBorrow,\r\n        uint256 minimumDaiToBorrow\r\n    )\r\n        public\r\n        returns (uint256)\r\n    {\r\n        // The collateral for this borrow needs to have been posted beforehand\r\n        _controller.borrow(collateral, maturity, msg.sender, address(this), yDaiToBorrow);\r\n        uint256 boughtDai = _pool.sellYDai(address(this), to, toUint128(yDaiToBorrow));\r\n        require (boughtDai >= minimumDaiToBorrow, \"DaiProxy: Not enough Dai obtained\");\r\n\r\n        return boughtDai;\r\n    }\r\n\r\n    /// @dev Repay an amount of yDai debt in Controller using Dai exchanged for yDai at pool rates, up to a maximum amount of Dai spent.\r\n    /// Must have approved the operator with `controller.addDelegate(controllerDai.address)`.\r\n    /// @param collateral Valid collateral type.\r\n    /// @param maturity Maturity of an added series\r\n    /// @param to Yield Vault to repay yDai debt for.\r\n    /// @param yDaiRepayment Amount of yDai debt to repay.\r\n    /// @param maximumRepaymentInDai Maximum amount of Dai that should be spent on the repayment.\r\n    function repayYDaiDebtForMaximumDai(\r\n        bytes32 collateral,\r\n        uint256 maturity,\r\n        address to,\r\n        uint256 yDaiRepayment,\r\n        uint256 maximumRepaymentInDai\r\n    )\r\n        public\r\n        returns (uint256)\r\n    {\r\n        uint256 repaymentInDai = _pool.buyYDai(msg.sender, address(this), toUint128(yDaiRepayment));\r\n        require (repaymentInDai <= maximumRepaymentInDai, \"DaiProxy: Too much Dai required\");\r\n        _controller.repayYDai(collateral, maturity, address(this), to, yDaiRepayment);\r\n\r\n        return repaymentInDai;\r\n    }\r\n\r\n    /// @dev Repay an amount of yDai debt in Controller using a given amount of Dai exchanged for yDai at pool rates, with a minimum of yDai debt required to be paid.\r\n    /// Must have approved the operator with `controller.addDelegate(controllerDai.address)`.\r\n    /// @param collateral Valid collateral type.\r\n    /// @param maturity Maturity of an added series\r\n    /// @param to Yield Vault to repay yDai debt for.\r\n    /// @param minimumYDaiRepayment Minimum amount of yDai debt to repay.\r\n    /// @param repaymentInDai Exact amount of Dai that should be spent on the repayment.\r\n    function repayMinimumYDaiDebtForDai(\r\n        bytes32 collateral,\r\n        uint256 maturity,\r\n        address to,\r\n        uint256 minimumYDaiRepayment,\r\n        uint256 repaymentInDai\r\n    )\r\n        public\r\n        returns (uint256)\r\n    {\r\n        uint256 yDaiRepayment = _pool.sellDai(msg.sender, address(this), toUint128(repaymentInDai));\r\n        require (yDaiRepayment >= minimumYDaiRepayment, \"DaiProxy: Not enough yDai debt repaid\");\r\n        _controller.repayYDai(collateral, maturity, address(this), to, yDaiRepayment);\r\n\r\n        return yDaiRepayment;\r\n    }\r\n}\r\n",
  "sourcePath": "C:/Users/bruce/dev/yield/yDai/contracts/peripheral/DaiProxy.sol",
  "compiler": {
    "name": "solc",
    "version": "0.6.10+commit.00c0fcaf.Emscripten.clang"
  },
  "schemaVersion": "3.2.3",
  "updatedAt": "2020-08-19T15:25:33.918Z",
  "networkType": "ethereum",
  "devdoc": {
    "details": "The DaiProxy is a proxy contract of Controller that allows users to immediately sell borrowed yDai for Dai, and to sell Dai at pool rates to repay YDai debt.",
    "methods": {
      "borrowDaiForMaximumYDai(bytes32,uint256,address,uint256,uint256)": {
        "details": "Borrow yDai from Controller and sell it immediately for Dai, for a maximum yDai debt. Must have approved the operator with `controller.addDelegate(controllerDai.address)`.",
        "params": {
          "collateral": "Valid collateral type.",
          "daiToBorrow": "Exact amount of Dai that should be obtained.",
          "maturity": "Maturity of an added series",
          "maximumYDai": "Maximum amount of YDai to borrow.",
          "to": "Wallet to send the resulting Dai to."
        }
      },
      "borrowMinimumDaiForYDai(bytes32,uint256,address,uint256,uint256)": {
        "details": "Borrow yDai from Controller and sell it immediately for Dai, if a minimum amount of Dai can be obtained such. Must have approved the operator with `controller.addDelegate(controllerDai.address)`.",
        "params": {
          "collateral": "Valid collateral type.",
          "maturity": "Maturity of an added series",
          "minimumDaiToBorrow": "Minimum amount of Dai that should be borrowed.",
          "to": "Wallet to sent the resulting Dai to.",
          "yDaiToBorrow": "Amount of yDai to borrow."
        }
      },
      "constructor": {
        "details": "The constructor links ControllerDai to vat, pot, controller and pool."
      },
      "repayMinimumYDaiDebtForDai(bytes32,uint256,address,uint256,uint256)": {
        "details": "Repay an amount of yDai debt in Controller using a given amount of Dai exchanged for yDai at pool rates, with a minimum of yDai debt required to be paid. Must have approved the operator with `controller.addDelegate(controllerDai.address)`.",
        "params": {
          "collateral": "Valid collateral type.",
          "maturity": "Maturity of an added series",
          "minimumYDaiRepayment": "Minimum amount of yDai debt to repay.",
          "repaymentInDai": "Exact amount of Dai that should be spent on the repayment.",
          "to": "Yield Vault to repay yDai debt for."
        }
      },
      "repayYDaiDebtForMaximumDai(bytes32,uint256,address,uint256,uint256)": {
        "details": "Repay an amount of yDai debt in Controller using Dai exchanged for yDai at pool rates, up to a maximum amount of Dai spent. Must have approved the operator with `controller.addDelegate(controllerDai.address)`.",
        "params": {
          "collateral": "Valid collateral type.",
          "maturity": "Maturity of an added series",
          "maximumRepaymentInDai": "Maximum amount of Dai that should be spent on the repayment.",
          "to": "Yield Vault to repay yDai debt for.",
          "yDaiRepayment": "Amount of yDai debt to repay."
        }
      }
    }
  },
  "userdoc": {
    "methods": {}
  }
}