{
  "contractName": "Dealer",
  "abi": [
    {
      "inputs": [
        {
          "internalType": "address",
          "name": "vat_",
          "type": "address"
        },
        {
          "internalType": "address",
          "name": "weth_",
          "type": "address"
        },
        {
          "internalType": "address",
          "name": "dai_",
          "type": "address"
        },
        {
          "internalType": "address",
          "name": "pot_",
          "type": "address"
        },
        {
          "internalType": "address",
          "name": "chai_",
          "type": "address"
        },
        {
          "internalType": "address",
          "name": "gasToken_",
          "type": "address"
        },
        {
          "internalType": "address",
          "name": "treasury_",
          "type": "address"
        }
      ],
      "stateMutability": "nonpayable",
      "type": "constructor"
    },
    {
      "anonymous": false,
      "inputs": [
        {
          "indexed": true,
          "internalType": "bytes32",
          "name": "collateral",
          "type": "bytes32"
        },
        {
          "indexed": true,
          "internalType": "uint256",
          "name": "maturity",
          "type": "uint256"
        },
        {
          "indexed": true,
          "internalType": "address",
          "name": "user",
          "type": "address"
        },
        {
          "indexed": false,
          "internalType": "int256",
          "name": "amount",
          "type": "int256"
        }
      ],
      "name": "Borrowed",
      "type": "event"
    },
    {
      "anonymous": false,
      "inputs": [
        {
          "indexed": true,
          "internalType": "address",
          "name": "user",
          "type": "address"
        },
        {
          "indexed": true,
          "internalType": "address",
          "name": "delegate",
          "type": "address"
        },
        {
          "indexed": false,
          "internalType": "bool",
          "name": "enabled",
          "type": "bool"
        }
      ],
      "name": "Delegate",
      "type": "event"
    },
    {
      "anonymous": false,
      "inputs": [
        {
          "indexed": false,
          "internalType": "address",
          "name": "access",
          "type": "address"
        }
      ],
      "name": "GrantedAccess",
      "type": "event"
    },
    {
      "anonymous": false,
      "inputs": [
        {
          "indexed": true,
          "internalType": "address",
          "name": "previousOwner",
          "type": "address"
        },
        {
          "indexed": true,
          "internalType": "address",
          "name": "newOwner",
          "type": "address"
        }
      ],
      "name": "OwnershipTransferred",
      "type": "event"
    },
    {
      "anonymous": false,
      "inputs": [
        {
          "indexed": true,
          "internalType": "bytes32",
          "name": "collateral",
          "type": "bytes32"
        },
        {
          "indexed": true,
          "internalType": "address",
          "name": "user",
          "type": "address"
        },
        {
          "indexed": false,
          "internalType": "int256",
          "name": "amount",
          "type": "int256"
        }
      ],
      "name": "Posted",
      "type": "event"
    },
    {
      "inputs": [],
      "name": "CHAI",
      "outputs": [
        {
          "internalType": "bytes32",
          "name": "",
          "type": "bytes32"
        }
      ],
      "stateMutability": "view",
      "type": "function",
      "constant": true
    },
    {
      "inputs": [],
      "name": "RAD",
      "outputs": [
        {
          "internalType": "uint8",
          "name": "",
          "type": "uint8"
        }
      ],
      "stateMutability": "view",
      "type": "function",
      "constant": true
    },
    {
      "inputs": [],
      "name": "RAY",
      "outputs": [
        {
          "internalType": "uint8",
          "name": "",
          "type": "uint8"
        }
      ],
      "stateMutability": "view",
      "type": "function",
      "constant": true
    },
    {
      "inputs": [],
      "name": "UNIT",
      "outputs": [
        {
          "internalType": "uint256",
          "name": "",
          "type": "uint256"
        }
      ],
      "stateMutability": "view",
      "type": "function",
      "constant": true
    },
    {
      "inputs": [],
      "name": "WAD",
      "outputs": [
        {
          "internalType": "uint8",
          "name": "",
          "type": "uint8"
        }
      ],
      "stateMutability": "view",
      "type": "function",
      "constant": true
    },
    {
      "inputs": [],
      "name": "WETH",
      "outputs": [
        {
          "internalType": "bytes32",
          "name": "",
          "type": "bytes32"
        }
      ],
      "stateMutability": "view",
      "type": "function",
      "constant": true
    },
    {
      "inputs": [
        {
          "internalType": "address",
          "name": "delegate",
          "type": "address"
        }
      ],
      "name": "addDelegate",
      "outputs": [],
      "stateMutability": "nonpayable",
      "type": "function"
    },
    {
      "inputs": [
        {
          "internalType": "bytes32",
          "name": "",
          "type": "bytes32"
        },
        {
          "internalType": "uint256",
          "name": "",
          "type": "uint256"
        },
        {
          "internalType": "address",
          "name": "",
          "type": "address"
        }
      ],
      "name": "debtYDai",
      "outputs": [
        {
          "internalType": "uint256",
          "name": "",
          "type": "uint256"
        }
      ],
      "stateMutability": "view",
      "type": "function",
      "constant": true
    },
    {
      "inputs": [],
      "name": "live",
      "outputs": [
        {
          "internalType": "bool",
          "name": "",
          "type": "bool"
        }
      ],
      "stateMutability": "view",
      "type": "function",
      "constant": true
    },
    {
      "inputs": [
        {
          "internalType": "address",
          "name": "user",
          "type": "address"
        }
      ],
      "name": "orchestrate",
      "outputs": [],
      "stateMutability": "nonpayable",
      "type": "function"
    },
    {
      "inputs": [],
      "name": "owner",
      "outputs": [
        {
          "internalType": "address",
          "name": "",
          "type": "address"
        }
      ],
      "stateMutability": "view",
      "type": "function",
      "constant": true
    },
    {
      "inputs": [
        {
          "internalType": "bytes32",
          "name": "",
          "type": "bytes32"
        },
        {
          "internalType": "address",
          "name": "",
          "type": "address"
        }
      ],
      "name": "posted",
      "outputs": [
        {
          "internalType": "uint256",
          "name": "",
          "type": "uint256"
        }
      ],
      "stateMutability": "view",
      "type": "function",
      "constant": true
    },
    {
      "inputs": [],
      "name": "renounceOwnership",
      "outputs": [],
      "stateMutability": "nonpayable",
      "type": "function"
    },
    {
      "inputs": [
        {
          "internalType": "address",
          "name": "delegate",
          "type": "address"
        }
      ],
      "name": "revokeDelegate",
      "outputs": [],
      "stateMutability": "nonpayable",
      "type": "function"
    },
    {
      "inputs": [
        {
          "internalType": "uint256",
          "name": "",
          "type": "uint256"
        }
      ],
      "name": "series",
      "outputs": [
        {
          "internalType": "contract IYDai",
          "name": "",
          "type": "address"
        }
      ],
      "stateMutability": "view",
      "type": "function",
      "constant": true
    },
    {
      "inputs": [
        {
          "internalType": "bytes32",
          "name": "",
          "type": "bytes32"
        },
        {
          "internalType": "uint256",
          "name": "",
          "type": "uint256"
        }
      ],
      "name": "systemDebtYDai",
      "outputs": [
        {
          "internalType": "uint256",
          "name": "",
          "type": "uint256"
        }
      ],
      "stateMutability": "view",
      "type": "function",
      "constant": true
    },
    {
      "inputs": [
        {
          "internalType": "bytes32",
          "name": "",
          "type": "bytes32"
        }
      ],
      "name": "systemPosted",
      "outputs": [
        {
          "internalType": "uint256",
          "name": "",
          "type": "uint256"
        }
      ],
      "stateMutability": "view",
      "type": "function",
      "constant": true
    },
    {
      "inputs": [
        {
          "internalType": "address",
          "name": "newOwner",
          "type": "address"
        }
      ],
      "name": "transferOwnership",
      "outputs": [],
      "stateMutability": "nonpayable",
      "type": "function"
    },
    {
      "inputs": [],
      "name": "shutdown",
      "outputs": [],
      "stateMutability": "nonpayable",
      "type": "function"
    },
    {
      "inputs": [
        {
          "internalType": "uint256",
          "name": "maturity",
          "type": "uint256"
        }
      ],
      "name": "containsSeries",
      "outputs": [
        {
          "internalType": "bool",
          "name": "",
          "type": "bool"
        }
      ],
      "stateMutability": "view",
      "type": "function",
      "constant": true
    },
    {
      "inputs": [
        {
          "internalType": "address",
          "name": "yDaiContract",
          "type": "address"
        }
      ],
      "name": "addSeries",
      "outputs": [],
      "stateMutability": "nonpayable",
      "type": "function"
    },
    {
      "inputs": [
        {
          "internalType": "bytes32",
          "name": "collateral",
          "type": "bytes32"
        },
        {
          "internalType": "uint256",
          "name": "maturity",
          "type": "uint256"
        },
        {
          "internalType": "uint256",
          "name": "yDaiAmount",
          "type": "uint256"
        }
      ],
      "name": "inDai",
      "outputs": [
        {
          "internalType": "uint256",
          "name": "",
          "type": "uint256"
        }
      ],
      "stateMutability": "nonpayable",
      "type": "function"
    },
    {
      "inputs": [
        {
          "internalType": "bytes32",
          "name": "collateral",
          "type": "bytes32"
        },
        {
          "internalType": "uint256",
          "name": "maturity",
          "type": "uint256"
        },
        {
          "internalType": "uint256",
          "name": "daiAmount",
          "type": "uint256"
        }
      ],
      "name": "inYDai",
      "outputs": [
        {
          "internalType": "uint256",
          "name": "",
          "type": "uint256"
        }
      ],
      "stateMutability": "nonpayable",
      "type": "function"
    },
    {
      "inputs": [
        {
          "internalType": "bytes32",
          "name": "collateral",
          "type": "bytes32"
        },
        {
          "internalType": "uint256",
          "name": "maturity",
          "type": "uint256"
        },
        {
          "internalType": "address",
          "name": "user",
          "type": "address"
        }
      ],
      "name": "debtDai",
      "outputs": [
        {
          "internalType": "uint256",
          "name": "",
          "type": "uint256"
        }
      ],
      "stateMutability": "nonpayable",
      "type": "function"
    },
    {
      "inputs": [
        {
          "internalType": "bytes32",
          "name": "collateral",
          "type": "bytes32"
        },
        {
          "internalType": "address",
          "name": "user",
          "type": "address"
        }
      ],
      "name": "totalDebtDai",
      "outputs": [
        {
          "internalType": "uint256",
          "name": "",
          "type": "uint256"
        }
      ],
      "stateMutability": "nonpayable",
      "type": "function"
    },
    {
      "inputs": [
        {
          "internalType": "bytes32",
          "name": "collateral",
          "type": "bytes32"
        },
        {
          "internalType": "address",
          "name": "user",
          "type": "address"
        }
      ],
      "name": "powerOf",
      "outputs": [
        {
          "internalType": "uint256",
          "name": "",
          "type": "uint256"
        }
      ],
      "stateMutability": "nonpayable",
      "type": "function"
    },
    {
      "inputs": [
        {
          "internalType": "bytes32",
          "name": "collateral",
          "type": "bytes32"
        },
        {
          "internalType": "address",
          "name": "user",
          "type": "address"
        }
      ],
      "name": "isCollateralized",
      "outputs": [
        {
          "internalType": "bool",
          "name": "",
          "type": "bool"
        }
      ],
      "stateMutability": "nonpayable",
      "type": "function"
    },
    {
      "inputs": [
        {
          "internalType": "bytes32",
          "name": "collateral",
          "type": "bytes32"
        },
        {
          "internalType": "address",
          "name": "from",
          "type": "address"
        },
        {
          "internalType": "address",
          "name": "to",
          "type": "address"
        },
        {
          "internalType": "uint256",
          "name": "amount",
          "type": "uint256"
        }
      ],
      "name": "post",
      "outputs": [],
      "stateMutability": "nonpayable",
      "type": "function"
    },
    {
      "inputs": [
        {
          "internalType": "bytes32",
          "name": "collateral",
          "type": "bytes32"
        },
        {
          "internalType": "address",
          "name": "from",
          "type": "address"
        },
        {
          "internalType": "address",
          "name": "to",
          "type": "address"
        },
        {
          "internalType": "uint256",
          "name": "amount",
          "type": "uint256"
        }
      ],
      "name": "withdraw",
      "outputs": [],
      "stateMutability": "nonpayable",
      "type": "function"
    },
    {
      "inputs": [
        {
          "internalType": "bytes32",
          "name": "collateral",
          "type": "bytes32"
        },
        {
          "internalType": "uint256",
          "name": "maturity",
          "type": "uint256"
        },
        {
          "internalType": "address",
          "name": "to",
          "type": "address"
        },
        {
          "internalType": "uint256",
          "name": "yDaiAmount",
          "type": "uint256"
        }
      ],
      "name": "borrow",
      "outputs": [],
      "stateMutability": "nonpayable",
      "type": "function"
    },
    {
      "inputs": [
        {
          "internalType": "bytes32",
          "name": "collateral",
          "type": "bytes32"
        },
        {
          "internalType": "uint256",
          "name": "maturity",
          "type": "uint256"
        },
        {
          "internalType": "address",
          "name": "from",
          "type": "address"
        },
        {
          "internalType": "uint256",
          "name": "yDaiAmount",
          "type": "uint256"
        }
      ],
      "name": "repayYDai",
      "outputs": [],
      "stateMutability": "nonpayable",
      "type": "function"
    },
    {
      "inputs": [
        {
          "internalType": "bytes32",
          "name": "collateral",
          "type": "bytes32"
        },
        {
          "internalType": "uint256",
          "name": "maturity",
          "type": "uint256"
        },
        {
          "internalType": "address",
          "name": "from",
          "type": "address"
        },
        {
          "internalType": "uint256",
          "name": "daiAmount",
          "type": "uint256"
        }
      ],
      "name": "repayDai",
      "outputs": [],
      "stateMutability": "nonpayable",
      "type": "function"
    },
    {
      "inputs": [
        {
          "internalType": "bytes32",
          "name": "collateral",
          "type": "bytes32"
        },
        {
          "internalType": "address",
          "name": "user",
          "type": "address"
        },
        {
          "internalType": "uint256",
          "name": "daiAmount",
          "type": "uint256"
        },
        {
          "internalType": "uint256",
          "name": "tokenAmount",
          "type": "uint256"
        }
      ],
      "name": "grab",
      "outputs": [],
      "stateMutability": "nonpayable",
      "type": "function"
    }
  ],
  "bytecode": "0x60806040526001600f60006101000a81548160ff0219169083151502179055503480156200002c57600080fd5b50604051620051ab380380620051ab833981810160405260e08110156200005257600080fd5b81019080805190602001909291908051906020019092919080519060200190929190805190602001909291908051906020019092919080519060200190929190805190602001909291905050506000620000b16200038560201b60201c565b9050806000806101000a81548173ffffffffffffffffffffffffffffffffffffffff021916908373ffffffffffffffffffffffffffffffffffffffff1602179055508073ffffffffffffffffffffffffffffffffffffffff16600073ffffffffffffffffffffffffffffffffffffffff167f8be0079c531659141344cd1fd0a4f28419497f9722a3daafe3b4186f6b6457e060405160405180910390a35086600360006101000a81548173ffffffffffffffffffffffffffffffffffffffff021916908373ffffffffffffffffffffffffffffffffffffffff16021790555084600460006101000a81548173ffffffffffffffffffffffffffffffffffffffff021916908373ffffffffffffffffffffffffffffffffffffffff16021790555083600560006101000a81548173ffffffffffffffffffffffffffffffffffffffff021916908373ffffffffffffffffffffffffffffffffffffffff16021790555081600660006101000a81548173ffffffffffffffffffffffffffffffffffffffff021916908373ffffffffffffffffffffffffffffffffffffffff16021790555080600760006101000a81548173ffffffffffffffffffffffffffffffffffffffff021916908373ffffffffffffffffffffffffffffffffffffffff16021790555085600860007f5745544800000000000000000000000000000000000000000000000000000000815260200190815260200160002060006101000a81548173ffffffffffffffffffffffffffffffffffffffff021916908373ffffffffffffffffffffffffffffffffffffffff16021790555082600860007f4348414900000000000000000000000000000000000000000000000000000000815260200190815260200160002060006101000a81548173ffffffffffffffffffffffffffffffffffffffff021916908373ffffffffffffffffffffffffffffffffffffffff160217905550505050505050506200038d565b600033905090565b614e0e806200039d6000396000f3fe608060405234801561001057600080fd5b50600436106101fb5760003560e01c806398cdae5a1161011a578063dc22cb6a116100ad578063ed7eebf21161007c578063ed7eebf214610a1a578063f2fde38b14610a70578063f51a391a14610ab4578063fa352c0014610b16578063fc0e74d114610b5a576101fb565b8063dc22cb6a146108a4578063dd62f42314610912578063e68b7cf414610974578063e71bdf41146109d6576101fb565b8063b6dbf9ce116100e9578063b6dbf9ce14610772578063c06331dc14610790578063c5ec0c17146107f2578063d0a3a7e41461085e576101fb565b806398cdae5a146106525780639d8e2177146106be578063ad5c4648146106dc578063adb9e54e146106fa576101fb565b80637ad29f40116101925780638da5cb5b116101615780638da5cb5b1461052c5780638da66ed9146105765780638e0cc176146105b8578063957aa58c14610630576101fb565b80637ad29f40146103f25780637c43a2011461045857806380f5a4401461049c578063839cd27c146104e0576101fb565b80636a146024116101ce5780636a146024146103005780636eb35aba146103245780637085204214610386578063715018a6146103e8576101fb565b80630302aeb01461020057806306f405fd146102625780632f2ea5de14610286578063552033c4146102dc575b600080fd5b6102606004803603608081101561021657600080fd5b810190808035906020019092919080359060200190929190803573ffffffffffffffffffffffffffffffffffffffff16906020019092919080359060200190929190505050610b64565b005b61026a610e62565b604051808260ff1660ff16815260200191505060405180910390f35b6102c66004803603606081101561029c57600080fd5b81019080803590602001909291908035906020019092919080359060200190929190505050610e67565b6040518082815260200191505060405180910390f35b6102e4611177565b604051808260ff1660ff16815260200191505060405180910390f35b61030861117c565b604051808260ff1660ff16815260200191505060405180910390f35b6103846004803603608081101561033a57600080fd5b810190808035906020019092919080359060200190929190803573ffffffffffffffffffffffffffffffffffffffff16906020019092919080359060200190929190505050611181565b005b6103e66004803603608081101561039c57600080fd5b810190808035906020019092919080359060200190929190803573ffffffffffffffffffffffffffffffffffffffff1690602001909291908035906020019092919050505061158e565b005b6103f0611d65565b005b61043e6004803603604081101561040857600080fd5b8101908080359060200190929190803573ffffffffffffffffffffffffffffffffffffffff169060200190929190505050611eed565b604051808215151515815260200191505060405180910390f35b61049a6004803603602081101561046e57600080fd5b81019080803573ffffffffffffffffffffffffffffffffffffffff169060200190929190505050611f0d565b005b6104de600480360360208110156104b257600080fd5b81019080803573ffffffffffffffffffffffffffffffffffffffff169060200190929190505050612156565b005b610516600480360360408110156104f657600080fd5b8101908080359060200190929190803590602001909291905050506122dc565b6040518082815260200191505060405180910390f35b610534612301565b604051808273ffffffffffffffffffffffffffffffffffffffff1673ffffffffffffffffffffffffffffffffffffffff16815260200191505060405180910390f35b6105a26004803603602081101561058c57600080fd5b810190808035906020019092919050505061232a565b6040518082815260200191505060405180910390f35b61062e600480360360808110156105ce57600080fd5b8101908080359060200190929190803573ffffffffffffffffffffffffffffffffffffffff169060200190929190803573ffffffffffffffffffffffffffffffffffffffff16906020019092919080359060200190929190505050612342565b005b610638612a22565b604051808215151515815260200191505060405180910390f35b6106a86004803603606081101561066857600080fd5b810190808035906020019092919080359060200190929190803573ffffffffffffffffffffffffffffffffffffffff169060200190929190505050612a35565b6040518082815260200191505060405180910390f35b6106c6612a67565b6040518082815260200191505060405180910390f35b6106e4612a77565b6040518082815260200191505060405180910390f35b6107706004803603608081101561071057600080fd5b8101908080359060200190929190803573ffffffffffffffffffffffffffffffffffffffff169060200190929190803573ffffffffffffffffffffffffffffffffffffffff16906020019092919080359060200190929190505050612a9b565b005b61077a61309a565b6040518082815260200191505060405180910390f35b6107dc600480360360408110156107a657600080fd5b8101908080359060200190929190803573ffffffffffffffffffffffffffffffffffffffff1690602001909291905050506130be565b6040518082815260200191505060405180910390f35b6108486004803603606081101561080857600080fd5b810190808035906020019092919080359060200190929190803573ffffffffffffffffffffffffffffffffffffffff1690602001909291905050506134da565b6040518082815260200191505060405180910390f35b61088a6004803603602081101561087457600080fd5b8101908080359060200190929190505050613551565b604051808215151515815260200191505060405180910390f35b6108d0600480360360208110156108ba57600080fd5b81019080803590602001909291905050506135bd565b604051808273ffffffffffffffffffffffffffffffffffffffff1673ffffffffffffffffffffffffffffffffffffffff16815260200191505060405180910390f35b61095e6004803603604081101561092857600080fd5b8101908080359060200190929190803573ffffffffffffffffffffffffffffffffffffffff1690602001909291905050506135f0565b6040518082815260200191505060405180910390f35b6109c06004803603604081101561098a57600080fd5b8101908080359060200190929190803573ffffffffffffffffffffffffffffffffffffffff169060200190929190505050613615565b6040518082815260200191505060405180910390f35b610a18600480360360208110156109ec57600080fd5b81019080803573ffffffffffffffffffffffffffffffffffffffff169060200190929190505050613667565b005b610a5a60048036036060811015610a3057600080fd5b81019080803590602001909291908035906020019092919080359060200190929190505050613769565b6040518082815260200191505060405180910390f35b610ab260048036036020811015610a8657600080fd5b81019080803573ffffffffffffffffffffffffffffffffffffffff169060200190929190505050613a79565b005b610b1460048036036080811015610aca57600080fd5b8101908080359060200190929190803573ffffffffffffffffffffffffffffffffffffffff1690602001909291908035906020019092919080359060200190929190505050613c86565b005b610b5860048036036020811015610b2c57600080fd5b81019080803573ffffffffffffffffffffffffffffffffffffffff1690602001909291905050506142cc565b005b610b626143ce565b005b837f5745544800000000000000000000000000000000000000000000000000000000811480610bb257507f434841490000000000000000000000000000000000000000000000000000000081145b610c24576040517f08c379a000000000000000000000000000000000000000000000000000000000815260040180806020018281038252601f8152602001807f4465616c65723a20556e7265636f676e697a656420636f6c6c61746572616c0081525060200191505060405180910390fd5b83610c2e81613551565b610ca0576040517f08c379a000000000000000000000000000000000000000000000000000000000815260040180806020018281038252601b8152602001807f4465616c65723a20556e7265636f676e697a656420736572696573000000000081525060200191505060405180910390fd5b60011515600f60009054906101000a900460ff16151514610d0c576040517f08c379a0000000000000000000000000000000000000000000000000000000008152600401808060200182810382526023815260200180614d956023913960400191505060405180910390fd5b6000610d7984600c60008a8152602001908152602001600020600089815260200190815260200160002060008873ffffffffffffffffffffffffffffffffffffffff1673ffffffffffffffffffffffffffffffffffffffff16815260200190815260200160002054614507565b90506009600087815260200190815260200160002060009054906101000a900473ffffffffffffffffffffffffffffffffffffffff1673ffffffffffffffffffffffffffffffffffffffff16639dc29fac86836040518363ffffffff1660e01b8152600401808373ffffffffffffffffffffffffffffffffffffffff1673ffffffffffffffffffffffffffffffffffffffff16815260200182815260200192505050600060405180830381600087803b158015610e3557600080fd5b505af1158015610e49573d6000803e3d6000fd5b50505050610e5987878784614520565b50505050505050565b602d81565b60006009600084815260200190815260200160002060009054906101000a900473ffffffffffffffffffffffffffffffffffffffff1673ffffffffffffffffffffffffffffffffffffffff1663ae4e7fdf6040518163ffffffff1660e01b815260040160206040518083038186803b158015610ee257600080fd5b505afa158015610ef6573d6000803e3d6000fd5b505050506040513d6020811015610f0c57600080fd5b81019080805190602001909291905050501561116c577f574554480000000000000000000000000000000000000000000000000000000084141561101057611009826009600086815260200190815260200160002060009054906101000a900473ffffffffffffffffffffffffffffffffffffffff1673ffffffffffffffffffffffffffffffffffffffff1663abf1614b6040518163ffffffff1660e01b8152600401602060405180830381600087803b158015610fc957600080fd5b505af1158015610fdd573d6000803e3d6000fd5b505050506040513d6020811015610ff357600080fd5b8101908080519060200190929190505050614733565b9050611170565b7f43484149000000000000000000000000000000000000000000000000000000008414156110fe576110f7826009600086815260200190815260200160002060009054906101000a900473ffffffffffffffffffffffffffffffffffffffff1673ffffffffffffffffffffffffffffffffffffffff1663cb2401986040518163ffffffff1660e01b8152600401602060405180830381600087803b1580156110b757600080fd5b505af11580156110cb573d6000803e3d6000fd5b505050506040513d60208110156110e157600080fd5b8101908080519060200190929190505050614733565b9050611170565b6040517f08c379a000000000000000000000000000000000000000000000000000000000815260040180806020018281038252601e8152602001807f4465616c65723a20556e737570706f7274656420636f6c6c61746572616c000081525060200191505060405180910390fd5b8190505b9392505050565b601b81565b601281565b837f57455448000000000000000000000000000000000000000000000000000000008114806111cf57507f434841490000000000000000000000000000000000000000000000000000000081145b611241576040517f08c379a000000000000000000000000000000000000000000000000000000000815260040180806020018281038252601f8152602001807f4465616c65723a20556e7265636f676e697a656420636f6c6c61746572616c0081525060200191505060405180910390fd5b8361124b81613551565b6112bd576040517f08c379a000000000000000000000000000000000000000000000000000000000815260040180806020018281038252601b8152602001807f4465616c65723a20556e7265636f676e697a656420736572696573000000000081525060200191505060405180910390fd5b60011515600f60009054906101000a900460ff16151514611329576040517f08c379a0000000000000000000000000000000000000000000000000000000008152600401808060200182810382526023815260200180614d956023913960400191505060405180910390fd5b600061133f8461133a8989896134da565b614507565b9050600460009054906101000a900473ffffffffffffffffffffffffffffffffffffffff1673ffffffffffffffffffffffffffffffffffffffff166323b872dd86600760009054906101000a900473ffffffffffffffffffffffffffffffffffffffff16846040518463ffffffff1660e01b8152600401808473ffffffffffffffffffffffffffffffffffffffff1673ffffffffffffffffffffffffffffffffffffffff1681526020018373ffffffffffffffffffffffffffffffffffffffff1673ffffffffffffffffffffffffffffffffffffffff1681526020018281526020019350505050602060405180830381600087803b15801561144057600080fd5b505af1158015611454573d6000803e3d6000fd5b505050506040513d602081101561146a57600080fd5b81019080805190602001909291905050506114ed576040517f08c379a00000000000000000000000000000000000000000000000000000000081526004018080602001828103825260198152602001807f4465616c65723a20446169207472616e73666572206661696c0000000000000081525060200191505060405180910390fd5b600760009054906101000a900473ffffffffffffffffffffffffffffffffffffffff1673ffffffffffffffffffffffffffffffffffffffff1663adb987e36040518163ffffffff1660e01b8152600401600060405180830381600087803b15801561155757600080fd5b505af115801561156b573d6000803e3d6000fd5b505050506115858787876115808b8b87613769565b614520565b50505050505050565b837f57455448000000000000000000000000000000000000000000000000000000008114806115dc57507f434841490000000000000000000000000000000000000000000000000000000081145b61164e576040517f08c379a000000000000000000000000000000000000000000000000000000000815260040180806020018281038252601f8152602001807f4465616c65723a20556e7265636f676e697a656420636f6c6c61746572616c0081525060200191505060405180910390fd5b8361165881613551565b6116ca576040517f08c379a000000000000000000000000000000000000000000000000000000000815260040180806020018281038252601b8152602001807f4465616c65723a20556e7265636f676e697a656420736572696573000000000081525060200191505060405180910390fd5b836040518060400160405280601f81526020017f4465616c65723a204f6e6c7920486f6c646572204f722044656c6567617465008152508173ffffffffffffffffffffffffffffffffffffffff163373ffffffffffffffffffffffffffffffffffffffff1614806117c15750600260008373ffffffffffffffffffffffffffffffffffffffff1673ffffffffffffffffffffffffffffffffffffffff16815260200190815260200160002060003373ffffffffffffffffffffffffffffffffffffffff1673ffffffffffffffffffffffffffffffffffffffff16815260200190815260200160002060009054906101000a900460ff165b8190611868576040517f08c379a00000000000000000000000000000000000000000000000000000000081526004018080602001828103825283818151815260200191508051906020019080838360005b8381101561182d578082015181840152602081019050611812565b50505050905090810190601f16801561185a5780820380516001836020036101000a031916815260200191505b509250505060405180910390fd5b5060011515600f60009054906101000a900460ff161515146118d5576040517f08c379a0000000000000000000000000000000000000000000000000000000008152600401808060200182810382526023815260200180614d956023913960400191505060405180910390fd5b600115156009600089815260200190815260200160002060009054906101000a900473ffffffffffffffffffffffffffffffffffffffff1673ffffffffffffffffffffffffffffffffffffffff1663ae4e7fdf6040518163ffffffff1660e01b815260040160206040518083038186803b15801561195257600080fd5b505afa158015611966573d6000803e3d6000fd5b505050506040513d602081101561197c57600080fd5b810190808051906020019092919050505015151415611a03576040517f08c379a00000000000000000000000000000000000000000000000000000000081526004018080602001828103825260188152602001807f4465616c65723a204e6f206d617475726520626f72726f77000000000000000081525060200191505060405180910390fd5b6000600c60008a8152602001908152602001600020600089815260200190815260200160002060008873ffffffffffffffffffffffffffffffffffffffff1673ffffffffffffffffffffffffffffffffffffffff16815260200190815260200160002054148015611a75575060008510155b15611a8557611a84600a61476e565b5b611af985600c60008b815260200190815260200160002060008a815260200190815260200160002060008973ffffffffffffffffffffffffffffffffffffffff1673ffffffffffffffffffffffffffffffffffffffff1681526020019081526020016000205461491b90919063ffffffff16565b600c60008a8152602001908152602001600020600089815260200190815260200160002060008873ffffffffffffffffffffffffffffffffffffffff1673ffffffffffffffffffffffffffffffffffffffff16815260200190815260200160002081905550611b9585600e60008b815260200190815260200160002060008a81526020019081526020016000205461491b90919063ffffffff16565b600e60008a8152602001908152602001600020600089815260200190815260200160002081905550611bc78887611eed565b611c39576040517f08c379a00000000000000000000000000000000000000000000000000000000081526004018080602001828103825260158152602001807f4465616c65723a20546f6f206d7563682064656274000000000000000000000081525060200191505060405180910390fd5b6009600088815260200190815260200160002060009054906101000a900473ffffffffffffffffffffffffffffffffffffffff1673ffffffffffffffffffffffffffffffffffffffff166340c10f1987876040518363ffffffff1660e01b8152600401808373ffffffffffffffffffffffffffffffffffffffff1673ffffffffffffffffffffffffffffffffffffffff16815260200182815260200192505050600060405180830381600087803b158015611cf357600080fd5b505af1158015611d07573d6000803e3d6000fd5b505050508573ffffffffffffffffffffffffffffffffffffffff1687897f3dc0ed286b1afbc2228a1e7f81fc3f66aa9f423dca0c6a283eafa53e93adefbe886040518082815260200191505060405180910390a45050505050505050565b611d6d6149a3565b73ffffffffffffffffffffffffffffffffffffffff166000809054906101000a900473ffffffffffffffffffffffffffffffffffffffff1673ffffffffffffffffffffffffffffffffffffffff1614611e2e576040517f08c379a00000000000000000000000000000000000000000000000000000000081526004018080602001828103825260208152602001807f4f776e61626c653a2063616c6c6572206973206e6f7420746865206f776e657281525060200191505060405180910390fd5b600073ffffffffffffffffffffffffffffffffffffffff166000809054906101000a900473ffffffffffffffffffffffffffffffffffffffff1673ffffffffffffffffffffffffffffffffffffffff167f8be0079c531659141344cd1fd0a4f28419497f9722a3daafe3b4186f6b6457e060405160405180910390a360008060006101000a81548173ffffffffffffffffffffffffffffffffffffffff021916908373ffffffffffffffffffffffffffffffffffffffff160217905550565b6000611ef98383613615565b611f0384846130be565b1015905092915050565b611f156149a3565b73ffffffffffffffffffffffffffffffffffffffff166000809054906101000a900473ffffffffffffffffffffffffffffffffffffffff1673ffffffffffffffffffffffffffffffffffffffff1614611fd6576040517f08c379a00000000000000000000000000000000000000000000000000000000081526004018080602001828103825260208152602001807f4f776e61626c653a2063616c6c6572206973206e6f7420746865206f776e657281525060200191505060405180910390fd5b60008173ffffffffffffffffffffffffffffffffffffffff1663204f83f96040518163ffffffff1660e01b815260040160206040518083038186803b15801561201e57600080fd5b505afa158015612032573d6000803e3d6000fd5b505050506040513d602081101561204857600080fd5b8101908080519060200190929190505050905061206481613551565b156120d7576040517f08c379a000000000000000000000000000000000000000000000000000000000815260040180806020018281038252601c8152602001807f4465616c65723a2053657269657320616c72656164792061646465640000000081525060200191505060405180910390fd5b816009600083815260200190815260200160002060006101000a81548173ffffffffffffffffffffffffffffffffffffffff021916908373ffffffffffffffffffffffffffffffffffffffff160217905550600a8190806001815401808255809150506001900390600052602060002001600090919091909150555050565b61215e6149a3565b73ffffffffffffffffffffffffffffffffffffffff166000809054906101000a900473ffffffffffffffffffffffffffffffffffffffff1673ffffffffffffffffffffffffffffffffffffffff161461221f576040517f08c379a00000000000000000000000000000000000000000000000000000000081526004018080602001828103825260208152602001807f4f776e61626c653a2063616c6c6572206973206e6f7420746865206f776e657281525060200191505060405180910390fd5b60018060008373ffffffffffffffffffffffffffffffffffffffff1673ffffffffffffffffffffffffffffffffffffffff16815260200190815260200160002060006101000a81548160ff0219169083151502179055507f6a7c5f28ea564fafc8b079663a2a9b9d26fe735d97c97611484ce044f40a16e281604051808273ffffffffffffffffffffffffffffffffffffffff1673ffffffffffffffffffffffffffffffffffffffff16815260200191505060405180910390a150565b600e602052816000526040600020602052806000526040600020600091509150505481565b60008060009054906101000a900473ffffffffffffffffffffffffffffffffffffffff16905090565b600d6020528060005260406000206000915090505481565b837f574554480000000000000000000000000000000000000000000000000000000081148061239057507f434841490000000000000000000000000000000000000000000000000000000081145b612402576040517f08c379a000000000000000000000000000000000000000000000000000000000815260040180806020018281038252601f8152602001807f4465616c65723a20556e7265636f676e697a656420636f6c6c61746572616c0081525060200191505060405180910390fd5b836040518060400160405280601f81526020017f4465616c65723a204f6e6c7920486f6c646572204f722044656c6567617465008152508173ffffffffffffffffffffffffffffffffffffffff163373ffffffffffffffffffffffffffffffffffffffff1614806124f95750600260008373ffffffffffffffffffffffffffffffffffffffff1673ffffffffffffffffffffffffffffffffffffffff16815260200190815260200160002060003373ffffffffffffffffffffffffffffffffffffffff1673ffffffffffffffffffffffffffffffffffffffff16815260200190815260200160002060009054906101000a900460ff165b81906125a0576040517f08c379a00000000000000000000000000000000000000000000000000000000081526004018080602001828103825283818151815260200191508051906020019080838360005b8381101561256557808201518184015260208101905061254a565b50505050905090810190601f1680156125925780820380516001836020036101000a031916815260200191505b509250505060405180910390fd5b5060011515600f60009054906101000a900460ff1615151461260d576040517f08c379a0000000000000000000000000000000000000000000000000000000008152600401808060200182810382526023815260200180614d956023913960400191505060405180910390fd5b61267084600b60008a815260200190815260200160002060008973ffffffffffffffffffffffffffffffffffffffff1673ffffffffffffffffffffffffffffffffffffffff168152602001908152602001600020546149ab90919063ffffffff16565b600b600089815260200190815260200160002060008873ffffffffffffffffffffffffffffffffffffffff1673ffffffffffffffffffffffffffffffffffffffff168152602001908152602001600020819055506126ea84600d60008a8152602001908152602001600020546149ab90919063ffffffff16565b600d60008981526020019081526020016000208190555061270b8787611eed565b61277d576040517f08c379a00000000000000000000000000000000000000000000000000000000081526004018080602001828103825260158152602001807f4465616c65723a20546f6f206d7563682064656274000000000000000000000081525060200191505060405180910390fd5b7f574554480000000000000000000000000000000000000000000000000000000087141561286b57600760009054906101000a900473ffffffffffffffffffffffffffffffffffffffff1673ffffffffffffffffffffffffffffffffffffffff16638ac96dfc86866040518363ffffffff1660e01b8152600401808373ffffffffffffffffffffffffffffffffffffffff1673ffffffffffffffffffffffffffffffffffffffff16815260200182815260200192505050600060405180830381600087803b15801561284e57600080fd5b505af1158015612862573d6000803e3d6000fd5b50505050612956565b7f434841490000000000000000000000000000000000000000000000000000000087141561295557600760009054906101000a900473ffffffffffffffffffffffffffffffffffffffff1673ffffffffffffffffffffffffffffffffffffffff16639fa8368986866040518363ffffffff1660e01b8152600401808373ffffffffffffffffffffffffffffffffffffffff1673ffffffffffffffffffffffffffffffffffffffff16815260200182815260200192505050600060405180830381600087803b15801561293c57600080fd5b505af1158015612950573d6000803e3d6000fd5b505050505b5b6000600b600089815260200190815260200160002060008873ffffffffffffffffffffffffffffffffffffffff1673ffffffffffffffffffffffffffffffffffffffff168152602001908152602001600020541480156129b7575060008410155b156129c7576129c6600a6149f5565b5b8573ffffffffffffffffffffffffffffffffffffffff16877fce1994727cf164e30801f140b3019e0d4862d430438ab41de1144b5db719c583866000036040518082815260200191505060405180910390a350505050505050565b600f60009054906101000a900460ff1681565b600c60205282600052604060002060205281600052604060002060205280600052604060002060009250925050505481565b6b033b2e3c9fd0803ce800000081565b7f574554480000000000000000000000000000000000000000000000000000000081565b837f5745544800000000000000000000000000000000000000000000000000000000811480612ae957507f434841490000000000000000000000000000000000000000000000000000000081145b612b5b576040517f08c379a000000000000000000000000000000000000000000000000000000000815260040180806020018281038252601f8152602001807f4465616c65723a20556e7265636f676e697a656420636f6c6c61746572616c0081525060200191505060405180910390fd5b60011515600f60009054906101000a900460ff16151514612bc7576040517f08c379a0000000000000000000000000000000000000000000000000000000008152600401808060200182810382526023815260200180614d956023913960400191505060405180910390fd5b6008600086815260200190815260200160002060009054906101000a900473ffffffffffffffffffffffffffffffffffffffff1673ffffffffffffffffffffffffffffffffffffffff166323b872dd85600760009054906101000a900473ffffffffffffffffffffffffffffffffffffffff16856040518463ffffffff1660e01b8152600401808473ffffffffffffffffffffffffffffffffffffffff1673ffffffffffffffffffffffffffffffffffffffff1681526020018373ffffffffffffffffffffffffffffffffffffffff1673ffffffffffffffffffffffffffffffffffffffff1681526020018281526020019350505050602060405180830381600087803b158015612cd757600080fd5b505af1158015612ceb573d6000803e3d6000fd5b505050506040513d6020811015612d0157600080fd5b8101908080519060200190929190505050612d84576040517f08c379a00000000000000000000000000000000000000000000000000000000081526004018080602001828103825260208152602001807f4465616c65723a20436f6c6c61746572616c207472616e73666572206661696c81525060200191505060405180910390fd5b7f5745544800000000000000000000000000000000000000000000000000000000851415612e3357600760009054906101000a900473ffffffffffffffffffffffffffffffffffffffff1673ffffffffffffffffffffffffffffffffffffffff16630b6500ee6040518163ffffffff1660e01b8152600401600060405180830381600087803b158015612e1657600080fd5b505af1158015612e2a573d6000803e3d6000fd5b50505050612edf565b7f4348414900000000000000000000000000000000000000000000000000000000851415612ede57600760009054906101000a900473ffffffffffffffffffffffffffffffffffffffff1673ffffffffffffffffffffffffffffffffffffffff1663653b8e816040518163ffffffff1660e01b8152600401600060405180830381600087803b158015612ec557600080fd5b505af1158015612ed9573d6000803e3d6000fd5b505050505b5b6000600b600087815260200190815260200160002060008573ffffffffffffffffffffffffffffffffffffffff1673ffffffffffffffffffffffffffffffffffffffff16815260200190815260200160002054148015612f40575060008210155b15612f5057612f4f600a61476e565b5b612fb382600b600088815260200190815260200160002060008673ffffffffffffffffffffffffffffffffffffffff1673ffffffffffffffffffffffffffffffffffffffff1681526020019081526020016000205461491b90919063ffffffff16565b600b600087815260200190815260200160002060008573ffffffffffffffffffffffffffffffffffffffff1673ffffffffffffffffffffffffffffffffffffffff1681526020019081526020016000208190555061302d82600d60008881526020019081526020016000205461491b90919063ffffffff16565b600d6000878152602001908152602001600020819055508273ffffffffffffffffffffffffffffffffffffffff16857fce1994727cf164e30801f140b3019e0d4862d430438ab41de1144b5db719c583846040518082815260200191505060405180910390a35050505050565b7f434841490000000000000000000000000000000000000000000000000000000081565b60007f5745544800000000000000000000000000000000000000000000000000000000831415613248576000600360009054906101000a900473ffffffffffffffffffffffffffffffffffffffff1673ffffffffffffffffffffffffffffffffffffffff1663d9638d366040518163ffffffff1660e01b815260040180807f4554482d41000000000000000000000000000000000000000000000000000000815250602001905060a06040518083038186803b15801561317d57600080fd5b505afa158015613191573d6000803e3d6000fd5b505050506040513d60a08110156131a757600080fd5b810190808051906020019092919080519060200190929190805190602001909291908051906020019092919080519060200190929190505050505092505050613240600b600086815260200190815260200160002060008573ffffffffffffffffffffffffffffffffffffffff1673ffffffffffffffffffffffffffffffffffffffff1681526020019081526020016000205482614733565b9150506134d4565b7f43484149000000000000000000000000000000000000000000000000000000008314156134cf576000600560009054906101000a900473ffffffffffffffffffffffffffffffffffffffff1673ffffffffffffffffffffffffffffffffffffffff166320aba08b6040518163ffffffff1660e01b8152600401602060405180830381600087803b1580156132dc57600080fd5b505af11580156132f0573d6000803e3d6000fd5b505050506040513d602081101561330657600080fd5b810190808051906020019092919050505042116133c557600560009054906101000a900473ffffffffffffffffffffffffffffffffffffffff1673ffffffffffffffffffffffffffffffffffffffff1663c92aecc46040518163ffffffff1660e01b815260040160206040518083038186803b15801561338557600080fd5b505afa158015613399573d6000803e3d6000fd5b505050506040513d60208110156133af57600080fd5b810190808051906020019092919050505061346b565b600560009054906101000a900473ffffffffffffffffffffffffffffffffffffffff1673ffffffffffffffffffffffffffffffffffffffff16639f678cca6040518163ffffffff1660e01b8152600401602060405180830381600087803b15801561342f57600080fd5b505af1158015613443573d6000803e3d6000fd5b505050506040513d602081101561345957600080fd5b81019080805190602001909291905050505b90506134c7600b600086815260200190815260200160002060008573ffffffffffffffffffffffffffffffffffffffff1673ffffffffffffffffffffffffffffffffffffffff1681526020019081526020016000205482614733565b9150506134d4565b600090505b92915050565b60006135488484600c6000888152602001908152602001600020600087815260200190815260200160002060008673ffffffffffffffffffffffffffffffffffffffff1673ffffffffffffffffffffffffffffffffffffffff16815260200190815260200160002054610e67565b90509392505050565b60008073ffffffffffffffffffffffffffffffffffffffff166009600084815260200190815260200160002060009054906101000a900473ffffffffffffffffffffffffffffffffffffffff1673ffffffffffffffffffffffffffffffffffffffff1614159050919050565b60096020528060005260406000206000915054906101000a900473ffffffffffffffffffffffffffffffffffffffff1681565b600b602052816000526040600020602052806000526040600020600091509150505481565b60008060008090505b600a8054905081101561365c5761364d85600a838154811061363c57fe5b9060005260206000200154866134da565b8201915060018101905061361e565b508091505092915050565b6001600260003373ffffffffffffffffffffffffffffffffffffffff1673ffffffffffffffffffffffffffffffffffffffff16815260200190815260200160002060008373ffffffffffffffffffffffffffffffffffffffff1673ffffffffffffffffffffffffffffffffffffffff16815260200190815260200160002060006101000a81548160ff0219169083151502179055508073ffffffffffffffffffffffffffffffffffffffff163373ffffffffffffffffffffffffffffffffffffffff167f045b0fef01772d2fbba53dbd38c9777806eac0865b00af43abcfbcaf50da92066001604051808215151515815260200191505060405180910390a350565b60006009600084815260200190815260200160002060009054906101000a900473ffffffffffffffffffffffffffffffffffffffff1673ffffffffffffffffffffffffffffffffffffffff1663ae4e7fdf6040518163ffffffff1660e01b815260040160206040518083038186803b1580156137e457600080fd5b505afa1580156137f8573d6000803e3d6000fd5b505050506040513d602081101561380e57600080fd5b810190808051906020019092919050505015613a6e577f57455448000000000000000000000000000000000000000000000000000000008414156139125761390b826009600086815260200190815260200160002060009054906101000a900473ffffffffffffffffffffffffffffffffffffffff1673ffffffffffffffffffffffffffffffffffffffff1663abf1614b6040518163ffffffff1660e01b8152600401602060405180830381600087803b1580156138cb57600080fd5b505af11580156138df573d6000803e3d6000fd5b505050506040513d60208110156138f557600080fd5b8101908080519060200190929190505050614add565b9050613a72565b7f4348414900000000000000000000000000000000000000000000000000000000841415613a00576139f9826009600086815260200190815260200160002060009054906101000a900473ffffffffffffffffffffffffffffffffffffffff1673ffffffffffffffffffffffffffffffffffffffff1663cb2401986040518163ffffffff1660e01b8152600401602060405180830381600087803b1580156139b957600080fd5b505af11580156139cd573d6000803e3d6000fd5b505050506040513d60208110156139e357600080fd5b8101908080519060200190929190505050614add565b9050613a72565b6040517f08c379a000000000000000000000000000000000000000000000000000000000815260040180806020018281038252601e8152602001807f4465616c65723a20556e737570706f7274656420636f6c6c61746572616c000081525060200191505060405180910390fd5b8190505b9392505050565b613a816149a3565b73ffffffffffffffffffffffffffffffffffffffff166000809054906101000a900473ffffffffffffffffffffffffffffffffffffffff1673ffffffffffffffffffffffffffffffffffffffff1614613b42576040517f08c379a00000000000000000000000000000000000000000000000000000000081526004018080602001828103825260208152602001807f4f776e61626c653a2063616c6c6572206973206e6f7420746865206f776e657281525060200191505060405180910390fd5b600073ffffffffffffffffffffffffffffffffffffffff168173ffffffffffffffffffffffffffffffffffffffff161415613bc8576040517f08c379a0000000000000000000000000000000000000000000000000000000008152600401808060200182810382526026815260200180614d6f6026913960400191505060405180910390fd5b8073ffffffffffffffffffffffffffffffffffffffff166000809054906101000a900473ffffffffffffffffffffffffffffffffffffffff1673ffffffffffffffffffffffffffffffffffffffff167f8be0079c531659141344cd1fd0a4f28419497f9722a3daafe3b4186f6b6457e060405160405180910390a3806000806101000a81548173ffffffffffffffffffffffffffffffffffffffff021916908373ffffffffffffffffffffffffffffffffffffffff16021790555050565b837f5745544800000000000000000000000000000000000000000000000000000000811480613cd457507f434841490000000000000000000000000000000000000000000000000000000081145b613d46576040517f08c379a000000000000000000000000000000000000000000000000000000000815260040180806020018281038252601f8152602001807f4465616c65723a20556e7265636f676e697a656420636f6c6c61746572616c0081525060200191505060405180910390fd5b6040518060400160405280601681526020017f4465616c65723a204e6f7420417574686f72697a656400000000000000000000815250600160003373ffffffffffffffffffffffffffffffffffffffff1673ffffffffffffffffffffffffffffffffffffffff16815260200190815260200160002060009054906101000a900460ff168190613e70576040517f08c379a00000000000000000000000000000000000000000000000000000000081526004018080602001828103825283818151815260200191508051906020019080838360005b83811015613e35578082015181840152602081019050613e1a565b50505050905090810190601f168015613e625780820380516001836020036101000a031916815260200191505b509250505060405180910390fd5b50613f0b836040518060400160405280601d81526020017f4465616c65723a204e6f7420656e6f75676820636f6c6c61746572616c000000815250600b60008a815260200190815260200160002060008973ffffffffffffffffffffffffffffffffffffffff1673ffffffffffffffffffffffffffffffffffffffff16815260200190815260200160002054614b189092919063ffffffff16565b600b600088815260200190815260200160002060008773ffffffffffffffffffffffffffffffffffffffff1673ffffffffffffffffffffffffffffffffffffffff16815260200190815260200160002081905550613f8583600d6000898152602001908152602001600020546149ab90919063ffffffff16565b600d6000888152602001908152602001600020819055506000600b600088815260200190815260200160002060008773ffffffffffffffffffffffffffffffffffffffff1673ffffffffffffffffffffffffffffffffffffffff16815260200190815260200160002054141561400057613fff600a6149f5565b5b600080600090505b600a8054905081101561424d576000600a828154811061402457fe5b9060005260206000200154905060006140596140418b848c6134da565b614054868b6149ab90919063ffffffff16565b614507565b905061406e818561491b90919063ffffffff16565b93506140ee61407e8b8484613769565b600c60008d8152602001908152602001600020600085815260200190815260200160002060008c73ffffffffffffffffffffffffffffffffffffffff1673ffffffffffffffffffffffffffffffffffffffff168152602001908152602001600020546149ab90919063ffffffff16565b600c60008c8152602001908152602001600020600084815260200190815260200160002060008b73ffffffffffffffffffffffffffffffffffffffff1673ffffffffffffffffffffffffffffffffffffffff168152602001908152602001600020819055506141946141618b8484613769565b600e60008d81526020019081526020016000206000858152602001908152602001600020546149ab90919063ffffffff16565b600e60008c81526020019081526020016000206000848152602001908152602001600020819055506000600c60008c8152602001908152602001600020600084815260200190815260200160002060008b73ffffffffffffffffffffffffffffffffffffffff1673ffffffffffffffffffffffffffffffffffffffff16815260200190815260200160002054141561423157614230600a6149f5565b5b8784141561424057505061424d565b5050600181019050614008565b508481146142c3576040517f08c379a000000000000000000000000000000000000000000000000000000000815260040180806020018281038252601c8152602001807f4465616c65723a204e6f7420656e6f756768207573657220646562740000000081525060200191505060405180910390fd5b50505050505050565b6000600260003373ffffffffffffffffffffffffffffffffffffffff1673ffffffffffffffffffffffffffffffffffffffff16815260200190815260200160002060008373ffffffffffffffffffffffffffffffffffffffff1673ffffffffffffffffffffffffffffffffffffffff16815260200190815260200160002060006101000a81548160ff0219169083151502179055508073ffffffffffffffffffffffffffffffffffffffff163373ffffffffffffffffffffffffffffffffffffffff167f045b0fef01772d2fbba53dbd38c9777806eac0865b00af43abcfbcaf50da92066000604051808215151515815260200191505060405180910390a350565b60001515600760009054906101000a900473ffffffffffffffffffffffffffffffffffffffff1673ffffffffffffffffffffffffffffffffffffffff1663957aa58c6040518163ffffffff1660e01b815260040160206040518083038186803b15801561443a57600080fd5b505afa15801561444e573d6000803e3d6000fd5b505050506040513d602081101561446457600080fd5b81019080805190602001909291905050501515146144ea576040517f08c379a00000000000000000000000000000000000000000000000000000000081526004018080602001828103825260188152602001807f4465616c65723a205472656173757279206973206c697665000000000000000081525060200191505060405180910390fd5b6000600f60006101000a81548160ff021916908315150217905550565b60008183106145165781614518565b825b905092915050565b61459481600c6000878152602001908152602001600020600086815260200190815260200160002060008573ffffffffffffffffffffffffffffffffffffffff1673ffffffffffffffffffffffffffffffffffffffff168152602001908152602001600020546149ab90919063ffffffff16565b600c6000868152602001908152602001600020600085815260200190815260200160002060008473ffffffffffffffffffffffffffffffffffffffff1673ffffffffffffffffffffffffffffffffffffffff1681526020019081526020016000208190555061463081600e60008781526020019081526020016000206000868152602001908152602001600020546149ab90919063ffffffff16565b600e60008681526020019081526020016000206000858152602001908152602001600020819055506000600c6000868152602001908152602001600020600085815260200190815260200160002060008473ffffffffffffffffffffffffffffffffffffffff1673ffffffffffffffffffffffffffffffffffffffff168152602001908152602001600020541480156146ca575060008110155b156146da576146d9600a6149f5565b5b8173ffffffffffffffffffffffffffffffffffffffff1683857f3dc0ed286b1afbc2228a1e7f81fc3f66aa9f423dca0c6a283eafa53e93adefbe846000036040518082815260200191505060405180910390a450505050565b60006147666b033b2e3c9fd0803ce80000006147588486614bd890919063ffffffff16565b614c5e90919063ffffffff16565b905092915050565b600660009054906101000a900473ffffffffffffffffffffffffffffffffffffffff1673ffffffffffffffffffffffffffffffffffffffff166323b872dd3330846040518463ffffffff1660e01b8152600401808473ffffffffffffffffffffffffffffffffffffffff1673ffffffffffffffffffffffffffffffffffffffff1681526020018373ffffffffffffffffffffffffffffffffffffffff1673ffffffffffffffffffffffffffffffffffffffff1681526020018281526020019350505050602060405180830381600087803b15801561484b57600080fd5b505af115801561485f573d6000803e3d6000fd5b505050506040513d602081101561487557600080fd5b810190808051906020019092919050505061491857600660009054906101000a900473ffffffffffffffffffffffffffffffffffffffff1673ffffffffffffffffffffffffffffffffffffffff1663a0712d68826040518263ffffffff1660e01b815260040180828152602001915050600060405180830381600087803b1580156148ff57600080fd5b505af1158015614913573d6000803e3d6000fd5b505050505b50565b600080828401905083811015614999576040517f08c379a000000000000000000000000000000000000000000000000000000000815260040180806020018281038252601b8152602001807f536166654d6174683a206164646974696f6e206f766572666c6f77000000000081525060200191505060405180910390fd5b8091505092915050565b600033905090565b60006149ed83836040518060400160405280601e81526020017f536166654d6174683a207375627472616374696f6e206f766572666c6f770000815250614b18565b905092915050565b600660009054906101000a900473ffffffffffffffffffffffffffffffffffffffff1673ffffffffffffffffffffffffffffffffffffffff1663a9059cbb33836040518363ffffffff1660e01b8152600401808373ffffffffffffffffffffffffffffffffffffffff1673ffffffffffffffffffffffffffffffffffffffff16815260200182815260200192505050602060405180830381600087803b158015614a9e57600080fd5b505af1158015614ab2573d6000803e3d6000fd5b505050506040513d6020811015614ac857600080fd5b81019080805190602001909291905050505050565b6000614b1082614b026b033b2e3c9fd0803ce800000086614bd890919063ffffffff16565b614c5e90919063ffffffff16565b905092915050565b6000838311158290614bc5576040517f08c379a00000000000000000000000000000000000000000000000000000000081526004018080602001828103825283818151815260200191508051906020019080838360005b83811015614b8a578082015181840152602081019050614b6f565b50505050905090810190601f168015614bb75780820380516001836020036101000a031916815260200191505b509250505060405180910390fd5b5060008385039050809150509392505050565b600080831415614beb5760009050614c58565b6000828402905082848281614bfc57fe5b0414614c53576040517f08c379a0000000000000000000000000000000000000000000000000000000008152600401808060200182810382526021815260200180614db86021913960400191505060405180910390fd5b809150505b92915050565b6000614ca083836040518060400160405280601a81526020017f536166654d6174683a206469766973696f6e206279207a65726f000000000000815250614ca8565b905092915050565b60008083118290614d54576040517f08c379a00000000000000000000000000000000000000000000000000000000081526004018080602001828103825283818151815260200191508051906020019080838360005b83811015614d19578082015181840152602081019050614cfe565b50505050905090810190601f168015614d465780820380516001836020036101000a031916815260200191505b509250505060405180910390fd5b506000838581614d6057fe5b04905080915050939250505056fe4f776e61626c653a206e6577206f776e657220697320746865207a65726f20616464726573734465616c65723a204e6f7420617661696c61626c6520647572696e6720756e77696e64536166654d6174683a206d756c7469706c69636174696f6e206f766572666c6f77a2646970667358221220e46efa1c00c825fcad71dd6c402fa438ea29c63ea096ef888e7bc7502fcafd5764736f6c63430006020033",
  "source": "pragma solidity ^0.6.2;\n\nimport \"@openzeppelin/contracts/math/Math.sol\";\nimport \"@openzeppelin/contracts/math/SafeMath.sol\";\nimport \"@openzeppelin/contracts/token/ERC20/IERC20.sol\";\nimport \"./interfaces/IVat.sol\";\nimport \"./interfaces/IPot.sol\";\nimport \"./interfaces/IChai.sol\";\nimport \"./interfaces/IGasToken.sol\";\nimport \"./interfaces/ITreasury.sol\";\nimport \"./interfaces/IDealer.sol\";\nimport \"./interfaces/IYDai.sol\";\nimport \"./helpers/Constants.sol\";\nimport \"./helpers/Delegable.sol\";\nimport \"./helpers/DecimalMath.sol\";\nimport \"./helpers/Orchestrated.sol\";\n// import \"@nomiclabs/buidler/console.sol\";\n\n/// @dev A dealer takes collateral and issues yDai.\ncontract Dealer is IDealer, Orchestrated(), Delegable(), DecimalMath, Constants {\n    using SafeMath for uint256;\n\n    event Posted(bytes32 indexed collateral, address indexed user, int256 amount);\n    event Borrowed(bytes32 indexed collateral, uint256 indexed maturity, address indexed user, int256 amount);\n\n    IVat internal _vat;\n    IERC20 internal _dai;\n    IPot internal _pot;\n    IGasToken internal _gasToken;\n    ITreasury internal _treasury;\n\n    mapping(bytes32 => IERC20) internal _token;                       // Weth or Chai\n    mapping(uint256 => IYDai) public override series;                 // YDai series, indexed by maturity\n    uint256[] internal seriesIterator;                                // We need to know all the series\n\n    mapping(bytes32 => mapping(address => uint256)) public override posted;               // Collateral posted by each user\n    mapping(bytes32 => mapping(uint256 => mapping(address => uint256))) public debtYDai;  // Debt owed by each user, by series\n\n    mapping(bytes32 => uint256) public override systemPosted;                        // Sum of collateral posted by all users\n    mapping(bytes32 => mapping(uint256 => uint256)) public override systemDebtYDai;  // Sum of debt owed by all users, by series\n\n    bool public live = true;\n\n    constructor (\n        address vat_,\n        address weth_,\n        address dai_,\n        address pot_,\n        address chai_,\n        address gasToken_,\n        address treasury_\n    ) public {\n        _vat = IVat(vat_);\n        _dai = IERC20(dai_);\n        _pot = IPot(pot_);\n        _gasToken = IGasToken(gasToken_);\n        _treasury = ITreasury(treasury_);\n        _token[WETH] = IERC20(weth_);\n        _token[CHAI] = IERC20(chai_);\n    }\n\n    modifier onlyLive() {\n        require(live == true, \"Dealer: Not available during unwind\");\n        _;\n    }\n\n    modifier validSeries(uint256 maturity) {\n        require(\n            containsSeries(maturity),\n            \"Dealer: Unrecognized series\"\n        );\n        _;\n    }\n\n    modifier validCollateral(bytes32 collateral) {\n        require(\n            collateral == WETH || collateral == CHAI,\n            \"Dealer: Unrecognized collateral\"\n        );\n        _;\n    }\n\n    /// @dev Disables post, withdraw, borrow and repay. To be called only when Treasury shuts down.\n    function shutdown() public override {\n        require(\n            _treasury.live() == false,\n            \"Dealer: Treasury is live\"\n        );\n        live = false;\n    }\n\n    /// @dev Returns if a series has been added to the Dealer, for a given series identified by maturity\n    function containsSeries(uint256 maturity) public view returns (bool) {\n        return address(series[maturity]) != address(0);\n    }\n\n    /// @dev Adds an yDai series to this Dealer\n    function addSeries(address yDaiContract) public onlyOwner {\n        uint256 maturity = IYDai(yDaiContract).maturity();\n        require(\n            !containsSeries(maturity),\n            \"Dealer: Series already added\"\n        );\n        series[maturity] = IYDai(yDaiContract);\n        seriesIterator.push(maturity);\n    }\n\n    /// @dev Returns the dai equivalent of an yDai amount, for a given series identified by maturity\n    function inDai(bytes32 collateral, uint256 maturity, uint256 yDaiAmount) public returns (uint256) {\n        if (series[maturity].isMature()){\n            if (collateral == WETH){\n                return muld(yDaiAmount, series[maturity].rateGrowth());\n            } else if (collateral == CHAI) {\n                return muld(yDaiAmount, series[maturity].chiGrowth());\n            } else {\n                revert(\"Dealer: Unsupported collateral\");\n            }\n        } else {\n            return yDaiAmount;\n        }\n    }\n\n    /// @dev Returns the yDai equivalent of a dai amount, for a given series identified by maturity\n    function inYDai(bytes32 collateral, uint256 maturity, uint256 daiAmount) public returns (uint256) {\n        if (series[maturity].isMature()){\n            if (collateral == WETH){\n                return divd(daiAmount, series[maturity].rateGrowth());\n            } else if (collateral == CHAI) {\n                return divd(daiAmount, series[maturity].chiGrowth());\n            } else {\n                revert(\"Dealer: Unsupported collateral\");\n            }\n        } else {\n            return daiAmount;\n        }\n    }\n\n    /// @dev Return debt in dai of an user, for a given collateral and series identified by maturity\n    //\n    //                        rate_now\n    // debt_now = debt_mat * ----------\n    //                        rate_mat\n    //\n    function debtDai(bytes32 collateral, uint256 maturity, address user) public returns (uint256) {\n        return inDai(collateral, maturity, debtYDai[collateral][maturity][user]);\n    }\n\n    /// @dev Returns the total debt of an user, for a given collateral, across all series, in Dai\n    function totalDebtDai(bytes32 collateral, address user) public override returns (uint256) {\n        uint256 totalDebt;\n        for (uint256 i = 0; i < seriesIterator.length; i += 1) {\n            // TODO: Skip next line if debtYDai[collateral][maturity][user] == 0\n            totalDebt = totalDebt + debtDai(collateral, seriesIterator[i], user);\n        } // We don't expect hundreds of maturities per dealer\n        return totalDebt;\n    }\n\n    /// @dev Maximum borrowing power of an user in dai for a given collateral\n    //\n    // powerOf[user](wad) = posted[user](wad) * oracle.price()(ray)\n    //\n    function powerOf(bytes32 collateral, address user) public returns (uint256) {\n        // dai = price * collateral\n        if (collateral == WETH){\n            (,, uint256 spot,,) = _vat.ilks(\"ETH-A\");  // Stability fee and collateralization ratio for Weth\n            return muld(posted[collateral][user], spot);\n        } else if (collateral == CHAI) {\n            uint256 chi = (now > _pot.rho()) ? _pot.drip() : _pot.chi();\n            return muld(posted[collateral][user], chi);\n        }\n        return 0;\n    }\n\n    /// @dev Return if the borrowing power for a given collateral of an user is equal or greater than its debt for the same collateral\n    function isCollateralized(bytes32 collateral, address user) public override returns (bool) {\n        return powerOf(collateral, user) >= totalDebtDai(collateral, user);\n    }\n\n    /// @dev Takes collateral _token from `from` address, and credits it to `to` collateral account.\n    // from --- Token ---> us(to)\n    function post(bytes32 collateral, address from, address to, uint256 amount)\n        public override \n        validCollateral(collateral)\n        onlyLive\n    {\n        require(\n            _token[collateral].transferFrom(from, address(_treasury), amount),\n            \"Dealer: Collateral transfer fail\"\n        );\n\n        if (collateral == WETH){ // TODO: Refactor Treasury to be `push(collateral, amount)`\n            _treasury.pushWeth();\n        } else if (collateral == CHAI) {\n            _treasury.pushChai();\n        }\n        \n        if (posted[collateral][to] == 0 && amount >= 0) {\n            lockBond(10);\n        }\n        posted[collateral][to] = posted[collateral][to].add(amount);\n        systemPosted[collateral] = systemPosted[collateral].add(amount);\n        emit Posted(collateral, to, int256(amount)); // TODO: Watch for overflow\n    }\n\n    /// @dev Returns collateral to `to` address, taking it from `from` collateral account.\n    // us(from) --- Token ---> to\n    function withdraw(bytes32 collateral, address from, address to, uint256 amount)\n        public override\n        validCollateral(collateral)\n        onlyHolderOrDelegate(from, \"Dealer: Only Holder Or Delegate\")\n        onlyLive\n    {\n        posted[collateral][from] = posted[collateral][from].sub(amount); // Will revert if not enough posted\n        systemPosted[collateral] = systemPosted[collateral].sub(amount);\n\n        require(\n            isCollateralized(collateral, from),\n            \"Dealer: Too much debt\"\n        );\n\n        if (collateral == WETH){ // TODO: Refactor Treasury to be `pull(collateral, amount)`\n            _treasury.pullWeth(to, amount);\n        } else if (collateral == CHAI) {\n            _treasury.pullChai(to, amount);\n        }\n\n        if (posted[collateral][from] == 0 && amount >= 0) {\n            returnBond(10);\n        }\n        emit Posted(collateral, from, -int256(amount)); // TODO: Watch for overflow\n    }\n\n    /// @dev Mint yDai for a given series for address `to` by locking its market value in collateral, user debt is increased in the given collateral.\n    //\n    // posted[user](wad) >= (debtYDai[user](wad)) * amount (wad)) * collateralization (ray)\n    //\n    // us --- yDai ---> user\n    // debt++\n    function borrow(bytes32 collateral, uint256 maturity, address to, uint256 yDaiAmount)\n        public\n        validCollateral(collateral)\n        validSeries(maturity)\n        onlyHolderOrDelegate(to, \"Dealer: Only Holder Or Delegate\")\n        onlyLive\n    {\n        require(\n            series[maturity].isMature() != true,\n            \"Dealer: No mature borrow\"\n        );\n\n        if (debtYDai[collateral][maturity][to] == 0 && yDaiAmount >= 0) {\n            lockBond(10);\n        }\n        debtYDai[collateral][maturity][to] = debtYDai[collateral][maturity][to].add(yDaiAmount);\n        systemDebtYDai[collateral][maturity] = systemDebtYDai[collateral][maturity].add(yDaiAmount);\n\n        require(\n            isCollateralized(collateral, to),\n            \"Dealer: Too much debt\"\n        );\n        series[maturity].mint(to, yDaiAmount);\n        emit Borrowed(collateral, maturity, to, int256(yDaiAmount)); // TODO: Watch for overflow\n    }\n\n    /// @dev Burns yDai of a given series from `from` address, user debt is decreased for the given collateral and yDai series.\n    //                                                  debt_nominal\n    // debt_discounted = debt_nominal - repay_amount * ---------------\n    //                                                  debt_now\n    //\n    // user --- yDai ---> us\n    // debt--\n    function repayYDai(bytes32 collateral, uint256 maturity, address from, uint256 yDaiAmount)\n        public\n        validCollateral(collateral)\n        validSeries(maturity)\n        onlyLive\n    {\n        uint256 toRepay = Math.min(yDaiAmount, debtYDai[collateral][maturity][from]);\n        series[maturity].burn(from, toRepay);\n        _repay(collateral, maturity, from, toRepay);\n    }\n\n    /// @dev Takes dai from `from` address, user debt is decreased for the given collateral and yDai series.\n    //                                                  debt_nominal\n    // debt_discounted = debt_nominal - repay_amount * ---------------\n    //                                                  debt_now\n    //\n    // user --- dai ---> us\n    // debt--\n    function repayDai(bytes32 collateral, uint256 maturity, address from, uint256 daiAmount)\n        public\n        validCollateral(collateral)\n        validSeries(maturity)\n        onlyLive\n    {\n        uint256 toRepay = Math.min(daiAmount, debtDai(collateral, maturity, from));\n        require(\n            _dai.transferFrom(from, address(_treasury), toRepay),  // Take dai from user to Treasury\n            \"Dealer: Dai transfer fail\"\n        );\n        _treasury.pushDai();                                      // Have Treasury process the dai\n        _repay(collateral, maturity, from, inYDai(collateral, maturity, toRepay));\n    }\n\n    /// @dev Removes an amount of debt from an user's vault. If interest was accrued debt is only paid proportionally.\n    //\n    //                                                principal\n    // principal_repayment = gross_repayment * ----------------------\n    //                                          principal + interest\n    //    \n    function _repay(bytes32 collateral, uint256 maturity, address from, uint256 yDaiAmount) internal {\n        // `inDai` calculates the interest accrued for a given amount and series\n\n        debtYDai[collateral][maturity][from] = debtYDai[collateral][maturity][from].sub(yDaiAmount);\n        systemDebtYDai[collateral][maturity] = systemDebtYDai[collateral][maturity].sub(yDaiAmount);\n        if (debtYDai[collateral][maturity][from] == 0 && yDaiAmount >= 0) {\n            returnBond(10);\n        }\n        emit Borrowed(collateral, maturity, from, -int256(yDaiAmount)); // TODO: Watch for overflow\n    }\n\n    /// @dev Removes collateral and debt for an user.\n    function grab(bytes32 collateral, address user, uint256 daiAmount, uint256 tokenAmount)\n        public override\n        validCollateral(collateral)\n        onlyOrchestrated(\"Dealer: Not Authorized\")\n    {\n\n        posted[collateral][user] = posted[collateral][user].sub(\n            tokenAmount,\n            \"Dealer: Not enough collateral\"\n        );\n        systemPosted[collateral] = systemPosted[collateral].sub(tokenAmount);\n        if (posted[collateral][user] == 0){\n            returnBond(10);\n        }\n\n        uint256 totalGrabbed;\n        for (uint256 i = 0; i < seriesIterator.length; i += 1) {\n            uint256 maturity = seriesIterator[i];\n            uint256 thisGrab = Math.min(debtDai(collateral, maturity, user), daiAmount.sub(totalGrabbed));\n            totalGrabbed = totalGrabbed.add(thisGrab); // SafeMath shouldn't be needed\n            debtYDai[collateral][maturity][user] =\n                debtYDai[collateral][maturity][user].sub(inYDai(collateral, maturity, thisGrab)); // SafeMath shouldn't be needed\n            systemDebtYDai[collateral][maturity] =\n                systemDebtYDai[collateral][maturity].sub(inYDai(collateral, maturity, thisGrab)); // SafeMath shouldn't be needed\n            if (debtYDai[collateral][maturity][user] == 0){\n                returnBond(10);\n            }\n            if (totalGrabbed == daiAmount) break;\n        } // We don't expect hundreds of maturities per dealer\n        require(\n            totalGrabbed == daiAmount,\n            \"Dealer: Not enough user debt\"\n        );\n    }\n\n    /// @dev Locks a liquidation bond in gas tokens\n    function lockBond(uint256 value) internal {\n        if (!_gasToken.transferFrom(msg.sender, address(this), value)) {\n            _gasToken.mint(value);\n        }\n    }\n\n    /// @dev Frees a liquidation bond in gas tokens\n    function returnBond(uint256 value) internal {\n        _gasToken.transfer(msg.sender, value);\n    }\n}",
  "sourcePath": "/Users/bruce/dev/yieldprotocol/ytoken-mvp/contracts/Dealer.sol",
  "compiler": {
    "name": "solc",
    "version": "0.6.2+commit.bacdbe57.Emscripten.clang"
  },
  "schemaVersion": "3.0.23",
  "updatedAt": "2020-07-04T11:00:16.628Z",
  "networkType": "ethereum",
  "devdoc": {
    "details": "A dealer takes collateral and issues yDai.",
    "methods": {
      "addDelegate(address)": {
        "details": "Enable a delegate to act on the behalf of caller"
      },
      "addSeries(address)": {
        "details": "Adds an yDai series to this Dealer"
      },
      "borrow(bytes32,uint256,address,uint256)": {
        "details": "Mint yDai for a given series for address `to` by locking its market value in collateral, user debt is increased in the given collateral."
      },
      "containsSeries(uint256)": {
        "details": "Returns if a series has been added to the Dealer, for a given series identified by maturity"
      },
      "debtDai(bytes32,uint256,address)": {
        "details": "Return debt in dai of an user, for a given collateral and series identified by maturity"
      },
      "grab(bytes32,address,uint256,uint256)": {
        "details": "Removes collateral and debt for an user."
      },
      "inDai(bytes32,uint256,uint256)": {
        "details": "Returns the dai equivalent of an yDai amount, for a given series identified by maturity"
      },
      "inYDai(bytes32,uint256,uint256)": {
        "details": "Returns the yDai equivalent of a dai amount, for a given series identified by maturity"
      },
      "isCollateralized(bytes32,address)": {
        "details": "Return if the borrowing power for a given collateral of an user is equal or greater than its debt for the same collateral"
      },
      "orchestrate(address)": {
        "details": "Add user to the authorized users list"
      },
      "owner()": {
        "details": "Returns the address of the current owner."
      },
      "post(bytes32,address,address,uint256)": {
        "details": "Takes collateral _token from `from` address, and credits it to `to` collateral account."
      },
      "powerOf(bytes32,address)": {
        "details": "Maximum borrowing power of an user in dai for a given collateral"
      },
      "renounceOwnership()": {
        "details": "Leaves the contract without owner. It will not be possible to call `onlyOwner` functions anymore. Can only be called by the current owner.     * NOTE: Renouncing ownership will leave the contract without an owner, thereby removing any functionality that is only available to the owner."
      },
      "repayDai(bytes32,uint256,address,uint256)": {
        "details": "Takes dai from `from` address, user debt is decreased for the given collateral and yDai series."
      },
      "repayYDai(bytes32,uint256,address,uint256)": {
        "details": "Burns yDai of a given series from `from` address, user debt is decreased for the given collateral and yDai series."
      },
      "revokeDelegate(address)": {
        "details": "Stop a delegate from acting on the behalf of caller"
      },
      "shutdown()": {
        "details": "Disables post, withdraw, borrow and repay. To be called only when Treasury shuts down."
      },
      "totalDebtDai(bytes32,address)": {
        "details": "Returns the total debt of an user, for a given collateral, across all series, in Dai"
      },
      "transferOwnership(address)": {
        "details": "Transfers ownership of the contract to a new account (`newOwner`). Can only be called by the current owner."
      },
      "withdraw(bytes32,address,address,uint256)": {
        "details": "Returns collateral to `to` address, taking it from `from` collateral account."
      }
    }
  },
  "userdoc": {
    "methods": {}
  }
}