{
  "contractName": "Dealer",
  "abi": [
    {
      "inputs": [
        {
          "internalType": "address",
          "name": "treasury_",
          "type": "address"
        },
        {
          "internalType": "address",
          "name": "dai_",
          "type": "address"
        },
        {
          "internalType": "address",
          "name": "weth_",
          "type": "address"
        },
        {
          "internalType": "address",
          "name": "wethOracle_",
          "type": "address"
        },
        {
          "internalType": "address",
          "name": "chai_",
          "type": "address"
        },
        {
          "internalType": "address",
          "name": "chaiOracle_",
          "type": "address"
        },
        {
          "internalType": "address",
          "name": "gasToken_",
          "type": "address"
        }
      ],
      "stateMutability": "nonpayable",
      "type": "constructor"
    },
    {
      "anonymous": false,
      "inputs": [
        {
          "indexed": true,
          "internalType": "address",
          "name": "user",
          "type": "address"
        },
        {
          "indexed": true,
          "internalType": "bytes32",
          "name": "collateral",
          "type": "bytes32"
        },
        {
          "indexed": false,
          "internalType": "uint256",
          "name": "tokens",
          "type": "uint256"
        },
        {
          "indexed": false,
          "internalType": "uint256",
          "name": "debt",
          "type": "uint256"
        }
      ],
      "name": "Erased",
      "type": "event"
    },
    {
      "anonymous": false,
      "inputs": [
        {
          "indexed": false,
          "internalType": "address",
          "name": "user",
          "type": "address"
        }
      ],
      "name": "GrantedAccess",
      "type": "event"
    },
    {
      "anonymous": false,
      "inputs": [
        {
          "indexed": true,
          "internalType": "address",
          "name": "previousOwner",
          "type": "address"
        },
        {
          "indexed": true,
          "internalType": "address",
          "name": "newOwner",
          "type": "address"
        }
      ],
      "name": "OwnershipTransferred",
      "type": "event"
    },
    {
      "anonymous": false,
      "inputs": [
        {
          "indexed": true,
          "internalType": "address",
          "name": "user",
          "type": "address"
        },
        {
          "indexed": true,
          "internalType": "address",
          "name": "proxy",
          "type": "address"
        },
        {
          "indexed": false,
          "internalType": "bool",
          "name": "enabled",
          "type": "bool"
        }
      ],
      "name": "Proxy",
      "type": "event"
    },
    {
      "anonymous": false,
      "inputs": [
        {
          "indexed": false,
          "internalType": "address",
          "name": "user",
          "type": "address"
        }
      ],
      "name": "RevokedAccess",
      "type": "event"
    },
    {
      "inputs": [],
      "name": "CHAI",
      "outputs": [
        {
          "internalType": "bytes32",
          "name": "",
          "type": "bytes32"
        }
      ],
      "stateMutability": "view",
      "type": "function",
      "constant": true
    },
    {
      "inputs": [],
      "name": "RAD",
      "outputs": [
        {
          "internalType": "uint8",
          "name": "",
          "type": "uint8"
        }
      ],
      "stateMutability": "view",
      "type": "function",
      "constant": true
    },
    {
      "inputs": [],
      "name": "RAY",
      "outputs": [
        {
          "internalType": "uint8",
          "name": "",
          "type": "uint8"
        }
      ],
      "stateMutability": "view",
      "type": "function",
      "constant": true
    },
    {
      "inputs": [],
      "name": "WAD",
      "outputs": [
        {
          "internalType": "uint8",
          "name": "",
          "type": "uint8"
        }
      ],
      "stateMutability": "view",
      "type": "function",
      "constant": true
    },
    {
      "inputs": [],
      "name": "WETH",
      "outputs": [
        {
          "internalType": "bytes32",
          "name": "",
          "type": "bytes32"
        }
      ],
      "stateMutability": "view",
      "type": "function",
      "constant": true
    },
    {
      "inputs": [
        {
          "internalType": "address",
          "name": "proxy",
          "type": "address"
        }
      ],
      "name": "addProxy",
      "outputs": [],
      "stateMutability": "nonpayable",
      "type": "function"
    },
    {
      "inputs": [
        {
          "internalType": "bytes32",
          "name": "",
          "type": "bytes32"
        },
        {
          "internalType": "uint256",
          "name": "",
          "type": "uint256"
        },
        {
          "internalType": "address",
          "name": "",
          "type": "address"
        }
      ],
      "name": "debtYDai",
      "outputs": [
        {
          "internalType": "uint256",
          "name": "",
          "type": "uint256"
        }
      ],
      "stateMutability": "view",
      "type": "function",
      "constant": true
    },
    {
      "inputs": [
        {
          "internalType": "address",
          "name": "user",
          "type": "address"
        }
      ],
      "name": "grantAccess",
      "outputs": [],
      "stateMutability": "nonpayable",
      "type": "function"
    },
    {
      "inputs": [],
      "name": "live",
      "outputs": [
        {
          "internalType": "bool",
          "name": "",
          "type": "bool"
        }
      ],
      "stateMutability": "view",
      "type": "function",
      "constant": true
    },
    {
      "inputs": [],
      "name": "owner",
      "outputs": [
        {
          "internalType": "address",
          "name": "",
          "type": "address"
        }
      ],
      "stateMutability": "view",
      "type": "function",
      "constant": true
    },
    {
      "inputs": [
        {
          "internalType": "bytes32",
          "name": "",
          "type": "bytes32"
        },
        {
          "internalType": "address",
          "name": "",
          "type": "address"
        }
      ],
      "name": "posted",
      "outputs": [
        {
          "internalType": "uint256",
          "name": "",
          "type": "uint256"
        }
      ],
      "stateMutability": "view",
      "type": "function",
      "constant": true
    },
    {
      "inputs": [],
      "name": "renounceOwnership",
      "outputs": [],
      "stateMutability": "nonpayable",
      "type": "function"
    },
    {
      "inputs": [
        {
          "internalType": "address",
          "name": "user",
          "type": "address"
        }
      ],
      "name": "revokeAccess",
      "outputs": [],
      "stateMutability": "nonpayable",
      "type": "function"
    },
    {
      "inputs": [
        {
          "internalType": "address",
          "name": "proxy",
          "type": "address"
        }
      ],
      "name": "revokeProxy",
      "outputs": [],
      "stateMutability": "nonpayable",
      "type": "function"
    },
    {
      "inputs": [
        {
          "internalType": "uint256",
          "name": "",
          "type": "uint256"
        }
      ],
      "name": "series",
      "outputs": [
        {
          "internalType": "contract IYDai",
          "name": "",
          "type": "address"
        }
      ],
      "stateMutability": "view",
      "type": "function",
      "constant": true
    },
    {
      "inputs": [
        {
          "internalType": "address",
          "name": "newOwner",
          "type": "address"
        }
      ],
      "name": "transferOwnership",
      "outputs": [],
      "stateMutability": "nonpayable",
      "type": "function"
    },
    {
      "inputs": [],
      "name": "shutdown",
      "outputs": [],
      "stateMutability": "nonpayable",
      "type": "function"
    },
    {
      "inputs": [
        {
          "internalType": "uint256",
          "name": "maturity",
          "type": "uint256"
        }
      ],
      "name": "containsSeries",
      "outputs": [
        {
          "internalType": "bool",
          "name": "",
          "type": "bool"
        }
      ],
      "stateMutability": "view",
      "type": "function",
      "constant": true
    },
    {
      "inputs": [
        {
          "internalType": "address",
          "name": "yDaiContract",
          "type": "address"
        }
      ],
      "name": "addSeries",
      "outputs": [],
      "stateMutability": "nonpayable",
      "type": "function"
    },
    {
      "inputs": [],
      "name": "systemDebt",
      "outputs": [
        {
          "internalType": "uint256",
          "name": "",
          "type": "uint256"
        }
      ],
      "stateMutability": "nonpayable",
      "type": "function"
    },
    {
      "inputs": [
        {
          "internalType": "uint256",
          "name": "maturity",
          "type": "uint256"
        },
        {
          "internalType": "uint256",
          "name": "yDaiAmount",
          "type": "uint256"
        }
      ],
      "name": "inDai",
      "outputs": [
        {
          "internalType": "uint256",
          "name": "",
          "type": "uint256"
        }
      ],
      "stateMutability": "nonpayable",
      "type": "function"
    },
    {
      "inputs": [
        {
          "internalType": "uint256",
          "name": "maturity",
          "type": "uint256"
        },
        {
          "internalType": "uint256",
          "name": "daiAmount",
          "type": "uint256"
        }
      ],
      "name": "inYDai",
      "outputs": [
        {
          "internalType": "uint256",
          "name": "",
          "type": "uint256"
        }
      ],
      "stateMutability": "nonpayable",
      "type": "function"
    },
    {
      "inputs": [
        {
          "internalType": "bytes32",
          "name": "collateral",
          "type": "bytes32"
        },
        {
          "internalType": "uint256",
          "name": "maturity",
          "type": "uint256"
        },
        {
          "internalType": "address",
          "name": "user",
          "type": "address"
        }
      ],
      "name": "debtDai",
      "outputs": [
        {
          "internalType": "uint256",
          "name": "",
          "type": "uint256"
        }
      ],
      "stateMutability": "nonpayable",
      "type": "function"
    },
    {
      "inputs": [
        {
          "internalType": "bytes32",
          "name": "collateral",
          "type": "bytes32"
        },
        {
          "internalType": "address",
          "name": "user",
          "type": "address"
        }
      ],
      "name": "totalDebtDai",
      "outputs": [
        {
          "internalType": "uint256",
          "name": "",
          "type": "uint256"
        }
      ],
      "stateMutability": "nonpayable",
      "type": "function"
    },
    {
      "inputs": [
        {
          "internalType": "bytes32",
          "name": "collateral",
          "type": "bytes32"
        },
        {
          "internalType": "address",
          "name": "user",
          "type": "address"
        }
      ],
      "name": "totalDebtYDai",
      "outputs": [
        {
          "internalType": "uint256",
          "name": "",
          "type": "uint256"
        }
      ],
      "stateMutability": "view",
      "type": "function",
      "constant": true
    },
    {
      "inputs": [
        {
          "internalType": "bytes32",
          "name": "collateral",
          "type": "bytes32"
        },
        {
          "internalType": "address",
          "name": "user",
          "type": "address"
        }
      ],
      "name": "powerOf",
      "outputs": [
        {
          "internalType": "uint256",
          "name": "",
          "type": "uint256"
        }
      ],
      "stateMutability": "nonpayable",
      "type": "function"
    },
    {
      "inputs": [
        {
          "internalType": "bytes32",
          "name": "collateral",
          "type": "bytes32"
        },
        {
          "internalType": "address",
          "name": "user",
          "type": "address"
        }
      ],
      "name": "isCollateralized",
      "outputs": [
        {
          "internalType": "bool",
          "name": "",
          "type": "bool"
        }
      ],
      "stateMutability": "nonpayable",
      "type": "function"
    },
    {
      "inputs": [
        {
          "internalType": "bytes32",
          "name": "collateral",
          "type": "bytes32"
        },
        {
          "internalType": "address",
          "name": "from",
          "type": "address"
        },
        {
          "internalType": "address",
          "name": "to",
          "type": "address"
        },
        {
          "internalType": "uint256",
          "name": "amount",
          "type": "uint256"
        }
      ],
      "name": "post",
      "outputs": [],
      "stateMutability": "nonpayable",
      "type": "function"
    },
    {
      "inputs": [
        {
          "internalType": "bytes32",
          "name": "collateral",
          "type": "bytes32"
        },
        {
          "internalType": "address",
          "name": "from",
          "type": "address"
        },
        {
          "internalType": "address",
          "name": "to",
          "type": "address"
        },
        {
          "internalType": "uint256",
          "name": "amount",
          "type": "uint256"
        }
      ],
      "name": "withdraw",
      "outputs": [],
      "stateMutability": "nonpayable",
      "type": "function"
    },
    {
      "inputs": [
        {
          "internalType": "bytes32",
          "name": "collateral",
          "type": "bytes32"
        },
        {
          "internalType": "uint256",
          "name": "maturity",
          "type": "uint256"
        },
        {
          "internalType": "address",
          "name": "to",
          "type": "address"
        },
        {
          "internalType": "uint256",
          "name": "yDaiAmount",
          "type": "uint256"
        }
      ],
      "name": "borrow",
      "outputs": [],
      "stateMutability": "nonpayable",
      "type": "function"
    },
    {
      "inputs": [
        {
          "internalType": "bytes32",
          "name": "collateral",
          "type": "bytes32"
        },
        {
          "internalType": "uint256",
          "name": "maturity",
          "type": "uint256"
        },
        {
          "internalType": "address",
          "name": "from",
          "type": "address"
        },
        {
          "internalType": "uint256",
          "name": "yDaiAmount",
          "type": "uint256"
        }
      ],
      "name": "repayYDai",
      "outputs": [],
      "stateMutability": "nonpayable",
      "type": "function"
    },
    {
      "inputs": [
        {
          "internalType": "bytes32",
          "name": "collateral",
          "type": "bytes32"
        },
        {
          "internalType": "uint256",
          "name": "maturity",
          "type": "uint256"
        },
        {
          "internalType": "address",
          "name": "from",
          "type": "address"
        },
        {
          "internalType": "uint256",
          "name": "daiAmount",
          "type": "uint256"
        }
      ],
      "name": "repayDai",
      "outputs": [],
      "stateMutability": "nonpayable",
      "type": "function"
    },
    {
      "inputs": [
        {
          "internalType": "bytes32",
          "name": "collateral",
          "type": "bytes32"
        },
        {
          "internalType": "address",
          "name": "user",
          "type": "address"
        }
      ],
      "name": "erase",
      "outputs": [
        {
          "internalType": "uint256",
          "name": "",
          "type": "uint256"
        },
        {
          "internalType": "uint256",
          "name": "",
          "type": "uint256"
        }
      ],
      "stateMutability": "nonpayable",
      "type": "function"
    },
    {
      "inputs": [
        {
          "internalType": "bytes32",
          "name": "collateral",
          "type": "bytes32"
        },
        {
          "internalType": "address",
          "name": "user",
          "type": "address"
        },
        {
          "internalType": "uint256",
          "name": "daiAmount",
          "type": "uint256"
        },
        {
          "internalType": "uint256",
          "name": "tokenAmount",
          "type": "uint256"
        }
      ],
      "name": "grab",
      "outputs": [],
      "stateMutability": "nonpayable",
      "type": "function"
    }
  ],
  "bytecode": "0x60806040526001600c60006101000a81548160ff0219169083151502179055503480156200002c57600080fd5b506040516200549d3803806200549d833981810160405260e08110156200005257600080fd5b81019080805190602001909291908051906020019092919080519060200190929190805190602001909291908051906020019092919080519060200190929190805190602001909291905050506000620000b1620003e760201b60201c565b9050806000806101000a81548173ffffffffffffffffffffffffffffffffffffffff021916908373ffffffffffffffffffffffffffffffffffffffff1602179055508073ffffffffffffffffffffffffffffffffffffffff16600073ffffffffffffffffffffffffffffffffffffffff167f8be0079c531659141344cd1fd0a4f28419497f9722a3daafe3b4186f6b6457e060405160405180910390a35086600360006101000a81548173ffffffffffffffffffffffffffffffffffffffff021916908373ffffffffffffffffffffffffffffffffffffffff16021790555085600460006101000a81548173ffffffffffffffffffffffffffffffffffffffff021916908373ffffffffffffffffffffffffffffffffffffffff16021790555084600660007f5745544800000000000000000000000000000000000000000000000000000000815260200190815260200160002060006101000a81548173ffffffffffffffffffffffffffffffffffffffff021916908373ffffffffffffffffffffffffffffffffffffffff16021790555083600760007f5745544800000000000000000000000000000000000000000000000000000000815260200190815260200160002060006101000a81548173ffffffffffffffffffffffffffffffffffffffff021916908373ffffffffffffffffffffffffffffffffffffffff16021790555082600660007f4348414900000000000000000000000000000000000000000000000000000000815260200190815260200160002060006101000a81548173ffffffffffffffffffffffffffffffffffffffff021916908373ffffffffffffffffffffffffffffffffffffffff16021790555081600760007f4348414900000000000000000000000000000000000000000000000000000000815260200190815260200160002060006101000a81548173ffffffffffffffffffffffffffffffffffffffff021916908373ffffffffffffffffffffffffffffffffffffffff16021790555080600560006101000a81548173ffffffffffffffffffffffffffffffffffffffff021916908373ffffffffffffffffffffffffffffffffffffffff16021790555050505050505050620003ef565b600033905090565b61509e80620003ff6000396000f3fe608060405234801561001057600080fd5b50600436106102065760003560e01c80638e0cc1761161011a578063c5ec0c17116100ad578063dd62f4231161007c578063dd62f42314610a68578063e68b7cf414610aca578063f2fde38b14610b2c578063f51a391a14610b70578063fc0e74d114610bd257610206565b8063c5ec0c1714610904578063c890522514610970578063d0a3a7e4146109b4578063dc22cb6a146109fa57610206565b8063ad5c4648116100e9578063ad5c4648146107ee578063adb9e54e1461080c578063b6dbf9ce14610884578063c06331dc146108a257610206565b80638e0cc176146106ca578063957aa58c1461074257806398cdae5a14610764578063a3429580146107d057610206565b8063552033c41161019d578063715018a61161016c578063715018a6146105885780637ad29f40146105925780637c43a201146105f857806385e685311461063c5780638da5cb5b1461068057610206565b8063552033c41461047c5780636a146024146104a05780636eb35aba146104c4578063708520421461052657610206565b80630d4c43be116101d95780630d4c43be1461032157806312563b761461038a578063167b055b146103d657806323b11d8d1461043857610206565b80630302aeb01461020b57806306f405fd1461026d5780630ae5e739146102915780630bc3bf28146102d5575b600080fd5b61026b6004803603608081101561022157600080fd5b810190808035906020019092919080359060200190929190803573ffffffffffffffffffffffffffffffffffffffff16906020019092919080359060200190929190505050610bdc565b005b6102756110ac565b604051808260ff1660ff16815260200191505060405180910390f35b6102d3600480360360208110156102a757600080fd5b81019080803573ffffffffffffffffffffffffffffffffffffffff1690602001909291905050506110b1565b005b61030b600480360360408110156102eb57600080fd5b810190808035906020019092919080359060200190929190505050611237565b6040518082815260200191505060405180910390f35b61036d6004803603604081101561033757600080fd5b8101908080359060200190929190803573ffffffffffffffffffffffffffffffffffffffff169060200190929190505050611449565b604051808381526020018281526020019250505060405180910390f35b6103c0600480360360408110156103a057600080fd5b81019080803590602001909291908035906020019092919050505061175e565b6040518082815260200191505060405180910390f35b610422600480360360408110156103ec57600080fd5b8101908080359060200190929190803573ffffffffffffffffffffffffffffffffffffffff169060200190929190505050611970565b6040518082815260200191505060405180910390f35b61047a6004803603602081101561044e57600080fd5b81019080803573ffffffffffffffffffffffffffffffffffffffff169060200190929190505050611a19565b005b610484611b1b565b604051808260ff1660ff16815260200191505060405180910390f35b6104a8611b20565b604051808260ff1660ff16815260200191505060405180910390f35b610524600480360360808110156104da57600080fd5b810190808035906020019092919080359060200190929190803573ffffffffffffffffffffffffffffffffffffffff16906020019092919080359060200190929190505050611b25565b005b6105866004803603608081101561053c57600080fd5b810190808035906020019092919080359060200190929190803573ffffffffffffffffffffffffffffffffffffffff169060200190929190803590602001909291905050506120df565b005b610590612744565b005b6105de600480360360408110156105a857600080fd5b8101908080359060200190929190803573ffffffffffffffffffffffffffffffffffffffff1690602001909291905050506128cc565b604051808215151515815260200191505060405180910390f35b61063a6004803603602081101561060e57600080fd5b81019080803573ffffffffffffffffffffffffffffffffffffffff1690602001909291905050506128ec565b005b61067e6004803603602081101561065257600080fd5b81019080803573ffffffffffffffffffffffffffffffffffffffff169060200190929190505050612b35565b005b610688612cbc565b604051808273ffffffffffffffffffffffffffffffffffffffff1673ffffffffffffffffffffffffffffffffffffffff16815260200191505060405180910390f35b610740600480360360808110156106e057600080fd5b8101908080359060200190929190803573ffffffffffffffffffffffffffffffffffffffff169060200190929190803573ffffffffffffffffffffffffffffffffffffffff16906020019092919080359060200190929190505050612ce5565b005b61074a6132e7565b604051808215151515815260200191505060405180910390f35b6107ba6004803603606081101561077a57600080fd5b810190808035906020019092919080359060200190929190803573ffffffffffffffffffffffffffffffffffffffff1690602001909291905050506132fa565b6040518082815260200191505060405180910390f35b6107d861332c565b6040518082815260200191505060405180910390f35b6107f66134c1565b6040518082815260200191505060405180910390f35b6108826004803603608081101561082257600080fd5b8101908080359060200190929190803573ffffffffffffffffffffffffffffffffffffffff169060200190929190803573ffffffffffffffffffffffffffffffffffffffff169060200190929190803590602001909291905050506134e5565b005b61088c613baa565b6040518082815260200191505060405180910390f35b6108ee600480360360408110156108b857600080fd5b8101908080359060200190929190803573ffffffffffffffffffffffffffffffffffffffff169060200190929190505050613bce565b6040518082815260200191505060405180910390f35b61095a6004803603606081101561091a57600080fd5b810190808035906020019092919080359060200190929190803573ffffffffffffffffffffffffffffffffffffffff169060200190929190505050613cf3565b6040518082815260200191505060405180910390f35b6109b26004803603602081101561098657600080fd5b81019080803573ffffffffffffffffffffffffffffffffffffffff169060200190929190505050613d69565b005b6109e0600480360360208110156109ca57600080fd5b8101908080359060200190929190505050613e6b565b604051808215151515815260200191505060405180910390f35b610a2660048036036020811015610a1057600080fd5b8101908080359060200190929190505050613ed7565b604051808273ffffffffffffffffffffffffffffffffffffffff1673ffffffffffffffffffffffffffffffffffffffff16815260200191505060405180910390f35b610ab460048036036040811015610a7e57600080fd5b8101908080359060200190929190803573ffffffffffffffffffffffffffffffffffffffff169060200190929190505050613f0a565b6040518082815260200191505060405180910390f35b610b1660048036036040811015610ae057600080fd5b8101908080359060200190929190803573ffffffffffffffffffffffffffffffffffffffff169060200190929190505050613f2f565b6040518082815260200191505060405180910390f35b610b6e60048036036020811015610b4257600080fd5b81019080803573ffffffffffffffffffffffffffffffffffffffff169060200190929190505050613f81565b005b610bd060048036036080811015610b8657600080fd5b8101908080359060200190929190803573ffffffffffffffffffffffffffffffffffffffff169060200190929190803590602001909291908035906020019092919050505061418e565b005b610bda61466c565b005b816040518060400160405280601c81526020017f4465616c65723a204f6e6c7920486f6c646572204f722050726f7879000000008152508173ffffffffffffffffffffffffffffffffffffffff163373ffffffffffffffffffffffffffffffffffffffff161480610cd35750600260008373ffffffffffffffffffffffffffffffffffffffff1673ffffffffffffffffffffffffffffffffffffffff16815260200190815260200160002060003373ffffffffffffffffffffffffffffffffffffffff1673ffffffffffffffffffffffffffffffffffffffff16815260200190815260200160002060009054906101000a900460ff165b8190610d7a576040517f08c379a00000000000000000000000000000000000000000000000000000000081526004018080602001828103825283818151815260200191508051906020019080838360005b83811015610d3f578082015181840152602081019050610d24565b50505050905090810190601f168015610d6c5780820380516001836020036101000a031916815260200191505b509250505060405180910390fd5b5060011515600c60009054906101000a900460ff16151514610de7576040517f08c379a00000000000000000000000000000000000000000000000000000000081526004018080602001828103825260258152602001806150446025913960400191505060405180910390fd5b610df085613e6b565b610e62576040517f08c379a000000000000000000000000000000000000000000000000000000000815260040180806020018281038252601b8152602001807f4465616c65723a20556e7265636f676e697a656420736572696573000000000081525060200191505060405180910390fd5b600080610e71888888886147b5565b915091506008600088815260200190815260200160002060009054906101000a900473ffffffffffffffffffffffffffffffffffffffff1673ffffffffffffffffffffffffffffffffffffffff16639dc29fac87846040518363ffffffff1660e01b8152600401808373ffffffffffffffffffffffffffffffffffffffff1673ffffffffffffffffffffffffffffffffffffffff16815260200182815260200192505050600060405180830381600087803b158015610f2f57600080fd5b505af1158015610f43573d6000803e3d6000fd5b50505050610fbb81600b60008b815260200190815260200160002060008a815260200190815260200160002060008973ffffffffffffffffffffffffffffffffffffffff1673ffffffffffffffffffffffffffffffffffffffff168152602001908152602001600020546148ad90919063ffffffff16565b600b60008a8152602001908152602001600020600089815260200190815260200160002060008873ffffffffffffffffffffffffffffffffffffffff1673ffffffffffffffffffffffffffffffffffffffff168152602001908152602001600020819055506000600b60008a8152602001908152602001600020600089815260200190815260200160002060008873ffffffffffffffffffffffffffffffffffffffff1673ffffffffffffffffffffffffffffffffffffffff16815260200190815260200160002054148015611092575060008110155b156110a2576110a1600a6148f7565b5b5050505050505050565b602d81565b6110b96149df565b73ffffffffffffffffffffffffffffffffffffffff166000809054906101000a900473ffffffffffffffffffffffffffffffffffffffff1673ffffffffffffffffffffffffffffffffffffffff161461117a576040517f08c379a00000000000000000000000000000000000000000000000000000000081526004018080602001828103825260208152602001807f4f776e61626c653a2063616c6c6572206973206e6f7420746865206f776e657281525060200191505060405180910390fd5b60018060008373ffffffffffffffffffffffffffffffffffffffff1673ffffffffffffffffffffffffffffffffffffffff16815260200190815260200160002060006101000a81548160ff0219169083151502179055507f6a7c5f28ea564fafc8b079663a2a9b9d26fe735d97c97611484ce044f40a16e281604051808273ffffffffffffffffffffffffffffffffffffffff1673ffffffffffffffffffffffffffffffffffffffff16815260200191505060405180910390a150565b600061124283613e6b565b6112b4576040517f08c379a000000000000000000000000000000000000000000000000000000000815260040180806020018281038252601b8152602001807f4465616c65723a20556e7265636f676e697a656420736572696573000000000081525060200191505060405180910390fd5b6008600084815260200190815260200160002060009054906101000a900473ffffffffffffffffffffffffffffffffffffffff1673ffffffffffffffffffffffffffffffffffffffff1663ae4e7fdf6040518163ffffffff1660e01b815260040160206040518083038186803b15801561132d57600080fd5b505afa158015611341573d6000803e3d6000fd5b505050506040513d602081101561135757600080fd5b81019080805190602001909291905050501561143f576114386008600085815260200190815260200160002060009054906101000a900473ffffffffffffffffffffffffffffffffffffffff1673ffffffffffffffffffffffffffffffffffffffff1663abf1614b6040518163ffffffff1660e01b8152600401602060405180830381600087803b1580156113eb57600080fd5b505af11580156113ff573d6000803e3d6000fd5b505050506040513d602081101561141557600080fd5b8101908080519060200190929190505050601b846149e79092919063ffffffff16565b9050611443565b8190505b92915050565b6000806040518060400160405280601681526020017f4465616c65723a204e6f7420417574686f72697a656400000000000000000000815250600160003373ffffffffffffffffffffffffffffffffffffffff1673ffffffffffffffffffffffffffffffffffffffff16815260200190815260200160002060009054906101000a900460ff168190611576576040517f08c379a00000000000000000000000000000000000000000000000000000000081526004018080602001828103825283818151815260200191508051906020019080838360005b8381101561153b578082015181840152602081019050611520565b50505050905090810190601f1680156115685780820380516001836020036101000a031916815260200191505b509250505060405180910390fd5b50600080600090505b600980549050811015611639576115ae876009838154811061159d57fe5b906000526020600020015488613cf3565b82019150600b60008881526020019081526020016000206000600983815481106115d457fe5b9060005260206000200154815260200190815260200160002060008773ffffffffffffffffffffffffffffffffffffffff1673ffffffffffffffffffffffffffffffffffffffff1681526020019081526020016000206000905560018101905061157f565b506000600a600088815260200190815260200160002060008773ffffffffffffffffffffffffffffffffffffffff1673ffffffffffffffffffffffffffffffffffffffff168152602001908152602001600020549050600a600088815260200190815260200160002060008773ffffffffffffffffffffffffffffffffffffffff1673ffffffffffffffffffffffffffffffffffffffff168152602001908152602001600020600090556116f7600a600160098054905001026148f7565b868673ffffffffffffffffffffffffffffffffffffffff167f7c424ebcd7ecc303a458620da4a7c683cc8ffb72f02384e5c4ca1bdd4f65a5498385604051808381526020018281526020019250505060405180910390a38082945094505050509250929050565b600061176983613e6b565b6117db576040517f08c379a000000000000000000000000000000000000000000000000000000000815260040180806020018281038252601b8152602001807f4465616c65723a20556e7265636f676e697a656420736572696573000000000081525060200191505060405180910390fd5b6008600084815260200190815260200160002060009054906101000a900473ffffffffffffffffffffffffffffffffffffffff1673ffffffffffffffffffffffffffffffffffffffff1663ae4e7fdf6040518163ffffffff1660e01b815260040160206040518083038186803b15801561185457600080fd5b505afa158015611868573d6000803e3d6000fd5b505050506040513d602081101561187e57600080fd5b8101908080519060200190929190505050156119665761195f6008600085815260200190815260200160002060009054906101000a900473ffffffffffffffffffffffffffffffffffffffff1673ffffffffffffffffffffffffffffffffffffffff1663abf1614b6040518163ffffffff1660e01b8152600401602060405180830381600087803b15801561191257600080fd5b505af1158015611926573d6000803e3d6000fd5b505050506040513d602081101561193c57600080fd5b8101908080519060200190929190505050601b84614a1f9092919063ffffffff16565b905061196a565b8190505b92915050565b60008060008090505b600980549050811015611a0e57600b60008681526020019081526020016000206000600983815481106119a857fe5b9060005260206000200154815260200190815260200160002060008573ffffffffffffffffffffffffffffffffffffffff1673ffffffffffffffffffffffffffffffffffffffff1681526020019081526020016000205482019150600181019050611979565b508091505092915050565b6001600260003373ffffffffffffffffffffffffffffffffffffffff1673ffffffffffffffffffffffffffffffffffffffff16815260200190815260200160002060008373ffffffffffffffffffffffffffffffffffffffff1673ffffffffffffffffffffffffffffffffffffffff16815260200190815260200160002060006101000a81548160ff0219169083151502179055508073ffffffffffffffffffffffffffffffffffffffff163373ffffffffffffffffffffffffffffffffffffffff167fc36ad848097e7ffe295df9c20b29568928ae4fd30eff1557db5ebbcf127c9c766001604051808215151515815260200191505060405180910390a350565b601b81565b601281565b816040518060400160405280601c81526020017f4465616c65723a204f6e6c7920486f6c646572204f722050726f7879000000008152508173ffffffffffffffffffffffffffffffffffffffff163373ffffffffffffffffffffffffffffffffffffffff161480611c1c5750600260008373ffffffffffffffffffffffffffffffffffffffff1673ffffffffffffffffffffffffffffffffffffffff16815260200190815260200160002060003373ffffffffffffffffffffffffffffffffffffffff1673ffffffffffffffffffffffffffffffffffffffff16815260200190815260200160002060009054906101000a900460ff165b8190611cc3576040517f08c379a00000000000000000000000000000000000000000000000000000000081526004018080602001828103825283818151815260200191508051906020019080838360005b83811015611c88578082015181840152602081019050611c6d565b50505050905090810190601f168015611cb55780820380516001836020036101000a031916815260200191505b509250505060405180910390fd5b5060011515600c60009054906101000a900460ff16151514611d30576040517f08c379a00000000000000000000000000000000000000000000000000000000081526004018080602001828103825260258152602001806150446025913960400191505060405180910390fd5b600080611d48888888611d438b8a611237565b6147b5565b91509150600460009054906101000a900473ffffffffffffffffffffffffffffffffffffffff1673ffffffffffffffffffffffffffffffffffffffff166323b872dd87600360009054906101000a900473ffffffffffffffffffffffffffffffffffffffff16856040518463ffffffff1660e01b8152600401808473ffffffffffffffffffffffffffffffffffffffff1673ffffffffffffffffffffffffffffffffffffffff1681526020018373ffffffffffffffffffffffffffffffffffffffff1673ffffffffffffffffffffffffffffffffffffffff1681526020018281526020019350505050602060405180830381600087803b158015611e4b57600080fd5b505af1158015611e5f573d6000803e3d6000fd5b505050506040513d6020811015611e7557600080fd5b8101908080519060200190929190505050611ef8576040517f08c379a00000000000000000000000000000000000000000000000000000000081526004018080602001828103825260198152602001807f4465616c65723a20446169207472616e73666572206661696c0000000000000081525060200191505060405180910390fd5b600360009054906101000a900473ffffffffffffffffffffffffffffffffffffffff1673ffffffffffffffffffffffffffffffffffffffff1663adb987e36040518163ffffffff1660e01b8152600401600060405180830381600087803b158015611f6257600080fd5b505af1158015611f76573d6000803e3d6000fd5b50505050611fee81600b60008b815260200190815260200160002060008a815260200190815260200160002060008973ffffffffffffffffffffffffffffffffffffffff1673ffffffffffffffffffffffffffffffffffffffff168152602001908152602001600020546148ad90919063ffffffff16565b600b60008a8152602001908152602001600020600089815260200190815260200160002060008873ffffffffffffffffffffffffffffffffffffffff1673ffffffffffffffffffffffffffffffffffffffff168152602001908152602001600020819055506000600b60008a8152602001908152602001600020600089815260200190815260200160002060008873ffffffffffffffffffffffffffffffffffffffff1673ffffffffffffffffffffffffffffffffffffffff168152602001908152602001600020541480156120c5575060008110155b156120d5576120d4600a6148f7565b5b5050505050505050565b816040518060400160405280601c81526020017f4465616c65723a204f6e6c7920486f6c646572204f722050726f7879000000008152508173ffffffffffffffffffffffffffffffffffffffff163373ffffffffffffffffffffffffffffffffffffffff1614806121d65750600260008373ffffffffffffffffffffffffffffffffffffffff1673ffffffffffffffffffffffffffffffffffffffff16815260200190815260200160002060003373ffffffffffffffffffffffffffffffffffffffff1673ffffffffffffffffffffffffffffffffffffffff16815260200190815260200160002060009054906101000a900460ff165b819061227d576040517f08c379a00000000000000000000000000000000000000000000000000000000081526004018080602001828103825283818151815260200191508051906020019080838360005b83811015612242578082015181840152602081019050612227565b50505050905090810190601f16801561226f5780820380516001836020036101000a031916815260200191505b509250505060405180910390fd5b5060011515600c60009054906101000a900460ff161515146122ea576040517f08c379a00000000000000000000000000000000000000000000000000000000081526004018080602001828103825260258152602001806150446025913960400191505060405180910390fd5b6122f385613e6b565b612365576040517f08c379a000000000000000000000000000000000000000000000000000000000815260040180806020018281038252601b8152602001807f4465616c65723a20556e7265636f676e697a656420736572696573000000000081525060200191505060405180910390fd5b600115156008600087815260200190815260200160002060009054906101000a900473ffffffffffffffffffffffffffffffffffffffff1673ffffffffffffffffffffffffffffffffffffffff1663ae4e7fdf6040518163ffffffff1660e01b815260040160206040518083038186803b1580156123e257600080fd5b505afa1580156123f6573d6000803e3d6000fd5b505050506040513d602081101561240c57600080fd5b810190808051906020019092919050505015151415612493576040517f08c379a00000000000000000000000000000000000000000000000000000000081526004018080602001828103825260188152602001807f4465616c65723a204e6f206d617475726520626f72726f77000000000000000081525060200191505060405180910390fd5b6000600b6000888152602001908152602001600020600087815260200190815260200160002060008673ffffffffffffffffffffffffffffffffffffffff1673ffffffffffffffffffffffffffffffffffffffff16815260200190815260200160002054148015612505575060008310155b1561251557612514600a614a57565b5b61258983600b6000898152602001908152602001600020600088815260200190815260200160002060008773ffffffffffffffffffffffffffffffffffffffff1673ffffffffffffffffffffffffffffffffffffffff16815260200190815260200160002054614c0490919063ffffffff16565b600b6000888152602001908152602001600020600087815260200190815260200160002060008673ffffffffffffffffffffffffffffffffffffffff1673ffffffffffffffffffffffffffffffffffffffff168152602001908152602001600020819055506125f886856128cc565b61266a576040517f08c379a00000000000000000000000000000000000000000000000000000000081526004018080602001828103825260158152602001807f4465616c65723a20546f6f206d7563682064656274000000000000000000000081525060200191505060405180910390fd5b6008600086815260200190815260200160002060009054906101000a900473ffffffffffffffffffffffffffffffffffffffff1673ffffffffffffffffffffffffffffffffffffffff166340c10f1985856040518363ffffffff1660e01b8152600401808373ffffffffffffffffffffffffffffffffffffffff1673ffffffffffffffffffffffffffffffffffffffff16815260200182815260200192505050600060405180830381600087803b15801561272457600080fd5b505af1158015612738573d6000803e3d6000fd5b50505050505050505050565b61274c6149df565b73ffffffffffffffffffffffffffffffffffffffff166000809054906101000a900473ffffffffffffffffffffffffffffffffffffffff1673ffffffffffffffffffffffffffffffffffffffff161461280d576040517f08c379a00000000000000000000000000000000000000000000000000000000081526004018080602001828103825260208152602001807f4f776e61626c653a2063616c6c6572206973206e6f7420746865206f776e657281525060200191505060405180910390fd5b600073ffffffffffffffffffffffffffffffffffffffff166000809054906101000a900473ffffffffffffffffffffffffffffffffffffffff1673ffffffffffffffffffffffffffffffffffffffff167f8be0079c531659141344cd1fd0a4f28419497f9722a3daafe3b4186f6b6457e060405160405180910390a360008060006101000a81548173ffffffffffffffffffffffffffffffffffffffff021916908373ffffffffffffffffffffffffffffffffffffffff160217905550565b60006128d88383613f2f565b6128e28484613bce565b1015905092915050565b6128f46149df565b73ffffffffffffffffffffffffffffffffffffffff166000809054906101000a900473ffffffffffffffffffffffffffffffffffffffff1673ffffffffffffffffffffffffffffffffffffffff16146129b5576040517f08c379a00000000000000000000000000000000000000000000000000000000081526004018080602001828103825260208152602001807f4f776e61626c653a2063616c6c6572206973206e6f7420746865206f776e657281525060200191505060405180910390fd5b60008173ffffffffffffffffffffffffffffffffffffffff1663204f83f96040518163ffffffff1660e01b815260040160206040518083038186803b1580156129fd57600080fd5b505afa158015612a11573d6000803e3d6000fd5b505050506040513d6020811015612a2757600080fd5b81019080805190602001909291905050509050612a4381613e6b565b15612ab6576040517f08c379a000000000000000000000000000000000000000000000000000000000815260040180806020018281038252601c8152602001807f4465616c65723a2053657269657320616c72656164792061646465640000000081525060200191505060405180910390fd5b816008600083815260200190815260200160002060006101000a81548173ffffffffffffffffffffffffffffffffffffffff021916908373ffffffffffffffffffffffffffffffffffffffff16021790555060098190806001815401808255809150506001900390600052602060002001600090919091909150555050565b612b3d6149df565b73ffffffffffffffffffffffffffffffffffffffff166000809054906101000a900473ffffffffffffffffffffffffffffffffffffffff1673ffffffffffffffffffffffffffffffffffffffff1614612bfe576040517f08c379a00000000000000000000000000000000000000000000000000000000081526004018080602001828103825260208152602001807f4f776e61626c653a2063616c6c6572206973206e6f7420746865206f776e657281525060200191505060405180910390fd5b6000600160008373ffffffffffffffffffffffffffffffffffffffff1673ffffffffffffffffffffffffffffffffffffffff16815260200190815260200160002060006101000a81548160ff0219169083151502179055507fa3458b95c7eaa39f5f81c99d512823ec3e1372cd42b56f5239e15ac1752d55ad81604051808273ffffffffffffffffffffffffffffffffffffffff1673ffffffffffffffffffffffffffffffffffffffff16815260200191505060405180910390a150565b60008060009054906101000a900473ffffffffffffffffffffffffffffffffffffffff16905090565b826040518060400160405280601c81526020017f4465616c65723a204f6e6c7920486f6c646572204f722050726f7879000000008152508173ffffffffffffffffffffffffffffffffffffffff163373ffffffffffffffffffffffffffffffffffffffff161480612ddc5750600260008373ffffffffffffffffffffffffffffffffffffffff1673ffffffffffffffffffffffffffffffffffffffff16815260200190815260200160002060003373ffffffffffffffffffffffffffffffffffffffff1673ffffffffffffffffffffffffffffffffffffffff16815260200190815260200160002060009054906101000a900460ff165b8190612e83576040517f08c379a00000000000000000000000000000000000000000000000000000000081526004018080602001828103825283818151815260200191508051906020019080838360005b83811015612e48578082015181840152602081019050612e2d565b50505050905090810190601f168015612e755780820380516001836020036101000a031916815260200191505b509250505060405180910390fd5b5060011515600c60009054906101000a900460ff16151514612ef0576040517f08c379a00000000000000000000000000000000000000000000000000000000081526004018080602001828103825260258152602001806150446025913960400191505060405180910390fd5b612f5383600a600089815260200190815260200160002060008873ffffffffffffffffffffffffffffffffffffffff1673ffffffffffffffffffffffffffffffffffffffff168152602001908152602001600020546148ad90919063ffffffff16565b600a600088815260200190815260200160002060008773ffffffffffffffffffffffffffffffffffffffff1673ffffffffffffffffffffffffffffffffffffffff16815260200190815260200160002081905550612fb186866128cc565b613023576040517f08c379a00000000000000000000000000000000000000000000000000000000081526004018080602001828103825260158152602001807f4465616c65723a20546f6f206d7563682064656274000000000000000000000081525060200191505060405180910390fd5b7f574554480000000000000000000000000000000000000000000000000000000086141561311157600360009054906101000a900473ffffffffffffffffffffffffffffffffffffffff1673ffffffffffffffffffffffffffffffffffffffff16638ac96dfc85856040518363ffffffff1660e01b8152600401808373ffffffffffffffffffffffffffffffffffffffff1673ffffffffffffffffffffffffffffffffffffffff16815260200182815260200192505050600060405180830381600087803b1580156130f457600080fd5b505af1158015613108573d6000803e3d6000fd5b5050505061326e565b7f43484149000000000000000000000000000000000000000000000000000000008614156131ff57600360009054906101000a900473ffffffffffffffffffffffffffffffffffffffff1673ffffffffffffffffffffffffffffffffffffffff16639fa8368985856040518363ffffffff1660e01b8152600401808373ffffffffffffffffffffffffffffffffffffffff1673ffffffffffffffffffffffffffffffffffffffff16815260200182815260200192505050600060405180830381600087803b1580156131e257600080fd5b505af11580156131f6573d6000803e3d6000fd5b5050505061326d565b6040517f08c379a000000000000000000000000000000000000000000000000000000000815260040180806020018281038252601e8152602001807f4465616c65723a20556e737570706f7274656420636f6c6c61746572616c000081525060200191505060405180910390fd5b5b6000600a600088815260200190815260200160002060008773ffffffffffffffffffffffffffffffffffffffff1673ffffffffffffffffffffffffffffffffffffffff168152602001908152602001600020541480156132cf575060008310155b156132df576132de600a6148f7565b5b505050505050565b600c60009054906101000a900460ff1681565b600b60205282600052604060002060205281600052604060002060205280600052604060002060009250925050505481565b60008060008090505b6009805490508110156134b9576000600860006009848154811061335557fe5b9060005260206000200154815260200190815260200160002060009054906101000a900473ffffffffffffffffffffffffffffffffffffffff1690506134a98173ffffffffffffffffffffffffffffffffffffffff1663abf1614b6040518163ffffffff1660e01b8152600401602060405180830381600087803b1580156133dc57600080fd5b505af11580156133f0573d6000803e3d6000fd5b505050506040513d602081101561340657600080fd5b8101908080519060200190929190505050601b8373ffffffffffffffffffffffffffffffffffffffff166318160ddd6040518163ffffffff1660e01b815260040160206040518083038186803b15801561345f57600080fd5b505afa158015613473573d6000803e3d6000fd5b505050506040513d602081101561348957600080fd5b8101908080519060200190929190505050614a1f9092919063ffffffff16565b8301925050600181019050613335565b508091505090565b7f574554480000000000000000000000000000000000000000000000000000000081565b826040518060400160405280601c81526020017f4465616c65723a204f6e6c7920486f6c646572204f722050726f7879000000008152508173ffffffffffffffffffffffffffffffffffffffff163373ffffffffffffffffffffffffffffffffffffffff1614806135dc5750600260008373ffffffffffffffffffffffffffffffffffffffff1673ffffffffffffffffffffffffffffffffffffffff16815260200190815260200160002060003373ffffffffffffffffffffffffffffffffffffffff1673ffffffffffffffffffffffffffffffffffffffff16815260200190815260200160002060009054906101000a900460ff165b8190613683576040517f08c379a00000000000000000000000000000000000000000000000000000000081526004018080602001828103825283818151815260200191508051906020019080838360005b8381101561364857808201518184015260208101905061362d565b50505050905090810190601f1680156136755780820380516001836020036101000a031916815260200191505b509250505060405180910390fd5b5060011515600c60009054906101000a900460ff161515146136f0576040517f08c379a00000000000000000000000000000000000000000000000000000000081526004018080602001828103825260258152602001806150446025913960400191505060405180910390fd5b6006600087815260200190815260200160002060009054906101000a900473ffffffffffffffffffffffffffffffffffffffff1673ffffffffffffffffffffffffffffffffffffffff166323b872dd86600360009054906101000a900473ffffffffffffffffffffffffffffffffffffffff16866040518463ffffffff1660e01b8152600401808473ffffffffffffffffffffffffffffffffffffffff1673ffffffffffffffffffffffffffffffffffffffff1681526020018373ffffffffffffffffffffffffffffffffffffffff1673ffffffffffffffffffffffffffffffffffffffff1681526020018281526020019350505050602060405180830381600087803b15801561380057600080fd5b505af1158015613814573d6000803e3d6000fd5b505050506040513d602081101561382a57600080fd5b81019080805190602001909291905050506138ad576040517f08c379a00000000000000000000000000000000000000000000000000000000081526004018080602001828103825260208152602001807f4465616c65723a20436f6c6c61746572616c207472616e73666572206661696c81525060200191505060405180910390fd5b7f574554480000000000000000000000000000000000000000000000000000000086141561395c57600360009054906101000a900473ffffffffffffffffffffffffffffffffffffffff1673ffffffffffffffffffffffffffffffffffffffff16630b6500ee6040518163ffffffff1660e01b8152600401600060405180830381600087803b15801561393f57600080fd5b505af1158015613953573d6000803e3d6000fd5b50505050613a7a565b7f4348414900000000000000000000000000000000000000000000000000000000861415613a0b57600360009054906101000a900473ffffffffffffffffffffffffffffffffffffffff1673ffffffffffffffffffffffffffffffffffffffff1663653b8e816040518163ffffffff1660e01b8152600401600060405180830381600087803b1580156139ee57600080fd5b505af1158015613a02573d6000803e3d6000fd5b50505050613a79565b6040517f08c379a000000000000000000000000000000000000000000000000000000000815260040180806020018281038252601e8152602001807f4465616c65723a20556e737570706f7274656420636f6c6c61746572616c000081525060200191505060405180910390fd5b5b6000600a600088815260200190815260200160002060008673ffffffffffffffffffffffffffffffffffffffff1673ffffffffffffffffffffffffffffffffffffffff16815260200190815260200160002054148015613adb575060008310155b15613aeb57613aea600a614a57565b5b613b4e83600a600089815260200190815260200160002060008773ffffffffffffffffffffffffffffffffffffffff1673ffffffffffffffffffffffffffffffffffffffff16815260200190815260200160002054614c0490919063ffffffff16565b600a600088815260200190815260200160002060008673ffffffffffffffffffffffffffffffffffffffff1673ffffffffffffffffffffffffffffffffffffffff16815260200190815260200160002081905550505050505050565b7f434841490000000000000000000000000000000000000000000000000000000081565b6000613ceb6007600085815260200190815260200160002060009054906101000a900473ffffffffffffffffffffffffffffffffffffffff1673ffffffffffffffffffffffffffffffffffffffff1663a035b1fe6040518163ffffffff1660e01b8152600401602060405180830381600087803b158015613c4e57600080fd5b505af1158015613c62573d6000803e3d6000fd5b505050506040513d6020811015613c7857600080fd5b8101908080519060200190929190505050601b600a600087815260200190815260200160002060008673ffffffffffffffffffffffffffffffffffffffff1673ffffffffffffffffffffffffffffffffffffffff16815260200190815260200160002054614a1f9092919063ffffffff16565b905092915050565b6000613d6083600b6000878152602001908152602001600020600086815260200190815260200160002060008573ffffffffffffffffffffffffffffffffffffffff1673ffffffffffffffffffffffffffffffffffffffff1681526020019081526020016000205461175e565b90509392505050565b6000600260003373ffffffffffffffffffffffffffffffffffffffff1673ffffffffffffffffffffffffffffffffffffffff16815260200190815260200160002060008373ffffffffffffffffffffffffffffffffffffffff1673ffffffffffffffffffffffffffffffffffffffff16815260200190815260200160002060006101000a81548160ff0219169083151502179055508073ffffffffffffffffffffffffffffffffffffffff163373ffffffffffffffffffffffffffffffffffffffff167fc36ad848097e7ffe295df9c20b29568928ae4fd30eff1557db5ebbcf127c9c766000604051808215151515815260200191505060405180910390a350565b60008073ffffffffffffffffffffffffffffffffffffffff166008600084815260200190815260200160002060009054906101000a900473ffffffffffffffffffffffffffffffffffffffff1673ffffffffffffffffffffffffffffffffffffffff1614159050919050565b60086020528060005260406000206000915054906101000a900473ffffffffffffffffffffffffffffffffffffffff1681565b600a602052816000526040600020602052806000526040600020600091509150505481565b60008060008090505b600980549050811015613f7657613f678560098381548110613f5657fe5b906000526020600020015486613cf3565b82019150600181019050613f38565b508091505092915050565b613f896149df565b73ffffffffffffffffffffffffffffffffffffffff166000809054906101000a900473ffffffffffffffffffffffffffffffffffffffff1673ffffffffffffffffffffffffffffffffffffffff161461404a576040517f08c379a00000000000000000000000000000000000000000000000000000000081526004018080602001828103825260208152602001807f4f776e61626c653a2063616c6c6572206973206e6f7420746865206f776e657281525060200191505060405180910390fd5b600073ffffffffffffffffffffffffffffffffffffffff168173ffffffffffffffffffffffffffffffffffffffff1614156140d0576040517f08c379a0000000000000000000000000000000000000000000000000000000008152600401808060200182810382526026815260200180614ffd6026913960400191505060405180910390fd5b8073ffffffffffffffffffffffffffffffffffffffff166000809054906101000a900473ffffffffffffffffffffffffffffffffffffffff1673ffffffffffffffffffffffffffffffffffffffff167f8be0079c531659141344cd1fd0a4f28419497f9722a3daafe3b4186f6b6457e060405160405180910390a3806000806101000a81548173ffffffffffffffffffffffffffffffffffffffff021916908373ffffffffffffffffffffffffffffffffffffffff16021790555050565b6040518060400160405280601681526020017f4465616c65723a204e6f7420417574686f72697a656400000000000000000000815250600160003373ffffffffffffffffffffffffffffffffffffffff1673ffffffffffffffffffffffffffffffffffffffff16815260200190815260200160002060009054906101000a900460ff1681906142b8576040517f08c379a00000000000000000000000000000000000000000000000000000000081526004018080602001828103825283818151815260200191508051906020019080838360005b8381101561427d578082015181840152602081019050614262565b50505050905090810190601f1680156142aa5780820380516001836020036101000a031916815260200191505b509250505060405180910390fd5b50614353826040518060400160405280601d81526020017f4465616c65723a204e6f7420656e6f75676820636f6c6c61746572616c000000815250600a600089815260200190815260200160002060008873ffffffffffffffffffffffffffffffffffffffff1673ffffffffffffffffffffffffffffffffffffffff16815260200190815260200160002054614c8c9092919063ffffffff16565b600a600087815260200190815260200160002060008673ffffffffffffffffffffffffffffffffffffffff1673ffffffffffffffffffffffffffffffffffffffff168152602001908152602001600020819055506000600a600087815260200190815260200160002060008673ffffffffffffffffffffffffffffffffffffffff1673ffffffffffffffffffffffffffffffffffffffff16815260200190815260200160002054141561440b5761440a600a6148f7565b5b600080600090505b6009805490508110156145ee5760006009828154811061442f57fe5b90600052602060002001549050600061446461444c8a848b613cf3565b61445f868a6148ad90919063ffffffff16565b614d4c565b90506144798185614c0490919063ffffffff16565b93506144f86144888383611237565b600b60008c8152602001908152602001600020600085815260200190815260200160002060008b73ffffffffffffffffffffffffffffffffffffffff1673ffffffffffffffffffffffffffffffffffffffff168152602001908152602001600020546148ad90919063ffffffff16565b600b60008b8152602001908152602001600020600084815260200190815260200160002060008a73ffffffffffffffffffffffffffffffffffffffff1673ffffffffffffffffffffffffffffffffffffffff168152602001908152602001600020819055506000600b60008b8152602001908152602001600020600084815260200190815260200160002060008a73ffffffffffffffffffffffffffffffffffffffff1673ffffffffffffffffffffffffffffffffffffffff1681526020019081526020016000205414156145d2576145d1600a6148f7565b5b868414156145e15750506145ee565b5050600181019050614413565b50838114614664576040517f08c379a000000000000000000000000000000000000000000000000000000000815260040180806020018281038252601c8152602001807f4465616c65723a204e6f7420656e6f756768207573657220646562740000000081525060200191505060405180910390fd5b505050505050565b6040518060400160405280601681526020017f4465616c65723a204e6f7420417574686f72697a656400000000000000000000815250600160003373ffffffffffffffffffffffffffffffffffffffff1673ffffffffffffffffffffffffffffffffffffffff16815260200190815260200160002060009054906101000a900460ff168190614796576040517f08c379a00000000000000000000000000000000000000000000000000000000081526004018080602001828103825283818151815260200191508051906020019080838360005b8381101561475b578082015181840152602081019050614740565b50505050905090810190601f1680156147885780820380516001836020036101000a031916815260200191505b509250505060405180910390fd5b506000600c60006101000a81548160ff02191690831515021790555050565b60008060006147ce846147c9898989613cf3565b614d4c565b905060006148856148556147e5601b60ff16614d65565b600b60008c815260200190815260200160002060008b815260200190815260200160002060008a73ffffffffffffffffffffffffffffffffffffffff1673ffffffffffffffffffffffffffffffffffffffff16815260200190815260200160002054614def90919063ffffffff16565b61487e614865601b60ff16614d65565b6148708c8c8c613cf3565b614def90919063ffffffff16565b601b614e75565b90508161489e82601b85614a1f9092919063ffffffff16565b93509350505094509492505050565b60006148ef83836040518060400160405280601e81526020017f536166654d6174683a207375627472616374696f6e206f766572666c6f770000815250614c8c565b905092915050565b600560009054906101000a900473ffffffffffffffffffffffffffffffffffffffff1673ffffffffffffffffffffffffffffffffffffffff1663a9059cbb33836040518363ffffffff1660e01b8152600401808373ffffffffffffffffffffffffffffffffffffffff1673ffffffffffffffffffffffffffffffffffffffff16815260200182815260200192505050602060405180830381600087803b1580156149a057600080fd5b505af11580156149b4573d6000803e3d6000fd5b505050506040513d60208110156149ca57600080fd5b81019080805190602001909291905050505050565b600033905090565b6000614a1683614a086149f985614d65565b87614def90919063ffffffff16565b614eec90919063ffffffff16565b90509392505050565b6000614a4e614a2d83614d65565b614a408587614def90919063ffffffff16565b614eec90919063ffffffff16565b90509392505050565b600560009054906101000a900473ffffffffffffffffffffffffffffffffffffffff1673ffffffffffffffffffffffffffffffffffffffff166323b872dd3330846040518463ffffffff1660e01b8152600401808473ffffffffffffffffffffffffffffffffffffffff1673ffffffffffffffffffffffffffffffffffffffff1681526020018373ffffffffffffffffffffffffffffffffffffffff1673ffffffffffffffffffffffffffffffffffffffff1681526020018281526020019350505050602060405180830381600087803b158015614b3457600080fd5b505af1158015614b48573d6000803e3d6000fd5b505050506040513d6020811015614b5e57600080fd5b8101908080519060200190929190505050614c0157600560009054906101000a900473ffffffffffffffffffffffffffffffffffffffff1673ffffffffffffffffffffffffffffffffffffffff1663a0712d68826040518263ffffffff1660e01b815260040180828152602001915050600060405180830381600087803b158015614be857600080fd5b505af1158015614bfc573d6000803e3d6000fd5b505050505b50565b600080828401905083811015614c82576040517f08c379a000000000000000000000000000000000000000000000000000000000815260040180806020018281038252601b8152602001807f536166654d6174683a206164646974696f6e206f766572666c6f77000000000081525060200191505060405180910390fd5b8091505092915050565b6000838311158290614d39576040517f08c379a00000000000000000000000000000000000000000000000000000000081526004018080602001828103825283818151815260200191508051906020019080838360005b83811015614cfe578082015181840152602081019050614ce3565b50505050905090810190601f168015614d2b5780820380516001836020036101000a031916815260200191505b509250505060405180910390fd5b5060008385039050809150509392505050565b6000818310614d5b5781614d5d565b825b905092915050565b6000604d8260ff161115614de1576040517f08c379a00000000000000000000000000000000000000000000000000000000081526004018080602001828103825260118152602001807f546f6f206d616e7920646563696d616c7300000000000000000000000000000081525060200191505060405180910390fd5b8160ff16600a0a9050919050565b600080831415614e025760009050614e6f565b6000828402905082848281614e1357fe5b0414614e6a576040517f08c379a00000000000000000000000000000000000000000000000000000000081526004018080602001828103825260218152602001806150236021913960400191505060405180910390fd5b809150505b92915050565b600080614eab84614e9d614e8e6001870160ff16614d65565b88614def90919063ffffffff16565b614eec90919063ffffffff16565b90506000600a8281614eb957fe5b061115614ed6576001600a8281614ecc57fe5b0401915050614ee5565b600a8181614ee057fe5b049150505b9392505050565b6000614f2e83836040518060400160405280601a81526020017f536166654d6174683a206469766973696f6e206279207a65726f000000000000815250614f36565b905092915050565b60008083118290614fe2576040517f08c379a00000000000000000000000000000000000000000000000000000000081526004018080602001828103825283818151815260200191508051906020019080838360005b83811015614fa7578082015181840152602081019050614f8c565b50505050905090810190601f168015614fd45780820380516001836020036101000a031916815260200191505b509250505060405180910390fd5b506000838581614fee57fe5b04905080915050939250505056fe4f776e61626c653a206e6577206f776e657220697320746865207a65726f2061646472657373536166654d6174683a206d756c7469706c69636174696f6e206f766572666c6f774465616c65723a204e6f7420617661696c61626c6520647572696e672073687574646f776ea2646970667358221220ddba160f94b0e969ad44c426ea219b7d0093a7b5da0589504e91d52b9c9dde3b64736f6c63430006020033",
  "source": "pragma solidity ^0.6.2;\n\nimport \"@hq20/contracts/contracts/access/AuthorizedAccess.sol\";\nimport \"@hq20/contracts/contracts/math/DecimalMath.sol\";\nimport \"@openzeppelin/contracts/math/Math.sol\";\nimport \"@openzeppelin/contracts/math/SafeMath.sol\";\nimport \"@openzeppelin/contracts/token/ERC20/IERC20.sol\";\nimport \"./interfaces/IChai.sol\";\nimport \"./interfaces/IGasToken.sol\";\nimport \"./interfaces/IDealer.sol\";\nimport \"./interfaces/IOracle.sol\";\nimport \"./interfaces/ITreasury.sol\";\nimport \"./interfaces/IYDai.sol\";\nimport \"./Constants.sol\";\nimport \"./UserProxy.sol\";\n// import \"@nomiclabs/buidler/console.sol\";\n\n/// @dev A dealer takes collateral and issues yDai.\ncontract Dealer is IDealer, AuthorizedAccess(), UserProxy(), Constants {\n    using SafeMath for uint256;\n    using DecimalMath for uint256;\n    using DecimalMath for uint8;\n\n    event Erased(address indexed user, bytes32 indexed collateral, uint256 tokens, uint256 debt);\n\n    ITreasury internal _treasury;\n    IERC20 internal _dai;\n    IGasToken internal _gasToken;\n    mapping(bytes32 => IERC20) internal _token;                       // Weth or Chai\n    mapping(bytes32 => IOracle) internal _oracle;                     // WethOracle or ChaiOracle\n    mapping(uint256 => IYDai) public override series;      // YDai series, indexed by maturity\n    uint256[] internal seriesIterator;            // We need to know all the series\n\n    mapping(bytes32 => mapping(address => uint256)) public override posted;    // In Weth or Chai\n    mapping(bytes32 => mapping(uint256 => mapping(address => uint256))) public debtYDai;  // By series, in yDai\n\n    bool public live = true;\n\n    constructor (\n        address treasury_,\n        address dai_,\n        address weth_,\n        address wethOracle_,\n        address chai_,\n        address chaiOracle_,\n        address gasToken_\n    ) public {\n        _treasury = ITreasury(treasury_);\n        _dai = IERC20(dai_);\n        _token[WETH] = IERC20(weth_);\n        _oracle[WETH] = IOracle(wethOracle_);\n        _token[CHAI] = IERC20(chai_);\n        _oracle[CHAI] = IOracle(chaiOracle_);\n        _gasToken = IGasToken(gasToken_);\n    }\n\n    modifier onlyLive() {\n        require(live == true, \"Dealer: Not available during shutdown\");\n        _;\n    }\n\n    /// @dev Disables post, withdraw, borrow and repay. To be called only by shutdown management contracts.\n    function shutdown() public override onlyAuthorized(\"Dealer: Not Authorized\") {\n        live = false;\n    }\n\n    /// @dev Returns if a series has been added to the Dealer, for a given series identified by maturity\n    function containsSeries(uint256 maturity) public view returns (bool) {\n        return address(series[maturity]) != address(0);\n    }\n\n    /// @dev Adds an yDai series to this Dealer\n    function addSeries(address yDaiContract) public onlyOwner {\n        uint256 maturity = IYDai(yDaiContract).maturity();\n        require(\n            !containsSeries(maturity),\n            \"Dealer: Series already added\"\n        );\n        series[maturity] = IYDai(yDaiContract);\n        seriesIterator.push(maturity);\n    }\n\n    /// @dev Returns the total debt of the yDai system, across all series, in dai\n    // TODO: Test\n    function systemDebt() public override returns (uint256) {\n        uint256 totalDebt;\n        for (uint256 i = 0; i < seriesIterator.length; i += 1) {\n            IYDai yDai = series[seriesIterator[i]];\n            totalDebt = totalDebt + IERC20(address(yDai)).totalSupply().muld(yDai.rateGrowth(), RAY);\n        } // We don't expect hundreds of maturities per dealer\n        return totalDebt;\n    }\n\n\n    /// @dev Returns the dai equivalent of an yDai amount, for a given series identified by maturity\n    function inDai(uint256 maturity, uint256 yDaiAmount) public returns (uint256) {\n        require(\n            containsSeries(maturity),\n            \"Dealer: Unrecognized series\"\n        );\n        // if (now >= maturity) { // TODO: Consider using for gas savings\n        if (series[maturity].isMature()){\n            return yDaiAmount.muld(series[maturity].rateGrowth(), RAY);\n        }\n        else {\n            return yDaiAmount;\n        }\n    }\n\n    /// @dev Returns the yDai equivalent of a dai amount, for a given series identified by maturity\n    function inYDai(uint256 maturity, uint256 daiAmount) public returns (uint256) {\n        require(\n            containsSeries(maturity),\n            \"Dealer: Unrecognized series\"\n        );\n        // if (now >= maturity) { // TODO: Consider using for gas savings\n        if (series[maturity].isMature()){\n            return daiAmount.divd(series[maturity].rateGrowth(), RAY);\n        }\n        else {\n            return daiAmount;\n        }\n    }\n\n    /// @dev Return debt in dai of an user, for a given collateral and series identified by maturity\n    //\n    //                        rate_now\n    // debt_now = debt_mat * ----------\n    //                        rate_mat\n    //\n    function debtDai(bytes32 collateral, uint256 maturity, address user) public returns (uint256) {\n        return inDai(maturity, debtYDai[collateral][maturity][user]);\n    }\n\n    /// @dev Returns the total debt of an user, for a given collateral, across all series, in Dai\n    function totalDebtDai(bytes32 collateral, address user) public override returns (uint256) {\n        uint256 totalDebt;\n        for (uint256 i = 0; i < seriesIterator.length; i += 1) {\n            // TODO: Skip next line if debtYDai[collateral][maturity][user] == 0\n            totalDebt = totalDebt + debtDai(collateral, seriesIterator[i], user);\n        } // We don't expect hundreds of maturities per dealer\n        return totalDebt;\n    }\n\n    /// @dev Returns the total debt of an user, for a given collateral, across all series, in yDai\n    function totalDebtYDai(bytes32 collateral, address user) public view override returns (uint256) {\n        uint256 totalDebt;\n        for (uint256 i = 0; i < seriesIterator.length; i += 1) {\n            totalDebt = totalDebt + debtYDai[collateral][seriesIterator[i]][user];\n        } // We don't expect hundreds of maturities per dealer\n        return totalDebt;\n    }\n\n    /// @dev Maximum borrowing power of an user in dai for a given collateral\n    //\n    // powerOf[user](wad) = posted[user](wad) * oracle.price()(ray)\n    //\n    function powerOf(bytes32 collateral, address user) public returns (uint256) {\n        // dai = price * collateral\n        return posted[collateral][user].muld(_oracle[collateral].price(), RAY);\n    }\n\n    /// @dev Return if the borrowing power for a given collateral of an user is equal or greater than its debt for the same collateral\n    function isCollateralized(bytes32 collateral, address user) public override returns (bool) {\n        return powerOf(collateral, user) >= totalDebtDai(collateral, user);\n    }\n\n    /// @dev Takes collateral _token from `from` address, and credits it to `to` collateral account.\n    // from --- Token ---> us(to)\n    function post(bytes32 collateral, address from, address to, uint256 amount)\n        public override onlyHolderOrProxy(from, \"Dealer: Only Holder Or Proxy\") onlyLive {\n        require(\n            _token[collateral].transferFrom(from, address(_treasury), amount),\n            \"Dealer: Collateral transfer fail\"\n        );\n\n        if (collateral == WETH){ // TODO: Refactor Treasury to be `push(collateral, amount)`\n            _treasury.pushWeth();                          // Have Treasury process the weth\n        } else if (collateral == CHAI) {\n            _treasury.pushChai();\n        } else {\n            revert(\"Dealer: Unsupported collateral\");\n        }\n        \n        if (posted[collateral][to] == 0 && amount >= 0) {\n            lockBond(10);\n        }\n        posted[collateral][to] = posted[collateral][to].add(amount);\n    }\n\n    /// @dev Returns collateral to `to` address, taking it from `from` collateral account.\n    // us(from) --- Token ---> to\n    function withdraw(bytes32 collateral, address from, address to, uint256 amount)\n        public override onlyHolderOrProxy(from, \"Dealer: Only Holder Or Proxy\") onlyLive {\n        posted[collateral][from] = posted[collateral][from].sub(amount); // Will revert if not enough posted\n\n        require(\n            isCollateralized(collateral, from),\n            \"Dealer: Too much debt\"\n        );\n\n        if (collateral == WETH){\n            _treasury.pullWeth(to, amount);\n        } else if (collateral == CHAI) {\n            _treasury.pullChai(to, amount);\n        } else {\n            revert(\"Dealer: Unsupported collateral\");\n        }\n\n        if (posted[collateral][from] == 0 && amount >= 0) {\n            returnBond(10);\n        }\n    }\n\n    /// @dev Mint yDai for a given series for address `to` by locking its market value in collateral, user debt is increased in the given collateral.\n    //\n    // posted[user](wad) >= (debtYDai[user](wad)) * amount (wad)) * collateralization (ray)\n    //\n    // us --- yDai ---> user\n    // debt++\n    function borrow(bytes32 collateral, uint256 maturity, address to, uint256 yDaiAmount)\n        public onlyHolderOrProxy(to, \"Dealer: Only Holder Or Proxy\") onlyLive {\n        require(\n            containsSeries(maturity),\n            \"Dealer: Unrecognized series\"\n        );\n        require(\n            series[maturity].isMature() != true,\n            \"Dealer: No mature borrow\"\n        );\n\n        if (debtYDai[collateral][maturity][to] == 0 && yDaiAmount >= 0) {\n            lockBond(10);\n        }\n        debtYDai[collateral][maturity][to] = debtYDai[collateral][maturity][to].add(yDaiAmount);\n\n        require(\n            isCollateralized(collateral, to),\n            \"Dealer: Too much debt\"\n        );\n        series[maturity].mint(to, yDaiAmount);\n    }\n\n    /// @dev Burns yDai of a given series from `from` address, user debt is decreased for the given collateral and yDai series.\n    //                                                  debt_nominal\n    // debt_discounted = debt_nominal - repay_amount * ---------------\n    //                                                  debt_now\n    //\n    // user --- yDai ---> us\n    // debt--\n    function repayYDai(bytes32 collateral, uint256 maturity, address from, uint256 yDaiAmount)\n        public onlyHolderOrProxy(from, \"Dealer: Only Holder Or Proxy\") onlyLive {\n        require(\n            containsSeries(maturity),\n            \"Dealer: Unrecognized series\"\n        );\n        (uint256 toRepay, uint256 debtDecrease) = repayProportion(collateral, maturity, from, yDaiAmount);\n        series[maturity].burn(from, toRepay);\n        debtYDai[collateral][maturity][from] = debtYDai[collateral][maturity][from].sub(debtDecrease);\n        if (debtYDai[collateral][maturity][from] == 0 && debtDecrease >= 0) {\n            returnBond(10);\n        }\n    }\n\n    /// @dev Takes dai from `from` address, user debt is decreased for the given collateral and yDai series.\n    //                                                  debt_nominal\n    // debt_discounted = debt_nominal - repay_amount * ---------------\n    //                                                  debt_now\n    //\n    // user --- dai ---> us\n    // debt--\n    function repayDai(bytes32 collateral, uint256 maturity, address from, uint256 daiAmount)\n        public onlyHolderOrProxy(from, \"Dealer: Only Holder Or Proxy\") onlyLive {\n        (uint256 toRepay, uint256 debtDecrease) = repayProportion(collateral, maturity, from, inYDai(maturity, daiAmount));\n        require(\n            _dai.transferFrom(from, address(_treasury), toRepay),  // Take dai from user to Treasury\n            \"Dealer: Dai transfer fail\"\n        );\n\n        _treasury.pushDai();                                      // Have Treasury process the dai\n        debtYDai[collateral][maturity][from] = debtYDai[collateral][maturity][from].sub(debtDecrease);\n        if (debtYDai[collateral][maturity][from] == 0 && debtDecrease >= 0) {\n            returnBond(10);\n        }\n    }\n\n    /// @dev Erases all collateral and debt for an user.\n    function erase(bytes32 collateral, address user)\n        public onlyAuthorized(\"Dealer: Not Authorized\") override returns (uint256, uint256) {\n\n        uint256 debt;\n        for (uint256 i = 0; i < seriesIterator.length; i += 1) {\n            debt = debt + debtDai(collateral, seriesIterator[i], user);\n            delete debtYDai[collateral][seriesIterator[i]][user];\n        } // We don't expect hundreds of maturities per dealer\n        uint256 tokens = posted[collateral][user];\n        delete posted[collateral][user];\n        returnBond((seriesIterator.length + 1) * 10); // 10 per series, and 10 for the collateral\n\n        emit Erased(user, collateral, tokens, debt);\n        return (tokens, debt);\n    }\n\n    /// @dev Removes collateral and debt for an user.\n    function grab(bytes32 collateral, address user, uint256 daiAmount, uint256 tokenAmount)\n        public onlyAuthorized(\"Dealer: Not Authorized\") override {\n\n        posted[collateral][user] = posted[collateral][user].sub(\n            tokenAmount,\n            \"Dealer: Not enough collateral\"\n        );\n        if (posted[collateral][user] == 0){\n            returnBond(10);\n        }\n\n        uint256 grabbed;\n        for (uint256 i = 0; i < seriesIterator.length; i += 1) {\n            uint256 maturity = seriesIterator[i];\n            uint256 thisGrab = Math.min(debtDai(collateral, maturity, user), daiAmount.sub(grabbed));\n            grabbed = grabbed.add(thisGrab); // SafeMath shouldn't be needed\n            debtYDai[collateral][maturity][user] = debtYDai[collateral][maturity][user].sub(inYDai(maturity, thisGrab)); // SafeMath shouldn't be needed\n            if (debtYDai[collateral][maturity][user] == 0){\n                returnBond(10);\n            }\n            if (grabbed == daiAmount) break;\n        } // We don't expect hundreds of maturities per dealer\n        require(\n            grabbed == daiAmount,\n            \"Dealer: Not enough user debt\"\n        );\n    }\n\n\n    /// @dev Calculates the amount to repay and the amount by which to reduce the debt for a given collateral and series\n    function repayProportion(bytes32 collateral, uint256 maturity, address user, uint256 yDaiAmount)\n        internal returns(uint256, uint256) {\n        uint256 toRepay = Math.min(yDaiAmount, debtDai(collateral, maturity, user));\n        // TODO: Check if this can be taken from DecimalMath.sol\n        // uint256 debtProportion = debtYDai[user].mul(RAY.unit())\n        //     .divdr(debtDai(user).mul(RAY.unit()), RAY);\n        uint256 debtProportion = divdrup( // TODO: Check it works if we are not rounding.\n            debtYDai[collateral][maturity][user].mul(RAY.unit()),\n            debtDai(collateral, maturity, user).mul(RAY.unit()),\n            RAY\n        );\n        return (toRepay, toRepay.muld(debtProportion, RAY));\n    }\n\n    /// @dev Locks a liquidation bond in gas tokens\n    function lockBond(uint256 value) internal {\n        if (!_gasToken.transferFrom(msg.sender, address(this), value)) {\n            _gasToken.mint(value);\n        }\n    }\n\n    /// @dev Frees a liquidation bond in gas tokens\n    function returnBond(uint256 value) internal {\n        _gasToken.transfer(msg.sender, value);\n    }\n\n    /// @dev Divides x between y, rounding up to the closest representable number.\n    /// Assumes x and y are both fixed point with `decimals` digits.\n     // TODO: Check if this needs to be taken from DecimalMath.sol\n    function divdrup(uint256 x, uint256 y, uint8 decimals)\n        internal pure returns (uint256)\n    {\n        uint256 z = x.mul((decimals + 1).unit()).div(y);\n        if (z % 10 > 0) return z / 10 + 1;\n        else return z / 10;\n    }\n}",
  "sourcePath": "/Users/bruce/dev/yieldprotocol/ytoken-mvp/contracts/Dealer.sol",
  "compiler": {
    "name": "solc",
    "version": "0.6.2+commit.bacdbe57.Emscripten.clang"
  },
  "schemaVersion": "3.0.23",
  "updatedAt": "2020-06-26T11:31:05.101Z",
  "networkType": "ethereum",
  "devdoc": {
    "details": "A dealer takes collateral and issues yDai.",
    "methods": {
      "addProxy(address)": {
        "details": "Enable a proxy to act on the behalf of caller"
      },
      "addSeries(address)": {
        "details": "Adds an yDai series to this Dealer"
      },
      "borrow(bytes32,uint256,address,uint256)": {
        "details": "Mint yDai for a given series for address `to` by locking its market value in collateral, user debt is increased in the given collateral."
      },
      "containsSeries(uint256)": {
        "details": "Returns if a series has been added to the Dealer, for a given series identified by maturity"
      },
      "debtDai(bytes32,uint256,address)": {
        "details": "Return debt in dai of an user, for a given collateral and series identified by maturity"
      },
      "erase(bytes32,address)": {
        "details": "Erases all collateral and debt for an user."
      },
      "grab(bytes32,address,uint256,uint256)": {
        "details": "Removes collateral and debt for an user."
      },
      "grantAccess(address)": {
        "details": "Add user to the authorized users list"
      },
      "inDai(uint256,uint256)": {
        "details": "Returns the dai equivalent of an yDai amount, for a given series identified by maturity"
      },
      "inYDai(uint256,uint256)": {
        "details": "Returns the yDai equivalent of a dai amount, for a given series identified by maturity"
      },
      "isCollateralized(bytes32,address)": {
        "details": "Return if the borrowing power for a given collateral of an user is equal or greater than its debt for the same collateral"
      },
      "owner()": {
        "details": "Returns the address of the current owner."
      },
      "post(bytes32,address,address,uint256)": {
        "details": "Takes collateral _token from `from` address, and credits it to `to` collateral account."
      },
      "powerOf(bytes32,address)": {
        "details": "Maximum borrowing power of an user in dai for a given collateral"
      },
      "renounceOwnership()": {
        "details": "Leaves the contract without owner. It will not be possible to call `onlyOwner` functions anymore. Can only be called by the current owner.     * NOTE: Renouncing ownership will leave the contract without an owner, thereby removing any functionality that is only available to the owner."
      },
      "repayDai(bytes32,uint256,address,uint256)": {
        "details": "Takes dai from `from` address, user debt is decreased for the given collateral and yDai series."
      },
      "repayYDai(bytes32,uint256,address,uint256)": {
        "details": "Burns yDai of a given series from `from` address, user debt is decreased for the given collateral and yDai series."
      },
      "revokeAccess(address)": {
        "details": "Remove user to the authorized users list"
      },
      "revokeProxy(address)": {
        "details": "Stop a proxy from acting on the behalf of caller"
      },
      "shutdown()": {
        "details": "Disables post, withdraw, borrow and repay. To be called only by shutdown management contracts."
      },
      "systemDebt()": {
        "details": "Returns the total debt of the yDai system, across all series, in dai"
      },
      "totalDebtDai(bytes32,address)": {
        "details": "Returns the total debt of an user, for a given collateral, across all series, in Dai"
      },
      "totalDebtYDai(bytes32,address)": {
        "details": "Returns the total debt of an user, for a given collateral, across all series, in yDai"
      },
      "transferOwnership(address)": {
        "details": "Transfers ownership of the contract to a new account (`newOwner`). Can only be called by the current owner."
      },
      "withdraw(bytes32,address,address,uint256)": {
        "details": "Returns collateral to `to` address, taking it from `from` collateral account."
      }
    }
  },
  "userdoc": {
    "methods": {}
  }
}