{
  "contractName": "Dealer",
  "abi": [
    {
      "inputs": [
        {
          "internalType": "address",
          "name": "treasury_",
          "type": "address"
        },
        {
          "internalType": "address",
          "name": "dai_",
          "type": "address"
        },
        {
          "internalType": "address",
          "name": "weth_",
          "type": "address"
        },
        {
          "internalType": "address",
          "name": "wethOracle_",
          "type": "address"
        },
        {
          "internalType": "address",
          "name": "chai_",
          "type": "address"
        },
        {
          "internalType": "address",
          "name": "chaiOracle_",
          "type": "address"
        },
        {
          "internalType": "address",
          "name": "gasToken_",
          "type": "address"
        }
      ],
      "stateMutability": "nonpayable",
      "type": "constructor"
    },
    {
      "anonymous": false,
      "inputs": [
        {
          "indexed": true,
          "internalType": "bytes32",
          "name": "collateral",
          "type": "bytes32"
        },
        {
          "indexed": true,
          "internalType": "uint256",
          "name": "maturity",
          "type": "uint256"
        },
        {
          "indexed": true,
          "internalType": "address",
          "name": "user",
          "type": "address"
        },
        {
          "indexed": false,
          "internalType": "int256",
          "name": "amount",
          "type": "int256"
        }
      ],
      "name": "Borrowed",
      "type": "event"
    },
    {
      "anonymous": false,
      "inputs": [
        {
          "indexed": true,
          "internalType": "address",
          "name": "user",
          "type": "address"
        },
        {
          "indexed": true,
          "internalType": "address",
          "name": "delegate",
          "type": "address"
        },
        {
          "indexed": false,
          "internalType": "bool",
          "name": "enabled",
          "type": "bool"
        }
      ],
      "name": "Delegate",
      "type": "event"
    },
    {
      "anonymous": false,
      "inputs": [
        {
          "indexed": false,
          "internalType": "address",
          "name": "access",
          "type": "address"
        }
      ],
      "name": "GrantedAccess",
      "type": "event"
    },
    {
      "anonymous": false,
      "inputs": [
        {
          "indexed": true,
          "internalType": "address",
          "name": "previousOwner",
          "type": "address"
        },
        {
          "indexed": true,
          "internalType": "address",
          "name": "newOwner",
          "type": "address"
        }
      ],
      "name": "OwnershipTransferred",
      "type": "event"
    },
    {
      "anonymous": false,
      "inputs": [
        {
          "indexed": true,
          "internalType": "bytes32",
          "name": "collateral",
          "type": "bytes32"
        },
        {
          "indexed": true,
          "internalType": "address",
          "name": "user",
          "type": "address"
        },
        {
          "indexed": false,
          "internalType": "int256",
          "name": "amount",
          "type": "int256"
        }
      ],
      "name": "Posted",
      "type": "event"
    },
    {
      "inputs": [],
      "name": "CHAI",
      "outputs": [
        {
          "internalType": "bytes32",
          "name": "",
          "type": "bytes32"
        }
      ],
      "stateMutability": "view",
      "type": "function",
      "constant": true
    },
    {
      "inputs": [],
      "name": "RAD",
      "outputs": [
        {
          "internalType": "uint8",
          "name": "",
          "type": "uint8"
        }
      ],
      "stateMutability": "view",
      "type": "function",
      "constant": true
    },
    {
      "inputs": [],
      "name": "RAY",
      "outputs": [
        {
          "internalType": "uint8",
          "name": "",
          "type": "uint8"
        }
      ],
      "stateMutability": "view",
      "type": "function",
      "constant": true
    },
    {
      "inputs": [],
      "name": "WAD",
      "outputs": [
        {
          "internalType": "uint8",
          "name": "",
          "type": "uint8"
        }
      ],
      "stateMutability": "view",
      "type": "function",
      "constant": true
    },
    {
      "inputs": [],
      "name": "WETH",
      "outputs": [
        {
          "internalType": "bytes32",
          "name": "",
          "type": "bytes32"
        }
      ],
      "stateMutability": "view",
      "type": "function",
      "constant": true
    },
    {
      "inputs": [
        {
          "internalType": "address",
          "name": "delegate",
          "type": "address"
        }
      ],
      "name": "addDelegate",
      "outputs": [],
      "stateMutability": "nonpayable",
      "type": "function"
    },
    {
      "inputs": [
        {
          "internalType": "bytes32",
          "name": "",
          "type": "bytes32"
        },
        {
          "internalType": "uint256",
          "name": "",
          "type": "uint256"
        },
        {
          "internalType": "address",
          "name": "",
          "type": "address"
        }
      ],
      "name": "debtYDai",
      "outputs": [
        {
          "internalType": "uint256",
          "name": "",
          "type": "uint256"
        }
      ],
      "stateMutability": "view",
      "type": "function",
      "constant": true
    },
    {
      "inputs": [],
      "name": "live",
      "outputs": [
        {
          "internalType": "bool",
          "name": "",
          "type": "bool"
        }
      ],
      "stateMutability": "view",
      "type": "function",
      "constant": true
    },
    {
      "inputs": [
        {
          "internalType": "address",
          "name": "user",
          "type": "address"
        }
      ],
      "name": "orchestrate",
      "outputs": [],
      "stateMutability": "nonpayable",
      "type": "function"
    },
    {
      "inputs": [],
      "name": "owner",
      "outputs": [
        {
          "internalType": "address",
          "name": "",
          "type": "address"
        }
      ],
      "stateMutability": "view",
      "type": "function",
      "constant": true
    },
    {
      "inputs": [
        {
          "internalType": "bytes32",
          "name": "",
          "type": "bytes32"
        },
        {
          "internalType": "address",
          "name": "",
          "type": "address"
        }
      ],
      "name": "posted",
      "outputs": [
        {
          "internalType": "uint256",
          "name": "",
          "type": "uint256"
        }
      ],
      "stateMutability": "view",
      "type": "function",
      "constant": true
    },
    {
      "inputs": [],
      "name": "renounceOwnership",
      "outputs": [],
      "stateMutability": "nonpayable",
      "type": "function"
    },
    {
      "inputs": [
        {
          "internalType": "address",
          "name": "delegate",
          "type": "address"
        }
      ],
      "name": "revokeDelegate",
      "outputs": [],
      "stateMutability": "nonpayable",
      "type": "function"
    },
    {
      "inputs": [
        {
          "internalType": "uint256",
          "name": "",
          "type": "uint256"
        }
      ],
      "name": "series",
      "outputs": [
        {
          "internalType": "contract IYDai",
          "name": "",
          "type": "address"
        }
      ],
      "stateMutability": "view",
      "type": "function",
      "constant": true
    },
    {
      "inputs": [
        {
          "internalType": "bytes32",
          "name": "",
          "type": "bytes32"
        },
        {
          "internalType": "uint256",
          "name": "",
          "type": "uint256"
        }
      ],
      "name": "systemDebtYDai",
      "outputs": [
        {
          "internalType": "uint256",
          "name": "",
          "type": "uint256"
        }
      ],
      "stateMutability": "view",
      "type": "function",
      "constant": true
    },
    {
      "inputs": [
        {
          "internalType": "bytes32",
          "name": "",
          "type": "bytes32"
        }
      ],
      "name": "systemPosted",
      "outputs": [
        {
          "internalType": "uint256",
          "name": "",
          "type": "uint256"
        }
      ],
      "stateMutability": "view",
      "type": "function",
      "constant": true
    },
    {
      "inputs": [
        {
          "internalType": "address",
          "name": "newOwner",
          "type": "address"
        }
      ],
      "name": "transferOwnership",
      "outputs": [],
      "stateMutability": "nonpayable",
      "type": "function"
    },
    {
      "inputs": [],
      "name": "shutdown",
      "outputs": [],
      "stateMutability": "nonpayable",
      "type": "function"
    },
    {
      "inputs": [
        {
          "internalType": "uint256",
          "name": "maturity",
          "type": "uint256"
        }
      ],
      "name": "containsSeries",
      "outputs": [
        {
          "internalType": "bool",
          "name": "",
          "type": "bool"
        }
      ],
      "stateMutability": "view",
      "type": "function",
      "constant": true
    },
    {
      "inputs": [
        {
          "internalType": "address",
          "name": "yDaiContract",
          "type": "address"
        }
      ],
      "name": "addSeries",
      "outputs": [],
      "stateMutability": "nonpayable",
      "type": "function"
    },
    {
      "inputs": [
        {
          "internalType": "bytes32",
          "name": "collateral",
          "type": "bytes32"
        },
        {
          "internalType": "uint256",
          "name": "maturity",
          "type": "uint256"
        },
        {
          "internalType": "uint256",
          "name": "yDaiAmount",
          "type": "uint256"
        }
      ],
      "name": "inDai",
      "outputs": [
        {
          "internalType": "uint256",
          "name": "",
          "type": "uint256"
        }
      ],
      "stateMutability": "nonpayable",
      "type": "function"
    },
    {
      "inputs": [
        {
          "internalType": "bytes32",
          "name": "collateral",
          "type": "bytes32"
        },
        {
          "internalType": "uint256",
          "name": "maturity",
          "type": "uint256"
        },
        {
          "internalType": "uint256",
          "name": "daiAmount",
          "type": "uint256"
        }
      ],
      "name": "inYDai",
      "outputs": [
        {
          "internalType": "uint256",
          "name": "",
          "type": "uint256"
        }
      ],
      "stateMutability": "nonpayable",
      "type": "function"
    },
    {
      "inputs": [
        {
          "internalType": "bytes32",
          "name": "collateral",
          "type": "bytes32"
        },
        {
          "internalType": "uint256",
          "name": "maturity",
          "type": "uint256"
        },
        {
          "internalType": "address",
          "name": "user",
          "type": "address"
        }
      ],
      "name": "debtDai",
      "outputs": [
        {
          "internalType": "uint256",
          "name": "",
          "type": "uint256"
        }
      ],
      "stateMutability": "nonpayable",
      "type": "function"
    },
    {
      "inputs": [
        {
          "internalType": "bytes32",
          "name": "collateral",
          "type": "bytes32"
        },
        {
          "internalType": "address",
          "name": "user",
          "type": "address"
        }
      ],
      "name": "totalDebtDai",
      "outputs": [
        {
          "internalType": "uint256",
          "name": "",
          "type": "uint256"
        }
      ],
      "stateMutability": "nonpayable",
      "type": "function"
    },
    {
      "inputs": [
        {
          "internalType": "bytes32",
          "name": "collateral",
          "type": "bytes32"
        },
        {
          "internalType": "address",
          "name": "user",
          "type": "address"
        }
      ],
      "name": "powerOf",
      "outputs": [
        {
          "internalType": "uint256",
          "name": "",
          "type": "uint256"
        }
      ],
      "stateMutability": "nonpayable",
      "type": "function"
    },
    {
      "inputs": [
        {
          "internalType": "bytes32",
          "name": "collateral",
          "type": "bytes32"
        },
        {
          "internalType": "address",
          "name": "user",
          "type": "address"
        }
      ],
      "name": "isCollateralized",
      "outputs": [
        {
          "internalType": "bool",
          "name": "",
          "type": "bool"
        }
      ],
      "stateMutability": "nonpayable",
      "type": "function"
    },
    {
      "inputs": [
        {
          "internalType": "bytes32",
          "name": "collateral",
          "type": "bytes32"
        },
        {
          "internalType": "address",
          "name": "from",
          "type": "address"
        },
        {
          "internalType": "address",
          "name": "to",
          "type": "address"
        },
        {
          "internalType": "uint256",
          "name": "amount",
          "type": "uint256"
        }
      ],
      "name": "post",
      "outputs": [],
      "stateMutability": "nonpayable",
      "type": "function"
    },
    {
      "inputs": [
        {
          "internalType": "bytes32",
          "name": "collateral",
          "type": "bytes32"
        },
        {
          "internalType": "address",
          "name": "from",
          "type": "address"
        },
        {
          "internalType": "address",
          "name": "to",
          "type": "address"
        },
        {
          "internalType": "uint256",
          "name": "amount",
          "type": "uint256"
        }
      ],
      "name": "withdraw",
      "outputs": [],
      "stateMutability": "nonpayable",
      "type": "function"
    },
    {
      "inputs": [
        {
          "internalType": "bytes32",
          "name": "collateral",
          "type": "bytes32"
        },
        {
          "internalType": "uint256",
          "name": "maturity",
          "type": "uint256"
        },
        {
          "internalType": "address",
          "name": "to",
          "type": "address"
        },
        {
          "internalType": "uint256",
          "name": "yDaiAmount",
          "type": "uint256"
        }
      ],
      "name": "borrow",
      "outputs": [],
      "stateMutability": "nonpayable",
      "type": "function"
    },
    {
      "inputs": [
        {
          "internalType": "bytes32",
          "name": "collateral",
          "type": "bytes32"
        },
        {
          "internalType": "uint256",
          "name": "maturity",
          "type": "uint256"
        },
        {
          "internalType": "address",
          "name": "from",
          "type": "address"
        },
        {
          "internalType": "uint256",
          "name": "yDaiAmount",
          "type": "uint256"
        }
      ],
      "name": "repayYDai",
      "outputs": [],
      "stateMutability": "nonpayable",
      "type": "function"
    },
    {
      "inputs": [
        {
          "internalType": "bytes32",
          "name": "collateral",
          "type": "bytes32"
        },
        {
          "internalType": "uint256",
          "name": "maturity",
          "type": "uint256"
        },
        {
          "internalType": "address",
          "name": "from",
          "type": "address"
        },
        {
          "internalType": "uint256",
          "name": "daiAmount",
          "type": "uint256"
        }
      ],
      "name": "repayDai",
      "outputs": [],
      "stateMutability": "nonpayable",
      "type": "function"
    },
    {
      "inputs": [
        {
          "internalType": "bytes32",
          "name": "collateral",
          "type": "bytes32"
        },
        {
          "internalType": "address",
          "name": "user",
          "type": "address"
        },
        {
          "internalType": "uint256",
          "name": "daiAmount",
          "type": "uint256"
        },
        {
          "internalType": "uint256",
          "name": "tokenAmount",
          "type": "uint256"
        }
      ],
      "name": "grab",
      "outputs": [],
      "stateMutability": "nonpayable",
      "type": "function"
    }
  ],
  "bytecode": "0x60806040526001600e60006101000a81548160ff0219169083151502179055503480156200002c57600080fd5b5060405162004f9138038062004f91833981810160405260e08110156200005257600080fd5b81019080805190602001909291908051906020019092919080519060200190929190805190602001909291908051906020019092919080519060200190929190805190602001909291905050506000620000b1620003e760201b60201c565b9050806000806101000a81548173ffffffffffffffffffffffffffffffffffffffff021916908373ffffffffffffffffffffffffffffffffffffffff1602179055508073ffffffffffffffffffffffffffffffffffffffff16600073ffffffffffffffffffffffffffffffffffffffff167f8be0079c531659141344cd1fd0a4f28419497f9722a3daafe3b4186f6b6457e060405160405180910390a35086600360006101000a81548173ffffffffffffffffffffffffffffffffffffffff021916908373ffffffffffffffffffffffffffffffffffffffff16021790555085600460006101000a81548173ffffffffffffffffffffffffffffffffffffffff021916908373ffffffffffffffffffffffffffffffffffffffff16021790555084600660007f5745544800000000000000000000000000000000000000000000000000000000815260200190815260200160002060006101000a81548173ffffffffffffffffffffffffffffffffffffffff021916908373ffffffffffffffffffffffffffffffffffffffff16021790555083600760007f5745544800000000000000000000000000000000000000000000000000000000815260200190815260200160002060006101000a81548173ffffffffffffffffffffffffffffffffffffffff021916908373ffffffffffffffffffffffffffffffffffffffff16021790555082600660007f4348414900000000000000000000000000000000000000000000000000000000815260200190815260200160002060006101000a81548173ffffffffffffffffffffffffffffffffffffffff021916908373ffffffffffffffffffffffffffffffffffffffff16021790555081600760007f4348414900000000000000000000000000000000000000000000000000000000815260200190815260200160002060006101000a81548173ffffffffffffffffffffffffffffffffffffffff021916908373ffffffffffffffffffffffffffffffffffffffff16021790555080600560006101000a81548173ffffffffffffffffffffffffffffffffffffffff021916908373ffffffffffffffffffffffffffffffffffffffff16021790555050505050505050620003ef565b600033905090565b614b9280620003ff6000396000f3fe608060405234801561001057600080fd5b50600436106101f05760003560e01c806398cdae5a1161010f578063dd62f423116100a2578063f2fde38b11610071578063f2fde38b14610a47578063f51a391a14610a8b578063fa352c0014610aed578063fc0e74d114610b31576101f0565b8063dd62f423146108e9578063e68b7cf41461094b578063e71bdf41146109ad578063ed7eebf2146109f1576101f0565b8063c06331dc116100de578063c06331dc14610767578063c5ec0c17146107c9578063d0a3a7e414610835578063dc22cb6a1461087b576101f0565b806398cdae5a14610647578063ad5c4648146106b3578063adb9e54e146106d1578063b6dbf9ce14610749576101f0565b80637ad29f40116101875780638da5cb5b116101565780638da5cb5b146105215780638da66ed91461056b5780638e0cc176146105ad578063957aa58c14610625576101f0565b80637ad29f40146103e75780637c43a2011461044d57806380f5a44014610491578063839cd27c146104d5576101f0565b80636a146024116101c35780636a146024146102f55780636eb35aba14610319578063708520421461037b578063715018a6146103dd576101f0565b80630302aeb0146101f557806306f405fd146102575780632f2ea5de1461027b578063552033c4146102d1575b600080fd5b6102556004803603608081101561020b57600080fd5b810190808035906020019092919080359060200190929190803573ffffffffffffffffffffffffffffffffffffffff16906020019092919080359060200190929190505050610b3b565b005b61025f610e39565b604051808260ff1660ff16815260200191505060405180910390f35b6102bb6004803603606081101561029157600080fd5b81019080803590602001909291908035906020019092919080359060200190929190505050610e3e565b6040518082815260200191505060405180910390f35b6102d9611166565b604051808260ff1660ff16815260200191505060405180910390f35b6102fd61116b565b604051808260ff1660ff16815260200191505060405180910390f35b6103796004803603608081101561032f57600080fd5b810190808035906020019092919080359060200190929190803573ffffffffffffffffffffffffffffffffffffffff16906020019092919080359060200190929190505050611170565b005b6103db6004803603608081101561039157600080fd5b810190808035906020019092919080359060200190929190803573ffffffffffffffffffffffffffffffffffffffff1690602001909291908035906020019092919050505061157d565b005b6103e5611d54565b005b610433600480360360408110156103fd57600080fd5b8101908080359060200190929190803573ffffffffffffffffffffffffffffffffffffffff169060200190929190505050611edc565b604051808215151515815260200191505060405180910390f35b61048f6004803603602081101561046357600080fd5b81019080803573ffffffffffffffffffffffffffffffffffffffff169060200190929190505050611efc565b005b6104d3600480360360208110156104a757600080fd5b81019080803573ffffffffffffffffffffffffffffffffffffffff169060200190929190505050612145565b005b61050b600480360360408110156104eb57600080fd5b8101908080359060200190929190803590602001909291905050506122cb565b6040518082815260200191505060405180910390f35b6105296122f0565b604051808273ffffffffffffffffffffffffffffffffffffffff1673ffffffffffffffffffffffffffffffffffffffff16815260200191505060405180910390f35b6105976004803603602081101561058157600080fd5b8101908080359060200190929190505050612319565b6040518082815260200191505060405180910390f35b610623600480360360808110156105c357600080fd5b8101908080359060200190929190803573ffffffffffffffffffffffffffffffffffffffff169060200190929190803573ffffffffffffffffffffffffffffffffffffffff16906020019092919080359060200190929190505050612331565b005b61062d612a11565b604051808215151515815260200191505060405180910390f35b61069d6004803603606081101561065d57600080fd5b810190808035906020019092919080359060200190929190803573ffffffffffffffffffffffffffffffffffffffff169060200190929190505050612a24565b6040518082815260200191505060405180910390f35b6106bb612a56565b6040518082815260200191505060405180910390f35b610747600480360360808110156106e757600080fd5b8101908080359060200190929190803573ffffffffffffffffffffffffffffffffffffffff169060200190929190803573ffffffffffffffffffffffffffffffffffffffff16906020019092919080359060200190929190505050612a7a565b005b610751613079565b6040518082815260200191505060405180910390f35b6107b36004803603604081101561077d57600080fd5b8101908080359060200190929190803573ffffffffffffffffffffffffffffffffffffffff16906020019092919050505061309d565b6040518082815260200191505060405180910390f35b61081f600480360360608110156107df57600080fd5b810190808035906020019092919080359060200190929190803573ffffffffffffffffffffffffffffffffffffffff1690602001909291905050506131c2565b6040518082815260200191505060405180910390f35b6108616004803603602081101561084b57600080fd5b8101908080359060200190929190505050613239565b604051808215151515815260200191505060405180910390f35b6108a76004803603602081101561089157600080fd5b81019080803590602001909291905050506132a5565b604051808273ffffffffffffffffffffffffffffffffffffffff1673ffffffffffffffffffffffffffffffffffffffff16815260200191505060405180910390f35b610935600480360360408110156108ff57600080fd5b8101908080359060200190929190803573ffffffffffffffffffffffffffffffffffffffff1690602001909291905050506132d8565b6040518082815260200191505060405180910390f35b6109976004803603604081101561096157600080fd5b8101908080359060200190929190803573ffffffffffffffffffffffffffffffffffffffff1690602001909291905050506132fd565b6040518082815260200191505060405180910390f35b6109ef600480360360208110156109c357600080fd5b81019080803573ffffffffffffffffffffffffffffffffffffffff16906020019092919050505061334f565b005b610a3160048036036060811015610a0757600080fd5b81019080803590602001909291908035906020019092919080359060200190929190505050613451565b6040518082815260200191505060405180910390f35b610a8960048036036020811015610a5d57600080fd5b81019080803573ffffffffffffffffffffffffffffffffffffffff169060200190929190505050613779565b005b610aeb60048036036080811015610aa157600080fd5b8101908080359060200190929190803573ffffffffffffffffffffffffffffffffffffffff1690602001909291908035906020019092919080359060200190929190505050613986565b005b610b2f60048036036020811015610b0357600080fd5b81019080803573ffffffffffffffffffffffffffffffffffffffff169060200190929190505050613fcc565b005b610b396140ce565b005b837f5745544800000000000000000000000000000000000000000000000000000000811480610b8957507f434841490000000000000000000000000000000000000000000000000000000081145b610bfb576040517f08c379a000000000000000000000000000000000000000000000000000000000815260040180806020018281038252601f8152602001807f4465616c65723a20556e7265636f676e697a656420636f6c6c61746572616c0081525060200191505060405180910390fd5b83610c0581613239565b610c77576040517f08c379a000000000000000000000000000000000000000000000000000000000815260040180806020018281038252601b8152602001807f4465616c65723a20556e7265636f676e697a656420736572696573000000000081525060200191505060405180910390fd5b60011515600e60009054906101000a900460ff16151514610ce3576040517f08c379a0000000000000000000000000000000000000000000000000000000008152600401808060200182810382526023815260200180614b196023913960400191505060405180910390fd5b6000610d5084600b60008a8152602001908152602001600020600089815260200190815260200160002060008873ffffffffffffffffffffffffffffffffffffffff1673ffffffffffffffffffffffffffffffffffffffff16815260200190815260200160002054614207565b90506008600087815260200190815260200160002060009054906101000a900473ffffffffffffffffffffffffffffffffffffffff1673ffffffffffffffffffffffffffffffffffffffff16639dc29fac86836040518363ffffffff1660e01b8152600401808373ffffffffffffffffffffffffffffffffffffffff1673ffffffffffffffffffffffffffffffffffffffff16815260200182815260200192505050600060405180830381600087803b158015610e0c57600080fd5b505af1158015610e20573d6000803e3d6000fd5b50505050610e3087878784614220565b50505050505050565b602d81565b60006008600084815260200190815260200160002060009054906101000a900473ffffffffffffffffffffffffffffffffffffffff1673ffffffffffffffffffffffffffffffffffffffff1663ae4e7fdf6040518163ffffffff1660e01b815260040160206040518083038186803b158015610eb957600080fd5b505afa158015610ecd573d6000803e3d6000fd5b505050506040513d6020811015610ee357600080fd5b81019080805190602001909291905050501561115b577f5745544800000000000000000000000000000000000000000000000000000000841415610ff357610fec6008600085815260200190815260200160002060009054906101000a900473ffffffffffffffffffffffffffffffffffffffff1673ffffffffffffffffffffffffffffffffffffffff1663abf1614b6040518163ffffffff1660e01b8152600401602060405180830381600087803b158015610f9f57600080fd5b505af1158015610fb3573d6000803e3d6000fd5b505050506040513d6020811015610fc957600080fd5b8101908080519060200190929190505050601b846144339092919063ffffffff16565b905061115f565b7f43484149000000000000000000000000000000000000000000000000000000008414156110ed576110e66008600085815260200190815260200160002060009054906101000a900473ffffffffffffffffffffffffffffffffffffffff1673ffffffffffffffffffffffffffffffffffffffff1663cb2401986040518163ffffffff1660e01b8152600401602060405180830381600087803b15801561109957600080fd5b505af11580156110ad573d6000803e3d6000fd5b505050506040513d60208110156110c357600080fd5b8101908080519060200190929190505050601b846144339092919063ffffffff16565b905061115f565b6040517f08c379a000000000000000000000000000000000000000000000000000000000815260040180806020018281038252601e8152602001807f4465616c65723a20556e737570706f7274656420636f6c6c61746572616c000081525060200191505060405180910390fd5b8190505b9392505050565b601b81565b601281565b837f57455448000000000000000000000000000000000000000000000000000000008114806111be57507f434841490000000000000000000000000000000000000000000000000000000081145b611230576040517f08c379a000000000000000000000000000000000000000000000000000000000815260040180806020018281038252601f8152602001807f4465616c65723a20556e7265636f676e697a656420636f6c6c61746572616c0081525060200191505060405180910390fd5b8361123a81613239565b6112ac576040517f08c379a000000000000000000000000000000000000000000000000000000000815260040180806020018281038252601b8152602001807f4465616c65723a20556e7265636f676e697a656420736572696573000000000081525060200191505060405180910390fd5b60011515600e60009054906101000a900460ff16151514611318576040517f08c379a0000000000000000000000000000000000000000000000000000000008152600401808060200182810382526023815260200180614b196023913960400191505060405180910390fd5b600061132e846113298989896131c2565b614207565b9050600460009054906101000a900473ffffffffffffffffffffffffffffffffffffffff1673ffffffffffffffffffffffffffffffffffffffff166323b872dd86600360009054906101000a900473ffffffffffffffffffffffffffffffffffffffff16846040518463ffffffff1660e01b8152600401808473ffffffffffffffffffffffffffffffffffffffff1673ffffffffffffffffffffffffffffffffffffffff1681526020018373ffffffffffffffffffffffffffffffffffffffff1673ffffffffffffffffffffffffffffffffffffffff1681526020018281526020019350505050602060405180830381600087803b15801561142f57600080fd5b505af1158015611443573d6000803e3d6000fd5b505050506040513d602081101561145957600080fd5b81019080805190602001909291905050506114dc576040517f08c379a00000000000000000000000000000000000000000000000000000000081526004018080602001828103825260198152602001807f4465616c65723a20446169207472616e73666572206661696c0000000000000081525060200191505060405180910390fd5b600360009054906101000a900473ffffffffffffffffffffffffffffffffffffffff1673ffffffffffffffffffffffffffffffffffffffff1663adb987e36040518163ffffffff1660e01b8152600401600060405180830381600087803b15801561154657600080fd5b505af115801561155a573d6000803e3d6000fd5b5050505061157487878761156f8b8b87613451565b614220565b50505050505050565b837f57455448000000000000000000000000000000000000000000000000000000008114806115cb57507f434841490000000000000000000000000000000000000000000000000000000081145b61163d576040517f08c379a000000000000000000000000000000000000000000000000000000000815260040180806020018281038252601f8152602001807f4465616c65723a20556e7265636f676e697a656420636f6c6c61746572616c0081525060200191505060405180910390fd5b8361164781613239565b6116b9576040517f08c379a000000000000000000000000000000000000000000000000000000000815260040180806020018281038252601b8152602001807f4465616c65723a20556e7265636f676e697a656420736572696573000000000081525060200191505060405180910390fd5b836040518060400160405280601f81526020017f4465616c65723a204f6e6c7920486f6c646572204f722044656c6567617465008152508173ffffffffffffffffffffffffffffffffffffffff163373ffffffffffffffffffffffffffffffffffffffff1614806117b05750600260008373ffffffffffffffffffffffffffffffffffffffff1673ffffffffffffffffffffffffffffffffffffffff16815260200190815260200160002060003373ffffffffffffffffffffffffffffffffffffffff1673ffffffffffffffffffffffffffffffffffffffff16815260200190815260200160002060009054906101000a900460ff165b8190611857576040517f08c379a00000000000000000000000000000000000000000000000000000000081526004018080602001828103825283818151815260200191508051906020019080838360005b8381101561181c578082015181840152602081019050611801565b50505050905090810190601f1680156118495780820380516001836020036101000a031916815260200191505b509250505060405180910390fd5b5060011515600e60009054906101000a900460ff161515146118c4576040517f08c379a0000000000000000000000000000000000000000000000000000000008152600401808060200182810382526023815260200180614b196023913960400191505060405180910390fd5b600115156008600089815260200190815260200160002060009054906101000a900473ffffffffffffffffffffffffffffffffffffffff1673ffffffffffffffffffffffffffffffffffffffff1663ae4e7fdf6040518163ffffffff1660e01b815260040160206040518083038186803b15801561194157600080fd5b505afa158015611955573d6000803e3d6000fd5b505050506040513d602081101561196b57600080fd5b8101908080519060200190929190505050151514156119f2576040517f08c379a00000000000000000000000000000000000000000000000000000000081526004018080602001828103825260188152602001807f4465616c65723a204e6f206d617475726520626f72726f77000000000000000081525060200191505060405180910390fd5b6000600b60008a8152602001908152602001600020600089815260200190815260200160002060008873ffffffffffffffffffffffffffffffffffffffff1673ffffffffffffffffffffffffffffffffffffffff16815260200190815260200160002054148015611a64575060008510155b15611a7457611a73600a61446b565b5b611ae885600b60008b815260200190815260200160002060008a815260200190815260200160002060008973ffffffffffffffffffffffffffffffffffffffff1673ffffffffffffffffffffffffffffffffffffffff1681526020019081526020016000205461461890919063ffffffff16565b600b60008a8152602001908152602001600020600089815260200190815260200160002060008873ffffffffffffffffffffffffffffffffffffffff1673ffffffffffffffffffffffffffffffffffffffff16815260200190815260200160002081905550611b8485600d60008b815260200190815260200160002060008a81526020019081526020016000205461461890919063ffffffff16565b600d60008a8152602001908152602001600020600089815260200190815260200160002081905550611bb68887611edc565b611c28576040517f08c379a00000000000000000000000000000000000000000000000000000000081526004018080602001828103825260158152602001807f4465616c65723a20546f6f206d7563682064656274000000000000000000000081525060200191505060405180910390fd5b6008600088815260200190815260200160002060009054906101000a900473ffffffffffffffffffffffffffffffffffffffff1673ffffffffffffffffffffffffffffffffffffffff166340c10f1987876040518363ffffffff1660e01b8152600401808373ffffffffffffffffffffffffffffffffffffffff1673ffffffffffffffffffffffffffffffffffffffff16815260200182815260200192505050600060405180830381600087803b158015611ce257600080fd5b505af1158015611cf6573d6000803e3d6000fd5b505050508573ffffffffffffffffffffffffffffffffffffffff1687897f3dc0ed286b1afbc2228a1e7f81fc3f66aa9f423dca0c6a283eafa53e93adefbe886040518082815260200191505060405180910390a45050505050505050565b611d5c6146a0565b73ffffffffffffffffffffffffffffffffffffffff166000809054906101000a900473ffffffffffffffffffffffffffffffffffffffff1673ffffffffffffffffffffffffffffffffffffffff1614611e1d576040517f08c379a00000000000000000000000000000000000000000000000000000000081526004018080602001828103825260208152602001807f4f776e61626c653a2063616c6c6572206973206e6f7420746865206f776e657281525060200191505060405180910390fd5b600073ffffffffffffffffffffffffffffffffffffffff166000809054906101000a900473ffffffffffffffffffffffffffffffffffffffff1673ffffffffffffffffffffffffffffffffffffffff167f8be0079c531659141344cd1fd0a4f28419497f9722a3daafe3b4186f6b6457e060405160405180910390a360008060006101000a81548173ffffffffffffffffffffffffffffffffffffffff021916908373ffffffffffffffffffffffffffffffffffffffff160217905550565b6000611ee883836132fd565b611ef2848461309d565b1015905092915050565b611f046146a0565b73ffffffffffffffffffffffffffffffffffffffff166000809054906101000a900473ffffffffffffffffffffffffffffffffffffffff1673ffffffffffffffffffffffffffffffffffffffff1614611fc5576040517f08c379a00000000000000000000000000000000000000000000000000000000081526004018080602001828103825260208152602001807f4f776e61626c653a2063616c6c6572206973206e6f7420746865206f776e657281525060200191505060405180910390fd5b60008173ffffffffffffffffffffffffffffffffffffffff1663204f83f96040518163ffffffff1660e01b815260040160206040518083038186803b15801561200d57600080fd5b505afa158015612021573d6000803e3d6000fd5b505050506040513d602081101561203757600080fd5b8101908080519060200190929190505050905061205381613239565b156120c6576040517f08c379a000000000000000000000000000000000000000000000000000000000815260040180806020018281038252601c8152602001807f4465616c65723a2053657269657320616c72656164792061646465640000000081525060200191505060405180910390fd5b816008600083815260200190815260200160002060006101000a81548173ffffffffffffffffffffffffffffffffffffffff021916908373ffffffffffffffffffffffffffffffffffffffff16021790555060098190806001815401808255809150506001900390600052602060002001600090919091909150555050565b61214d6146a0565b73ffffffffffffffffffffffffffffffffffffffff166000809054906101000a900473ffffffffffffffffffffffffffffffffffffffff1673ffffffffffffffffffffffffffffffffffffffff161461220e576040517f08c379a00000000000000000000000000000000000000000000000000000000081526004018080602001828103825260208152602001807f4f776e61626c653a2063616c6c6572206973206e6f7420746865206f776e657281525060200191505060405180910390fd5b60018060008373ffffffffffffffffffffffffffffffffffffffff1673ffffffffffffffffffffffffffffffffffffffff16815260200190815260200160002060006101000a81548160ff0219169083151502179055507f6a7c5f28ea564fafc8b079663a2a9b9d26fe735d97c97611484ce044f40a16e281604051808273ffffffffffffffffffffffffffffffffffffffff1673ffffffffffffffffffffffffffffffffffffffff16815260200191505060405180910390a150565b600d602052816000526040600020602052806000526040600020600091509150505481565b60008060009054906101000a900473ffffffffffffffffffffffffffffffffffffffff16905090565b600c6020528060005260406000206000915090505481565b837f574554480000000000000000000000000000000000000000000000000000000081148061237f57507f434841490000000000000000000000000000000000000000000000000000000081145b6123f1576040517f08c379a000000000000000000000000000000000000000000000000000000000815260040180806020018281038252601f8152602001807f4465616c65723a20556e7265636f676e697a656420636f6c6c61746572616c0081525060200191505060405180910390fd5b836040518060400160405280601f81526020017f4465616c65723a204f6e6c7920486f6c646572204f722044656c6567617465008152508173ffffffffffffffffffffffffffffffffffffffff163373ffffffffffffffffffffffffffffffffffffffff1614806124e85750600260008373ffffffffffffffffffffffffffffffffffffffff1673ffffffffffffffffffffffffffffffffffffffff16815260200190815260200160002060003373ffffffffffffffffffffffffffffffffffffffff1673ffffffffffffffffffffffffffffffffffffffff16815260200190815260200160002060009054906101000a900460ff165b819061258f576040517f08c379a00000000000000000000000000000000000000000000000000000000081526004018080602001828103825283818151815260200191508051906020019080838360005b83811015612554578082015181840152602081019050612539565b50505050905090810190601f1680156125815780820380516001836020036101000a031916815260200191505b509250505060405180910390fd5b5060011515600e60009054906101000a900460ff161515146125fc576040517f08c379a0000000000000000000000000000000000000000000000000000000008152600401808060200182810382526023815260200180614b196023913960400191505060405180910390fd5b61265f84600a60008a815260200190815260200160002060008973ffffffffffffffffffffffffffffffffffffffff1673ffffffffffffffffffffffffffffffffffffffff168152602001908152602001600020546146a890919063ffffffff16565b600a600089815260200190815260200160002060008873ffffffffffffffffffffffffffffffffffffffff1673ffffffffffffffffffffffffffffffffffffffff168152602001908152602001600020819055506126d984600c60008a8152602001908152602001600020546146a890919063ffffffff16565b600c6000898152602001908152602001600020819055506126fa8787611edc565b61276c576040517f08c379a00000000000000000000000000000000000000000000000000000000081526004018080602001828103825260158152602001807f4465616c65723a20546f6f206d7563682064656274000000000000000000000081525060200191505060405180910390fd5b7f574554480000000000000000000000000000000000000000000000000000000087141561285a57600360009054906101000a900473ffffffffffffffffffffffffffffffffffffffff1673ffffffffffffffffffffffffffffffffffffffff16638ac96dfc86866040518363ffffffff1660e01b8152600401808373ffffffffffffffffffffffffffffffffffffffff1673ffffffffffffffffffffffffffffffffffffffff16815260200182815260200192505050600060405180830381600087803b15801561283d57600080fd5b505af1158015612851573d6000803e3d6000fd5b50505050612945565b7f434841490000000000000000000000000000000000000000000000000000000087141561294457600360009054906101000a900473ffffffffffffffffffffffffffffffffffffffff1673ffffffffffffffffffffffffffffffffffffffff16639fa8368986866040518363ffffffff1660e01b8152600401808373ffffffffffffffffffffffffffffffffffffffff1673ffffffffffffffffffffffffffffffffffffffff16815260200182815260200192505050600060405180830381600087803b15801561292b57600080fd5b505af115801561293f573d6000803e3d6000fd5b505050505b5b6000600a600089815260200190815260200160002060008873ffffffffffffffffffffffffffffffffffffffff1673ffffffffffffffffffffffffffffffffffffffff168152602001908152602001600020541480156129a6575060008410155b156129b6576129b5600a6146f2565b5b8473ffffffffffffffffffffffffffffffffffffffff16877fce1994727cf164e30801f140b3019e0d4862d430438ab41de1144b5db719c583866000036040518082815260200191505060405180910390a350505050505050565b600e60009054906101000a900460ff1681565b600b60205282600052604060002060205281600052604060002060205280600052604060002060009250925050505481565b7f574554480000000000000000000000000000000000000000000000000000000081565b837f5745544800000000000000000000000000000000000000000000000000000000811480612ac857507f434841490000000000000000000000000000000000000000000000000000000081145b612b3a576040517f08c379a000000000000000000000000000000000000000000000000000000000815260040180806020018281038252601f8152602001807f4465616c65723a20556e7265636f676e697a656420636f6c6c61746572616c0081525060200191505060405180910390fd5b60011515600e60009054906101000a900460ff16151514612ba6576040517f08c379a0000000000000000000000000000000000000000000000000000000008152600401808060200182810382526023815260200180614b196023913960400191505060405180910390fd5b6006600086815260200190815260200160002060009054906101000a900473ffffffffffffffffffffffffffffffffffffffff1673ffffffffffffffffffffffffffffffffffffffff166323b872dd85600360009054906101000a900473ffffffffffffffffffffffffffffffffffffffff16856040518463ffffffff1660e01b8152600401808473ffffffffffffffffffffffffffffffffffffffff1673ffffffffffffffffffffffffffffffffffffffff1681526020018373ffffffffffffffffffffffffffffffffffffffff1673ffffffffffffffffffffffffffffffffffffffff1681526020018281526020019350505050602060405180830381600087803b158015612cb657600080fd5b505af1158015612cca573d6000803e3d6000fd5b505050506040513d6020811015612ce057600080fd5b8101908080519060200190929190505050612d63576040517f08c379a00000000000000000000000000000000000000000000000000000000081526004018080602001828103825260208152602001807f4465616c65723a20436f6c6c61746572616c207472616e73666572206661696c81525060200191505060405180910390fd5b7f5745544800000000000000000000000000000000000000000000000000000000851415612e1257600360009054906101000a900473ffffffffffffffffffffffffffffffffffffffff1673ffffffffffffffffffffffffffffffffffffffff16630b6500ee6040518163ffffffff1660e01b8152600401600060405180830381600087803b158015612df557600080fd5b505af1158015612e09573d6000803e3d6000fd5b50505050612ebe565b7f4348414900000000000000000000000000000000000000000000000000000000851415612ebd57600360009054906101000a900473ffffffffffffffffffffffffffffffffffffffff1673ffffffffffffffffffffffffffffffffffffffff1663653b8e816040518163ffffffff1660e01b8152600401600060405180830381600087803b158015612ea457600080fd5b505af1158015612eb8573d6000803e3d6000fd5b505050505b5b6000600a600087815260200190815260200160002060008573ffffffffffffffffffffffffffffffffffffffff1673ffffffffffffffffffffffffffffffffffffffff16815260200190815260200160002054148015612f1f575060008210155b15612f2f57612f2e600a61446b565b5b612f9282600a600088815260200190815260200160002060008673ffffffffffffffffffffffffffffffffffffffff1673ffffffffffffffffffffffffffffffffffffffff1681526020019081526020016000205461461890919063ffffffff16565b600a600087815260200190815260200160002060008573ffffffffffffffffffffffffffffffffffffffff1673ffffffffffffffffffffffffffffffffffffffff1681526020019081526020016000208190555061300c82600c60008881526020019081526020016000205461461890919063ffffffff16565b600c6000878152602001908152602001600020819055508273ffffffffffffffffffffffffffffffffffffffff16857fce1994727cf164e30801f140b3019e0d4862d430438ab41de1144b5db719c583846040518082815260200191505060405180910390a35050505050565b7f434841490000000000000000000000000000000000000000000000000000000081565b60006131ba6007600085815260200190815260200160002060009054906101000a900473ffffffffffffffffffffffffffffffffffffffff1673ffffffffffffffffffffffffffffffffffffffff1663a035b1fe6040518163ffffffff1660e01b8152600401602060405180830381600087803b15801561311d57600080fd5b505af1158015613131573d6000803e3d6000fd5b505050506040513d602081101561314757600080fd5b8101908080519060200190929190505050601b600a600087815260200190815260200160002060008673ffffffffffffffffffffffffffffffffffffffff1673ffffffffffffffffffffffffffffffffffffffff168152602001908152602001600020546144339092919063ffffffff16565b905092915050565b60006132308484600b6000888152602001908152602001600020600087815260200190815260200160002060008673ffffffffffffffffffffffffffffffffffffffff1673ffffffffffffffffffffffffffffffffffffffff16815260200190815260200160002054610e3e565b90509392505050565b60008073ffffffffffffffffffffffffffffffffffffffff166008600084815260200190815260200160002060009054906101000a900473ffffffffffffffffffffffffffffffffffffffff1673ffffffffffffffffffffffffffffffffffffffff1614159050919050565b60086020528060005260406000206000915054906101000a900473ffffffffffffffffffffffffffffffffffffffff1681565b600a602052816000526040600020602052806000526040600020600091509150505481565b60008060008090505b60098054905081101561334457613335856009838154811061332457fe5b9060005260206000200154866131c2565b82019150600181019050613306565b508091505092915050565b6001600260003373ffffffffffffffffffffffffffffffffffffffff1673ffffffffffffffffffffffffffffffffffffffff16815260200190815260200160002060008373ffffffffffffffffffffffffffffffffffffffff1673ffffffffffffffffffffffffffffffffffffffff16815260200190815260200160002060006101000a81548160ff0219169083151502179055508073ffffffffffffffffffffffffffffffffffffffff163373ffffffffffffffffffffffffffffffffffffffff167f045b0fef01772d2fbba53dbd38c9777806eac0865b00af43abcfbcaf50da92066001604051808215151515815260200191505060405180910390a350565b60006008600084815260200190815260200160002060009054906101000a900473ffffffffffffffffffffffffffffffffffffffff1673ffffffffffffffffffffffffffffffffffffffff1663ae4e7fdf6040518163ffffffff1660e01b815260040160206040518083038186803b1580156134cc57600080fd5b505afa1580156134e0573d6000803e3d6000fd5b505050506040513d60208110156134f657600080fd5b81019080805190602001909291905050501561376e577f5745544800000000000000000000000000000000000000000000000000000000841415613606576135ff6008600085815260200190815260200160002060009054906101000a900473ffffffffffffffffffffffffffffffffffffffff1673ffffffffffffffffffffffffffffffffffffffff1663abf1614b6040518163ffffffff1660e01b8152600401602060405180830381600087803b1580156135b257600080fd5b505af11580156135c6573d6000803e3d6000fd5b505050506040513d60208110156135dc57600080fd5b8101908080519060200190929190505050601b846147da9092919063ffffffff16565b9050613772565b7f4348414900000000000000000000000000000000000000000000000000000000841415613700576136f96008600085815260200190815260200160002060009054906101000a900473ffffffffffffffffffffffffffffffffffffffff1673ffffffffffffffffffffffffffffffffffffffff1663cb2401986040518163ffffffff1660e01b8152600401602060405180830381600087803b1580156136ac57600080fd5b505af11580156136c0573d6000803e3d6000fd5b505050506040513d60208110156136d657600080fd5b8101908080519060200190929190505050601b846147da9092919063ffffffff16565b9050613772565b6040517f08c379a000000000000000000000000000000000000000000000000000000000815260040180806020018281038252601e8152602001807f4465616c65723a20556e737570706f7274656420636f6c6c61746572616c000081525060200191505060405180910390fd5b8190505b9392505050565b6137816146a0565b73ffffffffffffffffffffffffffffffffffffffff166000809054906101000a900473ffffffffffffffffffffffffffffffffffffffff1673ffffffffffffffffffffffffffffffffffffffff1614613842576040517f08c379a00000000000000000000000000000000000000000000000000000000081526004018080602001828103825260208152602001807f4f776e61626c653a2063616c6c6572206973206e6f7420746865206f776e657281525060200191505060405180910390fd5b600073ffffffffffffffffffffffffffffffffffffffff168173ffffffffffffffffffffffffffffffffffffffff1614156138c8576040517f08c379a0000000000000000000000000000000000000000000000000000000008152600401808060200182810382526026815260200180614af36026913960400191505060405180910390fd5b8073ffffffffffffffffffffffffffffffffffffffff166000809054906101000a900473ffffffffffffffffffffffffffffffffffffffff1673ffffffffffffffffffffffffffffffffffffffff167f8be0079c531659141344cd1fd0a4f28419497f9722a3daafe3b4186f6b6457e060405160405180910390a3806000806101000a81548173ffffffffffffffffffffffffffffffffffffffff021916908373ffffffffffffffffffffffffffffffffffffffff16021790555050565b837f57455448000000000000000000000000000000000000000000000000000000008114806139d457507f434841490000000000000000000000000000000000000000000000000000000081145b613a46576040517f08c379a000000000000000000000000000000000000000000000000000000000815260040180806020018281038252601f8152602001807f4465616c65723a20556e7265636f676e697a656420636f6c6c61746572616c0081525060200191505060405180910390fd5b6040518060400160405280601681526020017f4465616c65723a204e6f7420417574686f72697a656400000000000000000000815250600160003373ffffffffffffffffffffffffffffffffffffffff1673ffffffffffffffffffffffffffffffffffffffff16815260200190815260200160002060009054906101000a900460ff168190613b70576040517f08c379a00000000000000000000000000000000000000000000000000000000081526004018080602001828103825283818151815260200191508051906020019080838360005b83811015613b35578082015181840152602081019050613b1a565b50505050905090810190601f168015613b625780820380516001836020036101000a031916815260200191505b509250505060405180910390fd5b50613c0b836040518060400160405280601d81526020017f4465616c65723a204e6f7420656e6f75676820636f6c6c61746572616c000000815250600a60008a815260200190815260200160002060008973ffffffffffffffffffffffffffffffffffffffff1673ffffffffffffffffffffffffffffffffffffffff168152602001908152602001600020546148129092919063ffffffff16565b600a600088815260200190815260200160002060008773ffffffffffffffffffffffffffffffffffffffff1673ffffffffffffffffffffffffffffffffffffffff16815260200190815260200160002081905550613c8583600c6000898152602001908152602001600020546146a890919063ffffffff16565b600c6000888152602001908152602001600020819055506000600a600088815260200190815260200160002060008773ffffffffffffffffffffffffffffffffffffffff1673ffffffffffffffffffffffffffffffffffffffff168152602001908152602001600020541415613d0057613cff600a6146f2565b5b600080600090505b600980549050811015613f4d57600060098281548110613d2457fe5b906000526020600020015490506000613d59613d418b848c6131c2565b613d54868b6146a890919063ffffffff16565b614207565b9050613d6e818561461890919063ffffffff16565b9350613dee613d7e8b8484613451565b600b60008d8152602001908152602001600020600085815260200190815260200160002060008c73ffffffffffffffffffffffffffffffffffffffff1673ffffffffffffffffffffffffffffffffffffffff168152602001908152602001600020546146a890919063ffffffff16565b600b60008c8152602001908152602001600020600084815260200190815260200160002060008b73ffffffffffffffffffffffffffffffffffffffff1673ffffffffffffffffffffffffffffffffffffffff16815260200190815260200160002081905550613e94613e618b8484613451565b600d60008d81526020019081526020016000206000858152602001908152602001600020546146a890919063ffffffff16565b600d60008c81526020019081526020016000206000848152602001908152602001600020819055506000600b60008c8152602001908152602001600020600084815260200190815260200160002060008b73ffffffffffffffffffffffffffffffffffffffff1673ffffffffffffffffffffffffffffffffffffffff168152602001908152602001600020541415613f3157613f30600a6146f2565b5b87841415613f40575050613f4d565b5050600181019050613d08565b50848114613fc3576040517f08c379a000000000000000000000000000000000000000000000000000000000815260040180806020018281038252601c8152602001807f4465616c65723a204e6f7420656e6f756768207573657220646562740000000081525060200191505060405180910390fd5b50505050505050565b6000600260003373ffffffffffffffffffffffffffffffffffffffff1673ffffffffffffffffffffffffffffffffffffffff16815260200190815260200160002060008373ffffffffffffffffffffffffffffffffffffffff1673ffffffffffffffffffffffffffffffffffffffff16815260200190815260200160002060006101000a81548160ff0219169083151502179055508073ffffffffffffffffffffffffffffffffffffffff163373ffffffffffffffffffffffffffffffffffffffff167f045b0fef01772d2fbba53dbd38c9777806eac0865b00af43abcfbcaf50da92066000604051808215151515815260200191505060405180910390a350565b60001515600360009054906101000a900473ffffffffffffffffffffffffffffffffffffffff1673ffffffffffffffffffffffffffffffffffffffff1663957aa58c6040518163ffffffff1660e01b815260040160206040518083038186803b15801561413a57600080fd5b505afa15801561414e573d6000803e3d6000fd5b505050506040513d602081101561416457600080fd5b81019080805190602001909291905050501515146141ea576040517f08c379a00000000000000000000000000000000000000000000000000000000081526004018080602001828103825260188152602001807f4465616c65723a205472656173757279206973206c697665000000000000000081525060200191505060405180910390fd5b6000600e60006101000a81548160ff021916908315150217905550565b60008183106142165781614218565b825b905092915050565b61429481600b6000878152602001908152602001600020600086815260200190815260200160002060008573ffffffffffffffffffffffffffffffffffffffff1673ffffffffffffffffffffffffffffffffffffffff168152602001908152602001600020546146a890919063ffffffff16565b600b6000868152602001908152602001600020600085815260200190815260200160002060008473ffffffffffffffffffffffffffffffffffffffff1673ffffffffffffffffffffffffffffffffffffffff1681526020019081526020016000208190555061433081600d60008781526020019081526020016000206000868152602001908152602001600020546146a890919063ffffffff16565b600d60008681526020019081526020016000206000858152602001908152602001600020819055506000600b6000868152602001908152602001600020600085815260200190815260200160002060008473ffffffffffffffffffffffffffffffffffffffff1673ffffffffffffffffffffffffffffffffffffffff168152602001908152602001600020541480156143ca575060008110155b156143da576143d9600a6146f2565b5b8173ffffffffffffffffffffffffffffffffffffffff1683857f3dc0ed286b1afbc2228a1e7f81fc3f66aa9f423dca0c6a283eafa53e93adefbe846000036040518082815260200191505060405180910390a450505050565b6000614462614441836148d2565b614454858761495c90919063ffffffff16565b6149e290919063ffffffff16565b90509392505050565b600560009054906101000a900473ffffffffffffffffffffffffffffffffffffffff1673ffffffffffffffffffffffffffffffffffffffff166323b872dd3330846040518463ffffffff1660e01b8152600401808473ffffffffffffffffffffffffffffffffffffffff1673ffffffffffffffffffffffffffffffffffffffff1681526020018373ffffffffffffffffffffffffffffffffffffffff1673ffffffffffffffffffffffffffffffffffffffff1681526020018281526020019350505050602060405180830381600087803b15801561454857600080fd5b505af115801561455c573d6000803e3d6000fd5b505050506040513d602081101561457257600080fd5b810190808051906020019092919050505061461557600560009054906101000a900473ffffffffffffffffffffffffffffffffffffffff1673ffffffffffffffffffffffffffffffffffffffff1663a0712d68826040518263ffffffff1660e01b815260040180828152602001915050600060405180830381600087803b1580156145fc57600080fd5b505af1158015614610573d6000803e3d6000fd5b505050505b50565b600080828401905083811015614696576040517f08c379a000000000000000000000000000000000000000000000000000000000815260040180806020018281038252601b8152602001807f536166654d6174683a206164646974696f6e206f766572666c6f77000000000081525060200191505060405180910390fd5b8091505092915050565b600033905090565b60006146ea83836040518060400160405280601e81526020017f536166654d6174683a207375627472616374696f6e206f766572666c6f770000815250614812565b905092915050565b600560009054906101000a900473ffffffffffffffffffffffffffffffffffffffff1673ffffffffffffffffffffffffffffffffffffffff1663a9059cbb33836040518363ffffffff1660e01b8152600401808373ffffffffffffffffffffffffffffffffffffffff1673ffffffffffffffffffffffffffffffffffffffff16815260200182815260200192505050602060405180830381600087803b15801561479b57600080fd5b505af11580156147af573d6000803e3d6000fd5b505050506040513d60208110156147c557600080fd5b81019080805190602001909291905050505050565b6000614809836147fb6147ec856148d2565b8761495c90919063ffffffff16565b6149e290919063ffffffff16565b90509392505050565b60008383111582906148bf576040517f08c379a00000000000000000000000000000000000000000000000000000000081526004018080602001828103825283818151815260200191508051906020019080838360005b83811015614884578082015181840152602081019050614869565b50505050905090810190601f1680156148b15780820380516001836020036101000a031916815260200191505b509250505060405180910390fd5b5060008385039050809150509392505050565b6000604d8260ff16111561494e576040517f08c379a00000000000000000000000000000000000000000000000000000000081526004018080602001828103825260118152602001807f546f6f206d616e7920646563696d616c7300000000000000000000000000000081525060200191505060405180910390fd5b8160ff16600a0a9050919050565b60008083141561496f57600090506149dc565b600082840290508284828161498057fe5b04146149d7576040517f08c379a0000000000000000000000000000000000000000000000000000000008152600401808060200182810382526021815260200180614b3c6021913960400191505060405180910390fd5b809150505b92915050565b6000614a2483836040518060400160405280601a81526020017f536166654d6174683a206469766973696f6e206279207a65726f000000000000815250614a2c565b905092915050565b60008083118290614ad8576040517f08c379a00000000000000000000000000000000000000000000000000000000081526004018080602001828103825283818151815260200191508051906020019080838360005b83811015614a9d578082015181840152602081019050614a82565b50505050905090810190601f168015614aca5780820380516001836020036101000a031916815260200191505b509250505060405180910390fd5b506000838581614ae457fe5b04905080915050939250505056fe4f776e61626c653a206e6577206f776e657220697320746865207a65726f20616464726573734465616c65723a204e6f7420617661696c61626c6520647572696e6720756e77696e64536166654d6174683a206d756c7469706c69636174696f6e206f766572666c6f77a264697066735822122036fad87073002b1104a6f6a0f274655bcc65417e96ba759ec94181987e96060864736f6c63430006020033",
  "source": "pragma solidity ^0.6.2;\n\nimport \"./helpers/Orchestrated.sol\";\nimport \"@hq20/contracts/contracts/math/DecimalMath.sol\";\nimport \"@openzeppelin/contracts/math/Math.sol\";\nimport \"@openzeppelin/contracts/math/SafeMath.sol\";\nimport \"@openzeppelin/contracts/token/ERC20/IERC20.sol\";\nimport \"./interfaces/IChai.sol\";\nimport \"./interfaces/IGasToken.sol\";\nimport \"./interfaces/IDealer.sol\";\nimport \"./interfaces/IOracle.sol\";\nimport \"./interfaces/ITreasury.sol\";\nimport \"./interfaces/IYDai.sol\";\nimport \"./helpers/Constants.sol\";\nimport \"./helpers/Delegable.sol\";\n// import \"@nomiclabs/buidler/console.sol\";\n\n/// @dev A dealer takes collateral and issues yDai.\ncontract Dealer is IDealer, Orchestrated(), Delegable(), Constants {\n    using SafeMath for uint256;\n    using DecimalMath for uint256;\n    using DecimalMath for uint8;\n\n    event Posted(bytes32 indexed collateral, address indexed user, int256 amount);\n    event Borrowed(bytes32 indexed collateral, uint256 indexed maturity, address indexed user, int256 amount);\n\n    ITreasury internal _treasury;\n    IERC20 internal _dai;\n    IGasToken internal _gasToken;\n    mapping(bytes32 => IERC20) internal _token;                       // Weth or Chai\n    mapping(bytes32 => IOracle) internal _oracle;                     // WethOracle or ChaiOracle\n    mapping(uint256 => IYDai) public override series;                 // YDai series, indexed by maturity\n    uint256[] internal seriesIterator;                                // We need to know all the series\n\n    mapping(bytes32 => mapping(address => uint256)) public override posted;               // Collateral posted by each user\n    mapping(bytes32 => mapping(uint256 => mapping(address => uint256))) public debtYDai;  // Debt owed by each user, by series\n\n    mapping(bytes32 => uint256) public override systemPosted;                        // Sum of collateral posted by all users\n    mapping(bytes32 => mapping(uint256 => uint256)) public override systemDebtYDai;  // Sum of debt owed by all users, by series\n\n    bool public live = true;\n\n    constructor (\n        address treasury_,\n        address dai_,\n        address weth_,\n        address wethOracle_,\n        address chai_,\n        address chaiOracle_,\n        address gasToken_\n    ) public {\n        _treasury = ITreasury(treasury_);\n        _dai = IERC20(dai_);\n        _token[WETH] = IERC20(weth_);\n        _oracle[WETH] = IOracle(wethOracle_);\n        _token[CHAI] = IERC20(chai_);\n        _oracle[CHAI] = IOracle(chaiOracle_);\n        _gasToken = IGasToken(gasToken_);\n    }\n\n    modifier onlyLive() {\n        require(live == true, \"Dealer: Not available during unwind\");\n        _;\n    }\n\n    modifier validSeries(uint256 maturity) {\n        require(\n            containsSeries(maturity),\n            \"Dealer: Unrecognized series\"\n        );\n        _;\n    }\n\n    modifier validCollateral(bytes32 collateral) {\n        require(\n            collateral == WETH || collateral == CHAI,\n            \"Dealer: Unrecognized collateral\"\n        );\n        _;\n    }\n\n    /// @dev Disables post, withdraw, borrow and repay. To be called only when Treasury shuts down.\n    function shutdown() public override {\n        require(\n            _treasury.live() == false,\n            \"Dealer: Treasury is live\"\n        );\n        live = false;\n    }\n\n    /// @dev Returns if a series has been added to the Dealer, for a given series identified by maturity\n    function containsSeries(uint256 maturity) public view returns (bool) {\n        return address(series[maturity]) != address(0);\n    }\n\n    /// @dev Adds an yDai series to this Dealer\n    function addSeries(address yDaiContract) public onlyOwner {\n        uint256 maturity = IYDai(yDaiContract).maturity();\n        require(\n            !containsSeries(maturity),\n            \"Dealer: Series already added\"\n        );\n        series[maturity] = IYDai(yDaiContract);\n        seriesIterator.push(maturity);\n    }\n\n    /// @dev Returns the dai equivalent of an yDai amount, for a given series identified by maturity\n    function inDai(bytes32 collateral, uint256 maturity, uint256 yDaiAmount) public returns (uint256) {\n        if (series[maturity].isMature()){\n            if (collateral == WETH){\n                return yDaiAmount.muld(series[maturity].rateGrowth(), RAY);\n            } else if (collateral == CHAI) {\n                return yDaiAmount.muld(series[maturity].chiGrowth(), RAY);\n            } else {\n                revert(\"Dealer: Unsupported collateral\");\n            }\n        } else {\n            return yDaiAmount;\n        }\n    }\n\n    /// @dev Returns the yDai equivalent of a dai amount, for a given series identified by maturity\n    function inYDai(bytes32 collateral, uint256 maturity, uint256 daiAmount) public returns (uint256) {\n        if (series[maturity].isMature()){\n            if (collateral == WETH){\n                return daiAmount.divd(series[maturity].rateGrowth(), RAY);\n            } else if (collateral == CHAI) {\n                return daiAmount.divd(series[maturity].chiGrowth(), RAY);\n            } else {\n                revert(\"Dealer: Unsupported collateral\");\n            }\n        } else {\n            return daiAmount;\n        }\n    }\n\n    /// @dev Return debt in dai of an user, for a given collateral and series identified by maturity\n    //\n    //                        rate_now\n    // debt_now = debt_mat * ----------\n    //                        rate_mat\n    //\n    function debtDai(bytes32 collateral, uint256 maturity, address user) public returns (uint256) {\n        return inDai(collateral, maturity, debtYDai[collateral][maturity][user]);\n    }\n\n    /// @dev Returns the total debt of an user, for a given collateral, across all series, in Dai\n    function totalDebtDai(bytes32 collateral, address user) public override returns (uint256) {\n        uint256 totalDebt;\n        for (uint256 i = 0; i < seriesIterator.length; i += 1) {\n            // TODO: Skip next line if debtYDai[collateral][maturity][user] == 0\n            totalDebt = totalDebt + debtDai(collateral, seriesIterator[i], user);\n        } // We don't expect hundreds of maturities per dealer\n        return totalDebt;\n    }\n\n    /// @dev Maximum borrowing power of an user in dai for a given collateral\n    //\n    // powerOf[user](wad) = posted[user](wad) * oracle.price()(ray)\n    //\n    function powerOf(bytes32 collateral, address user) public returns (uint256) {\n        // dai = price * collateral\n        return posted[collateral][user].muld(_oracle[collateral].price(), RAY);\n    }\n\n    /// @dev Return if the borrowing power for a given collateral of an user is equal or greater than its debt for the same collateral\n    function isCollateralized(bytes32 collateral, address user) public override returns (bool) {\n        return powerOf(collateral, user) >= totalDebtDai(collateral, user);\n    }\n\n    /// @dev Takes collateral _token from `from` address, and credits it to `to` collateral account.\n    // from --- Token ---> us(to)\n    function post(bytes32 collateral, address from, address to, uint256 amount)\n        public override \n        validCollateral(collateral)\n        onlyLive\n    {\n        require(\n            _token[collateral].transferFrom(from, address(_treasury), amount),\n            \"Dealer: Collateral transfer fail\"\n        );\n\n        if (collateral == WETH){ // TODO: Refactor Treasury to be `push(collateral, amount)`\n            _treasury.pushWeth();\n        } else if (collateral == CHAI) {\n            _treasury.pushChai();\n        }\n        \n        if (posted[collateral][to] == 0 && amount >= 0) {\n            lockBond(10);\n        }\n        posted[collateral][to] = posted[collateral][to].add(amount);\n        systemPosted[collateral] = systemPosted[collateral].add(amount);\n        emit Posted(collateral, to, int256(amount)); // TODO: Watch for overflow\n    }\n\n    /// @dev Returns collateral to `to` address, taking it from `from` collateral account.\n    // us(from) --- Token ---> to\n    function withdraw(bytes32 collateral, address from, address to, uint256 amount)\n        public override\n        validCollateral(collateral)\n        onlyHolderOrDelegate(from, \"Dealer: Only Holder Or Delegate\")\n        onlyLive\n    {\n        posted[collateral][from] = posted[collateral][from].sub(amount); // Will revert if not enough posted\n        systemPosted[collateral] = systemPosted[collateral].sub(amount);\n\n        require(\n            isCollateralized(collateral, from),\n            \"Dealer: Too much debt\"\n        );\n\n        if (collateral == WETH){ // TODO: Refactor Treasury to be `pull(collateral, amount)`\n            _treasury.pullWeth(to, amount);\n        } else if (collateral == CHAI) {\n            _treasury.pullChai(to, amount);\n        }\n\n        if (posted[collateral][from] == 0 && amount >= 0) {\n            returnBond(10);\n        }\n        emit Posted(collateral, to, -int256(amount)); // TODO: Watch for overflow\n    }\n\n    /// @dev Mint yDai for a given series for address `to` by locking its market value in collateral, user debt is increased in the given collateral.\n    //\n    // posted[user](wad) >= (debtYDai[user](wad)) * amount (wad)) * collateralization (ray)\n    //\n    // us --- yDai ---> user\n    // debt++\n    function borrow(bytes32 collateral, uint256 maturity, address to, uint256 yDaiAmount)\n        public\n        validCollateral(collateral)\n        validSeries(maturity)\n        onlyHolderOrDelegate(to, \"Dealer: Only Holder Or Delegate\")\n        onlyLive\n    {\n        require(\n            series[maturity].isMature() != true,\n            \"Dealer: No mature borrow\"\n        );\n\n        if (debtYDai[collateral][maturity][to] == 0 && yDaiAmount >= 0) {\n            lockBond(10);\n        }\n        debtYDai[collateral][maturity][to] = debtYDai[collateral][maturity][to].add(yDaiAmount);\n        systemDebtYDai[collateral][maturity] = systemDebtYDai[collateral][maturity].add(yDaiAmount);\n\n        require(\n            isCollateralized(collateral, to),\n            \"Dealer: Too much debt\"\n        );\n        series[maturity].mint(to, yDaiAmount);\n        emit Borrowed(collateral, maturity, to, int256(yDaiAmount)); // TODO: Watch for overflow\n    }\n\n    /// @dev Burns yDai of a given series from `from` address, user debt is decreased for the given collateral and yDai series.\n    //                                                  debt_nominal\n    // debt_discounted = debt_nominal - repay_amount * ---------------\n    //                                                  debt_now\n    //\n    // user --- yDai ---> us\n    // debt--\n    function repayYDai(bytes32 collateral, uint256 maturity, address from, uint256 yDaiAmount)\n        public\n        validCollateral(collateral)\n        validSeries(maturity)\n        onlyLive\n    {\n        uint256 toRepay = Math.min(yDaiAmount, debtYDai[collateral][maturity][from]);\n        series[maturity].burn(from, toRepay);\n        _repay(collateral, maturity, from, toRepay);\n    }\n\n    /// @dev Takes dai from `from` address, user debt is decreased for the given collateral and yDai series.\n    //                                                  debt_nominal\n    // debt_discounted = debt_nominal - repay_amount * ---------------\n    //                                                  debt_now\n    //\n    // user --- dai ---> us\n    // debt--\n    function repayDai(bytes32 collateral, uint256 maturity, address from, uint256 daiAmount)\n        public\n        validCollateral(collateral)\n        validSeries(maturity)\n        onlyLive\n    {\n        uint256 toRepay = Math.min(daiAmount, debtDai(collateral, maturity, from));\n        require(\n            _dai.transferFrom(from, address(_treasury), toRepay),  // Take dai from user to Treasury\n            \"Dealer: Dai transfer fail\"\n        );\n        _treasury.pushDai();                                      // Have Treasury process the dai\n        _repay(collateral, maturity, from, inYDai(collateral, maturity, toRepay));\n    }\n\n    /// @dev Removes an amount of debt from an user's vault. If interest was accrued debt is only paid proportionally.\n    //\n    //                                                principal\n    // principal_repayment = gross_repayment * ----------------------\n    //                                          principal + interest\n    //    \n    function _repay(bytes32 collateral, uint256 maturity, address from, uint256 yDaiAmount) internal {\n        // `inDai` calculates the interest accrued for a given amount and series\n        // uint256 repaidDebt = yDaiAmount.muld(divdrup(RAY.unit(), inDai(collateral, maturity, RAY.unit()), RAY), RAY);\n\n        debtYDai[collateral][maturity][from] = debtYDai[collateral][maturity][from].sub(yDaiAmount);\n        systemDebtYDai[collateral][maturity] = systemDebtYDai[collateral][maturity].sub(yDaiAmount);\n        if (debtYDai[collateral][maturity][from] == 0 && yDaiAmount >= 0) {\n            returnBond(10);\n        }\n        emit Borrowed(collateral, maturity, from, -int256(yDaiAmount)); // TODO: Watch for overflow\n    }\n\n    /// @dev Removes collateral and debt for an user.\n    function grab(bytes32 collateral, address user, uint256 daiAmount, uint256 tokenAmount)\n        public override\n        validCollateral(collateral)\n        onlyOrchestrated(\"Dealer: Not Authorized\")\n    {\n\n        posted[collateral][user] = posted[collateral][user].sub(\n            tokenAmount,\n            \"Dealer: Not enough collateral\"\n        );\n        systemPosted[collateral] = systemPosted[collateral].sub(tokenAmount);\n        if (posted[collateral][user] == 0){\n            returnBond(10);\n        }\n\n        uint256 totalGrabbed;\n        for (uint256 i = 0; i < seriesIterator.length; i += 1) {\n            uint256 maturity = seriesIterator[i];\n            uint256 thisGrab = Math.min(debtDai(collateral, maturity, user), daiAmount.sub(totalGrabbed));\n            totalGrabbed = totalGrabbed.add(thisGrab); // SafeMath shouldn't be needed\n            debtYDai[collateral][maturity][user] =\n                debtYDai[collateral][maturity][user].sub(inYDai(collateral, maturity, thisGrab)); // SafeMath shouldn't be needed\n            systemDebtYDai[collateral][maturity] =\n                systemDebtYDai[collateral][maturity].sub(inYDai(collateral, maturity, thisGrab)); // SafeMath shouldn't be needed\n            if (debtYDai[collateral][maturity][user] == 0){\n                returnBond(10);\n            }\n            if (totalGrabbed == daiAmount) break;\n        } // We don't expect hundreds of maturities per dealer\n        require(\n            totalGrabbed == daiAmount,\n            \"Dealer: Not enough user debt\"\n        );\n    }\n\n    /// @dev Locks a liquidation bond in gas tokens\n    function lockBond(uint256 value) internal {\n        if (!_gasToken.transferFrom(msg.sender, address(this), value)) {\n            _gasToken.mint(value);\n        }\n    }\n\n    /// @dev Frees a liquidation bond in gas tokens\n    function returnBond(uint256 value) internal {\n        _gasToken.transfer(msg.sender, value);\n    }\n\n    /// @dev Divides x between y, rounding up to the closest representable number.\n    /// Assumes x and y are both fixed point with `decimals` digits.\n     // TODO: Check if this needs to be taken from DecimalMath.sol\n    function divdrup(uint256 x, uint256 y, uint8 decimals)\n        internal pure returns (uint256)\n    {\n        uint256 z = x.mul((decimals + 1).unit()).div(y);\n        if (z % 10 > 0) return z / 10 + 1;\n        else return z / 10;\n    }\n}",
  "sourcePath": "/Users/bruce/dev/yieldprotocol/ytoken-mvp/contracts/Dealer.sol",
  "compiler": {
    "name": "solc",
    "version": "0.6.2+commit.bacdbe57.Emscripten.clang"
  },
  "schemaVersion": "3.0.23",
  "updatedAt": "2020-07-02T10:01:06.569Z",
  "networkType": "ethereum",
  "devdoc": {
    "details": "A dealer takes collateral and issues yDai.",
    "methods": {
      "addDelegate(address)": {
        "details": "Enable a delegate to act on the behalf of caller"
      },
      "addSeries(address)": {
        "details": "Adds an yDai series to this Dealer"
      },
      "borrow(bytes32,uint256,address,uint256)": {
        "details": "Mint yDai for a given series for address `to` by locking its market value in collateral, user debt is increased in the given collateral."
      },
      "containsSeries(uint256)": {
        "details": "Returns if a series has been added to the Dealer, for a given series identified by maturity"
      },
      "debtDai(bytes32,uint256,address)": {
        "details": "Return debt in dai of an user, for a given collateral and series identified by maturity"
      },
      "grab(bytes32,address,uint256,uint256)": {
        "details": "Removes collateral and debt for an user."
      },
      "inDai(bytes32,uint256,uint256)": {
        "details": "Returns the dai equivalent of an yDai amount, for a given series identified by maturity"
      },
      "inYDai(bytes32,uint256,uint256)": {
        "details": "Returns the yDai equivalent of a dai amount, for a given series identified by maturity"
      },
      "isCollateralized(bytes32,address)": {
        "details": "Return if the borrowing power for a given collateral of an user is equal or greater than its debt for the same collateral"
      },
      "orchestrate(address)": {
        "details": "Add user to the authorized users list"
      },
      "owner()": {
        "details": "Returns the address of the current owner."
      },
      "post(bytes32,address,address,uint256)": {
        "details": "Takes collateral _token from `from` address, and credits it to `to` collateral account."
      },
      "powerOf(bytes32,address)": {
        "details": "Maximum borrowing power of an user in dai for a given collateral"
      },
      "renounceOwnership()": {
        "details": "Leaves the contract without owner. It will not be possible to call `onlyOwner` functions anymore. Can only be called by the current owner.     * NOTE: Renouncing ownership will leave the contract without an owner, thereby removing any functionality that is only available to the owner."
      },
      "repayDai(bytes32,uint256,address,uint256)": {
        "details": "Takes dai from `from` address, user debt is decreased for the given collateral and yDai series."
      },
      "repayYDai(bytes32,uint256,address,uint256)": {
        "details": "Burns yDai of a given series from `from` address, user debt is decreased for the given collateral and yDai series."
      },
      "revokeDelegate(address)": {
        "details": "Stop a delegate from acting on the behalf of caller"
      },
      "shutdown()": {
        "details": "Disables post, withdraw, borrow and repay. To be called only when Treasury shuts down."
      },
      "totalDebtDai(bytes32,address)": {
        "details": "Returns the total debt of an user, for a given collateral, across all series, in Dai"
      },
      "transferOwnership(address)": {
        "details": "Transfers ownership of the contract to a new account (`newOwner`). Can only be called by the current owner."
      },
      "withdraw(bytes32,address,address,uint256)": {
        "details": "Returns collateral to `to` address, taking it from `from` collateral account."
      }
    }
  },
  "userdoc": {
    "methods": {}
  }
}