{
  "contractName": "Dealer",
  "abi": [
    {
      "inputs": [
        {
          "internalType": "address",
          "name": "treasury_",
          "type": "address"
        },
        {
          "internalType": "address",
          "name": "dai_",
          "type": "address"
        },
        {
          "internalType": "address",
          "name": "yDai_",
          "type": "address"
        },
        {
          "internalType": "address",
          "name": "weth_",
          "type": "address"
        },
        {
          "internalType": "address",
          "name": "wethOracle_",
          "type": "address"
        },
        {
          "internalType": "address",
          "name": "chai_",
          "type": "address"
        },
        {
          "internalType": "address",
          "name": "chaiOracle_",
          "type": "address"
        }
      ],
      "stateMutability": "nonpayable",
      "type": "constructor"
    },
    {
      "anonymous": false,
      "inputs": [
        {
          "indexed": true,
          "internalType": "address",
          "name": "previousOwner",
          "type": "address"
        },
        {
          "indexed": true,
          "internalType": "address",
          "name": "newOwner",
          "type": "address"
        }
      ],
      "name": "OwnershipTransferred",
      "type": "event"
    },
    {
      "inputs": [],
      "name": "CHAI",
      "outputs": [
        {
          "internalType": "bytes32",
          "name": "",
          "type": "bytes32"
        }
      ],
      "stateMutability": "view",
      "type": "function",
      "constant": true
    },
    {
      "inputs": [],
      "name": "RAD",
      "outputs": [
        {
          "internalType": "uint8",
          "name": "",
          "type": "uint8"
        }
      ],
      "stateMutability": "view",
      "type": "function",
      "constant": true
    },
    {
      "inputs": [],
      "name": "RAY",
      "outputs": [
        {
          "internalType": "uint8",
          "name": "",
          "type": "uint8"
        }
      ],
      "stateMutability": "view",
      "type": "function",
      "constant": true
    },
    {
      "inputs": [],
      "name": "WAD",
      "outputs": [
        {
          "internalType": "uint8",
          "name": "",
          "type": "uint8"
        }
      ],
      "stateMutability": "view",
      "type": "function",
      "constant": true
    },
    {
      "inputs": [],
      "name": "WETH",
      "outputs": [
        {
          "internalType": "bytes32",
          "name": "",
          "type": "bytes32"
        }
      ],
      "stateMutability": "view",
      "type": "function",
      "constant": true
    },
    {
      "inputs": [],
      "name": "owner",
      "outputs": [
        {
          "internalType": "address",
          "name": "",
          "type": "address"
        }
      ],
      "stateMutability": "view",
      "type": "function",
      "constant": true
    },
    {
      "inputs": [],
      "name": "renounceOwnership",
      "outputs": [],
      "stateMutability": "nonpayable",
      "type": "function"
    },
    {
      "inputs": [
        {
          "internalType": "address",
          "name": "newOwner",
          "type": "address"
        }
      ],
      "name": "transferOwnership",
      "outputs": [],
      "stateMutability": "nonpayable",
      "type": "function"
    },
    {
      "inputs": [
        {
          "internalType": "bytes32",
          "name": "collateral",
          "type": "bytes32"
        },
        {
          "internalType": "address",
          "name": "user",
          "type": "address"
        }
      ],
      "name": "powerOf",
      "outputs": [
        {
          "internalType": "uint256",
          "name": "",
          "type": "uint256"
        }
      ],
      "stateMutability": "nonpayable",
      "type": "function"
    },
    {
      "inputs": [
        {
          "internalType": "bytes32",
          "name": "collateral",
          "type": "bytes32"
        },
        {
          "internalType": "address",
          "name": "user",
          "type": "address"
        }
      ],
      "name": "debtDai",
      "outputs": [
        {
          "internalType": "uint256",
          "name": "",
          "type": "uint256"
        }
      ],
      "stateMutability": "view",
      "type": "function",
      "constant": true
    },
    {
      "inputs": [
        {
          "internalType": "bytes32",
          "name": "collateral",
          "type": "bytes32"
        },
        {
          "internalType": "address",
          "name": "user",
          "type": "address"
        }
      ],
      "name": "isCollateralized",
      "outputs": [
        {
          "internalType": "bool",
          "name": "",
          "type": "bool"
        }
      ],
      "stateMutability": "nonpayable",
      "type": "function"
    },
    {
      "inputs": [
        {
          "internalType": "uint256",
          "name": "yDai",
          "type": "uint256"
        }
      ],
      "name": "inDai",
      "outputs": [
        {
          "internalType": "uint256",
          "name": "",
          "type": "uint256"
        }
      ],
      "stateMutability": "view",
      "type": "function",
      "constant": true
    },
    {
      "inputs": [
        {
          "internalType": "uint256",
          "name": "dai",
          "type": "uint256"
        }
      ],
      "name": "inYDai",
      "outputs": [
        {
          "internalType": "uint256",
          "name": "",
          "type": "uint256"
        }
      ],
      "stateMutability": "view",
      "type": "function",
      "constant": true
    },
    {
      "inputs": [
        {
          "internalType": "bytes32",
          "name": "collateral",
          "type": "bytes32"
        },
        {
          "internalType": "address",
          "name": "from",
          "type": "address"
        },
        {
          "internalType": "uint256",
          "name": "amount",
          "type": "uint256"
        }
      ],
      "name": "post",
      "outputs": [],
      "stateMutability": "nonpayable",
      "type": "function"
    },
    {
      "inputs": [
        {
          "internalType": "bytes32",
          "name": "collateral",
          "type": "bytes32"
        },
        {
          "internalType": "address",
          "name": "to",
          "type": "address"
        },
        {
          "internalType": "uint256",
          "name": "amount",
          "type": "uint256"
        }
      ],
      "name": "withdraw",
      "outputs": [],
      "stateMutability": "nonpayable",
      "type": "function"
    },
    {
      "inputs": [
        {
          "internalType": "bytes32",
          "name": "collateral",
          "type": "bytes32"
        },
        {
          "internalType": "address",
          "name": "to",
          "type": "address"
        },
        {
          "internalType": "uint256",
          "name": "yDai",
          "type": "uint256"
        }
      ],
      "name": "borrow",
      "outputs": [],
      "stateMutability": "nonpayable",
      "type": "function"
    },
    {
      "inputs": [
        {
          "internalType": "bytes32",
          "name": "collateral",
          "type": "bytes32"
        },
        {
          "internalType": "address",
          "name": "from",
          "type": "address"
        },
        {
          "internalType": "uint256",
          "name": "yDai",
          "type": "uint256"
        }
      ],
      "name": "repayYDai",
      "outputs": [],
      "stateMutability": "nonpayable",
      "type": "function"
    },
    {
      "inputs": [
        {
          "internalType": "bytes32",
          "name": "collateral",
          "type": "bytes32"
        },
        {
          "internalType": "address",
          "name": "from",
          "type": "address"
        },
        {
          "internalType": "uint256",
          "name": "dai",
          "type": "uint256"
        }
      ],
      "name": "repayDai",
      "outputs": [],
      "stateMutability": "nonpayable",
      "type": "function"
    }
  ],
  "bytecode": "0x608060405234801561001057600080fd5b50604051612762380380612762833981810160405260e081101561003357600080fd5b810190808051906020019092919080519060200190929190805190602001909291908051906020019092919080519060200190929190805190602001909291908051906020019092919050505060006100906103c560201b60201c565b9050806000806101000a81548173ffffffffffffffffffffffffffffffffffffffff021916908373ffffffffffffffffffffffffffffffffffffffff1602179055508073ffffffffffffffffffffffffffffffffffffffff16600073ffffffffffffffffffffffffffffffffffffffff167f8be0079c531659141344cd1fd0a4f28419497f9722a3daafe3b4186f6b6457e060405160405180910390a35086600160006101000a81548173ffffffffffffffffffffffffffffffffffffffff021916908373ffffffffffffffffffffffffffffffffffffffff16021790555085600260006101000a81548173ffffffffffffffffffffffffffffffffffffffff021916908373ffffffffffffffffffffffffffffffffffffffff16021790555084600360006101000a81548173ffffffffffffffffffffffffffffffffffffffff021916908373ffffffffffffffffffffffffffffffffffffffff16021790555083600460007f5745544800000000000000000000000000000000000000000000000000000000815260200190815260200160002060006101000a81548173ffffffffffffffffffffffffffffffffffffffff021916908373ffffffffffffffffffffffffffffffffffffffff16021790555082600560007f5745544800000000000000000000000000000000000000000000000000000000815260200190815260200160002060006101000a81548173ffffffffffffffffffffffffffffffffffffffff021916908373ffffffffffffffffffffffffffffffffffffffff16021790555081600460007f4348414900000000000000000000000000000000000000000000000000000000815260200190815260200160002060006101000a81548173ffffffffffffffffffffffffffffffffffffffff021916908373ffffffffffffffffffffffffffffffffffffffff16021790555080600560007f4348414900000000000000000000000000000000000000000000000000000000815260200190815260200160002060006101000a81548173ffffffffffffffffffffffffffffffffffffffff021916908373ffffffffffffffffffffffffffffffffffffffff160217905550505050505050506103cd565b600033905090565b612386806103dc6000396000f3fe608060405234801561001057600080fd5b50600436106101165760003560e01c80639fa83904116100a2578063b6dbf9ce11610071578063b6dbf9ce14610459578063b74cdc6514610477578063c06331dc146104b9578063ca2249651461051b578063f2fde38b1461057d57610116565b80639fa8390414610333578063a6fb97d11461038b578063a95bd9a9146103e3578063ad5c46481461043b57610116565b8063715018a6116100e9578063715018a6146101df5780637ad29f40146101e957806386a27c651461024f578063891d5562146102915780638da5cb5b146102e957610116565b806306f405fd1461011b5780630b92a7151461013f578063552033c4146101975780636a146024146101bb575b600080fd5b6101236105c1565b604051808260ff1660ff16815260200191505060405180910390f35b6101956004803603606081101561015557600080fd5b8101908080359060200190929190803573ffffffffffffffffffffffffffffffffffffffff169060200190929190803590602001909291905050506105c6565b005b61019f610757565b604051808260ff1660ff16815260200191505060405180910390f35b6101c361075c565b604051808260ff1660ff16815260200191505060405180910390f35b6101e7610761565b005b610235600480360360408110156101ff57600080fd5b8101908080359060200190929190803573ffffffffffffffffffffffffffffffffffffffff1690602001909291905050506108e9565b604051808215151515815260200191505060405180910390f35b61027b6004803603602081101561026557600080fd5b8101908080359060200190929190505050610909565b6040518082815260200191505060405180910390f35b6102e7600480360360608110156102a757600080fd5b8101908080359060200190929190803573ffffffffffffffffffffffffffffffffffffffff16906020019092919080359060200190929190505050610a7b565b005b6102f1610d91565b604051808273ffffffffffffffffffffffffffffffffffffffff1673ffffffffffffffffffffffffffffffffffffffff16815260200191505060405180910390f35b6103896004803603606081101561034957600080fd5b8101908080359060200190929190803573ffffffffffffffffffffffffffffffffffffffff16906020019092919080359060200190929190505050610dba565b005b6103e1600480360360608110156103a157600080fd5b8101908080359060200190929190803573ffffffffffffffffffffffffffffffffffffffff169060200190929190803590602001909291905050506110c0565b005b610439600480360360608110156103f957600080fd5b8101908080359060200190929190803573ffffffffffffffffffffffffffffffffffffffff16906020019092919080359060200190929190505050611443565b005b610443611889565b6040518082815260200191505060405180910390f35b6104616118ad565b6040518082815260200191505060405180910390f35b6104a36004803603602081101561048d57600080fd5b81019080803590602001909291905050506118d1565b6040518082815260200191505060405180910390f35b610505600480360360408110156104cf57600080fd5b8101908080359060200190929190803573ffffffffffffffffffffffffffffffffffffffff169060200190929190505050611a43565b6040518082815260200191505060405180910390f35b6105676004803603604081101561053157600080fd5b8101908080359060200190929190803573ffffffffffffffffffffffffffffffffffffffff169060200190929190505050611b68565b6040518082815260200191505060405180910390f35b6105bf6004803603602081101561059357600080fd5b81019080803573ffffffffffffffffffffffffffffffffffffffff169060200190929190505050611bcb565b005b602d81565b6000806105d4848685611dd8565b91509150600360009054906101000a900473ffffffffffffffffffffffffffffffffffffffff1673ffffffffffffffffffffffffffffffffffffffff16639dc29fac85846040518363ffffffff1660e01b8152600401808373ffffffffffffffffffffffffffffffffffffffff1673ffffffffffffffffffffffffffffffffffffffff16815260200182815260200192505050600060405180830381600087803b15801561068157600080fd5b505af1158015610695573d6000803e3d6000fd5b505050506106fc816007600088815260200190815260200160002060008773ffffffffffffffffffffffffffffffffffffffff1673ffffffffffffffffffffffffffffffffffffffff16815260200190815260200160002054611ec690919063ffffffff16565b6007600087815260200190815260200160002060008673ffffffffffffffffffffffffffffffffffffffff1673ffffffffffffffffffffffffffffffffffffffff168152602001908152602001600020819055505050505050565b601b81565b601281565b610769611f10565b73ffffffffffffffffffffffffffffffffffffffff166000809054906101000a900473ffffffffffffffffffffffffffffffffffffffff1673ffffffffffffffffffffffffffffffffffffffff161461082a576040517f08c379a00000000000000000000000000000000000000000000000000000000081526004018080602001828103825260208152602001807f4f776e61626c653a2063616c6c6572206973206e6f7420746865206f776e657281525060200191505060405180910390fd5b600073ffffffffffffffffffffffffffffffffffffffff166000809054906101000a900473ffffffffffffffffffffffffffffffffffffffff1673ffffffffffffffffffffffffffffffffffffffff167f8be0079c531659141344cd1fd0a4f28419497f9722a3daafe3b4186f6b6457e060405160405180910390a360008060006101000a81548173ffffffffffffffffffffffffffffffffffffffff021916908373ffffffffffffffffffffffffffffffffffffffff160217905550565b60006108f58383611b68565b6108ff8484611a43565b1015905092915050565b6000600360009054906101000a900473ffffffffffffffffffffffffffffffffffffffff1673ffffffffffffffffffffffffffffffffffffffff1663ae4e7fdf6040518163ffffffff1660e01b815260040160206040518083038186803b15801561097357600080fd5b505afa158015610987573d6000803e3d6000fd5b505050506040513d602081101561099d57600080fd5b810190808051906020019092919050505015610a7257610a6b600360009054906101000a900473ffffffffffffffffffffffffffffffffffffffff1673ffffffffffffffffffffffffffffffffffffffff16632c4e722e6040518163ffffffff1660e01b815260040160206040518083038186803b158015610a1e57600080fd5b505afa158015610a32573d6000803e3d6000fd5b505050506040513d6020811015610a4857600080fd5b8101908080519060200190929190505050601b84611f189092919063ffffffff16565b9050610a76565b8190505b919050565b60011515600360009054906101000a900473ffffffffffffffffffffffffffffffffffffffff1673ffffffffffffffffffffffffffffffffffffffff1663ae4e7fdf6040518163ffffffff1660e01b815260040160206040518083038186803b158015610ae757600080fd5b505afa158015610afb573d6000803e3d6000fd5b505050506040513d6020811015610b1157600080fd5b810190808051906020019092919050505015151415610b98576040517f08c379a00000000000000000000000000000000000000000000000000000000081526004018080602001828103825260188152602001807f4465616c65723a204e6f206d617475726520626f72726f77000000000000000081525060200191505060405180910390fd5b610bfb816007600086815260200190815260200160002060008573ffffffffffffffffffffffffffffffffffffffff1673ffffffffffffffffffffffffffffffffffffffff16815260200190815260200160002054611f5090919063ffffffff16565b6007600085815260200190815260200160002060008473ffffffffffffffffffffffffffffffffffffffff1673ffffffffffffffffffffffffffffffffffffffff16815260200190815260200160002081905550610c5983836108e9565b610ccb576040517f08c379a000000000000000000000000000000000000000000000000000000000815260040180806020018281038252601c8152602001807f4465616c65723a20506f7374206d6f726520636f6c6c61746572616c0000000081525060200191505060405180910390fd5b600360009054906101000a900473ffffffffffffffffffffffffffffffffffffffff1673ffffffffffffffffffffffffffffffffffffffff166340c10f1983836040518363ffffffff1660e01b8152600401808373ffffffffffffffffffffffffffffffffffffffff1673ffffffffffffffffffffffffffffffffffffffff16815260200182815260200192505050600060405180830381600087803b158015610d7457600080fd5b505af1158015610d88573d6000803e3d6000fd5b50505050505050565b60008060009054906101000a900473ffffffffffffffffffffffffffffffffffffffff16905090565b600080610dd08486610dcb866118d1565b611dd8565b91509150600260009054906101000a900473ffffffffffffffffffffffffffffffffffffffff1673ffffffffffffffffffffffffffffffffffffffff166323b872dd85600160009054906101000a900473ffffffffffffffffffffffffffffffffffffffff16856040518463ffffffff1660e01b8152600401808473ffffffffffffffffffffffffffffffffffffffff1673ffffffffffffffffffffffffffffffffffffffff1681526020018373ffffffffffffffffffffffffffffffffffffffff1673ffffffffffffffffffffffffffffffffffffffff1681526020018281526020019350505050602060405180830381600087803b158015610ed357600080fd5b505af1158015610ee7573d6000803e3d6000fd5b505050506040513d6020811015610efd57600080fd5b8101908080519060200190929190505050610f80576040517f08c379a00000000000000000000000000000000000000000000000000000000081526004018080602001828103825260198152602001807f4465616c65723a20446169207472616e73666572206661696c0000000000000081525060200191505060405180910390fd5b600160009054906101000a900473ffffffffffffffffffffffffffffffffffffffff1673ffffffffffffffffffffffffffffffffffffffff1663adb987e36040518163ffffffff1660e01b8152600401600060405180830381600087803b158015610fea57600080fd5b505af1158015610ffe573d6000803e3d6000fd5b50505050611065816007600088815260200190815260200160002060008773ffffffffffffffffffffffffffffffffffffffff1673ffffffffffffffffffffffffffffffffffffffff16815260200190815260200160002054611ec690919063ffffffff16565b6007600087815260200190815260200160002060008673ffffffffffffffffffffffffffffffffffffffff1673ffffffffffffffffffffffffffffffffffffffff168152602001908152602001600020819055505050505050565b611123816006600086815260200190815260200160002060008573ffffffffffffffffffffffffffffffffffffffff1673ffffffffffffffffffffffffffffffffffffffff16815260200190815260200160002054611ec690919063ffffffff16565b6006600085815260200190815260200160002060008473ffffffffffffffffffffffffffffffffffffffff1673ffffffffffffffffffffffffffffffffffffffff1681526020019081526020016000208190555061118183836108e9565b6111f3576040517f08c379a000000000000000000000000000000000000000000000000000000000815260040180806020018281038252601c8152602001807f4465616c65723a2046726565206d6f726520636f6c6c61746572616c0000000081525060200191505060405180910390fd5b7f57455448000000000000000000000000000000000000000000000000000000008314156112e157600160009054906101000a900473ffffffffffffffffffffffffffffffffffffffff1673ffffffffffffffffffffffffffffffffffffffff16638ac96dfc83836040518363ffffffff1660e01b8152600401808373ffffffffffffffffffffffffffffffffffffffff1673ffffffffffffffffffffffffffffffffffffffff16815260200182815260200192505050600060405180830381600087803b1580156112c457600080fd5b505af11580156112d8573d6000803e3d6000fd5b5050505061143e565b7f43484149000000000000000000000000000000000000000000000000000000008314156113cf57600160009054906101000a900473ffffffffffffffffffffffffffffffffffffffff1673ffffffffffffffffffffffffffffffffffffffff16639fa8368983836040518363ffffffff1660e01b8152600401808373ffffffffffffffffffffffffffffffffffffffff1673ffffffffffffffffffffffffffffffffffffffff16815260200182815260200192505050600060405180830381600087803b1580156113b257600080fd5b505af11580156113c6573d6000803e3d6000fd5b5050505061143d565b6040517f08c379a000000000000000000000000000000000000000000000000000000000815260040180806020018281038252601e8152602001807f4465616c65723a20556e737570706f7274656420636f6c6c61746572616c000081525060200191505060405180910390fd5b5b505050565b6004600084815260200190815260200160002060009054906101000a900473ffffffffffffffffffffffffffffffffffffffff1673ffffffffffffffffffffffffffffffffffffffff166323b872dd83600160009054906101000a900473ffffffffffffffffffffffffffffffffffffffff16846040518463ffffffff1660e01b8152600401808473ffffffffffffffffffffffffffffffffffffffff1673ffffffffffffffffffffffffffffffffffffffff1681526020018373ffffffffffffffffffffffffffffffffffffffff1673ffffffffffffffffffffffffffffffffffffffff1681526020018281526020019350505050602060405180830381600087803b15801561155357600080fd5b505af1158015611567573d6000803e3d6000fd5b505050506040513d602081101561157d57600080fd5b8101908080519060200190929190505050611600576040517f08c379a00000000000000000000000000000000000000000000000000000000081526004018080602001828103825260208152602001807f4465616c65723a20436f6c6c61746572616c207472616e73666572206661696c81525060200191505060405180910390fd5b7f57455448000000000000000000000000000000000000000000000000000000008314156116af57600160009054906101000a900473ffffffffffffffffffffffffffffffffffffffff1673ffffffffffffffffffffffffffffffffffffffff16630b6500ee6040518163ffffffff1660e01b8152600401600060405180830381600087803b15801561169257600080fd5b505af11580156116a6573d6000803e3d6000fd5b505050506117cd565b7f434841490000000000000000000000000000000000000000000000000000000083141561175e57600160009054906101000a900473ffffffffffffffffffffffffffffffffffffffff1673ffffffffffffffffffffffffffffffffffffffff1663653b8e816040518163ffffffff1660e01b8152600401600060405180830381600087803b15801561174157600080fd5b505af1158015611755573d6000803e3d6000fd5b505050506117cc565b6040517f08c379a000000000000000000000000000000000000000000000000000000000815260040180806020018281038252601e8152602001807f4465616c65723a20556e737570706f7274656420636f6c6c61746572616c000081525060200191505060405180910390fd5b5b611830816006600086815260200190815260200160002060008573ffffffffffffffffffffffffffffffffffffffff1673ffffffffffffffffffffffffffffffffffffffff16815260200190815260200160002054611f5090919063ffffffff16565b6006600085815260200190815260200160002060008473ffffffffffffffffffffffffffffffffffffffff1673ffffffffffffffffffffffffffffffffffffffff16815260200190815260200160002081905550505050565b7f574554480000000000000000000000000000000000000000000000000000000081565b7f434841490000000000000000000000000000000000000000000000000000000081565b6000600360009054906101000a900473ffffffffffffffffffffffffffffffffffffffff1673ffffffffffffffffffffffffffffffffffffffff1663ae4e7fdf6040518163ffffffff1660e01b815260040160206040518083038186803b15801561193b57600080fd5b505afa15801561194f573d6000803e3d6000fd5b505050506040513d602081101561196557600080fd5b810190808051906020019092919050505015611a3a57611a33600360009054906101000a900473ffffffffffffffffffffffffffffffffffffffff1673ffffffffffffffffffffffffffffffffffffffff16632c4e722e6040518163ffffffff1660e01b815260040160206040518083038186803b1580156119e657600080fd5b505afa1580156119fa573d6000803e3d6000fd5b505050506040513d6020811015611a1057600080fd5b8101908080519060200190929190505050601b84611fd89092919063ffffffff16565b9050611a3e565b8190505b919050565b6000611b606005600085815260200190815260200160002060009054906101000a900473ffffffffffffffffffffffffffffffffffffffff1673ffffffffffffffffffffffffffffffffffffffff1663a035b1fe6040518163ffffffff1660e01b8152600401602060405180830381600087803b158015611ac357600080fd5b505af1158015611ad7573d6000803e3d6000fd5b505050506040513d6020811015611aed57600080fd5b8101908080519060200190929190505050601b6006600087815260200190815260200160002060008673ffffffffffffffffffffffffffffffffffffffff1673ffffffffffffffffffffffffffffffffffffffff16815260200190815260200160002054611fd89092919063ffffffff16565b905092915050565b6000611bc36007600085815260200190815260200160002060008473ffffffffffffffffffffffffffffffffffffffff1673ffffffffffffffffffffffffffffffffffffffff16815260200190815260200160002054610909565b905092915050565b611bd3611f10565b73ffffffffffffffffffffffffffffffffffffffff166000809054906101000a900473ffffffffffffffffffffffffffffffffffffffff1673ffffffffffffffffffffffffffffffffffffffff1614611c94576040517f08c379a00000000000000000000000000000000000000000000000000000000081526004018080602001828103825260208152602001807f4f776e61626c653a2063616c6c6572206973206e6f7420746865206f776e657281525060200191505060405180910390fd5b600073ffffffffffffffffffffffffffffffffffffffff168173ffffffffffffffffffffffffffffffffffffffff161415611d1a576040517f08c379a000000000000000000000000000000000000000000000000000000000815260040180806020018281038252602681526020018061230a6026913960400191505060405180910390fd5b8073ffffffffffffffffffffffffffffffffffffffff166000809054906101000a900473ffffffffffffffffffffffffffffffffffffffff1673ffffffffffffffffffffffffffffffffffffffff167f8be0079c531659141344cd1fd0a4f28419497f9722a3daafe3b4186f6b6457e060405160405180910390a3806000806101000a81548173ffffffffffffffffffffffffffffffffffffffff021916908373ffffffffffffffffffffffffffffffffffffffff16021790555050565b6000806000611df084611deb8789611b68565b612010565b90506000611e9f611e1f611e07601b60ff16612029565b611e11898b611b68565b6120b390919063ffffffff16565b601b611e90611e31601b60ff16612029565b600760008c815260200190815260200160002060008d73ffffffffffffffffffffffffffffffffffffffff1673ffffffffffffffffffffffffffffffffffffffff168152602001908152602001600020546120b390919063ffffffff16565b611fd89092919063ffffffff16565b905081611eb882601b85611f189092919063ffffffff16565b935093505050935093915050565b6000611f0883836040518060400160405280601e81526020017f536166654d6174683a207375627472616374696f6e206f766572666c6f770000815250612139565b905092915050565b600033905090565b6000611f47611f2683612029565b611f3985876120b390919063ffffffff16565b6121f990919063ffffffff16565b90509392505050565b600080828401905083811015611fce576040517f08c379a000000000000000000000000000000000000000000000000000000000815260040180806020018281038252601b8152602001807f536166654d6174683a206164646974696f6e206f766572666c6f77000000000081525060200191505060405180910390fd5b8091505092915050565b600061200783611ff9611fea85612029565b876120b390919063ffffffff16565b6121f990919063ffffffff16565b90509392505050565b600081831061201f5781612021565b825b905092915050565b6000604d8260ff1611156120a5576040517f08c379a00000000000000000000000000000000000000000000000000000000081526004018080602001828103825260118152602001807f546f6f206d616e7920646563696d616c7300000000000000000000000000000081525060200191505060405180910390fd5b8160ff16600a0a9050919050565b6000808314156120c65760009050612133565b60008284029050828482816120d757fe5b041461212e576040517f08c379a00000000000000000000000000000000000000000000000000000000081526004018080602001828103825260218152602001806123306021913960400191505060405180910390fd5b809150505b92915050565b60008383111582906121e6576040517f08c379a00000000000000000000000000000000000000000000000000000000081526004018080602001828103825283818151815260200191508051906020019080838360005b838110156121ab578082015181840152602081019050612190565b50505050905090810190601f1680156121d85780820380516001836020036101000a031916815260200191505b509250505060405180910390fd5b5060008385039050809150509392505050565b600061223b83836040518060400160405280601a81526020017f536166654d6174683a206469766973696f6e206279207a65726f000000000000815250612243565b905092915050565b600080831182906122ef576040517f08c379a00000000000000000000000000000000000000000000000000000000081526004018080602001828103825283818151815260200191508051906020019080838360005b838110156122b4578082015181840152602081019050612299565b50505050905090810190601f1680156122e15780820380516001836020036101000a031916815260200191505b509250505060405180910390fd5b5060008385816122fb57fe5b04905080915050939250505056fe4f776e61626c653a206e6577206f776e657220697320746865207a65726f2061646472657373536166654d6174683a206d756c7469706c69636174696f6e206f766572666c6f77a2646970667358221220f2d99c4a723ab7baf296d84a145d58786e068d8ecbdf89279a790249628e125d64736f6c63430006020033",
  "source": "pragma solidity ^0.6.2;\n\nimport \"@hq20/contracts/contracts/math/DecimalMath.sol\";\nimport \"@openzeppelin/contracts/access/Ownable.sol\";\nimport \"@openzeppelin/contracts/math/Math.sol\";\nimport \"@openzeppelin/contracts/math/SafeMath.sol\";\nimport \"@openzeppelin/contracts/token/ERC20/IERC20.sol\";\nimport \"./interfaces/IChai.sol\";\nimport \"./interfaces/IOracle.sol\";\nimport \"./interfaces/ITreasury.sol\";\nimport \"./interfaces/IYDai.sol\";\nimport \"./Constants.sol\";\n\n\n/// @dev A dealer takes collateral and issues yDai. There is one Dealer per series.\ncontract Dealer is Ownable, Constants {\n    using SafeMath for uint256;\n    using DecimalMath for uint256;\n    using DecimalMath for uint8;\n\n    bytes32 public constant WETH = \"WETH\"; // TODO: Upgrade to 0.6.9 and use immutable\n    bytes32 public constant CHAI = \"CHAI\"; // TODO: Upgrade to 0.6.9 and use immutable\n\n    ITreasury internal _treasury;\n    IERC20 internal _dai;\n    IYDai internal _yDai;\n\n    mapping(bytes32 => IERC20) internal tokens;                           // Weth or Chai\n    mapping(bytes32 => IOracle) internal oracles;                         // WethOracle or ChaiOracle\n    mapping(bytes32 => mapping(address => uint256)) internal posted;     // In Weth or Chai, per collateral type\n    mapping(bytes32 => mapping(address => uint256)) internal debtYDai;   // In yDai, per collateral type\n\n    constructor (\n        address treasury_,\n        address dai_,\n        address yDai_,\n        address weth_,\n        address wethOracle_,\n        address chai_,\n        address chaiOracle_\n    ) public {\n        _treasury = ITreasury(treasury_);\n        _dai = IERC20(dai_);\n        _yDai = IYDai(yDai_);\n        tokens[WETH] = IERC20(weth_);\n        oracles[WETH] = IOracle(wethOracle_);\n        tokens[CHAI] = IERC20(chai_);\n        oracles[CHAI] = IOracle(chaiOracle_);\n    }\n\n    /// @dev Maximum borrowing power of an user in dai for a given collateral\n    //\n    //                        posted[user](wad)\n    // powerOf[user](wad) = ---------------------\n    //                       oracle.price()(ray)\n    //\n    function powerOf(bytes32 collateral, address user) public returns (uint256) {\n        // collateral = dai * price\n        return posted[collateral][user].divd(oracles[collateral].price(), RAY);\n    }\n\n    /// @dev Return debt in dai of an user\n    //\n    //                        rate_now\n    // debt_now = debt_mat * ----------\n    //                        rate_mat\n    //\n    function debtDai(bytes32 collateral, address user) public view returns (uint256) {\n        return inDai(debtYDai[collateral][user]);\n    }\n\n    /// @dev Return if the borrowing power of an user is equal or greater than its debt\n    function isCollateralized(bytes32 collateral, address user) public returns (bool) {\n        return powerOf(collateral, user) >= debtDai(collateral, user);\n    }\n\n    /// @dev Returns the dai equivalent of an yDai amount\n    function inDai(uint256 yDai) public view returns (uint256) {\n        if (_yDai.isMature()){\n            return yDai.muld(_yDai.rate(), RAY);\n        }\n        else {\n            return yDai;\n        }\n    }\n\n    /// @dev Returns the yDai equivalent of a dai amount\n    function inYDai(uint256 dai) public view returns (uint256) {\n        if (_yDai.isMature()){\n            return dai.divd(_yDai.rate(), RAY);\n        }\n        else {\n            return dai;\n        }\n    }\n\n    /// @dev Takes collateral tokens from `from` address\n    // from --- Token ---> us\n    function post(bytes32 collateral, address from, uint256 amount) public virtual {\n        require(\n            tokens[collateral].transferFrom(from, address(_treasury), amount),\n            \"Dealer: Collateral transfer fail\"\n        );\n        if (collateral == WETH){\n            _treasury.pushWeth();                          // Have Treasury process the weth\n        } else if (collateral == CHAI) {\n            _treasury.pushChai();\n        } else {\n            revert(\"Dealer: Unsupported collateral\");\n        }\n        posted[collateral][from] = posted[collateral][from].add(amount);\n    }\n\n    /// @dev Returns collateral to `to` address\n    // us --- Token ---> to\n    function withdraw(bytes32 collateral, address to, uint256 amount) public virtual {\n        posted[collateral][to] = posted[collateral][to].sub(amount); // Will revert if not enough posted\n\n        require(\n            isCollateralized(collateral, to),\n            \"Dealer: Free more collateral\"\n        );\n\n        if (collateral == WETH){\n            _treasury.pullWeth(to, amount);                          // Take weth from Treasury and give it to `to`\n        } else if (collateral == CHAI) {\n            _treasury.pullChai(to, amount);\n        } else {\n            revert(\"Dealer: Unsupported collateral\");\n        }\n    }\n\n    /// @dev Mint yDai for address `to` by locking its market value in collateral, user debt is increased.\n    //\n    // posted[user](wad) >= (debtYDai[user](wad)) * amount (wad)) * collateralization (ray)\n    //\n    // us --- yDai ---> user\n    // debt++\n    function borrow(bytes32 collateral, address to, uint256 yDai) public {\n        require(\n            _yDai.isMature() != true,\n            \"Dealer: No mature borrow\"\n        );\n\n        debtYDai[collateral][to] = debtYDai[collateral][to].add(yDai);\n\n        require(\n            isCollateralized(collateral, to),\n            \"Dealer: Post more collateral\"\n        );\n\n        _yDai.mint(to, yDai);\n    }\n\n    /// @dev Burns yDai from `from` address, user debt is decreased.\n    //                                                  debt_nominal\n    // debt_discounted = debt_nominal - repay_amount * ---------------\n    //                                                  debt_now\n    //\n    // user --- yDai ---> us\n    // debt--\n    function repayYDai(bytes32 collateral, address from, uint256 yDai) public {\n        (uint256 toRepay, uint256 debtDecrease) = amounts(from, collateral, yDai);\n        _yDai.burn(from, toRepay);\n        debtYDai[collateral][from] = debtYDai[collateral][from].sub(debtDecrease);\n    }\n\n    /// @dev Takes dai from `from` address, user debt is decreased.\n    //                                                  debt_nominal\n    // debt_discounted = debt_nominal - repay_amount * ---------------\n    //                                                  debt_now\n    //\n    // user --- dai ---> us\n    // debt--\n    function repayDai(bytes32 collateral, address from, uint256 dai) public {\n        (uint256 toRepay, uint256 debtDecrease) = amounts(from, collateral, inYDai(dai));\n        require(\n            _dai.transferFrom(from, address(_treasury), toRepay),  // Take dai from user to Treasury\n            \"Dealer: Dai transfer fail\"\n        );\n\n        _treasury.pushDai();                                      // Have Treasury process the dai\n        debtYDai[collateral][from] = debtYDai[collateral][from].sub(debtDecrease);\n    }\n\n    /// @dev Calculates the amount to repay and the amount by which to reduce the debt\n    function amounts(address user, bytes32 collateral, uint256 yDai) internal view returns(uint256, uint256) {\n        uint256 toRepay = Math.min(yDai, debtDai(collateral, user));\n        uint256 debtProportion = debtYDai[collateral][user].mul(RAY.unit())\n            .divd(debtDai(collateral, user).mul(RAY.unit()), RAY);\n        return (toRepay, toRepay.muld(debtProportion, RAY));\n    }\n}",
  "sourcePath": "/Users/bruce/dev/yieldprotocol/ytoken-mvp/contracts/Dealer.sol",
  "compiler": {
    "name": "solc",
    "version": "0.6.2+commit.bacdbe57.Emscripten.clang"
  },
  "schemaVersion": "3.0.23",
  "updatedAt": "2020-06-03T11:23:32.211Z",
  "networkType": "ethereum",
  "devdoc": {
    "details": "A dealer takes collateral and issues yDai. There is one Dealer per series.",
    "methods": {
      "borrow(bytes32,address,uint256)": {
        "details": "Mint yDai for address `to` by locking its market value in collateral, user debt is increased."
      },
      "debtDai(bytes32,address)": {
        "details": "Return debt in dai of an user"
      },
      "inDai(uint256)": {
        "details": "Returns the dai equivalent of an yDai amount"
      },
      "inYDai(uint256)": {
        "details": "Returns the yDai equivalent of a dai amount"
      },
      "isCollateralized(bytes32,address)": {
        "details": "Return if the borrowing power of an user is equal or greater than its debt"
      },
      "owner()": {
        "details": "Returns the address of the current owner."
      },
      "post(bytes32,address,uint256)": {
        "details": "Takes collateral tokens from `from` address"
      },
      "powerOf(bytes32,address)": {
        "details": "Maximum borrowing power of an user in dai for a given collateral"
      },
      "renounceOwnership()": {
        "details": "Leaves the contract without owner. It will not be possible to call `onlyOwner` functions anymore. Can only be called by the current owner.     * NOTE: Renouncing ownership will leave the contract without an owner, thereby removing any functionality that is only available to the owner."
      },
      "repayDai(bytes32,address,uint256)": {
        "details": "Takes dai from `from` address, user debt is decreased."
      },
      "repayYDai(bytes32,address,uint256)": {
        "details": "Burns yDai from `from` address, user debt is decreased."
      },
      "transferOwnership(address)": {
        "details": "Transfers ownership of the contract to a new account (`newOwner`). Can only be called by the current owner."
      },
      "withdraw(bytes32,address,uint256)": {
        "details": "Returns collateral to `to` address"
      }
    }
  },
  "userdoc": {
    "methods": {}
  }
}