{
  "contractName": "Dealer",
  "abi": [
    {
      "inputs": [
        {
          "internalType": "address",
          "name": "treasury_",
          "type": "address"
        },
        {
          "internalType": "address",
          "name": "dai_",
          "type": "address"
        },
        {
          "internalType": "address",
          "name": "token_",
          "type": "address"
        },
        {
          "internalType": "address",
          "name": "oracle_",
          "type": "address"
        },
        {
          "internalType": "bytes32",
          "name": "collateral_",
          "type": "bytes32"
        }
      ],
      "stateMutability": "nonpayable",
      "type": "constructor"
    },
    {
      "anonymous": false,
      "inputs": [
        {
          "indexed": true,
          "internalType": "address",
          "name": "previousOwner",
          "type": "address"
        },
        {
          "indexed": true,
          "internalType": "address",
          "name": "newOwner",
          "type": "address"
        }
      ],
      "name": "OwnershipTransferred",
      "type": "event"
    },
    {
      "inputs": [],
      "name": "CHAI",
      "outputs": [
        {
          "internalType": "bytes32",
          "name": "",
          "type": "bytes32"
        }
      ],
      "stateMutability": "view",
      "type": "function",
      "constant": true
    },
    {
      "inputs": [],
      "name": "RAD",
      "outputs": [
        {
          "internalType": "uint8",
          "name": "",
          "type": "uint8"
        }
      ],
      "stateMutability": "view",
      "type": "function",
      "constant": true
    },
    {
      "inputs": [],
      "name": "RAY",
      "outputs": [
        {
          "internalType": "uint8",
          "name": "",
          "type": "uint8"
        }
      ],
      "stateMutability": "view",
      "type": "function",
      "constant": true
    },
    {
      "inputs": [],
      "name": "WAD",
      "outputs": [
        {
          "internalType": "uint8",
          "name": "",
          "type": "uint8"
        }
      ],
      "stateMutability": "view",
      "type": "function",
      "constant": true
    },
    {
      "inputs": [],
      "name": "WETH",
      "outputs": [
        {
          "internalType": "bytes32",
          "name": "",
          "type": "bytes32"
        }
      ],
      "stateMutability": "view",
      "type": "function",
      "constant": true
    },
    {
      "inputs": [],
      "name": "collateral",
      "outputs": [
        {
          "internalType": "bytes32",
          "name": "",
          "type": "bytes32"
        }
      ],
      "stateMutability": "view",
      "type": "function",
      "constant": true
    },
    {
      "inputs": [
        {
          "internalType": "uint256",
          "name": "",
          "type": "uint256"
        },
        {
          "internalType": "address",
          "name": "",
          "type": "address"
        }
      ],
      "name": "debtYDai",
      "outputs": [
        {
          "internalType": "uint256",
          "name": "",
          "type": "uint256"
        }
      ],
      "stateMutability": "view",
      "type": "function",
      "constant": true
    },
    {
      "inputs": [],
      "name": "owner",
      "outputs": [
        {
          "internalType": "address",
          "name": "",
          "type": "address"
        }
      ],
      "stateMutability": "view",
      "type": "function",
      "constant": true
    },
    {
      "inputs": [
        {
          "internalType": "address",
          "name": "",
          "type": "address"
        }
      ],
      "name": "posted",
      "outputs": [
        {
          "internalType": "uint256",
          "name": "",
          "type": "uint256"
        }
      ],
      "stateMutability": "view",
      "type": "function",
      "constant": true
    },
    {
      "inputs": [],
      "name": "renounceOwnership",
      "outputs": [],
      "stateMutability": "nonpayable",
      "type": "function"
    },
    {
      "inputs": [
        {
          "internalType": "uint256",
          "name": "",
          "type": "uint256"
        }
      ],
      "name": "series",
      "outputs": [
        {
          "internalType": "contract IYDai",
          "name": "",
          "type": "address"
        }
      ],
      "stateMutability": "view",
      "type": "function",
      "constant": true
    },
    {
      "inputs": [
        {
          "internalType": "address",
          "name": "newOwner",
          "type": "address"
        }
      ],
      "name": "transferOwnership",
      "outputs": [],
      "stateMutability": "nonpayable",
      "type": "function"
    },
    {
      "inputs": [
        {
          "internalType": "uint256",
          "name": "maturity",
          "type": "uint256"
        }
      ],
      "name": "containsSeries",
      "outputs": [
        {
          "internalType": "bool",
          "name": "",
          "type": "bool"
        }
      ],
      "stateMutability": "view",
      "type": "function",
      "constant": true
    },
    {
      "inputs": [
        {
          "internalType": "address",
          "name": "yDaiContract",
          "type": "address"
        }
      ],
      "name": "addSeries",
      "outputs": [],
      "stateMutability": "nonpayable",
      "type": "function"
    },
    {
      "inputs": [
        {
          "internalType": "address",
          "name": "user",
          "type": "address"
        }
      ],
      "name": "powerOf",
      "outputs": [
        {
          "internalType": "uint256",
          "name": "",
          "type": "uint256"
        }
      ],
      "stateMutability": "nonpayable",
      "type": "function"
    },
    {
      "inputs": [
        {
          "internalType": "address",
          "name": "user",
          "type": "address"
        }
      ],
      "name": "totalDebtYDai",
      "outputs": [
        {
          "internalType": "uint256",
          "name": "",
          "type": "uint256"
        }
      ],
      "stateMutability": "view",
      "type": "function",
      "constant": true
    },
    {
      "inputs": [
        {
          "internalType": "address",
          "name": "user",
          "type": "address"
        }
      ],
      "name": "isCollateralized",
      "outputs": [
        {
          "internalType": "bool",
          "name": "",
          "type": "bool"
        }
      ],
      "stateMutability": "nonpayable",
      "type": "function"
    },
    {
      "inputs": [
        {
          "internalType": "uint256",
          "name": "maturity",
          "type": "uint256"
        },
        {
          "internalType": "uint256",
          "name": "yDaiAmount",
          "type": "uint256"
        }
      ],
      "name": "inDai",
      "outputs": [
        {
          "internalType": "uint256",
          "name": "",
          "type": "uint256"
        }
      ],
      "stateMutability": "view",
      "type": "function",
      "constant": true
    },
    {
      "inputs": [
        {
          "internalType": "uint256",
          "name": "maturity",
          "type": "uint256"
        },
        {
          "internalType": "uint256",
          "name": "daiAmount",
          "type": "uint256"
        }
      ],
      "name": "inYDai",
      "outputs": [
        {
          "internalType": "uint256",
          "name": "",
          "type": "uint256"
        }
      ],
      "stateMutability": "view",
      "type": "function",
      "constant": true
    },
    {
      "inputs": [
        {
          "internalType": "uint256",
          "name": "maturity",
          "type": "uint256"
        },
        {
          "internalType": "address",
          "name": "user",
          "type": "address"
        }
      ],
      "name": "debtDai",
      "outputs": [
        {
          "internalType": "uint256",
          "name": "",
          "type": "uint256"
        }
      ],
      "stateMutability": "view",
      "type": "function",
      "constant": true
    },
    {
      "inputs": [
        {
          "internalType": "address",
          "name": "user",
          "type": "address"
        }
      ],
      "name": "totalDebtDai",
      "outputs": [
        {
          "internalType": "uint256",
          "name": "",
          "type": "uint256"
        }
      ],
      "stateMutability": "view",
      "type": "function",
      "constant": true
    },
    {
      "inputs": [
        {
          "internalType": "address",
          "name": "from",
          "type": "address"
        },
        {
          "internalType": "uint256",
          "name": "amount",
          "type": "uint256"
        }
      ],
      "name": "post",
      "outputs": [],
      "stateMutability": "nonpayable",
      "type": "function"
    },
    {
      "inputs": [
        {
          "internalType": "address",
          "name": "to",
          "type": "address"
        },
        {
          "internalType": "uint256",
          "name": "amount",
          "type": "uint256"
        }
      ],
      "name": "withdraw",
      "outputs": [],
      "stateMutability": "nonpayable",
      "type": "function"
    },
    {
      "inputs": [
        {
          "internalType": "uint256",
          "name": "maturity",
          "type": "uint256"
        },
        {
          "internalType": "address",
          "name": "to",
          "type": "address"
        },
        {
          "internalType": "uint256",
          "name": "yDaiAmount",
          "type": "uint256"
        }
      ],
      "name": "borrow",
      "outputs": [],
      "stateMutability": "nonpayable",
      "type": "function"
    },
    {
      "inputs": [
        {
          "internalType": "uint256",
          "name": "maturity",
          "type": "uint256"
        },
        {
          "internalType": "address",
          "name": "from",
          "type": "address"
        },
        {
          "internalType": "uint256",
          "name": "yDaiAmount",
          "type": "uint256"
        }
      ],
      "name": "repayYDai",
      "outputs": [],
      "stateMutability": "nonpayable",
      "type": "function"
    },
    {
      "inputs": [
        {
          "internalType": "uint256",
          "name": "maturity",
          "type": "uint256"
        },
        {
          "internalType": "address",
          "name": "from",
          "type": "address"
        },
        {
          "internalType": "uint256",
          "name": "daiAmount",
          "type": "uint256"
        }
      ],
      "name": "repayDai",
      "outputs": [],
      "stateMutability": "nonpayable",
      "type": "function"
    },
    {
      "inputs": [
        {
          "internalType": "uint256",
          "name": "maturity",
          "type": "uint256"
        },
        {
          "internalType": "address",
          "name": "from",
          "type": "address"
        },
        {
          "internalType": "address",
          "name": "to",
          "type": "address"
        }
      ],
      "name": "splitPosition",
      "outputs": [],
      "stateMutability": "nonpayable",
      "type": "function"
    },
    {
      "inputs": [
        {
          "internalType": "address",
          "name": "from",
          "type": "address"
        },
        {
          "internalType": "address",
          "name": "to",
          "type": "address"
        }
      ],
      "name": "splitCollateral",
      "outputs": [],
      "stateMutability": "nonpayable",
      "type": "function"
    }
  ],
  "bytecode": "0x60806040523480156200001157600080fd5b506040516200366138038062003661833981810160405260a08110156200003757600080fd5b810190808051906020019092919080519060200190929190805190602001909291908051906020019092919080519060200190929190505050600062000082620002f760201b60201c565b9050806000806101000a81548173ffffffffffffffffffffffffffffffffffffffff021916908373ffffffffffffffffffffffffffffffffffffffff1602179055508073ffffffffffffffffffffffffffffffffffffffff16600073ffffffffffffffffffffffffffffffffffffffff167f8be0079c531659141344cd1fd0a4f28419497f9722a3daafe3b4186f6b6457e060405160405180910390a35084600160006101000a81548173ffffffffffffffffffffffffffffffffffffffff021916908373ffffffffffffffffffffffffffffffffffffffff16021790555083600260006101000a81548173ffffffffffffffffffffffffffffffffffffffff021916908373ffffffffffffffffffffffffffffffffffffffff16021790555082600360006101000a81548173ffffffffffffffffffffffffffffffffffffffff021916908373ffffffffffffffffffffffffffffffffffffffff16021790555081600460006101000a81548173ffffffffffffffffffffffffffffffffffffffff021916908373ffffffffffffffffffffffffffffffffffffffff1602179055507f57455448000000000000000000000000000000000000000000000000000000008114806200027257507f434841490000000000000000000000000000000000000000000000000000000081145b620002e5576040517f08c379a000000000000000000000000000000000000000000000000000000000815260040180806020018281038252601e8152602001807f4465616c65723a20556e737570706f7274656420636f6c6c61746572616c000081525060200191505060405180910390fd5b806005819055505050505050620002ff565b600033905090565b613352806200030f6000396000f3fe608060405234801561001057600080fd5b50600436106101c45760003560e01c80637c43a201116100f9578063d648d7fd11610097578063ea2530dd11610071578063ea2530dd1461086b578063f2fde38b146108c3578063f3fef3a314610907578063f51b313a14610955576101c4565b8063d648d7fd14610791578063d8dfeb45146107df578063dc22cb6a146107fd576101c4565b8063ad5c4648116100d3578063ad5c4648146106b7578063b6dbf9ce146106d5578063bd9b5d08146106f3578063d0a3a7e41461074b576101c4565b80637c43a201146105c55780638da5cb5b14610609578063a8517c5914610653576101c4565b80631b098056116101665780634756e58e116101405780634756e58e1461051b578063552033c4146105735780636a14602414610597578063715018a6146105bb576101c4565b80631b098056146103e957806336598c6d1461044b5780633a430ebd146104b9576101c4565b80630c28d13e116101a25780630c28d13e1461029557806312563b76146102ed578063131a16d0146103395780631ac8469014610391576101c4565b806302ad4d2a146101c957806306f405fd146102255780630bc3bf2814610249575b600080fd5b61020b600480360360208110156101df57600080fd5b81019080803573ffffffffffffffffffffffffffffffffffffffff1690602001909291905050506109ad565b604051808215151515815260200191505060405180910390f35b61022d6109ca565b604051808260ff1660ff16815260200191505060405180910390f35b61027f6004803603604081101561025f57600080fd5b8101908080359060200190929190803590602001909291905050506109cf565b6040518082815260200191505060405180910390f35b6102eb600480360360608110156102ab57600080fd5b8101908080359060200190929190803573ffffffffffffffffffffffffffffffffffffffff16906020019092919080359060200190929190505050610bdf565b005b6103236004803603604081101561030357600080fd5b810190808035906020019092919080359060200190929190505050610f91565b6040518082815260200191505060405180910390f35b61037b6004803603602081101561034f57600080fd5b81019080803573ffffffffffffffffffffffffffffffffffffffff1690602001909291905050506111a1565b6040518082815260200191505060405180910390f35b6103d3600480360360208110156103a757600080fd5b81019080803573ffffffffffffffffffffffffffffffffffffffff169060200190929190505050611238565b6040518082815260200191505060405180910390f35b610435600480360360408110156103ff57600080fd5b8101908080359060200190929190803573ffffffffffffffffffffffffffffffffffffffff16906020019092919050505061133a565b6040518082815260200191505060405180910390f35b6104b76004803603606081101561046157600080fd5b8101908080359060200190929190803573ffffffffffffffffffffffffffffffffffffffff169060200190929190803573ffffffffffffffffffffffffffffffffffffffff16906020019092919050505061135f565b005b610505600480360360408110156104cf57600080fd5b8101908080359060200190929190803573ffffffffffffffffffffffffffffffffffffffff16906020019092919050505061165a565b6040518082815260200191505060405180910390f35b61055d6004803603602081101561053157600080fd5b81019080803573ffffffffffffffffffffffffffffffffffffffff1690602001909291905050506116be565b6040518082815260200191505060405180910390f35b61057b61170e565b604051808260ff1660ff16815260200191505060405180910390f35b61059f611713565b604051808260ff1660ff16815260200191505060405180910390f35b6105c3611718565b005b610607600480360360208110156105db57600080fd5b81019080803573ffffffffffffffffffffffffffffffffffffffff1690602001909291905050506118a0565b005b610611611ae9565b604051808273ffffffffffffffffffffffffffffffffffffffff1673ffffffffffffffffffffffffffffffffffffffff16815260200191505060405180910390f35b6106b56004803603604081101561066957600080fd5b81019080803573ffffffffffffffffffffffffffffffffffffffff169060200190929190803573ffffffffffffffffffffffffffffffffffffffff169060200190929190505050611b12565b005b6106bf611d60565b6040518082815260200191505060405180910390f35b6106dd611d84565b6040518082815260200191505060405180910390f35b6107356004803603602081101561070957600080fd5b81019080803573ffffffffffffffffffffffffffffffffffffffff169060200190929190505050611da8565b6040518082815260200191505060405180910390f35b6107776004803603602081101561076157600080fd5b8101908080359060200190929190505050611dc0565b604051808215151515815260200191505060405180910390f35b6107dd600480360360408110156107a757600080fd5b81019080803573ffffffffffffffffffffffffffffffffffffffff16906020019092919080359060200190929190505050611e2c565b005b6107e7612242565b6040518082815260200191505060405180910390f35b6108296004803603602081101561081357600080fd5b8101908080359060200190929190505050612248565b604051808273ffffffffffffffffffffffffffffffffffffffff1673ffffffffffffffffffffffffffffffffffffffff16815260200191505060405180910390f35b6108c16004803603606081101561088157600080fd5b8101908080359060200190929190803573ffffffffffffffffffffffffffffffffffffffff1690602001909291908035906020019092919050505061227b565b005b610905600480360360208110156108d957600080fd5b81019080803573ffffffffffffffffffffffffffffffffffffffff169060200190929190505050612498565b005b6109536004803603604081101561091d57600080fd5b81019080803573ffffffffffffffffffffffffffffffffffffffff169060200190929190803590602001909291905050506126a5565b005b6109ab6004803603606081101561096b57600080fd5b8101908080359060200190929190803573ffffffffffffffffffffffffffffffffffffffff16906020019092919080359060200190929190505050612a08565b005b60006109b8826116be565b6109c183611238565b10159050919050565b602d81565b60006109da83611dc0565b610a4c576040517f08c379a000000000000000000000000000000000000000000000000000000000815260040180806020018281038252601b8152602001807f4465616c65723a20556e7265636f676e697a656420736572696573000000000081525060200191505060405180910390fd5b6007600084815260200190815260200160002060009054906101000a900473ffffffffffffffffffffffffffffffffffffffff1673ffffffffffffffffffffffffffffffffffffffff1663ae4e7fdf6040518163ffffffff1660e01b815260040160206040518083038186803b158015610ac557600080fd5b505afa158015610ad9573d6000803e3d6000fd5b505050506040513d6020811015610aef57600080fd5b810190808051906020019092919050505015610bd557610bce6007600085815260200190815260200160002060009054906101000a900473ffffffffffffffffffffffffffffffffffffffff1673ffffffffffffffffffffffffffffffffffffffff16632c4e722e6040518163ffffffff1660e01b815260040160206040518083038186803b158015610b8157600080fd5b505afa158015610b95573d6000803e3d6000fd5b505050506040513d6020811015610bab57600080fd5b8101908080519060200190929190505050601b84612d0f9092919063ffffffff16565b9050610bd9565b8190505b92915050565b610be883611dc0565b610c5a576040517f08c379a000000000000000000000000000000000000000000000000000000000815260040180806020018281038252601b8152602001807f4465616c65723a20556e7265636f676e697a656420736572696573000000000081525060200191505060405180910390fd5b600115156007600085815260200190815260200160002060009054906101000a900473ffffffffffffffffffffffffffffffffffffffff1673ffffffffffffffffffffffffffffffffffffffff1663ae4e7fdf6040518163ffffffff1660e01b815260040160206040518083038186803b158015610cd757600080fd5b505afa158015610ceb573d6000803e3d6000fd5b505050506040513d6020811015610d0157600080fd5b810190808051906020019092919050505015151415610d88576040517f08c379a00000000000000000000000000000000000000000000000000000000081526004018080602001828103825260188152602001807f4465616c65723a204e6f206d617475726520626f72726f77000000000000000081525060200191505060405180910390fd5b610deb816009600086815260200190815260200160002060008573ffffffffffffffffffffffffffffffffffffffff1673ffffffffffffffffffffffffffffffffffffffff16815260200190815260200160002054612d4790919063ffffffff16565b6009600085815260200190815260200160002060008473ffffffffffffffffffffffffffffffffffffffff1673ffffffffffffffffffffffffffffffffffffffff16815260200190815260200160002081905550610e48826109ad565b610eba576040517f08c379a000000000000000000000000000000000000000000000000000000000815260040180806020018281038252601c8152602001807f4465616c65723a20506f7374206d6f726520636f6c6c61746572616c0000000081525060200191505060405180910390fd5b6007600084815260200190815260200160002060009054906101000a900473ffffffffffffffffffffffffffffffffffffffff1673ffffffffffffffffffffffffffffffffffffffff166340c10f1983836040518363ffffffff1660e01b8152600401808373ffffffffffffffffffffffffffffffffffffffff1673ffffffffffffffffffffffffffffffffffffffff16815260200182815260200192505050600060405180830381600087803b158015610f7457600080fd5b505af1158015610f88573d6000803e3d6000fd5b50505050505050565b6000610f9c83611dc0565b61100e576040517f08c379a000000000000000000000000000000000000000000000000000000000815260040180806020018281038252601b8152602001807f4465616c65723a20556e7265636f676e697a656420736572696573000000000081525060200191505060405180910390fd5b6007600084815260200190815260200160002060009054906101000a900473ffffffffffffffffffffffffffffffffffffffff1673ffffffffffffffffffffffffffffffffffffffff1663ae4e7fdf6040518163ffffffff1660e01b815260040160206040518083038186803b15801561108757600080fd5b505afa15801561109b573d6000803e3d6000fd5b505050506040513d60208110156110b157600080fd5b810190808051906020019092919050505015611197576111906007600085815260200190815260200160002060009054906101000a900473ffffffffffffffffffffffffffffffffffffffff1673ffffffffffffffffffffffffffffffffffffffff16632c4e722e6040518163ffffffff1660e01b815260040160206040518083038186803b15801561114357600080fd5b505afa158015611157573d6000803e3d6000fd5b505050506040513d602081101561116d57600080fd5b8101908080519060200190929190505050601b84612dcf9092919063ffffffff16565b905061119b565b8190505b92915050565b60008060008090505b60088054905081101561122e5760096000600883815481106111c857fe5b9060005260206000200154815260200190815260200160002060008573ffffffffffffffffffffffffffffffffffffffff1673ffffffffffffffffffffffffffffffffffffffff16815260200190815260200160002054820191506001810190506111aa565b5080915050919050565b6000611333600460009054906101000a900473ffffffffffffffffffffffffffffffffffffffff1673ffffffffffffffffffffffffffffffffffffffff1663a035b1fe6040518163ffffffff1660e01b8152600401602060405180830381600087803b1580156112a757600080fd5b505af11580156112bb573d6000803e3d6000fd5b505050506040513d60208110156112d157600080fd5b8101908080519060200190929190505050601b600660008673ffffffffffffffffffffffffffffffffffffffff1673ffffffffffffffffffffffffffffffffffffffff16815260200190815260200160002054612dcf9092919063ffffffff16565b9050919050565b6009602052816000526040600020602052806000526040600020600091509150505481565b7f5745544800000000000000000000000000000000000000000000000000000000600554146113d9576040517f08c379a00000000000000000000000000000000000000000000000000000000081526004018080602001828103825260288152602001806132f56028913960400191505060405180910390fd5b6000600460009054906101000a900473ffffffffffffffffffffffffffffffffffffffff1673ffffffffffffffffffffffffffffffffffffffff1663a035b1fe6040518163ffffffff1660e01b8152600401602060405180830381600087803b15801561144557600080fd5b505af1158015611459573d6000803e3d6000fd5b505050506040513d602081101561146f57600080fd5b81019080805190602001909291905050509050600061148e858561165a565b9050600061149e8284601b612e07565b90506114f281600660008873ffffffffffffffffffffffffffffffffffffffff1673ffffffffffffffffffffffffffffffffffffffff16815260200190815260200160002054612e7e90919063ffffffff16565b600660008773ffffffffffffffffffffffffffffffffffffffff1673ffffffffffffffffffffffffffffffffffffffff16815260200190815260200160002081905550600160009054906101000a900473ffffffffffffffffffffffffffffffffffffffff1673ffffffffffffffffffffffffffffffffffffffff16636f12ba7f8583856040518463ffffffff1660e01b8152600401808473ffffffffffffffffffffffffffffffffffffffff1673ffffffffffffffffffffffffffffffffffffffff1681526020018381526020018281526020019350505050600060405180830381600087803b1580156115e657600080fd5b505af11580156115fa573d6000803e3d6000fd5b505050506009600087815260200190815260200160002060008673ffffffffffffffffffffffffffffffffffffffff1673ffffffffffffffffffffffffffffffffffffffff16815260200190815260200160002060009055505050505050565b60006116b6836009600086815260200190815260200160002060008573ffffffffffffffffffffffffffffffffffffffff1673ffffffffffffffffffffffffffffffffffffffff16815260200190815260200160002054610f91565b905092915050565b60008060008090505b600880549050811015611704576116f5600882815481106116e457fe5b90600052602060002001548561165a565b820191506001810190506116c7565b5080915050919050565b601b81565b601281565b611720612ec8565b73ffffffffffffffffffffffffffffffffffffffff166000809054906101000a900473ffffffffffffffffffffffffffffffffffffffff1673ffffffffffffffffffffffffffffffffffffffff16146117e1576040517f08c379a00000000000000000000000000000000000000000000000000000000081526004018080602001828103825260208152602001807f4f776e61626c653a2063616c6c6572206973206e6f7420746865206f776e657281525060200191505060405180910390fd5b600073ffffffffffffffffffffffffffffffffffffffff166000809054906101000a900473ffffffffffffffffffffffffffffffffffffffff1673ffffffffffffffffffffffffffffffffffffffff167f8be0079c531659141344cd1fd0a4f28419497f9722a3daafe3b4186f6b6457e060405160405180910390a360008060006101000a81548173ffffffffffffffffffffffffffffffffffffffff021916908373ffffffffffffffffffffffffffffffffffffffff160217905550565b6118a8612ec8565b73ffffffffffffffffffffffffffffffffffffffff166000809054906101000a900473ffffffffffffffffffffffffffffffffffffffff1673ffffffffffffffffffffffffffffffffffffffff1614611969576040517f08c379a00000000000000000000000000000000000000000000000000000000081526004018080602001828103825260208152602001807f4f776e61626c653a2063616c6c6572206973206e6f7420746865206f776e657281525060200191505060405180910390fd5b60008173ffffffffffffffffffffffffffffffffffffffff1663204f83f96040518163ffffffff1660e01b815260040160206040518083038186803b1580156119b157600080fd5b505afa1580156119c5573d6000803e3d6000fd5b505050506040513d60208110156119db57600080fd5b810190808051906020019092919050505090506119f781611dc0565b15611a6a576040517f08c379a000000000000000000000000000000000000000000000000000000000815260040180806020018281038252601c8152602001807f4465616c65723a2053657269657320616c72656164792061646465640000000081525060200191505060405180910390fd5b816007600083815260200190815260200160002060006101000a81548173ffffffffffffffffffffffffffffffffffffffff021916908373ffffffffffffffffffffffffffffffffffffffff16021790555060088190806001815401808255809150506001900390600052602060002001600090919091909150555050565b60008060009054906101000a900473ffffffffffffffffffffffffffffffffffffffff16905090565b7f574554480000000000000000000000000000000000000000000000000000000060055414611b8c576040517f08c379a00000000000000000000000000000000000000000000000000000000081526004018080602001828103825260288152602001806132f56028913960400191505060405180910390fd5b6000611b97836111a1565b14611c0a576040517f08c379a000000000000000000000000000000000000000000000000000000000815260040180806020018281038252601c8152602001807f4465616c65723a2053706c697420616c6c20646562742066697273740000000081525060200191505060405180910390fd5b6000600660008473ffffffffffffffffffffffffffffffffffffffff1673ffffffffffffffffffffffffffffffffffffffff168152602001908152602001600020549050600660008473ffffffffffffffffffffffffffffffffffffffff1673ffffffffffffffffffffffffffffffffffffffff16815260200190815260200160002060009055600160009054906101000a900473ffffffffffffffffffffffffffffffffffffffff1673ffffffffffffffffffffffffffffffffffffffff16636f12ba7f838360006040518463ffffffff1660e01b8152600401808473ffffffffffffffffffffffffffffffffffffffff1673ffffffffffffffffffffffffffffffffffffffff1681526020018381526020018281526020019350505050600060405180830381600087803b158015611d4357600080fd5b505af1158015611d57573d6000803e3d6000fd5b50505050505050565b7f574554480000000000000000000000000000000000000000000000000000000081565b7f434841490000000000000000000000000000000000000000000000000000000081565b60066020528060005260406000206000915090505481565b60008073ffffffffffffffffffffffffffffffffffffffff166007600084815260200190815260200160002060009054906101000a900473ffffffffffffffffffffffffffffffffffffffff1673ffffffffffffffffffffffffffffffffffffffff1614159050919050565b600360009054906101000a900473ffffffffffffffffffffffffffffffffffffffff1673ffffffffffffffffffffffffffffffffffffffff166323b872dd83600160009054906101000a900473ffffffffffffffffffffffffffffffffffffffff16846040518463ffffffff1660e01b8152600401808473ffffffffffffffffffffffffffffffffffffffff1673ffffffffffffffffffffffffffffffffffffffff1681526020018373ffffffffffffffffffffffffffffffffffffffff1673ffffffffffffffffffffffffffffffffffffffff1681526020018281526020019350505050602060405180830381600087803b158015611f2b57600080fd5b505af1158015611f3f573d6000803e3d6000fd5b505050506040513d6020811015611f5557600080fd5b8101908080519060200190929190505050611fd8576040517f08c379a00000000000000000000000000000000000000000000000000000000081526004018080602001828103825260208152602001807f4465616c65723a20436f6c6c61746572616c207472616e73666572206661696c81525060200191505060405180910390fd5b7f5745544800000000000000000000000000000000000000000000000000000000600554141561208957600160009054906101000a900473ffffffffffffffffffffffffffffffffffffffff1673ffffffffffffffffffffffffffffffffffffffff16630b6500ee6040518163ffffffff1660e01b8152600401600060405180830381600087803b15801561206c57600080fd5b505af1158015612080573d6000803e3d6000fd5b505050506121a9565b7f4348414900000000000000000000000000000000000000000000000000000000600554141561213a57600160009054906101000a900473ffffffffffffffffffffffffffffffffffffffff1673ffffffffffffffffffffffffffffffffffffffff1663653b8e816040518163ffffffff1660e01b8152600401600060405180830381600087803b15801561211d57600080fd5b505af1158015612131573d6000803e3d6000fd5b505050506121a8565b6040517f08c379a000000000000000000000000000000000000000000000000000000000815260040180806020018281038252601e8152602001807f4465616c65723a20556e737570706f7274656420636f6c6c61746572616c000081525060200191505060405180910390fd5b5b6121fb81600660008573ffffffffffffffffffffffffffffffffffffffff1673ffffffffffffffffffffffffffffffffffffffff16815260200190815260200160002054612d4790919063ffffffff16565b600660008473ffffffffffffffffffffffffffffffffffffffff1673ffffffffffffffffffffffffffffffffffffffff168152602001908152602001600020819055505050565b60055481565b60076020528060005260406000206000915054906101000a900473ffffffffffffffffffffffffffffffffffffffff1681565b61228483611dc0565b6122f6576040517f08c379a000000000000000000000000000000000000000000000000000000000815260040180806020018281038252601b8152602001807f4465616c65723a20556e7265636f676e697a656420736572696573000000000081525060200191505060405180910390fd5b600080612304858585612ed0565b915091506007600086815260200190815260200160002060009054906101000a900473ffffffffffffffffffffffffffffffffffffffff1673ffffffffffffffffffffffffffffffffffffffff16639dc29fac85846040518363ffffffff1660e01b8152600401808373ffffffffffffffffffffffffffffffffffffffff1673ffffffffffffffffffffffffffffffffffffffff16815260200182815260200192505050600060405180830381600087803b1580156123c257600080fd5b505af11580156123d6573d6000803e3d6000fd5b5050505061243d816009600088815260200190815260200160002060008773ffffffffffffffffffffffffffffffffffffffff1673ffffffffffffffffffffffffffffffffffffffff16815260200190815260200160002054612e7e90919063ffffffff16565b6009600087815260200190815260200160002060008673ffffffffffffffffffffffffffffffffffffffff1673ffffffffffffffffffffffffffffffffffffffff168152602001908152602001600020819055505050505050565b6124a0612ec8565b73ffffffffffffffffffffffffffffffffffffffff166000809054906101000a900473ffffffffffffffffffffffffffffffffffffffff1673ffffffffffffffffffffffffffffffffffffffff1614612561576040517f08c379a00000000000000000000000000000000000000000000000000000000081526004018080602001828103825260208152602001807f4f776e61626c653a2063616c6c6572206973206e6f7420746865206f776e657281525060200191505060405180910390fd5b600073ffffffffffffffffffffffffffffffffffffffff168173ffffffffffffffffffffffffffffffffffffffff1614156125e7576040517f08c379a00000000000000000000000000000000000000000000000000000000081526004018080602001828103825260268152602001806132ae6026913960400191505060405180910390fd5b8073ffffffffffffffffffffffffffffffffffffffff166000809054906101000a900473ffffffffffffffffffffffffffffffffffffffff1673ffffffffffffffffffffffffffffffffffffffff167f8be0079c531659141344cd1fd0a4f28419497f9722a3daafe3b4186f6b6457e060405160405180910390a3806000806101000a81548173ffffffffffffffffffffffffffffffffffffffff021916908373ffffffffffffffffffffffffffffffffffffffff16021790555050565b6126f781600660008573ffffffffffffffffffffffffffffffffffffffff1673ffffffffffffffffffffffffffffffffffffffff16815260200190815260200160002054612e7e90919063ffffffff16565b600660008473ffffffffffffffffffffffffffffffffffffffff1673ffffffffffffffffffffffffffffffffffffffff16815260200190815260200160002081905550612743826109ad565b6127b5576040517f08c379a000000000000000000000000000000000000000000000000000000000815260040180806020018281038252601c8152602001807f4465616c65723a2046726565206d6f726520636f6c6c61746572616c0000000081525060200191505060405180910390fd5b7f574554480000000000000000000000000000000000000000000000000000000060055414156128a557600160009054906101000a900473ffffffffffffffffffffffffffffffffffffffff1673ffffffffffffffffffffffffffffffffffffffff16638ac96dfc83836040518363ffffffff1660e01b8152600401808373ffffffffffffffffffffffffffffffffffffffff1673ffffffffffffffffffffffffffffffffffffffff16815260200182815260200192505050600060405180830381600087803b15801561288857600080fd5b505af115801561289c573d6000803e3d6000fd5b50505050612a04565b7f4348414900000000000000000000000000000000000000000000000000000000600554141561299557600160009054906101000a900473ffffffffffffffffffffffffffffffffffffffff1673ffffffffffffffffffffffffffffffffffffffff16639fa8368983836040518363ffffffff1660e01b8152600401808373ffffffffffffffffffffffffffffffffffffffff1673ffffffffffffffffffffffffffffffffffffffff16815260200182815260200192505050600060405180830381600087803b15801561297857600080fd5b505af115801561298c573d6000803e3d6000fd5b50505050612a03565b6040517f08c379a000000000000000000000000000000000000000000000000000000000815260040180806020018281038252601e8152602001807f4465616c65723a20556e737570706f7274656420636f6c6c61746572616c000081525060200191505060405180910390fd5b5b5050565b600080612a1f8585612a1a88876109cf565b612ed0565b91509150600260009054906101000a900473ffffffffffffffffffffffffffffffffffffffff1673ffffffffffffffffffffffffffffffffffffffff166323b872dd85600160009054906101000a900473ffffffffffffffffffffffffffffffffffffffff16856040518463ffffffff1660e01b8152600401808473ffffffffffffffffffffffffffffffffffffffff1673ffffffffffffffffffffffffffffffffffffffff1681526020018373ffffffffffffffffffffffffffffffffffffffff1673ffffffffffffffffffffffffffffffffffffffff1681526020018281526020019350505050602060405180830381600087803b158015612b2257600080fd5b505af1158015612b36573d6000803e3d6000fd5b505050506040513d6020811015612b4c57600080fd5b8101908080519060200190929190505050612bcf576040517f08c379a00000000000000000000000000000000000000000000000000000000081526004018080602001828103825260198152602001807f4465616c65723a20446169207472616e73666572206661696c0000000000000081525060200191505060405180910390fd5b600160009054906101000a900473ffffffffffffffffffffffffffffffffffffffff1673ffffffffffffffffffffffffffffffffffffffff1663adb987e36040518163ffffffff1660e01b8152600401600060405180830381600087803b158015612c3957600080fd5b505af1158015612c4d573d6000803e3d6000fd5b50505050612cb4816009600088815260200190815260200160002060008773ffffffffffffffffffffffffffffffffffffffff1673ffffffffffffffffffffffffffffffffffffffff16815260200190815260200160002054612e7e90919063ffffffff16565b6009600087815260200190815260200160002060008673ffffffffffffffffffffffffffffffffffffffff1673ffffffffffffffffffffffffffffffffffffffff168152602001908152602001600020819055505050505050565b6000612d3e83612d30612d2185612fb4565b8761303e90919063ffffffff16565b6130c490919063ffffffff16565b90509392505050565b600080828401905083811015612dc5576040517f08c379a000000000000000000000000000000000000000000000000000000000815260040180806020018281038252601b8152602001807f536166654d6174683a206164646974696f6e206f766572666c6f77000000000081525060200191505060405180910390fd5b8091505092915050565b6000612dfe612ddd83612fb4565b612df0858761303e90919063ffffffff16565b6130c490919063ffffffff16565b90509392505050565b600080612e3d84612e2f612e206001870160ff16612fb4565b8861303e90919063ffffffff16565b6130c490919063ffffffff16565b90506000600a8281612e4b57fe5b061115612e68576001600a8281612e5e57fe5b0401915050612e77565b600a8181612e7257fe5b049150505b9392505050565b6000612ec083836040518060400160405280601e81526020017f536166654d6174683a207375627472616374696f6e206f766572666c6f77000081525061310e565b905092915050565b600033905090565b6000806000612ee884612ee3888861165a565b6131ce565b90506000612f8d612f5e612eff601b60ff16612fb4565b600960008b815260200190815260200160002060008a73ffffffffffffffffffffffffffffffffffffffff1673ffffffffffffffffffffffffffffffffffffffff1681526020019081526020016000205461303e90919063ffffffff16565b612f86612f6e601b60ff16612fb4565b612f788b8b61165a565b61303e90919063ffffffff16565b601b612e07565b905081612fa682601b85612dcf9092919063ffffffff16565b935093505050935093915050565b6000604d8260ff161115613030576040517f08c379a00000000000000000000000000000000000000000000000000000000081526004018080602001828103825260118152602001807f546f6f206d616e7920646563696d616c7300000000000000000000000000000081525060200191505060405180910390fd5b8160ff16600a0a9050919050565b60008083141561305157600090506130be565b600082840290508284828161306257fe5b04146130b9576040517f08c379a00000000000000000000000000000000000000000000000000000000081526004018080602001828103825260218152602001806132d46021913960400191505060405180910390fd5b809150505b92915050565b600061310683836040518060400160405280601a81526020017f536166654d6174683a206469766973696f6e206279207a65726f0000000000008152506131e7565b905092915050565b60008383111582906131bb576040517f08c379a00000000000000000000000000000000000000000000000000000000081526004018080602001828103825283818151815260200191508051906020019080838360005b83811015613180578082015181840152602081019050613165565b50505050905090810190601f1680156131ad5780820380516001836020036101000a031916815260200191505b509250505060405180910390fd5b5060008385039050809150509392505050565b60008183106131dd57816131df565b825b905092915050565b60008083118290613293576040517f08c379a00000000000000000000000000000000000000000000000000000000081526004018080602001828103825283818151815260200191508051906020019080838360005b8381101561325857808201518184015260208101905061323d565b50505050905090810190601f1680156132855780820380516001836020036101000a031916815260200191505b509250505060405180910390fd5b50600083858161329f57fe5b04905080915050939250505056fe4f776e61626c653a206e6577206f776e657220697320746865207a65726f2061646472657373536166654d6174683a206d756c7469706c69636174696f6e206f766572666c6f774465616c65723a20556e737570706f7274656420636f6c6c61746572616c20666f722073706c6974a26469706673582212201023a0609d91efd45e77ab8c01cd3f718ca3168608b0f1df25d61b8ea5fda36664736f6c63430006020033",
  "source": "pragma solidity ^0.6.2;\n\nimport \"@hq20/contracts/contracts/math/DecimalMath.sol\";\nimport \"@openzeppelin/contracts/access/Ownable.sol\";\nimport \"@openzeppelin/contracts/math/Math.sol\";\nimport \"@openzeppelin/contracts/math/SafeMath.sol\";\nimport \"@openzeppelin/contracts/token/ERC20/IERC20.sol\";\nimport \"./interfaces/IChai.sol\";\nimport \"./interfaces/IOracle.sol\";\nimport \"./interfaces/ITreasury.sol\";\nimport \"./interfaces/IYDai.sol\";\nimport \"./Constants.sol\";\n\n\n/// @dev A dealer takes collateral and issues yDai. There is one Dealer per series.\ncontract Dealer is Ownable, Constants {\n    using SafeMath for uint256;\n    using DecimalMath for uint256;\n    using DecimalMath for uint8;\n\n    bytes32 public constant WETH = \"WETH\"; // TODO: Upgrade to 0.6.9 and use immutable\n    bytes32 public constant CHAI = \"CHAI\"; // TODO: Upgrade to 0.6.9 and use immutable\n\n    ITreasury internal _treasury;\n    IERC20 internal _dai;\n    IERC20 internal _token;                       // Weth or Chai\n    IOracle internal _oracle;                     // WethOracle or ChaiOracle\n    bytes32 public collateral;                    // \"WETH\" or \"CHAI\". Upgrade to 0.6.8 and make immutable\n    mapping(address => uint256) public posted;    // In Weth or Chai\n    mapping(uint256 => IYDai) public series;      // YDai series, indexed by maturity\n    uint256[] internal seriesIterator;            // We need to know all the series\n    mapping(uint256 => mapping(address => uint256)) public debtYDai;  // By series, in yDai\n\n    constructor (\n        address treasury_,\n        address dai_,\n        address token_,\n        address oracle_,\n        bytes32 collateral_\n    ) public {\n        _treasury = ITreasury(treasury_);\n        _dai = IERC20(dai_);\n        _token = IERC20(token_);\n        _oracle = IOracle(oracle_);\n        require(\n            collateral_ == WETH || collateral_ == CHAI,\n            \"Dealer: Unsupported collateral\"\n        );\n        collateral = collateral_;\n    }\n\n    /// @dev Returns if a series has been added to the Dealer, for a given series identified by maturity\n    function containsSeries(uint256 maturity) public view returns (bool) {\n        return address(series[maturity]) != address(0);\n    }\n\n    /// @dev Adds an yDai series to this Dealer\n    function addSeries(address yDaiContract) public onlyOwner {\n        uint256 maturity = IYDai(yDaiContract).maturity();\n        require(\n            !containsSeries(maturity),\n            \"Dealer: Series already added\"\n        );\n        series[maturity] = IYDai(yDaiContract);\n        seriesIterator.push(maturity);\n    }\n\n    /// @dev Maximum borrowing power of an user in dai for a given collateral\n    //\n    // powerOf[user](wad) = posted[user](wad) * oracle.price()(ray)\n    //\n    function powerOf(address user) public returns (uint256) {\n        // dai = price * collateral\n        return posted[user].muld(_oracle.price(), RAY);\n    }\n\n    /// @dev Returns the total debt of an user, across all series, in yDai\n    function totalDebtYDai(address user) public view returns (uint256) {\n        uint256 totalDebt;\n        for (uint256 i = 0; i < seriesIterator.length; i += 1) {\n            totalDebt = totalDebt + debtYDai[seriesIterator[i]][user];\n        } // We don't expect hundreds of maturities per dealer\n        return totalDebt;\n    }\n\n    /// @dev Return if the borrowing power of an user is equal or greater than its debt\n    function isCollateralized(address user) public returns (bool) {\n        return powerOf(user) >= totalDebtDai(user);\n    }\n\n    /// @dev Returns the dai equivalent of an yDai amount, for a given series identified by maturity\n    function inDai(uint256 maturity, uint256 yDaiAmount) public view returns (uint256) {\n        require(\n            containsSeries(maturity),\n            \"Dealer: Unrecognized series\"\n        );\n        if (series[maturity].isMature()){\n            return yDaiAmount.muld(series[maturity].rate(), RAY);\n        }\n        else {\n            return yDaiAmount;\n        }\n    }\n\n    /// @dev Returns the yDai equivalent of a dai amount, for a given series identified by maturity\n    function inYDai(uint256 maturity, uint256 daiAmount) public view returns (uint256) {\n        require(\n            containsSeries(maturity),\n            \"Dealer: Unrecognized series\"\n        );\n        if (series[maturity].isMature()){\n            return daiAmount.divd(series[maturity].rate(), RAY);\n        }\n        else {\n            return daiAmount;\n        }\n    }\n\n    /// @dev Return debt in dai of an user, for a given series identified by maturity\n    //\n    //                        rate_now\n    // debt_now = debt_mat * ----------\n    //                        rate_mat\n    //\n    function debtDai(uint256 maturity, address user) public view returns (uint256) {\n        return inDai(maturity, debtYDai[maturity][user]);\n    }\n\n    /// @dev Returns the total debt of an user, across all series, in Dai\n    function totalDebtDai(address user) public view returns (uint256) {\n        uint256 totalDebt;\n        for (uint256 i = 0; i < seriesIterator.length; i += 1) {\n            totalDebt = totalDebt + debtDai(seriesIterator[i], user);\n        } // We don't expect hundreds of maturities per dealer\n        return totalDebt;\n    }\n\n    /// @dev Takes collateral _token from `from` address\n    // from --- Token ---> us\n    function post(address from, uint256 amount) public virtual {\n        require(\n            _token.transferFrom(from, address(_treasury), amount),\n            \"Dealer: Collateral transfer fail\"\n        );\n        if (collateral == WETH){\n            _treasury.pushWeth();                          // Have Treasury process the weth\n        } else if (collateral == CHAI) {\n            _treasury.pushChai();\n        } else {\n            revert(\"Dealer: Unsupported collateral\");\n        }\n        posted[from] = posted[from].add(amount);\n    }\n\n    /// @dev Returns collateral to `to` address\n    // us --- Token ---> to\n    function withdraw(address to, uint256 amount) public virtual {\n        posted[to] = posted[to].sub(amount); // Will revert if not enough posted\n\n        require(\n            isCollateralized(to),\n            \"Dealer: Free more collateral\"\n        );\n\n        if (collateral == WETH){\n            _treasury.pullWeth(to, amount);                          // Take weth from Treasury and give it to `to`\n        } else if (collateral == CHAI) {\n            _treasury.pullChai(to, amount);\n        } else {\n            revert(\"Dealer: Unsupported collateral\");\n        }\n    }\n\n    /// @dev Mint yDai for address `to` by locking its market value in collateral, user debt is increased.\n    //\n    // posted[user](wad) >= (debtYDai[user](wad)) * amount (wad)) * collateralization (ray)\n    //\n    // us --- yDai ---> user\n    // debt++\n    function borrow(uint256 maturity, address to, uint256 yDaiAmount) public {\n        require(\n            containsSeries(maturity),\n            \"Dealer: Unrecognized series\"\n        );\n        require(\n            series[maturity].isMature() != true,\n            \"Dealer: No mature borrow\"\n        );\n\n        debtYDai[maturity][to] = debtYDai[maturity][to].add(yDaiAmount);\n\n        require(\n            isCollateralized(to),\n            \"Dealer: Post more collateral\"\n        );\n\n        series[maturity].mint(to, yDaiAmount);\n    }\n\n    /// @dev Burns yDai from `from` address, user debt is decreased.\n    //                                                  debt_nominal\n    // debt_discounted = debt_nominal - repay_amount * ---------------\n    //                                                  debt_now\n    //\n    // user --- yDai ---> us\n    // debt--\n    function repayYDai(uint256 maturity, address from, uint256 yDaiAmount) public {\n        require(\n            containsSeries(maturity),\n            \"Dealer: Unrecognized series\"\n        );\n        (uint256 toRepay, uint256 debtDecrease) = amounts(maturity, from, yDaiAmount);\n        series[maturity].burn(from, toRepay);\n        debtYDai[maturity][from] = debtYDai[maturity][from].sub(debtDecrease);\n    }\n\n    /// @dev Takes dai from `from` address, user debt is decreased.\n    //                                                  debt_nominal\n    // debt_discounted = debt_nominal - repay_amount * ---------------\n    //                                                  debt_now\n    //\n    // user --- dai ---> us\n    // debt--\n    function repayDai(uint256 maturity, address from, uint256 daiAmount) public {\n        (uint256 toRepay, uint256 debtDecrease) = amounts(maturity, from, inYDai(maturity, daiAmount));\n        require(\n            _dai.transferFrom(from, address(_treasury), toRepay),  // Take dai from user to Treasury\n            \"Dealer: Dai transfer fail\"\n        );\n\n        _treasury.pushDai();                                      // Have Treasury process the dai\n        debtYDai[maturity][from] = debtYDai[maturity][from].sub(debtDecrease);\n    }\n\n    /// @dev Moves all debt for one series from `from` in YDai to `to` in MakerDAO.\n    /// It also moves just enough weth from YDai to MakerDAO to enable the debt transfer.\n    /// `to` needs to surround this call with `_vat.hope(address(_treasury))` and `_vat.nope(address(_treasury))`\n    function splitPosition(uint256 maturity, address from, address to) public {\n        require(\n            collateral == WETH,\n            \"Dealer: Unsupported collateral for split\"\n        );\n        uint256 price = _oracle.price();\n        uint256 debt = debtDai(maturity, from);\n        uint256 weth = divdrup(debt, price, RAY);\n        posted[from] = posted[from].sub(weth);\n        _treasury.transferPosition(to, weth, debt);            // Transfer weth and debt\n        delete debtYDai[maturity][from];                       // Delete debt\n    }\n\n    /// @dev Moves all weth from `from` in YDai to `to` in MakerDAO.\n    /// Can only be called with no YDai debt.\n    /// `to` needs to surround this call with `_vat.hope(address(_treasury))` and `_vat.nope(address(_treasury))`\n    function splitCollateral(address from, address to) public {\n        require(\n            collateral == WETH,\n            \"Dealer: Unsupported collateral for split\"\n        );\n        require(\n            totalDebtYDai(from) == 0,\n            \"Dealer: Split all debt first\"\n        );\n        uint256 weth = posted[from];\n        delete posted[from];\n        _treasury.transferPosition(to, weth, 0);\n    }\n\n    /// @dev Calculates the amount to repay and the amount by which to reduce the debt\n    function amounts(uint256 maturity, address user, uint256 yDaiAmount) internal view returns(uint256, uint256) {\n        uint256 toRepay = Math.min(yDaiAmount, debtDai(maturity, user));\n        // TODO: Check if this can be taken from DecimalMath.sol\n        // uint256 debtProportion = debtYDai[user].mul(RAY.unit())\n        //     .divdr(debtDai(user).mul(RAY.unit()), RAY);\n        uint256 debtProportion = divdrup( // TODO: Check it works if we are not rounding.\n            debtYDai[maturity][user].mul(RAY.unit()),\n            debtDai(maturity, user).mul(RAY.unit()),\n            RAY\n        );\n        return (toRepay, toRepay.muld(debtProportion, RAY));\n    }\n\n    /// @dev Divides x between y, rounding up to the closest representable number.\n    /// Assumes x and y are both fixed point with `decimals` digits.\n     // TODO: Check if this needs to be taken from DecimalMath.sol\n    function divdrup(uint256 x, uint256 y, uint8 decimals)\n        internal pure returns (uint256)\n    {\n        uint256 z = x.mul((decimals + 1).unit()).div(y);\n        if (z % 10 > 0) return z / 10 + 1;\n        else return z / 10;\n    }\n}",
  "sourcePath": "/Users/bruce/dev/yieldprotocol/ytoken-mvp/contracts/Dealer.sol",
  "compiler": {
    "name": "solc",
    "version": "0.6.2+commit.bacdbe57.Emscripten.clang"
  },
  "schemaVersion": "3.0.23",
  "updatedAt": "2020-06-11T16:17:06.112Z",
  "networkType": "ethereum",
  "devdoc": {
    "details": "A dealer takes collateral and issues yDai. There is one Dealer per series.",
    "methods": {
      "addSeries(address)": {
        "details": "Adds an yDai series to this Dealer"
      },
      "borrow(uint256,address,uint256)": {
        "details": "Mint yDai for address `to` by locking its market value in collateral, user debt is increased."
      },
      "containsSeries(uint256)": {
        "details": "Returns if a series has been added to the Dealer, for a given series identified by maturity"
      },
      "debtDai(uint256,address)": {
        "details": "Return debt in dai of an user, for a given series identified by maturity"
      },
      "inDai(uint256,uint256)": {
        "details": "Returns the dai equivalent of an yDai amount, for a given series identified by maturity"
      },
      "inYDai(uint256,uint256)": {
        "details": "Returns the yDai equivalent of a dai amount, for a given series identified by maturity"
      },
      "isCollateralized(address)": {
        "details": "Return if the borrowing power of an user is equal or greater than its debt"
      },
      "owner()": {
        "details": "Returns the address of the current owner."
      },
      "post(address,uint256)": {
        "details": "Takes collateral _token from `from` address"
      },
      "powerOf(address)": {
        "details": "Maximum borrowing power of an user in dai for a given collateral"
      },
      "renounceOwnership()": {
        "details": "Leaves the contract without owner. It will not be possible to call `onlyOwner` functions anymore. Can only be called by the current owner.     * NOTE: Renouncing ownership will leave the contract without an owner, thereby removing any functionality that is only available to the owner."
      },
      "repayDai(uint256,address,uint256)": {
        "details": "Takes dai from `from` address, user debt is decreased."
      },
      "repayYDai(uint256,address,uint256)": {
        "details": "Burns yDai from `from` address, user debt is decreased."
      },
      "splitCollateral(address,address)": {
        "details": "Moves all weth from `from` in YDai to `to` in MakerDAO. Can only be called with no YDai debt. `to` needs to surround this call with `_vat.hope(address(_treasury))` and `_vat.nope(address(_treasury))`"
      },
      "splitPosition(uint256,address,address)": {
        "details": "Moves all debt for one series from `from` in YDai to `to` in MakerDAO. It also moves just enough weth from YDai to MakerDAO to enable the debt transfer. `to` needs to surround this call with `_vat.hope(address(_treasury))` and `_vat.nope(address(_treasury))`"
      },
      "totalDebtDai(address)": {
        "details": "Returns the total debt of an user, across all series, in Dai"
      },
      "totalDebtYDai(address)": {
        "details": "Returns the total debt of an user, across all series, in yDai"
      },
      "transferOwnership(address)": {
        "details": "Transfers ownership of the contract to a new account (`newOwner`). Can only be called by the current owner."
      },
      "withdraw(address,uint256)": {
        "details": "Returns collateral to `to` address"
      }
    }
  },
  "userdoc": {
    "methods": {}
  }
}