{
  "contractName": "Dealer",
  "abi": [
    {
      "inputs": [
        {
          "internalType": "address",
          "name": "vat_",
          "type": "address"
        },
        {
          "internalType": "address",
          "name": "weth_",
          "type": "address"
        },
        {
          "internalType": "address",
          "name": "dai_",
          "type": "address"
        },
        {
          "internalType": "address",
          "name": "pot_",
          "type": "address"
        },
        {
          "internalType": "address",
          "name": "chai_",
          "type": "address"
        },
        {
          "internalType": "address",
          "name": "gasToken_",
          "type": "address"
        },
        {
          "internalType": "address",
          "name": "treasury_",
          "type": "address"
        }
      ],
      "stateMutability": "nonpayable",
      "type": "constructor"
    },
    {
      "anonymous": false,
      "inputs": [
        {
          "indexed": true,
          "internalType": "bytes32",
          "name": "collateral",
          "type": "bytes32"
        },
        {
          "indexed": true,
          "internalType": "uint256",
          "name": "maturity",
          "type": "uint256"
        },
        {
          "indexed": true,
          "internalType": "address",
          "name": "user",
          "type": "address"
        },
        {
          "indexed": false,
          "internalType": "int256",
          "name": "amount",
          "type": "int256"
        }
      ],
      "name": "Borrowed",
      "type": "event"
    },
    {
      "anonymous": false,
      "inputs": [
        {
          "indexed": true,
          "internalType": "address",
          "name": "user",
          "type": "address"
        },
        {
          "indexed": true,
          "internalType": "address",
          "name": "delegate",
          "type": "address"
        },
        {
          "indexed": false,
          "internalType": "bool",
          "name": "enabled",
          "type": "bool"
        }
      ],
      "name": "Delegate",
      "type": "event"
    },
    {
      "anonymous": false,
      "inputs": [
        {
          "indexed": false,
          "internalType": "address",
          "name": "access",
          "type": "address"
        }
      ],
      "name": "GrantedAccess",
      "type": "event"
    },
    {
      "anonymous": false,
      "inputs": [
        {
          "indexed": true,
          "internalType": "address",
          "name": "previousOwner",
          "type": "address"
        },
        {
          "indexed": true,
          "internalType": "address",
          "name": "newOwner",
          "type": "address"
        }
      ],
      "name": "OwnershipTransferred",
      "type": "event"
    },
    {
      "anonymous": false,
      "inputs": [
        {
          "indexed": true,
          "internalType": "bytes32",
          "name": "collateral",
          "type": "bytes32"
        },
        {
          "indexed": true,
          "internalType": "address",
          "name": "user",
          "type": "address"
        },
        {
          "indexed": false,
          "internalType": "int256",
          "name": "amount",
          "type": "int256"
        }
      ],
      "name": "Posted",
      "type": "event"
    },
    {
      "inputs": [],
      "name": "CHAI",
      "outputs": [
        {
          "internalType": "bytes32",
          "name": "",
          "type": "bytes32"
        }
      ],
      "stateMutability": "view",
      "type": "function",
      "constant": true
    },
    {
      "inputs": [],
      "name": "UNIT",
      "outputs": [
        {
          "internalType": "uint256",
          "name": "",
          "type": "uint256"
        }
      ],
      "stateMutability": "view",
      "type": "function",
      "constant": true
    },
    {
      "inputs": [],
      "name": "WETH",
      "outputs": [
        {
          "internalType": "bytes32",
          "name": "",
          "type": "bytes32"
        }
      ],
      "stateMutability": "view",
      "type": "function",
      "constant": true
    },
    {
      "inputs": [
        {
          "internalType": "address",
          "name": "delegate",
          "type": "address"
        }
      ],
      "name": "addDelegate",
      "outputs": [],
      "stateMutability": "nonpayable",
      "type": "function"
    },
    {
      "inputs": [
        {
          "internalType": "bytes32",
          "name": "",
          "type": "bytes32"
        },
        {
          "internalType": "uint256",
          "name": "",
          "type": "uint256"
        },
        {
          "internalType": "address",
          "name": "",
          "type": "address"
        }
      ],
      "name": "debtYDai",
      "outputs": [
        {
          "internalType": "uint256",
          "name": "",
          "type": "uint256"
        }
      ],
      "stateMutability": "view",
      "type": "function",
      "constant": true
    },
    {
      "inputs": [],
      "name": "live",
      "outputs": [
        {
          "internalType": "bool",
          "name": "",
          "type": "bool"
        }
      ],
      "stateMutability": "view",
      "type": "function",
      "constant": true
    },
    {
      "inputs": [
        {
          "internalType": "address",
          "name": "user",
          "type": "address"
        }
      ],
      "name": "orchestrate",
      "outputs": [],
      "stateMutability": "nonpayable",
      "type": "function"
    },
    {
      "inputs": [],
      "name": "owner",
      "outputs": [
        {
          "internalType": "address",
          "name": "",
          "type": "address"
        }
      ],
      "stateMutability": "view",
      "type": "function",
      "constant": true
    },
    {
      "inputs": [
        {
          "internalType": "bytes32",
          "name": "",
          "type": "bytes32"
        },
        {
          "internalType": "address",
          "name": "",
          "type": "address"
        }
      ],
      "name": "posted",
      "outputs": [
        {
          "internalType": "uint256",
          "name": "",
          "type": "uint256"
        }
      ],
      "stateMutability": "view",
      "type": "function",
      "constant": true
    },
    {
      "inputs": [],
      "name": "renounceOwnership",
      "outputs": [],
      "stateMutability": "nonpayable",
      "type": "function"
    },
    {
      "inputs": [
        {
          "internalType": "address",
          "name": "delegate",
          "type": "address"
        }
      ],
      "name": "revokeDelegate",
      "outputs": [],
      "stateMutability": "nonpayable",
      "type": "function"
    },
    {
      "inputs": [
        {
          "internalType": "uint256",
          "name": "",
          "type": "uint256"
        }
      ],
      "name": "series",
      "outputs": [
        {
          "internalType": "contract IYDai",
          "name": "",
          "type": "address"
        }
      ],
      "stateMutability": "view",
      "type": "function",
      "constant": true
    },
    {
      "inputs": [
        {
          "internalType": "bytes32",
          "name": "",
          "type": "bytes32"
        },
        {
          "internalType": "uint256",
          "name": "",
          "type": "uint256"
        }
      ],
      "name": "systemDebtYDai",
      "outputs": [
        {
          "internalType": "uint256",
          "name": "",
          "type": "uint256"
        }
      ],
      "stateMutability": "view",
      "type": "function",
      "constant": true
    },
    {
      "inputs": [
        {
          "internalType": "bytes32",
          "name": "",
          "type": "bytes32"
        }
      ],
      "name": "systemPosted",
      "outputs": [
        {
          "internalType": "uint256",
          "name": "",
          "type": "uint256"
        }
      ],
      "stateMutability": "view",
      "type": "function",
      "constant": true
    },
    {
      "inputs": [
        {
          "internalType": "address",
          "name": "newOwner",
          "type": "address"
        }
      ],
      "name": "transferOwnership",
      "outputs": [],
      "stateMutability": "nonpayable",
      "type": "function"
    },
    {
      "inputs": [],
      "name": "shutdown",
      "outputs": [],
      "stateMutability": "nonpayable",
      "type": "function"
    },
    {
      "inputs": [
        {
          "internalType": "uint256",
          "name": "maturity",
          "type": "uint256"
        }
      ],
      "name": "containsSeries",
      "outputs": [
        {
          "internalType": "bool",
          "name": "",
          "type": "bool"
        }
      ],
      "stateMutability": "view",
      "type": "function",
      "constant": true
    },
    {
      "inputs": [
        {
          "internalType": "address",
          "name": "yDaiContract",
          "type": "address"
        }
      ],
      "name": "addSeries",
      "outputs": [],
      "stateMutability": "nonpayable",
      "type": "function"
    },
    {
      "inputs": [
        {
          "internalType": "bytes32",
          "name": "collateral",
          "type": "bytes32"
        },
        {
          "internalType": "uint256",
          "name": "maturity",
          "type": "uint256"
        },
        {
          "internalType": "uint256",
          "name": "yDaiAmount",
          "type": "uint256"
        }
      ],
      "name": "inDai",
      "outputs": [
        {
          "internalType": "uint256",
          "name": "",
          "type": "uint256"
        }
      ],
      "stateMutability": "nonpayable",
      "type": "function"
    },
    {
      "inputs": [
        {
          "internalType": "bytes32",
          "name": "collateral",
          "type": "bytes32"
        },
        {
          "internalType": "uint256",
          "name": "maturity",
          "type": "uint256"
        },
        {
          "internalType": "uint256",
          "name": "daiAmount",
          "type": "uint256"
        }
      ],
      "name": "inYDai",
      "outputs": [
        {
          "internalType": "uint256",
          "name": "",
          "type": "uint256"
        }
      ],
      "stateMutability": "nonpayable",
      "type": "function"
    },
    {
      "inputs": [
        {
          "internalType": "bytes32",
          "name": "collateral",
          "type": "bytes32"
        },
        {
          "internalType": "uint256",
          "name": "maturity",
          "type": "uint256"
        },
        {
          "internalType": "address",
          "name": "user",
          "type": "address"
        }
      ],
      "name": "debtDai",
      "outputs": [
        {
          "internalType": "uint256",
          "name": "",
          "type": "uint256"
        }
      ],
      "stateMutability": "nonpayable",
      "type": "function"
    },
    {
      "inputs": [
        {
          "internalType": "bytes32",
          "name": "collateral",
          "type": "bytes32"
        },
        {
          "internalType": "address",
          "name": "user",
          "type": "address"
        }
      ],
      "name": "totalDebtDai",
      "outputs": [
        {
          "internalType": "uint256",
          "name": "",
          "type": "uint256"
        }
      ],
      "stateMutability": "nonpayable",
      "type": "function"
    },
    {
      "inputs": [
        {
          "internalType": "bytes32",
          "name": "collateral",
          "type": "bytes32"
        },
        {
          "internalType": "address",
          "name": "user",
          "type": "address"
        }
      ],
      "name": "powerOf",
      "outputs": [
        {
          "internalType": "uint256",
          "name": "",
          "type": "uint256"
        }
      ],
      "stateMutability": "nonpayable",
      "type": "function"
    },
    {
      "inputs": [
        {
          "internalType": "bytes32",
          "name": "collateral",
          "type": "bytes32"
        },
        {
          "internalType": "address",
          "name": "user",
          "type": "address"
        }
      ],
      "name": "isCollateralized",
      "outputs": [
        {
          "internalType": "bool",
          "name": "",
          "type": "bool"
        }
      ],
      "stateMutability": "nonpayable",
      "type": "function"
    },
    {
      "inputs": [
        {
          "internalType": "bytes32",
          "name": "collateral",
          "type": "bytes32"
        },
        {
          "internalType": "address",
          "name": "from",
          "type": "address"
        },
        {
          "internalType": "address",
          "name": "to",
          "type": "address"
        },
        {
          "internalType": "uint256",
          "name": "amount",
          "type": "uint256"
        }
      ],
      "name": "post",
      "outputs": [],
      "stateMutability": "nonpayable",
      "type": "function"
    },
    {
      "inputs": [
        {
          "internalType": "bytes32",
          "name": "collateral",
          "type": "bytes32"
        },
        {
          "internalType": "address",
          "name": "from",
          "type": "address"
        },
        {
          "internalType": "address",
          "name": "to",
          "type": "address"
        },
        {
          "internalType": "uint256",
          "name": "amount",
          "type": "uint256"
        }
      ],
      "name": "withdraw",
      "outputs": [],
      "stateMutability": "nonpayable",
      "type": "function"
    },
    {
      "inputs": [
        {
          "internalType": "bytes32",
          "name": "collateral",
          "type": "bytes32"
        },
        {
          "internalType": "uint256",
          "name": "maturity",
          "type": "uint256"
        },
        {
          "internalType": "address",
          "name": "to",
          "type": "address"
        },
        {
          "internalType": "uint256",
          "name": "yDaiAmount",
          "type": "uint256"
        }
      ],
      "name": "borrow",
      "outputs": [],
      "stateMutability": "nonpayable",
      "type": "function"
    },
    {
      "inputs": [
        {
          "internalType": "bytes32",
          "name": "collateral",
          "type": "bytes32"
        },
        {
          "internalType": "uint256",
          "name": "maturity",
          "type": "uint256"
        },
        {
          "internalType": "address",
          "name": "from",
          "type": "address"
        },
        {
          "internalType": "uint256",
          "name": "yDaiAmount",
          "type": "uint256"
        }
      ],
      "name": "repayYDai",
      "outputs": [],
      "stateMutability": "nonpayable",
      "type": "function"
    },
    {
      "inputs": [
        {
          "internalType": "bytes32",
          "name": "collateral",
          "type": "bytes32"
        },
        {
          "internalType": "uint256",
          "name": "maturity",
          "type": "uint256"
        },
        {
          "internalType": "address",
          "name": "from",
          "type": "address"
        },
        {
          "internalType": "uint256",
          "name": "daiAmount",
          "type": "uint256"
        }
      ],
      "name": "repayDai",
      "outputs": [],
      "stateMutability": "nonpayable",
      "type": "function"
    },
    {
      "inputs": [
        {
          "internalType": "bytes32",
          "name": "collateral",
          "type": "bytes32"
        },
        {
          "internalType": "address",
          "name": "user",
          "type": "address"
        },
        {
          "internalType": "uint256",
          "name": "daiAmount",
          "type": "uint256"
        },
        {
          "internalType": "uint256",
          "name": "tokenAmount",
          "type": "uint256"
        }
      ],
      "name": "grab",
      "outputs": [],
      "stateMutability": "nonpayable",
      "type": "function"
    }
  ],
  "bytecode": "0x6080604052600f805460ff191660011790553480156200001e57600080fd5b5060405162002ee938038062002ee9833981810160405260e08110156200004457600080fd5b508051602082015160408301516060840151608085015160a086015160c09096015194959394929391929091906000620000866001600160e01b03620001a016565b600080546001600160a01b0319166001600160a01b0383169081178255604051929350917f8be0079c531659141344cd1fd0a4f28419497f9722a3daafe3b4186f6b6457e0908290a350600380546001600160a01b03199081166001600160a01b03998a161790915560048054821696891696909617909555600580548616948816949094179093556006805485169187169190911790556007805484169286169290921790915560086020527fdb5bf7410ffcf9d4b546431cbc6d541870445938d46f89bdc2fd2ef7f81cc6c28054831693851693909317909255634348414960e01b6000527f8157a26e2f81c8da9c39091de67cadb771463c3d6eb78364440712b7808e3210805490911691909216179055620001a4565b3390565b612d3580620001b46000396000f3fe608060405234801561001057600080fd5b50600436106101da5760003560e01c8063ad5c464811610104578063dd62f423116100a2578063f2fde38b11610071578063f2fde38b146105c5578063f51a391a146105eb578063fa352c0014610623578063fc0e74d114610649576101da565b8063dd62f4231461051e578063e68b7cf41461054a578063e71bdf4114610576578063ed7eebf21461059c576101da565b8063c06331dc116100de578063c06331dc14610486578063c5ec0c17146104b2578063d0a3a7e4146104e4578063dc22cb6a14610501576101da565b8063ad5c46481461043a578063adb9e54e14610442578063b6dbf9ce1461047e576101da565b806380f5a4401161017c5780638e0cc1761161014b5780638e0cc176146103bc578063957aa58c146103f857806398cdae5a146104005780639d8e217714610432576101da565b806380f5a44014610332578063839cd27c146103585780638da5cb5b1461037b5780638da66ed91461039f576101da565b806370852042116101b8578063708520421461028c578063715018a6146102c45780637ad29f40146102cc5780637c43a2011461030c576101da565b80630302aeb0146101df5780632f2ea5de146102195780636eb35aba14610254575b600080fd5b610217600480360360808110156101f557600080fd5b508035906020810135906001600160a01b036040820135169060600135610651565b005b6102426004803603606081101561022f57600080fd5b508035906020810135906040013561083b565b60408051918252519081900360200190f35b6102176004803603608081101561026a57600080fd5b508035906020810135906001600160a01b036040820135169060600135610a31565b610217600480360360808110156102a257600080fd5b508035906020810135906001600160a01b036040820135169060600135610bf4565b6102176110ed565b6102f8600480360360408110156102e257600080fd5b50803590602001356001600160a01b03166111ae565b604080519115158252519081900360200190f35b6102176004803603602081101561032257600080fd5b50356001600160a01b03166111cf565b6102176004803603602081101561034857600080fd5b50356001600160a01b031661136a565b6102426004803603604081101561036e57600080fd5b5080359060200135611430565b61038361144d565b604080516001600160a01b039092168252519081900360200190f35b610242600480360360208110156103b557600080fd5b503561145c565b610217600480360360808110156103d257600080fd5b508035906001600160a01b0360208201358116916040810135909116906060013561146e565b6102f8611878565b6102426004803603606081101561041657600080fd5b50803590602081013590604001356001600160a01b0316611881565b6102426118a4565b6102426118b4565b6102176004803603608081101561045857600080fd5b508035906001600160a01b036020820135811691604081013590911690606001356118c0565b610242611b77565b6102426004803603604081101561049c57600080fd5b50803590602001356001600160a01b0316611b82565b610242600480360360608110156104c857600080fd5b50803590602081013590604001356001600160a01b0316611e3d565b6102f8600480360360208110156104fa57600080fd5b5035611e7d565b6103836004803603602081101561051757600080fd5b5035611e9a565b6102426004803603604081101561053457600080fd5b50803590602001356001600160a01b0316611eb5565b6102426004803603604081101561056057600080fd5b50803590602001356001600160a01b0316611ed2565b6102176004803603602081101561058c57600080fd5b50356001600160a01b0316611f7a565b610242600480360360608110156105b257600080fd5b5080359060208101359060400135611fe6565b610217600480360360208110156105db57600080fd5b50356001600160a01b031661217e565b6102176004803603608081101561060157600080fd5b508035906001600160a01b036020820135169060408101359060600135612295565b6102176004803603602081101561063957600080fd5b50356001600160a01b031661260f565b610217612672565b83644554482d4160d81b81148061066e5750634348414960e01b81145b6106bf576040805162461bcd60e51b815260206004820152601f60248201527f4465616c65723a20556e7265636f676e697a656420636f6c6c61746572616c00604482015290519081900360640190fd5b836106c981611e7d565b61071a576040805162461bcd60e51b815260206004820152601b60248201527f4465616c65723a20556e7265636f676e697a6564207365726965730000000000604482015290519081900360640190fd5b600f5460ff1615156001146107605760405162461bcd60e51b8152600401808060200182810382526023815260200180612cbc6023913960400191505060405180910390fd5b6000868152600c6020908152604080832088845282528083206001600160a01b038816845290915281205461079690859061274a565b6000878152600960205260408082205481517f9dc29fac0000000000000000000000000000000000000000000000000000000081526001600160a01b038a81166004830152602482018690529251949550911692639dc29fac9260448084019391929182900301818387803b15801561080e57600080fd5b505af1158015610822573d6000803e3d6000fd5b5050505061083287878784612760565b50505050505050565b600082815260096020908152604080832054815163ae4e7fdf60e01b815291516001600160a01b039091169263ae4e7fdf9260048082019391829003018186803b15801561088857600080fd5b505afa15801561089c573d6000803e3d6000fd5b505050506040513d60208110156108b257600080fd5b505115610a2757644554482d4160d81b8414156109665761095f826009600086815260200190815260200160002060009054906101000a90046001600160a01b03166001600160a01b031663abf1614b6040518163ffffffff1660e01b8152600401602060405180830381600087803b15801561092e57600080fd5b505af1158015610942573d6000803e3d6000fd5b505050506040513d602081101561095857600080fd5b505161288f565b9050610a2a565b634348414960e01b8414156109da5761095f826009600086815260200190815260200160002060009054906101000a90046001600160a01b03166001600160a01b031663cb2401986040518163ffffffff1660e01b8152600401602060405180830381600087803b15801561092e57600080fd5b6040805162461bcd60e51b815260206004820152601e60248201527f4465616c65723a20556e737570706f7274656420636f6c6c61746572616c0000604482015290519081900360640190fd5b50805b9392505050565b83644554482d4160d81b811480610a4e5750634348414960e01b81145b610a9f576040805162461bcd60e51b815260206004820152601f60248201527f4465616c65723a20556e7265636f676e697a656420636f6c6c61746572616c00604482015290519081900360640190fd5b83610aa981611e7d565b610afa576040805162461bcd60e51b815260206004820152601b60248201527f4465616c65723a20556e7265636f676e697a6564207365726965730000000000604482015290519081900360640190fd5b600f5460ff161515600114610b405760405162461bcd60e51b8152600401808060200182810382526023815260200180612cbc6023913960400191505060405180910390fd5b6000610b5684610b51898989611e3d565b61274a565b600754604080517ff93919910000000000000000000000000000000000000000000000000000000081526001600160a01b03898116600483015260248201859052915193945091169163f93919919160448082019260009290919082900301818387803b158015610bc657600080fd5b505af1158015610bda573d6000803e3d6000fd5b50505050610832878787610bef8b8b87611fe6565b612760565b83644554482d4160d81b811480610c115750634348414960e01b81145b610c62576040805162461bcd60e51b815260206004820152601f60248201527f4465616c65723a20556e7265636f676e697a656420636f6c6c61746572616c00604482015290519081900360640190fd5b83610c6c81611e7d565b610cbd576040805162461bcd60e51b815260206004820152601b60248201527f4465616c65723a20556e7265636f676e697a6564207365726965730000000000604482015290519081900360640190fd5b60408051808201909152601f81527f4465616c65723a204f6e6c7920486f6c646572204f722044656c65676174650060208201528490336001600160a01b0383161480610d2d57506001600160a01b038216600090815260026020908152604080832033845290915290205460ff165b8190610db75760405162461bcd60e51b81526004018080602001828103825283818151815260200191508051906020019080838360005b83811015610d7c578181015183820152602001610d64565b50505050905090810190601f168015610da95780820380516001836020036101000a031916815260200191505b509250505060405180910390fd5b50600f5460ff161515600114610dfe5760405162461bcd60e51b8152600401808060200182810382526023815260200180612cbc6023913960400191505060405180910390fd5b60008781526009602090815260409182902054825163ae4e7fdf60e01b815292516001600160a01b039091169263ae4e7fdf926004808301939192829003018186803b158015610e4d57600080fd5b505afa158015610e61573d6000803e3d6000fd5b505050506040513d6020811015610e7757600080fd5b5051151560011415610ed0576040805162461bcd60e51b815260206004820152601860248201527f4465616c65723a204e6f206d617475726520626f72726f770000000000000000604482015290519081900360640190fd5b6000888152600c602090815260408083208a845282528083206001600160a01b038a168452909152902054158015610f06575060015b15610f1557610f15600a6128bd565b6000888152600c602090815260408083208a845282528083206001600160a01b038a168452909152902054610f50908663ffffffff6129e216565b6000898152600c602090815260408083208b845282528083206001600160a01b038b1684528252808320939093558a8252600e81528282208a835290522054610f9f908663ffffffff6129e216565b6000898152600e602090815260408083208b8452909152902055610fc388876111ae565b611014576040805162461bcd60e51b815260206004820152601560248201527f4465616c65723a20546f6f206d75636820646562740000000000000000000000604482015290519081900360640190fd5b6000878152600960205260408082205481517f40c10f190000000000000000000000000000000000000000000000000000000081526001600160a01b038a81166004830152602482018a9052925192909116926340c10f199260448084019382900301818387803b15801561108857600080fd5b505af115801561109c573d6000803e3d6000fd5b50505050856001600160a01b031687897f3dc0ed286b1afbc2228a1e7f81fc3f66aa9f423dca0c6a283eafa53e93adefbe886040518082815260200191505060405180910390a45050505050505050565b6110f5612a3c565b6000546001600160a01b03908116911614611157576040805162461bcd60e51b815260206004820181905260248201527f4f776e61626c653a2063616c6c6572206973206e6f7420746865206f776e6572604482015290519081900360640190fd5b600080546040516001600160a01b03909116907f8be0079c531659141344cd1fd0a4f28419497f9722a3daafe3b4186f6b6457e0908390a36000805473ffffffffffffffffffffffffffffffffffffffff19169055565b60006111ba8383611ed2565b6111c48484611b82565b101590505b92915050565b6111d7612a3c565b6000546001600160a01b03908116911614611239576040805162461bcd60e51b815260206004820181905260248201527f4f776e61626c653a2063616c6c6572206973206e6f7420746865206f776e6572604482015290519081900360640190fd5b6000816001600160a01b031663204f83f96040518163ffffffff1660e01b815260040160206040518083038186803b15801561127457600080fd5b505afa158015611288573d6000803e3d6000fd5b505050506040513d602081101561129e57600080fd5b505190506112ab81611e7d565b156112fd576040805162461bcd60e51b815260206004820152601c60248201527f4465616c65723a2053657269657320616c726561647920616464656400000000604482015290519081900360640190fd5b6000818152600960205260408120805473ffffffffffffffffffffffffffffffffffffffff19166001600160a01b039490941693909317909255600a805460018101825592527fc65a7bb8d6351c1cf70c95a316cc6a92839c986682d98bc35f958f4883f9d2a890910155565b611372612a3c565b6000546001600160a01b039081169116146113d4576040805162461bcd60e51b815260206004820181905260248201527f4f776e61626c653a2063616c6c6572206973206e6f7420746865206f776e6572604482015290519081900360640190fd5b6001600160a01b038116600081815260016020818152604092839020805460ff1916909217909155815192835290517f6a7c5f28ea564fafc8b079663a2a9b9d26fe735d97c97611484ce044f40a16e29281900390910190a150565b600e60209081526000928352604080842090915290825290205481565b6000546001600160a01b031690565b600d6020526000908152604090205481565b83644554482d4160d81b81148061148b5750634348414960e01b81145b6114dc576040805162461bcd60e51b815260206004820152601f60248201527f4465616c65723a20556e7265636f676e697a656420636f6c6c61746572616c00604482015290519081900360640190fd5b60408051808201909152601f81527f4465616c65723a204f6e6c7920486f6c646572204f722044656c65676174650060208201528490336001600160a01b038316148061154c57506001600160a01b038216600090815260026020908152604080832033845290915290205460ff165b81906115995760405162461bcd60e51b8152602060048201818152835160248401528351909283926044909101919085019080838360008315610d7c578181015183820152602001610d64565b50600f5460ff1615156001146115e05760405162461bcd60e51b8152600401808060200182810382526023815260200180612cbc6023913960400191505060405180910390fd5b6000878152600b602090815260408083206001600160a01b038a168452909152902054611613908563ffffffff612a4016565b6000888152600b602090815260408083206001600160a01b038b168452825280832093909355898252600d90522054611652908563ffffffff612a4016565b6000888152600d602052604090205561166b87876111ae565b6116bc576040805162461bcd60e51b815260206004820152601560248201527f4465616c65723a20546f6f206d75636820646562740000000000000000000000604482015290519081900360640190fd5b644554482d4160d81b87141561175757600754604080517f8ac96dfc0000000000000000000000000000000000000000000000000000000081526001600160a01b0388811660048301526024820188905291519190921691638ac96dfc91604480830192600092919082900301818387803b15801561173a57600080fd5b505af115801561174e573d6000803e3d6000fd5b505050506117ed565b634348414960e01b8714156117ed57600754604080517f9fa836890000000000000000000000000000000000000000000000000000000081526001600160a01b0388811660048301526024820188905291519190921691639fa8368991604480830192600092919082900301818387803b1580156117d457600080fd5b505af11580156117e8573d6000803e3d6000fd5b505050505b6000878152600b602090815260408083206001600160a01b038a16845290915290205415801561181b575060015b1561182a5761182a600a612a82565b856001600160a01b0316877fce1994727cf164e30801f140b3019e0d4862d430438ab41de1144b5db719c583866000036040518082815260200191505060405180910390a350505050505050565b600f5460ff1681565b600c60209081526000938452604080852082529284528284209052825290205481565b6b033b2e3c9fd0803ce800000081565b644554482d4160d81b81565b83644554482d4160d81b8114806118dd5750634348414960e01b81145b61192e576040805162461bcd60e51b815260206004820152601f60248201527f4465616c65723a20556e7265636f676e697a656420636f6c6c61746572616c00604482015290519081900360640190fd5b600f5460ff1615156001146119745760405162461bcd60e51b8152600401808060200182810382526023815260200180612cbc6023913960400191505060405180910390fd5b644554482d4160d81b851415611a0f57600754604080517f9a5aaf780000000000000000000000000000000000000000000000000000000081526001600160a01b0387811660048301526024820186905291519190921691639a5aaf7891604480830192600092919082900301818387803b1580156119f257600080fd5b505af1158015611a06573d6000803e3d6000fd5b50505050611aa5565b634348414960e01b851415611aa557600754604080517f1997c3610000000000000000000000000000000000000000000000000000000081526001600160a01b0387811660048301526024820186905291519190921691631997c36191604480830192600092919082900301818387803b158015611a8c57600080fd5b505af1158015611aa0573d6000803e3d6000fd5b505050505b6000858152600b602090815260408083206001600160a01b0387168452909152902054611ad8908363ffffffff6129e216565b6000868152600b602090815260408083206001600160a01b0388168452825280832093909355878252600d90522054611b17908363ffffffff6129e216565b600d600087815260200190815260200160002081905550826001600160a01b0316857fce1994727cf164e30801f140b3019e0d4862d430438ab41de1144b5db719c583846040518082815260200191505060405180910390a35050505050565b634348414960e01b81565b6000644554482d4160d81b831415611c6857600354604080517fd9638d36000000000000000000000000000000000000000000000000000000008152644554482d4160d81b600482015290516000926001600160a01b03169163d9638d369160248083019260a0929190829003018186803b158015611c0057600080fd5b505afa158015611c14573d6000803e3d6000fd5b505050506040513d60a0811015611c2a57600080fd5b506040908101516000868152600b60209081528382206001600160a01b038816835290529190912054909150611c60908261288f565b9150506111c9565b634348414960e01b831415611e3457600554604080517f20aba08b00000000000000000000000000000000000000000000000000000000815290516000926001600160a01b0316916320aba08b91600480830192602092919082900301818787803b158015611cd657600080fd5b505af1158015611cea573d6000803e3d6000fd5b505050506040513d6020811015611d0057600080fd5b50514211611d8757600560009054906101000a90046001600160a01b03166001600160a01b031663c92aecc46040518163ffffffff1660e01b815260040160206040518083038186803b158015611d5657600080fd5b505afa158015611d6a573d6000803e3d6000fd5b505050506040513d6020811015611d8057600080fd5b5051611e04565b600560009054906101000a90046001600160a01b03166001600160a01b0316639f678cca6040518163ffffffff1660e01b8152600401602060405180830381600087803b158015611dd757600080fd5b505af1158015611deb573d6000803e3d6000fd5b505050506040513d6020811015611e0157600080fd5b50515b6000858152600b602090815260408083206001600160a01b0388168452909152902054909150611c60908261288f565b50600092915050565b6000838152600c6020908152604080832085845282528083206001600160a01b0385168452909152812054611e75908590859061083b565b949350505050565b6000908152600960205260409020546001600160a01b0316151590565b6009602052600090815260409020546001600160a01b031681565b600b60209081526000928352604080842090915290825290205481565b600080805b600a54811015611f72576000858152600c60205260408120600a805483919085908110611f0057fe5b906000526020600020015481526020019081526020016000206000866001600160a01b03166001600160a01b03168152602001908152602001600020541115611f6a57611f6585600a8381548110611f5457fe5b906000526020600020015486611e3d565b820191505b600101611ed7565b509392505050565b3360008181526002602090815260408083206001600160a01b03861680855290835292819020805460ff19166001908117909155815190815290519293927f045b0fef01772d2fbba53dbd38c9777806eac0865b00af43abcfbcaf50da9206929181900390910190a350565b600082815260096020908152604080832054815163ae4e7fdf60e01b815291516001600160a01b039091169263ae4e7fdf9260048082019391829003018186803b15801561203357600080fd5b505afa158015612047573d6000803e3d6000fd5b505050506040513d602081101561205d57600080fd5b505115610a2757644554482d4160d81b84141561210a5761095f826009600086815260200190815260200160002060009054906101000a90046001600160a01b03166001600160a01b031663abf1614b6040518163ffffffff1660e01b8152600401602060405180830381600087803b1580156120d957600080fd5b505af11580156120ed573d6000803e3d6000fd5b505050506040513d602081101561210357600080fd5b5051612b1e565b634348414960e01b8414156109da5761095f826009600086815260200190815260200160002060009054906101000a90046001600160a01b03166001600160a01b031663cb2401986040518163ffffffff1660e01b8152600401602060405180830381600087803b1580156120d957600080fd5b612186612a3c565b6000546001600160a01b039081169116146121e8576040805162461bcd60e51b815260206004820181905260248201527f4f776e61626c653a2063616c6c6572206973206e6f7420746865206f776e6572604482015290519081900360640190fd5b6001600160a01b03811661222d5760405162461bcd60e51b8152600401808060200182810382526026815260200180612c966026913960400191505060405180910390fd5b600080546040516001600160a01b03808516939216917f8be0079c531659141344cd1fd0a4f28419497f9722a3daafe3b4186f6b6457e091a36000805473ffffffffffffffffffffffffffffffffffffffff19166001600160a01b0392909216919091179055565b83644554482d4160d81b8114806122b25750634348414960e01b81145b612303576040805162461bcd60e51b815260206004820152601f60248201527f4465616c65723a20556e7265636f676e697a656420636f6c6c61746572616c00604482015290519081900360640190fd5b604080518082018252601681527f4465616c65723a204e6f7420417574686f72697a65640000000000000000000060208083019190915233600090815260019091529190912054819060ff1661239a5760405162461bcd60e51b8152602060048201818152835160248401528351909283926044909101919085019080838360008315610d7c578181015183820152602001610d64565b50604080518082018252601d81527f4465616c65723a204e6f7420656e6f75676820636f6c6c61746572616c0000006020808301919091526000898152600b82528381206001600160a01b038a168252909152919091205461240391859063ffffffff612b4016565b6000878152600b602090815260408083206001600160a01b038a168452825280832093909355888252600d90522054612442908463ffffffff612a4016565b6000878152600d6020526040812091909155805b600a548110156125ba576000600a828154811061246f57fe5b90600052602060002001549050600061249c61248c8b848c611e3d565b610b518a8763ffffffff612a4016565b90506124ae848263ffffffff6129e216565b93506124f56124be8b8484611fe6565b60008c8152600c6020908152604080832087845282528083206001600160a01b038f1684529091529020549063ffffffff612a4016565b60008b8152600c6020908152604080832086845282528083206001600160a01b038e16845290915290205561255461252e8b8484611fe6565b60008c8152600e602090815260408083208784529091529020549063ffffffff612a4016565b60008b8152600e602090815260408083208684528252808320939093558c8252600c815282822085835281528282206001600160a01b038d168352905220546125a1576125a1600a612a82565b878414156125b05750506125ba565b5050600101612456565b50848114610832576040805162461bcd60e51b815260206004820152601c60248201527f4465616c65723a204e6f7420656e6f7567682075736572206465627400000000604482015290519081900360640190fd5b3360008181526002602090815260408083206001600160a01b038616808552908352818420805460ff19169055815193845290519093927f045b0fef01772d2fbba53dbd38c9777806eac0865b00af43abcfbcaf50da920692908290030190a350565b600760009054906101000a90046001600160a01b03166001600160a01b031663957aa58c6040518163ffffffff1660e01b815260040160206040518083038186803b1580156126c057600080fd5b505afa1580156126d4573d6000803e3d6000fd5b505050506040513d60208110156126ea57600080fd5b50511561273e576040805162461bcd60e51b815260206004820152601860248201527f4465616c65723a205472656173757279206973206c6976650000000000000000604482015290519081900360640190fd5b600f805460ff19169055565b60008183106127595781610a2a565b5090919050565b6000848152600c6020908152604080832086845282528083206001600160a01b038616845290915290205461279b908263ffffffff612a4016565b6000858152600c6020908152604080832087845282528083206001600160a01b0387168452825280832093909355868252600e8152828220868352905220546127ea908263ffffffff612a4016565b6000858152600e60209081526040808320878452825280832093909355868252600c815282822086835281528282206001600160a01b038616835290522054158015612834575060015b1561284357612843600a612a82565b816001600160a01b031683857f3dc0ed286b1afbc2228a1e7f81fc3f66aa9f423dca0c6a283eafa53e93adefbe846000036040518082815260200191505060405180910390a450505050565b6000610a2a6b033b2e3c9fd0803ce80000006128b1858563ffffffff612b9a16565b9063ffffffff612bf316565b600654604080517f23b872dd0000000000000000000000000000000000000000000000000000000081523360048201523060248201526044810184905290516001600160a01b03909216916323b872dd916064808201926020929091908290030181600087803b15801561293057600080fd5b505af1158015612944573d6000803e3d6000fd5b505050506040513d602081101561295a57600080fd5b50516129df57600654604080517fa0712d680000000000000000000000000000000000000000000000000000000081526004810184905290516001600160a01b039092169163a0712d689160248082019260009290919082900301818387803b1580156129c657600080fd5b505af11580156129da573d6000803e3d6000fd5b505050505b50565b600082820183811015610a2a576040805162461bcd60e51b815260206004820152601b60248201527f536166654d6174683a206164646974696f6e206f766572666c6f770000000000604482015290519081900360640190fd5b3390565b6000610a2a83836040518060400160405280601e81526020017f536166654d6174683a207375627472616374696f6e206f766572666c6f770000815250612b40565b600654604080517fa9059cbb0000000000000000000000000000000000000000000000000000000081523360048201526024810184905290516001600160a01b039092169163a9059cbb916044808201926020929091908290030181600087803b158015612aef57600080fd5b505af1158015612b03573d6000803e3d6000fd5b505050506040513d6020811015612b1957600080fd5b505050565b6000610a2a826128b1856b033b2e3c9fd0803ce800000063ffffffff612b9a16565b60008184841115612b925760405162461bcd60e51b8152602060048201818152835160248401528351909283926044909101919085019080838360008315610d7c578181015183820152602001610d64565b505050900390565b600082612ba9575060006111c9565b82820282848281612bb657fe5b0414610a2a5760405162461bcd60e51b8152600401808060200182810382526021815260200180612cdf6021913960400191505060405180910390fd5b6000610a2a83836040518060400160405280601a81526020017f536166654d6174683a206469766973696f6e206279207a65726f00000000000081525060008183612c7f5760405162461bcd60e51b8152602060048201818152835160248401528351909283926044909101919085019080838360008315610d7c578181015183820152602001610d64565b506000838581612c8b57fe5b049594505050505056fe4f776e61626c653a206e6577206f776e657220697320746865207a65726f20616464726573734465616c65723a204e6f7420617661696c61626c6520647572696e6720756e77696e64536166654d6174683a206d756c7469706c69636174696f6e206f766572666c6f77a26469706673582212207b332d29a2b022c1f034175f94a14a180975f5f4d75f8e438faabb574721ce9264736f6c634300060a0033",
  "source": "pragma solidity ^0.6.10;\n\nimport \"@openzeppelin/contracts/math/Math.sol\";\nimport \"@openzeppelin/contracts/math/SafeMath.sol\";\nimport \"@openzeppelin/contracts/token/ERC20/IERC20.sol\";\nimport \"./interfaces/IVat.sol\";\nimport \"./interfaces/IPot.sol\";\nimport \"./interfaces/IChai.sol\";\nimport \"./interfaces/IGasToken.sol\";\nimport \"./interfaces/ITreasury.sol\";\nimport \"./interfaces/IDealer.sol\";\nimport \"./interfaces/IYDai.sol\";\nimport \"./helpers/Delegable.sol\";\nimport \"./helpers/DecimalMath.sol\";\nimport \"./helpers/Orchestrated.sol\";\n// import \"@nomiclabs/buidler/console.sol\";\n\n/// @dev A dealer takes collateral and issues yDai.\ncontract Dealer is IDealer, Orchestrated(), Delegable(), DecimalMath {\n    using SafeMath for uint256;\n\n    event Posted(bytes32 indexed collateral, address indexed user, int256 amount);\n    event Borrowed(bytes32 indexed collateral, uint256 indexed maturity, address indexed user, int256 amount);\n\n    bytes32 public constant CHAI = \"CHAI\";\n    bytes32 public constant WETH = \"ETH-A\";\n\n    IVat internal _vat;\n    IERC20 internal _dai;\n    IPot internal _pot;\n    IGasToken internal _gasToken;\n    ITreasury internal _treasury;\n\n    mapping(bytes32 => IERC20) internal _token;                       // Weth or Chai\n    mapping(uint256 => IYDai) public override series;                 // YDai series, indexed by maturity\n    uint256[] internal seriesIterator;                                // We need to know all the series\n\n    mapping(bytes32 => mapping(address => uint256)) public override posted;               // Collateral posted by each user\n    mapping(bytes32 => mapping(uint256 => mapping(address => uint256))) public override debtYDai;  // Debt owed by each user, by series\n\n    mapping(bytes32 => uint256) public override systemPosted;                        // Sum of collateral posted by all users\n    mapping(bytes32 => mapping(uint256 => uint256)) public override systemDebtYDai;  // Sum of debt owed by all users, by series\n\n    bool public live = true;\n\n    constructor (\n        address vat_,\n        address weth_,\n        address dai_,\n        address pot_,\n        address chai_,\n        address gasToken_,\n        address treasury_\n    ) public {\n        _vat = IVat(vat_);\n        _dai = IERC20(dai_);\n        _pot = IPot(pot_);\n        _gasToken = IGasToken(gasToken_);\n        _treasury = ITreasury(treasury_);\n        _token[WETH] = IERC20(weth_);\n        _token[CHAI] = IERC20(chai_);\n    }\n\n    modifier onlyLive() {\n        require(live == true, \"Dealer: Not available during unwind\");\n        _;\n    }\n\n    modifier validSeries(uint256 maturity) {\n        require(\n            containsSeries(maturity),\n            \"Dealer: Unrecognized series\"\n        );\n        _;\n    }\n\n    modifier validCollateral(bytes32 collateral) {\n        require(\n            collateral == WETH || collateral == CHAI,\n            \"Dealer: Unrecognized collateral\"\n        );\n        _;\n    }\n\n    /// @dev Disables post, withdraw, borrow and repay. To be called only when Treasury shuts down.\n    function shutdown() public override {\n        require(\n            _treasury.live() == false,\n            \"Dealer: Treasury is live\"\n        );\n        live = false;\n    }\n\n    /// @dev Returns if a series has been added to the Dealer, for a given series identified by maturity\n    function containsSeries(uint256 maturity) public view returns (bool) {\n        return address(series[maturity]) != address(0);\n    }\n\n    /// @dev Adds an yDai series to this Dealer\n    function addSeries(address yDaiContract) public onlyOwner {\n        uint256 maturity = IYDai(yDaiContract).maturity();\n        require(\n            !containsSeries(maturity),\n            \"Dealer: Series already added\"\n        );\n        series[maturity] = IYDai(yDaiContract);\n        seriesIterator.push(maturity);\n    }\n\n    /// @dev Returns the dai equivalent of an yDai amount, for a given series identified by maturity\n    function inDai(bytes32 collateral, uint256 maturity, uint256 yDaiAmount) public returns (uint256) {\n        if (series[maturity].isMature()){\n            if (collateral == WETH){\n                return muld(yDaiAmount, series[maturity].rateGrowth());\n            } else if (collateral == CHAI) {\n                return muld(yDaiAmount, series[maturity].chiGrowth());\n            } else {\n                revert(\"Dealer: Unsupported collateral\");\n            }\n        } else {\n            return yDaiAmount;\n        }\n    }\n\n    /// @dev Returns the yDai equivalent of a dai amount, for a given series identified by maturity\n    function inYDai(bytes32 collateral, uint256 maturity, uint256 daiAmount) public returns (uint256) {\n        if (series[maturity].isMature()){\n            if (collateral == WETH){\n                return divd(daiAmount, series[maturity].rateGrowth());\n            } else if (collateral == CHAI) {\n                return divd(daiAmount, series[maturity].chiGrowth());\n            } else {\n                revert(\"Dealer: Unsupported collateral\");\n            }\n        } else {\n            return daiAmount;\n        }\n    }\n\n    /// @dev Return debt in dai of an user, for a given collateral and series identified by maturity\n    //\n    //                        rate_now\n    // debt_now = debt_mat * ----------\n    //                        rate_mat\n    //\n    function debtDai(bytes32 collateral, uint256 maturity, address user) public returns (uint256) {\n        return inDai(collateral, maturity, debtYDai[collateral][maturity][user]);\n    }\n\n    /// @dev Returns the total debt of an user, for a given collateral, across all series, in Dai\n    function totalDebtDai(bytes32 collateral, address user) public override returns (uint256) {\n        uint256 totalDebt;\n        for (uint256 i = 0; i < seriesIterator.length; i += 1) {\n            if (debtYDai[collateral][seriesIterator[i]][user] > 0) {\n                totalDebt = totalDebt + debtDai(collateral, seriesIterator[i], user);\n            }\n        } // We don't expect hundreds of maturities per dealer\n        return totalDebt;\n    }\n\n    /// @dev Maximum borrowing power of an user in dai for a given collateral\n    //\n    // powerOf[user](wad) = posted[user](wad) * oracle.price()(ray)\n    //\n    function powerOf(bytes32 collateral, address user) public returns (uint256) {\n        // dai = price * collateral\n        if (collateral == WETH){\n            (,, uint256 spot,,) = _vat.ilks(WETH);  // Stability fee and collateralization ratio for Weth\n            return muld(posted[collateral][user], spot);\n        } else if (collateral == CHAI) {\n            uint256 chi = (now > _pot.rho()) ? _pot.drip() : _pot.chi();\n            return muld(posted[collateral][user], chi);\n        }\n        return 0;\n    }\n\n    /// @dev Return if the borrowing power for a given collateral of an user is equal or greater than its debt for the same collateral\n    function isCollateralized(bytes32 collateral, address user) public override returns (bool) {\n        return powerOf(collateral, user) >= totalDebtDai(collateral, user);\n    }\n\n    /// @dev Takes collateral _token from `from` address, and credits it to `to` collateral account.\n    // from --- Token ---> us(to)\n    function post(bytes32 collateral, address from, address to, uint256 amount)\n        public override \n        validCollateral(collateral)\n        onlyLive\n    {\n        if (collateral == WETH){ // TODO: Refactor Treasury to be `push(collateral, amount)`\n            _treasury.pushWeth(from, amount);\n        } else if (collateral == CHAI) {\n            _treasury.pushChai(from, amount);\n        }\n        \n        posted[collateral][to] = posted[collateral][to].add(amount);\n        systemPosted[collateral] = systemPosted[collateral].add(amount);\n        emit Posted(collateral, to, int256(amount)); // TODO: Watch for overflow\n    }\n\n    /// @dev Returns collateral to `to` address, taking it from `from` collateral account.\n    // us(from) --- Token ---> to\n    function withdraw(bytes32 collateral, address from, address to, uint256 amount)\n        public override\n        validCollateral(collateral)\n        onlyHolderOrDelegate(from, \"Dealer: Only Holder Or Delegate\")\n        onlyLive\n    {\n        posted[collateral][from] = posted[collateral][from].sub(amount); // Will revert if not enough posted\n        systemPosted[collateral] = systemPosted[collateral].sub(amount);\n\n        require(\n            isCollateralized(collateral, from),\n            \"Dealer: Too much debt\"\n        );\n\n        if (collateral == WETH){ // TODO: Refactor Treasury to be `pull(collateral, amount)`\n            _treasury.pullWeth(to, amount);\n        } else if (collateral == CHAI) {\n            _treasury.pullChai(to, amount);\n        }\n\n        if (posted[collateral][from] == 0 && amount >= 0) {\n            returnBond(10);\n        }\n        emit Posted(collateral, from, -int256(amount)); // TODO: Watch for overflow\n    }\n\n    /// @dev Mint yDai for a given series for address `to` by locking its market value in collateral, user debt is increased in the given collateral.\n    //\n    // posted[user](wad) >= (debtYDai[user](wad)) * amount (wad)) * collateralization (ray)\n    //\n    // us --- yDai ---> user\n    // debt++\n    function borrow(bytes32 collateral, uint256 maturity, address to, uint256 yDaiAmount)\n        public override\n        validCollateral(collateral)\n        validSeries(maturity)\n        onlyHolderOrDelegate(to, \"Dealer: Only Holder Or Delegate\")\n        onlyLive\n    {\n        require(\n            series[maturity].isMature() != true,\n            \"Dealer: No mature borrow\"\n        );\n\n        if (debtYDai[collateral][maturity][to] == 0 && yDaiAmount >= 0) {\n            lockBond(10);\n        }\n        debtYDai[collateral][maturity][to] = debtYDai[collateral][maturity][to].add(yDaiAmount);\n        systemDebtYDai[collateral][maturity] = systemDebtYDai[collateral][maturity].add(yDaiAmount);\n\n        require(\n            isCollateralized(collateral, to),\n            \"Dealer: Too much debt\"\n        );\n        series[maturity].mint(to, yDaiAmount);\n        emit Borrowed(collateral, maturity, to, int256(yDaiAmount)); // TODO: Watch for overflow\n    }\n\n    /// @dev Burns yDai of a given series from `from` address, user debt is decreased for the given collateral and yDai series.\n    //                                                  debt_nominal\n    // debt_discounted = debt_nominal - repay_amount * ---------------\n    //                                                  debt_now\n    //\n    // user --- yDai ---> us\n    // debt--\n    function repayYDai(bytes32 collateral, uint256 maturity, address from, uint256 yDaiAmount)\n        public override\n        validCollateral(collateral)\n        validSeries(maturity)\n        onlyLive\n    {\n        uint256 toRepay = Math.min(yDaiAmount, debtYDai[collateral][maturity][from]);\n        series[maturity].burn(from, toRepay);\n        _repay(collateral, maturity, from, toRepay);\n    }\n\n    /// @dev Takes dai from `from` address, user debt is decreased for the given collateral and yDai series.\n    //                                                  debt_nominal\n    // debt_discounted = debt_nominal - repay_amount * ---------------\n    //                                                  debt_now\n    //\n    // user --- dai ---> us\n    // debt--\n    function repayDai(bytes32 collateral, uint256 maturity, address from, uint256 daiAmount)\n        public override\n        validCollateral(collateral)\n        validSeries(maturity)\n        onlyLive\n    {\n        uint256 toRepay = Math.min(daiAmount, debtDai(collateral, maturity, from));\n        _treasury.pushDai(from, toRepay);                                      // Have Treasury process the dai\n        _repay(collateral, maturity, from, inYDai(collateral, maturity, toRepay));\n    }\n\n    /// @dev Removes an amount of debt from an user's vault. If interest was accrued debt is only paid proportionally.\n    //\n    //                                                principal\n    // principal_repayment = gross_repayment * ----------------------\n    //                                          principal + interest\n    //    \n    function _repay(bytes32 collateral, uint256 maturity, address from, uint256 yDaiAmount) internal {\n        // `inDai` calculates the interest accrued for a given amount and series\n\n        debtYDai[collateral][maturity][from] = debtYDai[collateral][maturity][from].sub(yDaiAmount);\n        systemDebtYDai[collateral][maturity] = systemDebtYDai[collateral][maturity].sub(yDaiAmount);\n        if (debtYDai[collateral][maturity][from] == 0 && yDaiAmount >= 0) {\n            returnBond(10);\n        }\n        emit Borrowed(collateral, maturity, from, -int256(yDaiAmount)); // TODO: Watch for overflow\n    }\n\n    /// @dev Removes collateral and debt for an user.\n    function grab(bytes32 collateral, address user, uint256 daiAmount, uint256 tokenAmount)\n        public override\n        validCollateral(collateral)\n        onlyOrchestrated(\"Dealer: Not Authorized\")\n    {\n\n        posted[collateral][user] = posted[collateral][user].sub(\n            tokenAmount,\n            \"Dealer: Not enough collateral\"\n        );\n        systemPosted[collateral] = systemPosted[collateral].sub(tokenAmount);\n\n        uint256 totalGrabbed;\n        for (uint256 i = 0; i < seriesIterator.length; i += 1) {\n            uint256 maturity = seriesIterator[i];\n            uint256 thisGrab = Math.min(debtDai(collateral, maturity, user), daiAmount.sub(totalGrabbed));\n            totalGrabbed = totalGrabbed.add(thisGrab); // SafeMath shouldn't be needed\n            debtYDai[collateral][maturity][user] =\n                debtYDai[collateral][maturity][user].sub(inYDai(collateral, maturity, thisGrab)); // SafeMath shouldn't be needed\n            systemDebtYDai[collateral][maturity] =\n                systemDebtYDai[collateral][maturity].sub(inYDai(collateral, maturity, thisGrab)); // SafeMath shouldn't be needed\n            if (debtYDai[collateral][maturity][user] == 0){\n                returnBond(10);\n            }\n            if (totalGrabbed == daiAmount) break;\n        } // We don't expect hundreds of maturities per dealer\n        require(\n            totalGrabbed == daiAmount,\n            \"Dealer: Not enough user debt\"\n        );\n    }\n\n    /// @dev Locks a liquidation bond in gas tokens\n    function lockBond(uint256 value) internal {\n        if (!_gasToken.transferFrom(msg.sender, address(this), value)) {\n            _gasToken.mint(value);\n        }\n    }\n\n    /// @dev Frees a liquidation bond in gas tokens\n    function returnBond(uint256 value) internal {\n        _gasToken.transfer(msg.sender, value);\n    }\n}",
  "sourcePath": "/Users/bruce/dev/yieldprotocol/ytoken-mvp/contracts/Dealer.sol",
  "compiler": {
    "name": "solc",
    "version": "0.6.10+commit.00c0fcaf.Emscripten.clang"
  },
  "schemaVersion": "3.0.23",
  "updatedAt": "2020-07-10T08:45:07.119Z",
  "networkType": "ethereum",
  "devdoc": {
    "details": "A dealer takes collateral and issues yDai.",
    "methods": {
      "addDelegate(address)": {
        "details": "Enable a delegate to act on the behalf of caller"
      },
      "addSeries(address)": {
        "details": "Adds an yDai series to this Dealer"
      },
      "borrow(bytes32,uint256,address,uint256)": {
        "details": "Mint yDai for a given series for address `to` by locking its market value in collateral, user debt is increased in the given collateral."
      },
      "containsSeries(uint256)": {
        "details": "Returns if a series has been added to the Dealer, for a given series identified by maturity"
      },
      "debtDai(bytes32,uint256,address)": {
        "details": "Return debt in dai of an user, for a given collateral and series identified by maturity"
      },
      "grab(bytes32,address,uint256,uint256)": {
        "details": "Removes collateral and debt for an user."
      },
      "inDai(bytes32,uint256,uint256)": {
        "details": "Returns the dai equivalent of an yDai amount, for a given series identified by maturity"
      },
      "inYDai(bytes32,uint256,uint256)": {
        "details": "Returns the yDai equivalent of a dai amount, for a given series identified by maturity"
      },
      "isCollateralized(bytes32,address)": {
        "details": "Return if the borrowing power for a given collateral of an user is equal or greater than its debt for the same collateral"
      },
      "orchestrate(address)": {
        "details": "Add user to the authorized users list"
      },
      "owner()": {
        "details": "Returns the address of the current owner."
      },
      "post(bytes32,address,address,uint256)": {
        "details": "Takes collateral _token from `from` address, and credits it to `to` collateral account."
      },
      "powerOf(bytes32,address)": {
        "details": "Maximum borrowing power of an user in dai for a given collateral"
      },
      "renounceOwnership()": {
        "details": "Leaves the contract without owner. It will not be possible to call `onlyOwner` functions anymore. Can only be called by the current owner. NOTE: Renouncing ownership will leave the contract without an owner, thereby removing any functionality that is only available to the owner."
      },
      "repayDai(bytes32,uint256,address,uint256)": {
        "details": "Takes dai from `from` address, user debt is decreased for the given collateral and yDai series."
      },
      "repayYDai(bytes32,uint256,address,uint256)": {
        "details": "Burns yDai of a given series from `from` address, user debt is decreased for the given collateral and yDai series."
      },
      "revokeDelegate(address)": {
        "details": "Stop a delegate from acting on the behalf of caller"
      },
      "shutdown()": {
        "details": "Disables post, withdraw, borrow and repay. To be called only when Treasury shuts down."
      },
      "totalDebtDai(bytes32,address)": {
        "details": "Returns the total debt of an user, for a given collateral, across all series, in Dai"
      },
      "transferOwnership(address)": {
        "details": "Transfers ownership of the contract to a new account (`newOwner`). Can only be called by the current owner."
      },
      "withdraw(bytes32,address,address,uint256)": {
        "details": "Returns collateral to `to` address, taking it from `from` collateral account."
      }
    }
  },
  "userdoc": {
    "methods": {}
  }
}