{
  "contractName": "DecimalMath",
  "abi": [
    {
      "inputs": [],
      "name": "UNIT",
      "outputs": [
        {
          "internalType": "uint256",
          "name": "",
          "type": "uint256"
        }
      ],
      "stateMutability": "view",
      "type": "function"
    }
  ],
  "bytecode": "0x6080604052348015600f57600080fd5b50608b8061001e6000396000f3fe6080604052348015600f57600080fd5b506004361060285760003560e01c80639d8e217714602d575b600080fd5b60336045565b60408051918252519081900360200190f35b6b033b2e3c9fd0803ce80000008156fea2646970667358221220d715664868352b37fc883c72144de6fb511be76cee6a0a124d5645265c2cf58564736f6c634300060a0033",
  "source": "pragma solidity ^0.6.10;\nimport \"@openzeppelin/contracts/math/SafeMath.sol\";\n\n\n/// @dev Implements simple fixed point math mul and div operations for 27 decimals.\ncontract DecimalMath {\n    using SafeMath for uint256;\n\n    uint256 constant public UNIT = 1000000000000000000000000000;\n\n    /// @dev Multiplies x and y, assuming they are both fixed point with 27 digits.\n    function muld(uint256 x, uint256 y) internal pure returns (uint256) {\n        return x.mul(y).div(UNIT);\n    }\n\n    /// @dev Divides x between y, assuming they are both fixed point with 18 digits.\n    function divd(uint256 x, uint256 y) internal pure returns (uint256) {\n        return x.mul(UNIT).div(y);\n    }\n\n    /// @dev Divides x between y, rounding up to the closest representable number.\n    /// Assumes x and y are both fixed point with `decimals` digits.\n    function divdrup(uint256 x, uint256 y)\n        internal pure returns (uint256)\n    {\n        uint256 z = x.mul(10000000000000000000000000000).div(y); // RAY * 10\n        if (z % 10 > 0) return z / 10 + 1;\n        else return z / 10;\n    }\n}\n",
  "sourcePath": "/Users/bruce/dev/yieldprotocol/ytoken-mvp/contracts/helpers/DecimalMath.sol",
  "compiler": {
    "name": "solc",
    "version": "0.6.10+commit.00c0fcaf.Emscripten.clang"
  },
  "schemaVersion": "3.0.23",
  "updatedAt": "2020-07-15T08:08:37.258Z",
  "devdoc": {
    "details": "Implements simple fixed point math mul and div operations for 27 decimals.",
    "methods": {}
  },
  "userdoc": {
    "methods": {}
  }
}