{
  "contractName": "DecimalMath",
  "abi": [
    {
      "inputs": [],
      "name": "UNIT",
      "outputs": [
        {
          "internalType": "uint256",
          "name": "",
          "type": "uint256"
        }
      ],
      "stateMutability": "view",
      "type": "function"
    }
  ],
  "bytecode": "0x6080604052348015600f57600080fd5b50608b8061001e6000396000f3fe6080604052348015600f57600080fd5b506004361060285760003560e01c80639d8e217714602d575b600080fd5b60336045565b60408051918252519081900360200190f35b6b033b2e3c9fd0803ce80000008156fea264697066735822122035b2d3db85e84590dd627beda399dabbb54ecffe233a5c9137eb727895c494a764736f6c634300060a0033",
  "immutableReferences": {},
  "source": "// SPDX-License-Identifier: GPL-3.0-or-later\r\npragma solidity ^0.6.10;\r\nimport \"@openzeppelin/contracts/math/SafeMath.sol\";\r\n\r\n\r\n/// @dev Implements simple fixed point math mul and div operations for 27 decimals.\r\ncontract DecimalMath {\r\n    using SafeMath for uint256;\r\n\r\n    uint256 constant public UNIT = 1e27;\r\n\r\n    /// @dev Multiplies x and y, assuming they are both fixed point with 27 digits.\r\n    function muld(uint256 x, uint256 y) internal pure returns (uint256) {\r\n        return x.mul(y).div(UNIT);\r\n    }\r\n\r\n    /// @dev Divides x between y, assuming they are both fixed point with 27 digits.\r\n    function divd(uint256 x, uint256 y) internal pure returns (uint256) {\r\n        return x.mul(UNIT).div(y);\r\n    }\r\n\r\n    /// @dev Divides x between y, rounding up to the closest representable number.\r\n    /// Assumes x and y are both fixed point with `decimals` digits.\r\n    function divdrup(uint256 x, uint256 y)\r\n        internal pure returns (uint256)\r\n    {\r\n        uint256 z = x.mul(1e28).div(y); // RAY * 10\r\n        if (z % 10 > 0) return z / 10 + 1;\r\n        else return z / 10;\r\n    }\r\n}\r\n",
  "sourcePath": "C:\\Users\\bruce\\dev\\yield\\yDai\\contracts\\helpers\\DecimalMath.sol",
  "compiler": {
    "name": "solc",
    "version": "0.6.10+commit.00c0fcaf.Emscripten.clang"
  },
  "schemaVersion": "3.2.3",
  "updatedAt": "2020-08-26T07:47:57.210Z",
  "devdoc": {
    "details": "Implements simple fixed point math mul and div operations for 27 decimals.",
    "methods": {}
  },
  "userdoc": {
    "methods": {}
  }
}