{
  "contractName": "Delegable",
  "abi": [
    {
      "anonymous": false,
      "inputs": [
        {
          "indexed": true,
          "internalType": "address",
          "name": "user",
          "type": "address"
        },
        {
          "indexed": true,
          "internalType": "address",
          "name": "delegate",
          "type": "address"
        },
        {
          "indexed": false,
          "internalType": "bool",
          "name": "enabled",
          "type": "bool"
        }
      ],
      "name": "Delegate",
      "type": "event"
    },
    {
      "inputs": [
        {
          "internalType": "address",
          "name": "",
          "type": "address"
        },
        {
          "internalType": "address",
          "name": "",
          "type": "address"
        }
      ],
      "name": "delegated",
      "outputs": [
        {
          "internalType": "bool",
          "name": "",
          "type": "bool"
        }
      ],
      "stateMutability": "view",
      "type": "function"
    },
    {
      "inputs": [
        {
          "internalType": "address",
          "name": "delegate",
          "type": "address"
        }
      ],
      "name": "addDelegate",
      "outputs": [],
      "stateMutability": "nonpayable",
      "type": "function"
    },
    {
      "inputs": [
        {
          "internalType": "address",
          "name": "delegate",
          "type": "address"
        }
      ],
      "name": "revokeDelegate",
      "outputs": [],
      "stateMutability": "nonpayable",
      "type": "function"
    }
  ],
  "bytecode": "0x608060405234801561001057600080fd5b506102e1806100206000396000f3fe608060405234801561001057600080fd5b50600436106100415760003560e01c8063e71bdf4114610046578063f6bcbd311461006e578063fa352c00146100b0575b600080fd5b61006c6004803603602081101561005c57600080fd5b50356001600160a01b03166100d6565b005b61009c6004803603604081101561008457600080fd5b506001600160a01b03813581169160200135166101b7565b604080519115158252519081900360200190f35b61006c600480360360208110156100c657600080fd5b50356001600160a01b03166101d4565b336000908152602081815260408083206001600160a01b038516845290915290205460ff161561014d576040805162461bcd60e51b815260206004820152601c60248201527f44656c656761626c653a20416c72656164792064656c65676174656400000000604482015290519081900360640190fd5b336000818152602081815260408083206001600160a01b03861680855290835292819020805460ff19166001908117909155815190815290519293927f045b0fef01772d2fbba53dbd38c9777806eac0865b00af43abcfbcaf50da9206929181900390910190a350565b600060208181529281526040808220909352908152205460ff1681565b336000908152602081815260408083206001600160a01b038516845290915290205460ff1661024a576040805162461bcd60e51b815260206004820152601e60248201527f44656c656761626c653a20416c726561647920756e64656c6567617465640000604482015290519081900360640190fd5b336000818152602081815260408083206001600160a01b038616808552908352818420805460ff19169055815193845290519093927f045b0fef01772d2fbba53dbd38c9777806eac0865b00af43abcfbcaf50da920692908290030190a35056fea26469706673582212206598f7c8ab8c92675f054bcbc06bfaacaa71cc7385649f1a6d99b5201feb5d9464736f6c634300060a0033",
  "immutableReferences": {},
  "source": "// SPDX-License-Identifier: GPL-3.0-or-later\r\npragma solidity ^0.6.10;\r\n\r\n\r\n/// @dev Delegable enables users to delegate their account management to other users\r\ncontract Delegable {\r\n    event Delegate(address indexed user, address indexed delegate, bool enabled);\r\n\r\n    mapping(address => mapping(address => bool)) public delegated;\r\n\r\n    /// @dev Require that msg.sender is the account holder or a delegate\r\n    modifier onlyHolderOrDelegate(address holder, string memory errorMessage) {\r\n        require(\r\n            msg.sender == holder || delegated[holder][msg.sender],\r\n            errorMessage\r\n        );\r\n        _;\r\n    }\r\n\r\n    /// @dev Enable a delegate to act on the behalf of caller\r\n    function addDelegate(address delegate) public {\r\n        require(!delegated[msg.sender][delegate], \"Delegable: Already delegated\");\r\n        delegated[msg.sender][delegate] = true;\r\n        emit Delegate(msg.sender, delegate, true);\r\n    }\r\n\r\n    /// @dev Stop a delegate from acting on the behalf of caller\r\n    function revokeDelegate(address delegate) public {\r\n        require(delegated[msg.sender][delegate], \"Delegable: Already undelegated\");\r\n        delegated[msg.sender][delegate] = false;\r\n        emit Delegate(msg.sender, delegate, false);\r\n    }\r\n}",
  "sourcePath": "C:\\Users\\bruce\\dev\\yield\\yDai\\contracts\\helpers\\Delegable.sol",
  "compiler": {
    "name": "solc",
    "version": "0.6.10+commit.00c0fcaf.Emscripten.clang"
  },
  "schemaVersion": "3.2.3",
  "updatedAt": "2020-08-19T15:24:08.742Z",
  "devdoc": {
    "details": "Delegable enables users to delegate their account management to other users",
    "methods": {
      "addDelegate(address)": {
        "details": "Enable a delegate to act on the behalf of caller"
      },
      "revokeDelegate(address)": {
        "details": "Stop a delegate from acting on the behalf of caller"
      }
    }
  },
  "userdoc": {
    "methods": {}
  }
}