{
  "contractName": "Delegable",
  "abi": [
    {
      "inputs": [],
      "stateMutability": "nonpayable",
      "type": "constructor"
    },
    {
      "anonymous": false,
      "inputs": [
        {
          "indexed": true,
          "internalType": "address",
          "name": "user",
          "type": "address"
        },
        {
          "indexed": true,
          "internalType": "address",
          "name": "delegate",
          "type": "address"
        },
        {
          "indexed": false,
          "internalType": "bool",
          "name": "enabled",
          "type": "bool"
        }
      ],
      "name": "Delegate",
      "type": "event"
    },
    {
      "inputs": [],
      "name": "DELEGABLE_DOMAIN",
      "outputs": [
        {
          "internalType": "bytes32",
          "name": "",
          "type": "bytes32"
        }
      ],
      "stateMutability": "view",
      "type": "function"
    },
    {
      "inputs": [],
      "name": "SIGNATURE_TYPEHASH",
      "outputs": [
        {
          "internalType": "bytes32",
          "name": "",
          "type": "bytes32"
        }
      ],
      "stateMutability": "view",
      "type": "function"
    },
    {
      "inputs": [
        {
          "internalType": "address",
          "name": "",
          "type": "address"
        },
        {
          "internalType": "address",
          "name": "",
          "type": "address"
        }
      ],
      "name": "delegated",
      "outputs": [
        {
          "internalType": "bool",
          "name": "",
          "type": "bool"
        }
      ],
      "stateMutability": "view",
      "type": "function"
    },
    {
      "inputs": [
        {
          "internalType": "address",
          "name": "",
          "type": "address"
        }
      ],
      "name": "signatureCount",
      "outputs": [
        {
          "internalType": "uint256",
          "name": "",
          "type": "uint256"
        }
      ],
      "stateMutability": "view",
      "type": "function"
    },
    {
      "inputs": [
        {
          "internalType": "address",
          "name": "delegate",
          "type": "address"
        }
      ],
      "name": "addDelegate",
      "outputs": [],
      "stateMutability": "nonpayable",
      "type": "function"
    },
    {
      "inputs": [
        {
          "internalType": "address",
          "name": "delegate",
          "type": "address"
        }
      ],
      "name": "revokeDelegate",
      "outputs": [],
      "stateMutability": "nonpayable",
      "type": "function"
    },
    {
      "inputs": [
        {
          "internalType": "address",
          "name": "user",
          "type": "address"
        },
        {
          "internalType": "address",
          "name": "delegate",
          "type": "address"
        },
        {
          "internalType": "uint256",
          "name": "deadline",
          "type": "uint256"
        },
        {
          "internalType": "uint8",
          "name": "v",
          "type": "uint8"
        },
        {
          "internalType": "bytes32",
          "name": "r",
          "type": "bytes32"
        },
        {
          "internalType": "bytes32",
          "name": "s",
          "type": "bytes32"
        }
      ],
      "name": "addDelegateBySignature",
      "outputs": [],
      "stateMutability": "nonpayable",
      "type": "function"
    }
  ],
  "bytecode": "0x60c06040527f0d077601844dd17f704bafff948229d27f33b57445915754dfe3d095fda2beb760805234801561003457600080fd5b50604051469080605261077c82396040805191829003605201822082820182526005835264165a595b1960da1b6020938401528151808301835260018152603160f81b908401528151808401919091527f0dc8618f4925c4319195a39ada16304f511bf885ff9f3d63bc6b0f3979e46fb6818301527fc89efdaa54c0f20c7adf612882df0950f5a951637e0307cdcb4c672f298b8bc6606082015260808101949094523060a08086019190915281518086038201815260c0909501909152835193909101929092209091525060805160a05161064f61012d6000398061028752806103c852508061022252806103fe525061064f6000f3fe608060405234801561001057600080fd5b506004361061007d5760003560e01c8063c0bd65d71161005b578063c0bd65d71461010f578063e71bdf4114610117578063f6bcbd311461013d578063fa352c001461017f5761007d565b80631a28ff0514610082578063459e414f146100cf578063b5d832fe146100e9575b600080fd5b6100cd600480360360c081101561009857600080fd5b506001600160a01b03813581169160208101359091169060408101359060ff6060820135169060808101359060a001356101a5565b005b6100d76103c6565b60408051918252519081900360200190f35b6100d7600480360360208110156100ff57600080fd5b50356001600160a01b03166103ea565b6100d76103fc565b6100cd6004803603602081101561012d57600080fd5b50356001600160a01b0316610420565b61016b6004803603604081101561015357600080fd5b506001600160a01b038135811691602001351661042d565b604080519115158252519081900360200190f35b6100cd6004803603602081101561019557600080fd5b50356001600160a01b031661044d565b428410156101fa576040805162461bcd60e51b815260206004820152601c60248201527f44656c656761626c653a205369676e6174757265206578706972656400000000604482015290519081900360640190fd5b6001600160a01b038087166000818152602081815260408083208054600180820190925582517f00000000000000000000000000000000000000000000000000000000000000008186015280840196909652958b166060860152608085019590955260a08085018a90528151808603909101815260c08501825280519083012061190160f01b60e08601527f000000000000000000000000000000000000000000000000000000000000000060e286015261010280860182905282518087039091018152610122860180845281519185019190912090859052610142860180845281905260ff8a1661016287015261018286018990526101a2860188905291519095919491926101c2808401939192601f1981019281900390910190855afa15801561032a573d6000803e3d6000fd5b5050604051601f1901519150506001600160a01b038116158015906103605750886001600160a01b0316816001600160a01b0316145b6103b1576040805162461bcd60e51b815260206004820152601c60248201527f44656c656761626c653a20496e76616c6964207369676e617475726500000000604482015290519081900360640190fd5b6103bb8989610457565b505050505050505050565b7f000000000000000000000000000000000000000000000000000000000000000081565b60006020819052908152604090205481565b7f000000000000000000000000000000000000000000000000000000000000000081565b61042a3382610457565b50565b600160209081526000928352604080842090915290825290205460ff1681565b61042a338261053b565b6001600160a01b0380831660009081526001602090815260408083209385168352929052205460ff16156104d2576040805162461bcd60e51b815260206004820152601c60248201527f44656c656761626c653a20416c72656164792064656c65676174656400000000604482015290519081900360640190fd5b6001600160a01b03808316600081815260016020818152604080842095871680855295825292839020805460ff191683179055825191825291517f045b0fef01772d2fbba53dbd38c9777806eac0865b00af43abcfbcaf50da9206929181900390910190a35050565b6001600160a01b0380831660009081526001602090815260408083209385168352929052205460ff166105b5576040805162461bcd60e51b815260206004820152601e60248201527f44656c656761626c653a20416c726561647920756e64656c6567617465640000604482015290519081900360640190fd5b6001600160a01b038083166000818152600160209081526040808320948616808452948252808320805460ff191690558051928352517f045b0fef01772d2fbba53dbd38c9777806eac0865b00af43abcfbcaf50da92069281900390910190a3505056fea26469706673582212205e4f7c5b43e8b1185b76a0063cb25be252fc9c8368f902001634853e9fee600a64736f6c634300060a0033454950373132446f6d61696e28737472696e67206e616d652c737472696e672076657273696f6e2c75696e7432353620636861696e49642c6164647265737320766572696679696e67436f6e747261637429",
  "immutableReferences": {
    "9200": [
      {
        "length": 32,
        "start": 546
      },
      {
        "length": 32,
        "start": 1022
      }
    ],
    "9202": [
      {
        "length": 32,
        "start": 647
      },
      {
        "length": 32,
        "start": 968
      }
    ]
  },
  "source": "// SPDX-License-Identifier: GPL-3.0-or-later\r\npragma solidity ^0.6.10;\r\n\r\nimport \"../interfaces/IDelegable.sol\";\r\n\r\n\r\n/// @dev Delegable enables users to delegate their account management to other users.\r\n/// Delegable implements addDelegateBySignature, to add delegates using a signature instead of a separate transaction.\r\ncontract Delegable is IDelegable {\r\n    event Delegate(address indexed user, address indexed delegate, bool enabled);\r\n\r\n    // keccak256(\"Signature(address user,address delegate,uint256 nonce,uint256 deadline)\");\r\n    bytes32 public immutable SIGNATURE_TYPEHASH = 0x0d077601844dd17f704bafff948229d27f33b57445915754dfe3d095fda2beb7;\r\n    bytes32 public immutable DELEGABLE_DOMAIN;\r\n    mapping(address => uint) public signatureCount;\r\n\r\n    mapping(address => mapping(address => bool)) public delegated;\r\n\r\n    constructor () public {\r\n        uint256 chainId;\r\n        assembly {\r\n            chainId := chainid()\r\n        }\r\n\r\n        DELEGABLE_DOMAIN = keccak256(\r\n            abi.encode(\r\n                keccak256('EIP712Domain(string name,string version,uint256 chainId,address verifyingContract)'),\r\n                keccak256(bytes('Yield')),\r\n                keccak256(bytes('1')),\r\n                chainId,\r\n                address(this)\r\n            )\r\n        );\r\n    }\r\n\r\n    /// @dev Require that msg.sender is the account holder or a delegate\r\n    modifier onlyHolderOrDelegate(address holder, string memory errorMessage) {\r\n        require(\r\n            msg.sender == holder || delegated[holder][msg.sender],\r\n            errorMessage\r\n        );\r\n        _;\r\n    }\r\n\r\n    /// @dev Enable a delegate to act on the behalf of caller\r\n    function addDelegate(address delegate) public override {\r\n        _addDelegate(msg.sender, delegate);\r\n    }\r\n\r\n    /// @dev Stop a delegate from acting on the behalf of caller\r\n    function revokeDelegate(address delegate) public {\r\n        _revokeDelegate(msg.sender, delegate);\r\n    }\r\n\r\n    /// @dev Add a delegate through an encoded signature\r\n    function addDelegateBySignature(address user, address delegate, uint deadline, uint8 v, bytes32 r, bytes32 s) public override {\r\n        require(deadline >= block.timestamp, 'Delegable: Signature expired');\r\n\r\n        bytes32 hashStruct = keccak256(\r\n            abi.encode(\r\n                SIGNATURE_TYPEHASH,\r\n                user,\r\n                delegate,\r\n                signatureCount[user]++,\r\n                deadline\r\n            )\r\n        );\r\n\r\n        bytes32 digest = keccak256(\r\n            abi.encodePacked(\r\n                '\\x19\\x01',\r\n                DELEGABLE_DOMAIN,\r\n                hashStruct\r\n            )\r\n        );\r\n        address signer = ecrecover(digest, v, r, s);\r\n        require(\r\n            signer != address(0) && signer == user,\r\n            'Delegable: Invalid signature'\r\n        );\r\n\r\n        _addDelegate(user, delegate);\r\n    }\r\n\r\n    /// @dev Enable a delegate to act on the behalf of an user\r\n    function _addDelegate(address user, address delegate) internal {\r\n        require(!delegated[user][delegate], \"Delegable: Already delegated\");\r\n        delegated[user][delegate] = true;\r\n        emit Delegate(user, delegate, true);\r\n    }\r\n\r\n    /// @dev Stop a delegate from acting on the behalf of an user\r\n    function _revokeDelegate(address user, address delegate) internal {\r\n        require(delegated[user][delegate], \"Delegable: Already undelegated\");\r\n        delegated[user][delegate] = false;\r\n        emit Delegate(user, delegate, false);\r\n    }\r\n}\r\n",
  "sourcePath": "C:\\Users\\bruce\\dev\\yield\\yDai\\contracts\\helpers\\Delegable.sol",
  "compiler": {
    "name": "solc",
    "version": "0.6.10+commit.00c0fcaf.Emscripten.clang"
  },
  "schemaVersion": "3.2.3",
  "updatedAt": "2020-08-26T07:47:57.213Z",
  "devdoc": {
    "details": "Delegable enables users to delegate their account management to other users. Delegable implements addDelegateBySignature, to add delegates using a signature instead of a separate transaction.",
    "methods": {
      "addDelegate(address)": {
        "details": "Enable a delegate to act on the behalf of caller"
      },
      "addDelegateBySignature(address,address,uint256,uint8,bytes32,bytes32)": {
        "details": "Add a delegate through an encoded signature"
      },
      "revokeDelegate(address)": {
        "details": "Stop a delegate from acting on the behalf of caller"
      }
    }
  },
  "userdoc": {
    "methods": {}
  }
}