{
  "contractName": "Delegable",
  "abi": [
    {
      "anonymous": false,
      "inputs": [
        {
          "indexed": true,
          "internalType": "address",
          "name": "user",
          "type": "address"
        },
        {
          "indexed": true,
          "internalType": "address",
          "name": "delegate",
          "type": "address"
        },
        {
          "indexed": false,
          "internalType": "bool",
          "name": "enabled",
          "type": "bool"
        }
      ],
      "name": "Delegate",
      "type": "event"
    },
    {
      "inputs": [
        {
          "internalType": "address",
          "name": "delegate",
          "type": "address"
        }
      ],
      "name": "addDelegate",
      "outputs": [],
      "stateMutability": "nonpayable",
      "type": "function"
    },
    {
      "inputs": [
        {
          "internalType": "address",
          "name": "delegate",
          "type": "address"
        }
      ],
      "name": "revokeDelegate",
      "outputs": [],
      "stateMutability": "nonpayable",
      "type": "function"
    }
  ],
  "bytecode": "0x608060405234801561001057600080fd5b5061018a806100206000396000f3fe608060405234801561001057600080fd5b50600436106100365760003560e01c8063e71bdf411461003b578063fa352c0014610063575b600080fd5b6100616004803603602081101561005157600080fd5b50356001600160a01b0316610089565b005b6100616004803603602081101561007957600080fd5b50356001600160a01b03166100f3565b336000818152602081815260408083206001600160a01b03861680855290835292819020805460ff19166001908117909155815190815290519293927f045b0fef01772d2fbba53dbd38c9777806eac0865b00af43abcfbcaf50da9206929181900390910190a350565b336000818152602081815260408083206001600160a01b038616808552908352818420805460ff19169055815193845290519093927f045b0fef01772d2fbba53dbd38c9777806eac0865b00af43abcfbcaf50da920692908290030190a35056fea2646970667358221220977051d25f6245072cba1d3275f2e2e80f50601de8da7959d04008a97fee69d464736f6c634300060a0033",
  "source": "// SPDX-License-Identifier: GPL-3.0-or-later\npragma solidity ^0.6.10;\n\n\n/// @dev Delegable enables users to delegate their account management to other users\ncontract Delegable {\n    // All delegated can be known from events for audit purposes\n    event Delegate(address indexed user, address indexed delegate, bool enabled);\n\n    mapping(address => mapping(address => bool)) internal delegated;\n\n    /// @dev Require that msg.sender is the account holder or a delegate\n    modifier onlyHolderOrDelegate(address holder, string memory errorMessage) {\n        require(\n            msg.sender == holder || delegated[holder][msg.sender],\n            errorMessage\n        );\n        _;\n    }\n\n    /// @dev Enable a delegate to act on the behalf of caller\n    function addDelegate(address delegate) public {\n        delegated[msg.sender][delegate] = true;\n        emit Delegate(msg.sender, delegate, true);\n    }\n\n    /// @dev Stop a delegate from acting on the behalf of caller\n    function revokeDelegate(address delegate) public {\n        delegated[msg.sender][delegate] = false;\n        emit Delegate(msg.sender, delegate, false);\n    }\n}",
  "sourcePath": "/Users/bruce/dev/yieldprotocol/ytoken-mvp/contracts/helpers/Delegable.sol",
  "compiler": {
    "name": "solc",
    "version": "0.6.10+commit.00c0fcaf.Emscripten.clang"
  },
  "schemaVersion": "3.0.23",
  "updatedAt": "2020-07-20T10:58:14.721Z",
  "devdoc": {
    "details": "Delegable enables users to delegate their account management to other users",
    "methods": {
      "addDelegate(address)": {
        "details": "Enable a delegate to act on the behalf of caller"
      },
      "revokeDelegate(address)": {
        "details": "Stop a delegate from acting on the behalf of caller"
      }
    }
  },
  "userdoc": {
    "methods": {}
  }
}