{
  "contractName": "Delegable",
  "abi": [
    {
      "anonymous": false,
      "inputs": [
        {
          "indexed": true,
          "internalType": "address",
          "name": "user",
          "type": "address"
        },
        {
          "indexed": true,
          "internalType": "address",
          "name": "delegate",
          "type": "address"
        },
        {
          "indexed": false,
          "internalType": "bool",
          "name": "enabled",
          "type": "bool"
        }
      ],
      "name": "Delegate",
      "type": "event"
    },
    {
      "inputs": [
        {
          "internalType": "address",
          "name": "delegate",
          "type": "address"
        }
      ],
      "name": "addDelegate",
      "outputs": [],
      "stateMutability": "nonpayable",
      "type": "function"
    },
    {
      "inputs": [
        {
          "internalType": "address",
          "name": "delegate",
          "type": "address"
        }
      ],
      "name": "revokeDelegate",
      "outputs": [],
      "stateMutability": "nonpayable",
      "type": "function"
    }
  ],
  "bytecode": "0x608060405234801561001057600080fd5b506102fb806100206000396000f3fe608060405234801561001057600080fd5b50600436106100365760003560e01c8063e71bdf411461003b578063fa352c001461007f575b600080fd5b61007d6004803603602081101561005157600080fd5b81019080803573ffffffffffffffffffffffffffffffffffffffff1690602001909291905050506100c3565b005b6100c16004803603602081101561009557600080fd5b81019080803573ffffffffffffffffffffffffffffffffffffffff1690602001909291905050506101c4565b005b60016000803373ffffffffffffffffffffffffffffffffffffffff1673ffffffffffffffffffffffffffffffffffffffff16815260200190815260200160002060008373ffffffffffffffffffffffffffffffffffffffff1673ffffffffffffffffffffffffffffffffffffffff16815260200190815260200160002060006101000a81548160ff0219169083151502179055508073ffffffffffffffffffffffffffffffffffffffff163373ffffffffffffffffffffffffffffffffffffffff167f045b0fef01772d2fbba53dbd38c9777806eac0865b00af43abcfbcaf50da92066001604051808215151515815260200191505060405180910390a350565b60008060003373ffffffffffffffffffffffffffffffffffffffff1673ffffffffffffffffffffffffffffffffffffffff16815260200190815260200160002060008373ffffffffffffffffffffffffffffffffffffffff1673ffffffffffffffffffffffffffffffffffffffff16815260200190815260200160002060006101000a81548160ff0219169083151502179055508073ffffffffffffffffffffffffffffffffffffffff163373ffffffffffffffffffffffffffffffffffffffff167f045b0fef01772d2fbba53dbd38c9777806eac0865b00af43abcfbcaf50da92066000604051808215151515815260200191505060405180910390a35056fea2646970667358221220f5d99e9cf9cfee497471630899c0ae1caae7885bc2b4d60eee57b8d62d4354ab64736f6c63430006020033",
  "source": "pragma solidity ^0.6.2;\n\n\n/// @dev Delegable enables users to delegate their account management to delegated\ncontract Delegable {\n    // All delegated can be known from events for audit purposes\n    event Delegate(address indexed user, address indexed delegate, bool enabled);\n\n    mapping(address => mapping(address => bool)) internal delegated;\n\n    /// @dev Require that tx.origin is the account holder or a delegate\n    modifier onlyHolderOrDelegate(address holder, string memory errorMessage) {\n        require(\n            msg.sender == holder || delegated[holder][msg.sender],\n            errorMessage\n        );\n        _;\n    }\n\n    /// @dev Enable a delegate to act on the behalf of caller\n    function addDelegate(address delegate) public {\n        delegated[msg.sender][delegate] = true;\n        emit Delegate(msg.sender, delegate, true);\n    }\n\n    /// @dev Stop a delegate from acting on the behalf of caller\n    function revokeDelegate(address delegate) public {\n        delegated[msg.sender][delegate] = false;\n        emit Delegate(msg.sender, delegate, false);\n    }\n}",
  "sourcePath": "/Users/bruce/dev/yieldprotocol/ytoken-mvp/contracts/helpers/Delegable.sol",
  "compiler": {
    "name": "solc",
    "version": "0.6.2+commit.bacdbe57.Emscripten.clang"
  },
  "schemaVersion": "3.0.23",
  "updatedAt": "2020-07-01T06:23:49.313Z",
  "devdoc": {
    "details": "Delegable enables users to delegate their account management to delegated",
    "methods": {
      "addDelegate(address)": {
        "details": "Enable a delegate to act on the behalf of caller"
      },
      "revokeDelegate(address)": {
        "details": "Stop a delegate from acting on the behalf of caller"
      }
    }
  },
  "userdoc": {
    "methods": {}
  }
}