{
  "contractName": "DssCdpManager",
  "abi": [
    {
      "inputs": [
        {
          "internalType": "address",
          "name": "vat_",
          "type": "address"
        }
      ],
      "stateMutability": "nonpayable",
      "type": "constructor"
    },
    {
      "anonymous": true,
      "inputs": [
        {
          "indexed": true,
          "internalType": "bytes4",
          "name": "sig",
          "type": "bytes4"
        },
        {
          "indexed": true,
          "internalType": "address",
          "name": "usr",
          "type": "address"
        },
        {
          "indexed": true,
          "internalType": "bytes32",
          "name": "arg1",
          "type": "bytes32"
        },
        {
          "indexed": true,
          "internalType": "bytes32",
          "name": "arg2",
          "type": "bytes32"
        },
        {
          "indexed": false,
          "internalType": "bytes",
          "name": "data",
          "type": "bytes"
        }
      ],
      "name": "LogNote",
      "type": "event"
    },
    {
      "anonymous": false,
      "inputs": [
        {
          "indexed": true,
          "internalType": "address",
          "name": "usr",
          "type": "address"
        },
        {
          "indexed": true,
          "internalType": "address",
          "name": "own",
          "type": "address"
        },
        {
          "indexed": true,
          "internalType": "uint256",
          "name": "cdp",
          "type": "uint256"
        }
      ],
      "name": "NewCdp",
      "type": "event"
    },
    {
      "inputs": [
        {
          "internalType": "address",
          "name": "",
          "type": "address"
        },
        {
          "internalType": "uint256",
          "name": "",
          "type": "uint256"
        },
        {
          "internalType": "address",
          "name": "",
          "type": "address"
        }
      ],
      "name": "cdpCan",
      "outputs": [
        {
          "internalType": "uint256",
          "name": "",
          "type": "uint256"
        }
      ],
      "stateMutability": "view",
      "type": "function"
    },
    {
      "inputs": [],
      "name": "cdpi",
      "outputs": [
        {
          "internalType": "uint256",
          "name": "",
          "type": "uint256"
        }
      ],
      "stateMutability": "view",
      "type": "function"
    },
    {
      "inputs": [
        {
          "internalType": "address",
          "name": "",
          "type": "address"
        }
      ],
      "name": "count",
      "outputs": [
        {
          "internalType": "uint256",
          "name": "",
          "type": "uint256"
        }
      ],
      "stateMutability": "view",
      "type": "function"
    },
    {
      "inputs": [
        {
          "internalType": "address",
          "name": "",
          "type": "address"
        }
      ],
      "name": "first",
      "outputs": [
        {
          "internalType": "uint256",
          "name": "",
          "type": "uint256"
        }
      ],
      "stateMutability": "view",
      "type": "function"
    },
    {
      "inputs": [
        {
          "internalType": "uint256",
          "name": "",
          "type": "uint256"
        }
      ],
      "name": "ilks",
      "outputs": [
        {
          "internalType": "bytes32",
          "name": "",
          "type": "bytes32"
        }
      ],
      "stateMutability": "view",
      "type": "function"
    },
    {
      "inputs": [
        {
          "internalType": "address",
          "name": "",
          "type": "address"
        }
      ],
      "name": "last",
      "outputs": [
        {
          "internalType": "uint256",
          "name": "",
          "type": "uint256"
        }
      ],
      "stateMutability": "view",
      "type": "function"
    },
    {
      "inputs": [
        {
          "internalType": "uint256",
          "name": "",
          "type": "uint256"
        }
      ],
      "name": "list",
      "outputs": [
        {
          "internalType": "uint256",
          "name": "prev",
          "type": "uint256"
        },
        {
          "internalType": "uint256",
          "name": "next",
          "type": "uint256"
        }
      ],
      "stateMutability": "view",
      "type": "function"
    },
    {
      "inputs": [
        {
          "internalType": "uint256",
          "name": "",
          "type": "uint256"
        }
      ],
      "name": "owns",
      "outputs": [
        {
          "internalType": "address",
          "name": "",
          "type": "address"
        }
      ],
      "stateMutability": "view",
      "type": "function"
    },
    {
      "inputs": [
        {
          "internalType": "address",
          "name": "",
          "type": "address"
        },
        {
          "internalType": "address",
          "name": "",
          "type": "address"
        }
      ],
      "name": "urnCan",
      "outputs": [
        {
          "internalType": "uint256",
          "name": "",
          "type": "uint256"
        }
      ],
      "stateMutability": "view",
      "type": "function"
    },
    {
      "inputs": [
        {
          "internalType": "uint256",
          "name": "",
          "type": "uint256"
        }
      ],
      "name": "urns",
      "outputs": [
        {
          "internalType": "address",
          "name": "",
          "type": "address"
        }
      ],
      "stateMutability": "view",
      "type": "function"
    },
    {
      "inputs": [],
      "name": "vat",
      "outputs": [
        {
          "internalType": "address",
          "name": "",
          "type": "address"
        }
      ],
      "stateMutability": "view",
      "type": "function"
    },
    {
      "inputs": [
        {
          "internalType": "uint256",
          "name": "cdp",
          "type": "uint256"
        },
        {
          "internalType": "address",
          "name": "usr",
          "type": "address"
        },
        {
          "internalType": "uint256",
          "name": "ok",
          "type": "uint256"
        }
      ],
      "name": "cdpAllow",
      "outputs": [],
      "stateMutability": "nonpayable",
      "type": "function"
    },
    {
      "inputs": [
        {
          "internalType": "address",
          "name": "usr",
          "type": "address"
        },
        {
          "internalType": "uint256",
          "name": "ok",
          "type": "uint256"
        }
      ],
      "name": "urnAllow",
      "outputs": [],
      "stateMutability": "nonpayable",
      "type": "function"
    },
    {
      "inputs": [
        {
          "internalType": "bytes32",
          "name": "ilk",
          "type": "bytes32"
        },
        {
          "internalType": "address",
          "name": "usr",
          "type": "address"
        }
      ],
      "name": "open",
      "outputs": [
        {
          "internalType": "uint256",
          "name": "",
          "type": "uint256"
        }
      ],
      "stateMutability": "nonpayable",
      "type": "function"
    },
    {
      "inputs": [
        {
          "internalType": "uint256",
          "name": "cdp",
          "type": "uint256"
        },
        {
          "internalType": "address",
          "name": "dst",
          "type": "address"
        }
      ],
      "name": "give",
      "outputs": [],
      "stateMutability": "nonpayable",
      "type": "function"
    },
    {
      "inputs": [
        {
          "internalType": "uint256",
          "name": "cdp",
          "type": "uint256"
        },
        {
          "internalType": "int256",
          "name": "dink",
          "type": "int256"
        },
        {
          "internalType": "int256",
          "name": "dart",
          "type": "int256"
        }
      ],
      "name": "frob",
      "outputs": [],
      "stateMutability": "nonpayable",
      "type": "function"
    },
    {
      "inputs": [
        {
          "internalType": "bytes32",
          "name": "ilk",
          "type": "bytes32"
        },
        {
          "internalType": "uint256",
          "name": "cdp",
          "type": "uint256"
        },
        {
          "internalType": "address",
          "name": "dst",
          "type": "address"
        },
        {
          "internalType": "uint256",
          "name": "wad",
          "type": "uint256"
        }
      ],
      "name": "flux",
      "outputs": [],
      "stateMutability": "nonpayable",
      "type": "function"
    },
    {
      "inputs": [
        {
          "internalType": "uint256",
          "name": "cdp",
          "type": "uint256"
        },
        {
          "internalType": "address",
          "name": "dst",
          "type": "address"
        },
        {
          "internalType": "uint256",
          "name": "wad",
          "type": "uint256"
        }
      ],
      "name": "flux",
      "outputs": [],
      "stateMutability": "nonpayable",
      "type": "function"
    },
    {
      "inputs": [
        {
          "internalType": "uint256",
          "name": "cdp",
          "type": "uint256"
        },
        {
          "internalType": "address",
          "name": "dst",
          "type": "address"
        },
        {
          "internalType": "uint256",
          "name": "rad",
          "type": "uint256"
        }
      ],
      "name": "move",
      "outputs": [],
      "stateMutability": "nonpayable",
      "type": "function"
    },
    {
      "inputs": [
        {
          "internalType": "uint256",
          "name": "cdp",
          "type": "uint256"
        },
        {
          "internalType": "address",
          "name": "dst",
          "type": "address"
        }
      ],
      "name": "quit",
      "outputs": [],
      "stateMutability": "nonpayable",
      "type": "function"
    },
    {
      "inputs": [
        {
          "internalType": "address",
          "name": "src",
          "type": "address"
        },
        {
          "internalType": "uint256",
          "name": "cdp",
          "type": "uint256"
        }
      ],
      "name": "enter",
      "outputs": [],
      "stateMutability": "nonpayable",
      "type": "function"
    },
    {
      "inputs": [
        {
          "internalType": "uint256",
          "name": "cdpSrc",
          "type": "uint256"
        },
        {
          "internalType": "uint256",
          "name": "cdpDst",
          "type": "uint256"
        }
      ],
      "name": "shift",
      "outputs": [],
      "stateMutability": "nonpayable",
      "type": "function"
    }
  ],
  "bytecode": "0x608060405234801561001057600080fd5b506040516119b13803806119b18339818101604052602081101561003357600080fd5b5051600080546001600160a01b039092166001600160a01b031990921691909117905561194c806100656000396000f3fe608060405234801561001057600080fd5b50600436106101425760003560e01c806380c9419e116100b8578063b3d178f21161007c578063b3d178f214610405578063b68f40041461040d578063e50322a214610439578063f9f30db61461045c578063fc73d7711461048e578063fcafcc68146104b457610142565b806380c9419e1461032c5780638161b120146103625780639a816f7d1461037f5780639bb8f838146103a5578063b2b192e6146103d757610142565b80632c2cb9fd1161010a5780632c2cb9fd1461025057806336569e771461026d57806345e6bdcd146102755780635aebb4601461029e5780636090dec5146102d45780637e348b7d1461030057610142565b806305d85eda146101475780630b63fb621461017f57806318af4d60146101b35780631b0dbf72146101eb5780632726b07314610217575b600080fd5b61016d6004803603602081101561015d57600080fd5b50356001600160a01b03166104e0565b60408051918252519081900360200190f35b6101b16004803603606081101561019557600080fd5b508035906001600160a01b0360208201351690604001356104f2565b005b6101b1600480360360808110156101c957600080fd5b508035906020810135906001600160a01b0360408201351690606001356105d0565b6101b16004803603604081101561020157600080fd5b50803590602001356001600160a01b03166106f7565b6102346004803603602081101561022d57600080fd5b5035610990565b604080516001600160a01b039092168252519081900360200190f35b61016d6004803603602081101561026657600080fd5b50356109ab565b6102346109bd565b6101b16004803603606081101561028b57600080fd5b50803590602081013590604001356109cc565b61016d600480360360608110156102b457600080fd5b506001600160a01b03813581169160208101359160409091013516610af3565b61016d600480360360408110156102ea57600080fd5b50803590602001356001600160a01b0316610b16565b6101b16004803603604081101561031657600080fd5b506001600160a01b038135169060200135610d19565b6103496004803603602081101561034257600080fd5b5035610f08565b6040805192835260208301919091528051918290030190f35b6102346004803603602081101561037857600080fd5b5035610f21565b61016d6004803603602081101561039557600080fd5b50356001600160a01b0316610f3c565b6101b1600480360360608110156103bb57600080fd5b508035906001600160a01b036020820135169060400135610f4e565b61016d600480360360408110156103ed57600080fd5b506001600160a01b0381358116916020013516611080565b61016d61109d565b6101b16004803603604081101561042357600080fd5b506001600160a01b0381351690602001356110a3565b6101b16004803603604081101561044f57600080fd5b50803590602001356110cd565b6101b16004803603606081101561047257600080fd5b508035906001600160a01b03602082013516906040013561134c565b61016d600480360360208110156104a457600080fd5b50356001600160a01b031661144d565b6101b1600480360360408110156104ca57600080fd5b50803590602001356001600160a01b031661145f565b60086020526000908152604090205481565b60008381526004602052604090205483906001600160a01b031633148061054d57506000818152600460209081526040808320546001600160a01b031683526009825280832084845282528083203384529091529020546001145b610590576040805162461bcd60e51b815260206004820152600f60248201526e18d91c0b5b9bdd0b585b1b1bddd959608a1b604482015290519081900360640190fd5b506000838152600460209081526040808320546001600160a01b039081168452600983528184209684529582528083209490951682529290925291902055565b60008381526004602052604090205483906001600160a01b031633148061062b57506000818152600460209081526040808320546001600160a01b031683526009825280832084845282528083203384529091529020546001145b61066e576040805162461bcd60e51b815260206004820152600f60248201526e18d91c0b5b9bdd0b585b1b1bddd959608a1b604482015290519081900360640190fd5b6000805485825260026020526040808320548151633088df1760e11b8152600481018a90526001600160a01b0391821660248201528782166044820152606481018790529151921692636111be2e9260848084019382900301818387803b1580156106d857600080fd5b505af11580156106ec573d6000803e3d6000fd5b505050505050505050565b60008281526004602052604090205482906001600160a01b031633148061075257506000818152600460209081526040808320546001600160a01b031683526009825280832084845282528083203384529091529020546001145b610795576040805162461bcd60e51b815260206004820152600f60248201526e18d91c0b5b9bdd0b585b1b1bddd959608a1b604482015290519081900360640190fd5b81336001600160a01b03821614806107d057506001600160a01b0381166000908152600a602090815260408083203384529091529020546001145b610813576040805162461bcd60e51b815260206004820152600f60248201526e1d5c9b8b5b9bdd0b585b1b1bddd959608a1b604482015290519081900360640190fd5b600080548582526005602090815260408084205460029092528084205481516309092f9760e21b815260048101939093526001600160a01b039081166024840152815185949190911692632424be5c926044808301939192829003018186803b15801561087f57600080fd5b505afa158015610893573d6000803e3d6000fd5b505050506040513d60408110156108a957600080fd5b508051602091820151600080548a8252600585526040808320546002909652909120549295509093506001600160a01b039081169263870c616d92909116886108f1876117fb565b6108fa876117fb565b6040518663ffffffff1660e01b815260040180868152602001856001600160a01b03166001600160a01b03168152602001846001600160a01b03166001600160a01b0316815260200183815260200182815260200195505050505050600060405180830381600087803b15801561097057600080fd5b505af1158015610984573d6000803e3d6000fd5b50505050505050505050565b6002602052600090815260409020546001600160a01b031681565b60056020526000908152604090205481565b6000546001600160a01b031681565b60008381526004602052604090205483906001600160a01b0316331480610a2757506000818152600460209081526040808320546001600160a01b031683526009825280832084845282528083203384529091529020546001145b610a6a576040805162461bcd60e51b815260206004820152600f60248201526e18d91c0b5b9bdd0b585b1b1bddd959608a1b604482015290519081900360640190fd5b60008481526002602090815260408083205483546005909352818420548251637608870360e01b815260048101919091526001600160a01b039182166024820181905260448201819052606482018190526084820189905260a4820188905292519294939091169263760887039260c48084019382900301818387803b1580156106d857600080fd5b600960209081526000938452604080852082529284528284209052825290205481565b60006001600160a01b038216610b63576040805162461bcd60e51b815260206004820152600d60248201526c07573722d616464726573732d3609c1b604482015290519081900360640190fd5b610b70600154600161180f565b6001556000546040516001600160a01b0390911690610b8e9061182f565b6001600160a01b03909116815260405190819003602001906000f080158015610bbb573d6000803e3d6000fd5b5060018054600090815260026020908152604080832080546001600160a01b039687166001600160a01b03199182161790915584548452600483528184208054968916969091168617905592548252600581528282208790559281526006909252902054610c40576001546001600160a01b0383166000908152600660205260409020555b6001600160a01b03821660009081526007602052604090205415610c95576001600160a01b03821660009081526007602090815260408083205460018054855260039093528184208190558254908452922001555b600180546001600160a01b038416600090815260076020908152604080832093909355600890522054610cc79161180f565b6001600160a01b03831660008181526008602052604080822093909355600154925133917fd6be0bc178658a382ff4f91c8c68b542aa6b71685b8fe427966b87745c3ea7a291a4506001545b92915050565b81336001600160a01b0382161480610d5457506001600160a01b0381166000908152600a602090815260408083203384529091529020546001145b610d97576040805162461bcd60e51b815260206004820152600f60248201526e1d5c9b8b5b9bdd0b585b1b1bddd959608a1b604482015290519081900360640190fd5b60008281526004602052604090205482906001600160a01b0316331480610df257506000818152600460209081526040808320546001600160a01b031683526009825280832084845282528083203384529091529020546001145b610e35576040805162461bcd60e51b815260206004820152600f60248201526e18d91c0b5b9bdd0b585b1b1bddd959608a1b604482015290519081900360640190fd5b60008054848252600560205260408083205481516309092f9760e21b815260048101919091526001600160a01b038881166024830152825185949190911692632424be5c9260448082019391829003018186803b158015610e9557600080fd5b505afa158015610ea9573d6000803e3d6000fd5b505050506040513d6040811015610ebf57600080fd5b50805160209182015160008054898252600585526040808320546002909652909120549295509093506001600160a01b039081169263870c616d9290918a91166108f1876117fb565b6003602052600090815260409020805460019091015482565b6004602052600090815260409020546001600160a01b031681565b60076020526000908152604090205481565b60008381526004602052604090205483906001600160a01b0316331480610fa957506000818152600460209081526040808320546001600160a01b031683526009825280832084845282528083203384529091529020546001145b610fec576040805162461bcd60e51b815260206004820152600f60248201526e18d91c0b5b9bdd0b585b1b1bddd959608a1b604482015290519081900360640190fd5b60008054858252600560209081526040808420546002909252808420548151633088df1760e11b815260048101939093526001600160a01b0390811660248401528781166044840152606483018790529051921692636111be2e9260848084019382900301818387803b15801561106257600080fd5b505af1158015611076573d6000803e3d6000fd5b5050505050505050565b600a60209081526000928352604080842090915290825290205481565b60015481565b336000908152600a602090815260408083206001600160a01b039590951683529390529190912055565b60008281526004602052604090205482906001600160a01b031633148061112857506000818152600460209081526040808320546001600160a01b031683526009825280832084845282528083203384529091529020546001145b61116b576040805162461bcd60e51b815260206004820152600f60248201526e18d91c0b5b9bdd0b585b1b1bddd959608a1b604482015290519081900360640190fd5b60008281526004602052604090205482906001600160a01b03163314806111c657506000818152600460209081526040808320546001600160a01b031683526009825280832084845282528083203384529091529020546001145b611209576040805162461bcd60e51b815260206004820152600f60248201526e18d91c0b5b9bdd0b585b1b1bddd959608a1b604482015290519081900360640190fd5b6000838152600560205260408082205486835291205414611265576040805162461bcd60e51b81526020600482015260116024820152706e6f6e2d6d61746368696e672d6364707360781b604482015290519081900360640190fd5b600080548582526005602090815260408084205460029092528084205481516309092f9760e21b815260048101939093526001600160a01b039081166024840152815185949190911692632424be5c926044808301939192829003018186803b1580156112d157600080fd5b505afa1580156112e5573d6000803e3d6000fd5b505050506040513d60408110156112fb57600080fd5b508051602091820151600080548a8252600585526040808320546002909652808320548b84529220549396509194506001600160a01b039182169363870c616d93909291821691166108f1876117fb565b60008381526004602052604090205483906001600160a01b03163314806113a757506000818152600460209081526040808320546001600160a01b031683526009825280832084845282528083203384529091529020546001145b6113ea576040805162461bcd60e51b815260206004820152600f60248201526e18d91c0b5b9bdd0b585b1b1bddd959608a1b604482015290519081900360640190fd5b600080548582526002602052604080832054815163bb35783b60e01b81526001600160a01b039182166004820152878216602482015260448101879052915192169263bb35783b9260648084019382900301818387803b15801561106257600080fd5b60066020526000908152604090205481565b60008281526004602052604090205482906001600160a01b03163314806114ba57506000818152600460209081526040808320546001600160a01b031683526009825280832084845282528083203384529091529020546001145b6114fd576040805162461bcd60e51b815260206004820152600f60248201526e18d91c0b5b9bdd0b585b1b1bddd959608a1b604482015290519081900360640190fd5b6001600160a01b038216611548576040805162461bcd60e51b815260206004820152600d60248201526c06473742d616464726573732d3609c1b604482015290519081900360640190fd5b6000838152600460205260409020546001600160a01b03838116911614156115ab576040805162461bcd60e51b81526020600482015260116024820152703239ba16b0b63932b0b23c96b7bbb732b960791b604482015290519081900360640190fd5b600083815260036020526040902054156115df57600083815260036020526040808220600180820154915484529190922001555b600083815260036020526040902060010154156116175760008381526003602052604080822080546001909101548352912055611646565b60008381526003602090815260408083205460048352818420546001600160a01b031684526007909252909120555b6000838152600460209081526040808320546001600160a01b0316835260069091529020548314156116a45760008381526003602090815260408083206001015460048352818420546001600160a01b031684526006909252909120555b6000838152600460209081526040808320546001600160a01b0316835260089091529020546116d490600161181f565b600084815260046020908152604080832080546001600160a01b039081168552600884528285209590955580546001600160a01b0319169487169485179055838352600780835281842080548986526003855292852092835560019290920184905593909252919091525415611770576001600160a01b0382166000908152600760209081526040808320548352600390915290206001018390555b6001600160a01b0382166000908152600660205260409020546117a9576001600160a01b03821660009081526006602052604090208390555b6001600160a01b038216600090815260076020908152604080832086905560089091529020546117da90600161180f565b6001600160a01b039092166000908152600860205260409020919091555050565b80600081121561180a57600080fd5b919050565b80820182811015610d1357600080fd5b80820382811115610d1357600080fd5b60db8061183c8339019056fe6080604052348015600f57600080fd5b5060405160db38038060db83398181016040526020811015602f57600080fd5b5051604080516328ec8bf160e21b815233600482015290516001600160a01b0383169163a3b22fc491602480830192600092919082900301818387803b158015607757600080fd5b505af1158015608a573d6000803e3d6000fd5b5050505050603f80609c6000396000f3fe6080604052600080fdfea2646970667358221220e10895209527f0e456887e15d101268f2d5487558e38906688a8189d6f8e418f64736f6c634300060a0033a2646970667358221220af377134634b88f3b7434164c88f425258e7aca0f7e342e3b6993d2c9e61d28364736f6c634300060a0033",
  "immutableReferences": {},
  "source": "// SPDX-License-Identifier: AGPL-3.0-or-later\n\n/// DssCdpManager.sol\n\n// Copyright (C) 2018-2020 Maker Ecosystem Growth Holdings, INC.\n\n// This program is free software: you can redistribute it and/or modify\n// it under the terms of the GNU Affero General Public License as published by\n// the Free Software Foundation, either version 3 of the License, or\n// (at your option) any later version.\n//\n// This program is distributed in the hope that it will be useful,\n// but WITHOUT ANY WARRANTY; without even the implied warranty of\n// MERCHANTABILITY or FITNESS FOR A PARTICULAR PURPOSE.  See the\n// GNU Affero General Public License for more details.\n//\n// You should have received a copy of the GNU Affero General Public License\n// along with this program.  If not, see <https://www.gnu.org/licenses/>.\n\npragma solidity >=0.5.12;\n\nimport { LibNote } from \"./lib.sol\";\n\ninterface VatLike {\n    function urns(bytes32, address) external view returns (uint, uint);\n    function hope(address) external;\n    function flux(bytes32, address, address, uint) external;\n    function move(address, address, uint) external;\n    function frob(bytes32, address, address, address, int, int) external;\n    function fork(bytes32, address, address, int, int) external;\n}\n\ncontract UrnHandler {\n    constructor(address vat) public {\n        VatLike(vat).hope(msg.sender);\n    }\n}\n\ncontract DssCdpManager is LibNote {\n    address                   public vat;\n    uint                      public cdpi;      // Auto incremental\n    mapping (uint => address) public urns;      // CDPId => UrnHandler\n    mapping (uint => List)    public list;      // CDPId => Prev & Next CDPIds (double linked list)\n    mapping (uint => address) public owns;      // CDPId => Owner\n    mapping (uint => bytes32) public ilks;      // CDPId => Ilk\n\n    mapping (address => uint) public first;     // Owner => First CDPId\n    mapping (address => uint) public last;      // Owner => Last CDPId\n    mapping (address => uint) public count;     // Owner => Amount of CDPs\n\n    mapping (\n        address => mapping (\n            uint => mapping (\n                address => uint\n            )\n        )\n    ) public cdpCan;                            // Owner => CDPId => Allowed Addr => True/False\n\n    mapping (\n        address => mapping (\n            address => uint\n        )\n    ) public urnCan;                            // Urn => Allowed Addr => True/False\n\n    struct List {\n        uint prev;\n        uint next;\n    }\n\n    event NewCdp(address indexed usr, address indexed own, uint indexed cdp);\n\n    modifier cdpAllowed(\n        uint cdp\n    ) {\n        require(msg.sender == owns[cdp] || cdpCan[owns[cdp]][cdp][msg.sender] == 1, \"cdp-not-allowed\");\n        _;\n    }\n\n    modifier urnAllowed(\n        address urn\n    ) {\n        require(msg.sender == urn || urnCan[urn][msg.sender] == 1, \"urn-not-allowed\");\n        _;\n    }\n\n    constructor(address vat_) public {\n        vat = vat_;\n    }\n\n    function add(uint x, uint y) internal pure returns (uint z) {\n        require((z = x + y) >= x);\n    }\n\n    function sub(uint x, uint y) internal pure returns (uint z) {\n        require((z = x - y) <= x);\n    }\n\n    function toInt(uint x) internal pure returns (int y) {\n        y = int(x);\n        require(y >= 0);\n    }\n\n    // Allow/disallow a usr address to manage the cdp.\n    function cdpAllow(\n        uint cdp,\n        address usr,\n        uint ok\n    ) public cdpAllowed(cdp) {\n        cdpCan[owns[cdp]][cdp][usr] = ok;\n    }\n\n    // Allow/disallow a usr address to quit to the the sender urn.\n    function urnAllow(\n        address usr,\n        uint ok\n    ) public {\n        urnCan[msg.sender][usr] = ok;\n    }\n\n    // Open a new cdp for a given usr address.\n    function open(\n        bytes32 ilk,\n        address usr\n    ) public note returns (uint) {\n        require(usr != address(0), \"usr-address-0\");\n\n        cdpi = add(cdpi, 1);\n        urns[cdpi] = address(new UrnHandler(vat));\n        owns[cdpi] = usr;\n        ilks[cdpi] = ilk;\n\n        // Add new CDP to double linked list and pointers\n        if (first[usr] == 0) {\n            first[usr] = cdpi;\n        }\n        if (last[usr] != 0) {\n            list[cdpi].prev = last[usr];\n            list[last[usr]].next = cdpi;\n        }\n        last[usr] = cdpi;\n        count[usr] = add(count[usr], 1);\n\n        emit NewCdp(msg.sender, usr, cdpi);\n        return cdpi;\n    }\n\n    // Give the cdp ownership to a dst address.\n    function give(\n        uint cdp,\n        address dst\n    ) public note cdpAllowed(cdp) {\n        require(dst != address(0), \"dst-address-0\");\n        require(dst != owns[cdp], \"dst-already-owner\");\n\n        // Remove transferred CDP from double linked list of origin user and pointers\n        if (list[cdp].prev != 0) {\n            list[list[cdp].prev].next = list[cdp].next;         // Set the next pointer of the prev cdp (if exists) to the next of the transferred one\n        }\n        if (list[cdp].next != 0) {                              // If wasn't the last one\n            list[list[cdp].next].prev = list[cdp].prev;         // Set the prev pointer of the next cdp to the prev of the transferred one\n        } else {                                                // If was the last one\n            last[owns[cdp]] = list[cdp].prev;                   // Update last pointer of the owner\n        }\n        if (first[owns[cdp]] == cdp) {                          // If was the first one\n            first[owns[cdp]] = list[cdp].next;                  // Update first pointer of the owner\n        }\n        count[owns[cdp]] = sub(count[owns[cdp]], 1);\n\n        // Transfer ownership\n        owns[cdp] = dst;\n\n        // Add transferred CDP to double linked list of destiny user and pointers\n        list[cdp].prev = last[dst];\n        list[cdp].next = 0;\n        if (last[dst] != 0) {\n            list[last[dst]].next = cdp;\n        }\n        if (first[dst] == 0) {\n            first[dst] = cdp;\n        }\n        last[dst] = cdp;\n        count[dst] = add(count[dst], 1);\n    }\n\n    // Frob the cdp keeping the generated DAI or collateral freed in the cdp urn address.\n    function frob(\n        uint cdp,\n        int dink,\n        int dart\n    ) public note cdpAllowed(cdp) {\n        address urn = urns[cdp];\n        VatLike(vat).frob(\n            ilks[cdp],\n            urn,\n            urn,\n            urn,\n            dink,\n            dart\n        );\n    }\n\n    // Transfer wad amount of cdp collateral from the cdp address to a dst address.\n    function flux(\n        uint cdp,\n        address dst,\n        uint wad\n    ) public note cdpAllowed(cdp) {\n        VatLike(vat).flux(ilks[cdp], urns[cdp], dst, wad);\n    }\n\n    // Transfer wad amount of any type of collateral (ilk) from the cdp address to a dst address.\n    // This function has the purpose to take away collateral from the system that doesn't correspond to the cdp but was sent there wrongly.\n    function flux(\n        bytes32 ilk,\n        uint cdp,\n        address dst,\n        uint wad\n    ) public note cdpAllowed(cdp) {\n        VatLike(vat).flux(ilk, urns[cdp], dst, wad);\n    }\n\n    // Transfer wad amount of DAI from the cdp address to a dst address.\n    function move(\n        uint cdp,\n        address dst,\n        uint rad\n    ) public note cdpAllowed(cdp) {\n        VatLike(vat).move(urns[cdp], dst, rad);\n    }\n\n    // Quit the system, migrating the cdp (ink, art) to a different dst urn\n    function quit(\n        uint cdp,\n        address dst\n    ) public note cdpAllowed(cdp) urnAllowed(dst) {\n        (uint ink, uint art) = VatLike(vat).urns(ilks[cdp], urns[cdp]);\n        VatLike(vat).fork(\n            ilks[cdp],\n            urns[cdp],\n            dst,\n            toInt(ink),\n            toInt(art)\n        );\n    }\n\n    // Import a position from src urn to the urn owned by cdp\n    function enter(\n        address src,\n        uint cdp\n    ) public note urnAllowed(src) cdpAllowed(cdp) {\n        (uint ink, uint art) = VatLike(vat).urns(ilks[cdp], src);\n        VatLike(vat).fork(\n            ilks[cdp],\n            src,\n            urns[cdp],\n            toInt(ink),\n            toInt(art)\n        );\n    }\n\n    // Move a position from cdpSrc urn to the cdpDst urn\n    function shift(\n        uint cdpSrc,\n        uint cdpDst\n    ) public note cdpAllowed(cdpSrc) cdpAllowed(cdpDst) {\n        require(ilks[cdpSrc] == ilks[cdpDst], \"non-matching-cdps\");\n        (uint ink, uint art) = VatLike(vat).urns(ilks[cdpSrc], urns[cdpSrc]);\n        VatLike(vat).fork(\n            ilks[cdpSrc],\n            urns[cdpSrc],\n            urns[cdpDst],\n            toInt(ink),\n            toInt(art)\n        );\n    }\n}\n",
  "sourcePath": "/Users/brucedonovan/dev/yield/fyDai-proxies/contracts/external/maker/DssCdpManager.sol",
  "compiler": {
    "name": "solc",
    "version": "0.6.10+commit.00c0fcaf.Emscripten.clang"
  },
  "schemaVersion": "3.2.3",
  "updatedAt": "2020-12-11T09:21:34.818Z",
  "devdoc": {
    "methods": {}
  },
  "userdoc": {
    "methods": {}
  }
}