{
  "contractName": "End",
  "abi": [
    {
      "inputs": [],
      "stateMutability": "nonpayable",
      "type": "constructor"
    },
    {
      "anonymous": true,
      "inputs": [
        {
          "indexed": true,
          "internalType": "bytes4",
          "name": "sig",
          "type": "bytes4"
        },
        {
          "indexed": true,
          "internalType": "address",
          "name": "usr",
          "type": "address"
        },
        {
          "indexed": true,
          "internalType": "bytes32",
          "name": "arg1",
          "type": "bytes32"
        },
        {
          "indexed": true,
          "internalType": "bytes32",
          "name": "arg2",
          "type": "bytes32"
        },
        {
          "indexed": false,
          "internalType": "bytes",
          "name": "data",
          "type": "bytes"
        }
      ],
      "name": "LogNote",
      "type": "event"
    },
    {
      "inputs": [
        {
          "internalType": "bytes32",
          "name": "",
          "type": "bytes32"
        }
      ],
      "name": "Art",
      "outputs": [
        {
          "internalType": "uint256",
          "name": "",
          "type": "uint256"
        }
      ],
      "stateMutability": "view",
      "type": "function",
      "constant": true
    },
    {
      "inputs": [
        {
          "internalType": "address",
          "name": "",
          "type": "address"
        }
      ],
      "name": "bag",
      "outputs": [
        {
          "internalType": "uint256",
          "name": "",
          "type": "uint256"
        }
      ],
      "stateMutability": "view",
      "type": "function",
      "constant": true
    },
    {
      "inputs": [],
      "name": "cat",
      "outputs": [
        {
          "internalType": "contract CatLike",
          "name": "",
          "type": "address"
        }
      ],
      "stateMutability": "view",
      "type": "function",
      "constant": true
    },
    {
      "inputs": [],
      "name": "debt",
      "outputs": [
        {
          "internalType": "uint256",
          "name": "",
          "type": "uint256"
        }
      ],
      "stateMutability": "view",
      "type": "function",
      "constant": true
    },
    {
      "inputs": [
        {
          "internalType": "bytes32",
          "name": "",
          "type": "bytes32"
        }
      ],
      "name": "fix",
      "outputs": [
        {
          "internalType": "uint256",
          "name": "",
          "type": "uint256"
        }
      ],
      "stateMutability": "view",
      "type": "function",
      "constant": true
    },
    {
      "inputs": [
        {
          "internalType": "bytes32",
          "name": "",
          "type": "bytes32"
        }
      ],
      "name": "gap",
      "outputs": [
        {
          "internalType": "uint256",
          "name": "",
          "type": "uint256"
        }
      ],
      "stateMutability": "view",
      "type": "function",
      "constant": true
    },
    {
      "inputs": [],
      "name": "live",
      "outputs": [
        {
          "internalType": "uint256",
          "name": "",
          "type": "uint256"
        }
      ],
      "stateMutability": "view",
      "type": "function",
      "constant": true
    },
    {
      "inputs": [
        {
          "internalType": "bytes32",
          "name": "",
          "type": "bytes32"
        },
        {
          "internalType": "address",
          "name": "",
          "type": "address"
        }
      ],
      "name": "out",
      "outputs": [
        {
          "internalType": "uint256",
          "name": "",
          "type": "uint256"
        }
      ],
      "stateMutability": "view",
      "type": "function",
      "constant": true
    },
    {
      "inputs": [],
      "name": "pot",
      "outputs": [
        {
          "internalType": "contract PotLike",
          "name": "",
          "type": "address"
        }
      ],
      "stateMutability": "view",
      "type": "function",
      "constant": true
    },
    {
      "inputs": [],
      "name": "spot",
      "outputs": [
        {
          "internalType": "contract Spotty",
          "name": "",
          "type": "address"
        }
      ],
      "stateMutability": "view",
      "type": "function",
      "constant": true
    },
    {
      "inputs": [
        {
          "internalType": "bytes32",
          "name": "",
          "type": "bytes32"
        }
      ],
      "name": "tag",
      "outputs": [
        {
          "internalType": "uint256",
          "name": "",
          "type": "uint256"
        }
      ],
      "stateMutability": "view",
      "type": "function",
      "constant": true
    },
    {
      "inputs": [],
      "name": "vat",
      "outputs": [
        {
          "internalType": "contract VatLike",
          "name": "",
          "type": "address"
        }
      ],
      "stateMutability": "view",
      "type": "function",
      "constant": true
    },
    {
      "inputs": [],
      "name": "vow",
      "outputs": [
        {
          "internalType": "contract VowLike",
          "name": "",
          "type": "address"
        }
      ],
      "stateMutability": "view",
      "type": "function",
      "constant": true
    },
    {
      "inputs": [],
      "name": "wait",
      "outputs": [
        {
          "internalType": "uint256",
          "name": "",
          "type": "uint256"
        }
      ],
      "stateMutability": "view",
      "type": "function",
      "constant": true
    },
    {
      "inputs": [
        {
          "internalType": "address",
          "name": "",
          "type": "address"
        }
      ],
      "name": "wards",
      "outputs": [
        {
          "internalType": "uint256",
          "name": "",
          "type": "uint256"
        }
      ],
      "stateMutability": "view",
      "type": "function",
      "constant": true
    },
    {
      "inputs": [],
      "name": "when",
      "outputs": [
        {
          "internalType": "uint256",
          "name": "",
          "type": "uint256"
        }
      ],
      "stateMutability": "view",
      "type": "function",
      "constant": true
    },
    {
      "inputs": [
        {
          "internalType": "address",
          "name": "guy",
          "type": "address"
        }
      ],
      "name": "rely",
      "outputs": [],
      "stateMutability": "nonpayable",
      "type": "function"
    },
    {
      "inputs": [
        {
          "internalType": "address",
          "name": "guy",
          "type": "address"
        }
      ],
      "name": "deny",
      "outputs": [],
      "stateMutability": "nonpayable",
      "type": "function"
    },
    {
      "inputs": [
        {
          "internalType": "bytes32",
          "name": "what",
          "type": "bytes32"
        },
        {
          "internalType": "uint256",
          "name": "data",
          "type": "uint256"
        }
      ],
      "name": "file",
      "outputs": [],
      "stateMutability": "nonpayable",
      "type": "function"
    },
    {
      "inputs": [
        {
          "internalType": "bytes32",
          "name": "what",
          "type": "bytes32"
        },
        {
          "internalType": "address",
          "name": "data",
          "type": "address"
        }
      ],
      "name": "file",
      "outputs": [],
      "stateMutability": "nonpayable",
      "type": "function"
    },
    {
      "inputs": [],
      "name": "cage",
      "outputs": [],
      "stateMutability": "nonpayable",
      "type": "function"
    },
    {
      "inputs": [
        {
          "internalType": "bytes32",
          "name": "ilk",
          "type": "bytes32"
        }
      ],
      "name": "cage",
      "outputs": [],
      "stateMutability": "nonpayable",
      "type": "function"
    },
    {
      "inputs": [
        {
          "internalType": "bytes32",
          "name": "ilk",
          "type": "bytes32"
        },
        {
          "internalType": "uint256",
          "name": "id",
          "type": "uint256"
        }
      ],
      "name": "skip",
      "outputs": [],
      "stateMutability": "nonpayable",
      "type": "function"
    },
    {
      "inputs": [
        {
          "internalType": "bytes32",
          "name": "ilk",
          "type": "bytes32"
        },
        {
          "internalType": "uint256",
          "name": "tag_",
          "type": "uint256"
        }
      ],
      "name": "setTag",
      "outputs": [],
      "stateMutability": "nonpayable",
      "type": "function"
    },
    {
      "inputs": [
        {
          "internalType": "bytes32",
          "name": "ilk",
          "type": "bytes32"
        },
        {
          "internalType": "address",
          "name": "urn",
          "type": "address"
        }
      ],
      "name": "skim",
      "outputs": [],
      "stateMutability": "nonpayable",
      "type": "function"
    },
    {
      "inputs": [
        {
          "internalType": "bytes32",
          "name": "ilk",
          "type": "bytes32"
        }
      ],
      "name": "free",
      "outputs": [],
      "stateMutability": "nonpayable",
      "type": "function"
    },
    {
      "inputs": [],
      "name": "thaw",
      "outputs": [],
      "stateMutability": "nonpayable",
      "type": "function"
    },
    {
      "inputs": [
        {
          "internalType": "bytes32",
          "name": "ilk",
          "type": "bytes32"
        }
      ],
      "name": "flow",
      "outputs": [],
      "stateMutability": "nonpayable",
      "type": "function"
    },
    {
      "inputs": [
        {
          "internalType": "uint256",
          "name": "debt_",
          "type": "uint256"
        }
      ],
      "name": "setDebt",
      "outputs": [],
      "stateMutability": "nonpayable",
      "type": "function"
    },
    {
      "inputs": [
        {
          "internalType": "uint256",
          "name": "wad",
          "type": "uint256"
        }
      ],
      "name": "pack",
      "outputs": [],
      "stateMutability": "nonpayable",
      "type": "function"
    },
    {
      "inputs": [
        {
          "internalType": "bytes32",
          "name": "ilk",
          "type": "bytes32"
        },
        {
          "internalType": "uint256",
          "name": "fix_",
          "type": "uint256"
        }
      ],
      "name": "setFix",
      "outputs": [],
      "stateMutability": "nonpayable",
      "type": "function"
    },
    {
      "inputs": [
        {
          "internalType": "bytes32",
          "name": "ilk",
          "type": "bytes32"
        },
        {
          "internalType": "uint256",
          "name": "wad",
          "type": "uint256"
        }
      ],
      "name": "cash",
      "outputs": [],
      "stateMutability": "nonpayable",
      "type": "function"
    }
  ],
  "bytecode": "0x608060405234801561001057600080fd5b50336000908152602081905260409020600190819055600655611e9c806100386000396000f3fe608060405234801561001057600080fd5b50600436106101f05760003560e01c80638f6f27231161010f578063e1340a3d116100a2578063e6ee62aa11610071578063e6ee62aa146104cd578063ee6447b5146104ea578063f8b6bd6b14610507578063fe8507c61461052a576101f0565b8063e1340a3d14610483578063e2702fdc146104a0578063e2b0caef146104bd578063e4881813146104c5576101f0565b8063bf353dbb116100de578063bf353dbb146103e8578063c83062c61461040e578063c939ebfc1461042b578063d4e8be8314610457576101f0565b80638f6f2723146103715780639255f80914610394578063957aa58c146103ba5780639c52a7f1146103c2576101f0565b806363fad85e116101875780636ea42555116101565780636ea42555146103035780636f265b93146103205780637dbf67a71461032857806389ea45d314610345576101f0565b806363fad85e146102b057806364bd7013146102cd57806365fae35e146102d557806369245009146102fb576101f0565b80634ba2363a116101c35780634ba2363a14610275578063503ecf061461027d5780635920375c146102a0578063626cb3c5146102a8576101f0565b80630dca59c1146101f557806329ae81141461020f57806336569e77146102345780634a10eaa614610258575b600080fd5b6101fd61054d565b60408051918252519081900360200190f35b6102326004803603604081101561022557600080fd5b5080359060200135610553565b005b61023c61065c565b604080516001600160a01b039092168252519081900360200190f35b6102326004803603602081101561026e57600080fd5b503561066b565b61023c610818565b6102326004803603604081101561029357600080fd5b5080359060200135610827565b610232610cee565b61023c610f1d565b6101fd600480360360208110156102c657600080fd5b5035610f2c565b6101fd610f3e565b610232600480360360208110156102eb57600080fd5b50356001600160a01b0316610f44565b610232610fba565b6102326004803603602081101561031957600080fd5b50356110be565b61023c6111e1565b6102326004803603602081101561033e57600080fd5b50356111f0565b6102326004803603604081101561035b57600080fd5b50803590602001356001600160a01b03166111f5565b6102326004803603604081101561038757600080fd5b50803590602001356114ae565b6101fd600480360360208110156103aa57600080fd5b50356001600160a01b03166114c0565b6101fd6114d2565b610232600480360360208110156103d857600080fd5b50356001600160a01b03166114d8565b6101fd600480360360208110156103fe57600080fd5b50356001600160a01b031661154b565b6102326004803603602081101561042457600080fd5b503561155d565b6101fd6004803603604081101561044157600080fd5b50803590602001356001600160a01b031661174b565b6102326004803603604081101561046d57600080fd5b50803590602001356001600160a01b0316611768565b6101fd6004803603602081101561049957600080fd5b50356118ee565b610232600480360360208110156104b657600080fd5b5035611900565b6101fd611ba8565b61023c611bae565b6101fd600480360360208110156104e357600080fd5b5035611bbd565b6101fd6004803603602081101561050057600080fd5b5035611bcf565b6102326004803603604081101561051d57600080fd5b5080359060200135611be1565b6102326004803603604081101561054057600080fd5b5080359060200135611bf3565b60095481565b336000908152602081905260409020546001146105ac576040805162461bcd60e51b8152602060048201526012602482015271115b990bdb9bdd0b585d5d1a1bdc9a5e995960721b604482015290519081900360640190fd5b6006546001146105f2576040805162461bcd60e51b815260206004820152600c60248201526b456e642f6e6f742d6c69766560a01b604482015290519081900360640190fd5b81631dd85a5d60e21b141561060b576008819055610658565b6040805162461bcd60e51b815260206004820152601b60248201527f456e642f66696c652d756e7265636f676e697a65642d706172616d0000000000604482015290519081900360640190fd5b5050565b6001546001600160a01b031681565b6009546106af576040805162461bcd60e51b815260206004820152600d60248201526c456e642f646562742d7a65726f60981b604482015290519081900360640190fd5b6000818152600d602052604090205415610710576040805162461bcd60e51b815260206004820152601b60248201527f456e642f6669782d696c6b2d616c72656164792d646566696e65640000000000604482015290519081900360640190fd5b60015460408051636cb1c69b60e11b81526004810184905290516000926001600160a01b03169163d9638d369160248083019260a092919082900301818787803b15801561075d57600080fd5b505af1158015610771573d6000803e3d6000fd5b505050506040513d60a081101561078757600080fd5b506020908101516000848152600c90925260408220549092506107c2906107ae9084611dad565b6000858152600a6020526040902054611dad565b90506108016107f96107e783600b600088815260200190815260200160002054611dd5565b6b033b2e3c9fd0803ce8000000611deb565b600954611e0f565b6000938452600d6020526040909320929092555050565b6004546001600160a01b031681565b6000828152600a6020526040902054610881576040805162461bcd60e51b8152602060048201526017602482015276115b990bdd1859cb5a5b1acb5b9bdd0b5919599a5b9959604a1b604482015290519081900360640190fd5b60025460408051636cb1c69b60e11b81526004810185905290516000926001600160a01b03169163d9638d3691602480830192606092919082900301818787803b1580156108ce57600080fd5b505af11580156108e2573d6000803e3d6000fd5b505050506040513d60608110156108f857600080fd5b505160015460408051636cb1c69b60e11b815260048101879052905192935083926000926001600160a01b03169163d9638d369160248083019260a092919082900301818787803b15801561094c57600080fd5b505af1158015610960573d6000803e3d6000fd5b505050506040513d60a081101561097657600080fd5b506020015160408051634423c5f160e01b81526004810187905290519192506000918291829182916001600160a01b03881691634423c5f19160248082019261010092909190829003018186803b1580156109d057600080fd5b505afa1580156109e4573d6000803e3d6000fd5b505050506040513d6101008110156109fb57600080fd5b508051602082015160a083015160e0909301516001546003546040805163f24e23eb60e01b81526001600160a01b03928316600482018190526024820152604481018590529051959a50939850949650909450929092169163f24e23eb91606480830192600092919082900301818387803b158015610a7957600080fd5b505af1158015610a8d573d6000803e3d6000fd5b50506001546003546040805163f24e23eb60e01b81526001600160a01b039283166004820152306024820152604481018a9052905191909216935063f24e23eb9250606480830192600092919082900301818387803b158015610aef57600080fd5b505af1158015610b03573d6000803e3d6000fd5b5050600154604080516328ec8bf160e21b81526001600160a01b038b81166004830152915191909216935063a3b22fc49250602480830192600092919082900301818387803b158015610b5557600080fd5b505af1158015610b69573d6000803e3d6000fd5b50505050856001600160a01b03166326e027f1896040518263ffffffff1660e01b815260040180828152602001915050600060405180830381600087803b158015610bb357600080fd5b505af1158015610bc7573d6000803e3d6000fd5b505050506000858281610bd657fe5b60008c8152600c60205260409020549190049150610bf49082611e28565b60008b8152600c60205260408120919091558412801590610c16575060008112155b610c56576040805162461bcd60e51b815260206004820152600c60248201526b456e642f6f766572666c6f7760a01b604482015290519081900360640190fd5b600154600354604080516301eeacfd60e61b8152600481018e90526001600160a01b03878116602483015230604483015292831660648201526084810188905260a4810185905290519190921691637bab3f409160c480830192600092919082900301818387803b158015610cca57600080fd5b505af1158015610cde573d6000803e3d6000fd5b5050505050505050505050505050565b60065415610d34576040805162461bcd60e51b815260206004820152600e60248201526d456e642f7374696c6c2d6c69766560901b604482015290519081900360640190fd5b60095415610d7d576040805162461bcd60e51b8152602060048201526011602482015270456e642f646562742d6e6f742d7a65726f60781b604482015290519081900360640190fd5b60015460035460408051633612d9a360e11b81526001600160a01b03928316600482015290519190921691636c25b346916024808301926020929190829003018186803b158015610dcd57600080fd5b505afa158015610de1573d6000803e3d6000fd5b505050506040513d6020811015610df757600080fd5b505115610e42576040805162461bcd60e51b8152602060048201526014602482015273456e642f737572706c75732d6e6f742d7a65726f60601b604482015290519081900360640190fd5b610e50600754600854611e28565b421015610e9c576040805162461bcd60e51b8152602060048201526015602482015274115b990bddd85a5d0b5b9bdd0b599a5b9a5cda1959605a1b604482015290519081900360640190fd5b600160009054906101000a90046001600160a01b03166001600160a01b0316630dca59c16040518163ffffffff1660e01b8152600401602060405180830381600087803b158015610eec57600080fd5b505af1158015610f00573d6000803e3d6000fd5b505050506040513d6020811015610f1657600080fd5b5051600955565b6003546001600160a01b031681565b600d6020526000908152604090205481565b60085481565b33600090815260208190526040902054600114610f9d576040805162461bcd60e51b8152602060048201526012602482015271115b990bdb9bdd0b585d5d1a1bdc9a5e995960721b604482015290519081900360640190fd5b6001600160a01b0316600090815260208190526040902060019055565b33600090815260208190526040902054600114611013576040805162461bcd60e51b8152602060048201526012602482015271115b990bdb9bdd0b585d5d1a1bdc9a5e995960721b604482015290519081900360640190fd5b600654600114611059576040805162461bcd60e51b815260206004820152600c60248201526b456e642f6e6f742d6c69766560a01b604482015290519081900360640190fd5b600060068190554260075560015460408051636924500960e01b815290516001600160a01b039092169263692450099260048084019382900301818387803b1580156110a457600080fd5b505af11580156110b8573d6000803e3d6000fd5b50505050565b600954611102576040805162461bcd60e51b815260206004820152600d60248201526c456e642f646562742d7a65726f60981b604482015290519081900360640190fd5b6001546003546001600160a01b039182169163bb35783b91339116611133856b033b2e3c9fd0803ce8000000611deb565b6040518463ffffffff1660e01b815260040180846001600160a01b03166001600160a01b03168152602001836001600160a01b03166001600160a01b031681526020018281526020019350505050600060405180830381600087803b15801561119b57600080fd5b505af11580156111af573d6000803e3d6000fd5b5050336000908152600e60205260409020546111ce9250905082611e28565b336000908152600e602052604090205550565b6005546001600160a01b031681565b600955565b6000828152600a602052604090205461124f576040805162461bcd60e51b8152602060048201526017602482015276115b990bdd1859cb5a5b1acb5b9bdd0b5919599a5b9959604a1b604482015290519081900360640190fd5b60015460408051636cb1c69b60e11b81526004810185905290516000926001600160a01b03169163d9638d369160248083019260a092919082900301818787803b15801561129c57600080fd5b505af11580156112b0573d6000803e3d6000fd5b505050506040513d60a08110156112c657600080fd5b5060200151600154604080516309092f9760e21b8152600481018790526001600160a01b038681166024830152825194955060009485949190911692632424be5c926044808201939182900301818787803b15801561132457600080fd5b505af1158015611338573d6000803e3d6000fd5b505050506040513d604081101561134e57600080fd5b5080516020909101519092509050600061137f61136b8386611dad565b6000888152600a6020526040902054611dad565b9050600061138d8483611e38565b6000888152600b60205260409020549091506113b2906113ad8484611dd5565b611e28565b6000888152600b6020526040902055600160ff1b81118015906113d95750600160ff1b8311155b611419576040805162461bcd60e51b815260206004820152600c60248201526b456e642f6f766572666c6f7760a01b604482015290519081900360640190fd5b600154600354604080516301eeacfd60e61b8152600481018b90526001600160a01b038a8116602483015230604483015292831660648201526000858103608483015287810360a483015291519290931692637bab3f409260c4808301939282900301818387803b15801561148d57600080fd5b505af11580156114a1573d6000803e3d6000fd5b5050505050505050505050565b6000918252600a602052604090912055565b600e6020526000908152604090205481565b60065481565b33600090815260208190526040902054600114611531576040805162461bcd60e51b8152602060048201526012602482015271115b990bdb9bdd0b585d5d1a1bdc9a5e995960721b604482015290519081900360640190fd5b6001600160a01b0316600090815260208190526040812055565b60006020819052908152604090205481565b600654156115a3576040805162461bcd60e51b815260206004820152600e60248201526d456e642f7374696c6c2d6c69766560901b604482015290519081900360640190fd5b600154604080516309092f9760e21b815260048101849052336024820152815160009384936001600160a01b0390911692632424be5c926044808301939282900301818787803b1580156115f657600080fd5b505af115801561160a573d6000803e3d6000fd5b505050506040513d604081101561162057600080fd5b50805160209091015190925090508015611674576040805162461bcd60e51b815260206004820152601060248201526f456e642f6172742d6e6f742d7a65726f60801b604482015290519081900360640190fd5b600160ff1b8211156116bc576040805162461bcd60e51b815260206004820152600c60248201526b456e642f6f766572666c6f7760a01b604482015290519081900360640190fd5b600154600354604080516301eeacfd60e61b815260048101879052336024820181905260448201526001600160a01b0392831660648201526000868103608483015260a4820181905291519290931692637bab3f409260c4808301939282900301818387803b15801561172e57600080fd5b505af1158015611742573d6000803e3d6000fd5b50505050505050565b600f60209081526000928352604080842090915290825290205481565b336000908152602081905260409020546001146117c1576040805162461bcd60e51b8152602060048201526012602482015271115b990bdb9bdd0b585d5d1a1bdc9a5e995960721b604482015290519081900360640190fd5b600654600114611807576040805162461bcd60e51b815260206004820152600c60248201526b456e642f6e6f742d6c69766560a01b604482015290519081900360640190fd5b81621d985d60ea1b141561183557600180546001600160a01b0319166001600160a01b038316179055610658565b816218d85d60ea1b141561186357600280546001600160a01b0319166001600160a01b038316179055610658565b8162766f7760e81b141561189157600380546001600160a01b0319166001600160a01b038316179055610658565b81621c1bdd60ea1b14156118bf57600480546001600160a01b0319166001600160a01b038316179055610658565b81631cdc1bdd60e21b141561060b57600580546001600160a01b0319166001600160a01b038316179055610658565b600c6020526000908152604090205481565b60065415611946576040805162461bcd60e51b815260206004820152600e60248201526d456e642f7374696c6c2d6c69766560901b604482015290519081900360640190fd5b6000818152600a6020526040902054156119a7576040805162461bcd60e51b815260206004820152601b60248201527f456e642f7461672d696c6b2d616c72656164792d646566696e65640000000000604482015290519081900360640190fd5b60015460408051636cb1c69b60e11b81526004810184905290516001600160a01b039092169163d9638d369160248082019260a0929091908290030181600087803b1580156119f557600080fd5b505af1158015611a09573d6000803e3d6000fd5b505050506040513d60a0811015611a1f57600080fd5b50516000828152600c6020526040808220929092556005548251636cb1c69b60e11b815260048101859052835192936001600160a01b039092169263d9638d3692602480840193919291829003018186803b158015611a7d57600080fd5b505afa158015611a91573d6000803e3d6000fd5b505050506040513d6040811015611aa757600080fd5b50516005546040805163495d32cb60e01b81529051929350611b92926001600160a01b039092169163495d32cb91600480820192602092909190829003018186803b158015611af557600080fd5b505afa158015611b09573d6000803e3d6000fd5b505050506040513d6020811015611b1f57600080fd5b5051604080516315f789a960e21b815290516001600160a01b038516916357de26a4916004808301926020929190829003018186803b158015611b6157600080fd5b505afa158015611b75573d6000803e3d6000fd5b505050506040513d6020811015611b8b57600080fd5b5051611e51565b6000928352600a60205260409092209190915550565b60075481565b6002546001600160a01b031681565b600b6020526000908152604090205481565b600a6020526000908152604090205481565b6000918252600d602052604090912055565b6000828152600d6020526040902054611c53576040805162461bcd60e51b815260206004820152601760248201527f456e642f6669782d696c6b2d6e6f742d646566696e6564000000000000000000604482015290519081900360640190fd5b6001546000838152600d60205260409020546001600160a01b0390911690636111be2e90849030903390611c88908790611dad565b6040518563ffffffff1660e01b815260040180858152602001846001600160a01b03166001600160a01b03168152602001836001600160a01b03166001600160a01b03168152602001828152602001945050505050600060405180830381600087803b158015611cf757600080fd5b505af1158015611d0b573d6000803e3d6000fd5b5050506000838152600f60209081526040808320338452909152902054611d33915082611e28565b6000838152600f60209081526040808320338452808352818420859055600e83529220549190521015610658576040805162461bcd60e51b815260206004820152601c60248201527f456e642f696e73756666696369656e742d6261672d62616c616e636500000000604482015290519081900360640190fd5b60006b033b2e3c9fd0803ce8000000611dc68484611deb565b81611dcd57fe5b049392505050565b80820382811115611de557600080fd5b92915050565b6000811580611e0657505080820282828281611e0357fe5b04145b611de557600080fd5b600081611dc6846b033b2e3c9fd0803ce8000000611deb565b81810182811015611de557600080fd5b600081831115611e485781611e4a565b825b9392505050565b600081611dc684670de0b6b3a7640000611deb56fea26469706673582212208134279874bed167c6ca54f9dc76cc14e7f25c1f049f2ba2a6b7cc9e95fd5b0a64736f6c634300060a0033",
  "source": "// SPDX-License-Identifier: AGPL-3.0-or-later\n/// end.sol -- global settlement engine\n\n// Copyright (C) 2018 Rain <rainbreak@riseup.net>\n// Copyright (C) 2018 Lev Livnev <lev@liv.nev.org.uk>\n//\n// This program is free software: you can redistribute it and/or modify\n// it under the terms of the GNU Affero General Public License as published by\n// the Free Software Foundation, either version 3 of the License, or\n// (at your option) any later version.\n//\n// This program is distributed in the hope that it will be useful,\n// but WITHOUT ANY WARRANTY; without even the implied warranty of\n// MERCHANTABILITY or FITNESS FOR A PARTICULAR PURPOSE.  See the\n// GNU Affero General Public License for more details.\n//\n// You should have received a copy of the GNU Affero General Public License\n// along with this program.  If not, see <https://www.gnu.org/licenses/>.\n\npragma solidity ^0.6.0;\n\nimport \"./lib.sol\";\n// import \"@nomiclabs/buidler/console.sol\";\n\n\ninterface VatLike {\n    function dai(address) external view returns (uint256);\n    function ilks(bytes32 ilk) external returns (\n        uint256 Art,   // [wad]\n        uint256 rate,  // [ray]\n        uint256 spot,  // [ray]\n        uint256 line,  // [rad]\n        uint256 dust   // [rad]\n    );\n    function urns(bytes32 ilk, address urn) external returns (\n        uint256 ink,   // [wad]\n        uint256 art    // [wad]\n    );\n    function debt() external returns (uint256);\n    function move(address src, address dst, uint256 rad) external;\n    function hope(address) external;\n    function flux(bytes32 ilk, address src, address dst, uint256 rad) external;\n    function grab(bytes32 i, address u, address v, address w, int256 dink, int256 dart) external;\n    function suck(address u, address v, uint256 rad) external;\n    function cage() external;\n}\ninterface CatLike {\n    function ilks(bytes32) external returns (\n        address flip,\n        uint256 chop,  // [ray]\n        uint256 lump   // [rad]\n    );\n    function cage() external;\n}\ninterface PotLike {\n    function cage() external;\n}\ninterface VowLike {\n    function cage() external;\n}\ninterface Flippy {\n    function bids(uint id) external view returns (\n        uint256 bid,   // [rad]\n        uint256 lot,   // [wad]\n        address guy,\n        uint48  tic,   // [unix epoch time]\n        uint48  end,   // [unix epoch time]\n        address usr,\n        address gal,\n        uint256 tab    // [rad]\n    );\n    function yank(uint id) external;\n}\n\ninterface PipLike {\n    function read() external view returns (bytes32);\n}\n\ninterface Spotty {\n    function par() external view returns (uint256);\n    function ilks(bytes32) external view returns (\n        PipLike pip,\n        uint256 mat    // [ray]\n    );\n    function cage() external;\n}\n\n/*\n    This is the `End` and it coordinates Global Settlement. This is an\n    involved, stateful process that takes place over nine steps.\n    First we freeze the system and lock the prices for each ilk.\n    1. `cage()`:\n        - freezes user entrypoints\n        - cancels flop/flap auctions\n        - starts cooldown period\n        - stops pot drips\n    2. `cage(ilk)`:\n       - set the cage price for each `ilk`, reading off the price feed\n    We must process some system state before it is possible to calculate\n    the final dai / collateral price. In particular, we need to determine\n      a. `gap`, the collateral shortfall per collateral type by\n         considering under-collateralised CDPs.\n      b. `debt`, the outstanding dai supply after including system\n         surplus / deficit\n    We determine (a) by processing all under-collateralised CDPs with\n    `skim`:\n    3. `skim(ilk, urn)`:\n       - cancels CDP debt\n       - any excess collateral remains\n       - backing collateral taken\n    We determine (b) by processing ongoing dai generating processes,\n    i.e. auctions. We need to ensure that auctions will not generate any\n    further dai income. In the two-way auction model this occurs when\n    all auctions are in the reverse (`dent`) phase. There are two ways\n    of ensuring this:\n    4.  i) `wait`: set the cooldown period to be at least as long as the\n           longest auction duration, which needs to be determined by the\n           cage administrator.\n           This takes a fairly predictable time to occur but with altered\n           auction dynamics due to the now varying price of dai.\n       ii) `skip`: cancel all ongoing auctions and seize the collateral.\n           This allows for faster processing at the expense of more\n           processing calls. This option allows dai holders to retrieve\n           their collateral faster.\n           `skip(ilk, id)`:\n            - cancel individual flip auctions in the `tend` (forward) phase\n            - retrieves collateral and returns dai to bidder\n            - `dent` (reverse) phase auctions can continue normally\n    Option (i), `wait`, is sufficient for processing the system\n    settlement but option (ii), `skip`, will speed it up. Both options\n    are available in this implementation, with `skip` being enabled on a\n    per-auction basis.\n    When a CDP has been processed and has no debt remaining, the\n    remaining collateral can be removed.\n    5. `free(ilk)`:\n        - remove collateral from the caller's CDP\n        - owner can call as needed\n    After the processing period has elapsed, we enable calculation of\n    the final price for each collateral type.\n    6. `thaw()`:\n       - only callable after processing time period elapsed\n       - assumption that all under-collateralised CDPs are processed\n       - fixes the total outstanding supply of dai\n       - may also require extra CDP processing to cover vow surplus\n    7. `flow(ilk)`:\n        - calculate the `fix`, the cash price for a given ilk\n        - adjusts the `fix` in the case of deficit / surplus\n    At this point we have computed the final price for each collateral\n    type and dai holders can now turn their dai into collateral. Each\n    unit dai can claim a fixed basket of collateral.\n    Dai holders must first `pack` some dai into a `bag`. Once packed,\n    dai cannot be unpacked and is not transferrable. More dai can be\n    added to a bag later.\n    8. `pack(wad)`:\n        - put some dai into a bag in preparation for `cash`\n    Finally, collateral can be obtained with `cash`. The bigger the bag,\n    the more collateral can be released.\n    9. `cash(ilk, wad)`:\n        - exchange some dai from your bag for gems from a specific ilk\n        - the number of gems is limited by how big your bag is\n*/\n\ncontract End is LibNote {\n    // --- Auth ---\n    mapping (address => uint) public wards;\n    function rely(address guy) external note auth { wards[guy] = 1; }\n    function deny(address guy) external note auth { wards[guy] = 0; }\n    modifier auth {\n        require(wards[msg.sender] == 1, \"End/not-authorized\");\n        _;\n    }\n\n    // --- Data ---\n    VatLike  public vat;   // CDP Engine\n    CatLike  public cat;\n    VowLike  public vow;   // Debt Engine\n    PotLike  public pot;\n    Spotty   public spot;\n\n    uint256  public live;  // Active Flag\n    uint256  public when;  // Time of cage                   [unix epoch time]\n    uint256  public wait;  // Processing Cooldown Length             [seconds]\n    uint256  public debt;  // Total outstanding dai following processing [rad]\n\n    mapping (bytes32 => uint256) public tag;  // Cage price              [ray]\n    mapping (bytes32 => uint256) public gap;  // Collateral shortfall    [wad]\n    mapping (bytes32 => uint256) public Art;  // Total debt per ilk      [wad]\n    mapping (bytes32 => uint256) public fix;  // Final cash price        [ray]\n\n    mapping (address => uint256)                      public bag;  //    [wad]\n    mapping (bytes32 => mapping (address => uint256)) public out;  //    [wad]\n\n    // --- Init ---\n    constructor() public {\n        wards[msg.sender] = 1;\n        live = 1;\n    }\n\n    // --- Math ---\n    function add(uint x, uint y) internal pure returns (uint z) {\n        z = x + y;\n        require(z >= x);\n    }\n    function sub(uint x, uint y) internal pure returns (uint z) {\n        require((z = x - y) <= x);\n    }\n    function mul(uint x, uint y) internal pure returns (uint z) {\n        require(y == 0 || (z = x * y) / y == x);\n    }\n    function min(uint x, uint y) internal pure returns (uint z) {\n        return x <= y ? x : y;\n    }\n    uint constant WAD = 10 ** 18;\n    uint constant RAY = 10 ** 27;\n    function rmul(uint x, uint y) internal pure returns (uint z) {\n        z = mul(x, y) / RAY;\n    }\n    function rdiv(uint x, uint y) internal pure returns (uint z) {\n        z = mul(x, RAY) / y;\n    }\n    function wdiv(uint x, uint y) internal pure returns (uint z) {\n        z = mul(x, WAD) / y;\n    }\n\n    // --- Administration ---\n    function file(bytes32 what, address data) external note auth {\n        require(live == 1, \"End/not-live\");\n        if (what == \"vat\")  vat = VatLike(data);\n        else if (what == \"cat\")  cat = CatLike(data);\n        else if (what == \"vow\")  vow = VowLike(data);\n        else if (what == \"pot\")  pot = PotLike(data);\n        else if (what == \"spot\") spot = Spotty(data);\n        else revert(\"End/file-unrecognized-param\");\n    }\n    function file(bytes32 what, uint256 data) external note auth {\n        require(live == 1, \"End/not-live\");\n        if (what == \"wait\") wait = data;\n        else revert(\"End/file-unrecognized-param\");\n    }\n\n    // --- Settlement ---\n    function cage() external note auth {\n        require(live == 1, \"End/not-live\");\n        live = 0;\n        when = now;\n        vat.cage();\n        // cat.cage();\n        // vow.cage();\n        // spot.cage();\n        // pot.cage();\n    }\n\n    function cage(bytes32 ilk) external note {\n        require(live == 0, \"End/still-live\");\n        require(tag[ilk] == 0, \"End/tag-ilk-already-defined\");\n        (Art[ilk],,,,) = vat.ilks(ilk);\n        (PipLike pip,) = spot.ilks(ilk);\n        // par is a ray, pip returns a wad\n        tag[ilk] = wdiv(spot.par(), uint(pip.read())); // Tag is a RAY\n    }\n\n    function skip(bytes32 ilk, uint256 id) external note {\n        require(tag[ilk] != 0, \"End/tag-ilk-not-defined\");\n\n        (address flipV,,) = cat.ilks(ilk);\n        Flippy flip = Flippy(flipV);\n        (, uint rate,,,) = vat.ilks(ilk);\n        (uint bid, uint lot,,,, address usr,, uint tab) = flip.bids(id);\n\n        vat.suck(address(vow), address(vow),  tab);\n        vat.suck(address(vow), address(this), bid);\n        vat.hope(address(flip));\n        flip.yank(id);\n\n        uint art = tab / rate;\n        Art[ilk] = add(Art[ilk], art);\n        require(int(lot) >= 0 && int(art) >= 0, \"End/overflow\");\n        vat.grab(ilk, usr, address(this), address(vow), int(lot), int(art));\n    }\n\n    function setTag(bytes32 ilk, uint tag_) external note {\n        tag[ilk] = tag_;\n    }\n\n    function skim(bytes32 ilk, address urn) external note {\n        require(tag[ilk] != 0, \"End/tag-ilk-not-defined\");\n        (, uint rate,,,) = vat.ilks(ilk);\n        (uint ink, uint art) = vat.urns(ilk, urn);\n\n        uint owe = rmul(rmul(art, rate), tag[ilk]); // debt(wad) * rate(ray) * tag(ray) = ink(wad); tag = 1/spot;\n        uint wad = min(ink, owe);\n        gap[ilk] = add(gap[ilk], sub(owe, wad));\n\n        require(wad <= 2**255 && art <= 2**255, \"End/overflow\");\n        vat.grab(ilk, urn, address(this), address(vow), -int(wad), -int(art));\n    }\n\n    function free(bytes32 ilk) external note {\n        require(live == 0, \"End/still-live\");\n        (uint ink, uint art) = vat.urns(ilk, msg.sender);\n        require(art == 0, \"End/art-not-zero\");\n        require(ink <= 2**255, \"End/overflow\");\n        vat.grab(ilk, msg.sender, msg.sender, address(vow), -int(ink), 0);\n    }\n\n    function thaw() external note {\n        require(live == 0, \"End/still-live\");\n        require(debt == 0, \"End/debt-not-zero\");\n        require(vat.dai(address(vow)) == 0, \"End/surplus-not-zero\");\n        require(now >= add(when, wait), \"End/wait-not-finished\");\n        debt = vat.debt();\n    }\n    function flow(bytes32 ilk) external note {\n        require(debt != 0, \"End/debt-zero\");\n        require(fix[ilk] == 0, \"End/fix-ilk-already-defined\");\n\n        (, uint rate,,,) = vat.ilks(ilk);\n        uint256 wad = rmul(rmul(Art[ilk], rate), tag[ilk]);\n        fix[ilk] = rdiv(mul(sub(wad, gap[ilk]), RAY), debt);\n    }\n\n    function setDebt(uint debt_) external note {\n        debt = debt_;\n    }\n\n    function pack(uint256 wad) external note {\n        require(debt != 0, \"End/debt-zero\");\n        vat.move(msg.sender, address(vow), mul(wad, RAY));\n        bag[msg.sender] = add(bag[msg.sender], wad);\n    }\n\n    function setFix(bytes32 ilk, uint fix_) external note {\n        fix[ilk] = fix_;\n    }\n\n    function cash(bytes32 ilk, uint wad) external note {\n        require(fix[ilk] != 0, \"End/fix-ilk-not-defined\");\n        vat.flux(ilk, address(this), msg.sender, rmul(wad, fix[ilk]));\n        out[ilk][msg.sender] = add(out[ilk][msg.sender], wad);\n        require(out[ilk][msg.sender] <= bag[msg.sender], \"End/insufficient-bag-balance\");\n    }\n}",
  "sourcePath": "/Users/bruce/dev/yieldprotocol/ytoken-mvp/contracts/external/maker/end.sol",
  "compiler": {
    "name": "solc",
    "version": "0.6.10+commit.00c0fcaf.Emscripten.clang"
  },
  "schemaVersion": "3.0.23",
  "updatedAt": "2020-07-20T13:24:06.816Z",
  "networkType": "ethereum",
  "devdoc": {
    "methods": {}
  },
  "userdoc": {
    "methods": {}
  }
}