{
  "contractName": "EthProxy",
  "abi": [
    {
      "inputs": [
        {
          "internalType": "address payable",
          "name": "weth_",
          "type": "address"
        },
        {
          "internalType": "address",
          "name": "treasury_",
          "type": "address"
        },
        {
          "internalType": "address",
          "name": "controller_",
          "type": "address"
        }
      ],
      "stateMutability": "nonpayable",
      "type": "constructor"
    },
    {
      "anonymous": false,
      "inputs": [
        {
          "indexed": true,
          "internalType": "address",
          "name": "user",
          "type": "address"
        },
        {
          "indexed": true,
          "internalType": "address",
          "name": "delegate",
          "type": "address"
        },
        {
          "indexed": false,
          "internalType": "bool",
          "name": "enabled",
          "type": "bool"
        }
      ],
      "name": "Delegate",
      "type": "event"
    },
    {
      "inputs": [],
      "name": "WETH",
      "outputs": [
        {
          "internalType": "bytes32",
          "name": "",
          "type": "bytes32"
        }
      ],
      "stateMutability": "view",
      "type": "function",
      "constant": true
    },
    {
      "inputs": [
        {
          "internalType": "address",
          "name": "delegate",
          "type": "address"
        }
      ],
      "name": "addDelegate",
      "outputs": [],
      "stateMutability": "nonpayable",
      "type": "function"
    },
    {
      "inputs": [
        {
          "internalType": "address",
          "name": "",
          "type": "address"
        },
        {
          "internalType": "address",
          "name": "",
          "type": "address"
        }
      ],
      "name": "delegated",
      "outputs": [
        {
          "internalType": "bool",
          "name": "",
          "type": "bool"
        }
      ],
      "stateMutability": "view",
      "type": "function",
      "constant": true
    },
    {
      "inputs": [
        {
          "internalType": "address",
          "name": "delegate",
          "type": "address"
        }
      ],
      "name": "revokeDelegate",
      "outputs": [],
      "stateMutability": "nonpayable",
      "type": "function"
    },
    {
      "stateMutability": "payable",
      "type": "receive",
      "payable": true
    },
    {
      "inputs": [
        {
          "internalType": "address",
          "name": "from",
          "type": "address"
        },
        {
          "internalType": "address",
          "name": "to",
          "type": "address"
        },
        {
          "internalType": "uint256",
          "name": "amount",
          "type": "uint256"
        }
      ],
      "name": "post",
      "outputs": [],
      "stateMutability": "payable",
      "type": "function",
      "payable": true
    },
    {
      "inputs": [
        {
          "internalType": "address",
          "name": "from",
          "type": "address"
        },
        {
          "internalType": "address payable",
          "name": "to",
          "type": "address"
        },
        {
          "internalType": "uint256",
          "name": "amount",
          "type": "uint256"
        }
      ],
      "name": "withdraw",
      "outputs": [],
      "stateMutability": "nonpayable",
      "type": "function"
    }
  ],
  "bytecode": "0x608060405234801561001057600080fd5b506040516107913803806107918339818101604052606081101561003357600080fd5b508051602080830151604093840151600180546001600160a01b038087166001600160a01b0319928316179283905560038054828616931692909217909155865163095ea7b360e01b815281851660048201526000196024820152965195969395929491169263095ea7b392604480830193928290030181600087803b1580156100bc57600080fd5b505af11580156100d0573d6000803e3d6000fd5b505050506040513d60208110156100e657600080fd5b5050505050610697806100fa6000396000f3fe6080604052600436106100595760003560e01c8063624b996414610065578063ad5c46481461009d578063d9caed12146100c4578063e71bdf4114610107578063f6bcbd311461013a578063fa352c001461018957610060565b3661006057005b600080fd5b61009b6004803603606081101561007b57600080fd5b506001600160a01b038135811691602081013590911690604001356101bc565b005b3480156100a957600080fd5b506100b2610388565b60408051918252519081900360200190f35b3480156100d057600080fd5b5061009b600480360360608110156100e757600080fd5b506001600160a01b03813581169160208101359091169060400135610394565b34801561011357600080fd5b5061009b6004803603602081101561012a57600080fd5b50356001600160a01b0316610558565b34801561014657600080fd5b506101756004803603604081101561015d57600080fd5b506001600160a01b03813581169160200135166105c2565b604080519115158252519081900360200190f35b34801561019557600080fd5b5061009b600480360360208110156101ac57600080fd5b50356001600160a01b03166105df565b8260405180606001604052806021815260200161064160219139336001600160a01b038316148061020e57506001600160a01b03821660009081526020818152604080832033845290915290205460ff165b81906102985760405162461bcd60e51b81526004018080602001828103825283818151815260200191508051906020019080838360005b8381101561025d578181015183820152602001610245565b50505050905090810190601f16801561028a5780820380516001836020036101000a031916815260200191505b509250505060405180910390fd5b50600160009054906101000a90046001600160a01b03166001600160a01b031663d0e30db0846040518263ffffffff1660e01b81526004016000604051808303818588803b1580156102e957600080fd5b505af11580156102fd573d6000803e3d6000fd5b5050600354604080516356dcf2a760e11b8152644554482d4160d81b60048201523060248201526001600160a01b038a81166044830152606482018a9052915191909216945063adb9e54e93506084808301935060009282900301818387803b15801561036957600080fd5b505af115801561037d573d6000803e3d6000fd5b505050505050505050565b644554482d4160d81b81565b8260405180606001604052806021815260200161064160219139336001600160a01b03831614806103e657506001600160a01b03821660009081526020818152604080832033845290915290205460ff165b81906104335760405162461bcd60e51b815260206004820181815283516024840152835190928392604490910191908501908083836000831561025d578181015183820152602001610245565b506003546040805163470660bb60e11b8152644554482d4160d81b60048201526001600160a01b0388811660248301523060448301526064820187905291519190921691638e0cc17691608480830192600092919082900301818387803b15801561049d57600080fd5b505af11580156104b1573d6000803e3d6000fd5b505060015460408051632e1a7d4d60e01b81526004810188905290516001600160a01b039092169350632e1a7d4d925060248082019260009290919082900301818387803b15801561050257600080fd5b505af1158015610516573d6000803e3d6000fd5b50506040516001600160a01b038716925085156108fc02915085906000818181858888f19350505050158015610550573d6000803e3d6000fd5b505050505050565b336000818152602081815260408083206001600160a01b03861680855290835292819020805460ff19166001908117909155815190815290519293927f045b0fef01772d2fbba53dbd38c9777806eac0865b00af43abcfbcaf50da9206929181900390910190a350565b600060208181529281526040808220909352908152205460ff1681565b336000818152602081815260408083206001600160a01b038616808552908352818420805460ff19169055815193845290519093927f045b0fef01772d2fbba53dbd38c9777806eac0865b00af43abcfbcaf50da920692908290030190a35056fe45746850726f78793a204f6e6c7920486f6c646572204f722044656c6567617465a26469706673582212200783162c0a08312c37e2124058f2c76463ac28baaee254ef0b6f6f19bc1504e864736f6c634300060a0033",
  "source": "// SPDX-License-Identifier: GPL-3.0-or-later\npragma solidity ^0.6.10;\n\nimport \"../interfaces/IController.sol\";\nimport \"../interfaces/IWeth.sol\";\nimport \"../helpers/Delegable.sol\";\n\n\n/// @dev EthProxy allows users to post and withdraw Eth to the Controller, which will be converted to and from Weth in the process.\ncontract EthProxy is Delegable() {\n\n    bytes32 public constant WETH = \"ETH-A\";\n\n    IWeth internal _weth;\n    address internal _treasury;\n    IController internal _controller;\n\n    constructor (\n        address payable weth_,\n        address treasury_,\n        address controller_\n    ) public {\n        _weth = IWeth(weth_);\n        _controller = IController(controller_);\n        _weth.approve(address(treasury_), uint(-1));\n    }\n\n    /// @dev The WETH9 contract will send ether to EthProxy on `_weth.withdraw` using this function.\n    receive() external payable { }\n\n    /// @dev Users use `post` in EthProxy to post ETH to the Controller, which will be converted to Weth here.\n    /// Users must have called `controller.addDelegate(ethProxy.address)` to authorize EthProxy to act in their behalf.\n    function post(address from, address to, uint256 amount)\n        public payable onlyHolderOrDelegate(from, \"EthProxy: Only Holder Or Delegate\") {\n        _weth.deposit{ value: amount }();\n        _controller.post(WETH, address(this), to, amount);\n    }\n\n    /// @dev Users wishing to withdraw their Weth as ETH from the Controller should use this function.\n    /// Users must have called `controller.addDelegate(ethProxy.address)` to authorize EthProxy to act in their behalf.\n    function withdraw(address from, address payable to, uint256 amount)\n        public onlyHolderOrDelegate(from, \"EthProxy: Only Holder Or Delegate\") {\n        _controller.withdraw(WETH, from, address(this), amount);\n        _weth.withdraw(amount);\n        to.transfer(amount);\n    }\n}",
  "sourcePath": "/Users/bruce/dev/yieldprotocol/ytoken-mvp/contracts/peripheral/EthProxy.sol",
  "compiler": {
    "name": "solc",
    "version": "0.6.10+commit.00c0fcaf.Emscripten.clang"
  },
  "schemaVersion": "3.0.23",
  "updatedAt": "2020-07-23T06:31:18.521Z",
  "networkType": "ethereum",
  "devdoc": {
    "details": "EthProxy allows users to post and withdraw Eth to the Controller, which will be converted to and from Weth in the process.",
    "methods": {
      "addDelegate(address)": {
        "details": "Enable a delegate to act on the behalf of caller"
      },
      "post(address,address,uint256)": {
        "details": "Users use `post` in EthProxy to post ETH to the Controller, which will be converted to Weth here. Users must have called `controller.addDelegate(ethProxy.address)` to authorize EthProxy to act in their behalf."
      },
      "revokeDelegate(address)": {
        "details": "Stop a delegate from acting on the behalf of caller"
      },
      "withdraw(address,address,uint256)": {
        "details": "Users wishing to withdraw their Weth as ETH from the Controller should use this function. Users must have called `controller.addDelegate(ethProxy.address)` to authorize EthProxy to act in their behalf."
      }
    }
  },
  "userdoc": {
    "methods": {}
  }
}