{
  "contractName": "EthProxy",
  "abi": [
    {
      "inputs": [
        {
          "internalType": "address payable",
          "name": "weth_",
          "type": "address"
        },
        {
          "internalType": "address",
          "name": "treasury_",
          "type": "address"
        },
        {
          "internalType": "address",
          "name": "controller_",
          "type": "address"
        }
      ],
      "stateMutability": "nonpayable",
      "type": "constructor"
    },
    {
      "inputs": [],
      "name": "WETH",
      "outputs": [
        {
          "internalType": "bytes32",
          "name": "",
          "type": "bytes32"
        }
      ],
      "stateMutability": "view",
      "type": "function"
    },
    {
      "stateMutability": "payable",
      "type": "receive"
    },
    {
      "inputs": [
        {
          "internalType": "address",
          "name": "to",
          "type": "address"
        },
        {
          "internalType": "uint256",
          "name": "amount",
          "type": "uint256"
        }
      ],
      "name": "post",
      "outputs": [],
      "stateMutability": "payable",
      "type": "function"
    },
    {
      "inputs": [
        {
          "internalType": "address payable",
          "name": "to",
          "type": "address"
        },
        {
          "internalType": "uint256",
          "name": "amount",
          "type": "uint256"
        }
      ],
      "name": "withdraw",
      "outputs": [],
      "stateMutability": "nonpayable",
      "type": "function"
    },
    {
      "inputs": [
        {
          "internalType": "address payable",
          "name": "to",
          "type": "address"
        },
        {
          "internalType": "uint256",
          "name": "amount",
          "type": "uint256"
        },
        {
          "internalType": "uint256",
          "name": "deadline",
          "type": "uint256"
        },
        {
          "internalType": "uint8",
          "name": "v",
          "type": "uint8"
        },
        {
          "internalType": "bytes32",
          "name": "r",
          "type": "bytes32"
        },
        {
          "internalType": "bytes32",
          "name": "s",
          "type": "bytes32"
        }
      ],
      "name": "withdrawBySignature",
      "outputs": [],
      "stateMutability": "nonpayable",
      "type": "function"
    }
  ],
  "bytecode": "0x608060405234801561001057600080fd5b506040516104f83803806104f88339818101604052606081101561003357600080fd5b508051602080830151604093840151600080546001600160a01b038087166001600160a01b03199283161780845560018054838716941693909317909255875163095ea7b360e01b815281861660048201526000196024820152975196979496939591169363095ea7b39360448083019491928390030190829087803b1580156100bc57600080fd5b505af11580156100d0573d6000803e3d6000fd5b505050506040513d60208110156100e657600080fd5b50505050506103fe806100fa6000396000f3fe6080604052600436106100435760003560e01c8063ad5c46481461004f578063d648d7fd14610076578063e52b4c2a146100a4578063f3fef3a3146100f85761004a565b3661004a57005b600080fd5b34801561005b57600080fd5b50610064610131565b60408051918252519081900360200190f35b6100a26004803603604081101561008c57600080fd5b506001600160a01b03813516906020013561013d565b005b3480156100b057600080fd5b506100a2600480360360c08110156100c757600080fd5b506001600160a01b038135169060208101359060408101359060ff6060820135169060808101359060a0013561021e565b34801561010457600080fd5b506100a26004803603604081101561011b57600080fd5b506001600160a01b0381351690602001356102ac565b644554482d4160d81b81565b6000805460408051630d0e30db60e41b815290516001600160a01b039092169263d0e30db0928592600480820193929182900301818588803b15801561018257600080fd5b505af1158015610196573d6000803e3d6000fd5b5050600154604080516356dcf2a760e11b8152644554482d4160d81b60048201523060248201526001600160a01b03888116604483015260648201889052915191909216945063adb9e54e93506084808301935060009282900301818387803b15801561020257600080fd5b505af1158015610216573d6000803e3d6000fd5b505050505050565b60015460408051631a28ff0560e01b81523360048201523060248201526044810187905260ff861660648201526084810185905260a4810184905290516001600160a01b0390921691631a28ff059160c48082019260009290919082900301818387803b15801561028e57600080fd5b505af11580156102a2573d6000803e3d6000fd5b5050505061021686865b6001546040805163470660bb60e11b8152644554482d4160d81b60048201523360248201523060448201526064810184905290516001600160a01b0390921691638e0cc1769160848082019260009290919082900301818387803b15801561031357600080fd5b505af1158015610327573d6000803e3d6000fd5b50506000805460408051632e1a7d4d60e01b81526004810187905290516001600160a01b039092169450632e1a7d4d9350602480820193929182900301818387803b15801561037557600080fd5b505af1158015610389573d6000803e3d6000fd5b50506040516001600160a01b038516925083156108fc02915083906000818181858888f193505050501580156103c3573d6000803e3d6000fd5b50505056fea2646970667358221220eb10fa2420ebd74ac11648f208116b8713b3382e80dc65f3884e4781ac375cf664736f6c634300060a0033",
  "immutableReferences": {},
  "source": "// SPDX-License-Identifier: GPL-3.0-or-later\r\npragma solidity ^0.6.10;\r\n\r\nimport \"../interfaces/IController.sol\";\r\nimport \"../interfaces/IWeth.sol\";\r\n\r\n\r\n/// @dev EthProxy allows users to post and withdraw Eth to the Controller, which will be converted to and from Weth in the process.\r\ncontract EthProxy {\r\n\r\n    bytes32 public constant WETH = \"ETH-A\";\r\n\r\n    IWeth internal _weth;\r\n    IController internal _controller;\r\n\r\n    constructor (\r\n        address payable weth_,\r\n        address treasury_,\r\n        address controller_\r\n    ) public {\r\n        _weth = IWeth(weth_);\r\n        _controller = IController(controller_);\r\n        _weth.approve(address(treasury_), uint(-1));\r\n    }\r\n\r\n    /// @dev The WETH9 contract will send ether to EthProxy on `_weth.withdraw` using this function.\r\n    receive() external payable { }\r\n\r\n    /// @dev Users use `post` in EthProxy to post ETH to the Controller, which will be converted to Weth here.\r\n    /// @param to Yield Vault to deposit collateral in.\r\n    /// @param amount Amount of collateral to move.\r\n    function post(address to, uint256 amount)\r\n        public payable {\r\n        _weth.deposit{ value: amount }();\r\n        _controller.post(WETH, address(this), to, amount);\r\n    }\r\n\r\n    /// @dev Users wishing to withdraw their Weth as ETH from the Controller should use this function.\r\n    /// Users must have called `controller.addDelegate(ethProxy.address)` to authorize EthProxy to act in their behalf.\r\n    /// @param to Wallet to send Eth to.\r\n    /// @param amount Amount of weth to move.\r\n    function withdraw(address payable to, uint256 amount)\r\n        public {\r\n        _controller.withdraw(WETH, msg.sender, address(this), amount);\r\n        _weth.withdraw(amount);\r\n        to.transfer(amount);\r\n    }\r\n\r\n    /// @dev Users wishing to withdraw their Weth as ETH from the Controller should use this function.\r\n    /// Users must supply an encoded signature for Controller add EthProxy as a delegate.\r\n    /// @param to Wallet to send Eth to.\r\n    /// @param amount Amount of weth to move.\r\n    /// @param deadline Latest block timestamp for which the signature is valid\r\n    /// @param v Signature parameter\r\n    /// @param r Signature parameter\r\n    /// @param s Signature parameter\r\n    function withdrawBySignature(address payable to, uint256 amount, uint deadline, uint8 v, bytes32 r, bytes32 s)\r\n        public {\r\n        _controller.addDelegateBySignature(msg.sender, address(this), deadline, v, r, s);\r\n        withdraw(to, amount);\r\n    }\r\n}",
  "sourcePath": "C:/Users/bruce/dev/yield/yDai/contracts/peripheral/EthProxy.sol",
  "compiler": {
    "name": "solc",
    "version": "0.6.10+commit.00c0fcaf.Emscripten.clang"
  },
  "schemaVersion": "3.2.3",
  "updatedAt": "2020-08-24T15:06:41.325Z",
  "devdoc": {
    "details": "EthProxy allows users to post and withdraw Eth to the Controller, which will be converted to and from Weth in the process.",
    "methods": {
      "post(address,uint256)": {
        "details": "Users use `post` in EthProxy to post ETH to the Controller, which will be converted to Weth here.",
        "params": {
          "amount": "Amount of collateral to move.",
          "to": "Yield Vault to deposit collateral in."
        }
      },
      "withdraw(address,uint256)": {
        "details": "Users wishing to withdraw their Weth as ETH from the Controller should use this function. Users must have called `controller.addDelegate(ethProxy.address)` to authorize EthProxy to act in their behalf.",
        "params": {
          "amount": "Amount of weth to move.",
          "to": "Wallet to send Eth to."
        }
      },
      "withdrawBySignature(address,uint256,uint256,uint8,bytes32,bytes32)": {
        "details": "Users wishing to withdraw their Weth as ETH from the Controller should use this function. Users must supply an encoded signature for Controller add EthProxy as a delegate.",
        "params": {
          "amount": "Amount of weth to move.",
          "deadline": "Latest block timestamp for which the signature is valid",
          "r": "Signature parameter",
          "s": "Signature parameter",
          "to": "Wallet to send Eth to.",
          "v": "Signature parameter"
        }
      }
    }
  },
  "userdoc": {
    "methods": {}
  }
}