{
  "contractName": "ExportCdpProxy",
  "abi": [
    {
      "inputs": [
        {
          "internalType": "contract IController",
          "name": "controller_",
          "type": "address"
        },
        {
          "internalType": "contract IPool[]",
          "name": "pools_",
          "type": "address[]"
        },
        {
          "internalType": "contract ICDPMgr",
          "name": "cdpMgr_",
          "type": "address"
        }
      ],
      "stateMutability": "nonpayable",
      "type": "constructor"
    },
    {
      "inputs": [],
      "name": "UNIT",
      "outputs": [
        {
          "internalType": "uint256",
          "name": "",
          "type": "uint256"
        }
      ],
      "stateMutability": "view",
      "type": "function"
    },
    {
      "inputs": [],
      "name": "WETH",
      "outputs": [
        {
          "internalType": "bytes32",
          "name": "",
          "type": "bytes32"
        }
      ],
      "stateMutability": "view",
      "type": "function"
    },
    {
      "inputs": [],
      "name": "cdpMgr",
      "outputs": [
        {
          "internalType": "contract ICDPMgr",
          "name": "",
          "type": "address"
        }
      ],
      "stateMutability": "view",
      "type": "function"
    },
    {
      "inputs": [],
      "name": "controller",
      "outputs": [
        {
          "internalType": "contract IController",
          "name": "",
          "type": "address"
        }
      ],
      "stateMutability": "view",
      "type": "function"
    },
    {
      "inputs": [],
      "name": "dai",
      "outputs": [
        {
          "internalType": "contract IERC20",
          "name": "",
          "type": "address"
        }
      ],
      "stateMutability": "view",
      "type": "function"
    },
    {
      "inputs": [],
      "name": "daiJoin",
      "outputs": [
        {
          "internalType": "contract IDaiJoin",
          "name": "",
          "type": "address"
        }
      ],
      "stateMutability": "view",
      "type": "function"
    },
    {
      "inputs": [],
      "name": "vat",
      "outputs": [
        {
          "internalType": "contract IVat",
          "name": "",
          "type": "address"
        }
      ],
      "stateMutability": "view",
      "type": "function"
    },
    {
      "inputs": [],
      "name": "weth",
      "outputs": [
        {
          "internalType": "contract IWeth",
          "name": "",
          "type": "address"
        }
      ],
      "stateMutability": "view",
      "type": "function"
    },
    {
      "inputs": [],
      "name": "wethJoin",
      "outputs": [
        {
          "internalType": "contract IGemJoin",
          "name": "",
          "type": "address"
        }
      ],
      "stateMutability": "view",
      "type": "function"
    },
    {
      "inputs": [
        {
          "internalType": "contract IPool",
          "name": "pool",
          "type": "address"
        },
        {
          "internalType": "uint256",
          "name": "cdp",
          "type": "uint256"
        },
        {
          "internalType": "uint256",
          "name": "wethAmount",
          "type": "uint256"
        },
        {
          "internalType": "uint256",
          "name": "fyDaiAmount",
          "type": "uint256"
        },
        {
          "internalType": "uint256",
          "name": "maxFYDaiPrice",
          "type": "uint256"
        }
      ],
      "name": "exportCdpPosition",
      "outputs": [],
      "stateMutability": "nonpayable",
      "type": "function"
    },
    {
      "inputs": [
        {
          "internalType": "uint256",
          "name": "fyDaiAmount",
          "type": "uint256"
        },
        {
          "internalType": "bytes",
          "name": "data",
          "type": "bytes"
        }
      ],
      "name": "executeOnFlashMint",
      "outputs": [],
      "stateMutability": "nonpayable",
      "type": "function"
    },
    {
      "inputs": [
        {
          "internalType": "uint256",
          "name": "cdp",
          "type": "uint256"
        }
      ],
      "name": "exportCdpPositionCheck",
      "outputs": [
        {
          "internalType": "bool",
          "name": "",
          "type": "bool"
        },
        {
          "internalType": "bool",
          "name": "",
          "type": "bool"
        }
      ],
      "stateMutability": "view",
      "type": "function"
    },
    {
      "inputs": [
        {
          "internalType": "contract IPool",
          "name": "pool",
          "type": "address"
        },
        {
          "internalType": "uint256",
          "name": "cdp",
          "type": "uint256"
        },
        {
          "internalType": "uint256",
          "name": "wethAmount",
          "type": "uint256"
        },
        {
          "internalType": "uint256",
          "name": "fyDaiAmount",
          "type": "uint256"
        },
        {
          "internalType": "uint256",
          "name": "maxFYDaiPrice",
          "type": "uint256"
        },
        {
          "internalType": "bytes",
          "name": "controllerSig",
          "type": "bytes"
        }
      ],
      "name": "exportCdpPositionWithSignature",
      "outputs": [],
      "stateMutability": "nonpayable",
      "type": "function"
    }
  ],
  "bytecode": "0x60806040523480156200001157600080fd5b5060405162001e3a38038062001e3a833981810160405260608110156200003757600080fd5b8151602083018051604051929492938301929190846401000000008211156200005f57600080fd5b9083019060208201858111156200007557600080fd5b82518660208202830111640100000000821117156200009357600080fd5b82525081516020918201928201910280838360005b83811015620000c2578181015183820152602001620000a8565b50505050919091016040818152602093840151600580546001600160a01b0319166001600160a01b038b811691909117918290556361d027b360e01b855292519197508996508895600095509216926361d027b3926004808301939192829003018186803b1580156200013457600080fd5b505afa15801562000149573d6000803e3d6000fd5b505050506040513d60208110156200016057600080fd5b505160408051633fc8cef360e01b815290519192506001600160a01b03831691633fc8cef391600480820192602092909190829003018186803b158015620001a757600080fd5b505afa158015620001bc573d6000803e3d6000fd5b505050506040513d6020811015620001d357600080fd5b5051600180546001600160a01b0319166001600160a01b039283161790556040805163f4b9fa7560e01b815290519183169163f4b9fa7591600480820192602092909190829003018186803b1580156200022c57600080fd5b505afa15801562000241573d6000803e3d6000fd5b505050506040513d60208110156200025857600080fd5b5051600280546001600160a01b0319166001600160a01b0392831617905560408051633045916f60e21b815290519183169163c11645bc91600480820192602092909190829003018186803b158015620002b157600080fd5b505afa158015620002c6573d6000803e3d6000fd5b505050506040513d6020811015620002dd57600080fd5b5051600480546001600160a01b0319166001600160a01b0392831617815560408051632dbacef360e01b8152905192841692632dbacef392828101926020929190829003018186803b1580156200033357600080fd5b505afa15801562000348573d6000803e3d6000fd5b505050506040513d60208110156200035f57600080fd5b5051600380546001600160a01b0319166001600160a01b03928316179055604080516336569e7760e01b81529051918316916336569e7791600480820192602092909190829003018186803b158015620003b857600080fd5b505afa158015620003cd573d6000803e3d6000fd5b505050506040513d6020811015620003e457600080fd5b5051600080546001600160a01b0319166001600160a01b039283161781556002546040805163095ea7b360e01b8152858516600482015260001960248201529051919093169263095ea7b39260448083019360209390929083900390910190829087803b1580156200045557600080fd5b505af11580156200046a573d6000803e3d6000fd5b505050506040513d60208110156200048157600080fd5b50600090505b8251811015620005475760025483516001600160a01b039091169063095ea7b390859084908110620004b557fe5b60200260200101516000196040518363ffffffff1660e01b815260040180836001600160a01b03166001600160a01b0316815260200182815260200192505050602060405180830381600087803b1580156200051057600080fd5b505af115801562000525573d6000803e3d6000fd5b505050506040513d60208110156200053c57600080fd5b505060010162000487565b506000805460048054604080516328ec8bf160e21b81526001600160a01b03928316938101939093525192169263a3b22fc49260248084019382900301818387803b1580156200059657600080fd5b505af1158015620005ab573d6000803e3d6000fd5b50506001546003546040805163095ea7b360e01b81526001600160a01b0392831660048201526000196024820152905191909216935063095ea7b3925060448083019260209291908290030181600087803b1580156200060a57600080fd5b505af11580156200061f573d6000803e3d6000fd5b505050506040513d60208110156200063657600080fd5b5050600680546001600160a01b039095166001600160a01b03199095169490941790935550505050506117cb806200066f6000396000f3fe608060405234801561001057600080fd5b50600436106100cf5760003560e01c8063aa5ab16e1161008c578063c11645bc11610066578063c11645bc146102e7578063ee660933146102ef578063f4b9fa75146102f7578063f77c4791146102ff576100cf565b8063aa5ab16e1461022a578063ad5c464814610268578063be0e792714610270576100cf565b806320c4acbf146100d45780632dbacef31461010c5780633575430c1461013057806336569e77146102005780633fc8cef3146102085780639d8e217714610210575b600080fd5b6100f1600480360360208110156100ea57600080fd5b5035610307565b60408051921515835290151560208301528051918290030190f35b61011461049f565b604080516001600160a01b039092168252519081900360200190f35b6101fe600480360360c081101561014657600080fd5b6001600160a01b03823516916020810135916040820135916060810135916080820135919081019060c0810160a082013564010000000081111561018957600080fd5b82018360208201111561019b57600080fd5b803590602001918460018302840111640100000000831117156101bd57600080fd5b91908080601f0160208091040260200160405190810160405280939291908181526020018383808284376000920191909152509295506104ae945050505050565b005b6101146104e6565b6101146104f5565b610218610504565b60408051918252519081900360200190f35b6101fe600480360360a081101561024057600080fd5b506001600160a01b038135169060208101359060408101359060608101359060800135610514565b610218610a5d565b6101fe6004803603604081101561028657600080fd5b813591908101906040810160208201356401000000008111156102a857600080fd5b8201836020820111156102ba57600080fd5b803590602001918460018302840111640100000000831117156102dc57600080fd5b509092509050610a69565b610114610b6f565b610114610b7e565b610114610b8d565b610114610b9c565b6006546040805163040b0d8960e51b8152600481018490529051600092839283926001600160a01b0390921691635aebb460918391638161b12091602480820192602092909190829003018186803b15801561036257600080fd5b505afa158015610376573d6000803e3d6000fd5b505050506040513d602081101561038c57600080fd5b5051604080516001600160e01b031960e085901b1681526001600160a01b03909216600483015260248201889052306044830152516064808301926020929190829003018186803b1580156103e057600080fd5b505afa1580156103f4573d6000803e3d6000fd5b505050506040513d602081101561040a57600080fd5b50516005546040805163f6bcbd3160e01b81523360048201523060248201529051600190931493506000926001600160a01b039092169163f6bcbd3191604480820192602092909190829003018186803b15801561046757600080fd5b505afa15801561047b573d6000803e3d6000fd5b505050506040513d602081101561049157600080fd5b505191935090915050915091565b6003546001600160a01b031681565b8051156104d1576005546104d1906001600160a01b03168263ffffffff610bab16565b6104de8686868686610514565b505050505050565b6000546001600160a01b031681565b6001546001600160a01b031681565b6b033b2e3c9fd0803ce800000081565b6000856001600160a01b031663284f44446040518163ffffffff1660e01b815260040160206040518083038186803b15801561054f57600080fd5b505afa158015610563573d6000803e3d6000fd5b505050506040513d602081101561057957600080fd5b50516006546040805163040b0d8960e51b815260048101899052905192935033926001600160a01b0390921691638161b12091602480820192602092909190829003018186803b1580156105cc57600080fd5b505afa1580156105e0573d6000803e3d6000fd5b505050506040513d60208110156105f657600080fd5b50516001600160a01b0316148061070a57506006546040805163040b0d8960e51b81526004810188905290516001600160a01b0390921691635aebb460918391638161b12091602480820192602092909190829003018186803b15801561065c57600080fd5b505afa158015610670573d6000803e3d6000fd5b505050506040513d602081101561068657600080fd5b5051604080516001600160e01b031960e085901b1681526001600160a01b03909216600483015260248201899052336044830152516064808301926020929190829003018186803b1580156106da57600080fd5b505afa1580156106ee573d6000803e3d6000fd5b505050506040513d602081101561070457600080fd5b50516001145b6107455760405162461bcd60e51b815260040180806020018281038252603a8152602001806116c2603a913960400191505060405180910390fd5b600560009054906101000a90046001600160a01b03166001600160a01b03166393252ed4644554482d4160d81b836001600160a01b031663204f83f96040518163ffffffff1660e01b815260040160206040518083038186803b1580156107ab57600080fd5b505afa1580156107bf573d6000803e3d6000fd5b505050506040513d60208110156107d557600080fd5b5051604080516001600160e01b031960e086901b16815260048101939093526024830191909152336044830152516064808301926020929190829003018186803b15801561082257600080fd5b505afa158015610836573d6000803e3d6000fd5b505050506040513d602081101561084c57600080fd5b505183111561088c5760405162461bcd60e51b815260040180806020018281038252602881526020018061174b6028913960400191505060405180910390fd5b6005546040805163dd62f42360e01b8152644554482d4160d81b600482015233602482015290516001600160a01b039092169163dd62f42391604480820192602092909190829003018186803b1580156108e557600080fd5b505afa1580156108f9573d6000803e3d6000fd5b505050506040513d602081101561090f57600080fd5b505184111561094f5760405162461bcd60e51b815260040180806020018281038252602e81526020018061171d602e913960400191505060405180910390fd5b604080516001600160a01b038881166020808401919091523383850152606083018990526080830188905260a08084018790528451808503909101815260c0840180865263522c806760e01b905260c4840188815260e48501958652815161010486015281519387169563522c8067958a95939492939192610124909101919085019080838360005b838110156109f05781810151838201526020016109d8565b50505050905090810190601f168015610a1d5780820380516001836020036101000a031916815260200191505b509350505050600060405180830381600087803b158015610a3d57600080fd5b505af1158015610a51573d6000803e3d6000fd5b50505050505050505050565b644554482d4160d81b81565b6000806000806000868660a0811015610a8157600080fd5b5060408051630a13d11160e21b815281516001600160a01b038435811699506020808601359091169850928401359650606084013595506080909301359350879263284f444492600480840193919291829003018186803b158015610ae557600080fd5b505afa158015610af9573d6000803e3d6000fd5b505050506040513d6020811015610b0f57600080fd5b50516001600160a01b03163314610b575760405162461bcd60e51b81526004018080602001828103825260238152602001806117736023913960400191505060405180910390fd5b610b65858585858c86610c4d565b5050505050505050565b6004546001600160a01b031681565b6006546001600160a01b031681565b6002546001600160a01b031681565b6005546001600160a01b031681565b6000806000610bb9846112e0565b60408051631a28ff0560e01b8152336004820152306024820152600019604482015260ff831660648201526084810185905260a48101849052905193965091945092506001600160a01b03871691631a28ff059160c48082019260009290919082900301818387803b158015610c2e57600080fd5b505af1158015610c42573d6000803e3d6000fd5b505050505050505050565b6000866001600160a01b03166398ba4aec610c67856112fb565b6040518263ffffffff1660e01b815260040180826001600160801b03166001600160801b0316815260200191505060206040518083038186803b158015610cad57600080fd5b505afa158015610cc1573d6000803e3d6000fd5b505050506040513d6020811015610cd757600080fd5b50516001600160801b03169050610cee8383611357565b811115610d2c5760405162461bcd60e51b815260040180806020018281038252602c815260200180611696602c913960400191505060405180910390fd5b6000876001600160a01b031663284f44446040518163ffffffff1660e01b815260040160206040518083038186803b158015610d6757600080fd5b505afa158015610d7b573d6000803e3d6000fd5b505050506040513d6020811015610d9157600080fd5b50516005546040805163204f83f960e01b815290519293506001600160a01b039182169263b93dd41d92644554482d4160d81b929086169163204f83f991600480820192602092909190829003018186803b158015610def57600080fd5b505afa158015610e03573d6000803e3d6000fd5b505050506040513d6020811015610e1957600080fd5b5051604080516001600160e01b031960e086901b168152600481019390935260248301919091523060448301526001600160a01b038b166064830152608482018890525160a48083019260209291908290030181600087803b158015610e7e57600080fd5b505af1158015610e92573d6000803e3d6000fd5b505050506040513d6020811015610ea857600080fd5b50506005546040805163470660bb60e11b8152644554482d4160d81b60048201526001600160a01b038a811660248301523060448301526064820189905291519190921691638e0cc17691608480830192600092919082900301818387803b158015610f1357600080fd5b505af1158015610f27573d6000803e3d6000fd5b505060065460408051632726b07360e01b8152600481018b90529051600094506001600160a01b039092169250632726b073916024808301926020929190829003018186803b158015610f7957600080fd5b505afa158015610f8d573d6000803e3d6000fd5b505050506040513d6020811015610fa357600080fd5b505160035460408051633b4da69f60e01b81526001600160a01b038085166004830152602482018b90529151939450911691633b4da69f9160448082019260009290919082900301818387803b158015610ffc57600080fd5b505af1158015611010573d6000803e3d6000fd5b50506000805460408051636cb1c69b60e11b8152644554482d4160d81b600482015290519294506001600160a01b03909116925063d9638d369160248083019260a0929190829003018186803b15801561106957600080fd5b505afa15801561107d573d6000803e3d6000fd5b505050506040513d60a081101561109357600080fd5b50602001516006549091506001600160a01b03166345e6bdcd896110b68a61138e565b6110c86110c389876113e6565b61138e565b6040518463ffffffff1660e01b8152600401808481526020018381526020018281526020019350505050600060405180830381600087803b15801561110c57600080fd5b505af1158015611120573d6000803e3d6000fd5b50506006546001600160a01b0316915063f9f30db690508930611155886b033b2e3c9fd0803ce800000063ffffffff61145a16565b6040518463ffffffff1660e01b815260040180848152602001836001600160a01b03166001600160a01b031681526020018281526020019350505050600060405180830381600087803b1580156111ab57600080fd5b505af11580156111bf573d6000803e3d6000fd5b5050600480546040805163ef693bed60e01b8152309381019390935260248301899052516001600160a01b03909116935063ef693bed9250604480830192600092919082900301818387803b15801561121757600080fd5b505af115801561122b573d6000803e3d6000fd5b50505050896001600160a01b0316637543e39c30306112498a6112fb565b604080516001600160e01b031960e087901b1681526001600160a01b0394851660048201529290931660248301526001600160801b03166044820152905160648083019260209291908290030181600087803b1580156112a857600080fd5b505af11580156112bc573d6000803e3d6000fd5b505050506040513d60208110156112d257600080fd5b505050505050505050505050565b60208101516040820151606090920151909260009190911a90565b60006001600160801b03821115611353576040805162461bcd60e51b815260206004820152601760248201527653616665436173743a2043617374206f766572666c6f7760481b604482015290519081900360640190fd5b5090565b60006113856b033b2e3c9fd0803ce8000000611379858563ffffffff61145a16565b9063ffffffff6114b316565b90505b92915050565b60006001600160ff1b03821115611353576040805162461bcd60e51b815260206004820152601760248201527653616665436173743a2043617374206f766572666c6f7760481b604482015290519081900360640190fd5b600080611405846b033b2e3c9fd0803ce800000063ffffffff61145a16565b9050611417818463ffffffff6114f516565b156114425761143d6001611431838663ffffffff6114b316565b9063ffffffff61153716565b611452565b611452818463ffffffff6114b316565b949350505050565b60008261146957506000611388565b8282028284828161147657fe5b04146113855760405162461bcd60e51b81526004018080602001828103825260218152602001806116fc6021913960400191505060405180910390fd5b600061138583836040518060400160405280601a81526020017f536166654d6174683a206469766973696f6e206279207a65726f000000000000815250611591565b600061138583836040518060400160405280601881526020017f536166654d6174683a206d6f64756c6f206279207a65726f0000000000000000815250611633565b600082820183811015611385576040805162461bcd60e51b815260206004820152601b60248201527f536166654d6174683a206164646974696f6e206f766572666c6f770000000000604482015290519081900360640190fd5b6000818361161d5760405162461bcd60e51b81526004018080602001828103825283818151815260200191508051906020019080838360005b838110156115e25781810151838201526020016115ca565b50505050905090810190601f16801561160f5780820380516001836020036101000a031916815260200191505b509250505060405180910390fd5b50600083858161162957fe5b0495945050505050565b600081836116825760405162461bcd60e51b81526020600482018181528351602484015283519092839260449091019190850190808383600083156115e25781810151838201526020016115ca565b5082848161168c57fe5b0694935050505056fe4578706f727443647050726f78793a204d6178696d756d2066794461692070726963652065786365656465644578706f727443647050726f78793a205573657220646f65736e277420686176652072696768747320746f207468652074617267657420636470536166654d6174683a206d756c7469706c69636174696f6e206f766572666c6f774578706f727443647050726f78793a204e6f7420656e6f75676820636f6c6c61746572616c20696e205969656c644578706f727443647050726f78793a204e6f7420656e6f756768206465627420696e205969656c644578706f727443647050726f78793a20526573747269637465642063616c6c6261636ba26469706673582212205d630264ff36cd455afdbc226560630342ddc8f9fb2ec33ef477dfb34aead63264736f6c634300060a0033",
  "immutableReferences": {},
  "source": "// SPDX-License-Identifier: GPL-3.0-or-later\npragma solidity ^0.6.10;\n\nimport \"./interfaces/ICDPMgr.sol\";\nimport \"./interfaces/IFlashMinter.sol\";\nimport \"./helpers/DecimalMath.sol\";\nimport \"./helpers/SafeCast.sol\";\nimport \"./helpers/YieldAuth.sol\";\nimport \"./ExportProxyBase.sol\";\n\n\ncontract ExportCdpProxy is ExportProxyBase, DecimalMath, IFlashMinter {\n    using SafeCast for uint256;\n    using YieldAuth for IController;\n\n    ICDPMgr public cdpMgr;\n\n    constructor(IController controller_, IPool[] memory pools_, ICDPMgr cdpMgr_) ExportProxyBase(controller_, pools_) public {\n        cdpMgr = cdpMgr_;\n    }\n\n    /// @dev Transfer debt and collateral from Yield to MakerDAO\n    /// Needs vat.hope(splitter.address, { from: user });\n    /// Needs controller.addDelegate(splitter.address, { from: user });\n    /// @notice This method won't work if executed via `delegatecall`, for example using dsproxy.\n    /// @param pool The pool to trade in (and therefore fyDai series to migrate)\n    /// @param cdp CDP Vault to export to.\n    /// @param wethAmount weth to move from Yield to MakerDAO. Needs to be high enough to collateralize the dai debt in MakerDAO,\n    /// and low enough to make sure that debt left in Yield is also collateralized.\n    /// @param fyDaiAmount fyDai debt to move from Yield to MakerDAO.\n    /// @param maxFYDaiPrice Maximum Dai price to pay for fyDai.\n    function exportCdpPosition(IPool pool, uint256 cdp, uint256 wethAmount, uint256 fyDaiAmount, uint256 maxFYDaiPrice) public {\n        IFYDai fyDai = pool.fyDai();\n\n        require(\n            cdpMgr.owns(cdp) == msg.sender || cdpMgr.cdpCan(cdpMgr.owns(cdp), cdp, msg.sender) == 1,\n            \"ExportCdpProxy: User doesn't have rights to the target cdp\"\n        );\n        // The user specifies the fyDai he wants to move, and the weth to be passed on as collateral\n        require(\n            fyDaiAmount <= controller.debtFYDai(WETH, fyDai.maturity(), msg.sender),\n            \"ExportCdpProxy: Not enough debt in Yield\"\n        );\n        require(\n            wethAmount <= controller.posted(WETH, msg.sender),\n            \"ExportCdpProxy: Not enough collateral in Yield\"\n        );\n        // Flash mint the fyDai\n        fyDai.flashMint(\n            fyDaiAmount,\n            abi.encode(pool, msg.sender, cdp, wethAmount, maxFYDaiPrice)\n        ); // The daiAmount encoded is ignored\n    }\n\n    /// @dev Callback from `FYDai.flashMint()`\n    /// @param fyDaiAmount fyDai debt to move from Yield to MakerDAO.\n    /// @param data Packed structure with pool, user, cdp, weth collateral to move, and maximum Dai price to pay for fyDai.\n    function executeOnFlashMint(uint256 fyDaiAmount, bytes calldata data) external override {\n        (IPool pool, address user, uint256 cdp, uint256 wethAmount, uint256 maxFYDaiPrice) = \n            abi.decode(data, (IPool, address, uint256, uint256, uint256));\n        require(msg.sender == address(IPool(pool).fyDai()), \"ExportCdpProxy: Restricted callback\");\n\n        _exportCdpPosition(pool, user, cdp, wethAmount, fyDaiAmount, maxFYDaiPrice);\n    }\n\n    /// @dev Internal function to transfer debt and collateral from Yield to MakerDAO\n    /// Needs vat.hope(splitter.address, { from: user });\n    /// Needs controller.addDelegate(splitter.address, { from: user });\n    /// @param pool The pool to trade in (and therefore fyDai series to migrate)\n    /// @param user Vault to migrate.\n    /// @param cdp CDP Vault to export to.\n    /// @param wethAmount weth to move from Yield to MakerDAO. Needs to be high enough to collateralize the dai debt in MakerDAO,\n    /// and low enough to make sure that debt left in Yield is also collateralized.\n    /// @param fyDaiAmount fyDai debt to move from Yield to MakerDAO.\n    /// @param maxFYDaiPrice Maximum Dai price to pay for fyDai.\n    function _exportCdpPosition(IPool pool, address user, uint256 cdp, uint256 wethAmount, uint256 fyDaiAmount, uint256 maxFYDaiPrice) internal {\n        // We are going to need to buy the FYDai back with Dai borrowed from Maker\n        uint256 daiAmount = pool.buyFYDaiPreview(fyDaiAmount.toUint128());\n        require(\n            daiAmount <= muld(fyDaiAmount, maxFYDaiPrice),\n            \"ExportCdpProxy: Maximum fyDai price exceeded\"\n        );\n        \n        IFYDai fyDai = IFYDai(pool.fyDai());\n\n        // Pay the Yield debt - ExportCdpProxy pays FYDai to remove the debt of `user`\n        // Controller should take exactly all fyDai flash minted.\n        controller.repayFYDai(WETH, fyDai.maturity(), address(this), user, fyDaiAmount);\n\n        // Withdraw the collateral from Yield, ExportCdpProxy will hold it\n        controller.withdraw(WETH, user, address(this), wethAmount);\n\n        // Post the collateral to Maker, in the vault referenced by the cdp\n        address urn = cdpMgr.urns(cdp);\n        wethJoin.join(urn, wethAmount);\n\n        // Borrow the Dai from Maker\n        (, uint256 rate,,,) = vat.ilks(WETH); // Retrieve the MakerDAO stability fee for Weth\n        cdpMgr.frob(\n            cdp,\n            wethAmount.toInt256(),                   // Adding Weth collateral\n            divdrup(daiAmount, rate).toInt256()      // Adding Dai debt\n        );\n        cdpMgr.move(cdp, address(this), daiAmount.mul(UNIT)); // Transfer the Dai to ExportCdpProxy within MakerDAO, in RAD\n        daiJoin.exit(address(this), daiAmount);             // ExportCdpProxy will hold the dai temporarily\n\n        // Sell the Dai for FYDai at Pool - It should make up for what was taken with repayYdai\n        pool.buyFYDai(address(this), address(this), fyDaiAmount.toUint128());\n    }\n\n    /// --------------------------------------------------\n    /// Signature method wrappers\n    /// --------------------------------------------------\n\n    /// @dev Determine whether all approvals and signatures are in place for `exportCdpPosition`.\n    /// @param cdp CDP Vault to export to.\n    /// If `return[0]` is `false`, calling `cdpMgr.cdpAllow(cdp, exportCdpProxy.address, 1)` will set the MakerDAO approval.\n    /// If `return[1]` is `false`, `exportCdpPositionWithSignature` must be called with a controller signature.\n    /// If `return` is `(true, true)`, `exportCdpPosition` won't fail because of missing approvals or signatures.\n    function exportCdpPositionCheck(uint256 cdp) public view returns (bool, bool) {\n        bool approvals = cdpMgr.cdpCan(cdpMgr.owns(cdp), cdp, address(this)) == 1;\n        bool controllerSig = controller.delegated(msg.sender, address(this));\n        return (approvals, controllerSig);\n    }\n\n    /// @dev Transfer debt and collateral from Yield to MakerDAO\n    /// Needs vat.hope(exportCdpProxy.address, { from: user });\n    /// @param pool The pool to trade in (and therefore fyDai series to migrate).\n    /// @param cdp CDP Vault to export to.\n    /// @param wethAmount weth to move from Yield to MakerDAO. Needs to be high enough to collateralize the dai debt in MakerDAO,\n    /// and low enough to make sure that debt left in Yield is also collateralized.\n    /// @param fyDaiAmount fyDai debt to move from Yield to MakerDAO.\n    /// @param maxFYDaiPrice Maximum Dai price to pay for fyDai.\n    /// @param controllerSig packed signature for delegation of this proxy in the controller. Ignored if '0x'.\n    function exportCdpPositionWithSignature(IPool pool, uint256 cdp, uint256 wethAmount, uint256 fyDaiAmount, uint256 maxFYDaiPrice, bytes memory controllerSig) public {\n        if (controllerSig.length > 0) controller.addDelegatePacked(controllerSig);\n        return exportCdpPosition(pool, cdp, wethAmount, fyDaiAmount, maxFYDaiPrice);\n    }\n}\n",
  "sourcePath": "/Users/brucedonovan/dev/yield/fyDai-proxies/contracts/ExportCdpProxy.sol",
  "compiler": {
    "name": "solc",
    "version": "0.6.10+commit.00c0fcaf.Emscripten.clang"
  },
  "schemaVersion": "3.2.3",
  "updatedAt": "2020-12-11T09:21:34.733Z",
  "devdoc": {
    "methods": {
      "executeOnFlashMint(uint256,bytes)": {
        "details": "Callback from `FYDai.flashMint()`",
        "params": {
          "data": "Packed structure with pool, user, cdp, weth collateral to move, and maximum Dai price to pay for fyDai.",
          "fyDaiAmount": "fyDai debt to move from Yield to MakerDAO."
        }
      },
      "exportCdpPosition(address,uint256,uint256,uint256,uint256)": {
        "details": "Transfer debt and collateral from Yield to MakerDAO Needs vat.hope(splitter.address, { from: user }); Needs controller.addDelegate(splitter.address, { from: user });",
        "params": {
          "cdp": "CDP Vault to export to.",
          "fyDaiAmount": "fyDai debt to move from Yield to MakerDAO.",
          "maxFYDaiPrice": "Maximum Dai price to pay for fyDai.",
          "pool": "The pool to trade in (and therefore fyDai series to migrate)",
          "wethAmount": "weth to move from Yield to MakerDAO. Needs to be high enough to collateralize the dai debt in MakerDAO, and low enough to make sure that debt left in Yield is also collateralized."
        }
      },
      "exportCdpPositionCheck(uint256)": {
        "details": "Determine whether all approvals and signatures are in place for `exportCdpPosition`.",
        "params": {
          "cdp": "CDP Vault to export to. If `return[0]` is `false`, calling `cdpMgr.cdpAllow(cdp, exportCdpProxy.address, 1)` will set the MakerDAO approval. If `return[1]` is `false`, `exportCdpPositionWithSignature` must be called with a controller signature. If `return` is `(true, true)`, `exportCdpPosition` won't fail because of missing approvals or signatures."
        }
      },
      "exportCdpPositionWithSignature(address,uint256,uint256,uint256,uint256,bytes)": {
        "details": "Transfer debt and collateral from Yield to MakerDAO Needs vat.hope(exportCdpProxy.address, { from: user });",
        "params": {
          "cdp": "CDP Vault to export to.",
          "controllerSig": "packed signature for delegation of this proxy in the controller. Ignored if '0x'.",
          "fyDaiAmount": "fyDai debt to move from Yield to MakerDAO.",
          "maxFYDaiPrice": "Maximum Dai price to pay for fyDai.",
          "pool": "The pool to trade in (and therefore fyDai series to migrate).",
          "wethAmount": "weth to move from Yield to MakerDAO. Needs to be high enough to collateralize the dai debt in MakerDAO, and low enough to make sure that debt left in Yield is also collateralized."
        }
      }
    }
  },
  "userdoc": {
    "methods": {
      "exportCdpPosition(address,uint256,uint256,uint256,uint256)": {
        "notice": "This method won't work if executed via `delegatecall`, for example using dsproxy."
      }
    }
  }
}