{
  "contractName": "ExportProxy",
  "abi": [
    {
      "inputs": [
        {
          "internalType": "contract IController",
          "name": "controller_",
          "type": "address"
        },
        {
          "internalType": "contract IPool[]",
          "name": "pools_",
          "type": "address[]"
        }
      ],
      "stateMutability": "nonpayable",
      "type": "constructor"
    },
    {
      "inputs": [],
      "name": "UNIT",
      "outputs": [
        {
          "internalType": "uint256",
          "name": "",
          "type": "uint256"
        }
      ],
      "stateMutability": "view",
      "type": "function"
    },
    {
      "inputs": [],
      "name": "WETH",
      "outputs": [
        {
          "internalType": "bytes32",
          "name": "",
          "type": "bytes32"
        }
      ],
      "stateMutability": "view",
      "type": "function"
    },
    {
      "inputs": [],
      "name": "controller",
      "outputs": [
        {
          "internalType": "contract IController",
          "name": "",
          "type": "address"
        }
      ],
      "stateMutability": "view",
      "type": "function"
    },
    {
      "inputs": [],
      "name": "dai",
      "outputs": [
        {
          "internalType": "contract IERC20",
          "name": "",
          "type": "address"
        }
      ],
      "stateMutability": "view",
      "type": "function"
    },
    {
      "inputs": [],
      "name": "daiJoin",
      "outputs": [
        {
          "internalType": "contract IDaiJoin",
          "name": "",
          "type": "address"
        }
      ],
      "stateMutability": "view",
      "type": "function"
    },
    {
      "inputs": [],
      "name": "treasury",
      "outputs": [
        {
          "internalType": "address",
          "name": "",
          "type": "address"
        }
      ],
      "stateMutability": "view",
      "type": "function"
    },
    {
      "inputs": [],
      "name": "vat",
      "outputs": [
        {
          "internalType": "contract IVat",
          "name": "",
          "type": "address"
        }
      ],
      "stateMutability": "view",
      "type": "function"
    },
    {
      "inputs": [],
      "name": "weth",
      "outputs": [
        {
          "internalType": "contract IWeth",
          "name": "",
          "type": "address"
        }
      ],
      "stateMutability": "view",
      "type": "function"
    },
    {
      "inputs": [],
      "name": "wethJoin",
      "outputs": [
        {
          "internalType": "contract IGemJoin",
          "name": "",
          "type": "address"
        }
      ],
      "stateMutability": "view",
      "type": "function"
    },
    {
      "inputs": [
        {
          "internalType": "contract IPool",
          "name": "pool",
          "type": "address"
        },
        {
          "internalType": "uint256",
          "name": "wethAmount",
          "type": "uint256"
        },
        {
          "internalType": "uint256",
          "name": "fyDaiAmount",
          "type": "uint256"
        }
      ],
      "name": "exportPosition",
      "outputs": [],
      "stateMutability": "nonpayable",
      "type": "function"
    },
    {
      "inputs": [
        {
          "internalType": "uint256",
          "name": "fyDaiAmount",
          "type": "uint256"
        },
        {
          "internalType": "bytes",
          "name": "data",
          "type": "bytes"
        }
      ],
      "name": "executeOnFlashMint",
      "outputs": [],
      "stateMutability": "nonpayable",
      "type": "function"
    },
    {
      "inputs": [
        {
          "internalType": "uint256",
          "name": "daiAmount",
          "type": "uint256"
        }
      ],
      "name": "wethForDai",
      "outputs": [
        {
          "internalType": "uint256",
          "name": "",
          "type": "uint256"
        }
      ],
      "stateMutability": "view",
      "type": "function"
    },
    {
      "inputs": [
        {
          "internalType": "uint256",
          "name": "fyDaiAmount",
          "type": "uint256"
        }
      ],
      "name": "wethForFYDai",
      "outputs": [
        {
          "internalType": "uint256",
          "name": "",
          "type": "uint256"
        }
      ],
      "stateMutability": "view",
      "type": "function"
    },
    {
      "inputs": [
        {
          "internalType": "contract IPool",
          "name": "pool",
          "type": "address"
        },
        {
          "internalType": "uint256",
          "name": "daiAmount",
          "type": "uint256"
        }
      ],
      "name": "fyDaiForDai",
      "outputs": [
        {
          "internalType": "uint256",
          "name": "",
          "type": "uint256"
        }
      ],
      "stateMutability": "view",
      "type": "function"
    },
    {
      "inputs": [
        {
          "internalType": "contract IPool",
          "name": "pool",
          "type": "address"
        },
        {
          "internalType": "uint256",
          "name": "fyDaiAmount",
          "type": "uint256"
        }
      ],
      "name": "daiForFYDai",
      "outputs": [
        {
          "internalType": "uint256",
          "name": "",
          "type": "uint256"
        }
      ],
      "stateMutability": "view",
      "type": "function"
    },
    {
      "inputs": [],
      "name": "exportPositionCheck",
      "outputs": [
        {
          "internalType": "bool",
          "name": "",
          "type": "bool"
        },
        {
          "internalType": "bool",
          "name": "",
          "type": "bool"
        }
      ],
      "stateMutability": "view",
      "type": "function"
    },
    {
      "inputs": [
        {
          "internalType": "contract IPool",
          "name": "pool",
          "type": "address"
        },
        {
          "internalType": "uint256",
          "name": "wethAmount",
          "type": "uint256"
        },
        {
          "internalType": "uint256",
          "name": "fyDaiAmount",
          "type": "uint256"
        },
        {
          "internalType": "bytes",
          "name": "controllerSig",
          "type": "bytes"
        }
      ],
      "name": "exportPositionWithSignature",
      "outputs": [],
      "stateMutability": "nonpayable",
      "type": "function"
    }
  ],
  "bytecode": "0x60806040523480156200001157600080fd5b5060405162001c5538038062001c55833981810160405260408110156200003757600080fd5b8151602083018051604051929492938301929190846401000000008211156200005f57600080fd5b9083019060208201858111156200007557600080fd5b82518660208202830111640100000000821117156200009357600080fd5b82525081516020918201928201910280838360005b83811015620000c2578181015183820152602001620000a8565b50505050919091016040818152600580546001600160a01b0319166001600160a01b038a811691909117918290556361d027b360e01b8452915160009750911694506361d027b3935060048083019350602092829003018186803b1580156200012a57600080fd5b505afa1580156200013f573d6000803e3d6000fd5b505050506040513d60208110156200015657600080fd5b505160408051633fc8cef360e01b815290519192506001600160a01b03831691633fc8cef391600480820192602092909190829003018186803b1580156200019d57600080fd5b505afa158015620001b2573d6000803e3d6000fd5b505050506040513d6020811015620001c957600080fd5b5051600180546001600160a01b0319166001600160a01b039283161790556040805163f4b9fa7560e01b815290519183169163f4b9fa7591600480820192602092909190829003018186803b1580156200022257600080fd5b505afa15801562000237573d6000803e3d6000fd5b505050506040513d60208110156200024e57600080fd5b5051600280546001600160a01b0319166001600160a01b0392831617905560408051633045916f60e21b815290519183169163c11645bc91600480820192602092909190829003018186803b158015620002a757600080fd5b505afa158015620002bc573d6000803e3d6000fd5b505050506040513d6020811015620002d357600080fd5b5051600480546001600160a01b0319166001600160a01b0392831617815560408051632dbacef360e01b8152905192841692632dbacef392828101926020929190829003018186803b1580156200032957600080fd5b505afa1580156200033e573d6000803e3d6000fd5b505050506040513d60208110156200035557600080fd5b5051600380546001600160a01b0319166001600160a01b03928316179055604080516336569e7760e01b81529051918316916336569e7791600480820192602092909190829003018186803b158015620003ae57600080fd5b505afa158015620003c3573d6000803e3d6000fd5b505050506040513d6020811015620003da57600080fd5b5051600080546001600160a01b03199081166001600160a01b039384161782556006805490911684841617908190556002546040805163095ea7b360e01b8152928516600484015260001960248401525193169263095ea7b392604480840193602093929083900390910190829087803b1580156200045857600080fd5b505af11580156200046d573d6000803e3d6000fd5b505050506040513d60208110156200048457600080fd5b50600090505b82518110156200054a5760025483516001600160a01b039091169063095ea7b390859084908110620004b857fe5b60200260200101516000196040518363ffffffff1660e01b815260040180836001600160a01b03166001600160a01b0316815260200182815260200192505050602060405180830381600087803b1580156200051357600080fd5b505af115801562000528573d6000803e3d6000fd5b505050506040513d60208110156200053f57600080fd5b50506001016200048a565b506000805460048054604080516328ec8bf160e21b81526001600160a01b03928316938101939093525192169263a3b22fc49260248084019382900301818387803b1580156200059957600080fd5b505af1158015620005ae573d6000803e3d6000fd5b50506001546003546040805163095ea7b360e01b81526001600160a01b0392831660048201526000196024820152905191909216935063095ea7b3925060448083019260209291908290030181600087803b1580156200060d57600080fd5b505af115801562000622573d6000803e3d6000fd5b505050506040513d60208110156200063957600080fd5b5050505050611607806200064e6000396000f3fe608060405234801561001057600080fd5b506004361061010b5760003560e01c80639d8e2177116100a2578063be0e792711610071578063be0e79271461023a578063c09b2da9146102b1578063c11645bc14610373578063f4b9fa751461037b578063f77c4791146103835761010b565b80639d8e217714610207578063ad5c46481461020f578063b47148041461018a578063b62ec931146102175761010b565b806361d027b3116100de57806361d027b314610182578063627ea4b11461018a5780637ca7a35e146101a757806388d52dca146101db5761010b565b80631aa1a50c146101105780632dbacef31461014e57806336569e77146101725780633fc8cef31461017a575b600080fd5b61013c6004803603604081101561012657600080fd5b506001600160a01b03813516906020013561038b565b60408051918252519081900360200190f35b610156610429565b604080516001600160a01b039092168252519081900360200190f35b610156610438565b610156610447565b610156610456565b61013c600480360360208110156101a057600080fd5b5035610465565b6101d9600480360360608110156101bd57600080fd5b506001600160a01b0381351690602081013590604001356104fa565b005b61013c600480360360408110156101f157600080fd5b506001600160a01b03813516906020013561085d565b61013c610877565b61013c610887565b61021f610893565b60408051921515835290151560208301528051918290030190f35b6101d96004803603604081101561025057600080fd5b8135919081019060408101602082013564010000000081111561027257600080fd5b82018360208201111561028457600080fd5b803590602001918460018302840111640100000000831117156102a657600080fd5b5090925090506109a7565b6101d9600480360360808110156102c757600080fd5b6001600160a01b0382351691602081013591604082013591908101906080810160608201356401000000008111156102fe57600080fd5b82018360208201111561031057600080fd5b8035906020019184600183028401116401000000008311171561033257600080fd5b91908080601f016020809104026020016040519081016040528093929190818152602001838380828437600092019190915250929550610aab945050505050565b610156610adf565b610156610aee565b610156610afd565b6000826001600160a01b03166398ba4aec6103a584610b0c565b6040518263ffffffff1660e01b815260040180826001600160801b03166001600160801b0316815260200191505060206040518083038186803b1580156103eb57600080fd5b505afa1580156103ff573d6000803e3d6000fd5b505050506040513d602081101561041557600080fd5b50516001600160801b031690505b92915050565b6003546001600160a01b031681565b6000546001600160a01b031681565b6001546001600160a01b031681565b6006546001600160a01b031681565b6000805460408051636cb1c69b60e11b8152644554482d4160d81b6004820152905183926001600160a01b03169163d9638d369160248083019260a0929190829003018186803b1580156104b857600080fd5b505afa1580156104cc573d6000803e3d6000fd5b505050506040513d60a08110156104e257600080fd5b506040015190506104f38382610b68565b9392505050565b6000836001600160a01b031663284f44446040518163ffffffff1660e01b815260040160206040518083038186803b15801561053557600080fd5b505afa158015610549573d6000803e3d6000fd5b505050506040513d602081101561055f57600080fd5b50516005546040805163204f83f960e01b815290519293506001600160a01b03918216926393252ed492644554482d4160d81b929086169163204f83f991600480820192602092909190829003018186803b1580156105bd57600080fd5b505afa1580156105d1573d6000803e3d6000fd5b505050506040513d60208110156105e757600080fd5b5051604080516001600160e01b031960e086901b16815260048101939093526024830191909152336044830152516064808301926020929190829003018186803b15801561063457600080fd5b505afa158015610648573d6000803e3d6000fd5b505050506040513d602081101561065e57600080fd5b505182111561069e5760405162461bcd60e51b81526004018080602001828103825260258152602001806115ad6025913960400191505060405180910390fd5b6005546040805163dd62f42360e01b8152644554482d4160d81b600482015233602482015290516001600160a01b039092169163dd62f42391604480820192602092909190829003018186803b1580156106f757600080fd5b505afa15801561070b573d6000803e3d6000fd5b505050506040513d602081101561072157600080fd5b50518311156107615760405162461bcd60e51b815260040180806020018281038252602b815260200180611561602b913960400191505060405180910390fd5b604080516001600160a01b0386811660208084019190915233838501526060808401889052845180850390910181526080840180865263522c806760e01b90526084840187815260a48501958652815160c486015281519387169563522c806795899593949293919260e4909101919085019080838360005b838110156107f25781810151838201526020016107da565b50505050905090810190601f16801561081f5780820380516001836020036101000a031916815260200191505b509350505050600060405180830381600087803b15801561083f57600080fd5b505af1158015610853573d6000803e3d6000fd5b5050505050505050565b6000826001600160a01b0316634e20e9526103a584610b0c565b6b033b2e3c9fd0803ce800000081565b644554482d4160d81b81565b6000805460408051634538c4eb60e01b81523360048201523060248201529051839283926001600160a01b0390911691634538c4eb91604480820192602092909190829003018186803b1580156108e957600080fd5b505afa1580156108fd573d6000803e3d6000fd5b505050506040513d602081101561091357600080fd5b50516005546040805163f6bcbd3160e01b81523360048201523060248201529051600190931493506000926001600160a01b039092169163f6bcbd3191604480820192602092909190829003018186803b15801561097057600080fd5b505afa158015610984573d6000803e3d6000fd5b505050506040513d602081101561099a57600080fd5b5051919350909150509091565b6000806000848460608110156109bc57600080fd5b5060408051630a13d11160e21b815281516001600160a01b03843581169750602080860135909116965093909201359350859263284f444492600480840193829003018186803b158015610a0f57600080fd5b505afa158015610a23573d6000803e3d6000fd5b505050506040513d6020811015610a3957600080fd5b50516001600160a01b03163314610a97576040805162461bcd60e51b815260206004820181905260248201527f4578706f727450726f78793a20526573747269637465642063616c6c6261636b604482015290519081900360640190fd5b610aa383838389610b96565b505050505050565b805115610ace57600554610ace906001600160a01b03168263ffffffff6111a716565b610ad98484846104fa565b50505050565b6004546001600160a01b031681565b6002546001600160a01b031681565b6005546001600160a01b031681565b60006001600160801b03821115610b64576040805162461bcd60e51b815260206004820152601760248201527653616665436173743a2043617374206f766572666c6f7760481b604482015290519081900360640190fd5b5090565b60006104f382610b8a856b033b2e3c9fd0803ce800000063ffffffff61123e16565b9063ffffffff61129716565b6000846001600160a01b031663284f44446040518163ffffffff1660e01b815260040160206040518083038186803b158015610bd157600080fd5b505afa158015610be5573d6000803e3d6000fd5b505050506040513d6020811015610bfb57600080fd5b50516005546040805163204f83f960e01b815290519293506001600160a01b039182169263b93dd41d92644554482d4160d81b929086169163204f83f991600480820192602092909190829003018186803b158015610c5957600080fd5b505afa158015610c6d573d6000803e3d6000fd5b505050506040513d6020811015610c8357600080fd5b5051604080516001600160e01b031960e086901b168152600481019390935260248301919091523060448301526001600160a01b0388166064830152608482018690525160a48083019260209291908290030181600087803b158015610ce857600080fd5b505af1158015610cfc573d6000803e3d6000fd5b505050506040513d6020811015610d1257600080fd5b50506005546040805163470660bb60e11b8152644554482d4160d81b60048201526001600160a01b0387811660248301523060448301526064820187905291519190921691638e0cc17691608480830192600092919082900301818387803b158015610d7d57600080fd5b505af1158015610d91573d6000803e3d6000fd5b505060035460408051633b4da69f60e01b81526001600160a01b038981166004830152602482018990529151919092169350633b4da69f9250604480830192600092919082900301818387803b158015610dea57600080fd5b505af1158015610dfe573d6000803e3d6000fd5b505050506000856001600160a01b03166398ba4aec610e1c85610b0c565b6040518263ffffffff1660e01b815260040180826001600160801b03166001600160801b0316815260200191505060206040518083038186803b158015610e6257600080fd5b505afa158015610e76573d6000803e3d6000fd5b505050506040513d6020811015610e8c57600080fd5b50516000805460408051636cb1c69b60e11b8152644554482d4160d81b600482015290516001600160801b03909416945091926001600160a01b039091169163d9638d369160248083019260a0929190829003018186803b158015610ef057600080fd5b505afa158015610f04573d6000803e3d6000fd5b505050506040513d60a0811015610f1a57600080fd5b50602001516000549091506001600160a01b03166376088703878080610f3f8a6112d9565b610f51610f4c8989611331565b6112d9565b604080516001600160e01b031960e089901b168152644554482d4160d81b60048201526001600160a01b0396871660248201529486166044860152929094166064840152608483015260a4820192909252905160c480830192600092919082900301818387803b158015610fc457600080fd5b505af1158015610fd8573d6000803e3d6000fd5b50506000546001600160a01b0316915063bb35783b9050873061100d866b033b2e3c9fd0803ce800000063ffffffff61123e16565b6040518463ffffffff1660e01b815260040180846001600160a01b03166001600160a01b03168152602001836001600160a01b03166001600160a01b031681526020018281526020019350505050600060405180830381600087803b15801561107557600080fd5b505af1158015611089573d6000803e3d6000fd5b5050600480546040805163ef693bed60e01b8152309381019390935260248301879052516001600160a01b03909116935063ef693bed9250604480830192600092919082900301818387803b1580156110e157600080fd5b505af11580156110f5573d6000803e3d6000fd5b50505050866001600160a01b0316637543e39c303061111388610b0c565b604080516001600160e01b031960e087901b1681526001600160a01b0394851660048201529290931660248301526001600160801b03166044820152905160648083019260209291908290030181600087803b15801561117257600080fd5b505af1158015611186573d6000803e3d6000fd5b505050506040513d602081101561119c57600080fd5b505050505050505050565b60008060006111b5846113a5565b60408051631a28ff0560e01b8152336004820152306024820152600019604482015260ff831660648201526084810185905260a48101849052905193965091945092506001600160a01b03871691631a28ff059160c48082019260009290919082900301818387803b15801561122a57600080fd5b505af115801561119c573d6000803e3d6000fd5b60008261124d57506000610423565b8282028284828161125a57fe5b04146104f35760405162461bcd60e51b815260040180806020018281038252602181526020018061158c6021913960400191505060405180910390fd5b60006104f383836040518060400160405280601a81526020017f536166654d6174683a206469766973696f6e206279207a65726f0000000000008152506113c0565b60006001600160ff1b03821115610b64576040805162461bcd60e51b815260206004820152601760248201527653616665436173743a2043617374206f766572666c6f7760481b604482015290519081900360640190fd5b600080611350846b033b2e3c9fd0803ce800000063ffffffff61123e16565b9050611362818463ffffffff61146216565b1561138d57611388600161137c838663ffffffff61129716565b9063ffffffff6114a416565b61139d565b61139d818463ffffffff61129716565b949350505050565b60208101516040820151606090920151909260009190911a90565b6000818361144c5760405162461bcd60e51b81526004018080602001828103825283818151815260200191508051906020019080838360005b838110156114115781810151838201526020016113f9565b50505050905090810190601f16801561143e5780820380516001836020036101000a031916815260200191505b509250505060405180910390fd5b50600083858161145857fe5b0495945050505050565b60006104f383836040518060400160405280601881526020017f536166654d6174683a206d6f64756c6f206279207a65726f00000000000000008152506114fe565b6000828201838110156104f3576040805162461bcd60e51b815260206004820152601b60248201527f536166654d6174683a206164646974696f6e206f766572666c6f770000000000604482015290519081900360640190fd5b6000818361154d5760405162461bcd60e51b81526020600482018181528351602484015283519092839260449091019190850190808383600083156114115781810151838201526020016113f9565b5082848161155757fe5b0694935050505056fe4578706f727450726f78793a204e6f7420656e6f75676820636f6c6c61746572616c20696e205969656c64536166654d6174683a206d756c7469706c69636174696f6e206f766572666c6f774578706f727450726f78793a204e6f7420656e6f756768206465627420696e205969656c64a26469706673582212202723003d22bf12ed5f15e91ddda92389f0622a7ca92af161f9f385274843529f64736f6c634300060a0033",
  "immutableReferences": {},
  "source": "// SPDX-License-Identifier: GPL-3.0-or-later\npragma solidity ^0.6.10;\n\nimport \"@openzeppelin/contracts/token/ERC20/IERC20.sol\";\nimport \"../interfaces/IController.sol\";\nimport \"../interfaces/IWeth.sol\";\nimport \"../interfaces/IGemJoin.sol\";\nimport \"../interfaces/IDaiJoin.sol\";\nimport \"../interfaces/IVat.sol\";\nimport \"../interfaces/IPool.sol\";\nimport \"../interfaces/IFYDai.sol\";\nimport \"../interfaces/IFlashMinter.sol\";\nimport \"../helpers/DecimalMath.sol\";\nimport \"../helpers/SafeCast.sol\";\nimport \"../helpers/YieldAuth.sol\";\n\n\ncontract ExportProxy is DecimalMath, IFlashMinter {\n    using SafeCast for uint256;\n    using YieldAuth for IController;\n\n    IVat public vat;\n    IWeth public weth;\n    IERC20 public dai;\n    IGemJoin public wethJoin;\n    IDaiJoin public daiJoin;\n    IController public controller;\n    address public treasury;\n\n    bytes32 public constant WETH = \"ETH-A\";\n\n    constructor(IController controller_, IPool[] memory pools_) public {\n        controller = controller_;\n        ITreasury _treasury = controller.treasury();\n\n        weth = _treasury.weth();\n        dai = _treasury.dai();\n        daiJoin = _treasury.daiJoin();\n        wethJoin = _treasury.wethJoin();\n        vat = _treasury.vat();\n\n\n        treasury = address(_treasury);\n\n        // Allow the Treasury to take dai for repaying\n        dai.approve(treasury, type(uint256).max);\n\n        // Allow the pools to take dai for trading\n        for (uint i = 0 ; i < pools_.length; i++) {\n            dai.approve(address(pools_[i]), type(uint256).max);\n        }\n\n        // Allow daiJoin to move dai out of vat for this proxy\n        vat.hope(address(daiJoin));\n\n        // Allow wethJoin to take weth for collateralization\n        weth.approve(address(wethJoin), type(uint256).max);\n    }\n\n    /// @dev Transfer debt and collateral from Yield to MakerDAO\n    /// Needs vat.hope(splitter.address, { from: user });\n    /// Needs controller.addDelegate(splitter.address, { from: user });\n    /// @notice This method won't work if executed via `delegatecall`, for example using dsproxy.\n    /// @param pool The pool to trade in (and therefore fyDai series to migrate)\n    /// @param wethAmount weth to move from Yield to MakerDAO. Needs to be high enough to collateralize the dai debt in MakerDAO,\n    /// and low enough to make sure that debt left in Yield is also collateralized.\n    /// @param fyDaiAmount fyDai debt to move from Yield to MakerDAO.\n    function exportPosition(IPool pool, uint256 wethAmount, uint256 fyDaiAmount) public {\n        IFYDai fyDai = pool.fyDai();\n\n        // The user specifies the fyDai he wants to move, and the weth to be passed on as collateral\n        require(\n            fyDaiAmount <= controller.debtFYDai(WETH, fyDai.maturity(), msg.sender),\n            \"ExportProxy: Not enough debt in Yield\"\n        );\n        require(\n            wethAmount <= controller.posted(WETH, msg.sender),\n            \"ExportProxy: Not enough collateral in Yield\"\n        );\n        // Flash mint the fyDai\n        fyDai.flashMint(\n            fyDaiAmount,\n            abi.encode(pool, msg.sender, wethAmount)\n        ); // The daiAmount encoded is ignored\n    }\n\n    /// @dev Callback from `FYDai.flashMint()`\n    function executeOnFlashMint(uint256 fyDaiAmount, bytes calldata data) external override {\n        (IPool pool, address user, uint256 wethAmount) = \n            abi.decode(data, (IPool, address, uint256));\n        require(msg.sender == address(IPool(pool).fyDai()), \"ExportProxy: Restricted callback\");\n\n        _exportPosition(pool, user, wethAmount, fyDaiAmount);\n    }\n\n    /// @dev Minimum weth needed to collateralize an amount of dai in MakerDAO\n    function wethForDai(uint256 daiAmount) public view returns (uint256) {\n        (,, uint256 spot,,) = vat.ilks(WETH);\n        return divd(daiAmount, spot);\n    }\n\n    /// @dev Minimum weth needed to collateralize an amount of fyDai in Yield. Yes, it's the same formula.\n    function wethForFYDai(uint256 fyDaiAmount) public view returns (uint256) {\n        (,, uint256 spot,,) = vat.ilks(WETH);\n        return divd(fyDaiAmount, spot);\n    }\n\n    /// @dev Amount of fyDai debt that will result from migrating Dai debt from MakerDAO to Yield\n    function fyDaiForDai(IPool pool, uint256 daiAmount) public view returns (uint256) {\n        return pool.buyDaiPreview(daiAmount.toUint128());\n    }\n\n    /// @dev Amount of dai debt that will result from migrating fyDai debt from Yield to MakerDAO\n    function daiForFYDai(IPool pool, uint256 fyDaiAmount) public view returns (uint256) {\n        return pool.buyFYDaiPreview(fyDaiAmount.toUint128());\n    }\n\n    /// @dev Internal function to transfer debt and collateral from Yield to MakerDAO\n    /// Needs vat.hope(splitter.address, { from: user });\n    /// Needs controller.addDelegate(splitter.address, { from: user });\n    /// @param pool The pool to trade in (and therefore fyDai series to migrate)\n    /// @param user Vault to migrate.\n    /// @param wethAmount weth to move from Yield to MakerDAO. Needs to be high enough to collateralize the dai debt in MakerDAO,\n    /// and low enough to make sure that debt left in Yield is also collateralized.\n    /// @param fyDaiAmount fyDai debt to move from Yield to MakerDAO.\n    function _exportPosition(IPool pool, address user, uint256 wethAmount, uint256 fyDaiAmount) internal {\n        IFYDai fyDai = IFYDai(pool.fyDai());\n\n        // Pay the Yield debt - ExportProxy pays FYDai to remove the debt of `user`\n        // Controller should take exactly all fyDai flash minted.\n        controller.repayFYDai(WETH, fyDai.maturity(), address(this), user, fyDaiAmount);\n\n        // Withdraw the collateral from Yield, ExportProxy will hold it\n        controller.withdraw(WETH, user, address(this), wethAmount);\n\n        // Post the collateral to Maker, in the `user` vault\n        wethJoin.join(user, wethAmount);\n\n        // We are going to need to buy the FYDai back with Dai borrowed from Maker\n        uint256 daiAmount = pool.buyFYDaiPreview(fyDaiAmount.toUint128());\n\n        // Borrow the Dai from Maker\n        (, uint256 rate,,,) = vat.ilks(WETH); // Retrieve the MakerDAO stability fee for Weth\n        vat.frob(\n            \"ETH-A\",\n            user,\n            user,\n            user,\n            wethAmount.toInt256(),                   // Adding Weth collateral\n            divdrup(daiAmount, rate).toInt256()      // Adding Dai debt\n        );\n        vat.move(user, address(this), daiAmount.mul(UNIT)); // Transfer the Dai to ExportProxy within MakerDAO, in RAD\n        daiJoin.exit(address(this), daiAmount);             // ExportProxy will hold the dai temporarily\n\n        // Sell the Dai for FYDai at Pool - It should make up for what was taken with repayYdai\n        pool.buyFYDai(address(this), address(this), fyDaiAmount.toUint128());\n    }\n\n    /// --------------------------------------------------\n    /// Signature method wrappers\n    /// --------------------------------------------------\n\n    /// @dev Determine whether all approvals and signatures are in place for `exportPosition`.\n    /// If `return[0]` is `false`, calling `vat.hope(exportProxy.address)` will set the MakerDAO approval.\n    /// If `return[1]` is `false`, `exportPositionWithSignature` must be called with a controller signature.\n    /// If `return` is `(true, true)`, `exportPosition` won't fail because of missing approvals or signatures.\n    function exportPositionCheck() public view returns (bool, bool) {\n        bool approvals = vat.can(msg.sender, address(this)) == 1;\n        bool controllerSig = controller.delegated(msg.sender, address(this));\n        return (approvals, controllerSig);\n    }\n\n    /// @dev Transfer debt and collateral from Yield to MakerDAO\n    /// Needs vat.hope(exportProxy.address, { from: user });\n    /// @param pool The pool to trade in (and therefore fyDai series to migrate)\n    /// @param wethAmount weth to move from Yield to MakerDAO. Needs to be high enough to collateralize the dai debt in MakerDAO,\n    /// and low enough to make sure that debt left in Yield is also collateralized.\n    /// @param fyDaiAmount fyDai debt to move from Yield to MakerDAO.\n    /// @param controllerSig packed signature for delegation of this proxy in the controller. Ignored if '0x'.\n    function exportPositionWithSignature(IPool pool, uint256 wethAmount, uint256 fyDaiAmount, bytes memory controllerSig) public {\n        if (controllerSig.length > 0) controller.addDelegatePacked(controllerSig);\n        return exportPosition(pool, wethAmount, fyDaiAmount);\n    }\n}\n",
  "sourcePath": "/Users/brucedonovan/dev/yield/yDai/contracts/peripheral/ExportProxy.sol",
  "compiler": {
    "name": "solc",
    "version": "0.6.10+commit.00c0fcaf.Emscripten.clang"
  },
  "schemaVersion": "3.2.3",
  "updatedAt": "2020-11-20T12:19:16.885Z",
  "devdoc": {
    "methods": {
      "daiForFYDai(address,uint256)": {
        "details": "Amount of dai debt that will result from migrating fyDai debt from Yield to MakerDAO"
      },
      "executeOnFlashMint(uint256,bytes)": {
        "details": "Callback from `FYDai.flashMint()`"
      },
      "exportPosition(address,uint256,uint256)": {
        "details": "Transfer debt and collateral from Yield to MakerDAO Needs vat.hope(splitter.address, { from: user }); Needs controller.addDelegate(splitter.address, { from: user });",
        "params": {
          "fyDaiAmount": "fyDai debt to move from Yield to MakerDAO.",
          "pool": "The pool to trade in (and therefore fyDai series to migrate)",
          "wethAmount": "weth to move from Yield to MakerDAO. Needs to be high enough to collateralize the dai debt in MakerDAO, and low enough to make sure that debt left in Yield is also collateralized."
        }
      },
      "exportPositionCheck()": {
        "details": "Determine whether all approvals and signatures are in place for `exportPosition`. If `return[0]` is `false`, calling `vat.hope(exportProxy.address)` will set the MakerDAO approval. If `return[1]` is `false`, `exportPositionWithSignature` must be called with a controller signature. If `return` is `(true, true)`, `exportPosition` won't fail because of missing approvals or signatures."
      },
      "exportPositionWithSignature(address,uint256,uint256,bytes)": {
        "details": "Transfer debt and collateral from Yield to MakerDAO Needs vat.hope(exportProxy.address, { from: user });",
        "params": {
          "controllerSig": "packed signature for delegation of this proxy in the controller. Ignored if '0x'.",
          "fyDaiAmount": "fyDai debt to move from Yield to MakerDAO.",
          "pool": "The pool to trade in (and therefore fyDai series to migrate)",
          "wethAmount": "weth to move from Yield to MakerDAO. Needs to be high enough to collateralize the dai debt in MakerDAO, and low enough to make sure that debt left in Yield is also collateralized."
        }
      },
      "fyDaiForDai(address,uint256)": {
        "details": "Amount of fyDai debt that will result from migrating Dai debt from MakerDAO to Yield"
      },
      "wethForDai(uint256)": {
        "details": "Minimum weth needed to collateralize an amount of dai in MakerDAO"
      },
      "wethForFYDai(uint256)": {
        "details": "Minimum weth needed to collateralize an amount of fyDai in Yield. Yes, it's the same formula."
      }
    }
  },
  "userdoc": {
    "methods": {
      "exportPosition(address,uint256,uint256)": {
        "notice": "This method won't work if executed via `delegatecall`, for example using dsproxy."
      }
    }
  }
}