{
  "contractName": "ExportProxy",
  "abi": [
    {
      "inputs": [
        {
          "internalType": "contract IController",
          "name": "controller_",
          "type": "address"
        },
        {
          "internalType": "contract IPool[]",
          "name": "pools_",
          "type": "address[]"
        }
      ],
      "stateMutability": "nonpayable",
      "type": "constructor"
    },
    {
      "inputs": [],
      "name": "UNIT",
      "outputs": [
        {
          "internalType": "uint256",
          "name": "",
          "type": "uint256"
        }
      ],
      "stateMutability": "view",
      "type": "function"
    },
    {
      "inputs": [],
      "name": "WETH",
      "outputs": [
        {
          "internalType": "bytes32",
          "name": "",
          "type": "bytes32"
        }
      ],
      "stateMutability": "view",
      "type": "function"
    },
    {
      "inputs": [],
      "name": "controller",
      "outputs": [
        {
          "internalType": "contract IController",
          "name": "",
          "type": "address"
        }
      ],
      "stateMutability": "view",
      "type": "function"
    },
    {
      "inputs": [],
      "name": "dai",
      "outputs": [
        {
          "internalType": "contract IERC20",
          "name": "",
          "type": "address"
        }
      ],
      "stateMutability": "view",
      "type": "function"
    },
    {
      "inputs": [],
      "name": "daiJoin",
      "outputs": [
        {
          "internalType": "contract IDaiJoin",
          "name": "",
          "type": "address"
        }
      ],
      "stateMutability": "view",
      "type": "function"
    },
    {
      "inputs": [],
      "name": "vat",
      "outputs": [
        {
          "internalType": "contract IVat",
          "name": "",
          "type": "address"
        }
      ],
      "stateMutability": "view",
      "type": "function"
    },
    {
      "inputs": [],
      "name": "weth",
      "outputs": [
        {
          "internalType": "contract IWeth",
          "name": "",
          "type": "address"
        }
      ],
      "stateMutability": "view",
      "type": "function"
    },
    {
      "inputs": [],
      "name": "wethJoin",
      "outputs": [
        {
          "internalType": "contract IGemJoin",
          "name": "",
          "type": "address"
        }
      ],
      "stateMutability": "view",
      "type": "function"
    },
    {
      "inputs": [
        {
          "internalType": "contract IPool",
          "name": "pool",
          "type": "address"
        },
        {
          "internalType": "uint256",
          "name": "wethAmount",
          "type": "uint256"
        },
        {
          "internalType": "uint256",
          "name": "fyDaiAmount",
          "type": "uint256"
        },
        {
          "internalType": "uint256",
          "name": "maxFYDaiPrice",
          "type": "uint256"
        }
      ],
      "name": "exportPosition",
      "outputs": [],
      "stateMutability": "nonpayable",
      "type": "function"
    },
    {
      "inputs": [
        {
          "internalType": "uint256",
          "name": "fyDaiAmount",
          "type": "uint256"
        },
        {
          "internalType": "bytes",
          "name": "data",
          "type": "bytes"
        }
      ],
      "name": "executeOnFlashMint",
      "outputs": [],
      "stateMutability": "nonpayable",
      "type": "function"
    },
    {
      "inputs": [],
      "name": "exportPositionCheck",
      "outputs": [
        {
          "internalType": "bool",
          "name": "",
          "type": "bool"
        },
        {
          "internalType": "bool",
          "name": "",
          "type": "bool"
        }
      ],
      "stateMutability": "view",
      "type": "function"
    },
    {
      "inputs": [
        {
          "internalType": "contract IPool",
          "name": "pool",
          "type": "address"
        },
        {
          "internalType": "uint256",
          "name": "wethAmount",
          "type": "uint256"
        },
        {
          "internalType": "uint256",
          "name": "fyDaiAmount",
          "type": "uint256"
        },
        {
          "internalType": "uint256",
          "name": "maxFYDaiPrice",
          "type": "uint256"
        },
        {
          "internalType": "bytes",
          "name": "controllerSig",
          "type": "bytes"
        }
      ],
      "name": "exportPositionWithSignature",
      "outputs": [],
      "stateMutability": "nonpayable",
      "type": "function"
    }
  ],
  "bytecode": "0x60806040523480156200001157600080fd5b5060405162001aa938038062001aa9833981810160405260408110156200003757600080fd5b8151602083018051604051929492938301929190846401000000008211156200005f57600080fd5b9083019060208201858111156200007557600080fd5b82518660208202830111640100000000821117156200009357600080fd5b82525081516020918201928201910280838360005b83811015620000c2578181015183820152602001620000a8565b50505050919091016040818152600580546001600160a01b0319166001600160a01b038a811691909117918290556361d027b360e01b8452915189975088965060009550911692506361d027b391600480820192602092909190829003018186803b1580156200013157600080fd5b505afa15801562000146573d6000803e3d6000fd5b505050506040513d60208110156200015d57600080fd5b505160408051633fc8cef360e01b815290519192506001600160a01b03831691633fc8cef391600480820192602092909190829003018186803b158015620001a457600080fd5b505afa158015620001b9573d6000803e3d6000fd5b505050506040513d6020811015620001d057600080fd5b5051600180546001600160a01b0319166001600160a01b039283161790556040805163f4b9fa7560e01b815290519183169163f4b9fa7591600480820192602092909190829003018186803b1580156200022957600080fd5b505afa1580156200023e573d6000803e3d6000fd5b505050506040513d60208110156200025557600080fd5b5051600280546001600160a01b0319166001600160a01b0392831617905560408051633045916f60e21b815290519183169163c11645bc91600480820192602092909190829003018186803b158015620002ae57600080fd5b505afa158015620002c3573d6000803e3d6000fd5b505050506040513d6020811015620002da57600080fd5b5051600480546001600160a01b0319166001600160a01b0392831617815560408051632dbacef360e01b8152905192841692632dbacef392828101926020929190829003018186803b1580156200033057600080fd5b505afa15801562000345573d6000803e3d6000fd5b505050506040513d60208110156200035c57600080fd5b5051600380546001600160a01b0319166001600160a01b03928316179055604080516336569e7760e01b81529051918316916336569e7791600480820192602092909190829003018186803b158015620003b557600080fd5b505afa158015620003ca573d6000803e3d6000fd5b505050506040513d6020811015620003e157600080fd5b5051600080546001600160a01b0319166001600160a01b039283161781556002546040805163095ea7b360e01b8152858516600482015260001960248201529051919093169263095ea7b39260448083019360209390929083900390910190829087803b1580156200045257600080fd5b505af115801562000467573d6000803e3d6000fd5b505050506040513d60208110156200047e57600080fd5b50600090505b8251811015620005445760025483516001600160a01b039091169063095ea7b390859084908110620004b257fe5b60200260200101516000196040518363ffffffff1660e01b815260040180836001600160a01b03166001600160a01b0316815260200182815260200192505050602060405180830381600087803b1580156200050d57600080fd5b505af115801562000522573d6000803e3d6000fd5b505050506040513d60208110156200053957600080fd5b505060010162000484565b506000805460048054604080516328ec8bf160e21b81526001600160a01b03928316938101939093525192169263a3b22fc49260248084019382900301818387803b1580156200059357600080fd5b505af1158015620005a8573d6000803e3d6000fd5b50506001546003546040805163095ea7b360e01b81526001600160a01b0392831660048201526000196024820152905191909216935063095ea7b3925060448083019260209291908290030181600087803b1580156200060757600080fd5b505af11580156200061c573d6000803e3d6000fd5b505050506040513d60208110156200063357600080fd5b5050505050505061145f806200064a6000396000f3fe608060405234801561001057600080fd5b50600436106100b45760003560e01c8063b62ec93111610071578063b62ec931146101d8578063be0e7927146101fb578063c11645bc14610272578063c8e2e6511461027a578063f4b9fa75146102b2578063f77c4791146102ba576100b4565b80632dbacef3146100b957806336569e77146100dd5780633fc8cef3146100e55780639d8e2177146100ed578063ad5c464814610107578063aefa4b2b1461010f575b600080fd5b6100c16102c2565b604080516001600160a01b039092168252519081900360200190f35b6100c16102d1565b6100c16102e0565b6100f56102ef565b60408051918252519081900360200190f35b6100f56102ff565b6101d6600480360360a081101561012557600080fd5b6001600160a01b038235169160208101359160408201359160608101359181019060a08101608082013564010000000081111561016157600080fd5b82018360208201111561017357600080fd5b8035906020019184600183028401116401000000008311171561019557600080fd5b91908080601f01602080910402602001604051908101604052809392919081815260200183838082843760009201919091525092955061030b945050505050565b005b6101e0610341565b60408051921515835290151560208301528051918290030190f35b6101d66004803603604081101561021157600080fd5b8135919081019060408101602082013564010000000081111561023357600080fd5b82018360208201111561024557600080fd5b8035906020019184600183028401116401000000008311171561026757600080fd5b509092509050610455565b6100c1610566565b6101d66004803603608081101561029057600080fd5b506001600160a01b038135169060208101359060408101359060600135610575565b6100c16108e1565b6100c16108f0565b6003546001600160a01b031681565b6000546001600160a01b031681565b6001546001600160a01b031681565b6b033b2e3c9fd0803ce800000081565b644554482d4160d81b81565b80511561032e5760055461032e906001600160a01b03168263ffffffff6108ff16565b61033a85858585610575565b5050505050565b6000805460408051634538c4eb60e01b81523360048201523060248201529051839283926001600160a01b0390911691634538c4eb91604480820192602092909190829003018186803b15801561039757600080fd5b505afa1580156103ab573d6000803e3d6000fd5b505050506040513d60208110156103c157600080fd5b50516005546040805163f6bcbd3160e01b81523360048201523060248201529051600190931493506000926001600160a01b039092169163f6bcbd3191604480820192602092909190829003018186803b15801561041e57600080fd5b505afa158015610432573d6000803e3d6000fd5b505050506040513d602081101561044857600080fd5b5051919350909150509091565b6000806000808585608081101561046b57600080fd5b5060408051630a13d11160e21b815281516001600160a01b0384358116985060208086013590911697509284013595506060909301359350869263284f444492600480840193919291829003018186803b1580156104c857600080fd5b505afa1580156104dc573d6000803e3d6000fd5b505050506040513d60208110156104f257600080fd5b50516001600160a01b03163314610550576040805162461bcd60e51b815260206004820181905260248201527f4578706f727450726f78793a20526573747269637465642063616c6c6261636b604482015290519081900360640190fd5b61055d8484848a85610982565b50505050505050565b6004546001600160a01b031681565b6000846001600160a01b031663284f44446040518163ffffffff1660e01b815260040160206040518083038186803b1580156105b057600080fd5b505afa1580156105c4573d6000803e3d6000fd5b505050506040513d60208110156105da57600080fd5b50516005546040805163204f83f960e01b815290519293506001600160a01b03918216926393252ed492644554482d4160d81b929086169163204f83f991600480820192602092909190829003018186803b15801561063857600080fd5b505afa15801561064c573d6000803e3d6000fd5b505050506040513d602081101561066257600080fd5b5051604080516001600160e01b031960e086901b16815260048101939093526024830191909152336044830152516064808301926020929190829003018186803b1580156106af57600080fd5b505afa1580156106c3573d6000803e3d6000fd5b505050506040513d60208110156106d957600080fd5b50518311156107195760405162461bcd60e51b81526004018080602001828103825260258152602001806114056025913960400191505060405180910390fd5b6005546040805163dd62f42360e01b8152644554482d4160d81b600482015233602482015290516001600160a01b039092169163dd62f42391604480820192602092909190829003018186803b15801561077257600080fd5b505afa158015610786573d6000803e3d6000fd5b505050506040513d602081101561079c57600080fd5b50518411156107dc5760405162461bcd60e51b815260040180806020018281038252602b815260200180611390602b913960400191505060405180910390fd5b604080516001600160a01b0387811660208084019190915233838501526060830188905260808084018790528451808503909101815260a0840180865263522c806760e01b905260a4840188815260c48501958652815160e486015281519387169563522c8067958a95939492939192610104909101919085019080838360005b8381101561087557818101518382015260200161085d565b50505050905090810190601f1680156108a25780820380516001836020036101000a031916815260200191505b509350505050600060405180830381600087803b1580156108c257600080fd5b505af11580156108d6573d6000803e3d6000fd5b505050505050505050565b6002546001600160a01b031681565b6005546001600160a01b031681565b600080600061090d84610fda565b60408051631a28ff0560e01b8152336004820152306024820152600019604482015260ff831660648201526084810185905260a48101849052905193965091945092506001600160a01b03871691631a28ff059160c48082019260009290919082900301818387803b1580156108c257600080fd5b6000856001600160a01b03166398ba4aec61099c85610ff5565b6040518263ffffffff1660e01b815260040180826001600160801b03166001600160801b0316815260200191505060206040518083038186803b1580156109e257600080fd5b505afa1580156109f6573d6000803e3d6000fd5b505050506040513d6020811015610a0c57600080fd5b50516001600160801b03169050610a238383611051565b811115610a615760405162461bcd60e51b81526004018080602001828103825260298152602001806113bb6029913960400191505060405180910390fd5b6000866001600160a01b031663284f44446040518163ffffffff1660e01b815260040160206040518083038186803b158015610a9c57600080fd5b505afa158015610ab0573d6000803e3d6000fd5b505050506040513d6020811015610ac657600080fd5b50516005546040805163204f83f960e01b815290519293506001600160a01b039182169263b93dd41d92644554482d4160d81b929086169163204f83f991600480820192602092909190829003018186803b158015610b2457600080fd5b505afa158015610b38573d6000803e3d6000fd5b505050506040513d6020811015610b4e57600080fd5b5051604080516001600160e01b031960e086901b168152600481019390935260248301919091523060448301526001600160a01b038a166064830152608482018890525160a48083019260209291908290030181600087803b158015610bb357600080fd5b505af1158015610bc7573d6000803e3d6000fd5b505050506040513d6020811015610bdd57600080fd5b50506005546040805163470660bb60e11b8152644554482d4160d81b60048201526001600160a01b0389811660248301523060448301526064820189905291519190921691638e0cc17691608480830192600092919082900301818387803b158015610c4857600080fd5b505af1158015610c5c573d6000803e3d6000fd5b505060035460408051633b4da69f60e01b81526001600160a01b038b81166004830152602482018b90529151919092169350633b4da69f9250604480830192600092919082900301818387803b158015610cb557600080fd5b505af1158015610cc9573d6000803e3d6000fd5b50506000805460408051636cb1c69b60e11b8152644554482d4160d81b600482015290519294506001600160a01b03909116925063d9638d369160248083019260a0929190829003018186803b158015610d2257600080fd5b505afa158015610d36573d6000803e3d6000fd5b505050506040513d60a0811015610d4c57600080fd5b50602001516000549091506001600160a01b03166376088703888080610d718b611088565b610d83610d7e8a896110e0565b611088565b604080516001600160e01b031960e089901b168152644554482d4160d81b60048201526001600160a01b0396871660248201529486166044860152929094166064840152608483015260a4820192909252905160c480830192600092919082900301818387803b158015610df657600080fd5b505af1158015610e0a573d6000803e3d6000fd5b50506000546001600160a01b0316915063bb35783b90508830610e3f876b033b2e3c9fd0803ce800000063ffffffff61115416565b6040518463ffffffff1660e01b815260040180846001600160a01b03166001600160a01b03168152602001836001600160a01b03166001600160a01b031681526020018281526020019350505050600060405180830381600087803b158015610ea757600080fd5b505af1158015610ebb573d6000803e3d6000fd5b5050600480546040805163ef693bed60e01b8152309381019390935260248301889052516001600160a01b03909116935063ef693bed9250604480830192600092919082900301818387803b158015610f1357600080fd5b505af1158015610f27573d6000803e3d6000fd5b50505050876001600160a01b0316637543e39c3030610f4589610ff5565b604080516001600160e01b031960e087901b1681526001600160a01b0394851660048201529290931660248301526001600160801b03166044820152905160648083019260209291908290030181600087803b158015610fa457600080fd5b505af1158015610fb8573d6000803e3d6000fd5b505050506040513d6020811015610fce57600080fd5b50505050505050505050565b60208101516040820151606090920151909260009190911a90565b60006001600160801b0382111561104d576040805162461bcd60e51b815260206004820152601760248201527653616665436173743a2043617374206f766572666c6f7760481b604482015290519081900360640190fd5b5090565b600061107f6b033b2e3c9fd0803ce8000000611073858563ffffffff61115416565b9063ffffffff6111ad16565b90505b92915050565b60006001600160ff1b0382111561104d576040805162461bcd60e51b815260206004820152601760248201527653616665436173743a2043617374206f766572666c6f7760481b604482015290519081900360640190fd5b6000806110ff846b033b2e3c9fd0803ce800000063ffffffff61115416565b9050611111818463ffffffff6111ef16565b1561113c57611137600161112b838663ffffffff6111ad16565b9063ffffffff61123116565b61114c565b61114c818463ffffffff6111ad16565b949350505050565b60008261116357506000611082565b8282028284828161117057fe5b041461107f5760405162461bcd60e51b81526004018080602001828103825260218152602001806113e46021913960400191505060405180910390fd5b600061107f83836040518060400160405280601a81526020017f536166654d6174683a206469766973696f6e206279207a65726f00000000000081525061128b565b600061107f83836040518060400160405280601881526020017f536166654d6174683a206d6f64756c6f206279207a65726f000000000000000081525061132d565b60008282018381101561107f576040805162461bcd60e51b815260206004820152601b60248201527f536166654d6174683a206164646974696f6e206f766572666c6f770000000000604482015290519081900360640190fd5b600081836113175760405162461bcd60e51b81526004018080602001828103825283818151815260200191508051906020019080838360005b838110156112dc5781810151838201526020016112c4565b50505050905090810190601f1680156113095780820380516001836020036101000a031916815260200191505b509250505060405180910390fd5b50600083858161132357fe5b0495945050505050565b6000818361137c5760405162461bcd60e51b81526020600482018181528351602484015283519092839260449091019190850190808383600083156112dc5781810151838201526020016112c4565b5082848161138657fe5b0694935050505056fe4578706f727450726f78793a204e6f7420656e6f75676820636f6c6c61746572616c20696e205969656c644578706f727450726f78793a204d6178696d756d206679446169207072696365206578636565646564536166654d6174683a206d756c7469706c69636174696f6e206f766572666c6f774578706f727450726f78793a204e6f7420656e6f756768206465627420696e205969656c64a26469706673582212206d12c6e01c6ea7bcc0072d614aa432a32a8fe6fe929ca09100463d041ac6049264736f6c634300060a0033",
  "immutableReferences": {},
  "source": "// SPDX-License-Identifier: GPL-3.0-or-later\npragma solidity ^0.6.10;\n\nimport \"./interfaces/IFlashMinter.sol\";\nimport \"./helpers/DecimalMath.sol\";\nimport \"./helpers/SafeCast.sol\";\nimport \"./helpers/YieldAuth.sol\";\nimport \"./ExportProxyBase.sol\";\n\n\ncontract ExportProxy is ExportProxyBase, DecimalMath, IFlashMinter {\n    using SafeCast for uint256;\n    using YieldAuth for IController;\n\n    constructor(IController controller_, IPool[] memory pools_)\n        public\n        ExportProxyBase(controller_, pools_)\n    { }\n\n    /// @dev Transfer debt and collateral from Yield to MakerDAO\n    /// Needs vat.hope(splitter.address, { from: user });\n    /// Needs controller.addDelegate(splitter.address, { from: user });\n    /// @notice This method won't work if executed via `delegatecall`, for example using dsproxy.\n    /// @param pool The pool to trade in (and therefore fyDai series to migrate)\n    /// @param wethAmount weth to move from Yield to MakerDAO. Needs to be high enough to collateralize the dai debt in MakerDAO,\n    /// and low enough to make sure that debt left in Yield is also collateralized.\n    /// @param fyDaiAmount fyDai debt to move from Yield to MakerDAO.\n    /// @param maxFYDaiPrice Maximum Dai price to pay for fyDai.\n    function exportPosition(IPool pool, uint256 wethAmount, uint256 fyDaiAmount, uint256 maxFYDaiPrice) public {\n        IFYDai fyDai = pool.fyDai();\n\n        // The user specifies the fyDai he wants to move, and the weth to be passed on as collateral\n        require(\n            fyDaiAmount <= controller.debtFYDai(WETH, fyDai.maturity(), msg.sender),\n            \"ExportProxy: Not enough debt in Yield\"\n        );\n        require(\n            wethAmount <= controller.posted(WETH, msg.sender),\n            \"ExportProxy: Not enough collateral in Yield\"\n        );\n        // Flash mint the fyDai\n        fyDai.flashMint(\n            fyDaiAmount,\n            abi.encode(pool, msg.sender, wethAmount, maxFYDaiPrice)\n        ); // The daiAmount encoded is ignored\n    }\n\n    /// @dev Callback from `FYDai.flashMint()`\n    /// @param fyDaiAmount fyDai debt to move from Yield to MakerDAO.\n    /// @param data Packed structure with pool, user, weth collateral to move, and maximum Dai price to pay for fyDai.\n    function executeOnFlashMint(uint256 fyDaiAmount, bytes calldata data) external override {\n        (IPool pool, address user, uint256 wethAmount, uint256 maxFYDaiPrice) = \n            abi.decode(data, (IPool, address, uint256, uint256));\n        require(msg.sender == address(IPool(pool).fyDai()), \"ExportProxy: Restricted callback\");\n\n        _exportPosition(pool, user, wethAmount, fyDaiAmount, maxFYDaiPrice);\n    }\n\n    /// @dev Internal function to transfer debt and collateral from Yield to MakerDAO\n    /// Needs vat.hope(splitter.address, { from: user });\n    /// Needs controller.addDelegate(splitter.address, { from: user });\n    /// @param pool The pool to trade in (and therefore fyDai series to migrate)\n    /// @param user Vault to migrate.\n    /// @param wethAmount weth to move from Yield to MakerDAO. Needs to be high enough to collateralize the dai debt in MakerDAO,\n    /// and low enough to make sure that debt left in Yield is also collateralized.\n    /// @param fyDaiAmount fyDai debt to move from Yield to MakerDAO.\n    /// @param maxFYDaiPrice Maximum Dai price to pay for fyDai.\n    function _exportPosition(IPool pool, address user, uint256 wethAmount, uint256 fyDaiAmount, uint256 maxFYDaiPrice) internal {\n        // We are going to need to buy the FYDai back with Dai borrowed from Maker\n        uint256 daiAmount = pool.buyFYDaiPreview(fyDaiAmount.toUint128());\n        require(\n            daiAmount <= muld(fyDaiAmount, maxFYDaiPrice),\n            \"ExportProxy: Maximum fyDai price exceeded\"\n        );\n        \n        IFYDai fyDai = IFYDai(pool.fyDai());\n\n        // Pay the Yield debt - ExportProxy pays FYDai to remove the debt of `user`\n        // Controller should take exactly all fyDai flash minted.\n        controller.repayFYDai(WETH, fyDai.maturity(), address(this), user, fyDaiAmount);\n\n        // Withdraw the collateral from Yield, ExportProxy will hold it\n        controller.withdraw(WETH, user, address(this), wethAmount);\n\n        // Post the collateral to Maker, in the `user` vault\n        wethJoin.join(user, wethAmount);\n\n        // Borrow the Dai from Maker\n        (, uint256 rate,,,) = vat.ilks(WETH); // Retrieve the MakerDAO stability fee for Weth\n        vat.frob(\n            \"ETH-A\",\n            user,\n            user,\n            user,\n            wethAmount.toInt256(),                   // Adding Weth collateral\n            divdrup(daiAmount, rate).toInt256()      // Adding Dai debt\n        );\n        vat.move(user, address(this), daiAmount.mul(UNIT)); // Transfer the Dai to ExportProxy within MakerDAO, in RAD\n        daiJoin.exit(address(this), daiAmount);             // ExportProxy will hold the dai temporarily\n\n        // Sell the Dai for FYDai at Pool - It should make up for what was taken with repayYdai\n        pool.buyFYDai(address(this), address(this), fyDaiAmount.toUint128());\n    }\n\n    /// --------------------------------------------------\n    /// Signature method wrappers\n    /// --------------------------------------------------\n\n    /// @dev Determine whether all approvals and signatures are in place for `exportPosition`.\n    /// If `return[0]` is `false`, calling `vat.hope(exportProxy.address)` will set the MakerDAO approval.\n    /// If `return[1]` is `false`, `exportPositionWithSignature` must be called with a controller signature.\n    /// If `return` is `(true, true)`, `exportPosition` won't fail because of missing approvals or signatures.\n    function exportPositionCheck() public view returns (bool, bool) {\n        bool approvals = vat.can(msg.sender, address(this)) == 1;\n        bool controllerSig = controller.delegated(msg.sender, address(this));\n        return (approvals, controllerSig);\n    }\n\n    /// @dev Transfer debt and collateral from Yield to MakerDAO\n    /// Needs vat.hope(exportProxy.address, { from: user });\n    /// @param pool The pool to trade in (and therefore fyDai series to migrate)\n    /// @param wethAmount weth to move from Yield to MakerDAO. Needs to be high enough to collateralize the dai debt in MakerDAO,\n    /// and low enough to make sure that debt left in Yield is also collateralized.\n    /// @param fyDaiAmount fyDai debt to move from Yield to MakerDAO.\n    /// @param maxFYDaiPrice Maximum Dai price to pay for fyDai.\n    /// @param controllerSig packed signature for delegation of this proxy in the controller. Ignored if '0x'.\n    function exportPositionWithSignature(IPool pool, uint256 wethAmount, uint256 fyDaiAmount, uint256 maxFYDaiPrice, bytes memory controllerSig) public {\n        if (controllerSig.length > 0) controller.addDelegatePacked(controllerSig);\n        return exportPosition(pool, wethAmount, fyDaiAmount, maxFYDaiPrice);\n    }\n}\n",
  "sourcePath": "/Users/brucedonovan/dev/yield/fyDai-proxies/contracts/ExportProxy.sol",
  "compiler": {
    "name": "solc",
    "version": "0.6.10+commit.00c0fcaf.Emscripten.clang"
  },
  "schemaVersion": "3.2.3",
  "updatedAt": "2020-12-11T09:21:34.737Z",
  "devdoc": {
    "methods": {
      "executeOnFlashMint(uint256,bytes)": {
        "details": "Callback from `FYDai.flashMint()`",
        "params": {
          "data": "Packed structure with pool, user, weth collateral to move, and maximum Dai price to pay for fyDai.",
          "fyDaiAmount": "fyDai debt to move from Yield to MakerDAO."
        }
      },
      "exportPosition(address,uint256,uint256,uint256)": {
        "details": "Transfer debt and collateral from Yield to MakerDAO Needs vat.hope(splitter.address, { from: user }); Needs controller.addDelegate(splitter.address, { from: user });",
        "params": {
          "fyDaiAmount": "fyDai debt to move from Yield to MakerDAO.",
          "maxFYDaiPrice": "Maximum Dai price to pay for fyDai.",
          "pool": "The pool to trade in (and therefore fyDai series to migrate)",
          "wethAmount": "weth to move from Yield to MakerDAO. Needs to be high enough to collateralize the dai debt in MakerDAO, and low enough to make sure that debt left in Yield is also collateralized."
        }
      },
      "exportPositionCheck()": {
        "details": "Determine whether all approvals and signatures are in place for `exportPosition`. If `return[0]` is `false`, calling `vat.hope(exportProxy.address)` will set the MakerDAO approval. If `return[1]` is `false`, `exportPositionWithSignature` must be called with a controller signature. If `return` is `(true, true)`, `exportPosition` won't fail because of missing approvals or signatures."
      },
      "exportPositionWithSignature(address,uint256,uint256,uint256,bytes)": {
        "details": "Transfer debt and collateral from Yield to MakerDAO Needs vat.hope(exportProxy.address, { from: user });",
        "params": {
          "controllerSig": "packed signature for delegation of this proxy in the controller. Ignored if '0x'.",
          "fyDaiAmount": "fyDai debt to move from Yield to MakerDAO.",
          "maxFYDaiPrice": "Maximum Dai price to pay for fyDai.",
          "pool": "The pool to trade in (and therefore fyDai series to migrate)",
          "wethAmount": "weth to move from Yield to MakerDAO. Needs to be high enough to collateralize the dai debt in MakerDAO, and low enough to make sure that debt left in Yield is also collateralized."
        }
      }
    }
  },
  "userdoc": {
    "methods": {
      "exportPosition(address,uint256,uint256,uint256)": {
        "notice": "This method won't work if executed via `delegatecall`, for example using dsproxy."
      }
    }
  }
}