{
  "contractName": "FlashMinterMock",
  "abi": [
    {
      "anonymous": false,
      "inputs": [
        {
          "indexed": false,
          "internalType": "address",
          "name": "user",
          "type": "address"
        },
        {
          "indexed": false,
          "internalType": "uint256",
          "name": "amount",
          "type": "uint256"
        },
        {
          "indexed": false,
          "internalType": "bytes",
          "name": "data",
          "type": "bytes"
        }
      ],
      "name": "Parameters",
      "type": "event"
    },
    {
      "inputs": [],
      "name": "flashBalance",
      "outputs": [
        {
          "internalType": "uint256",
          "name": "",
          "type": "uint256"
        }
      ],
      "stateMutability": "view",
      "type": "function"
    },
    {
      "inputs": [
        {
          "internalType": "address",
          "name": "to",
          "type": "address"
        },
        {
          "internalType": "uint256",
          "name": "yDaiAmount",
          "type": "uint256"
        },
        {
          "internalType": "bytes",
          "name": "data",
          "type": "bytes"
        }
      ],
      "name": "executeOnFlashMint",
      "outputs": [],
      "stateMutability": "nonpayable",
      "type": "function"
    },
    {
      "inputs": [
        {
          "internalType": "address",
          "name": "yDai",
          "type": "address"
        },
        {
          "internalType": "uint256",
          "name": "amount",
          "type": "uint256"
        },
        {
          "internalType": "bytes",
          "name": "data",
          "type": "bytes"
        }
      ],
      "name": "flashMint",
      "outputs": [],
      "stateMutability": "nonpayable",
      "type": "function"
    }
  ],
  "bytecode": "0x608060405234801561001057600080fd5b5061033b806100206000396000f3fe608060405234801561001057600080fd5b50600436106100415760003560e01c80633ea2146514610046578063bdd26b31146100cd578063ebbc8d2414610152575b600080fd5b6100cb6004803603606081101561005c57600080fd5b6001600160a01b038235169160208101359181019060608101604082013564010000000081111561008c57600080fd5b82018360208201111561009e57600080fd5b803590602001918460018302840111640100000000831117156100c057600080fd5b50909250905061016c565b005b6100cb600480360360608110156100e357600080fd5b6001600160a01b038235169160208101359181019060608101604082013564010000000081111561011357600080fd5b82018360208201111561012557600080fd5b8035906020019184600183028401116401000000008311171561014757600080fd5b509092509050610211565b61015a6102ff565b60408051918252519081900360200190f35b604051633ea2146560e01b8152306004820181815260248301869052606060448401908152606484018590526001600160a01b03881693633ea2146593928892889288929190608401848480828437600081840152601f19601f82011690508083019250505095505050505050600060405180830381600087803b1580156101f357600080fd5b505af1158015610207573d6000803e3d6000fd5b5050505050505050565b604080516370a0823160e01b8152306004820152905133916370a08231916024808301926020929190829003018186803b15801561024e57600080fd5b505afa158015610262573d6000803e3d6000fd5b505050506040513d602081101561027857600080fd5b5051600055604080516001600160a01b03861681526020810185905260609181018281529181018390527f83d51aeae725b0e9b985dd0b63e108caef4f49c4372a6fb1c9490436827899ca91869186918691869160808201848480828437600083820152604051601f909101601f191690920182900397509095505050505050a150505050565b6000548156fea264697066735822122050c5b18da4192eae408a5cbc987e1cdbe3bdf11562fc9edf671b48812f0df56c64736f6c634300060a0033",
  "immutableReferences": {},
  "source": "// SPDX-License-Identifier: GPL-3.0-or-later\r\npragma solidity ^0.6.10;\r\n\r\nimport \"../interfaces/IFlashMinter.sol\";\r\nimport \"../interfaces/IYDai.sol\";\r\n\r\n\r\ncontract FlashMinterMock is IFlashMinter {\r\n\r\n    event Parameters(address user, uint256 amount, bytes data);\r\n\r\n    uint256 public flashBalance;\r\n\r\n    function executeOnFlashMint(address to, uint256 yDaiAmount, bytes calldata data) external override {\r\n        flashBalance = IYDai(msg.sender).balanceOf(address(this));\r\n        emit Parameters(to, yDaiAmount, data);\r\n    }\r\n\r\n    function flashMint(address yDai, uint256 amount, bytes calldata data) public {\r\n        IYDai(yDai).flashMint(address(this), amount, data);\r\n    }\r\n}",
  "sourcePath": "C:/Users/bruce/dev/yield/yDai/contracts/mocks/FlashMinterMock.sol",
  "compiler": {
    "name": "solc",
    "version": "0.6.10+commit.00c0fcaf.Emscripten.clang"
  },
  "schemaVersion": "3.2.3",
  "updatedAt": "2020-08-19T15:24:08.759Z",
  "devdoc": {
    "methods": {}
  },
  "userdoc": {
    "methods": {}
  }
}