{
  "contractName": "FlashMinterMock",
  "abi": [
    {
      "anonymous": false,
      "inputs": [
        {
          "indexed": false,
          "internalType": "address",
          "name": "user",
          "type": "address"
        },
        {
          "indexed": false,
          "internalType": "uint256",
          "name": "amount",
          "type": "uint256"
        },
        {
          "indexed": false,
          "internalType": "bytes",
          "name": "data",
          "type": "bytes"
        }
      ],
      "name": "Parameters",
      "type": "event"
    },
    {
      "inputs": [],
      "name": "flashBalance",
      "outputs": [
        {
          "internalType": "uint256",
          "name": "",
          "type": "uint256"
        }
      ],
      "stateMutability": "view",
      "type": "function"
    },
    {
      "inputs": [
        {
          "internalType": "address",
          "name": "to",
          "type": "address"
        },
        {
          "internalType": "uint256",
          "name": "yDaiAmount",
          "type": "uint256"
        },
        {
          "internalType": "bytes",
          "name": "data",
          "type": "bytes"
        }
      ],
      "name": "executeOnFlashMint",
      "outputs": [],
      "stateMutability": "nonpayable",
      "type": "function"
    },
    {
      "inputs": [
        {
          "internalType": "address",
          "name": "yDai",
          "type": "address"
        },
        {
          "internalType": "uint256",
          "name": "amount",
          "type": "uint256"
        },
        {
          "internalType": "bytes",
          "name": "data",
          "type": "bytes"
        }
      ],
      "name": "flashMint",
      "outputs": [],
      "stateMutability": "nonpayable",
      "type": "function"
    }
  ],
  "bytecode": "0x608060405234801561001057600080fd5b506103a1806100206000396000f3fe608060405234801561001057600080fd5b50600436106100415760003560e01c80633ea2146514610046578063bdd26b31146100da578063ebbc8d241461016c575b600080fd5b6100d86004803603606081101561005c57600080fd5b73ffffffffffffffffffffffffffffffffffffffff8235169160208101359181019060608101604082013564010000000081111561009957600080fd5b8201836020820111156100ab57600080fd5b803590602001918460018302840111640100000000831117156100cd57600080fd5b509092509050610186565b005b6100d8600480360360608110156100f057600080fd5b73ffffffffffffffffffffffffffffffffffffffff8235169160208101359181019060608101604082013564010000000081111561012d57600080fd5b82018360208201111561013f57600080fd5b8035906020019184600183028401116401000000008311171561016157600080fd5b509092509050610251565b610174610365565b60408051918252519081900360200190f35b6040517f3ea214650000000000000000000000000000000000000000000000000000000081523060048201818152602483018690526060604484019081526064840185905273ffffffffffffffffffffffffffffffffffffffff881693633ea2146593928892889288929190608401848480828437600081840152601f19601f82011690508083019250505095505050505050600060405180830381600087803b15801561023357600080fd5b505af1158015610247573d6000803e3d6000fd5b5050505050505050565b604080517f70a08231000000000000000000000000000000000000000000000000000000008152306004820152905133916370a08231916024808301926020929190829003018186803b1580156102a757600080fd5b505afa1580156102bb573d6000803e3d6000fd5b505050506040513d60208110156102d157600080fd5b50516000556040805173ffffffffffffffffffffffffffffffffffffffff861681526020810185905260609181018281529181018390527f83d51aeae725b0e9b985dd0b63e108caef4f49c4372a6fb1c9490436827899ca91869186918691869160808201848480828437600083820152604051601f909101601f191690920182900397509095505050505050a150505050565b6000548156fea2646970667358221220d69803c43bbe216c5790ec2a1535d32fe5ad95677f611edc0fe69d225065585364736f6c634300060a0033",
  "source": "pragma solidity ^0.6.10;\n\nimport \"../interfaces/IFlashMinter.sol\";\nimport \"../interfaces/IYDai.sol\";\n\n\ncontract FlashMinterMock is IFlashMinter {\n\n    event Parameters(address user, uint256 amount, bytes data);\n\n    uint256 public flashBalance;\n\n    function executeOnFlashMint(address to, uint256 yDaiAmount, bytes calldata data) external override {\n        flashBalance = IYDai(msg.sender).balanceOf(address(this));\n        emit Parameters(to, yDaiAmount, data);\n    }\n\n    function flashMint(address yDai, uint256 amount, bytes calldata data) public {\n        IYDai(yDai).flashMint(address(this), amount, data);\n    }\n}",
  "sourcePath": "/Users/bruce/dev/yieldprotocol/ytoken-mvp/contracts/mocks/FlashMinterMock.sol",
  "compiler": {
    "name": "solc",
    "version": "0.6.10+commit.00c0fcaf.Emscripten.clang"
  },
  "schemaVersion": "3.0.23",
  "updatedAt": "2020-07-10T08:34:42.307Z",
  "devdoc": {
    "methods": {}
  },
  "userdoc": {
    "methods": {}
  }
}