{
  "contractName": "GasToken1",
  "abi": [
    {
      "anonymous": false,
      "inputs": [
        {
          "indexed": true,
          "internalType": "address",
          "name": "owner",
          "type": "address"
        },
        {
          "indexed": true,
          "internalType": "address",
          "name": "spender",
          "type": "address"
        },
        {
          "indexed": false,
          "internalType": "uint256",
          "name": "value",
          "type": "uint256"
        }
      ],
      "name": "Approval",
      "type": "event"
    },
    {
      "anonymous": false,
      "inputs": [
        {
          "indexed": true,
          "internalType": "address",
          "name": "from",
          "type": "address"
        },
        {
          "indexed": true,
          "internalType": "address",
          "name": "to",
          "type": "address"
        },
        {
          "indexed": false,
          "internalType": "uint256",
          "name": "value",
          "type": "uint256"
        }
      ],
      "name": "Transfer",
      "type": "event"
    },
    {
      "inputs": [],
      "name": "decimals",
      "outputs": [
        {
          "internalType": "uint8",
          "name": "",
          "type": "uint8"
        }
      ],
      "stateMutability": "view",
      "type": "function",
      "constant": true
    },
    {
      "inputs": [],
      "name": "name",
      "outputs": [
        {
          "internalType": "string",
          "name": "",
          "type": "string"
        }
      ],
      "stateMutability": "view",
      "type": "function",
      "constant": true
    },
    {
      "inputs": [],
      "name": "symbol",
      "outputs": [
        {
          "internalType": "string",
          "name": "",
          "type": "string"
        }
      ],
      "stateMutability": "view",
      "type": "function",
      "constant": true
    },
    {
      "inputs": [
        {
          "internalType": "address",
          "name": "owner",
          "type": "address"
        }
      ],
      "name": "balanceOf",
      "outputs": [
        {
          "internalType": "uint256",
          "name": "balance",
          "type": "uint256"
        }
      ],
      "stateMutability": "view",
      "type": "function",
      "constant": true
    },
    {
      "inputs": [
        {
          "internalType": "address",
          "name": "to",
          "type": "address"
        },
        {
          "internalType": "uint256",
          "name": "value",
          "type": "uint256"
        }
      ],
      "name": "transfer",
      "outputs": [
        {
          "internalType": "bool",
          "name": "success",
          "type": "bool"
        }
      ],
      "stateMutability": "nonpayable",
      "type": "function"
    },
    {
      "inputs": [
        {
          "internalType": "address",
          "name": "from",
          "type": "address"
        },
        {
          "internalType": "address",
          "name": "to",
          "type": "address"
        },
        {
          "internalType": "uint256",
          "name": "value",
          "type": "uint256"
        }
      ],
      "name": "transferFrom",
      "outputs": [
        {
          "internalType": "bool",
          "name": "success",
          "type": "bool"
        }
      ],
      "stateMutability": "nonpayable",
      "type": "function"
    },
    {
      "inputs": [
        {
          "internalType": "address",
          "name": "spender",
          "type": "address"
        },
        {
          "internalType": "uint256",
          "name": "value",
          "type": "uint256"
        }
      ],
      "name": "approve",
      "outputs": [
        {
          "internalType": "bool",
          "name": "success",
          "type": "bool"
        }
      ],
      "stateMutability": "nonpayable",
      "type": "function"
    },
    {
      "inputs": [
        {
          "internalType": "address",
          "name": "owner",
          "type": "address"
        },
        {
          "internalType": "address",
          "name": "spender",
          "type": "address"
        }
      ],
      "name": "allowance",
      "outputs": [
        {
          "internalType": "uint256",
          "name": "remaining",
          "type": "uint256"
        }
      ],
      "stateMutability": "view",
      "type": "function",
      "constant": true
    },
    {
      "inputs": [],
      "name": "totalSupply",
      "outputs": [
        {
          "internalType": "uint256",
          "name": "supply",
          "type": "uint256"
        }
      ],
      "stateMutability": "view",
      "type": "function",
      "constant": true
    },
    {
      "inputs": [
        {
          "internalType": "uint256",
          "name": "value",
          "type": "uint256"
        }
      ],
      "name": "mint",
      "outputs": [],
      "stateMutability": "nonpayable",
      "type": "function"
    },
    {
      "inputs": [
        {
          "internalType": "uint256",
          "name": "value",
          "type": "uint256"
        }
      ],
      "name": "free",
      "outputs": [
        {
          "internalType": "bool",
          "name": "success",
          "type": "bool"
        }
      ],
      "stateMutability": "nonpayable",
      "type": "function"
    },
    {
      "inputs": [
        {
          "internalType": "uint256",
          "name": "value",
          "type": "uint256"
        }
      ],
      "name": "freeUpTo",
      "outputs": [
        {
          "internalType": "uint256",
          "name": "freed",
          "type": "uint256"
        }
      ],
      "stateMutability": "nonpayable",
      "type": "function"
    },
    {
      "inputs": [
        {
          "internalType": "address",
          "name": "from",
          "type": "address"
        },
        {
          "internalType": "uint256",
          "name": "value",
          "type": "uint256"
        }
      ],
      "name": "freeFrom",
      "outputs": [
        {
          "internalType": "bool",
          "name": "success",
          "type": "bool"
        }
      ],
      "stateMutability": "nonpayable",
      "type": "function"
    },
    {
      "inputs": [
        {
          "internalType": "address",
          "name": "from",
          "type": "address"
        },
        {
          "internalType": "uint256",
          "name": "value",
          "type": "uint256"
        }
      ],
      "name": "freeFromUpTo",
      "outputs": [
        {
          "internalType": "uint256",
          "name": "freed",
          "type": "uint256"
        }
      ],
      "stateMutability": "nonpayable",
      "type": "function"
    }
  ],
  "bytecode": "0x608060405234801561001057600080fd5b50611122806100206000396000f3fe608060405234801561001057600080fd5b50600436106100ea5760003560e01c80636366b9361161008c578063a0712d6811610066578063a0712d6814610485578063a9059cbb146104b3578063d8ccd0f314610519578063dd62ed3e1461055f576100ea565b80636366b9361461036857806370a08231146103aa57806395d89b4114610402576100ea565b806318160ddd116100c857806318160ddd1461023a57806323b872dd14610258578063313ce567146102de5780635f2e2b4514610302576100ea565b806306fdde03146100ef578063079d229f14610172578063095ea7b3146101d4575b600080fd5b6100f76105d7565b6040518080602001828103825283818151815260200191508051906020019080838360005b8381101561013757808201518184015260208101905061011c565b50505050905090810190601f1680156101645780820380516001836020036101000a031916815260200191505b509250505060405180910390f35b6101be6004803603604081101561018857600080fd5b81019080803573ffffffffffffffffffffffffffffffffffffffff16906020019092919080359060200190929190505050610610565b6040518082815260200191505060405180910390f35b610220600480360360408110156101ea57600080fd5b81019080803573ffffffffffffffffffffffffffffffffffffffff16906020019092919080359060200190929190505050610797565b604051808215151515815260200191505060405180910390f35b61024261092c565b6040518082815260200191505060405180910390f35b6102c46004803603606081101561026e57600080fd5b81019080803573ffffffffffffffffffffffffffffffffffffffff169060200190929190803573ffffffffffffffffffffffffffffffffffffffff1690602001909291908035906020019092919050505061093e565b604051808215151515815260200191505060405180910390f35b6102e6610a7d565b604051808260ff1660ff16815260200191505060405180910390f35b61034e6004803603604081101561031857600080fd5b81019080803573ffffffffffffffffffffffffffffffffffffffff16906020019092919080359060200190929190505050610a82565b604051808215151515815260200191505060405180910390f35b6103946004803603602081101561037e57600080fd5b8101908080359060200190929190505050610c1b565b6040518082815260200191505060405180910390f35b6103ec600480360360208110156103c057600080fd5b81019080803573ffffffffffffffffffffffffffffffffffffffff169060200190929190505050610cc2565b6040518082815260200191505060405180910390f35b61040a610d0a565b6040518080602001828103825283818151815260200191508051906020019080838360005b8381101561044a57808201518184015260208101905061042f565b50505050905090810190601f1680156104775780820380516001836020036101000a031916815260200191505b509250505060405180910390f35b6104b16004803603602081101561049b57600080fd5b8101908080359060200190929190505050610d43565b005b6104ff600480360360408110156104c957600080fd5b81019080803573ffffffffffffffffffffffffffffffffffffffff16906020019092919080359060200190929190505050610df6565b604051808215151515815260200191505060405180910390f35b6105456004803603602081101561052f57600080fd5b8101908080359060200190929190505050610e10565b604051808215151515815260200191505060405180910390f35b6105c16004803603604081101561057557600080fd5b81019080803573ffffffffffffffffffffffffffffffffffffffff169060200190929190803573ffffffffffffffffffffffffffffffffffffffff169060200190929190505050610ebf565b6040518082815260200191505060405180910390f35b6040518060400160405280600b81526020017f476173746f6b656e2e696f00000000000000000000000000000000000000000081525081565b60008033905060008060008673ffffffffffffffffffffffffffffffffffffffff1673ffffffffffffffffffffffffffffffffffffffff16815260200190815260200160002054905080841115610665578093505b6000600160008773ffffffffffffffffffffffffffffffffffffffff1673ffffffffffffffffffffffffffffffffffffffff168152602001908152602001600020905060008160008573ffffffffffffffffffffffffffffffffffffffff1673ffffffffffffffffffffffffffffffffffffffff168152602001908152602001600020549050808611156106f7578095505b61070086610f46565b8583036000808973ffffffffffffffffffffffffffffffffffffffff1673ffffffffffffffffffffffffffffffffffffffff168152602001908152602001600020819055508581038260008673ffffffffffffffffffffffffffffffffffffffff1673ffffffffffffffffffffffffffffffffffffffff168152602001908152602001600020819055508594505050505092915050565b6000803390506000831415801561082b57506000600160008373ffffffffffffffffffffffffffffffffffffffff1673ffffffffffffffffffffffffffffffffffffffff16815260200190815260200160002060008673ffffffffffffffffffffffffffffffffffffffff1673ffffffffffffffffffffffffffffffffffffffff1681526020019081526020016000205414155b1561083a576000915050610926565b82600160008373ffffffffffffffffffffffffffffffffffffffff1673ffffffffffffffffffffffffffffffffffffffff16815260200190815260200160002060008673ffffffffffffffffffffffffffffffffffffffff1673ffffffffffffffffffffffffffffffffffffffff168152602001908152602001600020819055508373ffffffffffffffffffffffffffffffffffffffff168173ffffffffffffffffffffffffffffffffffffffff167f8c5be1e5ebec7d5bd14f71427d1e84f3dd0314c0f7b2291e5b200ac8c7c3b925856040518082815260200191505060405180910390a360019150505b92915050565b60008063deadbeef9050805491505090565b600080339050600160008673ffffffffffffffffffffffffffffffffffffffff1673ffffffffffffffffffffffffffffffffffffffff16815260200190815260200160002060008273ffffffffffffffffffffffffffffffffffffffff1673ffffffffffffffffffffffffffffffffffffffff1681526020019081526020016000205483111580156109d757506109d6858585610f93565b5b15610a705782600160008773ffffffffffffffffffffffffffffffffffffffff1673ffffffffffffffffffffffffffffffffffffffff16815260200190815260200160002060008373ffffffffffffffffffffffffffffffffffffffff1673ffffffffffffffffffffffffffffffffffffffff168152602001908152602001600020600082825403925050819055506001915050610a76565b60009150505b9392505050565b600281565b60008033905060008060008673ffffffffffffffffffffffffffffffffffffffff1673ffffffffffffffffffffffffffffffffffffffff16815260200190815260200160002054905080841115610ade57600092505050610c15565b6000600160008773ffffffffffffffffffffffffffffffffffffffff1673ffffffffffffffffffffffffffffffffffffffff168152602001908152602001600020905060008160008573ffffffffffffffffffffffffffffffffffffffff1673ffffffffffffffffffffffffffffffffffffffff16815260200190815260200160002054905080861115610b79576000945050505050610c15565b610b8286610f46565b8583036000808973ffffffffffffffffffffffffffffffffffffffff1673ffffffffffffffffffffffffffffffffffffffff168152602001908152602001600020819055508581038260008673ffffffffffffffffffffffffffffffffffffffff1673ffffffffffffffffffffffffffffffffffffffff1681526020019081526020016000208190555060019450505050505b92915050565b6000806000803373ffffffffffffffffffffffffffffffffffffffff1673ffffffffffffffffffffffffffffffffffffffff16815260200190815260200160002054905080831115610c6b578092505b610c7483610f46565b8281036000803373ffffffffffffffffffffffffffffffffffffffff1673ffffffffffffffffffffffffffffffffffffffff1681526020019081526020016000208190555082915050919050565b60008060008373ffffffffffffffffffffffffffffffffffffffff1673ffffffffffffffffffffffffffffffffffffffff168152602001908152602001600020549050919050565b6040518060400160405280600481526020017f475354310000000000000000000000000000000000000000000000000000000081525081565b600063deadbeef90506000821415610d5b5750610df3565b6000815490506000600182840101905060008483850101905081811015610d7e57fe5b60008290505b818111610d9c57600181558080600101915050610d84565b508483018455846000803373ffffffffffffffffffffffffffffffffffffffff1673ffffffffffffffffffffffffffffffffffffffff16815260200190815260200160002060008282540192505081905550505050505b50565b600080339050610e07818585610f93565b91505092915050565b6000806000803373ffffffffffffffffffffffffffffffffffffffff1673ffffffffffffffffffffffffffffffffffffffff16815260200190815260200160002054905080831115610e66576000915050610eba565b610e6f83610f46565b8281036000803373ffffffffffffffffffffffffffffffffffffffff1673ffffffffffffffffffffffffffffffffffffffff1681526020019081526020016000208190555060019150505b919050565b6000600160008473ffffffffffffffffffffffffffffffffffffffff1673ffffffffffffffffffffffffffffffffffffffff16815260200190815260200160002060008373ffffffffffffffffffffffffffffffffffffffff1673ffffffffffffffffffffffffffffffffffffffff16815260200190815260200160002054905092915050565b600063deadbeef90506000815490506000600184838501030190506000828401905060008290505b818111610f8657600081558080600101915050610f6e565b5084830384555050505050565b60008060008573ffffffffffffffffffffffffffffffffffffffff1673ffffffffffffffffffffffffffffffffffffffff1681526020019081526020016000205482116110e057816000808673ffffffffffffffffffffffffffffffffffffffff1673ffffffffffffffffffffffffffffffffffffffff16815260200190815260200160002060008282540392505081905550816000808573ffffffffffffffffffffffffffffffffffffffff1673ffffffffffffffffffffffffffffffffffffffff168152602001908152602001600020600082825401925050819055508273ffffffffffffffffffffffffffffffffffffffff168473ffffffffffffffffffffffffffffffffffffffff167fddf252ad1be2c89b69c2b068fc378daa952ba7f163c4a11628f55a4df523b3ef846040518082815260200191505060405180910390a3600190506110e5565b600090505b939250505056fea26469706673582212205b55cbe6292f8eba90fb0ce665aa760cb176d46d2cb415a4f6b3aa641e76cb2164736f6c63430006020033",
  "source": "pragma solidity ^0.6.0;\n\n\ncontract GasToken1 {\n    //////////////////////////////////////////////////////////////////////////\n    // Generic ERC20\n    //////////////////////////////////////////////////////////////////////////\n\n    // owner -> amount\n    mapping(address => uint256) s_balances;\n    // owner -> spender -> max amount\n    mapping(address => mapping(address => uint256)) s_allowances;\n\n    event Transfer(address indexed from, address indexed to, uint256 value);\n\n    event Approval(address indexed owner, address indexed spender, uint256 value);\n\n    // Spec: Get the account balance of another account with address `owner`\n    function balanceOf(address owner) public view returns (uint256 balance) {\n        return s_balances[owner];\n    }\n\n    function internalTransfer(address from, address to, uint256 value) internal returns (bool success) {\n        if (value <= s_balances[from]) {\n            s_balances[from] -= value;\n            s_balances[to] += value;\n            Transfer(from, to, value);\n            return true;\n        } else {\n            return false;\n        }\n    }\n\n    // Spec: Send `value` amount of tokens to address `to`\n    function transfer(address to, uint256 value) public returns (bool success) {\n        address from = msg.sender;\n        return internalTransfer(from, to, value);\n    }\n\n    // Spec: Send `value` amount of tokens from address `from` to address `to`\n    function transferFrom(address from, address to, uint256 value) public returns (bool success) {\n        address spender = msg.sender;\n        if(value <= s_allowances[from][spender] && internalTransfer(from, to, value)) {\n            s_allowances[from][spender] -= value;\n            return true;\n        } else {\n            return false;\n        }\n    }\n\n    // Spec: Allow `spender` to withdraw from your account, multiple times, up\n    // to the `value` amount. If this function is called again it overwrites the\n    // current allowance with `value`.\n    function approve(address spender, uint256 value) public returns (bool success) {\n        address owner = msg.sender;\n        if (value != 0 && s_allowances[owner][spender] != 0) {\n            return false;\n        }\n        s_allowances[owner][spender] = value;\n        Approval(owner, spender, value);\n        return true;\n    }\n\n    // Spec: Returns the `amount` which `spender` is still allowed to withdraw\n    // from `owner`.\n    // What if the allowance is higher than the balance of the `owner`?\n    // Callers should be careful to use min(allowance, balanceOf) to make sure\n    // that the allowance is actually present in the account!\n    function allowance(address owner, address spender) public view returns (uint256 remaining) {\n        return s_allowances[owner][spender];\n    }\n\n    //////////////////////////////////////////////////////////////////////////\n    // GasToken specifics\n    //////////////////////////////////////////////////////////////////////////\n\n    uint8 constant public decimals = 2;\n    string constant public name = \"Gastoken.io\";\n    string constant public symbol = \"GST1\";\n\n    // We start our storage at this location. The EVM word at this location\n    // contains the number of stored words. The stored words follow at\n    // locations (STORAGE_LOCATION_ARRAY+1), (STORAGE_LOCATION_ARRAY+2), ...\n    uint256 constant STORAGE_LOCATION_ARRAY = 0xDEADBEEF;\n\n\n    // totalSupply is the number of words we have in storage\n    function totalSupply() public view returns (uint256 supply) {\n        uint256 storage_location_array = STORAGE_LOCATION_ARRAY;\n        assembly {\n            supply := sload(storage_location_array)\n        }\n    }\n\n    // Mints `value` new sub-tokens (e.g. cents, pennies, ...) by filling up\n    // `value` words of EVM storage. The minted tokens are owned by the\n    // caller of this function.\n    function mint(uint256 value) public {\n        uint256 storage_location_array = STORAGE_LOCATION_ARRAY;  // can't use constants inside assembly\n\n        if (value == 0) {\n            return;\n        }\n\n        // Read supply\n        uint256 supply;\n        assembly {\n            supply := sload(storage_location_array)\n        }\n\n        // Set memory locations in interval [l, r]\n        uint256 l = storage_location_array + supply + 1;\n        uint256 r = storage_location_array + supply + value;\n        assert(r >= l);\n\n        for (uint256 i = l; i <= r; i++) {\n            assembly {\n                sstore(i, 1)\n            }\n        }\n\n        // Write updated supply & balance\n        assembly {\n            sstore(storage_location_array, add(supply, value))\n        }\n        s_balances[msg.sender] += value;\n    }\n\n    function freeStorage(uint256 value) internal {\n        uint256 storage_location_array = STORAGE_LOCATION_ARRAY;  // can't use constants inside assembly\n\n        // Read supply\n        uint256 supply;\n        assembly {\n            supply := sload(storage_location_array)\n        }\n\n        // Clear memory locations in interval [l, r]\n        uint256 l = storage_location_array + supply - value + 1;\n        uint256 r = storage_location_array + supply;\n        for (uint256 i = l; i <= r; i++) {\n            assembly {\n                sstore(i, 0)\n            }\n        }\n\n        // Write updated supply\n        assembly {\n            sstore(storage_location_array, sub(supply, value))\n        }\n    }\n\n    // Frees `value` sub-tokens (e.g. cents, pennies, ...) belonging to the\n    // caller of this function by clearing value words of EVM storage, which\n    // will trigger a partial gas refund.\n    function free(uint256 value) public returns (bool success) {\n        uint256 from_balance = s_balances[msg.sender];\n        if (value > from_balance) {\n            return false;\n        }\n\n        freeStorage(value);\n\n        s_balances[msg.sender] = from_balance - value;\n\n        return true;\n    }\n\n    // Frees up to `value` sub-tokens. Returns how many tokens were freed.\n    // Otherwise, identical to free.\n    function freeUpTo(uint256 value) public returns (uint256 freed) {\n        uint256 from_balance = s_balances[msg.sender];\n        if (value > from_balance) {\n            value = from_balance;\n        }\n\n        freeStorage(value);\n\n        s_balances[msg.sender] = from_balance - value;\n\n        return value;\n    }\n\n    // Frees `value` sub-tokens owned by address `from`. Requires that `msg.sender`\n    // has been approved by `from`.\n    function freeFrom(address from, uint256 value) public returns (bool success) {\n        address spender = msg.sender;\n        uint256 from_balance = s_balances[from];\n        if (value > from_balance) {\n            return false;\n        }\n\n        mapping(address => uint256) storage from_allowances = s_allowances[from];\n        uint256 spender_allowance = from_allowances[spender];\n        if (value > spender_allowance) {\n            return false;\n        }\n\n        freeStorage(value);\n\n        s_balances[from] = from_balance - value;\n        from_allowances[spender] = spender_allowance - value;\n\n        return true;\n    }\n\n    // Frees up to `value` sub-tokens owned by address `from`. Returns how many tokens were freed.\n    // Otherwise, identical to `freeFrom`.\n    function freeFromUpTo(address from, uint256 value) public returns (uint256 freed) {\n        address spender = msg.sender;\n        uint256 from_balance = s_balances[from];\n        if (value > from_balance) {\n            value = from_balance;\n        }\n\n        mapping(address => uint256) storage from_allowances = s_allowances[from];\n        uint256 spender_allowance = from_allowances[spender];\n        if (value > spender_allowance) {\n            value = spender_allowance;\n        }\n\n        freeStorage(value);\n\n        s_balances[from] = from_balance - value;\n        from_allowances[spender] = spender_allowance - value;\n\n        return value;\n    }\n}",
  "sourcePath": "/Users/bruce/dev/yieldprotocol/ytoken-mvp/contracts/external/gastoken/GasToken1.sol",
  "compiler": {
    "name": "solc",
    "version": "0.6.2+commit.bacdbe57.Emscripten.clang"
  },
  "schemaVersion": "3.0.23",
  "updatedAt": "2020-07-04T11:00:16.590Z",
  "networkType": "ethereum",
  "devdoc": {
    "methods": {}
  },
  "userdoc": {
    "methods": {}
  }
}