{
  "contractName": "GasToken1",
  "abi": [
    {
      "anonymous": false,
      "inputs": [
        {
          "indexed": true,
          "internalType": "address",
          "name": "owner",
          "type": "address"
        },
        {
          "indexed": true,
          "internalType": "address",
          "name": "spender",
          "type": "address"
        },
        {
          "indexed": false,
          "internalType": "uint256",
          "name": "value",
          "type": "uint256"
        }
      ],
      "name": "Approval",
      "type": "event"
    },
    {
      "anonymous": false,
      "inputs": [
        {
          "indexed": true,
          "internalType": "address",
          "name": "from",
          "type": "address"
        },
        {
          "indexed": true,
          "internalType": "address",
          "name": "to",
          "type": "address"
        },
        {
          "indexed": false,
          "internalType": "uint256",
          "name": "value",
          "type": "uint256"
        }
      ],
      "name": "Transfer",
      "type": "event"
    },
    {
      "inputs": [],
      "name": "decimals",
      "outputs": [
        {
          "internalType": "uint8",
          "name": "",
          "type": "uint8"
        }
      ],
      "stateMutability": "view",
      "type": "function",
      "constant": true
    },
    {
      "inputs": [],
      "name": "name",
      "outputs": [
        {
          "internalType": "string",
          "name": "",
          "type": "string"
        }
      ],
      "stateMutability": "view",
      "type": "function",
      "constant": true
    },
    {
      "inputs": [],
      "name": "symbol",
      "outputs": [
        {
          "internalType": "string",
          "name": "",
          "type": "string"
        }
      ],
      "stateMutability": "view",
      "type": "function",
      "constant": true
    },
    {
      "inputs": [
        {
          "internalType": "address",
          "name": "owner",
          "type": "address"
        }
      ],
      "name": "balanceOf",
      "outputs": [
        {
          "internalType": "uint256",
          "name": "balance",
          "type": "uint256"
        }
      ],
      "stateMutability": "view",
      "type": "function",
      "constant": true
    },
    {
      "inputs": [
        {
          "internalType": "address",
          "name": "to",
          "type": "address"
        },
        {
          "internalType": "uint256",
          "name": "value",
          "type": "uint256"
        }
      ],
      "name": "transfer",
      "outputs": [
        {
          "internalType": "bool",
          "name": "success",
          "type": "bool"
        }
      ],
      "stateMutability": "nonpayable",
      "type": "function"
    },
    {
      "inputs": [
        {
          "internalType": "address",
          "name": "from",
          "type": "address"
        },
        {
          "internalType": "address",
          "name": "to",
          "type": "address"
        },
        {
          "internalType": "uint256",
          "name": "value",
          "type": "uint256"
        }
      ],
      "name": "transferFrom",
      "outputs": [
        {
          "internalType": "bool",
          "name": "success",
          "type": "bool"
        }
      ],
      "stateMutability": "nonpayable",
      "type": "function"
    },
    {
      "inputs": [
        {
          "internalType": "address",
          "name": "spender",
          "type": "address"
        },
        {
          "internalType": "uint256",
          "name": "value",
          "type": "uint256"
        }
      ],
      "name": "approve",
      "outputs": [
        {
          "internalType": "bool",
          "name": "success",
          "type": "bool"
        }
      ],
      "stateMutability": "nonpayable",
      "type": "function"
    },
    {
      "inputs": [
        {
          "internalType": "address",
          "name": "owner",
          "type": "address"
        },
        {
          "internalType": "address",
          "name": "spender",
          "type": "address"
        }
      ],
      "name": "allowance",
      "outputs": [
        {
          "internalType": "uint256",
          "name": "remaining",
          "type": "uint256"
        }
      ],
      "stateMutability": "view",
      "type": "function",
      "constant": true
    },
    {
      "inputs": [],
      "name": "totalSupply",
      "outputs": [
        {
          "internalType": "uint256",
          "name": "supply",
          "type": "uint256"
        }
      ],
      "stateMutability": "view",
      "type": "function",
      "constant": true
    },
    {
      "inputs": [
        {
          "internalType": "uint256",
          "name": "value",
          "type": "uint256"
        }
      ],
      "name": "mint",
      "outputs": [],
      "stateMutability": "nonpayable",
      "type": "function"
    },
    {
      "inputs": [
        {
          "internalType": "uint256",
          "name": "value",
          "type": "uint256"
        }
      ],
      "name": "free",
      "outputs": [
        {
          "internalType": "bool",
          "name": "success",
          "type": "bool"
        }
      ],
      "stateMutability": "nonpayable",
      "type": "function"
    },
    {
      "inputs": [
        {
          "internalType": "uint256",
          "name": "value",
          "type": "uint256"
        }
      ],
      "name": "freeUpTo",
      "outputs": [
        {
          "internalType": "uint256",
          "name": "freed",
          "type": "uint256"
        }
      ],
      "stateMutability": "nonpayable",
      "type": "function"
    },
    {
      "inputs": [
        {
          "internalType": "address",
          "name": "from",
          "type": "address"
        },
        {
          "internalType": "uint256",
          "name": "value",
          "type": "uint256"
        }
      ],
      "name": "freeFrom",
      "outputs": [
        {
          "internalType": "bool",
          "name": "success",
          "type": "bool"
        }
      ],
      "stateMutability": "nonpayable",
      "type": "function"
    },
    {
      "inputs": [
        {
          "internalType": "address",
          "name": "from",
          "type": "address"
        },
        {
          "internalType": "uint256",
          "name": "value",
          "type": "uint256"
        }
      ],
      "name": "freeFromUpTo",
      "outputs": [
        {
          "internalType": "uint256",
          "name": "freed",
          "type": "uint256"
        }
      ],
      "stateMutability": "nonpayable",
      "type": "function"
    }
  ],
  "bytecode": "0x608060405234801561001057600080fd5b5061085a806100206000396000f3fe608060405234801561001057600080fd5b50600436106100ea5760003560e01c80636366b9361161008c578063a0712d6811610066578063a0712d68146102bd578063a9059cbb146102dc578063d8ccd0f314610308578063dd62ed3e14610325576100ea565b80636366b9361461027257806370a082311461028f57806395d89b41146102b5576100ea565b806318160ddd116100c857806318160ddd146101ea57806323b872dd146101f2578063313ce567146102285780635f2e2b4514610246576100ea565b806306fdde03146100ef578063079d229f1461016c578063095ea7b3146101aa575b600080fd5b6100f7610353565b6040805160208082528351818301528351919283929083019185019080838360005b83811015610131578181015183820152602001610119565b50505050905090810190601f16801561015e5780820380516001836020036101000a031916815260200191505b509250505060405180910390f35b6101986004803603604081101561018257600080fd5b506001600160a01b03813516906020013561037a565b60408051918252519081900360200190f35b6101d6600480360360408110156101c057600080fd5b506001600160a01b038135169060200135610419565b604080519115158252519081900360200190f35b6101986104c5565b6101d66004803603606081101561020857600080fd5b506001600160a01b038135811691602081013590911690604001356104ce565b61023061054e565b6040805160ff9092168252519081900360200190f35b6101d66004803603604081101561025c57600080fd5b506001600160a01b038135169060200135610553565b6101986004803603602081101561028857600080fd5b50356105ff565b610198600480360360208110156102a557600080fd5b50356001600160a01b0316610641565b6100f761065c565b6102da600480360360208110156102d357600080fd5b503561067c565b005b6101d6600480360360408110156102f257600080fd5b506001600160a01b0381351690602001356106d6565b6101d66004803603602081101561031e57600080fd5b50356106ec565b6101986004803603604081101561033b57600080fd5b506001600160a01b0381358116916020013516610732565b6040518060400160405280600b81526020016a476173746f6b656e2e696f60a81b81525081565b6001600160a01b0382166000908152602081905260408120543390808411156103a1578093505b6001600160a01b038086166000908152600160209081526040808320938616835290839052902054808611156103d5578095505b6103de8661075d565b6001600160a01b03808816600090815260208181526040808320968a9003909655959091168152919093522090839003905550805b92915050565b600033821580159061044f57506001600160a01b0380821660009081526001602090815260408083209388168352929052205415155b1561045e576000915050610413565b6001600160a01b03808216600081815260016020908152604080832094891680845294825291829020879055815187815291517f8c5be1e5ebec7d5bd14f71427d1e84f3dd0314c0f7b2291e5b200ac8c7c3b9259281900390910190a35060019392505050565b63deadbeef5490565b6001600160a01b038316600090815260016020908152604080832033808552925282205483118015906105075750610507858585610790565b15610541576001600160a01b0380861660009081526001602081815260408084209590941683529390935220805484900390559050610547565b60009150505b9392505050565b600281565b6001600160a01b03821660009081526020819052604081205433908084111561058157600092505050610413565b6001600160a01b038086166000908152600160209081526040808320938616835290839052902054808611156105be576000945050505050610413565b6105c78661075d565b6001600160a01b0396871660009081526020818152604080832095899003909555949097168752925290932091909203905550600190565b336000908152602081905260408120548083111561061b578092505b6106248361075d565b33600090815260208190526040902090839003905550805b919050565b6001600160a01b031660009081526020819052604090205490565b604051806040016040528060048152602001634753543160e01b81525081565b63deadbeef8161068c57506106d3565b805480820160018101908401818110156106a257fe5b815b8181116106b6576001808255016106a4565b505050820190553360009081526020819052604090208054820190555b50565b6000336106e4818585610790565b949350505050565b336000908152602081905260408120548083111561070e57600091505061063c565b6107178361075d565b33600090815260208190526040902092900390915550600190565b6001600160a01b03918216600090815260016020908152604080832093909416825291909152205490565b63deadbeef805463deadbef083820301818301815b8181116107855760008155600101610772565b505050919091039055565b6001600160a01b038316600090815260208190526040812054821161081c576001600160a01b0380851660008181526020818152604080832080548890039055938716808352918490208054870190558351868152935191937fddf252ad1be2c89b69c2b068fc378daa952ba7f163c4a11628f55a4df523b3ef929081900390910190a3506001610547565b50600061054756fea2646970667358221220fcb7310635c8ab6b9de461b546e33b3c0e2964502d1158b48fd78124cc6e05d164736f6c634300060a0033",
  "source": "// SPDX-License-Identifier: UNLICENSED\n// No standard license, but explicit permission to use: https://github.com/projectchicago/gastoken\npragma solidity ^0.6.0;\n\n\ncontract GasToken1 {\n    // Generic ERC20\n\n    // owner -> amount\n    mapping(address => uint256) s_balances;\n    // owner -> spender -> max amount\n    mapping(address => mapping(address => uint256)) s_allowances;\n\n    event Transfer(address indexed from, address indexed to, uint256 value);\n\n    event Approval(address indexed owner, address indexed spender, uint256 value);\n\n    // Spec: Get the account balance of another account with address `owner`\n    function balanceOf(address owner) public view returns (uint256 balance) {\n        return s_balances[owner];\n    }\n\n    function internalTransfer(address from, address to, uint256 value) internal returns (bool success) {\n        if (value <= s_balances[from]) {\n            s_balances[from] -= value;\n            s_balances[to] += value;\n            Transfer(from, to, value);\n            return true;\n        } else {\n            return false;\n        }\n    }\n\n    // Spec: Send `value` amount of tokens to address `to`\n    function transfer(address to, uint256 value) public returns (bool success) {\n        address from = msg.sender;\n        return internalTransfer(from, to, value);\n    }\n\n    // Spec: Send `value` amount of tokens from address `from` to address `to`\n    function transferFrom(address from, address to, uint256 value) public returns (bool success) {\n        address spender = msg.sender;\n        if(value <= s_allowances[from][spender] && internalTransfer(from, to, value)) {\n            s_allowances[from][spender] -= value;\n            return true;\n        } else {\n            return false;\n        }\n    }\n\n    // Spec: Allow `spender` to withdraw from your account, multiple times, up\n    // to the `value` amount. If this function is called again it overwrites the\n    // current allowance with `value`.\n    function approve(address spender, uint256 value) public returns (bool success) {\n        address owner = msg.sender;\n        if (value != 0 && s_allowances[owner][spender] != 0) {\n            return false;\n        }\n        s_allowances[owner][spender] = value;\n        Approval(owner, spender, value);\n        return true;\n    }\n\n    // Spec: Returns the `amount` which `spender` is still allowed to withdraw\n    // from `owner`.\n    // What if the allowance is higher than the balance of the `owner`?\n    // Callers should be careful to use min(allowance, balanceOf) to make sure\n    // that the allowance is actually present in the account!\n    function allowance(address owner, address spender) public view returns (uint256 remaining) {\n        return s_allowances[owner][spender];\n    }\n\n    // GasToken specifics\n\n    uint8 constant public decimals = 2;\n    string constant public name = \"Gastoken.io\";\n    string constant public symbol = \"GST1\";\n\n    // We start our storage at this location. The EVM word at this location\n    // contains the number of stored words. The stored words follow at\n    // locations (STORAGE_LOCATION_ARRAY+1), (STORAGE_LOCATION_ARRAY+2), ...\n    uint256 constant STORAGE_LOCATION_ARRAY = 0xDEADBEEF;\n\n\n    // totalSupply is the number of words we have in storage\n    function totalSupply() public view returns (uint256 supply) {\n        uint256 storage_location_array = STORAGE_LOCATION_ARRAY;\n        assembly {\n            supply := sload(storage_location_array)\n        }\n    }\n\n    // Mints `value` new sub-tokens (e.g. cents, pennies, ...) by filling up\n    // `value` words of EVM storage. The minted tokens are owned by the\n    // caller of this function.\n    function mint(uint256 value) public {\n        uint256 storage_location_array = STORAGE_LOCATION_ARRAY;  // can't use constants inside assembly\n\n        if (value == 0) {\n            return;\n        }\n\n        // Read supply\n        uint256 supply;\n        assembly {\n            supply := sload(storage_location_array)\n        }\n\n        // Set memory locations in interval [l, r]\n        uint256 l = storage_location_array + supply + 1;\n        uint256 r = storage_location_array + supply + value;\n        assert(r >= l);\n\n        for (uint256 i = l; i <= r; i++) {\n            assembly {\n                sstore(i, 1)\n            }\n        }\n\n        // Write updated supply & balance\n        assembly {\n            sstore(storage_location_array, add(supply, value))\n        }\n        s_balances[msg.sender] += value;\n    }\n\n    function freeStorage(uint256 value) internal {\n        uint256 storage_location_array = STORAGE_LOCATION_ARRAY;  // can't use constants inside assembly\n\n        // Read supply\n        uint256 supply;\n        assembly {\n            supply := sload(storage_location_array)\n        }\n\n        // Clear memory locations in interval [l, r]\n        uint256 l = storage_location_array + supply - value + 1;\n        uint256 r = storage_location_array + supply;\n        for (uint256 i = l; i <= r; i++) {\n            assembly {\n                sstore(i, 0)\n            }\n        }\n\n        // Write updated supply\n        assembly {\n            sstore(storage_location_array, sub(supply, value))\n        }\n    }\n\n    // Frees `value` sub-tokens (e.g. cents, pennies, ...) belonging to the\n    // caller of this function by clearing value words of EVM storage, which\n    // will trigger a partial gas refund.\n    function free(uint256 value) public returns (bool success) {\n        uint256 from_balance = s_balances[msg.sender];\n        if (value > from_balance) {\n            return false;\n        }\n\n        freeStorage(value);\n\n        s_balances[msg.sender] = from_balance - value;\n\n        return true;\n    }\n\n    // Frees up to `value` sub-tokens. Returns how many tokens were freed.\n    // Otherwise, identical to free.\n    function freeUpTo(uint256 value) public returns (uint256 freed) {\n        uint256 from_balance = s_balances[msg.sender];\n        if (value > from_balance) {\n            value = from_balance;\n        }\n\n        freeStorage(value);\n\n        s_balances[msg.sender] = from_balance - value;\n\n        return value;\n    }\n\n    // Frees `value` sub-tokens owned by address `from`. Requires that `msg.sender`\n    // has been approved by `from`.\n    function freeFrom(address from, uint256 value) public returns (bool success) {\n        address spender = msg.sender;\n        uint256 from_balance = s_balances[from];\n        if (value > from_balance) {\n            return false;\n        }\n\n        mapping(address => uint256) storage from_allowances = s_allowances[from];\n        uint256 spender_allowance = from_allowances[spender];\n        if (value > spender_allowance) {\n            return false;\n        }\n\n        freeStorage(value);\n\n        s_balances[from] = from_balance - value;\n        from_allowances[spender] = spender_allowance - value;\n\n        return true;\n    }\n\n    // Frees up to `value` sub-tokens owned by address `from`. Returns how many tokens were freed.\n    // Otherwise, identical to `freeFrom`.\n    function freeFromUpTo(address from, uint256 value) public returns (uint256 freed) {\n        address spender = msg.sender;\n        uint256 from_balance = s_balances[from];\n        if (value > from_balance) {\n            value = from_balance;\n        }\n\n        mapping(address => uint256) storage from_allowances = s_allowances[from];\n        uint256 spender_allowance = from_allowances[spender];\n        if (value > spender_allowance) {\n            value = spender_allowance;\n        }\n\n        freeStorage(value);\n\n        s_balances[from] = from_balance - value;\n        from_allowances[spender] = spender_allowance - value;\n\n        return value;\n    }\n}",
  "sourcePath": "/Users/bruce/dev/yieldprotocol/ytoken-mvp/contracts/external/gastoken/GasToken1.sol",
  "compiler": {
    "name": "solc",
    "version": "0.6.10+commit.00c0fcaf.Emscripten.clang"
  },
  "schemaVersion": "3.0.23",
  "updatedAt": "2020-07-15T08:10:31.150Z",
  "networkType": "ethereum",
  "devdoc": {
    "methods": {}
  },
  "userdoc": {
    "methods": {}
  }
}