{
  "contractName": "GemJoin",
  "abi": [
    {
      "inputs": [
        {
          "internalType": "address",
          "name": "vat_",
          "type": "address"
        },
        {
          "internalType": "bytes32",
          "name": "ilk_",
          "type": "bytes32"
        },
        {
          "internalType": "address",
          "name": "gem_",
          "type": "address"
        }
      ],
      "stateMutability": "nonpayable",
      "type": "constructor"
    },
    {
      "anonymous": true,
      "inputs": [
        {
          "indexed": true,
          "internalType": "bytes4",
          "name": "sig",
          "type": "bytes4"
        },
        {
          "indexed": true,
          "internalType": "address",
          "name": "usr",
          "type": "address"
        },
        {
          "indexed": true,
          "internalType": "bytes32",
          "name": "arg1",
          "type": "bytes32"
        },
        {
          "indexed": true,
          "internalType": "bytes32",
          "name": "arg2",
          "type": "bytes32"
        },
        {
          "indexed": false,
          "internalType": "bytes",
          "name": "data",
          "type": "bytes"
        }
      ],
      "name": "LogNote",
      "type": "event"
    },
    {
      "inputs": [],
      "name": "dec",
      "outputs": [
        {
          "internalType": "uint256",
          "name": "",
          "type": "uint256"
        }
      ],
      "stateMutability": "view",
      "type": "function",
      "constant": true
    },
    {
      "inputs": [],
      "name": "gem",
      "outputs": [
        {
          "internalType": "contract GemLike",
          "name": "",
          "type": "address"
        }
      ],
      "stateMutability": "view",
      "type": "function",
      "constant": true
    },
    {
      "inputs": [],
      "name": "ilk",
      "outputs": [
        {
          "internalType": "bytes32",
          "name": "",
          "type": "bytes32"
        }
      ],
      "stateMutability": "view",
      "type": "function",
      "constant": true
    },
    {
      "inputs": [],
      "name": "live",
      "outputs": [
        {
          "internalType": "uint256",
          "name": "",
          "type": "uint256"
        }
      ],
      "stateMutability": "view",
      "type": "function",
      "constant": true
    },
    {
      "inputs": [],
      "name": "vat",
      "outputs": [
        {
          "internalType": "contract VatLike",
          "name": "",
          "type": "address"
        }
      ],
      "stateMutability": "view",
      "type": "function",
      "constant": true
    },
    {
      "inputs": [
        {
          "internalType": "address",
          "name": "",
          "type": "address"
        }
      ],
      "name": "wards",
      "outputs": [
        {
          "internalType": "uint256",
          "name": "",
          "type": "uint256"
        }
      ],
      "stateMutability": "view",
      "type": "function",
      "constant": true
    },
    {
      "inputs": [
        {
          "internalType": "address",
          "name": "usr",
          "type": "address"
        }
      ],
      "name": "rely",
      "outputs": [],
      "stateMutability": "nonpayable",
      "type": "function"
    },
    {
      "inputs": [
        {
          "internalType": "address",
          "name": "usr",
          "type": "address"
        }
      ],
      "name": "deny",
      "outputs": [],
      "stateMutability": "nonpayable",
      "type": "function"
    },
    {
      "inputs": [],
      "name": "cage",
      "outputs": [],
      "stateMutability": "nonpayable",
      "type": "function"
    },
    {
      "inputs": [
        {
          "internalType": "address",
          "name": "usr",
          "type": "address"
        },
        {
          "internalType": "uint256",
          "name": "wad",
          "type": "uint256"
        }
      ],
      "name": "join",
      "outputs": [],
      "stateMutability": "nonpayable",
      "type": "function"
    },
    {
      "inputs": [
        {
          "internalType": "address",
          "name": "usr",
          "type": "address"
        },
        {
          "internalType": "uint256",
          "name": "wad",
          "type": "uint256"
        }
      ],
      "name": "exit",
      "outputs": [],
      "stateMutability": "nonpayable",
      "type": "function"
    }
  ],
  "bytecode": "0x608060405234801561001057600080fd5b506040516107a63803806107a68339818101604052606081101561003357600080fd5b508051602080830151604093840151336000908152808452859020600190819055600581905580546001600160a01b038087166001600160a01b03199283161790925560028490556003805483851692169190911790819055865163313ce56760e01b8152965195969395929491169263313ce5679260048281019392829003018186803b1580156100c457600080fd5b505afa1580156100d8573d6000803e3d6000fd5b505050506040513d60208110156100ee57600080fd5b50516004555050506106a1806101056000396000f3fe608060405234801561001057600080fd5b50600436106100a95760003560e01c8063957aa58c11610071578063957aa58c146101365780639c52a7f114610150578063b3bcfa8214610176578063bf353dbb1461017e578063c5ce281e146101a4578063ef693bed146101ac576100a9565b806336569e77146100ae5780633b4da69f146100d257806365fae35e1461010057806369245009146101265780637bd2bea71461012e575b600080fd5b6100b66101d8565b604080516001600160a01b039092168252519081900360200190f35b6100fe600480360360408110156100e857600080fd5b506001600160a01b0381351690602001356101e7565b005b6100fe6004803603602081101561011657600080fd5b50356001600160a01b03166103cc565b6100fe610446565b6100b66104aa565b61013e6104b9565b60408051918252519081900360200190f35b6100fe6004803603602081101561016657600080fd5b50356001600160a01b03166104bf565b61013e610536565b61013e6004803603602081101561019457600080fd5b50356001600160a01b031661053c565b61013e61054e565b6100fe600480360360408110156101c257600080fd5b506001600160a01b038135169060200135610554565b6001546001600160a01b031681565b600554600114610231576040805162461bcd60e51b815260206004820152601060248201526f47656d4a6f696e2f6e6f742d6c69766560801b604482015290519081900360640190fd5b600081121561027a576040805162461bcd60e51b815260206004820152601060248201526f47656d4a6f696e2f6f766572666c6f7760801b604482015290519081900360640190fd5b60015460025460408051633e6e9fef60e11b815260048101929092526001600160a01b038581166024840152604483018590529051921691637cdd3fde9160648082019260009290919082900301818387803b1580156102d957600080fd5b505af11580156102ed573d6000803e3d6000fd5b5050600354604080516323b872dd60e01b81523360048201523060248201526044810186905290516001600160a01b0390921693506323b872dd92506064808201926020929091908290030181600087803b15801561034b57600080fd5b505af115801561035f573d6000803e3d6000fd5b505050506040513d602081101561037557600080fd5b50516103c8576040805162461bcd60e51b815260206004820152601760248201527f47656d4a6f696e2f6661696c65642d7472616e73666572000000000000000000604482015290519081900360640190fd5b5050565b33600090815260208190526040902054600114610429576040805162461bcd60e51b815260206004820152601660248201527511d95b529bda5b8bdb9bdd0b585d5d1a1bdc9a5e995960521b604482015290519081900360640190fd5b6001600160a01b0316600090815260208190526040902060019055565b336000908152602081905260409020546001146104a3576040805162461bcd60e51b815260206004820152601660248201527511d95b529bda5b8bdb9bdd0b585d5d1a1bdc9a5e995960521b604482015290519081900360640190fd5b6000600555565b6003546001600160a01b031681565b60055481565b3360009081526020819052604090205460011461051c576040805162461bcd60e51b815260206004820152601660248201527511d95b529bda5b8bdb9bdd0b585d5d1a1bdc9a5e995960521b604482015290519081900360640190fd5b6001600160a01b0316600090815260208190526040812055565b60045481565b60006020819052908152604090205481565b60025481565b600160ff1b8111156105a0576040805162461bcd60e51b815260206004820152601060248201526f47656d4a6f696e2f6f766572666c6f7760801b604482015290519081900360640190fd5b60015460025460408051633e6e9fef60e11b815260048101929092523360248301526000848103604484015290516001600160a01b0390931692637cdd3fde92606480820193929182900301818387803b1580156105fd57600080fd5b505af1158015610611573d6000803e3d6000fd5b50506003546040805163a9059cbb60e01b81526001600160a01b03878116600483015260248201879052915191909216935063a9059cbb925060448083019260209291908290030181600087803b15801561034b57600080fdfea2646970667358221220edfda4bd8d5cd6b1dd0582c4fb96d7a85aae96843bf45d9ec4ff68e5ed003aa864736f6c634300060a0033",
  "immutableReferences": {},
  "source": "// SPDX-License-Identifier: AGPL-3.0-or-later\n/// join.sol -- Basic token adapters\n\n// Copyright (C) 2018 Rain <rainbreak@riseup.net>\n//\n// This program is free software: you can redistribute it and/or modify\n// it under the terms of the GNU Affero General Public License as published by\n// the Free Software Foundation, either version 3 of the License, or\n// (at your option) any later version.\n//\n// This program is distributed in the hope that it will be useful,\n// but WITHOUT ANY WARRANTY; without even the implied warranty of\n// MERCHANTABILITY or FITNESS FOR A PARTICULAR PURPOSE.  See the\n// GNU Affero General Public License for more details.\n//\n// You should have received a copy of the GNU Affero General Public License\n// along with this program.  If not, see <https://www.gnu.org/licenses/>.\n\npragma solidity ^0.6.0;\n\nimport \"./lib.sol\";\n\ninterface GemLike {\n    function decimals() external view returns (uint);\n    function transfer(address,uint) external returns (bool);\n    function transferFrom(address,address,uint) external returns (bool);\n}\n\ninterface DSTokenLike {\n    function mint(address,uint) external;\n    function burn(address,uint) external;\n}\n\ninterface VatLike {\n    function slip(bytes32,address,int) external;\n    function move(address,address,uint) external;\n}\n\n/*\n    Here we provide *adapters* to connect the Vat to arbitrary external\n    token implementations, creating a bounded context for the Vat. The\n    adapters here are provided as working examples:\n\n      - `GemJoin`: For well behaved ERC20 tokens, with simple transfer\n                   semantics.\n\n      - `ETHJoin`: For native Ether.\n\n      - `DaiJoin`: For connecting internal Dai balances to an external\n                   `DSToken` implementation.\n\n    In practice, adapter implementations will be varied and specific to\n    individual collateral types, accounting for different transfer\n    semantics and token standards.\n\n    Adapters need to implement two basic methods:\n\n      - `join`: enter collateral into the system\n      - `exit`: remove collateral from the system\n\n*/\n\ncontract GemJoin is LibNote {\n    // --- Auth ---\n    mapping (address => uint) public wards;\n    function rely(address usr) external note auth { wards[usr] = 1; }\n    function deny(address usr) external note auth { wards[usr] = 0; }\n    modifier auth {\n        require(wards[msg.sender] == 1, \"GemJoin/not-authorized\");\n        _;\n    }\n\n    VatLike public vat;\n    bytes32 public ilk;\n    GemLike public gem;\n    uint    public dec;\n    uint    public live;  // Access Flag\n\n    constructor(address vat_, bytes32 ilk_, address gem_) public {\n        wards[msg.sender] = 1;\n        live = 1;\n        vat = VatLike(vat_);\n        ilk = ilk_;\n        gem = GemLike(gem_);\n        dec = gem.decimals();\n    }\n    function cage() external note auth {\n        live = 0;\n    }\n    function join(address usr, uint wad) external note {\n        require(live == 1, \"GemJoin/not-live\");\n        require(int(wad) >= 0, \"GemJoin/overflow\");\n        vat.slip(ilk, usr, int(wad));\n        require(gem.transferFrom(msg.sender, address(this), wad), \"GemJoin/failed-transfer\");\n    }\n    function exit(address usr, uint wad) external note {\n        require(wad <= 2 ** 255, \"GemJoin/overflow\");\n        vat.slip(ilk, msg.sender, -int(wad));\n        require(gem.transfer(usr, wad), \"GemJoin/failed-transfer\");\n    }\n}\n\ncontract ETHJoin is LibNote {\n    // --- Auth ---\n    mapping (address => uint) public wards;\n    function rely(address usr) external note auth { wards[usr] = 1; }\n    function deny(address usr) external note auth { wards[usr] = 0; }\n    modifier auth {\n        require(wards[msg.sender] == 1, \"ETHJoin/not-authorized\");\n        _;\n    }\n\n    VatLike public vat;\n    bytes32 public ilk;\n    uint    public live;  // Access Flag\n\n    constructor(address vat_, bytes32 ilk_) public {\n        wards[msg.sender] = 1;\n        live = 1;\n        vat = VatLike(vat_);\n        ilk = ilk_;\n    }\n    function cage() external note auth {\n        live = 0;\n    }\n    function join(address usr) external payable note {\n        require(live == 1, \"ETHJoin/not-live\");\n        require(int(msg.value) >= 0, \"ETHJoin/overflow\");\n        vat.slip(ilk, usr, int(msg.value));\n    }\n    function exit(address payable usr, uint wad) external note {\n        require(int(wad) >= 0, \"ETHJoin/overflow\");\n        vat.slip(ilk, msg.sender, -int(wad));\n        usr.transfer(wad);\n    }\n}\n\ncontract DaiJoin is LibNote {\n    // --- Auth ---\n    mapping (address => uint) public wards;\n    function rely(address usr) external note auth { wards[usr] = 1; }\n    function deny(address usr) external note auth { wards[usr] = 0; }\n    modifier auth {\n        require(wards[msg.sender] == 1, \"DaiJoin/not-authorized\");\n        _;\n    }\n\n    VatLike public vat;\n    DSTokenLike public dai;\n    uint    public live;  // Access Flag\n\n    constructor(address vat_, address dai_) public {\n        wards[msg.sender] = 1;\n        live = 1;\n        vat = VatLike(vat_);\n        dai = DSTokenLike(dai_);\n    }\n    function cage() external note auth {\n        live = 0;\n    }\n    uint constant ONE = 10 ** 27;\n    function mul(uint x, uint y) internal pure returns (uint z) {\n        require(y == 0 || (z = x * y) / y == x);\n    }\n    function join(address usr, uint wad) external note {\n        vat.move(address(this), usr, mul(ONE, wad));\n        dai.burn(msg.sender, wad);\n    }\n    function exit(address usr, uint wad) external note {\n        require(live == 1, \"DaiJoin/not-live\");\n        vat.move(msg.sender, address(this), mul(ONE, wad));\n        dai.mint(usr, wad);\n    }\n}",
  "sourcePath": "/Users/brucedonovan/dev/yield/yDai/contracts/external/maker/join.sol",
  "compiler": {
    "name": "solc",
    "version": "0.6.10+commit.00c0fcaf.Emscripten.clang"
  },
  "schemaVersion": "3.2.3",
  "updatedAt": "2020-09-14T08:49:56.625Z",
  "networkType": "ethereum",
  "devdoc": {
    "methods": {}
  },
  "userdoc": {
    "methods": {}
  }
}