{
  "contractName": "GemJoin",
  "abi": [
    {
      "inputs": [
        {
          "internalType": "address",
          "name": "vat_",
          "type": "address"
        },
        {
          "internalType": "bytes32",
          "name": "ilk_",
          "type": "bytes32"
        },
        {
          "internalType": "address",
          "name": "gem_",
          "type": "address"
        }
      ],
      "stateMutability": "nonpayable",
      "type": "constructor"
    },
    {
      "anonymous": true,
      "inputs": [
        {
          "indexed": true,
          "internalType": "bytes4",
          "name": "sig",
          "type": "bytes4"
        },
        {
          "indexed": true,
          "internalType": "address",
          "name": "usr",
          "type": "address"
        },
        {
          "indexed": true,
          "internalType": "bytes32",
          "name": "arg1",
          "type": "bytes32"
        },
        {
          "indexed": true,
          "internalType": "bytes32",
          "name": "arg2",
          "type": "bytes32"
        },
        {
          "indexed": false,
          "internalType": "bytes",
          "name": "data",
          "type": "bytes"
        }
      ],
      "name": "LogNote",
      "type": "event"
    },
    {
      "inputs": [],
      "name": "dec",
      "outputs": [
        {
          "internalType": "uint256",
          "name": "",
          "type": "uint256"
        }
      ],
      "stateMutability": "view",
      "type": "function",
      "constant": true
    },
    {
      "inputs": [],
      "name": "gem",
      "outputs": [
        {
          "internalType": "contract GemLike",
          "name": "",
          "type": "address"
        }
      ],
      "stateMutability": "view",
      "type": "function",
      "constant": true
    },
    {
      "inputs": [],
      "name": "ilk",
      "outputs": [
        {
          "internalType": "bytes32",
          "name": "",
          "type": "bytes32"
        }
      ],
      "stateMutability": "view",
      "type": "function",
      "constant": true
    },
    {
      "inputs": [],
      "name": "live",
      "outputs": [
        {
          "internalType": "uint256",
          "name": "",
          "type": "uint256"
        }
      ],
      "stateMutability": "view",
      "type": "function",
      "constant": true
    },
    {
      "inputs": [],
      "name": "vat",
      "outputs": [
        {
          "internalType": "contract VatLike",
          "name": "",
          "type": "address"
        }
      ],
      "stateMutability": "view",
      "type": "function",
      "constant": true
    },
    {
      "inputs": [
        {
          "internalType": "address",
          "name": "",
          "type": "address"
        }
      ],
      "name": "wards",
      "outputs": [
        {
          "internalType": "uint256",
          "name": "",
          "type": "uint256"
        }
      ],
      "stateMutability": "view",
      "type": "function",
      "constant": true
    },
    {
      "inputs": [
        {
          "internalType": "address",
          "name": "usr",
          "type": "address"
        }
      ],
      "name": "rely",
      "outputs": [],
      "stateMutability": "nonpayable",
      "type": "function"
    },
    {
      "inputs": [
        {
          "internalType": "address",
          "name": "usr",
          "type": "address"
        }
      ],
      "name": "deny",
      "outputs": [],
      "stateMutability": "nonpayable",
      "type": "function"
    },
    {
      "inputs": [],
      "name": "cage",
      "outputs": [],
      "stateMutability": "nonpayable",
      "type": "function"
    },
    {
      "inputs": [
        {
          "internalType": "address",
          "name": "usr",
          "type": "address"
        },
        {
          "internalType": "uint256",
          "name": "wad",
          "type": "uint256"
        }
      ],
      "name": "join",
      "outputs": [],
      "stateMutability": "nonpayable",
      "type": "function"
    },
    {
      "inputs": [
        {
          "internalType": "address",
          "name": "usr",
          "type": "address"
        },
        {
          "internalType": "uint256",
          "name": "wad",
          "type": "uint256"
        }
      ],
      "name": "exit",
      "outputs": [],
      "stateMutability": "nonpayable",
      "type": "function"
    }
  ],
  "bytecode": "0x608060405234801561001057600080fd5b50604051610e70380380610e708339818101604052606081101561003357600080fd5b8101908080519060200190929190805190602001909291908051906020019092919050505060016000803373ffffffffffffffffffffffffffffffffffffffff1673ffffffffffffffffffffffffffffffffffffffff16815260200190815260200160002081905550600160058190555082600160006101000a81548173ffffffffffffffffffffffffffffffffffffffff021916908373ffffffffffffffffffffffffffffffffffffffff1602179055508160028190555080600360006101000a81548173ffffffffffffffffffffffffffffffffffffffff021916908373ffffffffffffffffffffffffffffffffffffffff160217905550600360009054906101000a900473ffffffffffffffffffffffffffffffffffffffff1673ffffffffffffffffffffffffffffffffffffffff1663313ce5676040518163ffffffff1660e01b815260040160206040518083038186803b15801561019557600080fd5b505afa1580156101a9573d6000803e3d6000fd5b505050506040513d60208110156101bf57600080fd5b8101908080519060200190929190505050600481905550505050610c88806101e86000396000f3fe608060405234801561001057600080fd5b50600436106100a95760003560e01c8063957aa58c11610071578063957aa58c146101de5780639c52a7f1146101fc578063b3bcfa8214610240578063bf353dbb1461025e578063c5ce281e146102b6578063ef693bed146102d4576100a9565b806336569e77146100ae5780633b4da69f146100f857806365fae35e14610146578063692450091461018a5780637bd2bea714610194575b600080fd5b6100b6610322565b604051808273ffffffffffffffffffffffffffffffffffffffff1673ffffffffffffffffffffffffffffffffffffffff16815260200191505060405180910390f35b6101446004803603604081101561010e57600080fd5b81019080803573ffffffffffffffffffffffffffffffffffffffff16906020019092919080359060200190929190505050610348565b005b6101886004803603602081101561015c57600080fd5b81019080803573ffffffffffffffffffffffffffffffffffffffff169060200190929190505050610690565b005b61019261078b565b005b61019c610849565b604051808273ffffffffffffffffffffffffffffffffffffffff1673ffffffffffffffffffffffffffffffffffffffff16815260200191505060405180910390f35b6101e661086f565b6040518082815260200191505060405180910390f35b61023e6004803603602081101561021257600080fd5b81019080803573ffffffffffffffffffffffffffffffffffffffff169060200190929190505050610875565b005b610248610970565b6040518082815260200191505060405180910390f35b6102a06004803603602081101561027457600080fd5b81019080803573ffffffffffffffffffffffffffffffffffffffff169060200190929190505050610976565b6040518082815260200191505060405180910390f35b6102be61098e565b6040518082815260200191505060405180910390f35b610320600480360360408110156102ea57600080fd5b81019080803573ffffffffffffffffffffffffffffffffffffffff16906020019092919080359060200190929190505050610994565b005b600160009054906101000a900473ffffffffffffffffffffffffffffffffffffffff1681565b6001600554146103c0576040517f08c379a00000000000000000000000000000000000000000000000000000000081526004018080602001828103825260108152602001807f47656d4a6f696e2f6e6f742d6c6976650000000000000000000000000000000081525060200191505060405180910390fd5b6000811215610437576040517f08c379a00000000000000000000000000000000000000000000000000000000081526004018080602001828103825260108152602001807f47656d4a6f696e2f6f766572666c6f770000000000000000000000000000000081525060200191505060405180910390fd5b600160009054906101000a900473ffffffffffffffffffffffffffffffffffffffff1673ffffffffffffffffffffffffffffffffffffffff16637cdd3fde60025484846040518463ffffffff1660e01b8152600401808481526020018373ffffffffffffffffffffffffffffffffffffffff1673ffffffffffffffffffffffffffffffffffffffff1681526020018281526020019350505050600060405180830381600087803b1580156104ea57600080fd5b505af11580156104fe573d6000803e3d6000fd5b50505050600360009054906101000a900473ffffffffffffffffffffffffffffffffffffffff1673ffffffffffffffffffffffffffffffffffffffff166323b872dd3330846040518463ffffffff1660e01b8152600401808473ffffffffffffffffffffffffffffffffffffffff1673ffffffffffffffffffffffffffffffffffffffff1681526020018373ffffffffffffffffffffffffffffffffffffffff1673ffffffffffffffffffffffffffffffffffffffff1681526020018281526020019350505050602060405180830381600087803b1580156105df57600080fd5b505af11580156105f3573d6000803e3d6000fd5b505050506040513d602081101561060957600080fd5b810190808051906020019092919050505061068c576040517f08c379a00000000000000000000000000000000000000000000000000000000081526004018080602001828103825260178152602001807f47656d4a6f696e2f6661696c65642d7472616e7366657200000000000000000081525060200191505060405180910390fd5b5050565b60016000803373ffffffffffffffffffffffffffffffffffffffff1673ffffffffffffffffffffffffffffffffffffffff1681526020019081526020016000205414610744576040517f08c379a00000000000000000000000000000000000000000000000000000000081526004018080602001828103825260168152602001807f47656d4a6f696e2f6e6f742d617574686f72697a65640000000000000000000081525060200191505060405180910390fd5b60016000808373ffffffffffffffffffffffffffffffffffffffff1673ffffffffffffffffffffffffffffffffffffffff1681526020019081526020016000208190555050565b60016000803373ffffffffffffffffffffffffffffffffffffffff1673ffffffffffffffffffffffffffffffffffffffff168152602001908152602001600020541461083f576040517f08c379a00000000000000000000000000000000000000000000000000000000081526004018080602001828103825260168152602001807f47656d4a6f696e2f6e6f742d617574686f72697a65640000000000000000000081525060200191505060405180910390fd5b6000600581905550565b600360009054906101000a900473ffffffffffffffffffffffffffffffffffffffff1681565b60055481565b60016000803373ffffffffffffffffffffffffffffffffffffffff1673ffffffffffffffffffffffffffffffffffffffff1681526020019081526020016000205414610929576040517f08c379a00000000000000000000000000000000000000000000000000000000081526004018080602001828103825260168152602001807f47656d4a6f696e2f6e6f742d617574686f72697a65640000000000000000000081525060200191505060405180910390fd5b60008060008373ffffffffffffffffffffffffffffffffffffffff1673ffffffffffffffffffffffffffffffffffffffff1681526020019081526020016000208190555050565b60045481565b60006020528060005260406000206000915090505481565b60025481565b7f8000000000000000000000000000000000000000000000000000000000000000811115610a2a576040517f08c379a00000000000000000000000000000000000000000000000000000000081526004018080602001828103825260108152602001807f47656d4a6f696e2f6f766572666c6f770000000000000000000000000000000081525060200191505060405180910390fd5b600160009054906101000a900473ffffffffffffffffffffffffffffffffffffffff1673ffffffffffffffffffffffffffffffffffffffff16637cdd3fde60025433846000036040518463ffffffff1660e01b8152600401808481526020018373ffffffffffffffffffffffffffffffffffffffff1673ffffffffffffffffffffffffffffffffffffffff1681526020018281526020019350505050600060405180830381600087803b158015610ae057600080fd5b505af1158015610af4573d6000803e3d6000fd5b50505050600360009054906101000a900473ffffffffffffffffffffffffffffffffffffffff1673ffffffffffffffffffffffffffffffffffffffff1663a9059cbb83836040518363ffffffff1660e01b8152600401808373ffffffffffffffffffffffffffffffffffffffff1673ffffffffffffffffffffffffffffffffffffffff16815260200182815260200192505050602060405180830381600087803b158015610ba157600080fd5b505af1158015610bb5573d6000803e3d6000fd5b505050506040513d6020811015610bcb57600080fd5b8101908080519060200190929190505050610c4e576040517f08c379a00000000000000000000000000000000000000000000000000000000081526004018080602001828103825260178152602001807f47656d4a6f696e2f6661696c65642d7472616e7366657200000000000000000081525060200191505060405180910390fd5b505056fea26469706673582212203989e9d50750748cfebc0558fc9660342242e638142b63c0f04cce88eb9ecbb064736f6c63430006020033",
  "source": "/// join.sol -- Basic token adapters\n\n// Copyright (C) 2018 Rain <rainbreak@riseup.net>\n//\n// This program is free software: you can redistribute it and/or modify\n// it under the terms of the GNU Affero General Public License as published by\n// the Free Software Foundation, either version 3 of the License, or\n// (at your option) any later version.\n//\n// This program is distributed in the hope that it will be useful,\n// but WITHOUT ANY WARRANTY; without even the implied warranty of\n// MERCHANTABILITY or FITNESS FOR A PARTICULAR PURPOSE.  See the\n// GNU Affero General Public License for more details.\n//\n// You should have received a copy of the GNU Affero General Public License\n// along with this program.  If not, see <https://www.gnu.org/licenses/>.\n\npragma solidity ^0.6.0;\n\nimport \"./lib.sol\";\n\ninterface GemLike {\n    function decimals() external view returns (uint);\n    function transfer(address,uint) external returns (bool);\n    function transferFrom(address,address,uint) external returns (bool);\n}\n\ninterface DSTokenLike {\n    function mint(address,uint) external;\n    function burn(address,uint) external;\n}\n\ninterface VatLike {\n    function slip(bytes32,address,int) external;\n    function move(address,address,uint) external;\n}\n\n/*\n    Here we provide *adapters* to connect the Vat to arbitrary external\n    token implementations, creating a bounded context for the Vat. The\n    adapters here are provided as working examples:\n\n      - `GemJoin`: For well behaved ERC20 tokens, with simple transfer\n                   semantics.\n\n      - `ETHJoin`: For native Ether.\n\n      - `DaiJoin`: For connecting internal Dai balances to an external\n                   `DSToken` implementation.\n\n    In practice, adapter implementations will be varied and specific to\n    individual collateral types, accounting for different transfer\n    semantics and token standards.\n\n    Adapters need to implement two basic methods:\n\n      - `join`: enter collateral into the system\n      - `exit`: remove collateral from the system\n\n*/\n\ncontract GemJoin is LibNote {\n    // --- Auth ---\n    mapping (address => uint) public wards;\n    function rely(address usr) external note auth { wards[usr] = 1; }\n    function deny(address usr) external note auth { wards[usr] = 0; }\n    modifier auth {\n        require(wards[msg.sender] == 1, \"GemJoin/not-authorized\");\n        _;\n    }\n\n    VatLike public vat;\n    bytes32 public ilk;\n    GemLike public gem;\n    uint    public dec;\n    uint    public live;  // Access Flag\n\n    constructor(address vat_, bytes32 ilk_, address gem_) public {\n        wards[msg.sender] = 1;\n        live = 1;\n        vat = VatLike(vat_);\n        ilk = ilk_;\n        gem = GemLike(gem_);\n        dec = gem.decimals();\n    }\n    function cage() external note auth {\n        live = 0;\n    }\n    function join(address usr, uint wad) external note {\n        require(live == 1, \"GemJoin/not-live\");\n        require(int(wad) >= 0, \"GemJoin/overflow\");\n        vat.slip(ilk, usr, int(wad));\n        require(gem.transferFrom(msg.sender, address(this), wad), \"GemJoin/failed-transfer\");\n    }\n    function exit(address usr, uint wad) external note {\n        require(wad <= 2 ** 255, \"GemJoin/overflow\");\n        vat.slip(ilk, msg.sender, -int(wad));\n        require(gem.transfer(usr, wad), \"GemJoin/failed-transfer\");\n    }\n}\n\ncontract ETHJoin is LibNote {\n    // --- Auth ---\n    mapping (address => uint) public wards;\n    function rely(address usr) external note auth { wards[usr] = 1; }\n    function deny(address usr) external note auth { wards[usr] = 0; }\n    modifier auth {\n        require(wards[msg.sender] == 1, \"ETHJoin/not-authorized\");\n        _;\n    }\n\n    VatLike public vat;\n    bytes32 public ilk;\n    uint    public live;  // Access Flag\n\n    constructor(address vat_, bytes32 ilk_) public {\n        wards[msg.sender] = 1;\n        live = 1;\n        vat = VatLike(vat_);\n        ilk = ilk_;\n    }\n    function cage() external note auth {\n        live = 0;\n    }\n    function join(address usr) external payable note {\n        require(live == 1, \"ETHJoin/not-live\");\n        require(int(msg.value) >= 0, \"ETHJoin/overflow\");\n        vat.slip(ilk, usr, int(msg.value));\n    }\n    function exit(address payable usr, uint wad) external note {\n        require(int(wad) >= 0, \"ETHJoin/overflow\");\n        vat.slip(ilk, msg.sender, -int(wad));\n        usr.transfer(wad);\n    }\n}\n\ncontract DaiJoin is LibNote {\n    // --- Auth ---\n    mapping (address => uint) public wards;\n    function rely(address usr) external note auth { wards[usr] = 1; }\n    function deny(address usr) external note auth { wards[usr] = 0; }\n    modifier auth {\n        require(wards[msg.sender] == 1, \"DaiJoin/not-authorized\");\n        _;\n    }\n\n    VatLike public vat;\n    DSTokenLike public dai;\n    uint    public live;  // Access Flag\n\n    constructor(address vat_, address dai_) public {\n        wards[msg.sender] = 1;\n        live = 1;\n        vat = VatLike(vat_);\n        dai = DSTokenLike(dai_);\n    }\n    function cage() external note auth {\n        live = 0;\n    }\n    uint constant ONE = 10 ** 27;\n    function mul(uint x, uint y) internal pure returns (uint z) {\n        require(y == 0 || (z = x * y) / y == x);\n    }\n    function join(address usr, uint wad) external note {\n        vat.move(address(this), usr, mul(ONE, wad));\n        dai.burn(msg.sender, wad);\n    }\n    function exit(address usr, uint wad) external note {\n        require(live == 1, \"DaiJoin/not-live\");\n        vat.move(msg.sender, address(this), mul(ONE, wad));\n        dai.mint(usr, wad);\n    }\n}",
  "sourcePath": "/Users/bruce/dev/yieldprotocol/ytoken-mvp/contracts/external/maker/join.sol",
  "compiler": {
    "name": "solc",
    "version": "0.6.2+commit.bacdbe57.Emscripten.clang"
  },
  "schemaVersion": "3.0.23",
  "updatedAt": "2020-07-02T10:01:06.408Z",
  "networkType": "ethereum",
  "devdoc": {
    "methods": {}
  },
  "userdoc": {
    "methods": {}
  }
}