{
  "contractName": "ImportProxy",
  "abi": [
    {
      "inputs": [
        {
          "internalType": "contract IController",
          "name": "controller_",
          "type": "address"
        },
        {
          "internalType": "contract IPool[]",
          "name": "pools_",
          "type": "address[]"
        },
        {
          "internalType": "contract IProxyRegistry",
          "name": "proxyRegistry_",
          "type": "address"
        }
      ],
      "stateMutability": "nonpayable",
      "type": "constructor"
    },
    {
      "inputs": [],
      "name": "UNIT",
      "outputs": [
        {
          "internalType": "uint256",
          "name": "",
          "type": "uint256"
        }
      ],
      "stateMutability": "view",
      "type": "function"
    },
    {
      "inputs": [],
      "name": "WETH",
      "outputs": [
        {
          "internalType": "bytes32",
          "name": "",
          "type": "bytes32"
        }
      ],
      "stateMutability": "view",
      "type": "function"
    },
    {
      "inputs": [],
      "name": "controller",
      "outputs": [
        {
          "internalType": "contract IController",
          "name": "",
          "type": "address"
        }
      ],
      "stateMutability": "view",
      "type": "function"
    },
    {
      "inputs": [],
      "name": "dai",
      "outputs": [
        {
          "internalType": "contract IERC20",
          "name": "",
          "type": "address"
        }
      ],
      "stateMutability": "view",
      "type": "function"
    },
    {
      "inputs": [],
      "name": "daiJoin",
      "outputs": [
        {
          "internalType": "contract IDaiJoin",
          "name": "",
          "type": "address"
        }
      ],
      "stateMutability": "view",
      "type": "function"
    },
    {
      "inputs": [],
      "name": "importProxy",
      "outputs": [
        {
          "internalType": "contract IImportProxy",
          "name": "",
          "type": "address"
        }
      ],
      "stateMutability": "view",
      "type": "function"
    },
    {
      "inputs": [],
      "name": "proxyRegistry",
      "outputs": [
        {
          "internalType": "contract IProxyRegistry",
          "name": "",
          "type": "address"
        }
      ],
      "stateMutability": "view",
      "type": "function"
    },
    {
      "inputs": [],
      "name": "vat",
      "outputs": [
        {
          "internalType": "contract IVat",
          "name": "",
          "type": "address"
        }
      ],
      "stateMutability": "view",
      "type": "function"
    },
    {
      "inputs": [],
      "name": "weth",
      "outputs": [
        {
          "internalType": "contract IWeth",
          "name": "",
          "type": "address"
        }
      ],
      "stateMutability": "view",
      "type": "function"
    },
    {
      "inputs": [],
      "name": "wethJoin",
      "outputs": [
        {
          "internalType": "contract IGemJoin",
          "name": "",
          "type": "address"
        }
      ],
      "stateMutability": "view",
      "type": "function"
    },
    {
      "inputs": [
        {
          "internalType": "contract IPool",
          "name": "pool",
          "type": "address"
        },
        {
          "internalType": "address",
          "name": "user",
          "type": "address"
        },
        {
          "internalType": "uint256",
          "name": "wethAmount",
          "type": "uint256"
        },
        {
          "internalType": "uint256",
          "name": "debtAmount",
          "type": "uint256"
        },
        {
          "internalType": "uint256",
          "name": "maxDaiPrice",
          "type": "uint256"
        }
      ],
      "name": "importPosition",
      "outputs": [],
      "stateMutability": "nonpayable",
      "type": "function"
    },
    {
      "inputs": [
        {
          "internalType": "contract IPool",
          "name": "pool",
          "type": "address"
        },
        {
          "internalType": "address",
          "name": "user",
          "type": "address"
        },
        {
          "internalType": "uint256",
          "name": "maxDaiPrice",
          "type": "uint256"
        }
      ],
      "name": "importVault",
      "outputs": [],
      "stateMutability": "nonpayable",
      "type": "function"
    },
    {
      "inputs": [
        {
          "internalType": "address",
          "name": "user",
          "type": "address"
        }
      ],
      "name": "hope",
      "outputs": [],
      "stateMutability": "nonpayable",
      "type": "function"
    },
    {
      "inputs": [
        {
          "internalType": "address",
          "name": "user",
          "type": "address"
        }
      ],
      "name": "nope",
      "outputs": [],
      "stateMutability": "nonpayable",
      "type": "function"
    },
    {
      "inputs": [
        {
          "internalType": "contract IPool",
          "name": "pool",
          "type": "address"
        },
        {
          "internalType": "address",
          "name": "user",
          "type": "address"
        },
        {
          "internalType": "uint256",
          "name": "wethAmount",
          "type": "uint256"
        },
        {
          "internalType": "uint256",
          "name": "debtAmount",
          "type": "uint256"
        },
        {
          "internalType": "uint256",
          "name": "maxDaiPrice",
          "type": "uint256"
        }
      ],
      "name": "importFromProxy",
      "outputs": [],
      "stateMutability": "nonpayable",
      "type": "function"
    },
    {
      "inputs": [
        {
          "internalType": "uint256",
          "name": "",
          "type": "uint256"
        },
        {
          "internalType": "bytes",
          "name": "data",
          "type": "bytes"
        }
      ],
      "name": "executeOnFlashMint",
      "outputs": [],
      "stateMutability": "nonpayable",
      "type": "function"
    },
    {
      "inputs": [],
      "name": "importPositionCheck",
      "outputs": [
        {
          "internalType": "bool",
          "name": "",
          "type": "bool"
        },
        {
          "internalType": "bool",
          "name": "",
          "type": "bool"
        }
      ],
      "stateMutability": "view",
      "type": "function"
    },
    {
      "inputs": [
        {
          "internalType": "contract IPool",
          "name": "pool",
          "type": "address"
        },
        {
          "internalType": "address",
          "name": "user",
          "type": "address"
        },
        {
          "internalType": "uint256",
          "name": "wethAmount",
          "type": "uint256"
        },
        {
          "internalType": "uint256",
          "name": "debtAmount",
          "type": "uint256"
        },
        {
          "internalType": "uint256",
          "name": "maxDaiPrice",
          "type": "uint256"
        },
        {
          "internalType": "bytes",
          "name": "controllerSig",
          "type": "bytes"
        }
      ],
      "name": "importPositionWithSignature",
      "outputs": [],
      "stateMutability": "nonpayable",
      "type": "function"
    },
    {
      "inputs": [
        {
          "internalType": "contract IPool",
          "name": "pool",
          "type": "address"
        },
        {
          "internalType": "address",
          "name": "user",
          "type": "address"
        },
        {
          "internalType": "uint256",
          "name": "maxDaiPrice",
          "type": "uint256"
        },
        {
          "internalType": "bytes",
          "name": "controllerSig",
          "type": "bytes"
        }
      ],
      "name": "importVaultWithSignature",
      "outputs": [],
      "stateMutability": "nonpayable",
      "type": "function"
    }
  ],
  "bytecode": "0x6101806040523480156200001257600080fd5b506040516200273838038062002738833981810160405260608110156200003857600080fd5b8151602083018051604051929492938301929190846401000000008211156200006057600080fd5b9083019060208201858111156200007657600080fd5b82518660208202830111640100000000821117156200009457600080fd5b82525081516020918201928201910280838360005b83811015620000c3578181015183820152602001620000a9565b50505050905001604052602001805190602001909291905050508282826000836001600160a01b03166361d027b36040518163ffffffff1660e01b815260040160206040518083038186803b1580156200011c57600080fd5b505afa15801562000131573d6000803e3d6000fd5b505050506040513d60208110156200014857600080fd5b5051604080516336569e7760e01b815290519192506000916001600160a01b038416916336569e77916004808301926020929190829003018186803b1580156200019157600080fd5b505afa158015620001a6573d6000803e3d6000fd5b505050506040513d6020811015620001bd57600080fd5b505160408051633fc8cef360e01b815290519192506000916001600160a01b03851691633fc8cef3916004808301926020929190829003018186803b1580156200020657600080fd5b505afa1580156200021b573d6000803e3d6000fd5b505050506040513d60208110156200023257600080fd5b50516040805163f4b9fa7560e01b815290519192506000916001600160a01b0386169163f4b9fa75916004808301926020929190829003018186803b1580156200027b57600080fd5b505afa15801562000290573d6000803e3d6000fd5b505050506040513d6020811015620002a757600080fd5b505160408051633045916f60e21b815290519192506000916001600160a01b0387169163c11645bc916004808301926020929190829003018186803b158015620002f057600080fd5b505afa15801562000305573d6000803e3d6000fd5b505050506040513d60208110156200031c57600080fd5b505160408051632dbacef360e01b815290519192506000916001600160a01b03881691632dbacef3916004808301926020929190829003018186803b1580156200036557600080fd5b505afa1580156200037a573d6000803e3d6000fd5b505050506040513d60208110156200039157600080fd5b50516001600160601b031960608b811b82166101205289901b1661014052905060005b8851811015620004ed57888181518110620003cb57fe5b60200260200101516001600160a01b031663284f44446040518163ffffffff1660e01b815260040160206040518083038186803b1580156200040c57600080fd5b505afa15801562000421573d6000803e3d6000fd5b505050506040513d60208110156200043857600080fd5b505189516001600160a01b039091169063095ea7b3908b90849081106200045b57fe5b60200260200101516000196040518363ffffffff1660e01b815260040180836001600160a01b03166001600160a01b0316815260200182815260200192505050602060405180830381600087803b158015620004b657600080fd5b505af1158015620004cb573d6000803e3d6000fd5b505050506040513d6020811015620004e257600080fd5b5050600101620003b4565b506040805163095ea7b360e01b81526001600160a01b038881166004830152600019602483015291519186169163095ea7b3916044808201926020929091908290030181600087803b1580156200054357600080fd5b505af115801562000558573d6000803e3d6000fd5b505050506040513d60208110156200056f57600080fd5b5050604080516328ec8bf160e21b81526001600160a01b03838116600483015291519187169163a3b22fc49160248082019260009290919082900301818387803b158015620005bd57600080fd5b505af1158015620005d2573d6000803e3d6000fd5b50506040805163095ea7b360e01b81526001600160a01b03868116600483015260001960248301529151918716935063095ea7b392506044808201926020929091908290030181600087803b1580156200062b57600080fd5b505af115801562000640573d6000803e3d6000fd5b505050506040513d60208110156200065757600080fd5b50506001600160601b0319606095861b811660805293851b841660a05291841b831660c052831b821661010052821b1660e05230901b610160525050505050505060805160601c60a05160601c60c05160601c60e05160601c6101005160601c6101205160601c6101405160601c6101605160601c611f9e6200079a60003980610be85280610daa5280610e445280610f215280610fbf5280611061528061109f52806112715250806105145280610cd2528061110752806112bf5280611435525080610c1c528061103e528061124e528061157a5280611bb55280611c1b5250806113dd528061191b5250806109fb5280611b195250806115565280611946525080610a435250806105ff52806106fd5280610a1f5280610a9a5280610b575280610e0b52806111df528061150d52806117c55280611a225250611f9e6000f3fe608060405234801561001057600080fd5b50600436106101215760003560e01c80639d8e2177116100ad578063be0e792711610071578063be0e792714610429578063c11645bc146104a0578063dc4d20fa146104a8578063f4b9fa75146104ce578063f77c4791146104d657610121565b80639d8e217714610307578063a3b22fc414610321578063aa96127d14610347578063ad5c464814610419578063b50cbd9f1461042157610121565b80634138c59b116100f45780634138c59b1461019e57806354e8b998146101d4578063550c1a67146101f7578063885e9478146102395780639a14d721146102ff57610121565b806327c3ccb6146101265780632dbacef31461016a57806336569e771461018e5780633fc8cef314610196575b600080fd5b610168600480360360a081101561013c57600080fd5b506001600160a01b038135811691602081013590911690604081013590606081013590608001356104de565b005b6101726109f9565b604080516001600160a01b039092168252519081900360200190f35b610172610a1d565b610172610a41565b610168600480360360608110156101b457600080fd5b506001600160a01b03813581169160208101359091169060400135610a65565b6101dc610b2a565b60408051921515835290151560208301528051918290030190f35b610168600480360360a081101561020d57600080fd5b506001600160a01b03813581169160208101359091169060408101359060608101359060800135610c9c565b6101686004803603608081101561024f57600080fd5b6001600160a01b0382358116926020810135909116916040820135919081019060808101606082013564010000000081111561028a57600080fd5b82018360208201111561029c57600080fd5b803590602001918460018302840111640100000000831117156102be57600080fd5b91908080601f01602080910402602001604051908101604052809392919081815260200183838082843760009201919091525092955061102a945050505050565b61017261109d565b61030f6110c1565b60408051918252519081900360200190f35b6101686004803603602081101561033757600080fd5b50356001600160a01b03166110d1565b610168600480360360c081101561035d57600080fd5b6001600160a01b0382358116926020810135909116916040820135916060810135916080820135919081019060c0810160a08201356401000000008111156103a457600080fd5b8201836020820111156103b657600080fd5b803590602001918460018302840111640100000000831117156103d857600080fd5b91908080601f01602080910402602001604051908101604052809392919081815260200183838082843760009201919091525092955061123a945050505050565b61030f6112b1565b6101726112bd565b6101686004803603604081101561043f57600080fd5b8135919081019060408101602082013564010000000081111561046157600080fd5b82018360208201111561047357600080fd5b8035906020019184600183028401116401000000008311171561049557600080fd5b5090925090506112e1565b6101726113db565b610168600480360360208110156104be57600080fd5b50356001600160a01b03166113ff565b610172611554565b610172611578565b6001600160a01b03841633148061059157506040805163c455279160e01b81526001600160a01b038681166004830152915133927f0000000000000000000000000000000000000000000000000000000000000000169163c4552791916024808301926020929190829003018186803b15801561055a57600080fd5b505afa15801561056e573d6000803e3d6000fd5b505050506040513d602081101561058457600080fd5b50516001600160a01b0316145b6105cc5760405162461bcd60e51b8152600401808060200182810382526021815260200180611f486021913960400191505060405180910390fd5b604080516309092f9760e21b8152644554482d4160d81b6004820152306024820152815160009283926001600160a01b037f00000000000000000000000000000000000000000000000000000000000000001692632424be5c92604480840193919291829003018186803b15801561064357600080fd5b505afa158015610657573d6000803e3d6000fd5b505050506040513d604081101561066d57600080fd5b5080516020909101519092509050808411156106ba5760405162461bcd60e51b8152600401808060200182810382526025815260200180611e716025913960400191505060405180910390fd5b818511156106f95760405162461bcd60e51b815260040180806020018281038252602b815260200180611ed5602b913960400191505060405180910390fd5b60007f00000000000000000000000000000000000000000000000000000000000000006001600160a01b031663d9638d36644554482d4160d81b6040518263ffffffff1660e01b81526004018082815260200191505060a06040518083038186803b15801561076757600080fd5b505afa15801561077b573d6000803e3d6000fd5b505050506040513d60a081101561079157600080fd5b5060200151905060006107a4868361159c565b90506000896001600160a01b0316634e20e9526107c0846115d3565b6040518263ffffffff1660e01b815260040180826001600160801b03166001600160801b0316815260200191505060206040518083038186803b15801561080657600080fd5b505afa15801561081a573d6000803e3d6000fd5b505050506040513d602081101561083057600080fd5b50516001600160801b03169050610847828761159c565b8111156108855760405162461bcd60e51b8152600401808060200182810382526027815260200180611f216027913960400191505060405180910390fd5b60008a6001600160a01b031663284f44446040518163ffffffff1660e01b815260040160206040518083038186803b1580156108c057600080fd5b505afa1580156108d4573d6000803e3d6000fd5b505050506040513d60208110156108ea57600080fd5b5051604080516001600160a01b038e81166020838101919091528e821683850152606083018e905260808084018e90528451808503909101815260a0840180865263522c806760e01b905260a4840188815260c48501958652815160e486015281519697509287169563522c8067958995929493909261010401919085019080838360005b8381101561098757818101518382015260200161096f565b50505050905090810190601f1680156109b45780820380516001836020036101000a031916815260200191505b509350505050600060405180830381600087803b1580156109d457600080fd5b505af11580156109e8573d6000803e3d6000fd5b505050505050505050505050505050565b7f000000000000000000000000000000000000000000000000000000000000000081565b7f000000000000000000000000000000000000000000000000000000000000000081565b7f000000000000000000000000000000000000000000000000000000000000000081565b604080516309092f9760e21b8152644554482d4160d81b60048201526001600160a01b038481166024830152825160009384937f000000000000000000000000000000000000000000000000000000000000000090931692632424be5c9260448083019392829003018186803b158015610ade57600080fd5b505afa158015610af2573d6000803e3d6000fd5b505050506040513d6040811015610b0857600080fd5b5080516020909101519092509050610b238585848487610c9c565b5050505050565b60408051634538c4eb60e01b81523360048201523060248201529051600091829182916001600160a01b037f00000000000000000000000000000000000000000000000000000000000000001691634538c4eb91604480820192602092909190829003018186803b158015610b9e57600080fd5b505afa158015610bb2573d6000803e3d6000fd5b505050506040513d6020811015610bc857600080fd5b50516040805163f6bcbd3160e01b81523360048201526001600160a01b037f0000000000000000000000000000000000000000000000000000000000000000811660248301529151600190931493506000927f00000000000000000000000000000000000000000000000000000000000000009092169163f6bcbd3191604480820192602092909190829003018186803b158015610c6557600080fd5b505afa158015610c79573d6000803e3d6000fd5b505050506040513d6020811015610c8f57600080fd5b5051919350909150509091565b6001600160a01b038416331480610d4f57506040805163c455279160e01b81526001600160a01b038681166004830152915133927f0000000000000000000000000000000000000000000000000000000000000000169163c4552791916024808301926020929190829003018186803b158015610d1857600080fd5b505afa158015610d2c573d6000803e3d6000fd5b505050506040513d6020811015610d4257600080fd5b50516001600160a01b0316145b610d8a5760405162461bcd60e51b8152600401808060200182810382526021815260200180611f486021913960400191505060405180910390fd5b604080516328ec8bf160e21b815233600482015290516001600160a01b037f0000000000000000000000000000000000000000000000000000000000000000169163a3b22fc491602480830192600092919082900301818387803b158015610df157600080fd5b505af1158015610e05573d6000803e3d6000fd5b505050507f00000000000000000000000000000000000000000000000000000000000000006001600160a01b031663870c616d644554482d4160d81b867f0000000000000000000000000000000000000000000000000000000000000000610e6c8861162f565b610e758861162f565b6040518663ffffffff1660e01b815260040180868152602001856001600160a01b03166001600160a01b03168152602001846001600160a01b03166001600160a01b0316815260200183815260200182815260200195505050505050600060405180830381600087803b158015610eeb57600080fd5b505af1158015610eff573d6000803e3d6000fd5b505060408051636e26907d60e11b815233600482015290516001600160a01b037f000000000000000000000000000000000000000000000000000000000000000016935063dc4d20fa9250602480830192600092919082900301818387803b158015610f6a57600080fd5b505af1158015610f7e573d6000803e3d6000fd5b5050604080516313e1e65b60e11b81526001600160a01b038981166004830152888116602483015260448201889052606482018790526084820186905291517f000000000000000000000000000000000000000000000000000000000000000090921693506327c3ccb6925060a48082019260009290919082900301818387803b15801561100b57600080fd5b505af115801561101f573d6000803e3d6000fd5b505050505050505050565b80511561108c5761108c6001600160a01b037f000000000000000000000000000000000000000000000000000000000000000016847f00000000000000000000000000000000000000000000000000000000000000008463ffffffff61168716565b611097848484610a65565b50505050565b7f000000000000000000000000000000000000000000000000000000000000000081565b6b033b2e3c9fd0803ce800000081565b6001600160a01b03811633148061118457506040805163c455279160e01b81526001600160a01b038381166004830152915133927f0000000000000000000000000000000000000000000000000000000000000000169163c4552791916024808301926020929190829003018186803b15801561114d57600080fd5b505afa158015611161573d6000803e3d6000fd5b505050506040513d602081101561117757600080fd5b50516001600160a01b0316145b6111bf5760405162461bcd60e51b8152600401808060200182810382526021815260200180611f486021913960400191505060405180910390fd5b604080516328ec8bf160e21b815233600482015290516001600160a01b037f0000000000000000000000000000000000000000000000000000000000000000169163a3b22fc491602480830192600092919082900301818387803b15801561122657600080fd5b505af1158015610b23573d6000803e3d6000fd5b80511561129c5761129c6001600160a01b037f000000000000000000000000000000000000000000000000000000000000000016867f00000000000000000000000000000000000000000000000000000000000000008463ffffffff61168716565b6112a98686868686610c9c565b505050505050565b644554482d4160d81b81565b7f000000000000000000000000000000000000000000000000000000000000000081565b600080600080858560808110156112f757600080fd5b5060408051630a13d11160e21b815281516001600160a01b0384358116985060208086013590911697509284013595506060909301359350869263284f444492600480840193919291829003018186803b15801561135457600080fd5b505afa158015611368573d6000803e3d6000fd5b505050506040513d602081101561137e57600080fd5b50516001600160a01b031633146113c65760405162461bcd60e51b815260040180806020018281038252603f815260200180611e96603f913960400191505060405180910390fd5b6113d284848484611730565b50505050505050565b7f000000000000000000000000000000000000000000000000000000000000000081565b6001600160a01b0381163314806114b257506040805163c455279160e01b81526001600160a01b038381166004830152915133927f0000000000000000000000000000000000000000000000000000000000000000169163c4552791916024808301926020929190829003018186803b15801561147b57600080fd5b505afa15801561148f573d6000803e3d6000fd5b505050506040513d60208110156114a557600080fd5b50516001600160a01b0316145b6114ed5760405162461bcd60e51b8152600401808060200182810382526021815260200180611f486021913960400191505060405180910390fd5b60408051636e26907d60e11b815233600482015290516001600160a01b037f0000000000000000000000000000000000000000000000000000000000000000169163dc4d20fa91602480830192600092919082900301818387803b15801561122657600080fd5b7f000000000000000000000000000000000000000000000000000000000000000081565b7f000000000000000000000000000000000000000000000000000000000000000081565b60006115ca6b033b2e3c9fd0803ce80000006115be858563ffffffff611d1816565b9063ffffffff611d7116565b90505b92915050565b60006001600160801b0382111561162b576040805162461bcd60e51b815260206004820152601760248201527653616665436173743a2043617374206f766572666c6f7760481b604482015290519081900360640190fd5b5090565b60006001600160ff1b0382111561162b576040805162461bcd60e51b815260206004820152601760248201527653616665436173743a2043617374206f766572666c6f7760481b604482015290519081900360640190fd5b600080600061169584611db3565b60408051631a28ff0560e01b81526001600160a01b038b811660048301528a81166024830152600019604483015260ff841660648301526084820186905260a482018590529151949750929550909350891691631a28ff059160c48082019260009290919082900301818387803b15801561170f57600080fd5b505af1158015611723573d6000803e3d6000fd5b5050505050505050505050565b6000846001600160a01b031663284f44446040518163ffffffff1660e01b815260040160206040518083038186803b15801561176b57600080fd5b505afa15801561177f573d6000803e3d6000fd5b505050506040513d602081101561179557600080fd5b505160408051636cb1c69b60e11b8152644554482d4160d81b600482015290519192506000916001600160a01b037f0000000000000000000000000000000000000000000000000000000000000000169163d9638d369160248083019260a0929190829003018186803b15801561180b57600080fd5b505afa15801561181f573d6000803e3d6000fd5b505050506040513d60a081101561183557600080fd5b5060200151905060006001600160a01b03871663cc5783d3308061186161185c898861159c565b6115d3565b604080516001600160e01b031960e087901b1681526001600160a01b0394851660048201529290931660248301526001600160801b03166044820152905160648083019260209291908290030181600087803b1580156118c057600080fd5b505af11580156118d4573d6000803e3d6000fd5b505050506040513d60208110156118ea57600080fd5b5051604080516370a0823160e01b8152306004820181905291516001600160801b0390931693506001600160a01b037f0000000000000000000000000000000000000000000000000000000000000000811693633b4da69f93927f0000000000000000000000000000000000000000000000000000000000000000909216916370a08231916024808301926020929190829003018186803b15801561198e57600080fd5b505afa1580156119a2573d6000803e3d6000fd5b505050506040513d60208110156119b857600080fd5b5051604080516001600160e01b031960e086901b1681526001600160a01b039093166004840152602483019190915251604480830192600092919082900301818387803b158015611a0857600080fd5b505af1158015611a1c573d6000803e3d6000fd5b505050507f00000000000000000000000000000000000000000000000000000000000000006001600160a01b03166376088703644554482d4160d81b303030611a648b61162f565b600003611a708b61162f565b604080516001600160e01b031960e08a901b16815260048101979097526001600160a01b03958616602488015293851660448701529190931660648501526084840192909252600091820360a48401525160c48084019382900301818387803b158015611adc57600080fd5b505af1158015611af0573d6000803e3d6000fd5b50506040805163ef693bed60e01b81523060048201526024810189905290516001600160a01b037f000000000000000000000000000000000000000000000000000000000000000016935063ef693bed9250604480830192600092919082900301818387803b158015611b6257600080fd5b505af1158015611b76573d6000803e3d6000fd5b5050604080516356dcf2a760e11b8152644554482d4160d81b60048201523060248201526001600160a01b038a81166044830152606482018a905291517f0000000000000000000000000000000000000000000000000000000000000000909216935063adb9e54e925060848082019260009290919082900301818387803b158015611c0157600080fd5b505af1158015611c15573d6000803e3d6000fd5b505050507f00000000000000000000000000000000000000000000000000000000000000006001600160a01b031663801d325f644554482d4160d81b856001600160a01b031663204f83f96040518163ffffffff1660e01b815260040160206040518083038186803b158015611c8a57600080fd5b505afa158015611c9e573d6000803e3d6000fd5b505050506040513d6020811015611cb457600080fd5b5051604080516001600160e01b031960e086901b168152600481019390935260248301919091526001600160a01b038a166044830152306064830152608482018590525160a480830192600092919082900301818387803b15801561170f57600080fd5b600082611d27575060006115cd565b82820282848281611d3457fe5b04146115ca5760405162461bcd60e51b8152600401808060200182810382526021815260200180611f006021913960400191505060405180910390fd5b60006115ca83836040518060400160405280601a81526020017f536166654d6174683a206469766973696f6e206279207a65726f000000000000815250611dce565b60208101516040820151606090920151909260009190911a90565b60008183611e5a5760405162461bcd60e51b81526004018080602001828103825283818151815260200191508051906020019080838360005b83811015611e1f578181015183820152602001611e07565b50505050905090810190601f168015611e4c5780820380516001836020036101000a031916815260200191505b509250505060405180910390fd5b506000838581611e6657fe5b049594505050505056fe496d706f727450726f78793a204e6f7420656e6f756768206465627420696e204d616b6572496d706f727450726f78793a2043616c6c6261636b207265737472696374656420746f20746865206679446169206d61746368696e672074686520706f6f6c496d706f727450726f78793a204e6f7420656e6f75676820636f6c6c61746572616c20696e204d616b6572536166654d6174683a206d756c7469706c69636174696f6e206f766572666c6f77496d706f727450726f78793a204d6178696d756d204461692070726963652065786365656465645265737472696374656420746f2075736572206f722069747320647370726f7879a264697066735822122012f23c0c9c97e4ead104ce297d80f33cf0d3ca564f7e9f5483228c95f3d6dd9764736f6c634300060a0033",
  "immutableReferences": {
    "2746": [
      {
        "length": 32,
        "start": 3048
      },
      {
        "length": 32,
        "start": 3498
      },
      {
        "length": 32,
        "start": 3652
      },
      {
        "length": 32,
        "start": 3873
      },
      {
        "length": 32,
        "start": 4031
      },
      {
        "length": 32,
        "start": 4193
      },
      {
        "length": 32,
        "start": 4255
      },
      {
        "length": 32,
        "start": 4721
      }
    ],
    "3357": [
      {
        "length": 32,
        "start": 1535
      },
      {
        "length": 32,
        "start": 1789
      },
      {
        "length": 32,
        "start": 2591
      },
      {
        "length": 32,
        "start": 2714
      },
      {
        "length": 32,
        "start": 2903
      },
      {
        "length": 32,
        "start": 3595
      },
      {
        "length": 32,
        "start": 4575
      },
      {
        "length": 32,
        "start": 5389
      },
      {
        "length": 32,
        "start": 6085
      },
      {
        "length": 32,
        "start": 6690
      }
    ],
    "3359": [
      {
        "length": 32,
        "start": 2627
      }
    ],
    "3361": [
      {
        "length": 32,
        "start": 5462
      },
      {
        "length": 32,
        "start": 6470
      }
    ],
    "3363": [
      {
        "length": 32,
        "start": 2555
      },
      {
        "length": 32,
        "start": 6937
      }
    ],
    "3365": [
      {
        "length": 32,
        "start": 5085
      },
      {
        "length": 32,
        "start": 6427
      }
    ],
    "3367": [
      {
        "length": 32,
        "start": 3100
      },
      {
        "length": 32,
        "start": 4158
      },
      {
        "length": 32,
        "start": 4686
      },
      {
        "length": 32,
        "start": 5498
      },
      {
        "length": 32,
        "start": 7093
      },
      {
        "length": 32,
        "start": 7195
      }
    ],
    "3369": [
      {
        "length": 32,
        "start": 1300
      },
      {
        "length": 32,
        "start": 3282
      },
      {
        "length": 32,
        "start": 4359
      },
      {
        "length": 32,
        "start": 4799
      },
      {
        "length": 32,
        "start": 5173
      }
    ]
  },
  "source": "// SPDX-License-Identifier: GPL-3.0-or-later\npragma solidity ^0.6.10;\n\nimport \"./interfaces/IFlashMinter.sol\";\nimport \"./helpers/DecimalMath.sol\";\nimport \"./helpers/SafeCast.sol\";\nimport \"./helpers/YieldAuth.sol\";\nimport \"./ImportProxyBase.sol\";\n\n\ninterface IImportProxy {\n    function importFromProxy(IPool, address, uint256, uint256, uint256) external;\n    function hope(address) external;\n    function nope(address) external;\n}\n\ncontract ImportProxy is ImportProxyBase, DecimalMath, IFlashMinter {\n    using SafeCast for uint256;\n    using YieldAuth for IController;\n\n    IImportProxy public immutable importProxy;\n\n    constructor(IController controller_, IPool[] memory pools_, IProxyRegistry proxyRegistry_)\n        public\n        ImportProxyBase(controller_, pools_, proxyRegistry_)\n    {\n        importProxy = IImportProxy(address(this)); // This contract has two functions, as itself, and delegatecalled by a dsproxy.\n    }\n\n    /// --------------------------------------------------\n    /// ImportProxy via dsproxy: Fork and Split\n    /// --------------------------------------------------\n\n    /// @dev Fork part of a user MakerDAO vault to ImportProxy, and call importProxy to transform it into a Yield vault\n    /// This function can be called from a dsproxy that already has a `vat.hope` on the user's MakerDAO Vault\n    /// @param pool fyDai Pool to use for migration, determining maturity of the Yield Vault\n    /// @param user CDP Vault to import\n    /// @param wethAmount Weth collateral to import\n    /// @param debtAmount Normalized debt to move ndai * rate = dai\n    /// @param maxDaiPrice Maximum fyDai price to pay for Dai\n    function importPosition(IPool pool, address user, uint256 wethAmount, uint256 debtAmount, uint256 maxDaiPrice) public {\n        require(user == msg.sender || proxyRegistry.proxies(user) == msg.sender, \"Restricted to user or its dsproxy\"); // Redundant?\n        importProxy.hope(msg.sender);                     // Allow the user or proxy to give importProxy the MakerDAO vault.\n        vat.fork(                                      // Take the treasury vault\n            WETH,\n            user,\n            address(importProxy),\n            wethAmount.toInt256(),\n            debtAmount.toInt256()\n        );\n        importProxy.nope(msg.sender);                     // Disallow the user or proxy to give importProxy the MakerDAO vault.\n        importProxy.importFromProxy(pool, user, wethAmount, debtAmount, maxDaiPrice);\n    }\n\n    /// @dev Fork a user MakerDAO vault to ImportProxy, and call importProxy to transform it into a Yield vault\n    /// This function can be called from a dsproxy that already has a `vat.hope` on the user's MakerDAO Vault\n    /// @param pool fyDai Pool to use for migration, determining maturity of the Yield Vault\n    /// @param user CDP Vault to import\n    /// @param maxDaiPrice Maximum fyDai price to pay for Dai\n    function importVault(IPool pool, address user, uint256 maxDaiPrice) public {\n        (uint256 ink, uint256 art) = vat.urns(WETH, user);\n        importPosition(pool, user, ink, art, maxDaiPrice);\n    }\n\n    /// --------------------------------------------------\n    /// ImportProxy as itself: Maker to Yield proxy\n    /// --------------------------------------------------\n\n    // ImportProxy accepts to take the user vault. Callable only by the user or its dsproxy\n    // Anyone can call this to donate a collateralized vault to ImportProxy.\n    function hope(address user) public {\n        require(user == msg.sender || proxyRegistry.proxies(user) == msg.sender, \"Restricted to user or its dsproxy\");\n        vat.hope(msg.sender);\n    }\n\n    // ImportProxy doesn't accept to take the user vault. Callable only by the user or its dsproxy\n    function nope(address user) public {\n        require(user == msg.sender || proxyRegistry.proxies(user) == msg.sender, \"Restricted to user or its dsproxy\");\n        vat.nope(msg.sender);\n    }\n\n    /// @dev Transfer debt and collateral from MakerDAO (this contract's CDP) to Yield (user's CDP)\n    /// Needs controller.addDelegate(importProxy.address, { from: user });\n    /// @param pool The pool to trade in (and therefore fyDai series to borrow)\n    /// @param user The user to receive the debt and collateral in Yield\n    /// @param wethAmount weth to move from MakerDAO to Yield. Needs to be high enough to collateralize the dai debt in Yield,\n    /// and low enough to make sure that debt left in MakerDAO is also collateralized.\n    /// @param debtAmount Normalized dai debt to move from MakerDAO to Yield. ndai * rate = dai\n    /// @param maxDaiPrice Maximum fyDai price to pay for Dai\n    function importFromProxy(IPool pool, address user, uint256 wethAmount, uint256 debtAmount, uint256 maxDaiPrice) public {\n        require(user == msg.sender || proxyRegistry.proxies(user) == msg.sender, \"Restricted to user or its dsproxy\");\n        // The user specifies the fyDai he wants to mint to cover his maker debt, the weth to be passed on as collateral, and the dai debt to move\n        (uint256 ink, uint256 art) = vat.urns(WETH, address(this));\n        require(\n            debtAmount <= art,\n            \"ImportProxy: Not enough debt in Maker\"\n        );\n        require(\n            wethAmount <= ink,\n            \"ImportProxy: Not enough collateral in Maker\"\n        );\n        (, uint256 rate,,,) = vat.ilks(WETH);\n        uint256 daiNeeded = muld(debtAmount, rate);\n        uint256 fyDaiAmount = pool.buyDaiPreview(daiNeeded.toUint128());\n        require(\n            fyDaiAmount <= muld(daiNeeded, maxDaiPrice),\n            \"ImportProxy: Maximum Dai price exceeded\"\n        );\n\n        // Flash mint the fyDai\n        IFYDai fyDai = pool.fyDai();\n        fyDai.flashMint(\n            fyDaiAmount,\n            abi.encode(pool, user, wethAmount, debtAmount)\n        );\n    }\n\n    /// @dev Callback from `FYDai.flashMint()`\n    function executeOnFlashMint(uint256, bytes calldata data) external override {\n        (IPool pool, address user, uint256 wethAmount, uint256 debtAmount) = \n            abi.decode(data, (IPool, address, uint256, uint256));\n        require(msg.sender == address(IPool(pool).fyDai()), \"ImportProxy: Callback restricted to the fyDai matching the pool\");\n        // require(vat.can(address(this), user) == 1, \"ImportProxy: Unauthorized by user\");\n\n        _importFromProxy(pool, user, wethAmount, debtAmount);\n    }\n\n    /// @dev Internal function to transfer debt and collateral from MakerDAO to Yield\n    /// @param pool The pool to trade in (and therefore fyDai series to borrow)\n    /// @param user Vault to import.\n    /// @param wethAmount weth to move from MakerDAO to Yield. Needs to be high enough to collateralize the dai debt in Yield,\n    /// and low enough to make sure that debt left in MakerDAO is also collateralized.\n    /// @param debtAmount dai debt to move from MakerDAO to Yield. Denominated in Dai (= art * rate)\n    /// Needs vat.hope(importProxy.address, { from: user });\n    /// Needs controller.addDelegate(importProxy.address, { from: user });\n    function _importFromProxy(IPool pool, address user, uint256 wethAmount, uint256 debtAmount) internal {\n        IFYDai fyDai = IFYDai(pool.fyDai());\n\n        // Pool should take exactly all fyDai flash minted. ImportProxy will hold the dai temporarily\n        (, uint256 rate,,,) = vat.ilks(WETH);\n        uint256 fyDaiSold = pool.buyDai(address(this), address(this), muld(debtAmount, rate).toUint128());\n\n        daiJoin.join(address(this), dai.balanceOf(address(this)));      // Put the Dai in Maker\n        vat.frob(                           // Pay the debt and unlock collateral in Maker\n            WETH,\n            address(this),\n            address(this),\n            address(this),\n            -wethAmount.toInt256(),               // Removing Weth collateral\n            -debtAmount.toInt256()  // Removing Dai debt\n        );\n\n        wethJoin.exit(address(this), wethAmount);                       // Hold the weth in ImportProxy\n        controller.post(WETH, address(this), user, wethAmount);         // Add the collateral to Yield\n        controller.borrow(WETH, fyDai.maturity(), user, address(this), fyDaiSold); // Borrow the fyDai\n    }\n\n    /// --------------------------------------------------\n    /// Signature method wrappers\n    /// --------------------------------------------------\n    \n    /// @dev Determine whether all approvals and signatures are in place for `importPosition`.\n    /// If `return[0]` is `false`, calling `vat.hope(proxy.address)` will set the MakerDAO approval.\n    /// If `return[1]` is `false`, `importFromProxyWithSignature` must be called with a controller signature.\n    /// If `return` is `(true, true)`, `importFromProxy` won't fail because of missing approvals or signatures.\n    function importPositionCheck() public view returns (bool, bool) {\n        bool approvals = vat.can(msg.sender, address(this)) == 1;\n        bool controllerSig = controller.delegated(msg.sender, address(importProxy));\n        return (approvals, controllerSig);\n    }\n\n    /// @dev Transfer debt and collateral from MakerDAO to Yield\n    /// Needs vat.hope(importProxy.address, { from: user });\n    /// @param pool The pool to trade in (and therefore fyDai series to borrow)\n    /// @param user The user migrating a vault\n    /// @param wethAmount weth to move from MakerDAO to Yield. Needs to be high enough to collateralize the dai debt in Yield,\n    /// and low enough to make sure that debt left in MakerDAO is also collateralized.\n    /// @param debtAmount dai debt to move from MakerDAO to Yield. Denominated in Dai (= art * rate)\n    /// @param maxDaiPrice Maximum fyDai price to pay for Dai\n    /// @param controllerSig packed signature for delegation of ImportProxy (not dsproxy) in the controller. Ignored if '0x'.\n    function importPositionWithSignature(IPool pool, address user, uint256 wethAmount, uint256 debtAmount, uint256 maxDaiPrice, bytes memory controllerSig) public {\n        if (controllerSig.length > 0) controller.addDelegatePacked(user, address(importProxy), controllerSig);\n        return importPosition(pool, user, wethAmount, debtAmount, maxDaiPrice);\n    }\n\n    /// @dev Transfer a whole Vault from MakerDAO to Yield\n    /// Needs vat.hope(importProxy.address, { from: user });\n    /// @param pool The pool to trade in (and therefore fyDai series to borrow)\n    /// @param user The user migrating a vault\n    /// @param maxDaiPrice Maximum fyDai price to pay for Dai\n    /// @param controllerSig packed signature for delegation of ImportProxy (not dsproxy) in the controller. Ignored if '0x'.\n    function importVaultWithSignature(IPool pool, address user, uint256 maxDaiPrice, bytes memory controllerSig) public {\n        if (controllerSig.length > 0) controller.addDelegatePacked(user, address(importProxy), controllerSig);\n        return importVault(pool, user, maxDaiPrice);\n    }\n}\n",
  "sourcePath": "/Users/brucedonovan/dev/yield/fyDai-proxies/contracts/ImportProxy.sol",
  "compiler": {
    "name": "solc",
    "version": "0.6.10+commit.00c0fcaf.Emscripten.clang"
  },
  "schemaVersion": "3.2.3",
  "updatedAt": "2020-12-11T09:21:34.755Z",
  "devdoc": {
    "methods": {
      "executeOnFlashMint(uint256,bytes)": {
        "details": "Callback from `FYDai.flashMint()`"
      },
      "importFromProxy(address,address,uint256,uint256,uint256)": {
        "details": "Transfer debt and collateral from MakerDAO (this contract's CDP) to Yield (user's CDP) Needs controller.addDelegate(importProxy.address, { from: user });",
        "params": {
          "debtAmount": "Normalized dai debt to move from MakerDAO to Yield. ndai * rate = dai",
          "maxDaiPrice": "Maximum fyDai price to pay for Dai",
          "pool": "The pool to trade in (and therefore fyDai series to borrow)",
          "user": "The user to receive the debt and collateral in Yield",
          "wethAmount": "weth to move from MakerDAO to Yield. Needs to be high enough to collateralize the dai debt in Yield, and low enough to make sure that debt left in MakerDAO is also collateralized."
        }
      },
      "importPosition(address,address,uint256,uint256,uint256)": {
        "details": "Fork part of a user MakerDAO vault to ImportProxy, and call importProxy to transform it into a Yield vault This function can be called from a dsproxy that already has a `vat.hope` on the user's MakerDAO Vault",
        "params": {
          "debtAmount": "Normalized debt to move ndai * rate = dai",
          "maxDaiPrice": "Maximum fyDai price to pay for Dai",
          "pool": "fyDai Pool to use for migration, determining maturity of the Yield Vault",
          "user": "CDP Vault to import",
          "wethAmount": "Weth collateral to import"
        }
      },
      "importPositionCheck()": {
        "details": "Determine whether all approvals and signatures are in place for `importPosition`. If `return[0]` is `false`, calling `vat.hope(proxy.address)` will set the MakerDAO approval. If `return[1]` is `false`, `importFromProxyWithSignature` must be called with a controller signature. If `return` is `(true, true)`, `importFromProxy` won't fail because of missing approvals or signatures."
      },
      "importPositionWithSignature(address,address,uint256,uint256,uint256,bytes)": {
        "details": "Transfer debt and collateral from MakerDAO to Yield Needs vat.hope(importProxy.address, { from: user });",
        "params": {
          "controllerSig": "packed signature for delegation of ImportProxy (not dsproxy) in the controller. Ignored if '0x'.",
          "debtAmount": "dai debt to move from MakerDAO to Yield. Denominated in Dai (= art * rate)",
          "maxDaiPrice": "Maximum fyDai price to pay for Dai",
          "pool": "The pool to trade in (and therefore fyDai series to borrow)",
          "user": "The user migrating a vault",
          "wethAmount": "weth to move from MakerDAO to Yield. Needs to be high enough to collateralize the dai debt in Yield, and low enough to make sure that debt left in MakerDAO is also collateralized."
        }
      },
      "importVault(address,address,uint256)": {
        "details": "Fork a user MakerDAO vault to ImportProxy, and call importProxy to transform it into a Yield vault This function can be called from a dsproxy that already has a `vat.hope` on the user's MakerDAO Vault",
        "params": {
          "maxDaiPrice": "Maximum fyDai price to pay for Dai",
          "pool": "fyDai Pool to use for migration, determining maturity of the Yield Vault",
          "user": "CDP Vault to import"
        }
      },
      "importVaultWithSignature(address,address,uint256,bytes)": {
        "details": "Transfer a whole Vault from MakerDAO to Yield Needs vat.hope(importProxy.address, { from: user });",
        "params": {
          "controllerSig": "packed signature for delegation of ImportProxy (not dsproxy) in the controller. Ignored if '0x'.",
          "maxDaiPrice": "Maximum fyDai price to pay for Dai",
          "pool": "The pool to trade in (and therefore fyDai series to borrow)",
          "user": "The user migrating a vault"
        }
      }
    }
  },
  "userdoc": {
    "methods": {
      "hope(address)": {
        "notice": "-------------------------------------------------- ImportProxy as itself: Maker to Yield proxy --------------------------------------------------"
      }
    }
  }
}