{
  "contractName": "ImportProxy",
  "abi": [
    {
      "inputs": [
        {
          "internalType": "contract IController",
          "name": "controller_",
          "type": "address"
        },
        {
          "internalType": "contract IPool[]",
          "name": "pools_",
          "type": "address[]"
        },
        {
          "internalType": "contract IProxyRegistry",
          "name": "proxyRegistry_",
          "type": "address"
        }
      ],
      "stateMutability": "nonpayable",
      "type": "constructor"
    },
    {
      "inputs": [],
      "name": "MTY",
      "outputs": [
        {
          "internalType": "bool",
          "name": "",
          "type": "bool"
        }
      ],
      "stateMutability": "view",
      "type": "function"
    },
    {
      "inputs": [],
      "name": "UNIT",
      "outputs": [
        {
          "internalType": "uint256",
          "name": "",
          "type": "uint256"
        }
      ],
      "stateMutability": "view",
      "type": "function"
    },
    {
      "inputs": [],
      "name": "WETH",
      "outputs": [
        {
          "internalType": "bytes32",
          "name": "",
          "type": "bytes32"
        }
      ],
      "stateMutability": "view",
      "type": "function"
    },
    {
      "inputs": [],
      "name": "controller",
      "outputs": [
        {
          "internalType": "contract IController",
          "name": "",
          "type": "address"
        }
      ],
      "stateMutability": "view",
      "type": "function"
    },
    {
      "inputs": [],
      "name": "dai",
      "outputs": [
        {
          "internalType": "contract IERC20",
          "name": "",
          "type": "address"
        }
      ],
      "stateMutability": "view",
      "type": "function"
    },
    {
      "inputs": [],
      "name": "daiJoin",
      "outputs": [
        {
          "internalType": "contract IDaiJoin",
          "name": "",
          "type": "address"
        }
      ],
      "stateMutability": "view",
      "type": "function"
    },
    {
      "inputs": [],
      "name": "importProxy",
      "outputs": [
        {
          "internalType": "contract IImportProxy",
          "name": "",
          "type": "address"
        }
      ],
      "stateMutability": "view",
      "type": "function"
    },
    {
      "inputs": [],
      "name": "proxyRegistry",
      "outputs": [
        {
          "internalType": "contract IProxyRegistry",
          "name": "",
          "type": "address"
        }
      ],
      "stateMutability": "view",
      "type": "function"
    },
    {
      "inputs": [],
      "name": "treasury",
      "outputs": [
        {
          "internalType": "address",
          "name": "",
          "type": "address"
        }
      ],
      "stateMutability": "view",
      "type": "function"
    },
    {
      "inputs": [],
      "name": "vat",
      "outputs": [
        {
          "internalType": "contract IVat",
          "name": "",
          "type": "address"
        }
      ],
      "stateMutability": "view",
      "type": "function"
    },
    {
      "inputs": [],
      "name": "weth",
      "outputs": [
        {
          "internalType": "contract IWeth",
          "name": "",
          "type": "address"
        }
      ],
      "stateMutability": "view",
      "type": "function"
    },
    {
      "inputs": [],
      "name": "wethJoin",
      "outputs": [
        {
          "internalType": "contract IGemJoin",
          "name": "",
          "type": "address"
        }
      ],
      "stateMutability": "view",
      "type": "function"
    },
    {
      "inputs": [
        {
          "internalType": "contract IPool",
          "name": "pool",
          "type": "address"
        },
        {
          "internalType": "address",
          "name": "user",
          "type": "address"
        },
        {
          "internalType": "uint256",
          "name": "wethAmount",
          "type": "uint256"
        },
        {
          "internalType": "uint256",
          "name": "debtAmount",
          "type": "uint256"
        }
      ],
      "name": "importPosition",
      "outputs": [],
      "stateMutability": "nonpayable",
      "type": "function"
    },
    {
      "inputs": [
        {
          "internalType": "contract IPool",
          "name": "pool",
          "type": "address"
        },
        {
          "internalType": "address",
          "name": "user",
          "type": "address"
        }
      ],
      "name": "importVault",
      "outputs": [],
      "stateMutability": "nonpayable",
      "type": "function"
    },
    {
      "inputs": [
        {
          "internalType": "address",
          "name": "user",
          "type": "address"
        }
      ],
      "name": "hope",
      "outputs": [],
      "stateMutability": "nonpayable",
      "type": "function"
    },
    {
      "inputs": [
        {
          "internalType": "address",
          "name": "user",
          "type": "address"
        }
      ],
      "name": "nope",
      "outputs": [],
      "stateMutability": "nonpayable",
      "type": "function"
    },
    {
      "inputs": [
        {
          "internalType": "contract IPool",
          "name": "pool",
          "type": "address"
        },
        {
          "internalType": "address",
          "name": "user",
          "type": "address"
        },
        {
          "internalType": "uint256",
          "name": "wethAmount",
          "type": "uint256"
        },
        {
          "internalType": "uint256",
          "name": "debtAmount",
          "type": "uint256"
        }
      ],
      "name": "importFromProxy",
      "outputs": [],
      "stateMutability": "nonpayable",
      "type": "function"
    },
    {
      "inputs": [
        {
          "internalType": "uint256",
          "name": "",
          "type": "uint256"
        },
        {
          "internalType": "bytes",
          "name": "data",
          "type": "bytes"
        }
      ],
      "name": "executeOnFlashMint",
      "outputs": [],
      "stateMutability": "nonpayable",
      "type": "function"
    },
    {
      "inputs": [
        {
          "internalType": "uint256",
          "name": "daiAmount",
          "type": "uint256"
        }
      ],
      "name": "debtToDai",
      "outputs": [
        {
          "internalType": "uint256",
          "name": "",
          "type": "uint256"
        }
      ],
      "stateMutability": "view",
      "type": "function"
    },
    {
      "inputs": [
        {
          "internalType": "uint256",
          "name": "daiAmount",
          "type": "uint256"
        }
      ],
      "name": "daiToDebt",
      "outputs": [
        {
          "internalType": "uint256",
          "name": "",
          "type": "uint256"
        }
      ],
      "stateMutability": "view",
      "type": "function"
    },
    {
      "inputs": [
        {
          "internalType": "uint256",
          "name": "daiAmount",
          "type": "uint256"
        }
      ],
      "name": "wethForDai",
      "outputs": [
        {
          "internalType": "uint256",
          "name": "",
          "type": "uint256"
        }
      ],
      "stateMutability": "view",
      "type": "function"
    },
    {
      "inputs": [
        {
          "internalType": "uint256",
          "name": "fyDaiAmount",
          "type": "uint256"
        }
      ],
      "name": "wethForFYDai",
      "outputs": [
        {
          "internalType": "uint256",
          "name": "",
          "type": "uint256"
        }
      ],
      "stateMutability": "view",
      "type": "function"
    },
    {
      "inputs": [
        {
          "internalType": "contract IPool",
          "name": "pool",
          "type": "address"
        },
        {
          "internalType": "uint256",
          "name": "daiAmount",
          "type": "uint256"
        }
      ],
      "name": "fyDaiForDai",
      "outputs": [
        {
          "internalType": "uint256",
          "name": "",
          "type": "uint256"
        }
      ],
      "stateMutability": "view",
      "type": "function"
    },
    {
      "inputs": [
        {
          "internalType": "contract IPool",
          "name": "pool",
          "type": "address"
        },
        {
          "internalType": "uint256",
          "name": "fyDaiAmount",
          "type": "uint256"
        }
      ],
      "name": "daiForFYDai",
      "outputs": [
        {
          "internalType": "uint256",
          "name": "",
          "type": "uint256"
        }
      ],
      "stateMutability": "view",
      "type": "function"
    },
    {
      "inputs": [],
      "name": "importPositionCheck",
      "outputs": [
        {
          "internalType": "bool",
          "name": "",
          "type": "bool"
        },
        {
          "internalType": "bool",
          "name": "",
          "type": "bool"
        }
      ],
      "stateMutability": "view",
      "type": "function"
    },
    {
      "inputs": [
        {
          "internalType": "contract IPool",
          "name": "pool",
          "type": "address"
        },
        {
          "internalType": "address",
          "name": "user",
          "type": "address"
        },
        {
          "internalType": "uint256",
          "name": "wethAmount",
          "type": "uint256"
        },
        {
          "internalType": "uint256",
          "name": "debtAmount",
          "type": "uint256"
        },
        {
          "internalType": "bytes",
          "name": "controllerSig",
          "type": "bytes"
        }
      ],
      "name": "importPositionWithSignature",
      "outputs": [],
      "stateMutability": "nonpayable",
      "type": "function"
    },
    {
      "inputs": [
        {
          "internalType": "contract IPool",
          "name": "pool",
          "type": "address"
        },
        {
          "internalType": "address",
          "name": "user",
          "type": "address"
        },
        {
          "internalType": "bytes",
          "name": "controllerSig",
          "type": "bytes"
        }
      ],
      "name": "importVaultWithSignature",
      "outputs": [],
      "stateMutability": "nonpayable",
      "type": "function"
    }
  ],
  "bytecode": "0x6101a06040523480156200001257600080fd5b5060405162002a8e38038062002a8e833981810160405260608110156200003857600080fd5b8151602083018051604051929492938301929190846401000000008211156200006057600080fd5b9083019060208201858111156200007657600080fd5b82518660208202830111640100000000821117156200009457600080fd5b82525081516020918201928201910280838360005b83811015620000c3578181015183820152602001620000a9565b50505050905001604052602001805190602001909291905050506000836001600160a01b03166361d027b36040518163ffffffff1660e01b815260040160206040518083038186803b1580156200011957600080fd5b505afa1580156200012e573d6000803e3d6000fd5b505050506040513d60208110156200014557600080fd5b5051604080516336569e7760e01b815290519192506000916001600160a01b038416916336569e77916004808301926020929190829003018186803b1580156200018e57600080fd5b505afa158015620001a3573d6000803e3d6000fd5b505050506040513d6020811015620001ba57600080fd5b505160408051633fc8cef360e01b815290519192506000916001600160a01b03851691633fc8cef3916004808301926020929190829003018186803b1580156200020357600080fd5b505afa15801562000218573d6000803e3d6000fd5b505050506040513d60208110156200022f57600080fd5b50516040805163f4b9fa7560e01b815290519192506000916001600160a01b0386169163f4b9fa75916004808301926020929190829003018186803b1580156200027857600080fd5b505afa1580156200028d573d6000803e3d6000fd5b505050506040513d6020811015620002a457600080fd5b505160408051633045916f60e21b815290519192506000916001600160a01b0387169163c11645bc916004808301926020929190829003018186803b158015620002ed57600080fd5b505afa15801562000302573d6000803e3d6000fd5b505050506040513d60208110156200031957600080fd5b505160408051632dbacef360e01b815290519192506000916001600160a01b03881691632dbacef3916004808301926020929190829003018186803b1580156200036257600080fd5b505afa15801562000377573d6000803e3d6000fd5b505050506040513d60208110156200038e57600080fd5b50516001600160601b031960608b811b82166101205288811b82166101405230811b6101605289901b1661018052905060005b8851811015620004fa57888181518110620003d857fe5b60200260200101516001600160a01b031663284f44446040518163ffffffff1660e01b815260040160206040518083038186803b1580156200041957600080fd5b505afa1580156200042e573d6000803e3d6000fd5b505050506040513d60208110156200044557600080fd5b505189516001600160a01b039091169063095ea7b3908b90849081106200046857fe5b60200260200101516000196040518363ffffffff1660e01b815260040180836001600160a01b03166001600160a01b0316815260200182815260200192505050602060405180830381600087803b158015620004c357600080fd5b505af1158015620004d8573d6000803e3d6000fd5b505050506040513d6020811015620004ef57600080fd5b5050600101620003c1565b506040805163095ea7b360e01b81526001600160a01b038881166004830152600019602483015291519186169163095ea7b3916044808201926020929091908290030181600087803b1580156200055057600080fd5b505af115801562000565573d6000803e3d6000fd5b505050506040513d60208110156200057c57600080fd5b5050604080516328ec8bf160e21b81526001600160a01b03838116600483015291519187169163a3b22fc49160248082019260009290919082900301818387803b158015620005ca57600080fd5b505af1158015620005df573d6000803e3d6000fd5b50506040805163095ea7b360e01b81526001600160a01b03868116600483015260001960248301529151918716935063095ea7b392506044808201926020929091908290030181600087803b1580156200063857600080fd5b505af11580156200064d573d6000803e3d6000fd5b505050506040513d60208110156200066457600080fd5b50506001600160601b0319606095861b811660805293851b841660a05291841b831660c052831b82166101005290911b1660e0525050505060805160601c60a05160601c60c05160601c60e05160601c6101005160601c6101205160601c6101405160601c6101605160601c6101805160601c6122d4620007ba600039806106eb5280610fcf5280611451528061159252806117085250806107c3528061085d528061093a52806109d15280610cd95280610dc452806113e9528061185e525080610e04525080610d0d5280610da1528061183b52806118be5280611f125280611f785250806116b05280611c78525080610a3d5280611e7652508061189a5280611ca3525080610b485250806108245280610a615280610ab85280610b6f5280610c485280610e2b5280610eda52806110ba5280611249528061152952806117e05280611b225280611d7f52506122d46000f3fe608060405234801561001057600080fd5b50600436106101a95760003560e01c806388d52dca116100f9578063b50cbd9f11610097578063dc4d20fa11610071578063dc4d20fa14610522578063e8cebe0214610548578063f4b9fa7514610607578063f77c47911461060f576101a9565b8063b50cbd9f1461049b578063be0e7927146104a3578063c11645bc1461051a576101a9565b80639d8e2177116100d35780639d8e217714610465578063a3b22fc41461046d578063ad5c464814610493578063b47148041461039f576101a9565b806388d52dca146103f5578063956a1642146104215780639a14d7211461045d576101a9565b8063418964dd1161016657806361d027b31161014057806361d027b314610397578063627ea4b11461039f5780637e3d4cfa146103bc5780638425fc8a146103d8576101a9565b8063418964dd1461028c57806354e8b998146102a95780635696a38a146102cc576101a9565b80631aa1a50c146101ae5780632a1efe59146101ec5780632dbacef31461022a57806336569e771461024e5780633dee723e146102565780633fc8cef314610284575b600080fd5b6101da600480360360408110156101c457600080fd5b506001600160a01b038135169060200135610617565b60408051918252519081900360200190f35b6102286004803603608081101561020257600080fd5b506001600160a01b038135811691602081013590911690604081013590606001356106b5565b005b610232610a3b565b604080516001600160a01b039092168252519081900360200190f35b610232610a5f565b6102286004803603604081101561026c57600080fd5b506001600160a01b0381358116916020013516610a83565b610232610b46565b6101da600480360360208110156102a257600080fd5b5035610b6a565b6102b1610c1b565b60408051921515835290151560208301528051918290030190f35b610228600480360360a08110156102e257600080fd5b6001600160a01b03823581169260208101359091169160408201359160608101359181019060a08101608082013564010000000081111561032257600080fd5b82018360208201111561033457600080fd5b8035906020019184600183028401116401000000008311171561035657600080fd5b91908080601f016020809104026020016040519081016040528093929190818152602001838380828437600092019190915250929550610d8d945050505050565b610232610e02565b6101da600480360360208110156103b557600080fd5b5035610e26565b6103c4610ed0565b604080519115158252519081900360200190f35b6101da600480360360208110156103ee57600080fd5b5035610ed5565b6101da6004803603604081101561040b57600080fd5b506001600160a01b038135169060200135610f7f565b6102286004803603608081101561043757600080fd5b506001600160a01b03813581169160208101359091169060408101359060600135610f99565b6102326113e7565b6101da61140b565b6102286004803603602081101561048357600080fd5b50356001600160a01b031661141b565b6101da611584565b610232611590565b610228600480360360408110156104b957600080fd5b813591908101906040810160208201356401000000008111156104db57600080fd5b8201836020820111156104ed57600080fd5b8035906020019184600183028401116401000000008311171561050f57600080fd5b5090925090506115b4565b6102326116ae565b6102286004803603602081101561053857600080fd5b50356001600160a01b03166116d2565b6102286004803603606081101561055e57600080fd5b6001600160a01b03823581169260208101359091169181019060608101604082013564010000000081111561059257600080fd5b8201836020820111156105a457600080fd5b803590602001918460018302840111640100000000831117156105c657600080fd5b91908080601f016020809104026020016040519081016040528093929190818152602001838380828437600092019190915250929550611827945050505050565b610232611898565b6102326118bc565b6000826001600160a01b03166398ba4aec610631846118e0565b6040518263ffffffff1660e01b815260040180826001600160801b03166001600160801b0316815260200191505060206040518083038186803b15801561067757600080fd5b505afa15801561068b573d6000803e3d6000fd5b505050506040513d60208110156106a157600080fd5b50516001600160801b031690505b92915050565b6001600160a01b03831633148061076857506040805163c455279160e01b81526001600160a01b038581166004830152915133927f0000000000000000000000000000000000000000000000000000000000000000169163c4552791916024808301926020929190829003018186803b15801561073157600080fd5b505afa158015610745573d6000803e3d6000fd5b505050506040513d602081101561075b57600080fd5b50516001600160a01b0316145b6107a35760405162461bcd60e51b815260040180806020018281038252602181526020018061227e6021913960400191505060405180910390fd5b604080516328ec8bf160e21b815233600482015290516001600160a01b037f0000000000000000000000000000000000000000000000000000000000000000169163a3b22fc491602480830192600092919082900301818387803b15801561080a57600080fd5b505af115801561081e573d6000803e3d6000fd5b505050507f00000000000000000000000000000000000000000000000000000000000000006001600160a01b031663870c616d644554482d4160d81b857f00000000000000000000000000000000000000000000000000000000000000006108858761193c565b61088e8761193c565b6040518663ffffffff1660e01b815260040180868152602001856001600160a01b03166001600160a01b03168152602001846001600160a01b03166001600160a01b0316815260200183815260200182815260200195505050505050600060405180830381600087803b15801561090457600080fd5b505af1158015610918573d6000803e3d6000fd5b505060408051636e26907d60e11b815233600482015290516001600160a01b037f000000000000000000000000000000000000000000000000000000000000000016935063dc4d20fa9250602480830192600092919082900301818387803b15801561098357600080fd5b505af1158015610997573d6000803e3d6000fd5b505060408051634ab50b2160e11b81526001600160a01b0388811660048301528781166024830152604482018790526064820186905291517f0000000000000000000000000000000000000000000000000000000000000000909216935063956a1642925060848082019260009290919082900301818387803b158015610a1d57600080fd5b505af1158015610a31573d6000803e3d6000fd5b5050505050505050565b7f000000000000000000000000000000000000000000000000000000000000000081565b7f000000000000000000000000000000000000000000000000000000000000000081565b604080516309092f9760e21b8152644554482d4160d81b60048201526001600160a01b038381166024830152825160009384937f000000000000000000000000000000000000000000000000000000000000000090931692632424be5c9260448083019392829003018186803b158015610afc57600080fd5b505afa158015610b10573d6000803e3d6000fd5b505050506040513d6040811015610b2657600080fd5b5080516020909101519092509050610b40848484846106b5565b50505050565b7f000000000000000000000000000000000000000000000000000000000000000081565b6000807f00000000000000000000000000000000000000000000000000000000000000006001600160a01b031663d9638d36644554482d4160d81b6040518263ffffffff1660e01b81526004018082815260200191505060a06040518083038186803b158015610bd957600080fd5b505afa158015610bed573d6000803e3d6000fd5b505050506040513d60a0811015610c0357600080fd5b50602001519050610c148382611994565b9392505050565b60408051634538c4eb60e01b81523360048201523060248201529051600091829182916001600160a01b037f00000000000000000000000000000000000000000000000000000000000000001691634538c4eb91604480820192602092909190829003018186803b158015610c8f57600080fd5b505afa158015610ca3573d6000803e3d6000fd5b505050506040513d6020811015610cb957600080fd5b50516040805163f6bcbd3160e01b81523360048201526001600160a01b037f0000000000000000000000000000000000000000000000000000000000000000811660248301529151600190931493506000927f00000000000000000000000000000000000000000000000000000000000000009092169163f6bcbd3191604480820192602092909190829003018186803b158015610d5657600080fd5b505afa158015610d6a573d6000803e3d6000fd5b505050506040513d6020811015610d8057600080fd5b5051919350909150509091565b805115610def57610def6001600160a01b037f000000000000000000000000000000000000000000000000000000000000000016857f00000000000000000000000000000000000000000000000000000000000000008463ffffffff6119c216565b610dfb858585856106b5565b5050505050565b7f000000000000000000000000000000000000000000000000000000000000000081565b6000807f00000000000000000000000000000000000000000000000000000000000000006001600160a01b031663d9638d36644554482d4160d81b6040518263ffffffff1660e01b81526004018082815260200191505060a06040518083038186803b158015610e9557600080fd5b505afa158015610ea9573d6000803e3d6000fd5b505050506040513d60a0811015610ebf57600080fd5b50604001519050610c148382611a6b565b600181565b6000807f00000000000000000000000000000000000000000000000000000000000000006001600160a01b031663d9638d36644554482d4160d81b6040518263ffffffff1660e01b81526004018082815260200191505060a06040518083038186803b158015610f4457600080fd5b505afa158015610f58573d6000803e3d6000fd5b505050506040513d60a0811015610f6e57600080fd5b50602001519050610c148382611a6b565b6000826001600160a01b0316634e20e952610631846118e0565b6001600160a01b03831633148061104c57506040805163c455279160e01b81526001600160a01b038581166004830152915133927f0000000000000000000000000000000000000000000000000000000000000000169163c4552791916024808301926020929190829003018186803b15801561101557600080fd5b505afa158015611029573d6000803e3d6000fd5b505050506040513d602081101561103f57600080fd5b50516001600160a01b0316145b6110875760405162461bcd60e51b815260040180806020018281038252602181526020018061227e6021913960400191505060405180910390fd5b604080516309092f9760e21b8152644554482d4160d81b6004820152306024820152815160009283926001600160a01b037f00000000000000000000000000000000000000000000000000000000000000001692632424be5c92604480840193919291829003018186803b1580156110fe57600080fd5b505afa158015611112573d6000803e3d6000fd5b505050506040513d604081101561112857600080fd5b5080516020909101519092509050808311156111755760405162461bcd60e51b81526004018080602001828103825260258152602001806121ce6025913960400191505060405180910390fd5b818411156111b45760405162461bcd60e51b815260040180806020018281038252602b815260200180612232602b913960400191505060405180910390fd5b6000866001600160a01b031663284f44446040518163ffffffff1660e01b815260040160206040518083038186803b1580156111ef57600080fd5b505afa158015611203573d6000803e3d6000fd5b505050506040513d602081101561121957600080fd5b505160408051636cb1c69b60e11b8152644554482d4160d81b600482015290519192506000916001600160a01b037f0000000000000000000000000000000000000000000000000000000000000000169163d9638d369160248083019260a0929190829003018186803b15801561128f57600080fd5b505afa1580156112a3573d6000803e3d6000fd5b505050506040513d60a08110156112b957600080fd5b506020015190506001600160a01b03821663522c80676112e28a6112dd8986611994565b610f7f565b604080516001600160a01b03808e16602080840191909152908d1682840152606082018c905260808083018c90528351808403909101815260a083018085526001600160e01b031960e088901b16905260a4830185815260c48401948552815160e48501528151919490939092610104909101919085019080838360005b83811015611378578181015183820152602001611360565b50505050905090810190601f1680156113a55780820380516001836020036101000a031916815260200191505b509350505050600060405180830381600087803b1580156113c557600080fd5b505af11580156113d9573d6000803e3d6000fd5b505050505050505050505050565b7f000000000000000000000000000000000000000000000000000000000000000081565b6b033b2e3c9fd0803ce800000081565b6001600160a01b0381163314806114ce57506040805163c455279160e01b81526001600160a01b038381166004830152915133927f0000000000000000000000000000000000000000000000000000000000000000169163c4552791916024808301926020929190829003018186803b15801561149757600080fd5b505afa1580156114ab573d6000803e3d6000fd5b505050506040513d60208110156114c157600080fd5b50516001600160a01b0316145b6115095760405162461bcd60e51b815260040180806020018281038252602181526020018061227e6021913960400191505060405180910390fd5b604080516328ec8bf160e21b815233600482015290516001600160a01b037f0000000000000000000000000000000000000000000000000000000000000000169163a3b22fc491602480830192600092919082900301818387803b15801561157057600080fd5b505af1158015610dfb573d6000803e3d6000fd5b644554482d4160d81b81565b7f000000000000000000000000000000000000000000000000000000000000000081565b600080600080858560808110156115ca57600080fd5b5060408051630a13d11160e21b815281516001600160a01b0384358116985060208086013590911697509284013595506060909301359350869263284f444492600480840193919291829003018186803b15801561162757600080fd5b505afa15801561163b573d6000803e3d6000fd5b505050506040513d602081101561165157600080fd5b50516001600160a01b031633146116995760405162461bcd60e51b815260040180806020018281038252603f8152602001806121f3603f913960400191505060405180910390fd5b6116a584848484611a8d565b50505050505050565b7f000000000000000000000000000000000000000000000000000000000000000081565b6001600160a01b03811633148061178557506040805163c455279160e01b81526001600160a01b038381166004830152915133927f0000000000000000000000000000000000000000000000000000000000000000169163c4552791916024808301926020929190829003018186803b15801561174e57600080fd5b505afa158015611762573d6000803e3d6000fd5b505050506040513d602081101561177857600080fd5b50516001600160a01b0316145b6117c05760405162461bcd60e51b815260040180806020018281038252602181526020018061227e6021913960400191505060405180910390fd5b60408051636e26907d60e11b815233600482015290516001600160a01b037f0000000000000000000000000000000000000000000000000000000000000000169163dc4d20fa91602480830192600092919082900301818387803b15801561157057600080fd5b805115611889576118896001600160a01b037f000000000000000000000000000000000000000000000000000000000000000016837f00000000000000000000000000000000000000000000000000000000000000008463ffffffff6119c216565b6118938383610a83565b505050565b7f000000000000000000000000000000000000000000000000000000000000000081565b7f000000000000000000000000000000000000000000000000000000000000000081565b60006001600160801b03821115611938576040805162461bcd60e51b815260206004820152601760248201527653616665436173743a2043617374206f766572666c6f7760481b604482015290519081900360640190fd5b5090565b60006001600160ff1b03821115611938576040805162461bcd60e51b815260206004820152601760248201527653616665436173743a2043617374206f766572666c6f7760481b604482015290519081900360640190fd5b6000610c146b033b2e3c9fd0803ce80000006119b6858563ffffffff61207516565b9063ffffffff6120ce16565b60008060006119d084612110565b60408051631a28ff0560e01b81526001600160a01b038b811660048301528a81166024830152600019604483015260ff841660648301526084820186905260a482018590529151949750929550909350891691631a28ff059160c48082019260009290919082900301818387803b158015611a4a57600080fd5b505af1158015611a5e573d6000803e3d6000fd5b5050505050505050505050565b6000610c14826119b6856b033b2e3c9fd0803ce800000063ffffffff61207516565b6000846001600160a01b031663284f44446040518163ffffffff1660e01b815260040160206040518083038186803b158015611ac857600080fd5b505afa158015611adc573d6000803e3d6000fd5b505050506040513d6020811015611af257600080fd5b505160408051636cb1c69b60e11b8152644554482d4160d81b600482015290519192506000916001600160a01b037f0000000000000000000000000000000000000000000000000000000000000000169163d9638d369160248083019260a0929190829003018186803b158015611b6857600080fd5b505afa158015611b7c573d6000803e3d6000fd5b505050506040513d60a0811015611b9257600080fd5b5060200151905060006001600160a01b03871663cc5783d33080611bbe611bb98988611994565b6118e0565b604080516001600160e01b031960e087901b1681526001600160a01b0394851660048201529290931660248301526001600160801b03166044820152905160648083019260209291908290030181600087803b158015611c1d57600080fd5b505af1158015611c31573d6000803e3d6000fd5b505050506040513d6020811015611c4757600080fd5b5051604080516370a0823160e01b8152306004820181905291516001600160801b0390931693506001600160a01b037f0000000000000000000000000000000000000000000000000000000000000000811693633b4da69f93927f0000000000000000000000000000000000000000000000000000000000000000909216916370a08231916024808301926020929190829003018186803b158015611ceb57600080fd5b505afa158015611cff573d6000803e3d6000fd5b505050506040513d6020811015611d1557600080fd5b5051604080516001600160e01b031960e086901b1681526001600160a01b039093166004840152602483019190915251604480830192600092919082900301818387803b158015611d6557600080fd5b505af1158015611d79573d6000803e3d6000fd5b505050507f00000000000000000000000000000000000000000000000000000000000000006001600160a01b03166376088703644554482d4160d81b303030611dc18b61193c565b600003611dcd8b61193c565b604080516001600160e01b031960e08a901b16815260048101979097526001600160a01b03958616602488015293851660448701529190931660648501526084840192909252600091820360a48401525160c48084019382900301818387803b158015611e3957600080fd5b505af1158015611e4d573d6000803e3d6000fd5b50506040805163ef693bed60e01b81523060048201526024810189905290516001600160a01b037f000000000000000000000000000000000000000000000000000000000000000016935063ef693bed9250604480830192600092919082900301818387803b158015611ebf57600080fd5b505af1158015611ed3573d6000803e3d6000fd5b5050604080516356dcf2a760e11b8152644554482d4160d81b60048201523060248201526001600160a01b038a81166044830152606482018a905291517f0000000000000000000000000000000000000000000000000000000000000000909216935063adb9e54e925060848082019260009290919082900301818387803b158015611f5e57600080fd5b505af1158015611f72573d6000803e3d6000fd5b505050507f00000000000000000000000000000000000000000000000000000000000000006001600160a01b031663801d325f644554482d4160d81b856001600160a01b031663204f83f96040518163ffffffff1660e01b815260040160206040518083038186803b158015611fe757600080fd5b505afa158015611ffb573d6000803e3d6000fd5b505050506040513d602081101561201157600080fd5b5051604080516001600160e01b031960e086901b168152600481019390935260248301919091526001600160a01b038a166044830152306064830152608482018590525160a480830192600092919082900301818387803b158015611a4a57600080fd5b600082612084575060006106af565b8282028284828161209157fe5b0414610c145760405162461bcd60e51b815260040180806020018281038252602181526020018061225d6021913960400191505060405180910390fd5b6000610c1483836040518060400160405280601a81526020017f536166654d6174683a206469766973696f6e206279207a65726f00000000000081525061212b565b60208101516040820151606090920151909260009190911a90565b600081836121b75760405162461bcd60e51b81526004018080602001828103825283818151815260200191508051906020019080838360005b8381101561217c578181015183820152602001612164565b50505050905090810190601f1680156121a95780820380516001836020036101000a031916815260200191505b509250505060405180910390fd5b5060008385816121c357fe5b049594505050505056fe496d706f727450726f78793a204e6f7420656e6f756768206465627420696e204d616b6572496d706f727450726f78793a2043616c6c6261636b207265737472696374656420746f20746865206679446169206d61746368696e672074686520706f6f6c496d706f727450726f78793a204e6f7420656e6f75676820636f6c6c61746572616c20696e204d616b6572536166654d6174683a206d756c7469706c69636174696f6e206f766572666c6f775265737472696374656420746f2075736572206f722069747320647370726f7879a2646970667358221220b6b9f9d923bc641f438fe73e2682a4d28d55a3b4e2b8e3c237dfc334454e9ed864736f6c634300060a0033",
  "immutableReferences": {
    "24387": [
      {
        "length": 32,
        "start": 2084
      },
      {
        "length": 32,
        "start": 2657
      },
      {
        "length": 32,
        "start": 2744
      },
      {
        "length": 32,
        "start": 2927
      },
      {
        "length": 32,
        "start": 3144
      },
      {
        "length": 32,
        "start": 3627
      },
      {
        "length": 32,
        "start": 3802
      },
      {
        "length": 32,
        "start": 4282
      },
      {
        "length": 32,
        "start": 4681
      },
      {
        "length": 32,
        "start": 5417
      },
      {
        "length": 32,
        "start": 6112
      },
      {
        "length": 32,
        "start": 6946
      },
      {
        "length": 32,
        "start": 7551
      }
    ],
    "24389": [
      {
        "length": 32,
        "start": 2888
      }
    ],
    "24391": [
      {
        "length": 32,
        "start": 6298
      },
      {
        "length": 32,
        "start": 7331
      }
    ],
    "24393": [
      {
        "length": 32,
        "start": 2621
      },
      {
        "length": 32,
        "start": 7798
      }
    ],
    "24395": [
      {
        "length": 32,
        "start": 5808
      },
      {
        "length": 32,
        "start": 7288
      }
    ],
    "24397": [
      {
        "length": 32,
        "start": 3341
      },
      {
        "length": 32,
        "start": 3489
      },
      {
        "length": 32,
        "start": 6203
      },
      {
        "length": 32,
        "start": 6334
      },
      {
        "length": 32,
        "start": 7954
      },
      {
        "length": 32,
        "start": 8056
      }
    ],
    "24399": [
      {
        "length": 32,
        "start": 3588
      }
    ],
    "24401": [
      {
        "length": 32,
        "start": 1987
      },
      {
        "length": 32,
        "start": 2141
      },
      {
        "length": 32,
        "start": 2362
      },
      {
        "length": 32,
        "start": 2513
      },
      {
        "length": 32,
        "start": 3289
      },
      {
        "length": 32,
        "start": 3524
      },
      {
        "length": 32,
        "start": 5097
      },
      {
        "length": 32,
        "start": 6238
      }
    ],
    "24403": [
      {
        "length": 32,
        "start": 1771
      },
      {
        "length": 32,
        "start": 4047
      },
      {
        "length": 32,
        "start": 5201
      },
      {
        "length": 32,
        "start": 5522
      },
      {
        "length": 32,
        "start": 5896
      }
    ]
  },
  "source": "// SPDX-License-Identifier: GPL-3.0-or-later\npragma solidity ^0.6.10;\n\nimport \"@openzeppelin/contracts/token/ERC20/IERC20.sol\";\nimport \"../interfaces/IController.sol\";\nimport \"../interfaces/IWeth.sol\";\nimport \"../interfaces/IGemJoin.sol\";\nimport \"../interfaces/IDaiJoin.sol\";\nimport \"../interfaces/IVat.sol\";\nimport \"../interfaces/IPool.sol\";\nimport \"../interfaces/IFYDai.sol\";\nimport \"../interfaces/IFlashMinter.sol\";\nimport \"../helpers/DecimalMath.sol\";\nimport \"../helpers/SafeCast.sol\";\nimport \"../helpers/YieldAuth.sol\";\nimport \"@nomiclabs/buidler/console.sol\";\n\ninterface IImportProxy {\n    function importFromProxy(IPool, address, uint256, uint256) external;\n    function hope(address) external;\n    function nope(address) external;\n}\n\ninterface IProxyRegistry {\n    function proxies(address) external view returns (address);\n}\n\ncontract ImportProxy is DecimalMath, IFlashMinter {\n    using SafeCast for uint256;\n    using YieldAuth for IController;\n\n    IVat public immutable vat;\n    IWeth public immutable weth;\n    IERC20 public immutable dai;\n    IGemJoin public immutable wethJoin;\n    IDaiJoin public immutable daiJoin;\n    IController public immutable controller;\n    address public immutable treasury;\n    IImportProxy public immutable importProxy;\n    IProxyRegistry public immutable proxyRegistry;\n\n    bytes32 public constant WETH = \"ETH-A\";\n    bool public constant MTY = true;\n\n    constructor(IController controller_, IPool[] memory pools_, IProxyRegistry proxyRegistry_) public {\n        ITreasury _treasury = controller_.treasury();\n\n        IVat _vat = _treasury.vat();\n        IWeth _weth = _treasury.weth();\n        IERC20 _dai = _treasury.dai();\n        address _daiJoin = address(_treasury.daiJoin());\n        address _wethJoin = address(_treasury.wethJoin());\n        \n\n        controller = controller_;\n        treasury = address(_treasury);\n        importProxy = IImportProxy(address(this)); // This contract has two functions, as itself, and delegatecalled by a dsproxy.\n\n        proxyRegistry = proxyRegistry_;\n\n        // Allow pool to take fyDai for trading\n        for (uint i = 0 ; i < pools_.length; i++) {\n            pools_[i].fyDai().approve(address(pools_[i]), type(uint256).max);\n        }\n\n        // Allow treasury to take weth for posting\n        _weth.approve(address(_treasury), type(uint256).max);\n\n        // Allow wethJoin to move weth out of vat for this proxy\n        _vat.hope(_wethJoin);\n\n        // Allow daiJoin to take Dai for paying debt\n        _dai.approve(_daiJoin, type(uint256).max);\n\n        vat = _vat;\n        weth = _weth;\n        dai = _dai;\n        daiJoin = IDaiJoin(_daiJoin);\n        wethJoin = IGemJoin(_wethJoin);\n    }\n\n    /// --------------------------------------------------\n    /// ImportProxy via dsproxy: Fork and Split\n    /// --------------------------------------------------\n\n    /// @dev Fork part of a user MakerDAO vault to ImportProxy, and call importProxy to transform it into a Yield vault\n    /// This function can be called from a dsproxy that already has a `vat.hope` on the user's MakerDAO Vault\n    /// @param pool fyDai Pool to use for migration, determining maturity of the Yield Vault\n    /// @param user CDP Vault to import\n    /// @param wethAmount Weth collateral to import\n    /// @param debtAmount Normalized debt to move ndai * rate = dai\n    function importPosition(IPool pool, address user, uint256 wethAmount, uint256 debtAmount) public {\n        require(user == msg.sender || proxyRegistry.proxies(user) == msg.sender, \"Restricted to user or its dsproxy\"); // Redundant?\n        importProxy.hope(msg.sender);                     // Allow the user or proxy to give importProxy the MakerDAO vault.\n        vat.fork(                                      // Take the treasury vault\n            WETH,\n            user,\n            address(importProxy),\n            wethAmount.toInt256(),\n            debtAmount.toInt256()\n        );\n        importProxy.nope(msg.sender);                     // Disallow the user or proxy to give importProxy the MakerDAO vault.\n        importProxy.importFromProxy(pool, user, wethAmount, debtAmount);\n    }\n\n    /// @dev Fork a user MakerDAO vault to ImportProxy, and call importProxy to transform it into a Yield vault\n    /// This function can be called from a dsproxy that already has a `vat.hope` on the user's MakerDAO Vault\n    /// @param pool fyDai Pool to use for migration, determining maturity of the Yield Vault\n    /// @param user CDP Vault to import\n    function importVault(IPool pool, address user) public {\n        (uint256 ink, uint256 art) = vat.urns(WETH, user);\n        importPosition(pool, user, ink, art);\n    }\n\n    /// --------------------------------------------------\n    /// ImportProxy as itself: Maker to Yield proxy\n    /// --------------------------------------------------\n\n    // Splitter accepts to take the user vault. Callable only by the user or its dsproxy\n    // Anyone can call this to donate a collateralized vault to Splitter.\n    function hope(address user) public {\n        require(user == msg.sender || proxyRegistry.proxies(user) == msg.sender, \"Restricted to user or its dsproxy\");\n        vat.hope(msg.sender);\n    }\n\n    // Splitter doesn't accept to take the user vault. Callable only by the user or its dsproxy\n    function nope(address user) public {\n        require(user == msg.sender || proxyRegistry.proxies(user) == msg.sender, \"Restricted to user or its dsproxy\");\n        vat.nope(msg.sender);\n    }\n\n    /// @dev Transfer debt and collateral from MakerDAO (this contract's CDP) to Yield (user's CDP)\n    /// Needs controller.addDelegate(importProxy.address, { from: user });\n    /// @param pool The pool to trade in (and therefore fyDai series to borrow)\n    /// @param user The user to receive the debt and collateral in Yield\n    /// @param wethAmount weth to move from MakerDAO to Yield. Needs to be high enough to collateralize the dai debt in Yield,\n    /// and low enough to make sure that debt left in MakerDAO is also collateralized.\n    /// @param debtAmount Normalized dai debt to move from MakerDAO to Yield. ndai * rate = dai\n    function importFromProxy(IPool pool, address user, uint256 wethAmount, uint256 debtAmount) public {\n        require(user == msg.sender || proxyRegistry.proxies(user) == msg.sender, \"Restricted to user or its dsproxy\");\n        // The user specifies the fyDai he wants to mint to cover his maker debt, the weth to be passed on as collateral, and the dai debt to move\n        (uint256 ink, uint256 art) = vat.urns(WETH, address(this));\n        require(\n            debtAmount <= art,\n            \"ImportProxy: Not enough debt in Maker\"\n        );\n        require(\n            wethAmount <= ink,\n            \"ImportProxy: Not enough collateral in Maker\"\n        );\n        // Flash mint the fyDai\n        IFYDai fyDai = pool.fyDai();\n        (, uint256 rate,,,) = vat.ilks(WETH);\n        fyDai.flashMint(\n            fyDaiForDai(pool, muld(debtAmount, rate)),\n            abi.encode(pool, user, wethAmount, debtAmount)\n        );\n    }\n\n    /// @dev Callback from `FYDai.flashMint()`\n    function executeOnFlashMint(uint256, bytes calldata data) external override {\n        (IPool pool, address user, uint256 wethAmount, uint256 debtAmount) = \n            abi.decode(data, (IPool, address, uint256, uint256));\n        require(msg.sender == address(IPool(pool).fyDai()), \"ImportProxy: Callback restricted to the fyDai matching the pool\");\n        // require(vat.can(address(this), user) == 1, \"ImportProxy: Unauthorized by user\");\n\n        _importFromProxy(pool, user, wethAmount, debtAmount);\n    }\n\n    /// @dev Convert from MakerDAO debt to Dai\n    function debtToDai(uint256 daiAmount) public view returns (uint256) {\n        (, uint256 rate,,,) = vat.ilks(WETH);\n        return muld(daiAmount, rate);\n    }\n\n    /// @dev Convert from Dai to MakerDAO debt\n    function daiToDebt(uint256 daiAmount) public view returns (uint256) {\n        (, uint256 rate,,,) = vat.ilks(WETH);\n        return divd(daiAmount, rate);\n    }\n\n    /// @dev Minimum weth needed to collateralize an amount of dai in MakerDAO\n    function wethForDai(uint256 daiAmount) public view returns (uint256) {\n        (,, uint256 spot,,) = vat.ilks(WETH);\n        return divd(daiAmount, spot);\n    }\n\n    /// @dev Minimum weth needed to collateralize an amount of fyDai in Yield. Yes, it's the same formula.\n    function wethForFYDai(uint256 fyDaiAmount) public view returns (uint256) {\n        (,, uint256 spot,,) = vat.ilks(WETH);\n        return divd(fyDaiAmount, spot);\n    }\n\n    /// @dev Amount of fyDai debt that will result from migrating Dai debt from MakerDAO to Yield\n    function fyDaiForDai(IPool pool, uint256 daiAmount) public view returns (uint256) {\n        return pool.buyDaiPreview(daiAmount.toUint128());\n    }\n\n    /// @dev Amount of dai debt that will result from migrating fyDai debt from Yield to MakerDAO\n    function daiForFYDai(IPool pool, uint256 fyDaiAmount) public view returns (uint256) {\n        return pool.buyFYDaiPreview(fyDaiAmount.toUint128());\n    }\n\n    /// @dev Internal function to transfer debt and collateral from MakerDAO to Yield\n    /// @param pool The pool to trade in (and therefore fyDai series to borrow)\n    /// @param user Vault to import.\n    /// @param wethAmount weth to move from MakerDAO to Yield. Needs to be high enough to collateralize the dai debt in Yield,\n    /// and low enough to make sure that debt left in MakerDAO is also collateralized.\n    /// @param debtAmount dai debt to move from MakerDAO to Yield. Denominated in Dai (= art * rate)\n    /// Needs vat.hope(importProxy.address, { from: user });\n    /// Needs controller.addDelegate(importProxy.address, { from: user });\n    function _importFromProxy(IPool pool, address user, uint256 wethAmount, uint256 debtAmount) internal {\n        IFYDai fyDai = IFYDai(pool.fyDai());\n\n        // Pool should take exactly all fyDai flash minted. ImportProxy will hold the dai temporarily\n        (, uint256 rate,,,) = vat.ilks(WETH);\n        uint256 fyDaiSold = pool.buyDai(address(this), address(this), muld(debtAmount, rate).toUint128());\n\n        daiJoin.join(address(this), dai.balanceOf(address(this)));      // Put the Dai in Maker\n        vat.frob(                           // Pay the debt and unlock collateral in Maker\n            WETH,\n            address(this),\n            address(this),\n            address(this),\n            -wethAmount.toInt256(),               // Removing Weth collateral\n            -debtAmount.toInt256()  // Removing Dai debt\n        );\n\n        wethJoin.exit(address(this), wethAmount);                       // Hold the weth in ImportProxy\n        controller.post(WETH, address(this), user, wethAmount);         // Add the collateral to Yield\n        controller.borrow(WETH, fyDai.maturity(), user, address(this), fyDaiSold); // Borrow the fyDai\n    }\n\n    /// --------------------------------------------------\n    /// Signature method wrappers\n    /// --------------------------------------------------\n    \n    /// @dev Determine whether all approvals and signatures are in place for `importPosition`.\n    /// If `return[0]` is `false`, calling `vat.hope(proxy.address)` will set the MakerDAO approval.\n    /// If `return[1]` is `false`, `importFromProxyWithSignature` must be called with a controller signature.\n    /// If `return` is `(true, true)`, `importFromProxy` won't fail because of missing approvals or signatures.\n    function importPositionCheck() public view returns (bool, bool) {\n        bool approvals = vat.can(msg.sender, address(this)) == 1;\n        bool controllerSig = controller.delegated(msg.sender, address(importProxy));\n        return (approvals, controllerSig);\n    }\n\n    /// @dev Transfer debt and collateral from MakerDAO to Yield\n    /// Needs vat.hope(importProxy.address, { from: user });\n    /// @param pool The pool to trade in (and therefore fyDai series to borrow)\n    /// @param user The user migrating a vault\n    /// @param wethAmount weth to move from MakerDAO to Yield. Needs to be high enough to collateralize the dai debt in Yield,\n    /// and low enough to make sure that debt left in MakerDAO is also collateralized.\n    /// @param debtAmount dai debt to move from MakerDAO to Yield. Denominated in Dai (= art * rate)\n    /// @param controllerSig packed signature for delegation of Splitter (not dsproxy) in the controller. Ignored if '0x'.\n    function importPositionWithSignature(IPool pool, address user, uint256 wethAmount, uint256 debtAmount, bytes memory controllerSig) public {\n        if (controllerSig.length > 0) controller.addDelegatePacked(user, address(importProxy), controllerSig);\n        return importPosition(pool, user, wethAmount, debtAmount);\n    }\n\n    function importVaultWithSignature(IPool pool, address user, bytes memory controllerSig) public {\n        if (controllerSig.length > 0) controller.addDelegatePacked(user, address(importProxy), controllerSig);\n        return importVault(pool, user);\n    }\n}\n",
  "sourcePath": "/Users/brucedonovan/dev/yield/yDai/contracts/peripheral/ImportProxy.sol",
  "compiler": {
    "name": "solc",
    "version": "0.6.10+commit.00c0fcaf.Emscripten.clang"
  },
  "schemaVersion": "3.2.3",
  "updatedAt": "2020-11-20T12:19:16.898Z",
  "devdoc": {
    "methods": {
      "daiForFYDai(address,uint256)": {
        "details": "Amount of dai debt that will result from migrating fyDai debt from Yield to MakerDAO"
      },
      "daiToDebt(uint256)": {
        "details": "Convert from Dai to MakerDAO debt"
      },
      "debtToDai(uint256)": {
        "details": "Convert from MakerDAO debt to Dai"
      },
      "executeOnFlashMint(uint256,bytes)": {
        "details": "Callback from `FYDai.flashMint()`"
      },
      "fyDaiForDai(address,uint256)": {
        "details": "Amount of fyDai debt that will result from migrating Dai debt from MakerDAO to Yield"
      },
      "importFromProxy(address,address,uint256,uint256)": {
        "details": "Transfer debt and collateral from MakerDAO (this contract's CDP) to Yield (user's CDP) Needs controller.addDelegate(importProxy.address, { from: user });",
        "params": {
          "debtAmount": "Normalized dai debt to move from MakerDAO to Yield. ndai * rate = dai",
          "pool": "The pool to trade in (and therefore fyDai series to borrow)",
          "user": "The user to receive the debt and collateral in Yield",
          "wethAmount": "weth to move from MakerDAO to Yield. Needs to be high enough to collateralize the dai debt in Yield, and low enough to make sure that debt left in MakerDAO is also collateralized."
        }
      },
      "importPosition(address,address,uint256,uint256)": {
        "details": "Fork part of a user MakerDAO vault to ImportProxy, and call importProxy to transform it into a Yield vault This function can be called from a dsproxy that already has a `vat.hope` on the user's MakerDAO Vault",
        "params": {
          "debtAmount": "Normalized debt to move ndai * rate = dai",
          "pool": "fyDai Pool to use for migration, determining maturity of the Yield Vault",
          "user": "CDP Vault to import",
          "wethAmount": "Weth collateral to import"
        }
      },
      "importPositionCheck()": {
        "details": "Determine whether all approvals and signatures are in place for `importPosition`. If `return[0]` is `false`, calling `vat.hope(proxy.address)` will set the MakerDAO approval. If `return[1]` is `false`, `importFromProxyWithSignature` must be called with a controller signature. If `return` is `(true, true)`, `importFromProxy` won't fail because of missing approvals or signatures."
      },
      "importPositionWithSignature(address,address,uint256,uint256,bytes)": {
        "details": "Transfer debt and collateral from MakerDAO to Yield Needs vat.hope(importProxy.address, { from: user });",
        "params": {
          "controllerSig": "packed signature for delegation of Splitter (not dsproxy) in the controller. Ignored if '0x'.",
          "debtAmount": "dai debt to move from MakerDAO to Yield. Denominated in Dai (= art * rate)",
          "pool": "The pool to trade in (and therefore fyDai series to borrow)",
          "user": "The user migrating a vault",
          "wethAmount": "weth to move from MakerDAO to Yield. Needs to be high enough to collateralize the dai debt in Yield, and low enough to make sure that debt left in MakerDAO is also collateralized."
        }
      },
      "importVault(address,address)": {
        "details": "Fork a user MakerDAO vault to ImportProxy, and call importProxy to transform it into a Yield vault This function can be called from a dsproxy that already has a `vat.hope` on the user's MakerDAO Vault",
        "params": {
          "pool": "fyDai Pool to use for migration, determining maturity of the Yield Vault",
          "user": "CDP Vault to import"
        }
      },
      "wethForDai(uint256)": {
        "details": "Minimum weth needed to collateralize an amount of dai in MakerDAO"
      },
      "wethForFYDai(uint256)": {
        "details": "Minimum weth needed to collateralize an amount of fyDai in Yield. Yes, it's the same formula."
      }
    }
  },
  "userdoc": {
    "methods": {
      "hope(address)": {
        "notice": "-------------------------------------------------- ImportProxy as itself: Maker to Yield proxy --------------------------------------------------"
      }
    }
  }
}