{
  "contractName": "ImportCdpProxy",
  "abi": [
    {
      "inputs": [
        {
          "internalType": "contract IController",
          "name": "controller_",
          "type": "address"
        },
        {
          "internalType": "contract IPool[]",
          "name": "pools_",
          "type": "address[]"
        },
        {
          "internalType": "contract IProxyRegistry",
          "name": "proxyRegistry_",
          "type": "address"
        },
        {
          "internalType": "contract ICDPMgr",
          "name": "cdpMgr_",
          "type": "address"
        }
      ],
      "stateMutability": "nonpayable",
      "type": "constructor"
    },
    {
      "inputs": [],
      "name": "UNIT",
      "outputs": [
        {
          "internalType": "uint256",
          "name": "",
          "type": "uint256"
        }
      ],
      "stateMutability": "view",
      "type": "function"
    },
    {
      "inputs": [],
      "name": "WETH",
      "outputs": [
        {
          "internalType": "bytes32",
          "name": "",
          "type": "bytes32"
        }
      ],
      "stateMutability": "view",
      "type": "function"
    },
    {
      "inputs": [],
      "name": "cdpMgr",
      "outputs": [
        {
          "internalType": "contract ICDPMgr",
          "name": "",
          "type": "address"
        }
      ],
      "stateMutability": "view",
      "type": "function"
    },
    {
      "inputs": [],
      "name": "controller",
      "outputs": [
        {
          "internalType": "contract IController",
          "name": "",
          "type": "address"
        }
      ],
      "stateMutability": "view",
      "type": "function"
    },
    {
      "inputs": [],
      "name": "dai",
      "outputs": [
        {
          "internalType": "contract IERC20",
          "name": "",
          "type": "address"
        }
      ],
      "stateMutability": "view",
      "type": "function"
    },
    {
      "inputs": [],
      "name": "daiJoin",
      "outputs": [
        {
          "internalType": "contract IDaiJoin",
          "name": "",
          "type": "address"
        }
      ],
      "stateMutability": "view",
      "type": "function"
    },
    {
      "inputs": [],
      "name": "importCdpProxy",
      "outputs": [
        {
          "internalType": "contract IImportCdpProxy",
          "name": "",
          "type": "address"
        }
      ],
      "stateMutability": "view",
      "type": "function"
    },
    {
      "inputs": [],
      "name": "proxyRegistry",
      "outputs": [
        {
          "internalType": "contract IProxyRegistry",
          "name": "",
          "type": "address"
        }
      ],
      "stateMutability": "view",
      "type": "function"
    },
    {
      "inputs": [],
      "name": "vat",
      "outputs": [
        {
          "internalType": "contract IVat",
          "name": "",
          "type": "address"
        }
      ],
      "stateMutability": "view",
      "type": "function"
    },
    {
      "inputs": [],
      "name": "weth",
      "outputs": [
        {
          "internalType": "contract IWeth",
          "name": "",
          "type": "address"
        }
      ],
      "stateMutability": "view",
      "type": "function"
    },
    {
      "inputs": [],
      "name": "wethJoin",
      "outputs": [
        {
          "internalType": "contract IGemJoin",
          "name": "",
          "type": "address"
        }
      ],
      "stateMutability": "view",
      "type": "function"
    },
    {
      "inputs": [
        {
          "internalType": "contract IPool",
          "name": "pool",
          "type": "address"
        },
        {
          "internalType": "uint256",
          "name": "cdp",
          "type": "uint256"
        },
        {
          "internalType": "uint256",
          "name": "wethAmount",
          "type": "uint256"
        },
        {
          "internalType": "uint256",
          "name": "debtAmount",
          "type": "uint256"
        },
        {
          "internalType": "uint256",
          "name": "maxDaiPrice",
          "type": "uint256"
        }
      ],
      "name": "importCdpPosition",
      "outputs": [],
      "stateMutability": "nonpayable",
      "type": "function"
    },
    {
      "inputs": [
        {
          "internalType": "contract IPool",
          "name": "pool",
          "type": "address"
        },
        {
          "internalType": "uint256",
          "name": "cdp",
          "type": "uint256"
        },
        {
          "internalType": "uint256",
          "name": "maxDaiPrice",
          "type": "uint256"
        }
      ],
      "name": "importCdp",
      "outputs": [],
      "stateMutability": "nonpayable",
      "type": "function"
    },
    {
      "inputs": [
        {
          "internalType": "uint256",
          "name": "cdp",
          "type": "uint256"
        },
        {
          "internalType": "address",
          "name": "user",
          "type": "address"
        }
      ],
      "name": "give",
      "outputs": [],
      "stateMutability": "nonpayable",
      "type": "function"
    },
    {
      "inputs": [
        {
          "internalType": "contract IPool",
          "name": "pool",
          "type": "address"
        },
        {
          "internalType": "address",
          "name": "user",
          "type": "address"
        },
        {
          "internalType": "uint256",
          "name": "cdp",
          "type": "uint256"
        },
        {
          "internalType": "uint256",
          "name": "wethAmount",
          "type": "uint256"
        },
        {
          "internalType": "uint256",
          "name": "debtAmount",
          "type": "uint256"
        },
        {
          "internalType": "uint256",
          "name": "maxDaiPrice",
          "type": "uint256"
        }
      ],
      "name": "importCdpFromProxy",
      "outputs": [],
      "stateMutability": "nonpayable",
      "type": "function"
    },
    {
      "inputs": [
        {
          "internalType": "uint256",
          "name": "",
          "type": "uint256"
        },
        {
          "internalType": "bytes",
          "name": "data",
          "type": "bytes"
        }
      ],
      "name": "executeOnFlashMint",
      "outputs": [],
      "stateMutability": "nonpayable",
      "type": "function"
    },
    {
      "inputs": [
        {
          "internalType": "uint256",
          "name": "cdp",
          "type": "uint256"
        }
      ],
      "name": "importCdpPositionCheck",
      "outputs": [
        {
          "internalType": "bool",
          "name": "",
          "type": "bool"
        },
        {
          "internalType": "bool",
          "name": "",
          "type": "bool"
        }
      ],
      "stateMutability": "view",
      "type": "function"
    },
    {
      "inputs": [
        {
          "internalType": "contract IPool",
          "name": "pool",
          "type": "address"
        },
        {
          "internalType": "uint256",
          "name": "cdp",
          "type": "uint256"
        },
        {
          "internalType": "uint256",
          "name": "wethAmount",
          "type": "uint256"
        },
        {
          "internalType": "uint256",
          "name": "debtAmount",
          "type": "uint256"
        },
        {
          "internalType": "uint256",
          "name": "maxDaiPrice",
          "type": "uint256"
        },
        {
          "internalType": "bytes",
          "name": "controllerSig",
          "type": "bytes"
        }
      ],
      "name": "importCdpPositionWithSignature",
      "outputs": [],
      "stateMutability": "nonpayable",
      "type": "function"
    },
    {
      "inputs": [
        {
          "internalType": "contract IPool",
          "name": "pool",
          "type": "address"
        },
        {
          "internalType": "uint256",
          "name": "cdp",
          "type": "uint256"
        },
        {
          "internalType": "uint256",
          "name": "maxDaiPrice",
          "type": "uint256"
        },
        {
          "internalType": "bytes",
          "name": "controllerSig",
          "type": "bytes"
        }
      ],
      "name": "importCdpWithSignature",
      "outputs": [],
      "stateMutability": "nonpayable",
      "type": "function"
    }
  ],
  "bytecode": "0x6101a06040523480156200001257600080fd5b506040516200298a3803806200298a833981810160405260808110156200003857600080fd5b8151602083018051604051929492938301929190846401000000008211156200006057600080fd5b9083019060208201858111156200007657600080fd5b82518660208202830111640100000000821117156200009457600080fd5b82525081516020918201928201910280838360005b83811015620000c3578181015183820152602001620000a9565b5050505090500160405260200180519060200190929190805190602001909291905050508383836000836001600160a01b03166361d027b36040518163ffffffff1660e01b815260040160206040518083038186803b1580156200012657600080fd5b505afa1580156200013b573d6000803e3d6000fd5b505050506040513d60208110156200015257600080fd5b5051604080516336569e7760e01b815290519192506000916001600160a01b038416916336569e77916004808301926020929190829003018186803b1580156200019b57600080fd5b505afa158015620001b0573d6000803e3d6000fd5b505050506040513d6020811015620001c757600080fd5b505160408051633fc8cef360e01b815290519192506000916001600160a01b03851691633fc8cef3916004808301926020929190829003018186803b1580156200021057600080fd5b505afa15801562000225573d6000803e3d6000fd5b505050506040513d60208110156200023c57600080fd5b50516040805163f4b9fa7560e01b815290519192506000916001600160a01b0386169163f4b9fa75916004808301926020929190829003018186803b1580156200028557600080fd5b505afa1580156200029a573d6000803e3d6000fd5b505050506040513d6020811015620002b157600080fd5b505160408051633045916f60e21b815290519192506000916001600160a01b0387169163c11645bc916004808301926020929190829003018186803b158015620002fa57600080fd5b505afa1580156200030f573d6000803e3d6000fd5b505050506040513d60208110156200032657600080fd5b505160408051632dbacef360e01b815290519192506000916001600160a01b03881691632dbacef3916004808301926020929190829003018186803b1580156200036f57600080fd5b505afa15801562000384573d6000803e3d6000fd5b505050506040513d60208110156200039b57600080fd5b50516001600160601b031960608b811b82166101205289901b1661014052905060005b8851811015620004f757888181518110620003d557fe5b60200260200101516001600160a01b031663284f44446040518163ffffffff1660e01b815260040160206040518083038186803b1580156200041657600080fd5b505afa1580156200042b573d6000803e3d6000fd5b505050506040513d60208110156200044257600080fd5b505189516001600160a01b039091169063095ea7b3908b90849081106200046557fe5b60200260200101516000196040518363ffffffff1660e01b815260040180836001600160a01b03166001600160a01b0316815260200182815260200192505050602060405180830381600087803b158015620004c057600080fd5b505af1158015620004d5573d6000803e3d6000fd5b505050506040513d6020811015620004ec57600080fd5b5050600101620003be565b506040805163095ea7b360e01b81526001600160a01b038881166004830152600019602483015291519186169163095ea7b3916044808201926020929091908290030181600087803b1580156200054d57600080fd5b505af115801562000562573d6000803e3d6000fd5b505050506040513d60208110156200057957600080fd5b5050604080516328ec8bf160e21b81526001600160a01b03838116600483015291519187169163a3b22fc49160248082019260009290919082900301818387803b158015620005c757600080fd5b505af1158015620005dc573d6000803e3d6000fd5b50506040805163095ea7b360e01b81526001600160a01b03868116600483015260001960248301529151918716935063095ea7b392506044808201926020929091908290030181600087803b1580156200063557600080fd5b505af11580156200064a573d6000803e3d6000fd5b505050506040513d60208110156200066157600080fd5b50506001600160601b0319606095861b811660805293851b841660a05291841b831660c052831b821661010052821b811660e05230821b6101805295901b909416610160525050505050505060805160601c60a05160601c60c05160601c60e05160601c6101005160601c6101205160601c6101405160601c6101605160601c6101805160601c6121ba620007d060003980610631528061097e5280610a8c5280610c925280610d5c5280610dc252806115dc5250806104d85280610507528061078f52806108b652806109c45280610ae25280610c625280610faf52806110fc5280611600528061194f5280611abd5280611b8b525080610ba85280610e625280611007525080610665528061095b5280610a6952806115b85280611cad5280611d13525080610f8b52806119255250806106e85280611c1152508061159452806119e352508061073052508061070c528061075752806110c4528061128d52806117d052506121ba6000f3fe608060405234801561001057600080fd5b50600436106101215760003560e01c8063af5ac77d116100ad578063eff379db11610071578063eff379db14610445578063f4b9fa751461048d578063f77c479114610495578063fbae732c1461049d578063fcafcc68146104a557610121565b8063af5ac77d14610378578063b50cbd9f146103b6578063be0e7927146103be578063c11645bc14610435578063ee6609331461043d57610121565b806365bb2c2c116100f457806365bb2c2c146101925780637fa68606146101c6578063901f70e6146102945780639d8e217714610356578063ad5c46481461037057610121565b806319ce0b14146101265780632dbacef31461015e57806336569e77146101825780633fc8cef31461018a575b600080fd5b6101436004803603602081101561013c57600080fd5b50356104d1565b60408051921515835290151560208301528051918290030190f35b6101666106e6565b604080516001600160a01b039092168252519081900360200190f35b61016661070a565b61016661072e565b6101c4600480360360608110156101a857600080fd5b506001600160a01b038135169060208101359060400135610752565b005b6101c4600480360360c08110156101dc57600080fd5b6001600160a01b03823516916020810135916040820135916060810135916080820135919081019060c0810160a082013564010000000081111561021f57600080fd5b82018360208201111561023157600080fd5b8035906020019184600183028401116401000000008311171561025357600080fd5b91908080601f0160208091040260200160405190810160405280939291908181526020018383808284376000920191909152509295506108b2945050505050565b6101c4600480360360808110156102aa57600080fd5b6001600160a01b0382351691602081013591604082013591908101906080810160608201356401000000008111156102e157600080fd5b8201836020820111156102f357600080fd5b8035906020019184600183028401116401000000008311171561031557600080fd5b91908080601f0160208091040260200160405190810160405280939291908181526020018383808284376000920191909152509295506109c0945050505050565b61035e610ac2565b60408051918252519081900360200190f35b61035e610ad2565b6101c4600480360360a081101561038e57600080fd5b506001600160a01b038135169060208101359060408101359060608101359060800135610ade565b610166610e60565b6101c4600480360360408110156103d457600080fd5b813591908101906040810160208201356401000000008111156103f657600080fd5b82018360208201111561040857600080fd5b8035906020019184600183028401116401000000008311171561042a57600080fd5b509092509050610e84565b610166610f89565b610166610fad565b6101c4600480360360c081101561045b57600080fd5b506001600160a01b03813581169160208101359091169060408101359060608101359060808101359060a00135610fd1565b610166611592565b6101666115b6565b6101666115da565b6101c4600480360360408110156104bb57600080fd5b50803590602001356001600160a01b03166115fe565b60008060007f00000000000000000000000000000000000000000000000000000000000000006001600160a01b0316635aebb4607f00000000000000000000000000000000000000000000000000000000000000006001600160a01b0316638161b120876040518263ffffffff1660e01b81526004018082815260200191505060206040518083038186803b15801561056957600080fd5b505afa15801561057d573d6000803e3d6000fd5b505050506040513d602081101561059357600080fd5b5051604080516001600160e01b031960e085901b1681526001600160a01b03909216600483015260248201889052306044830152516064808301926020929190829003018186803b1580156105e757600080fd5b505afa1580156105fb573d6000803e3d6000fd5b505050506040513d602081101561061157600080fd5b50516040805163f6bcbd3160e01b81523360048201526001600160a01b037f0000000000000000000000000000000000000000000000000000000000000000811660248301529151600190931493506000927f00000000000000000000000000000000000000000000000000000000000000009092169163f6bcbd3191604480820192602092909190829003018186803b1580156106ae57600080fd5b505afa1580156106c2573d6000803e3d6000fd5b505050506040513d60208110156106d857600080fd5b505191935090915050915091565b7f000000000000000000000000000000000000000000000000000000000000000081565b7f000000000000000000000000000000000000000000000000000000000000000081565b7f000000000000000000000000000000000000000000000000000000000000000081565b6000807f00000000000000000000000000000000000000000000000000000000000000006001600160a01b0316632424be5c644554482d4160d81b7f00000000000000000000000000000000000000000000000000000000000000006001600160a01b0316632726b073886040518263ffffffff1660e01b81526004018082815260200191505060206040518083038186803b1580156107f157600080fd5b505afa158015610805573d6000803e3d6000fd5b505050506040513d602081101561081b57600080fd5b5051604080516001600160e01b031960e086901b16815260048101939093526001600160a01b0390911660248301528051604480840193829003018186803b15801561086657600080fd5b505afa15801561087a573d6000803e3d6000fd5b505050506040513d604081101561089057600080fd5b50805160209091015190925090506108ab8585848487610ade565b5050505050565b60007f00000000000000000000000000000000000000000000000000000000000000006001600160a01b0316638161b120876040518263ffffffff1660e01b81526004018082815260200191505060206040518083038186803b15801561091857600080fd5b505afa15801561092c573d6000803e3d6000fd5b505050506040513d602081101561094257600080fd5b50518251909150156109a9576109a96001600160a01b037f000000000000000000000000000000000000000000000000000000000000000016827f00000000000000000000000000000000000000000000000000000000000000008563ffffffff61169216565b6109b68787878787610ade565b505b505050505050565b60007f00000000000000000000000000000000000000000000000000000000000000006001600160a01b0316638161b120856040518263ffffffff1660e01b81526004018082815260200191505060206040518083038186803b158015610a2657600080fd5b505afa158015610a3a573d6000803e3d6000fd5b505050506040513d6020811015610a5057600080fd5b5051825190915015610ab757610ab76001600160a01b037f000000000000000000000000000000000000000000000000000000000000000016827f00000000000000000000000000000000000000000000000000000000000000008563ffffffff61169216565b6108ab858585610752565b6b033b2e3c9fd0803ce800000081565b644554482d4160d81b81565b60007f00000000000000000000000000000000000000000000000000000000000000006001600160a01b0316638161b120866040518263ffffffff1660e01b81526004018082815260200191505060206040518083038186803b158015610b4457600080fd5b505afa158015610b58573d6000803e3d6000fd5b505050506040513d6020811015610b6e57600080fd5b505190506001600160a01b038116331480610c2557506040805163c455279160e01b81526001600160a01b038381166004830152915133927f0000000000000000000000000000000000000000000000000000000000000000169163c4552791916024808301926020929190829003018186803b158015610bee57600080fd5b505afa158015610c02573d6000803e3d6000fd5b505050506040513d6020811015610c1857600080fd5b50516001600160a01b0316145b610c605760405162461bcd60e51b815260040180806020018281038252603181526020018061212a6031913960400191505060405180910390fd5b7f00000000000000000000000000000000000000000000000000000000000000006001600160a01b031663fcafcc68867f00000000000000000000000000000000000000000000000000000000000000006040518363ffffffff1660e01b815260040180838152602001826001600160a01b03166001600160a01b0316815260200192505050600060405180830381600087803b158015610d0057600080fd5b505af1158015610d14573d6000803e3d6000fd5b50506040805163eff379db60e01b81526001600160a01b038a811660048301528581166024830152604482018a9052606482018990526084820188905260a4820187905291517f0000000000000000000000000000000000000000000000000000000000000000909216935063eff379db925060c48082019260009290919082900301818387803b158015610da857600080fd5b505af1158015610dbc573d6000803e3d6000fd5b505050507f00000000000000000000000000000000000000000000000000000000000000006001600160a01b031663fcafcc6886836040518363ffffffff1660e01b815260040180838152602001826001600160a01b03166001600160a01b0316815260200192505050600060405180830381600087803b158015610e4057600080fd5b505af1158015610e54573d6000803e3d6000fd5b50505050505050505050565b7f000000000000000000000000000000000000000000000000000000000000000081565b6000806000806000868660a0811015610e9c57600080fd5b5060408051630a13d11160e21b815281516001600160a01b038435811699506020808601359091169850928401359650606084013595506080909301359350879263284f444492600480840193919291829003018186803b158015610f0057600080fd5b505afa158015610f14573d6000803e3d6000fd5b505050506040513d6020811015610f2a57600080fd5b50516001600160a01b03163314610f725760405162461bcd60e51b81526004018080602001828103825260428152602001806120716042913960600191505060405180910390fd5b610f7f858585858561173b565b5050505050505050565b7f000000000000000000000000000000000000000000000000000000000000000081565b7f000000000000000000000000000000000000000000000000000000000000000081565b6001600160a01b03851633148061108457506040805163c455279160e01b81526001600160a01b038781166004830152915133927f0000000000000000000000000000000000000000000000000000000000000000169163c4552791916024808301926020929190829003018186803b15801561104d57600080fd5b505afa158015611061573d6000803e3d6000fd5b505050506040513d602081101561107757600080fd5b50516001600160a01b0316145b6110bf5760405162461bcd60e51b815260040180806020018281038252603181526020018061212a6031913960400191505060405180910390fd5b6000807f00000000000000000000000000000000000000000000000000000000000000006001600160a01b0316632424be5c644554482d4160d81b7f00000000000000000000000000000000000000000000000000000000000000006001600160a01b0316632726b0738a6040518263ffffffff1660e01b81526004018082815260200191505060206040518083038186803b15801561115e57600080fd5b505afa158015611172573d6000803e3d6000fd5b505050506040513d602081101561118857600080fd5b5051604080516001600160e01b031960e086901b16815260048101939093526001600160a01b0390911660248301528051604480840193829003018186803b1580156111d357600080fd5b505afa1580156111e7573d6000803e3d6000fd5b505050506040513d60408110156111fd57600080fd5b50805160209091015190925090508084111561124a5760405162461bcd60e51b81526004018080602001828103825260288152602001806120b36028913960400191505060405180910390fd5b818511156112895760405162461bcd60e51b815260040180806020018281038252602e8152602001806120db602e913960400191505060405180910390fd5b60007f00000000000000000000000000000000000000000000000000000000000000006001600160a01b031663d9638d36644554482d4160d81b6040518263ffffffff1660e01b81526004018082815260200191505060a06040518083038186803b1580156112f757600080fd5b505afa15801561130b573d6000803e3d6000fd5b505050506040513d60a081101561132157600080fd5b5060200151905060006113348683611e32565b905060008a6001600160a01b0316634e20e95261135084611e69565b6040518263ffffffff1660e01b815260040180826001600160801b03166001600160801b0316815260200191505060206040518083038186803b15801561139657600080fd5b505afa1580156113aa573d6000803e3d6000fd5b505050506040513d60208110156113c057600080fd5b50516001600160801b031690506113d78287611e32565b8111156114155760405162461bcd60e51b815260040180806020018281038252602a81526020018061215b602a913960400191505060405180910390fd5b60008b6001600160a01b031663284f44446040518163ffffffff1660e01b815260040160206040518083038186803b15801561145057600080fd5b505afa158015611464573d6000803e3d6000fd5b505050506040513d602081101561147a57600080fd5b5051604080516001600160a01b038f81166020838101919091528f821683850152606083018f9052608083018e905260a08084018e90528451808503909101815260c0840180865263522c806760e01b905260c4840188815260e48501958652815161010486015281519697509287169563522c8067958995929493909261012401919085019080838360005b8381101561151f578181015183820152602001611507565b50505050905090810190601f16801561154c5780820380516001836020036101000a031916815260200191505b509350505050600060405180830381600087803b15801561156c57600080fd5b505af1158015611580573d6000803e3d6000fd5b50505050505050505050505050505050565b7f000000000000000000000000000000000000000000000000000000000000000081565b7f000000000000000000000000000000000000000000000000000000000000000081565b7f000000000000000000000000000000000000000000000000000000000000000081565b7f00000000000000000000000000000000000000000000000000000000000000006001600160a01b031663fcafcc6883836040518363ffffffff1660e01b815260040180838152602001826001600160a01b03166001600160a01b0316815260200192505050600060405180830381600087803b15801561167e57600080fd5b505af11580156109b8573d6000803e3d6000fd5b60008060006116a084611ec5565b60408051631a28ff0560e01b81526001600160a01b038b811660048301528a81166024830152600019604483015260ff841660648301526084820186905260a482018590529151949750929550909350891691631a28ff059160c48082019260009290919082900301818387803b15801561171a57600080fd5b505af115801561172e573d6000803e3d6000fd5b5050505050505050505050565b6000856001600160a01b031663284f44446040518163ffffffff1660e01b815260040160206040518083038186803b15801561177657600080fd5b505afa15801561178a573d6000803e3d6000fd5b505050506040513d60208110156117a057600080fd5b505160408051636cb1c69b60e11b8152644554482d4160d81b600482015290519192506000916001600160a01b037f0000000000000000000000000000000000000000000000000000000000000000169163d9638d369160248083019260a0929190829003018186803b15801561181657600080fd5b505afa15801561182a573d6000803e3d6000fd5b505050506040513d60a081101561184057600080fd5b5060200151905060006001600160a01b03881663cc5783d3308061186c6118678988611e32565b611e69565b604080516001600160e01b031960e087901b1681526001600160a01b0394851660048201529290931660248301526001600160801b03166044820152905160648083019260209291908290030181600087803b1580156118cb57600080fd5b505af11580156118df573d6000803e3d6000fd5b505050506040513d60208110156118f557600080fd5b505160408051632726b07360e01b81526004810189905290516001600160801b0390921692506001600160a01b037f0000000000000000000000000000000000000000000000000000000000000000811692633b4da69f927f000000000000000000000000000000000000000000000000000000000000000090921691632726b073916024808301926020929190829003018186803b15801561199757600080fd5b505afa1580156119ab573d6000803e3d6000fd5b505050506040513d60208110156119c157600080fd5b5051604080516370a0823160e01b815230600482015290516001600160a01b037f000000000000000000000000000000000000000000000000000000000000000016916370a08231916024808301926020929190829003018186803b158015611a2957600080fd5b505afa158015611a3d573d6000803e3d6000fd5b505050506040513d6020811015611a5357600080fd5b5051604080516001600160e01b031960e086901b1681526001600160a01b039093166004840152602483019190915251604480830192600092919082900301818387803b158015611aa357600080fd5b505af1158015611ab7573d6000803e3d6000fd5b505050507f00000000000000000000000000000000000000000000000000000000000000006001600160a01b03166345e6bdcd87611af488611ee0565b600003611b0088611ee0565b6000036040518463ffffffff1660e01b8152600401808481526020018381526020018281526020019350505050600060405180830381600087803b158015611b4757600080fd5b505af1158015611b5b573d6000803e3d6000fd5b5050604080516313771f0760e31b8152600481018a90523060248201526044810189905290516001600160a01b037f0000000000000000000000000000000000000000000000000000000000000000169350639bb8f8389250606480830192600092919082900301818387803b158015611bd457600080fd5b505af1158015611be8573d6000803e3d6000fd5b50506040805163ef693bed60e01b81523060048201526024810189905290516001600160a01b037f000000000000000000000000000000000000000000000000000000000000000016935063ef693bed9250604480830192600092919082900301818387803b158015611c5a57600080fd5b505af1158015611c6e573d6000803e3d6000fd5b5050604080516356dcf2a760e11b8152644554482d4160d81b60048201523060248201526001600160a01b038b81166044830152606482018a905291517f0000000000000000000000000000000000000000000000000000000000000000909216935063adb9e54e925060848082019260009290919082900301818387803b158015611cf957600080fd5b505af1158015611d0d573d6000803e3d6000fd5b505050507f00000000000000000000000000000000000000000000000000000000000000006001600160a01b031663801d325f644554482d4160d81b856001600160a01b031663204f83f96040518163ffffffff1660e01b815260040160206040518083038186803b158015611d8257600080fd5b505afa158015611d96573d6000803e3d6000fd5b505050506040513d6020811015611dac57600080fd5b5051604080516001600160e01b031960e086901b168152600481019390935260248301919091526001600160a01b038b166044830152306064830152608482018590525160a480830192600092919082900301818387803b158015611e1057600080fd5b505af1158015611e24573d6000803e3d6000fd5b505050505050505050505050565b6000611e606b033b2e3c9fd0803ce8000000611e54858563ffffffff611f3816565b9063ffffffff611f9116565b90505b92915050565b60006001600160801b03821115611ec1576040805162461bcd60e51b815260206004820152601760248201527653616665436173743a2043617374206f766572666c6f7760481b604482015290519081900360640190fd5b5090565b60208101516040820151606090920151909260009190911a90565b60006001600160ff1b03821115611ec1576040805162461bcd60e51b815260206004820152601760248201527653616665436173743a2043617374206f766572666c6f7760481b604482015290519081900360640190fd5b600082611f4757506000611e63565b82820282848281611f5457fe5b0414611e605760405162461bcd60e51b81526004018080602001828103825260218152602001806121096021913960400191505060405180910390fd5b6000611e6083836040518060400160405280601a81526020017f536166654d6174683a206469766973696f6e206279207a65726f0000000000008152506000818361205a5760405162461bcd60e51b81526004018080602001828103825283818151815260200191508051906020019080838360005b8381101561201f578181015183820152602001612007565b50505050905090810190601f16801561204c5780820380516001836020036101000a031916815260200191505b509250505060405180910390fd5b50600083858161206657fe5b049594505050505056fe496d706f727443647050726f78793a2043616c6c6261636b207265737472696374656420746f20746865206679446169206d61746368696e672074686520706f6f6c496d706f727443647050726f78793a204e6f7420656e6f756768206465627420696e204d616b6572496d706f727443647050726f78793a204e6f7420656e6f75676820636f6c6c61746572616c20696e204d616b6572536166654d6174683a206d756c7469706c69636174696f6e206f766572666c6f77496d706f727443647050726f78793a205265737472696374656420746f2075736572206f722069747320647370726f7879496d706f727443647050726f78793a204d6178696d756d20446169207072696365206578636565646564a264697066735822122050c2b56188328be5e1d844f3c80abfb240969e544ab49891f01b733f046ff42964736f6c634300060a0033",
  "immutableReferences": {
    "2120": [
      {
        "length": 32,
        "start": 1240
      },
      {
        "length": 32,
        "start": 1287
      },
      {
        "length": 32,
        "start": 1935
      },
      {
        "length": 32,
        "start": 2230
      },
      {
        "length": 32,
        "start": 2500
      },
      {
        "length": 32,
        "start": 2786
      },
      {
        "length": 32,
        "start": 3170
      },
      {
        "length": 32,
        "start": 4015
      },
      {
        "length": 32,
        "start": 4348
      },
      {
        "length": 32,
        "start": 5632
      },
      {
        "length": 32,
        "start": 6479
      },
      {
        "length": 32,
        "start": 6845
      },
      {
        "length": 32,
        "start": 7051
      }
    ],
    "2122": [
      {
        "length": 32,
        "start": 1585
      },
      {
        "length": 32,
        "start": 2430
      },
      {
        "length": 32,
        "start": 2700
      },
      {
        "length": 32,
        "start": 3218
      },
      {
        "length": 32,
        "start": 3420
      },
      {
        "length": 32,
        "start": 3522
      },
      {
        "length": 32,
        "start": 5596
      }
    ],
    "3357": [
      {
        "length": 32,
        "start": 1804
      },
      {
        "length": 32,
        "start": 1879
      },
      {
        "length": 32,
        "start": 4292
      },
      {
        "length": 32,
        "start": 4749
      },
      {
        "length": 32,
        "start": 6096
      }
    ],
    "3359": [
      {
        "length": 32,
        "start": 1840
      }
    ],
    "3361": [
      {
        "length": 32,
        "start": 5524
      },
      {
        "length": 32,
        "start": 6627
      }
    ],
    "3363": [
      {
        "length": 32,
        "start": 1768
      },
      {
        "length": 32,
        "start": 7185
      }
    ],
    "3365": [
      {
        "length": 32,
        "start": 3979
      },
      {
        "length": 32,
        "start": 6437
      }
    ],
    "3367": [
      {
        "length": 32,
        "start": 1637
      },
      {
        "length": 32,
        "start": 2395
      },
      {
        "length": 32,
        "start": 2665
      },
      {
        "length": 32,
        "start": 5560
      },
      {
        "length": 32,
        "start": 7341
      },
      {
        "length": 32,
        "start": 7443
      }
    ],
    "3369": [
      {
        "length": 32,
        "start": 2984
      },
      {
        "length": 32,
        "start": 3682
      },
      {
        "length": 32,
        "start": 4103
      }
    ]
  },
  "source": "// SPDX-License-Identifier: GPL-3.0-or-later\npragma solidity ^0.6.10;\n\nimport \"./interfaces/ICDPMgr.sol\";\nimport \"./interfaces/IFlashMinter.sol\";\nimport \"./helpers/DecimalMath.sol\";\nimport \"./helpers/SafeCast.sol\";\nimport \"./helpers/YieldAuth.sol\";\nimport \"./ImportProxyBase.sol\";\n\n\ninterface IImportCdpProxy {\n    function importCdpFromProxy(IPool, address, uint256, uint256, uint256, uint256) external;\n    function give(uint, address) external;\n}\n\ncontract ImportCdpProxy is ImportProxyBase, DecimalMath, IFlashMinter {\n    using SafeCast for uint256;\n    using YieldAuth for IController;\n\n    ICDPMgr public immutable cdpMgr;\n    IImportCdpProxy public immutable importCdpProxy;\n\n    constructor(IController controller_, IPool[] memory pools_, IProxyRegistry proxyRegistry_, ICDPMgr cdpMgr_)\n        public\n        ImportProxyBase(controller_, pools_, proxyRegistry_)\n    {\n        importCdpProxy = IImportCdpProxy(address(this)); // This contract has two functions, as itself, and delegatecalled by a dsproxy.\n        cdpMgr = cdpMgr_;\n    }\n\n    /// --------------------------------------------------\n    /// ImportCdpProxy via dsproxy: Fork and Split\n    /// --------------------------------------------------\n\n    /// @dev Migrate part of a CDPMgr-controlled MakerDAO vault to Yield.\n    /// This function can be called from a dsproxy that already has a `vat.hope` on the user's MakerDAO Vault\n    /// @param pool fyDai Pool to use for migration, determining maturity of the Yield Vault\n    // @param user User owning the CDP Vault to import\n    /// @param cdp CDP Vault to import\n    /// @param wethAmount Weth collateral to import\n    /// @param debtAmount Normalized debt to move ndai * rate = dai\n    /// @param maxDaiPrice Maximum fyDai price to pay for Dai\n    function importCdpPosition(IPool pool, uint256 cdp, uint256 wethAmount, uint256 debtAmount, uint256 maxDaiPrice) public {\n        address user = cdpMgr.owns(cdp);\n        require(user == msg.sender || proxyRegistry.proxies(user) == msg.sender, \"ImportCdpProxy: Restricted to user or its dsproxy\"); // Redundant?\n\n        cdpMgr.give(cdp, address(importCdpProxy));           // Give the CDP to importCdpProxy\n        importCdpProxy.importCdpFromProxy(pool, user, cdp, wethAmount, debtAmount, maxDaiPrice); // Migrate part of the CDP to a Yield Vault\n        importCdpProxy.give(cdp, user);                      // Return the rest of the CDP to its owner\n    }\n\n    /// @dev Migrate a CDPMgr-controlled MakerDAO vault to Yield.\n    /// This function can be called from a dsproxy that already has a `vat.hope` on the user's MakerDAO Vault\n    /// @param pool fyDai Pool to use for migration, determining maturity of the Yield Vault\n    /// @param cdp CDP Vault to import\n    /// @param maxDaiPrice Maximum fyDai price to pay for Dai\n    function importCdp(IPool pool, uint256 cdp, uint256 maxDaiPrice) public {\n        (uint256 ink, uint256 art) = vat.urns(WETH, cdpMgr.urns(cdp));\n        importCdpPosition(pool, cdp, ink, art, maxDaiPrice);\n    }\n\n    /// --------------------------------------------------\n    /// ImportCdpProxy as itself: Maker to Yield proxy\n    /// --------------------------------------------------\n\n    /// @dev ImportCdpProxy will freely give away any cdps it owns\n    function give(uint256 cdp, address user) public {\n        cdpMgr.give(cdp, user);\n    }\n\n    /// @dev Transfer debt and collateral from MakerDAO (this contract's CDP) to Yield (user's CDP)\n    /// Needs controller.addDelegate(importCdpProxy.address, { from: user });\n    /// @param pool The pool to trade in (and therefore fyDai series to borrow)\n    /// @param user The user to receive the debt and collateral in Yield\n    /// @param cdp The The CDP id containing the debt and collateral to migrate\n    /// @param wethAmount weth to move from MakerDAO to Yield. Needs to be high enough to collateralize the dai debt in Yield,\n    /// and low enough to make sure that debt left in MakerDAO is also collateralized.\n    /// @param debtAmount Normalized dai debt to move from MakerDAO to Yield. ndai * rate = dai\n    /// @param maxDaiPrice Maximum fyDai price to pay for Dai\n    function importCdpFromProxy(IPool pool, address user, uint256 cdp, uint256 wethAmount, uint256 debtAmount, uint256 maxDaiPrice) public {\n        require(user == msg.sender || proxyRegistry.proxies(user) == msg.sender, \"ImportCdpProxy: Restricted to user or its dsproxy\");\n        // The user specifies the fyDai he wants to mint to cover his maker debt, the weth to be passed on as collateral, and the dai debt to move\n        (uint256 ink, uint256 art) = vat.urns(WETH, cdpMgr.urns(cdp)); // Should this require be in `importPosition`?\n        require(\n            debtAmount <= art,\n            \"ImportCdpProxy: Not enough debt in Maker\"\n        );\n        require(\n            wethAmount <= ink,\n            \"ImportCdpProxy: Not enough collateral in Maker\"\n        );\n        (, uint256 rate,,,) = vat.ilks(WETH);\n        uint256 daiNeeded = muld(debtAmount, rate);\n        uint256 fyDaiAmount = pool.buyDaiPreview(daiNeeded.toUint128());\n        require(\n            fyDaiAmount <= muld(daiNeeded, maxDaiPrice),\n            \"ImportCdpProxy: Maximum Dai price exceeded\"\n        );\n\n        // Flash mint the fyDai\n        IFYDai fyDai = pool.fyDai();\n        fyDai.flashMint(\n            fyDaiAmount,\n            abi.encode(pool, user, cdp, wethAmount, debtAmount)\n        );\n    }\n\n    /// @dev Callback from `FYDai.flashMint()`\n    function executeOnFlashMint(uint256, bytes calldata data) external override {\n        (IPool pool, address user, uint256 cdp, uint256 wethAmount, uint256 debtAmount) = \n            abi.decode(data, (IPool, address, uint256, uint256, uint256));\n        require(msg.sender == address(IPool(pool).fyDai()), \"ImportCdpProxy: Callback restricted to the fyDai matching the pool\");\n        // require(vat.can(address(this), user) == 1, \"ImportCdpProxy: Unauthorized by user\");\n\n        _importCdpFromProxy(pool, user, cdp, wethAmount, debtAmount);\n    }\n\n    /// @dev Internal function to transfer debt and collateral from MakerDAO to Yield\n    /// @param pool The pool to trade in (and therefore fyDai series to borrow)\n    /// @param user Yield Vault to receive the debt and collateral.\n    /// @param cdp The The CDP id containing the debt and collateral to migrate\n    /// @param wethAmount weth to move from MakerDAO to Yield. Needs to be high enough to collateralize the dai debt in Yield,\n    /// and low enough to make sure that debt left in MakerDAO is also collateralized.\n    /// @param debtAmount dai debt to move from MakerDAO to Yield. Denominated in Dai (= art * rate)\n    /// Needs vat.hope(importCdpProxy.address, { from: user });\n    /// Needs controller.addDelegate(importCdpProxy.address, { from: user });\n    function _importCdpFromProxy(IPool pool, address user, uint256 cdp, uint256 wethAmount, uint256 debtAmount) internal {\n        IFYDai fyDai = IFYDai(pool.fyDai());\n\n        // Pool should take exactly all fyDai flash minted. ImportCdpProxy will hold the dai temporarily\n        (, uint256 rate,,,) = vat.ilks(WETH);\n        uint256 fyDaiSold = pool.buyDai(address(this), address(this), muld(debtAmount, rate).toUint128());\n\n        // daiJoin.join(address(this), dai.balanceOf(address(this)));      // Put the Dai in Maker\n        daiJoin.join(cdpMgr.urns(cdp), dai.balanceOf(address(this)));      // Put the Dai in Maker\n        cdpMgr.frob(                           // Pay the debt and unlock collateral in Maker\n            cdp,\n            -wethAmount.toInt256(),               // Removing Weth collateral\n            -debtAmount.toInt256()  // Removing Dai debt\n        );\n        cdpMgr.flux(cdp, address(this), wethAmount);\n        wethJoin.exit(address(this), wethAmount);                       // Hold the weth in ImportCdpProxy\n        controller.post(WETH, address(this), user, wethAmount);         // Add the collateral to Yield\n        controller.borrow(WETH, fyDai.maturity(), user, address(this), fyDaiSold); // Borrow the fyDai\n    }\n\n    /// --------------------------------------------------\n    /// Signature method wrappers\n    /// --------------------------------------------------\n    \n    /// @dev Determine whether all approvals and signatures are in place for `importCdpPosition`.\n    /// @param cdp MakerDAO CDP to import.\n    /// If `return[0]` is `false`, calling `cdpMgr.cdpAllow(cdp, proxy.address, 1)` will set the MakerDAO approval.\n    /// If `return[1]` is `false`, `importCdpFromProxyWithSignature` must be called with a controller signature.\n    /// If `return` is `(true, true)`, `importCdpFromProxy` won't fail because of missing approvals or signatures.\n    function importCdpPositionCheck(uint256 cdp) public view returns (bool, bool) {\n        bool approvals = cdpMgr.cdpCan(cdpMgr.owns(cdp), cdp, address(this)) == 1;\n        bool controllerSig = controller.delegated(msg.sender, address(importCdpProxy));\n        return (approvals, controllerSig);\n    }\n\n    /// @dev Transfer debt and collateral from MakerDAO to Yield\n    /// Needs `cdpMgr.cdpAllow(cdp, proxy.address, 1)`\n    /// @param pool The pool to trade in (and therefore fyDai series to borrow)\n    /// @param cdp The CDP containing the migrated debt and collateral, its owner will own the Yield vault.\n    /// @param wethAmount weth to move from MakerDAO to Yield. Needs to be high enough to collateralize the dai debt in Yield,\n    /// and low enough to make sure that debt left in MakerDAO is also collateralized.\n    /// @param debtAmount dai debt to move from MakerDAO to Yield. Denominated in Dai (= art * rate)\n    /// @param maxDaiPrice Maximum fyDai price to pay for Dai\n    /// @param controllerSig packed signature for delegation of ImportCdpProxy (not dsproxy) in the controller. Ignored if '0x'.\n    function importCdpPositionWithSignature(IPool pool, uint256 cdp, uint256 wethAmount, uint256 debtAmount, uint256 maxDaiPrice, bytes memory controllerSig) public {\n        address user = cdpMgr.owns(cdp);\n        if (controllerSig.length > 0) controller.addDelegatePacked(user, address(importCdpProxy), controllerSig);\n        return importCdpPosition(pool, cdp, wethAmount, debtAmount, maxDaiPrice);\n    }\n\n    /// @dev Transfer a CDP from MakerDAO to Yield\n    /// Needs `cdpMgr.cdpAllow(cdp, proxy.address, 1)`\n    /// @param pool The pool to trade in (and therefore fyDai series to borrow)\n    /// @param cdp The CDP containing the migrated debt and collateral, its owner will own the Yield vault.\n    /// @param maxDaiPrice Maximum fyDai price to pay for Dai\n    /// @param controllerSig packed signature for delegation of ImportCdpProxy (not dsproxy) in the controller. Ignored if '0x'.\n    function importCdpWithSignature(IPool pool, uint256 cdp, uint256 maxDaiPrice, bytes memory controllerSig) public {\n        address user = cdpMgr.owns(cdp);\n        if (controllerSig.length > 0) controller.addDelegatePacked(user, address(importCdpProxy), controllerSig);\n        return importCdp(pool, cdp, maxDaiPrice);\n    }\n}\n",
  "sourcePath": "/Users/brucedonovan/dev/yield/fyDai-proxies/contracts/ImportCdpProxy.sol",
  "compiler": {
    "name": "solc",
    "version": "0.6.10+commit.00c0fcaf.Emscripten.clang"
  },
  "schemaVersion": "3.2.3",
  "updatedAt": "2020-12-11T09:21:34.748Z",
  "devdoc": {
    "methods": {
      "executeOnFlashMint(uint256,bytes)": {
        "details": "Callback from `FYDai.flashMint()`"
      },
      "give(uint256,address)": {
        "details": "ImportCdpProxy will freely give away any cdps it owns"
      },
      "importCdp(address,uint256,uint256)": {
        "details": "Migrate a CDPMgr-controlled MakerDAO vault to Yield. This function can be called from a dsproxy that already has a `vat.hope` on the user's MakerDAO Vault",
        "params": {
          "cdp": "CDP Vault to import",
          "maxDaiPrice": "Maximum fyDai price to pay for Dai",
          "pool": "fyDai Pool to use for migration, determining maturity of the Yield Vault"
        }
      },
      "importCdpFromProxy(address,address,uint256,uint256,uint256,uint256)": {
        "details": "Transfer debt and collateral from MakerDAO (this contract's CDP) to Yield (user's CDP) Needs controller.addDelegate(importCdpProxy.address, { from: user });",
        "params": {
          "cdp": "The The CDP id containing the debt and collateral to migrate",
          "debtAmount": "Normalized dai debt to move from MakerDAO to Yield. ndai * rate = dai",
          "maxDaiPrice": "Maximum fyDai price to pay for Dai",
          "pool": "The pool to trade in (and therefore fyDai series to borrow)",
          "user": "The user to receive the debt and collateral in Yield",
          "wethAmount": "weth to move from MakerDAO to Yield. Needs to be high enough to collateralize the dai debt in Yield, and low enough to make sure that debt left in MakerDAO is also collateralized."
        }
      },
      "importCdpPosition(address,uint256,uint256,uint256,uint256)": {
        "params": {
          "cdp": "CDP Vault to import",
          "debtAmount": "Normalized debt to move ndai * rate = dai",
          "maxDaiPrice": "Maximum fyDai price to pay for Dai",
          "wethAmount": "Weth collateral to import"
        }
      },
      "importCdpPositionCheck(uint256)": {
        "details": "Determine whether all approvals and signatures are in place for `importCdpPosition`.",
        "params": {
          "cdp": "MakerDAO CDP to import. If `return[0]` is `false`, calling `cdpMgr.cdpAllow(cdp, proxy.address, 1)` will set the MakerDAO approval. If `return[1]` is `false`, `importCdpFromProxyWithSignature` must be called with a controller signature. If `return` is `(true, true)`, `importCdpFromProxy` won't fail because of missing approvals or signatures."
        }
      },
      "importCdpPositionWithSignature(address,uint256,uint256,uint256,uint256,bytes)": {
        "details": "Transfer debt and collateral from MakerDAO to Yield Needs `cdpMgr.cdpAllow(cdp, proxy.address, 1)`",
        "params": {
          "cdp": "The CDP containing the migrated debt and collateral, its owner will own the Yield vault.",
          "controllerSig": "packed signature for delegation of ImportCdpProxy (not dsproxy) in the controller. Ignored if '0x'.",
          "debtAmount": "dai debt to move from MakerDAO to Yield. Denominated in Dai (= art * rate)",
          "maxDaiPrice": "Maximum fyDai price to pay for Dai",
          "pool": "The pool to trade in (and therefore fyDai series to borrow)",
          "wethAmount": "weth to move from MakerDAO to Yield. Needs to be high enough to collateralize the dai debt in Yield, and low enough to make sure that debt left in MakerDAO is also collateralized."
        }
      },
      "importCdpWithSignature(address,uint256,uint256,bytes)": {
        "details": "Transfer a CDP from MakerDAO to Yield Needs `cdpMgr.cdpAllow(cdp, proxy.address, 1)`",
        "params": {
          "cdp": "The CDP containing the migrated debt and collateral, its owner will own the Yield vault.",
          "controllerSig": "packed signature for delegation of ImportCdpProxy (not dsproxy) in the controller. Ignored if '0x'.",
          "maxDaiPrice": "Maximum fyDai price to pay for Dai",
          "pool": "The pool to trade in (and therefore fyDai series to borrow)"
        }
      }
    }
  },
  "userdoc": {
    "methods": {}
  }
}