{
  "contractName": "Jug",
  "abi": [
    {
      "inputs": [
        {
          "internalType": "address",
          "name": "vat_",
          "type": "address"
        }
      ],
      "stateMutability": "nonpayable",
      "type": "constructor"
    },
    {
      "anonymous": true,
      "inputs": [
        {
          "indexed": true,
          "internalType": "bytes4",
          "name": "sig",
          "type": "bytes4"
        },
        {
          "indexed": true,
          "internalType": "address",
          "name": "usr",
          "type": "address"
        },
        {
          "indexed": true,
          "internalType": "bytes32",
          "name": "arg1",
          "type": "bytes32"
        },
        {
          "indexed": true,
          "internalType": "bytes32",
          "name": "arg2",
          "type": "bytes32"
        },
        {
          "indexed": false,
          "internalType": "bytes",
          "name": "data",
          "type": "bytes"
        }
      ],
      "name": "LogNote",
      "type": "event"
    },
    {
      "inputs": [],
      "name": "base",
      "outputs": [
        {
          "internalType": "uint256",
          "name": "",
          "type": "uint256"
        }
      ],
      "stateMutability": "view",
      "type": "function",
      "constant": true
    },
    {
      "inputs": [
        {
          "internalType": "bytes32",
          "name": "",
          "type": "bytes32"
        }
      ],
      "name": "ilks",
      "outputs": [
        {
          "internalType": "uint256",
          "name": "duty",
          "type": "uint256"
        },
        {
          "internalType": "uint256",
          "name": "rho",
          "type": "uint256"
        }
      ],
      "stateMutability": "view",
      "type": "function",
      "constant": true
    },
    {
      "inputs": [],
      "name": "vat",
      "outputs": [
        {
          "internalType": "contract VatLike",
          "name": "",
          "type": "address"
        }
      ],
      "stateMutability": "view",
      "type": "function",
      "constant": true
    },
    {
      "inputs": [],
      "name": "vow",
      "outputs": [
        {
          "internalType": "address",
          "name": "",
          "type": "address"
        }
      ],
      "stateMutability": "view",
      "type": "function",
      "constant": true
    },
    {
      "inputs": [
        {
          "internalType": "address",
          "name": "",
          "type": "address"
        }
      ],
      "name": "wards",
      "outputs": [
        {
          "internalType": "uint256",
          "name": "",
          "type": "uint256"
        }
      ],
      "stateMutability": "view",
      "type": "function",
      "constant": true
    },
    {
      "inputs": [
        {
          "internalType": "address",
          "name": "usr",
          "type": "address"
        }
      ],
      "name": "rely",
      "outputs": [],
      "stateMutability": "nonpayable",
      "type": "function"
    },
    {
      "inputs": [
        {
          "internalType": "address",
          "name": "usr",
          "type": "address"
        }
      ],
      "name": "deny",
      "outputs": [],
      "stateMutability": "nonpayable",
      "type": "function"
    },
    {
      "inputs": [
        {
          "internalType": "bytes32",
          "name": "ilk",
          "type": "bytes32"
        }
      ],
      "name": "init",
      "outputs": [],
      "stateMutability": "nonpayable",
      "type": "function"
    },
    {
      "inputs": [
        {
          "internalType": "bytes32",
          "name": "ilk",
          "type": "bytes32"
        },
        {
          "internalType": "bytes32",
          "name": "what",
          "type": "bytes32"
        },
        {
          "internalType": "uint256",
          "name": "data",
          "type": "uint256"
        }
      ],
      "name": "file",
      "outputs": [],
      "stateMutability": "nonpayable",
      "type": "function"
    },
    {
      "inputs": [
        {
          "internalType": "bytes32",
          "name": "what",
          "type": "bytes32"
        },
        {
          "internalType": "uint256",
          "name": "data",
          "type": "uint256"
        }
      ],
      "name": "file",
      "outputs": [],
      "stateMutability": "nonpayable",
      "type": "function"
    },
    {
      "inputs": [
        {
          "internalType": "bytes32",
          "name": "what",
          "type": "bytes32"
        },
        {
          "internalType": "address",
          "name": "data",
          "type": "address"
        }
      ],
      "name": "file",
      "outputs": [],
      "stateMutability": "nonpayable",
      "type": "function"
    },
    {
      "inputs": [
        {
          "internalType": "bytes32",
          "name": "ilk",
          "type": "bytes32"
        }
      ],
      "name": "drip",
      "outputs": [
        {
          "internalType": "uint256",
          "name": "rate",
          "type": "uint256"
        }
      ],
      "stateMutability": "nonpayable",
      "type": "function"
    }
  ],
  "bytecode": "0x608060405234801561001057600080fd5b506040516111b73803806111b78339818101604052602081101561003357600080fd5b810190808051906020019092919050505060016000803373ffffffffffffffffffffffffffffffffffffffff1673ffffffffffffffffffffffffffffffffffffffff1681526020019081526020016000208190555080600260006101000a81548173ffffffffffffffffffffffffffffffffffffffff021916908373ffffffffffffffffffffffffffffffffffffffff160217905550506110de806100d96000396000f3fe608060405234801561001057600080fd5b50600436106100b45760003560e01c8063626cb3c511610071578063626cb3c51461020b57806365fae35e146102555780639c52a7f114610299578063bf353dbb146102dd578063d4e8be8314610335578063d9638d3614610383576100b4565b80631a0b287e146100b957806329ae8114146100fb57806336569e77146101335780633b6631951461017d57806344e2a5a8146101ab5780635001f3b5146101ed575b600080fd5b6100f9600480360360608110156100cf57600080fd5b810190808035906020019092919080359060200190929190803590602001909291905050506103cc565b005b6101316004803603604081101561011157600080fd5b8101908080359060200190929190803590602001909291905050506105c6565b005b61013b610720565b604051808273ffffffffffffffffffffffffffffffffffffffff1673ffffffffffffffffffffffffffffffffffffffff16815260200191505060405180910390f35b6101a96004803603602081101561019357600080fd5b8101908080359060200190929190505050610746565b005b6101d7600480360360208110156101c157600080fd5b81019080803590602001909291905050506108ad565b6040518082815260200191505060405180910390f35b6101f5610b69565b6040518082815260200191505060405180910390f35b610213610b6f565b604051808273ffffffffffffffffffffffffffffffffffffffff1673ffffffffffffffffffffffffffffffffffffffff16815260200191505060405180910390f35b6102976004803603602081101561026b57600080fd5b81019080803573ffffffffffffffffffffffffffffffffffffffff169060200190929190505050610b95565b005b6102db600480360360208110156102af57600080fd5b81019080803573ffffffffffffffffffffffffffffffffffffffff169060200190929190505050610c90565b005b61031f600480360360208110156102f357600080fd5b81019080803573ffffffffffffffffffffffffffffffffffffffff169060200190929190505050610d8b565b6040518082815260200191505060405180910390f35b6103816004803603604081101561034b57600080fd5b8101908080359060200190929190803573ffffffffffffffffffffffffffffffffffffffff169060200190929190505050610da3565b005b6103af6004803603602081101561039957600080fd5b8101908080359060200190929190505050610f37565b604051808381526020018281526020019250505060405180910390f35b60016000803373ffffffffffffffffffffffffffffffffffffffff1673ffffffffffffffffffffffffffffffffffffffff1681526020019081526020016000205414610480576040517f08c379a00000000000000000000000000000000000000000000000000000000081526004018080602001828103825260128152602001807f4a75672f6e6f742d617574686f72697a6564000000000000000000000000000081525060200191505060405180910390fd5b6001600084815260200190815260200160002060010154421461050b576040517f08c379a00000000000000000000000000000000000000000000000000000000081526004018080602001828103825260138152602001807f4a75672f72686f2d6e6f742d757064617465640000000000000000000000000081525060200191505060405180910390fd5b7f6475747900000000000000000000000000000000000000000000000000000000821415610553578060016000858152602001908152602001600020600001819055506105c1565b6040517f08c379a000000000000000000000000000000000000000000000000000000000815260040180806020018281038252601b8152602001807f4a75672f66696c652d756e7265636f676e697a65642d706172616d000000000081525060200191505060405180910390fd5b505050565b60016000803373ffffffffffffffffffffffffffffffffffffffff1673ffffffffffffffffffffffffffffffffffffffff168152602001908152602001600020541461067a576040517f08c379a00000000000000000000000000000000000000000000000000000000081526004018080602001828103825260128152602001807f4a75672f6e6f742d617574686f72697a6564000000000000000000000000000081525060200191505060405180910390fd5b7f62617365000000000000000000000000000000000000000000000000000000008214156106ae578060048190555061071c565b6040517f08c379a000000000000000000000000000000000000000000000000000000000815260040180806020018281038252601b8152602001807f4a75672f66696c652d756e7265636f676e697a65642d706172616d000000000081525060200191505060405180910390fd5b5050565b600260009054906101000a900473ffffffffffffffffffffffffffffffffffffffff1681565b60016000803373ffffffffffffffffffffffffffffffffffffffff1673ffffffffffffffffffffffffffffffffffffffff16815260200190815260200160002054146107fa576040517f08c379a00000000000000000000000000000000000000000000000000000000081526004018080602001828103825260128152602001807f4a75672f6e6f742d617574686f72697a6564000000000000000000000000000081525060200191505060405180910390fd5b6000600160008381526020019081526020016000209050600081600001541461088b576040517f08c379a00000000000000000000000000000000000000000000000000000000081526004018080602001828103825260148152602001807f4a75672f696c6b2d616c72656164792d696e697400000000000000000000000081525060200191505060405180910390fd5b6b033b2e3c9fd0803ce800000081600001819055504281600101819055505050565b6000600160008381526020019081526020016000206001015442101561093b576040517f08c379a000000000000000000000000000000000000000000000000000000000815260040180806020018281038252600f8152602001807f4a75672f696e76616c69642d6e6f77000000000000000000000000000000000081525060200191505060405180910390fd5b6000600260009054906101000a900473ffffffffffffffffffffffffffffffffffffffff1673ffffffffffffffffffffffffffffffffffffffff1663d9638d36846040518263ffffffff1660e01b8152600401808281526020019150506040805180830381600087803b1580156109b157600080fd5b505af11580156109c5573d6000803e3d6000fd5b505050506040513d60408110156109db57600080fd5b810190808051906020019092919080519060200190929190505050915050610a52610a4c610a216004546001600088815260200190815260200160002060000154610f5b565b600160008781526020019081526020016000206001015442036b033b2e3c9fd0803ce8000000610f75565b8261103b565b9150600260009054906101000a900473ffffffffffffffffffffffffffffffffffffffff1673ffffffffffffffffffffffffffffffffffffffff1663b65337df84600360009054906101000a900473ffffffffffffffffffffffffffffffffffffffff16610ac08686611080565b6040518463ffffffff1660e01b8152600401808481526020018373ffffffffffffffffffffffffffffffffffffffff1673ffffffffffffffffffffffffffffffffffffffff1681526020018281526020019350505050600060405180830381600087803b158015610b3057600080fd5b505af1158015610b44573d6000803e3d6000fd5b5050505042600160008581526020019081526020016000206001018190555050919050565b60045481565b600360009054906101000a900473ffffffffffffffffffffffffffffffffffffffff1681565b60016000803373ffffffffffffffffffffffffffffffffffffffff1673ffffffffffffffffffffffffffffffffffffffff1681526020019081526020016000205414610c49576040517f08c379a00000000000000000000000000000000000000000000000000000000081526004018080602001828103825260128152602001807f4a75672f6e6f742d617574686f72697a6564000000000000000000000000000081525060200191505060405180910390fd5b60016000808373ffffffffffffffffffffffffffffffffffffffff1673ffffffffffffffffffffffffffffffffffffffff1681526020019081526020016000208190555050565b60016000803373ffffffffffffffffffffffffffffffffffffffff1673ffffffffffffffffffffffffffffffffffffffff1681526020019081526020016000205414610d44576040517f08c379a00000000000000000000000000000000000000000000000000000000081526004018080602001828103825260128152602001807f4a75672f6e6f742d617574686f72697a6564000000000000000000000000000081525060200191505060405180910390fd5b60008060008373ffffffffffffffffffffffffffffffffffffffff1673ffffffffffffffffffffffffffffffffffffffff1681526020019081526020016000208190555050565b60006020528060005260406000206000915090505481565b60016000803373ffffffffffffffffffffffffffffffffffffffff1673ffffffffffffffffffffffffffffffffffffffff1681526020019081526020016000205414610e57576040517f08c379a00000000000000000000000000000000000000000000000000000000081526004018080602001828103825260128152602001807f4a75672f6e6f742d617574686f72697a6564000000000000000000000000000081525060200191505060405180910390fd5b7f766f770000000000000000000000000000000000000000000000000000000000821415610ec55780600360006101000a81548173ffffffffffffffffffffffffffffffffffffffff021916908373ffffffffffffffffffffffffffffffffffffffff160217905550610f33565b6040517f08c379a000000000000000000000000000000000000000000000000000000000815260040180806020018281038252601b8152602001807f4a75672f66696c652d756e7265636f676e697a65642d706172616d000000000081525060200191505060405180910390fd5b5050565b60016020528060005260406000206000915090508060000154908060010154905082565b6000818301905082811015610f6f57600080fd5b92915050565b6000836000811461101b576002840660008114610f9457859250610f98565b8392505b50600283046002850494505b8415611015578586028687820414610fbb57600080fd5b81810181811015610fcb57600080fd5b85810497506002870615611008578785028589820414158915151615610ff057600080fd5b8381018181101561100057600080fd5b878104965050505b5050600285049450610fa4565b50611033565b836000811461102d5760009250611031565b8392505b505b509392505050565b60008183029050600082148061105957508282828161105657fe5b04145b61106257600080fd5b6b033b2e3c9fd0803ce8000000818161107757fe5b04905092915050565b6000818303905060008312158015611099575060008212155b6110a257600080fd5b9291505056fea2646970667358221220f66eb95fde65dd1b5355079805999c5cc4f357c24b1ade8ff4680a544e10cc6164736f6c63430006020033",
  "source": "pragma solidity ^0.6.0;\n\nimport \"./lib.sol\";\n\ninterface VatLike {\n    function ilks(bytes32) external returns (\n        uint256 Art,   // [wad]\n        uint256 rate   // [ray]\n    );\n    function fold(bytes32,address,int) external;\n}\n\ncontract Jug is LibNote {\n    // --- Auth ---\n    mapping (address => uint) public wards;\n    function rely(address usr) external note auth { wards[usr] = 1; }\n    function deny(address usr) external note auth { wards[usr] = 0; }\n    modifier auth {\n        require(wards[msg.sender] == 1, \"Jug/not-authorized\");\n        _;\n    }\n\n    // --- Data ---\n    struct Ilk {\n        uint256 duty;  // Collateral-specific, per-second stability fee contribution [ray]\n        uint256  rho;  // Time of last drip [unix epoch time]\n    }\n\n    mapping (bytes32 => Ilk) public ilks;\n    VatLike                  public vat;   // CDP Engine\n    address                  public vow;   // Debt Engine\n    uint256                  public base;  // Global, per-second stability fee contribution [ray]\n\n    // --- Init ---\n    constructor(address vat_) public {\n        wards[msg.sender] = 1;\n        vat = VatLike(vat_);\n    }\n\n    // --- Math ---\n    function rpow(uint x, uint n, uint b) internal pure returns (uint z) {\n      assembly {\n        switch x case 0 {switch n case 0 {z := b} default {z := 0}}\n        default {\n          switch mod(n, 2) case 0 { z := b } default { z := x }\n          let half := div(b, 2)  // for rounding.\n          for { n := div(n, 2) } n { n := div(n,2) } {\n            let xx := mul(x, x)\n            if iszero(eq(div(xx, x), x)) { revert(0,0) }\n            let xxRound := add(xx, half)\n            if lt(xxRound, xx) { revert(0,0) }\n            x := div(xxRound, b)\n            if mod(n,2) {\n              let zx := mul(z, x)\n              if and(iszero(iszero(x)), iszero(eq(div(zx, x), z))) { revert(0,0) }\n              let zxRound := add(zx, half)\n              if lt(zxRound, zx) { revert(0,0) }\n              z := div(zxRound, b)\n            }\n          }\n        }\n      }\n    }\n    uint256 constant ONE = 10 ** 27;\n    function add(uint x, uint y) internal pure returns (uint z) {\n        z = x + y;\n        require(z >= x);\n    }\n    function diff(uint x, uint y) internal pure returns (int z) {\n        z = int(x) - int(y);\n        require(int(x) >= 0 && int(y) >= 0);\n    }\n    function rmul(uint x, uint y) internal pure returns (uint z) {\n        z = x * y;\n        require(y == 0 || z / y == x);\n        z = z / ONE;\n    }\n\n    // --- Administration ---\n    function init(bytes32 ilk) external note auth {\n        Ilk storage i = ilks[ilk];\n        require(i.duty == 0, \"Jug/ilk-already-init\");\n        i.duty = ONE;\n        i.rho  = now;\n    }\n    function file(bytes32 ilk, bytes32 what, uint data) external note auth {\n        require(now == ilks[ilk].rho, \"Jug/rho-not-updated\");\n        if (what == \"duty\") ilks[ilk].duty = data;\n        else revert(\"Jug/file-unrecognized-param\");\n    }\n    function file(bytes32 what, uint data) external note auth {\n        if (what == \"base\") base = data;\n        else revert(\"Jug/file-unrecognized-param\");\n    }\n    function file(bytes32 what, address data) external note auth {\n        if (what == \"vow\") vow = data;\n        else revert(\"Jug/file-unrecognized-param\");\n    }\n\n    // --- Stability Fee Collection ---\n    function drip(bytes32 ilk) external note returns (uint rate) {\n        require(now >= ilks[ilk].rho, \"Jug/invalid-now\");\n        (, uint prev) = vat.ilks(ilk);\n        rate = rmul(rpow(add(base, ilks[ilk].duty), now - ilks[ilk].rho, ONE), prev);\n        vat.fold(ilk, vow, diff(rate, prev));\n        ilks[ilk].rho = now;\n    }\n}",
  "sourcePath": "/Users/bruce/dev/yieldprotocol/ytoken-mvp/contracts/external/maker/jug.sol",
  "compiler": {
    "name": "solc",
    "version": "0.6.2+commit.bacdbe57.Emscripten.clang"
  },
  "schemaVersion": "3.0.23",
  "updatedAt": "2020-07-10T08:45:06.962Z",
  "networkType": "ethereum",
  "devdoc": {
    "methods": {}
  },
  "userdoc": {
    "methods": {}
  }
}