{
  "contractName": "Jug",
  "abi": [
    {
      "inputs": [
        {
          "internalType": "address",
          "name": "vat_",
          "type": "address"
        }
      ],
      "stateMutability": "nonpayable",
      "type": "constructor"
    },
    {
      "anonymous": true,
      "inputs": [
        {
          "indexed": true,
          "internalType": "bytes4",
          "name": "sig",
          "type": "bytes4"
        },
        {
          "indexed": true,
          "internalType": "address",
          "name": "usr",
          "type": "address"
        },
        {
          "indexed": true,
          "internalType": "bytes32",
          "name": "arg1",
          "type": "bytes32"
        },
        {
          "indexed": true,
          "internalType": "bytes32",
          "name": "arg2",
          "type": "bytes32"
        },
        {
          "indexed": false,
          "internalType": "bytes",
          "name": "data",
          "type": "bytes"
        }
      ],
      "name": "LogNote",
      "type": "event"
    },
    {
      "inputs": [],
      "name": "base",
      "outputs": [
        {
          "internalType": "uint256",
          "name": "",
          "type": "uint256"
        }
      ],
      "stateMutability": "view",
      "type": "function"
    },
    {
      "inputs": [
        {
          "internalType": "bytes32",
          "name": "",
          "type": "bytes32"
        }
      ],
      "name": "ilks",
      "outputs": [
        {
          "internalType": "uint256",
          "name": "duty",
          "type": "uint256"
        },
        {
          "internalType": "uint256",
          "name": "rho",
          "type": "uint256"
        }
      ],
      "stateMutability": "view",
      "type": "function"
    },
    {
      "inputs": [],
      "name": "vat",
      "outputs": [
        {
          "internalType": "contract VatLike",
          "name": "",
          "type": "address"
        }
      ],
      "stateMutability": "view",
      "type": "function"
    },
    {
      "inputs": [],
      "name": "vow",
      "outputs": [
        {
          "internalType": "address",
          "name": "",
          "type": "address"
        }
      ],
      "stateMutability": "view",
      "type": "function"
    },
    {
      "inputs": [
        {
          "internalType": "address",
          "name": "",
          "type": "address"
        }
      ],
      "name": "wards",
      "outputs": [
        {
          "internalType": "uint256",
          "name": "",
          "type": "uint256"
        }
      ],
      "stateMutability": "view",
      "type": "function"
    },
    {
      "inputs": [
        {
          "internalType": "address",
          "name": "usr",
          "type": "address"
        }
      ],
      "name": "rely",
      "outputs": [],
      "stateMutability": "nonpayable",
      "type": "function"
    },
    {
      "inputs": [
        {
          "internalType": "address",
          "name": "usr",
          "type": "address"
        }
      ],
      "name": "deny",
      "outputs": [],
      "stateMutability": "nonpayable",
      "type": "function"
    },
    {
      "inputs": [
        {
          "internalType": "bytes32",
          "name": "ilk",
          "type": "bytes32"
        }
      ],
      "name": "init",
      "outputs": [],
      "stateMutability": "nonpayable",
      "type": "function"
    },
    {
      "inputs": [
        {
          "internalType": "bytes32",
          "name": "ilk",
          "type": "bytes32"
        },
        {
          "internalType": "bytes32",
          "name": "what",
          "type": "bytes32"
        },
        {
          "internalType": "uint256",
          "name": "data",
          "type": "uint256"
        }
      ],
      "name": "file",
      "outputs": [],
      "stateMutability": "nonpayable",
      "type": "function"
    },
    {
      "inputs": [
        {
          "internalType": "bytes32",
          "name": "what",
          "type": "bytes32"
        },
        {
          "internalType": "uint256",
          "name": "data",
          "type": "uint256"
        }
      ],
      "name": "file",
      "outputs": [],
      "stateMutability": "nonpayable",
      "type": "function"
    },
    {
      "inputs": [
        {
          "internalType": "bytes32",
          "name": "what",
          "type": "bytes32"
        },
        {
          "internalType": "address",
          "name": "data",
          "type": "address"
        }
      ],
      "name": "file",
      "outputs": [],
      "stateMutability": "nonpayable",
      "type": "function"
    },
    {
      "inputs": [
        {
          "internalType": "bytes32",
          "name": "ilk",
          "type": "bytes32"
        }
      ],
      "name": "drip",
      "outputs": [
        {
          "internalType": "uint256",
          "name": "rate",
          "type": "uint256"
        }
      ],
      "stateMutability": "nonpayable",
      "type": "function"
    }
  ],
  "bytecode": "0x608060405234801561001057600080fd5b50604051610a32380380610a328339818101604052602081101561003357600080fd5b505133600090815260208190526040902060019055600280546001600160a01b039092166001600160a01b03199092169190911790556109ba806100786000396000f3fe608060405234801561001057600080fd5b50600436106100b45760003560e01c8063626cb3c511610071578063626cb3c51461017f57806365fae35e146101875780639c52a7f1146101ad578063bf353dbb146101d3578063d4e8be83146101f9578063d9638d3614610225576100b4565b80631a0b287e146100b957806329ae8114146100e457806336569e77146101075780633b6631951461012b57806344e2a5a8146101485780635001f3b514610177575b600080fd5b6100e2600480360360608110156100cf57600080fd5b508035906020810135906040013561025b565b005b6100e2600480360360408110156100fa57600080fd5b5080359060200135610387565b61010f6103f9565b604080516001600160a01b039092168252519081900360200190f35b6100e26004803603602081101561014157600080fd5b5035610408565b6101656004803603602081101561015e57600080fd5b50356104d3565b60408051918252519081900360200190f35b6101656106ac565b61010f6106b2565b6100e26004803603602081101561019d57600080fd5b50356001600160a01b03166106c1565b6100e2600480360360208110156101c357600080fd5b50356001600160a01b0316610737565b610165600480360360208110156101e957600080fd5b50356001600160a01b03166107aa565b6100e26004803603604081101561020f57600080fd5b50803590602001356001600160a01b03166107bc565b6102426004803603602081101561023b57600080fd5b5035610843565b6040805192835260208301919091528051918290030190f35b336000908152602081905260409020546001146102b4576040805162461bcd60e51b8152602060048201526012602482015271129d59cbdb9bdd0b585d5d1a1bdc9a5e995960721b604482015290519081900360640190fd5b600083815260016020819052604090912001544214610310576040805162461bcd60e51b8152602060048201526013602482015272129d59cbdc9a1bcb5b9bdd0b5d5c19185d1959606a1b604482015290519081900360640190fd5b81636475747960e01b1415610335576000838152600160205260409020819055610382565b6040805162461bcd60e51b815260206004820152601b60248201527f4a75672f66696c652d756e7265636f676e697a65642d706172616d0000000000604482015290519081900360640190fd5b505050565b336000908152602081905260409020546001146103e0576040805162461bcd60e51b8152602060048201526012602482015271129d59cbdb9bdd0b585d5d1a1bdc9a5e995960721b604482015290519081900360640190fd5b81636261736560e01b14156103355760048190555b5050565b6002546001600160a01b031681565b33600090815260208190526040902054600114610461576040805162461bcd60e51b8152602060048201526012602482015271129d59cbdb9bdd0b585d5d1a1bdc9a5e995960721b604482015290519081900360640190fd5b60008181526001602052604090208054156104ba576040805162461bcd60e51b8152602060048201526014602482015273129d59cbda5b1acb585b1c9958591e4b5a5b9a5d60621b604482015290519081900360640190fd5b6b033b2e3c9fd0803ce800000081554260019091015550565b60008181526001602081905260408220015442101561052b576040805162461bcd60e51b815260206004820152600f60248201526e4a75672f696e76616c69642d6e6f7760881b604482015290519081900360640190fd5b60025460408051636cb1c69b60e11b81526004810185905281516000936001600160a01b03169263d9638d36926024808201939182900301818787803b15801561057457600080fd5b505af1158015610588573d6000803e3d6000fd5b505050506040513d604081101561059e57600080fd5b50602090810151600454600086815260019093526040909220549092506105fa916105f4916105cd919061085c565b6000868152600160208190526040909120015442036b033b2e3c9fd0803ce8000000610872565b82610930565b6002546003549193506001600160a01b039081169163b65337df918691166106228686610966565b6040518463ffffffff1660e01b815260040180848152602001836001600160a01b03166001600160a01b031681526020018281526020019350505050600060405180830381600087803b15801561067857600080fd5b505af115801561068c573d6000803e3d6000fd5b505050600093845250506001602081905260409092204292019190915590565b60045481565b6003546001600160a01b031681565b3360009081526020819052604090205460011461071a576040805162461bcd60e51b8152602060048201526012602482015271129d59cbdb9bdd0b585d5d1a1bdc9a5e995960721b604482015290519081900360640190fd5b6001600160a01b0316600090815260208190526040902060019055565b33600090815260208190526040902054600114610790576040805162461bcd60e51b8152602060048201526012602482015271129d59cbdb9bdd0b585d5d1a1bdc9a5e995960721b604482015290519081900360640190fd5b6001600160a01b0316600090815260208190526040812055565b60006020819052908152604090205481565b33600090815260208190526040902054600114610815576040805162461bcd60e51b8152602060048201526012602482015271129d59cbdb9bdd0b585d5d1a1bdc9a5e995960721b604482015290519081900360640190fd5b8162766f7760e81b141561033557600380546001600160a01b0319166001600160a01b0383161790556103f5565b6001602081905260009182526040909120805491015482565b8181018281101561086c57600080fd5b92915050565b60008380156109125760018416801561088d57859250610891565b8392505b50600283046002850494505b841561090c5785860286878204146108b457600080fd5b818101818110156108c457600080fd5b85900496505060018516156109015785830283878204141587151516156108ea57600080fd5b818101818110156108fa57600080fd5b8590049350505b60028504945061089d565b50610928565b8380156109225760009250610926565b8392505b505b509392505050565b81810281158061094857508282828161094557fe5b04145b61095157600080fd5b6b033b2e3c9fd0803ce8000000900492915050565b8082036000831280159061097b575060008212155b61086c57600080fdfea2646970667358221220de4113e51d52f15c29cc39a558a6b7b392465bad91af6c6ce2a96d413dbd5ff364736f6c634300060a0033",
  "immutableReferences": {},
  "source": "// SPDX-License-Identifier: AGPL-3.0-or-later\r\n\r\npragma solidity ^0.6.0;\r\n\r\nimport \"./lib.sol\";\r\n\r\ninterface VatLike {\r\n    function ilks(bytes32) external returns (\r\n        uint256 Art,   // [wad]\r\n        uint256 rate   // [ray]\r\n    );\r\n    function fold(bytes32,address,int) external;\r\n}\r\n\r\ncontract Jug is LibNote {\r\n    // --- Auth ---\r\n    mapping (address => uint) public wards;\r\n    function rely(address usr) external note auth { wards[usr] = 1; }\r\n    function deny(address usr) external note auth { wards[usr] = 0; }\r\n    modifier auth {\r\n        require(wards[msg.sender] == 1, \"Jug/not-authorized\");\r\n        _;\r\n    }\r\n\r\n    // --- Data ---\r\n    struct Ilk {\r\n        uint256 duty;  // Collateral-specific, per-second stability fee contribution [ray]\r\n        uint256  rho;  // Time of last drip [unix epoch time]\r\n    }\r\n\r\n    mapping (bytes32 => Ilk) public ilks;\r\n    VatLike                  public vat;   // CDP Engine\r\n    address                  public vow;   // Debt Engine\r\n    uint256                  public base;  // Global, per-second stability fee contribution [ray]\r\n\r\n    // --- Init ---\r\n    constructor(address vat_) public {\r\n        wards[msg.sender] = 1;\r\n        vat = VatLike(vat_);\r\n    }\r\n\r\n    // --- Math ---\r\n    function rpow(uint x, uint n, uint b) internal pure returns (uint z) {\r\n      assembly {\r\n        switch x case 0 {switch n case 0 {z := b} default {z := 0}}\r\n        default {\r\n          switch mod(n, 2) case 0 { z := b } default { z := x }\r\n          let half := div(b, 2)  // for rounding.\r\n          for { n := div(n, 2) } n { n := div(n,2) } {\r\n            let xx := mul(x, x)\r\n            if iszero(eq(div(xx, x), x)) { revert(0,0) }\r\n            let xxRound := add(xx, half)\r\n            if lt(xxRound, xx) { revert(0,0) }\r\n            x := div(xxRound, b)\r\n            if mod(n,2) {\r\n              let zx := mul(z, x)\r\n              if and(iszero(iszero(x)), iszero(eq(div(zx, x), z))) { revert(0,0) }\r\n              let zxRound := add(zx, half)\r\n              if lt(zxRound, zx) { revert(0,0) }\r\n              z := div(zxRound, b)\r\n            }\r\n          }\r\n        }\r\n      }\r\n    }\r\n    uint256 constant ONE = 10 ** 27;\r\n    function add_(uint x, uint y) internal pure returns (uint z) {\r\n        z = x + y;\r\n        require(z >= x);\r\n    }\r\n    function diff(uint x, uint y) internal pure returns (int z) {\r\n        z = int(x) - int(y);\r\n        require(int(x) >= 0 && int(y) >= 0);\r\n    }\r\n    function rmul(uint x, uint y) internal pure returns (uint z) {\r\n        z = x * y;\r\n        require(y == 0 || z / y == x);\r\n        z = z / ONE;\r\n    }\r\n\r\n    // --- Administration ---\r\n    function init(bytes32 ilk) external note auth {\r\n        Ilk storage i = ilks[ilk];\r\n        require(i.duty == 0, \"Jug/ilk-already-init\");\r\n        i.duty = ONE;\r\n        i.rho  = now;\r\n    }\r\n    function file(bytes32 ilk, bytes32 what, uint data) external note auth {\r\n        require(now == ilks[ilk].rho, \"Jug/rho-not-updated\");\r\n        if (what == \"duty\") ilks[ilk].duty = data;\r\n        else revert(\"Jug/file-unrecognized-param\");\r\n    }\r\n    function file(bytes32 what, uint data) external note auth {\r\n        if (what == \"base\") base = data;\r\n        else revert(\"Jug/file-unrecognized-param\");\r\n    }\r\n    function file(bytes32 what, address data) external note auth {\r\n        if (what == \"vow\") vow = data;\r\n        else revert(\"Jug/file-unrecognized-param\");\r\n    }\r\n\r\n    // --- Stability Fee Collection ---\r\n    function drip(bytes32 ilk) external note returns (uint rate) {\r\n        require(now >= ilks[ilk].rho, \"Jug/invalid-now\");\r\n        (, uint prev) = vat.ilks(ilk);\r\n        rate = rmul(rpow(add_(base, ilks[ilk].duty), now - ilks[ilk].rho, ONE), prev);\r\n        vat.fold(ilk, vow, diff(rate, prev));\r\n        ilks[ilk].rho = now;\r\n    }\r\n}",
  "sourcePath": "C:/Users/bruce/dev/yield/yDai/contracts/external/maker/jug.sol",
  "compiler": {
    "name": "solc",
    "version": "0.6.10+commit.00c0fcaf.Emscripten.clang"
  },
  "schemaVersion": "3.2.3",
  "updatedAt": "2020-08-19T15:24:08.714Z",
  "devdoc": {
    "methods": {}
  },
  "userdoc": {
    "methods": {}
  }
}