{
  "contractName": "LimitMarket",
  "abi": [
    {
      "inputs": [
        {
          "internalType": "address",
          "name": "dai_",
          "type": "address"
        },
        {
          "internalType": "address",
          "name": "yDai_",
          "type": "address"
        },
        {
          "internalType": "address",
          "name": "market_",
          "type": "address"
        }
      ],
      "stateMutability": "nonpayable",
      "type": "constructor"
    },
    {
      "anonymous": false,
      "inputs": [
        {
          "indexed": true,
          "internalType": "address",
          "name": "user",
          "type": "address"
        },
        {
          "indexed": true,
          "internalType": "address",
          "name": "delegate",
          "type": "address"
        },
        {
          "indexed": false,
          "internalType": "bool",
          "name": "enabled",
          "type": "bool"
        }
      ],
      "name": "Delegate",
      "type": "event"
    },
    {
      "inputs": [
        {
          "internalType": "address",
          "name": "delegate",
          "type": "address"
        }
      ],
      "name": "addDelegate",
      "outputs": [],
      "stateMutability": "nonpayable",
      "type": "function"
    },
    {
      "inputs": [],
      "name": "dai",
      "outputs": [
        {
          "internalType": "contract IERC20",
          "name": "",
          "type": "address"
        }
      ],
      "stateMutability": "view",
      "type": "function",
      "constant": true
    },
    {
      "inputs": [],
      "name": "market",
      "outputs": [
        {
          "internalType": "contract IMarket",
          "name": "",
          "type": "address"
        }
      ],
      "stateMutability": "view",
      "type": "function",
      "constant": true
    },
    {
      "inputs": [
        {
          "internalType": "address",
          "name": "delegate",
          "type": "address"
        }
      ],
      "name": "revokeDelegate",
      "outputs": [],
      "stateMutability": "nonpayable",
      "type": "function"
    },
    {
      "inputs": [],
      "name": "yDai",
      "outputs": [
        {
          "internalType": "contract IERC20",
          "name": "",
          "type": "address"
        }
      ],
      "stateMutability": "view",
      "type": "function",
      "constant": true
    },
    {
      "inputs": [
        {
          "internalType": "address",
          "name": "from",
          "type": "address"
        },
        {
          "internalType": "address",
          "name": "to",
          "type": "address"
        },
        {
          "internalType": "uint128",
          "name": "daiIn",
          "type": "uint128"
        },
        {
          "internalType": "uint128",
          "name": "minYDaiOut",
          "type": "uint128"
        }
      ],
      "name": "sellDai",
      "outputs": [
        {
          "internalType": "uint256",
          "name": "",
          "type": "uint256"
        }
      ],
      "stateMutability": "nonpayable",
      "type": "function"
    },
    {
      "inputs": [
        {
          "internalType": "address",
          "name": "from",
          "type": "address"
        },
        {
          "internalType": "address",
          "name": "to",
          "type": "address"
        },
        {
          "internalType": "uint128",
          "name": "daiOut",
          "type": "uint128"
        },
        {
          "internalType": "uint128",
          "name": "maxYDaiIn",
          "type": "uint128"
        }
      ],
      "name": "buyDai",
      "outputs": [
        {
          "internalType": "uint256",
          "name": "",
          "type": "uint256"
        }
      ],
      "stateMutability": "nonpayable",
      "type": "function"
    },
    {
      "inputs": [
        {
          "internalType": "address",
          "name": "from",
          "type": "address"
        },
        {
          "internalType": "address",
          "name": "to",
          "type": "address"
        },
        {
          "internalType": "uint128",
          "name": "yDaiIn",
          "type": "uint128"
        },
        {
          "internalType": "uint128",
          "name": "minDaiOut",
          "type": "uint128"
        }
      ],
      "name": "sellYDai",
      "outputs": [
        {
          "internalType": "uint256",
          "name": "",
          "type": "uint256"
        }
      ],
      "stateMutability": "nonpayable",
      "type": "function"
    },
    {
      "inputs": [
        {
          "internalType": "address",
          "name": "from",
          "type": "address"
        },
        {
          "internalType": "address",
          "name": "to",
          "type": "address"
        },
        {
          "internalType": "uint128",
          "name": "yDaiOut",
          "type": "uint128"
        },
        {
          "internalType": "uint128",
          "name": "maxDaiIn",
          "type": "uint128"
        }
      ],
      "name": "buyYDai",
      "outputs": [
        {
          "internalType": "uint256",
          "name": "",
          "type": "uint256"
        }
      ],
      "stateMutability": "nonpayable",
      "type": "function"
    }
  ],
  "bytecode": "0x608060405234801561001057600080fd5b506040516109b73803806109b78339818101604052606081101561003357600080fd5b5080516020820151604090920151600180546001600160a01b03199081166001600160a01b03948516179091556002805482169484169490941790935560038054909316911617905561092c8061008b6000396000f3fe608060405234801561001057600080fd5b50600436106100935760003560e01c8063aef52e3f11610066578063aef52e3f146101a3578063cc53d7bf146101ab578063e71bdf41146101f2578063f4b9fa751461021a578063fa352c001461022257610093565b806304b60aa01461009857806380f55605146100f1578063a980188214610115578063ae70747c1461015c575b600080fd5b6100df600480360360808110156100ae57600080fd5b506001600160a01b0381358116916020810135909116906001600160801b0360408201358116916060013516610248565b60408051918252519081900360200190f35b6100f961042a565b604080516001600160a01b039092168252519081900360200190f35b6100df6004803603608081101561012b57600080fd5b506001600160a01b0381358116916020810135909116906001600160801b0360408201358116916060013516610439565b6100df6004803603608081101561017257600080fd5b506001600160a01b0381358116916020810135909116906001600160801b03604082013581169160600135166105d3565b6100f96106de565b6100df600480360360808110156101c157600080fd5b506001600160a01b0381358116916020810135909116906001600160801b03604082013581169160600135166106ed565b6102186004803603602081101561020857600080fd5b50356001600160a01b03166107f8565b005b6100f9610862565b6102186004803603602081101561023857600080fd5b50356001600160a01b0316610871565b6000846040518060600160405280602481526020016108d360249139336001600160a01b038316148061029c57506001600160a01b03821660009081526020818152604080832033845290915290205460ff165b81906103265760405162461bcd60e51b81526004018080602001828103825283818151815260200191508051906020019080838360005b838110156102eb5781810151838201526020016102d3565b50505050905090810190601f1680156103185780820380516001836020036101000a031916815260200191505b509250505060405180910390fd5b5060035460408051630d43fde760e41b81526001600160a01b038a8116600483015289811660248301526001600160801b03891660448301529151600093929092169163d43fde709160648082019260209290919082900301818787803b15801561039057600080fd5b505af11580156103a4573d6000803e3d6000fd5b505050506040513d60208110156103ba57600080fd5b50516001600160801b039081169150851681111561041f576040805162461bcd60e51b815260206004820152601b60248201527f4c696d69744d61726b65743a204c696d69742065786365656465640000000000604482015290519081900360640190fd5b979650505050505050565b6003546001600160a01b031681565b6000846040518060600160405280602481526020016108d360249139336001600160a01b038316148061048d57506001600160a01b03821660009081526020818152604080832033845290915290205460ff165b81906104da5760405162461bcd60e51b81526020600482018181528351602484015283519092839260449091019190850190808383600083156102eb5781810151838201526020016102d3565b506003546040805163c47b5b8360e01b81526001600160a01b038a8116600483015289811660248301526001600160801b03891660448301529151600093929092169163c47b5b839160648082019260209290919082900301818787803b15801561054457600080fd5b505af1158015610558573d6000803e3d6000fd5b505050506040513d602081101561056e57600080fd5b50516001600160801b039081169150851681101561041f576040805162461bcd60e51b815260206004820152601e60248201527f4c696d69744d61726b65743a204c696d6974206e6f7420726561636865640000604482015290519081900360640190fd5b6000846040518060600160405280602481526020016108d360249139336001600160a01b038316148061062757506001600160a01b03821660009081526020818152604080832033845290915290205460ff165b81906106745760405162461bcd60e51b81526020600482018181528351602484015283519092839260449091019190850190808383600083156102eb5781810151838201526020016102d3565b5060035460408051635935f49160e11b81526001600160a01b038a8116600483015289811660248301526001600160801b03891660448301529151600093929092169163b26be9229160648082019260209290919082900301818787803b15801561054457600080fd5b6002546001600160a01b031681565b6000846040518060600160405280602481526020016108d360249139336001600160a01b038316148061074157506001600160a01b03821660009081526020818152604080832033845290915290205460ff165b819061078e5760405162461bcd60e51b81526020600482018181528351602484015283519092839260449091019190850190808383600083156102eb5781810151838201526020016102d3565b506003546040805163cc5783d360e01b81526001600160a01b038a8116600483015289811660248301526001600160801b03891660448301529151600093929092169163cc5783d39160648082019260209290919082900301818787803b15801561039057600080fd5b336000818152602081815260408083206001600160a01b03861680855290835292819020805460ff19166001908117909155815190815290519293927f045b0fef01772d2fbba53dbd38c9777806eac0865b00af43abcfbcaf50da9206929181900390910190a350565b6001546001600160a01b031681565b336000818152602081815260408083206001600160a01b038616808552908352818420805460ff19169055815193845290519093927f045b0fef01772d2fbba53dbd38c9777806eac0865b00af43abcfbcaf50da920692908290030190a35056fe4c696d69744d61726b65743a204f6e6c7920486f6c646572204f722044656c6567617465a264697066735822122042e6b2bca54c0c88e25ce952539e393510887313e5cb319a7bad31562f9c654464736f6c634300060a0033",
  "source": "// SPDX-License-Identifier: GPL-3.0-or-later\npragma solidity ^0.6.10;\n\nimport \"@openzeppelin/contracts/math/SafeMath.sol\";\nimport \"@openzeppelin/contracts/token/ERC20/IERC20.sol\";\nimport \"./Market.sol\";\nimport \"../helpers/Delegable.sol\";\nimport \"../interfaces/IMarket.sol\";\n// import \"@nomiclabs/buidler/console.sol\";\n\n\n/// @dev LimitMarket is a proxy contract to Market that implements limit orders.\ncontract LimitMarket is Delegable {\n    using SafeMath for uint256;\n\n    IERC20 public dai;\n    IERC20 public yDai;\n    IMarket public market;\n\n    constructor(address dai_, address yDai_, address market_) public Delegable() {\n        dai = IERC20(dai_);\n        yDai = IERC20(yDai_);\n        market = IMarket(market_);\n    }\n\n    /// @dev Sell Dai for yDai\n    /// @param from Wallet providing the dai being sold. Must have approved the operator with `market.addDelegate(operator)`.\n    /// @param to Wallet receiving the yDai being bought\n    /// @param daiIn Amount of dai being sold that will be taken from the user's wallet\n    /// @param minYDaiOut Amount of yDai being received that will be accepted as a minimum for the trade to execute\n    function sellDai(address from, address to, uint128 daiIn, uint128 minYDaiOut)\n        external\n        onlyHolderOrDelegate(from, \"LimitMarket: Only Holder Or Delegate\")\n        returns(uint256)\n    {\n        uint256 yDaiOut = market.sellDai(from, to, daiIn);\n        require(\n            yDaiOut >= minYDaiOut,\n            \"LimitMarket: Limit not reached\"\n        );\n        return yDaiOut;\n    }\n\n    /// @dev Buy Dai for yDai\n    /// @param from Wallet providing the yDai being sold. Must have approved the operator with `market.addDelegate(operator)`.\n    /// @param to Wallet receiving the dai being bought\n    /// @param daiOut Amount of dai being bought that will be deposited in `to` wallet\n    /// @param maxYDaiIn Amount of yDai being paid that will be accepted as a maximum for the trade to execute\n    function buyDai(address from, address to, uint128 daiOut, uint128 maxYDaiIn)\n        external\n        onlyHolderOrDelegate(from, \"LimitMarket: Only Holder Or Delegate\")\n        returns(uint256)\n    {\n        uint256 yDaiIn = market.buyDai(from, to, daiOut);\n        require(\n            maxYDaiIn >= yDaiIn,\n            \"LimitMarket: Limit exceeded\"\n        );\n        return yDaiIn;\n    }\n\n    /// @dev Sell yDai for Dai\n    /// @param from Wallet providing the yDai being sold. Must have approved the operator with `market.addDelegate(operator)`.\n    /// @param to Wallet receiving the dai being bought\n    /// @param yDaiIn Amount of yDai being sold that will be taken from the user's wallet\n    /// @param minDaiOut Amount of dai being received that will be accepted as a minimum for the trade to execute\n    function sellYDai(address from, address to, uint128 yDaiIn, uint128 minDaiOut)\n        external\n        onlyHolderOrDelegate(from, \"LimitMarket: Only Holder Or Delegate\")\n        returns(uint256)\n    {\n        uint256 daiOut = market.sellYDai(from, to, yDaiIn);\n        require(\n            daiOut >= minDaiOut,\n            \"LimitMarket: Limit not reached\"\n        );\n        return daiOut;\n    }\n\n    /// @dev Buy yDai for dai\n    /// @param from Wallet providing the dai being sold. Must have approved the operator with `market.addDelegate(operator)`.\n    /// @param to Wallet receiving the yDai being bought\n    /// @param yDaiOut Amount of yDai being bought that will be deposited in `to` wallet\n    /// @param maxDaiIn Amount of dai being paid that will be accepted as a maximum for the trade to execute\n    function buyYDai(address from, address to, uint128 yDaiOut, uint128 maxDaiIn)\n        external\n        onlyHolderOrDelegate(from, \"LimitMarket: Only Holder Or Delegate\")\n        returns(uint256)\n    {\n        uint256 daiIn = market.buyYDai(from, to, yDaiOut);\n        require(\n            maxDaiIn >= daiIn,\n            \"LimitMarket: Limit exceeded\"\n        );\n        return daiIn;\n    }\n}",
  "sourcePath": "/Users/bruce/dev/yieldprotocol/ytoken-mvp/contracts/market/LimitMarket.sol",
  "compiler": {
    "name": "solc",
    "version": "0.6.10+commit.00c0fcaf.Emscripten.clang"
  },
  "schemaVersion": "3.0.23",
  "updatedAt": "2020-07-20T13:24:18.544Z",
  "networkType": "ethereum",
  "devdoc": {
    "details": "LimitMarket is a proxy contract to Market that implements limit orders.",
    "methods": {
      "addDelegate(address)": {
        "details": "Enable a delegate to act on the behalf of caller"
      },
      "buyDai(address,address,uint128,uint128)": {
        "details": "Buy Dai for yDai",
        "params": {
          "daiOut": "Amount of dai being bought that will be deposited in `to` wallet",
          "from": "Wallet providing the yDai being sold. Must have approved the operator with `market.addDelegate(operator)`.",
          "maxYDaiIn": "Amount of yDai being paid that will be accepted as a maximum for the trade to execute",
          "to": "Wallet receiving the dai being bought"
        }
      },
      "buyYDai(address,address,uint128,uint128)": {
        "details": "Buy yDai for dai",
        "params": {
          "from": "Wallet providing the dai being sold. Must have approved the operator with `market.addDelegate(operator)`.",
          "maxDaiIn": "Amount of dai being paid that will be accepted as a maximum for the trade to execute",
          "to": "Wallet receiving the yDai being bought",
          "yDaiOut": "Amount of yDai being bought that will be deposited in `to` wallet"
        }
      },
      "revokeDelegate(address)": {
        "details": "Stop a delegate from acting on the behalf of caller"
      },
      "sellDai(address,address,uint128,uint128)": {
        "details": "Sell Dai for yDai",
        "params": {
          "daiIn": "Amount of dai being sold that will be taken from the user's wallet",
          "from": "Wallet providing the dai being sold. Must have approved the operator with `market.addDelegate(operator)`.",
          "minYDaiOut": "Amount of yDai being received that will be accepted as a minimum for the trade to execute",
          "to": "Wallet receiving the yDai being bought"
        }
      },
      "sellYDai(address,address,uint128,uint128)": {
        "details": "Sell yDai for Dai",
        "params": {
          "from": "Wallet providing the yDai being sold. Must have approved the operator with `market.addDelegate(operator)`.",
          "minDaiOut": "Amount of dai being received that will be accepted as a minimum for the trade to execute",
          "to": "Wallet receiving the dai being bought",
          "yDaiIn": "Amount of yDai being sold that will be taken from the user's wallet"
        }
      }
    }
  },
  "userdoc": {
    "methods": {}
  }
}