{
  "contractName": "LimitPool",
  "abi": [
    {
      "inputs": [
        {
          "internalType": "address",
          "name": "pool",
          "type": "address"
        },
        {
          "internalType": "address",
          "name": "to",
          "type": "address"
        },
        {
          "internalType": "uint128",
          "name": "daiIn",
          "type": "uint128"
        },
        {
          "internalType": "uint128",
          "name": "minYDaiOut",
          "type": "uint128"
        }
      ],
      "name": "sellDai",
      "outputs": [
        {
          "internalType": "uint256",
          "name": "",
          "type": "uint256"
        }
      ],
      "stateMutability": "nonpayable",
      "type": "function"
    },
    {
      "inputs": [
        {
          "internalType": "address",
          "name": "pool",
          "type": "address"
        },
        {
          "internalType": "address",
          "name": "to",
          "type": "address"
        },
        {
          "internalType": "uint128",
          "name": "daiOut",
          "type": "uint128"
        },
        {
          "internalType": "uint128",
          "name": "maxYDaiIn",
          "type": "uint128"
        }
      ],
      "name": "buyDai",
      "outputs": [
        {
          "internalType": "uint256",
          "name": "",
          "type": "uint256"
        }
      ],
      "stateMutability": "nonpayable",
      "type": "function"
    },
    {
      "inputs": [
        {
          "internalType": "address",
          "name": "pool",
          "type": "address"
        },
        {
          "internalType": "address",
          "name": "to",
          "type": "address"
        },
        {
          "internalType": "uint128",
          "name": "yDaiIn",
          "type": "uint128"
        },
        {
          "internalType": "uint128",
          "name": "minDaiOut",
          "type": "uint128"
        }
      ],
      "name": "sellYDai",
      "outputs": [
        {
          "internalType": "uint256",
          "name": "",
          "type": "uint256"
        }
      ],
      "stateMutability": "nonpayable",
      "type": "function"
    },
    {
      "inputs": [
        {
          "internalType": "address",
          "name": "pool",
          "type": "address"
        },
        {
          "internalType": "address",
          "name": "to",
          "type": "address"
        },
        {
          "internalType": "uint128",
          "name": "yDaiOut",
          "type": "uint128"
        },
        {
          "internalType": "uint128",
          "name": "maxDaiIn",
          "type": "uint128"
        }
      ],
      "name": "buyYDai",
      "outputs": [
        {
          "internalType": "uint256",
          "name": "",
          "type": "uint256"
        }
      ],
      "stateMutability": "nonpayable",
      "type": "function"
    }
  ],
  "bytecode": "0x608060405234801561001057600080fd5b50610470806100206000396000f3fe608060405234801561001057600080fd5b506004361061004c5760003560e01c806304b60aa014610051578063a9801882146100aa578063ae70747c146100f1578063cc53d7bf14610138575b600080fd5b6100986004803603608081101561006757600080fd5b506001600160a01b0381358116916020810135909116906001600160801b036040820135811691606001351661017f565b60408051918252519081900360200190f35b610098600480360360808110156100c057600080fd5b506001600160a01b0381358116916020810135909116906001600160801b036040820135811691606001351661027c565b6100986004803603608081101561010757600080fd5b506001600160a01b0381358116916020810135909116906001600160801b0360408201358116916060013516610370565b6100986004803603608081101561014e57600080fd5b506001600160a01b0381358116916020810135909116906001600160801b03604082013581169160600135166103d5565b60408051630d43fde760e41b81523360048201526001600160a01b0385811660248301526001600160801b0385166044830152915160009283929088169163d43fde709160648082019260209290919082900301818787803b1580156101e457600080fd5b505af11580156101f8573d6000803e3d6000fd5b505050506040513d602081101561020e57600080fd5b50516001600160801b0390811691508316811115610273576040805162461bcd60e51b815260206004820152601960248201527f4c696d6974506f6f6c3a204c696d697420657863656564656400000000000000604482015290519081900360640190fd5b95945050505050565b6040805163c47b5b8360e01b81523360048201526001600160a01b0385811660248301526001600160801b0385166044830152915160009283929088169163c47b5b839160648082019260209290919082900301818787803b1580156102e157600080fd5b505af11580156102f5573d6000803e3d6000fd5b505050506040513d602081101561030b57600080fd5b50516001600160801b0390811691508316811015610273576040805162461bcd60e51b815260206004820152601c60248201527f4c696d6974506f6f6c3a204c696d6974206e6f74207265616368656400000000604482015290519081900360640190fd5b60408051635935f49160e11b81523360048201526001600160a01b0385811660248301526001600160801b0385166044830152915160009283929088169163b26be9229160648082019260209290919082900301818787803b1580156102e157600080fd5b6040805163cc5783d360e01b81523360048201526001600160a01b0385811660248301526001600160801b0385166044830152915160009283929088169163cc5783d39160648082019260209290919082900301818787803b1580156101e457600080fdfea264697066735822122031772716bb4a669c054b6d86ff64a85afec1e46df32977244acc4b32ee2dd6f564736f6c634300060a0033",
  "immutableReferences": {},
  "source": "// SPDX-License-Identifier: GPL-3.0-or-later\r\npragma solidity ^0.6.10;\r\n\r\nimport \"@openzeppelin/contracts/token/ERC20/IERC20.sol\";\r\nimport \"../pool/Pool.sol\";\r\nimport \"../interfaces/IPool.sol\";\r\n\r\n\r\n\r\n/// @dev LimitPool is a proxy contract to Pool that implements limit orders.\r\ncontract LimitPool {\r\n\r\n    /// @dev Sell Dai for yDai\r\n    /// @param to Wallet receiving the yDai being bought\r\n    /// @param daiIn Amount of dai being sold\r\n    /// @param minYDaiOut Minimum amount of yDai being bought\r\n    function sellDai(address pool, address to, uint128 daiIn, uint128 minYDaiOut)\r\n        external\r\n        returns(uint256)\r\n    {\r\n        uint256 yDaiOut = IPool(pool).sellDai(msg.sender, to, daiIn);\r\n        require(\r\n            yDaiOut >= minYDaiOut,\r\n            \"LimitPool: Limit not reached\"\r\n        );\r\n        return yDaiOut;\r\n    }\r\n\r\n    /// @dev Buy Dai for yDai\r\n    /// @param to Wallet receiving the dai being bought\r\n    /// @param daiOut Amount of dai being bought\r\n    /// @param maxYDaiIn Maximum amount of yDai being sold\r\n    function buyDai(address pool, address to, uint128 daiOut, uint128 maxYDaiIn)\r\n        external\r\n        returns(uint256)\r\n    {\r\n        uint256 yDaiIn = IPool(pool).buyDai(msg.sender, to, daiOut);\r\n        require(\r\n            maxYDaiIn >= yDaiIn,\r\n            \"LimitPool: Limit exceeded\"\r\n        );\r\n        return yDaiIn;\r\n    }\r\n\r\n    /// @dev Sell yDai for Dai\r\n    /// @param to Wallet receiving the dai being bought\r\n    /// @param yDaiIn Amount of yDai being sold\r\n    /// @param minDaiOut Minimum amount of dai being bought\r\n    function sellYDai(address pool, address to, uint128 yDaiIn, uint128 minDaiOut)\r\n        external\r\n        returns(uint256)\r\n    {\r\n        uint256 daiOut = IPool(pool).sellYDai(msg.sender, to, yDaiIn);\r\n        require(\r\n            daiOut >= minDaiOut,\r\n            \"LimitPool: Limit not reached\"\r\n        );\r\n        return daiOut;\r\n    }\r\n\r\n    /// @dev Buy yDai for dai\r\n    /// @param to Wallet receiving the yDai being bought\r\n    /// @param yDaiOut Amount of yDai being bought\r\n    /// @param maxDaiIn Maximum amount of dai being sold\r\n    function buyYDai(address pool, address to, uint128 yDaiOut, uint128 maxDaiIn)\r\n        external\r\n        returns(uint256)\r\n    {\r\n        uint256 daiIn = IPool(pool).buyYDai(msg.sender, to, yDaiOut);\r\n        require(\r\n            maxDaiIn >= daiIn,\r\n            \"LimitPool: Limit exceeded\"\r\n        );\r\n        return daiIn;\r\n    }\r\n}",
  "sourcePath": "C:/Users/bruce/dev/yield/yDai/contracts/peripheral/LimitPool.sol",
  "compiler": {
    "name": "solc",
    "version": "0.6.10+commit.00c0fcaf.Emscripten.clang"
  },
  "schemaVersion": "3.2.3",
  "updatedAt": "2020-08-24T15:06:41.328Z",
  "devdoc": {
    "details": "LimitPool is a proxy contract to Pool that implements limit orders.",
    "methods": {
      "buyDai(address,address,uint128,uint128)": {
        "details": "Buy Dai for yDai",
        "params": {
          "daiOut": "Amount of dai being bought",
          "maxYDaiIn": "Maximum amount of yDai being sold",
          "to": "Wallet receiving the dai being bought"
        }
      },
      "buyYDai(address,address,uint128,uint128)": {
        "details": "Buy yDai for dai",
        "params": {
          "maxDaiIn": "Maximum amount of dai being sold",
          "to": "Wallet receiving the yDai being bought",
          "yDaiOut": "Amount of yDai being bought"
        }
      },
      "sellDai(address,address,uint128,uint128)": {
        "details": "Sell Dai for yDai",
        "params": {
          "daiIn": "Amount of dai being sold",
          "minYDaiOut": "Minimum amount of yDai being bought",
          "to": "Wallet receiving the yDai being bought"
        }
      },
      "sellYDai(address,address,uint128,uint128)": {
        "details": "Sell yDai for Dai",
        "params": {
          "minDaiOut": "Minimum amount of dai being bought",
          "to": "Wallet receiving the dai being bought",
          "yDaiIn": "Amount of yDai being sold"
        }
      }
    }
  },
  "userdoc": {
    "methods": {}
  }
}