{
  "contractName": "LimitPool",
  "abi": [
    {
      "inputs": [
        {
          "internalType": "address",
          "name": "dai_",
          "type": "address"
        },
        {
          "internalType": "address",
          "name": "yDai_",
          "type": "address"
        },
        {
          "internalType": "address",
          "name": "pool_",
          "type": "address"
        }
      ],
      "stateMutability": "nonpayable",
      "type": "constructor"
    },
    {
      "inputs": [],
      "name": "dai",
      "outputs": [
        {
          "internalType": "contract IERC20",
          "name": "",
          "type": "address"
        }
      ],
      "stateMutability": "view",
      "type": "function",
      "constant": true
    },
    {
      "inputs": [],
      "name": "pool",
      "outputs": [
        {
          "internalType": "contract IPool",
          "name": "",
          "type": "address"
        }
      ],
      "stateMutability": "view",
      "type": "function",
      "constant": true
    },
    {
      "inputs": [],
      "name": "yDai",
      "outputs": [
        {
          "internalType": "contract IERC20",
          "name": "",
          "type": "address"
        }
      ],
      "stateMutability": "view",
      "type": "function",
      "constant": true
    },
    {
      "inputs": [
        {
          "internalType": "address",
          "name": "to",
          "type": "address"
        },
        {
          "internalType": "uint128",
          "name": "daiIn",
          "type": "uint128"
        },
        {
          "internalType": "uint128",
          "name": "minYDaiOut",
          "type": "uint128"
        }
      ],
      "name": "sellDai",
      "outputs": [
        {
          "internalType": "uint256",
          "name": "",
          "type": "uint256"
        }
      ],
      "stateMutability": "nonpayable",
      "type": "function"
    },
    {
      "inputs": [
        {
          "internalType": "address",
          "name": "to",
          "type": "address"
        },
        {
          "internalType": "uint128",
          "name": "daiOut",
          "type": "uint128"
        },
        {
          "internalType": "uint128",
          "name": "maxYDaiIn",
          "type": "uint128"
        }
      ],
      "name": "buyDai",
      "outputs": [
        {
          "internalType": "uint256",
          "name": "",
          "type": "uint256"
        }
      ],
      "stateMutability": "nonpayable",
      "type": "function"
    },
    {
      "inputs": [
        {
          "internalType": "address",
          "name": "to",
          "type": "address"
        },
        {
          "internalType": "uint128",
          "name": "yDaiIn",
          "type": "uint128"
        },
        {
          "internalType": "uint128",
          "name": "minDaiOut",
          "type": "uint128"
        }
      ],
      "name": "sellYDai",
      "outputs": [
        {
          "internalType": "uint256",
          "name": "",
          "type": "uint256"
        }
      ],
      "stateMutability": "nonpayable",
      "type": "function"
    },
    {
      "inputs": [
        {
          "internalType": "address",
          "name": "to",
          "type": "address"
        },
        {
          "internalType": "uint128",
          "name": "yDaiOut",
          "type": "uint128"
        },
        {
          "internalType": "uint128",
          "name": "maxDaiIn",
          "type": "uint128"
        }
      ],
      "name": "buyYDai",
      "outputs": [
        {
          "internalType": "uint256",
          "name": "",
          "type": "uint256"
        }
      ],
      "stateMutability": "nonpayable",
      "type": "function"
    }
  ],
  "bytecode": "0x608060405234801561001057600080fd5b506040516105683803806105688339818101604052606081101561003357600080fd5b5080516020820151604090920151600080546001600160a01b039384166001600160a01b03199182161790915560018054948416948216949094179093556002805492909116919092161790556104d98061008f6000396000f3fe608060405234801561001057600080fd5b506004361061007d5760003560e01c80638604eefe1161005b5780638604eefe14610132578063a353c4e31461016f578063aef52e3f146101ac578063f4b9fa75146101b45761007d565b806316f0115b146100825780633aadf419146100a65780634c00f8d4146100f5575b600080fd5b61008a6101bc565b604080516001600160a01b039092168252519081900360200190f35b6100e3600480360360608110156100bc57600080fd5b506001600160a01b03813516906001600160801b03602082013581169160400135166101cb565b60408051918252519081900360200190f35b6100e36004803603606081101561010b57600080fd5b506001600160a01b03813516906001600160801b03602082013581169160400135166102c7565b6100e36004803603606081101561014857600080fd5b506001600160a01b03813516906001600160801b03602082013581169160400135166103bb565b6100e36004803603606081101561018557600080fd5b506001600160a01b03813516906001600160801b0360208201358116916040013516610420565b61008a610485565b61008a610494565b6002546001600160a01b031681565b60025460408051635935f49160e11b81523360048201526001600160a01b0386811660248301526001600160801b038616604483015291516000938493169163b26be92291606480830192602092919082900301818787803b15801561023057600080fd5b505af1158015610244573d6000803e3d6000fd5b505050506040513d602081101561025a57600080fd5b50516001600160801b03908116915083168110156102bf576040805162461bcd60e51b815260206004820152601c60248201527f4c696d6974506f6f6c3a204c696d6974206e6f74207265616368656400000000604482015290519081900360640190fd5b949350505050565b6002546040805163cc5783d360e01b81523360048201526001600160a01b0386811660248301526001600160801b038616604483015291516000938493169163cc5783d391606480830192602092919082900301818787803b15801561032c57600080fd5b505af1158015610340573d6000803e3d6000fd5b505050506040513d602081101561035657600080fd5b50516001600160801b03908116915083168111156102bf576040805162461bcd60e51b815260206004820152601960248201527f4c696d6974506f6f6c3a204c696d697420657863656564656400000000000000604482015290519081900360640190fd5b6002546040805163c47b5b8360e01b81523360048201526001600160a01b0386811660248301526001600160801b038616604483015291516000938493169163c47b5b8391606480830192602092919082900301818787803b15801561023057600080fd5b60025460408051630d43fde760e41b81523360048201526001600160a01b0386811660248301526001600160801b038616604483015291516000938493169163d43fde7091606480830192602092919082900301818787803b15801561032c57600080fd5b6001546001600160a01b031681565b6000546001600160a01b03168156fea2646970667358221220229f1037867703bdbebcc458272d3309182b6308021306031b28d6f82480707f64736f6c634300060a0033",
  "immutableReferences": {},
  "source": "// SPDX-License-Identifier: GPL-3.0-or-later\r\npragma solidity ^0.6.10;\r\n\r\nimport \"@openzeppelin/contracts/math/SafeMath.sol\";\r\nimport \"@openzeppelin/contracts/token/ERC20/IERC20.sol\";\r\nimport \"../pool/Pool.sol\";\r\nimport \"../interfaces/IPool.sol\";\r\n\r\n\r\n\r\n/// @dev LimitPool is a proxy contract to Pool that implements limit orders.\r\ncontract LimitPool {\r\n    using SafeMath for uint256;\r\n\r\n    IERC20 public dai;\r\n    IERC20 public yDai;\r\n    IPool public pool;\r\n\r\n    constructor(address dai_, address yDai_, address pool_) public {\r\n        dai = IERC20(dai_);\r\n        yDai = IERC20(yDai_);\r\n        pool = IPool(pool_);\r\n    }\r\n\r\n    /// @dev Sell Dai for yDai\r\n    /// @param to Wallet receiving the yDai being bought\r\n    /// @param daiIn Amount of dai being sold\r\n    /// @param minYDaiOut Minimum amount of yDai being bought\r\n    function sellDai(address to, uint128 daiIn, uint128 minYDaiOut)\r\n        external\r\n        returns(uint256)\r\n    {\r\n        uint256 yDaiOut = pool.sellDai(msg.sender, to, daiIn);\r\n        require(\r\n            yDaiOut >= minYDaiOut,\r\n            \"LimitPool: Limit not reached\"\r\n        );\r\n        return yDaiOut;\r\n    }\r\n\r\n    /// @dev Buy Dai for yDai\r\n    /// @param to Wallet receiving the dai being bought\r\n    /// @param daiOut Amount of dai being bought\r\n    /// @param maxYDaiIn Maximum amount of yDai being sold\r\n    function buyDai(address to, uint128 daiOut, uint128 maxYDaiIn)\r\n        external\r\n        returns(uint256)\r\n    {\r\n        uint256 yDaiIn = pool.buyDai(msg.sender, to, daiOut);\r\n        require(\r\n            maxYDaiIn >= yDaiIn,\r\n            \"LimitPool: Limit exceeded\"\r\n        );\r\n        return yDaiIn;\r\n    }\r\n\r\n    /// @dev Sell yDai for Dai\r\n    /// @param to Wallet receiving the dai being bought\r\n    /// @param yDaiIn Amount of yDai being sold\r\n    /// @param minDaiOut Minimum amount of dai being bought\r\n    function sellYDai(address to, uint128 yDaiIn, uint128 minDaiOut)\r\n        external\r\n        returns(uint256)\r\n    {\r\n        uint256 daiOut = pool.sellYDai(msg.sender, to, yDaiIn);\r\n        require(\r\n            daiOut >= minDaiOut,\r\n            \"LimitPool: Limit not reached\"\r\n        );\r\n        return daiOut;\r\n    }\r\n\r\n    /// @dev Buy yDai for dai\r\n    /// @param to Wallet receiving the yDai being bought\r\n    /// @param yDaiOut Amount of yDai being bought\r\n    /// @param maxDaiIn Maximum amount of dai being sold\r\n    function buyYDai(address to, uint128 yDaiOut, uint128 maxDaiIn)\r\n        external\r\n        returns(uint256)\r\n    {\r\n        uint256 daiIn = pool.buyYDai(msg.sender, to, yDaiOut);\r\n        require(\r\n            maxDaiIn >= daiIn,\r\n            \"LimitPool: Limit exceeded\"\r\n        );\r\n        return daiIn;\r\n    }\r\n}",
  "sourcePath": "C:/Users/bruce/dev/yield/yDai/contracts/peripheral/LimitPool.sol",
  "compiler": {
    "name": "solc",
    "version": "0.6.10+commit.00c0fcaf.Emscripten.clang"
  },
  "schemaVersion": "3.2.3",
  "updatedAt": "2020-08-19T15:25:14.480Z",
  "networkType": "ethereum",
  "devdoc": {
    "details": "LimitPool is a proxy contract to Pool that implements limit orders.",
    "methods": {
      "buyDai(address,uint128,uint128)": {
        "details": "Buy Dai for yDai",
        "params": {
          "daiOut": "Amount of dai being bought",
          "maxYDaiIn": "Maximum amount of yDai being sold",
          "to": "Wallet receiving the dai being bought"
        }
      },
      "buyYDai(address,uint128,uint128)": {
        "details": "Buy yDai for dai",
        "params": {
          "maxDaiIn": "Maximum amount of dai being sold",
          "to": "Wallet receiving the yDai being bought",
          "yDaiOut": "Amount of yDai being bought"
        }
      },
      "sellDai(address,uint128,uint128)": {
        "details": "Sell Dai for yDai",
        "params": {
          "daiIn": "Amount of dai being sold",
          "minYDaiOut": "Minimum amount of yDai being bought",
          "to": "Wallet receiving the yDai being bought"
        }
      },
      "sellYDai(address,uint128,uint128)": {
        "details": "Sell yDai for Dai",
        "params": {
          "minDaiOut": "Minimum amount of dai being bought",
          "to": "Wallet receiving the dai being bought",
          "yDaiIn": "Amount of yDai being sold"
        }
      }
    }
  },
  "userdoc": {
    "methods": {}
  }
}