{
  "contractName": "LimitMarket",
  "abi": [
    {
      "inputs": [
        {
          "internalType": "address",
          "name": "dai_",
          "type": "address"
        },
        {
          "internalType": "address",
          "name": "yDai_",
          "type": "address"
        },
        {
          "internalType": "address",
          "name": "market_",
          "type": "address"
        }
      ],
      "stateMutability": "nonpayable",
      "type": "constructor"
    },
    {
      "anonymous": false,
      "inputs": [
        {
          "indexed": true,
          "internalType": "address",
          "name": "user",
          "type": "address"
        },
        {
          "indexed": true,
          "internalType": "address",
          "name": "delegate",
          "type": "address"
        },
        {
          "indexed": false,
          "internalType": "bool",
          "name": "enabled",
          "type": "bool"
        }
      ],
      "name": "Delegate",
      "type": "event"
    },
    {
      "inputs": [
        {
          "internalType": "address",
          "name": "delegate",
          "type": "address"
        }
      ],
      "name": "addDelegate",
      "outputs": [],
      "stateMutability": "nonpayable",
      "type": "function"
    },
    {
      "inputs": [],
      "name": "dai",
      "outputs": [
        {
          "internalType": "contract IERC20",
          "name": "",
          "type": "address"
        }
      ],
      "stateMutability": "view",
      "type": "function",
      "constant": true
    },
    {
      "inputs": [
        {
          "internalType": "address",
          "name": "",
          "type": "address"
        },
        {
          "internalType": "address",
          "name": "",
          "type": "address"
        }
      ],
      "name": "delegated",
      "outputs": [
        {
          "internalType": "bool",
          "name": "",
          "type": "bool"
        }
      ],
      "stateMutability": "view",
      "type": "function",
      "constant": true
    },
    {
      "inputs": [],
      "name": "market",
      "outputs": [
        {
          "internalType": "contract IMarket",
          "name": "",
          "type": "address"
        }
      ],
      "stateMutability": "view",
      "type": "function",
      "constant": true
    },
    {
      "inputs": [
        {
          "internalType": "address",
          "name": "delegate",
          "type": "address"
        }
      ],
      "name": "revokeDelegate",
      "outputs": [],
      "stateMutability": "nonpayable",
      "type": "function"
    },
    {
      "inputs": [],
      "name": "yDai",
      "outputs": [
        {
          "internalType": "contract IERC20",
          "name": "",
          "type": "address"
        }
      ],
      "stateMutability": "view",
      "type": "function",
      "constant": true
    },
    {
      "inputs": [
        {
          "internalType": "address",
          "name": "from",
          "type": "address"
        },
        {
          "internalType": "address",
          "name": "to",
          "type": "address"
        },
        {
          "internalType": "uint128",
          "name": "daiIn",
          "type": "uint128"
        },
        {
          "internalType": "uint128",
          "name": "minYDaiOut",
          "type": "uint128"
        }
      ],
      "name": "sellDai",
      "outputs": [
        {
          "internalType": "uint256",
          "name": "",
          "type": "uint256"
        }
      ],
      "stateMutability": "nonpayable",
      "type": "function"
    },
    {
      "inputs": [
        {
          "internalType": "address",
          "name": "from",
          "type": "address"
        },
        {
          "internalType": "address",
          "name": "to",
          "type": "address"
        },
        {
          "internalType": "uint128",
          "name": "daiOut",
          "type": "uint128"
        },
        {
          "internalType": "uint128",
          "name": "maxYDaiIn",
          "type": "uint128"
        }
      ],
      "name": "buyDai",
      "outputs": [
        {
          "internalType": "uint256",
          "name": "",
          "type": "uint256"
        }
      ],
      "stateMutability": "nonpayable",
      "type": "function"
    },
    {
      "inputs": [
        {
          "internalType": "address",
          "name": "from",
          "type": "address"
        },
        {
          "internalType": "address",
          "name": "to",
          "type": "address"
        },
        {
          "internalType": "uint128",
          "name": "yDaiIn",
          "type": "uint128"
        },
        {
          "internalType": "uint128",
          "name": "minDaiOut",
          "type": "uint128"
        }
      ],
      "name": "sellYDai",
      "outputs": [
        {
          "internalType": "uint256",
          "name": "",
          "type": "uint256"
        }
      ],
      "stateMutability": "nonpayable",
      "type": "function"
    },
    {
      "inputs": [
        {
          "internalType": "address",
          "name": "from",
          "type": "address"
        },
        {
          "internalType": "address",
          "name": "to",
          "type": "address"
        },
        {
          "internalType": "uint128",
          "name": "yDaiOut",
          "type": "uint128"
        },
        {
          "internalType": "uint128",
          "name": "maxDaiIn",
          "type": "uint128"
        }
      ],
      "name": "buyYDai",
      "outputs": [
        {
          "internalType": "uint256",
          "name": "",
          "type": "uint256"
        }
      ],
      "stateMutability": "nonpayable",
      "type": "function"
    }
  ],
  "bytecode": "0x608060405234801561001057600080fd5b50604051610a21380380610a218339818101604052606081101561003357600080fd5b5080516020820151604090920151600180546001600160a01b03199081166001600160a01b0394851617909155600280548216948416949094179093556003805490931691161790556109968061008b6000396000f3fe608060405234801561001057600080fd5b506004361061009e5760003560e01c8063cc53d7bf11610066578063cc53d7bf146101b6578063e71bdf41146101fd578063f4b9fa7514610225578063f6bcbd311461022d578063fa352c001461026f5761009e565b806304b60aa0146100a357806380f55605146100fc578063a980188214610120578063ae70747c14610167578063aef52e3f146101ae575b600080fd5b6100ea600480360360808110156100b957600080fd5b506001600160a01b0381358116916020810135909116906001600160801b0360408201358116916060013516610295565b60408051918252519081900360200190f35b610104610477565b604080516001600160a01b039092168252519081900360200190f35b6100ea6004803603608081101561013657600080fd5b506001600160a01b0381358116916020810135909116906001600160801b0360408201358116916060013516610486565b6100ea6004803603608081101561017d57600080fd5b506001600160a01b0381358116916020810135909116906001600160801b0360408201358116916060013516610620565b61010461072b565b6100ea600480360360808110156101cc57600080fd5b506001600160a01b0381358116916020810135909116906001600160801b036040820135811691606001351661073a565b6102236004803603602081101561021357600080fd5b50356001600160a01b0316610845565b005b6101046108af565b61025b6004803603604081101561024357600080fd5b506001600160a01b03813581169160200135166108be565b604080519115158252519081900360200190f35b6102236004803603602081101561028557600080fd5b50356001600160a01b03166108db565b60008460405180606001604052806024815260200161093d60249139336001600160a01b03831614806102e957506001600160a01b03821660009081526020818152604080832033845290915290205460ff165b81906103735760405162461bcd60e51b81526004018080602001828103825283818151815260200191508051906020019080838360005b83811015610338578181015183820152602001610320565b50505050905090810190601f1680156103655780820380516001836020036101000a031916815260200191505b509250505060405180910390fd5b5060035460408051630d43fde760e41b81526001600160a01b038a8116600483015289811660248301526001600160801b03891660448301529151600093929092169163d43fde709160648082019260209290919082900301818787803b1580156103dd57600080fd5b505af11580156103f1573d6000803e3d6000fd5b505050506040513d602081101561040757600080fd5b50516001600160801b039081169150851681111561046c576040805162461bcd60e51b815260206004820152601b60248201527f4c696d69744d61726b65743a204c696d69742065786365656465640000000000604482015290519081900360640190fd5b979650505050505050565b6003546001600160a01b031681565b60008460405180606001604052806024815260200161093d60249139336001600160a01b03831614806104da57506001600160a01b03821660009081526020818152604080832033845290915290205460ff165b81906105275760405162461bcd60e51b8152602060048201818152835160248401528351909283926044909101919085019080838360008315610338578181015183820152602001610320565b506003546040805163c47b5b8360e01b81526001600160a01b038a8116600483015289811660248301526001600160801b03891660448301529151600093929092169163c47b5b839160648082019260209290919082900301818787803b15801561059157600080fd5b505af11580156105a5573d6000803e3d6000fd5b505050506040513d60208110156105bb57600080fd5b50516001600160801b039081169150851681101561046c576040805162461bcd60e51b815260206004820152601e60248201527f4c696d69744d61726b65743a204c696d6974206e6f7420726561636865640000604482015290519081900360640190fd5b60008460405180606001604052806024815260200161093d60249139336001600160a01b038316148061067457506001600160a01b03821660009081526020818152604080832033845290915290205460ff165b81906106c15760405162461bcd60e51b8152602060048201818152835160248401528351909283926044909101919085019080838360008315610338578181015183820152602001610320565b5060035460408051635935f49160e11b81526001600160a01b038a8116600483015289811660248301526001600160801b03891660448301529151600093929092169163b26be9229160648082019260209290919082900301818787803b15801561059157600080fd5b6002546001600160a01b031681565b60008460405180606001604052806024815260200161093d60249139336001600160a01b038316148061078e57506001600160a01b03821660009081526020818152604080832033845290915290205460ff165b81906107db5760405162461bcd60e51b8152602060048201818152835160248401528351909283926044909101919085019080838360008315610338578181015183820152602001610320565b506003546040805163cc5783d360e01b81526001600160a01b038a8116600483015289811660248301526001600160801b03891660448301529151600093929092169163cc5783d39160648082019260209290919082900301818787803b1580156103dd57600080fd5b336000818152602081815260408083206001600160a01b03861680855290835292819020805460ff19166001908117909155815190815290519293927f045b0fef01772d2fbba53dbd38c9777806eac0865b00af43abcfbcaf50da9206929181900390910190a350565b6001546001600160a01b031681565b600060208181529281526040808220909352908152205460ff1681565b336000818152602081815260408083206001600160a01b038616808552908352818420805460ff19169055815193845290519093927f045b0fef01772d2fbba53dbd38c9777806eac0865b00af43abcfbcaf50da920692908290030190a35056fe4c696d69744d61726b65743a204f6e6c7920486f6c646572204f722044656c6567617465a2646970667358221220ec5374bfe67ed651b2749633cc6ec9cfdd326abf138f4fb63682d6165f21c40864736f6c634300060a0033",
  "source": "// SPDX-License-Identifier: GPL-3.0-or-later\npragma solidity ^0.6.10;\n\nimport \"@openzeppelin/contracts/math/SafeMath.sol\";\nimport \"@openzeppelin/contracts/token/ERC20/IERC20.sol\";\nimport \"./Market.sol\";\nimport \"../helpers/Delegable.sol\";\nimport \"../interfaces/IMarket.sol\";\n// import \"@nomiclabs/buidler/console.sol\";\n\n\n/// @dev LimitMarket is a proxy contract to Market that implements limit orders.\ncontract LimitMarket is Delegable {\n    using SafeMath for uint256;\n\n    IERC20 public dai;\n    IERC20 public yDai;\n    IMarket public market;\n\n    constructor(address dai_, address yDai_, address market_) public Delegable() {\n        dai = IERC20(dai_);\n        yDai = IERC20(yDai_);\n        market = IMarket(market_);\n    }\n\n    /// @dev Sell Dai for yDai\n    /// @param from Wallet providing the dai being sold. Must have approved the operator with `market.addDelegate(operator)`.\n    /// @param to Wallet receiving the yDai being bought\n    /// @param daiIn Amount of dai being sold that will be taken from the user's wallet\n    /// @param minYDaiOut Amount of yDai being received that will be accepted as a minimum for the trade to execute\n    function sellDai(address from, address to, uint128 daiIn, uint128 minYDaiOut)\n        external\n        onlyHolderOrDelegate(from, \"LimitMarket: Only Holder Or Delegate\")\n        returns(uint256)\n    {\n        uint256 yDaiOut = market.sellDai(from, to, daiIn);\n        require(\n            yDaiOut >= minYDaiOut,\n            \"LimitMarket: Limit not reached\"\n        );\n        return yDaiOut;\n    }\n\n    /// @dev Buy Dai for yDai\n    /// @param from Wallet providing the yDai being sold. Must have approved the operator with `market.addDelegate(operator)`.\n    /// @param to Wallet receiving the dai being bought\n    /// @param daiOut Amount of dai being bought that will be deposited in `to` wallet\n    /// @param maxYDaiIn Amount of yDai being paid that will be accepted as a maximum for the trade to execute\n    function buyDai(address from, address to, uint128 daiOut, uint128 maxYDaiIn)\n        external\n        onlyHolderOrDelegate(from, \"LimitMarket: Only Holder Or Delegate\")\n        returns(uint256)\n    {\n        uint256 yDaiIn = market.buyDai(from, to, daiOut);\n        require(\n            maxYDaiIn >= yDaiIn,\n            \"LimitMarket: Limit exceeded\"\n        );\n        return yDaiIn;\n    }\n\n    /// @dev Sell yDai for Dai\n    /// @param from Wallet providing the yDai being sold. Must have approved the operator with `market.addDelegate(operator)`.\n    /// @param to Wallet receiving the dai being bought\n    /// @param yDaiIn Amount of yDai being sold that will be taken from the user's wallet\n    /// @param minDaiOut Amount of dai being received that will be accepted as a minimum for the trade to execute\n    function sellYDai(address from, address to, uint128 yDaiIn, uint128 minDaiOut)\n        external\n        onlyHolderOrDelegate(from, \"LimitMarket: Only Holder Or Delegate\")\n        returns(uint256)\n    {\n        uint256 daiOut = market.sellYDai(from, to, yDaiIn);\n        require(\n            daiOut >= minDaiOut,\n            \"LimitMarket: Limit not reached\"\n        );\n        return daiOut;\n    }\n\n    /// @dev Buy yDai for dai\n    /// @param from Wallet providing the dai being sold. Must have approved the operator with `market.addDelegate(operator)`.\n    /// @param to Wallet receiving the yDai being bought\n    /// @param yDaiOut Amount of yDai being bought that will be deposited in `to` wallet\n    /// @param maxDaiIn Amount of dai being paid that will be accepted as a maximum for the trade to execute\n    function buyYDai(address from, address to, uint128 yDaiOut, uint128 maxDaiIn)\n        external\n        onlyHolderOrDelegate(from, \"LimitMarket: Only Holder Or Delegate\")\n        returns(uint256)\n    {\n        uint256 daiIn = market.buyYDai(from, to, yDaiOut);\n        require(\n            maxDaiIn >= daiIn,\n            \"LimitMarket: Limit exceeded\"\n        );\n        return daiIn;\n    }\n}",
  "sourcePath": "/Users/bruce/dev/yieldprotocol/ytoken-mvp/contracts/market/LimitMarket.sol",
  "compiler": {
    "name": "solc",
    "version": "0.6.10+commit.00c0fcaf.Emscripten.clang"
  },
  "schemaVersion": "3.0.23",
  "updatedAt": "2020-07-23T06:32:18.896Z",
  "networkType": "ethereum",
  "devdoc": {
    "details": "LimitMarket is a proxy contract to Market that implements limit orders.",
    "methods": {
      "addDelegate(address)": {
        "details": "Enable a delegate to act on the behalf of caller"
      },
      "buyDai(address,address,uint128,uint128)": {
        "details": "Buy Dai for yDai",
        "params": {
          "daiOut": "Amount of dai being bought that will be deposited in `to` wallet",
          "from": "Wallet providing the yDai being sold. Must have approved the operator with `market.addDelegate(operator)`.",
          "maxYDaiIn": "Amount of yDai being paid that will be accepted as a maximum for the trade to execute",
          "to": "Wallet receiving the dai being bought"
        }
      },
      "buyYDai(address,address,uint128,uint128)": {
        "details": "Buy yDai for dai",
        "params": {
          "from": "Wallet providing the dai being sold. Must have approved the operator with `market.addDelegate(operator)`.",
          "maxDaiIn": "Amount of dai being paid that will be accepted as a maximum for the trade to execute",
          "to": "Wallet receiving the yDai being bought",
          "yDaiOut": "Amount of yDai being bought that will be deposited in `to` wallet"
        }
      },
      "revokeDelegate(address)": {
        "details": "Stop a delegate from acting on the behalf of caller"
      },
      "sellDai(address,address,uint128,uint128)": {
        "details": "Sell Dai for yDai",
        "params": {
          "daiIn": "Amount of dai being sold that will be taken from the user's wallet",
          "from": "Wallet providing the dai being sold. Must have approved the operator with `market.addDelegate(operator)`.",
          "minYDaiOut": "Amount of yDai being received that will be accepted as a minimum for the trade to execute",
          "to": "Wallet receiving the yDai being bought"
        }
      },
      "sellYDai(address,address,uint128,uint128)": {
        "details": "Sell yDai for Dai",
        "params": {
          "from": "Wallet providing the yDai being sold. Must have approved the operator with `market.addDelegate(operator)`.",
          "minDaiOut": "Amount of dai being received that will be accepted as a minimum for the trade to execute",
          "to": "Wallet receiving the dai being bought",
          "yDaiIn": "Amount of yDai being sold that will be taken from the user's wallet"
        }
      }
    }
  },
  "userdoc": {
    "methods": {}
  }
}