{
  "contractName": "LimitMarket",
  "abi": [
    {
      "inputs": [
        {
          "internalType": "address",
          "name": "chai_",
          "type": "address"
        },
        {
          "internalType": "address",
          "name": "yDai_",
          "type": "address"
        },
        {
          "internalType": "address",
          "name": "market_",
          "type": "address"
        }
      ],
      "stateMutability": "nonpayable",
      "type": "constructor"
    },
    {
      "anonymous": false,
      "inputs": [
        {
          "indexed": true,
          "internalType": "address",
          "name": "user",
          "type": "address"
        },
        {
          "indexed": true,
          "internalType": "address",
          "name": "delegate",
          "type": "address"
        },
        {
          "indexed": false,
          "internalType": "bool",
          "name": "enabled",
          "type": "bool"
        }
      ],
      "name": "Delegate",
      "type": "event"
    },
    {
      "inputs": [
        {
          "internalType": "address",
          "name": "delegate",
          "type": "address"
        }
      ],
      "name": "addDelegate",
      "outputs": [],
      "stateMutability": "nonpayable",
      "type": "function"
    },
    {
      "inputs": [],
      "name": "chai",
      "outputs": [
        {
          "internalType": "contract IERC20",
          "name": "",
          "type": "address"
        }
      ],
      "stateMutability": "view",
      "type": "function",
      "constant": true
    },
    {
      "inputs": [],
      "name": "market",
      "outputs": [
        {
          "internalType": "contract IMarket",
          "name": "",
          "type": "address"
        }
      ],
      "stateMutability": "view",
      "type": "function",
      "constant": true
    },
    {
      "inputs": [
        {
          "internalType": "address",
          "name": "delegate",
          "type": "address"
        }
      ],
      "name": "revokeDelegate",
      "outputs": [],
      "stateMutability": "nonpayable",
      "type": "function"
    },
    {
      "inputs": [],
      "name": "yDai",
      "outputs": [
        {
          "internalType": "contract IERC20",
          "name": "",
          "type": "address"
        }
      ],
      "stateMutability": "view",
      "type": "function",
      "constant": true
    },
    {
      "inputs": [
        {
          "internalType": "address",
          "name": "from",
          "type": "address"
        },
        {
          "internalType": "address",
          "name": "to",
          "type": "address"
        },
        {
          "internalType": "uint128",
          "name": "chaiIn",
          "type": "uint128"
        },
        {
          "internalType": "uint128",
          "name": "minYDaiOut",
          "type": "uint128"
        }
      ],
      "name": "sellChai",
      "outputs": [
        {
          "internalType": "uint256",
          "name": "",
          "type": "uint256"
        }
      ],
      "stateMutability": "nonpayable",
      "type": "function"
    },
    {
      "inputs": [
        {
          "internalType": "address",
          "name": "from",
          "type": "address"
        },
        {
          "internalType": "address",
          "name": "to",
          "type": "address"
        },
        {
          "internalType": "uint128",
          "name": "chaiOut",
          "type": "uint128"
        },
        {
          "internalType": "uint128",
          "name": "maxYDaiIn",
          "type": "uint128"
        }
      ],
      "name": "buyChai",
      "outputs": [
        {
          "internalType": "uint256",
          "name": "",
          "type": "uint256"
        }
      ],
      "stateMutability": "nonpayable",
      "type": "function"
    },
    {
      "inputs": [
        {
          "internalType": "address",
          "name": "from",
          "type": "address"
        },
        {
          "internalType": "address",
          "name": "to",
          "type": "address"
        },
        {
          "internalType": "uint128",
          "name": "yDaiIn",
          "type": "uint128"
        },
        {
          "internalType": "uint128",
          "name": "minChaiOut",
          "type": "uint128"
        }
      ],
      "name": "sellYDai",
      "outputs": [
        {
          "internalType": "uint256",
          "name": "",
          "type": "uint256"
        }
      ],
      "stateMutability": "nonpayable",
      "type": "function"
    },
    {
      "inputs": [
        {
          "internalType": "address",
          "name": "from",
          "type": "address"
        },
        {
          "internalType": "address",
          "name": "to",
          "type": "address"
        },
        {
          "internalType": "uint128",
          "name": "yDaiOut",
          "type": "uint128"
        },
        {
          "internalType": "uint128",
          "name": "maxChaiIn",
          "type": "uint128"
        }
      ],
      "name": "buyYDai",
      "outputs": [
        {
          "internalType": "uint256",
          "name": "",
          "type": "uint256"
        }
      ],
      "stateMutability": "nonpayable",
      "type": "function"
    }
  ],
  "bytecode": "0x608060405234801561001057600080fd5b506040516109b13803806109b18339818101604052606081101561003357600080fd5b5080516020820151604090920151600180546001600160a01b03199081166001600160a01b0394851617909155600280548216948416949094179093556003805490931691161790556109268061008b6000396000f3fe608060405234801561001057600080fd5b50600436106100935760003560e01c8063a980188211610066578063a9801882146101a3578063aef52e3f146101ea578063b69d0456146101f2578063e71bdf41146101fa578063fa352c001461022257610093565b806304b60aa01461009857806313851fea146100f15780635bb23c1e1461013857806380f556051461017f575b600080fd5b6100df600480360360808110156100ae57600080fd5b506001600160a01b0381358116916020810135909116906001600160801b0360408201358116916060013516610248565b60408051918252519081900360200190f35b6100df6004803603608081101561010757600080fd5b506001600160a01b0381358116916020810135909116906001600160801b0360408201358116916060013516610427565b6100df6004803603608081101561014e57600080fd5b506001600160a01b0381358116916020810135909116906001600160801b0360408201358116916060013516610532565b6101876106c9565b604080516001600160a01b039092168252519081900360200190f35b6100df600480360360808110156101b957600080fd5b506001600160a01b0381358116916020810135909116906001600160801b03604082013581169160600135166106d8565b6101876107e3565b6101876107f2565b6102206004803603602081101561021057600080fd5b50356001600160a01b0316610801565b005b6102206004803603602081101561023857600080fd5b50356001600160a01b031661086b565b6000846040518060600160405280602481526020016108cd60249139336001600160a01b038316148061029c57506001600160a01b03821660009081526020818152604080832033845290915290205460ff165b81906103265760405162461bcd60e51b81526004018080602001828103825283818151815260200191508051906020019080838360005b838110156102eb5781810151838201526020016102d3565b50505050905090810190601f1680156103185780820380516001836020036101000a031916815260200191505b509250505060405180910390fd5b5060035460408051630d43fde760e41b81526001600160a01b038a8116600483015289811660248301526001600160801b03891660448301529151600093929092169163d43fde709160648082019260209290919082900301818787803b15801561039057600080fd5b505af11580156103a4573d6000803e3d6000fd5b505050506040513d60208110156103ba57600080fd5b505190506001600160801b03851681111561041c576040805162461bcd60e51b815260206004820152601b60248201527f4c696d69744d61726b65743a204c696d69742065786365656465640000000000604482015290519081900360640190fd5b979650505050505050565b6000846040518060600160405280602481526020016108cd60249139336001600160a01b038316148061047b57506001600160a01b03821660009081526020818152604080832033845290915290205460ff165b81906104c85760405162461bcd60e51b81526020600482018181528351602484015283519092839260449091019190850190808383600083156102eb5781810151838201526020016102d3565b50600354604080516322e8a7ef60e01b81526001600160a01b038a8116600483015289811660248301526001600160801b0389166044830152915160009392909216916322e8a7ef9160648082019260209290919082900301818787803b15801561039057600080fd5b6000846040518060600160405280602481526020016108cd60249139336001600160a01b038316148061058657506001600160a01b03821660009081526020818152604080832033845290915290205460ff165b81906105d35760405162461bcd60e51b81526020600482018181528351602484015283519092839260449091019190850190808383600083156102eb5781810151838201526020016102d3565b5060035460408051630f5e86c160e31b81526001600160a01b038a8116600483015289811660248301526001600160801b038916604483015291516000939290921691637af436089160648082019260209290919082900301818787803b15801561063d57600080fd5b505af1158015610651573d6000803e3d6000fd5b505050506040513d602081101561066757600080fd5b505190506001600160801b03851681101561041c576040805162461bcd60e51b815260206004820152601e60248201527f4c696d69744d61726b65743a204c696d6974206e6f7420726561636865640000604482015290519081900360640190fd5b6003546001600160a01b031681565b6000846040518060600160405280602481526020016108cd60249139336001600160a01b038316148061072c57506001600160a01b03821660009081526020818152604080832033845290915290205460ff165b81906107795760405162461bcd60e51b81526020600482018181528351602484015283519092839260449091019190850190808383600083156102eb5781810151838201526020016102d3565b506003546040805163c47b5b8360e01b81526001600160a01b038a8116600483015289811660248301526001600160801b03891660448301529151600093929092169163c47b5b839160648082019260209290919082900301818787803b15801561063d57600080fd5b6002546001600160a01b031681565b6001546001600160a01b031681565b336000818152602081815260408083206001600160a01b03861680855290835292819020805460ff19166001908117909155815190815290519293927f045b0fef01772d2fbba53dbd38c9777806eac0865b00af43abcfbcaf50da9206929181900390910190a350565b336000818152602081815260408083206001600160a01b038616808552908352818420805460ff19169055815193845290519093927f045b0fef01772d2fbba53dbd38c9777806eac0865b00af43abcfbcaf50da920692908290030190a35056fe4c696d69744d61726b65743a204f6e6c7920486f6c646572204f722044656c6567617465a26469706673582212208e7ef86ee66fa399b5a0b9b723aa9f44763535c37cf2e16294efebbbaf356c2264736f6c634300060a0033",
  "source": "pragma solidity ^0.6.10;\n\nimport \"@openzeppelin/contracts/math/SafeMath.sol\";\nimport \"@openzeppelin/contracts/token/ERC20/IERC20.sol\";\nimport \"./Market.sol\";\nimport \"../helpers/Delegable.sol\";\nimport \"../interfaces/IMarket.sol\";\n// import \"@nomiclabs/buidler/console.sol\";\n\n\n/// @dev LimitMarket is a proxy contract to Market that implements limit orders.\ncontract LimitMarket is Delegable {\n    using SafeMath for uint256;\n\n    IERC20 public chai;\n    IERC20 public yDai;\n    IMarket public market;\n\n    constructor(address chai_, address yDai_, address market_) public Delegable() {\n        chai = IERC20(chai_);\n        yDai = IERC20(yDai_);\n        market = IMarket(market_);\n    }\n\n    /// @dev Sell Chai for yDai\n    /// @param from Wallet providing the chai being sold. Must have approved the operator with `market.addDelegate(operator)`.\n    /// @param to Wallet receiving the yDai being bought\n    /// @param chaiIn Amount of chai being sold that will be taken from the user's wallet\n    /// @param minYDaiOut Amount of yDai being received that will be accepted as a minimum for the trade to execute\n    function sellChai(address from, address to, uint128 chaiIn, uint128 minYDaiOut)\n        external\n        onlyHolderOrDelegate(from, \"LimitMarket: Only Holder Or Delegate\")\n        returns(uint256)\n    {\n        uint256 yDaiOut = market.sellChai(from, to, chaiIn);\n        require(\n            yDaiOut >= minYDaiOut,\n            \"LimitMarket: Limit not reached\"\n        );\n        return yDaiOut;\n    }\n\n    /// @dev Buy Chai for yDai\n    /// @param from Wallet providing the yDai being sold. Must have approved the operator with `market.addDelegate(operator)`.\n    /// @param to Wallet receiving the chai being bought\n    /// @param chaiOut Amount of chai being bought that will be deposited in `to` wallet\n    /// @param maxYDaiIn Amount of yDai being paid that will be accepted as a maximum for the trade to execute\n    function buyChai(address from, address to, uint128 chaiOut, uint128 maxYDaiIn)\n        external\n        onlyHolderOrDelegate(from, \"LimitMarket: Only Holder Or Delegate\")\n        returns(uint256)\n    {\n        uint256 yDaiIn = market.buyChai(from, to, chaiOut);\n        require(\n            maxYDaiIn >= yDaiIn,\n            \"LimitMarket: Limit exceeded\"\n        );\n        return yDaiIn;\n    }\n\n    /// @dev Sell yDai for Chai\n    /// @param from Wallet providing the yDai being sold. Must have approved the operator with `market.addDelegate(operator)`.\n    /// @param to Wallet receiving the chai being bought\n    /// @param yDaiIn Amount of yDai being sold that will be taken from the user's wallet\n    /// @param minChaiOut Amount of chai being received that will be accepted as a minimum for the trade to execute\n    function sellYDai(address from, address to, uint128 yDaiIn, uint128 minChaiOut)\n        external\n        onlyHolderOrDelegate(from, \"LimitMarket: Only Holder Or Delegate\")\n        returns(uint256)\n    {\n        uint256 chaiOut = market.sellYDai(from, to, yDaiIn);\n        require(\n            chaiOut >= minChaiOut,\n            \"LimitMarket: Limit not reached\"\n        );\n        return chaiOut;\n    }\n\n    /// @dev Buy yDai for chai\n    /// @param from Wallet providing the chai being sold. Must have approved the operator with `market.addDelegate(operator)`.\n    /// @param to Wallet receiving the yDai being bought\n    /// @param yDaiOut Amount of yDai being bought that will be deposited in `to` wallet\n    /// @param maxChaiIn Amount of chai being paid that will be accepted as a maximum for the trade to execute\n    function buyYDai(address from, address to, uint128 yDaiOut, uint128 maxChaiIn)\n        external\n        onlyHolderOrDelegate(from, \"LimitMarket: Only Holder Or Delegate\")\n        returns(uint256)\n    {\n        uint256 chaiIn = market.buyYDai(from, to, yDaiOut);\n        require(\n            maxChaiIn >= chaiIn,\n            \"LimitMarket: Limit exceeded\"\n        );\n        return chaiIn;\n    }\n}",
  "sourcePath": "/Users/bruce/dev/yieldprotocol/ytoken-mvp/contracts/market/LimitMarket.sol",
  "compiler": {
    "name": "solc",
    "version": "0.6.10+commit.00c0fcaf.Emscripten.clang"
  },
  "schemaVersion": "3.0.23",
  "updatedAt": "2020-07-15T08:10:48.615Z",
  "networkType": "ethereum",
  "devdoc": {
    "details": "LimitMarket is a proxy contract to Market that implements limit orders.",
    "methods": {
      "addDelegate(address)": {
        "details": "Enable a delegate to act on the behalf of caller"
      },
      "buyChai(address,address,uint128,uint128)": {
        "details": "Buy Chai for yDai",
        "params": {
          "chaiOut": "Amount of chai being bought that will be deposited in `to` wallet",
          "from": "Wallet providing the yDai being sold. Must have approved the operator with `market.addDelegate(operator)`.",
          "maxYDaiIn": "Amount of yDai being paid that will be accepted as a maximum for the trade to execute",
          "to": "Wallet receiving the chai being bought"
        }
      },
      "buyYDai(address,address,uint128,uint128)": {
        "details": "Buy yDai for chai",
        "params": {
          "from": "Wallet providing the chai being sold. Must have approved the operator with `market.addDelegate(operator)`.",
          "maxChaiIn": "Amount of chai being paid that will be accepted as a maximum for the trade to execute",
          "to": "Wallet receiving the yDai being bought",
          "yDaiOut": "Amount of yDai being bought that will be deposited in `to` wallet"
        }
      },
      "revokeDelegate(address)": {
        "details": "Stop a delegate from acting on the behalf of caller"
      },
      "sellChai(address,address,uint128,uint128)": {
        "details": "Sell Chai for yDai",
        "params": {
          "chaiIn": "Amount of chai being sold that will be taken from the user's wallet",
          "from": "Wallet providing the chai being sold. Must have approved the operator with `market.addDelegate(operator)`.",
          "minYDaiOut": "Amount of yDai being received that will be accepted as a minimum for the trade to execute",
          "to": "Wallet receiving the yDai being bought"
        }
      },
      "sellYDai(address,address,uint128,uint128)": {
        "details": "Sell yDai for Chai",
        "params": {
          "from": "Wallet providing the yDai being sold. Must have approved the operator with `market.addDelegate(operator)`.",
          "minChaiOut": "Amount of chai being received that will be accepted as a minimum for the trade to execute",
          "to": "Wallet receiving the chai being bought",
          "yDaiIn": "Amount of yDai being sold that will be taken from the user's wallet"
        }
      }
    }
  },
  "userdoc": {
    "methods": {}
  }
}