{
  "contractName": "Liquidations",
  "abi": [
    {
      "inputs": [
        {
          "internalType": "address",
          "name": "treasury_",
          "type": "address"
        },
        {
          "internalType": "address",
          "name": "controller_",
          "type": "address"
        }
      ],
      "stateMutability": "nonpayable",
      "type": "constructor"
    },
    {
      "anonymous": false,
      "inputs": [
        {
          "indexed": true,
          "internalType": "address",
          "name": "user",
          "type": "address"
        },
        {
          "indexed": true,
          "internalType": "address",
          "name": "delegate",
          "type": "address"
        },
        {
          "indexed": false,
          "internalType": "bool",
          "name": "enabled",
          "type": "bool"
        }
      ],
      "name": "Delegate",
      "type": "event"
    },
    {
      "anonymous": false,
      "inputs": [
        {
          "indexed": false,
          "internalType": "address",
          "name": "access",
          "type": "address"
        }
      ],
      "name": "GrantedAccess",
      "type": "event"
    },
    {
      "anonymous": false,
      "inputs": [
        {
          "indexed": true,
          "internalType": "address",
          "name": "user",
          "type": "address"
        },
        {
          "indexed": false,
          "internalType": "uint256",
          "name": "started",
          "type": "uint256"
        },
        {
          "indexed": false,
          "internalType": "uint256",
          "name": "collateral",
          "type": "uint256"
        },
        {
          "indexed": false,
          "internalType": "uint256",
          "name": "debt",
          "type": "uint256"
        }
      ],
      "name": "Liquidation",
      "type": "event"
    },
    {
      "anonymous": false,
      "inputs": [
        {
          "indexed": true,
          "internalType": "address",
          "name": "previousOwner",
          "type": "address"
        },
        {
          "indexed": true,
          "internalType": "address",
          "name": "newOwner",
          "type": "address"
        }
      ],
      "name": "OwnershipTransferred",
      "type": "event"
    },
    {
      "inputs": [],
      "name": "AUCTION_TIME",
      "outputs": [
        {
          "internalType": "uint256",
          "name": "",
          "type": "uint256"
        }
      ],
      "stateMutability": "view",
      "type": "function",
      "constant": true
    },
    {
      "inputs": [],
      "name": "DUST",
      "outputs": [
        {
          "internalType": "uint256",
          "name": "",
          "type": "uint256"
        }
      ],
      "stateMutability": "view",
      "type": "function",
      "constant": true
    },
    {
      "inputs": [],
      "name": "UNIT",
      "outputs": [
        {
          "internalType": "uint256",
          "name": "",
          "type": "uint256"
        }
      ],
      "stateMutability": "view",
      "type": "function",
      "constant": true
    },
    {
      "inputs": [],
      "name": "WETH",
      "outputs": [
        {
          "internalType": "bytes32",
          "name": "",
          "type": "bytes32"
        }
      ],
      "stateMutability": "view",
      "type": "function",
      "constant": true
    },
    {
      "inputs": [
        {
          "internalType": "address",
          "name": "delegate",
          "type": "address"
        }
      ],
      "name": "addDelegate",
      "outputs": [],
      "stateMutability": "nonpayable",
      "type": "function"
    },
    {
      "inputs": [
        {
          "internalType": "address",
          "name": "",
          "type": "address"
        }
      ],
      "name": "authorized",
      "outputs": [
        {
          "internalType": "bool",
          "name": "",
          "type": "bool"
        }
      ],
      "stateMutability": "view",
      "type": "function",
      "constant": true
    },
    {
      "inputs": [
        {
          "internalType": "address",
          "name": "",
          "type": "address"
        },
        {
          "internalType": "address",
          "name": "",
          "type": "address"
        }
      ],
      "name": "delegated",
      "outputs": [
        {
          "internalType": "bool",
          "name": "",
          "type": "bool"
        }
      ],
      "stateMutability": "view",
      "type": "function",
      "constant": true
    },
    {
      "inputs": [
        {
          "internalType": "address",
          "name": "",
          "type": "address"
        }
      ],
      "name": "liquidations",
      "outputs": [
        {
          "internalType": "uint256",
          "name": "",
          "type": "uint256"
        }
      ],
      "stateMutability": "view",
      "type": "function",
      "constant": true
    },
    {
      "inputs": [],
      "name": "live",
      "outputs": [
        {
          "internalType": "bool",
          "name": "",
          "type": "bool"
        }
      ],
      "stateMutability": "view",
      "type": "function",
      "constant": true
    },
    {
      "inputs": [
        {
          "internalType": "address",
          "name": "user",
          "type": "address"
        }
      ],
      "name": "orchestrate",
      "outputs": [],
      "stateMutability": "nonpayable",
      "type": "function"
    },
    {
      "inputs": [],
      "name": "owner",
      "outputs": [
        {
          "internalType": "address",
          "name": "",
          "type": "address"
        }
      ],
      "stateMutability": "view",
      "type": "function",
      "constant": true
    },
    {
      "inputs": [],
      "name": "renounceOwnership",
      "outputs": [],
      "stateMutability": "nonpayable",
      "type": "function"
    },
    {
      "inputs": [
        {
          "internalType": "address",
          "name": "delegate",
          "type": "address"
        }
      ],
      "name": "revokeDelegate",
      "outputs": [],
      "stateMutability": "nonpayable",
      "type": "function"
    },
    {
      "inputs": [],
      "name": "totals",
      "outputs": [
        {
          "internalType": "uint128",
          "name": "collateral",
          "type": "uint128"
        },
        {
          "internalType": "uint128",
          "name": "debt",
          "type": "uint128"
        }
      ],
      "stateMutability": "view",
      "type": "function",
      "constant": true
    },
    {
      "inputs": [
        {
          "internalType": "address",
          "name": "newOwner",
          "type": "address"
        }
      ],
      "name": "transferOwnership",
      "outputs": [],
      "stateMutability": "nonpayable",
      "type": "function"
    },
    {
      "inputs": [
        {
          "internalType": "address",
          "name": "",
          "type": "address"
        }
      ],
      "name": "vaults",
      "outputs": [
        {
          "internalType": "uint128",
          "name": "collateral",
          "type": "uint128"
        },
        {
          "internalType": "uint128",
          "name": "debt",
          "type": "uint128"
        }
      ],
      "stateMutability": "view",
      "type": "function",
      "constant": true
    },
    {
      "inputs": [],
      "name": "shutdown",
      "outputs": [],
      "stateMutability": "nonpayable",
      "type": "function"
    },
    {
      "inputs": [
        {
          "internalType": "address",
          "name": "user",
          "type": "address"
        }
      ],
      "name": "aboveDustOrZero",
      "outputs": [
        {
          "internalType": "bool",
          "name": "",
          "type": "bool"
        }
      ],
      "stateMutability": "view",
      "type": "function",
      "constant": true
    },
    {
      "inputs": [
        {
          "internalType": "address",
          "name": "user",
          "type": "address"
        }
      ],
      "name": "liquidate",
      "outputs": [],
      "stateMutability": "nonpayable",
      "type": "function"
    },
    {
      "inputs": [
        {
          "internalType": "address",
          "name": "from",
          "type": "address"
        },
        {
          "internalType": "address",
          "name": "to",
          "type": "address"
        },
        {
          "internalType": "address",
          "name": "liquidated",
          "type": "address"
        },
        {
          "internalType": "uint256",
          "name": "daiAmount",
          "type": "uint256"
        }
      ],
      "name": "buy",
      "outputs": [
        {
          "internalType": "uint256",
          "name": "",
          "type": "uint256"
        }
      ],
      "stateMutability": "nonpayable",
      "type": "function"
    },
    {
      "inputs": [
        {
          "internalType": "address",
          "name": "from",
          "type": "address"
        },
        {
          "internalType": "address",
          "name": "to",
          "type": "address"
        },
        {
          "internalType": "uint256",
          "name": "tokenAmount",
          "type": "uint256"
        }
      ],
      "name": "withdraw",
      "outputs": [],
      "stateMutability": "nonpayable",
      "type": "function"
    },
    {
      "inputs": [
        {
          "internalType": "address",
          "name": "user",
          "type": "address"
        }
      ],
      "name": "erase",
      "outputs": [
        {
          "internalType": "uint128",
          "name": "",
          "type": "uint128"
        },
        {
          "internalType": "uint128",
          "name": "",
          "type": "uint128"
        }
      ],
      "stateMutability": "nonpayable",
      "type": "function"
    },
    {
      "inputs": [
        {
          "internalType": "address",
          "name": "user",
          "type": "address"
        }
      ],
      "name": "price",
      "outputs": [
        {
          "internalType": "uint256",
          "name": "",
          "type": "uint256"
        }
      ],
      "stateMutability": "view",
      "type": "function",
      "constant": true
    }
  ],
  "bytecode": "0x60806040526008805460ff1916600117905534801561001d57600080fd5b50604051611c87380380611c878339818101604052604081101561004057600080fd5b508051602090910151600061005c6001600160e01b036100d716565b600080546001600160a01b0319166001600160a01b0383169081178255604051929350917f8be0079c531659141344cd1fd0a4f28419497f9722a3daafe3b4186f6b6457e0908290a350600380546001600160a01b039384166001600160a01b031991821617909155600480549290931691161790556100db565b3390565b611b9d806100ea6000396000f3fe608060405234801561001057600080fd5b506004361061014d5760003560e01c8063b9181611116100c3578063e85b00801161007c578063e85b008014610362578063e8cdcc9914610388578063f2fde38b146103c4578063f6bcbd31146103ea578063fa352c0014610418578063fc0e74d11461043e5761014d565b8063b9181611146102aa578063c038a38e146102d0578063d9caed12146102d8578063e5442a9e1461030e578063e592301a14610334578063e71bdf411461033c5761014d565b8063937d4c4211610115578063937d4c42146101e6578063957aa58c1461020c5780639d8e217714610228578063a622ee7c14610230578063ad5c46481461027c578063aea91078146102845761014d565b80632f865568146101525780634e0cd7991461017a578063715018a61461019457806380f5a4401461019c5780638da5cb5b146101c2575b600080fd5b6101786004803603602081101561016857600080fd5b50356001600160a01b0316610446565b005b6101826107d9565b60408051918252519081900360200190f35b6101786107e4565b610178600480360360208110156101b257600080fd5b50356001600160a01b0316610898565b6101ca61095e565b604080516001600160a01b039092168252519081900360200190f35b610182600480360360208110156101fc57600080fd5b50356001600160a01b031661096d565b61021461097f565b604080519115158252519081900360200190f35b610182610988565b6102566004803603602081101561024657600080fd5b50356001600160a01b0316610997565b604080516001600160801b03938416815291909216602082015281519081900390910190f35b6101826109bd565b6101826004803603602081101561029a57600080fd5b50356001600160a01b03166109c9565b610214600480360360208110156102c057600080fd5b50356001600160a01b0316610b2c565b610256610b41565b610178600480360360608110156102ee57600080fd5b506001600160a01b03813581169160208101359091169060400135610b5b565b6102146004803603602081101561032457600080fd5b50356001600160a01b0316610dc0565b610182610dfc565b6101786004803603602081101561035257600080fd5b50356001600160a01b0316610e02565b6102566004803603602081101561037857600080fd5b50356001600160a01b0316610ee7565b6101826004803603608081101561039e57600080fd5b506001600160a01b0381358116916020810135821691604082013516906060013561105b565b610178600480360360208110156103da57600080fd5b50356001600160a01b0316611465565b6102146004803603604081101561040057600080fd5b506001600160a01b038135811691602001351661156f565b6101786004803603602081101561042e57600080fd5b50356001600160a01b031661158f565b61017861166a565b60085460ff16151560011461048c5760405162461bcd60e51b8152600401808060200182810382526027815260200180611a7f6027913960400191505060405180910390fd5b60048054604080516301eb4a7d60e61b8152644554482d4160d81b938101939093526001600160a01b0384811660248501529051911691637ad29f40916044808301926020929190829003018186803b1580156104e857600080fd5b505afa1580156104fc573d6000803e3d6000fd5b505050506040513d602081101561051257600080fd5b5051156105505760405162461bcd60e51b815260040180806020018281038252602e815260200180611aa6602e913960400191505060405180910390fd5b6001600160a01b038116600090815260056020526040902054610589576001600160a01b03811660009081526005602052604090204290555b60048054604080516306a621df60e11b8152644554482d4160d81b938101939093526001600160a01b038481166024850152815160009485949290921692630d4c43be926044808201939182900301818787803b1580156105e957600080fd5b505af11580156105fd573d6000803e3d6000fd5b505050506040513d604081101561061357600080fd5b5080516020909101516040805180820190915260075492945090925090819061064d906001600160801b031661064886611742565b61179c565b6001600160801b03168152602001610680600760000160109054906101000a90046001600160801b031661064885611742565b6001600160801b039081169091528151600780546020909401518316600160801b029183166001600160801b0319909416939093179091161790556106c3611a1e565b6040805180820182526001600160a01b03861660009081526006602052919091205481906106fd906001600160801b031661064887611742565b6001600160801b0390811682526001600160a01b03871660009081526006602090815260409091205492019161073f91600160801b9091041661064886611742565b6001600160801b039081169091526001600160a01b03861660008181526006602090815260409182902085518154838801518716600160801b029187166001600160801b03199091161790951694909417909355805142815292830187905282810186905251929350917f1a1072eb98424f51d9ad56526f05cd82dc46f8965a96b7c421f18275753d248c9181900360600190a250505050565b6658d15e1762800081565b6107ec61180b565b6000546001600160a01b0390811691161461084e576040805162461bcd60e51b815260206004820181905260248201527f4f776e61626c653a2063616c6c6572206973206e6f7420746865206f776e6572604482015290519081900360640190fd5b600080546040516001600160a01b03909116907f8be0079c531659141344cd1fd0a4f28419497f9722a3daafe3b4186f6b6457e0908390a3600080546001600160a01b0319169055565b6108a061180b565b6000546001600160a01b03908116911614610902576040805162461bcd60e51b815260206004820181905260248201527f4f776e61626c653a2063616c6c6572206973206e6f7420746865206f776e6572604482015290519081900360640190fd5b6001600160a01b038116600081815260016020818152604092839020805460ff1916909217909155815192835290517f6a7c5f28ea564fafc8b079663a2a9b9d26fe735d97c97611484ce044f40a16e29281900390910190a150565b6000546001600160a01b031690565b60056020526000908152604090205481565b60085460ff1681565b676765c793fa10079d601b1b81565b6006602052600090815260409020546001600160801b0380821691600160801b90041682565b644554482d4160d81b81565b6001600160a01b038116600090815260056020526040812054610a1d5760405162461bcd60e51b8152600401808060200182810382526023815260200180611b1e6023913960400191505060405180910390fd5b6001600160a01b0382166000908152600660205260408120546001600160801b0380821692600160801b9092041690610a7782610a6b85676765c793fa10079d601b1b63ffffffff61180f16565b9063ffffffff61186816565b6001600160a01b03861660009081526005602052604081205491925090610aa390610e109042036118aa565b90506000610aba610e10600263ffffffff61180f16565b90506000610ada676765c793fa10079d601b1b600263ffffffff61186816565b90506000610afd83610a6b86676765c793fa10079d601b1b63ffffffff61180f16565b9050610b1f676765c793fa10079d601b1b610b1a878486016118c0565b6118e1565b9998505050505050505050565b60016020526000908152604090205460ff1681565b6007546001600160801b0380821691600160801b90041682565b60085460ff161515600114610ba15760405162461bcd60e51b8152600401808060200182810382526027815260200180611a7f6027913960400191505060405180910390fd5b82604051806060016040528060238152602001611a5c60239139336001600160a01b0383161480610bf557506001600160a01b038216600090815260026020908152604080832033845290915290205460ff165b8190610c7f5760405162461bcd60e51b81526004018080602001828103825283818151815260200191508051906020019080838360005b83811015610c44578181015183820152602001610c2c565b50505050905090810190601f168015610c715780820380516001836020036101000a031916815260200191505b509250505060405180910390fd5b506001600160a01b03851660009081526006602052604090208054600160801b90046001600160801b031615610ce65760405162461bcd60e51b8152600401808060200182810382526027815260200180611b416027913960400191505060405180910390fd5b600754610d04906001600160801b0316610cff86611742565b611902565b600780546001600160801b0319166001600160801b039283161790558154610d309116610cff86611742565b81546001600160801b0319166001600160801b0391909116178155600354604080516322b25b7f60e21b81526001600160a01b0388811660048301526024820188905291519190921691638ac96dfc91604480830192600092919082900301818387803b158015610da057600080fd5b505af1158015610db4573d6000803e3d6000fd5b50505050505050505050565b6001600160a01b0381166000908152600660205260408120546001600160801b0316801580610df55750806658d15e17628000105b9392505050565b610e1081565b3360009081526002602090815260408083206001600160a01b038516845290915290205460ff1615610e7b576040805162461bcd60e51b815260206004820152601c60248201527f44656c656761626c653a20416c72656164792064656c65676174656400000000604482015290519081900360640190fd5b3360008181526002602090815260408083206001600160a01b03861680855290835292819020805460ff19166001908117909155815190815290519293927f045b0fef01772d2fbba53dbd38c9777806eac0865b00af43abcfbcaf50da9206929181900390910190a350565b604080518082018252601c81527f4c69717569646174696f6e733a204e6f7420417574686f72697a656400000000602080830191909152336000908152600190915291822054829190819060ff16610f805760405162461bcd60e51b8152602060048201818152835160248401528351909283926044909101919085019080838360008315610c44578181015183820152602001610c2c565b506001600160a01b038416600090815260066020526040908190208054825180840190935260075491926001600160801b0380831693600160801b9093048116928291610fce911685611902565b6001600160801b03168152602001610ffe600760000160109054906101000a90046001600160801b031684611902565b6001600160801b039081169091528151600780546020948501518416600160801b029284166001600160801b0319909116179092161790556001600160a01b03881660009081526006909152604081205590945092505050915091565b60085460009060ff1615156001146110a45760405162461bcd60e51b8152600401808060200182810382526027815260200180611a7f6027913960400191505060405180910390fd5b84604051806060016040528060238152602001611a5c60239139336001600160a01b03831614806110f857506001600160a01b038216600090815260026020908152604080832033845290915290205460ff165b81906111455760405162461bcd60e51b8152602060048201818152835160248401528351909283926044909101919085019080838360008315610c44578181015183820152602001610c2c565b506001600160a01b038516600090815260066020526040902054600160801b90046001600160801b03166111aa5760405162461bcd60e51b8152600401808060200182810382526029815260200180611af56029913960400191505060405180910390fd5b6003546040805163f939199160e01b81526001600160a01b038a81166004830152602482018890529151919092169163f939199191604480830192600092919082900301818387803b1580156111ff57600080fd5b505af1158015611213573d6000803e3d6000fd5b50505050600061122b85611226886109c9565b611971565b60408051808201909152600754919250908190611254906001600160801b0316610cff85611742565b6001600160801b03168152602001611287600760000160109054906101000a90046001600160801b0316610cff89611742565b6001600160801b039081169091528151600780546020909401518316600160801b029183166001600160801b0319909416939093179091161790556112ca611a1e565b6040805180820182526001600160a01b0389166000908152600660205291909120548190611304906001600160801b0316610cff86611742565b6001600160801b0390811682526001600160a01b038a1660009081526006602090815260409091205492019161134691600160801b90910416610cff8a611742565b6001600160801b039081169091526001600160a01b03808a16600090815260066020908152604080832086518154938801518716600160801b029087166001600160801b0319909416939093179095169190911790935560035483516322b25b7f60e21b81528d8416600482015260248101889052935194955090911692638ac96dfc92604480820193929182900301818387803b1580156113e757600080fd5b505af11580156113fb573d6000803e3d6000fd5b5050505061140887610dc0565b611459576040805162461bcd60e51b815260206004820152601860248201527f4c69717569646174696f6e733a2042656c6f7720647573740000000000000000604482015290519081900360640190fd5b50979650505050505050565b61146d61180b565b6000546001600160a01b039081169116146114cf576040805162461bcd60e51b815260206004820181905260248201527f4f776e61626c653a2063616c6c6572206973206e6f7420746865206f776e6572604482015290519081900360640190fd5b6001600160a01b0381166115145760405162461bcd60e51b8152600401808060200182810382526026815260200180611a366026913960400191505060405180910390fd5b600080546040516001600160a01b03808516939216917f8be0079c531659141344cd1fd0a4f28419497f9722a3daafe3b4186f6b6457e091a3600080546001600160a01b0319166001600160a01b0392909216919091179055565b600260209081526000928352604080842090915290825290205460ff1681565b3360009081526002602090815260408083206001600160a01b038516845290915290205460ff16611607576040805162461bcd60e51b815260206004820152601e60248201527f44656c656761626c653a20416c726561647920756e64656c6567617465640000604482015290519081900360640190fd5b3360008181526002602090815260408083206001600160a01b038616808552908352818420805460ff19169055815193845290519093927f045b0fef01772d2fbba53dbd38c9777806eac0865b00af43abcfbcaf50da920692908290030190a350565b600360009054906101000a90046001600160a01b03166001600160a01b031663957aa58c6040518163ffffffff1660e01b815260040160206040518083038186803b1580156116b857600080fd5b505afa1580156116cc573d6000803e3d6000fd5b505050506040513d60208110156116e257600080fd5b505115611736576040805162461bcd60e51b815260206004820152601e60248201527f4c69717569646174696f6e733a205472656173757279206973206c6976650000604482015290519081900360640190fd5b6008805460ff19169055565b60006001600160801b03821115611798576040805162461bcd60e51b81526020600482015260156024820152744d61726b65743a2043617374206f766572666c6f7760581b604482015290519081900360640190fd5b5090565b60008282016001600160801b038085169082161015611802576040805162461bcd60e51b815260206004820152601d60248201527f4d61726b65743a2044616920726573657276657320746f6f2068696768000000604482015290519081900360640190fd5b90505b92915050565b3390565b60008261181e57506000611805565b8282028284828161182b57fe5b04146118025760405162461bcd60e51b8152600401808060200182810382526021815260200180611ad46021913960400191505060405180910390fd5b600061180283836040518060400160405280601a81526020017f536166654d6174683a206469766973696f6e206279207a65726f0000000000008152506119b9565b60008183106118b95781611802565b5090919050565b6000611802676765c793fa10079d601b1b610a6b858563ffffffff61180f16565b600061180282610a6b85676765c793fa10079d601b1b63ffffffff61180f16565b6000826001600160801b0316826001600160801b0316111561196b576040805162461bcd60e51b815260206004820152601d60248201527f4d61726b65743a207944616920726573657276657320746f6f206c6f77000000604482015290519081900360640190fd5b50900390565b60008061199483610a6b866b204fce5e3e2502611000000063ffffffff61180f16565b9050600a8106156119ae57600a8104600101915050611805565b600a90049050611805565b60008183611a085760405162461bcd60e51b8152602060048201818152835160248401528351909283926044909101919085019080838360008315610c44578181015183820152602001610c2c565b506000838581611a1457fe5b0495945050505050565b60408051808201909152600080825260208201529056fe4f776e61626c653a206e6577206f776e657220697320746865207a65726f2061646472657373436f6e74726f6c6c65723a204f6e6c7920486f6c646572204f722044656c6567617465436f6e74726f6c6c65723a204e6f7420617661696c61626c6520647572696e6720756e77696e644c69717569646174696f6e733a205661756c74206973206e6f7420756e646572636f6c6c61746572616c697a6564536166654d6174683a206d756c7469706c69636174696f6e206f766572666c6f774c69717569646174696f6e733a205661756c74206973206e6f7420696e206c69717569646174696f6e4c69717569646174696f6e733a205661756c74206973206e6f742074617267657465644c69717569646174696f6e733a2055736572207374696c6c20696e206c69717569646174696f6ea2646970667358221220a112e7e679c730be9bbe9de0e91e0dadff20fd530d01eea45fa40b71c996692964736f6c634300060a0033",
  "immutableReferences": {},
  "source": "// SPDX-License-Identifier: GPL-3.0-or-later\r\npragma solidity ^0.6.10;\r\n\r\nimport \"@openzeppelin/contracts/token/ERC20/IERC20.sol\";\r\nimport \"@openzeppelin/contracts/math/Math.sol\";\r\nimport \"./interfaces/IController.sol\";\r\nimport \"./interfaces/ILiquidations.sol\";\r\nimport \"./interfaces/ITreasury.sol\";\r\nimport \"./helpers/DecimalMath.sol\";\r\nimport \"./helpers/Delegable.sol\";\r\nimport \"./helpers/Orchestrated.sol\";\r\n\r\n\r\n/**\r\n * @dev The Liquidations contract allows to liquidate undercollateralized weth vaults in a reverse Dutch auction.\r\n * Undercollateralized vaults can be liquidated by calling `liquidate`.\r\n * Collateral from vaults can be bought with Dai using `buy`.\r\n * Debt and collateral records will be adjusted in the Controller using `controller.grab`.\r\n * Dai taken in payment will be handed over to Treasury, and collateral assets bought will be taken from Treasury as well.\r\n * If a vault becomes colalteralized, the liquidation can be stopped with `cancel`.\r\n */\r\ncontract Liquidations is ILiquidations, Orchestrated(), Delegable(), DecimalMath {\r\n\r\n    event Liquidation(address indexed user, uint256 started, uint256 collateral, uint256 debt);\r\n\r\n    bytes32 public constant WETH = \"ETH-A\";\r\n    uint256 public constant AUCTION_TIME = 3600;\r\n    uint256 public constant DUST = 25e15; // 0.025 ETH\r\n\r\n    ITreasury internal _treasury;\r\n    IController internal _controller;\r\n\r\n    struct Vault {\r\n        uint128 collateral;\r\n        uint128 debt;\r\n    }\r\n\r\n    mapping(address => uint256) public liquidations;\r\n    mapping(address => Vault) public vaults;\r\n    Vault public override totals;\r\n\r\n    bool public live = true;\r\n\r\n    /// @dev The Liquidations constructor links it to the Dai, Treasury and Controller contracts.\r\n    constructor (\r\n        address treasury_,\r\n        address controller_\r\n    ) public {\r\n        _treasury = ITreasury(treasury_);\r\n        _controller = IController(controller_);\r\n    }\r\n\r\n    /// @dev Only while Liquidations is not unwinding due to a MakerDAO shutdown.\r\n    modifier onlyLive() {\r\n        require(live == true, \"Controller: Not available during unwind\");\r\n        _;\r\n    }\r\n\r\n    /// @dev Overflow-protected addition, from OpenZeppelin\r\n    function add(uint128 a, uint128 b)\r\n        internal pure returns (uint128)\r\n    {\r\n        uint128 c = a + b;\r\n        require(c >= a, \"Market: Dai reserves too high\");\r\n\r\n        return c;\r\n    }\r\n\r\n    /// @dev Overflow-protected substraction, from OpenZeppelin\r\n    function sub(uint128 a, uint128 b) internal pure returns (uint128) {\r\n        require(b <= a, \"Market: yDai reserves too low\");\r\n        uint128 c = a - b;\r\n\r\n        return c;\r\n    }\r\n\r\n    /// @dev Safe casting from uint256 to uint128\r\n    function toUint128(uint256 x) internal pure returns(uint128) {\r\n        require(\r\n            x <= type(uint128).max,\r\n            \"Market: Cast overflow\"\r\n        );\r\n        return uint128(x);\r\n    }\r\n\r\n    /// @dev Disables buying at liquidations. To be called only when Treasury shuts down.\r\n    function shutdown() public override {\r\n        require(\r\n            _treasury.live() == false,\r\n            \"Liquidations: Treasury is live\"\r\n        );\r\n        live = false;\r\n    }\r\n\r\n\r\n    /// @dev Return if the debt of an user is between zero and the dust level\r\n    /// @param user Address of the user vault\r\n    function aboveDustOrZero(address user) public view returns (bool) {\r\n        uint256 collateral = vaults[user].collateral;\r\n        return collateral == 0 || DUST < collateral;\r\n    }\r\n\r\n    /// @dev Starts a liquidation process for an undercollateralized vault.\r\n    /// @param user Address of the user vault to liquidate.\r\n    function liquidate(address user)\r\n        public onlyLive\r\n    {\r\n        require(\r\n            !_controller.isCollateralized(WETH, user),\r\n            \"Liquidations: Vault is not undercollateralized\"\r\n        );\r\n        // A user in liquidation can be liquidated again, but doesn't restart the auction clock\r\n        // solium-disable-next-line security/no-block-members\r\n        if (liquidations[user] == 0) liquidations[user] = now;\r\n\r\n        (uint256 userCollateral, uint256 userDebt) = _controller.erase(WETH, user);\r\n        totals = Vault({\r\n            collateral: add(totals.collateral, toUint128(userCollateral)),\r\n            debt: add(totals.debt, toUint128(userDebt))\r\n        });\r\n\r\n        Vault memory vault = Vault({ // TODO: Test a user that is liquidated twice\r\n            collateral: add(vaults[user].collateral, toUint128(userCollateral)),\r\n            debt: add(vaults[user].debt, toUint128(userDebt))\r\n        });\r\n        vaults[user] = vault;\r\n\r\n        emit Liquidation(user, now, userCollateral, userDebt);\r\n    }\r\n\r\n    /// @dev Buy a portion of a position under liquidation.\r\n    /// The caller pays the debt of `user`, and `from` receives an amount of collateral.\r\n    /// `from` can delegate to other addresses to buy for him. Also needs to use `ERC20.approve`.\r\n    /// @param liquidated Address of the user vault to liquidate.\r\n    /// @param from Address of the wallet paying Dai for liquidated collateral.\r\n    /// @param to Address of the wallet to send the obtained collateral to.\r\n    /// @param daiAmount Amount of Dai to give in exchange for liquidated collateral.\r\n    /// @return The amount of collateral obtained.\r\n    function buy(address from, address to, address liquidated, uint256 daiAmount)\r\n        public onlyLive\r\n        onlyHolderOrDelegate(from, \"Controller: Only Holder Or Delegate\")\r\n        returns (uint256)\r\n    {\r\n        require(\r\n            vaults[liquidated].debt > 0,\r\n            \"Liquidations: Vault is not in liquidation\"\r\n        );\r\n        _treasury.pushDai(from, daiAmount);\r\n\r\n        // calculate collateral to grab. Using divdrup stops rounding from leaving 1 stray wei in vaults.\r\n        uint256 tokenAmount = divdrup(daiAmount, price(liquidated));\r\n\r\n        totals = Vault({\r\n            collateral: sub(totals.collateral, toUint128(tokenAmount)),\r\n            debt: sub(totals.debt, toUint128(daiAmount))\r\n        });\r\n\r\n        Vault memory vault = Vault({\r\n            collateral: sub(vaults[liquidated].collateral, toUint128(tokenAmount)),\r\n            debt: sub(vaults[liquidated].debt, toUint128(daiAmount))\r\n        });\r\n        vaults[liquidated] = vault;\r\n\r\n        _treasury.pullWeth(to, tokenAmount);\r\n\r\n        require(\r\n            aboveDustOrZero(liquidated),\r\n            \"Liquidations: Below dust\"\r\n        );\r\n\r\n        return tokenAmount;\r\n    }\r\n\r\n    /// @dev Retrieve weth from a liquidations account. This weth could be a remainder from liquidations.\r\n    /// `from` can delegate to other addresses to withdraw from him.\r\n    /// @param from Address of the liquidations user vault to withdraw weth from.\r\n    /// @param to Address of the wallet receiving the withdrawn weth.\r\n    /// @param tokenAmount Amount of Weth to withdraw.\r\n    function withdraw(address from, address to, uint256 tokenAmount)\r\n        public onlyLive\r\n        onlyHolderOrDelegate(from, \"Controller: Only Holder Or Delegate\")\r\n    {\r\n        Vault storage vault = vaults[from];\r\n        require(\r\n            vault.debt == 0,\r\n            \"Liquidations: User still in liquidation\"\r\n        );\r\n\r\n        totals.collateral = sub(totals.collateral, toUint128(tokenAmount));\r\n        vault.collateral = sub(vault.collateral, toUint128(tokenAmount));\r\n\r\n        _treasury.pullWeth(to, tokenAmount);\r\n    }\r\n\r\n    /// @dev Removes all collateral and debt for an user.\r\n    /// This function can only be called by other Yield contracts, not users directly.\r\n    /// @param user Address of the user vault\r\n    /// @return The amounts of collateral and debt removed from Liquidations.\r\n    function erase(address user)\r\n        public override\r\n        onlyOrchestrated(\"Liquidations: Not Authorized\")\r\n        returns (uint128, uint128)\r\n    {\r\n        Vault storage vault = vaults[user];\r\n        uint128 collateral = vault.collateral;\r\n        uint128 debt = vault.debt;\r\n\r\n        totals = Vault({\r\n            collateral: sub(totals.collateral, collateral),\r\n            debt: sub(totals.debt, debt)\r\n        });\r\n        delete vaults[user];\r\n\r\n        return (collateral, debt);\r\n    }\r\n\r\n    /// @dev Return price of a collateral unit, in dai, at the present moment, for a given user\r\n    /// @param user Address of the user vault in liquidation.\r\n    // dai = price * collateral\r\n    //\r\n    //                collateral      1      min(auction, elapsed)\r\n    // price = 1 / (------------- * (--- + -----------------------))\r\n    //                   debt         2       2 * auction\r\n    function price(address user) public view returns (uint256) {\r\n        require(\r\n            liquidations[user] > 0,\r\n            \"Liquidations: Vault is not targeted\"\r\n        );\r\n        uint256 dividend1 = uint256(vaults[user].collateral);\r\n        uint256 divisor1 = uint256(vaults[user].debt);\r\n        uint256 term1 = dividend1.mul(UNIT).div(divisor1);\r\n        uint256 dividend3 = Math.min(AUCTION_TIME, now - liquidations[user]); // - unlikely to overflow\r\n        uint256 divisor3 = AUCTION_TIME.mul(2);\r\n        uint256 term2 = UNIT.div(2);\r\n        uint256 term3 = dividend3.mul(UNIT).div(divisor3);\r\n        return divd(UNIT, muld(term1, term2 + term3)); // + unlikely to overflow\r\n    }\r\n}\r\n",
  "sourcePath": "C:/Users/bruce/dev/yield/yDai/contracts/Liquidations.sol",
  "compiler": {
    "name": "solc",
    "version": "0.6.10+commit.00c0fcaf.Emscripten.clang"
  },
  "schemaVersion": "3.2.3",
  "updatedAt": "2020-08-19T15:24:33.349Z",
  "networkType": "ethereum",
  "devdoc": {
    "details": "The Liquidations contract allows to liquidate undercollateralized weth vaults in a reverse Dutch auction. Undercollateralized vaults can be liquidated by calling `liquidate`. Collateral from vaults can be bought with Dai using `buy`. Debt and collateral records will be adjusted in the Controller using `controller.grab`. Dai taken in payment will be handed over to Treasury, and collateral assets bought will be taken from Treasury as well. If a vault becomes colalteralized, the liquidation can be stopped with `cancel`.",
    "methods": {
      "aboveDustOrZero(address)": {
        "details": "Return if the debt of an user is between zero and the dust level",
        "params": {
          "user": "Address of the user vault"
        }
      },
      "addDelegate(address)": {
        "details": "Enable a delegate to act on the behalf of caller"
      },
      "buy(address,address,address,uint256)": {
        "details": "Buy a portion of a position under liquidation. The caller pays the debt of `user`, and `from` receives an amount of collateral. `from` can delegate to other addresses to buy for him. Also needs to use `ERC20.approve`.",
        "params": {
          "daiAmount": "Amount of Dai to give in exchange for liquidated collateral.",
          "from": "Address of the wallet paying Dai for liquidated collateral.",
          "liquidated": "Address of the user vault to liquidate.",
          "to": "Address of the wallet to send the obtained collateral to."
        },
        "returns": {
          "_0": "The amount of collateral obtained."
        }
      },
      "constructor": {
        "details": "The Liquidations constructor links it to the Dai, Treasury and Controller contracts."
      },
      "erase(address)": {
        "details": "Removes all collateral and debt for an user. This function can only be called by other Yield contracts, not users directly.",
        "params": {
          "user": "Address of the user vault"
        },
        "returns": {
          "_0": "The amounts of collateral and debt removed from Liquidations."
        }
      },
      "liquidate(address)": {
        "details": "Starts a liquidation process for an undercollateralized vault.",
        "params": {
          "user": "Address of the user vault to liquidate."
        }
      },
      "orchestrate(address)": {
        "details": "Add user to the authorized users list"
      },
      "owner()": {
        "details": "Returns the address of the current owner."
      },
      "price(address)": {
        "details": "Return price of a collateral unit, in dai, at the present moment, for a given user",
        "params": {
          "user": "Address of the user vault in liquidation."
        }
      },
      "renounceOwnership()": {
        "details": "Leaves the contract without owner. It will not be possible to call `onlyOwner` functions anymore. Can only be called by the current owner. NOTE: Renouncing ownership will leave the contract without an owner, thereby removing any functionality that is only available to the owner."
      },
      "revokeDelegate(address)": {
        "details": "Stop a delegate from acting on the behalf of caller"
      },
      "shutdown()": {
        "details": "Disables buying at liquidations. To be called only when Treasury shuts down."
      },
      "transferOwnership(address)": {
        "details": "Transfers ownership of the contract to a new account (`newOwner`). Can only be called by the current owner."
      },
      "withdraw(address,address,uint256)": {
        "details": "Retrieve weth from a liquidations account. This weth could be a remainder from liquidations. `from` can delegate to other addresses to withdraw from him.",
        "params": {
          "from": "Address of the liquidations user vault to withdraw weth from.",
          "to": "Address of the wallet receiving the withdrawn weth.",
          "tokenAmount": "Amount of Weth to withdraw."
        }
      }
    }
  },
  "userdoc": {
    "methods": {}
  }
}