{
  "contractName": "Liquidations",
  "abi": [
    {
      "inputs": [
        {
          "internalType": "address",
          "name": "dai_",
          "type": "address"
        },
        {
          "internalType": "address",
          "name": "treasury_",
          "type": "address"
        },
        {
          "internalType": "address",
          "name": "dealer_",
          "type": "address"
        },
        {
          "internalType": "uint256",
          "name": "auctionTime_",
          "type": "uint256"
        }
      ],
      "stateMutability": "nonpayable",
      "type": "constructor"
    },
    {
      "anonymous": false,
      "inputs": [
        {
          "indexed": false,
          "internalType": "address",
          "name": "access",
          "type": "address"
        }
      ],
      "name": "GrantedAccess",
      "type": "event"
    },
    {
      "anonymous": false,
      "inputs": [
        {
          "indexed": true,
          "internalType": "bytes32",
          "name": "collateral",
          "type": "bytes32"
        },
        {
          "indexed": true,
          "internalType": "address",
          "name": "user",
          "type": "address"
        },
        {
          "indexed": false,
          "internalType": "uint256",
          "name": "started",
          "type": "uint256"
        }
      ],
      "name": "Liquidation",
      "type": "event"
    },
    {
      "anonymous": false,
      "inputs": [
        {
          "indexed": true,
          "internalType": "address",
          "name": "previousOwner",
          "type": "address"
        },
        {
          "indexed": true,
          "internalType": "address",
          "name": "newOwner",
          "type": "address"
        }
      ],
      "name": "OwnershipTransferred",
      "type": "event"
    },
    {
      "inputs": [],
      "name": "CHAI",
      "outputs": [
        {
          "internalType": "bytes32",
          "name": "",
          "type": "bytes32"
        }
      ],
      "stateMutability": "view",
      "type": "function",
      "constant": true
    },
    {
      "inputs": [],
      "name": "RAD",
      "outputs": [
        {
          "internalType": "uint8",
          "name": "",
          "type": "uint8"
        }
      ],
      "stateMutability": "view",
      "type": "function",
      "constant": true
    },
    {
      "inputs": [],
      "name": "RAY",
      "outputs": [
        {
          "internalType": "uint8",
          "name": "",
          "type": "uint8"
        }
      ],
      "stateMutability": "view",
      "type": "function",
      "constant": true
    },
    {
      "inputs": [],
      "name": "UNIT",
      "outputs": [
        {
          "internalType": "uint256",
          "name": "",
          "type": "uint256"
        }
      ],
      "stateMutability": "view",
      "type": "function",
      "constant": true
    },
    {
      "inputs": [],
      "name": "WAD",
      "outputs": [
        {
          "internalType": "uint8",
          "name": "",
          "type": "uint8"
        }
      ],
      "stateMutability": "view",
      "type": "function",
      "constant": true
    },
    {
      "inputs": [],
      "name": "WETH",
      "outputs": [
        {
          "internalType": "bytes32",
          "name": "",
          "type": "bytes32"
        }
      ],
      "stateMutability": "view",
      "type": "function",
      "constant": true
    },
    {
      "inputs": [],
      "name": "auctionTime",
      "outputs": [
        {
          "internalType": "uint256",
          "name": "",
          "type": "uint256"
        }
      ],
      "stateMutability": "view",
      "type": "function",
      "constant": true
    },
    {
      "inputs": [
        {
          "internalType": "bytes32",
          "name": "",
          "type": "bytes32"
        },
        {
          "internalType": "address",
          "name": "",
          "type": "address"
        }
      ],
      "name": "liquidations",
      "outputs": [
        {
          "internalType": "uint256",
          "name": "",
          "type": "uint256"
        }
      ],
      "stateMutability": "view",
      "type": "function",
      "constant": true
    },
    {
      "inputs": [],
      "name": "live",
      "outputs": [
        {
          "internalType": "bool",
          "name": "",
          "type": "bool"
        }
      ],
      "stateMutability": "view",
      "type": "function",
      "constant": true
    },
    {
      "inputs": [
        {
          "internalType": "address",
          "name": "user",
          "type": "address"
        }
      ],
      "name": "orchestrate",
      "outputs": [],
      "stateMutability": "nonpayable",
      "type": "function"
    },
    {
      "inputs": [],
      "name": "owner",
      "outputs": [
        {
          "internalType": "address",
          "name": "",
          "type": "address"
        }
      ],
      "stateMutability": "view",
      "type": "function",
      "constant": true
    },
    {
      "inputs": [],
      "name": "renounceOwnership",
      "outputs": [],
      "stateMutability": "nonpayable",
      "type": "function"
    },
    {
      "inputs": [
        {
          "internalType": "address",
          "name": "newOwner",
          "type": "address"
        }
      ],
      "name": "transferOwnership",
      "outputs": [],
      "stateMutability": "nonpayable",
      "type": "function"
    },
    {
      "inputs": [],
      "name": "shutdown",
      "outputs": [],
      "stateMutability": "nonpayable",
      "type": "function"
    },
    {
      "inputs": [
        {
          "internalType": "bytes32",
          "name": "collateral",
          "type": "bytes32"
        },
        {
          "internalType": "address",
          "name": "user",
          "type": "address"
        }
      ],
      "name": "liquidate",
      "outputs": [],
      "stateMutability": "nonpayable",
      "type": "function"
    },
    {
      "inputs": [
        {
          "internalType": "bytes32",
          "name": "collateral",
          "type": "bytes32"
        },
        {
          "internalType": "address",
          "name": "user",
          "type": "address"
        }
      ],
      "name": "cancel",
      "outputs": [],
      "stateMutability": "nonpayable",
      "type": "function"
    },
    {
      "inputs": [
        {
          "internalType": "bytes32",
          "name": "collateral",
          "type": "bytes32"
        },
        {
          "internalType": "address",
          "name": "from",
          "type": "address"
        },
        {
          "internalType": "address",
          "name": "buyer",
          "type": "address"
        },
        {
          "internalType": "uint256",
          "name": "daiAmount",
          "type": "uint256"
        }
      ],
      "name": "buy",
      "outputs": [],
      "stateMutability": "nonpayable",
      "type": "function"
    },
    {
      "inputs": [
        {
          "internalType": "bytes32",
          "name": "collateral",
          "type": "bytes32"
        },
        {
          "internalType": "address",
          "name": "user",
          "type": "address"
        }
      ],
      "name": "price",
      "outputs": [
        {
          "internalType": "uint256",
          "name": "",
          "type": "uint256"
        }
      ],
      "stateMutability": "nonpayable",
      "type": "function"
    }
  ],
  "bytecode": "0x60806040526001600760006101000a81548160ff02191690831515021790555034801561002b57600080fd5b50604051620022d7380380620022d78339818101604052608081101561005057600080fd5b8101908080519060200190929190805190602001909291908051906020019092919080519060200190929190505050600061008f61025a60201b60201c565b9050806000806101000a81548173ffffffffffffffffffffffffffffffffffffffff021916908373ffffffffffffffffffffffffffffffffffffffff1602179055508073ffffffffffffffffffffffffffffffffffffffff16600073ffffffffffffffffffffffffffffffffffffffff167f8be0079c531659141344cd1fd0a4f28419497f9722a3daafe3b4186f6b6457e060405160405180910390a35083600260006101000a81548173ffffffffffffffffffffffffffffffffffffffff021916908373ffffffffffffffffffffffffffffffffffffffff16021790555082600360006101000a81548173ffffffffffffffffffffffffffffffffffffffff021916908373ffffffffffffffffffffffffffffffffffffffff16021790555081600460006101000a81548173ffffffffffffffffffffffffffffffffffffffff021916908373ffffffffffffffffffffffffffffffffffffffff1602179055506000811161024a576040517f08c379a0000000000000000000000000000000000000000000000000000000008152600401808060200182810382526022815260200180620022b56022913960400191505060405180910390fd5b8060058190555050505050610262565b600033905090565b61204380620002726000396000f3fe608060405234801561001057600080fd5b50600436106101165760003560e01c80638da5cb5b116100a2578063ad5c464811610071578063ad5c4648146103f3578063b6dbf9ce14610411578063e3079c1b1461042f578063f2fde38b14610491578063fc0e74d1146104d557610116565b80638da5cb5b14610307578063957aa58c146103515780639d8e217714610373578063a8a5c4bb1461039157610116565b8063552033c4116100e9578063552033c4146102235780636a14602414610247578063715018a61461026b578063771b51d21461027557806380f5a440146102c357610116565b806306f405fd1461011b578063155f586d1461013f57806322cae9a21461015d578063412a2dfe146101ab575b600080fd5b6101236104df565b604051808260ff1660ff16815260200191505060405180910390f35b6101476104e4565b6040518082815260200191505060405180910390f35b6101a96004803603604081101561017357600080fd5b8101908080359060200190929190803573ffffffffffffffffffffffffffffffffffffffff1690602001909291905050506104ea565b005b610221600480360360808110156101c157600080fd5b8101908080359060200190929190803573ffffffffffffffffffffffffffffffffffffffff169060200190929190803573ffffffffffffffffffffffffffffffffffffffff1690602001909291908035906020019092919050505061071a565b005b61022b610d97565b604051808260ff1660ff16815260200191505060405180910390f35b61024f610d9c565b604051808260ff1660ff16815260200191505060405180910390f35b610273610da1565b005b6102c16004803603604081101561028b57600080fd5b8101908080359060200190929190803573ffffffffffffffffffffffffffffffffffffffff169060200190929190505050610f29565b005b610305600480360360208110156102d957600080fd5b81019080803573ffffffffffffffffffffffffffffffffffffffff169060200190929190505050611204565b005b61030f61138a565b604051808273ffffffffffffffffffffffffffffffffffffffff1673ffffffffffffffffffffffffffffffffffffffff16815260200191505060405180910390f35b6103596113b3565b604051808215151515815260200191505060405180910390f35b61037b6113c6565b6040518082815260200191505060405180910390f35b6103dd600480360360408110156103a757600080fd5b8101908080359060200190929190803573ffffffffffffffffffffffffffffffffffffffff1690602001909291905050506113d6565b6040518082815260200191505060405180910390f35b6103fb6113fb565b6040518082815260200191505060405180910390f35b61041961141f565b6040518082815260200191505060405180910390f35b61047b6004803603604081101561044557600080fd5b8101908080359060200190929190803573ffffffffffffffffffffffffffffffffffffffff169060200190929190505050611443565b6040518082815260200191505060405180910390f35b6104d3600480360360208110156104a757600080fd5b81019080803573ffffffffffffffffffffffffffffffffffffffff169060200190929190505050611863565b005b6104dd611a70565b005b602d81565b60055481565b600460009054906101000a900473ffffffffffffffffffffffffffffffffffffffff1673ffffffffffffffffffffffffffffffffffffffff16637ad29f4083836040518363ffffffff1660e01b8152600401808381526020018273ffffffffffffffffffffffffffffffffffffffff1673ffffffffffffffffffffffffffffffffffffffff16815260200192505050602060405180830381600087803b15801561059357600080fd5b505af11580156105a7573d6000803e3d6000fd5b505050506040513d60208110156105bd57600080fd5b8101908080519060200190929190505050610623576040517f08c379a000000000000000000000000000000000000000000000000000000000815260040180806020018281038252602a815260200180611ed3602a913960400191505060405180910390fd5b6006600083815260200190815260200160002060008273ffffffffffffffffffffffffffffffffffffffff1673ffffffffffffffffffffffffffffffffffffffff168152602001908152602001600020600090558073ffffffffffffffffffffffffffffffffffffffff16827f052b2d4621e67ef415db368319a25871169a70b45464140085da0f98287b7c106006600086815260200190815260200160002060008573ffffffffffffffffffffffffffffffffffffffff1673ffffffffffffffffffffffffffffffffffffffff168152602001908152602001600020546040518082815260200191505060405180910390a35050565b60011515600760009054906101000a900460ff16151514610786576040517f08c379a0000000000000000000000000000000000000000000000000000000008152600401808060200182810382526023815260200180611f236023913960400191505060405180910390fd5b60006006600086815260200190815260200160002060008573ffffffffffffffffffffffffffffffffffffffff1673ffffffffffffffffffffffffffffffffffffffff168152602001908152602001600020541161082f576040517f08c379a0000000000000000000000000000000000000000000000000000000008152600401808060200182810382526029815260200180611fc26029913960400191505060405180910390fd5b600260009054906101000a900473ffffffffffffffffffffffffffffffffffffffff1673ffffffffffffffffffffffffffffffffffffffff166323b872dd83600360009054906101000a900473ffffffffffffffffffffffffffffffffffffffff16846040518463ffffffff1660e01b8152600401808473ffffffffffffffffffffffffffffffffffffffff1673ffffffffffffffffffffffffffffffffffffffff1681526020018373ffffffffffffffffffffffffffffffffffffffff1673ffffffffffffffffffffffffffffffffffffffff1681526020018281526020019350505050602060405180830381600087803b15801561092e57600080fd5b505af1158015610942573d6000803e3d6000fd5b505050506040513d602081101561095857600080fd5b81019080805190602001909291905050506109db576040517f08c379a00000000000000000000000000000000000000000000000000000000081526004018080602001828103825260198152602001807f4465616c65723a20446169207472616e73666572206661696c0000000000000081525060200191505060405180910390fd5b600360009054906101000a900473ffffffffffffffffffffffffffffffffffffffff1673ffffffffffffffffffffffffffffffffffffffff1663adb987e36040518163ffffffff1660e01b8152600401600060405180830381600087803b158015610a4557600080fd5b505af1158015610a59573d6000803e3d6000fd5b505050506000610a7282610a6d8787611443565b611ba9565b9050600460009054906101000a900473ffffffffffffffffffffffffffffffffffffffff1673ffffffffffffffffffffffffffffffffffffffff1663f51a391a868685856040518563ffffffff1660e01b8152600401808581526020018473ffffffffffffffffffffffffffffffffffffffff1673ffffffffffffffffffffffffffffffffffffffff168152602001838152602001828152602001945050505050600060405180830381600087803b158015610b2d57600080fd5b505af1158015610b41573d6000803e3d6000fd5b505050507f5745544800000000000000000000000000000000000000000000000000000000851415610c3357600360009054906101000a900473ffffffffffffffffffffffffffffffffffffffff1673ffffffffffffffffffffffffffffffffffffffff16638ac96dfc84836040518363ffffffff1660e01b8152600401808373ffffffffffffffffffffffffffffffffffffffff1673ffffffffffffffffffffffffffffffffffffffff16815260200182815260200192505050600060405180830381600087803b158015610c1657600080fd5b505af1158015610c2a573d6000803e3d6000fd5b50505050610d90565b7f4348414900000000000000000000000000000000000000000000000000000000851415610d2157600360009054906101000a900473ffffffffffffffffffffffffffffffffffffffff1673ffffffffffffffffffffffffffffffffffffffff16639fa8368984836040518363ffffffff1660e01b8152600401808373ffffffffffffffffffffffffffffffffffffffff1673ffffffffffffffffffffffffffffffffffffffff16815260200182815260200192505050600060405180830381600087803b158015610d0457600080fd5b505af1158015610d18573d6000803e3d6000fd5b50505050610d8f565b6040517f08c379a000000000000000000000000000000000000000000000000000000000815260040180806020018281038252601e8152602001807f4465616c65723a20556e737570706f7274656420636f6c6c61746572616c000081525060200191505060405180910390fd5b5b5050505050565b601b81565b601281565b610da9611c1d565b73ffffffffffffffffffffffffffffffffffffffff166000809054906101000a900473ffffffffffffffffffffffffffffffffffffffff1673ffffffffffffffffffffffffffffffffffffffff1614610e6a576040517f08c379a00000000000000000000000000000000000000000000000000000000081526004018080602001828103825260208152602001807f4f776e61626c653a2063616c6c6572206973206e6f7420746865206f776e657281525060200191505060405180910390fd5b600073ffffffffffffffffffffffffffffffffffffffff166000809054906101000a900473ffffffffffffffffffffffffffffffffffffffff1673ffffffffffffffffffffffffffffffffffffffff167f8be0079c531659141344cd1fd0a4f28419497f9722a3daafe3b4186f6b6457e060405160405180910390a360008060006101000a81548173ffffffffffffffffffffffffffffffffffffffff021916908373ffffffffffffffffffffffffffffffffffffffff160217905550565b60006006600084815260200190815260200160002060008373ffffffffffffffffffffffffffffffffffffffff1673ffffffffffffffffffffffffffffffffffffffff1681526020019081526020016000205414610fd2576040517f08c379a000000000000000000000000000000000000000000000000000000000815260040180806020018281038252602d815260200180611f74602d913960400191505060405180910390fd5b600460009054906101000a900473ffffffffffffffffffffffffffffffffffffffff1673ffffffffffffffffffffffffffffffffffffffff16637ad29f4083836040518363ffffffff1660e01b8152600401808381526020018273ffffffffffffffffffffffffffffffffffffffff1673ffffffffffffffffffffffffffffffffffffffff16815260200192505050602060405180830381600087803b15801561107b57600080fd5b505af115801561108f573d6000803e3d6000fd5b505050506040513d60208110156110a557600080fd5b81019080805190602001909291905050501561110c576040517f08c379a000000000000000000000000000000000000000000000000000000000815260040180806020018281038252602e815260200180611f46602e913960400191505060405180910390fd5b426006600084815260200190815260200160002060008373ffffffffffffffffffffffffffffffffffffffff1673ffffffffffffffffffffffffffffffffffffffff168152602001908152602001600020819055508073ffffffffffffffffffffffffffffffffffffffff16827f052b2d4621e67ef415db368319a25871169a70b45464140085da0f98287b7c106006600086815260200190815260200160002060008573ffffffffffffffffffffffffffffffffffffffff1673ffffffffffffffffffffffffffffffffffffffff168152602001908152602001600020546040518082815260200191505060405180910390a35050565b61120c611c1d565b73ffffffffffffffffffffffffffffffffffffffff166000809054906101000a900473ffffffffffffffffffffffffffffffffffffffff1673ffffffffffffffffffffffffffffffffffffffff16146112cd576040517f08c379a00000000000000000000000000000000000000000000000000000000081526004018080602001828103825260208152602001807f4f776e61626c653a2063616c6c6572206973206e6f7420746865206f776e657281525060200191505060405180910390fd5b60018060008373ffffffffffffffffffffffffffffffffffffffff1673ffffffffffffffffffffffffffffffffffffffff16815260200190815260200160002060006101000a81548160ff0219169083151502179055507f6a7c5f28ea564fafc8b079663a2a9b9d26fe735d97c97611484ce044f40a16e281604051808273ffffffffffffffffffffffffffffffffffffffff1673ffffffffffffffffffffffffffffffffffffffff16815260200191505060405180910390a150565b60008060009054906101000a900473ffffffffffffffffffffffffffffffffffffffff16905090565b600760009054906101000a900460ff1681565b6b033b2e3c9fd0803ce800000081565b6006602052816000526040600020602052806000526040600020600091509150505481565b7f574554480000000000000000000000000000000000000000000000000000000081565b7f434841490000000000000000000000000000000000000000000000000000000081565b6000806006600085815260200190815260200160002060008473ffffffffffffffffffffffffffffffffffffffff1673ffffffffffffffffffffffffffffffffffffffff16815260200190815260200160002054116114ed576040517f08c379a0000000000000000000000000000000000000000000000000000000008152600401808060200182810382526023815260200180611feb6023913960400191505060405180910390fd5b60006115ef600460009054906101000a900473ffffffffffffffffffffffffffffffffffffffff1673ffffffffffffffffffffffffffffffffffffffff1663dd62f42386866040518363ffffffff1660e01b8152600401808381526020018273ffffffffffffffffffffffffffffffffffffffff1673ffffffffffffffffffffffffffffffffffffffff1681526020019250505060206040518083038186803b15801561159957600080fd5b505afa1580156115ad573d6000803e3d6000fd5b505050506040513d60208110156115c357600080fd5b81019080805190602001909291905050506b033b2e3c9fd0803ce8000000611c2590919063ffffffff16565b905060006116f5600460009054906101000a900473ffffffffffffffffffffffffffffffffffffffff1673ffffffffffffffffffffffffffffffffffffffff1663e68b7cf487876040518363ffffffff1660e01b8152600401808381526020018273ffffffffffffffffffffffffffffffffffffffff1673ffffffffffffffffffffffffffffffffffffffff16815260200192505050602060405180830381600087803b15801561169f57600080fd5b505af11580156116b3573d6000803e3d6000fd5b505050506040513d60208110156116c957600080fd5b81019080805190602001909291905050506b033b2e3c9fd0803ce8000000611c2590919063ffffffff16565b9050600061171960016b033b2e3c9fd0803ce8000000611c2590919063ffffffff16565b9050600061173d60026b033b2e3c9fd0803ce8000000611c2590919063ffffffff16565b905060006117bd6117a2600554600660008c815260200190815260200160002060008b73ffffffffffffffffffffffffffffffffffffffff1673ffffffffffffffffffffffffffffffffffffffff168152602001908152602001600020544203611cab565b6b033b2e3c9fd0803ce8000000611c2590919063ffffffff16565b905060006117f56117da6002600554611c2590919063ffffffff16565b6b033b2e3c9fd0803ce8000000611c2590919063ffffffff16565b905060006118038787611cc4565b905060006118118686611cc4565b9050600061181f8585611cc4565b90506118526b033b2e3c9fd0803ce800000061184d856118488587611cff90919063ffffffff16565b611d87565b611cc4565b995050505050505050505092915050565b61186b611c1d565b73ffffffffffffffffffffffffffffffffffffffff166000809054906101000a900473ffffffffffffffffffffffffffffffffffffffff1673ffffffffffffffffffffffffffffffffffffffff161461192c576040517f08c379a00000000000000000000000000000000000000000000000000000000081526004018080602001828103825260208152602001807f4f776e61626c653a2063616c6c6572206973206e6f7420746865206f776e657281525060200191505060405180910390fd5b600073ffffffffffffffffffffffffffffffffffffffff168173ffffffffffffffffffffffffffffffffffffffff1614156119b2576040517f08c379a0000000000000000000000000000000000000000000000000000000008152600401808060200182810382526026815260200180611efd6026913960400191505060405180910390fd5b8073ffffffffffffffffffffffffffffffffffffffff166000809054906101000a900473ffffffffffffffffffffffffffffffffffffffff1673ffffffffffffffffffffffffffffffffffffffff167f8be0079c531659141344cd1fd0a4f28419497f9722a3daafe3b4186f6b6457e060405160405180910390a3806000806101000a81548173ffffffffffffffffffffffffffffffffffffffff021916908373ffffffffffffffffffffffffffffffffffffffff16021790555050565b60001515600360009054906101000a900473ffffffffffffffffffffffffffffffffffffffff1673ffffffffffffffffffffffffffffffffffffffff1663957aa58c6040518163ffffffff1660e01b815260040160206040518083038186803b158015611adc57600080fd5b505afa158015611af0573d6000803e3d6000fd5b505050506040513d6020811015611b0657600080fd5b8101908080519060200190929190505050151514611b8c576040517f08c379a000000000000000000000000000000000000000000000000000000000815260040180806020018281038252601e8152602001807f4c69717569646174696f6e733a205472656173757279206973206c697665000081525060200191505060405180910390fd5b6000600760006101000a81548160ff021916908315150217905550565b600080611bdd83611bcf6b204fce5e3e2502611000000087611c2590919063ffffffff16565b611dc290919063ffffffff16565b90506000600a8281611beb57fe5b061115611c08576001600a8281611bfe57fe5b0401915050611c17565b600a8181611c1257fe5b049150505b92915050565b600033905090565b600080831415611c385760009050611ca5565b6000828402905082848281611c4957fe5b0414611ca0576040517f08c379a0000000000000000000000000000000000000000000000000000000008152600401808060200182810382526021815260200180611fa16021913960400191505060405180910390fd5b809150505b92915050565b6000818310611cba5781611cbc565b825b905092915050565b6000611cf782611ce96b033b2e3c9fd0803ce800000086611c2590919063ffffffff16565b611dc290919063ffffffff16565b905092915050565b600080828401905083811015611d7d576040517f08c379a000000000000000000000000000000000000000000000000000000000815260040180806020018281038252601b8152602001807f536166654d6174683a206164646974696f6e206f766572666c6f77000000000081525060200191505060405180910390fd5b8091505092915050565b6000611dba6b033b2e3c9fd0803ce8000000611dac8486611c2590919063ffffffff16565b611dc290919063ffffffff16565b905092915050565b6000611e0483836040518060400160405280601a81526020017f536166654d6174683a206469766973696f6e206279207a65726f000000000000815250611e0c565b905092915050565b60008083118290611eb8576040517f08c379a00000000000000000000000000000000000000000000000000000000081526004018080602001828103825283818151815260200191508051906020019080838360005b83811015611e7d578082015181840152602081019050611e62565b50505050905090810190601f168015611eaa5780820380516001836020036101000a031916815260200191505b509250505060405180910390fd5b506000838581611ec457fe5b04905080915050939250505056fe4c69717569646174696f6e733a205661756c7420697320756e646572636f6c6c61746572616c697a65644f776e61626c653a206e6577206f776e657220697320746865207a65726f20616464726573734465616c65723a204e6f7420617661696c61626c6520647572696e6720756e77696e644c69717569646174696f6e733a205661756c74206973206e6f7420756e646572636f6c6c61746572616c697a65644c69717569646174696f6e733a205661756c7420697320616c726561647920696e206c69717569646174696f6e536166654d6174683a206d756c7469706c69636174696f6e206f766572666c6f774c69717569646174696f6e733a205661756c74206973206e6f7420696e206c69717569646174696f6e4c69717569646174696f6e733a205661756c74206973206e6f74207461726765746564a264697066735822122076e60937334d4ace8e7b5183fb109607041cacd0d2ab920e65eec208f63c845264736f6c634300060200334c69717569646174696f6e733a2041756374696f6e2074696d65206973207a65726f",
  "source": "pragma solidity ^0.6.2;\n\nimport \"@openzeppelin/contracts/token/ERC20/IERC20.sol\";\nimport \"@openzeppelin/contracts/math/Math.sol\";\nimport \"@openzeppelin/contracts/math/SafeMath.sol\";\nimport \"./interfaces/IDealer.sol\";\nimport \"./interfaces/ILiquidations.sol\";\nimport \"./interfaces/ITreasury.sol\";\nimport \"./helpers/Constants.sol\";\nimport \"./helpers/DecimalMath.sol\";\nimport \"./helpers/Orchestrated.sol\";\nimport \"@nomiclabs/buidler/console.sol\";\n\n\n/// @dev The Liquidations contract for a Dealer allows to liquidate undercollateralized positions in a reverse Dutch auction.\ncontract Liquidations is ILiquidations, Orchestrated(), Constants, DecimalMath {\n    using SafeMath for uint256;\n\n    event Liquidation(bytes32 indexed collateral, address indexed user, uint256 started);\n\n    IERC20 internal _dai;\n    ITreasury internal _treasury;\n    IDealer internal _dealer;\n\n    uint256 public auctionTime;\n    mapping(bytes32 => mapping(address => uint256)) public liquidations;\n\n    bool public live = true;\n\n    constructor (\n        address dai_,\n        address treasury_,\n        address dealer_,\n        uint256 auctionTime_\n    ) public {\n        _dai = IERC20(dai_);\n        _treasury = ITreasury(treasury_);\n        _dealer = IDealer(dealer_);\n\n        require(\n            auctionTime_ > 0,\n            \"Liquidations: Auction time is zero\"\n        );\n        auctionTime = auctionTime_;\n    }\n\n    modifier onlyLive() {\n        require(live == true, \"Dealer: Not available during unwind\");\n        _;\n    }\n\n    /// @dev Disables buying at liquidations. To be called only when Treasury shuts down.\n    function shutdown() public override {\n        require(\n            _treasury.live() == false,\n            \"Liquidations: Treasury is live\"\n        );\n        live = false;\n    }\n\n    /// @dev Starts a liquidation process for a given collateral and user.\n    function liquidate(bytes32 collateral, address user) public {\n        require(\n            liquidations[collateral][user] == 0,\n            \"Liquidations: Vault is already in liquidation\"\n        );\n        require(\n            !_dealer.isCollateralized(collateral, user),\n            \"Liquidations: Vault is not undercollateralized\"\n        );\n        // solium-disable-next-line security/no-block-members\n        liquidations[collateral][user] = now;\n        emit Liquidation(collateral, user, liquidations[collateral][user]);\n    }\n\n    /// @dev Cancels a liquidation process\n    function cancel(bytes32 collateral, address user) public {\n        require(\n            _dealer.isCollateralized(collateral, user),\n            \"Liquidations: Vault is undercollateralized\"\n        );\n        // solium-disable-next-line security/no-block-members\n        delete liquidations[collateral][user];\n        emit Liquidation(collateral, user, liquidations[collateral][user]);\n    }\n\n    /// @dev Liquidates a position. The caller pays the debt of `from`, and `buyer` receives an amount of collateral.\n    function buy(bytes32 collateral, address from, address buyer, uint256 daiAmount) public onlyLive {\n        require(\n            liquidations[collateral][from] > 0,\n            \"Liquidations: Vault is not in liquidation\"\n        );\n        /* require(\n            !_dealer.isCollateralized(collateral, from),\n            \"Liquidations: Vault is not undercollateralized\"\n        ); */ // Not checking for this, too expensive. Let the user stop the liquidations instead.\n        require( // grab dai from buyer and push to treasury\n            _dai.transferFrom(buyer, address(_treasury), daiAmount),\n            \"Dealer: Dai transfer fail\"\n        );\n        _treasury.pushDai();\n\n        // calculate collateral to grab. Using divdrup stops rounding from leaving 1 stray wei in vaults.\n        uint256 tokenAmount = divdrup(daiAmount, price(collateral, from));\n        // grab collateral from dealer\n        _dealer.grab(collateral, from, daiAmount, tokenAmount);\n\n        if (collateral == WETH){\n            _treasury.pullWeth(buyer, tokenAmount);\n        } else if (collateral == CHAI) {\n            _treasury.pullChai(buyer, tokenAmount);\n        } else {\n            revert(\"Dealer: Unsupported collateral\");\n        }\n    }\n\n    /// @dev Return price of a collateral unit, in dai, at the present moment, for a given user\n    // dai = price * collateral\n    // TODO: Optimize this for gas\n    //\n    //               posted      1      min(auction, elapsed)\n    // price = 1 / (-------- * (--- + -----------------------))\n    //                debt       2       2 * auction\n    function price(bytes32 collateral, address user) public returns (uint256) {\n        require(\n            liquidations[collateral][user] > 0,\n            \"Liquidations: Vault is not targeted\"\n        );\n        uint256 dividend1 = UNIT.mul(_dealer.posted(collateral, user));\n        uint256 divisor1 = UNIT.mul(_dealer.totalDebtDai(collateral, user));\n        uint256 dividend2 = UNIT.mul(1);\n        uint256 divisor2 = UNIT.mul(2);\n        uint256 dividend3 = UNIT.mul(Math.min(auctionTime, now - liquidations[collateral][user]));\n        uint256 divisor3 = UNIT.mul(auctionTime.mul(2));\n        uint256 term1 = divd(dividend1, divisor1);\n        uint256 term2 = divd(dividend2, divisor2);\n        uint256 term3 = divd(dividend3, divisor3);\n        return divd(UNIT, muld(term1, term2.add(term3)));\n    }\n}",
  "sourcePath": "/Users/bruce/dev/yieldprotocol/ytoken-mvp/contracts/Liquidations.sol",
  "compiler": {
    "name": "solc",
    "version": "0.6.2+commit.bacdbe57.Emscripten.clang"
  },
  "schemaVersion": "3.0.23",
  "updatedAt": "2020-07-04T11:00:16.649Z",
  "networkType": "ethereum",
  "devdoc": {
    "details": "The Liquidations contract for a Dealer allows to liquidate undercollateralized positions in a reverse Dutch auction.",
    "methods": {
      "buy(bytes32,address,address,uint256)": {
        "details": "Liquidates a position. The caller pays the debt of `from`, and `buyer` receives an amount of collateral."
      },
      "cancel(bytes32,address)": {
        "details": "Cancels a liquidation process"
      },
      "liquidate(bytes32,address)": {
        "details": "Starts a liquidation process for a given collateral and user."
      },
      "orchestrate(address)": {
        "details": "Add user to the authorized users list"
      },
      "owner()": {
        "details": "Returns the address of the current owner."
      },
      "price(bytes32,address)": {
        "details": "Return price of a collateral unit, in dai, at the present moment, for a given user"
      },
      "renounceOwnership()": {
        "details": "Leaves the contract without owner. It will not be possible to call `onlyOwner` functions anymore. Can only be called by the current owner.     * NOTE: Renouncing ownership will leave the contract without an owner, thereby removing any functionality that is only available to the owner."
      },
      "shutdown()": {
        "details": "Disables buying at liquidations. To be called only when Treasury shuts down."
      },
      "transferOwnership(address)": {
        "details": "Transfers ownership of the contract to a new account (`newOwner`). Can only be called by the current owner."
      }
    }
  },
  "userdoc": {
    "methods": {}
  }
}