{
  "contractName": "Liquidations",
  "abi": [
    {
      "inputs": [
        {
          "internalType": "address",
          "name": "dai_",
          "type": "address"
        },
        {
          "internalType": "address",
          "name": "treasury_",
          "type": "address"
        },
        {
          "internalType": "address",
          "name": "controller_",
          "type": "address"
        }
      ],
      "stateMutability": "nonpayable",
      "type": "constructor"
    },
    {
      "anonymous": false,
      "inputs": [
        {
          "indexed": true,
          "internalType": "address",
          "name": "user",
          "type": "address"
        },
        {
          "indexed": true,
          "internalType": "address",
          "name": "delegate",
          "type": "address"
        },
        {
          "indexed": false,
          "internalType": "bool",
          "name": "enabled",
          "type": "bool"
        }
      ],
      "name": "Delegate",
      "type": "event"
    },
    {
      "anonymous": false,
      "inputs": [
        {
          "indexed": false,
          "internalType": "address",
          "name": "access",
          "type": "address"
        }
      ],
      "name": "GrantedAccess",
      "type": "event"
    },
    {
      "anonymous": false,
      "inputs": [
        {
          "indexed": true,
          "internalType": "address",
          "name": "user",
          "type": "address"
        },
        {
          "indexed": false,
          "internalType": "uint256",
          "name": "started",
          "type": "uint256"
        },
        {
          "indexed": false,
          "internalType": "uint256",
          "name": "collateral",
          "type": "uint256"
        },
        {
          "indexed": false,
          "internalType": "uint256",
          "name": "debt",
          "type": "uint256"
        }
      ],
      "name": "Liquidation",
      "type": "event"
    },
    {
      "anonymous": false,
      "inputs": [
        {
          "indexed": true,
          "internalType": "address",
          "name": "previousOwner",
          "type": "address"
        },
        {
          "indexed": true,
          "internalType": "address",
          "name": "newOwner",
          "type": "address"
        }
      ],
      "name": "OwnershipTransferred",
      "type": "event"
    },
    {
      "inputs": [],
      "name": "AUCTION_TIME",
      "outputs": [
        {
          "internalType": "uint256",
          "name": "",
          "type": "uint256"
        }
      ],
      "stateMutability": "view",
      "type": "function",
      "constant": true
    },
    {
      "inputs": [],
      "name": "DUST",
      "outputs": [
        {
          "internalType": "uint256",
          "name": "",
          "type": "uint256"
        }
      ],
      "stateMutability": "view",
      "type": "function",
      "constant": true
    },
    {
      "inputs": [],
      "name": "FEE",
      "outputs": [
        {
          "internalType": "uint256",
          "name": "",
          "type": "uint256"
        }
      ],
      "stateMutability": "view",
      "type": "function",
      "constant": true
    },
    {
      "inputs": [],
      "name": "UNIT",
      "outputs": [
        {
          "internalType": "uint256",
          "name": "",
          "type": "uint256"
        }
      ],
      "stateMutability": "view",
      "type": "function",
      "constant": true
    },
    {
      "inputs": [],
      "name": "WETH",
      "outputs": [
        {
          "internalType": "bytes32",
          "name": "",
          "type": "bytes32"
        }
      ],
      "stateMutability": "view",
      "type": "function",
      "constant": true
    },
    {
      "inputs": [
        {
          "internalType": "address",
          "name": "delegate",
          "type": "address"
        }
      ],
      "name": "addDelegate",
      "outputs": [],
      "stateMutability": "nonpayable",
      "type": "function"
    },
    {
      "inputs": [
        {
          "internalType": "address",
          "name": "",
          "type": "address"
        }
      ],
      "name": "collateral",
      "outputs": [
        {
          "internalType": "uint256",
          "name": "",
          "type": "uint256"
        }
      ],
      "stateMutability": "view",
      "type": "function",
      "constant": true
    },
    {
      "inputs": [
        {
          "internalType": "address",
          "name": "",
          "type": "address"
        }
      ],
      "name": "debt",
      "outputs": [
        {
          "internalType": "uint256",
          "name": "",
          "type": "uint256"
        }
      ],
      "stateMutability": "view",
      "type": "function",
      "constant": true
    },
    {
      "inputs": [
        {
          "internalType": "address",
          "name": "",
          "type": "address"
        },
        {
          "internalType": "address",
          "name": "",
          "type": "address"
        }
      ],
      "name": "delegated",
      "outputs": [
        {
          "internalType": "bool",
          "name": "",
          "type": "bool"
        }
      ],
      "stateMutability": "view",
      "type": "function",
      "constant": true
    },
    {
      "inputs": [
        {
          "internalType": "address",
          "name": "",
          "type": "address"
        }
      ],
      "name": "liquidations",
      "outputs": [
        {
          "internalType": "uint256",
          "name": "",
          "type": "uint256"
        }
      ],
      "stateMutability": "view",
      "type": "function",
      "constant": true
    },
    {
      "inputs": [],
      "name": "live",
      "outputs": [
        {
          "internalType": "bool",
          "name": "",
          "type": "bool"
        }
      ],
      "stateMutability": "view",
      "type": "function",
      "constant": true
    },
    {
      "inputs": [
        {
          "internalType": "address",
          "name": "user",
          "type": "address"
        }
      ],
      "name": "orchestrate",
      "outputs": [],
      "stateMutability": "nonpayable",
      "type": "function"
    },
    {
      "inputs": [],
      "name": "owner",
      "outputs": [
        {
          "internalType": "address",
          "name": "",
          "type": "address"
        }
      ],
      "stateMutability": "view",
      "type": "function",
      "constant": true
    },
    {
      "inputs": [],
      "name": "renounceOwnership",
      "outputs": [],
      "stateMutability": "nonpayable",
      "type": "function"
    },
    {
      "inputs": [
        {
          "internalType": "address",
          "name": "delegate",
          "type": "address"
        }
      ],
      "name": "revokeDelegate",
      "outputs": [],
      "stateMutability": "nonpayable",
      "type": "function"
    },
    {
      "inputs": [
        {
          "internalType": "address",
          "name": "newOwner",
          "type": "address"
        }
      ],
      "name": "transferOwnership",
      "outputs": [],
      "stateMutability": "nonpayable",
      "type": "function"
    },
    {
      "inputs": [],
      "name": "shutdown",
      "outputs": [],
      "stateMutability": "nonpayable",
      "type": "function"
    },
    {
      "inputs": [
        {
          "internalType": "address",
          "name": "user",
          "type": "address"
        }
      ],
      "name": "aboveDustOrZero",
      "outputs": [
        {
          "internalType": "bool",
          "name": "",
          "type": "bool"
        }
      ],
      "stateMutability": "view",
      "type": "function",
      "constant": true
    },
    {
      "inputs": [
        {
          "internalType": "address",
          "name": "user",
          "type": "address"
        },
        {
          "internalType": "address",
          "name": "to",
          "type": "address"
        }
      ],
      "name": "liquidate",
      "outputs": [],
      "stateMutability": "nonpayable",
      "type": "function"
    },
    {
      "inputs": [
        {
          "internalType": "address",
          "name": "buyer",
          "type": "address"
        },
        {
          "internalType": "address",
          "name": "user",
          "type": "address"
        },
        {
          "internalType": "uint256",
          "name": "daiAmount",
          "type": "uint256"
        }
      ],
      "name": "buy",
      "outputs": [],
      "stateMutability": "nonpayable",
      "type": "function"
    },
    {
      "inputs": [
        {
          "internalType": "address",
          "name": "from",
          "type": "address"
        },
        {
          "internalType": "address",
          "name": "to",
          "type": "address"
        },
        {
          "internalType": "uint256",
          "name": "tokenAmount",
          "type": "uint256"
        }
      ],
      "name": "withdraw",
      "outputs": [],
      "stateMutability": "nonpayable",
      "type": "function"
    },
    {
      "inputs": [
        {
          "internalType": "address",
          "name": "user",
          "type": "address"
        }
      ],
      "name": "price",
      "outputs": [
        {
          "internalType": "uint256",
          "name": "",
          "type": "uint256"
        }
      ],
      "stateMutability": "view",
      "type": "function",
      "constant": true
    }
  ],
  "bytecode": "0x60806040526009805460ff1916600117905534801561001d57600080fd5b5060405161175a38038061175a8339818101604052606081101561004057600080fd5b508051602082015160409092015190919060006100646001600160e01b036100f016565b600080546001600160a01b0319166001600160a01b0383169081178255604051929350917f8be0079c531659141344cd1fd0a4f28419497f9722a3daafe3b4186f6b6457e0908290a350600380546001600160a01b039485166001600160a01b0319918216179091556004805493851693821693909317909255600580549190931691161790556100f4565b3390565b611657806101036000396000f3fe608060405234801561001057600080fd5b50600436106101425760003560e01c8063ad5c4648116100b8578063e592301a1161007c578063e592301a14610339578063e71bdf4114610341578063f2fde38b14610367578063f6bcbd311461038d578063fa352c00146103bb578063fc0e74d1146103e157610142565b8063ad5c4648146102af578063aea91078146102b7578063c57981b51461017f578063d9caed12146102dd578063e5442a9e1461031357610142565b80638da5cb5b1161010a5780638da5cb5b146101f5578063937d4c4214610219578063957aa58c1461023f5780639b6c56ec1461025b5780639d8e217714610281578063a5fdc5de1461028957610142565b8063153e66e6146101475780634e0cd7991461017f578063715018a61461019957806380f5a440146101a157806386b9d81f146101c7575b600080fd5b61017d6004803603606081101561015d57600080fd5b506001600160a01b038135811691602081013590911690604001356103e9565b005b61018761072b565b60408051918252519081900360200190f35b61017d610736565b61017d600480360360208110156101b757600080fd5b50356001600160a01b03166107ea565b61017d600480360360408110156101dd57600080fd5b506001600160a01b03813581169160200135166108b0565b6101fd610b40565b604080516001600160a01b039092168252519081900360200190f35b6101876004803603602081101561022f57600080fd5b50356001600160a01b0316610b4f565b610247610b61565b604080519115158252519081900360200190f35b6101876004803603602081101561027157600080fd5b50356001600160a01b0316610b6a565b610187610b7c565b6101876004803603602081101561029f57600080fd5b50356001600160a01b0316610b8b565b610187610b9d565b610187600480360360208110156102cd57600080fd5b50356001600160a01b0316610ba9565b61017d600480360360608110156102f357600080fd5b506001600160a01b03813581169160208101359091169060400135610d1f565b6102476004803603602081101561032957600080fd5b50356001600160a01b0316610f0d565b610187610f56565b61017d6004803603602081101561035757600080fd5b50356001600160a01b0316610f5c565b61017d6004803603602081101561037d57600080fd5b50356001600160a01b0316610fc8565b610247600480360360408110156103a357600080fd5b506001600160a01b03813581169160200135166110d2565b61017d600480360360208110156103d157600080fd5b50356001600160a01b03166110f2565b61017d611155565b60095460ff16151560011461042f5760405162461bcd60e51b815260040180806020018281038252602781526020018061150c6027913960400191505060405180910390fd5b826040518060600160405280602381526020016114e960239139336001600160a01b038316148061048357506001600160a01b038216600090815260026020908152604080832033845290915290205460ff165b819061050d5760405162461bcd60e51b81526004018080602001828103825283818151815260200191508051906020019080838360005b838110156104d25781810151838201526020016104ba565b50505050905090810190601f1680156104ff5780820380516001836020036101000a031916815260200191505b509250505060405180910390fd5b506001600160a01b0384166000908152600860205260409020546105625760405162461bcd60e51b81526004018080602001828103825260298152602001806115af6029913960400191505060405180910390fd5b600480546040805163f939199160e01b81526001600160a01b0389811694820194909452602481018790529051929091169163f93919919160448082019260009290919082900301818387803b1580156105bb57600080fd5b505af11580156105cf573d6000803e3d6000fd5b5050505060006105e7846105e287610ba9565b611221565b6001600160a01b038616600090815260076020526040902054909150610613908263ffffffff61126916565b6001600160a01b038616600090815260076020908152604080832093909355600890522054610648908563ffffffff61126916565b6001600160a01b03808716600090815260086020526040808220939093556004805484516322b25b7f60e21b81528b8516928101929092526024820186905293519390921692638ac96dfc92604480820193929182900301818387803b1580156106b157600080fd5b505af11580156106c5573d6000803e3d6000fd5b505050506106d285610f0d565b610723576040805162461bcd60e51b815260206004820152601860248201527f4c69717569646174696f6e733a2042656c6f7720647573740000000000000000604482015290519081900360640190fd5b505050505050565b6658d15e1762800081565b61073e6112b2565b6000546001600160a01b039081169116146107a0576040805162461bcd60e51b815260206004820181905260248201527f4f776e61626c653a2063616c6c6572206973206e6f7420746865206f776e6572604482015290519081900360640190fd5b600080546040516001600160a01b03909116907f8be0079c531659141344cd1fd0a4f28419497f9722a3daafe3b4186f6b6457e0908390a3600080546001600160a01b0319169055565b6107f26112b2565b6000546001600160a01b03908116911614610854576040805162461bcd60e51b815260206004820181905260248201527f4f776e61626c653a2063616c6c6572206973206e6f7420746865206f776e6572604482015290519081900360640190fd5b6001600160a01b038116600081815260016020818152604092839020805460ff1916909217909155815192835290517f6a7c5f28ea564fafc8b079663a2a9b9d26fe735d97c97611484ce044f40a16e29281900390910190a150565b6001600160a01b038216600090815260066020526040902054156109055760405162461bcd60e51b815260040180806020018281038252602d815260200180611561602d913960400191505060405180910390fd5b600554604080516301eb4a7d60e61b8152644554482d4160d81b60048201526001600160a01b03858116602483015291519190921691637ad29f409160448083019260209291908290030181600087803b15801561096257600080fd5b505af1158015610976573d6000803e3d6000fd5b505050506040513d602081101561098c57600080fd5b5051156109ca5760405162461bcd60e51b815260040180806020018281038252602e815260200180611533602e913960400191505060405180910390fd5b6001600160a01b0380831660008181526006602052604080822042905560055481516306a621df60e11b8152644554482d4160d81b60048201526024810194909452815192948594911692630d4c43be9260448084019391929182900301818787803b158015610a3957600080fd5b505af1158015610a4d573d6000803e3d6000fd5b505050506040513d6040811015610a6357600080fd5b5080516020909101519092509050610a88826658d15e1762800063ffffffff61126916565b6001600160a01b038086166000908152600760205260408082209390935590851681522054610ac4906658d15e1762800063ffffffff6112b616565b6001600160a01b0380851660009081526007602090815260408083209490945591871680825260088352838220859055600683529083902054835190815291820185905281830184905291517f1a1072eb98424f51d9ad56526f05cd82dc46f8965a96b7c421f18275753d248c9181900360600190a250505050565b6000546001600160a01b031690565b60066020526000908152604090205481565b60095460ff1681565b60086020526000908152604090205481565b676765c793fa10079d601b1b81565b60076020526000908152604090205481565b644554482d4160d81b81565b6001600160a01b038116600090815260066020526040812054610bfd5760405162461bcd60e51b81526004018080602001828103825260238152602001806115d86023913960400191505060405180910390fd5b6001600160a01b03821660009081526007602090815260408083205460089092528220549091610c4e82610c4285676765c793fa10079d601b1b63ffffffff61131016565b9063ffffffff61136916565b6001600160a01b03861660009081526006602052604081205491925090610c8990610e1090610c8490429063ffffffff61126916565b6113ab565b90506000610ca0610e10600263ffffffff61131016565b90506000610cc0676765c793fa10079d601b1b600263ffffffff61136916565b90506000610ce383610c4286676765c793fa10079d601b1b63ffffffff61131016565b9050610d12676765c793fa10079d601b1b610d0d87610d08868663ffffffff6112b616565b6113c1565b6113e2565b9998505050505050505050565b60095460ff161515600114610d655760405162461bcd60e51b815260040180806020018281038252602781526020018061150c6027913960400191505060405180910390fd5b826040518060600160405280602381526020016114e960239139336001600160a01b0383161480610db957506001600160a01b038216600090815260026020908152604080832033845290915290205460ff165b8190610e065760405162461bcd60e51b81526020600482018181528351602484015283519092839260449091019190850190808383600083156104d25781810151838201526020016104ba565b506001600160a01b03851660009081526008602052604090205415610e5c5760405162461bcd60e51b81526004018080602001828103825260278152602001806115fb6027913960400191505060405180910390fd5b6001600160a01b038516600090815260076020526040902054610e85908463ffffffff61126916565b6001600160a01b03808716600090815260076020526040808220939093556004805484516322b25b7f60e21b8152898516928101929092526024820188905293519390921692638ac96dfc92604480820193929182900301818387803b158015610eee57600080fd5b505af1158015610f02573d6000803e3d6000fd5b505050505050505050565b6001600160a01b0381166000908152600760205260408120541580610f5057506001600160a01b0382166000908152600760205260409020546658d15e17628000105b92915050565b610e1081565b3360008181526002602090815260408083206001600160a01b03861680855290835292819020805460ff19166001908117909155815190815290519293927f045b0fef01772d2fbba53dbd38c9777806eac0865b00af43abcfbcaf50da9206929181900390910190a350565b610fd06112b2565b6000546001600160a01b03908116911614611032576040805162461bcd60e51b815260206004820181905260248201527f4f776e61626c653a2063616c6c6572206973206e6f7420746865206f776e6572604482015290519081900360640190fd5b6001600160a01b0381166110775760405162461bcd60e51b81526004018080602001828103825260268152602001806114c36026913960400191505060405180910390fd5b600080546040516001600160a01b03808516939216917f8be0079c531659141344cd1fd0a4f28419497f9722a3daafe3b4186f6b6457e091a3600080546001600160a01b0319166001600160a01b0392909216919091179055565b600260209081526000928352604080842090915290825290205460ff1681565b3360008181526002602090815260408083206001600160a01b038616808552908352818420805460ff19169055815193845290519093927f045b0fef01772d2fbba53dbd38c9777806eac0865b00af43abcfbcaf50da920692908290030190a350565b600480546040805163255ea96360e21b815290516001600160a01b039092169263957aa58c928282019260209290829003018186803b15801561119757600080fd5b505afa1580156111ab573d6000803e3d6000fd5b505050506040513d60208110156111c157600080fd5b505115611215576040805162461bcd60e51b815260206004820152601e60248201527f4c69717569646174696f6e733a205472656173757279206973206c6976650000604482015290519081900360640190fd5b6009805460ff19169055565b60008061124483610c42866b204fce5e3e2502611000000063ffffffff61131016565b9050600a81061561125e57600a8104600101915050610f50565b600a90049392505050565b60006112ab83836040518060400160405280601e81526020017f536166654d6174683a207375627472616374696f6e206f766572666c6f770000815250611403565b9392505050565b3390565b6000828201838110156112ab576040805162461bcd60e51b815260206004820152601b60248201527f536166654d6174683a206164646974696f6e206f766572666c6f770000000000604482015290519081900360640190fd5b60008261131f57506000610f50565b8282028284828161132c57fe5b04146112ab5760405162461bcd60e51b815260040180806020018281038252602181526020018061158e6021913960400191505060405180910390fd5b60006112ab83836040518060400160405280601a81526020017f536166654d6174683a206469766973696f6e206279207a65726f00000000000081525061145d565b60008183106113ba57816112ab565b5090919050565b60006112ab676765c793fa10079d601b1b610c42858563ffffffff61131016565b60006112ab82610c4285676765c793fa10079d601b1b63ffffffff61131016565b600081848411156114555760405162461bcd60e51b81526020600482018181528351602484015283519092839260449091019190850190808383600083156104d25781810151838201526020016104ba565b505050900390565b600081836114ac5760405162461bcd60e51b81526020600482018181528351602484015283519092839260449091019190850190808383600083156104d25781810151838201526020016104ba565b5060008385816114b857fe5b049594505050505056fe4f776e61626c653a206e6577206f776e657220697320746865207a65726f2061646472657373436f6e74726f6c6c65723a204f6e6c7920486f6c646572204f722044656c6567617465436f6e74726f6c6c65723a204e6f7420617661696c61626c6520647572696e6720756e77696e644c69717569646174696f6e733a205661756c74206973206e6f7420756e646572636f6c6c61746572616c697a65644c69717569646174696f6e733a205661756c7420697320616c726561647920696e206c69717569646174696f6e536166654d6174683a206d756c7469706c69636174696f6e206f766572666c6f774c69717569646174696f6e733a205661756c74206973206e6f7420696e206c69717569646174696f6e4c69717569646174696f6e733a205661756c74206973206e6f742074617267657465644c69717569646174696f6e733a2055736572207374696c6c20696e206c69717569646174696f6ea2646970667358221220bc94781e10f01fbae48f46acf651b1b85b858ce4bc3ad62ca6b8abb7b272145764736f6c634300060a0033",
  "source": "// SPDX-License-Identifier: GPL-3.0-or-later\npragma solidity ^0.6.10;\n\nimport \"@openzeppelin/contracts/token/ERC20/IERC20.sol\";\nimport \"@openzeppelin/contracts/math/Math.sol\";\nimport \"@openzeppelin/contracts/math/SafeMath.sol\";\nimport \"./interfaces/IController.sol\";\nimport \"./interfaces/ILiquidations.sol\";\nimport \"./interfaces/ITreasury.sol\";\nimport \"./helpers/DecimalMath.sol\";\nimport \"./helpers/Delegable.sol\";\nimport \"./helpers/Orchestrated.sol\";\nimport \"@nomiclabs/buidler/console.sol\";\n\n\n/**\n * @dev The Liquidations contract allows to liquidate undercollateralized weth vaults in a reverse Dutch auction.\n * Undercollateralized vaults can be liquidated by calling `liquidate`.\n * Collateral from vaults can be bought with Dai using `buy`.\n * Debt and collateral records will be adjusted in the Controller using `controller.grab`.\n * Dai taken in payment will be handed over to Treasury, and collateral assets bought will be taken from Treasury as well.\n * If a vault becomes colalteralized, the liquidation can be stopped with `cancel`.\n */\ncontract Liquidations is ILiquidations, Orchestrated(), Delegable(), DecimalMath {\n    using SafeMath for uint256;\n\n    event Liquidation(address indexed user, uint256 started, uint256 collateral, uint256 debt);\n\n    bytes32 public constant WETH = \"ETH-A\";\n    uint256 public constant AUCTION_TIME = 3600;\n    uint256 public constant DUST = 25000000000000000; // 0.025 ETH\n    uint256 public constant FEE = 25000000000000000; // 0.025 ETH\n\n    IERC20 internal _dai;\n    ITreasury internal _treasury;\n    IController internal _controller;\n\n    mapping(address => uint256) public liquidations;\n    mapping(address => uint256) public collateral;\n    mapping(address => uint256) public debt;\n\n    bool public live = true;\n\n    constructor (\n        address dai_,\n        address treasury_,\n        address controller_\n    ) public {\n        _dai = IERC20(dai_);\n        _treasury = ITreasury(treasury_);\n        _controller = IController(controller_);\n    }\n\n    modifier onlyLive() {\n        require(live == true, \"Controller: Not available during unwind\");\n        _;\n    }\n\n    /// @dev Disables buying at liquidations. To be called only when Treasury shuts down.\n    function shutdown() public override {\n        require(\n            _treasury.live() == false,\n            \"Liquidations: Treasury is live\"\n        );\n        live = false;\n    }\n\n\n    /// @dev Return if the debt of an user is between zero and the dust level\n    function aboveDustOrZero(address user) public view returns (bool) {\n        return collateral[user] == 0 || DUST < collateral[user];\n    }\n\n    /// @dev Starts a liquidation process for a given user.\n    /// A liquidation fee is transferred from the liquidated user to a designated account as payment.\n    function liquidate(address user, address to) public {\n        require(\n            liquidations[user] == 0,\n            \"Liquidations: Vault is already in liquidation\"\n        );\n        require(\n            !_controller.isCollateralized(WETH, user),\n            \"Liquidations: Vault is not undercollateralized\"\n        );\n        // solium-disable-next-line security/no-block-members\n        liquidations[user] = now;\n\n        (uint256 userCollateral, uint256 userDebt) = _controller.erase(WETH, user);\n        collateral[user] = userCollateral.sub(FEE);\n        collateral[to] = collateral[to].add(FEE);\n        debt[user] = userDebt;\n\n        emit Liquidation(user, liquidations[user], userCollateral, userDebt);\n    }\n\n    /// @dev Liquidates a position. The caller pays the debt of `user`, and `buyer` receives an amount of collateral.\n    function buy(address buyer, address user, uint256 daiAmount)\n        public onlyLive\n        onlyHolderOrDelegate(buyer, \"Controller: Only Holder Or Delegate\")\n    {\n        require(\n            debt[user] > 0,\n            \"Liquidations: Vault is not in liquidation\"\n        );\n        _treasury.pushDai(buyer, daiAmount);\n\n        // calculate collateral to grab. Using divdrup stops rounding from leaving 1 stray wei in vaults.\n        uint256 tokenAmount = divdrup(daiAmount, price(user));\n\n        collateral[user] = collateral[user].sub(tokenAmount);\n        debt[user] = debt[user].sub(daiAmount);\n\n        _treasury.pullWeth(buyer, tokenAmount);\n\n        require(\n            aboveDustOrZero(user),\n            \"Liquidations: Below dust\"\n        );\n    }\n\n    /// @dev Liquidates a position. The caller pays the debt of `from`, and `buyer` receives an amount of collateral.\n    function withdraw(address from, address to, uint256 tokenAmount)\n        public onlyLive\n        onlyHolderOrDelegate(from, \"Controller: Only Holder Or Delegate\")\n    {\n        require(\n            debt[from] == 0,\n            \"Liquidations: User still in liquidation\"\n        );\n\n        collateral[from] = collateral[from].sub(tokenAmount);\n\n        _treasury.pullWeth(to, tokenAmount);\n    }\n\n\n    /// @dev Return price of a collateral unit, in dai, at the present moment, for a given user\n    // dai = price * collateral\n    //\n    //                collateral      1      min(auction, elapsed)\n    // price = 1 / (------------- * (--- + -----------------------))\n    //                   debt         2       2 * auction\n    function price(address user) public view returns (uint256) {\n        require(\n            liquidations[user] > 0,\n            \"Liquidations: Vault is not targeted\"\n        );\n        uint256 dividend1 = collateral[user];\n        uint256 divisor1 = debt[user];\n        uint256 term1 = dividend1.mul(UNIT).div(divisor1);\n        uint256 dividend3 = Math.min(AUCTION_TIME, now.sub(liquidations[user]));\n        uint256 divisor3 = AUCTION_TIME.mul(2);\n        uint256 term2 = UNIT.div(2);\n        uint256 term3 = dividend3.mul(UNIT).div(divisor3);\n        return divd(UNIT, muld(term1, term2.add(term3)));\n    }\n}\n",
  "sourcePath": "/Users/bruce/dev/yieldprotocol/ytoken-mvp/contracts/Liquidations.sol",
  "compiler": {
    "name": "solc",
    "version": "0.6.10+commit.00c0fcaf.Emscripten.clang"
  },
  "schemaVersion": "3.0.23",
  "updatedAt": "2020-07-23T14:16:09.932Z",
  "networkType": "ethereum",
  "devdoc": {
    "details": "The Liquidations contract allows to liquidate undercollateralized weth vaults in a reverse Dutch auction. Undercollateralized vaults can be liquidated by calling `liquidate`. Collateral from vaults can be bought with Dai using `buy`. Debt and collateral records will be adjusted in the Controller using `controller.grab`. Dai taken in payment will be handed over to Treasury, and collateral assets bought will be taken from Treasury as well. If a vault becomes colalteralized, the liquidation can be stopped with `cancel`.",
    "methods": {
      "aboveDustOrZero(address)": {
        "details": "Return if the debt of an user is between zero and the dust level"
      },
      "addDelegate(address)": {
        "details": "Enable a delegate to act on the behalf of caller"
      },
      "buy(address,address,uint256)": {
        "details": "Liquidates a position. The caller pays the debt of `user`, and `buyer` receives an amount of collateral."
      },
      "liquidate(address,address)": {
        "details": "Starts a liquidation process for a given user. A liquidation fee is transferred from the liquidated user to a designated account as payment."
      },
      "orchestrate(address)": {
        "details": "Add user to the authorized users list"
      },
      "owner()": {
        "details": "Returns the address of the current owner."
      },
      "price(address)": {
        "details": "Return price of a collateral unit, in dai, at the present moment, for a given user"
      },
      "renounceOwnership()": {
        "details": "Leaves the contract without owner. It will not be possible to call `onlyOwner` functions anymore. Can only be called by the current owner. NOTE: Renouncing ownership will leave the contract without an owner, thereby removing any functionality that is only available to the owner."
      },
      "revokeDelegate(address)": {
        "details": "Stop a delegate from acting on the behalf of caller"
      },
      "shutdown()": {
        "details": "Disables buying at liquidations. To be called only when Treasury shuts down."
      },
      "transferOwnership(address)": {
        "details": "Transfers ownership of the contract to a new account (`newOwner`). Can only be called by the current owner."
      },
      "withdraw(address,address,uint256)": {
        "details": "Liquidates a position. The caller pays the debt of `from`, and `buyer` receives an amount of collateral."
      }
    }
  },
  "userdoc": {
    "methods": {}
  }
}