{
  "contractName": "Liquidations",
  "abi": [
    {
      "inputs": [
        {
          "internalType": "address",
          "name": "dai_",
          "type": "address"
        },
        {
          "internalType": "address",
          "name": "treasury_",
          "type": "address"
        },
        {
          "internalType": "address",
          "name": "controller_",
          "type": "address"
        },
        {
          "internalType": "uint256",
          "name": "auctionTime_",
          "type": "uint256"
        }
      ],
      "stateMutability": "nonpayable",
      "type": "constructor"
    },
    {
      "anonymous": false,
      "inputs": [
        {
          "indexed": false,
          "internalType": "address",
          "name": "access",
          "type": "address"
        }
      ],
      "name": "GrantedAccess",
      "type": "event"
    },
    {
      "anonymous": false,
      "inputs": [
        {
          "indexed": true,
          "internalType": "bytes32",
          "name": "collateral",
          "type": "bytes32"
        },
        {
          "indexed": true,
          "internalType": "address",
          "name": "user",
          "type": "address"
        },
        {
          "indexed": false,
          "internalType": "uint256",
          "name": "started",
          "type": "uint256"
        }
      ],
      "name": "Liquidation",
      "type": "event"
    },
    {
      "anonymous": false,
      "inputs": [
        {
          "indexed": true,
          "internalType": "address",
          "name": "previousOwner",
          "type": "address"
        },
        {
          "indexed": true,
          "internalType": "address",
          "name": "newOwner",
          "type": "address"
        }
      ],
      "name": "OwnershipTransferred",
      "type": "event"
    },
    {
      "inputs": [],
      "name": "CHAI",
      "outputs": [
        {
          "internalType": "bytes32",
          "name": "",
          "type": "bytes32"
        }
      ],
      "stateMutability": "view",
      "type": "function",
      "constant": true
    },
    {
      "inputs": [],
      "name": "UNIT",
      "outputs": [
        {
          "internalType": "uint256",
          "name": "",
          "type": "uint256"
        }
      ],
      "stateMutability": "view",
      "type": "function",
      "constant": true
    },
    {
      "inputs": [],
      "name": "WETH",
      "outputs": [
        {
          "internalType": "bytes32",
          "name": "",
          "type": "bytes32"
        }
      ],
      "stateMutability": "view",
      "type": "function",
      "constant": true
    },
    {
      "inputs": [],
      "name": "auctionTime",
      "outputs": [
        {
          "internalType": "uint256",
          "name": "",
          "type": "uint256"
        }
      ],
      "stateMutability": "view",
      "type": "function",
      "constant": true
    },
    {
      "inputs": [
        {
          "internalType": "bytes32",
          "name": "",
          "type": "bytes32"
        },
        {
          "internalType": "address",
          "name": "",
          "type": "address"
        }
      ],
      "name": "liquidations",
      "outputs": [
        {
          "internalType": "uint256",
          "name": "",
          "type": "uint256"
        }
      ],
      "stateMutability": "view",
      "type": "function",
      "constant": true
    },
    {
      "inputs": [],
      "name": "live",
      "outputs": [
        {
          "internalType": "bool",
          "name": "",
          "type": "bool"
        }
      ],
      "stateMutability": "view",
      "type": "function",
      "constant": true
    },
    {
      "inputs": [
        {
          "internalType": "address",
          "name": "user",
          "type": "address"
        }
      ],
      "name": "orchestrate",
      "outputs": [],
      "stateMutability": "nonpayable",
      "type": "function"
    },
    {
      "inputs": [],
      "name": "owner",
      "outputs": [
        {
          "internalType": "address",
          "name": "",
          "type": "address"
        }
      ],
      "stateMutability": "view",
      "type": "function",
      "constant": true
    },
    {
      "inputs": [],
      "name": "renounceOwnership",
      "outputs": [],
      "stateMutability": "nonpayable",
      "type": "function"
    },
    {
      "inputs": [
        {
          "internalType": "address",
          "name": "newOwner",
          "type": "address"
        }
      ],
      "name": "transferOwnership",
      "outputs": [],
      "stateMutability": "nonpayable",
      "type": "function"
    },
    {
      "inputs": [],
      "name": "shutdown",
      "outputs": [],
      "stateMutability": "nonpayable",
      "type": "function"
    },
    {
      "inputs": [
        {
          "internalType": "bytes32",
          "name": "collateral",
          "type": "bytes32"
        },
        {
          "internalType": "address",
          "name": "user",
          "type": "address"
        }
      ],
      "name": "liquidate",
      "outputs": [],
      "stateMutability": "nonpayable",
      "type": "function"
    },
    {
      "inputs": [
        {
          "internalType": "bytes32",
          "name": "collateral",
          "type": "bytes32"
        },
        {
          "internalType": "address",
          "name": "user",
          "type": "address"
        }
      ],
      "name": "cancel",
      "outputs": [],
      "stateMutability": "nonpayable",
      "type": "function"
    },
    {
      "inputs": [
        {
          "internalType": "bytes32",
          "name": "collateral",
          "type": "bytes32"
        },
        {
          "internalType": "address",
          "name": "from",
          "type": "address"
        },
        {
          "internalType": "address",
          "name": "buyer",
          "type": "address"
        },
        {
          "internalType": "uint256",
          "name": "daiAmount",
          "type": "uint256"
        }
      ],
      "name": "buy",
      "outputs": [],
      "stateMutability": "nonpayable",
      "type": "function"
    },
    {
      "inputs": [
        {
          "internalType": "bytes32",
          "name": "collateral",
          "type": "bytes32"
        },
        {
          "internalType": "address",
          "name": "user",
          "type": "address"
        }
      ],
      "name": "price",
      "outputs": [
        {
          "internalType": "uint256",
          "name": "",
          "type": "uint256"
        }
      ],
      "stateMutability": "nonpayable",
      "type": "function"
    }
  ],
  "bytecode": "0x60806040526007805460ff1916600117905534801561001d57600080fd5b5060405161137c38038061137c8339818101604052608081101561004057600080fd5b5080516020820151604083015160609093015191929091600061006a6001600160e01b0361013916565b600080546001600160a01b0319166001600160a01b0383169081178255604051929350917f8be0079c531659141344cd1fd0a4f28419497f9722a3daafe3b4186f6b6457e0908290a350600280546001600160a01b038087166001600160a01b0319928316179092556003805486841690831617905560048054928516929091169190911790558061012d5760405162461bcd60e51b815260040180806020018281038252602281526020018061135a6022913960400191505060405180910390fd5b6005555061013d915050565b3390565b61120e8061014c6000396000f3fe608060405234801561001057600080fd5b50600436106100f55760003560e01c8063957aa58c11610097578063b6dbf9ce11610066578063b6dbf9ce14610254578063e3079c1b1461025c578063f2fde38b14610288578063fc0e74d1146102ae576100f5565b8063957aa58c146101fc5780639d8e217714610218578063a8a5c4bb14610220578063ad5c46481461024c576100f5565b8063715018a6116100d3578063715018a61461017e578063771b51d21461018657806380f5a440146101b25780638da5cb5b146101d8576100f5565b8063155f586d146100fa57806322cae9a214610114578063412a2dfe14610142575b600080fd5b6101026102b6565b60408051918252519081900360200190f35b6101406004803603604081101561012a57600080fd5b50803590602001356001600160a01b03166102bc565b005b6101406004803603608081101561015857600080fd5b508035906001600160a01b036020820135811691604081013590911690606001356103d6565b61014061069c565b6101406004803603604081101561019c57600080fd5b50803590602001356001600160a01b0316610750565b610140600480360360208110156101c857600080fd5b50356001600160a01b03166108ca565b6101e0610990565b604080516001600160a01b039092168252519081900360200190f35b61020461099f565b604080519115158252519081900360200190f35b6101026109a8565b6101026004803603604081101561023657600080fd5b50803590602001356001600160a01b03166109b7565b6101026109d4565b6101026109e0565b6101026004803603604081101561027257600080fd5b50803590602001356001600160a01b03166109eb565b6101406004803603602081101561029e57600080fd5b50356001600160a01b0316610c53565b610140610d5d565b60055481565b60048054604080516301eb4a7d60e61b81529283018590526001600160a01b0384811660248501529051911691637ad29f409160448083019260209291908290030181600087803b15801561031057600080fd5b505af1158015610324573d6000803e3d6000fd5b505050506040513d602081101561033a57600080fd5b50516103775760405162461bcd60e51b815260040180806020018281038252602a815260200180611078602a913960400191505060405180910390fd5b60008281526006602090815260408083206001600160a01b03851680855290835281842084905581519384529051909285927f052b2d4621e67ef415db368319a25871169a70b45464140085da0f98287b7c1092918290030190a35050565b60075460ff16151560011461041c5760405162461bcd60e51b81526004018080602001828103825260278152602001806110c86027913960400191505060405180910390fd5b60008481526006602090815260408083206001600160a01b038716845290915290205461047a5760405162461bcd60e51b815260040180806020018281038252602981526020018061118d6029913960400191505060405180910390fd5b6003546040805163f939199160e01b81526001600160a01b038581166004830152602482018590529151919092169163f939199191604480830192600092919082900301818387803b1580156104cf57600080fd5b505af11580156104e3573d6000803e3d6000fd5b5050505060006104fc826104f787876109eb565b610e35565b6004805460408051637a8d1c8d60e11b81529283018990526001600160a01b03888116602485015260448401879052606484018590529051939450169163f51a391a9160848082019260009290919082900301818387803b15801561056057600080fd5b505af1158015610574573d6000803e3d6000fd5b50505050644554482d4160d81b8514156105fa57600354604080516322b25b7f60e21b81526001600160a01b0386811660048301526024820185905291519190921691638ac96dfc91604480830192600092919082900301818387803b1580156105dd57600080fd5b505af11580156105f1573d6000803e3d6000fd5b50505050610695565b634348414960e01b85141561065e5760035460408051639fa8368960e01b81526001600160a01b0386811660048301526024820185905291519190921691639fa8368991604480830192600092919082900301818387803b1580156105dd57600080fd5b60405162461bcd60e51b815260040180806020018281038252602281526020018061111d6022913960400191505060405180910390fd5b5050505050565b6106a4610e7d565b6000546001600160a01b03908116911614610706576040805162461bcd60e51b815260206004820181905260248201527f4f776e61626c653a2063616c6c6572206973206e6f7420746865206f776e6572604482015290519081900360640190fd5b600080546040516001600160a01b03909116907f8be0079c531659141344cd1fd0a4f28419497f9722a3daafe3b4186f6b6457e0908390a3600080546001600160a01b0319169055565b60008281526006602090815260408083206001600160a01b0385168452909152902054156107af5760405162461bcd60e51b815260040180806020018281038252602d81526020018061113f602d913960400191505060405180910390fd5b60048054604080516301eb4a7d60e61b81529283018590526001600160a01b0384811660248501529051911691637ad29f409160448083019260209291908290030181600087803b15801561080357600080fd5b505af1158015610817573d6000803e3d6000fd5b505050506040513d602081101561082d57600080fd5b50511561086b5760405162461bcd60e51b815260040180806020018281038252602e8152602001806110ef602e913960400191505060405180910390fd5b60008281526006602090815260408083206001600160a01b0385168085529083529281902042908190558151908152905185927f052b2d4621e67ef415db368319a25871169a70b45464140085da0f98287b7c10928290030190a35050565b6108d2610e7d565b6000546001600160a01b03908116911614610934576040805162461bcd60e51b815260206004820181905260248201527f4f776e61626c653a2063616c6c6572206973206e6f7420746865206f776e6572604482015290519081900360640190fd5b6001600160a01b038116600081815260016020818152604092839020805460ff1916909217909155815192835290517f6a7c5f28ea564fafc8b079663a2a9b9d26fe735d97c97611484ce044f40a16e29281900390910190a150565b6000546001600160a01b031690565b60075460ff1681565b676765c793fa10079d601b1b81565b600660209081526000928352604080842090915290825290205481565b644554482d4160d81b81565b634348414960e01b81565b60008281526006602090815260408083206001600160a01b0385168452909152812054610a495760405162461bcd60e51b81526004018080602001828103825260238152602001806111b66023913960400191505060405180910390fd5b600480546040805163dd62f42360e01b81529283018690526001600160a01b0385811660248501529051600093919092169163dd62f42391604480820192602092909190829003018186803b158015610aa157600080fd5b505afa158015610ab5573d6000803e3d6000fd5b505050506040513d6020811015610acb57600080fd5b505160048054604080516339a2df3d60e21b81529283018890526001600160a01b038781166024850152905193945060009391169163e68b7cf491604480830192602092919082900301818787803b158015610b2657600080fd5b505af1158015610b3a573d6000803e3d6000fd5b505050506040513d6020811015610b5057600080fd5b505190506000610b8182610b7585676765c793fa10079d601b1b63ffffffff610e8116565b9063ffffffff610ee116565b60055460008881526006602090815260408083206001600160a01b038b16845290915281205492935091610bb791904203610f23565b90506000610bd16002600554610e8190919063ffffffff16565b90506000610bf1676765c793fa10079d601b1b600263ffffffff610ee116565b90506000610c1483610b7586676765c793fa10079d601b1b63ffffffff610e8116565b9050610c43676765c793fa10079d601b1b610c3e87610c39868663ffffffff610f3916565b610f93565b610fb4565b9750505050505050505b92915050565b610c5b610e7d565b6000546001600160a01b03908116911614610cbd576040805162461bcd60e51b815260206004820181905260248201527f4f776e61626c653a2063616c6c6572206973206e6f7420746865206f776e6572604482015290519081900360640190fd5b6001600160a01b038116610d025760405162461bcd60e51b81526004018080602001828103825260268152602001806110a26026913960400191505060405180910390fd5b600080546040516001600160a01b03808516939216917f8be0079c531659141344cd1fd0a4f28419497f9722a3daafe3b4186f6b6457e091a3600080546001600160a01b0319166001600160a01b0392909216919091179055565b600360009054906101000a90046001600160a01b03166001600160a01b031663957aa58c6040518163ffffffff1660e01b815260040160206040518083038186803b158015610dab57600080fd5b505afa158015610dbf573d6000803e3d6000fd5b505050506040513d6020811015610dd557600080fd5b505115610e29576040805162461bcd60e51b815260206004820152601e60248201527f4c69717569646174696f6e733a205472656173757279206973206c6976650000604482015290519081900360640190fd5b6007805460ff19169055565b600080610e5883610b75866b204fce5e3e2502611000000063ffffffff610e8116565b9050600a810615610e7257600a8104600101915050610c4d565b600a90049050610c4d565b3390565b600082610e9057506000610c4d565b82820282848281610e9d57fe5b0414610eda5760405162461bcd60e51b815260040180806020018281038252602181526020018061116c6021913960400191505060405180910390fd5b9392505050565b6000610eda83836040518060400160405280601a81526020017f536166654d6174683a206469766973696f6e206279207a65726f000000000000815250610fd5565b6000818310610f325781610eda565b5090919050565b600082820183811015610eda576040805162461bcd60e51b815260206004820152601b60248201527f536166654d6174683a206164646974696f6e206f766572666c6f770000000000604482015290519081900360640190fd5b6000610eda676765c793fa10079d601b1b610b75858563ffffffff610e8116565b6000610eda82610b7585676765c793fa10079d601b1b63ffffffff610e8116565b600081836110615760405162461bcd60e51b81526004018080602001828103825283818151815260200191508051906020019080838360005b8381101561102657818101518382015260200161100e565b50505050905090810190601f1680156110535780820380516001836020036101000a031916815260200191505b509250505060405180910390fd5b50600083858161106d57fe5b049594505050505056fe4c69717569646174696f6e733a205661756c7420697320756e646572636f6c6c61746572616c697a65644f776e61626c653a206e6577206f776e657220697320746865207a65726f2061646472657373436f6e74726f6c6c65723a204e6f7420617661696c61626c6520647572696e6720756e77696e644c69717569646174696f6e733a205661756c74206973206e6f7420756e646572636f6c6c61746572616c697a6564436f6e74726f6c6c65723a20556e737570706f7274656420636f6c6c61746572616c4c69717569646174696f6e733a205661756c7420697320616c726561647920696e206c69717569646174696f6e536166654d6174683a206d756c7469706c69636174696f6e206f766572666c6f774c69717569646174696f6e733a205661756c74206973206e6f7420696e206c69717569646174696f6e4c69717569646174696f6e733a205661756c74206973206e6f74207461726765746564a26469706673582212209c167caa2794e692e273345c88e29621896c5330d60dd8907a2bd51a8f10a44c64736f6c634300060a00334c69717569646174696f6e733a2041756374696f6e2074696d65206973207a65726f",
  "source": "pragma solidity ^0.6.10;\n\nimport \"@openzeppelin/contracts/token/ERC20/IERC20.sol\";\nimport \"@openzeppelin/contracts/math/Math.sol\";\nimport \"@openzeppelin/contracts/math/SafeMath.sol\";\nimport \"./interfaces/IController.sol\";\nimport \"./interfaces/ILiquidations.sol\";\nimport \"./interfaces/ITreasury.sol\";\nimport \"./helpers/DecimalMath.sol\";\nimport \"./helpers/Orchestrated.sol\";\n// import \"@nomiclabs/buidler/console.sol\";\n\n\n/**\n * @dev The Liquidations contract allows to liquidate undercollateralized vaults in a reverse Dutch auction.\n * Undercollateralized vaults can be liquidated by calling `liquidate`.\n * Collateral from vaults can be bought with Dai using `buy`.\n * Debt and collateral records will be adjusted in the Controller using `controller.grab`.\n * Dai taken in payment will be handed over to Treasury, and collateral assets bought will be taken from Treasury as well.\n * If a vault becomes colalteralized, the liquidation can be stopped with `cancel`.\n */\ncontract Liquidations is ILiquidations, Orchestrated(), DecimalMath {\n    using SafeMath for uint256;\n\n    event Liquidation(bytes32 indexed collateral, address indexed user, uint256 started);\n\n    bytes32 public constant CHAI = \"CHAI\";\n    bytes32 public constant WETH = \"ETH-A\";\n\n    IERC20 internal _dai;\n    ITreasury internal _treasury;\n    IController internal _controller;\n\n    uint256 public auctionTime;\n    mapping(bytes32 => mapping(address => uint256)) public liquidations;\n\n    bool public live = true;\n\n    constructor (\n        address dai_,\n        address treasury_,\n        address controller_,\n        uint256 auctionTime_\n    ) public {\n        _dai = IERC20(dai_);\n        _treasury = ITreasury(treasury_);\n        _controller = IController(controller_);\n\n        require(\n            auctionTime_ > 0,\n            \"Liquidations: Auction time is zero\"\n        );\n        auctionTime = auctionTime_;\n    }\n\n    modifier onlyLive() {\n        require(live == true, \"Controller: Not available during unwind\");\n        _;\n    }\n\n    /// @dev Disables buying at liquidations. To be called only when Treasury shuts down.\n    function shutdown() public override {\n        require(\n            _treasury.live() == false,\n            \"Liquidations: Treasury is live\"\n        );\n        live = false;\n    }\n\n    /// @dev Starts a liquidation process for a given collateral and user.\n    function liquidate(bytes32 collateral, address user) public {\n        require(\n            liquidations[collateral][user] == 0,\n            \"Liquidations: Vault is already in liquidation\"\n        );\n        require(\n            !_controller.isCollateralized(collateral, user),\n            \"Liquidations: Vault is not undercollateralized\"\n        );\n        // solium-disable-next-line security/no-block-members\n        liquidations[collateral][user] = now;\n        emit Liquidation(collateral, user, liquidations[collateral][user]);\n    }\n\n    /// @dev Cancels a liquidation process\n    function cancel(bytes32 collateral, address user) public {\n        require(\n            _controller.isCollateralized(collateral, user),\n            \"Liquidations: Vault is undercollateralized\"\n        );\n        // solium-disable-next-line security/no-block-members\n        delete liquidations[collateral][user];\n        emit Liquidation(collateral, user, liquidations[collateral][user]);\n    }\n\n    /// @dev Liquidates a position. The caller pays the debt of `from`, and `buyer` receives an amount of collateral.\n    function buy(bytes32 collateral, address from, address buyer, uint256 daiAmount) public onlyLive {\n        require(\n            liquidations[collateral][from] > 0,\n            \"Liquidations: Vault is not in liquidation\"\n        );\n        /* require(\n            !_controller.isCollateralized(collateral, from),\n            \"Liquidations: Vault is not undercollateralized\"\n        ); */ // Not checking for this, too expensive. Let the user stop the liquidations instead.\n        _treasury.pushDai(buyer, daiAmount);\n\n        // calculate collateral to grab. Using divdrup stops rounding from leaving 1 stray wei in vaults.\n        uint256 tokenAmount = divdrup(daiAmount, price(collateral, from));\n        // grab collateral from controller\n        _controller.grab(collateral, from, daiAmount, tokenAmount);\n\n        if (collateral == WETH){\n            _treasury.pullWeth(buyer, tokenAmount);\n        } else if (collateral == CHAI) {\n            _treasury.pullChai(buyer, tokenAmount);\n        } else {\n            revert(\"Controller: Unsupported collateral\");\n        }\n    }\n\n    /// @dev Return price of a collateral unit, in dai, at the present moment, for a given user\n    // dai = price * collateral\n    //\n    //               posted      1      min(auction, elapsed)\n    // price = 1 / (-------- * (--- + -----------------------))\n    //                debt       2       2 * auction\n    function price(bytes32 collateral, address user) public returns (uint256) {\n        require(\n            liquidations[collateral][user] > 0,\n            \"Liquidations: Vault is not targeted\"\n        );\n        uint256 dividend1 = _controller.posted(collateral, user);\n        uint256 divisor1 = _controller.totalDebtDai(collateral, user);\n        uint256 term1 = dividend1.mul(UNIT).div(divisor1);\n        uint256 dividend3 = Math.min(auctionTime, now - liquidations[collateral][user]);\n        uint256 divisor3 = auctionTime.mul(2);\n        uint256 term2 = UNIT.div(2);\n        uint256 term3 = dividend3.mul(UNIT).div(divisor3);\n        return divd(UNIT, muld(term1, term2.add(term3)));\n    }\n}",
  "sourcePath": "/Users/bruce/dev/yieldprotocol/ytoken-mvp/contracts/Liquidations.sol",
  "compiler": {
    "name": "solc",
    "version": "0.6.10+commit.00c0fcaf.Emscripten.clang"
  },
  "schemaVersion": "3.0.23",
  "updatedAt": "2020-07-15T08:10:31.382Z",
  "networkType": "ethereum",
  "devdoc": {
    "details": "The Liquidations contract allows to liquidate undercollateralized vaults in a reverse Dutch auction. Undercollateralized vaults can be liquidated by calling `liquidate`. Collateral from vaults can be bought with Dai using `buy`. Debt and collateral records will be adjusted in the Controller using `controller.grab`. Dai taken in payment will be handed over to Treasury, and collateral assets bought will be taken from Treasury as well. If a vault becomes colalteralized, the liquidation can be stopped with `cancel`.",
    "methods": {
      "buy(bytes32,address,address,uint256)": {
        "details": "Liquidates a position. The caller pays the debt of `from`, and `buyer` receives an amount of collateral."
      },
      "cancel(bytes32,address)": {
        "details": "Cancels a liquidation process"
      },
      "liquidate(bytes32,address)": {
        "details": "Starts a liquidation process for a given collateral and user."
      },
      "orchestrate(address)": {
        "details": "Add user to the authorized users list"
      },
      "owner()": {
        "details": "Returns the address of the current owner."
      },
      "price(bytes32,address)": {
        "details": "Return price of a collateral unit, in dai, at the present moment, for a given user"
      },
      "renounceOwnership()": {
        "details": "Leaves the contract without owner. It will not be possible to call `onlyOwner` functions anymore. Can only be called by the current owner. NOTE: Renouncing ownership will leave the contract without an owner, thereby removing any functionality that is only available to the owner."
      },
      "shutdown()": {
        "details": "Disables buying at liquidations. To be called only when Treasury shuts down."
      },
      "transferOwnership(address)": {
        "details": "Transfers ownership of the contract to a new account (`newOwner`). Can only be called by the current owner."
      }
    }
  },
  "userdoc": {
    "methods": {}
  }
}