{
  "contractName": "Liquidations",
  "abi": [
    {
      "inputs": [
        {
          "internalType": "address",
          "name": "dai_",
          "type": "address"
        },
        {
          "internalType": "address",
          "name": "treasury_",
          "type": "address"
        },
        {
          "internalType": "address",
          "name": "controller_",
          "type": "address"
        }
      ],
      "stateMutability": "nonpayable",
      "type": "constructor"
    },
    {
      "anonymous": false,
      "inputs": [
        {
          "indexed": true,
          "internalType": "address",
          "name": "user",
          "type": "address"
        },
        {
          "indexed": true,
          "internalType": "address",
          "name": "delegate",
          "type": "address"
        },
        {
          "indexed": false,
          "internalType": "bool",
          "name": "enabled",
          "type": "bool"
        }
      ],
      "name": "Delegate",
      "type": "event"
    },
    {
      "anonymous": false,
      "inputs": [
        {
          "indexed": false,
          "internalType": "address",
          "name": "access",
          "type": "address"
        }
      ],
      "name": "GrantedAccess",
      "type": "event"
    },
    {
      "anonymous": false,
      "inputs": [
        {
          "indexed": true,
          "internalType": "address",
          "name": "user",
          "type": "address"
        },
        {
          "indexed": false,
          "internalType": "uint256",
          "name": "started",
          "type": "uint256"
        },
        {
          "indexed": false,
          "internalType": "uint256",
          "name": "collateral",
          "type": "uint256"
        },
        {
          "indexed": false,
          "internalType": "uint256",
          "name": "debt",
          "type": "uint256"
        }
      ],
      "name": "Liquidation",
      "type": "event"
    },
    {
      "anonymous": false,
      "inputs": [
        {
          "indexed": true,
          "internalType": "address",
          "name": "previousOwner",
          "type": "address"
        },
        {
          "indexed": true,
          "internalType": "address",
          "name": "newOwner",
          "type": "address"
        }
      ],
      "name": "OwnershipTransferred",
      "type": "event"
    },
    {
      "inputs": [],
      "name": "AUCTION_TIME",
      "outputs": [
        {
          "internalType": "uint256",
          "name": "",
          "type": "uint256"
        }
      ],
      "stateMutability": "view",
      "type": "function",
      "constant": true
    },
    {
      "inputs": [],
      "name": "DUST",
      "outputs": [
        {
          "internalType": "uint256",
          "name": "",
          "type": "uint256"
        }
      ],
      "stateMutability": "view",
      "type": "function",
      "constant": true
    },
    {
      "inputs": [],
      "name": "FEE",
      "outputs": [
        {
          "internalType": "uint128",
          "name": "",
          "type": "uint128"
        }
      ],
      "stateMutability": "view",
      "type": "function",
      "constant": true
    },
    {
      "inputs": [],
      "name": "UNIT",
      "outputs": [
        {
          "internalType": "uint256",
          "name": "",
          "type": "uint256"
        }
      ],
      "stateMutability": "view",
      "type": "function",
      "constant": true
    },
    {
      "inputs": [],
      "name": "WETH",
      "outputs": [
        {
          "internalType": "bytes32",
          "name": "",
          "type": "bytes32"
        }
      ],
      "stateMutability": "view",
      "type": "function",
      "constant": true
    },
    {
      "inputs": [
        {
          "internalType": "address",
          "name": "delegate",
          "type": "address"
        }
      ],
      "name": "addDelegate",
      "outputs": [],
      "stateMutability": "nonpayable",
      "type": "function"
    },
    {
      "inputs": [
        {
          "internalType": "address",
          "name": "",
          "type": "address"
        }
      ],
      "name": "authorized",
      "outputs": [
        {
          "internalType": "bool",
          "name": "",
          "type": "bool"
        }
      ],
      "stateMutability": "view",
      "type": "function",
      "constant": true
    },
    {
      "inputs": [
        {
          "internalType": "address",
          "name": "",
          "type": "address"
        },
        {
          "internalType": "address",
          "name": "",
          "type": "address"
        }
      ],
      "name": "delegated",
      "outputs": [
        {
          "internalType": "bool",
          "name": "",
          "type": "bool"
        }
      ],
      "stateMutability": "view",
      "type": "function",
      "constant": true
    },
    {
      "inputs": [
        {
          "internalType": "address",
          "name": "",
          "type": "address"
        }
      ],
      "name": "liquidations",
      "outputs": [
        {
          "internalType": "uint256",
          "name": "",
          "type": "uint256"
        }
      ],
      "stateMutability": "view",
      "type": "function",
      "constant": true
    },
    {
      "inputs": [],
      "name": "live",
      "outputs": [
        {
          "internalType": "bool",
          "name": "",
          "type": "bool"
        }
      ],
      "stateMutability": "view",
      "type": "function",
      "constant": true
    },
    {
      "inputs": [
        {
          "internalType": "address",
          "name": "user",
          "type": "address"
        }
      ],
      "name": "orchestrate",
      "outputs": [],
      "stateMutability": "nonpayable",
      "type": "function"
    },
    {
      "inputs": [],
      "name": "owner",
      "outputs": [
        {
          "internalType": "address",
          "name": "",
          "type": "address"
        }
      ],
      "stateMutability": "view",
      "type": "function",
      "constant": true
    },
    {
      "inputs": [],
      "name": "renounceOwnership",
      "outputs": [],
      "stateMutability": "nonpayable",
      "type": "function"
    },
    {
      "inputs": [
        {
          "internalType": "address",
          "name": "delegate",
          "type": "address"
        }
      ],
      "name": "revokeDelegate",
      "outputs": [],
      "stateMutability": "nonpayable",
      "type": "function"
    },
    {
      "inputs": [
        {
          "internalType": "address",
          "name": "newOwner",
          "type": "address"
        }
      ],
      "name": "transferOwnership",
      "outputs": [],
      "stateMutability": "nonpayable",
      "type": "function"
    },
    {
      "inputs": [
        {
          "internalType": "address",
          "name": "",
          "type": "address"
        }
      ],
      "name": "vaults",
      "outputs": [
        {
          "internalType": "uint128",
          "name": "collateral",
          "type": "uint128"
        },
        {
          "internalType": "uint128",
          "name": "debt",
          "type": "uint128"
        }
      ],
      "stateMutability": "view",
      "type": "function",
      "constant": true
    },
    {
      "inputs": [],
      "name": "shutdown",
      "outputs": [],
      "stateMutability": "nonpayable",
      "type": "function"
    },
    {
      "inputs": [
        {
          "internalType": "address",
          "name": "user",
          "type": "address"
        }
      ],
      "name": "aboveDustOrZero",
      "outputs": [
        {
          "internalType": "bool",
          "name": "",
          "type": "bool"
        }
      ],
      "stateMutability": "view",
      "type": "function",
      "constant": true
    },
    {
      "inputs": [
        {
          "internalType": "address",
          "name": "user",
          "type": "address"
        },
        {
          "internalType": "address",
          "name": "to",
          "type": "address"
        }
      ],
      "name": "liquidate",
      "outputs": [],
      "stateMutability": "nonpayable",
      "type": "function"
    },
    {
      "inputs": [
        {
          "internalType": "address",
          "name": "from",
          "type": "address"
        },
        {
          "internalType": "address",
          "name": "to",
          "type": "address"
        },
        {
          "internalType": "address",
          "name": "liquidated",
          "type": "address"
        },
        {
          "internalType": "uint256",
          "name": "daiAmount",
          "type": "uint256"
        }
      ],
      "name": "buy",
      "outputs": [
        {
          "internalType": "uint256",
          "name": "",
          "type": "uint256"
        }
      ],
      "stateMutability": "nonpayable",
      "type": "function"
    },
    {
      "inputs": [
        {
          "internalType": "address",
          "name": "from",
          "type": "address"
        },
        {
          "internalType": "address",
          "name": "to",
          "type": "address"
        },
        {
          "internalType": "uint256",
          "name": "tokenAmount",
          "type": "uint256"
        }
      ],
      "name": "withdraw",
      "outputs": [],
      "stateMutability": "nonpayable",
      "type": "function"
    },
    {
      "inputs": [
        {
          "internalType": "address",
          "name": "user",
          "type": "address"
        }
      ],
      "name": "price",
      "outputs": [
        {
          "internalType": "uint256",
          "name": "",
          "type": "uint256"
        }
      ],
      "stateMutability": "view",
      "type": "function",
      "constant": true
    }
  ],
  "bytecode": "0x60806040526008805460ff1916600117905534801561001d57600080fd5b506040516118da3803806118da8339818101604052606081101561004057600080fd5b508051602082015160409092015190919060006100646001600160e01b036100f016565b600080546001600160a01b0319166001600160a01b0383169081178255604051929350917f8be0079c531659141344cd1fd0a4f28419497f9722a3daafe3b4186f6b6457e0908290a350600380546001600160a01b039485166001600160a01b0319918216179091556004805493851693821693909317909255600580549190931691161790556100f4565b3390565b6117d7806101036000396000f3fe608060405234801561001057600080fd5b50600436106101425760003560e01c8063b9181611116100b8578063e71bdf411161007c578063e71bdf4114610355578063e8cdcc991461037b578063f2fde38b146103b7578063f6bcbd31146103dd578063fa352c001461040b578063fc0e74d11461043157610142565b8063b9181611146102a7578063c57981b5146102cd578063d9caed12146102f1578063e5442a9e14610327578063e592301a1461034d57610142565b8063937d4c421161010a578063937d4c42146101e3578063957aa58c146102095780639d8e217714610225578063a622ee7c1461022d578063ad5c464814610279578063aea910781461028157610142565b80634e0cd79914610147578063715018a61461016157806380f5a4401461016b57806386b9d81f146101915780638da5cb5b146101bf575b600080fd5b61014f610439565b60408051918252519081900360200190f35b610169610444565b005b6101696004803603602081101561018157600080fd5b50356001600160a01b03166104f8565b610169600480360360408110156101a757600080fd5b506001600160a01b03813581169160200135166105be565b6101c76108b0565b604080516001600160a01b039092168252519081900360200190f35b61014f600480360360208110156101f957600080fd5b50356001600160a01b03166108bf565b6102116108d1565b604080519115158252519081900360200190f35b61014f6108da565b6102536004803603602081101561024357600080fd5b50356001600160a01b03166108e9565b604080516001600160801b03938416815291909216602082015281519081900390910190f35b61014f61090f565b61014f6004803603602081101561029757600080fd5b50356001600160a01b031661091b565b610211600480360360208110156102bd57600080fd5b50356001600160a01b0316610a7e565b6102d5610439565b604080516001600160801b039092168252519081900360200190f35b6101696004803603606081101561030757600080fd5b506001600160a01b03813581169160208101359091169060400135610a93565b6102116004803603602081101561033d57600080fd5b50356001600160a01b0316610ccf565b61014f610d0b565b6101696004803603602081101561036b57600080fd5b50356001600160a01b0316610d11565b61014f6004803603608081101561039157600080fd5b506001600160a01b03813581169160208101358216916040820135169060600135610d7d565b610169600480360360208110156103cd57600080fd5b50356001600160a01b03166110fa565b610211600480360360408110156103f357600080fd5b506001600160a01b0381358116916020013516611204565b6101696004803603602081101561042157600080fd5b50356001600160a01b0316611224565b610169611287565b6658d15e1762800081565b61044c611353565b6000546001600160a01b039081169116146104ae576040805162461bcd60e51b815260206004820181905260248201527f4f776e61626c653a2063616c6c6572206973206e6f7420746865206f776e6572604482015290519081900360640190fd5b600080546040516001600160a01b03909116907f8be0079c531659141344cd1fd0a4f28419497f9722a3daafe3b4186f6b6457e0908390a3600080546001600160a01b0319169055565b610500611353565b6000546001600160a01b03908116911614610562576040805162461bcd60e51b815260206004820181905260248201527f4f776e61626c653a2063616c6c6572206973206e6f7420746865206f776e6572604482015290519081900360640190fd5b6001600160a01b038116600081815260016020818152604092839020805460ff1916909217909155815192835290517f6a7c5f28ea564fafc8b079663a2a9b9d26fe735d97c97611484ce044f40a16e29281900390910190a150565b6001600160a01b038216600090815260066020526040902054156106135760405162461bcd60e51b815260040180806020018281038252602d8152602001806116e1602d913960400191505060405180910390fd5b600554604080516301eb4a7d60e61b8152644554482d4160d81b60048201526001600160a01b03858116602483015291519190921691637ad29f40916044808301926020929190829003018186803b15801561066e57600080fd5b505afa158015610682573d6000803e3d6000fd5b505050506040513d602081101561069857600080fd5b5051156106d65760405162461bcd60e51b815260040180806020018281038252602e8152602001806116b3602e913960400191505060405180910390fd5b6001600160a01b0380831660008181526006602052604080822042905560055481516306a621df60e11b8152644554482d4160d81b60048201526024810194909452815192948594911692630d4c43be9260448084019391929182900301818787803b15801561074557600080fd5b505af1158015610759573d6000803e3d6000fd5b505050506040513d604081101561076f57600080fd5b508051602090910151604080518082019091529193509150806107a161079485611357565b6658d15e176280006113b1565b6001600160801b031681526020016107b883611357565b6001600160801b039081169091526001600160a01b0380871660009081526007602090815260408083208651815497909301518616600160801b029286166001600160801b0319909716969096178516919091179094559086168152919091205461082b91166658d15e17628000611425565b6001600160a01b0380851660009081526007602090815260409182902080546001600160801b03959095166001600160801b031990951694909417909355805142815292830185905282810184905251908616917f1a1072eb98424f51d9ad56526f05cd82dc46f8965a96b7c421f18275753d248c919081900360600190a250505050565b6000546001600160a01b031690565b60066020526000908152604090205481565b60085460ff1681565b676765c793fa10079d601b1b81565b6007602052600090815260409020546001600160801b0380821691600160801b90041682565b644554482d4160d81b81565b6001600160a01b03811660009081526006602052604081205461096f5760405162461bcd60e51b81526004018080602001828103825260238152602001806117586023913960400191505060405180910390fd5b6001600160a01b0382166000908152600760205260408120546001600160801b0380821692600160801b90920416906109c9826109bd85676765c793fa10079d601b1b63ffffffff61148b16565b9063ffffffff6114e416565b6001600160a01b038616600090815260066020526040812054919250906109f590610e10904203611526565b90506000610a0c610e10600263ffffffff61148b16565b90506000610a2c676765c793fa10079d601b1b600263ffffffff6114e416565b90506000610a4f836109bd86676765c793fa10079d601b1b63ffffffff61148b16565b9050610a71676765c793fa10079d601b1b610a6c8784860161153c565b61155d565b9998505050505050505050565b60016020526000908152604090205460ff1681565b60085460ff161515600114610ad95760405162461bcd60e51b815260040180806020018281038252602781526020018061168c6027913960400191505060405180910390fd5b8260405180606001604052806023815260200161166960239139336001600160a01b0383161480610b2d57506001600160a01b038216600090815260026020908152604080832033845290915290205460ff165b8190610bb75760405162461bcd60e51b81526004018080602001828103825283818151815260200191508051906020019080838360005b83811015610b7c578181015183820152602001610b64565b50505050905090810190601f168015610ba95780820380516001836020036101000a031916815260200191505b509250505060405180910390fd5b506001600160a01b03851660009081526007602052604090208054600160801b90046001600160801b031615610c1e5760405162461bcd60e51b815260040180806020018281038252602781526020018061177b6027913960400191505060405180910390fd5b8054610c3b906001600160801b0316610c3686611357565b6113b1565b81546001600160801b0319166001600160801b039190911617815560048054604080516322b25b7f60e21b81526001600160a01b03898116948201949094526024810188905290519290911691638ac96dfc9160448082019260009290919082900301818387803b158015610caf57600080fd5b505af1158015610cc3573d6000803e3d6000fd5b50505050505050505050565b6001600160a01b0381166000908152600760205260408120546001600160801b0316801580610d045750806658d15e17628000105b9392505050565b610e1081565b3360008181526002602090815260408083206001600160a01b03861680855290835292819020805460ff19166001908117909155815190815290519293927f045b0fef01772d2fbba53dbd38c9777806eac0865b00af43abcfbcaf50da9206929181900390910190a350565b60085460009060ff161515600114610dc65760405162461bcd60e51b815260040180806020018281038252602781526020018061168c6027913960400191505060405180910390fd5b8460405180606001604052806023815260200161166960239139336001600160a01b0383161480610e1a57506001600160a01b038216600090815260026020908152604080832033845290915290205460ff165b8190610e675760405162461bcd60e51b8152602060048201818152835160248401528351909283926044909101919085019080838360008315610b7c578181015183820152602001610b64565b506001600160a01b038516600090815260076020526040902054600160801b90046001600160801b0316610ecc5760405162461bcd60e51b815260040180806020018281038252602981526020018061172f6029913960400191505060405180910390fd5b600480546040805163f939199160e01b81526001600160a01b038b811694820194909452602481018890529051929091169163f93919919160448082019260009290919082900301818387803b158015610f2557600080fd5b505af1158015610f39573d6000803e3d6000fd5b505050506000610f5185610f4c8861091b565b61157e565b9050610f5b61162b565b6040805180820182526001600160a01b0389166000908152600760205291909120548190610f95906001600160801b0316610c3686611357565b6001600160801b0390811682526001600160a01b038a16600090815260076020908152604090912054920191610fd791600160801b90910416610c368a611357565b6001600160801b039081169091526001600160a01b03808a16600090815260076020908152604080832086518154938801518716600160801b029087166001600160801b031990941693909317909516919091179093556004805484516322b25b7f60e21b81528e8516928101929092526024820188905293519495509290911692638ac96dfc92604480820193929182900301818387803b15801561107c57600080fd5b505af1158015611090573d6000803e3d6000fd5b5050505061109d87610ccf565b6110ee576040805162461bcd60e51b815260206004820152601860248201527f4c69717569646174696f6e733a2042656c6f7720647573740000000000000000604482015290519081900360640190fd5b50979650505050505050565b611102611353565b6000546001600160a01b03908116911614611164576040805162461bcd60e51b815260206004820181905260248201527f4f776e61626c653a2063616c6c6572206973206e6f7420746865206f776e6572604482015290519081900360640190fd5b6001600160a01b0381166111a95760405162461bcd60e51b81526004018080602001828103825260268152602001806116436026913960400191505060405180910390fd5b600080546040516001600160a01b03808516939216917f8be0079c531659141344cd1fd0a4f28419497f9722a3daafe3b4186f6b6457e091a3600080546001600160a01b0319166001600160a01b0392909216919091179055565b600260209081526000928352604080842090915290825290205460ff1681565b3360008181526002602090815260408083206001600160a01b038616808552908352818420805460ff19169055815193845290519093927f045b0fef01772d2fbba53dbd38c9777806eac0865b00af43abcfbcaf50da920692908290030190a350565b600480546040805163255ea96360e21b815290516001600160a01b039092169263957aa58c928282019260209290829003018186803b1580156112c957600080fd5b505afa1580156112dd573d6000803e3d6000fd5b505050506040513d60208110156112f357600080fd5b505115611347576040805162461bcd60e51b815260206004820152601e60248201527f4c69717569646174696f6e733a205472656173757279206973206c6976650000604482015290519081900360640190fd5b6008805460ff19169055565b3390565b60006001600160801b038211156113ad576040805162461bcd60e51b81526020600482015260156024820152744d61726b65743a2043617374206f766572666c6f7760581b604482015290519081900360640190fd5b5090565b6000826001600160801b0316826001600160801b0316111561141a576040805162461bcd60e51b815260206004820152601d60248201527f4d61726b65743a207944616920726573657276657320746f6f206c6f77000000604482015290519081900360640190fd5b508082035b92915050565b60008282016001600160801b038085169082161015610d04576040805162461bcd60e51b815260206004820152601d60248201527f4d61726b65743a2044616920726573657276657320746f6f2068696768000000604482015290519081900360640190fd5b60008261149a5750600061141f565b828202828482816114a757fe5b0414610d045760405162461bcd60e51b815260040180806020018281038252602181526020018061170e6021913960400191505060405180910390fd5b6000610d0483836040518060400160405280601a81526020017f536166654d6174683a206469766973696f6e206279207a65726f0000000000008152506115c6565b60008183106115355781610d04565b5090919050565b6000610d04676765c793fa10079d601b1b6109bd858563ffffffff61148b16565b6000610d04826109bd85676765c793fa10079d601b1b63ffffffff61148b16565b6000806115a1836109bd866b204fce5e3e2502611000000063ffffffff61148b16565b9050600a8106156115bb57600a810460010191505061141f565b600a9004905061141f565b600081836116155760405162461bcd60e51b8152602060048201818152835160248401528351909283926044909101919085019080838360008315610b7c578181015183820152602001610b64565b50600083858161162157fe5b0495945050505050565b60408051808201909152600080825260208201529056fe4f776e61626c653a206e6577206f776e657220697320746865207a65726f2061646472657373436f6e74726f6c6c65723a204f6e6c7920486f6c646572204f722044656c6567617465436f6e74726f6c6c65723a204e6f7420617661696c61626c6520647572696e6720756e77696e644c69717569646174696f6e733a205661756c74206973206e6f7420756e646572636f6c6c61746572616c697a65644c69717569646174696f6e733a205661756c7420697320616c726561647920696e206c69717569646174696f6e536166654d6174683a206d756c7469706c69636174696f6e206f766572666c6f774c69717569646174696f6e733a205661756c74206973206e6f7420696e206c69717569646174696f6e4c69717569646174696f6e733a205661756c74206973206e6f742074617267657465644c69717569646174696f6e733a2055736572207374696c6c20696e206c69717569646174696f6ea26469706673582212201054a03b1190158b19e8fd6ebf247b2d507529eeeaa665887046494e304d234c64736f6c634300060a0033",
  "immutableReferences": {},
  "source": "// SPDX-License-Identifier: GPL-3.0-or-later\r\npragma solidity ^0.6.10;\r\n\r\nimport \"@openzeppelin/contracts/token/ERC20/IERC20.sol\";\r\nimport \"@openzeppelin/contracts/math/Math.sol\";\r\nimport \"./interfaces/IController.sol\";\r\nimport \"./interfaces/ILiquidations.sol\";\r\nimport \"./interfaces/ITreasury.sol\";\r\nimport \"./helpers/DecimalMath.sol\";\r\nimport \"./helpers/Delegable.sol\";\r\nimport \"./helpers/Orchestrated.sol\";\r\nimport \"@nomiclabs/buidler/console.sol\";\r\n\r\n\r\n/**\r\n * @dev The Liquidations contract allows to liquidate undercollateralized weth vaults in a reverse Dutch auction.\r\n * Undercollateralized vaults can be liquidated by calling `liquidate`.\r\n * Collateral from vaults can be bought with Dai using `buy`.\r\n * Debt and collateral records will be adjusted in the Controller using `controller.grab`.\r\n * Dai taken in payment will be handed over to Treasury, and collateral assets bought will be taken from Treasury as well.\r\n * If a vault becomes colalteralized, the liquidation can be stopped with `cancel`.\r\n */\r\ncontract Liquidations is ILiquidations, Orchestrated(), Delegable(), DecimalMath {\r\n\r\n    event Liquidation(address indexed user, uint256 started, uint256 collateral, uint256 debt);\r\n\r\n    bytes32 public constant WETH = \"ETH-A\";\r\n    uint256 public constant AUCTION_TIME = 3600;\r\n    uint256 public constant DUST = 25000000000000000; // 0.025 ETH\r\n    uint128 public constant FEE = 25000000000000000; // 0.025 ETH\r\n\r\n    IERC20 internal _dai;\r\n    ITreasury internal _treasury;\r\n    IController internal _controller;\r\n\r\n    struct Vault {\r\n        uint128 collateral;\r\n        uint128 debt;\r\n    }\r\n\r\n    mapping(address => uint256) public liquidations;\r\n    mapping(address => Vault) public vaults;\r\n\r\n    bool public live = true;\r\n\r\n    /// @dev The Liquidations constructor links it to the Dai, Treasury and Controller contracts.\r\n    constructor (\r\n        address dai_,\r\n        address treasury_,\r\n        address controller_\r\n    ) public {\r\n        _dai = IERC20(dai_);\r\n        _treasury = ITreasury(treasury_);\r\n        _controller = IController(controller_);\r\n    }\r\n\r\n    /// @dev Only while Liquidations is not unwinding due to a MakerDAO shutdown.\r\n    modifier onlyLive() {\r\n        require(live == true, \"Controller: Not available during unwind\");\r\n        _;\r\n    }\r\n\r\n    /// @dev Overflow-protected addition, from OpenZeppelin\r\n    function add(uint128 a, uint128 b)\r\n        internal pure returns (uint128)\r\n    {\r\n        uint128 c = a + b;\r\n        require(c >= a, \"Market: Dai reserves too high\");\r\n\r\n        return c;\r\n    }\r\n\r\n    /// @dev Overflow-protected substraction, from OpenZeppelin\r\n    function sub(uint128 a, uint128 b) internal pure returns (uint128) {\r\n        require(b <= a, \"Market: yDai reserves too low\");\r\n        uint128 c = a - b;\r\n\r\n        return c;\r\n    }\r\n\r\n    /// @dev Safe casting from uint256 to uint128\r\n    function toUint128(uint256 x) internal pure returns(uint128) {\r\n        require(\r\n            x <= 340282366920938463463374607431768211455,\r\n            \"Market: Cast overflow\"\r\n        );\r\n        return uint128(x);\r\n    }\r\n\r\n    /// @dev Disables buying at liquidations. To be called only when Treasury shuts down.\r\n    function shutdown() public override {\r\n        require(\r\n            _treasury.live() == false,\r\n            \"Liquidations: Treasury is live\"\r\n        );\r\n        live = false;\r\n    }\r\n\r\n\r\n    /// @dev Return if the debt of an user is between zero and the dust level\r\n    /// @param user Address of the user vault\r\n    function aboveDustOrZero(address user) public view returns (bool) {\r\n        uint256 collateral = vaults[user].collateral;\r\n        return collateral == 0 || DUST < collateral;\r\n    }\r\n\r\n    /// @dev Starts a liquidation process for an undercollateralized vault.\r\n    /// A liquidation fee is transferred from the liquidated user to a designated account as payment.\r\n    /// @param user Address of the user vault to liquidate.\r\n    /// @param to Address of the liquidations account to receive the liquidation fee.\r\n    function liquidate(address user, address to) public {\r\n        require(\r\n            liquidations[user] == 0,\r\n            \"Liquidations: Vault is already in liquidation\"\r\n        );\r\n        require(\r\n            !_controller.isCollateralized(WETH, user),\r\n            \"Liquidations: Vault is not undercollateralized\"\r\n        );\r\n        // solium-disable-next-line security/no-block-members\r\n        liquidations[user] = now;\r\n\r\n        (uint256 userCollateral, uint256 userDebt) = _controller.erase(WETH, user);\r\n        vaults[user] = Vault({\r\n            collateral: sub(toUint128(userCollateral), FEE),\r\n            debt: toUint128(userDebt)\r\n        });\r\n        vaults[to].collateral = add(vaults[to].collateral, FEE);\r\n\r\n        emit Liquidation(user, now, userCollateral, userDebt);\r\n    }\r\n\r\n    /// @dev Buy a portion of a position under liquidation.\r\n    /// The caller pays the debt of `user`, and `from` receives an amount of collateral.\r\n    /// `from` can delegate to other addresses to buy for him. Also needs to use `ERC20.approve`.\r\n    /// @param liquidated Address of the user vault to liquidate.\r\n    /// @param from Address of the wallet paying Dai for liquidated collateral.\r\n    /// @param to Address of the wallet to send the obtained collateral to.\r\n    /// @param daiAmount Amount of Dai to give in exchange for liquidated collateral.\r\n    /// @return The amount of collateral obtained.\r\n    function buy(address from, address to, address liquidated, uint256 daiAmount)\r\n        public onlyLive\r\n        onlyHolderOrDelegate(from, \"Controller: Only Holder Or Delegate\")\r\n        returns (uint256)\r\n    {\r\n        require(\r\n            vaults[liquidated].debt > 0,\r\n            \"Liquidations: Vault is not in liquidation\"\r\n        );\r\n        _treasury.pushDai(from, daiAmount);\r\n\r\n        // calculate collateral to grab. Using divdrup stops rounding from leaving 1 stray wei in vaults.\r\n        uint256 tokenAmount = divdrup(daiAmount, price(liquidated));\r\n\r\n        Vault memory vault = Vault({\r\n            collateral: sub(vaults[liquidated].collateral, toUint128(tokenAmount)),\r\n            debt: sub(vaults[liquidated].debt, toUint128(daiAmount))\r\n        });\r\n        vaults[liquidated] = vault;\r\n\r\n        _treasury.pullWeth(to, tokenAmount);\r\n\r\n        require(\r\n            aboveDustOrZero(liquidated),\r\n            \"Liquidations: Below dust\"\r\n        );\r\n\r\n        return tokenAmount;\r\n    }\r\n\r\n    /// @dev Retrieve weth from a liquidations account. This weth could come from liquidator fees or as remainders of liquidations.\r\n    /// `from` can delegate to other addresses to withdraw from him.\r\n    /// @param from Address of the liquidations user vault to withdraw weth from.\r\n    /// @param to Address of the wallet receiving the withdrawn weth.\r\n    /// @param tokenAmount Amount of Weth to withdraw.\r\n    function withdraw(address from, address to, uint256 tokenAmount)\r\n        public onlyLive\r\n        onlyHolderOrDelegate(from, \"Controller: Only Holder Or Delegate\")\r\n    {\r\n        Vault storage vault = vaults[from];\r\n        require(\r\n            vault.debt == 0,\r\n            \"Liquidations: User still in liquidation\"\r\n        );\r\n\r\n        vault.collateral = sub(vault.collateral, toUint128(tokenAmount));\r\n\r\n        _treasury.pullWeth(to, tokenAmount);\r\n    }\r\n\r\n\r\n    /// @dev Return price of a collateral unit, in dai, at the present moment, for a given user\r\n    /// @param user Address of the user vault in liquidation.\r\n    // dai = price * collateral\r\n    //\r\n    //                collateral      1      min(auction, elapsed)\r\n    // price = 1 / (------------- * (--- + -----------------------))\r\n    //                   debt         2       2 * auction\r\n    function price(address user) public view returns (uint256) {\r\n        require(\r\n            liquidations[user] > 0,\r\n            \"Liquidations: Vault is not targeted\"\r\n        );\r\n        uint256 dividend1 = uint256(vaults[user].collateral);\r\n        uint256 divisor1 = uint256(vaults[user].debt);\r\n        uint256 term1 = dividend1.mul(UNIT).div(divisor1);\r\n        uint256 dividend3 = Math.min(AUCTION_TIME, now - liquidations[user]); // - unlikely to overflow\r\n        uint256 divisor3 = AUCTION_TIME.mul(2);\r\n        uint256 term2 = UNIT.div(2);\r\n        uint256 term3 = dividend3.mul(UNIT).div(divisor3);\r\n        return divd(UNIT, muld(term1, term2 + term3)); // + unlikely to overflow\r\n    }\r\n}\r\n",
  "sourcePath": "C:/Users/bruce/dev/yield/yDai/contracts/Liquidations.sol",
  "compiler": {
    "name": "solc",
    "version": "0.6.10+commit.00c0fcaf.Emscripten.clang"
  },
  "schemaVersion": "3.2.3",
  "updatedAt": "2020-07-29T20:51:32.483Z",
  "networkType": "ethereum",
  "devdoc": {
    "details": "The Liquidations contract allows to liquidate undercollateralized weth vaults in a reverse Dutch auction. Undercollateralized vaults can be liquidated by calling `liquidate`. Collateral from vaults can be bought with Dai using `buy`. Debt and collateral records will be adjusted in the Controller using `controller.grab`. Dai taken in payment will be handed over to Treasury, and collateral assets bought will be taken from Treasury as well. If a vault becomes colalteralized, the liquidation can be stopped with `cancel`.",
    "methods": {
      "aboveDustOrZero(address)": {
        "details": "Return if the debt of an user is between zero and the dust level",
        "params": {
          "user": "Address of the user vault"
        }
      },
      "addDelegate(address)": {
        "details": "Enable a delegate to act on the behalf of caller"
      },
      "buy(address,address,address,uint256)": {
        "details": "Buy a portion of a position under liquidation. The caller pays the debt of `user`, and `from` receives an amount of collateral. `from` can delegate to other addresses to buy for him. Also needs to use `ERC20.approve`.",
        "params": {
          "daiAmount": "Amount of Dai to give in exchange for liquidated collateral.",
          "from": "Address of the wallet paying Dai for liquidated collateral.",
          "liquidated": "Address of the user vault to liquidate.",
          "to": "Address of the wallet to send the obtained collateral to."
        },
        "returns": {
          "_0": "The amount of collateral obtained."
        }
      },
      "constructor": {
        "details": "The Liquidations constructor links it to the Dai, Treasury and Controller contracts."
      },
      "liquidate(address,address)": {
        "details": "Starts a liquidation process for an undercollateralized vault. A liquidation fee is transferred from the liquidated user to a designated account as payment.",
        "params": {
          "to": "Address of the liquidations account to receive the liquidation fee.",
          "user": "Address of the user vault to liquidate."
        }
      },
      "orchestrate(address)": {
        "details": "Add user to the authorized users list"
      },
      "owner()": {
        "details": "Returns the address of the current owner."
      },
      "price(address)": {
        "details": "Return price of a collateral unit, in dai, at the present moment, for a given user",
        "params": {
          "user": "Address of the user vault in liquidation."
        }
      },
      "renounceOwnership()": {
        "details": "Leaves the contract without owner. It will not be possible to call `onlyOwner` functions anymore. Can only be called by the current owner. NOTE: Renouncing ownership will leave the contract without an owner, thereby removing any functionality that is only available to the owner."
      },
      "revokeDelegate(address)": {
        "details": "Stop a delegate from acting on the behalf of caller"
      },
      "shutdown()": {
        "details": "Disables buying at liquidations. To be called only when Treasury shuts down."
      },
      "transferOwnership(address)": {
        "details": "Transfers ownership of the contract to a new account (`newOwner`). Can only be called by the current owner."
      },
      "withdraw(address,address,uint256)": {
        "details": "Retrieve weth from a liquidations account. This weth could come from liquidator fees or as remainders of liquidations. `from` can delegate to other addresses to withdraw from him.",
        "params": {
          "from": "Address of the liquidations user vault to withdraw weth from.",
          "to": "Address of the wallet receiving the withdrawn weth.",
          "tokenAmount": "Amount of Weth to withdraw."
        }
      }
    }
  },
  "userdoc": {
    "methods": {}
  }
}