{
  "contractName": "LiquidityProxy",
  "abi": [
    {
      "inputs": [
        {
          "internalType": "address",
          "name": "dai_",
          "type": "address"
        },
        {
          "internalType": "address",
          "name": "chai_",
          "type": "address"
        },
        {
          "internalType": "address",
          "name": "treasury_",
          "type": "address"
        },
        {
          "internalType": "address",
          "name": "controller_",
          "type": "address"
        },
        {
          "internalType": "address",
          "name": "pool_",
          "type": "address"
        }
      ],
      "stateMutability": "nonpayable",
      "type": "constructor"
    },
    {
      "inputs": [],
      "name": "CHAI",
      "outputs": [
        {
          "internalType": "bytes32",
          "name": "",
          "type": "bytes32"
        }
      ],
      "stateMutability": "view",
      "type": "function"
    },
    {
      "inputs": [],
      "name": "chai",
      "outputs": [
        {
          "internalType": "contract IChai",
          "name": "",
          "type": "address"
        }
      ],
      "stateMutability": "view",
      "type": "function"
    },
    {
      "inputs": [],
      "name": "controller",
      "outputs": [
        {
          "internalType": "contract IController",
          "name": "",
          "type": "address"
        }
      ],
      "stateMutability": "view",
      "type": "function"
    },
    {
      "inputs": [],
      "name": "dai",
      "outputs": [
        {
          "internalType": "contract IERC20",
          "name": "",
          "type": "address"
        }
      ],
      "stateMutability": "view",
      "type": "function"
    },
    {
      "inputs": [],
      "name": "maturity",
      "outputs": [
        {
          "internalType": "uint256",
          "name": "",
          "type": "uint256"
        }
      ],
      "stateMutability": "view",
      "type": "function"
    },
    {
      "inputs": [],
      "name": "pool",
      "outputs": [
        {
          "internalType": "contract IPool",
          "name": "",
          "type": "address"
        }
      ],
      "stateMutability": "view",
      "type": "function"
    },
    {
      "inputs": [],
      "name": "yDai",
      "outputs": [
        {
          "internalType": "contract IYDai",
          "name": "",
          "type": "address"
        }
      ],
      "stateMutability": "view",
      "type": "function"
    },
    {
      "inputs": [
        {
          "internalType": "uint256",
          "name": "daiUsed",
          "type": "uint256"
        },
        {
          "internalType": "uint256",
          "name": "maxYDai",
          "type": "uint256"
        }
      ],
      "name": "addLiquidity",
      "outputs": [
        {
          "internalType": "uint256",
          "name": "",
          "type": "uint256"
        }
      ],
      "stateMutability": "nonpayable",
      "type": "function"
    },
    {
      "inputs": [
        {
          "internalType": "uint256",
          "name": "poolTokens",
          "type": "uint256"
        },
        {
          "internalType": "uint256",
          "name": "minimumDai",
          "type": "uint256"
        }
      ],
      "name": "removeLiquidityEarly",
      "outputs": [],
      "stateMutability": "nonpayable",
      "type": "function"
    },
    {
      "inputs": [
        {
          "internalType": "uint256",
          "name": "poolTokens",
          "type": "uint256"
        }
      ],
      "name": "removeLiquidityMature",
      "outputs": [],
      "stateMutability": "nonpayable",
      "type": "function"
    }
  ],
  "bytecode": "0x60a06040523480156200001157600080fd5b5060405162001ac838038062001ac8833981810160405260a08110156200003757600080fd5b5080516020808301516040808501516060860151608090960151600080546001600160a01b03199081166001600160a01b03808a1691909117909255600180548216838816179055600280548216838b161790556004805490911682841617808255855163aef52e3f60e01b81529551989996989497939592169363aef52e3f9383830193909290829003018186803b158015620000d457600080fd5b505afa158015620000e9573d6000803e3d6000fd5b505050506040513d60208110156200010057600080fd5b5051600380546001600160a01b0319166001600160a01b0392831617908190556040805163204f83f960e01b81529051919092169163204f83f9916004808301926020929190829003018186803b1580156200015b57600080fd5b505afa15801562000170573d6000803e3d6000fd5b505050506040513d60208110156200018757600080fd5b50516080526002546003546040805163204f83f960e01b815290516001600160a01b039384169363d0a3a7e493169163204f83f9916004808301926020929190829003018186803b158015620001dc57600080fd5b505afa158015620001f1573d6000803e3d6000fd5b505050506040513d60208110156200020857600080fd5b5051604080516001600160e01b031960e085901b1681526004810192909252516024808301926020929190829003018186803b1580156200024857600080fd5b505afa1580156200025d573d6000803e3d6000fd5b505050506040513d60208110156200027457600080fd5b5051620002b35760405162461bcd60e51b815260040180806020018281038252602e81526020018062001a9a602e913960400191505060405180910390fd5b600080546001546040805163095ea7b360e01b81526001600160a01b03928316600482015260001960248201529051919092169263095ea7b392604480820193602093909283900390910190829087803b1580156200031157600080fd5b505af115801562000326573d6000803e3d6000fd5b505050506040513d60208110156200033d57600080fd5b505060008054600480546040805163095ea7b360e01b81526001600160a01b039283169381019390935260001960248401525192169263095ea7b3926044808401936020939083900390910190829087803b1580156200039c57600080fd5b505af1158015620003b1573d6000803e3d6000fd5b505050506040513d6020811015620003c857600080fd5b5050600354600480546040805163095ea7b360e01b81526001600160a01b039283169381019390935260001960248401525192169163095ea7b3916044808201926020929091908290030181600087803b1580156200042657600080fd5b505af11580156200043b573d6000803e3d6000fd5b505050506040513d60208110156200045257600080fd5b50506001546040805163095ea7b360e01b81526001600160a01b03868116600483015260001960248301529151919092169163095ea7b39160448083019260209291908290030181600087803b158015620004ac57600080fd5b505af1158015620004c1573d6000803e3d6000fd5b505050506040513d6020811015620004d857600080fd5b5050600080546040805163095ea7b360e01b81526001600160a01b03878116600483015260001960248301529151919092169263095ea7b392604480820193602093909283900390910190829087803b1580156200053557600080fd5b505af11580156200054a573d6000803e3d6000fd5b505050506040513d60208110156200056157600080fd5b505050505050506080516114f9620005a16000398061017f52806109fa5280610b875280610c385280610ce85280610d995280610e4252506114f96000f3fe608060405234801561001057600080fd5b506004361061009e5760003560e01c8063aef52e3f11610066578063aef52e3f14610146578063b69d04561461014e578063b6dbf9ce14610156578063f4b9fa751461015e578063f77c4791146101665761009e565b806316f0115b146100a3578063204f83f9146100c7578063491511c5146100e15780638324ad29146101065780639cd441da14610123575b600080fd5b6100ab61016e565b604080516001600160a01b039092168252519081900360200190f35b6100cf61017d565b60408051918252519081900360200190f35b610104600480360360408110156100f757600080fd5b50803590602001356101a1565b005b6101046004803603602081101561011c57600080fd5b50356103a2565b6100cf6004803603604081101561013957600080fd5b50803590602001356104c4565b6100ab610b15565b6100ab610b24565b6100cf610b33565b6100ab610b3e565b6100ab610b4d565b6004546001600160a01b031681565b7f000000000000000000000000000000000000000000000000000000000000000081565b6004805460408051633dae446f60e21b8152339381019390935230602484015260448301859052805160009384936001600160a01b03169263f6b911bc9260648084019382900301818787803b1580156101fa57600080fd5b505af115801561020e573d6000803e3d6000fd5b505050506040513d604081101561022457600080fd5b508051602090910151909250905061023c8282610b5c565b600354604080516370a0823160e01b815230600482015290516000926001600160a01b0316916370a08231916024808301926020929190829003018186803b15801561028757600080fd5b505afa15801561029b573d6000803e3d6000fd5b505050506040513d60208110156102b157600080fd5b50519050801561039357600480546040805163c47b5b8360e01b81523093810184905260248101939093526001600160801b03841660448401525186926001600160a01b039092169163c47b5b839160648083019260209291908290030181600087803b15801561032157600080fd5b505af1158015610335573d6000803e3d6000fd5b505050506040513d602081101561034b57600080fd5b50516001600160801b031610156103935760405162461bcd60e51b815260040180806020018281038252602681526020018061147a6026913960400191505060405180910390fd5b61039b610e22565b5050505050565b6004805460408051633dae446f60e21b8152339381019390935230602484015260448301849052805160009384936001600160a01b03169263f6b911bc9260648084019382900301818787803b1580156103fb57600080fd5b505af115801561040f573d6000803e3d6000fd5b505050506040513d604081101561042557600080fd5b508051602090910151909250905080156104ac5760035460408051630e6dfcd560e01b8152306004820181905260248201526044810184905290516001600160a01b0390921691630e6dfcd59160648082019260009290919082900301818387803b15801561049357600080fd5b505af11580156104a7573d6000803e3d6000fd5b505050505b6104b7826000610b5c565b6104bf610e22565b505050565b6003546040805163ae4e7fdf60e01b815290516000926001600160a01b03169163ae4e7fdf916004808301926020929190829003018186803b15801561050957600080fd5b505afa15801561051d573d6000803e3d6000fd5b505050506040513d602081101561053357600080fd5b50511515600114156105765760405162461bcd60e51b81526004018080602001828103825260248152602001806114a06024913960400191505060405180910390fd5b60008054604080516323b872dd60e01b81523360048201523060248201526044810187905290516001600160a01b03909216926323b872dd926064808401936020939083900390910190829087803b1580156105d157600080fd5b505af11580156105e5573d6000803e3d6000fd5b505050506040513d60208110156105fb57600080fd5b505161064e576040805162461bcd60e51b815260206004820152601f60248201527f4c697175696469747950726f78793a205472616e73666572204661696c656400604482015290519081900360640190fd5b6000805460048054604080516370a0823160e01b81526001600160a01b0392831693810193909352519216916370a0823191602480820192602092909190829003018186803b1580156106a057600080fd5b505afa1580156106b4573d6000803e3d6000fd5b505050506040513d60208110156106ca57600080fd5b505160035460048054604080516370a0823160e01b81526001600160a01b0392831693810193909352519394506000939216916370a0823191602480820192602092909190829003018186803b15801561072357600080fd5b505afa158015610737573d6000803e3d6000fd5b505050506040513d602081101561074d57600080fd5b505190506000610782610766838563ffffffff6111fb16565b610776888663ffffffff61125c16565b9063ffffffff6112b516565b90506000610796878363ffffffff6112f716565b9050858111156107ed576040805162461bcd60e51b815260206004820181905260248201527f4c697175696469747950726f78793a206d617859446169206578636565646564604482015290519081900360640190fd5b60015460408051633b4da69f60e01b81523060048201526024810184905290516001600160a01b0390921691633b4da69f9160448082019260009290919082900301818387803b15801561084057600080fd5b505af1158015610854573d6000803e3d6000fd5b505060015460408051633612d9a360e11b81523060048201529051600094506001600160a01b039092169250636c25b34691602480830192602092919082900301818787803b1580156108a657600080fd5b505af11580156108ba573d6000803e3d6000fd5b505050506040513d60208110156108d057600080fd5b5051600254600154604080516370a0823160e01b8152306004820181905291519495506001600160a01b039384169463adb9e54e94634348414960e01b9433939116916370a0823191602480820192602092909190829003018186803b15801561093957600080fd5b505afa15801561094d573d6000803e3d6000fd5b505050506040513d602081101561096357600080fd5b5051604080516001600160e01b031960e088901b16815260048101959095526001600160a01b039384166024860152919092166044840152606483019190915251608480830192600092919082900301818387803b1580156109c457600080fd5b505af11580156109d8573d6000803e3d6000fd5b50506002546040805163801d325f60e01b8152634348414960e01b60048201527f000000000000000000000000000000000000000000000000000000000000000060248201523360448201523060648201526084810186905290516001600160a01b03909216935063801d325f925060a48082019260009290919082900301818387803b158015610a6857600080fd5b505af1158015610a7c573d6000803e3d6000fd5b50506004805460408051636361ddf360e11b8152309381019390935233602484015260448301889052516001600160a01b03909116935063c6c3bbe6925060648083019260209291908290030181600087803b158015610adb57600080fd5b505af1158015610aef573d6000803e3d6000fd5b505050506040513d6020811015610b0557600080fd5b5051955050505050505b92915050565b6003546001600160a01b031681565b6001546001600160a01b031681565b634348414960e01b81565b6000546001600160a01b031681565b6002546001600160a01b031681565b600081118015610c13575060025460408051634c66d72d60e11b8152634348414960e01b60048201527f0000000000000000000000000000000000000000000000000000000000000000602482015233604482015290516000926001600160a01b0316916398cdae5a916064808301926020929190829003018186803b158015610be557600080fd5b505afa158015610bf9573d6000803e3d6000fd5b505050506040513d6020811015610c0f57600080fd5b5051115b15610cbd57600254604080516391371ffb60e01b8152634348414960e01b60048201527f000000000000000000000000000000000000000000000000000000000000000060248201523060448201523360648201526084810184905290516001600160a01b03909216916391371ffb9160a48082019260009290919082900301818387803b158015610ca457600080fd5b505af1158015610cb8573d6000803e3d6000fd5b505050505b600082118015610d74575060025460408051634c66d72d60e11b8152634348414960e01b60048201527f0000000000000000000000000000000000000000000000000000000000000000602482015233604482015290516000926001600160a01b0316916398cdae5a916064808301926020929190829003018186803b158015610d4657600080fd5b505afa158015610d5a573d6000803e3d6000fd5b505050506040513d6020811015610d7057600080fd5b5051115b15610e1e57600254604080516325d3cd1760e01b8152634348414960e01b60048201527f000000000000000000000000000000000000000000000000000000000000000060248201523060448201523360648201526084810185905290516001600160a01b03909216916325d3cd179160a48082019260009290919082900301818387803b158015610e0557600080fd5b505af1158015610e19573d6000803e3d6000fd5b505050505b5050565b60025460408051634c66d72d60e11b8152634348414960e01b60048201527f0000000000000000000000000000000000000000000000000000000000000000602482015233604482015290516001600160a01b03909216916398cdae5a91606480820192602092909190829003018186803b158015610ea057600080fd5b505afa158015610eb4573d6000803e3d6000fd5b505050506040513d6020811015610eca57600080fd5b50516110c3576002546040805163dd62f42360e01b8152634348414960e01b60048201819052336024830181905292516001600160a01b0390941693638e0cc1769391923091869163dd62f423916044808301926020929190829003018186803b158015610f3757600080fd5b505afa158015610f4b573d6000803e3d6000fd5b505050506040513d6020811015610f6157600080fd5b5051604080516001600160e01b031960e088901b16815260048101959095526001600160a01b039384166024860152919092166044840152606483019190915251608480830192600092919082900301818387803b158015610fc257600080fd5b505af1158015610fd6573d6000803e3d6000fd5b5050600154604080516370a0823160e01b8152306004820181905291516001600160a01b03909316945063ef693bed9350909184916370a08231916024808301926020929190829003018186803b15801561103057600080fd5b505afa158015611044573d6000803e3d6000fd5b505050506040513d602081101561105a57600080fd5b5051604080516001600160e01b031960e086901b1681526001600160a01b039093166004840152602483019190915251604480830192600092919082900301818387803b1580156110aa57600080fd5b505af11580156110be573d6000803e3d6000fd5b505050505b600054604080516370a0823160e01b815230600482015290516001600160a01b039092169163a9059cbb91339184916370a08231916024808301926020929190829003018186803b15801561111757600080fd5b505afa15801561112b573d6000803e3d6000fd5b505050506040513d602081101561114157600080fd5b5051604080516001600160e01b031960e086901b1681526001600160a01b03909316600484015260248301919091525160448083019260209291908290030181600087803b15801561119257600080fd5b505af11580156111a6573d6000803e3d6000fd5b505050506040513d60208110156111bc57600080fd5b50516111f95760405162461bcd60e51b81526004018080602001828103825260238152602001806114576023913960400191505060405180910390fd5b565b600082820183811015611255576040805162461bcd60e51b815260206004820152601b60248201527f536166654d6174683a206164646974696f6e206f766572666c6f770000000000604482015290519081900360640190fd5b9392505050565b60008261126b57506000610b0f565b8282028284828161127857fe5b04146112555760405162461bcd60e51b81526004018080602001828103825260218152602001806114366021913960400191505060405180910390fd5b600061125583836040518060400160405280601a81526020017f536166654d6174683a206469766973696f6e206279207a65726f000000000000815250611339565b600061125583836040518060400160405280601e81526020017f536166654d6174683a207375627472616374696f6e206f766572666c6f7700008152506113db565b600081836113c55760405162461bcd60e51b81526004018080602001828103825283818151815260200191508051906020019080838360005b8381101561138a578181015183820152602001611372565b50505050905090810190601f1680156113b75780820380516001836020036101000a031916815260200191505b509250505060405180910390fd5b5060008385816113d157fe5b0495945050505050565b6000818484111561142d5760405162461bcd60e51b815260206004820181815283516024840152835190928392604490910191908501908083836000831561138a578181015183820152602001611372565b50505090039056fe536166654d6174683a206d756c7469706c69636174696f6e206f766572666c6f774c697175696469747950726f78793a20446169205472616e73666572204661696c65644c697175696469747950726f78793a206d696e696d756d446169206e6f7420726561636865644c697175696469747950726f78793a204f6e6c79206265666f7265206d61747572697479a2646970667358221220d87593903635094b43cb21f9d25aaaca942cd17250cf52d8711d0b0bc2ccb40564736f6c634300060a00334c697175696469747950726f78793a204d69736d61746368656420506f6f6c20616e6420436f6e74726f6c6c6572",
  "immutableReferences": {
    "20053": [
      {
        "length": 32,
        "start": 383
      },
      {
        "length": 32,
        "start": 2554
      },
      {
        "length": 32,
        "start": 2951
      },
      {
        "length": 32,
        "start": 3128
      },
      {
        "length": 32,
        "start": 3304
      },
      {
        "length": 32,
        "start": 3481
      },
      {
        "length": 32,
        "start": 3650
      }
    ]
  },
  "source": "// SPDX-License-Identifier: GPL-3.0-or-later\r\npragma solidity ^0.6.10;\r\n\r\nimport \"@openzeppelin/contracts/math/SafeMath.sol\";\r\nimport \"../interfaces/IController.sol\";\r\nimport \"../interfaces/IChai.sol\";\r\nimport \"../interfaces/IPool.sol\";\r\n\r\n\r\n/// @dev The LiquidityProxy is a proxy contract of Pool that allows users to mint liquidity tokens with just Dai.\r\n/// Likewise, allows users to burn liquidity tokens and receive only Dai, either by paying yDai debt or by selling yDai on the Pool.\r\ncontract LiquidityProxy {\r\n    using SafeMath for uint256;\r\n\r\n    bytes32 public constant CHAI = \"CHAI\";\r\n\r\n    IERC20 public dai;\r\n    IChai public chai;\r\n    IController public controller;\r\n    IYDai public yDai;\r\n    IPool public pool;\r\n\r\n    uint256 public immutable maturity;\r\n\r\n    /// @dev The constructor links ControllerDai to vat, pot, controller and pool.\r\n    constructor (\r\n        address dai_,\r\n        address chai_,\r\n        address treasury_,\r\n        address controller_,\r\n        address pool_\r\n    ) public {\r\n        dai = IERC20(dai_);\r\n        chai = IChai(chai_);\r\n        controller = IController(controller_);\r\n        pool = IPool(pool_);\r\n\r\n        yDai = pool.yDai();\r\n        maturity = yDai.maturity();\r\n        require(\r\n            controller.containsSeries(yDai.maturity()),\r\n            \"LiquidityProxy: Mismatched Pool and Controller\"\r\n        );\r\n\r\n        dai.approve(address(chai), uint256(-1));\r\n        dai.approve(address(pool), uint256(-1));\r\n        yDai.approve(address(pool), uint256(-1));\r\n        chai.approve(treasury_, uint256(-1));\r\n        dai.approve(treasury_, uint256(-1));\r\n    }\r\n\r\n    /// @dev Mints liquidity with provided Dai by borrowing yDai with some of the Dai.\r\n    /// Caller must have approved the proxy using`controller.addDelegate(liquidityProxy)` and `pool.addDelegate(liquidityProxy)`\r\n    /// Caller must have approved the dai transfer with `dai.approve(daiUsed)`\r\n    /// @param daiUsed amount of Dai to use to mint liquidity. \r\n    /// @param maxYDai maximum amount of yDai to be borrowed to mint liquidity. \r\n    /// @return The amount of liquidity tokens minted.  \r\n    function addLiquidity(uint256 daiUsed, uint256 maxYDai) external returns (uint256)\r\n    {\r\n        require(yDai.isMature() != true, \"LiquidityProxy: Only before maturity\");\r\n        require(dai.transferFrom(msg.sender, address(this), daiUsed), \"LiquidityProxy: Transfer Failed\");\r\n        \r\n        // calculate needed yDai\r\n        uint256 daiReserves = dai.balanceOf(address(pool));\r\n        uint256 yDaiReserves = yDai.balanceOf(address(pool));\r\n        uint256 daiToAdd = daiUsed.mul(daiReserves).div(yDaiReserves.add(daiReserves));\r\n        uint256 daiToConvert = daiUsed.sub(daiToAdd);\r\n        require(\r\n            daiToConvert <= maxYDai,\r\n            \"LiquidityProxy: maxYDai exceeded\"\r\n        ); // 1 Dai == 1 yDai\r\n\r\n        // convert dai to chai and borrow needed yDai\r\n        chai.join(address(this), daiToConvert);\r\n        // look at the balance of chai in dai to avoid rounding issues\r\n        uint256 toBorrow = chai.dai(address(this));\r\n        controller.post(CHAI, address(this), msg.sender, chai.balanceOf(address(this)));\r\n        controller.borrow(CHAI, maturity, msg.sender, address(this), toBorrow);\r\n        \r\n        // mint liquidity tokens\r\n        return pool.mint(address(this), msg.sender, daiToAdd);\r\n    }\r\n\r\n    /// @dev Burns tokens and repays yDai debt. Buys needed yDai or sells any excess, and all Dai is returned.\r\n    /// Caller must have approved the proxy using`controller.addDelegate(liquidityProxy)` and `pool.addDelegate(liquidityProxy)`\r\n    /// Caller must have approved the liquidity burn with `pool.approve(poolTokens)`\r\n    /// @param poolTokens amount of pool tokens to burn. \r\n    /// @param minimumDai minimum amount of Dai to be bought with yDai when burning. \r\n    function removeLiquidityEarly(uint256 poolTokens, uint256 minimumDai) external\r\n    {\r\n        (uint256 daiObtained, uint256 yDaiObtained) = pool.burn(msg.sender, address(this), poolTokens);\r\n        repayDebt(daiObtained, yDaiObtained);\r\n        uint256 remainingYDai = yDai.balanceOf(address(this));\r\n        if (remainingYDai > 0) {\r\n            require(\r\n                pool.sellYDai(address(this), address(this), uint128(remainingYDai)) >= minimumDai,\r\n                \"LiquidityProxy: minimumDai not reached\"\r\n            );\r\n        }\r\n        withdrawAssets();\r\n    }\r\n\r\n    /// @dev Burns tokens and repays yDai debt after Maturity. \r\n    /// Caller must have approved the proxy using`controller.addDelegate(liquidityProxy)`\r\n    /// Caller must have approved the liquidity burn with `pool.approve(poolTokens)`\r\n    /// @param poolTokens amount of pool tokens to burn.\r\n    function removeLiquidityMature(uint256 poolTokens) external\r\n    {\r\n        (uint256 daiObtained, uint256 yDaiObtained) = pool.burn(msg.sender, address(this), poolTokens);\r\n        if (yDaiObtained > 0) yDai.redeem(address(this), address(this), yDaiObtained);\r\n        repayDebt(daiObtained, 0);\r\n        withdrawAssets();\r\n    }\r\n\r\n    /// @dev Repay debt from the caller using the dai and yDai supplied\r\n    /// @param daiAvailable amount of dai to use for repayments.\r\n    /// @param yDaiAvailable amount of yDai to use for repayments.\r\n    function repayDebt(uint256 daiAvailable, uint256 yDaiAvailable) internal {\r\n        if (yDaiAvailable > 0 && controller.debtYDai(CHAI, maturity, msg.sender) > 0) {\r\n            controller.repayYDai(CHAI, maturity, address(this), msg.sender, yDaiAvailable);\r\n        }\r\n        if (daiAvailable > 0 && controller.debtYDai(CHAI, maturity, msg.sender) > 0) {\r\n            controller.repayDai(CHAI, maturity, address(this), msg.sender, daiAvailable);\r\n        }\r\n    }\r\n\r\n    /// @dev Return to caller all posted chai if there is no debt, converted to dai, plus any dai remaining in the contract.\r\n    function withdrawAssets() internal {\r\n        if (controller.debtYDai(CHAI, maturity, msg.sender) == 0) {\r\n            controller.withdraw(CHAI, msg.sender, address(this), controller.posted(CHAI, msg.sender));\r\n            chai.exit(address(this), chai.balanceOf(address(this)));\r\n        }\r\n        require(dai.transfer(msg.sender, dai.balanceOf(address(this))), \"LiquidityProxy: Dai Transfer Failed\");\r\n    }\r\n}",
  "sourcePath": "C:/Users/bruce/dev/yield/yDai/contracts/peripheral/LiquidityProxy.sol",
  "compiler": {
    "name": "solc",
    "version": "0.6.10+commit.00c0fcaf.Emscripten.clang"
  },
  "schemaVersion": "3.2.3",
  "updatedAt": "2020-08-24T15:06:41.331Z",
  "devdoc": {
    "details": "The LiquidityProxy is a proxy contract of Pool that allows users to mint liquidity tokens with just Dai. Likewise, allows users to burn liquidity tokens and receive only Dai, either by paying yDai debt or by selling yDai on the Pool.",
    "methods": {
      "addLiquidity(uint256,uint256)": {
        "details": "Mints liquidity with provided Dai by borrowing yDai with some of the Dai. Caller must have approved the proxy using`controller.addDelegate(liquidityProxy)` and `pool.addDelegate(liquidityProxy)` Caller must have approved the dai transfer with `dai.approve(daiUsed)`",
        "params": {
          "daiUsed": "amount of Dai to use to mint liquidity. ",
          "maxYDai": "maximum amount of yDai to be borrowed to mint liquidity. "
        },
        "returns": {
          "_0": "The amount of liquidity tokens minted.  "
        }
      },
      "constructor": {
        "details": "The constructor links ControllerDai to vat, pot, controller and pool."
      },
      "removeLiquidityEarly(uint256,uint256)": {
        "details": "Burns tokens and repays yDai debt. Buys needed yDai or sells any excess, and all Dai is returned. Caller must have approved the proxy using`controller.addDelegate(liquidityProxy)` and `pool.addDelegate(liquidityProxy)` Caller must have approved the liquidity burn with `pool.approve(poolTokens)`",
        "params": {
          "minimumDai": "minimum amount of Dai to be bought with yDai when burning. ",
          "poolTokens": "amount of pool tokens to burn. "
        }
      },
      "removeLiquidityMature(uint256)": {
        "details": "Burns tokens and repays yDai debt after Maturity.  Caller must have approved the proxy using`controller.addDelegate(liquidityProxy)` Caller must have approved the liquidity burn with `pool.approve(poolTokens)`",
        "params": {
          "poolTokens": "amount of pool tokens to burn."
        }
      }
    }
  },
  "userdoc": {
    "methods": {}
  }
}