{
  "contractName": "Liquidations",
  "abi": [
    {
      "inputs": [
        {
          "internalType": "address",
          "name": "dai_",
          "type": "address"
        },
        {
          "internalType": "address",
          "name": "treasury_",
          "type": "address"
        },
        {
          "internalType": "address",
          "name": "dealer_",
          "type": "address"
        },
        {
          "internalType": "uint256",
          "name": "auctionTime_",
          "type": "uint256"
        }
      ],
      "stateMutability": "nonpayable",
      "type": "constructor"
    },
    {
      "anonymous": false,
      "inputs": [
        {
          "indexed": false,
          "internalType": "address",
          "name": "user",
          "type": "address"
        }
      ],
      "name": "GrantedAccess",
      "type": "event"
    },
    {
      "anonymous": false,
      "inputs": [
        {
          "indexed": true,
          "internalType": "bytes32",
          "name": "collateral",
          "type": "bytes32"
        },
        {
          "indexed": true,
          "internalType": "address",
          "name": "user",
          "type": "address"
        },
        {
          "indexed": false,
          "internalType": "uint256",
          "name": "started",
          "type": "uint256"
        }
      ],
      "name": "Liquidation",
      "type": "event"
    },
    {
      "anonymous": false,
      "inputs": [
        {
          "indexed": true,
          "internalType": "address",
          "name": "previousOwner",
          "type": "address"
        },
        {
          "indexed": true,
          "internalType": "address",
          "name": "newOwner",
          "type": "address"
        }
      ],
      "name": "OwnershipTransferred",
      "type": "event"
    },
    {
      "anonymous": false,
      "inputs": [
        {
          "indexed": false,
          "internalType": "address",
          "name": "user",
          "type": "address"
        }
      ],
      "name": "RevokedAccess",
      "type": "event"
    },
    {
      "inputs": [],
      "name": "CHAI",
      "outputs": [
        {
          "internalType": "bytes32",
          "name": "",
          "type": "bytes32"
        }
      ],
      "stateMutability": "view",
      "type": "function",
      "constant": true
    },
    {
      "inputs": [],
      "name": "RAD",
      "outputs": [
        {
          "internalType": "uint8",
          "name": "",
          "type": "uint8"
        }
      ],
      "stateMutability": "view",
      "type": "function",
      "constant": true
    },
    {
      "inputs": [],
      "name": "RAY",
      "outputs": [
        {
          "internalType": "uint8",
          "name": "",
          "type": "uint8"
        }
      ],
      "stateMutability": "view",
      "type": "function",
      "constant": true
    },
    {
      "inputs": [],
      "name": "WAD",
      "outputs": [
        {
          "internalType": "uint8",
          "name": "",
          "type": "uint8"
        }
      ],
      "stateMutability": "view",
      "type": "function",
      "constant": true
    },
    {
      "inputs": [],
      "name": "WETH",
      "outputs": [
        {
          "internalType": "bytes32",
          "name": "",
          "type": "bytes32"
        }
      ],
      "stateMutability": "view",
      "type": "function",
      "constant": true
    },
    {
      "inputs": [],
      "name": "auctionTime",
      "outputs": [
        {
          "internalType": "uint256",
          "name": "",
          "type": "uint256"
        }
      ],
      "stateMutability": "view",
      "type": "function",
      "constant": true
    },
    {
      "inputs": [
        {
          "internalType": "address",
          "name": "user",
          "type": "address"
        }
      ],
      "name": "grantAccess",
      "outputs": [],
      "stateMutability": "nonpayable",
      "type": "function"
    },
    {
      "inputs": [
        {
          "internalType": "bytes32",
          "name": "",
          "type": "bytes32"
        },
        {
          "internalType": "address",
          "name": "",
          "type": "address"
        }
      ],
      "name": "liquidations",
      "outputs": [
        {
          "internalType": "uint256",
          "name": "",
          "type": "uint256"
        }
      ],
      "stateMutability": "view",
      "type": "function",
      "constant": true
    },
    {
      "inputs": [],
      "name": "live",
      "outputs": [
        {
          "internalType": "bool",
          "name": "",
          "type": "bool"
        }
      ],
      "stateMutability": "view",
      "type": "function",
      "constant": true
    },
    {
      "inputs": [],
      "name": "owner",
      "outputs": [
        {
          "internalType": "address",
          "name": "",
          "type": "address"
        }
      ],
      "stateMutability": "view",
      "type": "function",
      "constant": true
    },
    {
      "inputs": [],
      "name": "renounceOwnership",
      "outputs": [],
      "stateMutability": "nonpayable",
      "type": "function"
    },
    {
      "inputs": [
        {
          "internalType": "address",
          "name": "user",
          "type": "address"
        }
      ],
      "name": "revokeAccess",
      "outputs": [],
      "stateMutability": "nonpayable",
      "type": "function"
    },
    {
      "inputs": [
        {
          "internalType": "address",
          "name": "newOwner",
          "type": "address"
        }
      ],
      "name": "transferOwnership",
      "outputs": [],
      "stateMutability": "nonpayable",
      "type": "function"
    },
    {
      "inputs": [],
      "name": "shutdown",
      "outputs": [],
      "stateMutability": "nonpayable",
      "type": "function"
    },
    {
      "inputs": [
        {
          "internalType": "bytes32",
          "name": "collateral",
          "type": "bytes32"
        },
        {
          "internalType": "address",
          "name": "user",
          "type": "address"
        }
      ],
      "name": "liquidate",
      "outputs": [],
      "stateMutability": "nonpayable",
      "type": "function"
    },
    {
      "inputs": [
        {
          "internalType": "bytes32",
          "name": "collateral",
          "type": "bytes32"
        },
        {
          "internalType": "address",
          "name": "user",
          "type": "address"
        }
      ],
      "name": "cancel",
      "outputs": [],
      "stateMutability": "nonpayable",
      "type": "function"
    },
    {
      "inputs": [
        {
          "internalType": "bytes32",
          "name": "collateral",
          "type": "bytes32"
        },
        {
          "internalType": "address",
          "name": "from",
          "type": "address"
        },
        {
          "internalType": "address",
          "name": "buyer",
          "type": "address"
        },
        {
          "internalType": "uint256",
          "name": "daiAmount",
          "type": "uint256"
        }
      ],
      "name": "buy",
      "outputs": [],
      "stateMutability": "nonpayable",
      "type": "function"
    },
    {
      "inputs": [
        {
          "internalType": "bytes32",
          "name": "collateral",
          "type": "bytes32"
        },
        {
          "internalType": "address",
          "name": "user",
          "type": "address"
        }
      ],
      "name": "price",
      "outputs": [
        {
          "internalType": "uint256",
          "name": "",
          "type": "uint256"
        }
      ],
      "stateMutability": "nonpayable",
      "type": "function"
    }
  ],
  "bytecode": "0x60806040526001600760006101000a81548160ff0219169083151502179055503480156200002c57600080fd5b506040516200255738038062002557833981810160405260808110156200005257600080fd5b81019080805190602001909291908051906020019092919080519060200190929190805190602001909291905050506000620000936200026060201b60201c565b9050806000806101000a81548173ffffffffffffffffffffffffffffffffffffffff021916908373ffffffffffffffffffffffffffffffffffffffff1602179055508073ffffffffffffffffffffffffffffffffffffffff16600073ffffffffffffffffffffffffffffffffffffffff167f8be0079c531659141344cd1fd0a4f28419497f9722a3daafe3b4186f6b6457e060405160405180910390a35083600260006101000a81548173ffffffffffffffffffffffffffffffffffffffff021916908373ffffffffffffffffffffffffffffffffffffffff16021790555082600360006101000a81548173ffffffffffffffffffffffffffffffffffffffff021916908373ffffffffffffffffffffffffffffffffffffffff16021790555081600460006101000a81548173ffffffffffffffffffffffffffffffffffffffff021916908373ffffffffffffffffffffffffffffffffffffffff160217905550600081116200024f576040517f08c379a0000000000000000000000000000000000000000000000000000000008152600401808060200182810382526022815260200180620025356022913960400191505060405180910390fd5b806005819055505050505062000268565b600033905090565b6122bd80620002786000396000f3fe608060405234801561001057600080fd5b50600436106101165760003560e01c806385e68531116100a2578063ad5c464811610071578063ad5c464814610419578063b6dbf9ce14610437578063e3079c1b14610455578063f2fde38b146104b7578063fc0e74d1146104fb57610116565b806385e68531146103075780638da5cb5b1461034b578063957aa58c14610395578063a8a5c4bb146103b757610116565b8063412a2dfe116100e9578063412a2dfe146101ef578063552033c4146102675780636a1460241461028b578063715018a6146102af578063771b51d2146102b957610116565b806306f405fd1461011b5780630ae5e7391461013f578063155f586d1461018357806322cae9a2146101a1575b600080fd5b610123610505565b604051808260ff1660ff16815260200191505060405180910390f35b6101816004803603602081101561015557600080fd5b81019080803573ffffffffffffffffffffffffffffffffffffffff16906020019092919050505061050a565b005b61018b610690565b6040518082815260200191505060405180910390f35b6101ed600480360360408110156101b757600080fd5b8101908080359060200190929190803573ffffffffffffffffffffffffffffffffffffffff169060200190929190505050610696565b005b6102656004803603608081101561020557600080fd5b8101908080359060200190929190803573ffffffffffffffffffffffffffffffffffffffff169060200190929190803573ffffffffffffffffffffffffffffffffffffffff169060200190929190803590602001909291905050506108c6565b005b61026f610f45565b604051808260ff1660ff16815260200191505060405180910390f35b610293610f4a565b604051808260ff1660ff16815260200191505060405180910390f35b6102b7610f4f565b005b610305600480360360408110156102cf57600080fd5b8101908080359060200190929190803573ffffffffffffffffffffffffffffffffffffffff1690602001909291905050506110d7565b005b6103496004803603602081101561031d57600080fd5b81019080803573ffffffffffffffffffffffffffffffffffffffff1690602001909291905050506113b2565b005b610353611539565b604051808273ffffffffffffffffffffffffffffffffffffffff1673ffffffffffffffffffffffffffffffffffffffff16815260200191505060405180910390f35b61039d611562565b604051808215151515815260200191505060405180910390f35b610403600480360360408110156103cd57600080fd5b8101908080359060200190929190803573ffffffffffffffffffffffffffffffffffffffff169060200190929190505050611575565b6040518082815260200191505060405180910390f35b61042161159a565b6040518082815260200191505060405180910390f35b61043f6115be565b6040518082815260200191505060405180910390f35b6104a16004803603604081101561046b57600080fd5b8101908080359060200190929190803573ffffffffffffffffffffffffffffffffffffffff1690602001909291905050506115e2565b6040518082815260200191505060405180910390f35b6104f9600480360360208110156104cd57600080fd5b81019080803573ffffffffffffffffffffffffffffffffffffffff169060200190929190505050611a44565b005b610503611c51565b005b602d81565b610512611d9a565b73ffffffffffffffffffffffffffffffffffffffff166000809054906101000a900473ffffffffffffffffffffffffffffffffffffffff1673ffffffffffffffffffffffffffffffffffffffff16146105d3576040517f08c379a00000000000000000000000000000000000000000000000000000000081526004018080602001828103825260208152602001807f4f776e61626c653a2063616c6c6572206973206e6f7420746865206f776e657281525060200191505060405180910390fd5b60018060008373ffffffffffffffffffffffffffffffffffffffff1673ffffffffffffffffffffffffffffffffffffffff16815260200190815260200160002060006101000a81548160ff0219169083151502179055507f6a7c5f28ea564fafc8b079663a2a9b9d26fe735d97c97611484ce044f40a16e281604051808273ffffffffffffffffffffffffffffffffffffffff1673ffffffffffffffffffffffffffffffffffffffff16815260200191505060405180910390a150565b60055481565b600460009054906101000a900473ffffffffffffffffffffffffffffffffffffffff1673ffffffffffffffffffffffffffffffffffffffff16637ad29f4083836040518363ffffffff1660e01b8152600401808381526020018273ffffffffffffffffffffffffffffffffffffffff1673ffffffffffffffffffffffffffffffffffffffff16815260200192505050602060405180830381600087803b15801561073f57600080fd5b505af1158015610753573d6000803e3d6000fd5b505050506040513d602081101561076957600080fd5b81019080805190602001909291905050506107cf576040517f08c379a000000000000000000000000000000000000000000000000000000000815260040180806020018281038252602a81526020018061214b602a913960400191505060405180910390fd5b6006600083815260200190815260200160002060008273ffffffffffffffffffffffffffffffffffffffff1673ffffffffffffffffffffffffffffffffffffffff168152602001908152602001600020600090558073ffffffffffffffffffffffffffffffffffffffff16827f052b2d4621e67ef415db368319a25871169a70b45464140085da0f98287b7c106006600086815260200190815260200160002060008573ffffffffffffffffffffffffffffffffffffffff1673ffffffffffffffffffffffffffffffffffffffff168152602001908152602001600020546040518082815260200191505060405180910390a35050565b60011515600760009054906101000a900460ff16151514610932576040517f08c379a00000000000000000000000000000000000000000000000000000000081526004018080602001828103825260258152602001806122406025913960400191505060405180910390fd5b60006006600086815260200190815260200160002060008573ffffffffffffffffffffffffffffffffffffffff1673ffffffffffffffffffffffffffffffffffffffff16815260200190815260200160002054116109db576040517f08c379a00000000000000000000000000000000000000000000000000000000081526004018080602001828103825260298152602001806122176029913960400191505060405180910390fd5b600260009054906101000a900473ffffffffffffffffffffffffffffffffffffffff1673ffffffffffffffffffffffffffffffffffffffff166323b872dd83600360009054906101000a900473ffffffffffffffffffffffffffffffffffffffff16846040518463ffffffff1660e01b8152600401808473ffffffffffffffffffffffffffffffffffffffff1673ffffffffffffffffffffffffffffffffffffffff1681526020018373ffffffffffffffffffffffffffffffffffffffff1673ffffffffffffffffffffffffffffffffffffffff1681526020018281526020019350505050602060405180830381600087803b158015610ada57600080fd5b505af1158015610aee573d6000803e3d6000fd5b505050506040513d6020811015610b0457600080fd5b8101908080519060200190929190505050610b87576040517f08c379a00000000000000000000000000000000000000000000000000000000081526004018080602001828103825260198152602001807f4465616c65723a20446169207472616e73666572206661696c0000000000000081525060200191505060405180910390fd5b600360009054906101000a900473ffffffffffffffffffffffffffffffffffffffff1673ffffffffffffffffffffffffffffffffffffffff1663adb987e36040518163ffffffff1660e01b8152600401600060405180830381600087803b158015610bf157600080fd5b505af1158015610c05573d6000803e3d6000fd5b505050506000610c2082610c1987876115e2565b601b611da2565b9050600460009054906101000a900473ffffffffffffffffffffffffffffffffffffffff1673ffffffffffffffffffffffffffffffffffffffff1663f51a391a868685856040518563ffffffff1660e01b8152600401808581526020018473ffffffffffffffffffffffffffffffffffffffff1673ffffffffffffffffffffffffffffffffffffffff168152602001838152602001828152602001945050505050600060405180830381600087803b158015610cdb57600080fd5b505af1158015610cef573d6000803e3d6000fd5b505050507f5745544800000000000000000000000000000000000000000000000000000000851415610de157600360009054906101000a900473ffffffffffffffffffffffffffffffffffffffff1673ffffffffffffffffffffffffffffffffffffffff16638ac96dfc84836040518363ffffffff1660e01b8152600401808373ffffffffffffffffffffffffffffffffffffffff1673ffffffffffffffffffffffffffffffffffffffff16815260200182815260200192505050600060405180830381600087803b158015610dc457600080fd5b505af1158015610dd8573d6000803e3d6000fd5b50505050610f3e565b7f4348414900000000000000000000000000000000000000000000000000000000851415610ecf57600360009054906101000a900473ffffffffffffffffffffffffffffffffffffffff1673ffffffffffffffffffffffffffffffffffffffff16639fa8368984836040518363ffffffff1660e01b8152600401808373ffffffffffffffffffffffffffffffffffffffff1673ffffffffffffffffffffffffffffffffffffffff16815260200182815260200192505050600060405180830381600087803b158015610eb257600080fd5b505af1158015610ec6573d6000803e3d6000fd5b50505050610f3d565b6040517f08c379a000000000000000000000000000000000000000000000000000000000815260040180806020018281038252601e8152602001807f4465616c65723a20556e737570706f7274656420636f6c6c61746572616c000081525060200191505060405180910390fd5b5b5050505050565b601b81565b601281565b610f57611d9a565b73ffffffffffffffffffffffffffffffffffffffff166000809054906101000a900473ffffffffffffffffffffffffffffffffffffffff1673ffffffffffffffffffffffffffffffffffffffff1614611018576040517f08c379a00000000000000000000000000000000000000000000000000000000081526004018080602001828103825260208152602001807f4f776e61626c653a2063616c6c6572206973206e6f7420746865206f776e657281525060200191505060405180910390fd5b600073ffffffffffffffffffffffffffffffffffffffff166000809054906101000a900473ffffffffffffffffffffffffffffffffffffffff1673ffffffffffffffffffffffffffffffffffffffff167f8be0079c531659141344cd1fd0a4f28419497f9722a3daafe3b4186f6b6457e060405160405180910390a360008060006101000a81548173ffffffffffffffffffffffffffffffffffffffff021916908373ffffffffffffffffffffffffffffffffffffffff160217905550565b60006006600084815260200190815260200160002060008373ffffffffffffffffffffffffffffffffffffffff1673ffffffffffffffffffffffffffffffffffffffff1681526020019081526020016000205414611180576040517f08c379a000000000000000000000000000000000000000000000000000000000815260040180806020018281038252602d8152602001806121c9602d913960400191505060405180910390fd5b600460009054906101000a900473ffffffffffffffffffffffffffffffffffffffff1673ffffffffffffffffffffffffffffffffffffffff16637ad29f4083836040518363ffffffff1660e01b8152600401808381526020018273ffffffffffffffffffffffffffffffffffffffff1673ffffffffffffffffffffffffffffffffffffffff16815260200192505050602060405180830381600087803b15801561122957600080fd5b505af115801561123d573d6000803e3d6000fd5b505050506040513d602081101561125357600080fd5b8101908080519060200190929190505050156112ba576040517f08c379a000000000000000000000000000000000000000000000000000000000815260040180806020018281038252602e81526020018061219b602e913960400191505060405180910390fd5b426006600084815260200190815260200160002060008373ffffffffffffffffffffffffffffffffffffffff1673ffffffffffffffffffffffffffffffffffffffff168152602001908152602001600020819055508073ffffffffffffffffffffffffffffffffffffffff16827f052b2d4621e67ef415db368319a25871169a70b45464140085da0f98287b7c106006600086815260200190815260200160002060008573ffffffffffffffffffffffffffffffffffffffff1673ffffffffffffffffffffffffffffffffffffffff168152602001908152602001600020546040518082815260200191505060405180910390a35050565b6113ba611d9a565b73ffffffffffffffffffffffffffffffffffffffff166000809054906101000a900473ffffffffffffffffffffffffffffffffffffffff1673ffffffffffffffffffffffffffffffffffffffff161461147b576040517f08c379a00000000000000000000000000000000000000000000000000000000081526004018080602001828103825260208152602001807f4f776e61626c653a2063616c6c6572206973206e6f7420746865206f776e657281525060200191505060405180910390fd5b6000600160008373ffffffffffffffffffffffffffffffffffffffff1673ffffffffffffffffffffffffffffffffffffffff16815260200190815260200160002060006101000a81548160ff0219169083151502179055507fa3458b95c7eaa39f5f81c99d512823ec3e1372cd42b56f5239e15ac1752d55ad81604051808273ffffffffffffffffffffffffffffffffffffffff1673ffffffffffffffffffffffffffffffffffffffff16815260200191505060405180910390a150565b60008060009054906101000a900473ffffffffffffffffffffffffffffffffffffffff16905090565b600760009054906101000a900460ff1681565b6006602052816000526040600020602052806000526040600020600091509150505481565b7f574554480000000000000000000000000000000000000000000000000000000081565b7f434841490000000000000000000000000000000000000000000000000000000081565b6000806006600085815260200190815260200160002060008473ffffffffffffffffffffffffffffffffffffffff1673ffffffffffffffffffffffffffffffffffffffff168152602001908152602001600020541161168c576040517f08c379a00000000000000000000000000000000000000000000000000000000081526004018080602001828103825260238152602001806122656023913960400191505060405180910390fd5b600061178e600460009054906101000a900473ffffffffffffffffffffffffffffffffffffffff1673ffffffffffffffffffffffffffffffffffffffff1663dd62f42386866040518363ffffffff1660e01b8152600401808381526020018273ffffffffffffffffffffffffffffffffffffffff1673ffffffffffffffffffffffffffffffffffffffff1681526020019250505060206040518083038186803b15801561173857600080fd5b505afa15801561174c573d6000803e3d6000fd5b505050506040513d602081101561176257600080fd5b8101908080519060200190929190505050611780601b60ff16611e19565b611ea390919063ffffffff16565b90506000611894600460009054906101000a900473ffffffffffffffffffffffffffffffffffffffff1673ffffffffffffffffffffffffffffffffffffffff1663e68b7cf487876040518363ffffffff1660e01b8152600401808381526020018273ffffffffffffffffffffffffffffffffffffffff1673ffffffffffffffffffffffffffffffffffffffff16815260200192505050602060405180830381600087803b15801561183e57600080fd5b505af1158015611852573d6000803e3d6000fd5b505050506040513d602081101561186857600080fd5b8101908080519060200190929190505050611886601b60ff16611e19565b611ea390919063ffffffff16565b905060006118b860016118aa601b60ff16611e19565b611ea390919063ffffffff16565b905060006118dc60026118ce601b60ff16611e19565b611ea390919063ffffffff16565b9050600061195f611941600554600660008c815260200190815260200160002060008b73ffffffffffffffffffffffffffffffffffffffff1673ffffffffffffffffffffffffffffffffffffffff168152602001908152602001600020544203611f29565b601b611950601b60ff16611e19565b611f429092919063ffffffff16565b9050600061199a600261198c600554601b61197d601b60ff16611e19565b611f429092919063ffffffff16565b611ea390919063ffffffff16565b905060006119b486601b89611f7a9092919063ffffffff16565b905060006119ce85601b88611f7a9092919063ffffffff16565b905060006119e884601b87611f7a9092919063ffffffff16565b9050611a33611a15611a038385611fb290919063ffffffff16565b601b86611f429092919063ffffffff16565b601b611a24601b60ff16611e19565b611f7a9092919063ffffffff16565b995050505050505050505092915050565b611a4c611d9a565b73ffffffffffffffffffffffffffffffffffffffff166000809054906101000a900473ffffffffffffffffffffffffffffffffffffffff1673ffffffffffffffffffffffffffffffffffffffff1614611b0d576040517f08c379a00000000000000000000000000000000000000000000000000000000081526004018080602001828103825260208152602001807f4f776e61626c653a2063616c6c6572206973206e6f7420746865206f776e657281525060200191505060405180910390fd5b600073ffffffffffffffffffffffffffffffffffffffff168173ffffffffffffffffffffffffffffffffffffffff161415611b93576040517f08c379a00000000000000000000000000000000000000000000000000000000081526004018080602001828103825260268152602001806121756026913960400191505060405180910390fd5b8073ffffffffffffffffffffffffffffffffffffffff166000809054906101000a900473ffffffffffffffffffffffffffffffffffffffff1673ffffffffffffffffffffffffffffffffffffffff167f8be0079c531659141344cd1fd0a4f28419497f9722a3daafe3b4186f6b6457e060405160405180910390a3806000806101000a81548173ffffffffffffffffffffffffffffffffffffffff021916908373ffffffffffffffffffffffffffffffffffffffff16021790555050565b6040518060400160405280601c81526020017f4c69717569646174696f6e733a204e6f7420417574686f72697a656400000000815250600160003373ffffffffffffffffffffffffffffffffffffffff1673ffffffffffffffffffffffffffffffffffffffff16815260200190815260200160002060009054906101000a900460ff168190611d7b576040517f08c379a00000000000000000000000000000000000000000000000000000000081526004018080602001828103825283818151815260200191508051906020019080838360005b83811015611d40578082015181840152602081019050611d25565b50505050905090810190601f168015611d6d5780820380516001836020036101000a031916815260200191505b509250505060405180910390fd5b506000600760006101000a81548160ff02191690831515021790555050565b600033905090565b600080611dd884611dca611dbb6001870160ff16611e19565b88611ea390919063ffffffff16565b61203a90919063ffffffff16565b90506000600a8281611de657fe5b061115611e03576001600a8281611df957fe5b0401915050611e12565b600a8181611e0d57fe5b049150505b9392505050565b6000604d8260ff161115611e95576040517f08c379a00000000000000000000000000000000000000000000000000000000081526004018080602001828103825260118152602001807f546f6f206d616e7920646563696d616c7300000000000000000000000000000081525060200191505060405180910390fd5b8160ff16600a0a9050919050565b600080831415611eb65760009050611f23565b6000828402905082848281611ec757fe5b0414611f1e576040517f08c379a00000000000000000000000000000000000000000000000000000000081526004018080602001828103825260218152602001806121f66021913960400191505060405180910390fd5b809150505b92915050565b6000818310611f385781611f3a565b825b905092915050565b6000611f71611f5083611e19565b611f638587611ea390919063ffffffff16565b61203a90919063ffffffff16565b90509392505050565b6000611fa983611f9b611f8c85611e19565b87611ea390919063ffffffff16565b61203a90919063ffffffff16565b90509392505050565b600080828401905083811015612030576040517f08c379a000000000000000000000000000000000000000000000000000000000815260040180806020018281038252601b8152602001807f536166654d6174683a206164646974696f6e206f766572666c6f77000000000081525060200191505060405180910390fd5b8091505092915050565b600061207c83836040518060400160405280601a81526020017f536166654d6174683a206469766973696f6e206279207a65726f000000000000815250612084565b905092915050565b60008083118290612130576040517f08c379a00000000000000000000000000000000000000000000000000000000081526004018080602001828103825283818151815260200191508051906020019080838360005b838110156120f55780820151818401526020810190506120da565b50505050905090810190601f1680156121225780820380516001836020036101000a031916815260200191505b509250505060405180910390fd5b50600083858161213c57fe5b04905080915050939250505056fe4c69717569646174696f6e733a205661756c7420697320756e646572636f6c6c61746572616c697a65644f776e61626c653a206e6577206f776e657220697320746865207a65726f20616464726573734c69717569646174696f6e733a205661756c74206973206e6f7420756e646572636f6c6c61746572616c697a65644c69717569646174696f6e733a205661756c7420697320616c726561647920696e206c69717569646174696f6e536166654d6174683a206d756c7469706c69636174696f6e206f766572666c6f774c69717569646174696f6e733a205661756c74206973206e6f7420696e206c69717569646174696f6e4465616c65723a204e6f7420617661696c61626c6520647572696e672073687574646f776e4c69717569646174696f6e733a205661756c74206973206e6f74207461726765746564a2646970667358221220f69493f623f7f6aef1ed47fdddd7a45404105eaa1f805e8f0151436365d0dd4864736f6c634300060200334c69717569646174696f6e733a2041756374696f6e2074696d65206973207a65726f",
  "source": "pragma solidity ^0.6.2;\n\nimport \"@hq20/contracts/contracts/access/AuthorizedAccess.sol\";\nimport \"@hq20/contracts/contracts/math/DecimalMath.sol\";\nimport \"@openzeppelin/contracts/token/ERC20/IERC20.sol\";\nimport \"@openzeppelin/contracts/math/Math.sol\";\nimport \"@openzeppelin/contracts/math/SafeMath.sol\";\nimport \"./interfaces/IDealer.sol\";\nimport \"./interfaces/ILiquidations.sol\";\nimport \"./interfaces/ITreasury.sol\";\nimport \"./Constants.sol\";\nimport \"@nomiclabs/buidler/console.sol\";\n\n\n/// @dev The Liquidations contract for a Dealer allows to liquidate undercollateralized positions in a reverse Dutch auction.\ncontract Liquidations is ILiquidations, AuthorizedAccess(), Constants {\n    using DecimalMath for uint256;\n    using DecimalMath for uint8;\n    using SafeMath for uint256;\n\n    event Liquidation(bytes32 indexed collateral, address indexed user, uint256 started);\n\n    IERC20 internal _dai;\n    ITreasury internal _treasury;\n    IDealer internal _dealer;\n\n    uint256 public auctionTime;\n    mapping(bytes32 => mapping(address => uint256)) public liquidations;\n\n    bool public live = true;\n\n    constructor (\n        address dai_,\n        address treasury_,\n        address dealer_,\n        uint256 auctionTime_\n    ) public {\n        _dai = IERC20(dai_);\n        _treasury = ITreasury(treasury_);\n        _dealer = IDealer(dealer_);\n\n        require(\n            auctionTime_ > 0,\n            \"Liquidations: Auction time is zero\"\n        );\n        auctionTime = auctionTime_;\n    }\n\n    modifier onlyLive() {\n        require(live == true, \"Dealer: Not available during shutdown\");\n        _;\n    }\n\n    /// @dev Disables post, withdraw, borrow and repay. To be called only by shutdown management contracts.\n    function shutdown() public override onlyAuthorized(\"Liquidations: Not Authorized\") {\n        live = false;\n    }\n\n    /// @dev Starts a liquidation process for a given collateral and user.\n    function liquidate(bytes32 collateral, address user) public {\n        require(\n            liquidations[collateral][user] == 0,\n            \"Liquidations: Vault is already in liquidation\"\n        );\n        require(\n            !_dealer.isCollateralized(collateral, user),\n            \"Liquidations: Vault is not undercollateralized\"\n        );\n        // solium-disable-next-line security/no-block-members\n        liquidations[collateral][user] = now;\n        emit Liquidation(collateral, user, liquidations[collateral][user]);\n    }\n\n    /// @dev Cancels a liquidation process\n    function cancel(bytes32 collateral, address user) public {\n        require(\n            _dealer.isCollateralized(collateral, user),\n            \"Liquidations: Vault is undercollateralized\"\n        );\n        // solium-disable-next-line security/no-block-members\n        delete liquidations[collateral][user];\n        emit Liquidation(collateral, user, liquidations[collateral][user]);\n    }\n\n    /// @dev Liquidates a position. The caller pays the debt of `from`, and `buyer` receives an amount of collateral.\n    function buy(bytes32 collateral, address from, address buyer, uint256 daiAmount) public onlyLive {\n        require(\n            liquidations[collateral][from] > 0,\n            \"Liquidations: Vault is not in liquidation\"\n        );\n        /* require(\n            !_dealer.isCollateralized(collateral, from),\n            \"Liquidations: Vault is not undercollateralized\"\n        ); */ // Not checking for this, too expensive. Let the user stop the liquidations instead.\n        require( // grab dai from buyer and push to treasury\n            _dai.transferFrom(buyer, address(_treasury), daiAmount),\n            \"Dealer: Dai transfer fail\"\n        );\n        _treasury.pushDai();\n\n        // calculate collateral to grab. Using divdrup stops rounding from leaving 1 stray wei in vaults.\n        uint256 tokenAmount = divdrup(daiAmount, price(collateral, from), RAY);\n        // grab collateral from dealer\n        _dealer.grab(collateral, from, daiAmount, tokenAmount);\n\n        if (collateral == WETH){\n            _treasury.pullWeth(buyer, tokenAmount);\n        } else if (collateral == CHAI) {\n            _treasury.pullChai(buyer, tokenAmount);\n        } else {\n            revert(\"Dealer: Unsupported collateral\");\n        }\n    }\n\n    /// @dev Return price of a collateral unit, in dai, at the present moment, for a given user\n    // dai = price * collateral\n    // TODO: Optimize this for gas\n    //\n    //               posted      1      min(auction, elapsed)\n    // price = 1 / (-------- * (--- + -----------------------))\n    //                debt       2       2 * auction\n    function price(bytes32 collateral, address user) public returns (uint256) {\n        require(\n            liquidations[collateral][user] > 0,\n            \"Liquidations: Vault is not targeted\"\n        );\n        uint256 dividend1 = RAY.unit().mul(_dealer.posted(collateral, user));\n        uint256 divisor1 = RAY.unit().mul(_dealer.totalDebtDai(collateral, user));\n        uint256 dividend2 = RAY.unit().mul(1);\n        uint256 divisor2 = RAY.unit().mul(2);\n        uint256 dividend3 = RAY.unit().muld(Math.min(auctionTime, now - liquidations[collateral][user]), RAY);\n        uint256 divisor3 = RAY.unit().muld(auctionTime, RAY).mul(2);\n        uint256 term1 = dividend1.divd(divisor1, RAY);\n        uint256 term2 = dividend2.divd(divisor2, RAY);\n        uint256 term3 = dividend3.divd(divisor3, RAY);\n        return RAY.unit().divd(term1.muld(term2.add(term3), RAY), RAY);\n    }\n\n    /// @dev Divides x between y, rounding up to the closest representable number.\n    /// Assumes x and y are both fixed point with `decimals` digits.\n     // TODO: Check if this needs to be taken from DecimalMath.sol\n    function divdrup(uint256 x, uint256 y, uint8 decimals)\n        internal pure returns (uint256)\n    {\n        uint256 z = x.mul((decimals + 1).unit()).div(y);\n        if (z % 10 > 0) return z / 10 + 1;\n        else return z / 10;\n    }\n}",
  "sourcePath": "/Users/bruce/dev/yieldprotocol/ytoken-mvp/contracts/Liquidations.sol",
  "compiler": {
    "name": "solc",
    "version": "0.6.2+commit.bacdbe57.Emscripten.clang"
  },
  "schemaVersion": "3.0.23",
  "updatedAt": "2020-06-26T11:31:05.123Z",
  "networkType": "ethereum",
  "devdoc": {
    "details": "The Liquidations contract for a Dealer allows to liquidate undercollateralized positions in a reverse Dutch auction.",
    "methods": {
      "buy(bytes32,address,address,uint256)": {
        "details": "Liquidates a position. The caller pays the debt of `from`, and `buyer` receives an amount of collateral."
      },
      "cancel(bytes32,address)": {
        "details": "Cancels a liquidation process"
      },
      "grantAccess(address)": {
        "details": "Add user to the authorized users list"
      },
      "liquidate(bytes32,address)": {
        "details": "Starts a liquidation process for a given collateral and user."
      },
      "owner()": {
        "details": "Returns the address of the current owner."
      },
      "price(bytes32,address)": {
        "details": "Return price of a collateral unit, in dai, at the present moment, for a given user"
      },
      "renounceOwnership()": {
        "details": "Leaves the contract without owner. It will not be possible to call `onlyOwner` functions anymore. Can only be called by the current owner.     * NOTE: Renouncing ownership will leave the contract without an owner, thereby removing any functionality that is only available to the owner."
      },
      "revokeAccess(address)": {
        "details": "Remove user to the authorized users list"
      },
      "shutdown()": {
        "details": "Disables post, withdraw, borrow and repay. To be called only by shutdown management contracts."
      },
      "transferOwnership(address)": {
        "details": "Transfers ownership of the contract to a new account (`newOwner`). Can only be called by the current owner."
      }
    }
  },
  "userdoc": {
    "methods": {}
  }
}