{
  "contractName": "Liquidations",
  "abi": [
    {
      "inputs": [
        {
          "internalType": "address",
          "name": "controller_",
          "type": "address"
        }
      ],
      "stateMutability": "nonpayable",
      "type": "constructor"
    },
    {
      "anonymous": false,
      "inputs": [
        {
          "indexed": true,
          "internalType": "address",
          "name": "user",
          "type": "address"
        },
        {
          "indexed": true,
          "internalType": "address",
          "name": "delegate",
          "type": "address"
        },
        {
          "indexed": false,
          "internalType": "bool",
          "name": "enabled",
          "type": "bool"
        }
      ],
      "name": "Delegate",
      "type": "event"
    },
    {
      "anonymous": false,
      "inputs": [
        {
          "indexed": false,
          "internalType": "address",
          "name": "access",
          "type": "address"
        },
        {
          "indexed": false,
          "internalType": "bytes4",
          "name": "signature",
          "type": "bytes4"
        }
      ],
      "name": "GrantedAccess",
      "type": "event"
    },
    {
      "anonymous": false,
      "inputs": [
        {
          "indexed": true,
          "internalType": "address",
          "name": "user",
          "type": "address"
        },
        {
          "indexed": false,
          "internalType": "uint256",
          "name": "started",
          "type": "uint256"
        },
        {
          "indexed": false,
          "internalType": "uint256",
          "name": "collateral",
          "type": "uint256"
        },
        {
          "indexed": false,
          "internalType": "uint256",
          "name": "debt",
          "type": "uint256"
        }
      ],
      "name": "Liquidation",
      "type": "event"
    },
    {
      "anonymous": false,
      "inputs": [
        {
          "indexed": true,
          "internalType": "address",
          "name": "previousOwner",
          "type": "address"
        },
        {
          "indexed": true,
          "internalType": "address",
          "name": "newOwner",
          "type": "address"
        }
      ],
      "name": "OwnershipTransferred",
      "type": "event"
    },
    {
      "inputs": [],
      "name": "AUCTION_TIME",
      "outputs": [
        {
          "internalType": "uint256",
          "name": "",
          "type": "uint256"
        }
      ],
      "stateMutability": "view",
      "type": "function",
      "constant": true
    },
    {
      "inputs": [],
      "name": "DELEGABLE_DOMAIN",
      "outputs": [
        {
          "internalType": "bytes32",
          "name": "",
          "type": "bytes32"
        }
      ],
      "stateMutability": "view",
      "type": "function",
      "constant": true
    },
    {
      "inputs": [],
      "name": "DUST",
      "outputs": [
        {
          "internalType": "uint256",
          "name": "",
          "type": "uint256"
        }
      ],
      "stateMutability": "view",
      "type": "function",
      "constant": true
    },
    {
      "inputs": [],
      "name": "SIGNATURE_TYPEHASH",
      "outputs": [
        {
          "internalType": "bytes32",
          "name": "",
          "type": "bytes32"
        }
      ],
      "stateMutability": "view",
      "type": "function",
      "constant": true
    },
    {
      "inputs": [],
      "name": "UNIT",
      "outputs": [
        {
          "internalType": "uint256",
          "name": "",
          "type": "uint256"
        }
      ],
      "stateMutability": "view",
      "type": "function",
      "constant": true
    },
    {
      "inputs": [],
      "name": "WETH",
      "outputs": [
        {
          "internalType": "bytes32",
          "name": "",
          "type": "bytes32"
        }
      ],
      "stateMutability": "view",
      "type": "function",
      "constant": true
    },
    {
      "inputs": [
        {
          "internalType": "address",
          "name": "delegate",
          "type": "address"
        }
      ],
      "name": "addDelegate",
      "outputs": [],
      "stateMutability": "nonpayable",
      "type": "function"
    },
    {
      "inputs": [
        {
          "internalType": "address",
          "name": "user",
          "type": "address"
        },
        {
          "internalType": "address",
          "name": "delegate",
          "type": "address"
        },
        {
          "internalType": "uint256",
          "name": "deadline",
          "type": "uint256"
        },
        {
          "internalType": "uint8",
          "name": "v",
          "type": "uint8"
        },
        {
          "internalType": "bytes32",
          "name": "r",
          "type": "bytes32"
        },
        {
          "internalType": "bytes32",
          "name": "s",
          "type": "bytes32"
        }
      ],
      "name": "addDelegateBySignature",
      "outputs": [],
      "stateMutability": "nonpayable",
      "type": "function"
    },
    {
      "inputs": [
        {
          "internalType": "address",
          "name": "user",
          "type": "address"
        },
        {
          "internalType": "bytes4[]",
          "name": "signatures",
          "type": "bytes4[]"
        }
      ],
      "name": "batchOrchestrate",
      "outputs": [],
      "stateMutability": "nonpayable",
      "type": "function"
    },
    {
      "inputs": [],
      "name": "controller",
      "outputs": [
        {
          "internalType": "contract IController",
          "name": "",
          "type": "address"
        }
      ],
      "stateMutability": "view",
      "type": "function",
      "constant": true
    },
    {
      "inputs": [
        {
          "internalType": "address",
          "name": "",
          "type": "address"
        },
        {
          "internalType": "address",
          "name": "",
          "type": "address"
        }
      ],
      "name": "delegated",
      "outputs": [
        {
          "internalType": "bool",
          "name": "",
          "type": "bool"
        }
      ],
      "stateMutability": "view",
      "type": "function",
      "constant": true
    },
    {
      "inputs": [
        {
          "internalType": "address",
          "name": "",
          "type": "address"
        }
      ],
      "name": "liquidations",
      "outputs": [
        {
          "internalType": "uint256",
          "name": "",
          "type": "uint256"
        }
      ],
      "stateMutability": "view",
      "type": "function",
      "constant": true
    },
    {
      "inputs": [],
      "name": "live",
      "outputs": [
        {
          "internalType": "bool",
          "name": "",
          "type": "bool"
        }
      ],
      "stateMutability": "view",
      "type": "function",
      "constant": true
    },
    {
      "inputs": [
        {
          "internalType": "address",
          "name": "user",
          "type": "address"
        },
        {
          "internalType": "bytes4",
          "name": "signature",
          "type": "bytes4"
        }
      ],
      "name": "orchestrate",
      "outputs": [],
      "stateMutability": "nonpayable",
      "type": "function"
    },
    {
      "inputs": [
        {
          "internalType": "address",
          "name": "",
          "type": "address"
        },
        {
          "internalType": "bytes4",
          "name": "",
          "type": "bytes4"
        }
      ],
      "name": "orchestration",
      "outputs": [
        {
          "internalType": "bool",
          "name": "",
          "type": "bool"
        }
      ],
      "stateMutability": "view",
      "type": "function",
      "constant": true
    },
    {
      "inputs": [],
      "name": "owner",
      "outputs": [
        {
          "internalType": "address",
          "name": "",
          "type": "address"
        }
      ],
      "stateMutability": "view",
      "type": "function",
      "constant": true
    },
    {
      "inputs": [],
      "name": "renounceOwnership",
      "outputs": [],
      "stateMutability": "nonpayable",
      "type": "function"
    },
    {
      "inputs": [
        {
          "internalType": "address",
          "name": "delegate",
          "type": "address"
        }
      ],
      "name": "revokeDelegate",
      "outputs": [],
      "stateMutability": "nonpayable",
      "type": "function"
    },
    {
      "inputs": [
        {
          "internalType": "address",
          "name": "",
          "type": "address"
        }
      ],
      "name": "signatureCount",
      "outputs": [
        {
          "internalType": "uint256",
          "name": "",
          "type": "uint256"
        }
      ],
      "stateMutability": "view",
      "type": "function",
      "constant": true
    },
    {
      "inputs": [],
      "name": "totals",
      "outputs": [
        {
          "internalType": "uint128",
          "name": "collateral",
          "type": "uint128"
        },
        {
          "internalType": "uint128",
          "name": "debt",
          "type": "uint128"
        }
      ],
      "stateMutability": "view",
      "type": "function",
      "constant": true
    },
    {
      "inputs": [
        {
          "internalType": "address",
          "name": "newOwner",
          "type": "address"
        }
      ],
      "name": "transferOwnership",
      "outputs": [],
      "stateMutability": "nonpayable",
      "type": "function"
    },
    {
      "inputs": [],
      "name": "treasury",
      "outputs": [
        {
          "internalType": "contract ITreasury",
          "name": "",
          "type": "address"
        }
      ],
      "stateMutability": "view",
      "type": "function",
      "constant": true
    },
    {
      "inputs": [
        {
          "internalType": "address",
          "name": "",
          "type": "address"
        }
      ],
      "name": "vaults",
      "outputs": [
        {
          "internalType": "uint128",
          "name": "collateral",
          "type": "uint128"
        },
        {
          "internalType": "uint128",
          "name": "debt",
          "type": "uint128"
        }
      ],
      "stateMutability": "view",
      "type": "function",
      "constant": true
    },
    {
      "inputs": [],
      "name": "shutdown",
      "outputs": [],
      "stateMutability": "nonpayable",
      "type": "function"
    },
    {
      "inputs": [
        {
          "internalType": "address",
          "name": "user",
          "type": "address"
        }
      ],
      "name": "aboveDustOrZero",
      "outputs": [
        {
          "internalType": "bool",
          "name": "",
          "type": "bool"
        }
      ],
      "stateMutability": "view",
      "type": "function",
      "constant": true
    },
    {
      "inputs": [
        {
          "internalType": "address",
          "name": "user",
          "type": "address"
        }
      ],
      "name": "liquidate",
      "outputs": [],
      "stateMutability": "nonpayable",
      "type": "function"
    },
    {
      "inputs": [
        {
          "internalType": "address",
          "name": "from",
          "type": "address"
        },
        {
          "internalType": "address",
          "name": "to",
          "type": "address"
        },
        {
          "internalType": "address",
          "name": "liquidated",
          "type": "address"
        },
        {
          "internalType": "uint256",
          "name": "daiAmount",
          "type": "uint256"
        }
      ],
      "name": "buy",
      "outputs": [
        {
          "internalType": "uint256",
          "name": "",
          "type": "uint256"
        }
      ],
      "stateMutability": "nonpayable",
      "type": "function"
    },
    {
      "inputs": [
        {
          "internalType": "address",
          "name": "from",
          "type": "address"
        },
        {
          "internalType": "address",
          "name": "to",
          "type": "address"
        },
        {
          "internalType": "uint256",
          "name": "tokenAmount",
          "type": "uint256"
        }
      ],
      "name": "withdraw",
      "outputs": [],
      "stateMutability": "nonpayable",
      "type": "function"
    },
    {
      "inputs": [
        {
          "internalType": "address",
          "name": "user",
          "type": "address"
        }
      ],
      "name": "erase",
      "outputs": [
        {
          "internalType": "uint128",
          "name": "",
          "type": "uint128"
        },
        {
          "internalType": "uint128",
          "name": "",
          "type": "uint128"
        }
      ],
      "stateMutability": "nonpayable",
      "type": "function"
    },
    {
      "inputs": [
        {
          "internalType": "address",
          "name": "user",
          "type": "address"
        }
      ],
      "name": "price",
      "outputs": [
        {
          "internalType": "uint256",
          "name": "",
          "type": "uint256"
        }
      ],
      "stateMutability": "view",
      "type": "function",
      "constant": true
    }
  ],
  "bytecode": "0x60c06040527f0d077601844dd17f704bafff948229d27f33b57445915754dfe3d095fda2beb76080526009805460ff191660011790553480156200004257600080fd5b50604051620024db380380620024db833981810160405260208110156200006857600080fd5b505160006200007f6001600160e01b036200023d16565b600080546001600160a01b0319166001600160a01b0383169081178255604051929350917f8be0079c531659141344cd1fd0a4f28419497f9722a3daafe3b4186f6b6457e0908290a3506040514690806052620024898239604080519182900360520182208282018252600580845264165a595b1960da1b6020948501528251808401845260018152603160f81b908501528251808501929092527f0dc8618f4925c4319195a39ada16304f511bf885ff9f3d63bc6b0f3979e46fb6828401527fc89efdaa54c0f20c7adf612882df0950f5a951637e0307cdcb4c672f298b8bc6606083015260808201959095523060a08083019190915282518083038201815260c0830180855281519186019190912090915285546001600160a01b038881166001600160a01b031990921691909117968790556361d027b360e01b909152915194909116936361d027b3935060c48083019392829003018186803b158015620001e957600080fd5b505afa158015620001fe573d6000803e3d6000fd5b505050506040513d60208110156200021557600080fd5b5051600480546001600160a01b0319166001600160a01b039092169190911790555062000241565b3390565b60805160a05161221a6200026f600039806107ea5280610cb95250806107855280610fb3525061221a6000f3fe608060405234801561001057600080fd5b50600436106101da5760003560e01c8063b5d832fe11610104578063e80c72c0116100a2578063f6bcbd3111610071578063f6bcbd31146105d3578063f77c479114610601578063fa352c0014610609578063fc0e74d11461062f576101da565b8063e80c72c014610498578063e85b00801461054b578063e8cdcc9914610571578063f2fde38b146105ad576101da565b8063d9caed12116100de578063d9caed121461040e578063e5442a9e14610444578063e592301a1461046a578063e71bdf4114610472576101da565b8063b5d832fe146103d8578063c038a38e146103fe578063c0bd65d714610406576101da565b8063715018a61161017c5780639d8e21771161014b5780639d8e217714610356578063a622ee7c1461035e578063ad5c4648146103aa578063aea91078146103b2576101da565b8063715018a6146103185780638da5cb5b14610320578063937d4c4214610328578063957aa58c1461034e576101da565b8063459e414f116101b8578063459e414f146102885780634e0cd799146102a257806358ada526146102aa57806361d027b3146102f4576101da565b8063028f7d55146101df5780631a28ff05146102175780632f86556814610262575b600080fd5b610215600480360360408110156101f557600080fd5b5080356001600160a01b031690602001356001600160e01b031916610637565b005b610215600480360360c081101561022d57600080fd5b506001600160a01b03813581169160208101359091169060408101359060ff6060820135169060808101359060a00135610706565b6102156004803603602081101561027857600080fd5b50356001600160a01b0316610929565b610290610cb7565b60408051918252519081900360200190f35b610290610cdb565b6102e0600480360360408110156102c057600080fd5b5080356001600160a01b031690602001356001600160e01b031916610ce6565b604080519115158252519081900360200190f35b6102fc610d06565b604080516001600160a01b039092168252519081900360200190f35b610215610d15565b6102fc610db7565b6102906004803603602081101561033e57600080fd5b50356001600160a01b0316610dc6565b6102e0610dd8565b610290610de1565b6103846004803603602081101561037457600080fd5b50356001600160a01b0316610df0565b604080516001600160801b03938416815291909216602082015281519081900390910190f35b610290610e16565b610290600480360360208110156103c857600080fd5b50356001600160a01b0316610e22565b610290600480360360208110156103ee57600080fd5b50356001600160a01b0316610f85565b610384610f97565b610290610fb1565b6102156004803603606081101561042457600080fd5b506001600160a01b03813581169160208101359091169060400135610fd5565b6102e06004803603602081101561045a57600080fd5b50356001600160a01b031661123e565b61029061127a565b6102156004803603602081101561048857600080fd5b50356001600160a01b0316611280565b610215600480360360408110156104ae57600080fd5b6001600160a01b0382351691908101906040810160208201356401000000008111156104d957600080fd5b8201836020820111156104eb57600080fd5b8035906020019184602083028401116401000000008311171561050d57600080fd5b91908080602002602001604051908101604052809392919081815260200183836020028082843760009201919091525092955061128d945050505050565b6103846004803603602081101561056157600080fd5b50356001600160a01b031661131b565b6102906004803603608081101561058757600080fd5b506001600160a01b038135811691602081013582169160408201351690606001356114a2565b610215600480360360208110156105c357600080fd5b50356001600160a01b03166118b4565b6102e0600480360360408110156105e957600080fd5b506001600160a01b03813581169160200135166119ac565b6102fc6119cc565b6102156004803603602081101561061f57600080fd5b50356001600160a01b03166119db565b6102156119e5565b61063f611ab1565b6000546001600160a01b0390811691161461068f576040805162461bcd60e51b81526020600482018190526024820152600080516020612152833981519152604482015290519081900360640190fd5b6001600160a01b03821660008181526001602081815260408084206001600160e01b0319871680865290835293819020805460ff1916909317909255815193845283019190915280517f80e6a982b9aa622283c64c5ba322fc345fe769ac330a174f3254e52926e5fcf89281900390910190a15050565b4284101561075b576040805162461bcd60e51b815260206004820152601c60248201527f44656c656761626c653a205369676e6174757265206578706972656400000000604482015290519081900360640190fd5b6001600160a01b0380871660008181526002602090815260408083208054600180820190925582517f00000000000000000000000000000000000000000000000000000000000000008186015280840196909652958b166060860152608085019590955260a08085018a90528151808603909101815260c08501825280519083012061190160f01b60e08601527f000000000000000000000000000000000000000000000000000000000000000060e286015261010280860182905282518087039091018152610122860180845281519185019190912090859052610142860180845281905260ff8a1661016287015261018286018990526101a2860188905291519095919491926101c2808401939192601f1981019281900390910190855afa15801561088d573d6000803e3d6000fd5b5050604051601f1901519150506001600160a01b038116158015906108c35750886001600160a01b0316816001600160a01b0316145b610914576040805162461bcd60e51b815260206004820152601c60248201527f44656c656761626c653a20496e76616c6964207369676e617475726500000000604482015290519081900360640190fd5b61091e8989611ab5565b505050505050505050565b60095460ff16151560011461096f5760405162461bcd60e51b81526004018080602001828103825260278152602001806120dc6027913960400191505060405180910390fd5b600554604080516301eb4a7d60e61b8152644554482d4160d81b60048201526001600160a01b03848116602483015291519190921691637ad29f40916044808301926020929190829003018186803b1580156109ca57600080fd5b505afa1580156109de573d6000803e3d6000fd5b505050506040513d60208110156109f457600080fd5b505115610a325760405162461bcd60e51b815260040180806020018281038252602e815260200180612103602e913960400191505060405180910390fd5b6001600160a01b038116600090815260066020526040902054610a6b576001600160a01b03811660009081526006602052604090204290555b600554604080516306a621df60e11b8152644554482d4160d81b60048201526001600160a01b03848116602483015282516000948594921692630d4c43be92604480830193919282900301818787803b158015610ac757600080fd5b505af1158015610adb573d6000803e3d6000fd5b505050506040513d6040811015610af157600080fd5b50805160209091015160408051808201909152600854929450909250908190610b2b906001600160801b0316610b2686611b9c565b611bf6565b6001600160801b03168152602001610b5e600860000160109054906101000a90046001600160801b0316610b2685611b9c565b6001600160801b039081169091528151600880546020909401518316600160801b029183166001600160801b031990941693909317909116179055610ba161207b565b6040805180820182526001600160a01b0386166000908152600760205291909120548190610bdb906001600160801b0316610b2687611b9c565b6001600160801b0390811682526001600160a01b038716600090815260076020908152604090912054920191610c1d91600160801b90910416610b2686611b9c565b6001600160801b039081169091526001600160a01b03861660008181526007602090815260409182902085518154838801518716600160801b029187166001600160801b03199091161790951694909417909355805142815292830187905282810186905251929350917f1a1072eb98424f51d9ad56526f05cd82dc46f8965a96b7c421f18275753d248c9181900360600190a250505050565b7f000000000000000000000000000000000000000000000000000000000000000081565b6658d15e1762800081565b600160209081526000928352604080842090915290825290205460ff1681565b6004546001600160a01b031681565b610d1d611ab1565b6000546001600160a01b03908116911614610d6d576040805162461bcd60e51b81526020600482018190526024820152600080516020612152833981519152604482015290519081900360640190fd5b600080546040516001600160a01b03909116907f8be0079c531659141344cd1fd0a4f28419497f9722a3daafe3b4186f6b6457e0908390a3600080546001600160a01b0319169055565b6000546001600160a01b031690565b60066020526000908152604090205481565b60095460ff1681565b676765c793fa10079d601b1b81565b6007602052600090815260409020546001600160801b0380821691600160801b90041682565b644554482d4160d81b81565b6001600160a01b038116600090815260066020526040812054610e765760405162461bcd60e51b815260040180806020018281038252602381526020018061219b6023913960400191505060405180910390fd5b6001600160a01b0382166000908152600760205260408120546001600160801b0380821692600160801b9092041690610ed082610ec485676765c793fa10079d601b1b63ffffffff611c6516565b9063ffffffff611cbe16565b6001600160a01b03861660009081526006602052604081205491925090610efc90610e10904203611d00565b90506000610f13610e10600263ffffffff611c6516565b90506000610f33676765c793fa10079d601b1b600263ffffffff611cbe16565b90506000610f5683610ec486676765c793fa10079d601b1b63ffffffff611c6516565b9050610f78676765c793fa10079d601b1b610f7387848601611d16565b611d37565b9998505050505050505050565b60026020526000908152604090205481565b6008546001600160801b0380821691600160801b90041682565b7f000000000000000000000000000000000000000000000000000000000000000081565b60095460ff16151560011461101b5760405162461bcd60e51b81526004018080602001828103825260278152602001806120dc6027913960400191505060405180910390fd5b826040518060600160405280602381526020016120b960239139336001600160a01b038316148061106f57506001600160a01b038216600090815260036020908152604080832033845290915290205460ff165b81906110f95760405162461bcd60e51b81526004018080602001828103825283818151815260200191508051906020019080838360005b838110156110be5781810151838201526020016110a6565b50505050905090810190601f1680156110eb5780820380516001836020036101000a031916815260200191505b509250505060405180910390fd5b506001600160a01b03851660009081526007602052604090208054600160801b90046001600160801b0316156111605760405162461bcd60e51b81526004018080602001828103825260278152602001806121be6027913960400191505060405180910390fd5b60085461117e906001600160801b031661117986611b9c565b611d58565b600880546001600160801b0319166001600160801b0392831617905581546111aa911661117986611b9c565b81546001600160801b0319166001600160801b039190911617815560048054604080516322b25b7f60e21b81526001600160a01b03898116948201949094526024810188905290519290911691638ac96dfc9160448082019260009290919082900301818387803b15801561121e57600080fd5b505af1158015611232573d6000803e3d6000fd5b50505050505050505050565b6001600160a01b0381166000908152600760205260408120546001600160801b03168015806112735750806658d15e17628000105b9392505050565b610e1081565b61128a3382611ab5565b50565b611295611ab1565b6000546001600160a01b039081169116146112e5576040805162461bcd60e51b81526020600482018190526024820152600080516020612152833981519152604482015290519081900360640190fd5b60005b81518110156113165761130e8383838151811061130157fe5b6020026020010151610637565b6001016112e8565b505050565b604080518082018252601c81527f4c69717569646174696f6e733a204e6f7420417574686f72697a656400000000602080830191909152336000908152600182528381206001600160e01b0319823516825290915291822054829190819060ff166113c75760405162461bcd60e51b81526020600482018181528351602484015283519092839260449091019190850190808383600083156110be5781810151838201526020016110a6565b506001600160a01b038416600090815260076020526040908190208054825180840190935260085491926001600160801b0380831693600160801b9093048116928291611415911685611d58565b6001600160801b03168152602001611445600860000160109054906101000a90046001600160801b031684611d58565b6001600160801b039081169091528151600880546020948501518416600160801b029284166001600160801b0319909116179092161790556001600160a01b03881660009081526007909152604081205590945092505050915091565b60095460009060ff1615156001146114eb5760405162461bcd60e51b81526004018080602001828103825260278152602001806120dc6027913960400191505060405180910390fd5b846040518060600160405280602381526020016120b960239139336001600160a01b038316148061153f57506001600160a01b038216600090815260036020908152604080832033845290915290205460ff165b819061158c5760405162461bcd60e51b81526020600482018181528351602484015283519092839260449091019190850190808383600083156110be5781810151838201526020016110a6565b506001600160a01b038516600090815260076020526040902054600160801b90046001600160801b03166115f15760405162461bcd60e51b81526004018080602001828103825260298152602001806121726029913960400191505060405180910390fd5b600480546040805163f939199160e01b81526001600160a01b038b811694820194909452602481018890529051929091169163f93919919160448082019260009290919082900301818387803b15801561164a57600080fd5b505af115801561165e573d6000803e3d6000fd5b5050505060006116768561167188610e22565b611dc7565b6040805180820190915260085491925090819061169f906001600160801b031661117985611b9c565b6001600160801b031681526020016116d2600860000160109054906101000a90046001600160801b031661117989611b9c565b6001600160801b039081169091528151600880546020909401518316600160801b029183166001600160801b03199094169390931790911617905561171561207b565b6040805180820182526001600160a01b038916600090815260076020529190912054819061174f906001600160801b031661117986611b9c565b6001600160801b0390811682526001600160a01b038a1660009081526007602090815260409091205492019161179191600160801b909104166111798a611b9c565b6001600160801b039081169091526001600160a01b03808a16600090815260076020908152604080832086518154938801518716600160801b029087166001600160801b031990941693909317909516919091179093556004805484516322b25b7f60e21b81528e8516928101929092526024820188905293519495509290911692638ac96dfc92604480820193929182900301818387803b15801561183657600080fd5b505af115801561184a573d6000803e3d6000fd5b505050506118578761123e565b6118a8576040805162461bcd60e51b815260206004820152601860248201527f4c69717569646174696f6e733a2042656c6f7720647573740000000000000000604482015290519081900360640190fd5b50979650505050505050565b6118bc611ab1565b6000546001600160a01b0390811691161461190c576040805162461bcd60e51b81526020600482018190526024820152600080516020612152833981519152604482015290519081900360640190fd5b6001600160a01b0381166119515760405162461bcd60e51b81526004018080602001828103825260268152602001806120936026913960400191505060405180910390fd5b600080546040516001600160a01b03808516939216917f8be0079c531659141344cd1fd0a4f28419497f9722a3daafe3b4186f6b6457e091a3600080546001600160a01b0319166001600160a01b0392909216919091179055565b600360209081526000928352604080842090915290825290205460ff1681565b6005546001600160a01b031681565b61128a3382611e3a565b600480546040805163255ea96360e21b815290516001600160a01b039092169263957aa58c928282019260209290829003018186803b158015611a2757600080fd5b505afa158015611a3b573d6000803e3d6000fd5b505050506040513d6020811015611a5157600080fd5b505115611aa5576040805162461bcd60e51b815260206004820152601e60248201527f4c69717569646174696f6e733a205472656173757279206973206c6976650000604482015290519081900360640190fd5b6009805460ff19169055565b3390565b6001600160a01b0380831660009081526003602090815260408083209385168352929052205460ff1615611b30576040805162461bcd60e51b815260206004820152601c60248201527f44656c656761626c653a20416c72656164792064656c65676174656400000000604482015290519081900360640190fd5b6001600160a01b03808316600081815260036020908152604080832094861680845294825291829020805460ff19166001908117909155825190815291517f045b0fef01772d2fbba53dbd38c9777806eac0865b00af43abcfbcaf50da92069281900390910190a35050565b60006001600160801b03821115611bf2576040805162461bcd60e51b81526020600482015260156024820152744d61726b65743a2043617374206f766572666c6f7760581b604482015290519081900360640190fd5b5090565b60008282016001600160801b038085169082161015611c5c576040805162461bcd60e51b815260206004820152601d60248201527f4d61726b65743a2044616920726573657276657320746f6f2068696768000000604482015290519081900360640190fd5b90505b92915050565b600082611c7457506000611c5f565b82820282848281611c8157fe5b0414611c5c5760405162461bcd60e51b81526004018080602001828103825260218152602001806121316021913960400191505060405180910390fd5b6000611c5c83836040518060400160405280601a81526020017f536166654d6174683a206469766973696f6e206279207a65726f000000000000815250611f18565b6000818310611d0f5781611c5c565b5090919050565b6000611c5c676765c793fa10079d601b1b610ec4858563ffffffff611c6516565b6000611c5c82610ec485676765c793fa10079d601b1b63ffffffff611c6516565b6000826001600160801b0316826001600160801b03161115611dc1576040805162461bcd60e51b815260206004820152601d60248201527f4d61726b65743a206544616920726573657276657320746f6f206c6f77000000604482015290519081900360640190fd5b50900390565b600080611de584676765c793fa10079d601b1b63ffffffff611c6516565b9050611df7818463ffffffff611f7d16565b15611e2257611e1d6001611e11838663ffffffff611cbe16565b9063ffffffff611fbf16565b611e32565b611e32818463ffffffff611cbe16565b949350505050565b6001600160a01b0380831660009081526003602090815260408083209385168352929052205460ff16611eb4576040805162461bcd60e51b815260206004820152601e60248201527f44656c656761626c653a20416c726561647920756e64656c6567617465640000604482015290519081900360640190fd5b6001600160a01b038083166000818152600360209081526040808320948616808452948252808320805460ff191690558051928352517f045b0fef01772d2fbba53dbd38c9777806eac0865b00af43abcfbcaf50da92069281900390910190a35050565b60008183611f675760405162461bcd60e51b81526020600482018181528351602484015283519092839260449091019190850190808383600083156110be5781810151838201526020016110a6565b506000838581611f7357fe5b0495945050505050565b6000611c5c83836040518060400160405280601881526020017f536166654d6174683a206d6f64756c6f206279207a65726f0000000000000000815250612019565b600082820183811015611c5c576040805162461bcd60e51b815260206004820152601b60248201527f536166654d6174683a206164646974696f6e206f766572666c6f770000000000604482015290519081900360640190fd5b600081836120685760405162461bcd60e51b81526020600482018181528351602484015283519092839260449091019190850190808383600083156110be5781810151838201526020016110a6565b5082848161207257fe5b06949350505050565b60408051808201909152600080825260208201529056fe4f776e61626c653a206e6577206f776e657220697320746865207a65726f2061646472657373436f6e74726f6c6c65723a204f6e6c7920486f6c646572204f722044656c6567617465436f6e74726f6c6c65723a204e6f7420617661696c61626c6520647572696e6720756e77696e644c69717569646174696f6e733a205661756c74206973206e6f7420756e646572636f6c6c61746572616c697a6564536166654d6174683a206d756c7469706c69636174696f6e206f766572666c6f774f776e61626c653a2063616c6c6572206973206e6f7420746865206f776e65724c69717569646174696f6e733a205661756c74206973206e6f7420696e206c69717569646174696f6e4c69717569646174696f6e733a205661756c74206973206e6f742074617267657465644c69717569646174696f6e733a2055736572207374696c6c20696e206c69717569646174696f6ea2646970667358221220b5e723397f2286e2a9868994426da948d3710b724218a8fa9d0fd982589f9bc964736f6c634300060a0033454950373132446f6d61696e28737472696e67206e616d652c737472696e672076657273696f6e2c75696e7432353620636861696e49642c6164647265737320766572696679696e67436f6e747261637429",
  "immutableReferences": {
    "9219": [
      {
        "length": 32,
        "start": 1925
      },
      {
        "length": 32,
        "start": 4019
      }
    ],
    "9221": [
      {
        "length": 32,
        "start": 2026
      },
      {
        "length": 32,
        "start": 3257
      }
    ]
  },
  "source": "// SPDX-License-Identifier: GPL-3.0-or-later\npragma solidity ^0.6.10;\n\nimport \"@openzeppelin/contracts/token/ERC20/IERC20.sol\";\nimport \"@openzeppelin/contracts/math/Math.sol\";\nimport \"./interfaces/IController.sol\";\nimport \"./interfaces/ILiquidations.sol\";\nimport \"./interfaces/ITreasury.sol\";\nimport \"./helpers/DecimalMath.sol\";\nimport \"./helpers/Delegable.sol\";\nimport \"./helpers/Orchestrated.sol\";\n\n\n/**\n * @dev The Liquidations contract allows to liquidate undercollateralized weth vaults in a reverse Dutch auction.\n * Undercollateralized vaults can be liquidated by calling `liquidate`.\n * Collateral from vaults can be bought with Dai using `buy`.\n * Debt and collateral records will be adjusted in the Controller using `controller.grab`.\n * Dai taken in payment will be handed over to Treasury, and collateral assets bought will be taken from Treasury as well.\n * If a vault becomes colalteralized, the liquidation can be stopped with `cancel`.\n */\ncontract Liquidations is ILiquidations, Orchestrated(), Delegable(), DecimalMath {\n\n    event Liquidation(address indexed user, uint256 started, uint256 collateral, uint256 debt);\n\n    bytes32 public constant WETH = \"ETH-A\";\n    uint256 public constant AUCTION_TIME = 3600;\n    uint256 public constant DUST = 25e15; // 0.025 ETH\n\n    ITreasury public treasury;\n    IController public override controller;\n\n    struct Vault {\n        uint128 collateral;\n        uint128 debt;\n    }\n\n    mapping(address => uint256) public liquidations;\n    mapping(address => Vault) public vaults;\n    Vault public override totals;\n\n    bool public live = true;\n\n    /// @dev The Liquidations constructor links it to the Treasury and Controller contracts.\n    constructor (\n        address controller_\n    ) public {\n        controller = IController(controller_);\n        treasury = controller.treasury();\n    }\n\n    /// @dev Only while Liquidations is not unwinding due to a MakerDAO shutdown.\n    modifier onlyLive() {\n        require(live == true, \"Controller: Not available during unwind\");\n        _;\n    }\n\n    /// @dev Overflow-protected addition, from OpenZeppelin\n    function add(uint128 a, uint128 b)\n        internal pure returns (uint128)\n    {\n        uint128 c = a + b;\n        require(c >= a, \"Market: Dai reserves too high\");\n\n        return c;\n    }\n\n    /// @dev Overflow-protected substraction, from OpenZeppelin\n    function sub(uint128 a, uint128 b) internal pure returns (uint128) {\n        require(b <= a, \"Market: eDai reserves too low\");\n        uint128 c = a - b;\n\n        return c;\n    }\n\n    /// @dev Safe casting from uint256 to uint128\n    function toUint128(uint256 x) internal pure returns(uint128) {\n        require(\n            x <= type(uint128).max,\n            \"Market: Cast overflow\"\n        );\n        return uint128(x);\n    }\n\n    /// @dev Disables buying at liquidations. To be called only when Treasury shuts down.\n    function shutdown() public override {\n        require(\n            treasury.live() == false,\n            \"Liquidations: Treasury is live\"\n        );\n        live = false;\n    }\n\n\n    /// @dev Return if the debt of an user is between zero and the dust level\n    /// @param user Address of the user vault\n    function aboveDustOrZero(address user) public view returns (bool) {\n        uint256 collateral = vaults[user].collateral;\n        return collateral == 0 || DUST < collateral;\n    }\n\n    /// @dev Starts a liquidation process for an undercollateralized vault.\n    /// @param user Address of the user vault to liquidate.\n    function liquidate(address user)\n        public onlyLive\n    {\n        require(\n            !controller.isCollateralized(WETH, user),\n            \"Liquidations: Vault is not undercollateralized\"\n        );\n        // A user in liquidation can be liquidated again, but doesn't restart the auction clock\n        // solium-disable-next-line security/no-block-members\n        if (liquidations[user] == 0) liquidations[user] = now;\n\n        (uint256 userCollateral, uint256 userDebt) = controller.erase(WETH, user);\n        totals = Vault({\n            collateral: add(totals.collateral, toUint128(userCollateral)),\n            debt: add(totals.debt, toUint128(userDebt))\n        });\n\n        Vault memory vault = Vault({ // TODO: Test a user that is liquidated twice\n            collateral: add(vaults[user].collateral, toUint128(userCollateral)),\n            debt: add(vaults[user].debt, toUint128(userDebt))\n        });\n        vaults[user] = vault;\n\n        emit Liquidation(user, now, userCollateral, userDebt);\n    }\n\n    /// @dev Buy a portion of a position under liquidation.\n    /// The caller pays the debt of `user`, and `from` receives an amount of collateral.\n    /// `from` can delegate to other addresses to buy for him. Also needs to use `ERC20.approve`.\n    /// @param liquidated Address of the user vault to liquidate.\n    /// @param from Address of the wallet paying Dai for liquidated collateral.\n    /// @param to Address of the wallet to send the obtained collateral to.\n    /// @param daiAmount Amount of Dai to give in exchange for liquidated collateral.\n    /// @return The amount of collateral obtained.\n    function buy(address from, address to, address liquidated, uint256 daiAmount)\n        public onlyLive\n        onlyHolderOrDelegate(from, \"Controller: Only Holder Or Delegate\")\n        returns (uint256)\n    {\n        require(\n            vaults[liquidated].debt > 0,\n            \"Liquidations: Vault is not in liquidation\"\n        );\n        treasury.pushDai(from, daiAmount);\n\n        // calculate collateral to grab. Using divdrup stops rounding from leaving 1 stray wei in vaults.\n        uint256 tokenAmount = divdrup(daiAmount, price(liquidated));\n\n        totals = Vault({\n            collateral: sub(totals.collateral, toUint128(tokenAmount)),\n            debt: sub(totals.debt, toUint128(daiAmount))\n        });\n\n        Vault memory vault = Vault({\n            collateral: sub(vaults[liquidated].collateral, toUint128(tokenAmount)),\n            debt: sub(vaults[liquidated].debt, toUint128(daiAmount))\n        });\n        vaults[liquidated] = vault;\n\n        treasury.pullWeth(to, tokenAmount);\n\n        require(\n            aboveDustOrZero(liquidated),\n            \"Liquidations: Below dust\"\n        );\n\n        return tokenAmount;\n    }\n\n    /// @dev Retrieve weth from a liquidations account. This weth could be a remainder from liquidations.\n    /// `from` can delegate to other addresses to withdraw from him.\n    /// @param from Address of the liquidations user vault to withdraw weth from.\n    /// @param to Address of the wallet receiving the withdrawn weth.\n    /// @param tokenAmount Amount of Weth to withdraw.\n    function withdraw(address from, address to, uint256 tokenAmount)\n        public onlyLive\n        onlyHolderOrDelegate(from, \"Controller: Only Holder Or Delegate\")\n    {\n        Vault storage vault = vaults[from];\n        require(\n            vault.debt == 0,\n            \"Liquidations: User still in liquidation\"\n        );\n\n        totals.collateral = sub(totals.collateral, toUint128(tokenAmount));\n        vault.collateral = sub(vault.collateral, toUint128(tokenAmount));\n\n        treasury.pullWeth(to, tokenAmount);\n    }\n\n    /// @dev Removes all collateral and debt for an user.\n    /// This function can only be called by other Yield contracts, not users directly.\n    /// @param user Address of the user vault\n    /// @return The amounts of collateral and debt removed from Liquidations.\n    function erase(address user)\n        public override\n        onlyOrchestrated(\"Liquidations: Not Authorized\")\n        returns (uint128, uint128)\n    {\n        Vault storage vault = vaults[user];\n        uint128 collateral = vault.collateral;\n        uint128 debt = vault.debt;\n\n        totals = Vault({\n            collateral: sub(totals.collateral, collateral),\n            debt: sub(totals.debt, debt)\n        });\n        delete vaults[user];\n\n        return (collateral, debt);\n    }\n\n    /// @dev Return price of a collateral unit, in dai, at the present moment, for a given user\n    /// @param user Address of the user vault in liquidation.\n    // dai = price * collateral\n    //\n    //                collateral      1      min(auction, elapsed)\n    // price = 1 / (------------- * (--- + -----------------------))\n    //                   debt         2       2 * auction\n    function price(address user) public view returns (uint256) {\n        require(\n            liquidations[user] > 0,\n            \"Liquidations: Vault is not targeted\"\n        );\n        uint256 dividend1 = uint256(vaults[user].collateral);\n        uint256 divisor1 = uint256(vaults[user].debt);\n        uint256 term1 = dividend1.mul(UNIT).div(divisor1);\n        uint256 dividend3 = Math.min(AUCTION_TIME, now - liquidations[user]); // - unlikely to overflow\n        uint256 divisor3 = AUCTION_TIME.mul(2);\n        uint256 term2 = UNIT.div(2);\n        uint256 term3 = dividend3.mul(UNIT).div(divisor3);\n        return divd(UNIT, muld(term1, term2 + term3)); // + unlikely to overflow\n    }\n}\n",
  "sourcePath": "/Users/brucedonovan/dev/yield/yDai/contracts/Liquidations.sol",
  "compiler": {
    "name": "solc",
    "version": "0.6.10+commit.00c0fcaf.Emscripten.clang"
  },
  "schemaVersion": "3.2.3",
  "updatedAt": "2020-09-14T08:49:59.270Z",
  "networkType": "ethereum",
  "devdoc": {
    "details": "The Liquidations contract allows to liquidate undercollateralized weth vaults in a reverse Dutch auction. Undercollateralized vaults can be liquidated by calling `liquidate`. Collateral from vaults can be bought with Dai using `buy`. Debt and collateral records will be adjusted in the Controller using `controller.grab`. Dai taken in payment will be handed over to Treasury, and collateral assets bought will be taken from Treasury as well. If a vault becomes colalteralized, the liquidation can be stopped with `cancel`.",
    "methods": {
      "aboveDustOrZero(address)": {
        "details": "Return if the debt of an user is between zero and the dust level",
        "params": {
          "user": "Address of the user vault"
        }
      },
      "addDelegate(address)": {
        "details": "Enable a delegate to act on the behalf of caller"
      },
      "addDelegateBySignature(address,address,uint256,uint8,bytes32,bytes32)": {
        "details": "Add a delegate through an encoded signature"
      },
      "batchOrchestrate(address,bytes4[])": {
        "details": "Adds orchestration for the provided function signatures"
      },
      "buy(address,address,address,uint256)": {
        "details": "Buy a portion of a position under liquidation. The caller pays the debt of `user`, and `from` receives an amount of collateral. `from` can delegate to other addresses to buy for him. Also needs to use `ERC20.approve`.",
        "params": {
          "daiAmount": "Amount of Dai to give in exchange for liquidated collateral.",
          "from": "Address of the wallet paying Dai for liquidated collateral.",
          "liquidated": "Address of the user vault to liquidate.",
          "to": "Address of the wallet to send the obtained collateral to."
        },
        "returns": {
          "_0": "The amount of collateral obtained."
        }
      },
      "constructor": {
        "details": "The Liquidations constructor links it to the Treasury and Controller contracts."
      },
      "erase(address)": {
        "details": "Removes all collateral and debt for an user. This function can only be called by other Yield contracts, not users directly.",
        "params": {
          "user": "Address of the user vault"
        },
        "returns": {
          "_0": "The amounts of collateral and debt removed from Liquidations."
        }
      },
      "liquidate(address)": {
        "details": "Starts a liquidation process for an undercollateralized vault.",
        "params": {
          "user": "Address of the user vault to liquidate."
        }
      },
      "orchestrate(address,bytes4)": {
        "details": "Add orchestration",
        "params": {
          "signature": "bytes4 signature of the function we are giving orchestrated access to. It seems to me a bad idea to give access to humans, and would use this only for predictable smart contracts.",
          "user": "Address of user or contract having access to this contract."
        }
      },
      "owner()": {
        "details": "Returns the address of the current owner."
      },
      "price(address)": {
        "details": "Return price of a collateral unit, in dai, at the present moment, for a given user",
        "params": {
          "user": "Address of the user vault in liquidation."
        }
      },
      "renounceOwnership()": {
        "details": "Leaves the contract without owner. It will not be possible to call `onlyOwner` functions anymore. Can only be called by the current owner. NOTE: Renouncing ownership will leave the contract without an owner, thereby removing any functionality that is only available to the owner."
      },
      "revokeDelegate(address)": {
        "details": "Stop a delegate from acting on the behalf of caller"
      },
      "shutdown()": {
        "details": "Disables buying at liquidations. To be called only when Treasury shuts down."
      },
      "transferOwnership(address)": {
        "details": "Transfers ownership of the contract to a new account (`newOwner`). Can only be called by the current owner."
      },
      "withdraw(address,address,uint256)": {
        "details": "Retrieve weth from a liquidations account. This weth could be a remainder from liquidations. `from` can delegate to other addresses to withdraw from him.",
        "params": {
          "from": "Address of the liquidations user vault to withdraw weth from.",
          "to": "Address of the wallet receiving the withdrawn weth.",
          "tokenAmount": "Amount of Weth to withdraw."
        }
      }
    }
  },
  "userdoc": {
    "methods": {}
  }
}