{
  "contractName": "Market",
  "abi": [
    {
      "inputs": [
        {
          "internalType": "address",
          "name": "chai_",
          "type": "address"
        },
        {
          "internalType": "address",
          "name": "yDai_",
          "type": "address"
        }
      ],
      "stateMutability": "nonpayable",
      "type": "constructor"
    },
    {
      "anonymous": false,
      "inputs": [
        {
          "indexed": true,
          "internalType": "address",
          "name": "owner",
          "type": "address"
        },
        {
          "indexed": true,
          "internalType": "address",
          "name": "spender",
          "type": "address"
        },
        {
          "indexed": false,
          "internalType": "uint256",
          "name": "value",
          "type": "uint256"
        }
      ],
      "name": "Approval",
      "type": "event"
    },
    {
      "anonymous": false,
      "inputs": [
        {
          "indexed": true,
          "internalType": "address",
          "name": "from",
          "type": "address"
        },
        {
          "indexed": true,
          "internalType": "address",
          "name": "to",
          "type": "address"
        },
        {
          "indexed": false,
          "internalType": "uint256",
          "name": "value",
          "type": "uint256"
        }
      ],
      "name": "Transfer",
      "type": "event"
    },
    {
      "inputs": [],
      "name": "CHAI",
      "outputs": [
        {
          "internalType": "bytes32",
          "name": "",
          "type": "bytes32"
        }
      ],
      "stateMutability": "view",
      "type": "function"
    },
    {
      "inputs": [],
      "name": "RAD",
      "outputs": [
        {
          "internalType": "uint8",
          "name": "",
          "type": "uint8"
        }
      ],
      "stateMutability": "view",
      "type": "function"
    },
    {
      "inputs": [],
      "name": "RAY",
      "outputs": [
        {
          "internalType": "uint8",
          "name": "",
          "type": "uint8"
        }
      ],
      "stateMutability": "view",
      "type": "function"
    },
    {
      "inputs": [],
      "name": "WAD",
      "outputs": [
        {
          "internalType": "uint8",
          "name": "",
          "type": "uint8"
        }
      ],
      "stateMutability": "view",
      "type": "function"
    },
    {
      "inputs": [],
      "name": "WETH",
      "outputs": [
        {
          "internalType": "bytes32",
          "name": "",
          "type": "bytes32"
        }
      ],
      "stateMutability": "view",
      "type": "function"
    },
    {
      "inputs": [
        {
          "internalType": "address",
          "name": "owner",
          "type": "address"
        },
        {
          "internalType": "address",
          "name": "spender",
          "type": "address"
        }
      ],
      "name": "allowance",
      "outputs": [
        {
          "internalType": "uint256",
          "name": "",
          "type": "uint256"
        }
      ],
      "stateMutability": "view",
      "type": "function"
    },
    {
      "inputs": [
        {
          "internalType": "address",
          "name": "spender",
          "type": "address"
        },
        {
          "internalType": "uint256",
          "name": "amount",
          "type": "uint256"
        }
      ],
      "name": "approve",
      "outputs": [
        {
          "internalType": "bool",
          "name": "",
          "type": "bool"
        }
      ],
      "stateMutability": "nonpayable",
      "type": "function"
    },
    {
      "inputs": [
        {
          "internalType": "address",
          "name": "account",
          "type": "address"
        }
      ],
      "name": "balanceOf",
      "outputs": [
        {
          "internalType": "uint256",
          "name": "",
          "type": "uint256"
        }
      ],
      "stateMutability": "view",
      "type": "function"
    },
    {
      "inputs": [],
      "name": "chai",
      "outputs": [
        {
          "internalType": "contract IERC20",
          "name": "",
          "type": "address"
        }
      ],
      "stateMutability": "view",
      "type": "function"
    },
    {
      "inputs": [],
      "name": "decimals",
      "outputs": [
        {
          "internalType": "uint8",
          "name": "",
          "type": "uint8"
        }
      ],
      "stateMutability": "view",
      "type": "function"
    },
    {
      "inputs": [
        {
          "internalType": "address",
          "name": "spender",
          "type": "address"
        },
        {
          "internalType": "uint256",
          "name": "subtractedValue",
          "type": "uint256"
        }
      ],
      "name": "decreaseAllowance",
      "outputs": [
        {
          "internalType": "bool",
          "name": "",
          "type": "bool"
        }
      ],
      "stateMutability": "nonpayable",
      "type": "function"
    },
    {
      "inputs": [
        {
          "internalType": "address",
          "name": "spender",
          "type": "address"
        },
        {
          "internalType": "uint256",
          "name": "addedValue",
          "type": "uint256"
        }
      ],
      "name": "increaseAllowance",
      "outputs": [
        {
          "internalType": "bool",
          "name": "",
          "type": "bool"
        }
      ],
      "stateMutability": "nonpayable",
      "type": "function"
    },
    {
      "inputs": [],
      "name": "name",
      "outputs": [
        {
          "internalType": "string",
          "name": "",
          "type": "string"
        }
      ],
      "stateMutability": "view",
      "type": "function"
    },
    {
      "inputs": [],
      "name": "symbol",
      "outputs": [
        {
          "internalType": "string",
          "name": "",
          "type": "string"
        }
      ],
      "stateMutability": "view",
      "type": "function"
    },
    {
      "inputs": [],
      "name": "totalSupply",
      "outputs": [
        {
          "internalType": "uint256",
          "name": "",
          "type": "uint256"
        }
      ],
      "stateMutability": "view",
      "type": "function"
    },
    {
      "inputs": [
        {
          "internalType": "address",
          "name": "recipient",
          "type": "address"
        },
        {
          "internalType": "uint256",
          "name": "amount",
          "type": "uint256"
        }
      ],
      "name": "transfer",
      "outputs": [
        {
          "internalType": "bool",
          "name": "",
          "type": "bool"
        }
      ],
      "stateMutability": "nonpayable",
      "type": "function"
    },
    {
      "inputs": [
        {
          "internalType": "address",
          "name": "sender",
          "type": "address"
        },
        {
          "internalType": "address",
          "name": "recipient",
          "type": "address"
        },
        {
          "internalType": "uint256",
          "name": "amount",
          "type": "uint256"
        }
      ],
      "name": "transferFrom",
      "outputs": [
        {
          "internalType": "bool",
          "name": "",
          "type": "bool"
        }
      ],
      "stateMutability": "nonpayable",
      "type": "function"
    },
    {
      "inputs": [],
      "name": "yDai",
      "outputs": [
        {
          "internalType": "contract IERC20",
          "name": "",
          "type": "address"
        }
      ],
      "stateMutability": "view",
      "type": "function"
    },
    {
      "inputs": [
        {
          "internalType": "uint256",
          "name": "chaiIn",
          "type": "uint256"
        },
        {
          "internalType": "uint256",
          "name": "yDaiIn",
          "type": "uint256"
        }
      ],
      "name": "init",
      "outputs": [],
      "stateMutability": "nonpayable",
      "type": "function"
    },
    {
      "inputs": [
        {
          "internalType": "uint256",
          "name": "chaiOffered",
          "type": "uint256"
        }
      ],
      "name": "mint",
      "outputs": [],
      "stateMutability": "nonpayable",
      "type": "function"
    },
    {
      "inputs": [
        {
          "internalType": "uint256",
          "name": "tokensBurned",
          "type": "uint256"
        }
      ],
      "name": "burn",
      "outputs": [],
      "stateMutability": "nonpayable",
      "type": "function"
    },
    {
      "inputs": [
        {
          "internalType": "uint256",
          "name": "chaiIn",
          "type": "uint256"
        }
      ],
      "name": "swapChaiForYDai",
      "outputs": [],
      "stateMutability": "nonpayable",
      "type": "function"
    },
    {
      "inputs": [
        {
          "internalType": "uint256",
          "name": "yDaiIn",
          "type": "uint256"
        }
      ],
      "name": "swapYDaiForChai",
      "outputs": [],
      "stateMutability": "nonpayable",
      "type": "function"
    },
    {
      "inputs": [
        {
          "internalType": "uint256",
          "name": "newChaiBalance",
          "type": "uint256"
        }
      ],
      "name": "targetYDaiBalance",
      "outputs": [
        {
          "internalType": "uint256",
          "name": "",
          "type": "uint256"
        }
      ],
      "stateMutability": "nonpayable",
      "type": "function"
    },
    {
      "inputs": [
        {
          "internalType": "uint256",
          "name": "newYDaiBalance",
          "type": "uint256"
        }
      ],
      "name": "targetChaiBalance",
      "outputs": [
        {
          "internalType": "uint256",
          "name": "",
          "type": "uint256"
        }
      ],
      "stateMutability": "nonpayable",
      "type": "function"
    }
  ],
  "bytecode": "0x60806040523480156200001157600080fd5b506040516200359138038062003591833981810160405260408110156200003757600080fd5b8101908080519060200190929190805190602001909291905050506040518060400160405280600481526020017f4e616d65000000000000000000000000000000000000000000000000000000008152506040518060400160405280600681526020017f53796d626f6c00000000000000000000000000000000000000000000000000008152508160039080519060200190620000d692919062000198565b508060049080519060200190620000ef92919062000198565b506012600560006101000a81548160ff021916908360ff160217905550505081600760006101000a81548173ffffffffffffffffffffffffffffffffffffffff021916908373ffffffffffffffffffffffffffffffffffffffff16021790555080600860006101000a81548173ffffffffffffffffffffffffffffffffffffffff021916908373ffffffffffffffffffffffffffffffffffffffff160217905550505062000247565b828054600181600116156101000203166002900490600052602060002090601f016020900481019282601f10620001db57805160ff19168380011785556200020c565b828001600101855582156200020c579182015b828111156200020b578251825591602001919060010190620001ee565b5b5090506200021b91906200021f565b5090565b6200024491905b808211156200024057600081600090555060010162000226565b5090565b90565b61333a80620002576000396000f3fe608060405234801561001057600080fd5b50600436106101735760003560e01c806383995bdf116100de578063ad5c464811610097578063b6dbf9ce11610071578063b6dbf9ce14610744578063cb0206bc14610762578063dd62ed3e146107a4578063e7fc9a601461081c57610173565b8063ad5c464814610692578063aef52e3f146106b0578063b69d0456146106fa57610173565b806383995bdf146104af57806395d89b41146104dd578063a0712d6814610560578063a457c2d71461058e578063a5843f08146105f4578063a9059cbb1461062c57610173565b80633950935111610130578063395093511461034d5780634125aac7146103b357806342966c68146103e1578063552033c41461040f5780636a1460241461043357806370a082311461045757610173565b806306f405fd1461017857806306fdde031461019c578063095ea7b31461021f57806318160ddd1461028557806323b872dd146102a3578063313ce56714610329575b600080fd5b61018061085e565b604051808260ff1660ff16815260200191505060405180910390f35b6101a4610863565b6040518080602001828103825283818151815260200191508051906020019080838360005b838110156101e45780820151818401526020810190506101c9565b50505050905090810190601f1680156102115780820380516001836020036101000a031916815260200191505b509250505060405180910390f35b61026b6004803603604081101561023557600080fd5b81019080803573ffffffffffffffffffffffffffffffffffffffff16906020019092919080359060200190929190505050610905565b604051808215151515815260200191505060405180910390f35b61028d610923565b6040518082815260200191505060405180910390f35b61030f600480360360608110156102b957600080fd5b81019080803573ffffffffffffffffffffffffffffffffffffffff169060200190929190803573ffffffffffffffffffffffffffffffffffffffff1690602001909291908035906020019092919050505061092d565b604051808215151515815260200191505060405180910390f35b610331610a06565b604051808260ff1660ff16815260200191505060405180910390f35b6103996004803603604081101561036357600080fd5b81019080803573ffffffffffffffffffffffffffffffffffffffff16906020019092919080359060200190929190505050610a1d565b604051808215151515815260200191505060405180910390f35b6103df600480360360208110156103c957600080fd5b8101908080359060200190929190505050610ad0565b005b61040d600480360360208110156103f757600080fd5b8101908080359060200190929190505050610ecb565b005b610417611465565b604051808260ff1660ff16815260200191505060405180910390f35b61043b61146a565b604051808260ff1660ff16815260200191505060405180910390f35b6104996004803603602081101561046d57600080fd5b81019080803573ffffffffffffffffffffffffffffffffffffffff16906020019092919050505061146f565b6040518082815260200191505060405180910390f35b6104db600480360360208110156104c557600080fd5b81019080803590602001909291905050506114b7565b005b6104e56118b2565b6040518080602001828103825283818151815260200191508051906020019080838360005b8381101561052557808201518184015260208101905061050a565b50505050905090810190601f1680156105525780820380516001836020036101000a031916815260200191505b509250505060405180910390f35b61058c6004803603602081101561057657600080fd5b8101908080359060200190929190505050611954565b005b6105da600480360360408110156105a457600080fd5b81019080803573ffffffffffffffffffffffffffffffffffffffff16906020019092919080359060200190929190505050611f62565b604051808215151515815260200191505060405180910390f35b61062a6004803603604081101561060a57600080fd5b81019080803590602001909291908035906020019092919050505061202f565b005b6106786004803603604081101561064257600080fd5b81019080803573ffffffffffffffffffffffffffffffffffffffff169060200190929190803590602001909291905050506122f8565b604051808215151515815260200191505060405180910390f35b61069a612316565b6040518082815260200191505060405180910390f35b6106b861233a565b604051808273ffffffffffffffffffffffffffffffffffffffff1673ffffffffffffffffffffffffffffffffffffffff16815260200191505060405180910390f35b610702612360565b604051808273ffffffffffffffffffffffffffffffffffffffff1673ffffffffffffffffffffffffffffffffffffffff16815260200191505060405180910390f35b61074c612386565b6040518082815260200191505060405180910390f35b61078e6004803603602081101561077857600080fd5b81019080803590602001909291905050506123aa565b6040518082815260200191505060405180910390f35b610806600480360360408110156107ba57600080fd5b81019080803573ffffffffffffffffffffffffffffffffffffffff169060200190929190803573ffffffffffffffffffffffffffffffffffffffff1690602001909291905050506123b4565b6040518082815260200191505060405180910390f35b6108486004803603602081101561083257600080fd5b810190808035906020019092919050505061243b565b6040518082815260200191505060405180910390f35b602d81565b606060038054600181600116156101000203166002900480601f0160208091040260200160405190810160405280929190818152602001828054600181600116156101000203166002900480156108fb5780601f106108d0576101008083540402835291602001916108fb565b820191906000526020600020905b8154815290600101906020018083116108de57829003601f168201915b5050505050905090565b6000610919610912612445565b848461244d565b6001905092915050565b6000600254905090565b600061093a848484612644565b6109fb84610946612445565b6109f68560405180606001604052806028815260200161324e60289139600160008b73ffffffffffffffffffffffffffffffffffffffff1673ffffffffffffffffffffffffffffffffffffffff16815260200190815260200160002060006109ac612445565b73ffffffffffffffffffffffffffffffffffffffff1673ffffffffffffffffffffffffffffffffffffffff168152602001908152602001600020546129059092919063ffffffff16565b61244d565b600190509392505050565b6000600560009054906101000a900460ff16905090565b6000610ac6610a2a612445565b84610ac18560016000610a3b612445565b73ffffffffffffffffffffffffffffffffffffffff1673ffffffffffffffffffffffffffffffffffffffff16815260200190815260200160002060008973ffffffffffffffffffffffffffffffffffffffff1673ffffffffffffffffffffffffffffffffffffffff168152602001908152602001600020546129c590919063ffffffff16565b61244d565b6001905092915050565b6000610bbe82600760009054906101000a900473ffffffffffffffffffffffffffffffffffffffff1673ffffffffffffffffffffffffffffffffffffffff166370a08231306040518263ffffffff1660e01b8152600401808273ffffffffffffffffffffffffffffffffffffffff1673ffffffffffffffffffffffffffffffffffffffff16815260200191505060206040518083038186803b158015610b7557600080fd5b505afa158015610b89573d6000803e3d6000fd5b505050506040513d6020811015610b9f57600080fd5b81019080805190602001909291905050506129c590919063ffffffff16565b90506000610bcb826123aa565b90506000610cbb82600860009054906101000a900473ffffffffffffffffffffffffffffffffffffffff1673ffffffffffffffffffffffffffffffffffffffff166370a08231306040518263ffffffff1660e01b8152600401808273ffffffffffffffffffffffffffffffffffffffff1673ffffffffffffffffffffffffffffffffffffffff16815260200191505060206040518083038186803b158015610c7257600080fd5b505afa158015610c86573d6000803e3d6000fd5b505050506040513d6020811015610c9c57600080fd5b8101908080519060200190929190505050612a4d90919063ffffffff16565b9050600760009054906101000a900473ffffffffffffffffffffffffffffffffffffffff1673ffffffffffffffffffffffffffffffffffffffff166323b872dd3330876040518463ffffffff1660e01b8152600401808473ffffffffffffffffffffffffffffffffffffffff1673ffffffffffffffffffffffffffffffffffffffff1681526020018373ffffffffffffffffffffffffffffffffffffffff1673ffffffffffffffffffffffffffffffffffffffff1681526020018281526020019350505050602060405180830381600087803b158015610d9a57600080fd5b505af1158015610dae573d6000803e3d6000fd5b505050506040513d6020811015610dc457600080fd5b810190808051906020019092919050505050600860009054906101000a900473ffffffffffffffffffffffffffffffffffffffff1673ffffffffffffffffffffffffffffffffffffffff1663a9059cbb33836040518363ffffffff1660e01b8152600401808373ffffffffffffffffffffffffffffffffffffffff1673ffffffffffffffffffffffffffffffffffffffff16815260200182815260200192505050602060405180830381600087803b158015610e7f57600080fd5b505af1158015610e93573d6000803e3d6000fd5b505050506040513d6020811015610ea957600080fd5b810190808051906020019092919050505050610ec58383612a97565b50505050565b6000610ed5610923565b9050610ee13383612c42565b600760009054906101000a900473ffffffffffffffffffffffffffffffffffffffff1673ffffffffffffffffffffffffffffffffffffffff1663a9059cbb3361101e84611010600760009054906101000a900473ffffffffffffffffffffffffffffffffffffffff1673ffffffffffffffffffffffffffffffffffffffff166370a08231306040518263ffffffff1660e01b8152600401808273ffffffffffffffffffffffffffffffffffffffff1673ffffffffffffffffffffffffffffffffffffffff16815260200191505060206040518083038186803b158015610fc657600080fd5b505afa158015610fda573d6000803e3d6000fd5b505050506040513d6020811015610ff057600080fd5b810190808051906020019092919050505088612e0690919063ffffffff16565b612e8c90919063ffffffff16565b6040518363ffffffff1660e01b8152600401808373ffffffffffffffffffffffffffffffffffffffff1673ffffffffffffffffffffffffffffffffffffffff16815260200182815260200192505050602060405180830381600087803b15801561108757600080fd5b505af115801561109b573d6000803e3d6000fd5b505050506040513d60208110156110b157600080fd5b810190808051906020019092919050505050600860009054906101000a900473ffffffffffffffffffffffffffffffffffffffff1673ffffffffffffffffffffffffffffffffffffffff1663a9059cbb33611200846111f2600860009054906101000a900473ffffffffffffffffffffffffffffffffffffffff1673ffffffffffffffffffffffffffffffffffffffff166370a08231306040518263ffffffff1660e01b8152600401808273ffffffffffffffffffffffffffffffffffffffff1673ffffffffffffffffffffffffffffffffffffffff16815260200191505060206040518083038186803b1580156111a857600080fd5b505afa1580156111bc573d6000803e3d6000fd5b505050506040513d60208110156111d257600080fd5b810190808051906020019092919050505088612e0690919063ffffffff16565b612e8c90919063ffffffff16565b6040518363ffffffff1660e01b8152600401808373ffffffffffffffffffffffffffffffffffffffff1673ffffffffffffffffffffffffffffffffffffffff16815260200182815260200192505050602060405180830381600087803b15801561126957600080fd5b505af115801561127d573d6000803e3d6000fd5b505050506040513d602081101561129357600080fd5b810190808051906020019092919050505050611461600760009054906101000a900473ffffffffffffffffffffffffffffffffffffffff1673ffffffffffffffffffffffffffffffffffffffff166370a08231306040518263ffffffff1660e01b8152600401808273ffffffffffffffffffffffffffffffffffffffff1673ffffffffffffffffffffffffffffffffffffffff16815260200191505060206040518083038186803b15801561134757600080fd5b505afa15801561135b573d6000803e3d6000fd5b505050506040513d602081101561137157600080fd5b8101908080519060200190929190505050600860009054906101000a900473ffffffffffffffffffffffffffffffffffffffff1673ffffffffffffffffffffffffffffffffffffffff166370a08231306040518263ffffffff1660e01b8152600401808273ffffffffffffffffffffffffffffffffffffffff1673ffffffffffffffffffffffffffffffffffffffff16815260200191505060206040518083038186803b15801561142157600080fd5b505afa158015611435573d6000803e3d6000fd5b505050506040513d602081101561144b57600080fd5b8101908080519060200190929190505050612a97565b5050565b601b81565b601281565b60008060008373ffffffffffffffffffffffffffffffffffffffff1673ffffffffffffffffffffffffffffffffffffffff168152602001908152602001600020549050919050565b60006115a582600860009054906101000a900473ffffffffffffffffffffffffffffffffffffffff1673ffffffffffffffffffffffffffffffffffffffff166370a08231306040518263ffffffff1660e01b8152600401808273ffffffffffffffffffffffffffffffffffffffff1673ffffffffffffffffffffffffffffffffffffffff16815260200191505060206040518083038186803b15801561155c57600080fd5b505afa158015611570573d6000803e3d6000fd5b505050506040513d602081101561158657600080fd5b81019080805190602001909291905050506129c590919063ffffffff16565b905060006115b28261243b565b905060006116a282600760009054906101000a900473ffffffffffffffffffffffffffffffffffffffff1673ffffffffffffffffffffffffffffffffffffffff166370a08231306040518263ffffffff1660e01b8152600401808273ffffffffffffffffffffffffffffffffffffffff1673ffffffffffffffffffffffffffffffffffffffff16815260200191505060206040518083038186803b15801561165957600080fd5b505afa15801561166d573d6000803e3d6000fd5b505050506040513d602081101561168357600080fd5b8101908080519060200190929190505050612a4d90919063ffffffff16565b9050600860009054906101000a900473ffffffffffffffffffffffffffffffffffffffff1673ffffffffffffffffffffffffffffffffffffffff166323b872dd3330876040518463ffffffff1660e01b8152600401808473ffffffffffffffffffffffffffffffffffffffff1673ffffffffffffffffffffffffffffffffffffffff1681526020018373ffffffffffffffffffffffffffffffffffffffff1673ffffffffffffffffffffffffffffffffffffffff1681526020018281526020019350505050602060405180830381600087803b15801561178157600080fd5b505af1158015611795573d6000803e3d6000fd5b505050506040513d60208110156117ab57600080fd5b810190808051906020019092919050505050600760009054906101000a900473ffffffffffffffffffffffffffffffffffffffff1673ffffffffffffffffffffffffffffffffffffffff1663a9059cbb33836040518363ffffffff1660e01b8152600401808373ffffffffffffffffffffffffffffffffffffffff1673ffffffffffffffffffffffffffffffffffffffff16815260200182815260200192505050602060405180830381600087803b15801561186657600080fd5b505af115801561187a573d6000803e3d6000fd5b505050506040513d602081101561189057600080fd5b8101908080519060200190929190505050506118ac8284612a97565b50505050565b606060048054600181600116156101000203166002900480601f01602080910402602001604051908101604052809291908181526020018280546001816001161561010002031660029004801561194a5780601f1061191f5761010080835404028352916020019161194a565b820191906000526020600020905b81548152906001019060200180831161192d57829003601f168201915b5050505050905090565b600061195e610923565b90506000611a60600760009054906101000a900473ffffffffffffffffffffffffffffffffffffffff1673ffffffffffffffffffffffffffffffffffffffff166370a08231306040518263ffffffff1660e01b8152600401808273ffffffffffffffffffffffffffffffffffffffff1673ffffffffffffffffffffffffffffffffffffffff16815260200191505060206040518083038186803b158015611a0457600080fd5b505afa158015611a18573d6000803e3d6000fd5b505050506040513d6020811015611a2e57600080fd5b8101908080519060200190929190505050611a528585612e0690919063ffffffff16565b612e8c90919063ffffffff16565b90506000611b62600860009054906101000a900473ffffffffffffffffffffffffffffffffffffffff1673ffffffffffffffffffffffffffffffffffffffff166370a08231306040518263ffffffff1660e01b8152600401808273ffffffffffffffffffffffffffffffffffffffff1673ffffffffffffffffffffffffffffffffffffffff16815260200191505060206040518083038186803b158015611b0657600080fd5b505afa158015611b1a573d6000803e3d6000fd5b505050506040513d6020811015611b3057600080fd5b8101908080519060200190929190505050611b548486612e0690919063ffffffff16565b612e8c90919063ffffffff16565b9050600760009054906101000a900473ffffffffffffffffffffffffffffffffffffffff1673ffffffffffffffffffffffffffffffffffffffff166323b872dd3330876040518463ffffffff1660e01b8152600401808473ffffffffffffffffffffffffffffffffffffffff1673ffffffffffffffffffffffffffffffffffffffff1681526020018373ffffffffffffffffffffffffffffffffffffffff1673ffffffffffffffffffffffffffffffffffffffff1681526020018281526020019350505050602060405180830381600087803b158015611c4157600080fd5b505af1158015611c55573d6000803e3d6000fd5b505050506040513d6020811015611c6b57600080fd5b810190808051906020019092919050505050600860009054906101000a900473ffffffffffffffffffffffffffffffffffffffff1673ffffffffffffffffffffffffffffffffffffffff166323b872dd3330846040518463ffffffff1660e01b8152600401808473ffffffffffffffffffffffffffffffffffffffff1673ffffffffffffffffffffffffffffffffffffffff1681526020018373ffffffffffffffffffffffffffffffffffffffff1673ffffffffffffffffffffffffffffffffffffffff1681526020018281526020019350505050602060405180830381600087803b158015611d5a57600080fd5b505af1158015611d6e573d6000803e3d6000fd5b505050506040513d6020811015611d8457600080fd5b810190808051906020019092919050505050611da03383612ed6565b611f5c600760009054906101000a900473ffffffffffffffffffffffffffffffffffffffff1673ffffffffffffffffffffffffffffffffffffffff166370a08231306040518263ffffffff1660e01b8152600401808273ffffffffffffffffffffffffffffffffffffffff1673ffffffffffffffffffffffffffffffffffffffff16815260200191505060206040518083038186803b158015611e4257600080fd5b505afa158015611e56573d6000803e3d6000fd5b505050506040513d6020811015611e6c57600080fd5b8101908080519060200190929190505050600860009054906101000a900473ffffffffffffffffffffffffffffffffffffffff1673ffffffffffffffffffffffffffffffffffffffff166370a08231306040518263ffffffff1660e01b8152600401808273ffffffffffffffffffffffffffffffffffffffff1673ffffffffffffffffffffffffffffffffffffffff16815260200191505060206040518083038186803b158015611f1c57600080fd5b505afa158015611f30573d6000803e3d6000fd5b505050506040513d6020811015611f4657600080fd5b8101908080519060200190929190505050612a97565b50505050565b6000612025611f6f612445565b84612020856040518060600160405280602581526020016132e06025913960016000611f99612445565b73ffffffffffffffffffffffffffffffffffffffff1673ffffffffffffffffffffffffffffffffffffffff16815260200190815260200160002060008a73ffffffffffffffffffffffffffffffffffffffff1673ffffffffffffffffffffffffffffffffffffffff168152602001908152602001600020546129059092919063ffffffff16565b61244d565b6001905092915050565b6000612039610923565b146120ac576040517f08c379a000000000000000000000000000000000000000000000000000000000815260040180806020018281038252601b8152602001807f4d61726b65743a20416c726561647920696e697469616c697a6564000000000081525060200191505060405180910390fd5b600760009054906101000a900473ffffffffffffffffffffffffffffffffffffffff1673ffffffffffffffffffffffffffffffffffffffff166323b872dd3330856040518463ffffffff1660e01b8152600401808473ffffffffffffffffffffffffffffffffffffffff1673ffffffffffffffffffffffffffffffffffffffff1681526020018373ffffffffffffffffffffffffffffffffffffffff1673ffffffffffffffffffffffffffffffffffffffff1681526020018281526020019350505050602060405180830381600087803b15801561218957600080fd5b505af115801561219d573d6000803e3d6000fd5b505050506040513d60208110156121b357600080fd5b810190808051906020019092919050505050600860009054906101000a900473ffffffffffffffffffffffffffffffffffffffff1673ffffffffffffffffffffffffffffffffffffffff166323b872dd3330846040518463ffffffff1660e01b8152600401808473ffffffffffffffffffffffffffffffffffffffff1673ffffffffffffffffffffffffffffffffffffffff1681526020018373ffffffffffffffffffffffffffffffffffffffff1673ffffffffffffffffffffffffffffffffffffffff1681526020018281526020019350505050602060405180830381600087803b1580156122a257600080fd5b505af11580156122b6573d6000803e3d6000fd5b505050506040513d60208110156122cc57600080fd5b8101908080519060200190929190505050506122ea336103e8612ed6565b6122f48282612a97565b5050565b600061230c612305612445565b8484612644565b6001905092915050565b7f574554480000000000000000000000000000000000000000000000000000000081565b600860009054906101000a900473ffffffffffffffffffffffffffffffffffffffff1681565b600760009054906101000a900473ffffffffffffffffffffffffffffffffffffffff1681565b7f434841490000000000000000000000000000000000000000000000000000000081565b6000819050919050565b6000600160008473ffffffffffffffffffffffffffffffffffffffff1673ffffffffffffffffffffffffffffffffffffffff16815260200190815260200160002060008373ffffffffffffffffffffffffffffffffffffffff1673ffffffffffffffffffffffffffffffffffffffff16815260200190815260200160002054905092915050565b6000819050919050565b600033905090565b600073ffffffffffffffffffffffffffffffffffffffff168373ffffffffffffffffffffffffffffffffffffffff1614156124d3576040517f08c379a00000000000000000000000000000000000000000000000000000000081526004018080602001828103825260248152602001806132bc6024913960400191505060405180910390fd5b600073ffffffffffffffffffffffffffffffffffffffff168273ffffffffffffffffffffffffffffffffffffffff161415612559576040517f08c379a00000000000000000000000000000000000000000000000000000000081526004018080602001828103825260228152602001806131e56022913960400191505060405180910390fd5b80600160008573ffffffffffffffffffffffffffffffffffffffff1673ffffffffffffffffffffffffffffffffffffffff16815260200190815260200160002060008473ffffffffffffffffffffffffffffffffffffffff1673ffffffffffffffffffffffffffffffffffffffff168152602001908152602001600020819055508173ffffffffffffffffffffffffffffffffffffffff168373ffffffffffffffffffffffffffffffffffffffff167f8c5be1e5ebec7d5bd14f71427d1e84f3dd0314c0f7b2291e5b200ac8c7c3b925836040518082815260200191505060405180910390a3505050565b600073ffffffffffffffffffffffffffffffffffffffff168373ffffffffffffffffffffffffffffffffffffffff1614156126ca576040517f08c379a00000000000000000000000000000000000000000000000000000000081526004018080602001828103825260258152602001806132976025913960400191505060405180910390fd5b600073ffffffffffffffffffffffffffffffffffffffff168273ffffffffffffffffffffffffffffffffffffffff161415612750576040517f08c379a00000000000000000000000000000000000000000000000000000000081526004018080602001828103825260238152602001806131a06023913960400191505060405180910390fd5b61275b83838361309d565b6127c681604051806060016040528060268152602001613207602691396000808773ffffffffffffffffffffffffffffffffffffffff1673ffffffffffffffffffffffffffffffffffffffff168152602001908152602001600020546129059092919063ffffffff16565b6000808573ffffffffffffffffffffffffffffffffffffffff1673ffffffffffffffffffffffffffffffffffffffff16815260200190815260200160002081905550612859816000808573ffffffffffffffffffffffffffffffffffffffff1673ffffffffffffffffffffffffffffffffffffffff168152602001908152602001600020546129c590919063ffffffff16565b6000808473ffffffffffffffffffffffffffffffffffffffff1673ffffffffffffffffffffffffffffffffffffffff168152602001908152602001600020819055508173ffffffffffffffffffffffffffffffffffffffff168373ffffffffffffffffffffffffffffffffffffffff167fddf252ad1be2c89b69c2b068fc378daa952ba7f163c4a11628f55a4df523b3ef836040518082815260200191505060405180910390a3505050565b60008383111582906129b2576040517f08c379a00000000000000000000000000000000000000000000000000000000081526004018080602001828103825283818151815260200191508051906020019080838360005b8381101561297757808201518184015260208101905061295c565b50505050905090810190601f1680156129a45780820380516001836020036101000a031916815260200191505b509250505060405180910390fd5b5060008385039050809150509392505050565b600080828401905083811015612a43576040517f08c379a000000000000000000000000000000000000000000000000000000000815260040180806020018281038252601b8152602001807f536166654d6174683a206164646974696f6e206f766572666c6f77000000000081525060200191505060405180910390fd5b8091505092915050565b6000612a8f83836040518060400160405280601e81526020017f536166654d6174683a207375627472616374696f6e206f766572666c6f770000815250612905565b905092915050565b612a9f613168565b60066040518060600160405290816000820160009054906101000a900463ffffffff1663ffffffff1663ffffffff1681526020016000820160049054906101000a900463ffffffff1663ffffffff1663ffffffff1681526020016000820160089054906101000a900467ffffffffffffffff1667ffffffffffffffff1667ffffffffffffffff1681525050905060405180606001604052806401000000004281612b4557fe5b0663ffffffff168152602001846b033b2e3c9fd0803ce8000000850281612b6857fe5b0463ffffffff1681526020016b033b2e3c9fd0803ce8000000836000015163ffffffff164203846020015163ffffffff160281612ba157fe5b04836020015163ffffffff160167ffffffffffffffff16815250600660008201518160000160006101000a81548163ffffffff021916908363ffffffff16021790555060208201518160000160046101000a81548163ffffffff021916908363ffffffff16021790555060408201518160000160086101000a81548167ffffffffffffffff021916908367ffffffffffffffff160217905550905050505050565b600073ffffffffffffffffffffffffffffffffffffffff168273ffffffffffffffffffffffffffffffffffffffff161415612cc8576040517f08c379a00000000000000000000000000000000000000000000000000000000081526004018080602001828103825260218152602001806132766021913960400191505060405180910390fd5b612cd48260008361309d565b612d3f816040518060600160405280602281526020016131c3602291396000808673ffffffffffffffffffffffffffffffffffffffff1673ffffffffffffffffffffffffffffffffffffffff168152602001908152602001600020546129059092919063ffffffff16565b6000808473ffffffffffffffffffffffffffffffffffffffff1673ffffffffffffffffffffffffffffffffffffffff16815260200190815260200160002081905550612d9681600254612a4d90919063ffffffff16565b600281905550600073ffffffffffffffffffffffffffffffffffffffff168273ffffffffffffffffffffffffffffffffffffffff167fddf252ad1be2c89b69c2b068fc378daa952ba7f163c4a11628f55a4df523b3ef836040518082815260200191505060405180910390a35050565b600080831415612e195760009050612e86565b6000828402905082848281612e2a57fe5b0414612e81576040517f08c379a000000000000000000000000000000000000000000000000000000000815260040180806020018281038252602181526020018061322d6021913960400191505060405180910390fd5b809150505b92915050565b6000612ece83836040518060400160405280601a81526020017f536166654d6174683a206469766973696f6e206279207a65726f0000000000008152506130a2565b905092915050565b600073ffffffffffffffffffffffffffffffffffffffff168273ffffffffffffffffffffffffffffffffffffffff161415612f79576040517f08c379a000000000000000000000000000000000000000000000000000000000815260040180806020018281038252601f8152602001807f45524332303a206d696e7420746f20746865207a65726f20616464726573730081525060200191505060405180910390fd5b612f856000838361309d565b612f9a816002546129c590919063ffffffff16565b600281905550612ff1816000808573ffffffffffffffffffffffffffffffffffffffff1673ffffffffffffffffffffffffffffffffffffffff168152602001908152602001600020546129c590919063ffffffff16565b6000808473ffffffffffffffffffffffffffffffffffffffff1673ffffffffffffffffffffffffffffffffffffffff168152602001908152602001600020819055508173ffffffffffffffffffffffffffffffffffffffff16600073ffffffffffffffffffffffffffffffffffffffff167fddf252ad1be2c89b69c2b068fc378daa952ba7f163c4a11628f55a4df523b3ef836040518082815260200191505060405180910390a35050565b505050565b6000808311829061314e576040517f08c379a00000000000000000000000000000000000000000000000000000000081526004018080602001828103825283818151815260200191508051906020019080838360005b838110156131135780820151818401526020810190506130f8565b50505050905090810190601f1680156131405780820380516001836020036101000a031916815260200191505b509250505060405180910390fd5b50600083858161315a57fe5b049050809150509392505050565b6040518060600160405280600063ffffffff168152602001600063ffffffff168152602001600067ffffffffffffffff168152509056fe45524332303a207472616e7366657220746f20746865207a65726f206164647265737345524332303a206275726e20616d6f756e7420657863656564732062616c616e636545524332303a20617070726f766520746f20746865207a65726f206164647265737345524332303a207472616e7366657220616d6f756e7420657863656564732062616c616e6365536166654d6174683a206d756c7469706c69636174696f6e206f766572666c6f7745524332303a207472616e7366657220616d6f756e74206578636565647320616c6c6f77616e636545524332303a206275726e2066726f6d20746865207a65726f206164647265737345524332303a207472616e736665722066726f6d20746865207a65726f206164647265737345524332303a20617070726f76652066726f6d20746865207a65726f206164647265737345524332303a2064656372656173656420616c6c6f77616e63652062656c6f77207a65726fa264697066735822122085c6d5485bac4ee7952686f8db2a1de38363b6b0a9dea3b1b23c65490fdbb98d64736f6c63430006020033",
  "source": "pragma solidity ^0.6.2;\n\nimport \"@openzeppelin/contracts/math/SafeMath.sol\";\nimport \"@openzeppelin/contracts/token/ERC20/ERC20.sol\";\nimport \"@openzeppelin/contracts/token/ERC20/IERC20.sol\";\nimport \"../helpers/Constants.sol\";\nimport \"@nomiclabs/buidler/console.sol\";\n\n\n/// @dev The Market contract exchanges Dai for yDai at a price defined by a specific formula.\ncontract Market is ERC20, Constants {\n    using SafeMath for uint256;\n\n    struct State {\n        uint32 timestamp;    // last time contract was updated. wraps around after 2^32\n        uint32 prevRate;     // UQ16x16 interest rate last time the contract was updated\n        uint64 accumulator;  // interest rate oracle accumulator32 bits for a UQ16x16, 32 bits for overflow\n    }\n\n    uint256 constant initialSupply = 1000;\n\n    State internal state;\n    IERC20 public chai;\n    IERC20 public yDai;\n\n    constructor(address chai_, address yDai_) public ERC20(\"Name\", \"Symbol\") {\n        chai = IERC20(chai_);\n        yDai = IERC20(yDai_);\n    }\n\n    function init(uint256 chaiIn, uint256 yDaiIn) external {\n        require(\n            totalSupply() == 0,\n            \"Market: Already initialized\"\n        );\n\n        chai.transferFrom(msg.sender, address(this), chaiIn);\n        yDai.transferFrom(msg.sender, address(this), yDaiIn);\n        _mint(msg.sender, initialSupply);\n\n        _updateState(chaiIn, yDaiIn);\n    }\n\n    /// @dev Mint liquidity tokens in exchange for adding chai and yDai\n    /// The parameter passed is the amount of `chai` being invested, an appropriate amount of `yDai` to be invested alongside will be calculated and taken by this function from the caller.\n    function mint(uint256 chaiOffered) external {\n        uint256 supply = totalSupply();\n        uint256 tokensMinted = supply.mul(chaiOffered).div(chai.balanceOf(address(this)));\n        uint256 yDaiRequired = supply.mul(tokensMinted).div(yDai.balanceOf(address(this)));\n\n        chai.transferFrom(msg.sender, address(this), chaiOffered);\n        yDai.transferFrom(msg.sender, address(this), yDaiRequired);\n        _mint(msg.sender, tokensMinted);\n\n        _updateState(chai.balanceOf(address(this)), yDai.balanceOf(address(this)));\n    }\n\n    /// @dev Burn liquidity tokens in exchange for chai and yDai\n    function burn(uint256 tokensBurned) external {\n        uint256 supply = totalSupply();\n\n        _burn(msg.sender, tokensBurned);\n        chai.transfer(msg.sender, tokensBurned.mul(chai.balanceOf(address(this))).div(supply));\n        yDai.transfer(msg.sender, tokensBurned.mul(yDai.balanceOf(address(this))).div(supply));\n\n        _updateState(chai.balanceOf(address(this)), yDai.balanceOf(address(this)));\n    }\n\n    /// @dev Swap Chai for yDai\n    function swapChaiForYDai(uint256 chaiIn) external { // TODO: Add `from` and `to` parameters\n\n        uint256 newChaiBalance = chai.balanceOf(address(this)).add(chaiIn);\n        uint256 newYDaiBalance = targetYDaiBalance(newChaiBalance);\n        uint256 yDaiOut = yDai.balanceOf(address(this)).sub(newYDaiBalance);\n\n        chai.transferFrom(msg.sender, address(this), chaiIn);\n        yDai.transfer(msg.sender, yDaiOut);\n\n        _updateState(newChaiBalance, newYDaiBalance);\n    }\n\n    /// @dev Swap yDai for Chai\n    function swapYDaiForChai(uint256 yDaiIn) external { // TODO: Add `from` and `to` parameters\n\n        uint256 newYDaiBalance = yDai.balanceOf(address(this)).add(yDaiIn);\n        uint256 newChaiBalance = targetChaiBalance(newYDaiBalance);\n        uint256 chaiOut = chai.balanceOf(address(this)).sub(newChaiBalance);\n\n        yDai.transferFrom(msg.sender, address(this), yDaiIn);\n        chai.transfer(msg.sender, chaiOut);\n\n        _updateState(newChaiBalance, newYDaiBalance);\n    }\n\n    /// @dev For the balance passed as an argument, returns the size of the reciprocal balance\n    function targetYDaiBalance(uint256 newChaiBalance) public returns(uint256) {\n        return newChaiBalance; // TODO: Magic!\n    }\n\n    /// @dev For the balance passed as an argument, returns the size of the reciprocal balance\n    function targetChaiBalance(uint256 newYDaiBalance) public returns(uint256) {\n        return newYDaiBalance; // TODO: Magic!\n    }\n\n    // TODO: What is this?\n    function _updateState(uint256 x0, uint256 y0) internal {\n        State memory prevState = state;\n        state = State({\n            timestamp: uint32(block.timestamp % 2**32),\n            accumulator: uint64(prevState.prevRate + (prevState.prevRate * (block.timestamp - prevState.timestamp)) / 10**27),\n            prevRate: uint32(y0 * 10**27 / x0)\n        });\n    }\n}",
  "sourcePath": "/Users/bruce/dev/yieldprotocol/ytoken-mvp/contracts/peripheral/Market.sol",
  "compiler": {
    "name": "solc",
    "version": "0.6.2+commit.bacdbe57.Emscripten.clang"
  },
  "schemaVersion": "3.0.23",
  "updatedAt": "2020-07-01T06:23:49.333Z",
  "devdoc": {
    "details": "The Market contract exchanges Dai for yDai at a price defined by a specific formula.",
    "methods": {
      "allowance(address,address)": {
        "details": "See {IERC20-allowance}."
      },
      "approve(address,uint256)": {
        "details": "See {IERC20-approve}.     * Requirements:     * - `spender` cannot be the zero address."
      },
      "balanceOf(address)": {
        "details": "See {IERC20-balanceOf}."
      },
      "burn(uint256)": {
        "details": "Burn liquidity tokens in exchange for chai and yDai"
      },
      "decimals()": {
        "details": "Returns the number of decimals used to get its user representation. For example, if `decimals` equals `2`, a balance of `505` tokens should be displayed to a user as `5,05` (`505 / 10 ** 2`).     * Tokens usually opt for a value of 18, imitating the relationship between Ether and Wei. This is the value {ERC20} uses, unless {_setupDecimals} is called.     * NOTE: This information is only used for _display_ purposes: it in no way affects any of the arithmetic of the contract, including {IERC20-balanceOf} and {IERC20-transfer}."
      },
      "decreaseAllowance(address,uint256)": {
        "details": "Atomically decreases the allowance granted to `spender` by the caller.     * This is an alternative to {approve} that can be used as a mitigation for problems described in {IERC20-approve}.     * Emits an {Approval} event indicating the updated allowance.     * Requirements:     * - `spender` cannot be the zero address. - `spender` must have allowance for the caller of at least `subtractedValue`."
      },
      "increaseAllowance(address,uint256)": {
        "details": "Atomically increases the allowance granted to `spender` by the caller.     * This is an alternative to {approve} that can be used as a mitigation for problems described in {IERC20-approve}.     * Emits an {Approval} event indicating the updated allowance.     * Requirements:     * - `spender` cannot be the zero address."
      },
      "mint(uint256)": {
        "details": "Mint liquidity tokens in exchange for adding chai and yDai The parameter passed is the amount of `chai` being invested, an appropriate amount of `yDai` to be invested alongside will be calculated and taken by this function from the caller."
      },
      "name()": {
        "details": "Returns the name of the token."
      },
      "swapChaiForYDai(uint256)": {
        "details": "Swap Chai for yDai"
      },
      "swapYDaiForChai(uint256)": {
        "details": "Swap yDai for Chai"
      },
      "symbol()": {
        "details": "Returns the symbol of the token, usually a shorter version of the name."
      },
      "targetChaiBalance(uint256)": {
        "details": "For the balance passed as an argument, returns the size of the reciprocal balance"
      },
      "targetYDaiBalance(uint256)": {
        "details": "For the balance passed as an argument, returns the size of the reciprocal balance"
      },
      "totalSupply()": {
        "details": "See {IERC20-totalSupply}."
      },
      "transfer(address,uint256)": {
        "details": "See {IERC20-transfer}.     * Requirements:     * - `recipient` cannot be the zero address. - the caller must have a balance of at least `amount`."
      },
      "transferFrom(address,address,uint256)": {
        "details": "See {IERC20-transferFrom}.     * Emits an {Approval} event indicating the updated allowance. This is not required by the EIP. See the note at the beginning of {ERC20};     * Requirements: - `sender` and `recipient` cannot be the zero address. - `sender` must have a balance of at least `amount`. - the caller must have allowance for ``sender``'s tokens of at least `amount`."
      }
    }
  },
  "userdoc": {
    "methods": {}
  }
}