{
  "contractName": "Market",
  "abi": [
    {
      "inputs": [
        {
          "internalType": "address",
          "name": "dai_",
          "type": "address"
        },
        {
          "internalType": "address",
          "name": "yDai_",
          "type": "address"
        }
      ],
      "stateMutability": "nonpayable",
      "type": "constructor"
    },
    {
      "anonymous": false,
      "inputs": [
        {
          "indexed": true,
          "internalType": "address",
          "name": "owner",
          "type": "address"
        },
        {
          "indexed": true,
          "internalType": "address",
          "name": "spender",
          "type": "address"
        },
        {
          "indexed": false,
          "internalType": "uint256",
          "name": "value",
          "type": "uint256"
        }
      ],
      "name": "Approval",
      "type": "event"
    },
    {
      "anonymous": false,
      "inputs": [
        {
          "indexed": true,
          "internalType": "address",
          "name": "user",
          "type": "address"
        },
        {
          "indexed": true,
          "internalType": "address",
          "name": "delegate",
          "type": "address"
        },
        {
          "indexed": false,
          "internalType": "bool",
          "name": "enabled",
          "type": "bool"
        }
      ],
      "name": "Delegate",
      "type": "event"
    },
    {
      "anonymous": false,
      "inputs": [
        {
          "indexed": true,
          "internalType": "address",
          "name": "from",
          "type": "address"
        },
        {
          "indexed": true,
          "internalType": "address",
          "name": "to",
          "type": "address"
        },
        {
          "indexed": false,
          "internalType": "uint256",
          "name": "value",
          "type": "uint256"
        }
      ],
      "name": "Transfer",
      "type": "event"
    },
    {
      "inputs": [
        {
          "internalType": "address",
          "name": "delegate",
          "type": "address"
        }
      ],
      "name": "addDelegate",
      "outputs": [],
      "stateMutability": "nonpayable",
      "type": "function"
    },
    {
      "inputs": [
        {
          "internalType": "address",
          "name": "owner",
          "type": "address"
        },
        {
          "internalType": "address",
          "name": "spender",
          "type": "address"
        }
      ],
      "name": "allowance",
      "outputs": [
        {
          "internalType": "uint256",
          "name": "",
          "type": "uint256"
        }
      ],
      "stateMutability": "view",
      "type": "function",
      "constant": true
    },
    {
      "inputs": [
        {
          "internalType": "address",
          "name": "spender",
          "type": "address"
        },
        {
          "internalType": "uint256",
          "name": "amount",
          "type": "uint256"
        }
      ],
      "name": "approve",
      "outputs": [
        {
          "internalType": "bool",
          "name": "",
          "type": "bool"
        }
      ],
      "stateMutability": "nonpayable",
      "type": "function"
    },
    {
      "inputs": [
        {
          "internalType": "address",
          "name": "account",
          "type": "address"
        }
      ],
      "name": "balanceOf",
      "outputs": [
        {
          "internalType": "uint256",
          "name": "",
          "type": "uint256"
        }
      ],
      "stateMutability": "view",
      "type": "function",
      "constant": true
    },
    {
      "inputs": [],
      "name": "dai",
      "outputs": [
        {
          "internalType": "contract IERC20",
          "name": "",
          "type": "address"
        }
      ],
      "stateMutability": "view",
      "type": "function",
      "constant": true
    },
    {
      "inputs": [],
      "name": "decimals",
      "outputs": [
        {
          "internalType": "uint8",
          "name": "",
          "type": "uint8"
        }
      ],
      "stateMutability": "view",
      "type": "function",
      "constant": true
    },
    {
      "inputs": [
        {
          "internalType": "address",
          "name": "spender",
          "type": "address"
        },
        {
          "internalType": "uint256",
          "name": "subtractedValue",
          "type": "uint256"
        }
      ],
      "name": "decreaseAllowance",
      "outputs": [
        {
          "internalType": "bool",
          "name": "",
          "type": "bool"
        }
      ],
      "stateMutability": "nonpayable",
      "type": "function"
    },
    {
      "inputs": [],
      "name": "g",
      "outputs": [
        {
          "internalType": "int128",
          "name": "",
          "type": "int128"
        }
      ],
      "stateMutability": "view",
      "type": "function",
      "constant": true
    },
    {
      "inputs": [
        {
          "internalType": "address",
          "name": "spender",
          "type": "address"
        },
        {
          "internalType": "uint256",
          "name": "addedValue",
          "type": "uint256"
        }
      ],
      "name": "increaseAllowance",
      "outputs": [
        {
          "internalType": "bool",
          "name": "",
          "type": "bool"
        }
      ],
      "stateMutability": "nonpayable",
      "type": "function"
    },
    {
      "inputs": [],
      "name": "k",
      "outputs": [
        {
          "internalType": "int128",
          "name": "",
          "type": "int128"
        }
      ],
      "stateMutability": "view",
      "type": "function",
      "constant": true
    },
    {
      "inputs": [],
      "name": "maturity",
      "outputs": [
        {
          "internalType": "uint128",
          "name": "",
          "type": "uint128"
        }
      ],
      "stateMutability": "view",
      "type": "function",
      "constant": true
    },
    {
      "inputs": [],
      "name": "name",
      "outputs": [
        {
          "internalType": "string",
          "name": "",
          "type": "string"
        }
      ],
      "stateMutability": "view",
      "type": "function",
      "constant": true
    },
    {
      "inputs": [
        {
          "internalType": "address",
          "name": "delegate",
          "type": "address"
        }
      ],
      "name": "revokeDelegate",
      "outputs": [],
      "stateMutability": "nonpayable",
      "type": "function"
    },
    {
      "inputs": [],
      "name": "symbol",
      "outputs": [
        {
          "internalType": "string",
          "name": "",
          "type": "string"
        }
      ],
      "stateMutability": "view",
      "type": "function",
      "constant": true
    },
    {
      "inputs": [],
      "name": "totalSupply",
      "outputs": [
        {
          "internalType": "uint256",
          "name": "",
          "type": "uint256"
        }
      ],
      "stateMutability": "view",
      "type": "function",
      "constant": true
    },
    {
      "inputs": [
        {
          "internalType": "address",
          "name": "recipient",
          "type": "address"
        },
        {
          "internalType": "uint256",
          "name": "amount",
          "type": "uint256"
        }
      ],
      "name": "transfer",
      "outputs": [
        {
          "internalType": "bool",
          "name": "",
          "type": "bool"
        }
      ],
      "stateMutability": "nonpayable",
      "type": "function"
    },
    {
      "inputs": [
        {
          "internalType": "address",
          "name": "sender",
          "type": "address"
        },
        {
          "internalType": "address",
          "name": "recipient",
          "type": "address"
        },
        {
          "internalType": "uint256",
          "name": "amount",
          "type": "uint256"
        }
      ],
      "name": "transferFrom",
      "outputs": [
        {
          "internalType": "bool",
          "name": "",
          "type": "bool"
        }
      ],
      "stateMutability": "nonpayable",
      "type": "function"
    },
    {
      "inputs": [],
      "name": "yDai",
      "outputs": [
        {
          "internalType": "contract IYDai",
          "name": "",
          "type": "address"
        }
      ],
      "stateMutability": "view",
      "type": "function",
      "constant": true
    },
    {
      "inputs": [
        {
          "internalType": "uint128",
          "name": "daiIn",
          "type": "uint128"
        },
        {
          "internalType": "uint128",
          "name": "yDaiIn",
          "type": "uint128"
        }
      ],
      "name": "init",
      "outputs": [],
      "stateMutability": "nonpayable",
      "type": "function"
    },
    {
      "inputs": [
        {
          "internalType": "uint256",
          "name": "daiOffered",
          "type": "uint256"
        }
      ],
      "name": "mint",
      "outputs": [],
      "stateMutability": "nonpayable",
      "type": "function"
    },
    {
      "inputs": [
        {
          "internalType": "uint256",
          "name": "tokensBurned",
          "type": "uint256"
        }
      ],
      "name": "burn",
      "outputs": [],
      "stateMutability": "nonpayable",
      "type": "function"
    },
    {
      "inputs": [
        {
          "internalType": "address",
          "name": "from",
          "type": "address"
        },
        {
          "internalType": "address",
          "name": "to",
          "type": "address"
        },
        {
          "internalType": "uint128",
          "name": "daiIn",
          "type": "uint128"
        }
      ],
      "name": "sellDai",
      "outputs": [
        {
          "internalType": "uint128",
          "name": "",
          "type": "uint128"
        }
      ],
      "stateMutability": "nonpayable",
      "type": "function"
    },
    {
      "inputs": [
        {
          "internalType": "uint128",
          "name": "daiIn",
          "type": "uint128"
        }
      ],
      "name": "sellDaiPreview",
      "outputs": [
        {
          "internalType": "uint128",
          "name": "",
          "type": "uint128"
        }
      ],
      "stateMutability": "view",
      "type": "function",
      "constant": true
    },
    {
      "inputs": [
        {
          "internalType": "address",
          "name": "from",
          "type": "address"
        },
        {
          "internalType": "address",
          "name": "to",
          "type": "address"
        },
        {
          "internalType": "uint128",
          "name": "daiOut",
          "type": "uint128"
        }
      ],
      "name": "buyDai",
      "outputs": [
        {
          "internalType": "uint128",
          "name": "",
          "type": "uint128"
        }
      ],
      "stateMutability": "nonpayable",
      "type": "function"
    },
    {
      "inputs": [
        {
          "internalType": "uint128",
          "name": "daiOut",
          "type": "uint128"
        }
      ],
      "name": "buyDaiPreview",
      "outputs": [
        {
          "internalType": "uint128",
          "name": "",
          "type": "uint128"
        }
      ],
      "stateMutability": "view",
      "type": "function",
      "constant": true
    },
    {
      "inputs": [
        {
          "internalType": "address",
          "name": "from",
          "type": "address"
        },
        {
          "internalType": "address",
          "name": "to",
          "type": "address"
        },
        {
          "internalType": "uint128",
          "name": "yDaiIn",
          "type": "uint128"
        }
      ],
      "name": "sellYDai",
      "outputs": [
        {
          "internalType": "uint128",
          "name": "",
          "type": "uint128"
        }
      ],
      "stateMutability": "nonpayable",
      "type": "function"
    },
    {
      "inputs": [
        {
          "internalType": "uint128",
          "name": "yDaiIn",
          "type": "uint128"
        }
      ],
      "name": "sellYDaiPreview",
      "outputs": [
        {
          "internalType": "uint128",
          "name": "",
          "type": "uint128"
        }
      ],
      "stateMutability": "view",
      "type": "function",
      "constant": true
    },
    {
      "inputs": [
        {
          "internalType": "address",
          "name": "from",
          "type": "address"
        },
        {
          "internalType": "address",
          "name": "to",
          "type": "address"
        },
        {
          "internalType": "uint128",
          "name": "yDaiOut",
          "type": "uint128"
        }
      ],
      "name": "buyYDai",
      "outputs": [
        {
          "internalType": "uint128",
          "name": "",
          "type": "uint128"
        }
      ],
      "stateMutability": "nonpayable",
      "type": "function"
    },
    {
      "inputs": [
        {
          "internalType": "uint128",
          "name": "yDaiOut",
          "type": "uint128"
        }
      ],
      "name": "buyYDaiPreview",
      "outputs": [
        {
          "internalType": "uint128",
          "name": "",
          "type": "uint128"
        }
      ],
      "stateMutability": "view",
      "type": "function",
      "constant": true
    }
  ],
  "bytecode": "0x60a06040523480156200001157600080fd5b50604051620051ad380380620051ad833981810160405260408110156200003757600080fd5b50805160209182015160408051808201825260048152634e616d6560e01b8186019081528251808401909352600683526514de5b589bdb60d21b9583019590955280519394929390926200008f9160039190620001e0565b508051620000a5906004906020840190620001e0565b50506005805460ff1916601217905550600780546001600160a01b038085166001600160a01b03199283161790925560088054848416921691909117908190556040805163204f83f960e01b815290516200016393929092169163204f83f991600480820192602092909190829003018186803b1580156200012657600080fd5b505afa1580156200013b573d6000803e3d6000fd5b505050506040513d60208110156200015257600080fd5b50516001600160e01b036200017d16565b6001600160801b0319608091821b169052506200027a9050565b60006001600160801b03821115620001dc576040805162461bcd60e51b815260206004820152601560248201527f4d61726b65743a2043617374206f766572666c6f770000000000000000000000604482015290519081900360640190fd5b5090565b828054600181600116156101000203166002900490600052602060002090601f016020900481019282601f106200022357805160ff191683800117855562000253565b8280016001018555821562000253579182015b828111156200025357825182559160200191906001019062000236565b50620001dc92620002779250905b80821115620001dc576000815560010162000261565b90565b60805160801c614ee3620002ca6000398061076452806108a952806108ef5280610a115280610ad85280610e3d5280610f515280610fb252806110d452806113ee52806115e85250614ee36000f3fe608060405234801561001057600080fd5b50600436106101cf5760003560e01c8063a0712d6811610104578063c47b5b83116100a2578063e2179b8e11610071578063e2179b8e1461064a578063e71bdf4114610652578063f4b9fa7514610678578063fa352c0014610680576101cf565b8063c47b5b831461055c578063cc5783d31461059c578063d43fde70146105dc578063dd62ed3e1461061c576101cf565b8063a9059cbb116100de578063a9059cbb146104ab578063aef52e3f146104d7578063b26be922146104fb578063b4f40c611461053b576101cf565b8063a0712d6814610434578063a191fe2814610451578063a457c2d71461047f576101cf565b8063313ce567116101715780634e20e9521161014b5780634e20e952146103ba57806370a08231146103e057806385561a341461040657806395d89b411461042c576101cf565b8063313ce56714610351578063395093511461036f57806342966c681461039b576101cf565b806318db7ee6116101ad57806318db7ee6146102ab5780631e4d81db146102ed578063204f83f91461031357806323b872dd1461031b576101cf565b806306fdde03146101d4578063095ea7b31461025157806318160ddd14610291575b600080fd5b6101dc6106a6565b6040805160208082528351818301528351919283929083019185019080838360005b838110156102165781810151838201526020016101fe565b50505050905090810190601f1680156102435780820380516001836020036101000a031916815260200191505b509250505060405180910390f35b61027d6004803603604081101561026757600080fd5b506001600160a01b03813516906020013561073c565b604080519115158252519081900360200190f35b61029961075a565b60408051918252519081900360200190f35b6102d1600480360360208110156102c157600080fd5b50356001600160801b0316610760565b604080516001600160801b039092168252519081900360200190f35b6102d16004803603602081101561030357600080fd5b50356001600160801b03166108eb565b6102d1610ad6565b61027d6004803603606081101561033157600080fd5b506001600160a01b03813581169160208101359091169060400135610afa565b610359610b88565b6040805160ff9092168252519081900360200190f35b61027d6004803603604081101561038557600080fd5b506001600160a01b038135169060200135610b91565b6103b8600480360360208110156103b157600080fd5b5035610be5565b005b6102d1600480360360208110156103d057600080fd5b50356001600160801b0316610e39565b610299600480360360208110156103f657600080fd5b50356001600160a01b0316610f93565b6102d16004803603602081101561041c57600080fd5b50356001600160801b0316610fae565b6101dc611135565b6103b86004803603602081101561044a57600080fd5b5035611196565b6103b86004803603604081101561046757600080fd5b506001600160801b03813581169160200135166113ec565b61027d6004803603604081101561049557600080fd5b506001600160a01b038135169060200135611633565b61027d600480360360408110156104c157600080fd5b506001600160a01b0381351690602001356116a1565b6104df6116b5565b604080516001600160a01b039092168252519081900360200190f35b6102d16004803603606081101561051157600080fd5b5080356001600160a01b0390811691602081013590911690604001356001600160801b03166116c4565b6105436118eb565b60408051600f92830b90920b8252519081900360200190f35b6102d16004803603606081101561057257600080fd5b5080356001600160a01b0390811691602081013590911690604001356001600160801b03166118fa565b6102d1600480360360608110156105b257600080fd5b5080356001600160a01b0390811691602081013590911690604001356001600160801b0316611aad565b6102d1600480360360608110156105f257600080fd5b5080356001600160a01b0390811691602081013590911690604001356001600160801b0316611c60565b6102996004803603604081101561063257600080fd5b506001600160a01b0381358116916020013516611e13565b610543611e3e565b6103b86004803603602081101561066857600080fd5b50356001600160a01b0316611e51565b6104df611ebd565b6103b86004803603602081101561069657600080fd5b50356001600160a01b0316611ecc565b60038054604080516020601f60026000196101006001881615020190951694909404938401819004810282018101909252828152606093909290918301828280156107325780601f1061070757610100808354040283529160200191610732565b820191906000526020600020905b81548152906001019060200180831161071557829003601f168201915b5050505050905090565b6000610750610749611f2f565b8484611f33565b5060015b92915050565b60025490565b60007f00000000000000000000000000000000000000000000000000000000000000006001600160801b031642106107d2576040805162461bcd60e51b815260206004820152601060248201526f4d61726b65743a20546f6f206c61746560801b604482015290519081900360640190fd5b600754604080516370a0823160e01b8152306004820152905161075492610856926001600160a01b03909116916370a0823191602480820192602092909190829003018186803b15801561082557600080fd5b505afa158015610839573d6000803e3d6000fd5b505050506040513d602081101561084f57600080fd5b505161201f565b600854604080516370a0823160e01b815230600482015290516108a2926001600160a01b0316916370a08231916024808301926020929190829003018186803b15801561082557600080fd5b846108d7427f00000000000000000000000000000000000000000000000000000000000000006001600160801b03160361201f565b64220c523d7267ffbe76c8b4395810612079565b60007f00000000000000000000000000000000000000000000000000000000000000006001600160801b0316421061095d576040805162461bcd60e51b815260206004820152601060248201526f4d61726b65743a20546f6f206c61746560801b604482015290519081900360640190fd5b600754604080516370a0823160e01b815230600482015290516000926109af926001600160a01b03909116916370a0823191602480820192602092909190829003018186803b15801561082557600080fd5b600854604080516370a0823160e01b81523060048201529051929350600092610a01926001600160a01b0316916370a08231916024808301926020929190829003018186803b15801561082557600080fd5b90506000610a53838387610a3f427f00000000000000000000000000000000000000000000000000000000000000006001600160801b03160361201f565b64220c523d7267ffbe76c8b439581061217e565b9050610a5f838261228e565b6001600160801b0316610a7283876122f4565b6001600160801b03161015610ace576040805162461bcd60e51b815260206004820152601d60248201527f4d61726b65743a207944616920726573657276657320746f6f206c6f77000000604482015290519081900360640190fd5b949350505050565b7f000000000000000000000000000000000000000000000000000000000000000081565b6000610b07848484612363565b610b7d84610b13611f2f565b610b7885604051806060016040528060288152602001614df7602891396001600160a01b038a16600090815260016020526040812090610b51611f2f565b6001600160a01b03168152602081019190915260400160002054919063ffffffff6124ca16565b611f33565b5060015b9392505050565b60055460ff1690565b6000610750610b9e611f2f565b84610b788560016000610baf611f2f565b6001600160a01b03908116825260208083019390935260409182016000908120918c16815292529020549063ffffffff61252416565b6000610bef61075a565b600754604080516370a0823160e01b815230600482015290519293506000926001600160a01b03909216916370a0823191602480820192602092909190829003018186803b158015610c4057600080fd5b505afa158015610c54573d6000803e3d6000fd5b505050506040513d6020811015610c6a57600080fd5b5051600854604080516370a0823160e01b815230600482015290519293506000926001600160a01b03909216916370a0823191602480820192602092909190829003018186803b158015610cbd57600080fd5b505afa158015610cd1573d6000803e3d6000fd5b505050506040513d6020811015610ce757600080fd5b505190506000610d0d84610d01878663ffffffff61257e16565b9063ffffffff6125d716565b90506000610d2585610d01888663ffffffff61257e16565b9050610d313387612619565b6007546040805163a9059cbb60e01b81523360048201526024810185905290516001600160a01b039092169163a9059cbb916044808201926020929091908290030181600087803b158015610d8557600080fd5b505af1158015610d99573d6000803e3d6000fd5b505050506040513d6020811015610daf57600080fd5b50506008546040805163a9059cbb60e01b81523360048201526024810184905290516001600160a01b039092169163a9059cbb916044808201926020929091908290030181600087803b158015610e0557600080fd5b505af1158015610e19573d6000803e3d6000fd5b505050506040513d6020811015610e2f57600080fd5b5050505050505050565b60007f00000000000000000000000000000000000000000000000000000000000000006001600160801b03164210610eab576040805162461bcd60e51b815260206004820152601060248201526f4d61726b65743a20546f6f206c61746560801b604482015290519081900360640190fd5b600754604080516370a0823160e01b8152306004820152905161075492610efe926001600160a01b03909116916370a0823191602480820192602092909190829003018186803b15801561082557600080fd5b600854604080516370a0823160e01b81523060048201529051610f4a926001600160a01b0316916370a08231916024808301926020929190829003018186803b15801561082557600080fd5b84610f7f427f00000000000000000000000000000000000000000000000000000000000000006001600160801b03160361201f565b64220c523d7267ffbe76c8b4395810612721565b6001600160a01b031660009081526020819052604090205490565b60007f00000000000000000000000000000000000000000000000000000000000000006001600160801b03164210611020576040805162461bcd60e51b815260206004820152601060248201526f4d61726b65743a20546f6f206c61746560801b604482015290519081900360640190fd5b600754604080516370a0823160e01b81523060048201529051600092611072926001600160a01b03909116916370a0823191602480820192602092909190829003018186803b15801561082557600080fd5b600854604080516370a0823160e01b815230600482015290519293506000926110c4926001600160a01b0316916370a08231916024808301926020929190829003018186803b15801561082557600080fd5b90506000611116838387611102427f00000000000000000000000000000000000000000000000000000000000000006001600160801b03160361201f565b64220c523d7267ffbe76c8b439581061282d565b9050611122838661228e565b6001600160801b0316610a7283836122f4565b60048054604080516020601f60026000196101006001881615020190951694909404938401819004810282018101909252828152606093909290918301828280156107325780601f1061070757610100808354040283529160200191610732565b60006111a061075a565b600754604080516370a0823160e01b815230600482015290519293506000926001600160a01b03909216916370a0823191602480820192602092909190829003018186803b1580156111f157600080fd5b505afa158015611205573d6000803e3d6000fd5b505050506040513d602081101561121b57600080fd5b5051600854604080516370a0823160e01b815230600482015290519293506000926001600160a01b03909216916370a0823191602480820192602092909190829003018186803b15801561126e57600080fd5b505afa158015611282573d6000803e3d6000fd5b505050506040513d602081101561129857600080fd5b5051905060006112b283610d01868863ffffffff61257e16565b905060006112ca85610d01858563ffffffff61257e16565b600754604080516323b872dd60e01b8152336004820152306024820152604481018a905290519293506001600160a01b03909116916323b872dd916064808201926020929091908290030181600087803b15801561132757600080fd5b505af115801561133b573d6000803e3d6000fd5b505050506040513d602081101561135157600080fd5b5050600854604080516323b872dd60e01b81523360048201523060248201526044810184905290516001600160a01b03909216916323b872dd916064808201926020929091908290030181600087803b1580156113ad57600080fd5b505af11580156113c1573d6000803e3d6000fd5b505050506040513d60208110156113d757600080fd5b506113e490503383612919565b505050505050565b7f00000000000000000000000000000000000000000000000000000000000000006001600160801b0316421061145c576040805162461bcd60e51b815260206004820152601060248201526f4d61726b65743a20546f6f206c61746560801b604482015290519081900360640190fd5b61146461075a565b156114b6576040805162461bcd60e51b815260206004820152601b60248201527f4d61726b65743a20416c726561647920696e697469616c697a65640000000000604482015290519081900360640190fd5b600754604080516323b872dd60e01b81523360048201523060248201526001600160801b038516604482015290516001600160a01b03909216916323b872dd916064808201926020929091908290030181600087803b15801561151857600080fd5b505af115801561152c573d6000803e3d6000fd5b505050506040513d602081101561154257600080fd5b5050600854604080516323b872dd60e01b81523360048201523060248201526001600160801b038416604482015290516001600160a01b03909216916323b872dd916064808201926020929091908290030181600087803b1580156115a657600080fd5b505af11580156115ba573d6000803e3d6000fd5b505050506040513d60208110156115d057600080fd5b5060009050611619838361160e426001600160801b037f0000000000000000000000000000000000000000000000000000000000000000160361201f565b64220c523d72612a15565b905061162e33826001600160801b0316612919565b505050565b6000610750611640611f2f565b84610b7885604051806060016040528060258152602001614e89602591396001600061166a611f2f565b6001600160a01b03908116825260208083019390935260409182016000908120918d1681529252902054919063ffffffff6124ca16565b60006107506116ae611f2f565b8484612363565b6008546001600160a01b031681565b6000836040518060400160405280601f8152602001600080516020614d6e833981519152815250816001600160a01b0316336001600160a01b0316148061172e57506001600160a01b038216600090815260066020908152604080832033845290915290205460ff165b81906117b85760405162461bcd60e51b81526004018080602001828103825283818151815260200191508051906020019080838360005b8381101561177d578181015183820152602001611765565b50505050905090810190601f1680156117aa5780820380516001836020036101000a031916815260200191505b509250505060405180910390fd5b5060006117c485610fae565b600754604080516323b872dd60e01b81526001600160a01b038b811660048301523060248301526001600160801b038a16604483015291519394509116916323b872dd916064808201926020929091908290030181600087803b15801561182a57600080fd5b505af115801561183e573d6000803e3d6000fd5b505050506040513d602081101561185457600080fd5b50506008546040805163a9059cbb60e01b81526001600160a01b0389811660048301526001600160801b03851660248301529151919092169163a9059cbb9160448083019260209291908290030181600087803b1580156118b457600080fd5b505af11580156118c8573d6000803e3d6000fd5b505050506040513d60208110156118de57600080fd5b5090979650505050505050565b630784ce00600160401b5b0481565b6000836040518060400160405280601f8152602001600080516020614d6e833981519152815250816001600160a01b0316336001600160a01b0316148061196457506001600160a01b038216600090815260066020908152604080832033845290915290205460ff165b81906119b15760405162461bcd60e51b815260206004820181815283516024840152835190928392604490910191908501908083836000831561177d578181015183820152602001611765565b5060006119bd85610760565b600854604080516323b872dd60e01b81526001600160a01b038b811660048301523060248301526001600160801b038a16604483015291519394509116916323b872dd916064808201926020929091908290030181600087803b158015611a2357600080fd5b505af1158015611a37573d6000803e3d6000fd5b505050506040513d6020811015611a4d57600080fd5b50506007546040805163a9059cbb60e01b81526001600160a01b0389811660048301526001600160801b03851660248301529151919092169163a9059cbb9160448083019260209291908290030181600087803b1580156118b457600080fd5b6000836040518060400160405280601f8152602001600080516020614d6e833981519152815250816001600160a01b0316336001600160a01b03161480611b1757506001600160a01b038216600090815260066020908152604080832033845290915290205460ff165b8190611b645760405162461bcd60e51b815260206004820181815283516024840152835190928392604490910191908501908083836000831561177d578181015183820152602001611765565b506000611b7085610e39565b600854604080516323b872dd60e01b81526001600160a01b038b811660048301523060248301526001600160801b038516604483015291519394509116916323b872dd916064808201926020929091908290030181600087803b158015611bd657600080fd5b505af1158015611bea573d6000803e3d6000fd5b505050506040513d6020811015611c0057600080fd5b50506007546040805163a9059cbb60e01b81526001600160a01b0389811660048301526001600160801b03891660248301529151919092169163a9059cbb9160448083019260209291908290030181600087803b1580156118b457600080fd5b6000836040518060400160405280601f8152602001600080516020614d6e833981519152815250816001600160a01b0316336001600160a01b03161480611cca57506001600160a01b038216600090815260066020908152604080832033845290915290205460ff165b8190611d175760405162461bcd60e51b815260206004820181815283516024840152835190928392604490910191908501908083836000831561177d578181015183820152602001611765565b506000611d23856108eb565b600754604080516323b872dd60e01b81526001600160a01b038b811660048301523060248301526001600160801b038516604483015291519394509116916323b872dd916064808201926020929091908290030181600087803b158015611d8957600080fd5b505af1158015611d9d573d6000803e3d6000fd5b505050506040513d6020811015611db357600080fd5b50506008546040805163a9059cbb60e01b81526001600160a01b0389811660048301526001600160801b03891660248301529151919092169163a9059cbb9160448083019260209291908290030181600087803b1580156118b457600080fd5b6001600160a01b03918216600090815260016020908152604080832093909416825291909152205490565b6103e86903e700000000000000006118f6565b3360008181526006602090815260408083206001600160a01b03861680855290835292819020805460ff19166001908117909155815190815290519293927f045b0fef01772d2fbba53dbd38c9777806eac0865b00af43abcfbcaf50da9206929181900390910190a350565b6007546001600160a01b031681565b3360008181526006602090815260408083206001600160a01b038616808552908352818420805460ff19169055815193845290519093927f045b0fef01772d2fbba53dbd38c9777806eac0865b00af43abcfbcaf50da920692908290030190a350565b3390565b6001600160a01b038316611f785760405162461bcd60e51b8152600401808060200182810382526024815260200180614e656024913960400191505060405180910390fd5b6001600160a01b038216611fbd5760405162461bcd60e51b8152600401808060200182810382526022815260200180614d8e6022913960400191505060405180910390fd5b6001600160a01b03808416600081815260016020908152604080832094871680845294825291829020859055815185815291517f8c5be1e5ebec7d5bd14f71427d1e84f3dd0314c0f7b2291e5b200ac8c7c3b9259281900390910190a3505050565b60006001600160801b03821115612075576040805162461bcd60e51b81526020600482015260156024820152744d61726b65743a2043617374206f766572666c6f7760581b604482015290519081900360640190fd5b5090565b60008061209784612092876001600160801b0316612acc565b612aea565b905060006120b2600160401b6120ad8685612aea565b612b21565b9050600081600f0b136120c457600080fd5b6001600160801b0388811690881601600160801b81106120e357600080fd5b60006120f48a84600160401b612b54565b6001600160801b031661210c8385600160401b612b54565b6001600160801b0316036121258c85600160401b612b54565b6001600160801b0316039050600160801b811061214157600080fd5b600061215282600160401b86612b54565b8c036001600160801b03169050600160801b811061216f57600080fd5b9b9a5050505050505050505050565b6000856001600160801b0316856001600160801b0316111561219f57600080fd5b60006121c3600160401b6120ad85612092886120928b6001600160801b0316612acc565b9050600081600f0b136121d557600080fd5b6001600160801b0380871690881603600160801b81106121f457600080fd5b60006122058284600160401b612b54565b6001600160801b031661221d8a85600160401b612b54565b6001600160801b03166122358c86600160401b612b54565b6001600160801b031601039050600160801b811061225257600080fd5b60008a61226483600160401b87612b54565b036001600160801b03169050600160801b811061228057600080fd5b9a9950505050505050505050565b60008282016001600160801b038085169082161015610b81576040805162461bcd60e51b815260206004820152601d60248201527f4d61726b65743a2044616920726573657276657320746f6f2068696768000000604482015290519081900360640190fd5b6000826001600160801b0316826001600160801b0316111561235d576040805162461bcd60e51b815260206004820152601d60248201527f4d61726b65743a207944616920726573657276657320746f6f206c6f77000000604482015290519081900360640190fd5b50900390565b6001600160a01b0383166123a85760405162461bcd60e51b8152600401808060200182810382526025815260200180614e406025913960400191505060405180910390fd5b6001600160a01b0382166123ed5760405162461bcd60e51b8152600401808060200182810382526023815260200180614d296023913960400191505060405180910390fd5b6123f883838361162e565b61243b81604051806060016040528060268152602001614db0602691396001600160a01b038616600090815260208190526040902054919063ffffffff6124ca16565b6001600160a01b038085166000908152602081905260408082209390935590841681522054612470908263ffffffff61252416565b6001600160a01b038084166000818152602081815260409182902094909455805185815290519193928716927fddf252ad1be2c89b69c2b068fc378daa952ba7f163c4a11628f55a4df523b3ef92918290030190a3505050565b6000818484111561251c5760405162461bcd60e51b815260206004820181815283516024840152835190928392604490910191908501908083836000831561177d578181015183820152602001611765565b505050900390565b600082820183811015610b81576040805162461bcd60e51b815260206004820152601b60248201527f536166654d6174683a206164646974696f6e206f766572666c6f770000000000604482015290519081900360640190fd5b60008261258d57506000610754565b8282028284828161259a57fe5b0414610b815760405162461bcd60e51b8152600401808060200182810382526021815260200180614dd66021913960400191505060405180910390fd5b6000610b8183836040518060400160405280601a81526020017f536166654d6174683a206469766973696f6e206279207a65726f000000000000815250612c01565b6001600160a01b03821661265e5760405162461bcd60e51b8152600401808060200182810382526021815260200180614e1f6021913960400191505060405180910390fd5b61266a8260008361162e565b6126ad81604051806060016040528060228152602001614d4c602291396001600160a01b038516600090815260208190526040902054919063ffffffff6124ca16565b6001600160a01b0383166000908152602081905260409020556002546126d9908263ffffffff612c6616565b6002556040805182815290516000916001600160a01b038516917fddf252ad1be2c89b69c2b068fc378daa952ba7f163c4a11628f55a4df523b3ef9181900360200190a35050565b6000866001600160801b0316856001600160801b0316111561274257600080fd5b600061275a84612092876001600160801b0316612acc565b90506000612770600160401b6120ad8685612aea565b9050600081600f0b1361278257600080fd5b6001600160801b03808816908a1603600160801b81106127a157600080fd5b60006127b28284600160401b612b54565b6001600160801b03166127ca8b85600160401b612b54565b6001600160801b03166127e28d86600160401b612b54565b6001600160801b031601039050600160801b81106127ff57600080fd5b60008a61281183600160401b87612b54565b036001600160801b03169050600160801b811061216f57600080fd5b60008061284684612092876001600160801b0316612acc565b9050600061285c600160401b6120ad8685612aea565b9050600081600f0b1361286e57600080fd5b6001600160801b0389811690881601600160801b811061288d57600080fd5b600061289e8284600160401b612b54565b6001600160801b03166128b68b85600160401b612b54565b6001600160801b03166128ce8d86600160401b612b54565b6001600160801b031601039050600160801b81106128eb57600080fd5b60006128fc82600160401b86612b54565b8b036001600160801b03169050600160801b811061216f57600080fd5b6001600160a01b038216612974576040805162461bcd60e51b815260206004820152601f60248201527f45524332303a206d696e7420746f20746865207a65726f206164647265737300604482015290519081900360640190fd5b6129806000838361162e565b600254612993908263ffffffff61252416565b6002556001600160a01b0382166000908152602081905260409020546129bf908263ffffffff61252416565b6001600160a01b0383166000818152602081815260408083209490945583518581529351929391927fddf252ad1be2c89b69c2b068fc378daa952ba7f163c4a11628f55a4df523b3ef9281900390910190a35050565b600080612a36600160401b6120ad85612092886001600160801b0316612acc565b9050600081600f0b13612a4857600080fd5b60006001612a5b8784600160401b612b54565b6001600160801b0316612a738985600160401b612b54565b6001600160801b031601901c9050600160801b8110612a9157600080fd5b60006001612aa483600160401b86612b54565b6001600160801b0316901b9050600160801b8110612ac157600080fd5b979650505050505050565b6000677fffffffffffffff821115612ae357600080fd5b5060401b90565b6000600f83810b9083900b0260401d60016001607f1b03198112801590612b18575060016001607f1b038113155b610b8157600080fd5b6000600f82810b9084900b0360016001607f1b03198112801590612b18575060016001607f1b03811315610b8157600080fd5b60006001600160801b038216612b6957600080fd5b6001600160801b038416612b92576001600160801b038316612b8a57600080fd5b506000610b81565b6000826001600160801b0316846001600160801b0316612bb187612ca8565b6001600160801b03036001600160801b03160281612bcb57fe5b0490506001600160801b03811115612be7576000915050610b81565b612bf9816001600160801b0303613cf3565b915050610b81565b60008183612c505760405162461bcd60e51b815260206004820181815283516024840152835190928392604490910191908501908083836000831561177d578181015183820152602001611765565b506000838581612c5c57fe5b0495945050505050565b6000610b8183836040518060400160405280601e81526020017f536166654d6174683a207375627472616374696f6e206f766572666c6f7700008152506124ca565b60006001600160801b038216612cbd57600080fd5b6001600160801b038216607f60791b600160401b821015612cea5760409190911b9060016001607f1b0319015b600160601b821015612d115760209190911b906f3fffffffffffffffffffffffffffffff19015b600160701b821015612d385760109190911b906f1fffffffffffffffffffffffffffffff19015b600160781b821015612d5f5760089190911b906f0fffffffffffffffffffffffffffffff19015b6001607c1b821015612d865760049190911b906f07ffffffffffffffffffffffffffffff19015b6001607e1b821015612dad5760029190911b906f03ffffffffffffffffffffffffffffff19015b6001607f1b821015612dd45760019190911b906f01ffffffffffffffffffffffffffffff19015b908002607f1c90600160801b8210612df45760019190911c90600160781b175b908002607f1c90600160801b8210612e145760019190911c90600160771b175b908002607f1c90600160801b8210612e345760019190911c90600160761b175b908002607f1c90600160801b8210612e545760019190911c90600160751b175b908002607f1c90600160801b8210612e745760019190911c90600160741b175b908002607f1c90600160801b8210612e945760019190911c90600160731b175b908002607f1c90600160801b8210612eb45760019190911c90600160721b175b908002607f1c90600160801b8210612ed45760019190911c90600160711b175b908002607f1c90600160801b8210612ef45760019190911c90600160701b175b908002607f1c90600160801b8210612f145760019190911c906001606f1b175b908002607f1c90600160801b8210612f345760019190911c906001606e1b175b908002607f1c90600160801b8210612f545760019190911c906001606d1b175b908002607f1c90600160801b8210612f745760019190911c906001606c1b175b908002607f1c90600160801b8210612f945760019190911c906001606b1b175b908002607f1c90600160801b8210612fb45760019190911c906001606a1b175b908002607f1c90600160801b8210612fd45760019190911c90600160691b175b908002607f1c90600160801b8210612ff45760019190911c90600160681b175b908002607f1c90600160801b82106130145760019190911c90600160671b175b908002607f1c90600160801b82106130345760019190911c90600160661b175b908002607f1c90600160801b82106130545760019190911c90600160651b175b908002607f1c90600160801b82106130745760019190911c90600160641b175b908002607f1c90600160801b82106130945760019190911c90600160631b175b908002607f1c90600160801b82106130b45760019190911c90600160621b175b908002607f1c90600160801b82106130d45760019190911c90600160611b175b908002607f1c90600160801b82106130f45760019190911c90600160601b175b908002607f1c90600160801b82106131145760019190911c906001605f1b175b908002607f1c90600160801b82106131345760019190911c906001605e1b175b908002607f1c90600160801b82106131545760019190911c906001605d1b175b908002607f1c90600160801b82106131745760019190911c906001605c1b175b908002607f1c90600160801b82106131945760019190911c906001605b1b175b908002607f1c90600160801b82106131b45760019190911c906001605a1b175b908002607f1c90600160801b82106131d45760019190911c90600160591b175b908002607f1c90600160801b82106131f45760019190911c90600160581b175b908002607f1c90600160801b82106132145760019190911c90600160571b175b908002607f1c90600160801b82106132345760019190911c90600160561b175b908002607f1c90600160801b82106132545760019190911c90600160551b175b908002607f1c90600160801b82106132745760019190911c90600160541b175b908002607f1c90600160801b82106132945760019190911c90600160531b175b908002607f1c90600160801b82106132b45760019190911c90600160521b175b908002607f1c90600160801b82106132d45760019190911c90600160511b175b908002607f1c90600160801b82106132f45760019190911c90600160501b175b908002607f1c90600160801b82106133145760019190911c906001604f1b175b908002607f1c90600160801b82106133345760019190911c906001604e1b175b908002607f1c90600160801b82106133545760019190911c906001604d1b175b908002607f1c90600160801b82106133745760019190911c906001604c1b175b908002607f1c90600160801b82106133945760019190911c906001604b1b175b908002607f1c90600160801b82106133b45760019190911c906001604a1b175b908002607f1c90600160801b82106133d45760019190911c90600160491b175b908002607f1c90600160801b82106133f45760019190911c90600160481b175b908002607f1c90600160801b82106134145760019190911c90600160471b175b908002607f1c90600160801b82106134345760019190911c90600160461b175b908002607f1c90600160801b82106134545760019190911c90600160451b175b908002607f1c90600160801b82106134745760019190911c90600160441b175b908002607f1c90600160801b82106134945760019190911c90600160431b175b908002607f1c90600160801b82106134b45760019190911c90600160421b175b908002607f1c90600160801b82106134d45760019190911c90600160411b175b908002607f1c90600160801b82106134f45760019190911c90600160401b175b908002607f1c90600160801b82106135145760019190911c906001603f1b175b908002607f1c90600160801b82106135345760019190911c906001603e1b175b908002607f1c90600160801b82106135545760019190911c906001603d1b175b908002607f1c90600160801b82106135745760019190911c906001603c1b175b908002607f1c90600160801b82106135945760019190911c906001603b1b175b908002607f1c90600160801b82106135b45760019190911c906001603a1b175b908002607f1c90600160801b82106135d45760019190911c90600160391b175b908002607f1c90600160801b82106135f45760019190911c90600160381b175b908002607f1c90600160801b82106136175760019190911c906680000000000000175b908002607f1c90600160801b821061363a5760019190911c906640000000000000175b908002607f1c90600160801b821061365d5760019190911c906620000000000000175b908002607f1c90600160801b82106136805760019190911c906610000000000000175b908002607f1c90600160801b82106136a35760019190911c906608000000000000175b908002607f1c90600160801b82106136c65760019190911c906604000000000000175b908002607f1c90600160801b82106136e95760019190911c906602000000000000175b908002607f1c90600160801b821061370c5760019190911c906601000000000000175b908002607f1c90600160801b821061372e5760019190911c9065800000000000175b908002607f1c90600160801b82106137505760019190911c9065400000000000175b908002607f1c90600160801b82106137725760019190911c9065200000000000175b908002607f1c90600160801b82106137945760019190911c9065100000000000175b908002607f1c90600160801b82106137b65760019190911c9065080000000000175b908002607f1c90600160801b82106137d85760019190911c9065040000000000175b908002607f1c90600160801b82106137fa5760019190911c9065020000000000175b908002607f1c90600160801b821061381c5760019190911c9065010000000000175b908002607f1c90600160801b821061383d5760019190911c90648000000000175b908002607f1c90600160801b821061385e5760019190911c90644000000000175b908002607f1c90600160801b821061387f5760019190911c90642000000000175b908002607f1c90600160801b82106138a05760019190911c90641000000000175b908002607f1c90600160801b82106138c15760019190911c90640800000000175b908002607f1c90600160801b82106138e25760019190911c90640400000000175b908002607f1c90600160801b82106139035760019190911c90640200000000175b908002607f1c90600160801b82106139245760019190911c90640100000000175b908002607f1c90600160801b82106139445760019190911c906380000000175b908002607f1c90600160801b82106139645760019190911c906340000000175b908002607f1c90600160801b82106139845760019190911c906320000000175b908002607f1c90600160801b82106139a45760019190911c906310000000175b908002607f1c90600160801b82106139c45760019190911c906308000000175b908002607f1c90600160801b82106139e45760019190911c906304000000175b908002607f1c90600160801b8210613a045760019190911c906302000000175b908002607f1c90600160801b8210613a245760019190911c906301000000175b908002607f1c90600160801b8210613a435760019190911c9062800000175b908002607f1c90600160801b8210613a625760019190911c9062400000175b908002607f1c90600160801b8210613a815760019190911c9062200000175b908002607f1c90600160801b8210613aa05760019190911c9062100000175b908002607f1c90600160801b8210613abf5760019190911c9062080000175b908002607f1c90600160801b8210613ade5760019190911c9062040000175b908002607f1c90600160801b8210613afd5760019190911c9062020000175b908002607f1c90600160801b8210613b1c5760019190911c9062010000175b908002607f1c90600160801b8210613b3a5760019190911c90618000175b908002607f1c90600160801b8210613b585760019190911c90614000175b908002607f1c90600160801b8210613b765760019190911c90612000175b908002607f1c90600160801b8210613b945760019190911c90611000175b908002607f1c90600160801b8210613bb25760019190911c90610800175b908002607f1c90600160801b8210613bd05760019190911c90610400175b908002607f1c90600160801b8210613bee5760019190911c90610200175b908002607f1c90600160801b8210613c0c5760019190911c90610100175b908002607f1c90600160801b8210613c295760019190911c906080175b908002607f1c90600160801b8210613c465760019190911c906040175b908002607f1c90600160801b8210613c635760019190911c906020175b908002607f1c90600160801b8210613c805760019190911c906010175b908002607f1c90600160801b8210613c9d5760019190911c906008175b908002607f1c90600160801b8210613cba5760019190911c906004175b908002607f1c90600160801b8210613cd75760019190911c906002175b908002607f1c90600160801b8210610b81576001179392505050565b60006001607f1b600160781b831615613d1c576fb504f333f9de6484597d89b3754abe9f02607f1c5b600160771b831615613d3e576f9837f0518db8a96f46ad23182e42f6f602607f1c5b600160761b831615613d60576f8b95c1e3ea8bd6e6fbe4628758a53c9002607f1c5b600160751b831615613d82576f85aac367cc487b14c5c95b8c2154c1b202607f1c5b600160741b831615613da4576f82cd8698ac2ba1d73e2a475b46520bff02607f1c5b600160731b831615613dc6576f8164d1f3bc0307737be56527bd14def402607f1c5b600160721b831615613de8576f80b1ed4fd999ab6c25335719b6e6fd2002607f1c5b600160711b831615613e0a576f8058d7d2d5e5f6b094d589f608ee4aa202607f1c5b600160701b831615613e2c576f802c6436d0e04f50ff8ce94a6797b3ce02607f1c5b6001606f1b831615613e4e576f8016302f174676283690dfe44d11d00802607f1c5b6001606e1b831615613e70576f800b179c82028fd0945e54e2ae18f2f002607f1c5b6001606d1b831615613e92576f80058baf7fee3b5d1c718b38e549cb9302607f1c5b6001606c1b831615613eb4576f8002c5d00fdcfcb6b6566a58c048be1f02607f1c5b6001606b1b831615613ed6576f800162e61bed4a48e84c2e1a463473d902607f1c5b6001606a1b831615613ef8576f8000b17292f702a3aa22beacca94901302607f1c5b600160691b831615613f1a576f800058b92abbae02030c5fa5256f41fe02607f1c5b600160681b831615613f3c576f80002c5c8dade4d71776c0f4dbea67d602607f1c5b600160671b831615613f5e576f8000162e44eaf636526be456600bdbe402607f1c5b600160661b831615613f80576f80000b1721fa7c188307016c1cd4e8b602607f1c5b600160651b831615613fa2576f8000058b90de7e4cecfc487503488bb102607f1c5b600160641b831615613fc4576f800002c5c8678f36cbfce50a6de60b1402607f1c5b600160631b831615613fe6576f80000162e431db9f80b2347b5d62e51602607f1c5b600160621b831615614008576f800000b1721872d0c7b08cf1e011415202607f1c5b600160611b83161561402a576f80000058b90c1aa8a5c3736cb77e8dff02607f1c5b600160601b83161561404c576f8000002c5c8605a4635f2efc2362d97802607f1c5b6001605f1b83161561406e576f800000162e4300e635cf4a109e3939bd02607f1c5b6001605e1b831615614090576f8000000b17217ff81bef9c551590cf8302607f1c5b6001605d1b8316156140b2576f800000058b90bfdd4e39cd52c0cfa27c02607f1c5b6001605c1b8316156140d4576f80000002c5c85fe6f72d669e0e76e41102607f1c5b6001605b1b8316156140f6576f8000000162e42ff18f9ad35186d0df2802607f1c5b6001605a1b831615614118576f80000000b17217f84cce71aa0dcfffe702607f1c5b600160591b83161561413a576f8000000058b90bfc07a77ad56ed22aaa02607f1c5b600160581b83161561415c576f800000002c5c85fdfc23cdead40da8d602607f1c5b600160571b83161561417e576f80000000162e42fefc25eb1571853a6602607f1c5b600160561b8316156141a0576f800000000b17217f7d97f692baacded502607f1c5b600160551b8316156141c2576f80000000058b90bfbead3b8b5dd254d702607f1c5b600160541b8316156141e4576f8000000002c5c85fdf4eedd62f084e6702607f1c5b600160531b831615614206576f800000000162e42fefa58aef378bf58602607f1c5b600160521b831615614228576f8000000000b17217f7d24a78a3c7ef0202607f1c5b600160511b83161561424a576f800000000058b90bfbe9067c93e474a602607f1c5b600160501b83161561426c576f80000000002c5c85fdf47b8e5a72599f02607f1c5b6001604f1b83161561428e576f8000000000162e42fefa3bdb315934a202607f1c5b6001604e1b8316156142b0576f80000000000b17217f7d1d7299b49c4602607f1c5b6001604d1b8316156142d2576f8000000000058b90bfbe8e9a8d1c4ea002607f1c5b6001604c1b8316156142f4576f800000000002c5c85fdf4745969ea76f02607f1c5b6001604b1b831615614316576f80000000000162e42fefa3a0df5373bf02607f1c5b6001604a1b831615614338576f800000000000b17217f7d1cff4aac1e102607f1c5b600160491b83161561435a576f80000000000058b90bfbe8e7db95a2f102607f1c5b600160481b83161561437c576f8000000000002c5c85fdf473e61ae1f802607f1c5b600160471b83161561439e576f800000000000162e42fefa39f121751c02607f1c5b600160461b8316156143c0576f8000000000000b17217f7d1cf815bb9602607f1c5b600160451b8316156143e2576f800000000000058b90bfbe8e7bec1e0d02607f1c5b600160441b831615614404576f80000000000002c5c85fdf473dee5f1702607f1c5b600160431b831615614426576f8000000000000162e42fefa39ef5438f02607f1c5b600160421b831615614448576f80000000000000b17217f7d1cf7a26c802607f1c5b600160411b83161561446a576f8000000000000058b90bfbe8e7bcf4a402607f1c5b600160401b83161561448c576f800000000000002c5c85fdf473de72a202607f1c5b6001603f1b8316156144ae576f80000000000000162e42fefa39ef376502607f1c5b6001603e1b8316156144d0576f800000000000000b17217f7d1cf79b3702607f1c5b6001603d1b8316156144f2576f80000000000000058b90bfbe8e7bcd7d02607f1c5b6001603c1b831615614514576f8000000000000002c5c85fdf473de6b602607f1c5b6001603b1b831615614536576f800000000000000162e42fefa39ef35902607f1c5b6001603a1b831615614558576f8000000000000000b17217f7d1cf79ac02607f1c5b600160391b83161561457a576f800000000000000058b90bfbe8e7bcd602607f1c5b600160381b83161561459c576f80000000000000002c5c85fdf473de6a02607f1c5b66800000000000008316156145c1576f8000000000000000162e42fefa39ef3502607f1c5b66400000000000008316156145e6576f80000000000000000b17217f7d1cf79a02607f1c5b662000000000000083161561460b576f8000000000000000058b90bfbe8e7bcd02607f1c5b6610000000000000831615614630576f800000000000000002c5c85fdf473de602607f1c5b6608000000000000831615614655576f80000000000000000162e42fefa39ef302607f1c5b660400000000000083161561467a576f800000000000000000b17217f7d1cf7902607f1c5b660200000000000083161561469f576f80000000000000000058b90bfbe8e7bc02607f1c5b66010000000000008316156146c4576f8000000000000000002c5c85fdf473de02607f1c5b658000000000008316156146e8576f800000000000000000162e42fefa39ef02607f1c5b6540000000000083161561470c576f8000000000000000000b17217f7d1cf702607f1c5b65200000000000831615614730576f800000000000000000058b90bfbe8e7b02607f1c5b65100000000000831615614754576f80000000000000000002c5c85fdf473d02607f1c5b65080000000000831615614778576f8000000000000000000162e42fefa39e02607f1c5b6504000000000083161561479c576f80000000000000000000b17217f7d1cf02607f1c5b650200000000008316156147c0576f8000000000000000000058b90bfbe8e702607f1c5b650100000000008316156147e4576f800000000000000000002c5c85fdf47302607f1c5b648000000000831615614807576f80000000000000000000162e42fefa3902607f1c5b64400000000083161561482a576f800000000000000000000b17217f7d1c02607f1c5b64200000000083161561484d576f80000000000000000000058b90bfbe8e02607f1c5b641000000000831615614870576f8000000000000000000002c5c85fdf4702607f1c5b640800000000831615614893576f800000000000000000000162e42fefa302607f1c5b6404000000008316156148b6576f8000000000000000000000b17217f7d102607f1c5b6402000000008316156148d9576f800000000000000000000058b90bfbe802607f1c5b6401000000008316156148fc576f80000000000000000000002c5c85fdf402607f1c5b638000000083161561491e576f8000000000000000000000162e42fefa02607f1c5b6340000000831615614940576f80000000000000000000000b17217f7d02607f1c5b6320000000831615614962576f8000000000000000000000058b90bfbe02607f1c5b6310000000831615614984576f800000000000000000000002c5c85fdf02607f1c5b63080000008316156149a6576f80000000000000000000000162e42fef02607f1c5b63040000008316156149c8576f800000000000000000000000b17217f702607f1c5b63020000008316156149ea576f80000000000000000000000058b90bfb02607f1c5b6301000000831615614a0c576f8000000000000000000000002c5c85fd02607f1c5b62800000831615614a2d576f800000000000000000000000162e42fe02607f1c5b62400000831615614a4e576f8000000000000000000000000b17217f02607f1c5b62200000831615614a6f576f800000000000000000000000058b90bf02607f1c5b62100000831615614a90576f80000000000000000000000002c5c85f02607f1c5b62080000831615614ab1576f8000000000000000000000000162e42f02607f1c5b62040000831615614ad2576f80000000000000000000000000b1721702607f1c5b62020000831615614af3576f8000000000000000000000000058b90b02607f1c5b62010000831615614b14576f800000000000000000000000002c5c8502607f1c5b618000831615614b34576f80000000000000000000000000162e4202607f1c5b614000831615614b54576f800000000000000000000000000b172102607f1c5b612000831615614b74576f80000000000000000000000000058b9002607f1c5b611000831615614b94576f8000000000000000000000000002c5c802607f1c5b610800831615614bb4576f800000000000000000000000000162e402607f1c5b610400831615614bd4576f8000000000000000000000000000b17202607f1c5b610200831615614bf4576f800000000000000000000000000058b902607f1c5b610100831615614c14576f80000000000000000000000000002c5c02607f1c5b6080831615614c33576f8000000000000000000000000000162e02607f1c5b6040831615614c52576f80000000000000000000000000000b1702607f1c5b6020831615614c71576f8000000000000000000000000000058b02607f1c5b6010831615614c90576f800000000000000000000000000002c502607f1c5b6008831615614caf576f8000000000000000000000000000016202607f1c5b6004831615614cce576f800000000000000000000000000000b102607f1c5b6002831615614ced576f8000000000000000000000000000005802607f1c5b6001831615614d0c576f8000000000000000000000000000002c02607f1c5b607f607984901c811690036001600160801b03161c905091905056fe45524332303a207472616e7366657220746f20746865207a65726f206164647265737345524332303a206275726e20616d6f756e7420657863656564732062616c616e63654d61726b65743a204f6e6c7920486f6c646572204f722044656c65676174650045524332303a20617070726f766520746f20746865207a65726f206164647265737345524332303a207472616e7366657220616d6f756e7420657863656564732062616c616e6365536166654d6174683a206d756c7469706c69636174696f6e206f766572666c6f7745524332303a207472616e7366657220616d6f756e74206578636565647320616c6c6f77616e636545524332303a206275726e2066726f6d20746865207a65726f206164647265737345524332303a207472616e736665722066726f6d20746865207a65726f206164647265737345524332303a20617070726f76652066726f6d20746865207a65726f206164647265737345524332303a2064656372656173656420616c6c6f77616e63652062656c6f77207a65726fa2646970667358221220f736aed482fbf3ce284a2db84a8416bb6b857650477f4897e8f7b31c0a09fb7664736f6c634300060a0033",
  "source": "// SPDX-License-Identifier: GPL-3.0-or-later\npragma solidity ^0.6.10;\n\nimport \"@openzeppelin/contracts/token/ERC20/ERC20.sol\";\nimport \"@openzeppelin/contracts/token/ERC20/IERC20.sol\";\nimport \"./YieldMath.sol\";\nimport \"../helpers/Delegable.sol\";\nimport \"../interfaces/IPot.sol\";\nimport \"../interfaces/IYDai.sol\";\nimport \"../interfaces/IMarket.sol\";\n// import \"@nomiclabs/buidler/console.sol\";\n\n\n/// @dev The Market contract exchanges Dai for yDai at a price defined by a specific formula.\ncontract Market is IMarket, ERC20, Delegable {\n\n    int128 constant public k = int128(uint256((1 << 64)) / 126144000); // 1 / Seconds in 4 years, in 64.64\n    int128 constant public g = int128(uint256((999 << 64)) / 1000); // All constants are `ufixed`, to divide them they must be converted to uint256\n    uint128 immutable public maturity;\n\n    IERC20 public dai;\n    IYDai public yDai;\n\n    // TODO: Choose liquidity token name\n    constructor(address dai_, address yDai_) public ERC20(\"Name\", \"Symbol\") Delegable() {\n        dai = IERC20(dai_);\n        yDai = IYDai(yDai_);\n\n        maturity = toUint128(yDai.maturity());\n    }\n\n    /// @dev Trading can only be done before maturity\n    modifier beforeMaturity() {\n        require(\n            now < maturity,\n            \"Market: Too late\"\n        );\n        _;\n    }\n\n    /// @dev Overflow-protected addition, from OpenZeppelin\n    function add(uint128 a, uint128 b)\n        internal pure returns (uint128)\n    {\n        uint128 c = a + b;\n        require(c >= a, \"Market: Dai reserves too high\");\n\n        return c;\n    }\n\n    /// @dev Overflow-protected substraction, from OpenZeppelin\n    function sub(uint128 a, uint128 b) internal pure returns (uint128) {\n        require(b <= a, \"Market: yDai reserves too low\");\n        uint128 c = a - b;\n\n        return c;\n    }\n\n    /// @dev Safe casting from uint256 to uint128\n    function toUint128(uint256 x) internal pure returns(uint128) {\n        require(\n            x <= 340282366920938463463374607431768211455,\n            \"Market: Cast overflow\"\n        );\n        return uint128(x);\n    }\n\n    /// @dev Mint initial liquidity tokens\n    function init(uint128 daiIn, uint128 yDaiIn)\n        external\n        beforeMaturity\n    {\n        require(\n            totalSupply() == 0,\n            \"Market: Already initialized\"\n        );\n\n        dai.transferFrom(msg.sender, address(this), daiIn);\n        yDai.transferFrom(msg.sender, address(this), yDaiIn);\n        // TODO: Allow the below to be replaced by the approach in PR184\n        uint128 initialSupply = YieldMath.initialReservesValue(\n            daiIn,\n            yDaiIn,\n            toUint128(maturity - now), // This can't be called after maturity\n            k\n        );\n        _mint(msg.sender, initialSupply);\n    }\n\n    /// @dev Mint liquidity tokens in exchange for adding dai and yDai\n    /// The parameter passed is the amount of `dai` being invested, an appropriate amount of `yDai` to be invested alongside will be calculated and taken by this function from the caller.\n    function mint(uint256 daiOffered)\n        external\n    {\n        uint256 supply = totalSupply();\n        uint256 daiReserves = dai.balanceOf(address(this));\n        uint256 yDaiReserves = yDai.balanceOf(address(this));\n        uint256 tokensMinted = supply.mul(daiOffered).div(daiReserves);\n        uint256 yDaiRequired = yDaiReserves.mul(tokensMinted).div(supply);\n\n        dai.transferFrom(msg.sender, address(this), daiOffered);\n        yDai.transferFrom(msg.sender, address(this), yDaiRequired);\n        _mint(msg.sender, tokensMinted);\n    }\n\n    /// @dev Burn liquidity tokens in exchange for dai and yDai\n    function burn(uint256 tokensBurned)\n        external\n    {\n        uint256 supply = totalSupply();\n        uint256 daiReserves = dai.balanceOf(address(this));\n        uint256 yDaiReserves = yDai.balanceOf(address(this));\n        uint256 daiReturned = tokensBurned.mul(daiReserves).div(supply);\n        uint256 yDaiReturned = tokensBurned.mul(yDaiReserves).div(supply);\n\n        _burn(msg.sender, tokensBurned);\n        dai.transfer(msg.sender, daiReturned);\n        yDai.transfer(msg.sender, yDaiReturned);\n    }\n\n    /// @dev Sell Dai for yDai\n    /// @param from Wallet providing the dai being sold. Must have approved the operator with `market.addDelegate(operator)`.\n    /// @param to Wallet receiving the yDai being bought\n    /// @param daiIn Amount of dai being sold that will be taken from the user's wallet\n    /// @return Amount of yDai that will be deposited on `to` wallet\n    function sellDai(address from, address to, uint128 daiIn)\n        external override\n        onlyHolderOrDelegate(from, \"Market: Only Holder Or Delegate\")\n        returns(uint128)\n    {\n        uint128 yDaiOut = sellDaiPreview(daiIn);\n\n        dai.transferFrom(from, address(this), daiIn);\n        yDai.transfer(to, yDaiOut);\n\n        return yDaiOut;\n    }\n\n    /// @dev Returns how much yDai would be obtained by selling `daiIn` dai\n    function sellDaiPreview(uint128 daiIn)\n        public view\n        beforeMaturity\n        returns(uint128)\n    {\n        uint128 daiReserves = toUint128(dai.balanceOf(address(this)));\n        uint128 yDaiReserves = toUint128(yDai.balanceOf(address(this)));\n\n        uint128 yDaiOut = YieldMath.yDaiOutForDaiIn(\n            daiReserves,\n            yDaiReserves,\n            daiIn,\n            toUint128(maturity - now), // This can't be called after maturity\n            k,\n            g\n        );\n\n        require(\n            sub(yDaiReserves, yDaiOut) >= add(daiReserves, daiIn),\n            \"Market: yDai reserves too low\"\n        );\n\n        return yDaiOut;\n    }\n\n    /// @dev Buy Dai for yDai\n    /// @param from Wallet providing the yDai being sold. Must have approved the operator with `market.addDelegate(operator)`.\n    /// @param to Wallet receiving the dai being bought\n    /// @param daiOut Amount of dai being bought that will be deposited in `to` wallet\n    /// @return Amount of yDai that will be taken from `from` wallet\n    function buyDai(address from, address to, uint128 daiOut)\n        external override\n        onlyHolderOrDelegate(from, \"Market: Only Holder Or Delegate\")\n        returns(uint128)\n    {\n        uint128 yDaiIn = buyDaiPreview(daiOut);\n\n        yDai.transferFrom(from, address(this), yDaiIn);\n        dai.transfer(to, daiOut);\n\n        return yDaiIn;\n    }\n\n    /// @dev Returns how much yDai would be required to buy `daiOut` dai\n    function buyDaiPreview(uint128 daiOut)\n        public view\n        beforeMaturity\n        returns(uint128)\n    {\n        return YieldMath.yDaiInForDaiOut(\n            toUint128(dai.balanceOf(address(this))),\n            toUint128(yDai.balanceOf(address(this))),\n            daiOut,\n            toUint128(maturity - now), // This can't be called after maturity\n            k,\n            g\n        );\n    }\n\n    /// @dev Sell yDai for Dai\n    /// @param from Wallet providing the yDai being sold. Must have approved the operator with `market.addDelegate(operator)`.\n    /// @param to Wallet receiving the dai being bought\n    /// @param yDaiIn Amount of yDai being sold that will be taken from the user's wallet\n    /// @return Amount of dai that will be deposited on `to` wallet\n    function sellYDai(address from, address to, uint128 yDaiIn)\n        external override\n        onlyHolderOrDelegate(from, \"Market: Only Holder Or Delegate\")\n        returns(uint128)\n    {\n        uint128 daiOut = sellYDaiPreview(yDaiIn);\n\n        yDai.transferFrom(from, address(this), yDaiIn);\n        dai.transfer(to, daiOut);\n\n        return daiOut;\n    }\n\n    /// @dev Returns how much dai would be obtained by selling `yDaiIn` yDai\n    function sellYDaiPreview(uint128 yDaiIn)\n        public view\n        beforeMaturity\n        returns(uint128)\n    {\n        return YieldMath.daiOutForYDaiIn(\n            toUint128(dai.balanceOf(address(this))),\n            toUint128(yDai.balanceOf(address(this))),\n            yDaiIn,\n            toUint128(maturity - now), // This can't be called after maturity\n            k,\n            g\n        );\n    }\n\n    /// @dev Buy yDai for dai\n    /// @param from Wallet providing the dai being sold. Must have approved the operator with `market.addDelegate(operator)`.\n    /// @param to Wallet receiving the yDai being bought\n    /// @param yDaiOut Amount of yDai being bought that will be deposited in `to` wallet\n    /// @return Amount of dai that will be taken from `from` wallet\n    function buyYDai(address from, address to, uint128 yDaiOut)\n        external override\n        onlyHolderOrDelegate(from, \"Market: Only Holder Or Delegate\")\n        returns(uint128)\n    {\n        uint128 daiIn = buyYDaiPreview(yDaiOut);\n\n        dai.transferFrom(from, address(this), daiIn);\n        yDai.transfer(to, yDaiOut);\n\n        return daiIn;\n    }\n\n\n    /// @dev Returns how much dai would be required to buy `yDaiOut` yDai\n    function buyYDaiPreview(uint128 yDaiOut)\n        public view\n        beforeMaturity\n        returns(uint128)\n    {\n        uint128 daiReserves = toUint128(dai.balanceOf(address(this)));\n        uint128 yDaiReserves = toUint128(yDai.balanceOf(address(this)));\n\n        uint128 daiIn = YieldMath.daiInForYDaiOut(\n            daiReserves,\n            yDaiReserves,\n            yDaiOut,\n            toUint128(maturity - now), // This can't be called after maturity\n            k,\n            g\n        );\n\n        require(\n            sub(yDaiReserves, yDaiOut) >= add(daiReserves, daiIn),\n            \"Market: yDai reserves too low\"\n        );\n\n        return daiIn;\n    }\n}",
  "sourcePath": "/Users/bruce/dev/yieldprotocol/ytoken-mvp/contracts/market/Market.sol",
  "compiler": {
    "name": "solc",
    "version": "0.6.10+commit.00c0fcaf.Emscripten.clang"
  },
  "schemaVersion": "3.0.23",
  "updatedAt": "2020-07-20T13:24:18.529Z",
  "networkType": "ethereum",
  "devdoc": {
    "details": "The Market contract exchanges Dai for yDai at a price defined by a specific formula.",
    "methods": {
      "addDelegate(address)": {
        "details": "Enable a delegate to act on the behalf of caller"
      },
      "allowance(address,address)": {
        "details": "See {IERC20-allowance}."
      },
      "approve(address,uint256)": {
        "details": "See {IERC20-approve}. Requirements: - `spender` cannot be the zero address."
      },
      "balanceOf(address)": {
        "details": "See {IERC20-balanceOf}."
      },
      "burn(uint256)": {
        "details": "Burn liquidity tokens in exchange for dai and yDai"
      },
      "buyDai(address,address,uint128)": {
        "details": "Buy Dai for yDai",
        "params": {
          "daiOut": "Amount of dai being bought that will be deposited in `to` wallet",
          "from": "Wallet providing the yDai being sold. Must have approved the operator with `market.addDelegate(operator)`.",
          "to": "Wallet receiving the dai being bought"
        },
        "returns": {
          "_0": "Amount of yDai that will be taken from `from` wallet"
        }
      },
      "buyDaiPreview(uint128)": {
        "details": "Returns how much yDai would be required to buy `daiOut` dai"
      },
      "buyYDai(address,address,uint128)": {
        "details": "Buy yDai for dai",
        "params": {
          "from": "Wallet providing the dai being sold. Must have approved the operator with `market.addDelegate(operator)`.",
          "to": "Wallet receiving the yDai being bought",
          "yDaiOut": "Amount of yDai being bought that will be deposited in `to` wallet"
        },
        "returns": {
          "_0": "Amount of dai that will be taken from `from` wallet"
        }
      },
      "buyYDaiPreview(uint128)": {
        "details": "Returns how much dai would be required to buy `yDaiOut` yDai"
      },
      "decimals()": {
        "details": "Returns the number of decimals used to get its user representation. For example, if `decimals` equals `2`, a balance of `505` tokens should be displayed to a user as `5,05` (`505 / 10 ** 2`). Tokens usually opt for a value of 18, imitating the relationship between Ether and Wei. This is the value {ERC20} uses, unless {_setupDecimals} is called. NOTE: This information is only used for _display_ purposes: it in no way affects any of the arithmetic of the contract, including {IERC20-balanceOf} and {IERC20-transfer}."
      },
      "decreaseAllowance(address,uint256)": {
        "details": "Atomically decreases the allowance granted to `spender` by the caller. This is an alternative to {approve} that can be used as a mitigation for problems described in {IERC20-approve}. Emits an {Approval} event indicating the updated allowance. Requirements: - `spender` cannot be the zero address. - `spender` must have allowance for the caller of at least `subtractedValue`."
      },
      "increaseAllowance(address,uint256)": {
        "details": "Atomically increases the allowance granted to `spender` by the caller. This is an alternative to {approve} that can be used as a mitigation for problems described in {IERC20-approve}. Emits an {Approval} event indicating the updated allowance. Requirements: - `spender` cannot be the zero address."
      },
      "init(uint128,uint128)": {
        "details": "Mint initial liquidity tokens"
      },
      "mint(uint256)": {
        "details": "Mint liquidity tokens in exchange for adding dai and yDai The parameter passed is the amount of `dai` being invested, an appropriate amount of `yDai` to be invested alongside will be calculated and taken by this function from the caller."
      },
      "name()": {
        "details": "Returns the name of the token."
      },
      "revokeDelegate(address)": {
        "details": "Stop a delegate from acting on the behalf of caller"
      },
      "sellDai(address,address,uint128)": {
        "details": "Sell Dai for yDai",
        "params": {
          "daiIn": "Amount of dai being sold that will be taken from the user's wallet",
          "from": "Wallet providing the dai being sold. Must have approved the operator with `market.addDelegate(operator)`.",
          "to": "Wallet receiving the yDai being bought"
        },
        "returns": {
          "_0": "Amount of yDai that will be deposited on `to` wallet"
        }
      },
      "sellDaiPreview(uint128)": {
        "details": "Returns how much yDai would be obtained by selling `daiIn` dai"
      },
      "sellYDai(address,address,uint128)": {
        "details": "Sell yDai for Dai",
        "params": {
          "from": "Wallet providing the yDai being sold. Must have approved the operator with `market.addDelegate(operator)`.",
          "to": "Wallet receiving the dai being bought",
          "yDaiIn": "Amount of yDai being sold that will be taken from the user's wallet"
        },
        "returns": {
          "_0": "Amount of dai that will be deposited on `to` wallet"
        }
      },
      "sellYDaiPreview(uint128)": {
        "details": "Returns how much dai would be obtained by selling `yDaiIn` yDai"
      },
      "symbol()": {
        "details": "Returns the symbol of the token, usually a shorter version of the name."
      },
      "totalSupply()": {
        "details": "See {IERC20-totalSupply}."
      },
      "transfer(address,uint256)": {
        "details": "See {IERC20-transfer}. Requirements: - `recipient` cannot be the zero address. - the caller must have a balance of at least `amount`."
      },
      "transferFrom(address,address,uint256)": {
        "details": "See {IERC20-transferFrom}. Emits an {Approval} event indicating the updated allowance. This is not required by the EIP. See the note at the beginning of {ERC20}; Requirements: - `sender` and `recipient` cannot be the zero address. - `sender` must have a balance of at least `amount`. - the caller must have allowance for ``sender``'s tokens of at least `amount`."
      }
    }
  },
  "userdoc": {
    "methods": {}
  }
}