{
  "contractName": "Market",
  "abi": [
    {
      "inputs": [
        {
          "internalType": "address",
          "name": "pot_",
          "type": "address"
        },
        {
          "internalType": "address",
          "name": "chai_",
          "type": "address"
        },
        {
          "internalType": "address",
          "name": "yDai_",
          "type": "address"
        }
      ],
      "stateMutability": "nonpayable",
      "type": "constructor"
    },
    {
      "anonymous": false,
      "inputs": [
        {
          "indexed": true,
          "internalType": "address",
          "name": "owner",
          "type": "address"
        },
        {
          "indexed": true,
          "internalType": "address",
          "name": "spender",
          "type": "address"
        },
        {
          "indexed": false,
          "internalType": "uint256",
          "name": "value",
          "type": "uint256"
        }
      ],
      "name": "Approval",
      "type": "event"
    },
    {
      "anonymous": false,
      "inputs": [
        {
          "indexed": true,
          "internalType": "address",
          "name": "user",
          "type": "address"
        },
        {
          "indexed": true,
          "internalType": "address",
          "name": "delegate",
          "type": "address"
        },
        {
          "indexed": false,
          "internalType": "bool",
          "name": "enabled",
          "type": "bool"
        }
      ],
      "name": "Delegate",
      "type": "event"
    },
    {
      "anonymous": false,
      "inputs": [
        {
          "indexed": true,
          "internalType": "address",
          "name": "from",
          "type": "address"
        },
        {
          "indexed": true,
          "internalType": "address",
          "name": "to",
          "type": "address"
        },
        {
          "indexed": false,
          "internalType": "uint256",
          "name": "value",
          "type": "uint256"
        }
      ],
      "name": "Transfer",
      "type": "event"
    },
    {
      "inputs": [
        {
          "internalType": "address",
          "name": "delegate",
          "type": "address"
        }
      ],
      "name": "addDelegate",
      "outputs": [],
      "stateMutability": "nonpayable",
      "type": "function"
    },
    {
      "inputs": [
        {
          "internalType": "address",
          "name": "owner",
          "type": "address"
        },
        {
          "internalType": "address",
          "name": "spender",
          "type": "address"
        }
      ],
      "name": "allowance",
      "outputs": [
        {
          "internalType": "uint256",
          "name": "",
          "type": "uint256"
        }
      ],
      "stateMutability": "view",
      "type": "function",
      "constant": true
    },
    {
      "inputs": [
        {
          "internalType": "address",
          "name": "spender",
          "type": "address"
        },
        {
          "internalType": "uint256",
          "name": "amount",
          "type": "uint256"
        }
      ],
      "name": "approve",
      "outputs": [
        {
          "internalType": "bool",
          "name": "",
          "type": "bool"
        }
      ],
      "stateMutability": "nonpayable",
      "type": "function"
    },
    {
      "inputs": [
        {
          "internalType": "address",
          "name": "account",
          "type": "address"
        }
      ],
      "name": "balanceOf",
      "outputs": [
        {
          "internalType": "uint256",
          "name": "",
          "type": "uint256"
        }
      ],
      "stateMutability": "view",
      "type": "function",
      "constant": true
    },
    {
      "inputs": [],
      "name": "chai",
      "outputs": [
        {
          "internalType": "contract IERC20",
          "name": "",
          "type": "address"
        }
      ],
      "stateMutability": "view",
      "type": "function",
      "constant": true
    },
    {
      "inputs": [],
      "name": "decimals",
      "outputs": [
        {
          "internalType": "uint8",
          "name": "",
          "type": "uint8"
        }
      ],
      "stateMutability": "view",
      "type": "function",
      "constant": true
    },
    {
      "inputs": [
        {
          "internalType": "address",
          "name": "spender",
          "type": "address"
        },
        {
          "internalType": "uint256",
          "name": "subtractedValue",
          "type": "uint256"
        }
      ],
      "name": "decreaseAllowance",
      "outputs": [
        {
          "internalType": "bool",
          "name": "",
          "type": "bool"
        }
      ],
      "stateMutability": "nonpayable",
      "type": "function"
    },
    {
      "inputs": [],
      "name": "g",
      "outputs": [
        {
          "internalType": "int128",
          "name": "",
          "type": "int128"
        }
      ],
      "stateMutability": "view",
      "type": "function",
      "constant": true
    },
    {
      "inputs": [
        {
          "internalType": "address",
          "name": "spender",
          "type": "address"
        },
        {
          "internalType": "uint256",
          "name": "addedValue",
          "type": "uint256"
        }
      ],
      "name": "increaseAllowance",
      "outputs": [
        {
          "internalType": "bool",
          "name": "",
          "type": "bool"
        }
      ],
      "stateMutability": "nonpayable",
      "type": "function"
    },
    {
      "inputs": [],
      "name": "initialSupply",
      "outputs": [
        {
          "internalType": "uint256",
          "name": "",
          "type": "uint256"
        }
      ],
      "stateMutability": "view",
      "type": "function",
      "constant": true
    },
    {
      "inputs": [],
      "name": "k",
      "outputs": [
        {
          "internalType": "int128",
          "name": "",
          "type": "int128"
        }
      ],
      "stateMutability": "view",
      "type": "function",
      "constant": true
    },
    {
      "inputs": [],
      "name": "maturity",
      "outputs": [
        {
          "internalType": "uint128",
          "name": "",
          "type": "uint128"
        }
      ],
      "stateMutability": "view",
      "type": "function",
      "constant": true
    },
    {
      "inputs": [],
      "name": "name",
      "outputs": [
        {
          "internalType": "string",
          "name": "",
          "type": "string"
        }
      ],
      "stateMutability": "view",
      "type": "function",
      "constant": true
    },
    {
      "inputs": [
        {
          "internalType": "address",
          "name": "delegate",
          "type": "address"
        }
      ],
      "name": "revokeDelegate",
      "outputs": [],
      "stateMutability": "nonpayable",
      "type": "function"
    },
    {
      "inputs": [],
      "name": "symbol",
      "outputs": [
        {
          "internalType": "string",
          "name": "",
          "type": "string"
        }
      ],
      "stateMutability": "view",
      "type": "function",
      "constant": true
    },
    {
      "inputs": [],
      "name": "totalSupply",
      "outputs": [
        {
          "internalType": "uint256",
          "name": "",
          "type": "uint256"
        }
      ],
      "stateMutability": "view",
      "type": "function",
      "constant": true
    },
    {
      "inputs": [
        {
          "internalType": "address",
          "name": "recipient",
          "type": "address"
        },
        {
          "internalType": "uint256",
          "name": "amount",
          "type": "uint256"
        }
      ],
      "name": "transfer",
      "outputs": [
        {
          "internalType": "bool",
          "name": "",
          "type": "bool"
        }
      ],
      "stateMutability": "nonpayable",
      "type": "function"
    },
    {
      "inputs": [
        {
          "internalType": "address",
          "name": "sender",
          "type": "address"
        },
        {
          "internalType": "address",
          "name": "recipient",
          "type": "address"
        },
        {
          "internalType": "uint256",
          "name": "amount",
          "type": "uint256"
        }
      ],
      "name": "transferFrom",
      "outputs": [
        {
          "internalType": "bool",
          "name": "",
          "type": "bool"
        }
      ],
      "stateMutability": "nonpayable",
      "type": "function"
    },
    {
      "inputs": [],
      "name": "yDai",
      "outputs": [
        {
          "internalType": "contract IYDai",
          "name": "",
          "type": "address"
        }
      ],
      "stateMutability": "view",
      "type": "function",
      "constant": true
    },
    {
      "inputs": [
        {
          "internalType": "uint256",
          "name": "x",
          "type": "uint256"
        },
        {
          "internalType": "uint256",
          "name": "y",
          "type": "uint256"
        }
      ],
      "name": "subFloorZero",
      "outputs": [
        {
          "internalType": "uint256",
          "name": "",
          "type": "uint256"
        }
      ],
      "stateMutability": "pure",
      "type": "function",
      "constant": true
    },
    {
      "inputs": [
        {
          "internalType": "uint256",
          "name": "chaiIn",
          "type": "uint256"
        },
        {
          "internalType": "uint256",
          "name": "yDaiIn",
          "type": "uint256"
        }
      ],
      "name": "init",
      "outputs": [],
      "stateMutability": "nonpayable",
      "type": "function"
    },
    {
      "inputs": [
        {
          "internalType": "uint256",
          "name": "chaiOffered",
          "type": "uint256"
        }
      ],
      "name": "mint",
      "outputs": [],
      "stateMutability": "nonpayable",
      "type": "function"
    },
    {
      "inputs": [
        {
          "internalType": "uint256",
          "name": "tokensBurned",
          "type": "uint256"
        }
      ],
      "name": "burn",
      "outputs": [],
      "stateMutability": "nonpayable",
      "type": "function"
    },
    {
      "inputs": [
        {
          "internalType": "address",
          "name": "from",
          "type": "address"
        },
        {
          "internalType": "address",
          "name": "to",
          "type": "address"
        },
        {
          "internalType": "uint128",
          "name": "chaiIn",
          "type": "uint128"
        }
      ],
      "name": "sellChai",
      "outputs": [
        {
          "internalType": "uint256",
          "name": "",
          "type": "uint256"
        }
      ],
      "stateMutability": "nonpayable",
      "type": "function"
    },
    {
      "inputs": [
        {
          "internalType": "uint128",
          "name": "chaiIn",
          "type": "uint128"
        }
      ],
      "name": "sellChaiPreview",
      "outputs": [
        {
          "internalType": "uint256",
          "name": "",
          "type": "uint256"
        }
      ],
      "stateMutability": "view",
      "type": "function",
      "constant": true
    },
    {
      "inputs": [
        {
          "internalType": "address",
          "name": "from",
          "type": "address"
        },
        {
          "internalType": "address",
          "name": "to",
          "type": "address"
        },
        {
          "internalType": "uint128",
          "name": "chaiOut",
          "type": "uint128"
        }
      ],
      "name": "buyChai",
      "outputs": [
        {
          "internalType": "uint256",
          "name": "",
          "type": "uint256"
        }
      ],
      "stateMutability": "nonpayable",
      "type": "function"
    },
    {
      "inputs": [
        {
          "internalType": "uint128",
          "name": "chaiOut",
          "type": "uint128"
        }
      ],
      "name": "buyChaiPreview",
      "outputs": [
        {
          "internalType": "uint256",
          "name": "",
          "type": "uint256"
        }
      ],
      "stateMutability": "view",
      "type": "function",
      "constant": true
    },
    {
      "inputs": [
        {
          "internalType": "address",
          "name": "from",
          "type": "address"
        },
        {
          "internalType": "address",
          "name": "to",
          "type": "address"
        },
        {
          "internalType": "uint128",
          "name": "yDaiIn",
          "type": "uint128"
        }
      ],
      "name": "sellYDai",
      "outputs": [
        {
          "internalType": "uint256",
          "name": "",
          "type": "uint256"
        }
      ],
      "stateMutability": "nonpayable",
      "type": "function"
    },
    {
      "inputs": [
        {
          "internalType": "uint128",
          "name": "yDaiIn",
          "type": "uint128"
        }
      ],
      "name": "sellYDaiPreview",
      "outputs": [
        {
          "internalType": "uint256",
          "name": "",
          "type": "uint256"
        }
      ],
      "stateMutability": "view",
      "type": "function",
      "constant": true
    },
    {
      "inputs": [
        {
          "internalType": "address",
          "name": "from",
          "type": "address"
        },
        {
          "internalType": "address",
          "name": "to",
          "type": "address"
        },
        {
          "internalType": "uint128",
          "name": "yDaiOut",
          "type": "uint128"
        }
      ],
      "name": "buyYDai",
      "outputs": [
        {
          "internalType": "uint256",
          "name": "",
          "type": "uint256"
        }
      ],
      "stateMutability": "nonpayable",
      "type": "function"
    },
    {
      "inputs": [
        {
          "internalType": "uint128",
          "name": "yDaiOut",
          "type": "uint128"
        }
      ],
      "name": "buyYDaiPreview",
      "outputs": [
        {
          "internalType": "uint256",
          "name": "",
          "type": "uint256"
        }
      ],
      "stateMutability": "view",
      "type": "function",
      "constant": true
    }
  ],
  "bytecode": "0x60a06040523480156200001157600080fd5b5060405162005abd38038062005abd833981810160405260608110156200003757600080fd5b5080516020808301516040938401518451808601865260048152634e616d6560e01b8185019081528651808801909752600687526514de5b589bdb60d21b9487019490945280519495929491939092916200009591600391620001f4565b508051620000ab906004906020840190620001f4565b50506005805460ff1916601217905550600780546001600160a01b038086166001600160a01b0319928316179092556008805485841690831617905560098054848416921691909117908190556040805163204f83f960e01b815290516200017693929092169163204f83f991600480820192602092909190829003018186803b1580156200013957600080fd5b505afa1580156200014e573d6000803e3d6000fd5b505050506040513d60208110156200016557600080fd5b50516001600160e01b036200019116565b6001600160801b0319608091821b169052506200028e915050565b60006001600160801b03821115620001f0576040805162461bcd60e51b815260206004820152601560248201527f4d61726b65743a2043617374206f766572666c6f770000000000000000000000604482015290519081900360640190fd5b5090565b828054600181600116156101000203166002900490600052602060002090601f016020900481019282601f106200023757805160ff191683800117855562000267565b8280016001018555821562000267579182015b82811115620002675782518255916020019190600101906200024a565b50620001f0926200028b9250905b80821115620001f0576000815560010162000275565b90565b60805160801c6157e9620002d4600039806108725280610a0a5280610ae55280610cb252806113e252806116295280611c9a5280612069528061247852506157e96000f3fe608060405234801561001057600080fd5b50600436106101e55760003560e01c80637af436081161010f578063b4f40c61116100a2578063dd62ed3e11610071578063dd62ed3e1461065a578063e2179b8e14610688578063e71bdf4114610690578063fa352c00146106b6576101e5565b8063b4f40c61146105b1578063b69d0456146105d2578063c47b5b83146105da578063d43fde701461061a576101e5565b8063a4dbd3ef116100de578063a4dbd3ef14610518578063a5843f081461053e578063a9059cbb14610561578063aef52e3f1461058d576101e5565b80637af436081461048757806395d89b41146104c7578063a0712d68146104cf578063a457c2d7146104ec576101e5565b806323b872dd11610187578063395093511161015657806339509351146103f057806342966c681461041c57806370a082311461043b578063710c5e6914610461576101e5565b806323b872dd14610371578063313ce567146103a757806335dbea17146103c5578063378dc3dc146103e8576101e5565b806318db7ee6116101c357806318db7ee6146102c15780631e4d81db146102e7578063204f83f91461030d57806322e8a7ef14610331576101e5565b806306fdde03146101ea578063095ea7b31461026757806318160ddd146102a7575b600080fd5b6101f26106dc565b6040805160208082528351818301528351919283929083019185019080838360005b8381101561022c578181015183820152602001610214565b50505050905090810190601f1680156102595780820380516001836020036101000a031916815260200191505b509250505060405180910390f35b6102936004803603604081101561027d57600080fd5b506001600160a01b038135169060200135610772565b604080519115158252519081900360200190f35b6102af610790565b60408051918252519081900360200190f35b6102af600480360360208110156102d757600080fd5b50356001600160801b0316610796565b6102af600480360360208110156102fd57600080fd5b50356001600160801b031661095f565b610315610ae3565b604080516001600160801b039092168252519081900360200190f35b6102af6004803603606081101561034757600080fd5b5080356001600160a01b0390811691602081013590911690604001356001600160801b0316610b07565b6102936004803603606081101561038757600080fd5b506001600160a01b03813581169160208101359091169060400135610fbd565b6103af61104b565b6040805160ff9092168252519081900360200190f35b6102af600480360360408110156103db57600080fd5b5080359060200135611054565b6102af61106e565b6102936004803603604081101561040657600080fd5b506001600160a01b038135169060200135611074565b6104396004803603602081101561043257600080fd5b50356110c8565b005b6102af6004803603602081101561045157600080fd5b50356001600160a01b031661131c565b6102af6004803603602081101561047757600080fd5b50356001600160801b0316611337565b6102af6004803603606081101561049d57600080fd5b5080356001600160a01b0390811691602081013590911690604001356001600160801b03166114bb565b6101f26118ca565b610439600480360360208110156104e557600080fd5b503561192b565b6102936004803603604081101561050257600080fd5b506001600160a01b038135169060200135611b81565b6102af6004803603602081101561052e57600080fd5b50356001600160801b0316611bef565b6104396004803603604081101561055457600080fd5b5080359060200135611d43565b6102936004803603604081101561057757600080fd5b506001600160a01b038135169060200135611eba565b610595611ece565b604080516001600160a01b039092168252519081900360200190f35b6105b9611edd565b60408051600f92830b90920b8252519081900360200190f35b610595611eec565b6102af600480360360608110156105f057600080fd5b5080356001600160a01b0390811691602081013590911690604001356001600160801b0316611efb565b6102af6004803603606081101561063057600080fd5b5080356001600160a01b0390811691602081013590911690604001356001600160801b031661230a565b6102af6004803603604081101561067057600080fd5b506001600160a01b0381358116916020013516612722565b6105b961274d565b610439600480360360208110156106a657600080fd5b50356001600160a01b0316612760565b610439600480360360208110156106cc57600080fd5b50356001600160a01b03166127cc565b60038054604080516020601f60026000196101006001881615020190951694909404938401819004810282018101909252828152606093909290918301828280156107685780601f1061073d57610100808354040283529160200191610768565b820191906000526020600020905b81548152906001019060200180831161074b57829003601f168201915b5050505050905090565b600061078661077f61282f565b8484612833565b5060015b92915050565b60025490565b600854604080516370a0823160e01b815230600482015290516000926109509261081d926001600160a01b03909216916370a0823191602480820192602092909190829003018186803b1580156107ec57600080fd5b505afa158015610800573d6000803e3d6000fd5b505050506040513d602081101561081657600080fd5b505161291f565b600954604080516370a0823160e01b81523060048201529051610869926001600160a01b0316916370a08231916024808301926020929190829003018186803b1580156107ec57600080fd5b846108a56108a07f00000000000000000000000000000000000000000000000000000000000000006001600160801b031642611054565b61291f565b630784ce00600160401b04676765c793fa10079d601b1b6040600760009054906101000a90046001600160a01b03166001600160a01b031663c92aecc46040518163ffffffff1660e01b815260040160206040518083038186803b15801561090c57600080fd5b505afa158015610920573d6000803e3d6000fd5b505050506040513d602081101561093657600080fd5b5051901b8161094157fe5b0467ffbe76c8b4395810612979565b6001600160801b031692915050565b600854604080516370a0823160e01b81523060048201529051600092610950926109b5926001600160a01b03909216916370a0823191602480820192602092909190829003018186803b1580156107ec57600080fd5b600954604080516370a0823160e01b81523060048201529051610a01926001600160a01b0316916370a08231916024808301926020929190829003018186803b1580156107ec57600080fd5b84610a386108a07f00000000000000000000000000000000000000000000000000000000000000006001600160801b031642611054565b630784ce00600160401b04676765c793fa10079d601b1b6040600760009054906101000a90046001600160a01b03166001600160a01b031663c92aecc46040518163ffffffff1660e01b815260040160206040518083038186803b158015610a9f57600080fd5b505afa158015610ab3573d6000803e3d6000fd5b505050506040513d6020811015610ac957600080fd5b5051901b81610ad457fe5b0467ffbe76c8b4395810612ac7565b7f000000000000000000000000000000000000000000000000000000000000000081565b6000836040518060400160405280601f8152602001600080516020615674833981519152815250816001600160a01b0316336001600160a01b03161480610b7157506001600160a01b038216600090815260066020908152604080832033845290915290205460ff165b8190610bfb5760405162461bcd60e51b81526004018080602001828103825283818151815260200191508051906020019080838360005b83811015610bc0578181015183820152602001610ba8565b50505050905090810190601f168015610bed5780820380516001836020036101000a031916815260200191505b509250505060405180910390fd5b50600854604080516370a0823160e01b81523060048201529051600092610c4e926001600160a01b03909116916370a0823191602480820192602092909190829003018186803b1580156107ec57600080fd5b600954604080516370a0823160e01b81523060048201529051929350600092610ca0926001600160a01b0316916370a08231916024808301926020929190829003018186803b1580156107ec57600080fd5b90506000610e8f838389610ce06108a07f00000000000000000000000000000000000000000000000000000000000000006001600160801b031642611054565b630784ce00600160401b04676765c793fa10079d601b1b6040600760009054906101000a90046001600160a01b03166001600160a01b03166320aba08b6040518163ffffffff1660e01b8152600401602060405180830381600087803b158015610d4957600080fd5b505af1158015610d5d573d6000803e3d6000fd5b505050506040513d6020811015610d7357600080fd5b50514211610dfa57600760009054906101000a90046001600160a01b03166001600160a01b031663c92aecc46040518163ffffffff1660e01b815260040160206040518083038186803b158015610dc957600080fd5b505afa158015610ddd573d6000803e3d6000fd5b505050506040513d6020811015610df357600080fd5b5051610e77565b600760009054906101000a90046001600160a01b03166001600160a01b0316639f678cca6040518163ffffffff1660e01b8152600401602060405180830381600087803b158015610e4a57600080fd5b505af1158015610e5e573d6000803e3d6000fd5b505050506040513d6020811015610e7457600080fd5b50515b901b81610e8057fe5b0467ffbe76c8b4395810612c03565b600954604080516323b872dd60e01b81526001600160a01b038d811660048301523060248301526001600160801b039490941660448201819052915191945092909116916323b872dd9160648083019260209291908290030181600087803b158015610efa57600080fd5b505af1158015610f0e573d6000803e3d6000fd5b505050506040513d6020811015610f2457600080fd5b50506008546040805163a9059cbb60e01b81526001600160a01b038b811660048301526001600160801b038b1660248301529151919092169163a9059cbb9160448083019260209291908290030181600087803b158015610f8457600080fd5b505af1158015610f98573d6000803e3d6000fd5b505050506040513d6020811015610fae57600080fd5b50909998505050505050505050565b6000610fca848484612d3f565b61104084610fd661282f565b61103b856040518060600160405280602881526020016156fd602891396001600160a01b038a1660009081526001602052604081209061101461282f565b6001600160a01b03168152602081019190915260400160002054919063ffffffff612ea616565b612833565b5060015b9392505050565b60055460ff1690565b60008282106110655750600061078a565b5080820361078a565b6103e881565b600061078661108161282f565b8461103b856001600061109261282f565b6001600160a01b03908116825260208083019390935260409182016000908120918c16815292529020549063ffffffff612f0016565b60006110d2610790565b600854604080516370a0823160e01b815230600482015290519293506000926001600160a01b03909216916370a0823191602480820192602092909190829003018186803b15801561112357600080fd5b505afa158015611137573d6000803e3d6000fd5b505050506040513d602081101561114d57600080fd5b5051600954604080516370a0823160e01b815230600482015290519293506000926001600160a01b03909216916370a0823191602480820192602092909190829003018186803b1580156111a057600080fd5b505afa1580156111b4573d6000803e3d6000fd5b505050506040513d60208110156111ca57600080fd5b5051905060006111f0846111e4878663ffffffff612f5a16565b9063ffffffff612fb316565b90506000611208856111e4888663ffffffff612f5a16565b90506112143387612ff5565b6008546040805163a9059cbb60e01b81523360048201526024810185905290516001600160a01b039092169163a9059cbb916044808201926020929091908290030181600087803b15801561126857600080fd5b505af115801561127c573d6000803e3d6000fd5b505050506040513d602081101561129257600080fd5b50506009546040805163a9059cbb60e01b81523360048201526024810184905290516001600160a01b039092169163a9059cbb916044808201926020929091908290030181600087803b1580156112e857600080fd5b505af11580156112fc573d6000803e3d6000fd5b505050506040513d602081101561131257600080fd5b5050505050505050565b6001600160a01b031660009081526020819052604090205490565b600854604080516370a0823160e01b815230600482015290516000926109509261138d926001600160a01b03909216916370a0823191602480820192602092909190829003018186803b1580156107ec57600080fd5b600954604080516370a0823160e01b815230600482015290516113d9926001600160a01b0316916370a08231916024808301926020929190829003018186803b1580156107ec57600080fd5b846114106108a07f00000000000000000000000000000000000000000000000000000000000000006001600160801b031642611054565b630784ce00600160401b04676765c793fa10079d601b1b6040600760009054906101000a90046001600160a01b03166001600160a01b031663c92aecc46040518163ffffffff1660e01b815260040160206040518083038186803b15801561147757600080fd5b505afa15801561148b573d6000803e3d6000fd5b505050506040513d60208110156114a157600080fd5b5051901b816114ac57fe5b0467ffbe76c8b43958106130fd565b6000836040518060400160405280601f8152602001600080516020615674833981519152815250816001600160a01b0316336001600160a01b0316148061152557506001600160a01b038216600090815260066020908152604080832033845290915290205460ff165b81906115725760405162461bcd60e51b8152602060048201818152835160248401528351909283926044909101919085019080838360008315610bc0578181015183820152602001610ba8565b50600854604080516370a0823160e01b815230600482015290516000926115c5926001600160a01b03909116916370a0823191602480820192602092909190829003018186803b1580156107ec57600080fd5b600954604080516370a0823160e01b81523060048201529051929350600092611617926001600160a01b0316916370a08231916024808301926020929190829003018186803b1580156107ec57600080fd5b905060006117de8383896116576108a07f00000000000000000000000000000000000000000000000000000000000000006001600160801b031642611054565b630784ce00600160401b04676765c793fa10079d601b1b6040600760009054906101000a90046001600160a01b03166001600160a01b03166320aba08b6040518163ffffffff1660e01b8152600401602060405180830381600087803b1580156116c057600080fd5b505af11580156116d4573d6000803e3d6000fd5b505050506040513d60208110156116ea57600080fd5b5051421161177157600760009054906101000a90046001600160a01b03166001600160a01b031663c92aecc46040518163ffffffff1660e01b815260040160206040518083038186803b15801561174057600080fd5b505afa158015611754573d6000803e3d6000fd5b505050506040513d602081101561176a57600080fd5b50516117d5565b600760009054906101000a90046001600160a01b03166001600160a01b0316639f678cca6040518163ffffffff1660e01b8152600401602060405180830381600087803b1580156117c157600080fd5b505af115801561148b573d6000803e3d6000fd5b901b816114ac57fe5b600854604080516323b872dd60e01b81526001600160a01b038d811660048301523060248301526001600160801b038c8116604484015292519490921694509116916323b872dd916064808201926020929091908290030181600087803b15801561184857600080fd5b505af115801561185c573d6000803e3d6000fd5b505050506040513d602081101561187257600080fd5b50506009546040805163a9059cbb60e01b81526001600160a01b038b81166004830152602482018590529151919092169163a9059cbb9160448083019260209291908290030181600087803b158015610f8457600080fd5b60048054604080516020601f60026000196101006001881615020190951694909404938401819004810282018101909252828152606093909290918301828280156107685780601f1061073d57610100808354040283529160200191610768565b6000611935610790565b600854604080516370a0823160e01b815230600482015290519293506000926001600160a01b03909216916370a0823191602480820192602092909190829003018186803b15801561198657600080fd5b505afa15801561199a573d6000803e3d6000fd5b505050506040513d60208110156119b057600080fd5b5051600954604080516370a0823160e01b815230600482015290519293506000926001600160a01b03909216916370a0823191602480820192602092909190829003018186803b158015611a0357600080fd5b505afa158015611a17573d6000803e3d6000fd5b505050506040513d6020811015611a2d57600080fd5b505190506000611a47836111e4868863ffffffff612f5a16565b90506000611a5f856111e4858563ffffffff612f5a16565b600854604080516323b872dd60e01b8152336004820152306024820152604481018a905290519293506001600160a01b03909116916323b872dd916064808201926020929091908290030181600087803b158015611abc57600080fd5b505af1158015611ad0573d6000803e3d6000fd5b505050506040513d6020811015611ae657600080fd5b5050600954604080516323b872dd60e01b81523360048201523060248201526044810184905290516001600160a01b03909216916323b872dd916064808201926020929091908290030181600087803b158015611b4257600080fd5b505af1158015611b56573d6000803e3d6000fd5b505050506040513d6020811015611b6c57600080fd5b50611b7990503383613219565b505050505050565b6000610786611b8e61282f565b8461103b8560405180606001604052806025815260200161578f6025913960016000611bb861282f565b6001600160a01b03908116825260208083019390935260409182016000908120918d1681529252902054919063ffffffff612ea616565b600854604080516370a0823160e01b8152306004820152905160009261095092611c45926001600160a01b03909216916370a0823191602480820192602092909190829003018186803b1580156107ec57600080fd5b600954604080516370a0823160e01b81523060048201529051611c91926001600160a01b0316916370a08231916024808301926020929190829003018186803b1580156107ec57600080fd5b84611cc86108a07f00000000000000000000000000000000000000000000000000000000000000006001600160801b031642611054565b630784ce00600160401b04676765c793fa10079d601b1b6040600760009054906101000a90046001600160a01b03166001600160a01b031663c92aecc46040518163ffffffff1660e01b815260040160206040518083038186803b158015611d2f57600080fd5b505afa158015610e5e573d6000803e3d6000fd5b611d4b610790565b15611d9d576040805162461bcd60e51b815260206004820152601b60248201527f4d61726b65743a20416c726561647920696e697469616c697a65640000000000604482015290519081900360640190fd5b600854604080516323b872dd60e01b81523360048201523060248201526044810185905290516001600160a01b03909216916323b872dd916064808201926020929091908290030181600087803b158015611df757600080fd5b505af1158015611e0b573d6000803e3d6000fd5b505050506040513d6020811015611e2157600080fd5b5050600954604080516323b872dd60e01b81523360048201523060248201526044810184905290516001600160a01b03909216916323b872dd916064808201926020929091908290030181600087803b158015611e7d57600080fd5b505af1158015611e91573d6000803e3d6000fd5b505050506040513d6020811015611ea757600080fd5b50611eb69050336103e8613219565b5050565b6000610786611ec761282f565b8484612d3f565b6009546001600160a01b031681565b630784ce00600160401b5b0481565b6008546001600160a01b031681565b6000836040518060400160405280601f8152602001600080516020615674833981519152815250816001600160a01b0316336001600160a01b03161480611f6557506001600160a01b038216600090815260066020908152604080832033845290915290205460ff165b8190611fb25760405162461bcd60e51b8152602060048201818152835160248401528351909283926044909101919085019080838360008315610bc0578181015183820152602001610ba8565b50600854604080516370a0823160e01b81523060048201529051600092612005926001600160a01b03909116916370a0823191602480820192602092909190829003018186803b1580156107ec57600080fd5b600954604080516370a0823160e01b81523060048201529051929350600092612057926001600160a01b0316916370a08231916024808301926020929190829003018186803b1580156107ec57600080fd5b9050600061221e8383896120976108a07f00000000000000000000000000000000000000000000000000000000000000006001600160801b031642611054565b630784ce00600160401b04676765c793fa10079d601b1b6040600760009054906101000a90046001600160a01b03166001600160a01b03166320aba08b6040518163ffffffff1660e01b8152600401602060405180830381600087803b15801561210057600080fd5b505af1158015612114573d6000803e3d6000fd5b505050506040513d602081101561212a57600080fd5b505142116121b157600760009054906101000a90046001600160a01b03166001600160a01b031663c92aecc46040518163ffffffff1660e01b815260040160206040518083038186803b15801561218057600080fd5b505afa158015612194573d6000803e3d6000fd5b505050506040513d60208110156121aa57600080fd5b5051612215565b600760009054906101000a90046001600160a01b03166001600160a01b0316639f678cca6040518163ffffffff1660e01b8152600401602060405180830381600087803b15801561220157600080fd5b505af1158015610920573d6000803e3d6000fd5b901b8161094157fe5b600954604080516323b872dd60e01b81526001600160a01b038d811660048301523060248301526001600160801b038c8116604484015292519490921694509116916323b872dd916064808201926020929091908290030181600087803b15801561228857600080fd5b505af115801561229c573d6000803e3d6000fd5b505050506040513d60208110156122b257600080fd5b50506008546040805163a9059cbb60e01b81526001600160a01b038b81166004830152602482018590529151919092169163a9059cbb9160448083019260209291908290030181600087803b158015610f8457600080fd5b6000836040518060400160405280601f8152602001600080516020615674833981519152815250816001600160a01b0316336001600160a01b0316148061237457506001600160a01b038216600090815260066020908152604080832033845290915290205460ff165b81906123c15760405162461bcd60e51b8152602060048201818152835160248401528351909283926044909101919085019080838360008315610bc0578181015183820152602001610ba8565b50600854604080516370a0823160e01b81523060048201529051600092612414926001600160a01b03909116916370a0823191602480820192602092909190829003018186803b1580156107ec57600080fd5b600954604080516370a0823160e01b81523060048201529051929350600092612466926001600160a01b0316916370a08231916024808301926020929190829003018186803b1580156107ec57600080fd5b9050600061262d8383896124a66108a07f00000000000000000000000000000000000000000000000000000000000000006001600160801b031642611054565b630784ce00600160401b04676765c793fa10079d601b1b6040600760009054906101000a90046001600160a01b03166001600160a01b03166320aba08b6040518163ffffffff1660e01b8152600401602060405180830381600087803b15801561250f57600080fd5b505af1158015612523573d6000803e3d6000fd5b505050506040513d602081101561253957600080fd5b505142116125c057600760009054906101000a90046001600160a01b03166001600160a01b031663c92aecc46040518163ffffffff1660e01b815260040160206040518083038186803b15801561258f57600080fd5b505afa1580156125a3573d6000803e3d6000fd5b505050506040513d60208110156125b957600080fd5b5051612624565b600760009054906101000a90046001600160a01b03166001600160a01b0316639f678cca6040518163ffffffff1660e01b8152600401602060405180830381600087803b15801561261057600080fd5b505af1158015610ab3573d6000803e3d6000fd5b901b81610ad457fe5b600854604080516323b872dd60e01b81526001600160a01b038d811660048301523060248301526001600160801b039490941660448201819052915191945092909116916323b872dd9160648083019260209291908290030181600087803b15801561269857600080fd5b505af11580156126ac573d6000803e3d6000fd5b505050506040513d60208110156126c257600080fd5b50506009546040805163a9059cbb60e01b81526001600160a01b038b811660048301526001600160801b038b1660248301529151919092169163a9059cbb9160448083019260209291908290030181600087803b158015610f8457600080fd5b6001600160a01b03918216600090815260016020908152604080832093909416825291909152205490565b6103e86903e70000000000000000611ee8565b3360008181526006602090815260408083206001600160a01b03861680855290835292819020805460ff19166001908117909155815190815290519293927f045b0fef01772d2fbba53dbd38c9777806eac0865b00af43abcfbcaf50da9206929181900390910190a350565b3360008181526006602090815260408083206001600160a01b038616808552908352818420805460ff19169055815193845290519093927f045b0fef01772d2fbba53dbd38c9777806eac0865b00af43abcfbcaf50da920692908290030190a350565b3390565b6001600160a01b0383166128785760405162461bcd60e51b815260040180806020018281038252602481526020018061576b6024913960400191505060405180910390fd5b6001600160a01b0382166128bd5760405162461bcd60e51b81526004018080602001828103825260228152602001806156946022913960400191505060405180910390fd5b6001600160a01b03808416600081815260016020908152604080832094871680845294825291829020859055815185815291517f8c5be1e5ebec7d5bd14f71427d1e84f3dd0314c0f7b2291e5b200ac8c7c3b9259281900390910190a3505050565b60006001600160801b03821115612975576040805162461bcd60e51b81526020600482015260156024820152744d61726b65743a2043617374206f766572666c6f7760581b604482015290519081900360640190fd5b5090565b60008061299785612992886001600160801b0316613315565b613333565b905060006129b2600160401b6129ad8685613333565b61336a565b9050600081600f0b136129c457600080fd5b60006129cf8661339d565b905060006129e6878d6001600160801b03166133ed565b9050600160801b81106129f857600080fd5b6001600160801b038b8116908b1601600160801b8110612a1757600080fd5b6000612a4a84612a2c8f88600160401b613455565b612a3b8589600160401b613455565b036001600160801b03166133ed565b612a598487600160401b613455565b6001600160801b0316039050600160801b8110612a7557600080fd5b6000612a9885612a8a84600160401b8a613455565b6001600160801b03166133ed565b8f6001600160801b0316039050600160801b8110612ab557600080fd5b9e9d5050505050505050505050505050565b6000866001600160801b0316866001600160801b03161115612ae857600080fd5b6000612b0c600160401b6129ad85612992896129928c6001600160801b0316613315565b9050600081600f0b13612b1e57600080fd5b6000612b298561339d565b90506000612b40868c6001600160801b03166133ed565b9050600160801b8110612b5257600080fd5b6001600160801b03808a16908b1603600160801b8110612b7157600080fd5b6000612b9584612b868488600160401b613455565b612a3b8f89600160401b613455565b612ba48487600160401b613455565b6001600160801b0316019050600160801b8110612bc057600080fd5b60008d6001600160801b0316612bdf86612a8a85600160401b8b613455565b039050600160801b8110612bf257600080fd5b9d9c50505050505050505050505050565b6000876001600160801b0316866001600160801b03161115612c2457600080fd5b6000612c3c85612992886001600160801b0316613315565b90506000612c52600160401b6129ad8685613333565b9050600081600f0b13612c6457600080fd5b6000612c79868c6001600160801b03166133ed565b9050600160801b8110612c8b57600080fd5b6000612cab878b6001600160801b03168e6001600160801b0316036133ed565b9050600160801b8110612cbd57600080fd5b6000612cd288612a8a8487600160401b613455565b612ce18d86600160401b613455565b6001600160801b0316612cfd8a612a8a8789600160401b613455565b01039050600160801b8110612d1157600080fd5b60008c612d2383600160401b88613455565b036001600160801b03169050600160801b8110612bf257600080fd5b6001600160a01b038316612d845760405162461bcd60e51b81526004018080602001828103825260258152602001806157466025913960400191505060405180910390fd5b6001600160a01b038216612dc95760405162461bcd60e51b815260040180806020018281038252602381526020018061562f6023913960400191505060405180910390fd5b612dd4838383613502565b612e17816040518060600160405280602681526020016156b6602691396001600160a01b038616600090815260208190526040902054919063ffffffff612ea616565b6001600160a01b038085166000908152602081905260408082209390935590841681522054612e4c908263ffffffff612f0016565b6001600160a01b038084166000818152602081815260409182902094909455805185815290519193928716927fddf252ad1be2c89b69c2b068fc378daa952ba7f163c4a11628f55a4df523b3ef92918290030190a3505050565b60008184841115612ef85760405162461bcd60e51b8152602060048201818152835160248401528351909283926044909101919085019080838360008315610bc0578181015183820152602001610ba8565b505050900390565b600082820183811015611044576040805162461bcd60e51b815260206004820152601b60248201527f536166654d6174683a206164646974696f6e206f766572666c6f770000000000604482015290519081900360640190fd5b600082612f695750600061078a565b82820282848281612f7657fe5b04146110445760405162461bcd60e51b81526004018080602001828103825260218152602001806156dc6021913960400191505060405180910390fd5b600061104483836040518060400160405280601a81526020017f536166654d6174683a206469766973696f6e206279207a65726f000000000000815250613507565b6001600160a01b03821661303a5760405162461bcd60e51b81526004018080602001828103825260218152602001806157256021913960400191505060405180910390fd5b61304682600083613502565b61308981604051806060016040528060228152602001615652602291396001600160a01b038516600090815260208190526040902054919063ffffffff612ea616565b6001600160a01b0383166000908152602081905260409020556002546130b5908263ffffffff61356c16565b6002556040805182815290516000916001600160a01b038516917fddf252ad1be2c89b69c2b068fc378daa952ba7f163c4a11628f55a4df523b3ef9181900360200190a35050565b60008061311685612992886001600160801b0316613315565b9050600061312c600160401b6129ad8685613333565b9050600081600f0b1361313e57600080fd5b6000613153868c6001600160801b03166133ed565b9050600160801b811061316557600080fd5b6000613185878b6001600160801b03168e6001600160801b0316016133ed565b9050600160801b811061319757600080fd5b60006131ac88612a8a8487600160401b613455565b6131bb8d86600160401b613455565b6001600160801b03166131d78a612a8a8789600160401b613455565b01039050600160801b81106131eb57600080fd5b60006131fc82600160401b87613455565b8d036001600160801b03169050600160801b8110612bf257600080fd5b6001600160a01b038216613274576040805162461bcd60e51b815260206004820152601f60248201527f45524332303a206d696e7420746f20746865207a65726f206164647265737300604482015290519081900360640190fd5b61328060008383613502565b600254613293908263ffffffff612f0016565b6002556001600160a01b0382166000908152602081905260409020546132bf908263ffffffff612f0016565b6001600160a01b0383166000818152602081815260408083209490945583518581529351929391927fddf252ad1be2c89b69c2b068fc378daa952ba7f163c4a11628f55a4df523b3ef9281900390910190a35050565b6000677fffffffffffffff82111561332c57600080fd5b5060401b90565b6000600f83810b9083900b0260401d60016001607f1b03198112801590613361575060016001607f1b038113155b61104457600080fd5b6000600f82810b9084900b0360016001607f1b03198112801590613361575060016001607f1b0381131561104457600080fd5b600081600f0b600014156133b057600080fd5b600082600f0b600160801b816133c257fe5b05905060016001607f1b031981128015906133e4575060016001607f1b038113155b61078a57600080fd5b6000816133fc5750600061078a565b600083600f0b121561340d57600080fd5b600f83900b6001600160801b038316810260401c90608084901c026001600160c01b0381111561343c57600080fd5b60401b811981111561344d57600080fd5b019392505050565b60006001600160801b03821661346a57600080fd5b6001600160801b038416613493576001600160801b03831661348b57600080fd5b506000611044565b6000826001600160801b0316846001600160801b03166134b2876135ae565b6001600160801b03036001600160801b031602816134cc57fe5b0490506001600160801b038111156134e8576000915050611044565b6134fa816001600160801b03036145f9565b915050611044565b505050565b600081836135565760405162461bcd60e51b8152602060048201818152835160248401528351909283926044909101919085019080838360008315610bc0578181015183820152602001610ba8565b50600083858161356257fe5b0495945050505050565b600061104483836040518060400160405280601e81526020017f536166654d6174683a207375627472616374696f6e206f766572666c6f770000815250612ea6565b60006001600160801b0382166135c357600080fd5b6001600160801b038216607f60791b600160401b8210156135f05760409190911b9060016001607f1b0319015b600160601b8210156136175760209190911b906f3fffffffffffffffffffffffffffffff19015b600160701b82101561363e5760109190911b906f1fffffffffffffffffffffffffffffff19015b600160781b8210156136655760089190911b906f0fffffffffffffffffffffffffffffff19015b6001607c1b82101561368c5760049190911b906f07ffffffffffffffffffffffffffffff19015b6001607e1b8210156136b35760029190911b906f03ffffffffffffffffffffffffffffff19015b6001607f1b8210156136da5760019190911b906f01ffffffffffffffffffffffffffffff19015b908002607f1c90600160801b82106136fa5760019190911c90600160781b175b908002607f1c90600160801b821061371a5760019190911c90600160771b175b908002607f1c90600160801b821061373a5760019190911c90600160761b175b908002607f1c90600160801b821061375a5760019190911c90600160751b175b908002607f1c90600160801b821061377a5760019190911c90600160741b175b908002607f1c90600160801b821061379a5760019190911c90600160731b175b908002607f1c90600160801b82106137ba5760019190911c90600160721b175b908002607f1c90600160801b82106137da5760019190911c90600160711b175b908002607f1c90600160801b82106137fa5760019190911c90600160701b175b908002607f1c90600160801b821061381a5760019190911c906001606f1b175b908002607f1c90600160801b821061383a5760019190911c906001606e1b175b908002607f1c90600160801b821061385a5760019190911c906001606d1b175b908002607f1c90600160801b821061387a5760019190911c906001606c1b175b908002607f1c90600160801b821061389a5760019190911c906001606b1b175b908002607f1c90600160801b82106138ba5760019190911c906001606a1b175b908002607f1c90600160801b82106138da5760019190911c90600160691b175b908002607f1c90600160801b82106138fa5760019190911c90600160681b175b908002607f1c90600160801b821061391a5760019190911c90600160671b175b908002607f1c90600160801b821061393a5760019190911c90600160661b175b908002607f1c90600160801b821061395a5760019190911c90600160651b175b908002607f1c90600160801b821061397a5760019190911c90600160641b175b908002607f1c90600160801b821061399a5760019190911c90600160631b175b908002607f1c90600160801b82106139ba5760019190911c90600160621b175b908002607f1c90600160801b82106139da5760019190911c90600160611b175b908002607f1c90600160801b82106139fa5760019190911c90600160601b175b908002607f1c90600160801b8210613a1a5760019190911c906001605f1b175b908002607f1c90600160801b8210613a3a5760019190911c906001605e1b175b908002607f1c90600160801b8210613a5a5760019190911c906001605d1b175b908002607f1c90600160801b8210613a7a5760019190911c906001605c1b175b908002607f1c90600160801b8210613a9a5760019190911c906001605b1b175b908002607f1c90600160801b8210613aba5760019190911c906001605a1b175b908002607f1c90600160801b8210613ada5760019190911c90600160591b175b908002607f1c90600160801b8210613afa5760019190911c90600160581b175b908002607f1c90600160801b8210613b1a5760019190911c90600160571b175b908002607f1c90600160801b8210613b3a5760019190911c90600160561b175b908002607f1c90600160801b8210613b5a5760019190911c90600160551b175b908002607f1c90600160801b8210613b7a5760019190911c90600160541b175b908002607f1c90600160801b8210613b9a5760019190911c90600160531b175b908002607f1c90600160801b8210613bba5760019190911c90600160521b175b908002607f1c90600160801b8210613bda5760019190911c90600160511b175b908002607f1c90600160801b8210613bfa5760019190911c90600160501b175b908002607f1c90600160801b8210613c1a5760019190911c906001604f1b175b908002607f1c90600160801b8210613c3a5760019190911c906001604e1b175b908002607f1c90600160801b8210613c5a5760019190911c906001604d1b175b908002607f1c90600160801b8210613c7a5760019190911c906001604c1b175b908002607f1c90600160801b8210613c9a5760019190911c906001604b1b175b908002607f1c90600160801b8210613cba5760019190911c906001604a1b175b908002607f1c90600160801b8210613cda5760019190911c90600160491b175b908002607f1c90600160801b8210613cfa5760019190911c90600160481b175b908002607f1c90600160801b8210613d1a5760019190911c90600160471b175b908002607f1c90600160801b8210613d3a5760019190911c90600160461b175b908002607f1c90600160801b8210613d5a5760019190911c90600160451b175b908002607f1c90600160801b8210613d7a5760019190911c90600160441b175b908002607f1c90600160801b8210613d9a5760019190911c90600160431b175b908002607f1c90600160801b8210613dba5760019190911c90600160421b175b908002607f1c90600160801b8210613dda5760019190911c90600160411b175b908002607f1c90600160801b8210613dfa5760019190911c90600160401b175b908002607f1c90600160801b8210613e1a5760019190911c906001603f1b175b908002607f1c90600160801b8210613e3a5760019190911c906001603e1b175b908002607f1c90600160801b8210613e5a5760019190911c906001603d1b175b908002607f1c90600160801b8210613e7a5760019190911c906001603c1b175b908002607f1c90600160801b8210613e9a5760019190911c906001603b1b175b908002607f1c90600160801b8210613eba5760019190911c906001603a1b175b908002607f1c90600160801b8210613eda5760019190911c90600160391b175b908002607f1c90600160801b8210613efa5760019190911c90600160381b175b908002607f1c90600160801b8210613f1d5760019190911c906680000000000000175b908002607f1c90600160801b8210613f405760019190911c906640000000000000175b908002607f1c90600160801b8210613f635760019190911c906620000000000000175b908002607f1c90600160801b8210613f865760019190911c906610000000000000175b908002607f1c90600160801b8210613fa95760019190911c906608000000000000175b908002607f1c90600160801b8210613fcc5760019190911c906604000000000000175b908002607f1c90600160801b8210613fef5760019190911c906602000000000000175b908002607f1c90600160801b82106140125760019190911c906601000000000000175b908002607f1c90600160801b82106140345760019190911c9065800000000000175b908002607f1c90600160801b82106140565760019190911c9065400000000000175b908002607f1c90600160801b82106140785760019190911c9065200000000000175b908002607f1c90600160801b821061409a5760019190911c9065100000000000175b908002607f1c90600160801b82106140bc5760019190911c9065080000000000175b908002607f1c90600160801b82106140de5760019190911c9065040000000000175b908002607f1c90600160801b82106141005760019190911c9065020000000000175b908002607f1c90600160801b82106141225760019190911c9065010000000000175b908002607f1c90600160801b82106141435760019190911c90648000000000175b908002607f1c90600160801b82106141645760019190911c90644000000000175b908002607f1c90600160801b82106141855760019190911c90642000000000175b908002607f1c90600160801b82106141a65760019190911c90641000000000175b908002607f1c90600160801b82106141c75760019190911c90640800000000175b908002607f1c90600160801b82106141e85760019190911c90640400000000175b908002607f1c90600160801b82106142095760019190911c90640200000000175b908002607f1c90600160801b821061422a5760019190911c90640100000000175b908002607f1c90600160801b821061424a5760019190911c906380000000175b908002607f1c90600160801b821061426a5760019190911c906340000000175b908002607f1c90600160801b821061428a5760019190911c906320000000175b908002607f1c90600160801b82106142aa5760019190911c906310000000175b908002607f1c90600160801b82106142ca5760019190911c906308000000175b908002607f1c90600160801b82106142ea5760019190911c906304000000175b908002607f1c90600160801b821061430a5760019190911c906302000000175b908002607f1c90600160801b821061432a5760019190911c906301000000175b908002607f1c90600160801b82106143495760019190911c9062800000175b908002607f1c90600160801b82106143685760019190911c9062400000175b908002607f1c90600160801b82106143875760019190911c9062200000175b908002607f1c90600160801b82106143a65760019190911c9062100000175b908002607f1c90600160801b82106143c55760019190911c9062080000175b908002607f1c90600160801b82106143e45760019190911c9062040000175b908002607f1c90600160801b82106144035760019190911c9062020000175b908002607f1c90600160801b82106144225760019190911c9062010000175b908002607f1c90600160801b82106144405760019190911c90618000175b908002607f1c90600160801b821061445e5760019190911c90614000175b908002607f1c90600160801b821061447c5760019190911c90612000175b908002607f1c90600160801b821061449a5760019190911c90611000175b908002607f1c90600160801b82106144b85760019190911c90610800175b908002607f1c90600160801b82106144d65760019190911c90610400175b908002607f1c90600160801b82106144f45760019190911c90610200175b908002607f1c90600160801b82106145125760019190911c90610100175b908002607f1c90600160801b821061452f5760019190911c906080175b908002607f1c90600160801b821061454c5760019190911c906040175b908002607f1c90600160801b82106145695760019190911c906020175b908002607f1c90600160801b82106145865760019190911c906010175b908002607f1c90600160801b82106145a35760019190911c906008175b908002607f1c90600160801b82106145c05760019190911c906004175b908002607f1c90600160801b82106145dd5760019190911c906002175b908002607f1c90600160801b8210611044576001179392505050565b60006001607f1b600160781b831615614622576fb504f333f9de6484597d89b3754abe9f02607f1c5b600160771b831615614644576f9837f0518db8a96f46ad23182e42f6f602607f1c5b600160761b831615614666576f8b95c1e3ea8bd6e6fbe4628758a53c9002607f1c5b600160751b831615614688576f85aac367cc487b14c5c95b8c2154c1b202607f1c5b600160741b8316156146aa576f82cd8698ac2ba1d73e2a475b46520bff02607f1c5b600160731b8316156146cc576f8164d1f3bc0307737be56527bd14def402607f1c5b600160721b8316156146ee576f80b1ed4fd999ab6c25335719b6e6fd2002607f1c5b600160711b831615614710576f8058d7d2d5e5f6b094d589f608ee4aa202607f1c5b600160701b831615614732576f802c6436d0e04f50ff8ce94a6797b3ce02607f1c5b6001606f1b831615614754576f8016302f174676283690dfe44d11d00802607f1c5b6001606e1b831615614776576f800b179c82028fd0945e54e2ae18f2f002607f1c5b6001606d1b831615614798576f80058baf7fee3b5d1c718b38e549cb9302607f1c5b6001606c1b8316156147ba576f8002c5d00fdcfcb6b6566a58c048be1f02607f1c5b6001606b1b8316156147dc576f800162e61bed4a48e84c2e1a463473d902607f1c5b6001606a1b8316156147fe576f8000b17292f702a3aa22beacca94901302607f1c5b600160691b831615614820576f800058b92abbae02030c5fa5256f41fe02607f1c5b600160681b831615614842576f80002c5c8dade4d71776c0f4dbea67d602607f1c5b600160671b831615614864576f8000162e44eaf636526be456600bdbe402607f1c5b600160661b831615614886576f80000b1721fa7c188307016c1cd4e8b602607f1c5b600160651b8316156148a8576f8000058b90de7e4cecfc487503488bb102607f1c5b600160641b8316156148ca576f800002c5c8678f36cbfce50a6de60b1402607f1c5b600160631b8316156148ec576f80000162e431db9f80b2347b5d62e51602607f1c5b600160621b83161561490e576f800000b1721872d0c7b08cf1e011415202607f1c5b600160611b831615614930576f80000058b90c1aa8a5c3736cb77e8dff02607f1c5b600160601b831615614952576f8000002c5c8605a4635f2efc2362d97802607f1c5b6001605f1b831615614974576f800000162e4300e635cf4a109e3939bd02607f1c5b6001605e1b831615614996576f8000000b17217ff81bef9c551590cf8302607f1c5b6001605d1b8316156149b8576f800000058b90bfdd4e39cd52c0cfa27c02607f1c5b6001605c1b8316156149da576f80000002c5c85fe6f72d669e0e76e41102607f1c5b6001605b1b8316156149fc576f8000000162e42ff18f9ad35186d0df2802607f1c5b6001605a1b831615614a1e576f80000000b17217f84cce71aa0dcfffe702607f1c5b600160591b831615614a40576f8000000058b90bfc07a77ad56ed22aaa02607f1c5b600160581b831615614a62576f800000002c5c85fdfc23cdead40da8d602607f1c5b600160571b831615614a84576f80000000162e42fefc25eb1571853a6602607f1c5b600160561b831615614aa6576f800000000b17217f7d97f692baacded502607f1c5b600160551b831615614ac8576f80000000058b90bfbead3b8b5dd254d702607f1c5b600160541b831615614aea576f8000000002c5c85fdf4eedd62f084e6702607f1c5b600160531b831615614b0c576f800000000162e42fefa58aef378bf58602607f1c5b600160521b831615614b2e576f8000000000b17217f7d24a78a3c7ef0202607f1c5b600160511b831615614b50576f800000000058b90bfbe9067c93e474a602607f1c5b600160501b831615614b72576f80000000002c5c85fdf47b8e5a72599f02607f1c5b6001604f1b831615614b94576f8000000000162e42fefa3bdb315934a202607f1c5b6001604e1b831615614bb6576f80000000000b17217f7d1d7299b49c4602607f1c5b6001604d1b831615614bd8576f8000000000058b90bfbe8e9a8d1c4ea002607f1c5b6001604c1b831615614bfa576f800000000002c5c85fdf4745969ea76f02607f1c5b6001604b1b831615614c1c576f80000000000162e42fefa3a0df5373bf02607f1c5b6001604a1b831615614c3e576f800000000000b17217f7d1cff4aac1e102607f1c5b600160491b831615614c60576f80000000000058b90bfbe8e7db95a2f102607f1c5b600160481b831615614c82576f8000000000002c5c85fdf473e61ae1f802607f1c5b600160471b831615614ca4576f800000000000162e42fefa39f121751c02607f1c5b600160461b831615614cc6576f8000000000000b17217f7d1cf815bb9602607f1c5b600160451b831615614ce8576f800000000000058b90bfbe8e7bec1e0d02607f1c5b600160441b831615614d0a576f80000000000002c5c85fdf473dee5f1702607f1c5b600160431b831615614d2c576f8000000000000162e42fefa39ef5438f02607f1c5b600160421b831615614d4e576f80000000000000b17217f7d1cf7a26c802607f1c5b600160411b831615614d70576f8000000000000058b90bfbe8e7bcf4a402607f1c5b600160401b831615614d92576f800000000000002c5c85fdf473de72a202607f1c5b6001603f1b831615614db4576f80000000000000162e42fefa39ef376502607f1c5b6001603e1b831615614dd6576f800000000000000b17217f7d1cf79b3702607f1c5b6001603d1b831615614df8576f80000000000000058b90bfbe8e7bcd7d02607f1c5b6001603c1b831615614e1a576f8000000000000002c5c85fdf473de6b602607f1c5b6001603b1b831615614e3c576f800000000000000162e42fefa39ef35902607f1c5b6001603a1b831615614e5e576f8000000000000000b17217f7d1cf79ac02607f1c5b600160391b831615614e80576f800000000000000058b90bfbe8e7bcd602607f1c5b600160381b831615614ea2576f80000000000000002c5c85fdf473de6a02607f1c5b6680000000000000831615614ec7576f8000000000000000162e42fefa39ef3502607f1c5b6640000000000000831615614eec576f80000000000000000b17217f7d1cf79a02607f1c5b6620000000000000831615614f11576f8000000000000000058b90bfbe8e7bcd02607f1c5b6610000000000000831615614f36576f800000000000000002c5c85fdf473de602607f1c5b6608000000000000831615614f5b576f80000000000000000162e42fefa39ef302607f1c5b6604000000000000831615614f80576f800000000000000000b17217f7d1cf7902607f1c5b6602000000000000831615614fa5576f80000000000000000058b90bfbe8e7bc02607f1c5b6601000000000000831615614fca576f8000000000000000002c5c85fdf473de02607f1c5b65800000000000831615614fee576f800000000000000000162e42fefa39ef02607f1c5b65400000000000831615615012576f8000000000000000000b17217f7d1cf702607f1c5b65200000000000831615615036576f800000000000000000058b90bfbe8e7b02607f1c5b6510000000000083161561505a576f80000000000000000002c5c85fdf473d02607f1c5b6508000000000083161561507e576f8000000000000000000162e42fefa39e02607f1c5b650400000000008316156150a2576f80000000000000000000b17217f7d1cf02607f1c5b650200000000008316156150c6576f8000000000000000000058b90bfbe8e702607f1c5b650100000000008316156150ea576f800000000000000000002c5c85fdf47302607f1c5b64800000000083161561510d576f80000000000000000000162e42fefa3902607f1c5b644000000000831615615130576f800000000000000000000b17217f7d1c02607f1c5b642000000000831615615153576f80000000000000000000058b90bfbe8e02607f1c5b641000000000831615615176576f8000000000000000000002c5c85fdf4702607f1c5b640800000000831615615199576f800000000000000000000162e42fefa302607f1c5b6404000000008316156151bc576f8000000000000000000000b17217f7d102607f1c5b6402000000008316156151df576f800000000000000000000058b90bfbe802607f1c5b640100000000831615615202576f80000000000000000000002c5c85fdf402607f1c5b6380000000831615615224576f8000000000000000000000162e42fefa02607f1c5b6340000000831615615246576f80000000000000000000000b17217f7d02607f1c5b6320000000831615615268576f8000000000000000000000058b90bfbe02607f1c5b631000000083161561528a576f800000000000000000000002c5c85fdf02607f1c5b63080000008316156152ac576f80000000000000000000000162e42fef02607f1c5b63040000008316156152ce576f800000000000000000000000b17217f702607f1c5b63020000008316156152f0576f80000000000000000000000058b90bfb02607f1c5b6301000000831615615312576f8000000000000000000000002c5c85fd02607f1c5b62800000831615615333576f800000000000000000000000162e42fe02607f1c5b62400000831615615354576f8000000000000000000000000b17217f02607f1c5b62200000831615615375576f800000000000000000000000058b90bf02607f1c5b62100000831615615396576f80000000000000000000000002c5c85f02607f1c5b620800008316156153b7576f8000000000000000000000000162e42f02607f1c5b620400008316156153d8576f80000000000000000000000000b1721702607f1c5b620200008316156153f9576f8000000000000000000000000058b90b02607f1c5b6201000083161561541a576f800000000000000000000000002c5c8502607f1c5b61800083161561543a576f80000000000000000000000000162e4202607f1c5b61400083161561545a576f800000000000000000000000000b172102607f1c5b61200083161561547a576f80000000000000000000000000058b9002607f1c5b61100083161561549a576f8000000000000000000000000002c5c802607f1c5b6108008316156154ba576f800000000000000000000000000162e402607f1c5b6104008316156154da576f8000000000000000000000000000b17202607f1c5b6102008316156154fa576f800000000000000000000000000058b902607f1c5b61010083161561551a576f80000000000000000000000000002c5c02607f1c5b6080831615615539576f8000000000000000000000000000162e02607f1c5b6040831615615558576f80000000000000000000000000000b1702607f1c5b6020831615615577576f8000000000000000000000000000058b02607f1c5b6010831615615596576f800000000000000000000000000002c502607f1c5b60088316156155b5576f8000000000000000000000000000016202607f1c5b60048316156155d4576f800000000000000000000000000000b102607f1c5b60028316156155f3576f8000000000000000000000000000005802607f1c5b6001831615615612576f8000000000000000000000000000002c02607f1c5b607f607984901c811690036001600160801b03161c905091905056fe45524332303a207472616e7366657220746f20746865207a65726f206164647265737345524332303a206275726e20616d6f756e7420657863656564732062616c616e63654d61726b65743a204f6e6c7920486f6c646572204f722044656c65676174650045524332303a20617070726f766520746f20746865207a65726f206164647265737345524332303a207472616e7366657220616d6f756e7420657863656564732062616c616e6365536166654d6174683a206d756c7469706c69636174696f6e206f766572666c6f7745524332303a207472616e7366657220616d6f756e74206578636565647320616c6c6f77616e636545524332303a206275726e2066726f6d20746865207a65726f206164647265737345524332303a207472616e736665722066726f6d20746865207a65726f206164647265737345524332303a20617070726f76652066726f6d20746865207a65726f206164647265737345524332303a2064656372656173656420616c6c6f77616e63652062656c6f77207a65726fa2646970667358221220ebf81cf0c5fdee1f734b6a75705a927f6427ad09a55827eef3b19ec22c9875e364736f6c634300060a0033",
  "source": "pragma solidity ^0.6.10;\n\nimport \"@openzeppelin/contracts/token/ERC20/ERC20.sol\";\nimport \"@openzeppelin/contracts/token/ERC20/IERC20.sol\";\nimport \"./YieldMath.sol\";\nimport \"../helpers/Delegable.sol\";\nimport \"../interfaces/IPot.sol\";\nimport \"../interfaces/IYDai.sol\";\nimport \"../interfaces/IMarket.sol\";\n// import \"@nomiclabs/buidler/console.sol\";\n\n\n/// @dev The Market contract exchanges Dai for yDai at a price defined by a specific formula.\ncontract Market is IMarket, ERC20, Delegable {\n\n    int128 constant public k = int128(uint256((1 << 64)) / 126144000); // 1 / Seconds in 4 years, in 64.64\n    int128 constant public g = int128(uint256((999 << 64)) / 1000); // All constants are `ufixed`, to divide them they must be converted to uint256\n    uint256 constant public initialSupply = 1000;\n    uint128 immutable public maturity;\n\n    IPot internal _pot;\n    IERC20 public chai;\n    IYDai public yDai;\n\n    // TODO: Choose liquidity token name\n    constructor(address pot_, address chai_, address yDai_) public ERC20(\"Name\", \"Symbol\") Delegable() {\n        _pot = IPot(pot_);\n        chai = IERC20(chai_);\n        yDai = IYDai(yDai_);\n\n        maturity = toUint128(yDai.maturity());\n    }\n\n    /// @dev Safe casting from uint256 to uint128\n    function toUint128(uint256 x) internal pure returns(uint128) {\n        require(\n            x <= 340282366920938463463374607431768211455,\n            \"Market: Cast overflow\"\n        );\n        return uint128(x);\n    }\n\n    /// @dev max(0, x - y)\n    function subFloorZero(uint256 x, uint256 y) public pure returns(uint256) {\n        if (y >= x) return 0;\n        else return x - y;\n    }\n\n    /// @dev Mint initial liquidity tokens\n    function init(uint256 chaiIn, uint256 yDaiIn) external {\n        require(\n            totalSupply() == 0,\n            \"Market: Already initialized\"\n        );\n\n        chai.transferFrom(msg.sender, address(this), chaiIn);\n        yDai.transferFrom(msg.sender, address(this), yDaiIn);\n        _mint(msg.sender, initialSupply);\n    }\n\n    /// @dev Mint liquidity tokens in exchange for adding chai and yDai\n    /// The parameter passed is the amount of `chai` being invested, an appropriate amount of `yDai` to be invested alongside will be calculated and taken by this function from the caller.\n    function mint(uint256 chaiOffered) external {\n        uint256 supply = totalSupply();\n        uint256 chaiReserves = chai.balanceOf(address(this));\n        uint256 yDaiReserves = yDai.balanceOf(address(this));\n        uint256 tokensMinted = supply.mul(chaiOffered).div(chaiReserves);\n        uint256 yDaiRequired = yDaiReserves.mul(tokensMinted).div(supply);\n\n        chai.transferFrom(msg.sender, address(this), chaiOffered);\n        yDai.transferFrom(msg.sender, address(this), yDaiRequired);\n        _mint(msg.sender, tokensMinted);\n    }\n\n    /// @dev Burn liquidity tokens in exchange for chai and yDai\n    function burn(uint256 tokensBurned) external {\n        uint256 supply = totalSupply();\n        uint256 chaiReserves = chai.balanceOf(address(this));\n        uint256 yDaiReserves = yDai.balanceOf(address(this));\n        uint256 chaiReturned = tokensBurned.mul(chaiReserves).div(supply);\n        uint256 yDaiReturned = tokensBurned.mul(yDaiReserves).div(supply);\n\n        _burn(msg.sender, tokensBurned);\n        chai.transfer(msg.sender, chaiReturned);\n        yDai.transfer(msg.sender, yDaiReturned);\n    }\n\n    /// @dev Sell Chai for yDai\n    /// @param from Wallet providing the chai being sold. Must have approved the operator with `market.addDelegate(operator)`.\n    /// @param to Wallet receiving the yDai being bought\n    /// @param chaiIn Amount of chai being sold that will be taken from the user's wallet\n    /// @return Amount of yDai that will be deposited on `to` wallet\n    function sellChai(address from, address to, uint128 chaiIn)\n        external override\n        onlyHolderOrDelegate(from, \"Market: Only Holder Or Delegate\")\n        returns(uint256)\n    {\n        uint128 chaiReserves = toUint128(chai.balanceOf(address(this)));\n        uint128 yDaiReserves = toUint128(yDai.balanceOf(address(this)));\n        uint256 yDaiOut = YieldMath.yDaiOutForChaiIn(\n            chaiReserves,\n            yDaiReserves,\n            chaiIn,\n            toUint128(subFloorZero(maturity, now)),\n            k,\n            int128((((now > _pot.rho()) ? _pot.drip() : _pot.chi()) << 64) / 10**27), // Chi can't be higher than 2**64\n            g\n        );\n\n        chai.transferFrom(from, address(this), chaiIn);\n        yDai.transfer(to, yDaiOut);\n\n        return yDaiOut;\n    }\n\n    /// @dev Returns how much yDai would be obtained by selling `chaiIn` chai\n    function sellChaiPreview(uint128 chaiIn) external view returns(uint256) {\n        return YieldMath.yDaiOutForChaiIn(\n            toUint128(chai.balanceOf(address(this))),\n            toUint128(yDai.balanceOf(address(this))),\n            chaiIn,\n            toUint128(subFloorZero(maturity, now)),\n            k,\n            int128((_pot.chi() << 64) / 10**27),\n            g\n        );\n    }\n\n    /// @dev Buy Chai for yDai\n    /// @param from Wallet providing the yDai being sold. Must have approved the operator with `market.addDelegate(operator)`.\n    /// @param to Wallet receiving the chai being bought\n    /// @param chaiOut Amount of chai being bought that will be deposited in `to` wallet\n    /// @return Amount of yDai that will be taken from `from` wallet\n    function buyChai(address from, address to, uint128 chaiOut)\n        external override\n        onlyHolderOrDelegate(from, \"Market: Only Holder Or Delegate\")\n        returns(uint256)\n    {\n        uint128 chaiReserves = toUint128(chai.balanceOf(address(this)));\n        uint128 yDaiReserves = toUint128(yDai.balanceOf(address(this)));\n        uint256 yDaiIn = YieldMath.yDaiInForChaiOut(\n            chaiReserves,\n            yDaiReserves,\n            chaiOut,\n            toUint128(subFloorZero(maturity, now)),\n            k,\n            int128((((now > _pot.rho()) ? _pot.drip() : _pot.chi()) << 64) / 10**27), // Chi can't be higher than 2**64\n            g\n        );\n\n        yDai.transferFrom(from, address(this), yDaiIn);\n        chai.transfer(to, chaiOut);\n\n        return yDaiIn;\n    }\n\n    /// @dev Returns how much yDai would be required to buy `chaiOut` chai\n    function buyChaiPreview(uint128 chaiOut) external view returns(uint256) {\n        return YieldMath.yDaiInForChaiOut(\n            toUint128(chai.balanceOf(address(this))),\n            toUint128(yDai.balanceOf(address(this))),\n            chaiOut,\n            toUint128(subFloorZero(maturity, now)),\n            k,\n            int128((_pot.chi() << 64) / 10**27),\n            g\n        );\n    }\n\n    /// @dev Sell yDai for Chai\n    /// @param from Wallet providing the yDai being sold. Must have approved the operator with `market.addDelegate(operator)`.\n    /// @param to Wallet receiving the chai being bought\n    /// @param yDaiIn Amount of yDai being sold that will be taken from the user's wallet\n    /// @return Amount of chai that will be deposited on `to` wallet\n    function sellYDai(address from, address to, uint128 yDaiIn)\n        external override\n        onlyHolderOrDelegate(from, \"Market: Only Holder Or Delegate\")\n        returns(uint256)\n    {\n        uint128 chaiReserves = toUint128(chai.balanceOf(address(this)));\n        uint128 yDaiReserves = toUint128(yDai.balanceOf(address(this)));\n        uint256 chaiOut = YieldMath.chaiOutForYDaiIn(\n            chaiReserves, yDaiReserves,\n            yDaiIn,\n            toUint128(subFloorZero(maturity, now)),\n            k,\n            int128((((now > _pot.rho()) ? _pot.drip() : _pot.chi()) << 64) / 10**27), // Chi can't be higher than 2**64\n            g\n        );\n\n        yDai.transferFrom(from, address(this), yDaiIn);\n        chai.transfer(to, chaiOut);\n\n        return chaiOut;\n    }\n\n    /// @dev Returns how much chai would be obtained by selling `yDaiIn` yDai\n    function sellYDaiPreview(uint128 yDaiIn) external view returns(uint256) {\n        return YieldMath.chaiOutForYDaiIn(\n            toUint128(chai.balanceOf(address(this))),\n            toUint128(yDai.balanceOf(address(this))),\n            yDaiIn,\n            toUint128(subFloorZero(maturity, now)),\n            k,\n            int128((_pot.chi() << 64) / 10**27),\n            g\n        );\n    }\n\n    /// @dev Buy yDai for chai\n    /// @param from Wallet providing the chai being sold. Must have approved the operator with `market.addDelegate(operator)`.\n    /// @param to Wallet receiving the yDai being bought\n    /// @param yDaiOut Amount of yDai being bought that will be deposited in `to` wallet\n    /// @return Amount of chai that will be taken from `from` wallet\n    function buyYDai(address from, address to, uint128 yDaiOut)\n        external override\n        onlyHolderOrDelegate(from, \"Market: Only Holder Or Delegate\")\n        returns(uint256)\n    {\n        uint128 chaiReserves = toUint128(chai.balanceOf(address(this)));\n        uint128 yDaiReserves = toUint128(yDai.balanceOf(address(this)));\n        uint256 chaiIn = YieldMath.chaiInForYDaiOut(\n            chaiReserves, yDaiReserves,\n            yDaiOut,\n            toUint128(subFloorZero(maturity, now)),\n            k,\n            int128((((now > _pot.rho()) ? _pot.drip() : _pot.chi()) << 64) / 10**27), // Chi can't be higher than 2**64\n            g\n        );\n\n        chai.transferFrom(from, address(this), chaiIn);\n        yDai.transfer(to, yDaiOut);\n\n        return chaiIn;\n    }\n\n\n    /// @dev Returns how much chai would be required to buy `yDaiOut` yDai\n    function buyYDaiPreview(uint128 yDaiOut) external view returns(uint256) {\n        return YieldMath.chaiInForYDaiOut(\n            toUint128(chai.balanceOf(address(this))),\n            toUint128(yDai.balanceOf(address(this))),\n            yDaiOut,\n            toUint128(subFloorZero(maturity, now)),\n            k,\n            int128((_pot.chi() << 64) / 10**27),\n            g\n        );\n    }\n}",
  "sourcePath": "/Users/bruce/dev/yieldprotocol/ytoken-mvp/contracts/market/Market.sol",
  "compiler": {
    "name": "solc",
    "version": "0.6.10+commit.00c0fcaf.Emscripten.clang"
  },
  "schemaVersion": "3.0.23",
  "updatedAt": "2020-07-15T08:10:48.570Z",
  "networkType": "ethereum",
  "devdoc": {
    "details": "The Market contract exchanges Dai for yDai at a price defined by a specific formula.",
    "methods": {
      "addDelegate(address)": {
        "details": "Enable a delegate to act on the behalf of caller"
      },
      "allowance(address,address)": {
        "details": "See {IERC20-allowance}."
      },
      "approve(address,uint256)": {
        "details": "See {IERC20-approve}. Requirements: - `spender` cannot be the zero address."
      },
      "balanceOf(address)": {
        "details": "See {IERC20-balanceOf}."
      },
      "burn(uint256)": {
        "details": "Burn liquidity tokens in exchange for chai and yDai"
      },
      "buyChai(address,address,uint128)": {
        "details": "Buy Chai for yDai",
        "params": {
          "chaiOut": "Amount of chai being bought that will be deposited in `to` wallet",
          "from": "Wallet providing the yDai being sold. Must have approved the operator with `market.addDelegate(operator)`.",
          "to": "Wallet receiving the chai being bought"
        },
        "returns": {
          "_0": "Amount of yDai that will be taken from `from` wallet"
        }
      },
      "buyChaiPreview(uint128)": {
        "details": "Returns how much yDai would be required to buy `chaiOut` chai"
      },
      "buyYDai(address,address,uint128)": {
        "details": "Buy yDai for chai",
        "params": {
          "from": "Wallet providing the chai being sold. Must have approved the operator with `market.addDelegate(operator)`.",
          "to": "Wallet receiving the yDai being bought",
          "yDaiOut": "Amount of yDai being bought that will be deposited in `to` wallet"
        },
        "returns": {
          "_0": "Amount of chai that will be taken from `from` wallet"
        }
      },
      "buyYDaiPreview(uint128)": {
        "details": "Returns how much chai would be required to buy `yDaiOut` yDai"
      },
      "decimals()": {
        "details": "Returns the number of decimals used to get its user representation. For example, if `decimals` equals `2`, a balance of `505` tokens should be displayed to a user as `5,05` (`505 / 10 ** 2`). Tokens usually opt for a value of 18, imitating the relationship between Ether and Wei. This is the value {ERC20} uses, unless {_setupDecimals} is called. NOTE: This information is only used for _display_ purposes: it in no way affects any of the arithmetic of the contract, including {IERC20-balanceOf} and {IERC20-transfer}."
      },
      "decreaseAllowance(address,uint256)": {
        "details": "Atomically decreases the allowance granted to `spender` by the caller. This is an alternative to {approve} that can be used as a mitigation for problems described in {IERC20-approve}. Emits an {Approval} event indicating the updated allowance. Requirements: - `spender` cannot be the zero address. - `spender` must have allowance for the caller of at least `subtractedValue`."
      },
      "increaseAllowance(address,uint256)": {
        "details": "Atomically increases the allowance granted to `spender` by the caller. This is an alternative to {approve} that can be used as a mitigation for problems described in {IERC20-approve}. Emits an {Approval} event indicating the updated allowance. Requirements: - `spender` cannot be the zero address."
      },
      "init(uint256,uint256)": {
        "details": "Mint initial liquidity tokens"
      },
      "mint(uint256)": {
        "details": "Mint liquidity tokens in exchange for adding chai and yDai The parameter passed is the amount of `chai` being invested, an appropriate amount of `yDai` to be invested alongside will be calculated and taken by this function from the caller."
      },
      "name()": {
        "details": "Returns the name of the token."
      },
      "revokeDelegate(address)": {
        "details": "Stop a delegate from acting on the behalf of caller"
      },
      "sellChai(address,address,uint128)": {
        "details": "Sell Chai for yDai",
        "params": {
          "chaiIn": "Amount of chai being sold that will be taken from the user's wallet",
          "from": "Wallet providing the chai being sold. Must have approved the operator with `market.addDelegate(operator)`.",
          "to": "Wallet receiving the yDai being bought"
        },
        "returns": {
          "_0": "Amount of yDai that will be deposited on `to` wallet"
        }
      },
      "sellChaiPreview(uint128)": {
        "details": "Returns how much yDai would be obtained by selling `chaiIn` chai"
      },
      "sellYDai(address,address,uint128)": {
        "details": "Sell yDai for Chai",
        "params": {
          "from": "Wallet providing the yDai being sold. Must have approved the operator with `market.addDelegate(operator)`.",
          "to": "Wallet receiving the chai being bought",
          "yDaiIn": "Amount of yDai being sold that will be taken from the user's wallet"
        },
        "returns": {
          "_0": "Amount of chai that will be deposited on `to` wallet"
        }
      },
      "sellYDaiPreview(uint128)": {
        "details": "Returns how much chai would be obtained by selling `yDaiIn` yDai"
      },
      "subFloorZero(uint256,uint256)": {
        "details": "max(0, x - y)"
      },
      "symbol()": {
        "details": "Returns the symbol of the token, usually a shorter version of the name."
      },
      "totalSupply()": {
        "details": "See {IERC20-totalSupply}."
      },
      "transfer(address,uint256)": {
        "details": "See {IERC20-transfer}. Requirements: - `recipient` cannot be the zero address. - the caller must have a balance of at least `amount`."
      },
      "transferFrom(address,address,uint256)": {
        "details": "See {IERC20-transferFrom}. Emits an {Approval} event indicating the updated allowance. This is not required by the EIP. See the note at the beginning of {ERC20}; Requirements: - `sender` and `recipient` cannot be the zero address. - `sender` must have a balance of at least `amount`. - the caller must have allowance for ``sender``'s tokens of at least `amount`."
      }
    }
  },
  "userdoc": {
    "methods": {}
  }
}