{
  "contractName": "Market",
  "abi": [
    {
      "inputs": [
        {
          "internalType": "address",
          "name": "pot_",
          "type": "address"
        },
        {
          "internalType": "address",
          "name": "chai_",
          "type": "address"
        },
        {
          "internalType": "address",
          "name": "yDai_",
          "type": "address"
        }
      ],
      "stateMutability": "nonpayable",
      "type": "constructor"
    },
    {
      "anonymous": false,
      "inputs": [
        {
          "indexed": true,
          "internalType": "address",
          "name": "owner",
          "type": "address"
        },
        {
          "indexed": true,
          "internalType": "address",
          "name": "spender",
          "type": "address"
        },
        {
          "indexed": false,
          "internalType": "uint256",
          "name": "value",
          "type": "uint256"
        }
      ],
      "name": "Approval",
      "type": "event"
    },
    {
      "anonymous": false,
      "inputs": [
        {
          "indexed": true,
          "internalType": "address",
          "name": "user",
          "type": "address"
        },
        {
          "indexed": true,
          "internalType": "address",
          "name": "delegate",
          "type": "address"
        },
        {
          "indexed": false,
          "internalType": "bool",
          "name": "enabled",
          "type": "bool"
        }
      ],
      "name": "Delegate",
      "type": "event"
    },
    {
      "anonymous": false,
      "inputs": [
        {
          "indexed": true,
          "internalType": "address",
          "name": "from",
          "type": "address"
        },
        {
          "indexed": true,
          "internalType": "address",
          "name": "to",
          "type": "address"
        },
        {
          "indexed": false,
          "internalType": "uint256",
          "name": "value",
          "type": "uint256"
        }
      ],
      "name": "Transfer",
      "type": "event"
    },
    {
      "inputs": [
        {
          "internalType": "address",
          "name": "delegate",
          "type": "address"
        }
      ],
      "name": "addDelegate",
      "outputs": [],
      "stateMutability": "nonpayable",
      "type": "function"
    },
    {
      "inputs": [
        {
          "internalType": "address",
          "name": "owner",
          "type": "address"
        },
        {
          "internalType": "address",
          "name": "spender",
          "type": "address"
        }
      ],
      "name": "allowance",
      "outputs": [
        {
          "internalType": "uint256",
          "name": "",
          "type": "uint256"
        }
      ],
      "stateMutability": "view",
      "type": "function",
      "constant": true
    },
    {
      "inputs": [
        {
          "internalType": "address",
          "name": "spender",
          "type": "address"
        },
        {
          "internalType": "uint256",
          "name": "amount",
          "type": "uint256"
        }
      ],
      "name": "approve",
      "outputs": [
        {
          "internalType": "bool",
          "name": "",
          "type": "bool"
        }
      ],
      "stateMutability": "nonpayable",
      "type": "function"
    },
    {
      "inputs": [
        {
          "internalType": "address",
          "name": "account",
          "type": "address"
        }
      ],
      "name": "balanceOf",
      "outputs": [
        {
          "internalType": "uint256",
          "name": "",
          "type": "uint256"
        }
      ],
      "stateMutability": "view",
      "type": "function",
      "constant": true
    },
    {
      "inputs": [],
      "name": "chai",
      "outputs": [
        {
          "internalType": "contract IERC20",
          "name": "",
          "type": "address"
        }
      ],
      "stateMutability": "view",
      "type": "function",
      "constant": true
    },
    {
      "inputs": [],
      "name": "decimals",
      "outputs": [
        {
          "internalType": "uint8",
          "name": "",
          "type": "uint8"
        }
      ],
      "stateMutability": "view",
      "type": "function",
      "constant": true
    },
    {
      "inputs": [
        {
          "internalType": "address",
          "name": "spender",
          "type": "address"
        },
        {
          "internalType": "uint256",
          "name": "subtractedValue",
          "type": "uint256"
        }
      ],
      "name": "decreaseAllowance",
      "outputs": [
        {
          "internalType": "bool",
          "name": "",
          "type": "bool"
        }
      ],
      "stateMutability": "nonpayable",
      "type": "function"
    },
    {
      "inputs": [],
      "name": "g",
      "outputs": [
        {
          "internalType": "int128",
          "name": "",
          "type": "int128"
        }
      ],
      "stateMutability": "view",
      "type": "function",
      "constant": true
    },
    {
      "inputs": [
        {
          "internalType": "address",
          "name": "spender",
          "type": "address"
        },
        {
          "internalType": "uint256",
          "name": "addedValue",
          "type": "uint256"
        }
      ],
      "name": "increaseAllowance",
      "outputs": [
        {
          "internalType": "bool",
          "name": "",
          "type": "bool"
        }
      ],
      "stateMutability": "nonpayable",
      "type": "function"
    },
    {
      "inputs": [],
      "name": "initialSupply",
      "outputs": [
        {
          "internalType": "uint256",
          "name": "",
          "type": "uint256"
        }
      ],
      "stateMutability": "view",
      "type": "function",
      "constant": true
    },
    {
      "inputs": [],
      "name": "k",
      "outputs": [
        {
          "internalType": "int128",
          "name": "",
          "type": "int128"
        }
      ],
      "stateMutability": "view",
      "type": "function",
      "constant": true
    },
    {
      "inputs": [],
      "name": "maturity",
      "outputs": [
        {
          "internalType": "uint128",
          "name": "",
          "type": "uint128"
        }
      ],
      "stateMutability": "view",
      "type": "function",
      "constant": true
    },
    {
      "inputs": [],
      "name": "name",
      "outputs": [
        {
          "internalType": "string",
          "name": "",
          "type": "string"
        }
      ],
      "stateMutability": "view",
      "type": "function",
      "constant": true
    },
    {
      "inputs": [
        {
          "internalType": "address",
          "name": "delegate",
          "type": "address"
        }
      ],
      "name": "revokeDelegate",
      "outputs": [],
      "stateMutability": "nonpayable",
      "type": "function"
    },
    {
      "inputs": [],
      "name": "symbol",
      "outputs": [
        {
          "internalType": "string",
          "name": "",
          "type": "string"
        }
      ],
      "stateMutability": "view",
      "type": "function",
      "constant": true
    },
    {
      "inputs": [],
      "name": "totalSupply",
      "outputs": [
        {
          "internalType": "uint256",
          "name": "",
          "type": "uint256"
        }
      ],
      "stateMutability": "view",
      "type": "function",
      "constant": true
    },
    {
      "inputs": [
        {
          "internalType": "address",
          "name": "recipient",
          "type": "address"
        },
        {
          "internalType": "uint256",
          "name": "amount",
          "type": "uint256"
        }
      ],
      "name": "transfer",
      "outputs": [
        {
          "internalType": "bool",
          "name": "",
          "type": "bool"
        }
      ],
      "stateMutability": "nonpayable",
      "type": "function"
    },
    {
      "inputs": [
        {
          "internalType": "address",
          "name": "sender",
          "type": "address"
        },
        {
          "internalType": "address",
          "name": "recipient",
          "type": "address"
        },
        {
          "internalType": "uint256",
          "name": "amount",
          "type": "uint256"
        }
      ],
      "name": "transferFrom",
      "outputs": [
        {
          "internalType": "bool",
          "name": "",
          "type": "bool"
        }
      ],
      "stateMutability": "nonpayable",
      "type": "function"
    },
    {
      "inputs": [],
      "name": "yDai",
      "outputs": [
        {
          "internalType": "contract IYDai",
          "name": "",
          "type": "address"
        }
      ],
      "stateMutability": "view",
      "type": "function",
      "constant": true
    },
    {
      "inputs": [
        {
          "internalType": "uint256",
          "name": "chaiIn",
          "type": "uint256"
        },
        {
          "internalType": "uint256",
          "name": "yDaiIn",
          "type": "uint256"
        }
      ],
      "name": "init",
      "outputs": [],
      "stateMutability": "nonpayable",
      "type": "function"
    },
    {
      "inputs": [
        {
          "internalType": "uint256",
          "name": "chaiOffered",
          "type": "uint256"
        }
      ],
      "name": "mint",
      "outputs": [],
      "stateMutability": "nonpayable",
      "type": "function"
    },
    {
      "inputs": [
        {
          "internalType": "uint256",
          "name": "tokensBurned",
          "type": "uint256"
        }
      ],
      "name": "burn",
      "outputs": [],
      "stateMutability": "nonpayable",
      "type": "function"
    },
    {
      "inputs": [
        {
          "internalType": "address",
          "name": "from",
          "type": "address"
        },
        {
          "internalType": "address",
          "name": "to",
          "type": "address"
        },
        {
          "internalType": "uint128",
          "name": "chaiIn",
          "type": "uint128"
        }
      ],
      "name": "sellChai",
      "outputs": [],
      "stateMutability": "nonpayable",
      "type": "function"
    },
    {
      "inputs": [
        {
          "internalType": "address",
          "name": "from",
          "type": "address"
        },
        {
          "internalType": "address",
          "name": "to",
          "type": "address"
        },
        {
          "internalType": "uint128",
          "name": "chaiOut",
          "type": "uint128"
        }
      ],
      "name": "buyChai",
      "outputs": [],
      "stateMutability": "nonpayable",
      "type": "function"
    },
    {
      "inputs": [
        {
          "internalType": "address",
          "name": "from",
          "type": "address"
        },
        {
          "internalType": "address",
          "name": "to",
          "type": "address"
        },
        {
          "internalType": "uint128",
          "name": "yDaiIn",
          "type": "uint128"
        }
      ],
      "name": "sellYDai",
      "outputs": [],
      "stateMutability": "nonpayable",
      "type": "function"
    },
    {
      "inputs": [
        {
          "internalType": "address",
          "name": "from",
          "type": "address"
        },
        {
          "internalType": "address",
          "name": "to",
          "type": "address"
        },
        {
          "internalType": "uint128",
          "name": "yDaiOut",
          "type": "uint128"
        }
      ],
      "name": "buyYDai",
      "outputs": [],
      "stateMutability": "nonpayable",
      "type": "function"
    }
  ],
  "bytecode": "0x60a06040523480156200001157600080fd5b5060405162005bcc38038062005bcc833981810160405260608110156200003757600080fd5b5080516020808301516040938401518451808601865260048152634e616d6560e01b8185019081528651808801909752600687526514de5b589bdb60d21b9487019490945280519495929491939092916200009591600391620001f4565b508051620000ab906004906020840190620001f4565b50506005805460ff1916601217905550600780546001600160a01b038086166001600160a01b0319928316179092556008805485841690831617905560098054848416921691909117908190556040805163204f83f960e01b815290516200017693929092169163204f83f991600480820192602092909190829003018186803b1580156200013957600080fd5b505afa1580156200014e573d6000803e3d6000fd5b505050506040513d60208110156200016557600080fd5b50516001600160e01b036200019116565b6001600160801b0319608091821b169052506200028e915050565b60006001600160801b03821115620001f0576040805162461bcd60e51b815260206004820152601560248201527f4d61726b65743a2043617374206f766572666c6f770000000000000000000000604482015290519081900360640190fd5b5090565b828054600181600116156101000203166002900490600052602060002090601f016020900481019282601f106200023757805160ff191683800117855562000267565b8280016001018555821562000267579182015b82811115620002675782518255916020019190600101906200024a565b50620001f0926200028b9250905b80821115620001f0576000815560010162000275565b90565b60805160801c61590c620002c0600039806106a65280610a4552806112855280611c2a52806120cd525061590c6000f3fe608060405234801561001057600080fd5b50600436106101ae5760003560e01c8063a0712d68116100ee578063b69d045611610097578063dd62ed3e11610071578063dd62ed3e14610568578063e2179b8e14610596578063e71bdf411461059e578063fa352c00146105c4576101ae565b8063b69d0456146104e0578063c47b5b83146104e8578063d43fde7014610528576101ae565b8063a9059cbb116100c8578063a9059cbb1461046f578063aef52e3f1461049b578063b4f40c61146104bf576101ae565b8063a0712d6814610403578063a457c2d714610420578063a5843f081461044c576101ae565b8063313ce5671161015b57806342966c681161013557806342966c681461037857806370a08231146103955780637af43608146103bb57806395d89b41146103fb576101ae565b8063313ce56714610326578063378dc3dc14610344578063395093511461034c576101ae565b8063204f83f91161018c578063204f83f91461028a57806322e8a7ef146102ae57806323b872dd146102f0576101ae565b806306fdde03146101b3578063095ea7b31461023057806318160ddd14610270575b600080fd5b6101bb6105ea565b6040805160208082528351818301528351919283929083019185019080838360005b838110156101f55781810151838201526020016101dd565b50505050905090810190601f1680156102225780820380516001836020036101000a031916815260200191505b509250505060405180910390f35b61025c6004803603604081101561024657600080fd5b506001600160a01b038135169060200135610680565b604080519115158252519081900360200190f35b61027861069e565b60408051918252519081900360200190f35b6102926106a4565b604080516001600160801b039092168252519081900360200190f35b6102ee600480360360608110156102c457600080fd5b5080356001600160a01b0390811691602081013590911690604001356001600160801b03166106c8565b005b61025c6004803603606081101561030657600080fd5b506001600160a01b03813581169160208101359091169060400135610bf2565b61032e610c80565b6040805160ff9092168252519081900360200190f35b610278610c89565b61025c6004803603604081101561036257600080fd5b506001600160a01b038135169060200135610c8f565b6102ee6004803603602081101561038e57600080fd5b5035610ce3565b610278600480360360208110156103ab57600080fd5b50356001600160a01b0316610f5b565b6102ee600480360360608110156103d157600080fd5b5080356001600160a01b0390811691602081013590911690604001356001600160801b0316610f76565b6101bb611419565b6102ee6004803603602081101561041957600080fd5b503561147a565b61025c6004803603604081101561043657600080fd5b506001600160a01b0381351690602001356116eb565b6102ee6004803603604081101561046257600080fd5b5080359060200135611759565b61025c6004803603604081101561048557600080fd5b506001600160a01b0381351690602001356118da565b6104a36118ee565b604080516001600160a01b039092168252519081900360200190f35b6104c76118fd565b60408051600f92830b90920b8252519081900360200190f35b6104a361190c565b6102ee600480360360608110156104fe57600080fd5b5080356001600160a01b0390811691602081013590911690604001356001600160801b031661191b565b6102ee6004803603606081101561053e57600080fd5b5080356001600160a01b0390811691602081013590911690604001356001600160801b0316611dbe565b6102786004803603604081101561057e57600080fd5b506001600160a01b038135811691602001351661226a565b6104c7612295565b6102ee600480360360208110156105b457600080fd5b50356001600160a01b03166122a8565b6102ee600480360360208110156105da57600080fd5b50356001600160a01b0316612314565b60038054604080516020601f60026000196101006001881615020190951694909404938401819004810282018101909252828152606093909290918301828280156106765780601f1061064b57610100808354040283529160200191610676565b820191906000526020600020905b81548152906001019060200180831161065957829003601f168201915b5050505050905090565b600061069461068d612377565b848461237b565b5060015b92915050565b60025490565b7f000000000000000000000000000000000000000000000000000000000000000081565b60408051808201909152601f81527f4d61726b65743a204f6e6c7920486f6c646572204f722044656c65676174650060208201528390336001600160a01b038316148061073857506001600160a01b038216600090815260066020908152604080832033845290915290205460ff165b81906107c25760405162461bcd60e51b81526004018080602001828103825283818151815260200191508051906020019080838360005b8381101561078757818101518382015260200161076f565b50505050905090810190601f1680156107b45780820380516001836020036101000a031916815260200191505b509250505060405180910390fd5b5060006b033b2e3c9fd0803ce80000006040600760009054906101000a90046001600160a01b03166001600160a01b03166320aba08b6040518163ffffffff1660e01b8152600401602060405180830381600087803b15801561082457600080fd5b505af1158015610838573d6000803e3d6000fd5b505050506040513d602081101561084e57600080fd5b505142116108d557600760009054906101000a90046001600160a01b03166001600160a01b031663c92aecc46040518163ffffffff1660e01b815260040160206040518083038186803b1580156108a457600080fd5b505afa1580156108b8573d6000803e3d6000fd5b505050506040513d60208110156108ce57600080fd5b5051610952565b600760009054906101000a90046001600160a01b03166001600160a01b0316639f678cca6040518163ffffffff1660e01b8152600401602060405180830381600087803b15801561092557600080fd5b505af1158015610939573d6000803e3d6000fd5b505050506040513d602081101561094f57600080fd5b50515b901b8161095b57fe5b600854604080516370a0823160e01b815230600482015290519390920493506000926109e3926001600160a01b03909216916370a08231916024808301926020929190829003018186803b1580156109b257600080fd5b505afa1580156109c6573d6000803e3d6000fd5b505050506040513d60208110156109dc57600080fd5b5051612467565b600954604080516370a0823160e01b81523060048201529051929350600092610a35926001600160a01b0316916370a08231916024808301926020929190829003018186803b1580156109b257600080fd5b90506000610a88838389610a73427f00000000000000000000000000000000000000000000000000000000000000006001600160801b031603612467565b64220c523d728967ffbe76c8b43958106124c9565b600954604080516323b872dd60e01b81526001600160a01b038d811660048301523060248301526001600160801b039490941660448201819052915191945092909116916323b872dd9160648083019260209291908290030181600087803b158015610af357600080fd5b505af1158015610b07573d6000803e3d6000fd5b505050506040513d6020811015610b1d57600080fd5b50506008546040805163a9059cbb60e01b81526001600160a01b038b811660048301526001600160801b038b1660248301529151919092169163a9059cbb9160448083019260209291908290030181600087803b158015610b7d57600080fd5b505af1158015610b91573d6000803e3d6000fd5b505050506040513d6020811015610ba757600080fd5b50610be79050610bc96001600160801b03858116908a1663ffffffff61262e16565b610be26001600160801b0385168463ffffffff61267016565b6126ca565b505050505050505050565b6000610bff84848461280e565b610c7584610c0b612377565b610c7085604051806060016040528060288152602001615820602891396001600160a01b038a16600090815260016020526040812090610c49612377565b6001600160a01b03168152602081019190915260400160002054919063ffffffff61297516565b61237b565b5060015b9392505050565b60055460ff1690565b6103e881565b6000610694610c9c612377565b84610c708560016000610cad612377565b6001600160a01b03908116825260208083019390935260409182016000908120918c16815292529020549063ffffffff61267016565b6000610ced61069e565b600854604080516370a0823160e01b815230600482015290519293506000926001600160a01b03909216916370a0823191602480820192602092909190829003018186803b158015610d3e57600080fd5b505afa158015610d52573d6000803e3d6000fd5b505050506040513d6020811015610d6857600080fd5b5051600954604080516370a0823160e01b815230600482015290519293506000926001600160a01b03909216916370a0823191602480820192602092909190829003018186803b158015610dbb57600080fd5b505afa158015610dcf573d6000803e3d6000fd5b505050506040513d6020811015610de557600080fd5b505190506000610e0b84610dff878663ffffffff6129cf16565b9063ffffffff612a2816565b90506000610e2385610dff888663ffffffff6129cf16565b9050610e2f3387612a6a565b6008546040805163a9059cbb60e01b81523360048201526024810185905290516001600160a01b039092169163a9059cbb916044808201926020929091908290030181600087803b158015610e8357600080fd5b505af1158015610e97573d6000803e3d6000fd5b505050506040513d6020811015610ead57600080fd5b50506009546040805163a9059cbb60e01b81523360048201526024810184905290516001600160a01b039092169163a9059cbb916044808201926020929091908290030181600087803b158015610f0357600080fd5b505af1158015610f17573d6000803e3d6000fd5b505050506040513d6020811015610f2d57600080fd5b50610f539050610f43858463ffffffff61262e16565b610be2858463ffffffff61262e16565b505050505050565b6001600160a01b031660009081526020819052604090205490565b60408051808201909152601f81527f4d61726b65743a204f6e6c7920486f6c646572204f722044656c65676174650060208201528390336001600160a01b0383161480610fe657506001600160a01b038216600090815260066020908152604080832033845290915290205460ff165b81906110335760405162461bcd60e51b815260206004820181815283516024840152835190928392604490910191908501908083836000831561078757818101518382015260200161076f565b5060006b033b2e3c9fd0803ce80000006040600760009054906101000a90046001600160a01b03166001600160a01b03166320aba08b6040518163ffffffff1660e01b8152600401602060405180830381600087803b15801561109557600080fd5b505af11580156110a9573d6000803e3d6000fd5b505050506040513d60208110156110bf57600080fd5b5051421161114657600760009054906101000a90046001600160a01b03166001600160a01b031663c92aecc46040518163ffffffff1660e01b815260040160206040518083038186803b15801561111557600080fd5b505afa158015611129573d6000803e3d6000fd5b505050506040513d602081101561113f57600080fd5b50516111c3565b600760009054906101000a90046001600160a01b03166001600160a01b0316639f678cca6040518163ffffffff1660e01b8152600401602060405180830381600087803b15801561119657600080fd5b505af11580156111aa573d6000803e3d6000fd5b505050506040513d60208110156111c057600080fd5b50515b901b816111cc57fe5b600854604080516370a0823160e01b81523060048201529051939092049350600092611223926001600160a01b03909216916370a08231916024808301926020929190829003018186803b1580156109b257600080fd5b600954604080516370a0823160e01b81523060048201529051929350600092611275926001600160a01b0316916370a08231916024808301926020929190829003018186803b1580156109b257600080fd5b905060006112c88383896112b3427f00000000000000000000000000000000000000000000000000000000000000006001600160801b031603612467565b64220c523d728967ffbe76c8b4395810612b72565b600854604080516323b872dd60e01b81526001600160a01b038d811660048301523060248301526001600160801b038c8116604484015292519490921694509116916323b872dd916064808201926020929091908290030181600087803b15801561133257600080fd5b505af1158015611346573d6000803e3d6000fd5b505050506040513d602081101561135c57600080fd5b50506009546040805163a9059cbb60e01b81526001600160a01b038b81166004830152602482018590529151919092169163a9059cbb9160448083019260209291908290030181600087803b1580156113b457600080fd5b505af11580156113c8573d6000803e3d6000fd5b505050506040513d60208110156113de57600080fd5b50610be790506114006001600160801b03858116908a1663ffffffff61267016565b610be26001600160801b0385168463ffffffff61262e16565b60048054604080516020601f60026000196101006001881615020190951694909404938401819004810282018101909252828152606093909290918301828280156106765780601f1061064b57610100808354040283529160200191610676565b600061148461069e565b600854604080516370a0823160e01b815230600482015290519293506000926001600160a01b03909216916370a0823191602480820192602092909190829003018186803b1580156114d557600080fd5b505afa1580156114e9573d6000803e3d6000fd5b505050506040513d60208110156114ff57600080fd5b5051600954604080516370a0823160e01b815230600482015290519293506000926001600160a01b03909216916370a0823191602480820192602092909190829003018186803b15801561155257600080fd5b505afa158015611566573d6000803e3d6000fd5b505050506040513d602081101561157c57600080fd5b50519050600061159683610dff868863ffffffff6129cf16565b905060006115ae85610dff858563ffffffff6129cf16565b600854604080516323b872dd60e01b8152336004820152306024820152604481018a905290519293506001600160a01b03909116916323b872dd916064808201926020929091908290030181600087803b15801561160b57600080fd5b505af115801561161f573d6000803e3d6000fd5b505050506040513d602081101561163557600080fd5b5050600954604080516323b872dd60e01b81523360048201523060248201526044810184905290516001600160a01b03909216916323b872dd916064808201926020929091908290030181600087803b15801561169157600080fd5b505af11580156116a5573d6000803e3d6000fd5b505050506040513d60208110156116bb57600080fd5b506116c890503383612c8e565b610f536116db858863ffffffff61267016565b610be2858463ffffffff61267016565b60006106946116f8612377565b84610c70856040518060600160405280602581526020016158b26025913960016000611722612377565b6001600160a01b03908116825260208083019390935260409182016000908120918d1681529252902054919063ffffffff61297516565b61176161069e565b156117b3576040805162461bcd60e51b815260206004820152601b60248201527f4d61726b65743a20416c726561647920696e697469616c697a65640000000000604482015290519081900360640190fd5b600854604080516323b872dd60e01b81523360048201523060248201526044810185905290516001600160a01b03909216916323b872dd916064808201926020929091908290030181600087803b15801561180d57600080fd5b505af1158015611821573d6000803e3d6000fd5b505050506040513d602081101561183757600080fd5b5050600954604080516323b872dd60e01b81523360048201523060248201526044810184905290516001600160a01b03909216916323b872dd916064808201926020929091908290030181600087803b15801561189357600080fd5b505af11580156118a7573d6000803e3d6000fd5b505050506040513d60208110156118bd57600080fd5b506118cc9050336103e8612c8e565b6118d682826126ca565b5050565b60006106946118e7612377565b848461280e565b6009546001600160a01b031681565b630784ce00600160401b5b0481565b6008546001600160a01b031681565b60408051808201909152601f81527f4d61726b65743a204f6e6c7920486f6c646572204f722044656c65676174650060208201528390336001600160a01b038316148061198b57506001600160a01b038216600090815260066020908152604080832033845290915290205460ff165b81906119d85760405162461bcd60e51b815260206004820181815283516024840152835190928392604490910191908501908083836000831561078757818101518382015260200161076f565b5060006b033b2e3c9fd0803ce80000006040600760009054906101000a90046001600160a01b03166001600160a01b03166320aba08b6040518163ffffffff1660e01b8152600401602060405180830381600087803b158015611a3a57600080fd5b505af1158015611a4e573d6000803e3d6000fd5b505050506040513d6020811015611a6457600080fd5b50514211611aeb57600760009054906101000a90046001600160a01b03166001600160a01b031663c92aecc46040518163ffffffff1660e01b815260040160206040518083038186803b158015611aba57600080fd5b505afa158015611ace573d6000803e3d6000fd5b505050506040513d6020811015611ae457600080fd5b5051611b68565b600760009054906101000a90046001600160a01b03166001600160a01b0316639f678cca6040518163ffffffff1660e01b8152600401602060405180830381600087803b158015611b3b57600080fd5b505af1158015611b4f573d6000803e3d6000fd5b505050506040513d6020811015611b6557600080fd5b50515b901b81611b7157fe5b600854604080516370a0823160e01b81523060048201529051939092049350600092611bc8926001600160a01b03909216916370a08231916024808301926020929190829003018186803b1580156109b257600080fd5b600954604080516370a0823160e01b81523060048201529051929350600092611c1a926001600160a01b0316916370a08231916024808301926020929190829003018186803b1580156109b257600080fd5b90506000611c6d838389611c58427f00000000000000000000000000000000000000000000000000000000000000006001600160801b031603612467565b64220c523d728967ffbe76c8b4395810612d8a565b600954604080516323b872dd60e01b81526001600160a01b038d811660048301523060248301526001600160801b038c8116604484015292519490921694509116916323b872dd916064808201926020929091908290030181600087803b158015611cd757600080fd5b505af1158015611ceb573d6000803e3d6000fd5b505050506040513d6020811015611d0157600080fd5b50506008546040805163a9059cbb60e01b81526001600160a01b038b81166004830152602482018590529151919092169163a9059cbb9160448083019260209291908290030181600087803b158015611d5957600080fd5b505af1158015611d6d573d6000803e3d6000fd5b505050506040513d6020811015611d8357600080fd5b50610be79050611da26001600160801b0385168363ffffffff61262e16565b610be26001600160801b03858116908b1663ffffffff61267016565b60408051808201909152601f81527f4d61726b65743a204f6e6c7920486f6c646572204f722044656c65676174650060208201528390336001600160a01b0383161480611e2e57506001600160a01b038216600090815260066020908152604080832033845290915290205460ff165b8190611e7b5760405162461bcd60e51b815260206004820181815283516024840152835190928392604490910191908501908083836000831561078757818101518382015260200161076f565b5060006b033b2e3c9fd0803ce80000006040600760009054906101000a90046001600160a01b03166001600160a01b03166320aba08b6040518163ffffffff1660e01b8152600401602060405180830381600087803b158015611edd57600080fd5b505af1158015611ef1573d6000803e3d6000fd5b505050506040513d6020811015611f0757600080fd5b50514211611f8e57600760009054906101000a90046001600160a01b03166001600160a01b031663c92aecc46040518163ffffffff1660e01b815260040160206040518083038186803b158015611f5d57600080fd5b505afa158015611f71573d6000803e3d6000fd5b505050506040513d6020811015611f8757600080fd5b505161200b565b600760009054906101000a90046001600160a01b03166001600160a01b0316639f678cca6040518163ffffffff1660e01b8152600401602060405180830381600087803b158015611fde57600080fd5b505af1158015611ff2573d6000803e3d6000fd5b505050506040513d602081101561200857600080fd5b50515b901b8161201457fe5b600854604080516370a0823160e01b8152306004820152905193909204935060009261206b926001600160a01b03909216916370a08231916024808301926020929190829003018186803b1580156109b257600080fd5b600954604080516370a0823160e01b815230600482015290519293506000926120bd926001600160a01b0316916370a08231916024808301926020929190829003018186803b1580156109b257600080fd5b905060006121108383896120fb427f00000000000000000000000000000000000000000000000000000000000000006001600160801b031603612467565b64220c523d728967ffbe76c8b4395810612ec0565b600854604080516323b872dd60e01b81526001600160a01b038d811660048301523060248301526001600160801b039490941660448201819052915191945092909116916323b872dd9160648083019260209291908290030181600087803b15801561217b57600080fd5b505af115801561218f573d6000803e3d6000fd5b505050506040513d60208110156121a557600080fd5b50506009546040805163a9059cbb60e01b81526001600160a01b038b811660048301526001600160801b038b1660248301529151919092169163a9059cbb9160448083019260209291908290030181600087803b15801561220557600080fd5b505af1158015612219573d6000803e3d6000fd5b505050506040513d602081101561222f57600080fd5b50610be7905061224e6001600160801b0385168363ffffffff61267016565b610be26001600160801b03858116908b1663ffffffff61262e16565b6001600160a01b03918216600090815260016020908152604080832093909416825291909152205490565b6103e86903e70000000000000000611908565b3360008181526006602090815260408083206001600160a01b03861680855290835292819020805460ff19166001908117909155815190815290519293927f045b0fef01772d2fbba53dbd38c9777806eac0865b00af43abcfbcaf50da9206929181900390910190a350565b3360008181526006602090815260408083206001600160a01b038616808552908352818420805460ff19169055815193845290519093927f045b0fef01772d2fbba53dbd38c9777806eac0865b00af43abcfbcaf50da920692908290030190a350565b3390565b6001600160a01b0383166123c05760405162461bcd60e51b815260040180806020018281038252602481526020018061588e6024913960400191505060405180910390fd5b6001600160a01b0382166124055760405162461bcd60e51b81526004018080602001828103825260228152602001806157b76022913960400191505060405180910390fd5b6001600160a01b03808416600081815260016020908152604080832094871680845294825291829020859055815185815291517f8c5be1e5ebec7d5bd14f71427d1e84f3dd0314c0f7b2291e5b200ac8c7c3b9259281900390910190a3505050565b60006001600160801b038211156124c5576040805162461bcd60e51b815260206004820152601560248201527f4d61726b65743a2043617374206f766572666c6f770000000000000000000000604482015290519081900360640190fd5b5090565b6000876001600160801b0316866001600160801b031611156124ea57600080fd5b600061250785612502886001600160801b0316612feb565b613009565b90506000612522600160401b61251d8685613009565b613052565b9050600081600f0b1361253457600080fd5b6000612549868c6001600160801b0316613097565b9050600160801b811061255b57600080fd5b600061257b878b6001600160801b03168e6001600160801b031603613097565b9050600160801b811061258d57600080fd5b60006125b0886125a28487600160401b613110565b6001600160801b0316613097565b6125bf8d86600160401b613110565b6001600160801b03166125db8a6125a28789600160401b613110565b01039050600160801b81106125ef57600080fd5b60008c61260183600160401b88613110565b036001600160801b03169050600160801b811061261d57600080fd5b9d9c50505050505050505050505050565b6000610c7983836040518060400160405280601e81526020017f536166654d6174683a207375627472616374696f6e206f766572666c6f770000815250612975565b600082820183811015610c79576040805162461bcd60e51b815260206004820152601b60248201527f536166654d6174683a206164646974696f6e206f766572666c6f770000000000604482015290519081900360640190fd5b6126d2615751565b506040805160608082018352600a5463ffffffff80821684526401000000008083049091166020850152600160401b90910467ffffffffffffffff1683850152835191820190935290918190420663ffffffff16815260200184846b033b2e3c9fd0803ce8000000028161274257fe5b0463ffffffff1681526020016b033b2e3c9fd0803ce8000000836000015163ffffffff164203846020015163ffffffff16028161277b57fe5b60209485015167ffffffffffffffff63ffffffff918216939092049290920181169092528251600a805495850151604090950151909316600160401b027fffffffffffffffffffffffffffffffff0000000000000000ffffffffffffffff9483166401000000000267ffffffff00000000199290931663ffffffff19909616959095171617919091169190911790555050565b6001600160a01b0383166128535760405162461bcd60e51b81526004018080602001828103825260258152602001806158696025913960400191505060405180910390fd5b6001600160a01b0382166128985760405162461bcd60e51b81526004018080602001828103825260238152602001806157726023913960400191505060405180910390fd5b6128a38383836131bd565b6128e6816040518060600160405280602681526020016157d9602691396001600160a01b038616600090815260208190526040902054919063ffffffff61297516565b6001600160a01b03808516600090815260208190526040808220939093559084168152205461291b908263ffffffff61267016565b6001600160a01b038084166000818152602081815260409182902094909455805185815290519193928716927fddf252ad1be2c89b69c2b068fc378daa952ba7f163c4a11628f55a4df523b3ef92918290030190a3505050565b600081848411156129c75760405162461bcd60e51b815260206004820181815283516024840152835190928392604490910191908501908083836000831561078757818101518382015260200161076f565b505050900390565b6000826129de57506000610698565b828202828482816129eb57fe5b0414610c795760405162461bcd60e51b81526004018080602001828103825260218152602001806157ff6021913960400191505060405180910390fd5b6000610c7983836040518060400160405280601a81526020017f536166654d6174683a206469766973696f6e206279207a65726f0000000000008152506131c2565b6001600160a01b038216612aaf5760405162461bcd60e51b81526004018080602001828103825260218152602001806158486021913960400191505060405180910390fd5b612abb826000836131bd565b612afe81604051806060016040528060228152602001615795602291396001600160a01b038516600090815260208190526040902054919063ffffffff61297516565b6001600160a01b038316600090815260208190526040902055600254612b2a908263ffffffff61262e16565b6002556040805182815290516000916001600160a01b038516917fddf252ad1be2c89b69c2b068fc378daa952ba7f163c4a11628f55a4df523b3ef9181900360200190a35050565b600080612b8b85612502886001600160801b0316612feb565b90506000612ba1600160401b61251d8685613009565b9050600081600f0b13612bb357600080fd5b6000612bc8868c6001600160801b0316613097565b9050600160801b8110612bda57600080fd5b6000612bfa878b6001600160801b03168e6001600160801b031601613097565b9050600160801b8110612c0c57600080fd5b6000612c21886125a28487600160401b613110565b612c308d86600160401b613110565b6001600160801b0316612c4c8a6125a28789600160401b613110565b01039050600160801b8110612c6057600080fd5b6000612c7182600160401b87613110565b8d036001600160801b03169050600160801b811061261d57600080fd5b6001600160a01b038216612ce9576040805162461bcd60e51b815260206004820152601f60248201527f45524332303a206d696e7420746f20746865207a65726f206164647265737300604482015290519081900360640190fd5b612cf5600083836131bd565b600254612d08908263ffffffff61267016565b6002556001600160a01b038216600090815260208190526040902054612d34908263ffffffff61267016565b6001600160a01b0383166000818152602081815260408083209490945583518581529351929391927fddf252ad1be2c89b69c2b068fc378daa952ba7f163c4a11628f55a4df523b3ef9281900390910190a35050565b600080612da385612502886001600160801b0316612feb565b90506000612db9600160401b61251d8685613009565b9050600081600f0b13612dcb57600080fd5b6000612dd686613227565b90506000612ded878d6001600160801b0316613097565b9050600160801b8110612dff57600080fd5b6001600160801b038b8116908b1601600160801b8110612e1e57600080fd5b6000612e5184612e338f88600160401b613110565b612e428589600160401b613110565b036001600160801b0316613097565b612e608487600160401b613110565b6001600160801b0316039050600160801b8110612e7c57600080fd5b6000612e91856125a284600160401b8a613110565b8f6001600160801b0316039050600160801b8110612eae57600080fd5b9e9d5050505050505050505050505050565b6000866001600160801b0316866001600160801b03161115612ee157600080fd5b6000612f05600160401b61251d85612502896125028c6001600160801b0316612feb565b9050600081600f0b13612f1757600080fd5b6000612f2285613227565b90506000612f39868c6001600160801b0316613097565b9050600160801b8110612f4b57600080fd5b6001600160801b03808a16908b1603600160801b8110612f6a57600080fd5b6000612f8e84612f7f8488600160401b613110565b612e428f89600160401b613110565b612f9d8487600160401b613110565b6001600160801b0316019050600160801b8110612fb957600080fd5b60008d6001600160801b0316612fd8866125a285600160401b8b613110565b039050600160801b811061261d57600080fd5b6000677fffffffffffffff82111561300257600080fd5b5060401b90565b6000600f83810b9083900b0260401d6f7fffffffffffffffffffffffffffffff19811280159061304957506f7fffffffffffffffffffffffffffffff8113155b610c7957600080fd5b6000600f82810b9084900b036f7fffffffffffffffffffffffffffffff19811280159061304957506f7fffffffffffffffffffffffffffffff811315610c7957600080fd5b6000816130a657506000610698565b600083600f0b12156130b757600080fd5b600f83900b6001600160801b038316810260401c90608084901c0277ffffffffffffffffffffffffffffffffffffffffffffffff8111156130f757600080fd5b60401b811981111561310857600080fd5b019392505050565b60006001600160801b03821661312557600080fd5b6001600160801b03841661314e576001600160801b03831661314657600080fd5b506000610c79565b6000826001600160801b0316846001600160801b031661316d87613289565b6001600160801b03036001600160801b0316028161318757fe5b0490506001600160801b038111156131a3576000915050610c79565b6131b5816001600160801b0303614540565b915050610c79565b505050565b600081836132115760405162461bcd60e51b815260206004820181815283516024840152835190928392604490910191908501908083836000831561078757818101518382015260200161076f565b50600083858161321d57fe5b0495945050505050565b600081600f0b6000141561323a57600080fd5b600082600f0b600160801b8161324c57fe5b0590506f7fffffffffffffffffffffffffffffff19811280159061328057506f7fffffffffffffffffffffffffffffff8113155b61069857600080fd5b60006001600160801b03821661329e57600080fd5b6001600160801b0382166ffe000000000000000000000000000000600160401b8210156132e05760409190911b906f7fffffffffffffffffffffffffffffff19015b6c0100000000000000000000000082101561331f5760209190911b907fffffffffffffffffffffffffffffffffc0000000000000000000000000000000015b600160701b8210156133555760109190911b907fffffffffffffffffffffffffffffffffe0000000000000000000000000000000015b600160781b82101561338b5760089190911b907ffffffffffffffffffffffffffffffffff0000000000000000000000000000000015b6f100000000000000000000000000000008210156133cd5760049190911b907ffffffffffffffffffffffffffffffffff8000000000000000000000000000000015b6f4000000000000000000000000000000082101561340f5760029190911b907ffffffffffffffffffffffffffffffffffc000000000000000000000000000000015b6f800000000000000000000000000000008210156134515760019190911b907ffffffffffffffffffffffffffffffffffe000000000000000000000000000000015b908002607f1c90600160801b82106134715760019190911c90600160781b175b908002607f1c90600160801b821061349c5760019190911c906e800000000000000000000000000000175b908002607f1c90600160801b82106134c75760019190911c906e400000000000000000000000000000175b908002607f1c90600160801b82106134f25760019190911c906e200000000000000000000000000000175b908002607f1c90600160801b821061351d5760019190911c906e100000000000000000000000000000175b908002607f1c90600160801b82106135485760019190911c906e080000000000000000000000000000175b908002607f1c90600160801b82106135735760019190911c906e040000000000000000000000000000175b908002607f1c90600160801b821061359e5760019190911c906e020000000000000000000000000000175b908002607f1c90600160801b82106135be5760019190911c90600160701b175b908002607f1c90600160801b82106135e85760019190911c906d8000000000000000000000000000175b908002607f1c90600160801b82106136125760019190911c906d4000000000000000000000000000175b908002607f1c90600160801b821061363c5760019190911c906d2000000000000000000000000000175b908002607f1c90600160801b82106136665760019190911c906d1000000000000000000000000000175b908002607f1c90600160801b82106136905760019190911c906d0800000000000000000000000000175b908002607f1c90600160801b82106136ba5760019190911c906d0400000000000000000000000000175b908002607f1c90600160801b82106136e45760019190911c906d0200000000000000000000000000175b908002607f1c90600160801b821061370e5760019190911c906d0100000000000000000000000000175b908002607f1c90600160801b82106137375760019190911c906c80000000000000000000000000175b908002607f1c90600160801b82106137605760019190911c906c40000000000000000000000000175b908002607f1c90600160801b82106137895760019190911c906c20000000000000000000000000175b908002607f1c90600160801b82106137b25760019190911c906c10000000000000000000000000175b908002607f1c90600160801b82106137db5760019190911c906c08000000000000000000000000175b908002607f1c90600160801b82106138045760019190911c906c04000000000000000000000000175b908002607f1c90600160801b821061382d5760019190911c906c02000000000000000000000000175b908002607f1c90600160801b82106138565760019190911c906c01000000000000000000000000175b908002607f1c90600160801b821061387e5760019190911c906b800000000000000000000000175b908002607f1c90600160801b82106138a65760019190911c906b400000000000000000000000175b908002607f1c90600160801b82106138ce5760019190911c906b200000000000000000000000175b908002607f1c90600160801b82106138f65760019190911c906b100000000000000000000000175b908002607f1c90600160801b821061391e5760019190911c906b080000000000000000000000175b908002607f1c90600160801b82106139465760019190911c906b040000000000000000000000175b908002607f1c90600160801b821061396e5760019190911c906b020000000000000000000000175b908002607f1c90600160801b82106139965760019190911c906b010000000000000000000000175b908002607f1c90600160801b82106139bd5760019190911c906a8000000000000000000000175b908002607f1c90600160801b82106139e45760019190911c906a4000000000000000000000175b908002607f1c90600160801b8210613a0b5760019190911c906a2000000000000000000000175b908002607f1c90600160801b8210613a325760019190911c906a1000000000000000000000175b908002607f1c90600160801b8210613a595760019190911c906a0800000000000000000000175b908002607f1c90600160801b8210613a805760019190911c906a0400000000000000000000175b908002607f1c90600160801b8210613aa75760019190911c906a0200000000000000000000175b908002607f1c90600160801b8210613ace5760019190911c906a0100000000000000000000175b908002607f1c90600160801b8210613af45760019190911c906980000000000000000000175b908002607f1c90600160801b8210613b1a5760019190911c906940000000000000000000175b908002607f1c90600160801b8210613b405760019190911c906920000000000000000000175b908002607f1c90600160801b8210613b665760019190911c906910000000000000000000175b908002607f1c90600160801b8210613b8c5760019190911c906908000000000000000000175b908002607f1c90600160801b8210613bb25760019190911c906904000000000000000000175b908002607f1c90600160801b8210613bd85760019190911c906902000000000000000000175b908002607f1c90600160801b8210613bfe5760019190911c906901000000000000000000175b908002607f1c90600160801b8210613c235760019190911c9068800000000000000000175b908002607f1c90600160801b8210613c485760019190911c9068400000000000000000175b908002607f1c90600160801b8210613c6d5760019190911c9068200000000000000000175b908002607f1c90600160801b8210613c925760019190911c9068100000000000000000175b908002607f1c90600160801b8210613cb75760019190911c9068080000000000000000175b908002607f1c90600160801b8210613cdc5760019190911c9068040000000000000000175b908002607f1c90600160801b8210613d015760019190911c9068020000000000000000175b908002607f1c90600160801b8210613d215760019190911c90600160401b175b908002607f1c90600160801b8210613d455760019190911c90678000000000000000175b908002607f1c90600160801b8210613d695760019190911c90674000000000000000175b908002607f1c90600160801b8210613d8d5760019190911c90672000000000000000175b908002607f1c90600160801b8210613db15760019190911c90671000000000000000175b908002607f1c90600160801b8210613dd55760019190911c90670800000000000000175b908002607f1c90600160801b8210613df95760019190911c90670400000000000000175b908002607f1c90600160801b8210613e1d5760019190911c90670200000000000000175b908002607f1c90600160801b8210613e415760019190911c90670100000000000000175b908002607f1c90600160801b8210613e645760019190911c906680000000000000175b908002607f1c90600160801b8210613e875760019190911c906640000000000000175b908002607f1c90600160801b8210613eaa5760019190911c906620000000000000175b908002607f1c90600160801b8210613ecd5760019190911c906610000000000000175b908002607f1c90600160801b8210613ef05760019190911c906608000000000000175b908002607f1c90600160801b8210613f135760019190911c906604000000000000175b908002607f1c90600160801b8210613f365760019190911c906602000000000000175b908002607f1c90600160801b8210613f595760019190911c906601000000000000175b908002607f1c90600160801b8210613f7b5760019190911c9065800000000000175b908002607f1c90600160801b8210613f9d5760019190911c9065400000000000175b908002607f1c90600160801b8210613fbf5760019190911c9065200000000000175b908002607f1c90600160801b8210613fe15760019190911c9065100000000000175b908002607f1c90600160801b82106140035760019190911c9065080000000000175b908002607f1c90600160801b82106140255760019190911c9065040000000000175b908002607f1c90600160801b82106140475760019190911c9065020000000000175b908002607f1c90600160801b82106140695760019190911c9065010000000000175b908002607f1c90600160801b821061408a5760019190911c90648000000000175b908002607f1c90600160801b82106140ab5760019190911c90644000000000175b908002607f1c90600160801b82106140cc5760019190911c90642000000000175b908002607f1c90600160801b82106140ed5760019190911c90641000000000175b908002607f1c90600160801b821061410e5760019190911c90640800000000175b908002607f1c90600160801b821061412f5760019190911c90640400000000175b908002607f1c90600160801b82106141505760019190911c90640200000000175b908002607f1c90600160801b82106141715760019190911c90640100000000175b908002607f1c90600160801b82106141915760019190911c906380000000175b908002607f1c90600160801b82106141b15760019190911c906340000000175b908002607f1c90600160801b82106141d15760019190911c906320000000175b908002607f1c90600160801b82106141f15760019190911c906310000000175b908002607f1c90600160801b82106142115760019190911c906308000000175b908002607f1c90600160801b82106142315760019190911c906304000000175b908002607f1c90600160801b82106142515760019190911c906302000000175b908002607f1c90600160801b82106142715760019190911c906301000000175b908002607f1c90600160801b82106142905760019190911c9062800000175b908002607f1c90600160801b82106142af5760019190911c9062400000175b908002607f1c90600160801b82106142ce5760019190911c9062200000175b908002607f1c90600160801b82106142ed5760019190911c9062100000175b908002607f1c90600160801b821061430c5760019190911c9062080000175b908002607f1c90600160801b821061432b5760019190911c9062040000175b908002607f1c90600160801b821061434a5760019190911c9062020000175b908002607f1c90600160801b82106143695760019190911c9062010000175b908002607f1c90600160801b82106143875760019190911c90618000175b908002607f1c90600160801b82106143a55760019190911c90614000175b908002607f1c90600160801b82106143c35760019190911c90612000175b908002607f1c90600160801b82106143e15760019190911c90611000175b908002607f1c90600160801b82106143ff5760019190911c90610800175b908002607f1c90600160801b821061441d5760019190911c90610400175b908002607f1c90600160801b821061443b5760019190911c90610200175b908002607f1c90600160801b82106144595760019190911c90610100175b908002607f1c90600160801b82106144765760019190911c906080175b908002607f1c90600160801b82106144935760019190911c906040175b908002607f1c90600160801b82106144b05760019190911c906020175b908002607f1c90600160801b82106144cd5760019190911c906010175b908002607f1c90600160801b82106144ea5760019190911c906008175b908002607f1c90600160801b82106145075760019190911c906004175b908002607f1c90600160801b82106145245760019190911c906002175b908002607f1c90600160801b8210610c79576001179392505050565b60006f80000000000000000000000000000000600160781b831615614575576fb504f333f9de6484597d89b3754abe9f02607f1c5b6e8000000000000000000000000000008316156145a2576f9837f0518db8a96f46ad23182e42f6f602607f1c5b6e4000000000000000000000000000008316156145cf576f8b95c1e3ea8bd6e6fbe4628758a53c9002607f1c5b6e2000000000000000000000000000008316156145fc576f85aac367cc487b14c5c95b8c2154c1b202607f1c5b6e100000000000000000000000000000831615614629576f82cd8698ac2ba1d73e2a475b46520bff02607f1c5b6e080000000000000000000000000000831615614656576f8164d1f3bc0307737be56527bd14def402607f1c5b6e040000000000000000000000000000831615614683576f80b1ed4fd999ab6c25335719b6e6fd2002607f1c5b6e0200000000000000000000000000008316156146b0576f8058d7d2d5e5f6b094d589f608ee4aa202607f1c5b600160701b8316156146d2576f802c6436d0e04f50ff8ce94a6797b3ce02607f1c5b6d80000000000000000000000000008316156146fe576f8016302f174676283690dfe44d11d00802607f1c5b6d400000000000000000000000000083161561472a576f800b179c82028fd0945e54e2ae18f2f002607f1c5b6d2000000000000000000000000000831615614756576f80058baf7fee3b5d1c718b38e549cb9302607f1c5b6d1000000000000000000000000000831615614782576f8002c5d00fdcfcb6b6566a58c048be1f02607f1c5b6d08000000000000000000000000008316156147ae576f800162e61bed4a48e84c2e1a463473d902607f1c5b6d04000000000000000000000000008316156147da576f8000b17292f702a3aa22beacca94901302607f1c5b6d0200000000000000000000000000831615614806576f800058b92abbae02030c5fa5256f41fe02607f1c5b6d0100000000000000000000000000831615614832576f80002c5c8dade4d71776c0f4dbea67d602607f1c5b6c8000000000000000000000000083161561485d576f8000162e44eaf636526be456600bdbe402607f1c5b6c40000000000000000000000000831615614888576f80000b1721fa7c188307016c1cd4e8b602607f1c5b6c200000000000000000000000008316156148b3576f8000058b90de7e4cecfc487503488bb102607f1c5b6c100000000000000000000000008316156148de576f800002c5c8678f36cbfce50a6de60b1402607f1c5b6c08000000000000000000000000831615614909576f80000162e431db9f80b2347b5d62e51602607f1c5b6c04000000000000000000000000831615614934576f800000b1721872d0c7b08cf1e011415202607f1c5b6c0200000000000000000000000083161561495f576f80000058b90c1aa8a5c3736cb77e8dff02607f1c5b6c0100000000000000000000000083161561498a576f8000002c5c8605a4635f2efc2362d97802607f1c5b6b8000000000000000000000008316156149b4576f800000162e4300e635cf4a109e3939bd02607f1c5b6b4000000000000000000000008316156149de576f8000000b17217ff81bef9c551590cf8302607f1c5b6b200000000000000000000000831615614a08576f800000058b90bfdd4e39cd52c0cfa27c02607f1c5b6b100000000000000000000000831615614a32576f80000002c5c85fe6f72d669e0e76e41102607f1c5b6b080000000000000000000000831615614a5c576f8000000162e42ff18f9ad35186d0df2802607f1c5b6b040000000000000000000000831615614a86576f80000000b17217f84cce71aa0dcfffe702607f1c5b6b020000000000000000000000831615614ab0576f8000000058b90bfc07a77ad56ed22aaa02607f1c5b6b010000000000000000000000831615614ada576f800000002c5c85fdfc23cdead40da8d602607f1c5b6a8000000000000000000000831615614b03576f80000000162e42fefc25eb1571853a6602607f1c5b6a4000000000000000000000831615614b2c576f800000000b17217f7d97f692baacded502607f1c5b6a2000000000000000000000831615614b55576f80000000058b90bfbead3b8b5dd254d702607f1c5b6a1000000000000000000000831615614b7e576f8000000002c5c85fdf4eedd62f084e6702607f1c5b6a0800000000000000000000831615614ba7576f800000000162e42fefa58aef378bf58602607f1c5b6a0400000000000000000000831615614bd0576f8000000000b17217f7d24a78a3c7ef0202607f1c5b6a0200000000000000000000831615614bf9576f800000000058b90bfbe9067c93e474a602607f1c5b6a0100000000000000000000831615614c22576f80000000002c5c85fdf47b8e5a72599f02607f1c5b6980000000000000000000831615614c4a576f8000000000162e42fefa3bdb315934a202607f1c5b6940000000000000000000831615614c72576f80000000000b17217f7d1d7299b49c4602607f1c5b6920000000000000000000831615614c9a576f8000000000058b90bfbe8e9a8d1c4ea002607f1c5b6910000000000000000000831615614cc2576f800000000002c5c85fdf4745969ea76f02607f1c5b6908000000000000000000831615614cea576f80000000000162e42fefa3a0df5373bf02607f1c5b6904000000000000000000831615614d12576f800000000000b17217f7d1cff4aac1e102607f1c5b6902000000000000000000831615614d3a576f80000000000058b90bfbe8e7db95a2f102607f1c5b6901000000000000000000831615614d62576f8000000000002c5c85fdf473e61ae1f802607f1c5b68800000000000000000831615614d89576f800000000000162e42fefa39f121751c02607f1c5b68400000000000000000831615614db0576f8000000000000b17217f7d1cf815bb9602607f1c5b68200000000000000000831615614dd7576f800000000000058b90bfbe8e7bec1e0d02607f1c5b68100000000000000000831615614dfe576f80000000000002c5c85fdf473dee5f1702607f1c5b68080000000000000000831615614e25576f8000000000000162e42fefa39ef5438f02607f1c5b68040000000000000000831615614e4c576f80000000000000b17217f7d1cf7a26c802607f1c5b68020000000000000000831615614e73576f8000000000000058b90bfbe8e7bcf4a402607f1c5b600160401b831615614e95576f800000000000002c5c85fdf473de72a202607f1c5b678000000000000000831615614ebb576f80000000000000162e42fefa39ef376502607f1c5b674000000000000000831615614ee1576f800000000000000b17217f7d1cf79b3702607f1c5b672000000000000000831615614f07576f80000000000000058b90bfbe8e7bcd7d02607f1c5b671000000000000000831615614f2d576f8000000000000002c5c85fdf473de6b602607f1c5b670800000000000000831615614f53576f800000000000000162e42fefa39ef35902607f1c5b670400000000000000831615614f79576f8000000000000000b17217f7d1cf79ac02607f1c5b670200000000000000831615614f9f576f800000000000000058b90bfbe8e7bcd602607f1c5b670100000000000000831615614fc5576f80000000000000002c5c85fdf473de6a02607f1c5b6680000000000000831615614fea576f8000000000000000162e42fefa39ef3502607f1c5b664000000000000083161561500f576f80000000000000000b17217f7d1cf79a02607f1c5b6620000000000000831615615034576f8000000000000000058b90bfbe8e7bcd02607f1c5b6610000000000000831615615059576f800000000000000002c5c85fdf473de602607f1c5b660800000000000083161561507e576f80000000000000000162e42fefa39ef302607f1c5b66040000000000008316156150a3576f800000000000000000b17217f7d1cf7902607f1c5b66020000000000008316156150c8576f80000000000000000058b90bfbe8e7bc02607f1c5b66010000000000008316156150ed576f8000000000000000002c5c85fdf473de02607f1c5b65800000000000831615615111576f800000000000000000162e42fefa39ef02607f1c5b65400000000000831615615135576f8000000000000000000b17217f7d1cf702607f1c5b65200000000000831615615159576f800000000000000000058b90bfbe8e7b02607f1c5b6510000000000083161561517d576f80000000000000000002c5c85fdf473d02607f1c5b650800000000008316156151a1576f8000000000000000000162e42fefa39e02607f1c5b650400000000008316156151c5576f80000000000000000000b17217f7d1cf02607f1c5b650200000000008316156151e9576f8000000000000000000058b90bfbe8e702607f1c5b6501000000000083161561520d576f800000000000000000002c5c85fdf47302607f1c5b648000000000831615615230576f80000000000000000000162e42fefa3902607f1c5b644000000000831615615253576f800000000000000000000b17217f7d1c02607f1c5b642000000000831615615276576f80000000000000000000058b90bfbe8e02607f1c5b641000000000831615615299576f8000000000000000000002c5c85fdf4702607f1c5b6408000000008316156152bc576f800000000000000000000162e42fefa302607f1c5b6404000000008316156152df576f8000000000000000000000b17217f7d102607f1c5b640200000000831615615302576f800000000000000000000058b90bfbe802607f1c5b640100000000831615615325576f80000000000000000000002c5c85fdf402607f1c5b6380000000831615615347576f8000000000000000000000162e42fefa02607f1c5b6340000000831615615369576f80000000000000000000000b17217f7d02607f1c5b632000000083161561538b576f8000000000000000000000058b90bfbe02607f1c5b63100000008316156153ad576f800000000000000000000002c5c85fdf02607f1c5b63080000008316156153cf576f80000000000000000000000162e42fef02607f1c5b63040000008316156153f1576f800000000000000000000000b17217f702607f1c5b6302000000831615615413576f80000000000000000000000058b90bfb02607f1c5b6301000000831615615435576f8000000000000000000000002c5c85fd02607f1c5b62800000831615615456576f800000000000000000000000162e42fe02607f1c5b62400000831615615477576f8000000000000000000000000b17217f02607f1c5b62200000831615615498576f800000000000000000000000058b90bf02607f1c5b621000008316156154b9576f80000000000000000000000002c5c85f02607f1c5b620800008316156154da576f8000000000000000000000000162e42f02607f1c5b620400008316156154fb576f80000000000000000000000000b1721702607f1c5b6202000083161561551c576f8000000000000000000000000058b90b02607f1c5b6201000083161561553d576f800000000000000000000000002c5c8502607f1c5b61800083161561555d576f80000000000000000000000000162e4202607f1c5b61400083161561557d576f800000000000000000000000000b172102607f1c5b61200083161561559d576f80000000000000000000000000058b9002607f1c5b6110008316156155bd576f8000000000000000000000000002c5c802607f1c5b6108008316156155dd576f800000000000000000000000000162e402607f1c5b6104008316156155fd576f8000000000000000000000000000b17202607f1c5b61020083161561561d576f800000000000000000000000000058b902607f1c5b61010083161561563d576f80000000000000000000000000002c5c02607f1c5b608083161561565c576f8000000000000000000000000000162e02607f1c5b604083161561567b576f80000000000000000000000000000b1702607f1c5b602083161561569a576f8000000000000000000000000000058b02607f1c5b60108316156156b9576f800000000000000000000000000002c502607f1c5b60088316156156d8576f8000000000000000000000000000016202607f1c5b60048316156156f7576f800000000000000000000000000000b102607f1c5b6002831615615716576f8000000000000000000000000000005802607f1c5b6001831615615735576f8000000000000000000000000000002c02607f1c5b607f607984901c811690036001600160801b03161c9050919050565b60408051606081018252600080825260208201819052918101919091529056fe45524332303a207472616e7366657220746f20746865207a65726f206164647265737345524332303a206275726e20616d6f756e7420657863656564732062616c616e636545524332303a20617070726f766520746f20746865207a65726f206164647265737345524332303a207472616e7366657220616d6f756e7420657863656564732062616c616e6365536166654d6174683a206d756c7469706c69636174696f6e206f766572666c6f7745524332303a207472616e7366657220616d6f756e74206578636565647320616c6c6f77616e636545524332303a206275726e2066726f6d20746865207a65726f206164647265737345524332303a207472616e736665722066726f6d20746865207a65726f206164647265737345524332303a20617070726f76652066726f6d20746865207a65726f206164647265737345524332303a2064656372656173656420616c6c6f77616e63652062656c6f77207a65726fa2646970667358221220f1f872d06b936357ec8485ed976cbfba518db6288a0a1994c1dcf8ea5eabfd4364736f6c634300060a0033",
  "source": "pragma solidity ^0.6.10;\n\nimport \"@openzeppelin/contracts/token/ERC20/ERC20.sol\";\nimport \"@openzeppelin/contracts/token/ERC20/IERC20.sol\";\nimport \"../helpers/Delegable.sol\";\nimport \"../helpers/YieldMath.sol\";\nimport \"../interfaces/IPot.sol\";\nimport \"../interfaces/IYDai.sol\";\nimport \"../interfaces/IMarket.sol\";\nimport \"@nomiclabs/buidler/console.sol\";\n\n\n/// @dev The Market contract exchanges Dai for yDai at a price defined by a specific formula.\ncontract Market is IMarket, ERC20, Delegable {\n\n    struct State {\n        uint32 timestamp;    // last time contract was updated. wraps around after 2^32\n        uint32 prevRate;     // UQ16x16 interest rate last time the contract was updated\n        uint64 accumulator;  // interest rate oracle accumulator32 bits for a UQ16x16, 32 bits for overflow\n    }\n\n    int128 constant public k = int128(uint256((1 << 64)) / 126144000); // 1 / Seconds in 4 years, in 64.64\n    int128 constant public g = int128(uint256((999 << 64)) / 1000); // All constants are `ufixed`, to divide them they must be converted to uint256\n    uint256 constant public initialSupply = 1000;\n    uint128 immutable public maturity;\n\n    IPot internal _pot;\n    IERC20 public chai;\n    IYDai public yDai;\n\n    State internal state;\n\n    // TODO: Choose liquidity token name\n    constructor(address pot_, address chai_, address yDai_) public ERC20(\"Name\", \"Symbol\") Delegable() {\n        _pot = IPot(pot_);\n        chai = IERC20(chai_);\n        yDai = IYDai(yDai_);\n\n        maturity = toUint128(yDai.maturity());\n    }\n\n    /// @dev Safe casting from uint256 to uint128\n    function toUint128(uint256 x) internal pure returns(uint128) {\n        require(\n            x <= 340282366920938463463374607431768211455,\n            \"Market: Cast overflow\"\n        );\n        return uint128(x);\n    }\n\n    /// @dev Mint initial liquidity tokens\n    function init(uint256 chaiIn, uint256 yDaiIn) external {\n        require(\n            totalSupply() == 0,\n            \"Market: Already initialized\"\n        );\n\n        chai.transferFrom(msg.sender, address(this), chaiIn);\n        yDai.transferFrom(msg.sender, address(this), yDaiIn);\n        _mint(msg.sender, initialSupply);\n\n        _updateState(chaiIn, yDaiIn);\n    }\n\n    /// @dev Mint liquidity tokens in exchange for adding chai and yDai\n    /// The parameter passed is the amount of `chai` being invested, an appropriate amount of `yDai` to be invested alongside will be calculated and taken by this function from the caller.\n    function mint(uint256 chaiOffered) external {\n        uint256 supply = totalSupply();\n        uint256 chaiReserves = chai.balanceOf(address(this));\n        uint256 yDaiReserves = yDai.balanceOf(address(this));\n        uint256 tokensMinted = supply.mul(chaiOffered).div(chaiReserves);\n        uint256 yDaiRequired = yDaiReserves.mul(tokensMinted).div(supply);\n\n        chai.transferFrom(msg.sender, address(this), chaiOffered);\n        yDai.transferFrom(msg.sender, address(this), yDaiRequired);\n        _mint(msg.sender, tokensMinted);\n\n        _updateState(chaiReserves.add(chaiOffered), yDaiReserves.add(yDaiRequired));\n    }\n\n    /// @dev Burn liquidity tokens in exchange for chai and yDai\n    function burn(uint256 tokensBurned) external {\n        uint256 supply = totalSupply();\n        uint256 chaiReserves = chai.balanceOf(address(this));\n        uint256 yDaiReserves = yDai.balanceOf(address(this));\n        uint256 chaiReturned = tokensBurned.mul(chaiReserves).div(supply);\n        uint256 yDaiReturned = tokensBurned.mul(yDaiReserves).div(supply);\n\n        _burn(msg.sender, tokensBurned);\n        chai.transfer(msg.sender, chaiReturned);\n        yDai.transfer(msg.sender, yDaiReturned);\n\n        _updateState(chaiReserves.sub(chaiReturned), yDaiReserves.sub(yDaiReturned));\n    }\n\n    /// @dev Sell Chai for yDai\n    /// @param from Wallet providing the chai being sold. Must have approved the operator with `market.addDelegate(operator)`.\n    /// @param to Wallet receiving the yDai being bought\n    /// @param chaiIn Amount of chai being sold that will be taken from the user's wallet\n    function sellChai(address from, address to, uint128 chaiIn)\n        external override\n        onlyHolderOrDelegate(from, \"Market: Only Holder Or Delegate\")\n    {\n        int128 c = int128((((now > _pot.rho()) ? _pot.drip() : _pot.chi()) << 64) / 10**27); // Chi can't be higher than 2**64\n        uint128 chaiReserves = toUint128(chai.balanceOf(address(this)));\n        uint128 yDaiReserves = toUint128(yDai.balanceOf(address(this)));\n        uint256 yDaiOut = YieldMath.yDaiOutForChaiIn(\n            chaiReserves, yDaiReserves,\n            chaiIn,\n            toUint128(maturity - now), k, c, g\n        );\n\n        chai.transferFrom(from, address(this), chaiIn);\n        yDai.transfer(to, yDaiOut);\n\n        _updateState(uint256(chaiReserves).add(chaiIn), uint256(yDaiReserves).sub(yDaiOut));\n    }\n\n    /// @dev Buy Chai for yDai\n    /// @param from Wallet providing the yDai being sold. Must have approved the operator with `market.addDelegate(operator)`.\n    /// @param to Wallet receiving the chai being bought\n    /// @param chaiOut Amount of chai being bought that will be deposited in `to` wallet\n    function buyChai(address from, address to, uint128 chaiOut)\n        external override\n        onlyHolderOrDelegate(from, \"Market: Only Holder Or Delegate\")\n    {\n        int128 c = int128((((now > _pot.rho()) ? _pot.drip() : _pot.chi()) << 64) / 10**27);\n        uint128 chaiReserves = toUint128(chai.balanceOf(address(this)));\n        uint128 yDaiReserves = toUint128(yDai.balanceOf(address(this)));\n        uint256 yDaiIn = YieldMath.yDaiInForChaiOut(\n            chaiReserves, yDaiReserves,\n            chaiOut,\n            toUint128(maturity - now), k, c, g\n        );\n\n        yDai.transferFrom(from, address(this), yDaiIn);\n        chai.transfer(to, chaiOut);\n\n        _updateState(uint256(chaiReserves).sub(chaiOut), uint256(yDaiReserves).add(yDaiIn));\n    }\n\n    /// @dev Sell yDai for Chai\n    /// @param from Wallet providing the yDai being sold. Must have approved the operator with `market.addDelegate(operator)`.\n    /// @param to Wallet receiving the chai being bought\n    /// @param yDaiIn Amount of yDai being sold that will be taken from the user's wallet\n    function sellYDai(address from, address to, uint128 yDaiIn)\n        external override\n        onlyHolderOrDelegate(from, \"Market: Only Holder Or Delegate\")\n    {\n        int128 c = int128((((now > _pot.rho()) ? _pot.drip() : _pot.chi()) << 64) / 10**27);\n        uint128 chaiReserves = toUint128(chai.balanceOf(address(this)));\n        uint128 yDaiReserves = toUint128(yDai.balanceOf(address(this)));\n        uint256 chaiOut = YieldMath.chaiOutForYDaiIn(\n            chaiReserves, yDaiReserves,\n            yDaiIn,\n            toUint128(maturity - now), k, c, g\n        );\n\n        yDai.transferFrom(from, address(this), yDaiIn);\n        chai.transfer(to, chaiOut);\n\n        _updateState(uint256(chaiReserves).sub(chaiOut), uint256(yDaiReserves).add(yDaiIn));\n    }\n\n    /// @dev Buy yDai for chai\n    /// @param from Wallet providing the chai being sold. Must have approved the operator with `market.addDelegate(operator)`.\n    /// @param to Wallet receiving the yDai being bought\n    /// @param yDaiOut Amount of yDai being bought that will be deposited in `to` wallet\n    function buyYDai(address from, address to, uint128 yDaiOut)\n        external override\n        onlyHolderOrDelegate(from, \"Market: Only Holder Or Delegate\")\n    {\n        int128 c = int128((((now > _pot.rho()) ? _pot.drip() : _pot.chi()) << 64) / 10**27);\n        uint128 chaiReserves = toUint128(chai.balanceOf(address(this)));\n        uint128 yDaiReserves = toUint128(yDai.balanceOf(address(this)));\n        uint256 chaiIn = YieldMath.chaiInForYDaiOut(\n            chaiReserves, yDaiReserves,\n            yDaiOut,\n            toUint128(maturity - now), k, c, g\n        );\n\n        chai.transferFrom(from, address(this), chaiIn);\n        yDai.transfer(to, yDaiOut);\n\n        _updateState(uint256(chaiReserves).add(chaiIn), uint256(yDaiReserves).sub(yDaiOut));\n    }\n\n    /// @dev Maintain the price oracle\n    function _updateState(uint256 x0, uint256 y0) internal {\n        State memory prevState = state;\n        state = State({\n            timestamp: uint32(block.timestamp % 2**32),\n            accumulator: uint64(prevState.prevRate + (prevState.prevRate * (block.timestamp - prevState.timestamp)) / 10**27),\n            prevRate: uint32(y0 * 10**27 / x0)\n        });\n    }\n}",
  "sourcePath": "/Users/bruce/dev/yieldprotocol/ytoken-mvp/contracts/peripheral/Market.sol",
  "compiler": {
    "name": "solc",
    "version": "0.6.10+commit.00c0fcaf.Emscripten.clang"
  },
  "schemaVersion": "3.0.23",
  "updatedAt": "2020-07-10T08:45:14.663Z",
  "networkType": "ethereum",
  "devdoc": {
    "details": "The Market contract exchanges Dai for yDai at a price defined by a specific formula.",
    "methods": {
      "addDelegate(address)": {
        "details": "Enable a delegate to act on the behalf of caller"
      },
      "allowance(address,address)": {
        "details": "See {IERC20-allowance}."
      },
      "approve(address,uint256)": {
        "details": "See {IERC20-approve}. Requirements: - `spender` cannot be the zero address."
      },
      "balanceOf(address)": {
        "details": "See {IERC20-balanceOf}."
      },
      "burn(uint256)": {
        "details": "Burn liquidity tokens in exchange for chai and yDai"
      },
      "buyChai(address,address,uint128)": {
        "details": "Buy Chai for yDai",
        "params": {
          "chaiOut": "Amount of chai being bought that will be deposited in `to` wallet",
          "from": "Wallet providing the yDai being sold. Must have approved the operator with `market.addDelegate(operator)`.",
          "to": "Wallet receiving the chai being bought"
        }
      },
      "buyYDai(address,address,uint128)": {
        "details": "Buy yDai for chai",
        "params": {
          "from": "Wallet providing the chai being sold. Must have approved the operator with `market.addDelegate(operator)`.",
          "to": "Wallet receiving the yDai being bought",
          "yDaiOut": "Amount of yDai being bought that will be deposited in `to` wallet"
        }
      },
      "decimals()": {
        "details": "Returns the number of decimals used to get its user representation. For example, if `decimals` equals `2`, a balance of `505` tokens should be displayed to a user as `5,05` (`505 / 10 ** 2`). Tokens usually opt for a value of 18, imitating the relationship between Ether and Wei. This is the value {ERC20} uses, unless {_setupDecimals} is called. NOTE: This information is only used for _display_ purposes: it in no way affects any of the arithmetic of the contract, including {IERC20-balanceOf} and {IERC20-transfer}."
      },
      "decreaseAllowance(address,uint256)": {
        "details": "Atomically decreases the allowance granted to `spender` by the caller. This is an alternative to {approve} that can be used as a mitigation for problems described in {IERC20-approve}. Emits an {Approval} event indicating the updated allowance. Requirements: - `spender` cannot be the zero address. - `spender` must have allowance for the caller of at least `subtractedValue`."
      },
      "increaseAllowance(address,uint256)": {
        "details": "Atomically increases the allowance granted to `spender` by the caller. This is an alternative to {approve} that can be used as a mitigation for problems described in {IERC20-approve}. Emits an {Approval} event indicating the updated allowance. Requirements: - `spender` cannot be the zero address."
      },
      "init(uint256,uint256)": {
        "details": "Mint initial liquidity tokens"
      },
      "mint(uint256)": {
        "details": "Mint liquidity tokens in exchange for adding chai and yDai The parameter passed is the amount of `chai` being invested, an appropriate amount of `yDai` to be invested alongside will be calculated and taken by this function from the caller."
      },
      "name()": {
        "details": "Returns the name of the token."
      },
      "revokeDelegate(address)": {
        "details": "Stop a delegate from acting on the behalf of caller"
      },
      "sellChai(address,address,uint128)": {
        "details": "Sell Chai for yDai",
        "params": {
          "chaiIn": "Amount of chai being sold that will be taken from the user's wallet",
          "from": "Wallet providing the chai being sold. Must have approved the operator with `market.addDelegate(operator)`.",
          "to": "Wallet receiving the yDai being bought"
        }
      },
      "sellYDai(address,address,uint128)": {
        "details": "Sell yDai for Chai",
        "params": {
          "from": "Wallet providing the yDai being sold. Must have approved the operator with `market.addDelegate(operator)`.",
          "to": "Wallet receiving the chai being bought",
          "yDaiIn": "Amount of yDai being sold that will be taken from the user's wallet"
        }
      },
      "symbol()": {
        "details": "Returns the symbol of the token, usually a shorter version of the name."
      },
      "totalSupply()": {
        "details": "See {IERC20-totalSupply}."
      },
      "transfer(address,uint256)": {
        "details": "See {IERC20-transfer}. Requirements: - `recipient` cannot be the zero address. - the caller must have a balance of at least `amount`."
      },
      "transferFrom(address,address,uint256)": {
        "details": "See {IERC20-transferFrom}. Emits an {Approval} event indicating the updated allowance. This is not required by the EIP. See the note at the beginning of {ERC20}; Requirements: - `sender` and `recipient` cannot be the zero address. - `sender` must have a balance of at least `amount`. - the caller must have allowance for ``sender``'s tokens of at least `amount`."
      }
    }
  },
  "userdoc": {
    "methods": {}
  }
}