{
  "contractName": "Migrations",
  "abi": [
    {
      "anonymous": false,
      "inputs": [
        {
          "indexed": true,
          "internalType": "address",
          "name": "previousOwner",
          "type": "address"
        },
        {
          "indexed": true,
          "internalType": "address",
          "name": "newOwner",
          "type": "address"
        }
      ],
      "name": "OwnershipTransferred",
      "type": "event"
    },
    {
      "inputs": [
        {
          "internalType": "bytes32",
          "name": "",
          "type": "bytes32"
        }
      ],
      "name": "contracts",
      "outputs": [
        {
          "internalType": "address",
          "name": "",
          "type": "address"
        }
      ],
      "stateMutability": "view",
      "type": "function",
      "constant": true
    },
    {
      "inputs": [],
      "name": "lastCompletedMigration",
      "outputs": [
        {
          "internalType": "uint256",
          "name": "",
          "type": "uint256"
        }
      ],
      "stateMutability": "view",
      "type": "function",
      "constant": true
    },
    {
      "inputs": [
        {
          "internalType": "uint256",
          "name": "",
          "type": "uint256"
        }
      ],
      "name": "names",
      "outputs": [
        {
          "internalType": "bytes32",
          "name": "",
          "type": "bytes32"
        }
      ],
      "stateMutability": "view",
      "type": "function",
      "constant": true
    },
    {
      "inputs": [],
      "name": "owner",
      "outputs": [
        {
          "internalType": "address",
          "name": "",
          "type": "address"
        }
      ],
      "stateMutability": "view",
      "type": "function",
      "constant": true
    },
    {
      "inputs": [],
      "name": "renounceOwnership",
      "outputs": [],
      "stateMutability": "nonpayable",
      "type": "function"
    },
    {
      "inputs": [
        {
          "internalType": "address",
          "name": "newOwner",
          "type": "address"
        }
      ],
      "name": "transferOwnership",
      "outputs": [],
      "stateMutability": "nonpayable",
      "type": "function"
    },
    {
      "inputs": [],
      "name": "length",
      "outputs": [
        {
          "internalType": "uint256",
          "name": "",
          "type": "uint256"
        }
      ],
      "stateMutability": "view",
      "type": "function",
      "constant": true
    },
    {
      "inputs": [
        {
          "internalType": "bytes32",
          "name": "name",
          "type": "bytes32"
        },
        {
          "internalType": "address",
          "name": "addr",
          "type": "address"
        }
      ],
      "name": "register",
      "outputs": [],
      "stateMutability": "nonpayable",
      "type": "function"
    },
    {
      "inputs": [
        {
          "internalType": "uint256",
          "name": "completed",
          "type": "uint256"
        }
      ],
      "name": "setCompleted",
      "outputs": [],
      "stateMutability": "nonpayable",
      "type": "function"
    },
    {
      "inputs": [
        {
          "internalType": "address",
          "name": "newAddress",
          "type": "address"
        }
      ],
      "name": "upgrade",
      "outputs": [],
      "stateMutability": "nonpayable",
      "type": "function"
    }
  ],
  "bytecode": "0x608060405234801561001057600080fd5b5060006100246001600160e01b0361007316565b600080546001600160a01b0319166001600160a01b0383169081178255604051929350917f8be0079c531659141344cd1fd0a4f28419497f9722a3daafe3b4186f6b6457e0908290a350610077565b3390565b610604806100866000396000f3fe608060405234801561001057600080fd5b506004361061009e5760003560e01c8063d22057a911610066578063d22057a91461012e578063ec56a3731461015a578063f2fde38b14610177578063fbdbad3c1461019d578063fdacd576146101a55761009e565b80630900f010146100a35780631f7b6d32146100cb5780634622ab03146100e5578063715018a6146101025780638da5cb5b1461010a575b600080fd5b6100c9600480360360208110156100b957600080fd5b50356001600160a01b03166101c2565b005b6100d3610283565b60408051918252519081900360200190f35b6100d3600480360360208110156100fb57600080fd5b5035610289565b6100c96102a7565b610112610349565b604080516001600160a01b039092168252519081900360200190f35b6100c96004803603604081101561014457600080fd5b50803590602001356001600160a01b0316610358565b6101126004803603602081101561017057600080fd5b503561040e565b6100c96004803603602081101561018d57600080fd5b50356001600160a01b0316610429565b6100d3610521565b6100c9600480360360208110156101bb57600080fd5b5035610527565b6101ca610584565b6000546001600160a01b0390811691161461021a576040805162461bcd60e51b815260206004820181905260248201526000805160206105af833981519152604482015290519081900360640190fd5b6000819050806001600160a01b031663fdacd5766001546040518263ffffffff1660e01b815260040180828152602001915050600060405180830381600087803b15801561026757600080fd5b505af115801561027b573d6000803e3d6000fd5b505050505050565b60035490565b6003818154811061029657fe5b600091825260209091200154905081565b6102af610584565b6000546001600160a01b039081169116146102ff576040805162461bcd60e51b815260206004820181905260248201526000805160206105af833981519152604482015290519081900360640190fd5b600080546040516001600160a01b03909116907f8be0079c531659141344cd1fd0a4f28419497f9722a3daafe3b4186f6b6457e0908390a3600080546001600160a01b0319169055565b6000546001600160a01b031690565b610360610584565b6000546001600160a01b039081169116146103b0576040805162461bcd60e51b815260206004820181905260248201526000805160206105af833981519152604482015290519081900360640190fd5b600082815260026020526040812080546001600160a01b0319166001600160a01b0393909316929092179091556003805460018101825591527fc2575a0e9e593c00f959f8c92f12db2869c3395a3b0502d05e2516446f71f85b0155565b6002602052600090815260409020546001600160a01b031681565b610431610584565b6000546001600160a01b03908116911614610481576040805162461bcd60e51b815260206004820181905260248201526000805160206105af833981519152604482015290519081900360640190fd5b6001600160a01b0381166104c65760405162461bcd60e51b81526004018080602001828103825260268152602001806105896026913960400191505060405180910390fd5b600080546040516001600160a01b03808516939216917f8be0079c531659141344cd1fd0a4f28419497f9722a3daafe3b4186f6b6457e091a3600080546001600160a01b0319166001600160a01b0392909216919091179055565b60015481565b61052f610584565b6000546001600160a01b0390811691161461057f576040805162461bcd60e51b815260206004820181905260248201526000805160206105af833981519152604482015290519081900360640190fd5b600155565b339056fe4f776e61626c653a206e6577206f776e657220697320746865207a65726f20616464726573734f776e61626c653a2063616c6c6572206973206e6f7420746865206f776e6572a2646970667358221220a9d44d8c23b98a4385f84f6b550a2af15fd9dc59990111cd525213da431981ea64736f6c634300060a0033",
  "source": "// SPDX-License-Identifier: GPL-3.0-or-later\npragma solidity ^0.6.0;\nimport \"@openzeppelin/contracts/access/Ownable.sol\";\n\n/**\n * @dev The Migrations contract is a standard truffle contract that keeps track of which migrations were done on the current network.\n * For yDai, we have updated it and added functionality that enables it as well to work as a deployed contract registry.\n */\ncontract Migrations is Ownable() {\n    uint public lastCompletedMigration;\n\n    /// @dev Deployed contract to deployment address\n    mapping(bytes32 => address) public contracts;\n\n    /// @dev Contract name iterator\n    bytes32[] public names;\n\n    /// @dev Amount of registered contracts\n    function length() external view returns (uint) {\n        return names.length;\n    }\n\n    /// @dev Register a contract name and address\n    function register(bytes32 name, address addr ) external onlyOwner {\n        contracts[name] = addr;\n        names.push(name);\n    }\n\n    /// @dev Register the index of the last completed migration\n    function setCompleted(uint completed) public onlyOwner {\n        lastCompletedMigration = completed;\n    }\n\n    /// @dev Copy the index of the last completed migration to a new version of the Migrations contract\n    function upgrade(address newAddress) public onlyOwner {\n        Migrations upgraded = Migrations(newAddress);\n        upgraded.setCompleted(lastCompletedMigration);\n    }\n}\n",
  "sourcePath": "/Users/bruce/dev/yieldprotocol/ytoken-mvp/contracts/Migrations.sol",
  "compiler": {
    "name": "solc",
    "version": "0.6.10+commit.00c0fcaf.Emscripten.clang"
  },
  "schemaVersion": "3.0.23",
  "updatedAt": "2020-07-23T14:16:24.018Z",
  "networkType": "ethereum",
  "devdoc": {
    "details": "The Migrations contract is a standard truffle contract that keeps track of which migrations were done on the current network. For yDai, we have updated it and added functionality that enables it as well to work as a deployed contract registry.",
    "methods": {
      "length()": {
        "details": "Amount of registered contracts"
      },
      "owner()": {
        "details": "Returns the address of the current owner."
      },
      "register(bytes32,address)": {
        "details": "Register a contract name and address"
      },
      "renounceOwnership()": {
        "details": "Leaves the contract without owner. It will not be possible to call `onlyOwner` functions anymore. Can only be called by the current owner. NOTE: Renouncing ownership will leave the contract without an owner, thereby removing any functionality that is only available to the owner."
      },
      "setCompleted(uint256)": {
        "details": "Register the index of the last completed migration"
      },
      "transferOwnership(address)": {
        "details": "Transfers ownership of the contract to a new account (`newOwner`). Can only be called by the current owner."
      },
      "upgrade(address)": {
        "details": "Copy the index of the last completed migration to a new version of the Migrations contract"
      }
    },
    "stateVariables": {
      "contracts": {
        "details": "Deployed contract to deployment address"
      },
      "names": {
        "details": "Contract name iterator"
      }
    }
  },
  "userdoc": {
    "methods": {}
  }
}