{
  "contractName": "Mint",
  "abi": [
    {
      "inputs": [
        {
          "internalType": "address",
          "name": "treasury_",
          "type": "address"
        },
        {
          "internalType": "address",
          "name": "dai_",
          "type": "address"
        },
        {
          "internalType": "address",
          "name": "yDai_",
          "type": "address"
        }
      ],
      "stateMutability": "nonpayable",
      "type": "constructor"
    },
    {
      "inputs": [],
      "name": "RAD",
      "outputs": [
        {
          "internalType": "uint8",
          "name": "",
          "type": "uint8"
        }
      ],
      "stateMutability": "view",
      "type": "function",
      "constant": true
    },
    {
      "inputs": [],
      "name": "RAY",
      "outputs": [
        {
          "internalType": "uint8",
          "name": "",
          "type": "uint8"
        }
      ],
      "stateMutability": "view",
      "type": "function",
      "constant": true
    },
    {
      "inputs": [],
      "name": "WAD",
      "outputs": [
        {
          "internalType": "uint8",
          "name": "",
          "type": "uint8"
        }
      ],
      "stateMutability": "view",
      "type": "function",
      "constant": true
    },
    {
      "inputs": [
        {
          "internalType": "address",
          "name": "user",
          "type": "address"
        },
        {
          "internalType": "uint256",
          "name": "dai",
          "type": "uint256"
        }
      ],
      "name": "mint",
      "outputs": [],
      "stateMutability": "nonpayable",
      "type": "function"
    },
    {
      "inputs": [
        {
          "internalType": "address",
          "name": "user",
          "type": "address"
        },
        {
          "internalType": "uint256",
          "name": "yDai",
          "type": "uint256"
        }
      ],
      "name": "redeem",
      "outputs": [],
      "stateMutability": "nonpayable",
      "type": "function"
    }
  ],
  "bytecode": "0x608060405234801561001057600080fd5b50604051610cae380380610cae8339818101604052606081101561003357600080fd5b81019080805190602001909291908051906020019092919080519060200190929190505050826000806101000a81548173ffffffffffffffffffffffffffffffffffffffff021916908373ffffffffffffffffffffffffffffffffffffffff16021790555081600160006101000a81548173ffffffffffffffffffffffffffffffffffffffff021916908373ffffffffffffffffffffffffffffffffffffffff16021790555080600260006101000a81548173ffffffffffffffffffffffffffffffffffffffff021916908373ffffffffffffffffffffffffffffffffffffffff160217905550505050610b828061012c6000396000f3fe608060405234801561001057600080fd5b50600436106100575760003560e01c806306f405fd1461005c5780631e9a69501461008057806340c10f19146100ce578063552033c41461011c5780636a14602414610140575b600080fd5b610064610164565b604051808260ff1660ff16815260200191505060405180910390f35b6100cc6004803603604081101561009657600080fd5b81019080803573ffffffffffffffffffffffffffffffffffffffff16906020019092919080359060200190929190505050610169565b005b61011a600480360360408110156100e457600080fd5b81019080803573ffffffffffffffffffffffffffffffffffffffff169060200190929190803590602001909291905050506104c2565b005b6101246108c9565b604051808260ff1660ff16815260200191505060405180910390f35b6101486108ce565b604051808260ff1660ff16815260200191505060405180910390f35b602d81565b600260009054906101000a900473ffffffffffffffffffffffffffffffffffffffff1673ffffffffffffffffffffffffffffffffffffffff1663ae4e7fdf6040518163ffffffff1660e01b815260040160206040518083038186803b1580156101d157600080fd5b505afa1580156101e5573d6000803e3d6000fd5b505050506040513d60208110156101fb57600080fd5b810190808051906020019092919050505061027e576040517f08c379a00000000000000000000000000000000000000000000000000000000081526004018080602001828103825260188152602001807f4d696e743a2079446169206973206e6f74206d6174757265000000000000000081525060200191505060405180910390fd5b600260009054906101000a900473ffffffffffffffffffffffffffffffffffffffff1673ffffffffffffffffffffffffffffffffffffffff16639dc29fac83836040518363ffffffff1660e01b8152600401808373ffffffffffffffffffffffffffffffffffffffff1673ffffffffffffffffffffffffffffffffffffffff16815260200182815260200192505050600060405180830381600087803b15801561032757600080fd5b505af115801561033b573d6000803e3d6000fd5b5050505060006103fb600260009054906101000a900473ffffffffffffffffffffffffffffffffffffffff1673ffffffffffffffffffffffffffffffffffffffff1663c92aecc46040518163ffffffff1660e01b8152600401602060405180830381600087803b1580156103ae57600080fd5b505af11580156103c2573d6000803e3d6000fd5b505050506040513d60208110156103d857600080fd5b8101908080519060200190929190505050601b846108d39092919063ffffffff16565b90506000809054906101000a900473ffffffffffffffffffffffffffffffffffffffff1673ffffffffffffffffffffffffffffffffffffffff16635502770384836040518363ffffffff1660e01b8152600401808373ffffffffffffffffffffffffffffffffffffffff1673ffffffffffffffffffffffffffffffffffffffff16815260200182815260200192505050600060405180830381600087803b1580156104a557600080fd5b505af11580156104b9573d6000803e3d6000fd5b50505050505050565b600260009054906101000a900473ffffffffffffffffffffffffffffffffffffffff1673ffffffffffffffffffffffffffffffffffffffff1663ae4e7fdf6040518163ffffffff1660e01b815260040160206040518083038186803b15801561052a57600080fd5b505afa15801561053e573d6000803e3d6000fd5b505050506040513d602081101561055457600080fd5b8101908080519060200190929190505050156105d8576040517f08c379a00000000000000000000000000000000000000000000000000000000081526004018080602001828103825260148152602001807f4d696e743a2079446169206973206d617475726500000000000000000000000081525060200191505060405180910390fd5b600160009054906101000a900473ffffffffffffffffffffffffffffffffffffffff1673ffffffffffffffffffffffffffffffffffffffff166323b872dd836000809054906101000a900473ffffffffffffffffffffffffffffffffffffffff16846040518463ffffffff1660e01b8152600401808473ffffffffffffffffffffffffffffffffffffffff1673ffffffffffffffffffffffffffffffffffffffff1681526020018373ffffffffffffffffffffffffffffffffffffffff1673ffffffffffffffffffffffffffffffffffffffff1681526020018281526020019350505050602060405180830381600087803b1580156106d657600080fd5b505af11580156106ea573d6000803e3d6000fd5b505050506040513d602081101561070057600080fd5b8101908080519060200190929190505050610783576040517f08c379a00000000000000000000000000000000000000000000000000000000081526004018080602001828103825260178152602001807f4d696e743a20446169207472616e73666572206661696c00000000000000000081525060200191505060405180910390fd5b6000809054906101000a900473ffffffffffffffffffffffffffffffffffffffff1673ffffffffffffffffffffffffffffffffffffffff1663adb987e36040518163ffffffff1660e01b8152600401600060405180830381600087803b1580156107ec57600080fd5b505af1158015610800573d6000803e3d6000fd5b50505050600260009054906101000a900473ffffffffffffffffffffffffffffffffffffffff1673ffffffffffffffffffffffffffffffffffffffff166340c10f1983836040518363ffffffff1660e01b8152600401808373ffffffffffffffffffffffffffffffffffffffff1673ffffffffffffffffffffffffffffffffffffffff16815260200182815260200192505050600060405180830381600087803b1580156108ad57600080fd5b505af11580156108c1573d6000803e3d6000fd5b505050505050565b601b81565b601281565b60006109026108e18361090b565b6108f4858761099590919063ffffffff16565b610a1b90919063ffffffff16565b90509392505050565b6000604d8260ff161115610987576040517f08c379a00000000000000000000000000000000000000000000000000000000081526004018080602001828103825260118152602001807f546f6f206d616e7920646563696d616c7300000000000000000000000000000081525060200191505060405180910390fd5b8160ff16600a0a9050919050565b6000808314156109a85760009050610a15565b60008284029050828482816109b957fe5b0414610a10576040517f08c379a0000000000000000000000000000000000000000000000000000000008152600401808060200182810382526021815260200180610b2c6021913960400191505060405180910390fd5b809150505b92915050565b6000610a5d83836040518060400160405280601a81526020017f536166654d6174683a206469766973696f6e206279207a65726f000000000000815250610a65565b905092915050565b60008083118290610b11576040517f08c379a00000000000000000000000000000000000000000000000000000000081526004018080602001828103825283818151815260200191508051906020019080838360005b83811015610ad6578082015181840152602081019050610abb565b50505050905090810190601f168015610b035780820380516001836020036101000a031916815260200191505b509250505060405180910390fd5b506000838581610b1d57fe5b04905080915050939250505056fe536166654d6174683a206d756c7469706c69636174696f6e206f766572666c6f77a26469706673582212209b949a01a31e91fd1016bff2544d03da680d4129b66b7f777d74c7b72f70065a64736f6c63430006020033",
  "source": "pragma solidity ^0.6.2;\n\nimport \"@hq20/contracts/contracts/math/DecimalMath.sol\";\nimport \"@openzeppelin/contracts/math/Math.sol\";\nimport \"@openzeppelin/contracts/token/ERC20/IERC20.sol\";\nimport \"./interfaces/ITreasury.sol\";\nimport \"./interfaces/IYDai.sol\";\nimport \"./Constants.sol\";\nimport \"@nomiclabs/buidler/console.sol\";\n\n\n/// @dev Mint manages a Dai/yDai pair. Note that Dai is underlying, not collateral, and therefore the functions are minting and redeeming, instead of borrowing and repaying.\ncontract Mint is Constants {\n    using DecimalMath for uint256;\n\n    ITreasury internal _treasury;\n    IERC20 internal _dai;\n    IYDai internal _yDai;\n\n    constructor (\n        address treasury_,\n        address dai_,\n        address yDai_\n    ) public {\n        _treasury = ITreasury(treasury_);\n        _dai = IERC20(dai_);\n        _yDai = IYDai(yDai_);\n    }\n\n    /// @dev Mint yDai by posting an equal amount of Dai.\n    /// If the Lender has debt it is paid, otherwise the dai is converted into chai\n    // user --- Dai  ---> us\n    // us   --- yDai ---> user\n    function mint(address user, uint256 dai) public {\n        require(\n            !_yDai.isMature(),\n            \"Mint: yDai is mature\"\n        );\n        require(\n            _dai.transferFrom(user, address(_treasury), dai), // Take dai from user and give it to Treasury\n            \"Mint: Dai transfer fail\"\n        );\n        \n        _treasury.pushDai();                                     // Have Treasury process the dai\n        _yDai.mint(user, dai);                                // Mint yDai to user\n    }\n\n    /// @dev Burn yTokens and return an equal amount of underlying.\n    /// If the Saver has savings they are used to deliver the dai to the user, otherwise dai is borrowed from MakerDao\n    // user --- yDai ---> us\n    // us   --- Dai  ---> user\n    function redeem(address user, uint256 yDai) public {\n        require(\n            _yDai.isMature(),\n            \"Mint: yDai is not mature\"\n        );\n        _yDai.burn(user, yDai);                       // Burn yDai from user\n        uint256 dai = yDai.muld(_yDai.chi(), RAY);    // User gets interest for holding after maturity\n        _treasury.pullDai(user, dai);                    // Give dai to user, from Treasury\n    }\n}",
  "sourcePath": "/Users/bruce/dev/yieldprotocol/ytoken-mvp/contracts/Mint.sol",
  "compiler": {
    "name": "solc",
    "version": "0.6.2+commit.bacdbe57.Emscripten.clang"
  },
  "schemaVersion": "3.0.23",
  "updatedAt": "2020-06-04T10:10:49.978Z",
  "networkType": "ethereum",
  "devdoc": {
    "details": "Mint manages a Dai/yDai pair. Note that Dai is underlying, not collateral, and therefore the functions are minting and redeeming, instead of borrowing and repaying.",
    "methods": {
      "mint(address,uint256)": {
        "details": "Mint yDai by posting an equal amount of Dai. If the Lender has debt it is paid, otherwise the dai is converted into chai"
      },
      "redeem(address,uint256)": {
        "details": "Burn yTokens and return an equal amount of underlying. If the Saver has savings they are used to deliver the dai to the user, otherwise dai is borrowed from MakerDao"
      }
    }
  },
  "userdoc": {
    "methods": {}
  }
}