{
  "contractName": "Orchestrated",
  "abi": [
    {
      "inputs": [],
      "stateMutability": "nonpayable",
      "type": "constructor"
    },
    {
      "anonymous": false,
      "inputs": [
        {
          "indexed": false,
          "internalType": "address",
          "name": "access",
          "type": "address"
        }
      ],
      "name": "GrantedAccess",
      "type": "event"
    },
    {
      "anonymous": false,
      "inputs": [
        {
          "indexed": true,
          "internalType": "address",
          "name": "previousOwner",
          "type": "address"
        },
        {
          "indexed": true,
          "internalType": "address",
          "name": "newOwner",
          "type": "address"
        }
      ],
      "name": "OwnershipTransferred",
      "type": "event"
    },
    {
      "inputs": [],
      "name": "owner",
      "outputs": [
        {
          "internalType": "address",
          "name": "",
          "type": "address"
        }
      ],
      "stateMutability": "view",
      "type": "function"
    },
    {
      "inputs": [],
      "name": "renounceOwnership",
      "outputs": [],
      "stateMutability": "nonpayable",
      "type": "function"
    },
    {
      "inputs": [
        {
          "internalType": "address",
          "name": "newOwner",
          "type": "address"
        }
      ],
      "name": "transferOwnership",
      "outputs": [],
      "stateMutability": "nonpayable",
      "type": "function"
    },
    {
      "inputs": [
        {
          "internalType": "address",
          "name": "user",
          "type": "address"
        }
      ],
      "name": "orchestrate",
      "outputs": [],
      "stateMutability": "nonpayable",
      "type": "function"
    }
  ],
  "bytecode": "0x608060405234801561001057600080fd5b5060006100246001600160e01b0361007316565b600080546001600160a01b0319166001600160a01b0383169081178255604051929350917f8be0079c531659141344cd1fd0a4f28419497f9722a3daafe3b4186f6b6457e0908290a350610077565b3390565b6103be806100866000396000f3fe608060405234801561001057600080fd5b506004361061004c5760003560e01c8063715018a61461005157806380f5a4401461005b5780638da5cb5b14610081578063f2fde38b146100a5575b600080fd5b6100596100cb565b005b6100596004803603602081101561007157600080fd5b50356001600160a01b031661017f565b610089610245565b604080516001600160a01b039092168252519081900360200190f35b610059600480360360208110156100bb57600080fd5b50356001600160a01b0316610254565b6100d361035e565b6000546001600160a01b03908116911614610135576040805162461bcd60e51b815260206004820181905260248201527f4f776e61626c653a2063616c6c6572206973206e6f7420746865206f776e6572604482015290519081900360640190fd5b600080546040516001600160a01b03909116907f8be0079c531659141344cd1fd0a4f28419497f9722a3daafe3b4186f6b6457e0908390a3600080546001600160a01b0319169055565b61018761035e565b6000546001600160a01b039081169116146101e9576040805162461bcd60e51b815260206004820181905260248201527f4f776e61626c653a2063616c6c6572206973206e6f7420746865206f776e6572604482015290519081900360640190fd5b6001600160a01b038116600081815260016020818152604092839020805460ff1916909217909155815192835290517f6a7c5f28ea564fafc8b079663a2a9b9d26fe735d97c97611484ce044f40a16e29281900390910190a150565b6000546001600160a01b031690565b61025c61035e565b6000546001600160a01b039081169116146102be576040805162461bcd60e51b815260206004820181905260248201527f4f776e61626c653a2063616c6c6572206973206e6f7420746865206f776e6572604482015290519081900360640190fd5b6001600160a01b0381166103035760405162461bcd60e51b81526004018080602001828103825260268152602001806103636026913960400191505060405180910390fd5b600080546040516001600160a01b03808516939216917f8be0079c531659141344cd1fd0a4f28419497f9722a3daafe3b4186f6b6457e091a3600080546001600160a01b0319166001600160a01b0392909216919091179055565b339056fe4f776e61626c653a206e6577206f776e657220697320746865207a65726f2061646472657373a2646970667358221220e8361f97a9b07ed61505b10a0f7253051a28899881a34c2161723996be50ec4064736f6c634300060a0033",
  "source": "pragma solidity ^0.6.10;\nimport \"@openzeppelin/contracts/access/Ownable.sol\";\n\n\n/**\n * @dev Orchestrated allows to define static access control between multiple contracts.\n * This contract would be used as a parent contract of any contract that needs to restrict access to some methods,\n * which would be marked with the `onlyOrchestrated modifier.\n * During deployment, the contract deployer (`owner`) can register any contracts that have privileged access by calling `orchestrate`.\n * Once deployment is completed, `owner` can call `transferOwnership(address(0))` to avoid any more contracts ever gaining privileged access.\n */\n\ncontract Orchestrated is Ownable {\n    event GrantedAccess(address access);\n\n    mapping(address => bool) private authorized;\n\n    constructor () public Ownable() {}\n\n    /// @dev Restrict usage to authorized users\n    modifier onlyOrchestrated(string memory err) {\n        require(authorized[msg.sender], err);\n        _;\n    }\n\n    /// @dev Add user to the authorized users list\n    function orchestrate(address user) public onlyOwner {\n        authorized[user] = true;\n        emit GrantedAccess(user);\n    }\n}\n",
  "sourcePath": "/Users/bruce/dev/yieldprotocol/ytoken-mvp/contracts/helpers/Orchestrated.sol",
  "compiler": {
    "name": "solc",
    "version": "0.6.10+commit.00c0fcaf.Emscripten.clang"
  },
  "schemaVersion": "3.0.23",
  "updatedAt": "2020-07-15T08:08:37.262Z",
  "devdoc": {
    "details": "Orchestrated allows to define static access control between multiple contracts. This contract would be used as a parent contract of any contract that needs to restrict access to some methods, which would be marked with the `onlyOrchestrated modifier. During deployment, the contract deployer (`owner`) can register any contracts that have privileged access by calling `orchestrate`. Once deployment is completed, `owner` can call `transferOwnership(address(0))` to avoid any more contracts ever gaining privileged access.",
    "methods": {
      "orchestrate(address)": {
        "details": "Add user to the authorized users list"
      },
      "owner()": {
        "details": "Returns the address of the current owner."
      },
      "renounceOwnership()": {
        "details": "Leaves the contract without owner. It will not be possible to call `onlyOwner` functions anymore. Can only be called by the current owner. NOTE: Renouncing ownership will leave the contract without an owner, thereby removing any functionality that is only available to the owner."
      },
      "transferOwnership(address)": {
        "details": "Transfers ownership of the contract to a new account (`newOwner`). Can only be called by the current owner."
      }
    }
  },
  "userdoc": {
    "methods": {}
  }
}