{
  "contractName": "Orchestrated",
  "abi": [
    {
      "inputs": [],
      "stateMutability": "nonpayable",
      "type": "constructor"
    },
    {
      "anonymous": false,
      "inputs": [
        {
          "indexed": false,
          "internalType": "address",
          "name": "access",
          "type": "address"
        },
        {
          "indexed": false,
          "internalType": "bytes4",
          "name": "signature",
          "type": "bytes4"
        }
      ],
      "name": "GrantedAccess",
      "type": "event"
    },
    {
      "anonymous": false,
      "inputs": [
        {
          "indexed": true,
          "internalType": "address",
          "name": "previousOwner",
          "type": "address"
        },
        {
          "indexed": true,
          "internalType": "address",
          "name": "newOwner",
          "type": "address"
        }
      ],
      "name": "OwnershipTransferred",
      "type": "event"
    },
    {
      "inputs": [
        {
          "internalType": "address",
          "name": "",
          "type": "address"
        },
        {
          "internalType": "bytes4",
          "name": "",
          "type": "bytes4"
        }
      ],
      "name": "orchestration",
      "outputs": [
        {
          "internalType": "bool",
          "name": "",
          "type": "bool"
        }
      ],
      "stateMutability": "view",
      "type": "function"
    },
    {
      "inputs": [],
      "name": "owner",
      "outputs": [
        {
          "internalType": "address",
          "name": "",
          "type": "address"
        }
      ],
      "stateMutability": "view",
      "type": "function"
    },
    {
      "inputs": [],
      "name": "renounceOwnership",
      "outputs": [],
      "stateMutability": "nonpayable",
      "type": "function"
    },
    {
      "inputs": [
        {
          "internalType": "address",
          "name": "newOwner",
          "type": "address"
        }
      ],
      "name": "transferOwnership",
      "outputs": [],
      "stateMutability": "nonpayable",
      "type": "function"
    },
    {
      "inputs": [
        {
          "internalType": "address",
          "name": "user",
          "type": "address"
        },
        {
          "internalType": "bytes4",
          "name": "signature",
          "type": "bytes4"
        }
      ],
      "name": "orchestrate",
      "outputs": [],
      "stateMutability": "nonpayable",
      "type": "function"
    },
    {
      "inputs": [
        {
          "internalType": "address",
          "name": "user",
          "type": "address"
        },
        {
          "internalType": "bytes4[]",
          "name": "signatures",
          "type": "bytes4[]"
        }
      ],
      "name": "batchOrchestrate",
      "outputs": [],
      "stateMutability": "nonpayable",
      "type": "function"
    }
  ],
  "bytecode": "0x608060405234801561001057600080fd5b5060006100246001600160e01b0361007316565b600080546001600160a01b0319166001600160a01b0383169081178255604051929350917f8be0079c531659141344cd1fd0a4f28419497f9722a3daafe3b4186f6b6457e0908290a350610077565b3390565b610594806100866000396000f3fe608060405234801561001057600080fd5b50600436106100625760003560e01c8063028f7d551461006757806358ada5261461009f578063715018a6146100e95780638da5cb5b146100f1578063e80c72c014610115578063f2fde38b146101c8575b600080fd5b61009d6004803603604081101561007d57600080fd5b5080356001600160a01b031690602001356001600160e01b0319166101ee565b005b6100d5600480360360408110156100b557600080fd5b5080356001600160a01b031690602001356001600160e01b0319166102bd565b604080519115158252519081900360200190f35b61009d6102dd565b6100f961037f565b604080516001600160a01b039092168252519081900360200190f35b61009d6004803603604081101561012b57600080fd5b6001600160a01b03823516919081019060408101602082013564010000000081111561015657600080fd5b82018360208201111561016857600080fd5b8035906020019184602083028401116401000000008311171561018a57600080fd5b91908080602002602001604051908101604052809392919081815260200183836020028082843760009201919091525092955061038e945050505050565b61009d600480360360208110156101de57600080fd5b50356001600160a01b031661041c565b6101f6610514565b6000546001600160a01b03908116911614610246576040805162461bcd60e51b8152602060048201819052602482015260008051602061053f833981519152604482015290519081900360640190fd5b6001600160a01b03821660008181526001602081815260408084206001600160e01b0319871680865290835293819020805460ff1916909317909255815193845283019190915280517f80e6a982b9aa622283c64c5ba322fc345fe769ac330a174f3254e52926e5fcf89281900390910190a15050565b600160209081526000928352604080842090915290825290205460ff1681565b6102e5610514565b6000546001600160a01b03908116911614610335576040805162461bcd60e51b8152602060048201819052602482015260008051602061053f833981519152604482015290519081900360640190fd5b600080546040516001600160a01b03909116907f8be0079c531659141344cd1fd0a4f28419497f9722a3daafe3b4186f6b6457e0908390a3600080546001600160a01b0319169055565b6000546001600160a01b031690565b610396610514565b6000546001600160a01b039081169116146103e6576040805162461bcd60e51b8152602060048201819052602482015260008051602061053f833981519152604482015290519081900360640190fd5b60005b81518110156104175761040f8383838151811061040257fe5b60200260200101516101ee565b6001016103e9565b505050565b610424610514565b6000546001600160a01b03908116911614610474576040805162461bcd60e51b8152602060048201819052602482015260008051602061053f833981519152604482015290519081900360640190fd5b6001600160a01b0381166104b95760405162461bcd60e51b81526004018080602001828103825260268152602001806105196026913960400191505060405180910390fd5b600080546040516001600160a01b03808516939216917f8be0079c531659141344cd1fd0a4f28419497f9722a3daafe3b4186f6b6457e091a3600080546001600160a01b0319166001600160a01b0392909216919091179055565b339056fe4f776e61626c653a206e6577206f776e657220697320746865207a65726f20616464726573734f776e61626c653a2063616c6c6572206973206e6f7420746865206f776e6572a2646970667358221220be3943fe3157f868ae16db9fa7995e0f303d2a52cc0288e3cc7be4d06dce439b64736f6c634300060a0033",
  "immutableReferences": {},
  "source": "// SPDX-License-Identifier: GPL-3.0-or-later\r\npragma solidity ^0.6.10;\r\nimport \"@openzeppelin/contracts/access/Ownable.sol\";\r\n\r\n\r\n/**\r\n * @dev Orchestrated allows to define static access control between multiple contracts.\r\n * This contract would be used as a parent contract of any contract that needs to restrict access to some methods,\r\n * which would be marked with the `onlyOrchestrated` modifier.\r\n * During deployment, the contract deployer (`owner`) can register any contracts that have privileged access by calling `orchestrate`.\r\n * Once deployment is completed, `owner` should call `transferOwnership(address(0))` to avoid any more contracts ever gaining privileged access.\r\n */\r\n\r\ncontract Orchestrated is Ownable {\r\n    event GrantedAccess(address access, bytes4 signature);\r\n\r\n    mapping(address => mapping (bytes4 => bool)) public orchestration;\r\n\r\n    constructor () public Ownable() {}\r\n\r\n    /// @dev Restrict usage to authorized users\r\n    /// @param err The error to display if the validation fails \r\n    modifier onlyOrchestrated(string memory err) {\r\n        require(orchestration[msg.sender][msg.sig], err);\r\n        _;\r\n    }\r\n\r\n    /// @dev Add orchestration\r\n    /// @param user Address of user or contract having access to this contract.\r\n    /// @param signature bytes4 signature of the function we are giving orchestrated access to.\r\n    /// It seems to me a bad idea to give access to humans, and would use this only for predictable smart contracts.\r\n    function orchestrate(address user, bytes4 signature) public onlyOwner {\r\n        orchestration[user][signature] = true;\r\n        emit GrantedAccess(user, signature);\r\n    }\r\n\r\n    /// @dev Adds orchestration for the provided function signatures\r\n    function batchOrchestrate(address user, bytes4[] memory signatures) public onlyOwner {\r\n        for (uint256 i = 0; i < signatures.length; i++) {\r\n            orchestrate(user, signatures[i]);\r\n        }\r\n    }\r\n}\r\n",
  "sourcePath": "C:\\Users\\bruce\\dev\\yield\\yDai\\contracts\\helpers\\Orchestrated.sol",
  "compiler": {
    "name": "solc",
    "version": "0.6.10+commit.00c0fcaf.Emscripten.clang"
  },
  "schemaVersion": "3.2.3",
  "updatedAt": "2020-08-26T07:47:57.222Z",
  "devdoc": {
    "details": "Orchestrated allows to define static access control between multiple contracts. This contract would be used as a parent contract of any contract that needs to restrict access to some methods, which would be marked with the `onlyOrchestrated` modifier. During deployment, the contract deployer (`owner`) can register any contracts that have privileged access by calling `orchestrate`. Once deployment is completed, `owner` should call `transferOwnership(address(0))` to avoid any more contracts ever gaining privileged access.",
    "methods": {
      "batchOrchestrate(address,bytes4[])": {
        "details": "Adds orchestration for the provided function signatures"
      },
      "orchestrate(address,bytes4)": {
        "details": "Add orchestration",
        "params": {
          "signature": "bytes4 signature of the function we are giving orchestrated access to. It seems to me a bad idea to give access to humans, and would use this only for predictable smart contracts.",
          "user": "Address of user or contract having access to this contract."
        }
      },
      "owner()": {
        "details": "Returns the address of the current owner."
      },
      "renounceOwnership()": {
        "details": "Leaves the contract without owner. It will not be possible to call `onlyOwner` functions anymore. Can only be called by the current owner. NOTE: Renouncing ownership will leave the contract without an owner, thereby removing any functionality that is only available to the owner."
      },
      "transferOwnership(address)": {
        "details": "Transfers ownership of the contract to a new account (`newOwner`). Can only be called by the current owner."
      }
    }
  },
  "userdoc": {
    "methods": {}
  }
}