{
  "contractName": "Orchestrated",
  "abi": [
    {
      "inputs": [],
      "stateMutability": "nonpayable",
      "type": "constructor"
    },
    {
      "anonymous": false,
      "inputs": [
        {
          "indexed": false,
          "internalType": "address",
          "name": "access",
          "type": "address"
        }
      ],
      "name": "GrantedAccess",
      "type": "event"
    },
    {
      "anonymous": false,
      "inputs": [
        {
          "indexed": true,
          "internalType": "address",
          "name": "previousOwner",
          "type": "address"
        },
        {
          "indexed": true,
          "internalType": "address",
          "name": "newOwner",
          "type": "address"
        }
      ],
      "name": "OwnershipTransferred",
      "type": "event"
    },
    {
      "inputs": [
        {
          "internalType": "address",
          "name": "",
          "type": "address"
        }
      ],
      "name": "authorized",
      "outputs": [
        {
          "internalType": "bool",
          "name": "",
          "type": "bool"
        }
      ],
      "stateMutability": "view",
      "type": "function"
    },
    {
      "inputs": [],
      "name": "owner",
      "outputs": [
        {
          "internalType": "address",
          "name": "",
          "type": "address"
        }
      ],
      "stateMutability": "view",
      "type": "function"
    },
    {
      "inputs": [],
      "name": "renounceOwnership",
      "outputs": [],
      "stateMutability": "nonpayable",
      "type": "function"
    },
    {
      "inputs": [
        {
          "internalType": "address",
          "name": "newOwner",
          "type": "address"
        }
      ],
      "name": "transferOwnership",
      "outputs": [],
      "stateMutability": "nonpayable",
      "type": "function"
    },
    {
      "inputs": [
        {
          "internalType": "address",
          "name": "user",
          "type": "address"
        }
      ],
      "name": "orchestrate",
      "outputs": [],
      "stateMutability": "nonpayable",
      "type": "function"
    }
  ],
  "bytecode": "0x608060405234801561001057600080fd5b5060006100246001600160e01b0361007316565b600080546001600160a01b0319166001600160a01b0383169081178255604051929350917f8be0079c531659141344cd1fd0a4f28419497f9722a3daafe3b4186f6b6457e0908290a350610077565b3390565b610418806100866000396000f3fe608060405234801561001057600080fd5b50600436106100575760003560e01c8063715018a61461005c57806380f5a440146100665780638da5cb5b1461008c578063b9181611146100b0578063f2fde38b146100ea575b600080fd5b610064610110565b005b6100646004803603602081101561007c57600080fd5b50356001600160a01b03166101c4565b61009461028a565b604080516001600160a01b039092168252519081900360200190f35b6100d6600480360360208110156100c657600080fd5b50356001600160a01b0316610299565b604080519115158252519081900360200190f35b6100646004803603602081101561010057600080fd5b50356001600160a01b03166102ae565b6101186103b8565b6000546001600160a01b0390811691161461017a576040805162461bcd60e51b815260206004820181905260248201527f4f776e61626c653a2063616c6c6572206973206e6f7420746865206f776e6572604482015290519081900360640190fd5b600080546040516001600160a01b03909116907f8be0079c531659141344cd1fd0a4f28419497f9722a3daafe3b4186f6b6457e0908390a3600080546001600160a01b0319169055565b6101cc6103b8565b6000546001600160a01b0390811691161461022e576040805162461bcd60e51b815260206004820181905260248201527f4f776e61626c653a2063616c6c6572206973206e6f7420746865206f776e6572604482015290519081900360640190fd5b6001600160a01b038116600081815260016020818152604092839020805460ff1916909217909155815192835290517f6a7c5f28ea564fafc8b079663a2a9b9d26fe735d97c97611484ce044f40a16e29281900390910190a150565b6000546001600160a01b031690565b60016020526000908152604090205460ff1681565b6102b66103b8565b6000546001600160a01b03908116911614610318576040805162461bcd60e51b815260206004820181905260248201527f4f776e61626c653a2063616c6c6572206973206e6f7420746865206f776e6572604482015290519081900360640190fd5b6001600160a01b03811661035d5760405162461bcd60e51b81526004018080602001828103825260268152602001806103bd6026913960400191505060405180910390fd5b600080546040516001600160a01b03808516939216917f8be0079c531659141344cd1fd0a4f28419497f9722a3daafe3b4186f6b6457e091a3600080546001600160a01b0319166001600160a01b0392909216919091179055565b339056fe4f776e61626c653a206e6577206f776e657220697320746865207a65726f2061646472657373a2646970667358221220e1e1547040716f0571e8592e0506a77e179bc9f7f5e4cd51087754f295145e3c64736f6c634300060a0033",
  "immutableReferences": {},
  "source": "// SPDX-License-Identifier: GPL-3.0-or-later\r\npragma solidity ^0.6.10;\r\nimport \"@openzeppelin/contracts/access/Ownable.sol\";\r\n\r\n\r\n/**\r\n * @dev Orchestrated allows to define static access control between multiple contracts.\r\n * This contract would be used as a parent contract of any contract that needs to restrict access to some methods,\r\n * which would be marked with the `onlyOrchestrated modifier.\r\n * During deployment, the contract deployer (`owner`) can register any contracts that have privileged access by calling `orchestrate`.\r\n * Once deployment is completed, `owner` can call `transferOwnership(address(0))` to avoid any more contracts ever gaining privileged access.\r\n */\r\n\r\ncontract Orchestrated is Ownable {\r\n    event GrantedAccess(address access);\r\n\r\n    mapping(address => bool) public authorized;\r\n\r\n    constructor () public Ownable() {}\r\n\r\n    /// @dev Restrict usage to authorized users\r\n    modifier onlyOrchestrated(string memory err) {\r\n        require(authorized[msg.sender], err);\r\n        _;\r\n    }\r\n\r\n    /// @dev Add user to the authorized users list\r\n    function orchestrate(address user) public onlyOwner {\r\n        authorized[user] = true;\r\n        emit GrantedAccess(user);\r\n    }\r\n}\r\n",
  "sourcePath": "C:\\Users\\bruce\\dev\\yield\\yDai\\contracts\\helpers\\Orchestrated.sol",
  "compiler": {
    "name": "solc",
    "version": "0.6.10+commit.00c0fcaf.Emscripten.clang"
  },
  "schemaVersion": "3.2.3",
  "updatedAt": "2020-08-19T15:24:08.745Z",
  "devdoc": {
    "details": "Orchestrated allows to define static access control between multiple contracts. This contract would be used as a parent contract of any contract that needs to restrict access to some methods, which would be marked with the `onlyOrchestrated modifier. During deployment, the contract deployer (`owner`) can register any contracts that have privileged access by calling `orchestrate`. Once deployment is completed, `owner` can call `transferOwnership(address(0))` to avoid any more contracts ever gaining privileged access.",
    "methods": {
      "orchestrate(address)": {
        "details": "Add user to the authorized users list"
      },
      "owner()": {
        "details": "Returns the address of the current owner."
      },
      "renounceOwnership()": {
        "details": "Leaves the contract without owner. It will not be possible to call `onlyOwner` functions anymore. Can only be called by the current owner. NOTE: Renouncing ownership will leave the contract without an owner, thereby removing any functionality that is only available to the owner."
      },
      "transferOwnership(address)": {
        "details": "Transfers ownership of the contract to a new account (`newOwner`). Can only be called by the current owner."
      }
    }
  },
  "userdoc": {
    "methods": {}
  }
}