{
  "contractName": "PoolProxy",
  "abi": [
    {
      "inputs": [
        {
          "internalType": "address",
          "name": "dai_",
          "type": "address"
        },
        {
          "internalType": "address",
          "name": "chai_",
          "type": "address"
        },
        {
          "internalType": "address",
          "name": "treasury_",
          "type": "address"
        },
        {
          "internalType": "address",
          "name": "controller_",
          "type": "address"
        }
      ],
      "stateMutability": "nonpayable",
      "type": "constructor"
    },
    {
      "inputs": [],
      "name": "CHAI",
      "outputs": [
        {
          "internalType": "bytes32",
          "name": "",
          "type": "bytes32"
        }
      ],
      "stateMutability": "view",
      "type": "function"
    },
    {
      "inputs": [],
      "name": "UNIT",
      "outputs": [
        {
          "internalType": "uint256",
          "name": "",
          "type": "uint256"
        }
      ],
      "stateMutability": "view",
      "type": "function"
    },
    {
      "inputs": [],
      "name": "chai",
      "outputs": [
        {
          "internalType": "contract IChai",
          "name": "",
          "type": "address"
        }
      ],
      "stateMutability": "view",
      "type": "function"
    },
    {
      "inputs": [],
      "name": "controller",
      "outputs": [
        {
          "internalType": "contract IController",
          "name": "",
          "type": "address"
        }
      ],
      "stateMutability": "view",
      "type": "function"
    },
    {
      "inputs": [],
      "name": "dai",
      "outputs": [
        {
          "internalType": "contract IDai",
          "name": "",
          "type": "address"
        }
      ],
      "stateMutability": "view",
      "type": "function"
    },
    {
      "inputs": [
        {
          "internalType": "contract IPool",
          "name": "pool",
          "type": "address"
        },
        {
          "internalType": "uint256",
          "name": "daiUsed",
          "type": "uint256"
        },
        {
          "internalType": "uint256",
          "name": "maxFYDai",
          "type": "uint256"
        }
      ],
      "name": "addLiquidity",
      "outputs": [
        {
          "internalType": "uint256",
          "name": "",
          "type": "uint256"
        }
      ],
      "stateMutability": "nonpayable",
      "type": "function"
    },
    {
      "inputs": [
        {
          "internalType": "contract IPool",
          "name": "pool",
          "type": "address"
        },
        {
          "internalType": "uint256",
          "name": "poolTokens",
          "type": "uint256"
        },
        {
          "internalType": "uint256",
          "name": "minimumDaiPrice",
          "type": "uint256"
        },
        {
          "internalType": "uint256",
          "name": "minimumFYDaiPrice",
          "type": "uint256"
        }
      ],
      "name": "removeLiquidityEarlyDaiPool",
      "outputs": [],
      "stateMutability": "nonpayable",
      "type": "function"
    },
    {
      "inputs": [
        {
          "internalType": "contract IPool",
          "name": "pool",
          "type": "address"
        },
        {
          "internalType": "uint256",
          "name": "poolTokens",
          "type": "uint256"
        },
        {
          "internalType": "uint256",
          "name": "minimumFYDaiPrice",
          "type": "uint256"
        }
      ],
      "name": "removeLiquidityEarlyDaiFixed",
      "outputs": [],
      "stateMutability": "nonpayable",
      "type": "function"
    },
    {
      "inputs": [
        {
          "internalType": "contract IPool",
          "name": "pool",
          "type": "address"
        },
        {
          "internalType": "uint256",
          "name": "poolTokens",
          "type": "uint256"
        }
      ],
      "name": "removeLiquidityMature",
      "outputs": [],
      "stateMutability": "nonpayable",
      "type": "function"
    },
    {
      "inputs": [
        {
          "internalType": "contract IPool",
          "name": "pool",
          "type": "address"
        },
        {
          "internalType": "uint256",
          "name": "daiUsed",
          "type": "uint256"
        },
        {
          "internalType": "uint256",
          "name": "maxFYDai",
          "type": "uint256"
        },
        {
          "internalType": "bytes",
          "name": "daiSig",
          "type": "bytes"
        },
        {
          "internalType": "bytes",
          "name": "controllerSig",
          "type": "bytes"
        }
      ],
      "name": "addLiquidityWithSignature",
      "outputs": [
        {
          "internalType": "uint256",
          "name": "",
          "type": "uint256"
        }
      ],
      "stateMutability": "nonpayable",
      "type": "function"
    },
    {
      "inputs": [
        {
          "internalType": "contract IPool",
          "name": "pool",
          "type": "address"
        },
        {
          "internalType": "uint256",
          "name": "poolTokens",
          "type": "uint256"
        },
        {
          "internalType": "uint256",
          "name": "minimumDaiPrice",
          "type": "uint256"
        },
        {
          "internalType": "uint256",
          "name": "minimumFYDaiPrice",
          "type": "uint256"
        },
        {
          "internalType": "bytes",
          "name": "controllerSig",
          "type": "bytes"
        },
        {
          "internalType": "bytes",
          "name": "poolSig",
          "type": "bytes"
        }
      ],
      "name": "removeLiquidityEarlyDaiPoolWithSignature",
      "outputs": [],
      "stateMutability": "nonpayable",
      "type": "function"
    },
    {
      "inputs": [
        {
          "internalType": "contract IPool",
          "name": "pool",
          "type": "address"
        },
        {
          "internalType": "uint256",
          "name": "poolTokens",
          "type": "uint256"
        },
        {
          "internalType": "uint256",
          "name": "minimumFYDaiPrice",
          "type": "uint256"
        },
        {
          "internalType": "bytes",
          "name": "controllerSig",
          "type": "bytes"
        },
        {
          "internalType": "bytes",
          "name": "poolSig",
          "type": "bytes"
        }
      ],
      "name": "removeLiquidityEarlyDaiFixedWithSignature",
      "outputs": [],
      "stateMutability": "nonpayable",
      "type": "function"
    },
    {
      "inputs": [
        {
          "internalType": "contract IPool",
          "name": "pool",
          "type": "address"
        },
        {
          "internalType": "uint256",
          "name": "poolTokens",
          "type": "uint256"
        },
        {
          "internalType": "bytes",
          "name": "controllerSig",
          "type": "bytes"
        },
        {
          "internalType": "bytes",
          "name": "poolSig",
          "type": "bytes"
        }
      ],
      "name": "removeLiquidityMatureWithSignature",
      "outputs": [],
      "stateMutability": "nonpayable",
      "type": "function"
    }
  ],
  "bytecode": "0x61010060405234801561001157600080fd5b506040516136c53803806136c58339818101604052608081101561003457600080fd5b508051602082015160408301516060938401516001600160601b031990851b811660c05290841b811660e05291831b821660805290911b1660a05260805160601c60a05160601c60c05160601c60e05160601c61353961018c6000398061117e52806112555280611d985280611e7552806126df52806127bc52508061071a5280610c905280610d4b5280610edf52806119e35280611b0752806120ef52806121aa528061227c528061233752806124b2528061256852806129c85280612a835280612b265280612d385280612dde5280612ee25250806111ac5280611226528061131152806113e852806118c852806119495280611a1a52806125bb5280612f6152508061087e52806108fb528061109b528061133f52806113b952806114b2528061152c52806116e75280611dc95280611e4652806125275280612710528061278d5280612b02528061306152506135396000f3fe608060405234801561001057600080fd5b50600436106100cf5760003560e01c806395c1551c1161008c578063b6dbf9ce11610066578063b6dbf9ce146106c2578063b8fde750146106ca578063f4b9fa75146106f6578063f77c4791146106fe576100cf565b806395c1551c146105515780639d8e217714610696578063b69d04561461069e576100cf565b8063319f4bb6146100d457806336b4f5bd146102145780633bfea3c01461024c57806355776b7714610396578063572d9c4f146103da57806382b7be3c1461040c575b600080fd5b610212600480360360808110156100ea57600080fd5b6001600160a01b0382351691602081013591810190606081016040820135600160201b81111561011957600080fd5b82018360208201111561012b57600080fd5b803590602001918460018302840111600160201b8311171561014c57600080fd5b91908080601f0160208091040260200160405190810160405280939291908181526020018383808284376000920191909152509295949360208101935035915050600160201b81111561019e57600080fd5b8201836020820111156101b057600080fd5b803590602001918460018302840111600160201b831117156101d157600080fd5b91908080601f016020809104026020016040519081016040528093929190818152602001838380828437600092019190915250929550610706945050505050565b005b6102126004803603608081101561022a57600080fd5b506001600160a01b038135169060208101359060408101359060600135610776565b610212600480360360c081101561026257600080fd5b6001600160a01b038235169160208101359160408201359160608101359181019060a081016080820135600160201b81111561029d57600080fd5b8201836020820111156102af57600080fd5b803590602001918460018302840111600160201b831117156102d057600080fd5b91908080601f0160208091040260200160405190810160405280939291908181526020018383808284376000920191909152509295949360208101935035915050600160201b81111561032257600080fd5b82018360208201111561033457600080fd5b803590602001918460018302840111600160201b8311171561035557600080fd5b91908080601f016020809104026020016040519081016040528093929190818152602001838380828437600092019190915250929550610ecb945050505050565b6103c8600480360360608110156103ac57600080fd5b506001600160a01b038135169060208101359060400135610f3f565b60408051918252519081900360200190f35b610212600480360360608110156103f057600080fd5b506001600160a01b038135169060208101359060400135611ca1565b610212600480360360a081101561042257600080fd5b6001600160a01b038235169160208101359160408201359190810190608081016060820135600160201b81111561045857600080fd5b82018360208201111561046a57600080fd5b803590602001918460018302840111600160201b8311171561048b57600080fd5b91908080601f0160208091040260200160405190810160405280939291908181526020018383808284376000920191909152509295949360208101935035915050600160201b8111156104dd57600080fd5b8201836020820111156104ef57600080fd5b803590602001918460018302840111600160201b8311171561051057600080fd5b91908080601f01602080910402602001604051908101604052809392919081815260200183838082843760009201919091525092955061249e945050505050565b6103c8600480360360a081101561056757600080fd5b6001600160a01b038235169160208101359160408201359190810190608081016060820135600160201b81111561059d57600080fd5b8201836020820111156105af57600080fd5b803590602001918460018302840111600160201b831117156105d057600080fd5b91908080601f0160208091040260200160405190810160405280939291908181526020018383808284376000920191909152509295949360208101935035915050600160201b81111561062257600080fd5b82018360208201111561063457600080fd5b803590602001918460018302840111600160201b8311171561065557600080fd5b91908080601f016020809104026020016040519081016040528093929190818152602001838380828437600092019190915250929550612510945050505050565b6103c86125a9565b6106a66125b9565b604080516001600160a01b039092168252519081900360200190f35b6103c86125dd565b610212600480360360408110156106e057600080fd5b506001600160a01b0381351690602001356125e8565b6106a6612b00565b6106a6612b24565b815115610746576107466001600160a01b037f0000000000000000000000000000000000000000000000000000000000000000168363ffffffff612b4816565b805115610766576107666001600160a01b0385168263ffffffff612b4816565b61077084846125e8565b50505050565b6000846001600160a01b031663284f44446040518163ffffffff1660e01b815260040160206040518083038186803b1580156107b157600080fd5b505afa1580156107c5573d6000803e3d6000fd5b505050506040513d60208110156107db57600080fd5b50516040805163204f83f960e01b815290519192506000916001600160a01b0384169163204f83f9916004808301926020929190829003018186803b15801561082357600080fd5b505afa158015610837573d6000803e3d6000fd5b505050506040513d602081101561084d57600080fd5b505160408051636eb1769f60e11b81523060048201526001600160a01b0389811660248301529151929350600019927f00000000000000000000000000000000000000000000000000000000000000009092169163dd62ed3e91604480820192602092909190829003018186803b1580156108c757600080fd5b505afa1580156108db573d6000803e3d6000fd5b505050506040513d60208110156108f157600080fd5b505110156109a8577f00000000000000000000000000000000000000000000000000000000000000006001600160a01b031663095ea7b3876000196040518363ffffffff1660e01b815260040180836001600160a01b03166001600160a01b0316815260200182815260200192505050602060405180830381600087803b15801561097b57600080fd5b505af115801561098f573d6000803e3d6000fd5b505050506040513d60208110156109a557600080fd5b50505b60408051636eb1769f60e11b81523060048201526001600160a01b03888116602483015291516001600160701b039285169163dd62ed3e916044808301926020929190829003018186803b1580156109ff57600080fd5b505afa158015610a13573d6000803e3d6000fd5b505050506040513d6020811015610a2957600080fd5b50511015610ab2576040805163095ea7b360e01b81526001600160a01b038881166004830152600019602483015291519184169163095ea7b3916044808201926020929091908290030181600087803b158015610a8557600080fd5b505af1158015610a99573d6000803e3d6000fd5b505050506040513d6020811015610aaf57600080fd5b50505b60408051633dae446f60e21b815233600482015230602482015260448101879052815160009283926001600160a01b038b169263f6b911bc9260648084019391929182900301818787803b158015610b0957600080fd5b505af1158015610b1d573d6000803e3d6000fd5b505050506040513d6040811015610b3357600080fd5b508051602090910151909250905060006001600160a01b03891663b26be9223080610b5d87612bdf565b604080516001600160e01b031960e087901b1681526001600160a01b0394851660048201529290931660248301526001600160801b03166044820152905160648083019260209291908290030181600087803b158015610bbc57600080fd5b505af1158015610bd0573d6000803e3d6000fd5b505050506040513d6020811015610be657600080fd5b50516001600160801b03169050610bfd8388612c41565b811015610c3b5760405162461bcd60e51b81526004018080602001828103825260278152602001806134936027913960400191505060405180910390fd5b610c4b828263ffffffff612c6c16565b915060008083118015610d055750604080516324c94bb560e21b8152634348414960e01b60048201526024810187905233604482015290516000916001600160a01b037f000000000000000000000000000000000000000000000000000000000000000016916393252ed491606480820192602092909190829003018186803b158015610cd757600080fd5b505afa158015610ceb573d6000803e3d6000fd5b505050506040513d6020811015610d0157600080fd5b5051115b15610dc2576040805163b93dd41d60e01b8152634348414960e01b6004820152602481018790523060448201523360648201526084810185905290516001600160a01b037f0000000000000000000000000000000000000000000000000000000000000000169163b93dd41d9160a48083019260209291908290030181600087803b158015610d9357600080fd5b505af1158015610da7573d6000803e3d6000fd5b505050506040513d6020811015610dbd57600080fd5b505190505b6000610dd4848363ffffffff612cc616565b90508015610eb657610de68189612c41565b604080516360561e0560e01b8152306004820181905260248201526001600160801b038416604482015290516001600160a01b038e16916360561e059160648083019260209291908290030181600087803b158015610e4457600080fd5b505af1158015610e58573d6000803e3d6000fd5b505050506040513d6020811015610e6e57600080fd5b50516001600160801b03161015610eb65760405162461bcd60e51b81526004018080602001828103825260298152602001806134db6029913960400191505060405180910390fd5b610ebe612d08565b5050505050505050505050565b815115610f0b57610f0b6001600160a01b037f0000000000000000000000000000000000000000000000000000000000000000168363ffffffff612b4816565b805115610f2b57610f2b6001600160a01b0387168263ffffffff612b4816565b610f3786868686610776565b505050505050565b600080846001600160a01b031663284f44446040518163ffffffff1660e01b815260040160206040518083038186803b158015610f7b57600080fd5b505afa158015610f8f573d6000803e3d6000fd5b505050506040513d6020811015610fa557600080fd5b50516040805163ae4e7fdf60e01b815290519192506001600160a01b0383169163ae4e7fdf91600480820192602092909190829003018186803b158015610feb57600080fd5b505afa158015610fff573d6000803e3d6000fd5b505050506040513d602081101561101557600080fd5b505115156001141561106e576040805162461bcd60e51b815260206004820181905260248201527f5969656c6450726f78793a204f6e6c79206265666f7265206d61747572697479604482015290519081900360640190fd5b604080516323b872dd60e01b81523360048201523060248201526044810186905290516001600160a01b037f000000000000000000000000000000000000000000000000000000000000000016916323b872dd9160648083019260209291908290030181600087803b1580156110e357600080fd5b505af11580156110f7573d6000803e3d6000fd5b505050506040513d602081101561110d57600080fd5b5051611160576040805162461bcd60e51b815260206004820152601b60248201527f5969656c6450726f78793a205472616e73666572204661696c65640000000000604482015290519081900360640190fd5b60408051636eb1769f60e11b81523060048201526001600160a01b037f0000000000000000000000000000000000000000000000000000000000000000811660248301529151600019927f0000000000000000000000000000000000000000000000000000000000000000169163dd62ed3e916044808301926020929190829003018186803b1580156111f257600080fd5b505afa158015611206573d6000803e3d6000fd5b505050506040513d602081101561121c57600080fd5b505110156112f3577f00000000000000000000000000000000000000000000000000000000000000006001600160a01b031663095ea7b37f00000000000000000000000000000000000000000000000000000000000000006000196040518363ffffffff1660e01b815260040180836001600160a01b03166001600160a01b0316815260200182815260200192505050602060405180830381600087803b1580156112c657600080fd5b505af11580156112da573d6000803e3d6000fd5b505050506040513d60208110156112f057600080fd5b50505b60408051636eb1769f60e11b81523060048201526001600160a01b037f0000000000000000000000000000000000000000000000000000000000000000811660248301529151600019927f0000000000000000000000000000000000000000000000000000000000000000169163dd62ed3e916044808301926020929190829003018186803b15801561138557600080fd5b505afa158015611399573d6000803e3d6000fd5b505050506040513d60208110156113af57600080fd5b50511015611486577f00000000000000000000000000000000000000000000000000000000000000006001600160a01b031663095ea7b37f00000000000000000000000000000000000000000000000000000000000000006000196040518363ffffffff1660e01b815260040180836001600160a01b03166001600160a01b0316815260200182815260200192505050602060405180830381600087803b15801561145957600080fd5b505af115801561146d573d6000803e3d6000fd5b505050506040513d602081101561148357600080fd5b50505b60408051636eb1769f60e11b81523060048201526001600160a01b0387811660248301529151600019927f0000000000000000000000000000000000000000000000000000000000000000169163dd62ed3e916044808301926020929190829003018186803b1580156114f857600080fd5b505afa15801561150c573d6000803e3d6000fd5b505050506040513d602081101561152257600080fd5b505110156115d9577f00000000000000000000000000000000000000000000000000000000000000006001600160a01b031663095ea7b3866000196040518363ffffffff1660e01b815260040180836001600160a01b03166001600160a01b0316815260200182815260200192505050602060405180830381600087803b1580156115ac57600080fd5b505af11580156115c0573d6000803e3d6000fd5b505050506040513d60208110156115d657600080fd5b50505b60408051636eb1769f60e11b81523060048201526001600160a01b03878116602483015291516001600160701b039284169163dd62ed3e916044808301926020929190829003018186803b15801561163057600080fd5b505afa158015611644573d6000803e3d6000fd5b505050506040513d602081101561165a57600080fd5b505110156116e3576040805163095ea7b360e01b81526001600160a01b038781166004830152600019602483015291519183169163095ea7b3916044808201926020929091908290030181600087803b1580156116b657600080fd5b505af11580156116ca573d6000803e3d6000fd5b505050506040513d60208110156116e057600080fd5b50505b60007f00000000000000000000000000000000000000000000000000000000000000006001600160a01b03166370a08231876040518263ffffffff1660e01b815260040180826001600160a01b03166001600160a01b0316815260200191505060206040518083038186803b15801561175b57600080fd5b505afa15801561176f573d6000803e3d6000fd5b505050506040513d602081101561178557600080fd5b5051604080516370a0823160e01b81526001600160a01b0389811660048301529151929350600092918516916370a0823191602480820192602092909190829003018186803b1580156117d757600080fd5b505afa1580156117eb573d6000803e3d6000fd5b505050506040513d602081101561180157600080fd5b50519050600061183661181a838563ffffffff612c6c16565b61182a898663ffffffff6131b016565b9063ffffffff61320916565b9050600061184a888363ffffffff612cc616565b9050868111156118a1576040805162461bcd60e51b815260206004820152601d60248201527f5969656c6450726f78793a206d61784659446169206578636565646564000000604482015290519081900360640190fd5b60408051633b4da69f60e01b81523060048201526024810183905290516001600160a01b037f00000000000000000000000000000000000000000000000000000000000000001691633b4da69f91604480830192600092919082900301818387803b15801561190f57600080fd5b505af1158015611923573d6000803e3d6000fd5b505060408051633612d9a360e11b81523060048201529051600093506001600160a01b037f0000000000000000000000000000000000000000000000000000000000000000169250636c25b3469160248082019260209290919082900301818787803b15801561199257600080fd5b505af11580156119a6573d6000803e3d6000fd5b505050506040513d60208110156119bc57600080fd5b5051604080516370a0823160e01b8152306004820181905291519293506001600160a01b037f000000000000000000000000000000000000000000000000000000000000000081169363adb9e54e93634348414960e01b93909233927f0000000000000000000000000000000000000000000000000000000000000000909116916370a08231916024808301926020929190829003018186803b158015611a6257600080fd5b505afa158015611a76573d6000803e3d6000fd5b505050506040513d6020811015611a8c57600080fd5b5051604080516001600160e01b031960e088901b16815260048101959095526001600160a01b039384166024860152919092166044840152606483019190915251608480830192600092919082900301818387803b158015611aed57600080fd5b505af1158015611b01573d6000803e3d6000fd5b505050507f00000000000000000000000000000000000000000000000000000000000000006001600160a01b031663801d325f634348414960e01b886001600160a01b031663204f83f96040518163ffffffff1660e01b815260040160206040518083038186803b158015611b7557600080fd5b505afa158015611b89573d6000803e3d6000fd5b505050506040513d6020811015611b9f57600080fd5b5051604080516001600160e01b031960e086901b16815260048101939093526024830191909152336044830152306064830152608482018590525160a480830192600092919082900301818387803b158015611bfa57600080fd5b505af1158015611c0e573d6000803e3d6000fd5b505060408051636361ddf360e11b81523060048201523360248201526044810187905290516001600160a01b038e16935063c6c3bbe6925060648083019260209291908290030181600087803b158015611c6757600080fd5b505af1158015611c7b573d6000803e3d6000fd5b505050506040513d6020811015611c9157600080fd5b50519a9950505050505050505050565b6000836001600160a01b031663284f44446040518163ffffffff1660e01b815260040160206040518083038186803b158015611cdc57600080fd5b505afa158015611cf0573d6000803e3d6000fd5b505050506040513d6020811015611d0657600080fd5b50516040805163204f83f960e01b815290519192506000916001600160a01b0384169163204f83f9916004808301926020929190829003018186803b158015611d4e57600080fd5b505afa158015611d62573d6000803e3d6000fd5b505050506040513d6020811015611d7857600080fd5b505160408051636eb1769f60e11b81523060048201526001600160a01b037f0000000000000000000000000000000000000000000000000000000000000000811660248301529151929350600019927f00000000000000000000000000000000000000000000000000000000000000009092169163dd62ed3e91604480820192602092909190829003018186803b158015611e1257600080fd5b505afa158015611e26573d6000803e3d6000fd5b505050506040513d6020811015611e3c57600080fd5b50511015611f13577f00000000000000000000000000000000000000000000000000000000000000006001600160a01b031663095ea7b37f00000000000000000000000000000000000000000000000000000000000000006000196040518363ffffffff1660e01b815260040180836001600160a01b03166001600160a01b0316815260200182815260200192505050602060405180830381600087803b158015611ee657600080fd5b505af1158015611efa573d6000803e3d6000fd5b505050506040513d6020811015611f1057600080fd5b50505b60408051636eb1769f60e11b81523060048201526001600160a01b03878116602483015291516001600160701b039285169163dd62ed3e916044808301926020929190829003018186803b158015611f6a57600080fd5b505afa158015611f7e573d6000803e3d6000fd5b505050506040513d6020811015611f9457600080fd5b5051101561201d576040805163095ea7b360e01b81526001600160a01b038781166004830152600019602483015291519184169163095ea7b3916044808201926020929091908290030181600087803b158015611ff057600080fd5b505af1158015612004573d6000803e3d6000fd5b505050506040513d602081101561201a57600080fd5b50505b60408051633dae446f60e21b815233600482015230602482015260448101869052815160009283926001600160a01b038a169263f6b911bc9260648084019391929182900301818787803b15801561207457600080fd5b505af1158015612088573d6000803e3d6000fd5b505050506040513d604081101561209e57600080fd5b5080516020909101519092509050600081158015906121645750604080516324c94bb560e21b8152634348414960e01b60048201526024810186905233604482015290516000916001600160a01b037f000000000000000000000000000000000000000000000000000000000000000016916393252ed491606480820192602092909190829003018186803b15801561213657600080fd5b505afa15801561214a573d6000803e3d6000fd5b505050506040513d602081101561216057600080fd5b5051115b15612221576040805163b93dd41d60e01b8152634348414960e01b6004820152602481018690523060448201523360648201526084810184905290516001600160a01b037f0000000000000000000000000000000000000000000000000000000000000000169163b93dd41d9160a48083019260209291908290030181600087803b1580156121f257600080fd5b505af1158015612206573d6000803e3d6000fd5b505050506040513d602081101561221c57600080fd5b505190505b6000612233838363ffffffff612cc616565b9050806123b1576000841180156122f15750604080516324c94bb560e21b8152634348414960e01b60048201526024810187905233604482015290516000916001600160a01b037f000000000000000000000000000000000000000000000000000000000000000016916393252ed491606480820192602092909190829003018186803b1580156122c357600080fd5b505afa1580156122d7573d6000803e3d6000fd5b505050506040513d60208110156122ed57600080fd5b5051115b156123ac57604080516325d3cd1760e01b8152634348414960e01b6004820152602481018790523060448201523360648201526084810186905290516001600160a01b037f000000000000000000000000000000000000000000000000000000000000000016916325d3cd179160a48083019260209291908290030181600087803b15801561237f57600080fd5b505af1158015612393573d6000803e3d6000fd5b505050506040513d60208110156123a957600080fd5b50505b61248b565b6123bb8188612c41565b604080516360561e0560e01b8152306004820181905260248201526001600160801b038416604482015290516001600160a01b038c16916360561e059160648083019260209291908290030181600087803b15801561241957600080fd5b505af115801561242d573d6000803e3d6000fd5b505050506040513d602081101561244357600080fd5b50516001600160801b0316101561248b5760405162461bcd60e51b81526004018080602001828103825260298152602001806134db6029913960400191505060405180910390fd5b612493612d08565b505050505050505050565b8151156124de576124de6001600160a01b037f0000000000000000000000000000000000000000000000000000000000000000168363ffffffff612b4816565b8051156124fe576124fe6001600160a01b0386168263ffffffff612b4816565b612509858585611ca1565b5050505050565b815160009015612554576125546001600160a01b037f000000000000000000000000000000000000000000000000000000000000000016308563ffffffff61324b16565b815115612594576125946001600160a01b037f0000000000000000000000000000000000000000000000000000000000000000168363ffffffff612b4816565b61259f868686610f3f565b9695505050505050565b6b033b2e3c9fd0803ce800000081565b7f000000000000000000000000000000000000000000000000000000000000000081565b634348414960e01b81565b6000826001600160a01b031663284f44446040518163ffffffff1660e01b815260040160206040518083038186803b15801561262357600080fd5b505afa158015612637573d6000803e3d6000fd5b505050506040513d602081101561264d57600080fd5b50516040805163204f83f960e01b815290519192506000916001600160a01b0384169163204f83f9916004808301926020929190829003018186803b15801561269557600080fd5b505afa1580156126a9573d6000803e3d6000fd5b505050506040513d60208110156126bf57600080fd5b505160408051636eb1769f60e11b81523060048201526001600160a01b037f0000000000000000000000000000000000000000000000000000000000000000811660248301529151929350600019927f00000000000000000000000000000000000000000000000000000000000000009092169163dd62ed3e91604480820192602092909190829003018186803b15801561275957600080fd5b505afa15801561276d573d6000803e3d6000fd5b505050506040513d602081101561278357600080fd5b5051101561285a577f00000000000000000000000000000000000000000000000000000000000000006001600160a01b031663095ea7b37f00000000000000000000000000000000000000000000000000000000000000006000196040518363ffffffff1660e01b815260040180836001600160a01b03166001600160a01b0316815260200182815260200192505050602060405180830381600087803b15801561282d57600080fd5b505af1158015612841573d6000803e3d6000fd5b505050506040513d602081101561285757600080fd5b50505b60408051633dae446f60e21b815233600482015230602482015260448101859052815160009283926001600160a01b0389169263f6b911bc9260648084019391929182900301818787803b1580156128b157600080fd5b505af11580156128c5573d6000803e3d6000fd5b505050506040513d60408110156128db57600080fd5b508051602090910151909250905080156129865760408051630e6dfcd560e01b815230600482018190526024820152604481018390529051612983916001600160a01b03871691630e6dfcd5916064808201926020929091908290030181600087803b15801561294a57600080fd5b505af115801561295e573d6000803e3d6000fd5b505050506040513d602081101561297457600080fd5b5051839063ffffffff612c6c16565b91505b600082118015612a3d5750604080516324c94bb560e21b8152634348414960e01b60048201526024810185905233604482015290516000916001600160a01b037f000000000000000000000000000000000000000000000000000000000000000016916393252ed491606480820192602092909190829003018186803b158015612a0f57600080fd5b505afa158015612a23573d6000803e3d6000fd5b505050506040513d6020811015612a3957600080fd5b5051115b15612af857604080516325d3cd1760e01b8152634348414960e01b6004820152602481018590523060448201523360648201526084810184905290516001600160a01b037f000000000000000000000000000000000000000000000000000000000000000016916325d3cd179160a48083019260209291908290030181600087803b158015612acb57600080fd5b505af1158015612adf573d6000803e3d6000fd5b505050506040513d6020811015612af557600080fd5b50505b610f37612d08565b7f000000000000000000000000000000000000000000000000000000000000000081565b7f000000000000000000000000000000000000000000000000000000000000000081565b6000806000612b568461337b565b60408051631a28ff0560e01b8152336004820152306024820152600019604482015260ff831660648201526084810185905260a48101849052905193965091945092506001600160a01b03871691631a28ff059160c48082019260009290919082900301818387803b158015612bcb57600080fd5b505af1158015612493573d6000803e3d6000fd5b60006001600160801b03821115612c3d576040805162461bcd60e51b815260206004820152601960248201527f5969656c6450726f78793a2043617374206f766572666c6f7700000000000000604482015290519081900360640190fd5b5090565b6000612c636b033b2e3c9fd0803ce800000061182a858563ffffffff6131b016565b90505b92915050565b600082820183811015612c63576040805162461bcd60e51b815260206004820152601b60248201527f536166654d6174683a206164646974696f6e206f766572666c6f770000000000604482015290519081900360640190fd5b6000612c6383836040518060400160405280601e81526020017f536166654d6174683a207375627472616374696f6e206f766572666c6f770000815250613396565b6040805163dd62f42360e01b8152634348414960e01b600482015233602482015290516000916001600160a01b037f0000000000000000000000000000000000000000000000000000000000000000169163dd62f42391604480820192602092909190829003018186803b158015612d7f57600080fd5b505afa158015612d93573d6000803e3d6000fd5b505050506040513d6020811015612da957600080fd5b5051604080516301aa6cff60e51b8152634348414960e01b600482015233602482015290519192506000916001600160a01b037f0000000000000000000000000000000000000000000000000000000000000000169163354d9fe0916044808301926020929190829003018186803b158015612e2457600080fd5b505afa158015612e38573d6000803e3d6000fd5b505050506040513d6020811015612e4e57600080fd5b5051905080821015612ea7576040805162461bcd60e51b815260206004820152601f60248201527f5969656c6450726f78793a20556e646572636f6c6c61746572616c697a656400604482015290519081900360640190fd5b6040805163470660bb60e11b8152634348414960e01b6004820152336024820152306044820152828403606482015290516001600160a01b037f00000000000000000000000000000000000000000000000000000000000000001691638e0cc17691608480830192600092919082900301818387803b158015612f2957600080fd5b505af1158015612f3d573d6000803e3d6000fd5b5050604080516370a0823160e01b8152306004820181905291516001600160a01b037f000000000000000000000000000000000000000000000000000000000000000016945063ef693bed935084916370a08231916024808301926020929190829003018186803b158015612fb157600080fd5b505afa158015612fc5573d6000803e3d6000fd5b505050506040513d6020811015612fdb57600080fd5b5051604080516001600160e01b031960e086901b1681526001600160a01b039093166004840152602483019190915251604480830192600092919082900301818387803b15801561302b57600080fd5b505af115801561303f573d6000803e3d6000fd5b5050604080516370a0823160e01b815230600482015290516001600160a01b037f000000000000000000000000000000000000000000000000000000000000000016935063a9059cbb9250339184916370a0823191602480820192602092909190829003018186803b1580156130b457600080fd5b505afa1580156130c8573d6000803e3d6000fd5b505050506040513d60208110156130de57600080fd5b5051604080516001600160e01b031960e086901b1681526001600160a01b03909316600484015260248301919091525160448083019260209291908290030181600087803b15801561312f57600080fd5b505af1158015613143573d6000803e3d6000fd5b505050506040513d602081101561315957600080fd5b50516131ac576040805162461bcd60e51b815260206004820152601f60248201527f5969656c6450726f78793a20446169205472616e73666572204661696c656400604482015290519081900360640190fd5b5050565b6000826131bf57506000612c66565b828202828482816131cc57fe5b0414612c635760405162461bcd60e51b81526004018080602001828103825260218152602001806134ba6021913960400191505060405180910390fd5b6000612c6383836040518060400160405280601a81526020017f536166654d6174683a206469766973696f6e206279207a65726f00000000000081525061342d565b60008060006132598461337b565b60408051623f675f60e91b8152336004820181905291519497509295509093506001600160a01b03891692638fcbaf0c9289918591637ecebe00916024808301926020929190829003018186803b1580156132b357600080fd5b505afa1580156132c7573d6000803e3d6000fd5b505050506040513d60208110156132dd57600080fd5b5051604080516001600160e01b031960e087901b1681526001600160a01b039485166004820152929093166024830152604482015260001960648201526001608482015260ff851660a482015260c4810187905260e48101869052905161010480830192600092919082900301818387803b15801561335b57600080fd5b505af115801561336f573d6000803e3d6000fd5b50505050505050505050565b60208101516040820151606090920151909260009190911a90565b600081848411156134255760405162461bcd60e51b81526004018080602001828103825283818151815260200191508051906020019080838360005b838110156133ea5781810151838201526020016133d2565b50505050905090810190601f1680156134175780820380516001836020036101000a031916815260200191505b509250505060405180910390fd5b505050900390565b6000818361347c5760405162461bcd60e51b81526020600482018181528351602484015283519092839260449091019190850190808383600083156133ea5781810151838201526020016133d2565b50600083858161348857fe5b049594505050505056fe5969656c6450726f78793a206d696e696d756d4461695072696365206e6f742072656163686564536166654d6174683a206d756c7469706c69636174696f6e206f766572666c6f775969656c6450726f78793a206d696e696d756d46594461695072696365206e6f742072656163686564a264697066735822122070f8423089f0b916ac66f6787667305aa547541e715c6c44aecc47e5c61c0cf764736f6c634300060a0033",
  "immutableReferences": {
    "23151": [
      {
        "length": 32,
        "start": 2174
      },
      {
        "length": 32,
        "start": 2299
      },
      {
        "length": 32,
        "start": 4251
      },
      {
        "length": 32,
        "start": 4927
      },
      {
        "length": 32,
        "start": 5049
      },
      {
        "length": 32,
        "start": 5298
      },
      {
        "length": 32,
        "start": 5420
      },
      {
        "length": 32,
        "start": 5863
      },
      {
        "length": 32,
        "start": 7625
      },
      {
        "length": 32,
        "start": 7750
      },
      {
        "length": 32,
        "start": 9511
      },
      {
        "length": 32,
        "start": 10000
      },
      {
        "length": 32,
        "start": 10125
      },
      {
        "length": 32,
        "start": 11010
      },
      {
        "length": 32,
        "start": 12385
      }
    ],
    "23153": [
      {
        "length": 32,
        "start": 4524
      },
      {
        "length": 32,
        "start": 4646
      },
      {
        "length": 32,
        "start": 4881
      },
      {
        "length": 32,
        "start": 5096
      },
      {
        "length": 32,
        "start": 6344
      },
      {
        "length": 32,
        "start": 6473
      },
      {
        "length": 32,
        "start": 6682
      },
      {
        "length": 32,
        "start": 9659
      },
      {
        "length": 32,
        "start": 12129
      }
    ],
    "23155": [
      {
        "length": 32,
        "start": 1818
      },
      {
        "length": 32,
        "start": 3216
      },
      {
        "length": 32,
        "start": 3403
      },
      {
        "length": 32,
        "start": 3807
      },
      {
        "length": 32,
        "start": 6627
      },
      {
        "length": 32,
        "start": 6919
      },
      {
        "length": 32,
        "start": 8431
      },
      {
        "length": 32,
        "start": 8618
      },
      {
        "length": 32,
        "start": 8828
      },
      {
        "length": 32,
        "start": 9015
      },
      {
        "length": 32,
        "start": 9394
      },
      {
        "length": 32,
        "start": 9576
      },
      {
        "length": 32,
        "start": 10696
      },
      {
        "length": 32,
        "start": 10883
      },
      {
        "length": 32,
        "start": 11046
      },
      {
        "length": 32,
        "start": 11576
      },
      {
        "length": 32,
        "start": 11742
      },
      {
        "length": 32,
        "start": 12002
      }
    ],
    "23157": [
      {
        "length": 32,
        "start": 4478
      },
      {
        "length": 32,
        "start": 4693
      },
      {
        "length": 32,
        "start": 7576
      },
      {
        "length": 32,
        "start": 7797
      },
      {
        "length": 32,
        "start": 9951
      },
      {
        "length": 32,
        "start": 10172
      }
    ]
  },
  "source": "// SPDX-License-Identifier: GPL-3.0-or-later\npragma solidity ^0.6.10;\n\nimport \"../interfaces/IDai.sol\";\nimport \"../interfaces/IPool.sol\";\nimport \"../interfaces/IFYDai.sol\";\nimport \"../interfaces/IChai.sol\";\nimport \"../interfaces/ITreasury.sol\";\nimport \"../interfaces/IController.sol\";\nimport \"../helpers/DecimalMath.sol\";\nimport \"../helpers/SafeCast.sol\";\nimport \"../helpers/YieldAuth.sol\";\n\n\ncontract PoolProxy is DecimalMath {\n    using SafeCast for uint256;\n    using YieldAuth for IController;\n    using YieldAuth for IDai;\n    using YieldAuth for IFYDai;\n    using YieldAuth for IPool;\n\n    IDai public immutable dai;\n    IChai public immutable chai;\n    IController public immutable controller;\n    address immutable treasury;\n\n    bytes32 public constant CHAI = \"CHAI\";\n\n    constructor(address dai_, address chai_, address treasury_, address controller_) public {\n        controller = IController(controller_);\n        treasury = treasury_;\n        dai = IDai(dai_);\n        chai = IChai(chai_);\n    }\n\n    /// @dev Mints liquidity with provided Dai by borrowing fyDai with some of the Dai.\n    /// Caller must have approved the proxy using`controller.addDelegate(yieldProxy)`\n    /// Caller must have approved the dai transfer with `dai.approve(daiUsed)`\n    /// @param daiUsed amount of Dai to use to mint liquidity. \n    /// @param maxFYDai maximum amount of fyDai to be borrowed to mint liquidity. \n    /// @return The amount of liquidity tokens minted.  \n    function addLiquidity(IPool pool, uint256 daiUsed, uint256 maxFYDai) public returns (uint256) {\n        IFYDai fyDai = pool.fyDai();\n        require(fyDai.isMature() != true, \"YieldProxy: Only before maturity\");\n        require(dai.transferFrom(msg.sender, address(this), daiUsed), \"YieldProxy: Transfer Failed\");\n\n        // Allow the Treasury to take chai when posting\n        if (chai.allowance(address(this), treasury) < type(uint256).max) chai.approve(treasury, type(uint256).max);\n\n        // Allow Chai to take dai for wrapping\n        if (dai.allowance(address(this), address(chai)) < type(uint256).max) dai.approve(address(chai), type(uint256).max);\n\n        // Allow pool to take dai for minting\n        if (dai.allowance(address(this), address(pool)) < type(uint256).max) dai.approve(address(pool), type(uint256).max);\n\n        // Allow pool to take fyDai for minting\n        if (fyDai.allowance(address(this), address(pool)) < type(uint112).max) fyDai.approve(address(pool), type(uint256).max);\n\n        // calculate needed fyDai\n        uint256 daiReserves = dai.balanceOf(address(pool));\n        uint256 fyDaiReserves = fyDai.balanceOf(address(pool));\n        uint256 daiToAdd = daiUsed.mul(daiReserves).div(fyDaiReserves.add(daiReserves));\n        uint256 daiToConvert = daiUsed.sub(daiToAdd);\n        require(\n            daiToConvert <= maxFYDai,\n            \"YieldProxy: maxFYDai exceeded\"\n        ); // 1 Dai == 1 fyDai\n\n        // convert dai to chai and borrow needed fyDai\n        chai.join(address(this), daiToConvert);\n        // look at the balance of chai in dai to avoid rounding issues\n        uint256 toBorrow = chai.dai(address(this));\n        controller.post(CHAI, address(this), msg.sender, chai.balanceOf(address(this)));\n        controller.borrow(CHAI, fyDai.maturity(), msg.sender, address(this), toBorrow);\n        \n        // mint liquidity tokens\n        return pool.mint(address(this), msg.sender, daiToAdd);\n    }\n\n    /// @dev Burns tokens and sells Dai proceedings for fyDai. Pays as much debt as possible, then sells back any remaining fyDai for Dai. Then returns all Dai, and if there is no debt in the Controller, all posted Chai.\n    /// Caller must have approved the proxy using`controller.addDelegate(yieldProxy)` and `pool.addDelegate(yieldProxy)`\n    /// @param poolTokens amount of pool tokens to burn. \n    /// @param minimumDaiPrice minimum fyDai/Dai price to be accepted when internally selling Dai.\n    /// @param minimumFYDaiPrice minimum Dai/fyDai price to be accepted when internally selling fyDai.\n    function removeLiquidityEarlyDaiPool(IPool pool, uint256 poolTokens, uint256 minimumDaiPrice, uint256 minimumFYDaiPrice) public {\n\n        IFYDai fyDai = pool.fyDai();\n        uint256 maturity = fyDai.maturity();\n\n        // Allow pool to take dai for trading\n        if (dai.allowance(address(this), address(pool)) < type(uint256).max) dai.approve(address(pool), type(uint256).max);\n\n        // Allow pool to take fyDai for trading\n        if (fyDai.allowance(address(this), address(pool)) < type(uint112).max) fyDai.approve(address(pool), type(uint256).max);\n\n        (uint256 daiObtained, uint256 fyDaiObtained) = pool.burn(msg.sender, address(this), poolTokens);\n\n        // Exchange Dai for fyDai to pay as much debt as possible\n        uint256 fyDaiBought = pool.sellDai(address(this), address(this), daiObtained.toUint128());\n        require(\n            fyDaiBought >= muld(daiObtained, minimumDaiPrice),\n            \"YieldProxy: minimumDaiPrice not reached\"\n        );\n        fyDaiObtained = fyDaiObtained.add(fyDaiBought);\n        \n        uint256 fyDaiUsed;\n        if (fyDaiObtained > 0 && controller.debtFYDai(CHAI, maturity, msg.sender) > 0) {\n            fyDaiUsed = controller.repayFYDai(CHAI, maturity, address(this), msg.sender, fyDaiObtained);\n        }\n        uint256 fyDaiRemaining = fyDaiObtained.sub(fyDaiUsed);\n\n        if (fyDaiRemaining > 0) {// There is fyDai left, so exchange it for Dai to withdraw only Dai and Chai\n            require(\n                pool.sellFYDai(address(this), address(this), uint128(fyDaiRemaining)) >= muld(fyDaiRemaining, minimumFYDaiPrice),\n                \"YieldProxy: minimumFYDaiPrice not reached\"\n            );\n        }\n        withdrawAssets();\n    }\n\n    /// @dev Burns tokens and repays debt with proceedings. Sells any excess fyDai for Dai, then returns all Dai, and if there is no debt in the Controller, all posted Chai.\n    /// Caller must have approved the proxy using`controller.addDelegate(yieldProxy)` and `pool.addDelegate(yieldProxy)`\n    /// Caller must have approved the liquidity burn with `pool.approve(poolTokens)`\n    /// @param poolTokens amount of pool tokens to burn. \n    /// @param minimumFYDaiPrice minimum Dai/fyDai price to be accepted when internally selling fyDai.\n    function removeLiquidityEarlyDaiFixed(IPool pool, uint256 poolTokens, uint256 minimumFYDaiPrice) public {\n\n        IFYDai fyDai = pool.fyDai();\n        uint256 maturity = fyDai.maturity();\n\n        // Allow the Treasury to take dai for repaying\n        if (dai.allowance(address(this), treasury) < type(uint256).max) dai.approve(treasury, type(uint256).max);\n\n        // Allow pool to take fyDai for trading\n        if (fyDai.allowance(address(this), address(pool)) < type(uint112).max) fyDai.approve(address(pool), type(uint256).max);\n\n        (uint256 daiObtained, uint256 fyDaiObtained) = pool.burn(msg.sender, address(this), poolTokens);\n        uint256 fyDaiUsed;\n        if (fyDaiObtained > 0 && controller.debtFYDai(CHAI, maturity, msg.sender) > 0) {\n            fyDaiUsed = controller.repayFYDai(CHAI, maturity, address(this), msg.sender, fyDaiObtained);\n        }\n\n        uint256 fyDaiRemaining = fyDaiObtained.sub(fyDaiUsed);\n        if (fyDaiRemaining == 0) { // We used all the fyDai, so probably there is debt left, so pay with Dai\n            if (daiObtained > 0 && controller.debtFYDai(CHAI, maturity, msg.sender) > 0) {\n                controller.repayDai(CHAI, maturity, address(this), msg.sender, daiObtained);\n            }\n        } else { // Exchange remaining fyDai for Dai to withdraw only Dai and Chai\n            require(\n                pool.sellFYDai(address(this), address(this), uint128(fyDaiRemaining)) >= muld(fyDaiRemaining, minimumFYDaiPrice),\n                \"YieldProxy: minimumFYDaiPrice not reached\"\n            );\n        }\n        withdrawAssets();\n    }\n\n    /// @dev Burns tokens and repays fyDai debt after Maturity. \n    /// Caller must have approved the proxy using`controller.addDelegate(yieldProxy)`\n    /// @param poolTokens amount of pool tokens to burn.\n    function removeLiquidityMature(IPool pool, uint256 poolTokens) public {\n\n        IFYDai fyDai = pool.fyDai();\n        uint256 maturity = fyDai.maturity();\n\n        // Allow the Treasury to take dai for repaying\n        if (dai.allowance(address(this), treasury) < type(uint256).max) dai.approve(treasury, type(uint256).max);\n\n        (uint256 daiObtained, uint256 fyDaiObtained) = pool.burn(msg.sender, address(this), poolTokens);\n        if (fyDaiObtained > 0) {\n            daiObtained = daiObtained.add(fyDai.redeem(address(this), address(this), fyDaiObtained));\n        }\n        \n        // Repay debt\n        if (daiObtained > 0 && controller.debtFYDai(CHAI, maturity, msg.sender) > 0) {\n            controller.repayDai(CHAI, maturity, address(this), msg.sender, daiObtained);\n        }\n        withdrawAssets();\n    }\n\n    /// @dev Return to caller all posted chai if there is no debt, converted to dai, plus any dai remaining in the contract.\n    function withdrawAssets() internal {\n        uint256 posted = controller.posted(CHAI, msg.sender);\n        uint256 locked = controller.locked(CHAI, msg.sender);\n        require (posted >= locked, \"YieldProxy: Undercollateralized\");\n        controller.withdraw(CHAI, msg.sender, address(this), posted - locked);\n        chai.exit(address(this), chai.balanceOf(address(this)));\n        require(dai.transfer(msg.sender, dai.balanceOf(address(this))), \"YieldProxy: Dai Transfer Failed\");\n    }\n\n    /// --------------------------------------------------\n    /// Signature method wrappers\n    /// --------------------------------------------------\n\n    /// @dev Mints liquidity with provided Dai by borrowing fyDai with some of the Dai.\n    /// Caller must have approved the proxy using`controller.addDelegate(yieldProxy)`\n    /// Caller must have approved the dai transfer with `dai.approve(daiUsed)`\n    /// @param daiUsed amount of Dai to use to mint liquidity. \n    /// @param maxFYDai maximum amount of fyDai to be borrowed to mint liquidity.\n    /// @param daiSig packed signature for permit of dai transfers to this proxy. Ignored if '0x'.\n    /// @param controllerSig packed signature for delegation of this proxy in the controller. Ignored if '0x'.\n    /// @return The amount of liquidity tokens minted.  \n    function addLiquidityWithSignature(\n        IPool pool,\n        uint256 daiUsed,\n        uint256 maxFYDai,\n        bytes memory daiSig,\n        bytes memory controllerSig\n    ) external returns (uint256) {\n        if (daiSig.length > 0) dai.permitPackedDai(address(this), daiSig);\n        if (controllerSig.length > 0) controller.addDelegatePacked(controllerSig);\n        return addLiquidity(pool, daiUsed, maxFYDai);\n    }\n\n    /// @dev Burns tokens and sells Dai proceedings for fyDai. Pays as much debt as possible, then sells back any remaining fyDai for Dai. Then returns all Dai, and all unlocked Chai.\n    /// @param poolTokens amount of pool tokens to burn. \n    /// @param minimumDaiPrice minimum fyDai/Dai price to be accepted when internally selling Dai.\n    /// @param minimumFYDaiPrice minimum Dai/fyDai price to be accepted when internally selling fyDai.\n    /// @param controllerSig packed signature for delegation of this proxy in the controller. Ignored if '0x'.\n    /// @param poolSig packed signature for delegation of this proxy in a pool. Ignored if '0x'.\n    function removeLiquidityEarlyDaiPoolWithSignature(\n        IPool pool,\n        uint256 poolTokens,\n        uint256 minimumDaiPrice,\n        uint256 minimumFYDaiPrice,\n        bytes memory controllerSig,\n        bytes memory poolSig\n    ) public {\n        if (controllerSig.length > 0) controller.addDelegatePacked(controllerSig);\n        if (poolSig.length > 0) pool.addDelegatePacked(poolSig);\n        removeLiquidityEarlyDaiPool(pool, poolTokens, minimumDaiPrice, minimumFYDaiPrice);\n    }\n\n    /// @dev Burns tokens and repays debt with proceedings. Sells any excess fyDai for Dai, then returns all Dai, and all unlocked Chai.\n    /// @param poolTokens amount of pool tokens to burn. \n    /// @param minimumFYDaiPrice minimum Dai/fyDai price to be accepted when internally selling fyDai.\n    /// @param controllerSig packed signature for delegation of this proxy in the controller. Ignored if '0x'.\n    /// @param poolSig packed signature for delegation of this proxy in a pool. Ignored if '0x'.\n    function removeLiquidityEarlyDaiFixedWithSignature(\n        IPool pool,\n        uint256 poolTokens,\n        uint256 minimumFYDaiPrice,\n        bytes memory controllerSig,\n        bytes memory poolSig\n    ) public {\n        if (controllerSig.length > 0) controller.addDelegatePacked(controllerSig);\n        if (poolSig.length > 0) pool.addDelegatePacked(poolSig);\n        removeLiquidityEarlyDaiFixed(pool, poolTokens, minimumFYDaiPrice);\n    }\n\n    /// @dev Burns tokens and repays fyDai debt after Maturity.\n    /// @param poolTokens amount of pool tokens to burn.\n    /// @param controllerSig packed signature for delegation of this proxy in the controller. Ignored if '0x'.\n    /// @param poolSig packed signature for delegation of this proxy in a pool. Ignored if '0x'.\n    function removeLiquidityMatureWithSignature(\n        IPool pool,\n        uint256 poolTokens,\n        bytes memory controllerSig,\n        bytes memory poolSig\n    ) external {\n        if (controllerSig.length > 0) controller.addDelegatePacked(controllerSig);\n        if (poolSig.length > 0) pool.addDelegatePacked(poolSig);\n        removeLiquidityMature(pool, poolTokens);\n    }\n}\n",
  "sourcePath": "/Users/brucedonovan/dev/yield/yDai/contracts/peripheral/PoolProxy.sol",
  "compiler": {
    "name": "solc",
    "version": "0.6.10+commit.00c0fcaf.Emscripten.clang"
  },
  "schemaVersion": "3.2.3",
  "updatedAt": "2020-11-12T09:01:49.562Z",
  "devdoc": {
    "methods": {
      "addLiquidity(address,uint256,uint256)": {
        "details": "Mints liquidity with provided Dai by borrowing fyDai with some of the Dai. Caller must have approved the proxy using`controller.addDelegate(yieldProxy)` Caller must have approved the dai transfer with `dai.approve(daiUsed)`",
        "params": {
          "daiUsed": "amount of Dai to use to mint liquidity. ",
          "maxFYDai": "maximum amount of fyDai to be borrowed to mint liquidity. "
        },
        "returns": {
          "_0": "The amount of liquidity tokens minted.  "
        }
      },
      "addLiquidityWithSignature(address,uint256,uint256,bytes,bytes)": {
        "details": "Mints liquidity with provided Dai by borrowing fyDai with some of the Dai. Caller must have approved the proxy using`controller.addDelegate(yieldProxy)` Caller must have approved the dai transfer with `dai.approve(daiUsed)`",
        "params": {
          "controllerSig": "packed signature for delegation of this proxy in the controller. Ignored if '0x'.",
          "daiSig": "packed signature for permit of dai transfers to this proxy. Ignored if '0x'.",
          "daiUsed": "amount of Dai to use to mint liquidity. ",
          "maxFYDai": "maximum amount of fyDai to be borrowed to mint liquidity."
        },
        "returns": {
          "_0": "The amount of liquidity tokens minted.  "
        }
      },
      "removeLiquidityEarlyDaiFixed(address,uint256,uint256)": {
        "details": "Burns tokens and repays debt with proceedings. Sells any excess fyDai for Dai, then returns all Dai, and if there is no debt in the Controller, all posted Chai. Caller must have approved the proxy using`controller.addDelegate(yieldProxy)` and `pool.addDelegate(yieldProxy)` Caller must have approved the liquidity burn with `pool.approve(poolTokens)`",
        "params": {
          "minimumFYDaiPrice": "minimum Dai/fyDai price to be accepted when internally selling fyDai.",
          "poolTokens": "amount of pool tokens to burn. "
        }
      },
      "removeLiquidityEarlyDaiFixedWithSignature(address,uint256,uint256,bytes,bytes)": {
        "details": "Burns tokens and repays debt with proceedings. Sells any excess fyDai for Dai, then returns all Dai, and all unlocked Chai.",
        "params": {
          "controllerSig": "packed signature for delegation of this proxy in the controller. Ignored if '0x'.",
          "minimumFYDaiPrice": "minimum Dai/fyDai price to be accepted when internally selling fyDai.",
          "poolSig": "packed signature for delegation of this proxy in a pool. Ignored if '0x'.",
          "poolTokens": "amount of pool tokens to burn. "
        }
      },
      "removeLiquidityEarlyDaiPool(address,uint256,uint256,uint256)": {
        "details": "Burns tokens and sells Dai proceedings for fyDai. Pays as much debt as possible, then sells back any remaining fyDai for Dai. Then returns all Dai, and if there is no debt in the Controller, all posted Chai. Caller must have approved the proxy using`controller.addDelegate(yieldProxy)` and `pool.addDelegate(yieldProxy)`",
        "params": {
          "minimumDaiPrice": "minimum fyDai/Dai price to be accepted when internally selling Dai.",
          "minimumFYDaiPrice": "minimum Dai/fyDai price to be accepted when internally selling fyDai.",
          "poolTokens": "amount of pool tokens to burn. "
        }
      },
      "removeLiquidityEarlyDaiPoolWithSignature(address,uint256,uint256,uint256,bytes,bytes)": {
        "details": "Burns tokens and sells Dai proceedings for fyDai. Pays as much debt as possible, then sells back any remaining fyDai for Dai. Then returns all Dai, and all unlocked Chai.",
        "params": {
          "controllerSig": "packed signature for delegation of this proxy in the controller. Ignored if '0x'.",
          "minimumDaiPrice": "minimum fyDai/Dai price to be accepted when internally selling Dai.",
          "minimumFYDaiPrice": "minimum Dai/fyDai price to be accepted when internally selling fyDai.",
          "poolSig": "packed signature for delegation of this proxy in a pool. Ignored if '0x'.",
          "poolTokens": "amount of pool tokens to burn. "
        }
      },
      "removeLiquidityMature(address,uint256)": {
        "details": "Burns tokens and repays fyDai debt after Maturity.  Caller must have approved the proxy using`controller.addDelegate(yieldProxy)`",
        "params": {
          "poolTokens": "amount of pool tokens to burn."
        }
      },
      "removeLiquidityMatureWithSignature(address,uint256,bytes,bytes)": {
        "details": "Burns tokens and repays fyDai debt after Maturity.",
        "params": {
          "controllerSig": "packed signature for delegation of this proxy in the controller. Ignored if '0x'.",
          "poolSig": "packed signature for delegation of this proxy in a pool. Ignored if '0x'.",
          "poolTokens": "amount of pool tokens to burn."
        }
      }
    }
  },
  "userdoc": {
    "methods": {}
  }
}