{
  "contractName": "Pool",
  "abi": [
    {
      "inputs": [
        {
          "internalType": "address",
          "name": "dai_",
          "type": "address"
        },
        {
          "internalType": "address",
          "name": "yDai_",
          "type": "address"
        },
        {
          "internalType": "string",
          "name": "name_",
          "type": "string"
        },
        {
          "internalType": "string",
          "name": "symbol_",
          "type": "string"
        }
      ],
      "stateMutability": "nonpayable",
      "type": "constructor"
    },
    {
      "anonymous": false,
      "inputs": [
        {
          "indexed": true,
          "internalType": "address",
          "name": "owner",
          "type": "address"
        },
        {
          "indexed": true,
          "internalType": "address",
          "name": "spender",
          "type": "address"
        },
        {
          "indexed": false,
          "internalType": "uint256",
          "name": "value",
          "type": "uint256"
        }
      ],
      "name": "Approval",
      "type": "event"
    },
    {
      "anonymous": false,
      "inputs": [
        {
          "indexed": true,
          "internalType": "address",
          "name": "user",
          "type": "address"
        },
        {
          "indexed": true,
          "internalType": "address",
          "name": "delegate",
          "type": "address"
        },
        {
          "indexed": false,
          "internalType": "bool",
          "name": "enabled",
          "type": "bool"
        }
      ],
      "name": "Delegate",
      "type": "event"
    },
    {
      "anonymous": false,
      "inputs": [
        {
          "indexed": false,
          "internalType": "uint256",
          "name": "maturity",
          "type": "uint256"
        },
        {
          "indexed": true,
          "internalType": "address",
          "name": "from",
          "type": "address"
        },
        {
          "indexed": true,
          "internalType": "address",
          "name": "to",
          "type": "address"
        },
        {
          "indexed": false,
          "internalType": "int256",
          "name": "daiTokens",
          "type": "int256"
        },
        {
          "indexed": false,
          "internalType": "int256",
          "name": "yDaiTokens",
          "type": "int256"
        },
        {
          "indexed": false,
          "internalType": "int256",
          "name": "poolTokens",
          "type": "int256"
        }
      ],
      "name": "Liquidity",
      "type": "event"
    },
    {
      "anonymous": false,
      "inputs": [
        {
          "indexed": false,
          "internalType": "uint256",
          "name": "maturity",
          "type": "uint256"
        },
        {
          "indexed": true,
          "internalType": "address",
          "name": "from",
          "type": "address"
        },
        {
          "indexed": true,
          "internalType": "address",
          "name": "to",
          "type": "address"
        },
        {
          "indexed": false,
          "internalType": "int256",
          "name": "daiTokens",
          "type": "int256"
        },
        {
          "indexed": false,
          "internalType": "int256",
          "name": "yDaiTokens",
          "type": "int256"
        }
      ],
      "name": "Trade",
      "type": "event"
    },
    {
      "anonymous": false,
      "inputs": [
        {
          "indexed": true,
          "internalType": "address",
          "name": "from",
          "type": "address"
        },
        {
          "indexed": true,
          "internalType": "address",
          "name": "to",
          "type": "address"
        },
        {
          "indexed": false,
          "internalType": "uint256",
          "name": "value",
          "type": "uint256"
        }
      ],
      "name": "Transfer",
      "type": "event"
    },
    {
      "inputs": [],
      "name": "DELEGABLE_DOMAIN",
      "outputs": [
        {
          "internalType": "bytes32",
          "name": "",
          "type": "bytes32"
        }
      ],
      "stateMutability": "view",
      "type": "function",
      "constant": true
    },
    {
      "inputs": [],
      "name": "DOMAIN_SEPARATOR",
      "outputs": [
        {
          "internalType": "bytes32",
          "name": "",
          "type": "bytes32"
        }
      ],
      "stateMutability": "view",
      "type": "function",
      "constant": true
    },
    {
      "inputs": [],
      "name": "PERMIT_TYPEHASH",
      "outputs": [
        {
          "internalType": "bytes32",
          "name": "",
          "type": "bytes32"
        }
      ],
      "stateMutability": "view",
      "type": "function",
      "constant": true
    },
    {
      "inputs": [],
      "name": "SIGNATURE_TYPEHASH",
      "outputs": [
        {
          "internalType": "bytes32",
          "name": "",
          "type": "bytes32"
        }
      ],
      "stateMutability": "view",
      "type": "function",
      "constant": true
    },
    {
      "inputs": [
        {
          "internalType": "address",
          "name": "delegate",
          "type": "address"
        }
      ],
      "name": "addDelegate",
      "outputs": [],
      "stateMutability": "nonpayable",
      "type": "function"
    },
    {
      "inputs": [
        {
          "internalType": "address",
          "name": "user",
          "type": "address"
        },
        {
          "internalType": "address",
          "name": "delegate",
          "type": "address"
        },
        {
          "internalType": "uint256",
          "name": "deadline",
          "type": "uint256"
        },
        {
          "internalType": "uint8",
          "name": "v",
          "type": "uint8"
        },
        {
          "internalType": "bytes32",
          "name": "r",
          "type": "bytes32"
        },
        {
          "internalType": "bytes32",
          "name": "s",
          "type": "bytes32"
        }
      ],
      "name": "addDelegateBySignature",
      "outputs": [],
      "stateMutability": "nonpayable",
      "type": "function"
    },
    {
      "inputs": [
        {
          "internalType": "address",
          "name": "owner",
          "type": "address"
        },
        {
          "internalType": "address",
          "name": "spender",
          "type": "address"
        }
      ],
      "name": "allowance",
      "outputs": [
        {
          "internalType": "uint256",
          "name": "",
          "type": "uint256"
        }
      ],
      "stateMutability": "view",
      "type": "function",
      "constant": true
    },
    {
      "inputs": [
        {
          "internalType": "address",
          "name": "spender",
          "type": "address"
        },
        {
          "internalType": "uint256",
          "name": "amount",
          "type": "uint256"
        }
      ],
      "name": "approve",
      "outputs": [
        {
          "internalType": "bool",
          "name": "",
          "type": "bool"
        }
      ],
      "stateMutability": "nonpayable",
      "type": "function"
    },
    {
      "inputs": [
        {
          "internalType": "address",
          "name": "account",
          "type": "address"
        }
      ],
      "name": "balanceOf",
      "outputs": [
        {
          "internalType": "uint256",
          "name": "",
          "type": "uint256"
        }
      ],
      "stateMutability": "view",
      "type": "function",
      "constant": true
    },
    {
      "inputs": [],
      "name": "dai",
      "outputs": [
        {
          "internalType": "contract IERC20",
          "name": "",
          "type": "address"
        }
      ],
      "stateMutability": "view",
      "type": "function",
      "constant": true
    },
    {
      "inputs": [],
      "name": "decimals",
      "outputs": [
        {
          "internalType": "uint8",
          "name": "",
          "type": "uint8"
        }
      ],
      "stateMutability": "view",
      "type": "function",
      "constant": true
    },
    {
      "inputs": [
        {
          "internalType": "address",
          "name": "spender",
          "type": "address"
        },
        {
          "internalType": "uint256",
          "name": "subtractedValue",
          "type": "uint256"
        }
      ],
      "name": "decreaseAllowance",
      "outputs": [
        {
          "internalType": "bool",
          "name": "",
          "type": "bool"
        }
      ],
      "stateMutability": "nonpayable",
      "type": "function"
    },
    {
      "inputs": [
        {
          "internalType": "address",
          "name": "",
          "type": "address"
        },
        {
          "internalType": "address",
          "name": "",
          "type": "address"
        }
      ],
      "name": "delegated",
      "outputs": [
        {
          "internalType": "bool",
          "name": "",
          "type": "bool"
        }
      ],
      "stateMutability": "view",
      "type": "function",
      "constant": true
    },
    {
      "inputs": [],
      "name": "g1",
      "outputs": [
        {
          "internalType": "int128",
          "name": "",
          "type": "int128"
        }
      ],
      "stateMutability": "view",
      "type": "function",
      "constant": true
    },
    {
      "inputs": [],
      "name": "g2",
      "outputs": [
        {
          "internalType": "int128",
          "name": "",
          "type": "int128"
        }
      ],
      "stateMutability": "view",
      "type": "function",
      "constant": true
    },
    {
      "inputs": [
        {
          "internalType": "address",
          "name": "spender",
          "type": "address"
        },
        {
          "internalType": "uint256",
          "name": "addedValue",
          "type": "uint256"
        }
      ],
      "name": "increaseAllowance",
      "outputs": [
        {
          "internalType": "bool",
          "name": "",
          "type": "bool"
        }
      ],
      "stateMutability": "nonpayable",
      "type": "function"
    },
    {
      "inputs": [],
      "name": "k",
      "outputs": [
        {
          "internalType": "int128",
          "name": "",
          "type": "int128"
        }
      ],
      "stateMutability": "view",
      "type": "function",
      "constant": true
    },
    {
      "inputs": [],
      "name": "maturity",
      "outputs": [
        {
          "internalType": "uint128",
          "name": "",
          "type": "uint128"
        }
      ],
      "stateMutability": "view",
      "type": "function",
      "constant": true
    },
    {
      "inputs": [],
      "name": "name",
      "outputs": [
        {
          "internalType": "string",
          "name": "",
          "type": "string"
        }
      ],
      "stateMutability": "view",
      "type": "function",
      "constant": true
    },
    {
      "inputs": [
        {
          "internalType": "address",
          "name": "",
          "type": "address"
        }
      ],
      "name": "nonces",
      "outputs": [
        {
          "internalType": "uint256",
          "name": "",
          "type": "uint256"
        }
      ],
      "stateMutability": "view",
      "type": "function",
      "constant": true
    },
    {
      "inputs": [
        {
          "internalType": "address",
          "name": "owner",
          "type": "address"
        },
        {
          "internalType": "address",
          "name": "spender",
          "type": "address"
        },
        {
          "internalType": "uint256",
          "name": "amount",
          "type": "uint256"
        },
        {
          "internalType": "uint256",
          "name": "deadline",
          "type": "uint256"
        },
        {
          "internalType": "uint8",
          "name": "v",
          "type": "uint8"
        },
        {
          "internalType": "bytes32",
          "name": "r",
          "type": "bytes32"
        },
        {
          "internalType": "bytes32",
          "name": "s",
          "type": "bytes32"
        }
      ],
      "name": "permit",
      "outputs": [],
      "stateMutability": "nonpayable",
      "type": "function"
    },
    {
      "inputs": [
        {
          "internalType": "address",
          "name": "delegate",
          "type": "address"
        }
      ],
      "name": "revokeDelegate",
      "outputs": [],
      "stateMutability": "nonpayable",
      "type": "function"
    },
    {
      "inputs": [
        {
          "internalType": "address",
          "name": "",
          "type": "address"
        }
      ],
      "name": "signatureCount",
      "outputs": [
        {
          "internalType": "uint256",
          "name": "",
          "type": "uint256"
        }
      ],
      "stateMutability": "view",
      "type": "function",
      "constant": true
    },
    {
      "inputs": [],
      "name": "symbol",
      "outputs": [
        {
          "internalType": "string",
          "name": "",
          "type": "string"
        }
      ],
      "stateMutability": "view",
      "type": "function",
      "constant": true
    },
    {
      "inputs": [],
      "name": "totalSupply",
      "outputs": [
        {
          "internalType": "uint256",
          "name": "",
          "type": "uint256"
        }
      ],
      "stateMutability": "view",
      "type": "function",
      "constant": true
    },
    {
      "inputs": [
        {
          "internalType": "address",
          "name": "recipient",
          "type": "address"
        },
        {
          "internalType": "uint256",
          "name": "amount",
          "type": "uint256"
        }
      ],
      "name": "transfer",
      "outputs": [
        {
          "internalType": "bool",
          "name": "",
          "type": "bool"
        }
      ],
      "stateMutability": "nonpayable",
      "type": "function"
    },
    {
      "inputs": [
        {
          "internalType": "address",
          "name": "sender",
          "type": "address"
        },
        {
          "internalType": "address",
          "name": "recipient",
          "type": "address"
        },
        {
          "internalType": "uint256",
          "name": "amount",
          "type": "uint256"
        }
      ],
      "name": "transferFrom",
      "outputs": [
        {
          "internalType": "bool",
          "name": "",
          "type": "bool"
        }
      ],
      "stateMutability": "nonpayable",
      "type": "function"
    },
    {
      "inputs": [],
      "name": "yDai",
      "outputs": [
        {
          "internalType": "contract IYDai",
          "name": "",
          "type": "address"
        }
      ],
      "stateMutability": "view",
      "type": "function",
      "constant": true
    },
    {
      "inputs": [
        {
          "internalType": "uint128",
          "name": "daiIn",
          "type": "uint128"
        }
      ],
      "name": "init",
      "outputs": [],
      "stateMutability": "nonpayable",
      "type": "function"
    },
    {
      "inputs": [
        {
          "internalType": "address",
          "name": "from",
          "type": "address"
        },
        {
          "internalType": "address",
          "name": "to",
          "type": "address"
        },
        {
          "internalType": "uint256",
          "name": "daiOffered",
          "type": "uint256"
        }
      ],
      "name": "mint",
      "outputs": [
        {
          "internalType": "uint256",
          "name": "",
          "type": "uint256"
        }
      ],
      "stateMutability": "nonpayable",
      "type": "function"
    },
    {
      "inputs": [
        {
          "internalType": "address",
          "name": "from",
          "type": "address"
        },
        {
          "internalType": "address",
          "name": "to",
          "type": "address"
        },
        {
          "internalType": "uint256",
          "name": "tokensBurned",
          "type": "uint256"
        }
      ],
      "name": "burn",
      "outputs": [
        {
          "internalType": "uint256",
          "name": "",
          "type": "uint256"
        },
        {
          "internalType": "uint256",
          "name": "",
          "type": "uint256"
        }
      ],
      "stateMutability": "nonpayable",
      "type": "function"
    },
    {
      "inputs": [
        {
          "internalType": "address",
          "name": "from",
          "type": "address"
        },
        {
          "internalType": "address",
          "name": "to",
          "type": "address"
        },
        {
          "internalType": "uint128",
          "name": "daiIn",
          "type": "uint128"
        }
      ],
      "name": "sellDai",
      "outputs": [
        {
          "internalType": "uint128",
          "name": "",
          "type": "uint128"
        }
      ],
      "stateMutability": "nonpayable",
      "type": "function"
    },
    {
      "inputs": [
        {
          "internalType": "uint128",
          "name": "daiIn",
          "type": "uint128"
        }
      ],
      "name": "sellDaiPreview",
      "outputs": [
        {
          "internalType": "uint128",
          "name": "",
          "type": "uint128"
        }
      ],
      "stateMutability": "view",
      "type": "function",
      "constant": true
    },
    {
      "inputs": [
        {
          "internalType": "address",
          "name": "from",
          "type": "address"
        },
        {
          "internalType": "address",
          "name": "to",
          "type": "address"
        },
        {
          "internalType": "uint128",
          "name": "daiOut",
          "type": "uint128"
        }
      ],
      "name": "buyDai",
      "outputs": [
        {
          "internalType": "uint128",
          "name": "",
          "type": "uint128"
        }
      ],
      "stateMutability": "nonpayable",
      "type": "function"
    },
    {
      "inputs": [
        {
          "internalType": "uint128",
          "name": "daiOut",
          "type": "uint128"
        }
      ],
      "name": "buyDaiPreview",
      "outputs": [
        {
          "internalType": "uint128",
          "name": "",
          "type": "uint128"
        }
      ],
      "stateMutability": "view",
      "type": "function",
      "constant": true
    },
    {
      "inputs": [
        {
          "internalType": "address",
          "name": "from",
          "type": "address"
        },
        {
          "internalType": "address",
          "name": "to",
          "type": "address"
        },
        {
          "internalType": "uint128",
          "name": "yDaiIn",
          "type": "uint128"
        }
      ],
      "name": "sellYDai",
      "outputs": [
        {
          "internalType": "uint128",
          "name": "",
          "type": "uint128"
        }
      ],
      "stateMutability": "nonpayable",
      "type": "function"
    },
    {
      "inputs": [
        {
          "internalType": "uint128",
          "name": "yDaiIn",
          "type": "uint128"
        }
      ],
      "name": "sellYDaiPreview",
      "outputs": [
        {
          "internalType": "uint128",
          "name": "",
          "type": "uint128"
        }
      ],
      "stateMutability": "view",
      "type": "function",
      "constant": true
    },
    {
      "inputs": [
        {
          "internalType": "address",
          "name": "from",
          "type": "address"
        },
        {
          "internalType": "address",
          "name": "to",
          "type": "address"
        },
        {
          "internalType": "uint128",
          "name": "yDaiOut",
          "type": "uint128"
        }
      ],
      "name": "buyYDai",
      "outputs": [
        {
          "internalType": "uint128",
          "name": "",
          "type": "uint128"
        }
      ],
      "stateMutability": "nonpayable",
      "type": "function"
    },
    {
      "inputs": [
        {
          "internalType": "uint128",
          "name": "yDaiOut",
          "type": "uint128"
        }
      ],
      "name": "buyYDaiPreview",
      "outputs": [
        {
          "internalType": "uint128",
          "name": "",
          "type": "uint128"
        }
      ],
      "stateMutability": "view",
      "type": "function",
      "constant": true
    },
    {
      "inputs": [],
      "name": "getYDaiReserves",
      "outputs": [
        {
          "internalType": "uint128",
          "name": "",
          "type": "uint128"
        }
      ],
      "stateMutability": "view",
      "type": "function",
      "constant": true
    },
    {
      "inputs": [],
      "name": "getDaiReserves",
      "outputs": [
        {
          "internalType": "uint128",
          "name": "",
          "type": "uint128"
        }
      ],
      "stateMutability": "view",
      "type": "function",
      "constant": true
    }
  ],
  "bytecode": "0x61012060408190527f0d077601844dd17f704bafff948229d27f33b57445915754dfe3d095fda2beb7608052806052620054b9823960405190819003605201902060c052503480156200005157600080fd5b506040516200555d3803806200555d833981810160405260808110156200007757600080fd5b81516020830151604080850180519151939592948301929184640100000000821115620000a357600080fd5b908301906020820185811115620000b957600080fd5b8251640100000000811182820188101715620000d457600080fd5b82525081516020918201929091019080838360005b8381101562000103578181015183820152602001620000e9565b50505050905090810190601f168015620001315780820380516001836020036101000a031916815260200191505b50604052602001805160405193929190846401000000008211156200015557600080fd5b9083019060208201858111156200016b57600080fd5b82516401000000008111828201881017156200018657600080fd5b82525081516020918201929091019080838360005b83811015620001b55781810151838201526020016200019b565b50505050905090810190601f168015620001e35780820380516001836020036101000a031916815260200191505b50604052505050818181818160039080519060200190620002069291906200049d565b5080516200021c9060049060208401906200049d565b50506005805460ff191660121790555060405146908060526200550b8239604080516052928190038301812081830183526005825264165a595b1960da1b6020928301528251808401845260018152603160f81b908301528251808301919091527f0dc8618f4925c4319195a39ada16304f511bf885ff9f3d63bc6b0f3979e46fb68184015260008051602062005499833981519152606082015260808101959095523060a08087019190915282518087038201815260c090960192839052855195909101949094209093524692915081906200550b8239604080519182900360520182208651602097880120838301835260018452603160f81b938801939093528151808801919091528082019290925260008051602062005499833981519152606083015260808201939093523060a0808301919091528351808303909101815260c0820180855281519187019190912060e052600980546001600160a01b038c81166001600160a01b031992831617909255600a80548c84169216919091179081905563204f83f960e01b90925293516200041e9691909416945063204f83f99360c480840194509192909190829003018186803b158015620003e157600080fd5b505afa158015620003f6573d6000803e3d6000fd5b505050506040513d60208110156200040d57600080fd5b50516001600160e01b036200043a16565b60801b6001600160801b03191661010052506200053792505050565b60006001600160801b0382111562000499576040805162461bcd60e51b815260206004820152601360248201527f506f6f6c3a2043617374206f766572666c6f7700000000000000000000000000604482015290519081900360640190fd5b5090565b828054600181600116156101000203166002900490600052602060002090601f016020900481019282601f10620004e057805160ff191683800117855562000510565b8280016001018555821562000510579182015b8281111562000510578251825591602001919060010190620004f3565b506200049992620005349250905b808211156200049957600081556001016200051e565b90565b60805160a05160c05160e0516101005160801c614ebb620005de6000398061097952806109ff5280610c695280610cfb5280610dc25280610f3f5280610fc552806110d45280611166528061122a52806113b752806116fd52806119ca5280611d9e5280612019528061225a52806128ce525080610ea1528061238c525080610e74528061231f525080610b265280610f19525080610ac152806117aa5250614ebb6000f3fe608060405234801561001057600080fd5b50600436106102535760003560e01c80639f1f7f6f11610146578063c6c3bbe6116100c3578063dd62ed3e11610087578063dd62ed3e146107bc578063e71bdf41146107ea578063f4b9fa7514610810578063f6b911bc14610818578063f6bcbd3114610867578063fa352c001461089557610253565b8063c6c3bbe6146106ad578063cc5783d3146106e3578063d43fde7014610723578063d505accf14610763578063d7a9dd61146107b457610253565b8063b4f40c611161010a578063b4f40c611461062f578063b5d832fe14610637578063bdd8a3661461065d578063c0bd65d714610665578063c47b5b831461066d57610253565b80639f1f7f6f1461054d578063a457c2d714610573578063a9059cbb1461059f578063aef52e3f146105cb578063b26be922146105ef57610253565b80633644e515116101d457806370a082311161019857806370a08231146104cb57806377d739f3146104f15780637ecebe00146104f957806385561a341461051f57806395d89b411461054557610253565b80633644e515146104485780633950935114610450578063459e414f1461047c5780634e20e952146104845780636970a924146104aa57610253565b80631e4d81db1161021b5780631e4d81db146103be578063204f83f9146103e457806323b872dd146103ec57806330adf81f14610422578063313ce5671461042a57610253565b806306fdde0314610258578063095ea7b3146102d557806318160ddd1461031557806318db7ee61461032f5780631a28ff0514610371575b600080fd5b6102606108bb565b6040805160208082528351818301528351919283929083019185019080838360005b8381101561029a578181015183820152602001610282565b50505050905090810190601f1680156102c75780820380516001836020036101000a031916815260200191505b509250505060405180910390f35b610301600480360360408110156102eb57600080fd5b506001600160a01b038135169060200135610951565b604080519115158252519081900360200190f35b61031d61096f565b60408051918252519081900360200190f35b6103556004803603602081101561034557600080fd5b50356001600160801b0316610975565b604080516001600160801b039092168252519081900360200190f35b6103bc600480360360c081101561038757600080fd5b506001600160a01b03813581169160208101359091169060408101359060ff6060820135169060808101359060a00135610a42565b005b610355600480360360208110156103d457600080fd5b50356001600160801b0316610c65565b610355610dc0565b6103016004803603606081101561040257600080fd5b506001600160a01b03813581169160208101359091169060400135610de4565b61031d610e72565b610432610e96565b6040805160ff9092168252519081900360200190f35b61031d610e9f565b6103016004803603604081101561046657600080fd5b506001600160a01b038135169060200135610ec3565b61031d610f17565b6103556004803603602081101561049a57600080fd5b50356001600160801b0316610f3b565b6104b2611008565b60408051600f92830b90920b8252519081900360200190f35b61031d600480360360208110156104e157600080fd5b50356001600160a01b031661101b565b610355611036565b61031d6004803603602081101561050f57600080fd5b50356001600160a01b03166110be565b6103556004803603602081101561053557600080fd5b50356001600160801b03166110d0565b6102606111c7565b6103bc6004803603602081101561056357600080fd5b50356001600160801b0316611228565b6103016004803603604081101561058957600080fd5b506001600160a01b038135169060200135611431565b610301600480360360408110156105b557600080fd5b506001600160a01b03813516906020013561149f565b6105d36114b3565b604080516001600160a01b039092168252519081900360200190f35b6103556004803603606081101561060557600080fd5b5080356001600160a01b0390811691602081013590911690604001356001600160801b03166114c2565b6104b2611774565b61031d6004803603602081101561064d57600080fd5b50356001600160a01b0316611783565b6104b2611795565b61031d6117a8565b6103556004803603606081101561068357600080fd5b5080356001600160a01b0390811691602081013590911690604001356001600160801b03166117cc565b61031d600480360360608110156106c357600080fd5b506001600160a01b03813581169160208101359091169060400135611a41565b610355600480360360608110156106f957600080fd5b5080356001600160a01b0390811691602081013590911690604001356001600160801b0316611e1b565b6103556004803603606081101561073957600080fd5b5080356001600160a01b0390811691602081013590911690604001356001600160801b031661205c565b6103bc600480360360e081101561077957600080fd5b506001600160a01b03813581169160208101359091169060408101359060608101359060ff6080820135169060a08101359060c001356122a0565b6103556124ce565b61031d600480360360408110156107d257600080fd5b506001600160a01b0381358116916020013516612558565b6103bc6004803603602081101561080057600080fd5b50356001600160a01b0316612583565b6105d3612590565b61084e6004803603606081101561082e57600080fd5b506001600160a01b0381358116916020810135909116906040013561259f565b6040805192835260208301919091528051918290030190f35b6103016004803603604081101561087d57600080fd5b506001600160a01b038135811691602001351661294a565b6103bc600480360360208110156108ab57600080fd5b50356001600160a01b031661296a565b60038054604080516020601f60026000196101006001881615020190951694909404938401819004810282018101909252828152606093909290918301828280156109475780601f1061091c57610100808354040283529160200191610947565b820191906000526020600020905b81548152906001019060200180831161092a57829003601f168201915b5050505050905090565b600061096561095e612974565b8484612978565b5060015b92915050565b60025490565b60007f00000000000000000000000000000000000000000000000000000000000000006001600160801b031642106109e5576040805162461bcd60e51b815260206004820152600e60248201526d506f6f6c3a20546f6f206c61746560901b604482015290519081900360640190fd5b6109696109f0611036565b6109f86124ce565b84610a2d427f00000000000000000000000000000000000000000000000000000000000000006001600160801b031603612a64565b64220c523d72680100419a02900419a0612abc565b42841015610a97576040805162461bcd60e51b815260206004820152601c60248201527f44656c656761626c653a205369676e6174757265206578706972656400000000604482015290519081900360640190fd5b6001600160a01b0380871660008181526006602090815260408083208054600180820190925582517f00000000000000000000000000000000000000000000000000000000000000008186015280840196909652958b166060860152608085019590955260a08085018a90528151808603909101815260c08501825280519083012061190160f01b60e08601527f000000000000000000000000000000000000000000000000000000000000000060e286015261010280860182905282518087039091018152610122860180845281519185019190912090859052610142860180845281905260ff8a1661016287015261018286018990526101a2860188905291519095919491926101c2808401939192601f1981019281900390910190855afa158015610bc9573d6000803e3d6000fd5b5050604051601f1901519150506001600160a01b03811615801590610bff5750886001600160a01b0316816001600160a01b0316145b610c50576040805162461bcd60e51b815260206004820152601c60248201527f44656c656761626c653a20496e76616c6964207369676e617475726500000000604482015290519081900360640190fd5b610c5a8989612cc0565b505050505050505050565b60007f00000000000000000000000000000000000000000000000000000000000000006001600160801b03164210610cd5576040805162461bcd60e51b815260206004820152600e60248201526d506f6f6c3a20546f6f206c61746560901b604482015290519081900360640190fd5b6000610cdf611036565b90506000610ceb6124ce565b90506000610d3d838387610d29427f00000000000000000000000000000000000000000000000000000000000000006001600160801b031603612a64565b64220c523d7267ffbe76c8b4395810612da7565b9050610d498382612f98565b6001600160801b0316610d5c8387612ffe565b6001600160801b03161015610db8576040805162461bcd60e51b815260206004820152601b60248201527f506f6f6c3a207944616920726573657276657320746f6f206c6f770000000000604482015290519081900360640190fd5b949350505050565b7f000000000000000000000000000000000000000000000000000000000000000081565b6000610df184848461306d565b610e6784610dfd612974565b610e6285604051806060016040528060288152602001614d6b602891396001600160a01b038a16600090815260016020526040812090610e3b612974565b6001600160a01b03168152602081019190915260400160002054919063ffffffff6131d416565b612978565b5060015b9392505050565b7f000000000000000000000000000000000000000000000000000000000000000081565b60055460ff1690565b7f000000000000000000000000000000000000000000000000000000000000000081565b6000610965610ed0612974565b84610e628560016000610ee1612974565b6001600160a01b03908116825260208083019390935260409182016000908120918c16815292529020549063ffffffff61322e16565b7f000000000000000000000000000000000000000000000000000000000000000081565b60007f00000000000000000000000000000000000000000000000000000000000000006001600160801b03164210610fab576040805162461bcd60e51b815260206004820152600e60248201526d506f6f6c3a20546f6f206c61746560901b604482015290519081900360640190fd5b610969610fb6611036565b610fbe6124ce565b84610ff3427f00000000000000000000000000000000000000000000000000000000000000006001600160801b031603612a64565b64220c523d72680100419a02900419a0613288565b6103e76903e800000000000000005b0481565b6001600160a01b031660009081526020819052604090205490565b600954604080516370a0823160e01b815230600482015290516000926110b9926001600160a01b03909116916370a0823191602480820192602092909190829003018186803b15801561108857600080fd5b505afa15801561109c573d6000803e3d6000fd5b505050506040513d60208110156110b257600080fd5b5051612a64565b905090565b60086020526000908152604090205481565b60007f00000000000000000000000000000000000000000000000000000000000000006001600160801b03164210611140576040805162461bcd60e51b815260206004820152600e60248201526d506f6f6c3a20546f6f206c61746560901b604482015290519081900360640190fd5b600061114a611036565b905060006111566124ce565b905060006111a8838387611194427f00000000000000000000000000000000000000000000000000000000000000006001600160801b031603612a64565b64220c523d7267ffbe76c8b4395810613481565b90506111b48386612f98565b6001600160801b0316610d5c8383612ffe565b60048054604080516020601f60026000196101006001881615020190951694909404938401819004810282018101909252828152606093909290918301828280156109475780601f1061091c57610100808354040283529160200191610947565b7f00000000000000000000000000000000000000000000000000000000000000006001600160801b03164210611296576040805162461bcd60e51b815260206004820152600e60248201526d506f6f6c3a20546f6f206c61746560901b604482015290519081900360640190fd5b61129e61096f565b156112f0576040805162461bcd60e51b815260206004820152601960248201527f506f6f6c3a20416c726561647920696e697469616c697a656400000000000000604482015290519081900360640190fd5b600954604080516323b872dd60e01b81523360048201523060248201526001600160801b038416604482015290516001600160a01b03909216916323b872dd916064808201926020929091908290030181600087803b15801561135257600080fd5b505af1158015611366573d6000803e3d6000fd5b505050506040513d602081101561137c57600080fd5b506113929050336001600160801b03831661364f565b33807fd9b421596e3bc3caf78305bc0d270566916f58cd61b71c9c2a3d923a3ea3ea8b7f00000000000000000000000000000000000000000000000000000000000000006113e86001600160801b03861661374b565b60000360006113ff876001600160801b031661374b565b604080516001600160801b0390951685526020850193909352838301919091526060830152519081900360800190a350565b600061096561143e612974565b84610e6285604051806060016040528060258152602001614e616025913960016000611468612974565b6001600160a01b03908116825260208083019390935260409182016000908120918d1681529252902054919063ffffffff6131d416565b60006109656114ac612974565b848461306d565b600a546001600160a01b031681565b6000836040518060400160405280601d8152602001600080516020614db4833981519152815250816001600160a01b0316336001600160a01b0316148061152c57506001600160a01b038216600090815260076020908152604080832033845290915290205460ff165b81906115b65760405162461bcd60e51b81526004018080602001828103825283818151815260200191508051906020019080838360005b8381101561157b578181015183820152602001611563565b50505050905090810190601f1680156115a85780820380516001836020036101000a031916815260200191505b509250505060405180910390fd5b5060006115c2856110d0565b600954604080516323b872dd60e01b81526001600160a01b038b811660048301523060248301526001600160801b038a16604483015291519394509116916323b872dd916064808201926020929091908290030181600087803b15801561162857600080fd5b505af115801561163c573d6000803e3d6000fd5b505050506040513d602081101561165257600080fd5b5050600a546040805163a9059cbb60e01b81526001600160a01b0389811660048301526001600160801b03851660248301529151919092169163a9059cbb9160448083019260209291908290030181600087803b1580156116b257600080fd5b505af11580156116c6573d6000803e3d6000fd5b505050506040513d60208110156116dc57600080fd5b50506001600160a01b03808716908816600080516020614cdf8339815191527f000000000000000000000000000000000000000000000000000000000000000061172e6001600160801b038a1661374b565b600003611743866001600160801b031661374b565b604080516001600160801b039094168452602084019290925282820152519081900360600190a39695505050505050565b630784ce00600160401b611017565b60066020526000908152604090205481565b6103e86903e70000000000000000611017565b7f000000000000000000000000000000000000000000000000000000000000000081565b6000836040518060400160405280601d8152602001600080516020614db4833981519152815250816001600160a01b0316336001600160a01b0316148061183657506001600160a01b038216600090815260076020908152604080832033845290915290205460ff165b81906118835760405162461bcd60e51b815260206004820181815283516024840152835190928392604490910191908501908083836000831561157b578181015183820152602001611563565b50600061188f85610975565b600a54604080516323b872dd60e01b81526001600160a01b038b811660048301523060248301526001600160801b038a16604483015291519394509116916323b872dd916064808201926020929091908290030181600087803b1580156118f557600080fd5b505af1158015611909573d6000803e3d6000fd5b505050506040513d602081101561191f57600080fd5b50506009546040805163a9059cbb60e01b81526001600160a01b0389811660048301526001600160801b03851660248301529151919092169163a9059cbb9160448083019260209291908290030181600087803b15801561197f57600080fd5b505af1158015611993573d6000803e3d6000fd5b505050506040513d60208110156119a957600080fd5b50506001600160a01b03808716908816600080516020614cdf8339815191527f00000000000000000000000000000000000000000000000000000000000000006119fb6001600160801b03861661374b565b611a0d8a6001600160801b031661374b565b604080516001600160801b039094168452602084019290925260000382820152519081900360600190a39695505050505050565b6000836040518060400160405280601d8152602001600080516020614db4833981519152815250816001600160a01b0316336001600160a01b03161480611aab57506001600160a01b038216600090815260076020908152604080832033845290915290205460ff165b8190611af85760405162461bcd60e51b815260206004820181815283516024840152835190928392604490910191908501908083836000831561157b578181015183820152602001611563565b506000611b0361096f565b600954604080516370a0823160e01b815230600482015290519293506000926001600160a01b03909216916370a0823191602480820192602092909190829003018186803b158015611b5457600080fd5b505afa158015611b68573d6000803e3d6000fd5b505050506040513d6020811015611b7e57600080fd5b5051600a54604080516370a0823160e01b815230600482015290519293506000926001600160a01b03909216916370a0823191602480820192602092909190829003018186803b158015611bd157600080fd5b505afa158015611be5573d6000803e3d6000fd5b505050506040513d6020811015611bfb57600080fd5b505190506000611c2183611c15868b63ffffffff61379f16565b9063ffffffff6137f816565b90506000611c3985611c15858563ffffffff61379f16565b600954604080516323b872dd60e01b81526001600160a01b038f81166004830152306024830152604482018e905291519394509116916323b872dd916064808201926020929091908290030181600087803b158015611c9757600080fd5b505af1158015611cab573d6000803e3d6000fd5b505050506040513d6020811015611cc157600080fd5b5051611ccc57600080fd5b600a54604080516323b872dd60e01b81526001600160a01b038e8116600483015230602483015260448201859052915191909216916323b872dd9160648083019260209291908290030181600087803b158015611d2857600080fd5b505af1158015611d3c573d6000803e3d6000fd5b505050506040513d6020811015611d5257600080fd5b5051611d5d57600080fd5b611d678a8361364f565b896001600160a01b03168b6001600160a01b03167fd9b421596e3bc3caf78305bc0d270566916f58cd61b71c9c2a3d923a3ea3ea8b7f0000000000000000000000000000000000000000000000000000000000000000611dc68d61374b565b600003611dd28661374b565b600003611dde8861374b565b604080516001600160801b0390951685526020850193909352838301919091526060830152519081900360800190a3509998505050505050505050565b6000836040518060400160405280601d8152602001600080516020614db4833981519152815250816001600160a01b0316336001600160a01b03161480611e8557506001600160a01b038216600090815260076020908152604080832033845290915290205460ff165b8190611ed25760405162461bcd60e51b815260206004820181815283516024840152835190928392604490910191908501908083836000831561157b578181015183820152602001611563565b506000611ede85610f3b565b600a54604080516323b872dd60e01b81526001600160a01b038b811660048301523060248301526001600160801b038516604483015291519394509116916323b872dd916064808201926020929091908290030181600087803b158015611f4457600080fd5b505af1158015611f58573d6000803e3d6000fd5b505050506040513d6020811015611f6e57600080fd5b50506009546040805163a9059cbb60e01b81526001600160a01b0389811660048301526001600160801b03891660248301529151919092169163a9059cbb9160448083019260209291908290030181600087803b158015611fce57600080fd5b505af1158015611fe2573d6000803e3d6000fd5b505050506040513d6020811015611ff857600080fd5b50506001600160a01b03808716908816600080516020614cdf8339815191527f000000000000000000000000000000000000000000000000000000000000000061204a6001600160801b038a1661374b565b611a0d866001600160801b031661374b565b6000836040518060400160405280601d8152602001600080516020614db4833981519152815250816001600160a01b0316336001600160a01b031614806120c657506001600160a01b038216600090815260076020908152604080832033845290915290205460ff165b81906121135760405162461bcd60e51b815260206004820181815283516024840152835190928392604490910191908501908083836000831561157b578181015183820152602001611563565b50600061211f85610c65565b600954604080516323b872dd60e01b81526001600160a01b038b811660048301523060248301526001600160801b038516604483015291519394509116916323b872dd916064808201926020929091908290030181600087803b15801561218557600080fd5b505af1158015612199573d6000803e3d6000fd5b505050506040513d60208110156121af57600080fd5b5050600a546040805163a9059cbb60e01b81526001600160a01b0389811660048301526001600160801b03891660248301529151919092169163a9059cbb9160448083019260209291908290030181600087803b15801561220f57600080fd5b505af1158015612223573d6000803e3d6000fd5b505050506040513d602081101561223957600080fd5b50506001600160a01b03808716908816600080516020614cdf8339815191527f000000000000000000000000000000000000000000000000000000000000000061228b6001600160801b03861661374b565b6000036117438a6001600160801b031661374b565b428410156122f5576040805162461bcd60e51b815260206004820152601d60248201527f45524332305065726d69743a206578706972656420646561646c696e65000000604482015290519081900360640190fd5b6001600160a01b0380881660008181526008602090815260408083208054600180820190925582517f00000000000000000000000000000000000000000000000000000000000000008186015280840196909652958c166060860152608085018b905260a085019590955260c08085018a90528151808603909101815260e08501825280519083012061190160f01b6101008601527f000000000000000000000000000000000000000000000000000000000000000061010286015261012280860182905282518087039091018152610142860180845281519185019190912090859052610162860180845281905260ff8a166101828701526101a286018990526101c2860188905291519095919491926101e2808401939192601f1981019281900390910190855afa158015612430573d6000803e3d6000fd5b5050604051601f1901519150506001600160a01b038116158015906124665750896001600160a01b0316816001600160a01b0316145b6124b7576040805162461bcd60e51b815260206004820152601e60248201527f45524332305065726d69743a20696e76616c6964207369676e61747572650000604482015290519081900360640190fd5b6124c28a8a8a612978565b50505050505050505050565b60006110b96124db61096f565b600a54604080516370a0823160e01b815230600482015290516001600160a01b03909216916370a0823191602480820192602092909190829003018186803b15801561252657600080fd5b505afa15801561253a573d6000803e3d6000fd5b505050506040513d602081101561255057600080fd5b505101612a64565b6001600160a01b03918216600090815260016020908152604080832093909416825291909152205490565b61258d3382612cc0565b50565b6009546001600160a01b031681565b600080846040518060400160405280601d8152602001600080516020614db4833981519152815250816001600160a01b0316336001600160a01b0316148061260a57506001600160a01b038216600090815260076020908152604080832033845290915290205460ff165b81906126575760405162461bcd60e51b815260206004820181815283516024840152835190928392604490910191908501908083836000831561157b578181015183820152602001611563565b50600061266261096f565b600954604080516370a0823160e01b815230600482015290519293506000926001600160a01b03909216916370a0823191602480820192602092909190829003018186803b1580156126b357600080fd5b505afa1580156126c7573d6000803e3d6000fd5b505050506040513d60208110156126dd57600080fd5b5051600a54604080516370a0823160e01b81523060048201529051929350600092839283926001600160a01b03909116916370a0823191602480820192602092909190829003018186803b15801561273457600080fd5b505afa158015612748573d6000803e3d6000fd5b505050506040513d602081101561275e57600080fd5b5051905061277685611c158c8763ffffffff61379f16565b925061278c85611c158c8463ffffffff61379f16565b9150506127998b8a61383a565b6009546040805163a9059cbb60e01b81526001600160a01b038d81166004830152602482018690529151919092169163a9059cbb9160448083019260209291908290030181600087803b1580156127ef57600080fd5b505af1158015612803573d6000803e3d6000fd5b505050506040513d602081101561281957600080fd5b5050600a546040805163a9059cbb60e01b81526001600160a01b038d81166004830152602482018590529151919092169163a9059cbb9160448083019260209291908290030181600087803b15801561287157600080fd5b505af1158015612885573d6000803e3d6000fd5b505050506040513d602081101561289b57600080fd5b50506001600160a01b03808b16908c167fd9b421596e3bc3caf78305bc0d270566916f58cd61b71c9c2a3d923a3ea3ea8b7f00000000000000000000000000000000000000000000000000000000000000006128f68661374b565b6128ff8661374b565b6129088f61374b565b604080516001600160801b0390951685526020850193909352838301919091526000036060830152519081900360800190a3909a909950975050505050505050565b600760209081526000928352604080842090915290825290205460ff1681565b61258d3382613942565b3390565b6001600160a01b0383166129bd5760405162461bcd60e51b8152600401808060200182810382526024815260200180614df96024913960400191505060405180910390fd5b6001600160a01b038216612a025760405162461bcd60e51b8152600401808060200182810382526022815260200180614c976022913960400191505060405180910390fd5b6001600160a01b03808416600081815260016020908152604080832094871680845294825291829020859055815185815291517f8c5be1e5ebec7d5bd14f71427d1e84f3dd0314c0f7b2291e5b200ac8c7c3b9259281900390910190a3505050565b60006001600160801b03821115612ab8576040805162461bcd60e51b8152602060048201526013602482015272506f6f6c3a2043617374206f766572666c6f7760681b604482015290519081900360640190fd5b5090565b600080612ada84612ad5876001600160801b0316613a20565b613a3e565b90506000612af5600160401b612af08685613a3e565b613a75565b9050600081600f0b13612b3d576040805162461bcd60e51b81526020600482018190526024820152600080516020614e1d833981519152604482015290519081900360640190fd5b6001600160801b0388811690881601600160801b8110612ba4576040805162461bcd60e51b815260206004820152601b60248201527f5969656c644d6174683a20546f6f206d756368207944616920696e0000000000604482015290519081900360640190fd5b6000612bb58a84600160401b613aa8565b6001600160801b0316612bcd8385600160401b613aa8565b6001600160801b0316612be58d86600160401b613aa8565b6001600160801b031603019050600160801b8110612c345760405162461bcd60e51b8152600401808060200182810382526024815260200180614e3d6024913960400191505060405180910390fd5b6000612c4582600160401b86613aa8565b8c036001600160801b03169050600160801b8110612c945760405162461bcd60e51b8152600401808060200182810382526021815260200180614cff6021913960400191505060405180910390fd5b64e8d4a510008111612ca7576000612cb0565b64e8d4a5100081035b9c9b505050505050505050505050565b6001600160a01b0380831660009081526007602090815260408083209385168352929052205460ff1615612d3b576040805162461bcd60e51b815260206004820152601c60248201527f44656c656761626c653a20416c72656164792064656c65676174656400000000604482015290519081900360640190fd5b6001600160a01b03808316600081815260076020908152604080832094861680845294825291829020805460ff19166001908117909155825190815291517f045b0fef01772d2fbba53dbd38c9777806eac0865b00af43abcfbcaf50da92069281900390910190a35050565b600080612dcc600160401b612af085612ad588612ad58b6001600160801b0316613a20565b9050600081600f0b13612e14576040805162461bcd60e51b81526020600482018190526024820152600080516020614e1d833981519152604482015290519081900360640190fd5b6001600160801b0380871690881603600160801b8110612e7b576040805162461bcd60e51b815260206004820152601c60248201527f5969656c644d6174683a20546f6f206d7563682079446169206f757400000000604482015290519081900360640190fd5b6000612e8c8284600160401b613aa8565b6001600160801b0316612ea48a85600160401b613aa8565b6001600160801b0316612ebc8c86600160401b613aa8565b6001600160801b031601039050600160801b8110612f0b5760405162461bcd60e51b815260040180806020018281038252602a815260200180614d20602a913960400191505060405180910390fd5b60008a612f1d83600160401b87613aa8565b036001600160801b03169050600160801b8110612f6b5760405162461bcd60e51b8152600401808060200182810382526021815260200180614cff6021913960400191505060405180910390fd5b64e8d4a51000198110612f8057600019612f89565b8064e8d4a51000015b9b9a5050505050505050505050565b60008282016001600160801b038085169082161015610e6b576040805162461bcd60e51b815260206004820152601b60248201527f506f6f6c3a2044616920726573657276657320746f6f20686967680000000000604482015290519081900360640190fd5b6000826001600160801b0316826001600160801b03161115613067576040805162461bcd60e51b815260206004820152601b60248201527f506f6f6c3a207944616920726573657276657320746f6f206c6f770000000000604482015290519081900360640190fd5b50900390565b6001600160a01b0383166130b25760405162461bcd60e51b8152600401808060200182810382526025815260200180614dd46025913960400191505060405180910390fd5b6001600160a01b0382166130f75760405162461bcd60e51b8152600401808060200182810382526023815260200180614c2d6023913960400191505060405180910390fd5b613102838383613b55565b61314581604051806060016040528060268152602001614cb9602691396001600160a01b038616600090815260208190526040902054919063ffffffff6131d416565b6001600160a01b03808516600090815260208190526040808220939093559084168152205461317a908263ffffffff61322e16565b6001600160a01b038084166000818152602081815260409182902094909455805185815290519193928716927fddf252ad1be2c89b69c2b068fc378daa952ba7f163c4a11628f55a4df523b3ef92918290030190a3505050565b600081848411156132265760405162461bcd60e51b815260206004820181815283516024840152835190928392604490910191908501908083836000831561157b578181015183820152602001611563565b505050900390565b600082820183811015610e6b576040805162461bcd60e51b815260206004820152601b60248201527f536166654d6174683a206164646974696f6e206f766572666c6f770000000000604482015290519081900360640190fd5b6000806132a184612ad5876001600160801b0316613a20565b905060006132b7600160401b612af08685613a3e565b9050600081600f0b136132ff576040805162461bcd60e51b81526020600482018190526024820152600080516020614e1d833981519152604482015290519081900360640190fd5b6001600160801b03808816908a1603600160801b8110613366576040805162461bcd60e51b815260206004820152601b60248201527f5969656c644d6174683a20546f6f206d75636820446169206f75740000000000604482015290519081900360640190fd5b60006133778284600160401b613aa8565b6001600160801b031661338f8b85600160401b613aa8565b6001600160801b03166133a78d86600160401b613aa8565b6001600160801b031601039050600160801b81106133f65760405162461bcd60e51b815260040180806020018281038252602b815260200180614c02602b913960400191505060405180910390fd5b60008a61340883600160401b87613aa8565b036001600160801b03169050600160801b81106134565760405162461bcd60e51b8152600401808060200182810382526021815260200180614cff6021913960400191505060405180910390fd5b64e8d4a5100019811061346b57600019612cb0565b64e8d4a51000019b9a5050505050505050505050565b60008061349a84612ad5876001600160801b0316613a20565b905060006134b0600160401b612af08685613a3e565b9050600081600f0b136134f8576040805162461bcd60e51b81526020600482018190526024820152600080516020614e1d833981519152604482015290519081900360640190fd5b6001600160801b0389811690881601600160801b811061355f576040805162461bcd60e51b815260206004820152601a60248201527f5969656c644d6174683a20546f6f206d7563682044616920696e000000000000604482015290519081900360640190fd5b60006135708284600160401b613aa8565b6001600160801b03166135888b85600160401b613aa8565b6001600160801b03166135a08d86600160401b613aa8565b6001600160801b031601039050600160801b81106135ef5760405162461bcd60e51b8152600401808060200182810382526025815260200180614c726025913960400191505060405180910390fd5b600061360082600160401b86613aa8565b8b036001600160801b03169050600160801b8110612c945760405162461bcd60e51b8152600401808060200182810382526021815260200180614cff6021913960400191505060405180910390fd5b6001600160a01b0382166136aa576040805162461bcd60e51b815260206004820152601f60248201527f45524332303a206d696e7420746f20746865207a65726f206164647265737300604482015290519081900360640190fd5b6136b660008383613b55565b6002546136c9908263ffffffff61322e16565b6002556001600160a01b0382166000908152602081905260409020546136f5908263ffffffff61322e16565b6001600160a01b0383166000818152602081815260408083209490945583518581529351929391927fddf252ad1be2c89b69c2b068fc378daa952ba7f163c4a11628f55a4df523b3ef9281900390910190a35050565b60006001600160ff1b03821115612ab8576040805162461bcd60e51b8152602060048201526013602482015272506f6f6c3a2043617374206f766572666c6f7760681b604482015290519081900360640190fd5b6000826137ae57506000610969565b828202828482816137bb57fe5b0414610e6b5760405162461bcd60e51b8152600401808060200182810382526021815260200180614d4a6021913960400191505060405180910390fd5b6000610e6b83836040518060400160405280601a81526020017f536166654d6174683a206469766973696f6e206279207a65726f000000000000815250613b5a565b6001600160a01b03821661387f5760405162461bcd60e51b8152600401808060200182810382526021815260200180614d936021913960400191505060405180910390fd5b61388b82600083613b55565b6138ce81604051806060016040528060228152602001614c50602291396001600160a01b038516600090815260208190526040902054919063ffffffff6131d416565b6001600160a01b0383166000908152602081905260409020556002546138fa908263ffffffff613bbf16565b6002556040805182815290516000916001600160a01b038516917fddf252ad1be2c89b69c2b068fc378daa952ba7f163c4a11628f55a4df523b3ef9181900360200190a35050565b6001600160a01b0380831660009081526007602090815260408083209385168352929052205460ff166139bc576040805162461bcd60e51b815260206004820152601e60248201527f44656c656761626c653a20416c726561647920756e64656c6567617465640000604482015290519081900360640190fd5b6001600160a01b038083166000818152600760209081526040808320948616808452948252808320805460ff191690558051928352517f045b0fef01772d2fbba53dbd38c9777806eac0865b00af43abcfbcaf50da92069281900390910190a35050565b6000677fffffffffffffff821115613a3757600080fd5b5060401b90565b6000600f83810b9083900b0260401d60016001607f1b03198112801590613a6c575060016001607f1b038113155b610e6b57600080fd5b6000600f82810b9084900b0360016001607f1b03198112801590613a6c575060016001607f1b03811315610e6b57600080fd5b60006001600160801b038216613abd57600080fd5b6001600160801b038416613ae6576001600160801b038316613ade57600080fd5b506000610e6b565b6000826001600160801b0316846001600160801b0316613b0587613c01565b6001600160801b03036001600160801b03160281613b1f57fe5b0490506001600160801b03811115613b3b576000915050610e6b565b613b4d816001600160801b030361444c565b915050610e6b565b505050565b60008183613ba95760405162461bcd60e51b815260206004820181815283516024840152835190928392604490910191908501908083836000831561157b578181015183820152602001611563565b506000838581613bb557fe5b0495945050505050565b6000610e6b83836040518060400160405280601e81526020017f536166654d6174683a207375627472616374696f6e206f766572666c6f7700008152506131d4565b60006001600160801b038216613c1657600080fd5b6001600160801b038216607f60791b600160401b821015613c435760409190911b9060016001607f1b0319015b600160601b821015613c6a5760209190911b906f3fffffffffffffffffffffffffffffff19015b600160701b821015613c915760109190911b906f1fffffffffffffffffffffffffffffff19015b600160781b821015613cb85760089190911b906f0fffffffffffffffffffffffffffffff19015b6001607c1b821015613cdf5760049190911b906f07ffffffffffffffffffffffffffffff19015b6001607e1b821015613d065760029190911b906f03ffffffffffffffffffffffffffffff19015b6001607f1b821015613d2d5760019190911b906f01ffffffffffffffffffffffffffffff19015b908002607f1c90600160801b8210613d4d5760019190911c90600160781b175b908002607f1c90600160801b8210613d6d5760019190911c90600160771b175b908002607f1c90600160801b8210613d8d5760019190911c90600160761b175b908002607f1c90600160801b8210613dad5760019190911c90600160751b175b908002607f1c90600160801b8210613dcd5760019190911c90600160741b175b908002607f1c90600160801b8210613ded5760019190911c90600160731b175b908002607f1c90600160801b8210613e0d5760019190911c90600160721b175b908002607f1c90600160801b8210613e2d5760019190911c90600160711b175b908002607f1c90600160801b8210613e4d5760019190911c90600160701b175b908002607f1c90600160801b8210613e6d5760019190911c906001606f1b175b908002607f1c90600160801b8210613e8d5760019190911c906001606e1b175b908002607f1c90600160801b8210613ead5760019190911c906001606d1b175b908002607f1c90600160801b8210613ecd5760019190911c906001606c1b175b908002607f1c90600160801b8210613eed5760019190911c906001606b1b175b908002607f1c90600160801b8210613f0d5760019190911c906001606a1b175b908002607f1c90600160801b8210613f2d5760019190911c90600160691b175b908002607f1c90600160801b8210613f4d5760019190911c90600160681b175b908002607f1c90600160801b8210613f6d5760019190911c90600160671b175b908002607f1c90600160801b8210613f8d5760019190911c90600160661b175b908002607f1c90600160801b8210613fad5760019190911c90600160651b175b908002607f1c90600160801b8210613fcd5760019190911c90600160641b175b908002607f1c90600160801b8210613fed5760019190911c90600160631b175b908002607f1c90600160801b821061400d5760019190911c90600160621b175b908002607f1c90600160801b821061402d5760019190911c90600160611b175b908002607f1c90600160801b821061404d5760019190911c90600160601b175b908002607f1c90600160801b821061406d5760019190911c906001605f1b175b908002607f1c90600160801b821061408d5760019190911c906001605e1b175b908002607f1c90600160801b82106140ad5760019190911c906001605d1b175b908002607f1c90600160801b82106140cd5760019190911c906001605c1b175b908002607f1c90600160801b82106140ed5760019190911c906001605b1b175b908002607f1c90600160801b821061410d5760019190911c906001605a1b175b908002607f1c90600160801b821061412d5760019190911c90600160591b175b908002607f1c90600160801b821061414d5760019190911c90600160581b175b908002607f1c90600160801b821061416d5760019190911c90600160571b175b908002607f1c90600160801b821061418d5760019190911c90600160561b175b908002607f1c90600160801b82106141ad5760019190911c90600160551b175b908002607f1c90600160801b82106141cd5760019190911c90600160541b175b908002607f1c90600160801b82106141ed5760019190911c90600160531b175b908002607f1c90600160801b821061420d5760019190911c90600160521b175b908002607f1c90600160801b821061422d5760019190911c90600160511b175b908002607f1c90600160801b821061424d5760019190911c90600160501b175b908002607f1c90600160801b821061426d5760019190911c906001604f1b175b908002607f1c90600160801b821061428d5760019190911c906001604e1b175b908002607f1c90600160801b82106142ad5760019190911c906001604d1b175b908002607f1c90600160801b82106142cd5760019190911c906001604c1b175b908002607f1c90600160801b82106142ed5760019190911c906001604b1b175b908002607f1c90600160801b821061430d5760019190911c906001604a1b175b908002607f1c90600160801b821061432d5760019190911c90600160491b175b908002607f1c90600160801b821061434d5760019190911c90600160481b175b908002607f1c90600160801b821061436d5760019190911c90600160471b175b908002607f1c90600160801b821061438d5760019190911c90600160461b175b908002607f1c90600160801b82106143ad5760019190911c90600160451b175b908002607f1c90600160801b82106143cd5760019190911c90600160441b175b908002607f1c90600160801b82106143ed5760019190911c90600160431b175b908002607f1c90600160801b821061440d5760019190911c90600160421b175b908002607f1c90600160801b821061442d5760019190911c90600160411b175b908002607f1c90600160801b8210610e6b57600160401b179392505050565b60006001607f1b600160781b831615614475576fb504f333f9de6484597d89b3754abe9f02607f1c5b600160771b831615614497576f9837f0518db8a96f46ad23182e42f6f602607f1c5b600160761b8316156144b9576f8b95c1e3ea8bd6e6fbe4628758a53c9002607f1c5b600160751b8316156144db576f85aac367cc487b14c5c95b8c2154c1b202607f1c5b600160741b8316156144fd576f82cd8698ac2ba1d73e2a475b46520bff02607f1c5b600160731b83161561451f576f8164d1f3bc0307737be56527bd14def402607f1c5b600160721b831615614541576f80b1ed4fd999ab6c25335719b6e6fd2002607f1c5b600160711b831615614563576f8058d7d2d5e5f6b094d589f608ee4aa202607f1c5b600160701b831615614585576f802c6436d0e04f50ff8ce94a6797b3ce02607f1c5b6001606f1b8316156145a7576f8016302f174676283690dfe44d11d00802607f1c5b6001606e1b8316156145c9576f800b179c82028fd0945e54e2ae18f2f002607f1c5b6001606d1b8316156145eb576f80058baf7fee3b5d1c718b38e549cb9302607f1c5b6001606c1b83161561460d576f8002c5d00fdcfcb6b6566a58c048be1f02607f1c5b6001606b1b83161561462f576f800162e61bed4a48e84c2e1a463473d902607f1c5b6001606a1b831615614651576f8000b17292f702a3aa22beacca94901302607f1c5b600160691b831615614673576f800058b92abbae02030c5fa5256f41fe02607f1c5b600160681b831615614695576f80002c5c8dade4d71776c0f4dbea67d602607f1c5b600160671b8316156146b7576f8000162e44eaf636526be456600bdbe402607f1c5b600160661b8316156146d9576f80000b1721fa7c188307016c1cd4e8b602607f1c5b600160651b8316156146fb576f8000058b90de7e4cecfc487503488bb102607f1c5b600160641b83161561471d576f800002c5c8678f36cbfce50a6de60b1402607f1c5b600160631b83161561473f576f80000162e431db9f80b2347b5d62e51602607f1c5b600160621b831615614761576f800000b1721872d0c7b08cf1e011415202607f1c5b600160611b831615614783576f80000058b90c1aa8a5c3736cb77e8dff02607f1c5b600160601b8316156147a5576f8000002c5c8605a4635f2efc2362d97802607f1c5b6001605f1b8316156147c7576f800000162e4300e635cf4a109e3939bd02607f1c5b6001605e1b8316156147e9576f8000000b17217ff81bef9c551590cf8302607f1c5b6001605d1b83161561480b576f800000058b90bfdd4e39cd52c0cfa27c02607f1c5b6001605c1b83161561482d576f80000002c5c85fe6f72d669e0e76e41102607f1c5b6001605b1b83161561484f576f8000000162e42ff18f9ad35186d0df2802607f1c5b6001605a1b831615614871576f80000000b17217f84cce71aa0dcfffe702607f1c5b600160591b831615614893576f8000000058b90bfc07a77ad56ed22aaa02607f1c5b600160581b8316156148b5576f800000002c5c85fdfc23cdead40da8d602607f1c5b600160571b8316156148d7576f80000000162e42fefc25eb1571853a6602607f1c5b600160561b8316156148f9576f800000000b17217f7d97f692baacded502607f1c5b600160551b83161561491b576f80000000058b90bfbead3b8b5dd254d702607f1c5b600160541b83161561493d576f8000000002c5c85fdf4eedd62f084e6702607f1c5b600160531b83161561495f576f800000000162e42fefa58aef378bf58602607f1c5b600160521b831615614981576f8000000000b17217f7d24a78a3c7ef0202607f1c5b600160511b8316156149a3576f800000000058b90bfbe9067c93e474a602607f1c5b600160501b8316156149c5576f80000000002c5c85fdf47b8e5a72599f02607f1c5b6001604f1b8316156149e7576f8000000000162e42fefa3bdb315934a202607f1c5b6001604e1b831615614a09576f80000000000b17217f7d1d7299b49c4602607f1c5b6001604d1b831615614a2b576f8000000000058b90bfbe8e9a8d1c4ea002607f1c5b6001604c1b831615614a4d576f800000000002c5c85fdf4745969ea76f02607f1c5b6001604b1b831615614a6f576f80000000000162e42fefa3a0df5373bf02607f1c5b6001604a1b831615614a91576f800000000000b17217f7d1cff4aac1e102607f1c5b600160491b831615614ab3576f80000000000058b90bfbe8e7db95a2f102607f1c5b600160481b831615614ad5576f8000000000002c5c85fdf473e61ae1f802607f1c5b600160471b831615614af7576f800000000000162e42fefa39f121751c02607f1c5b600160461b831615614b19576f8000000000000b17217f7d1cf815bb9602607f1c5b600160451b831615614b3b576f800000000000058b90bfbe8e7bec1e0d02607f1c5b600160441b831615614b5d576f80000000000002c5c85fdf473dee5f1702607f1c5b600160431b831615614b7f576f8000000000000162e42fefa39ef5438f02607f1c5b600160421b831615614ba1576f80000000000000b17217f7d1cf7a26c802607f1c5b600160411b831615614bc3576f8000000000000058b90bfbe8e7bcf4a402607f1c5b600160401b831615614be5576f800000000000002c5c85fdf473de72a202607f1c5b607f607984901c811690036001600160801b03161c905091905056fe5969656c644d6174683a20526573756c74696e67207944616920726573657276657320746f6f206869676845524332303a207472616e7366657220746f20746865207a65726f206164647265737345524332303a206275726e20616d6f756e7420657863656564732062616c616e63655969656c644d6174683a20496e73756666696369656e74207944414920726573657276657345524332303a20617070726f766520746f20746865207a65726f206164647265737345524332303a207472616e7366657220616d6f756e7420657863656564732062616c616e63653f207773c457c66e004ab34e2ce7ae1fcafc7b4c3286f63997c87428014219155969656c644d6174683a20526f756e64696e6720696e6475636564206572726f725969656c644d6174683a20526573756c74696e672044616920726573657276657320746f6f2068696768536166654d6174683a206d756c7469706c69636174696f6e206f766572666c6f7745524332303a207472616e7366657220616d6f756e74206578636565647320616c6c6f77616e636545524332303a206275726e2066726f6d20746865207a65726f2061646472657373506f6f6c3a204f6e6c7920486f6c646572204f722044656c656761746500000045524332303a207472616e736665722066726f6d20746865207a65726f206164647265737345524332303a20617070726f76652066726f6d20746865207a65726f20616464726573735969656c644d6174683a20546f6f206661722066726f6d206d617475726974795969656c644d6174683a20496e73756666696369656e742044616920726573657276657345524332303a2064656372656173656420616c6c6f77616e63652062656c6f77207a65726fa2646970667358221220ac82231dba567609e9a1eac33bbad5f67c230d3eca802ae145612ef0d1c3905164736f6c634300060a0033c89efdaa54c0f20c7adf612882df0950f5a951637e0307cdcb4c672f298b8bc65065726d69742861646472657373206f776e65722c61646472657373207370656e6465722c75696e743235362076616c75652c75696e74323536206e6f6e63652c75696e7432353620646561646c696e6529454950373132446f6d61696e28737472696e67206e616d652c737472696e672076657273696f6e2c75696e7432353620636861696e49642c6164647265737320766572696679696e67436f6e747261637429",
  "immutableReferences": {
    "9219": [
      {
        "length": 32,
        "start": 2753
      },
      {
        "length": 32,
        "start": 6058
      }
    ],
    "9221": [
      {
        "length": 32,
        "start": 2854
      },
      {
        "length": 32,
        "start": 3865
      }
    ],
    "9484": [
      {
        "length": 32,
        "start": 3700
      },
      {
        "length": 32,
        "start": 8991
      }
    ],
    "9486": [
      {
        "length": 32,
        "start": 3745
      },
      {
        "length": 32,
        "start": 9100
      }
    ],
    "25913": [
      {
        "length": 32,
        "start": 2425
      },
      {
        "length": 32,
        "start": 2559
      },
      {
        "length": 32,
        "start": 3177
      },
      {
        "length": 32,
        "start": 3323
      },
      {
        "length": 32,
        "start": 3522
      },
      {
        "length": 32,
        "start": 3903
      },
      {
        "length": 32,
        "start": 4037
      },
      {
        "length": 32,
        "start": 4308
      },
      {
        "length": 32,
        "start": 4454
      },
      {
        "length": 32,
        "start": 4650
      },
      {
        "length": 32,
        "start": 5047
      },
      {
        "length": 32,
        "start": 5885
      },
      {
        "length": 32,
        "start": 6602
      },
      {
        "length": 32,
        "start": 7582
      },
      {
        "length": 32,
        "start": 8217
      },
      {
        "length": 32,
        "start": 8794
      },
      {
        "length": 32,
        "start": 10446
      }
    ]
  },
  "source": "// SPDX-License-Identifier: GPL-3.0-or-later\npragma solidity ^0.6.10;\n\nimport \"@openzeppelin/contracts/token/ERC20/ERC20.sol\";\nimport \"@openzeppelin/contracts/token/ERC20/IERC20.sol\";\nimport \"./YieldMath.sol\";\nimport \"../helpers/Delegable.sol\";\nimport \"../helpers/ERC20Permit.sol\";\nimport \"../interfaces/IPot.sol\";\nimport \"../interfaces/IYDai.sol\";\nimport \"../interfaces/IPool.sol\";\n\n\n/// @dev The Pool contract exchanges Dai for yDai at a price defined by a specific formula.\ncontract Pool is IPool, Delegable(), ERC20Permit {\n\n    event Trade(uint256 maturity, address indexed from, address indexed to, int256 daiTokens, int256 yDaiTokens);\n    event Liquidity(uint256 maturity, address indexed from, address indexed to, int256 daiTokens, int256 yDaiTokens, int256 poolTokens);\n\n    int128 constant public k = int128(uint256((1 << 64)) / 126144000); // 1 / Seconds in 4 years, in 64.64\n    int128 constant public g1 = int128(uint256((999 << 64)) / 1000); // To be used when selling Dai to the pool. All constants are `ufixed`, to divide them they must be converted to uint256\n    int128 constant public g2 = int128(uint256((1000 << 64)) / 999); // To be used when selling yDai to the pool. All constants are `ufixed`, to divide them they must be converted to uint256\n    uint128 immutable public maturity;\n\n    IERC20 public override dai;\n    IYDai public override yDai;\n\n    constructor(address dai_, address yDai_, string memory name_, string memory symbol_)\n        public\n        ERC20Permit(name_, symbol_)\n    {\n        dai = IERC20(dai_);\n        yDai = IYDai(yDai_);\n\n        maturity = toUint128(yDai.maturity());\n    }\n\n    /// @dev Trading can only be done before maturity\n    modifier beforeMaturity() {\n        require(\n            now < maturity,\n            \"Pool: Too late\"\n        );\n        _;\n    }\n\n    /// @dev Overflow-protected addition, from OpenZeppelin\n    function add(uint128 a, uint128 b)\n        internal pure returns (uint128)\n    {\n        uint128 c = a + b;\n        require(c >= a, \"Pool: Dai reserves too high\");\n\n        return c;\n    }\n\n    /// @dev Overflow-protected substraction, from OpenZeppelin\n    function sub(uint128 a, uint128 b) internal pure returns (uint128) {\n        require(b <= a, \"Pool: yDai reserves too low\");\n        uint128 c = a - b;\n\n        return c;\n    }\n\n    /// @dev Safe casting from uint256 to uint128\n    function toUint128(uint256 x) internal pure returns(uint128) {\n        require(\n            x <= type(uint128).max,\n            \"Pool: Cast overflow\"\n        );\n        return uint128(x);\n    }\n\n    /// @dev Safe casting from uint256 to int256\n    function toInt256(uint256 x) internal pure returns(int256) {\n        require(\n            x <= uint256(type(int256).max),\n            \"Pool: Cast overflow\"\n        );\n        return int256(x);\n    }\n\n    /// @dev Mint initial liquidity tokens.\n    /// The liquidity provider needs to have called `dai.approve`\n    /// @param daiIn The initial Dai liquidity to provide.\n    function init(uint128 daiIn)\n        external\n        beforeMaturity\n    {\n        require(\n            totalSupply() == 0,\n            \"Pool: Already initialized\"\n        );\n        // no yDai transferred, because initial yDai deposit is entirely virtual\n        dai.transferFrom(msg.sender, address(this), daiIn);\n        _mint(msg.sender, daiIn);\n        emit Liquidity(maturity, msg.sender, msg.sender, -toInt256(daiIn), 0, toInt256(daiIn));\n    }\n\n    /// @dev Mint liquidity tokens in exchange for adding dai and yDai\n    /// The liquidity provider needs to have called `dai.approve` and `yDai.approve`.\n    /// @param from Wallet providing the dai and yDai. Must have approved the operator with `pool.addDelegate(operator)`.\n    /// @param to Wallet receiving the minted liquidity tokens.\n    /// @param daiOffered Amount of `dai` being invested, an appropriate amount of `yDai` to be invested alongside will be calculated and taken by this function from the caller.\n    /// @return The amount of liquidity tokens minted.\n    function mint(address from, address to, uint256 daiOffered)\n        external override\n        onlyHolderOrDelegate(from, \"Pool: Only Holder Or Delegate\")\n        returns (uint256)\n    {\n        uint256 supply = totalSupply();\n        uint256 daiReserves = dai.balanceOf(address(this));\n        // use the actual reserves rather than the virtual reserves\n        uint256 yDaiReserves = yDai.balanceOf(address(this));\n        uint256 tokensMinted = supply.mul(daiOffered).div(daiReserves);\n        uint256 yDaiRequired = yDaiReserves.mul(tokensMinted).div(supply);\n\n        require(dai.transferFrom(from, address(this), daiOffered));\n        require(yDai.transferFrom(from, address(this), yDaiRequired));\n        _mint(to, tokensMinted);\n        emit Liquidity(maturity, from, to, -toInt256(daiOffered), -toInt256(yDaiRequired), toInt256(tokensMinted));\n\n        return tokensMinted;\n    }\n\n    /// @dev Burn liquidity tokens in exchange for dai and yDai.\n    /// The liquidity provider needs to have called `pool.approve`.\n    /// @param from Wallet providing the liquidity tokens. Must have approved the operator with `pool.addDelegate(operator)`.\n    /// @param to Wallet receiving the dai and yDai.\n    /// @param tokensBurned Amount of liquidity tokens being burned.\n    /// @return The amount of reserve tokens returned (daiTokens, yDaiTokens).\n    function burn(address from, address to, uint256 tokensBurned)\n        external override\n        onlyHolderOrDelegate(from, \"Pool: Only Holder Or Delegate\")\n        returns (uint256, uint256)\n    {\n        uint256 supply = totalSupply();\n        uint256 daiReserves = dai.balanceOf(address(this));\n        // use the actual reserves rather than the virtual reserves\n        uint256 daiReturned;\n        uint256 yDaiReturned;\n        { // avoiding stack too deep\n            uint256 yDaiReserves = yDai.balanceOf(address(this));\n            daiReturned = tokensBurned.mul(daiReserves).div(supply);\n            yDaiReturned = tokensBurned.mul(yDaiReserves).div(supply);\n        }\n\n        _burn(from, tokensBurned);\n        dai.transfer(to, daiReturned);\n        yDai.transfer(to, yDaiReturned);\n        emit Liquidity(maturity, from, to, toInt256(daiReturned), toInt256(yDaiReturned), -toInt256(tokensBurned));\n\n        return (daiReturned, yDaiReturned);\n    }\n\n    /// @dev Sell Dai for yDai\n    /// The trader needs to have called `dai.approve`\n    /// @param from Wallet providing the dai being sold. Must have approved the operator with `pool.addDelegate(operator)`.\n    /// @param to Wallet receiving the yDai being bought\n    /// @param daiIn Amount of dai being sold that will be taken from the user's wallet\n    /// @return Amount of yDai that will be deposited on `to` wallet\n    function sellDai(address from, address to, uint128 daiIn)\n        external override\n        onlyHolderOrDelegate(from, \"Pool: Only Holder Or Delegate\")\n        returns(uint128)\n    {\n        uint128 yDaiOut = sellDaiPreview(daiIn);\n\n        dai.transferFrom(from, address(this), daiIn);\n        yDai.transfer(to, yDaiOut);\n        emit Trade(maturity, from, to, -toInt256(daiIn), toInt256(yDaiOut));\n\n        return yDaiOut;\n    }\n\n    /// @dev Returns how much yDai would be obtained by selling `daiIn` dai\n    /// @param daiIn Amount of dai hypothetically sold.\n    /// @return Amount of yDai hypothetically bought.\n    function sellDaiPreview(uint128 daiIn)\n        public view override\n        beforeMaturity\n        returns(uint128)\n    {\n        uint128 daiReserves = getDaiReserves();\n        uint128 yDaiReserves = getYDaiReserves();\n\n        uint128 yDaiOut = YieldMath.yDaiOutForDaiIn(\n            daiReserves,\n            yDaiReserves,\n            daiIn,\n            toUint128(maturity - now), // This can't be called after maturity\n            k,\n            g1\n        );\n\n        require(\n            sub(yDaiReserves, yDaiOut) >= add(daiReserves, daiIn),\n            \"Pool: yDai reserves too low\"\n        );\n\n        return yDaiOut;\n    }\n\n    /// @dev Buy Dai for yDai\n    /// The trader needs to have called `yDai.approve`\n    /// @param from Wallet providing the yDai being sold. Must have approved the operator with `pool.addDelegate(operator)`.\n    /// @param to Wallet receiving the dai being bought\n    /// @param daiOut Amount of dai being bought that will be deposited in `to` wallet\n    /// @return Amount of yDai that will be taken from `from` wallet\n    function buyDai(address from, address to, uint128 daiOut)\n        external override\n        onlyHolderOrDelegate(from, \"Pool: Only Holder Or Delegate\")\n        returns(uint128)\n    {\n        uint128 yDaiIn = buyDaiPreview(daiOut);\n\n        yDai.transferFrom(from, address(this), yDaiIn);\n        dai.transfer(to, daiOut);\n        emit Trade(maturity, from, to, toInt256(daiOut), -toInt256(yDaiIn));\n\n        return yDaiIn;\n    }\n\n    /// @dev Returns how much yDai would be required to buy `daiOut` dai.\n    /// @param daiOut Amount of dai hypothetically desired.\n    /// @return Amount of yDai hypothetically required.\n    function buyDaiPreview(uint128 daiOut)\n        public view override\n        beforeMaturity\n        returns(uint128)\n    {\n        return YieldMath.yDaiInForDaiOut(\n            getDaiReserves(),\n            getYDaiReserves(),\n            daiOut,\n            toUint128(maturity - now), // This can't be called after maturity\n            k,\n            g2\n        );\n    }\n\n    /// @dev Sell yDai for Dai\n    /// The trader needs to have called `yDai.approve`\n    /// @param from Wallet providing the yDai being sold. Must have approved the operator with `pool.addDelegate(operator)`.\n    /// @param to Wallet receiving the dai being bought\n    /// @param yDaiIn Amount of yDai being sold that will be taken from the user's wallet\n    /// @return Amount of dai that will be deposited on `to` wallet\n    function sellYDai(address from, address to, uint128 yDaiIn)\n        external override\n        onlyHolderOrDelegate(from, \"Pool: Only Holder Or Delegate\")\n        returns(uint128)\n    {\n        uint128 daiOut = sellYDaiPreview(yDaiIn);\n\n        yDai.transferFrom(from, address(this), yDaiIn);\n        dai.transfer(to, daiOut);\n        emit Trade(maturity, from, to, toInt256(daiOut), -toInt256(yDaiIn));\n\n        return daiOut;\n    }\n\n    /// @dev Returns how much dai would be obtained by selling `yDaiIn` yDai.\n    /// @param yDaiIn Amount of yDai hypothetically sold.\n    /// @return Amount of Dai hypothetically bought.\n    function sellYDaiPreview(uint128 yDaiIn)\n        public view override\n        beforeMaturity\n        returns(uint128)\n    {\n        return YieldMath.daiOutForYDaiIn(\n            getDaiReserves(),\n            getYDaiReserves(),\n            yDaiIn,\n            toUint128(maturity - now), // This can't be called after maturity\n            k,\n            g2\n        );\n    }\n\n    /// @dev Buy yDai for dai\n    /// The trader needs to have called `dai.approve`\n    /// @param from Wallet providing the dai being sold. Must have approved the operator with `pool.addDelegate(operator)`.\n    /// @param to Wallet receiving the yDai being bought\n    /// @param yDaiOut Amount of yDai being bought that will be deposited in `to` wallet\n    /// @return Amount of dai that will be taken from `from` wallet\n    function buyYDai(address from, address to, uint128 yDaiOut)\n        external override\n        onlyHolderOrDelegate(from, \"Pool: Only Holder Or Delegate\")\n        returns(uint128)\n    {\n        uint128 daiIn = buyYDaiPreview(yDaiOut);\n\n        dai.transferFrom(from, address(this), daiIn);\n        yDai.transfer(to, yDaiOut);\n        emit Trade(maturity, from, to, -toInt256(daiIn), toInt256(yDaiOut));\n\n        return daiIn;\n    }\n\n\n    /// @dev Returns how much dai would be required to buy `yDaiOut` yDai.\n    /// @param yDaiOut Amount of yDai hypothetically desired.\n    /// @return Amount of Dai hypothetically required.\n    function buyYDaiPreview(uint128 yDaiOut)\n        public view override\n        beforeMaturity\n        returns(uint128)\n    {\n        uint128 daiReserves = getDaiReserves();\n        uint128 yDaiReserves = getYDaiReserves();\n\n        uint128 daiIn = YieldMath.daiInForYDaiOut(\n            daiReserves,\n            yDaiReserves,\n            yDaiOut,\n            toUint128(maturity - now), // This can't be called after maturity\n            k,\n            g1\n        );\n\n        require(\n            sub(yDaiReserves, yDaiOut) >= add(daiReserves, daiIn),\n            \"Pool: yDai reserves too low\"\n        );\n\n        return daiIn;\n    }\n\n    /// @dev Returns the \"virtual\" yDai reserves\n    function getYDaiReserves()\n        public view override\n        returns(uint128)\n    {\n        return toUint128(yDai.balanceOf(address(this)) + totalSupply());\n    }\n\n    /// @dev Returns the Dai reserves\n    function getDaiReserves()\n        public view override\n        returns(uint128)\n    {\n        return toUint128(dai.balanceOf(address(this)));\n    }\n}\n",
  "sourcePath": "/Users/brucedonovan/dev/yield/yDai/contracts/pool/Pool.sol",
  "compiler": {
    "name": "solc",
    "version": "0.6.10+commit.00c0fcaf.Emscripten.clang"
  },
  "schemaVersion": "3.2.3",
  "updatedAt": "2020-09-11T14:39:58.117Z",
  "networkType": "ethereum",
  "devdoc": {
    "details": "The Pool contract exchanges Dai for yDai at a price defined by a specific formula.",
    "methods": {
      "addDelegate(address)": {
        "details": "Enable a delegate to act on the behalf of caller"
      },
      "addDelegateBySignature(address,address,uint256,uint8,bytes32,bytes32)": {
        "details": "Add a delegate through an encoded signature"
      },
      "allowance(address,address)": {
        "details": "See {IERC20-allowance}."
      },
      "approve(address,uint256)": {
        "details": "See {IERC20-approve}. Requirements: - `spender` cannot be the zero address."
      },
      "balanceOf(address)": {
        "details": "See {IERC20-balanceOf}."
      },
      "burn(address,address,uint256)": {
        "details": "Burn liquidity tokens in exchange for dai and yDai. The liquidity provider needs to have called `pool.approve`.",
        "params": {
          "from": "Wallet providing the liquidity tokens. Must have approved the operator with `pool.addDelegate(operator)`.",
          "to": "Wallet receiving the dai and yDai.",
          "tokensBurned": "Amount of liquidity tokens being burned."
        },
        "returns": {
          "_0": "The amount of reserve tokens returned (daiTokens, yDaiTokens)."
        }
      },
      "buyDai(address,address,uint128)": {
        "details": "Buy Dai for yDai The trader needs to have called `yDai.approve`",
        "params": {
          "daiOut": "Amount of dai being bought that will be deposited in `to` wallet",
          "from": "Wallet providing the yDai being sold. Must have approved the operator with `pool.addDelegate(operator)`.",
          "to": "Wallet receiving the dai being bought"
        },
        "returns": {
          "_0": "Amount of yDai that will be taken from `from` wallet"
        }
      },
      "buyDaiPreview(uint128)": {
        "details": "Returns how much yDai would be required to buy `daiOut` dai.",
        "params": {
          "daiOut": "Amount of dai hypothetically desired."
        },
        "returns": {
          "_0": "Amount of yDai hypothetically required."
        }
      },
      "buyYDai(address,address,uint128)": {
        "details": "Buy yDai for dai The trader needs to have called `dai.approve`",
        "params": {
          "from": "Wallet providing the dai being sold. Must have approved the operator with `pool.addDelegate(operator)`.",
          "to": "Wallet receiving the yDai being bought",
          "yDaiOut": "Amount of yDai being bought that will be deposited in `to` wallet"
        },
        "returns": {
          "_0": "Amount of dai that will be taken from `from` wallet"
        }
      },
      "buyYDaiPreview(uint128)": {
        "details": "Returns how much dai would be required to buy `yDaiOut` yDai.",
        "params": {
          "yDaiOut": "Amount of yDai hypothetically desired."
        },
        "returns": {
          "_0": "Amount of Dai hypothetically required."
        }
      },
      "decimals()": {
        "details": "Returns the number of decimals used to get its user representation. For example, if `decimals` equals `2`, a balance of `505` tokens should be displayed to a user as `5,05` (`505 / 10 ** 2`). Tokens usually opt for a value of 18, imitating the relationship between Ether and Wei. This is the value {ERC20} uses, unless {_setupDecimals} is called. NOTE: This information is only used for _display_ purposes: it in no way affects any of the arithmetic of the contract, including {IERC20-balanceOf} and {IERC20-transfer}."
      },
      "decreaseAllowance(address,uint256)": {
        "details": "Atomically decreases the allowance granted to `spender` by the caller. This is an alternative to {approve} that can be used as a mitigation for problems described in {IERC20-approve}. Emits an {Approval} event indicating the updated allowance. Requirements: - `spender` cannot be the zero address. - `spender` must have allowance for the caller of at least `subtractedValue`."
      },
      "getDaiReserves()": {
        "details": "Returns the Dai reserves"
      },
      "getYDaiReserves()": {
        "details": "Returns the \"virtual\" yDai reserves"
      },
      "increaseAllowance(address,uint256)": {
        "details": "Atomically increases the allowance granted to `spender` by the caller. This is an alternative to {approve} that can be used as a mitigation for problems described in {IERC20-approve}. Emits an {Approval} event indicating the updated allowance. Requirements: - `spender` cannot be the zero address."
      },
      "init(uint128)": {
        "details": "Mint initial liquidity tokens. The liquidity provider needs to have called `dai.approve`",
        "params": {
          "daiIn": "The initial Dai liquidity to provide."
        }
      },
      "mint(address,address,uint256)": {
        "details": "Mint liquidity tokens in exchange for adding dai and yDai The liquidity provider needs to have called `dai.approve` and `yDai.approve`.",
        "params": {
          "daiOffered": "Amount of `dai` being invested, an appropriate amount of `yDai` to be invested alongside will be calculated and taken by this function from the caller.",
          "from": "Wallet providing the dai and yDai. Must have approved the operator with `pool.addDelegate(operator)`.",
          "to": "Wallet receiving the minted liquidity tokens."
        },
        "returns": {
          "_0": "The amount of liquidity tokens minted."
        }
      },
      "name()": {
        "details": "Returns the name of the token."
      },
      "permit(address,address,uint256,uint256,uint8,bytes32,bytes32)": {
        "details": "See {IERC2612-permit}. In cases where the free option is not a concern, deadline can simply be set to uint(-1), so it should be seen as an optional parameter"
      },
      "revokeDelegate(address)": {
        "details": "Stop a delegate from acting on the behalf of caller"
      },
      "sellDai(address,address,uint128)": {
        "details": "Sell Dai for yDai The trader needs to have called `dai.approve`",
        "params": {
          "daiIn": "Amount of dai being sold that will be taken from the user's wallet",
          "from": "Wallet providing the dai being sold. Must have approved the operator with `pool.addDelegate(operator)`.",
          "to": "Wallet receiving the yDai being bought"
        },
        "returns": {
          "_0": "Amount of yDai that will be deposited on `to` wallet"
        }
      },
      "sellDaiPreview(uint128)": {
        "details": "Returns how much yDai would be obtained by selling `daiIn` dai",
        "params": {
          "daiIn": "Amount of dai hypothetically sold."
        },
        "returns": {
          "_0": "Amount of yDai hypothetically bought."
        }
      },
      "sellYDai(address,address,uint128)": {
        "details": "Sell yDai for Dai The trader needs to have called `yDai.approve`",
        "params": {
          "from": "Wallet providing the yDai being sold. Must have approved the operator with `pool.addDelegate(operator)`.",
          "to": "Wallet receiving the dai being bought",
          "yDaiIn": "Amount of yDai being sold that will be taken from the user's wallet"
        },
        "returns": {
          "_0": "Amount of dai that will be deposited on `to` wallet"
        }
      },
      "sellYDaiPreview(uint128)": {
        "details": "Returns how much dai would be obtained by selling `yDaiIn` yDai.",
        "params": {
          "yDaiIn": "Amount of yDai hypothetically sold."
        },
        "returns": {
          "_0": "Amount of Dai hypothetically bought."
        }
      },
      "symbol()": {
        "details": "Returns the symbol of the token, usually a shorter version of the name."
      },
      "totalSupply()": {
        "details": "See {IERC20-totalSupply}."
      },
      "transfer(address,uint256)": {
        "details": "See {IERC20-transfer}. Requirements: - `recipient` cannot be the zero address. - the caller must have a balance of at least `amount`."
      },
      "transferFrom(address,address,uint256)": {
        "details": "See {IERC20-transferFrom}. Emits an {Approval} event indicating the updated allowance. This is not required by the EIP. See the note at the beginning of {ERC20}; Requirements: - `sender` and `recipient` cannot be the zero address. - `sender` must have a balance of at least `amount`. - the caller must have allowance for ``sender``'s tokens of at least `amount`."
      }
    }
  },
  "userdoc": {
    "methods": {}
  }
}