{
  "contractName": "PoolProxy",
  "abi": [
    {
      "inputs": [
        {
          "internalType": "contract IController",
          "name": "_controller",
          "type": "address"
        }
      ],
      "stateMutability": "nonpayable",
      "type": "constructor"
    },
    {
      "inputs": [],
      "name": "CHAI",
      "outputs": [
        {
          "internalType": "bytes32",
          "name": "",
          "type": "bytes32"
        }
      ],
      "stateMutability": "view",
      "type": "function"
    },
    {
      "inputs": [],
      "name": "UNIT",
      "outputs": [
        {
          "internalType": "uint256",
          "name": "",
          "type": "uint256"
        }
      ],
      "stateMutability": "view",
      "type": "function"
    },
    {
      "inputs": [],
      "name": "chai",
      "outputs": [
        {
          "internalType": "contract IChai",
          "name": "",
          "type": "address"
        }
      ],
      "stateMutability": "view",
      "type": "function"
    },
    {
      "inputs": [],
      "name": "controller",
      "outputs": [
        {
          "internalType": "contract IController",
          "name": "",
          "type": "address"
        }
      ],
      "stateMutability": "view",
      "type": "function"
    },
    {
      "inputs": [],
      "name": "dai",
      "outputs": [
        {
          "internalType": "contract IDai",
          "name": "",
          "type": "address"
        }
      ],
      "stateMutability": "view",
      "type": "function"
    },
    {
      "inputs": [
        {
          "internalType": "contract IPool",
          "name": "pool",
          "type": "address"
        },
        {
          "internalType": "uint256",
          "name": "daiUsed",
          "type": "uint256"
        },
        {
          "internalType": "uint256",
          "name": "maxFYDai",
          "type": "uint256"
        }
      ],
      "name": "addLiquidity",
      "outputs": [
        {
          "internalType": "uint256",
          "name": "",
          "type": "uint256"
        }
      ],
      "stateMutability": "nonpayable",
      "type": "function"
    },
    {
      "inputs": [
        {
          "internalType": "contract IPool",
          "name": "pool",
          "type": "address"
        },
        {
          "internalType": "uint256",
          "name": "poolTokens",
          "type": "uint256"
        },
        {
          "internalType": "uint256",
          "name": "minimumDaiPrice",
          "type": "uint256"
        },
        {
          "internalType": "uint256",
          "name": "minimumFYDaiPrice",
          "type": "uint256"
        }
      ],
      "name": "removeLiquidityEarlyDaiPool",
      "outputs": [],
      "stateMutability": "nonpayable",
      "type": "function"
    },
    {
      "inputs": [
        {
          "internalType": "contract IPool",
          "name": "pool",
          "type": "address"
        },
        {
          "internalType": "uint256",
          "name": "poolTokens",
          "type": "uint256"
        },
        {
          "internalType": "uint256",
          "name": "minimumFYDaiPrice",
          "type": "uint256"
        }
      ],
      "name": "removeLiquidityEarlyDaiFixed",
      "outputs": [],
      "stateMutability": "nonpayable",
      "type": "function"
    },
    {
      "inputs": [
        {
          "internalType": "contract IPool",
          "name": "pool",
          "type": "address"
        },
        {
          "internalType": "uint256",
          "name": "poolTokens",
          "type": "uint256"
        }
      ],
      "name": "removeLiquidityMature",
      "outputs": [],
      "stateMutability": "nonpayable",
      "type": "function"
    },
    {
      "inputs": [
        {
          "internalType": "contract IPool",
          "name": "pool",
          "type": "address"
        }
      ],
      "name": "addLiquidityCheck",
      "outputs": [
        {
          "internalType": "bool",
          "name": "",
          "type": "bool"
        },
        {
          "internalType": "bool",
          "name": "",
          "type": "bool"
        },
        {
          "internalType": "bool",
          "name": "",
          "type": "bool"
        }
      ],
      "stateMutability": "view",
      "type": "function"
    },
    {
      "inputs": [
        {
          "internalType": "contract IPool",
          "name": "pool",
          "type": "address"
        }
      ],
      "name": "addLiquidityApprove",
      "outputs": [],
      "stateMutability": "nonpayable",
      "type": "function"
    },
    {
      "inputs": [
        {
          "internalType": "contract IPool",
          "name": "pool",
          "type": "address"
        },
        {
          "internalType": "uint256",
          "name": "daiUsed",
          "type": "uint256"
        },
        {
          "internalType": "uint256",
          "name": "maxFYDai",
          "type": "uint256"
        },
        {
          "internalType": "bytes",
          "name": "daiSig",
          "type": "bytes"
        },
        {
          "internalType": "bytes",
          "name": "controllerSig",
          "type": "bytes"
        }
      ],
      "name": "addLiquidityWithSignature",
      "outputs": [
        {
          "internalType": "uint256",
          "name": "",
          "type": "uint256"
        }
      ],
      "stateMutability": "nonpayable",
      "type": "function"
    },
    {
      "inputs": [
        {
          "internalType": "contract IPool",
          "name": "pool",
          "type": "address"
        }
      ],
      "name": "removeLiquidityEarlyDaiPoolCheck",
      "outputs": [
        {
          "internalType": "bool",
          "name": "",
          "type": "bool"
        },
        {
          "internalType": "bool",
          "name": "",
          "type": "bool"
        },
        {
          "internalType": "bool",
          "name": "",
          "type": "bool"
        }
      ],
      "stateMutability": "view",
      "type": "function"
    },
    {
      "inputs": [
        {
          "internalType": "contract IPool",
          "name": "pool",
          "type": "address"
        }
      ],
      "name": "removeLiquidityEarlyDaiPoolApprove",
      "outputs": [],
      "stateMutability": "nonpayable",
      "type": "function"
    },
    {
      "inputs": [
        {
          "internalType": "contract IPool",
          "name": "pool",
          "type": "address"
        },
        {
          "internalType": "uint256",
          "name": "poolTokens",
          "type": "uint256"
        },
        {
          "internalType": "uint256",
          "name": "minimumDaiPrice",
          "type": "uint256"
        },
        {
          "internalType": "uint256",
          "name": "minimumFYDaiPrice",
          "type": "uint256"
        },
        {
          "internalType": "bytes",
          "name": "controllerSig",
          "type": "bytes"
        },
        {
          "internalType": "bytes",
          "name": "poolSig",
          "type": "bytes"
        }
      ],
      "name": "removeLiquidityEarlyDaiPoolWithSignature",
      "outputs": [],
      "stateMutability": "nonpayable",
      "type": "function"
    },
    {
      "inputs": [
        {
          "internalType": "contract IPool",
          "name": "pool",
          "type": "address"
        }
      ],
      "name": "removeLiquidityEarlyDaiFixedCheck",
      "outputs": [
        {
          "internalType": "bool",
          "name": "",
          "type": "bool"
        },
        {
          "internalType": "bool",
          "name": "",
          "type": "bool"
        },
        {
          "internalType": "bool",
          "name": "",
          "type": "bool"
        }
      ],
      "stateMutability": "view",
      "type": "function"
    },
    {
      "inputs": [
        {
          "internalType": "contract IPool",
          "name": "pool",
          "type": "address"
        }
      ],
      "name": "removeLiquidityEarlyDaiFixedApprove",
      "outputs": [],
      "stateMutability": "nonpayable",
      "type": "function"
    },
    {
      "inputs": [
        {
          "internalType": "contract IPool",
          "name": "pool",
          "type": "address"
        },
        {
          "internalType": "uint256",
          "name": "poolTokens",
          "type": "uint256"
        },
        {
          "internalType": "uint256",
          "name": "minimumFYDaiPrice",
          "type": "uint256"
        },
        {
          "internalType": "bytes",
          "name": "controllerSig",
          "type": "bytes"
        },
        {
          "internalType": "bytes",
          "name": "poolSig",
          "type": "bytes"
        }
      ],
      "name": "removeLiquidityEarlyDaiFixedWithSignature",
      "outputs": [],
      "stateMutability": "nonpayable",
      "type": "function"
    },
    {
      "inputs": [
        {
          "internalType": "contract IPool",
          "name": "pool",
          "type": "address"
        }
      ],
      "name": "removeLiquidityMatureCheck",
      "outputs": [
        {
          "internalType": "bool",
          "name": "",
          "type": "bool"
        },
        {
          "internalType": "bool",
          "name": "",
          "type": "bool"
        },
        {
          "internalType": "bool",
          "name": "",
          "type": "bool"
        }
      ],
      "stateMutability": "view",
      "type": "function"
    },
    {
      "inputs": [],
      "name": "removeLiquidityMatureApprove",
      "outputs": [],
      "stateMutability": "nonpayable",
      "type": "function"
    },
    {
      "inputs": [
        {
          "internalType": "contract IPool",
          "name": "pool",
          "type": "address"
        },
        {
          "internalType": "uint256",
          "name": "poolTokens",
          "type": "uint256"
        },
        {
          "internalType": "bytes",
          "name": "controllerSig",
          "type": "bytes"
        },
        {
          "internalType": "bytes",
          "name": "poolSig",
          "type": "bytes"
        }
      ],
      "name": "removeLiquidityMatureWithSignature",
      "outputs": [],
      "stateMutability": "nonpayable",
      "type": "function"
    }
  ],
  "bytecode": "0x6101006040523480156200001257600080fd5b506040516200403f3803806200403f833981810160405260208110156200003857600080fd5b5051604080516361d027b360e01b815290516000916001600160a01b038416916361d027b391600480820192602092909190829003018186803b1580156200007f57600080fd5b505afa15801562000094573d6000803e3d6000fd5b505050506040513d6020811015620000ab57600080fd5b50516040805163f4b9fa7560e01b815290519192506001600160a01b0383169163f4b9fa7591600480820192602092909190829003018186803b158015620000f257600080fd5b505afa15801562000107573d6000803e3d6000fd5b505050506040513d60208110156200011e57600080fd5b505160601b6001600160601b03191660805260408051635b4e822b60e11b815290516001600160a01b0383169163b69d0456916004808301926020929190829003018186803b1580156200017157600080fd5b505afa15801562000186573d6000803e3d6000fd5b505050506040513d60208110156200019d57600080fd5b5051606081811b6001600160601b031990811660a05283821b811660e05284821b1660c052608051901c926001600160a01b03918216929082169116613d246200031b600039806108c0528061099752806117c25280611899528061267f52806128e652806130e152806131b852806132bc525080610f11528061113652806114ec52806115a752806117445280611e2b5280611f4f52806122955280612350528061242252806124dd528061275852806127bb52806128795280612cce5280612f8b5280613046528061327e528061352952806135cf52806136d35250806108ee52806109685280610a535280610b2a5280611d105280611d915280611e62528061291d52806129b85280612d165280613752525080610a815280610afb5280610bf45280610c6e5280610f9f52806117f0528061186a5280611a665280611b2f528061264f528061283852806129e65280612a905280612c2c528061310f5280613189528061325a52806132f352806138525250613d246000f3fe608060405234801561001057600080fd5b50600436106101375760003560e01c806395c1551c116100b8578063b8fde7501161007c578063b8fde75014610812578063bb9196701461083e578063d7da6a7914610846578063f4b9fa751461086c578063f77c479114610874578063fee126871461087c57610137565b806395c1551c146106735780639d8e2177146107b8578063b6148a88146107c0578063b69d0456146107e6578063b6dbf9ce1461080a57610137565b8063487ee17c116100ff578063487ee17c1461046c57806355776b7714610492578063572d9c4f146104d657806358fb049d1461050857806382b7be3c1461052e57610137565b8063280c795c1461013c578063319f4bb6146101645780633684df24146102a257806336b4f5bd146102ea5780633bfea3c014610322575b600080fd5b6101626004803603602081101561015257600080fd5b50356001600160a01b03166108a2565b005b6101626004803603608081101561017a57600080fd5b6001600160a01b0382351691602081013591810190606081016040820135600160201b8111156101a957600080fd5b8201836020820111156101bb57600080fd5b803590602001918460018302840111600160201b831117156101dc57600080fd5b91908080601f0160208091040260200160405190810160405280939291908181526020018383808284376000920191909152509295949360208101935035915050600160201b81111561022e57600080fd5b82018360208201111561024057600080fd5b803590602001918460018302840111600160201b8311171561026157600080fd5b91908080601f016020809104026020016040519081016040528093929190818152602001838380828437600092019190915250929550610ef5945050505050565b6102c8600480360360208110156102b857600080fd5b50356001600160a01b0316610f6d565b6040805193151584529115156020840152151582820152519081900360600190f35b6101626004803603608081101561030057600080fd5b506001600160a01b038135169060208101359060408101359060600135611234565b610162600480360360c081101561033857600080fd5b6001600160a01b038235169160208101359160408201359160608101359181019060a081016080820135600160201b81111561037357600080fd5b82018360208201111561038557600080fd5b803590602001918460018302840111600160201b831117156103a657600080fd5b91908080601f0160208091040260200160405190810160405280939291908181526020018383808284376000920191909152509295949360208101935035915050600160201b8111156103f857600080fd5b82018360208201111561040a57600080fd5b803590602001918460018302840111600160201b8311171561042b57600080fd5b91908080601f016020809104026020016040519081016040528093929190818152602001838380828437600092019190915250929550611727945050505050565b6101626004803603602081101561048257600080fd5b50356001600160a01b03166117a4565b6104c4600480360360608110156104a857600080fd5b506001600160a01b03813516906020810135906040013561190a565b60408051918252519081900360200190f35b610162600480360360608110156104ec57600080fd5b506001600160a01b0381351690602081013590604001356120e9565b6102c86004803603602081101561051e57600080fd5b50356001600160a01b0316612644565b610162600480360360a081101561054457600080fd5b6001600160a01b038235169160208101359160408201359190810190608081016060820135600160201b81111561057a57600080fd5b82018360208201111561058c57600080fd5b803590602001918460018302840111600160201b831117156105ad57600080fd5b91908080601f0160208091040260200160405190810160405280939291908181526020018383808284376000920191909152509295949360208101935035915050600160201b8111156105ff57600080fd5b82018360208201111561061157600080fd5b803590602001918460018302840111600160201b8311171561063257600080fd5b91908080601f01602080910402602001604051908101604052809392919081815260200183838082843760009201919091525092955061279e945050505050565b6104c4600480360360a081101561068957600080fd5b6001600160a01b038235169160208101359160408201359190810190608081016060820135600160201b8111156106bf57600080fd5b8201836020820111156106d157600080fd5b803590602001918460018302840111600160201b831117156106f257600080fd5b91908080601f0160208091040260200160405190810160405280939291908181526020018383808284376000920191909152509295949360208101935035915050600160201b81111561074457600080fd5b82018360208201111561075657600080fd5b803590602001918460018302840111600160201b8311171561077757600080fd5b91908080601f016020809104026020016040519081016040528093929190818152602001838380828437600092019190915250929550612819945050505050565b6104c46128ba565b6102c8600480360360208110156107d657600080fd5b50356001600160a01b03166128ca565b6107ee612d14565b604080516001600160a01b039092168252519081900360200190f35b6104c4612d38565b6101626004803603604081101561082857600080fd5b506001600160a01b038135169060200135612d43565b6101626130c3565b6101626004803603602081101561085c57600080fd5b50356001600160a01b0316610bc8565b6107ee613258565b6107ee61327c565b6102c86004803603602081101561089257600080fd5b50356001600160a01b03166132a0565b60408051636eb1769f60e11b81523060048201526001600160a01b037f0000000000000000000000000000000000000000000000000000000000000000811660248301529151600019927f0000000000000000000000000000000000000000000000000000000000000000169163dd62ed3e916044808301926020929190829003018186803b15801561093457600080fd5b505afa158015610948573d6000803e3d6000fd5b505050506040513d602081101561095e57600080fd5b50511015610a35577f00000000000000000000000000000000000000000000000000000000000000006001600160a01b031663095ea7b37f00000000000000000000000000000000000000000000000000000000000000006000196040518363ffffffff1660e01b815260040180836001600160a01b03166001600160a01b0316815260200182815260200192505050602060405180830381600087803b158015610a0857600080fd5b505af1158015610a1c573d6000803e3d6000fd5b505050506040513d6020811015610a3257600080fd5b50505b60408051636eb1769f60e11b81523060048201526001600160a01b037f0000000000000000000000000000000000000000000000000000000000000000811660248301529151600019927f0000000000000000000000000000000000000000000000000000000000000000169163dd62ed3e916044808301926020929190829003018186803b158015610ac757600080fd5b505afa158015610adb573d6000803e3d6000fd5b505050506040513d6020811015610af157600080fd5b50511015610bc8577f00000000000000000000000000000000000000000000000000000000000000006001600160a01b031663095ea7b37f00000000000000000000000000000000000000000000000000000000000000006000196040518363ffffffff1660e01b815260040180836001600160a01b03166001600160a01b0316815260200182815260200192505050602060405180830381600087803b158015610b9b57600080fd5b505af1158015610baf573d6000803e3d6000fd5b505050506040513d6020811015610bc557600080fd5b50505b60408051636eb1769f60e11b81523060048201526001600160a01b0383811660248301529151600019927f0000000000000000000000000000000000000000000000000000000000000000169163dd62ed3e916044808301926020929190829003018186803b158015610c3a57600080fd5b505afa158015610c4e573d6000803e3d6000fd5b505050506040513d6020811015610c6457600080fd5b50511015610d1b577f00000000000000000000000000000000000000000000000000000000000000006001600160a01b031663095ea7b3826000196040518363ffffffff1660e01b815260040180836001600160a01b03166001600160a01b0316815260200182815260200192505050602060405180830381600087803b158015610cee57600080fd5b505af1158015610d02573d6000803e3d6000fd5b505050506040513d6020811015610d1857600080fd5b50505b6001600160701b038016816001600160a01b031663284f44446040518163ffffffff1660e01b815260040160206040518083038186803b158015610d5e57600080fd5b505afa158015610d72573d6000803e3d6000fd5b505050506040513d6020811015610d8857600080fd5b505160408051636eb1769f60e11b81523060048201526001600160a01b0385811660248301529151919092169163dd62ed3e916044808301926020929190829003018186803b158015610dda57600080fd5b505afa158015610dee573d6000803e3d6000fd5b505050506040513d6020811015610e0457600080fd5b50511015610ef257806001600160a01b031663284f44446040518163ffffffff1660e01b815260040160206040518083038186803b158015610e4557600080fd5b505afa158015610e59573d6000803e3d6000fd5b505050506040513d6020811015610e6f57600080fd5b50516040805163095ea7b360e01b81526001600160a01b03848116600483015260001960248301529151919092169163095ea7b39160448083019260209291908290030181600087803b158015610ec557600080fd5b505af1158015610ed9573d6000803e3d6000fd5b505050506040513d6020811015610eef57600080fd5b50505b50565b610efd6130c3565b815115610f3d57610f3d6001600160a01b037f0000000000000000000000000000000000000000000000000000000000000000168363ffffffff61333916565b805115610f5d57610f5d6001600160a01b0385168263ffffffff61333916565b610f678484612d43565b50505050565b60008080600160408051636eb1769f60e11b81523060048201526001600160a01b0387811660248301529151600019927f0000000000000000000000000000000000000000000000000000000000000000169163dd62ed3e916044808301926020929190829003018186803b158015610fe557600080fd5b505afa158015610ff9573d6000803e3d6000fd5b505050506040513d602081101561100f57600080fd5b505114905080801561110a57506001600160701b038016856001600160a01b031663284f44446040518163ffffffff1660e01b815260040160206040518083038186803b15801561105f57600080fd5b505afa158015611073573d6000803e3d6000fd5b505050506040513d602081101561108957600080fd5b505160408051636eb1769f60e11b81523060048201526001600160a01b0389811660248301529151919092169163dd62ed3e916044808301926020929190829003018186803b1580156110db57600080fd5b505afa1580156110ef573d6000803e3d6000fd5b505050506040513d602081101561110557600080fd5b505110155b6040805163f6bcbd3160e01b815233600482015230602482015290519192506000916001600160a01b037f0000000000000000000000000000000000000000000000000000000000000000169163f6bcbd31916044808301926020929190829003018186803b15801561117c57600080fd5b505afa158015611190573d6000803e3d6000fd5b505050506040513d60208110156111a657600080fd5b50516040805163f6bcbd3160e01b815233600482015230602482015290519192506000916001600160a01b0389169163f6bcbd31916044808301926020929190829003018186803b1580156111fa57600080fd5b505afa15801561120e573d6000803e3d6000fd5b505050506040513d602081101561122457600080fd5b5051929791965091945092505050565b6000846001600160a01b031663284f44446040518163ffffffff1660e01b815260040160206040518083038186803b15801561126f57600080fd5b505afa158015611283573d6000803e3d6000fd5b505050506040513d602081101561129957600080fd5b50516040805163204f83f960e01b815290519192506000916001600160a01b0384169163204f83f9916004808301926020929190829003018186803b1580156112e157600080fd5b505afa1580156112f5573d6000803e3d6000fd5b505050506040513d602081101561130b57600080fd5b505160408051633dae446f60e21b815233600482015230602482015260448101889052815192935060009283926001600160a01b038b169263f6b911bc926064808301939282900301818787803b15801561136557600080fd5b505af1158015611379573d6000803e3d6000fd5b505050506040513d604081101561138f57600080fd5b508051602090910151909250905060006001600160a01b03891663b26be92230806113b9876133d0565b604080516001600160e01b031960e087901b1681526001600160a01b0394851660048201529290931660248301526001600160801b03166044820152905160648083019260209291908290030181600087803b15801561141857600080fd5b505af115801561142c573d6000803e3d6000fd5b505050506040513d602081101561144257600080fd5b50516001600160801b031690506114598388613432565b8110156114975760405162461bcd60e51b8152600401808060200182810382526026815260200180613c806026913960400191505060405180910390fd5b6114a7828263ffffffff61345d16565b9150600080831180156115615750604080516324c94bb560e21b8152634348414960e01b60048201526024810187905233604482015290516000916001600160a01b037f000000000000000000000000000000000000000000000000000000000000000016916393252ed491606480820192602092909190829003018186803b15801561153357600080fd5b505afa158015611547573d6000803e3d6000fd5b505050506040513d602081101561155d57600080fd5b5051115b1561161e576040805163b93dd41d60e01b8152634348414960e01b6004820152602481018790523060448201523360648201526084810185905290516001600160a01b037f0000000000000000000000000000000000000000000000000000000000000000169163b93dd41d9160a48083019260209291908290030181600087803b1580156115ef57600080fd5b505af1158015611603573d6000803e3d6000fd5b505050506040513d602081101561161957600080fd5b505190505b6000611630848363ffffffff6134b716565b90508015611712576116428189613432565b604080516360561e0560e01b8152306004820181905260248201526001600160801b038416604482015290516001600160a01b038e16916360561e059160648083019260209291908290030181600087803b1580156116a057600080fd5b505af11580156116b4573d6000803e3d6000fd5b505050506040513d60208110156116ca57600080fd5b50516001600160801b031610156117125760405162461bcd60e51b8152600401808060200182810382526028815260200180613ca66028913960400191505060405180910390fd5b61171a6134f9565b5050505050505050505050565b61173086610bc8565b815115611770576117706001600160a01b037f0000000000000000000000000000000000000000000000000000000000000000168363ffffffff61333916565b805115611790576117906001600160a01b0387168263ffffffff61333916565b61179c86868686611234565b505050505050565b60408051636eb1769f60e11b81523060048201526001600160a01b037f0000000000000000000000000000000000000000000000000000000000000000811660248301529151600019927f0000000000000000000000000000000000000000000000000000000000000000169163dd62ed3e916044808301926020929190829003018186803b15801561183657600080fd5b505afa15801561184a573d6000803e3d6000fd5b505050506040513d602081101561186057600080fd5b50511015610d1b577f00000000000000000000000000000000000000000000000000000000000000006001600160a01b031663095ea7b37f00000000000000000000000000000000000000000000000000000000000000006000196040518363ffffffff1660e01b815260040180836001600160a01b03166001600160a01b0316815260200182815260200192505050602060405180830381600087803b158015610cee57600080fd5b600080846001600160a01b031663284f44446040518163ffffffff1660e01b815260040160206040518083038186803b15801561194657600080fd5b505afa15801561195a573d6000803e3d6000fd5b505050506040513d602081101561197057600080fd5b50516040805163ae4e7fdf60e01b815290519192506001600160a01b0383169163ae4e7fdf91600480820192602092909190829003018186803b1580156119b657600080fd5b505afa1580156119ca573d6000803e3d6000fd5b505050506040513d60208110156119e057600080fd5b5051151560011415611a39576040805162461bcd60e51b815260206004820152601f60248201527f506f6f6c50726f78793a204f6e6c79206265666f7265206d6174757269747900604482015290519081900360640190fd5b604080516323b872dd60e01b81523360048201523060248201526044810186905290516001600160a01b037f000000000000000000000000000000000000000000000000000000000000000016916323b872dd9160648083019260209291908290030181600087803b158015611aae57600080fd5b505af1158015611ac2573d6000803e3d6000fd5b505050506040513d6020811015611ad857600080fd5b5051611b2b576040805162461bcd60e51b815260206004820152601a60248201527f506f6f6c50726f78793a205472616e73666572204661696c6564000000000000604482015290519081900360640190fd5b60007f00000000000000000000000000000000000000000000000000000000000000006001600160a01b03166370a08231876040518263ffffffff1660e01b815260040180826001600160a01b03166001600160a01b0316815260200191505060206040518083038186803b158015611ba357600080fd5b505afa158015611bb7573d6000803e3d6000fd5b505050506040513d6020811015611bcd57600080fd5b5051604080516370a0823160e01b81526001600160a01b0389811660048301529151929350600092918516916370a0823191602480820192602092909190829003018186803b158015611c1f57600080fd5b505afa158015611c33573d6000803e3d6000fd5b505050506040513d6020811015611c4957600080fd5b505190506000611c7e611c62838563ffffffff61345d16565b611c72898663ffffffff61399d16565b9063ffffffff6139f616565b90506000611c92888363ffffffff6134b716565b905086811115611ce9576040805162461bcd60e51b815260206004820152601c60248201527f506f6f6c50726f78793a206d6178465944616920657863656564656400000000604482015290519081900360640190fd5b60408051633b4da69f60e01b81523060048201526024810183905290516001600160a01b037f00000000000000000000000000000000000000000000000000000000000000001691633b4da69f91604480830192600092919082900301818387803b158015611d5757600080fd5b505af1158015611d6b573d6000803e3d6000fd5b505060408051633612d9a360e11b81523060048201529051600093506001600160a01b037f0000000000000000000000000000000000000000000000000000000000000000169250636c25b3469160248082019260209290919082900301818787803b158015611dda57600080fd5b505af1158015611dee573d6000803e3d6000fd5b505050506040513d6020811015611e0457600080fd5b5051604080516370a0823160e01b8152306004820181905291519293506001600160a01b037f000000000000000000000000000000000000000000000000000000000000000081169363adb9e54e93634348414960e01b93909233927f0000000000000000000000000000000000000000000000000000000000000000909116916370a08231916024808301926020929190829003018186803b158015611eaa57600080fd5b505afa158015611ebe573d6000803e3d6000fd5b505050506040513d6020811015611ed457600080fd5b5051604080516001600160e01b031960e088901b16815260048101959095526001600160a01b039384166024860152919092166044840152606483019190915251608480830192600092919082900301818387803b158015611f3557600080fd5b505af1158015611f49573d6000803e3d6000fd5b505050507f00000000000000000000000000000000000000000000000000000000000000006001600160a01b031663801d325f634348414960e01b886001600160a01b031663204f83f96040518163ffffffff1660e01b815260040160206040518083038186803b158015611fbd57600080fd5b505afa158015611fd1573d6000803e3d6000fd5b505050506040513d6020811015611fe757600080fd5b5051604080516001600160e01b031960e086901b16815260048101939093526024830191909152336044830152306064830152608482018590525160a480830192600092919082900301818387803b15801561204257600080fd5b505af1158015612056573d6000803e3d6000fd5b505060408051636361ddf360e11b81523060048201523360248201526044810187905290516001600160a01b038e16935063c6c3bbe6925060648083019260209291908290030181600087803b1580156120af57600080fd5b505af11580156120c3573d6000803e3d6000fd5b505050506040513d60208110156120d957600080fd5b50519a9950505050505050505050565b6000836001600160a01b031663284f44446040518163ffffffff1660e01b815260040160206040518083038186803b15801561212457600080fd5b505afa158015612138573d6000803e3d6000fd5b505050506040513d602081101561214e57600080fd5b50516040805163204f83f960e01b815290519192506000916001600160a01b0384169163204f83f9916004808301926020929190829003018186803b15801561219657600080fd5b505afa1580156121aa573d6000803e3d6000fd5b505050506040513d60208110156121c057600080fd5b505160408051633dae446f60e21b815233600482015230602482015260448101879052815192935060009283926001600160a01b038a169263f6b911bc926064808301939282900301818787803b15801561221a57600080fd5b505af115801561222e573d6000803e3d6000fd5b505050506040513d604081101561224457600080fd5b50805160209091015190925090506000811580159061230a5750604080516324c94bb560e21b8152634348414960e01b60048201526024810186905233604482015290516000916001600160a01b037f000000000000000000000000000000000000000000000000000000000000000016916393252ed491606480820192602092909190829003018186803b1580156122dc57600080fd5b505afa1580156122f0573d6000803e3d6000fd5b505050506040513d602081101561230657600080fd5b5051115b156123c7576040805163b93dd41d60e01b8152634348414960e01b6004820152602481018690523060448201523360648201526084810184905290516001600160a01b037f0000000000000000000000000000000000000000000000000000000000000000169163b93dd41d9160a48083019260209291908290030181600087803b15801561239857600080fd5b505af11580156123ac573d6000803e3d6000fd5b505050506040513d60208110156123c257600080fd5b505190505b60006123d9838363ffffffff6134b716565b905080612557576000841180156124975750604080516324c94bb560e21b8152634348414960e01b60048201526024810187905233604482015290516000916001600160a01b037f000000000000000000000000000000000000000000000000000000000000000016916393252ed491606480820192602092909190829003018186803b15801561246957600080fd5b505afa15801561247d573d6000803e3d6000fd5b505050506040513d602081101561249357600080fd5b5051115b1561255257604080516325d3cd1760e01b8152634348414960e01b6004820152602481018790523060448201523360648201526084810186905290516001600160a01b037f000000000000000000000000000000000000000000000000000000000000000016916325d3cd179160a48083019260209291908290030181600087803b15801561252557600080fd5b505af1158015612539573d6000803e3d6000fd5b505050506040513d602081101561254f57600080fd5b50505b612631565b6125618188613432565b604080516360561e0560e01b8152306004820181905260248201526001600160801b038416604482015290516001600160a01b038c16916360561e059160648083019260209291908290030181600087803b1580156125bf57600080fd5b505af11580156125d3573d6000803e3d6000fd5b505050506040513d60208110156125e957600080fd5b50516001600160801b031610156126315760405162461bcd60e51b8152600401808060200182810382526028815260200180613ca66028913960400191505060405180910390fd5b6126396134f9565b505050505050505050565b6000806000806000197f00000000000000000000000000000000000000000000000000000000000000006001600160a01b031663dd62ed3e307f00000000000000000000000000000000000000000000000000000000000000006040518363ffffffff1660e01b815260040180836001600160a01b03166001600160a01b03168152602001826001600160a01b03166001600160a01b031681526020019250505060206040518083038186803b1580156126fd57600080fd5b505afa158015612711573d6000803e3d6000fd5b505050506040513d602081101561272757600080fd5b50516040805163f6bcbd3160e01b815233600482015230602482015290519290911492506000916001600160a01b037f0000000000000000000000000000000000000000000000000000000000000000169163f6bcbd31916044808301926020929190829003018186803b15801561117c57600080fd5b6127a7856117a4565b8151156127e7576127e76001600160a01b037f0000000000000000000000000000000000000000000000000000000000000000168363ffffffff61333916565b805115612807576128076001600160a01b0386168263ffffffff61333916565b6128128585856120e9565b5050505050565b6000612824866108a2565b825115612865576128656001600160a01b037f000000000000000000000000000000000000000000000000000000000000000016308563ffffffff613a3816565b8151156128a5576128a56001600160a01b037f0000000000000000000000000000000000000000000000000000000000000000168363ffffffff61333916565b6128b086868661190a565b9695505050505050565b6b033b2e3c9fd0803ce800000081565b60008080600160408051636eb1769f60e11b81523060048201527f00000000000000000000000000000000000000000000000000000000000000006001600160a01b0390811660248301529151600019927f0000000000000000000000000000000000000000000000000000000000000000169163dd62ed3e916044808301926020929190829003018186803b15801561296357600080fd5b505afa158015612977573d6000803e3d6000fd5b505050506040513d602081101561298d57600080fd5b5051149050808015612a5a575060408051636eb1769f60e11b81523060048201526001600160a01b037f0000000000000000000000000000000000000000000000000000000000000000811660248301529151600019927f0000000000000000000000000000000000000000000000000000000000000000169163dd62ed3e916044808301926020929190829003018186803b158015612a2c57600080fd5b505afa158015612a40573d6000803e3d6000fd5b505050506040513d6020811015612a5657600080fd5b5051145b9050808015612b04575060408051636eb1769f60e11b81523060048201526001600160a01b0387811660248301529151600019927f0000000000000000000000000000000000000000000000000000000000000000169163dd62ed3e916044808301926020929190829003018186803b158015612ad657600080fd5b505afa158015612aea573d6000803e3d6000fd5b505050506040513d6020811015612b0057600080fd5b5051145b9050808015612bfc57506001600160701b038016856001600160a01b031663284f44446040518163ffffffff1660e01b815260040160206040518083038186803b158015612b5157600080fd5b505afa158015612b65573d6000803e3d6000fd5b505050506040513d6020811015612b7b57600080fd5b505160408051636eb1769f60e11b81523060048201526001600160a01b0389811660248301529151919092169163dd62ed3e916044808301926020929190829003018186803b158015612bcd57600080fd5b505afa158015612be1573d6000803e3d6000fd5b505050506040513d6020811015612bf757600080fd5b505110155b60408051636eb1769f60e11b81523360048201523060248201529051919250600091600019916001600160a01b037f0000000000000000000000000000000000000000000000000000000000000000169163dd62ed3e91604480820192602092909190829003018186803b158015612c7357600080fd5b505afa158015612c87573d6000803e3d6000fd5b505050506040513d6020811015612c9d57600080fd5b50516040805163f6bcbd3160e01b815233600482015230602482015290519290911492506000916001600160a01b037f0000000000000000000000000000000000000000000000000000000000000000169163f6bcbd31916044808301926020929190829003018186803b1580156111fa57600080fd5b7f000000000000000000000000000000000000000000000000000000000000000081565b634348414960e01b81565b6000826001600160a01b031663284f44446040518163ffffffff1660e01b815260040160206040518083038186803b158015612d7e57600080fd5b505afa158015612d92573d6000803e3d6000fd5b505050506040513d6020811015612da857600080fd5b50516040805163204f83f960e01b815290519192506000916001600160a01b0384169163204f83f9916004808301926020929190829003018186803b158015612df057600080fd5b505afa158015612e04573d6000803e3d6000fd5b505050506040513d6020811015612e1a57600080fd5b505160408051633dae446f60e21b815233600482015230602482015260448101869052815192935060009283926001600160a01b0389169263f6b911bc926064808301939282900301818787803b158015612e7457600080fd5b505af1158015612e88573d6000803e3d6000fd5b505050506040513d6040811015612e9e57600080fd5b50805160209091015190925090508015612f495760408051630e6dfcd560e01b815230600482018190526024820152604481018390529051612f46916001600160a01b03871691630e6dfcd5916064808201926020929091908290030181600087803b158015612f0d57600080fd5b505af1158015612f21573d6000803e3d6000fd5b505050506040513d6020811015612f3757600080fd5b5051839063ffffffff61345d16565b91505b6000821180156130005750604080516324c94bb560e21b8152634348414960e01b60048201526024810185905233604482015290516000916001600160a01b037f000000000000000000000000000000000000000000000000000000000000000016916393252ed491606480820192602092909190829003018186803b158015612fd257600080fd5b505afa158015612fe6573d6000803e3d6000fd5b505050506040513d6020811015612ffc57600080fd5b5051115b156130bb57604080516325d3cd1760e01b8152634348414960e01b6004820152602481018590523060448201523360648201526084810184905290516001600160a01b037f000000000000000000000000000000000000000000000000000000000000000016916325d3cd179160a48083019260209291908290030181600087803b15801561308e57600080fd5b505af11580156130a2573d6000803e3d6000fd5b505050506040513d60208110156130b857600080fd5b50505b61179c6134f9565b60408051636eb1769f60e11b81523060048201526001600160a01b037f0000000000000000000000000000000000000000000000000000000000000000811660248301529151600019927f0000000000000000000000000000000000000000000000000000000000000000169163dd62ed3e916044808301926020929190829003018186803b15801561315557600080fd5b505afa158015613169573d6000803e3d6000fd5b505050506040513d602081101561317f57600080fd5b50511015613256577f00000000000000000000000000000000000000000000000000000000000000006001600160a01b031663095ea7b37f00000000000000000000000000000000000000000000000000000000000000006000196040518363ffffffff1660e01b815260040180836001600160a01b03166001600160a01b0316815260200182815260200192505050602060405180830381600087803b15801561322957600080fd5b505af115801561323d573d6000803e3d6000fd5b505050506040513d602081101561325357600080fd5b50505b565b7f000000000000000000000000000000000000000000000000000000000000000081565b7f000000000000000000000000000000000000000000000000000000000000000081565b60008080600160408051636eb1769f60e11b81523060048201527f00000000000000000000000000000000000000000000000000000000000000006001600160a01b0390811660248301529151600019927f0000000000000000000000000000000000000000000000000000000000000000169163dd62ed3e916044808301926020929190829003018186803b158015610fe557600080fd5b600080600061334784613b68565b60408051631a28ff0560e01b8152336004820152306024820152600019604482015260ff831660648201526084810185905260a48101849052905193965091945092506001600160a01b03871691631a28ff059160c48082019260009290919082900301818387803b1580156133bc57600080fd5b505af1158015612639573d6000803e3d6000fd5b60006001600160801b0382111561342e576040805162461bcd60e51b815260206004820152601760248201527f53616665436173743a2043617374206f766572666c6f77000000000000000000604482015290519081900360640190fd5b5090565b60006134546b033b2e3c9fd0803ce8000000611c72858563ffffffff61399d16565b90505b92915050565b600082820183811015613454576040805162461bcd60e51b815260206004820152601b60248201527f536166654d6174683a206164646974696f6e206f766572666c6f770000000000604482015290519081900360640190fd5b600061345483836040518060400160405280601e81526020017f536166654d6174683a207375627472616374696f6e206f766572666c6f770000815250613b83565b6040805163dd62f42360e01b8152634348414960e01b600482015233602482015290516000916001600160a01b037f0000000000000000000000000000000000000000000000000000000000000000169163dd62f42391604480820192602092909190829003018186803b15801561357057600080fd5b505afa158015613584573d6000803e3d6000fd5b505050506040513d602081101561359a57600080fd5b5051604080516301aa6cff60e51b8152634348414960e01b600482015233602482015290519192506000916001600160a01b037f0000000000000000000000000000000000000000000000000000000000000000169163354d9fe0916044808301926020929190829003018186803b15801561361557600080fd5b505afa158015613629573d6000803e3d6000fd5b505050506040513d602081101561363f57600080fd5b5051905080821015613698576040805162461bcd60e51b815260206004820152601e60248201527f506f6f6c50726f78793a20556e646572636f6c6c61746572616c697a65640000604482015290519081900360640190fd5b6040805163470660bb60e11b8152634348414960e01b6004820152336024820152306044820152828403606482015290516001600160a01b037f00000000000000000000000000000000000000000000000000000000000000001691638e0cc17691608480830192600092919082900301818387803b15801561371a57600080fd5b505af115801561372e573d6000803e3d6000fd5b5050604080516370a0823160e01b8152306004820181905291516001600160a01b037f000000000000000000000000000000000000000000000000000000000000000016945063ef693bed935084916370a08231916024808301926020929190829003018186803b1580156137a257600080fd5b505afa1580156137b6573d6000803e3d6000fd5b505050506040513d60208110156137cc57600080fd5b5051604080516001600160e01b031960e086901b1681526001600160a01b039093166004840152602483019190915251604480830192600092919082900301818387803b15801561381c57600080fd5b505af1158015613830573d6000803e3d6000fd5b5050604080516370a0823160e01b815230600482015290516001600160a01b037f000000000000000000000000000000000000000000000000000000000000000016935063a9059cbb9250339184916370a0823191602480820192602092909190829003018186803b1580156138a557600080fd5b505afa1580156138b9573d6000803e3d6000fd5b505050506040513d60208110156138cf57600080fd5b5051604080516001600160e01b031960e086901b1681526001600160a01b03909316600484015260248301919091525160448083019260209291908290030181600087803b15801561392057600080fd5b505af1158015613934573d6000803e3d6000fd5b505050506040513d602081101561394a57600080fd5b5051613253576040805162461bcd60e51b815260206004820152601e60248201527f506f6f6c50726f78793a20446169205472616e73666572204661696c65640000604482015290519081900360640190fd5b6000826139ac57506000613457565b828202828482816139b957fe5b04146134545760405162461bcd60e51b8152600401808060200182810382526021815260200180613cce6021913960400191505060405180910390fd5b600061345483836040518060400160405280601a81526020017f536166654d6174683a206469766973696f6e206279207a65726f000000000000815250613c1a565b6000806000613a4684613b68565b60408051623f675f60e91b8152336004820181905291519497509295509093506001600160a01b03891692638fcbaf0c9289918591637ecebe00916024808301926020929190829003018186803b158015613aa057600080fd5b505afa158015613ab4573d6000803e3d6000fd5b505050506040513d6020811015613aca57600080fd5b5051604080516001600160e01b031960e087901b1681526001600160a01b039485166004820152929093166024830152604482015260001960648201526001608482015260ff851660a482015260c4810187905260e48101869052905161010480830192600092919082900301818387803b158015613b4857600080fd5b505af1158015613b5c573d6000803e3d6000fd5b50505050505050505050565b60208101516040820151606090920151909260009190911a90565b60008184841115613c125760405162461bcd60e51b81526004018080602001828103825283818151815260200191508051906020019080838360005b83811015613bd7578181015183820152602001613bbf565b50505050905090810190601f168015613c045780820380516001836020036101000a031916815260200191505b509250505060405180910390fd5b505050900390565b60008183613c695760405162461bcd60e51b8152602060048201818152835160248401528351909283926044909101919085019080838360008315613bd7578181015183820152602001613bbf565b506000838581613c7557fe5b049594505050505056fe506f6f6c50726f78793a206d696e696d756d4461695072696365206e6f742072656163686564506f6f6c50726f78793a206d696e696d756d46594461695072696365206e6f742072656163686564536166654d6174683a206d756c7469706c69636174696f6e206f766572666c6f77a2646970667358221220c99341096b1d14d79c46a75b92feac72d999f45b9b7659fc28091b8294647b8d64736f6c634300060a0033",
  "immutableReferences": {
    "25306": [
      {
        "length": 32,
        "start": 2689
      },
      {
        "length": 32,
        "start": 2811
      },
      {
        "length": 32,
        "start": 3060
      },
      {
        "length": 32,
        "start": 3182
      },
      {
        "length": 32,
        "start": 3999
      },
      {
        "length": 32,
        "start": 6128
      },
      {
        "length": 32,
        "start": 6250
      },
      {
        "length": 32,
        "start": 6758
      },
      {
        "length": 32,
        "start": 6959
      },
      {
        "length": 32,
        "start": 9807
      },
      {
        "length": 32,
        "start": 10296
      },
      {
        "length": 32,
        "start": 10726
      },
      {
        "length": 32,
        "start": 10896
      },
      {
        "length": 32,
        "start": 11308
      },
      {
        "length": 32,
        "start": 12559
      },
      {
        "length": 32,
        "start": 12681
      },
      {
        "length": 32,
        "start": 12890
      },
      {
        "length": 32,
        "start": 13043
      },
      {
        "length": 32,
        "start": 14418
      }
    ],
    "25308": [
      {
        "length": 32,
        "start": 2286
      },
      {
        "length": 32,
        "start": 2408
      },
      {
        "length": 32,
        "start": 2643
      },
      {
        "length": 32,
        "start": 2858
      },
      {
        "length": 32,
        "start": 7440
      },
      {
        "length": 32,
        "start": 7569
      },
      {
        "length": 32,
        "start": 7778
      },
      {
        "length": 32,
        "start": 10525
      },
      {
        "length": 32,
        "start": 10680
      },
      {
        "length": 32,
        "start": 11542
      },
      {
        "length": 32,
        "start": 14162
      }
    ],
    "25310": [
      {
        "length": 32,
        "start": 3857
      },
      {
        "length": 32,
        "start": 4406
      },
      {
        "length": 32,
        "start": 5356
      },
      {
        "length": 32,
        "start": 5543
      },
      {
        "length": 32,
        "start": 5956
      },
      {
        "length": 32,
        "start": 7723
      },
      {
        "length": 32,
        "start": 8015
      },
      {
        "length": 32,
        "start": 8853
      },
      {
        "length": 32,
        "start": 9040
      },
      {
        "length": 32,
        "start": 9250
      },
      {
        "length": 32,
        "start": 9437
      },
      {
        "length": 32,
        "start": 10072
      },
      {
        "length": 32,
        "start": 10171
      },
      {
        "length": 32,
        "start": 10361
      },
      {
        "length": 32,
        "start": 11470
      },
      {
        "length": 32,
        "start": 12171
      },
      {
        "length": 32,
        "start": 12358
      },
      {
        "length": 32,
        "start": 12926
      },
      {
        "length": 32,
        "start": 13609
      },
      {
        "length": 32,
        "start": 13775
      },
      {
        "length": 32,
        "start": 14035
      }
    ],
    "25312": [
      {
        "length": 32,
        "start": 2240
      },
      {
        "length": 32,
        "start": 2455
      },
      {
        "length": 32,
        "start": 6082
      },
      {
        "length": 32,
        "start": 6297
      },
      {
        "length": 32,
        "start": 9855
      },
      {
        "length": 32,
        "start": 10470
      },
      {
        "length": 32,
        "start": 12513
      },
      {
        "length": 32,
        "start": 12728
      },
      {
        "length": 32,
        "start": 12988
      }
    ]
  },
  "source": "// SPDX-License-Identifier: GPL-3.0-or-later\npragma solidity ^0.6.10;\n\nimport \"../interfaces/IDai.sol\";\nimport \"../interfaces/IPool.sol\";\nimport \"../interfaces/IFYDai.sol\";\nimport \"../interfaces/IChai.sol\";\nimport \"../interfaces/ITreasury.sol\";\nimport \"../interfaces/IController.sol\";\nimport \"../helpers/DecimalMath.sol\";\nimport \"../helpers/SafeCast.sol\";\nimport \"../helpers/YieldAuth.sol\";\n\n\ncontract PoolProxy is DecimalMath {\n    using SafeCast for uint256;\n    using YieldAuth for IController;\n    using YieldAuth for IDai;\n    using YieldAuth for IFYDai;\n    using YieldAuth for IPool;\n\n    IDai public immutable dai;\n    IChai public immutable chai;\n    IController public immutable controller;\n    address immutable treasury;\n\n    bytes32 public constant CHAI = \"CHAI\";\n\n    constructor(IController _controller) public {\n        ITreasury _treasury = _controller.treasury();\n        dai = _treasury.dai();\n        chai = _treasury.chai();\n        treasury = address(_treasury);\n        controller = _controller;\n    }\n\n    /// @dev Mints liquidity with provided Dai by borrowing fyDai with some of the Dai.\n    /// Caller must have approved the proxy using`controller.addDelegate(poolProxy)` or with `addLiquidityWithSignature`.\n    /// Caller must have approved the dai transfer with `dai.approve(daiUsed)` or with `addLiquidityWithSignature`.\n    /// Caller must have called `addLiquidityWithSignature` at least once before to set proxy approvals.\n    /// @param daiUsed amount of Dai to use to mint liquidity. \n    /// @param maxFYDai maximum amount of fyDai to be borrowed to mint liquidity. \n    /// @return The amount of liquidity tokens minted.  \n    function addLiquidity(IPool pool, uint256 daiUsed, uint256 maxFYDai) public returns (uint256) {\n        IFYDai fyDai = pool.fyDai();\n        require(fyDai.isMature() != true, \"PoolProxy: Only before maturity\");\n        require(dai.transferFrom(msg.sender, address(this), daiUsed), \"PoolProxy: Transfer Failed\");\n\n        // calculate needed fyDai\n        uint256 daiReserves = dai.balanceOf(address(pool));\n        uint256 fyDaiReserves = fyDai.balanceOf(address(pool));\n        uint256 daiToAdd = daiUsed.mul(daiReserves).div(fyDaiReserves.add(daiReserves));\n        uint256 daiToConvert = daiUsed.sub(daiToAdd);\n        require(\n            daiToConvert <= maxFYDai,\n            \"PoolProxy: maxFYDai exceeded\"\n        ); // 1 Dai == 1 fyDai\n\n        // convert dai to chai and borrow needed fyDai\n        chai.join(address(this), daiToConvert);\n        // look at the balance of chai in dai to avoid rounding issues\n        uint256 toBorrow = chai.dai(address(this));\n        controller.post(CHAI, address(this), msg.sender, chai.balanceOf(address(this)));\n        controller.borrow(CHAI, fyDai.maturity(), msg.sender, address(this), toBorrow);\n        \n        // mint liquidity tokens\n        return pool.mint(address(this), msg.sender, daiToAdd);\n    }\n\n    /// @dev Burns tokens and sells Dai proceedings for fyDai. Pays as much debt as possible, then sells back any remaining fyDai for Dai. Then returns all Dai, and if there is no debt in the Controller, all posted Chai.\n    /// Caller must have approved the proxy using`controller.addDelegate(poolProxy)` and `pool.addDelegate(poolProxy)` or with `removeLiquidityEarlyDaiPoolWithSignature`\n    /// Caller must have called `removeLiquidityEarlyDaiPoolWithSignature` at least once before to set proxy approvals.\n    /// @param poolTokens amount of pool tokens to burn. \n    /// @param minimumDaiPrice minimum fyDai/Dai price to be accepted when internally selling Dai.\n    /// @param minimumFYDaiPrice minimum Dai/fyDai price to be accepted when internally selling fyDai.\n    function removeLiquidityEarlyDaiPool(IPool pool, uint256 poolTokens, uint256 minimumDaiPrice, uint256 minimumFYDaiPrice) public {\n\n        IFYDai fyDai = pool.fyDai();\n        uint256 maturity = fyDai.maturity();\n\n        (uint256 daiObtained, uint256 fyDaiObtained) = pool.burn(msg.sender, address(this), poolTokens);\n\n        // Exchange Dai for fyDai to pay as much debt as possible\n        uint256 fyDaiBought = pool.sellDai(address(this), address(this), daiObtained.toUint128());\n        require(\n            fyDaiBought >= muld(daiObtained, minimumDaiPrice),\n            \"PoolProxy: minimumDaiPrice not reached\"\n        );\n        fyDaiObtained = fyDaiObtained.add(fyDaiBought);\n        \n        uint256 fyDaiUsed;\n        if (fyDaiObtained > 0 && controller.debtFYDai(CHAI, maturity, msg.sender) > 0) {\n            fyDaiUsed = controller.repayFYDai(CHAI, maturity, address(this), msg.sender, fyDaiObtained);\n        }\n        uint256 fyDaiRemaining = fyDaiObtained.sub(fyDaiUsed);\n\n        if (fyDaiRemaining > 0) {// There is fyDai left, so exchange it for Dai to withdraw only Dai and Chai\n            require(\n                pool.sellFYDai(address(this), address(this), uint128(fyDaiRemaining)) >= muld(fyDaiRemaining, minimumFYDaiPrice),\n                \"PoolProxy: minimumFYDaiPrice not reached\"\n            );\n        }\n        withdrawAssets();\n    }\n\n    /// @dev Burns tokens and repays debt with proceedings. Sells any excess fyDai for Dai, then returns all Dai, and if there is no debt in the Controller, all posted Chai.\n    /// Caller must have approved the proxy using`controller.addDelegate(poolProxy)` and `pool.addDelegate(poolProxy)` or with `removeLiquidityEarlyDaiFixedWithSignature`\n    /// Caller must have called `removeLiquidityEarlyDaiFixedWithSignature` at least once before to set proxy approvals.\n    /// @param poolTokens amount of pool tokens to burn. \n    /// @param minimumFYDaiPrice minimum Dai/fyDai price to be accepted when internally selling fyDai.\n    function removeLiquidityEarlyDaiFixed(IPool pool, uint256 poolTokens, uint256 minimumFYDaiPrice) public {\n\n        IFYDai fyDai = pool.fyDai();\n        uint256 maturity = fyDai.maturity();\n\n        (uint256 daiObtained, uint256 fyDaiObtained) = pool.burn(msg.sender, address(this), poolTokens);\n        uint256 fyDaiUsed;\n        if (fyDaiObtained > 0 && controller.debtFYDai(CHAI, maturity, msg.sender) > 0) {\n            fyDaiUsed = controller.repayFYDai(CHAI, maturity, address(this), msg.sender, fyDaiObtained);\n        }\n\n        uint256 fyDaiRemaining = fyDaiObtained.sub(fyDaiUsed);\n        if (fyDaiRemaining == 0) { // We used all the fyDai, so probably there is debt left, so pay with Dai\n            if (daiObtained > 0 && controller.debtFYDai(CHAI, maturity, msg.sender) > 0) {\n                controller.repayDai(CHAI, maturity, address(this), msg.sender, daiObtained);\n            }\n        } else { // Exchange remaining fyDai for Dai to withdraw only Dai and Chai\n            require(\n                pool.sellFYDai(address(this), address(this), uint128(fyDaiRemaining)) >= muld(fyDaiRemaining, minimumFYDaiPrice),\n                \"PoolProxy: minimumFYDaiPrice not reached\"\n            );\n        }\n        withdrawAssets();\n    }\n\n    /// @dev Burns tokens and repays fyDai debt after Maturity. \n    /// Caller must have approved the proxy using`controller.addDelegate(poolProxy)` or `removeLiquidityEarlyDaiFixedWithSignature`\n    /// Caller must have called `removeLiquidityEarlyDaiFixedWithSignature` at least once before to set proxy approvals.\n    /// @param poolTokens amount of pool tokens to burn.\n    function removeLiquidityMature(IPool pool, uint256 poolTokens) public {\n\n        IFYDai fyDai = pool.fyDai();\n        uint256 maturity = fyDai.maturity();\n\n        (uint256 daiObtained, uint256 fyDaiObtained) = pool.burn(msg.sender, address(this), poolTokens);\n        if (fyDaiObtained > 0) {\n            daiObtained = daiObtained.add(fyDai.redeem(address(this), address(this), fyDaiObtained));\n        }\n        \n        // Repay debt\n        if (daiObtained > 0 && controller.debtFYDai(CHAI, maturity, msg.sender) > 0) {\n            controller.repayDai(CHAI, maturity, address(this), msg.sender, daiObtained);\n        }\n        withdrawAssets();\n    }\n\n    /// @dev Return to caller all posted chai if there is no debt, converted to dai, plus any dai remaining in the contract.\n    function withdrawAssets() internal {\n        uint256 posted = controller.posted(CHAI, msg.sender);\n        uint256 locked = controller.locked(CHAI, msg.sender);\n        require (posted >= locked, \"PoolProxy: Undercollateralized\");\n        controller.withdraw(CHAI, msg.sender, address(this), posted - locked);\n        chai.exit(address(this), chai.balanceOf(address(this)));\n        require(dai.transfer(msg.sender, dai.balanceOf(address(this))), \"PoolProxy: Dai Transfer Failed\");\n    }\n\n    /// --------------------------------------------------\n    /// Signature method wrappers\n    /// --------------------------------------------------\n\n    /// @dev Determine whether all approvals and signatures are in place for `addLiquidity`.\n    /// If `return[0]` is `false`, calling `addLiquidityWithSignature` will set the proxy approvals.\n    /// If `return[1]` is `false`, `addLiquidityWithSignature` must be called with a dai permit signature.\n    /// If `return[2]` is `false`, `addLiquidityWithSignature` must be called with a controller signature.\n    /// If `return` is `(true, true, true)`, `addLiquidity` won't fail because of missing approvals or signatures.\n    function addLiquidityCheck(IPool pool) public view returns (bool, bool, bool) {\n        bool approvals = true;\n        approvals = approvals && chai.allowance(address(this), treasury) == type(uint256).max;\n        approvals = approvals && dai.allowance(address(this), address(chai)) == type(uint256).max;\n        approvals = approvals && dai.allowance(address(this), address(pool)) == type(uint256).max;\n        approvals = approvals && pool.fyDai().allowance(address(this), address(pool)) >= type(uint112).max;\n        bool daiSig = dai.allowance(msg.sender, address(this)) == type(uint256).max;\n        bool controllerSig = controller.delegated(msg.sender, address(this));\n        return (approvals, daiSig, controllerSig);\n    }\n\n    /// @dev Set proxy approvals for `addLiquidity` with a given pool.\n    function addLiquidityApprove(IPool pool) public {\n        // Allow the Treasury to take chai when posting\n        if (chai.allowance(address(this), treasury) < type(uint256).max) chai.approve(treasury, type(uint256).max);\n\n        // Allow Chai to take dai for wrapping\n        if (dai.allowance(address(this), address(chai)) < type(uint256).max) dai.approve(address(chai), type(uint256).max);\n\n        // Allow pool to take dai for minting\n        if (dai.allowance(address(this), address(pool)) < type(uint256).max) dai.approve(address(pool), type(uint256).max);\n\n        // Allow pool to take fyDai for minting\n        if (pool.fyDai().allowance(address(this), address(pool)) < type(uint112).max) pool.fyDai().approve(address(pool), type(uint256).max);\n    }\n\n    /// @dev Mints liquidity with provided Dai by borrowing fyDai with some of the Dai.\n    /// Caller must have approved the proxy using`controller.addDelegate(poolProxy)`\n    /// Caller must have approved the dai transfer with `dai.approve(daiUsed)`\n    /// @param daiUsed amount of Dai to use to mint liquidity. \n    /// @param maxFYDai maximum amount of fyDai to be borrowed to mint liquidity.\n    /// @param daiSig packed signature for permit of dai transfers to this proxy. Ignored if '0x'.\n    /// @param controllerSig packed signature for delegation of this proxy in the controller. Ignored if '0x'.\n    /// @return The amount of liquidity tokens minted.  \n    function addLiquidityWithSignature(\n        IPool pool,\n        uint256 daiUsed,\n        uint256 maxFYDai,\n        bytes memory daiSig,\n        bytes memory controllerSig\n    ) external returns (uint256) {\n        addLiquidityApprove(pool);\n        if (daiSig.length > 0) dai.permitPackedDai(address(this), daiSig);\n        if (controllerSig.length > 0) controller.addDelegatePacked(controllerSig);\n        return addLiquidity(pool, daiUsed, maxFYDai);\n    }\n\n    /// @dev Determine whether all approvals and signatures are in place for `removeLiquidityEarlyDaiPool`.\n    /// If `return[0]` is `false`, calling `removeLiquidityEarlyDaiPoolWithSignature` will set the proxy approvals.\n    /// If `return[1]` is `false`, `removeLiquidityEarlyDaiPoolWithSignature` must be called with a controller signature.\n    /// If `return[2]` is `false`, `removeLiquidityEarlyDaiPoolWithSignature` must be called with a pool signature.\n    /// If `return` is `(true, true, true)`, `removeLiquidityEarlyDaiPool` won't fail because of missing approvals or signatures.\n    function removeLiquidityEarlyDaiPoolCheck(IPool pool) public view returns (bool, bool, bool) {\n        bool approvals = true;\n        approvals = approvals && dai.allowance(address(this), address(pool)) == type(uint256).max;\n        approvals = approvals && pool.fyDai().allowance(address(this), address(pool)) >= type(uint112).max;\n        bool controllerSig = controller.delegated(msg.sender, address(this));\n        bool poolSig = pool.delegated(msg.sender, address(this));\n        return (approvals, controllerSig, poolSig);\n    }\n\n    /// @dev Set proxy approvals for `removeLiquidityEarlyDaiPool` with a given pool.\n    function removeLiquidityEarlyDaiPoolApprove(IPool pool) public {\n        // Allow pool to take dai for trading\n        if (dai.allowance(address(this), address(pool)) < type(uint256).max) dai.approve(address(pool), type(uint256).max);\n\n        // Allow pool to take fyDai for trading\n        if (pool.fyDai().allowance(address(this), address(pool)) < type(uint112).max) pool.fyDai().approve(address(pool), type(uint256).max);\n    }\n\n    /// @dev Burns tokens and sells Dai proceedings for fyDai. Pays as much debt as possible, then sells back any remaining fyDai for Dai. Then returns all Dai, and all unlocked Chai.\n    /// @param poolTokens amount of pool tokens to burn. \n    /// @param minimumDaiPrice minimum fyDai/Dai price to be accepted when internally selling Dai.\n    /// @param minimumFYDaiPrice minimum Dai/fyDai price to be accepted when internally selling fyDai.\n    /// @param controllerSig packed signature for delegation of this proxy in the controller. Ignored if '0x'.\n    /// @param poolSig packed signature for delegation of this proxy in a pool. Ignored if '0x'.\n    function removeLiquidityEarlyDaiPoolWithSignature(\n        IPool pool,\n        uint256 poolTokens,\n        uint256 minimumDaiPrice,\n        uint256 minimumFYDaiPrice,\n        bytes memory controllerSig,\n        bytes memory poolSig\n    ) public {\n        removeLiquidityEarlyDaiPoolApprove(pool);\n        if (controllerSig.length > 0) controller.addDelegatePacked(controllerSig);\n        if (poolSig.length > 0) pool.addDelegatePacked(poolSig);\n        removeLiquidityEarlyDaiPool(pool, poolTokens, minimumDaiPrice, minimumFYDaiPrice);\n    }\n\n    /// @dev Determine whether all approvals and signatures are in place for `removeLiquidityEarlyDaiFixed`.\n    /// If `return[0]` is `false`, calling `removeLiquidityEarlyDaiFixedWithSignature` will set the proxy approvals.\n    /// If `return[1]` is `false`, `removeLiquidityEarlyDaiFixedWithSignature` must be called with a controller signature.\n    /// If `return[2]` is `false`, `removeLiquidityEarlyDaiFixedWithSignature` must be called with a pool signature.\n    /// If `return` is `(true, true, true)`, `removeLiquidityEarlyDaiFixed` won't fail because of missing approvals or signatures.\n    function removeLiquidityEarlyDaiFixedCheck(IPool pool) public view returns (bool, bool, bool) {\n        bool approvals = true;\n        approvals = approvals && dai.allowance(address(this), treasury) == type(uint256).max;\n        approvals = approvals && pool.fyDai().allowance(address(this), address(pool)) >= type(uint112).max;\n        bool controllerSig = controller.delegated(msg.sender, address(this));\n        bool poolSig = pool.delegated(msg.sender, address(this));\n        return (approvals, controllerSig, poolSig);\n    }\n\n    /// @dev Set proxy approvals for `removeLiquidityEarlyDaiFixed` with a given pool.\n    function removeLiquidityEarlyDaiFixedApprove(IPool pool) public {\n        // Allow the Treasury to take dai for repaying\n        if (dai.allowance(address(this), treasury) < type(uint256).max) dai.approve(treasury, type(uint256).max);\n\n        // Allow pool to take fyDai for trading\n        if (pool.fyDai().allowance(address(this), address(pool)) < type(uint112).max) pool.fyDai().approve(address(pool), type(uint256).max);\n    }\n\n    /// @dev Burns tokens and repays debt with proceedings. Sells any excess fyDai for Dai, then returns all Dai, and all unlocked Chai.\n    /// @param poolTokens amount of pool tokens to burn. \n    /// @param minimumFYDaiPrice minimum Dai/fyDai price to be accepted when internally selling fyDai.\n    /// @param controllerSig packed signature for delegation of this proxy in the controller. Ignored if '0x'.\n    /// @param poolSig packed signature for delegation of this proxy in a pool. Ignored if '0x'.\n    function removeLiquidityEarlyDaiFixedWithSignature(\n        IPool pool,\n        uint256 poolTokens,\n        uint256 minimumFYDaiPrice,\n        bytes memory controllerSig,\n        bytes memory poolSig\n    ) public {\n        removeLiquidityEarlyDaiFixedApprove(pool);\n        if (controllerSig.length > 0) controller.addDelegatePacked(controllerSig);\n        if (poolSig.length > 0) pool.addDelegatePacked(poolSig);\n        removeLiquidityEarlyDaiFixed(pool, poolTokens, minimumFYDaiPrice);\n    }\n\n    /// @dev Determine whether all approvals and signatures are in place for `removeLiquidityMature`.\n    /// If `return[0]` is `false`, calling `removeLiquidityMatureCheck` will set the proxy approvals.\n    /// If `return[1]` is `false`, `removeLiquidityMatureCheck` must be called with a controller signature.\n    /// If `return[2]` is `false`, `removeLiquidityMatureCheck` must be called with a pool signature.\n    /// If `return` is `(true, true, true)`, `removeLiquidityMature` won't fail because of missing approvals or signatures.\n    function removeLiquidityMatureCheck(IPool pool) public view returns (bool, bool, bool) {\n        bool approvals = dai.allowance(address(this), treasury) == type(uint256).max;\n        bool controllerSig = controller.delegated(msg.sender, address(this));\n        bool poolSig = pool.delegated(msg.sender, address(this));\n        return (approvals, controllerSig, poolSig);\n    }\n\n    /// @dev Set proxy approvals for `removeLiquidityMature`.\n    function removeLiquidityMatureApprove() public {\n        // Allow the Treasury to take dai for repaying\n        if (dai.allowance(address(this), treasury) < type(uint256).max) dai.approve(treasury, type(uint256).max);\n    }\n\n    /// @dev Burns tokens and repays fyDai debt after Maturity.\n    /// @param poolTokens amount of pool tokens to burn.\n    /// @param controllerSig packed signature for delegation of this proxy in the controller. Ignored if '0x'.\n    /// @param poolSig packed signature for delegation of this proxy in a pool. Ignored if '0x'.\n    function removeLiquidityMatureWithSignature(\n        IPool pool,\n        uint256 poolTokens,\n        bytes memory controllerSig,\n        bytes memory poolSig\n    ) external {\n        removeLiquidityMatureApprove();\n        if (controllerSig.length > 0) controller.addDelegatePacked(controllerSig);\n        if (poolSig.length > 0) pool.addDelegatePacked(poolSig);\n        removeLiquidityMature(pool, poolTokens);\n    }\n}\n",
  "sourcePath": "/Users/brucedonovan/dev/yield/yDai/contracts/peripheral/PoolProxy.sol",
  "compiler": {
    "name": "solc",
    "version": "0.6.10+commit.00c0fcaf.Emscripten.clang"
  },
  "schemaVersion": "3.2.3",
  "updatedAt": "2020-11-20T12:19:16.911Z",
  "devdoc": {
    "methods": {
      "addLiquidity(address,uint256,uint256)": {
        "details": "Mints liquidity with provided Dai by borrowing fyDai with some of the Dai. Caller must have approved the proxy using`controller.addDelegate(poolProxy)` or with `addLiquidityWithSignature`. Caller must have approved the dai transfer with `dai.approve(daiUsed)` or with `addLiquidityWithSignature`. Caller must have called `addLiquidityWithSignature` at least once before to set proxy approvals.",
        "params": {
          "daiUsed": "amount of Dai to use to mint liquidity. ",
          "maxFYDai": "maximum amount of fyDai to be borrowed to mint liquidity. "
        },
        "returns": {
          "_0": "The amount of liquidity tokens minted.  "
        }
      },
      "addLiquidityApprove(address)": {
        "details": "Set proxy approvals for `addLiquidity` with a given pool."
      },
      "addLiquidityCheck(address)": {
        "details": "Determine whether all approvals and signatures are in place for `addLiquidity`. If `return[0]` is `false`, calling `addLiquidityWithSignature` will set the proxy approvals. If `return[1]` is `false`, `addLiquidityWithSignature` must be called with a dai permit signature. If `return[2]` is `false`, `addLiquidityWithSignature` must be called with a controller signature. If `return` is `(true, true, true)`, `addLiquidity` won't fail because of missing approvals or signatures."
      },
      "addLiquidityWithSignature(address,uint256,uint256,bytes,bytes)": {
        "details": "Mints liquidity with provided Dai by borrowing fyDai with some of the Dai. Caller must have approved the proxy using`controller.addDelegate(poolProxy)` Caller must have approved the dai transfer with `dai.approve(daiUsed)`",
        "params": {
          "controllerSig": "packed signature for delegation of this proxy in the controller. Ignored if '0x'.",
          "daiSig": "packed signature for permit of dai transfers to this proxy. Ignored if '0x'.",
          "daiUsed": "amount of Dai to use to mint liquidity. ",
          "maxFYDai": "maximum amount of fyDai to be borrowed to mint liquidity."
        },
        "returns": {
          "_0": "The amount of liquidity tokens minted.  "
        }
      },
      "removeLiquidityEarlyDaiFixed(address,uint256,uint256)": {
        "details": "Burns tokens and repays debt with proceedings. Sells any excess fyDai for Dai, then returns all Dai, and if there is no debt in the Controller, all posted Chai. Caller must have approved the proxy using`controller.addDelegate(poolProxy)` and `pool.addDelegate(poolProxy)` or with `removeLiquidityEarlyDaiFixedWithSignature` Caller must have called `removeLiquidityEarlyDaiFixedWithSignature` at least once before to set proxy approvals.",
        "params": {
          "minimumFYDaiPrice": "minimum Dai/fyDai price to be accepted when internally selling fyDai.",
          "poolTokens": "amount of pool tokens to burn. "
        }
      },
      "removeLiquidityEarlyDaiFixedApprove(address)": {
        "details": "Set proxy approvals for `removeLiquidityEarlyDaiFixed` with a given pool."
      },
      "removeLiquidityEarlyDaiFixedCheck(address)": {
        "details": "Determine whether all approvals and signatures are in place for `removeLiquidityEarlyDaiFixed`. If `return[0]` is `false`, calling `removeLiquidityEarlyDaiFixedWithSignature` will set the proxy approvals. If `return[1]` is `false`, `removeLiquidityEarlyDaiFixedWithSignature` must be called with a controller signature. If `return[2]` is `false`, `removeLiquidityEarlyDaiFixedWithSignature` must be called with a pool signature. If `return` is `(true, true, true)`, `removeLiquidityEarlyDaiFixed` won't fail because of missing approvals or signatures."
      },
      "removeLiquidityEarlyDaiFixedWithSignature(address,uint256,uint256,bytes,bytes)": {
        "details": "Burns tokens and repays debt with proceedings. Sells any excess fyDai for Dai, then returns all Dai, and all unlocked Chai.",
        "params": {
          "controllerSig": "packed signature for delegation of this proxy in the controller. Ignored if '0x'.",
          "minimumFYDaiPrice": "minimum Dai/fyDai price to be accepted when internally selling fyDai.",
          "poolSig": "packed signature for delegation of this proxy in a pool. Ignored if '0x'.",
          "poolTokens": "amount of pool tokens to burn. "
        }
      },
      "removeLiquidityEarlyDaiPool(address,uint256,uint256,uint256)": {
        "details": "Burns tokens and sells Dai proceedings for fyDai. Pays as much debt as possible, then sells back any remaining fyDai for Dai. Then returns all Dai, and if there is no debt in the Controller, all posted Chai. Caller must have approved the proxy using`controller.addDelegate(poolProxy)` and `pool.addDelegate(poolProxy)` or with `removeLiquidityEarlyDaiPoolWithSignature` Caller must have called `removeLiquidityEarlyDaiPoolWithSignature` at least once before to set proxy approvals.",
        "params": {
          "minimumDaiPrice": "minimum fyDai/Dai price to be accepted when internally selling Dai.",
          "minimumFYDaiPrice": "minimum Dai/fyDai price to be accepted when internally selling fyDai.",
          "poolTokens": "amount of pool tokens to burn. "
        }
      },
      "removeLiquidityEarlyDaiPoolApprove(address)": {
        "details": "Set proxy approvals for `removeLiquidityEarlyDaiPool` with a given pool."
      },
      "removeLiquidityEarlyDaiPoolCheck(address)": {
        "details": "Determine whether all approvals and signatures are in place for `removeLiquidityEarlyDaiPool`. If `return[0]` is `false`, calling `removeLiquidityEarlyDaiPoolWithSignature` will set the proxy approvals. If `return[1]` is `false`, `removeLiquidityEarlyDaiPoolWithSignature` must be called with a controller signature. If `return[2]` is `false`, `removeLiquidityEarlyDaiPoolWithSignature` must be called with a pool signature. If `return` is `(true, true, true)`, `removeLiquidityEarlyDaiPool` won't fail because of missing approvals or signatures."
      },
      "removeLiquidityEarlyDaiPoolWithSignature(address,uint256,uint256,uint256,bytes,bytes)": {
        "details": "Burns tokens and sells Dai proceedings for fyDai. Pays as much debt as possible, then sells back any remaining fyDai for Dai. Then returns all Dai, and all unlocked Chai.",
        "params": {
          "controllerSig": "packed signature for delegation of this proxy in the controller. Ignored if '0x'.",
          "minimumDaiPrice": "minimum fyDai/Dai price to be accepted when internally selling Dai.",
          "minimumFYDaiPrice": "minimum Dai/fyDai price to be accepted when internally selling fyDai.",
          "poolSig": "packed signature for delegation of this proxy in a pool. Ignored if '0x'.",
          "poolTokens": "amount of pool tokens to burn. "
        }
      },
      "removeLiquidityMature(address,uint256)": {
        "details": "Burns tokens and repays fyDai debt after Maturity.  Caller must have approved the proxy using`controller.addDelegate(poolProxy)` or `removeLiquidityEarlyDaiFixedWithSignature` Caller must have called `removeLiquidityEarlyDaiFixedWithSignature` at least once before to set proxy approvals.",
        "params": {
          "poolTokens": "amount of pool tokens to burn."
        }
      },
      "removeLiquidityMatureApprove()": {
        "details": "Set proxy approvals for `removeLiquidityMature`."
      },
      "removeLiquidityMatureCheck(address)": {
        "details": "Determine whether all approvals and signatures are in place for `removeLiquidityMature`. If `return[0]` is `false`, calling `removeLiquidityMatureCheck` will set the proxy approvals. If `return[1]` is `false`, `removeLiquidityMatureCheck` must be called with a controller signature. If `return[2]` is `false`, `removeLiquidityMatureCheck` must be called with a pool signature. If `return` is `(true, true, true)`, `removeLiquidityMature` won't fail because of missing approvals or signatures."
      },
      "removeLiquidityMatureWithSignature(address,uint256,bytes,bytes)": {
        "details": "Burns tokens and repays fyDai debt after Maturity.",
        "params": {
          "controllerSig": "packed signature for delegation of this proxy in the controller. Ignored if '0x'.",
          "poolSig": "packed signature for delegation of this proxy in a pool. Ignored if '0x'.",
          "poolTokens": "amount of pool tokens to burn."
        }
      }
    }
  },
  "userdoc": {
    "methods": {}
  }
}