{
  "contractName": "Pool",
  "abi": [
    {
      "inputs": [
        {
          "internalType": "address",
          "name": "dai_",
          "type": "address"
        },
        {
          "internalType": "address",
          "name": "fyDai_",
          "type": "address"
        },
        {
          "internalType": "string",
          "name": "name_",
          "type": "string"
        },
        {
          "internalType": "string",
          "name": "symbol_",
          "type": "string"
        }
      ],
      "stateMutability": "nonpayable",
      "type": "constructor"
    },
    {
      "anonymous": false,
      "inputs": [
        {
          "indexed": true,
          "internalType": "address",
          "name": "owner",
          "type": "address"
        },
        {
          "indexed": true,
          "internalType": "address",
          "name": "spender",
          "type": "address"
        },
        {
          "indexed": false,
          "internalType": "uint256",
          "name": "value",
          "type": "uint256"
        }
      ],
      "name": "Approval",
      "type": "event"
    },
    {
      "anonymous": false,
      "inputs": [
        {
          "indexed": true,
          "internalType": "address",
          "name": "user",
          "type": "address"
        },
        {
          "indexed": true,
          "internalType": "address",
          "name": "delegate",
          "type": "address"
        },
        {
          "indexed": false,
          "internalType": "bool",
          "name": "enabled",
          "type": "bool"
        }
      ],
      "name": "Delegate",
      "type": "event"
    },
    {
      "anonymous": false,
      "inputs": [
        {
          "indexed": false,
          "internalType": "uint256",
          "name": "maturity",
          "type": "uint256"
        },
        {
          "indexed": true,
          "internalType": "address",
          "name": "from",
          "type": "address"
        },
        {
          "indexed": true,
          "internalType": "address",
          "name": "to",
          "type": "address"
        },
        {
          "indexed": false,
          "internalType": "int256",
          "name": "daiTokens",
          "type": "int256"
        },
        {
          "indexed": false,
          "internalType": "int256",
          "name": "fyDaiTokens",
          "type": "int256"
        },
        {
          "indexed": false,
          "internalType": "int256",
          "name": "poolTokens",
          "type": "int256"
        }
      ],
      "name": "Liquidity",
      "type": "event"
    },
    {
      "anonymous": false,
      "inputs": [
        {
          "indexed": false,
          "internalType": "uint256",
          "name": "maturity",
          "type": "uint256"
        },
        {
          "indexed": true,
          "internalType": "address",
          "name": "from",
          "type": "address"
        },
        {
          "indexed": true,
          "internalType": "address",
          "name": "to",
          "type": "address"
        },
        {
          "indexed": false,
          "internalType": "int256",
          "name": "daiTokens",
          "type": "int256"
        },
        {
          "indexed": false,
          "internalType": "int256",
          "name": "fyDaiTokens",
          "type": "int256"
        }
      ],
      "name": "Trade",
      "type": "event"
    },
    {
      "anonymous": false,
      "inputs": [
        {
          "indexed": true,
          "internalType": "address",
          "name": "from",
          "type": "address"
        },
        {
          "indexed": true,
          "internalType": "address",
          "name": "to",
          "type": "address"
        },
        {
          "indexed": false,
          "internalType": "uint256",
          "name": "value",
          "type": "uint256"
        }
      ],
      "name": "Transfer",
      "type": "event"
    },
    {
      "inputs": [],
      "name": "DELEGABLE_DOMAIN",
      "outputs": [
        {
          "internalType": "bytes32",
          "name": "",
          "type": "bytes32"
        }
      ],
      "stateMutability": "view",
      "type": "function"
    },
    {
      "inputs": [],
      "name": "DOMAIN_SEPARATOR",
      "outputs": [
        {
          "internalType": "bytes32",
          "name": "",
          "type": "bytes32"
        }
      ],
      "stateMutability": "view",
      "type": "function"
    },
    {
      "inputs": [],
      "name": "PERMIT_TYPEHASH",
      "outputs": [
        {
          "internalType": "bytes32",
          "name": "",
          "type": "bytes32"
        }
      ],
      "stateMutability": "view",
      "type": "function"
    },
    {
      "inputs": [],
      "name": "SIGNATURE_TYPEHASH",
      "outputs": [
        {
          "internalType": "bytes32",
          "name": "",
          "type": "bytes32"
        }
      ],
      "stateMutability": "view",
      "type": "function"
    },
    {
      "inputs": [
        {
          "internalType": "address",
          "name": "delegate",
          "type": "address"
        }
      ],
      "name": "addDelegate",
      "outputs": [],
      "stateMutability": "nonpayable",
      "type": "function"
    },
    {
      "inputs": [
        {
          "internalType": "address",
          "name": "user",
          "type": "address"
        },
        {
          "internalType": "address",
          "name": "delegate",
          "type": "address"
        },
        {
          "internalType": "uint256",
          "name": "deadline",
          "type": "uint256"
        },
        {
          "internalType": "uint8",
          "name": "v",
          "type": "uint8"
        },
        {
          "internalType": "bytes32",
          "name": "r",
          "type": "bytes32"
        },
        {
          "internalType": "bytes32",
          "name": "s",
          "type": "bytes32"
        }
      ],
      "name": "addDelegateBySignature",
      "outputs": [],
      "stateMutability": "nonpayable",
      "type": "function"
    },
    {
      "inputs": [
        {
          "internalType": "address",
          "name": "owner",
          "type": "address"
        },
        {
          "internalType": "address",
          "name": "spender",
          "type": "address"
        }
      ],
      "name": "allowance",
      "outputs": [
        {
          "internalType": "uint256",
          "name": "",
          "type": "uint256"
        }
      ],
      "stateMutability": "view",
      "type": "function"
    },
    {
      "inputs": [
        {
          "internalType": "address",
          "name": "spender",
          "type": "address"
        },
        {
          "internalType": "uint256",
          "name": "amount",
          "type": "uint256"
        }
      ],
      "name": "approve",
      "outputs": [
        {
          "internalType": "bool",
          "name": "",
          "type": "bool"
        }
      ],
      "stateMutability": "nonpayable",
      "type": "function"
    },
    {
      "inputs": [
        {
          "internalType": "address",
          "name": "account",
          "type": "address"
        }
      ],
      "name": "balanceOf",
      "outputs": [
        {
          "internalType": "uint256",
          "name": "",
          "type": "uint256"
        }
      ],
      "stateMutability": "view",
      "type": "function"
    },
    {
      "inputs": [],
      "name": "dai",
      "outputs": [
        {
          "internalType": "contract IERC20",
          "name": "",
          "type": "address"
        }
      ],
      "stateMutability": "view",
      "type": "function"
    },
    {
      "inputs": [],
      "name": "decimals",
      "outputs": [
        {
          "internalType": "uint8",
          "name": "",
          "type": "uint8"
        }
      ],
      "stateMutability": "view",
      "type": "function"
    },
    {
      "inputs": [
        {
          "internalType": "address",
          "name": "spender",
          "type": "address"
        },
        {
          "internalType": "uint256",
          "name": "subtractedValue",
          "type": "uint256"
        }
      ],
      "name": "decreaseAllowance",
      "outputs": [
        {
          "internalType": "bool",
          "name": "",
          "type": "bool"
        }
      ],
      "stateMutability": "nonpayable",
      "type": "function"
    },
    {
      "inputs": [
        {
          "internalType": "address",
          "name": "",
          "type": "address"
        },
        {
          "internalType": "address",
          "name": "",
          "type": "address"
        }
      ],
      "name": "delegated",
      "outputs": [
        {
          "internalType": "bool",
          "name": "",
          "type": "bool"
        }
      ],
      "stateMutability": "view",
      "type": "function"
    },
    {
      "inputs": [],
      "name": "fyDai",
      "outputs": [
        {
          "internalType": "contract IFYDai",
          "name": "",
          "type": "address"
        }
      ],
      "stateMutability": "view",
      "type": "function"
    },
    {
      "inputs": [],
      "name": "g1",
      "outputs": [
        {
          "internalType": "int128",
          "name": "",
          "type": "int128"
        }
      ],
      "stateMutability": "view",
      "type": "function"
    },
    {
      "inputs": [],
      "name": "g2",
      "outputs": [
        {
          "internalType": "int128",
          "name": "",
          "type": "int128"
        }
      ],
      "stateMutability": "view",
      "type": "function"
    },
    {
      "inputs": [
        {
          "internalType": "address",
          "name": "spender",
          "type": "address"
        },
        {
          "internalType": "uint256",
          "name": "addedValue",
          "type": "uint256"
        }
      ],
      "name": "increaseAllowance",
      "outputs": [
        {
          "internalType": "bool",
          "name": "",
          "type": "bool"
        }
      ],
      "stateMutability": "nonpayable",
      "type": "function"
    },
    {
      "inputs": [],
      "name": "k",
      "outputs": [
        {
          "internalType": "int128",
          "name": "",
          "type": "int128"
        }
      ],
      "stateMutability": "view",
      "type": "function"
    },
    {
      "inputs": [],
      "name": "maturity",
      "outputs": [
        {
          "internalType": "uint128",
          "name": "",
          "type": "uint128"
        }
      ],
      "stateMutability": "view",
      "type": "function"
    },
    {
      "inputs": [],
      "name": "name",
      "outputs": [
        {
          "internalType": "string",
          "name": "",
          "type": "string"
        }
      ],
      "stateMutability": "view",
      "type": "function"
    },
    {
      "inputs": [
        {
          "internalType": "address",
          "name": "",
          "type": "address"
        }
      ],
      "name": "nonces",
      "outputs": [
        {
          "internalType": "uint256",
          "name": "",
          "type": "uint256"
        }
      ],
      "stateMutability": "view",
      "type": "function"
    },
    {
      "inputs": [
        {
          "internalType": "address",
          "name": "owner",
          "type": "address"
        },
        {
          "internalType": "address",
          "name": "spender",
          "type": "address"
        },
        {
          "internalType": "uint256",
          "name": "amount",
          "type": "uint256"
        },
        {
          "internalType": "uint256",
          "name": "deadline",
          "type": "uint256"
        },
        {
          "internalType": "uint8",
          "name": "v",
          "type": "uint8"
        },
        {
          "internalType": "bytes32",
          "name": "r",
          "type": "bytes32"
        },
        {
          "internalType": "bytes32",
          "name": "s",
          "type": "bytes32"
        }
      ],
      "name": "permit",
      "outputs": [],
      "stateMutability": "nonpayable",
      "type": "function"
    },
    {
      "inputs": [
        {
          "internalType": "address",
          "name": "delegate",
          "type": "address"
        }
      ],
      "name": "revokeDelegate",
      "outputs": [],
      "stateMutability": "nonpayable",
      "type": "function"
    },
    {
      "inputs": [
        {
          "internalType": "address",
          "name": "",
          "type": "address"
        }
      ],
      "name": "signatureCount",
      "outputs": [
        {
          "internalType": "uint256",
          "name": "",
          "type": "uint256"
        }
      ],
      "stateMutability": "view",
      "type": "function"
    },
    {
      "inputs": [],
      "name": "symbol",
      "outputs": [
        {
          "internalType": "string",
          "name": "",
          "type": "string"
        }
      ],
      "stateMutability": "view",
      "type": "function"
    },
    {
      "inputs": [],
      "name": "totalSupply",
      "outputs": [
        {
          "internalType": "uint256",
          "name": "",
          "type": "uint256"
        }
      ],
      "stateMutability": "view",
      "type": "function"
    },
    {
      "inputs": [
        {
          "internalType": "address",
          "name": "recipient",
          "type": "address"
        },
        {
          "internalType": "uint256",
          "name": "amount",
          "type": "uint256"
        }
      ],
      "name": "transfer",
      "outputs": [
        {
          "internalType": "bool",
          "name": "",
          "type": "bool"
        }
      ],
      "stateMutability": "nonpayable",
      "type": "function"
    },
    {
      "inputs": [
        {
          "internalType": "address",
          "name": "sender",
          "type": "address"
        },
        {
          "internalType": "address",
          "name": "recipient",
          "type": "address"
        },
        {
          "internalType": "uint256",
          "name": "amount",
          "type": "uint256"
        }
      ],
      "name": "transferFrom",
      "outputs": [
        {
          "internalType": "bool",
          "name": "",
          "type": "bool"
        }
      ],
      "stateMutability": "nonpayable",
      "type": "function"
    },
    {
      "inputs": [
        {
          "internalType": "address",
          "name": "from",
          "type": "address"
        },
        {
          "internalType": "address",
          "name": "to",
          "type": "address"
        },
        {
          "internalType": "uint256",
          "name": "daiOffered",
          "type": "uint256"
        }
      ],
      "name": "mint",
      "outputs": [
        {
          "internalType": "uint256",
          "name": "",
          "type": "uint256"
        }
      ],
      "stateMutability": "nonpayable",
      "type": "function"
    },
    {
      "inputs": [
        {
          "internalType": "address",
          "name": "from",
          "type": "address"
        },
        {
          "internalType": "address",
          "name": "to",
          "type": "address"
        },
        {
          "internalType": "uint256",
          "name": "tokensBurned",
          "type": "uint256"
        }
      ],
      "name": "burn",
      "outputs": [
        {
          "internalType": "uint256",
          "name": "",
          "type": "uint256"
        },
        {
          "internalType": "uint256",
          "name": "",
          "type": "uint256"
        }
      ],
      "stateMutability": "nonpayable",
      "type": "function"
    },
    {
      "inputs": [
        {
          "internalType": "address",
          "name": "from",
          "type": "address"
        },
        {
          "internalType": "address",
          "name": "to",
          "type": "address"
        },
        {
          "internalType": "uint128",
          "name": "daiIn",
          "type": "uint128"
        }
      ],
      "name": "sellDai",
      "outputs": [
        {
          "internalType": "uint128",
          "name": "",
          "type": "uint128"
        }
      ],
      "stateMutability": "nonpayable",
      "type": "function"
    },
    {
      "inputs": [
        {
          "internalType": "uint128",
          "name": "daiIn",
          "type": "uint128"
        }
      ],
      "name": "sellDaiPreview",
      "outputs": [
        {
          "internalType": "uint128",
          "name": "",
          "type": "uint128"
        }
      ],
      "stateMutability": "view",
      "type": "function"
    },
    {
      "inputs": [
        {
          "internalType": "address",
          "name": "from",
          "type": "address"
        },
        {
          "internalType": "address",
          "name": "to",
          "type": "address"
        },
        {
          "internalType": "uint128",
          "name": "daiOut",
          "type": "uint128"
        }
      ],
      "name": "buyDai",
      "outputs": [
        {
          "internalType": "uint128",
          "name": "",
          "type": "uint128"
        }
      ],
      "stateMutability": "nonpayable",
      "type": "function"
    },
    {
      "inputs": [
        {
          "internalType": "uint128",
          "name": "daiOut",
          "type": "uint128"
        }
      ],
      "name": "buyDaiPreview",
      "outputs": [
        {
          "internalType": "uint128",
          "name": "",
          "type": "uint128"
        }
      ],
      "stateMutability": "view",
      "type": "function"
    },
    {
      "inputs": [
        {
          "internalType": "address",
          "name": "from",
          "type": "address"
        },
        {
          "internalType": "address",
          "name": "to",
          "type": "address"
        },
        {
          "internalType": "uint128",
          "name": "fyDaiIn",
          "type": "uint128"
        }
      ],
      "name": "sellFYDai",
      "outputs": [
        {
          "internalType": "uint128",
          "name": "",
          "type": "uint128"
        }
      ],
      "stateMutability": "nonpayable",
      "type": "function"
    },
    {
      "inputs": [
        {
          "internalType": "uint128",
          "name": "fyDaiIn",
          "type": "uint128"
        }
      ],
      "name": "sellFYDaiPreview",
      "outputs": [
        {
          "internalType": "uint128",
          "name": "",
          "type": "uint128"
        }
      ],
      "stateMutability": "view",
      "type": "function"
    },
    {
      "inputs": [
        {
          "internalType": "address",
          "name": "from",
          "type": "address"
        },
        {
          "internalType": "address",
          "name": "to",
          "type": "address"
        },
        {
          "internalType": "uint128",
          "name": "fyDaiOut",
          "type": "uint128"
        }
      ],
      "name": "buyFYDai",
      "outputs": [
        {
          "internalType": "uint128",
          "name": "",
          "type": "uint128"
        }
      ],
      "stateMutability": "nonpayable",
      "type": "function"
    },
    {
      "inputs": [
        {
          "internalType": "uint128",
          "name": "fyDaiOut",
          "type": "uint128"
        }
      ],
      "name": "buyFYDaiPreview",
      "outputs": [
        {
          "internalType": "uint128",
          "name": "",
          "type": "uint128"
        }
      ],
      "stateMutability": "view",
      "type": "function"
    },
    {
      "inputs": [],
      "name": "getFYDaiReserves",
      "outputs": [
        {
          "internalType": "uint128",
          "name": "",
          "type": "uint128"
        }
      ],
      "stateMutability": "view",
      "type": "function"
    },
    {
      "inputs": [],
      "name": "getDaiReserves",
      "outputs": [
        {
          "internalType": "uint128",
          "name": "",
          "type": "uint128"
        }
      ],
      "stateMutability": "view",
      "type": "function"
    }
  ],
  "bytecode": "0x61012060408190527f0d077601844dd17f704bafff948229d27f33b57445915754dfe3d095fda2beb76080528060526200549e823960405190819003605201902060c052503480156200005157600080fd5b506040516200554238038062005542833981810160405260808110156200007757600080fd5b81516020830151604080850180519151939592948301929184640100000000821115620000a357600080fd5b908301906020820185811115620000b957600080fd5b8251640100000000811182820188101715620000d457600080fd5b82525081516020918201929091019080838360005b8381101562000103578181015183820152602001620000e9565b50505050905090810190601f168015620001315780820380516001836020036101000a031916815260200191505b50604052602001805160405193929190846401000000008211156200015557600080fd5b9083019060208201858111156200016b57600080fd5b82516401000000008111828201881017156200018657600080fd5b82525081516020918201929091019080838360005b83811015620001b55781810151838201526020016200019b565b50505050905090810190601f168015620001e35780820380516001836020036101000a031916815260200191505b50604052505050818181818160039080519060200190620002069291906200049d565b5080516200021c9060049060208401906200049d565b50506005805460ff19166012179055506040514690806052620054f08239604080516052928190038301812081830183526005825264165a595b1960da1b6020928301528251808401845260018152603160f81b908301528251808301919091527f0dc8618f4925c4319195a39ada16304f511bf885ff9f3d63bc6b0f3979e46fb6818401526000805160206200547e833981519152606082015260808101959095523060a08087019190915282518087038201815260c09096019283905285519590910194909420909352469291508190620054f08239604080519182900360520182208651602097880120838301835260018452603160f81b93880193909352815180880191909152808201929092526000805160206200547e833981519152606083015260808201939093523060a0808301919091528351808303909101815260c0820180855281519187019190912060e052600980546001600160a01b038c81166001600160a01b031992831617909255600a80548c84169216919091179081905563204f83f960e01b90925293516200041e9691909416945063204f83f99360c480840194509192909190829003018186803b158015620003e157600080fd5b505afa158015620003f6573d6000803e3d6000fd5b505050506040513d60208110156200040d57600080fd5b50516001600160e01b036200043a16565b60801b6001600160801b03191661010052506200053792505050565b60006001600160801b0382111562000499576040805162461bcd60e51b815260206004820152601360248201527f506f6f6c3a2043617374206f766572666c6f7700000000000000000000000000604482015290519081900360640190fd5b5090565b828054600181600116156101000203166002900490600052602060002090601f016020900481019282601f10620004e057805160ff191683800117855562000510565b8280016001018555821562000510579182015b8281111562000510578251825591602001919060010190620004f3565b506200049992620005349250905b808211156200049957600081556001016200051e565b90565b60805160a05160c05160e0516101005160801c614ea0620005de60003980610b695280610cf55280610d7b5280611096528061133b528061144b52806114dd5280611607528061169952806116fe52806117845280611a475280611eaa5280612125528061270c52806134985280613614525080610c575280612254525080610c2a52806121e7525080610a285280610ccf5250806109c35280611ac35250614ea06000f3fe608060405234801561001057600080fd5b50600436106102485760003560e01c806385561a341161013b578063c0bd65d7116100b8578063e71bdf411161007c578063e71bdf41146107b9578063f4b9fa75146107df578063f6b911bc146107e7578063f6bcbd3114610836578063fa352c001461086457610248565b8063c0bd65d7146106bc578063c6c3bbe6146106c4578063cc5783d3146106fa578063d505accf1461073a578063dd62ed3e1461078b57610248565b8063a9059cbb116100ff578063a9059cbb1461061a578063b26be92214610646578063b4f40c6114610686578063b5d832fe1461068e578063bdd8a366146106b457610248565b806385561a341461057457806395d89b411461059a57806398ba4aec146105a25780639ac95875146105c8578063a457c2d7146105ee57610248565b806339509351116101c95780636970a9241161018d5780636970a924146104bf57806370a08231146104e05780637543e39c1461050657806377d739f3146105465780637ecebe001461054e57610248565b8063395093511461041d578063459e414f146104495780634e20e952146104515780635f4d07dc1461047757806360561e051461047f57610248565b806323b872dd1161021057806323b872dd14610395578063284f4444146103cb57806330adf81f146103ef578063313ce567146103f75780633644e5151461041557610248565b806306fdde031461024d578063095ea7b3146102ca57806318160ddd1461030a5780631a28ff0514610324578063204f83f914610371575b600080fd5b61025561088a565b6040805160208082528351818301528351919283929083019185019080838360005b8381101561028f578181015183820152602001610277565b50505050905090810190601f1680156102bc5780820380516001836020036101000a031916815260200191505b509250505060405180910390f35b6102f6600480360360408110156102e057600080fd5b506001600160a01b038135169060200135610920565b604080519115158252519081900360200190f35b61031261093e565b60408051918252519081900360200190f35b61036f600480360360c081101561033a57600080fd5b506001600160a01b03813581169160208101359091169060408101359060ff6060820135169060808101359060a00135610944565b005b610379610b67565b604080516001600160801b039092168252519081900360200190f35b6102f6600480360360608110156103ab57600080fd5b506001600160a01b03813581169160208101359091169060400135610b8b565b6103d3610c19565b604080516001600160a01b039092168252519081900360200190f35b610312610c28565b6103ff610c4c565b6040805160ff9092168252519081900360200190f35b610312610c55565b6102f66004803603604081101561043357600080fd5b506001600160a01b038135169060200135610c79565b610312610ccd565b6103796004803603602081101561046757600080fd5b50356001600160801b0316610cf1565b610379610dbe565b6103796004803603606081101561049557600080fd5b5080356001600160a01b0390811691602081013590911690604001356001600160801b0316610e5b565b6104c761110f565b60408051600f92830b90920b8252519081900360200190f35b610312600480360360208110156104f657600080fd5b50356001600160a01b0316611122565b6103796004803603606081101561051c57600080fd5b5080356001600160a01b0390811691602081013590911690604001356001600160801b031661113d565b6103796113b2565b6103126004803603602081101561056457600080fd5b50356001600160a01b0316611435565b6103796004803603602081101561058a57600080fd5b50356001600160801b0316611447565b6102556115a2565b610379600480360360208110156105b857600080fd5b50356001600160801b0316611603565b610379600480360360208110156105de57600080fd5b50356001600160801b03166116fa565b6102f66004803603604081101561060457600080fd5b506001600160a01b0381351690602001356117c7565b6102f66004803603604081101561063057600080fd5b506001600160a01b038135169060200135611835565b6103796004803603606081101561065c57600080fd5b5080356001600160a01b0390811691602081013590911690604001356001600160801b0316611849565b6104c7611a8d565b610312600480360360208110156106a457600080fd5b50356001600160a01b0316611a9c565b6104c7611aae565b610312611ac1565b610312600480360360608110156106da57600080fd5b506001600160a01b03813581169160208101359091169060400135611ae5565b6103796004803603606081101561071057600080fd5b5080356001600160a01b0390811691602081013590911690604001356001600160801b0316611f27565b61036f600480360360e081101561075057600080fd5b506001600160a01b03813581169160208101359091169060408101359060608101359060ff6080820135169060a08101359060c00135612168565b610312600480360360408110156107a157600080fd5b506001600160a01b0381358116916020013516612396565b61036f600480360360208110156107cf57600080fd5b50356001600160a01b03166123c1565b6103d36123ce565b61081d600480360360608110156107fd57600080fd5b506001600160a01b038135811691602081013590911690604001356123dd565b6040805192835260208301919091528051918290030190f35b6102f66004803603604081101561084c57600080fd5b506001600160a01b0381358116916020013516612788565b61036f6004803603602081101561087a57600080fd5b50356001600160a01b03166127a8565b60038054604080516020601f60026000196101006001881615020190951694909404938401819004810282018101909252828152606093909290918301828280156109165780601f106108eb57610100808354040283529160200191610916565b820191906000526020600020905b8154815290600101906020018083116108f957829003601f168201915b5050505050905090565b600061093461092d6127b2565b84846127b6565b5060015b92915050565b60025490565b42841015610999576040805162461bcd60e51b815260206004820152601c60248201527f44656c656761626c653a205369676e6174757265206578706972656400000000604482015290519081900360640190fd5b6001600160a01b0380871660008181526006602090815260408083208054600180820190925582517f00000000000000000000000000000000000000000000000000000000000000008186015280840196909652958b166060860152608085019590955260a08085018a90528151808603909101815260c08501825280519083012061190160f01b60e08601527f000000000000000000000000000000000000000000000000000000000000000060e286015261010280860182905282518087039091018152610122860180845281519185019190912090859052610142860180845281905260ff8a1661016287015261018286018990526101a2860188905291519095919491926101c2808401939192601f1981019281900390910190855afa158015610acb573d6000803e3d6000fd5b5050604051601f1901519150506001600160a01b03811615801590610b015750886001600160a01b0316816001600160a01b0316145b610b52576040805162461bcd60e51b815260206004820152601c60248201527f44656c656761626c653a20496e76616c6964207369676e617475726500000000604482015290519081900360640190fd5b610b5c89896128a2565b505050505050505050565b7f000000000000000000000000000000000000000000000000000000000000000081565b6000610b98848484612989565b610c0e84610ba46127b2565b610c0985604051806060016040528060288152602001614d50602891396001600160a01b038a16600090815260016020526040812090610be26127b2565b6001600160a01b03168152602081019190915260400160002054919063ffffffff612af016565b6127b6565b5060015b9392505050565b600a546001600160a01b031681565b7f000000000000000000000000000000000000000000000000000000000000000081565b60055460ff1690565b7f000000000000000000000000000000000000000000000000000000000000000081565b6000610934610c866127b2565b84610c098560016000610c976127b2565b6001600160a01b03908116825260208083019390935260409182016000908120918c16815292529020549063ffffffff612b4a16565b7f000000000000000000000000000000000000000000000000000000000000000081565b60007f00000000000000000000000000000000000000000000000000000000000000006001600160801b03164210610d61576040805162461bcd60e51b815260206004820152600e60248201526d506f6f6c3a20546f6f206c61746560901b604482015290519081900360640190fd5b610938610d6c6113b2565b610d74610dbe565b84610da9427f00000000000000000000000000000000000000000000000000000000000000006001600160801b031603612ba4565b64220c523d7268010d79435e50d79435612bfc565b6000610e56610e51610dce61093e565b600a54604080516370a0823160e01b815230600482015290516001600160a01b03909216916370a0823191602480820192602092909190829003018186803b158015610e1957600080fd5b505afa158015610e2d573d6000803e3d6000fd5b505050506040513d6020811015610e4357600080fd5b50519063ffffffff612b4a16565b612ba4565b905090565b6000836040518060400160405280601d8152602001600080516020614d99833981519152815250816001600160a01b0316336001600160a01b03161480610ec557506001600160a01b038216600090815260076020908152604080832033845290915290205460ff165b8190610f4f5760405162461bcd60e51b81526004018080602001828103825283818151815260200191508051906020019080838360005b83811015610f14578181015183820152602001610efc565b50505050905090810190601f168015610f415780820380516001836020036101000a031916815260200191505b509250505060405180910390fd5b506000610f5b856116fa565b600a54604080516323b872dd60e01b81526001600160a01b038b811660048301523060248301526001600160801b038a16604483015291519394509116916323b872dd916064808201926020929091908290030181600087803b158015610fc157600080fd5b505af1158015610fd5573d6000803e3d6000fd5b505050506040513d6020811015610feb57600080fd5b50506009546040805163a9059cbb60e01b81526001600160a01b0389811660048301526001600160801b03851660248301529151919092169163a9059cbb9160448083019260209291908290030181600087803b15801561104b57600080fd5b505af115801561105f573d6000803e3d6000fd5b505050506040513d602081101561107557600080fd5b50506001600160a01b03808716908816600080516020614cc48339815191527f00000000000000000000000000000000000000000000000000000000000000006110c76001600160801b038616612df6565b6110d98a6001600160801b0316612df6565b604080516001600160801b039094168452602084019290925260000382820152519081900360600190a392505b50509392505050565b6103b66903e800000000000000005b0481565b6001600160a01b031660009081526020819052604090205490565b6000836040518060400160405280601d8152602001600080516020614d99833981519152815250816001600160a01b0316336001600160a01b031614806111a757506001600160a01b038216600090815260076020908152604080832033845290915290205460ff165b81906111f45760405162461bcd60e51b8152602060048201818152835160248401528351909283926044909101919085019080838360008315610f14578181015183820152602001610efc565b50600061120085611603565b600954604080516323b872dd60e01b81526001600160a01b038b811660048301523060248301526001600160801b038516604483015291519394509116916323b872dd916064808201926020929091908290030181600087803b15801561126657600080fd5b505af115801561127a573d6000803e3d6000fd5b505050506040513d602081101561129057600080fd5b5050600a546040805163a9059cbb60e01b81526001600160a01b0389811660048301526001600160801b03891660248301529151919092169163a9059cbb9160448083019260209291908290030181600087803b1580156112f057600080fd5b505af1158015611304573d6000803e3d6000fd5b505050506040513d602081101561131a57600080fd5b50506001600160a01b03808716908816600080516020614cc48339815191527f000000000000000000000000000000000000000000000000000000000000000061136c6001600160801b038616612df6565b6000036113818a6001600160801b0316612df6565b604080516001600160801b039094168452602084019290925282820152519081900360600190a39695505050505050565b600954604080516370a0823160e01b81523060048201529051600092610e56926001600160a01b03909116916370a0823191602480820192602092909190829003018186803b15801561140457600080fd5b505afa158015611418573d6000803e3d6000fd5b505050506040513d602081101561142e57600080fd5b5051612ba4565b60086020526000908152604090205481565b60007f00000000000000000000000000000000000000000000000000000000000000006001600160801b031642106114b7576040805162461bcd60e51b815260206004820152600e60248201526d506f6f6c3a20546f6f206c61746560901b604482015290519081900360640190fd5b60006114c16113b2565b905060006114cd610dbe565b9050600061151f83838761150b427f00000000000000000000000000000000000000000000000000000000000000006001600160801b031603612ba4565b64220c523d7267f333333333333333612e4a565b905061152b8386613027565b6001600160801b031661153e838361308d565b6001600160801b0316101561159a576040805162461bcd60e51b815260206004820152601c60248201527f506f6f6c3a20667944616920726573657276657320746f6f206c6f7700000000604482015290519081900360640190fd5b949350505050565b60048054604080516020601f60026000196101006001881615020190951694909404938401819004810282018101909252828152606093909290918301828280156109165780601f106108eb57610100808354040283529160200191610916565b60007f00000000000000000000000000000000000000000000000000000000000000006001600160801b03164210611673576040805162461bcd60e51b815260206004820152600e60248201526d506f6f6c3a20546f6f206c61746560901b604482015290519081900360640190fd5b600061167d6113b2565b90506000611689610dbe565b905060006116db8383876116c7427f00000000000000000000000000000000000000000000000000000000000000006001600160801b031603612ba4565b64220c523d7267f3333333333333336130fc565b90506116e78382613027565b6001600160801b031661153e838761308d565b60007f00000000000000000000000000000000000000000000000000000000000000006001600160801b0316421061176a576040805162461bcd60e51b815260206004820152600e60248201526d506f6f6c3a20546f6f206c61746560901b604482015290519081900360640190fd5b6109386117756113b2565b61177d610dbe565b846117b2427f00000000000000000000000000000000000000000000000000000000000000006001600160801b031603612ba4565b64220c523d7268010d79435e50d794356132e1565b60006109346117d46127b2565b84610c0985604051806060016040528060258152602001614e4660259139600160006117fe6127b2565b6001600160a01b03908116825260208083019390935260409182016000908120918d1681529252902054919063ffffffff612af016565b60006109346118426127b2565b8484612989565b6000836040518060400160405280601d8152602001600080516020614d99833981519152815250816001600160a01b0316336001600160a01b031614806118b357506001600160a01b038216600090815260076020908152604080832033845290915290205460ff165b81906119005760405162461bcd60e51b8152602060048201818152835160248401528351909283926044909101919085019080838360008315610f14578181015183820152602001610efc565b50600061190c85611447565b600954604080516323b872dd60e01b81526001600160a01b038b811660048301523060248301526001600160801b038a16604483015291519394509116916323b872dd916064808201926020929091908290030181600087803b15801561197257600080fd5b505af1158015611986573d6000803e3d6000fd5b505050506040513d602081101561199c57600080fd5b5050600a546040805163a9059cbb60e01b81526001600160a01b0389811660048301526001600160801b03851660248301529151919092169163a9059cbb9160448083019260209291908290030181600087803b1580156119fc57600080fd5b505af1158015611a10573d6000803e3d6000fd5b505050506040513d6020811015611a2657600080fd5b50506001600160a01b03808716908816600080516020614cc48339815191527f0000000000000000000000000000000000000000000000000000000000000000611a786001600160801b038a16612df6565b600003611381866001600160801b0316612df6565b630784ce00600160401b61111e565b60066020526000908152604090205481565b6103e86903b6000000000000000061111e565b7f000000000000000000000000000000000000000000000000000000000000000081565b6000836040518060400160405280601d8152602001600080516020614d99833981519152815250816001600160a01b0316336001600160a01b03161480611b4f57506001600160a01b038216600090815260076020908152604080832033845290915290205460ff165b8190611b9c5760405162461bcd60e51b8152602060048201818152835160248401528351909283926044909101919085019080838360008315610f14578181015183820152602001610efc565b506000611ba761093e565b905080611bbf57611bb785613494565b935050611106565b600954604080516370a0823160e01b815230600482015290516000926001600160a01b0316916370a08231916024808301926020929190829003018186803b158015611c0a57600080fd5b505afa158015611c1e573d6000803e3d6000fd5b505050506040513d6020811015611c3457600080fd5b5051600a54604080516370a0823160e01b815230600482015290519293506000926001600160a01b03909216916370a0823191602480820192602092909190829003018186803b158015611c8757600080fd5b505afa158015611c9b573d6000803e3d6000fd5b505050506040513d6020811015611cb157600080fd5b505190506000611cd783611ccb868b63ffffffff61367d16565b9063ffffffff6136d616565b90506000611cef85611ccb858563ffffffff61367d16565b90506001600160801b03611d09858b63ffffffff612b4a16565b1115611d1457600080fd5b6001600160801b03611d3c611d2f858463ffffffff612b4a16565b879063ffffffff612b4a16565b1115611d4757600080fd5b600954604080516323b872dd60e01b81526001600160a01b038e81166004830152306024830152604482018d9052915191909216916323b872dd9160648083019260209291908290030181600087803b158015611da357600080fd5b505af1158015611db7573d6000803e3d6000fd5b505050506040513d6020811015611dcd57600080fd5b5051611dd857600080fd5b600a54604080516323b872dd60e01b81526001600160a01b038e8116600483015230602483015260448201859052915191909216916323b872dd9160648083019260209291908290030181600087803b158015611e3457600080fd5b505af1158015611e48573d6000803e3d6000fd5b505050506040513d6020811015611e5e57600080fd5b5051611e6957600080fd5b611e738a83613718565b896001600160a01b03168b6001600160a01b03167fd9b421596e3bc3caf78305bc0d270566916f58cd61b71c9c2a3d923a3ea3ea8b7f0000000000000000000000000000000000000000000000000000000000000000611ed28d612df6565b600003611ede86612df6565b600003611eea88612df6565b604080516001600160801b0390951685526020850193909352838301919091526060830152519081900360800190a3509998505050505050505050565b6000836040518060400160405280601d8152602001600080516020614d99833981519152815250816001600160a01b0316336001600160a01b03161480611f9157506001600160a01b038216600090815260076020908152604080832033845290915290205460ff165b8190611fde5760405162461bcd60e51b8152602060048201818152835160248401528351909283926044909101919085019080838360008315610f14578181015183820152602001610efc565b506000611fea85610cf1565b600a54604080516323b872dd60e01b81526001600160a01b038b811660048301523060248301526001600160801b038516604483015291519394509116916323b872dd916064808201926020929091908290030181600087803b15801561205057600080fd5b505af1158015612064573d6000803e3d6000fd5b505050506040513d602081101561207a57600080fd5b50506009546040805163a9059cbb60e01b81526001600160a01b0389811660048301526001600160801b03891660248301529151919092169163a9059cbb9160448083019260209291908290030181600087803b1580156120da57600080fd5b505af11580156120ee573d6000803e3d6000fd5b505050506040513d602081101561210457600080fd5b50506001600160a01b03808716908816600080516020614cc48339815191527f00000000000000000000000000000000000000000000000000000000000000006121566001600160801b038a16612df6565b6110d9866001600160801b0316612df6565b428410156121bd576040805162461bcd60e51b815260206004820152601d60248201527f45524332305065726d69743a206578706972656420646561646c696e65000000604482015290519081900360640190fd5b6001600160a01b0380881660008181526008602090815260408083208054600180820190925582517f00000000000000000000000000000000000000000000000000000000000000008186015280840196909652958c166060860152608085018b905260a085019590955260c08085018a90528151808603909101815260e08501825280519083012061190160f01b6101008601527f000000000000000000000000000000000000000000000000000000000000000061010286015261012280860182905282518087039091018152610142860180845281519185019190912090859052610162860180845281905260ff8a166101828701526101a286018990526101c2860188905291519095919491926101e2808401939192601f1981019281900390910190855afa1580156122f8573d6000803e3d6000fd5b5050604051601f1901519150506001600160a01b0381161580159061232e5750896001600160a01b0316816001600160a01b0316145b61237f576040805162461bcd60e51b815260206004820152601e60248201527f45524332305065726d69743a20696e76616c6964207369676e61747572650000604482015290519081900360640190fd5b61238a8a8a8a6127b6565b50505050505050505050565b6001600160a01b03918216600090815260016020908152604080832093909416825291909152205490565b6123cb33826128a2565b50565b6009546001600160a01b031681565b600080846040518060400160405280601d8152602001600080516020614d99833981519152815250816001600160a01b0316336001600160a01b0316148061244857506001600160a01b038216600090815260076020908152604080832033845290915290205460ff165b81906124955760405162461bcd60e51b8152602060048201818152835160248401528351909283926044909101919085019080838360008315610f14578181015183820152602001610efc565b5060006124a061093e565b600954604080516370a0823160e01b815230600482015290519293506000926001600160a01b03909216916370a0823191602480820192602092909190829003018186803b1580156124f157600080fd5b505afa158015612505573d6000803e3d6000fd5b505050506040513d602081101561251b57600080fd5b5051600a54604080516370a0823160e01b81523060048201529051929350600092839283926001600160a01b03909116916370a0823191602480820192602092909190829003018186803b15801561257257600080fd5b505afa158015612586573d6000803e3d6000fd5b505050506040513d602081101561259c57600080fd5b505190506125b485611ccb8c8763ffffffff61367d16565b92506125ca85611ccb8c8463ffffffff61367d16565b9150506125d78b8a613814565b6009546040805163a9059cbb60e01b81526001600160a01b038d81166004830152602482018690529151919092169163a9059cbb9160448083019260209291908290030181600087803b15801561262d57600080fd5b505af1158015612641573d6000803e3d6000fd5b505050506040513d602081101561265757600080fd5b5050600a546040805163a9059cbb60e01b81526001600160a01b038d81166004830152602482018590529151919092169163a9059cbb9160448083019260209291908290030181600087803b1580156126af57600080fd5b505af11580156126c3573d6000803e3d6000fd5b505050506040513d60208110156126d957600080fd5b50506001600160a01b03808b16908c167fd9b421596e3bc3caf78305bc0d270566916f58cd61b71c9c2a3d923a3ea3ea8b7f000000000000000000000000000000000000000000000000000000000000000061273486612df6565b61273d86612df6565b6127468f612df6565b604080516001600160801b0390951685526020850193909352838301919091526000036060830152519081900360800190a3909a909950975050505050505050565b600760209081526000928352604080842090915290825290205460ff1681565b6123cb338261391c565b3390565b6001600160a01b0383166127fb5760405162461bcd60e51b8152600401808060200182810382526024815260200180614dde6024913960400191505060405180910390fd5b6001600160a01b0382166128405760405162461bcd60e51b8152600401808060200182810382526022815260200180614c7c6022913960400191505060405180910390fd5b6001600160a01b03808416600081815260016020908152604080832094871680845294825291829020859055815185815291517f8c5be1e5ebec7d5bd14f71427d1e84f3dd0314c0f7b2291e5b200ac8c7c3b9259281900390910190a3505050565b6001600160a01b0380831660009081526007602090815260408083209385168352929052205460ff161561291d576040805162461bcd60e51b815260206004820152601c60248201527f44656c656761626c653a20416c72656164792064656c65676174656400000000604482015290519081900360640190fd5b6001600160a01b03808316600081815260076020908152604080832094861680845294825291829020805460ff19166001908117909155825190815291517f045b0fef01772d2fbba53dbd38c9777806eac0865b00af43abcfbcaf50da92069281900390910190a35050565b6001600160a01b0383166129ce5760405162461bcd60e51b8152600401808060200182810382526025815260200180614db96025913960400191505060405180910390fd5b6001600160a01b038216612a135760405162461bcd60e51b8152600401808060200182810382526023815260200180614c0b6023913960400191505060405180910390fd5b612a1e8383836139fa565b612a6181604051806060016040528060268152602001614c9e602691396001600160a01b038616600090815260208190526040902054919063ffffffff612af016565b6001600160a01b038085166000908152602081905260408082209390935590841681522054612a96908263ffffffff612b4a16565b6001600160a01b038084166000818152602081815260409182902094909455805185815290519193928716927fddf252ad1be2c89b69c2b068fc378daa952ba7f163c4a11628f55a4df523b3ef92918290030190a3505050565b60008184841115612b425760405162461bcd60e51b8152602060048201818152835160248401528351909283926044909101919085019080838360008315610f14578181015183820152602001610efc565b505050900390565b600082820183811015610c12576040805162461bcd60e51b815260206004820152601b60248201527f536166654d6174683a206164646974696f6e206f766572666c6f770000000000604482015290519081900360640190fd5b60006001600160801b03821115612bf8576040805162461bcd60e51b8152602060048201526013602482015272506f6f6c3a2043617374206f766572666c6f7760681b604482015290519081900360640190fd5b5090565b600080612c1a84612c15876001600160801b03166139ff565b613a1d565b90506000612c35600160401b612c308685613a1d565b613a54565b9050600081600f0b13612c7d576040805162461bcd60e51b81526020600482018190526024820152600080516020614e02833981519152604482015290519081900360640190fd5b6001600160801b03808816908a1603600160801b8110612ce4576040805162461bcd60e51b815260206004820152601b60248201527f5969656c644d6174683a20546f6f206d75636820446169206f75740000000000604482015290519081900360640190fd5b6000612cf58284600160401b613a87565b612d048b85600160401b613a87565b612d138d86600160401b613a87565b01039050600160801b8110612d595760405162461bcd60e51b815260040180806020018281038252602c815260200180614c2e602c913960400191505060405180910390fd5b60008a6001600160801b0316612d7483600160401b87613a87565b039050600160801b8110612db95760405162461bcd60e51b8152600401808060200182810382526021815260200180614ce46021913960400191505060405180910390fd5b6fffffffffffffffffffffff172b5aefff8110612ddd576001600160801b03612de6565b8064e8d4a51000015b9c9b505050505050505050505050565b60006001600160ff1b03821115612bf8576040805162461bcd60e51b8152602060048201526013602482015272506f6f6c3a2043617374206f766572666c6f7760681b604482015290519081900360640190fd5b600080612e6384612c15876001600160801b03166139ff565b90506000612e79600160401b612c308685613a1d565b9050600081600f0b13612ec1576040805162461bcd60e51b81526020600482018190526024820152600080516020614e02833981519152604482015290519081900360640190fd5b6001600160801b0389811690881601600160801b8110612f28576040805162461bcd60e51b815260206004820152601a60248201527f5969656c644d6174683a20546f6f206d7563682044616920696e000000000000604482015290519081900360640190fd5b6000612f398284600160401b613a87565b612f488b85600160401b613a87565b612f578d86600160401b613a87565b01039050600160801b8110612f9d5760405162461bcd60e51b8152600401808060200182810382526026815260200180614be56026913960400191505060405180910390fd5b6000612fae82600160401b86613a87565b8b6001600160801b0316039050600160801b8110612ffd5760405162461bcd60e51b8152600401808060200182810382526021815260200180614ce46021913960400191505060405180910390fd5b64e8d4a510008111613010576000612de6565b64e8d4a50fff19019b9a5050505050505050505050565b60008282016001600160801b038085169082161015610c12576040805162461bcd60e51b815260206004820152601b60248201527f506f6f6c3a2044616920726573657276657320746f6f20686967680000000000604482015290519081900360640190fd5b6000826001600160801b0316826001600160801b031611156130f6576040805162461bcd60e51b815260206004820152601c60248201527f506f6f6c3a20667944616920726573657276657320746f6f206c6f7700000000604482015290519081900360640190fd5b50900390565b600080613121600160401b612c3085612c1588612c158b6001600160801b03166139ff565b9050600081600f0b13613169576040805162461bcd60e51b81526020600482018190526024820152600080516020614e02833981519152604482015290519081900360640190fd5b6001600160801b0380871690881603600160801b81106131d0576040805162461bcd60e51b815260206004820152601d60248201527f5969656c644d6174683a20546f6f206d756368206679446169206f7574000000604482015290519081900360640190fd5b60006131e18284600160401b613a87565b6131f08a85600160401b613a87565b6131ff8c86600160401b613a87565b01039050600160801b81106132455760405162461bcd60e51b815260040180806020018281038252602a815260200180614d05602a913960400191505060405180910390fd5b60008a6001600160801b031661326083600160401b87613a87565b039050600160801b81106132a55760405162461bcd60e51b8152600401808060200182810382526021815260200180614ce46021913960400191505060405180910390fd5b6fffffffffffffffffffffff172b5aefff81106132c9576001600160801b036132d2565b8064e8d4a51000015b9b9a5050505050505050505050565b6000806132fa84612c15876001600160801b03166139ff565b90506000613310600160401b612c308685613a1d565b9050600081600f0b13613358576040805162461bcd60e51b81526020600482018190526024820152600080516020614e02833981519152604482015290519081900360640190fd5b6001600160801b0388811690881601600160801b81106133bf576040805162461bcd60e51b815260206004820152601c60248201527f5969656c644d6174683a20546f6f206d75636820667944616920696e00000000604482015290519081900360640190fd5b60006133d08a84600160401b613a87565b6133df8385600160401b613a87565b6133ee8d86600160401b613a87565b03019050600160801b81106134345760405162461bcd60e51b8152600401808060200182810382526024815260200180614e226024913960400191505060405180910390fd5b600061344582600160401b86613a87565b8c6001600160801b0316039050600160801b8110612ffd5760405162461bcd60e51b8152600401808060200182810382526021815260200180614ce46021913960400191505060405180910390fd5b60007f00000000000000000000000000000000000000000000000000000000000000006001600160801b03164210613504576040805162461bcd60e51b815260206004820152600e60248201526d506f6f6c3a20546f6f206c61746560901b604482015290519081900360640190fd5b61350c61093e565b1561355e576040805162461bcd60e51b815260206004820152601960248201527f506f6f6c3a20416c726561647920696e697469616c697a656400000000000000604482015290519081900360640190fd5b600954604080516323b872dd60e01b81523360048201523060248201526044810185905290516001600160a01b03909216916323b872dd916064808201926020929091908290030181600087803b1580156135b857600080fd5b505af11580156135cc573d6000803e3d6000fd5b505050506040513d60208110156135e257600080fd5b506135ef90503383613718565b33807fd9b421596e3bc3caf78305bc0d270566916f58cd61b71c9c2a3d923a3ea3ea8b7f000000000000000000000000000000000000000000000000000000000000000061363c86612df6565b600003600061364a88612df6565b604080516001600160801b0390951685526020850193909352838301919091526060830152519081900360800190a35090565b60008261368c57506000610938565b8282028284828161369957fe5b0414610c125760405162461bcd60e51b8152600401808060200182810382526021815260200180614d2f6021913960400191505060405180910390fd5b6000610c1283836040518060400160405280601a81526020017f536166654d6174683a206469766973696f6e206279207a65726f000000000000815250613b3d565b6001600160a01b038216613773576040805162461bcd60e51b815260206004820152601f60248201527f45524332303a206d696e7420746f20746865207a65726f206164647265737300604482015290519081900360640190fd5b61377f600083836139fa565b600254613792908263ffffffff612b4a16565b6002556001600160a01b0382166000908152602081905260409020546137be908263ffffffff612b4a16565b6001600160a01b0383166000818152602081815260408083209490945583518581529351929391927fddf252ad1be2c89b69c2b068fc378daa952ba7f163c4a11628f55a4df523b3ef9281900390910190a35050565b6001600160a01b0382166138595760405162461bcd60e51b8152600401808060200182810382526021815260200180614d786021913960400191505060405180910390fd5b613865826000836139fa565b6138a881604051806060016040528060228152602001614c5a602291396001600160a01b038516600090815260208190526040902054919063ffffffff612af016565b6001600160a01b0383166000908152602081905260409020556002546138d4908263ffffffff613ba216565b6002556040805182815290516000916001600160a01b038516917fddf252ad1be2c89b69c2b068fc378daa952ba7f163c4a11628f55a4df523b3ef9181900360200190a35050565b6001600160a01b0380831660009081526007602090815260408083209385168352929052205460ff16613996576040805162461bcd60e51b815260206004820152601e60248201527f44656c656761626c653a20416c726561647920756e64656c6567617465640000604482015290519081900360640190fd5b6001600160a01b038083166000818152600760209081526040808320948616808452948252808320805460ff191690558051928352517f045b0fef01772d2fbba53dbd38c9777806eac0865b00af43abcfbcaf50da92069281900390910190a35050565b505050565b6000677fffffffffffffff821115613a1657600080fd5b5060401b90565b6000600f83810b9083900b0260401d60016001607f1b03198112801590613a4b575060016001607f1b038113155b610c1257600080fd5b6000600f82810b9084900b0360016001607f1b03198112801590613a4b575060016001607f1b03811315610c1257600080fd5b60006001600160801b038216613a9c57600080fd5b6001600160801b038416613ac5576001600160801b038316613abd57600080fd5b506000610c12565b6000826001600160801b0316846001600160801b0316613ae487613be4565b6001600160801b03036001600160801b03160281613afe57fe5b0490506001600160801b03811115613b1a576000915050610c12565b613b2c816001600160801b030361442f565b6001600160801b0316915050610c12565b60008183613b8c5760405162461bcd60e51b8152602060048201818152835160248401528351909283926044909101919085019080838360008315610f14578181015183820152602001610efc565b506000838581613b9857fe5b0495945050505050565b6000610c1283836040518060400160405280601e81526020017f536166654d6174683a207375627472616374696f6e206f766572666c6f770000815250612af0565b60006001600160801b038216613bf957600080fd5b6001600160801b038216607f60791b600160401b821015613c265760409190911b9060016001607f1b0319015b600160601b821015613c4d5760209190911b906f3fffffffffffffffffffffffffffffff19015b600160701b821015613c745760109190911b906f1fffffffffffffffffffffffffffffff19015b600160781b821015613c9b5760089190911b906f0fffffffffffffffffffffffffffffff19015b6001607c1b821015613cc25760049190911b906f07ffffffffffffffffffffffffffffff19015b6001607e1b821015613ce95760029190911b906f03ffffffffffffffffffffffffffffff19015b6001607f1b821015613d105760019190911b906f01ffffffffffffffffffffffffffffff19015b908002607f1c90600160801b8210613d305760019190911c90600160781b175b908002607f1c90600160801b8210613d505760019190911c90600160771b175b908002607f1c90600160801b8210613d705760019190911c90600160761b175b908002607f1c90600160801b8210613d905760019190911c90600160751b175b908002607f1c90600160801b8210613db05760019190911c90600160741b175b908002607f1c90600160801b8210613dd05760019190911c90600160731b175b908002607f1c90600160801b8210613df05760019190911c90600160721b175b908002607f1c90600160801b8210613e105760019190911c90600160711b175b908002607f1c90600160801b8210613e305760019190911c90600160701b175b908002607f1c90600160801b8210613e505760019190911c906001606f1b175b908002607f1c90600160801b8210613e705760019190911c906001606e1b175b908002607f1c90600160801b8210613e905760019190911c906001606d1b175b908002607f1c90600160801b8210613eb05760019190911c906001606c1b175b908002607f1c90600160801b8210613ed05760019190911c906001606b1b175b908002607f1c90600160801b8210613ef05760019190911c906001606a1b175b908002607f1c90600160801b8210613f105760019190911c90600160691b175b908002607f1c90600160801b8210613f305760019190911c90600160681b175b908002607f1c90600160801b8210613f505760019190911c90600160671b175b908002607f1c90600160801b8210613f705760019190911c90600160661b175b908002607f1c90600160801b8210613f905760019190911c90600160651b175b908002607f1c90600160801b8210613fb05760019190911c90600160641b175b908002607f1c90600160801b8210613fd05760019190911c90600160631b175b908002607f1c90600160801b8210613ff05760019190911c90600160621b175b908002607f1c90600160801b82106140105760019190911c90600160611b175b908002607f1c90600160801b82106140305760019190911c90600160601b175b908002607f1c90600160801b82106140505760019190911c906001605f1b175b908002607f1c90600160801b82106140705760019190911c906001605e1b175b908002607f1c90600160801b82106140905760019190911c906001605d1b175b908002607f1c90600160801b82106140b05760019190911c906001605c1b175b908002607f1c90600160801b82106140d05760019190911c906001605b1b175b908002607f1c90600160801b82106140f05760019190911c906001605a1b175b908002607f1c90600160801b82106141105760019190911c90600160591b175b908002607f1c90600160801b82106141305760019190911c90600160581b175b908002607f1c90600160801b82106141505760019190911c90600160571b175b908002607f1c90600160801b82106141705760019190911c90600160561b175b908002607f1c90600160801b82106141905760019190911c90600160551b175b908002607f1c90600160801b82106141b05760019190911c90600160541b175b908002607f1c90600160801b82106141d05760019190911c90600160531b175b908002607f1c90600160801b82106141f05760019190911c90600160521b175b908002607f1c90600160801b82106142105760019190911c90600160511b175b908002607f1c90600160801b82106142305760019190911c90600160501b175b908002607f1c90600160801b82106142505760019190911c906001604f1b175b908002607f1c90600160801b82106142705760019190911c906001604e1b175b908002607f1c90600160801b82106142905760019190911c906001604d1b175b908002607f1c90600160801b82106142b05760019190911c906001604c1b175b908002607f1c90600160801b82106142d05760019190911c906001604b1b175b908002607f1c90600160801b82106142f05760019190911c906001604a1b175b908002607f1c90600160801b82106143105760019190911c90600160491b175b908002607f1c90600160801b82106143305760019190911c90600160481b175b908002607f1c90600160801b82106143505760019190911c90600160471b175b908002607f1c90600160801b82106143705760019190911c90600160461b175b908002607f1c90600160801b82106143905760019190911c90600160451b175b908002607f1c90600160801b82106143b05760019190911c90600160441b175b908002607f1c90600160801b82106143d05760019190911c90600160431b175b908002607f1c90600160801b82106143f05760019190911c90600160421b175b908002607f1c90600160801b82106144105760019190911c90600160411b175b908002607f1c90600160801b8210610c1257600160401b179392505050565b60006001607f1b600160781b831615614458576fb504f333f9de6484597d89b3754abe9f02607f1c5b600160771b83161561447a576f9837f0518db8a96f46ad23182e42f6f602607f1c5b600160761b83161561449c576f8b95c1e3ea8bd6e6fbe4628758a53c9002607f1c5b600160751b8316156144be576f85aac367cc487b14c5c95b8c2154c1b202607f1c5b600160741b8316156144e0576f82cd8698ac2ba1d73e2a475b46520bff02607f1c5b600160731b831615614502576f8164d1f3bc0307737be56527bd14def402607f1c5b600160721b831615614524576f80b1ed4fd999ab6c25335719b6e6fd2002607f1c5b600160711b831615614546576f8058d7d2d5e5f6b094d589f608ee4aa202607f1c5b600160701b831615614568576f802c6436d0e04f50ff8ce94a6797b3ce02607f1c5b6001606f1b83161561458a576f8016302f174676283690dfe44d11d00802607f1c5b6001606e1b8316156145ac576f800b179c82028fd0945e54e2ae18f2f002607f1c5b6001606d1b8316156145ce576f80058baf7fee3b5d1c718b38e549cb9302607f1c5b6001606c1b8316156145f0576f8002c5d00fdcfcb6b6566a58c048be1f02607f1c5b6001606b1b831615614612576f800162e61bed4a48e84c2e1a463473d902607f1c5b6001606a1b831615614634576f8000b17292f702a3aa22beacca94901302607f1c5b600160691b831615614656576f800058b92abbae02030c5fa5256f41fe02607f1c5b600160681b831615614678576f80002c5c8dade4d71776c0f4dbea67d602607f1c5b600160671b83161561469a576f8000162e44eaf636526be456600bdbe402607f1c5b600160661b8316156146bc576f80000b1721fa7c188307016c1cd4e8b602607f1c5b600160651b8316156146de576f8000058b90de7e4cecfc487503488bb102607f1c5b600160641b831615614700576f800002c5c8678f36cbfce50a6de60b1402607f1c5b600160631b831615614722576f80000162e431db9f80b2347b5d62e51602607f1c5b600160621b831615614744576f800000b1721872d0c7b08cf1e011415202607f1c5b600160611b831615614766576f80000058b90c1aa8a5c3736cb77e8dff02607f1c5b600160601b831615614788576f8000002c5c8605a4635f2efc2362d97802607f1c5b6001605f1b8316156147aa576f800000162e4300e635cf4a109e3939bd02607f1c5b6001605e1b8316156147cc576f8000000b17217ff81bef9c551590cf8302607f1c5b6001605d1b8316156147ee576f800000058b90bfdd4e39cd52c0cfa27c02607f1c5b6001605c1b831615614810576f80000002c5c85fe6f72d669e0e76e41102607f1c5b6001605b1b831615614832576f8000000162e42ff18f9ad35186d0df2802607f1c5b6001605a1b831615614854576f80000000b17217f84cce71aa0dcfffe702607f1c5b600160591b831615614876576f8000000058b90bfc07a77ad56ed22aaa02607f1c5b600160581b831615614898576f800000002c5c85fdfc23cdead40da8d602607f1c5b600160571b8316156148ba576f80000000162e42fefc25eb1571853a6602607f1c5b600160561b8316156148dc576f800000000b17217f7d97f692baacded502607f1c5b600160551b8316156148fe576f80000000058b90bfbead3b8b5dd254d702607f1c5b600160541b831615614920576f8000000002c5c85fdf4eedd62f084e6702607f1c5b600160531b831615614942576f800000000162e42fefa58aef378bf58602607f1c5b600160521b831615614964576f8000000000b17217f7d24a78a3c7ef0202607f1c5b600160511b831615614986576f800000000058b90bfbe9067c93e474a602607f1c5b600160501b8316156149a8576f80000000002c5c85fdf47b8e5a72599f02607f1c5b6001604f1b8316156149ca576f8000000000162e42fefa3bdb315934a202607f1c5b6001604e1b8316156149ec576f80000000000b17217f7d1d7299b49c4602607f1c5b6001604d1b831615614a0e576f8000000000058b90bfbe8e9a8d1c4ea002607f1c5b6001604c1b831615614a30576f800000000002c5c85fdf4745969ea76f02607f1c5b6001604b1b831615614a52576f80000000000162e42fefa3a0df5373bf02607f1c5b6001604a1b831615614a74576f800000000000b17217f7d1cff4aac1e102607f1c5b600160491b831615614a96576f80000000000058b90bfbe8e7db95a2f102607f1c5b600160481b831615614ab8576f8000000000002c5c85fdf473e61ae1f802607f1c5b600160471b831615614ada576f800000000000162e42fefa39f121751c02607f1c5b600160461b831615614afc576f8000000000000b17217f7d1cf815bb9602607f1c5b600160451b831615614b1e576f800000000000058b90bfbe8e7bec1e0d02607f1c5b600160441b831615614b40576f80000000000002c5c85fdf473dee5f1702607f1c5b600160431b831615614b62576f8000000000000162e42fefa39ef5438f02607f1c5b600160421b831615614b84576f80000000000000b17217f7d1cf7a26c802607f1c5b600160411b831615614ba6576f8000000000000058b90bfbe8e7bcf4a402607f1c5b600160401b831615614bc8576f800000000000002c5c85fdf473de72a202607f1c5b607f607984901c811690036001600160801b03161c905091905056fe5969656c644d6174683a20496e73756666696369656e7420667944616920726573657276657345524332303a207472616e7366657220746f20746865207a65726f20616464726573735969656c644d6174683a20526573756c74696e6720667944616920726573657276657320746f6f206869676845524332303a206275726e20616d6f756e7420657863656564732062616c616e636545524332303a20617070726f766520746f20746865207a65726f206164647265737345524332303a207472616e7366657220616d6f756e7420657863656564732062616c616e63653f207773c457c66e004ab34e2ce7ae1fcafc7b4c3286f63997c87428014219155969656c644d6174683a20526f756e64696e6720696e6475636564206572726f725969656c644d6174683a20526573756c74696e672044616920726573657276657320746f6f2068696768536166654d6174683a206d756c7469706c69636174696f6e206f766572666c6f7745524332303a207472616e7366657220616d6f756e74206578636565647320616c6c6f77616e636545524332303a206275726e2066726f6d20746865207a65726f2061646472657373506f6f6c3a204f6e6c7920486f6c646572204f722044656c656761746500000045524332303a207472616e736665722066726f6d20746865207a65726f206164647265737345524332303a20617070726f76652066726f6d20746865207a65726f20616464726573735969656c644d6174683a20546f6f206661722066726f6d206d617475726974795969656c644d6174683a20496e73756666696369656e742044616920726573657276657345524332303a2064656372656173656420616c6c6f77616e63652062656c6f77207a65726fa2646970667358221220e392236a971e42de54786b3c571b5dc394478c3a6b10b3f957494a0e9d958c4564736f6c634300060a0033c89efdaa54c0f20c7adf612882df0950f5a951637e0307cdcb4c672f298b8bc65065726d69742861646472657373206f776e65722c61646472657373207370656e6465722c75696e743235362076616c75652c75696e74323536206e6f6e63652c75696e7432353620646561646c696e6529454950373132446f6d61696e28737472696e67206e616d652c737472696e672076657273696f6e2c75696e7432353620636861696e49642c6164647265737320766572696679696e67436f6e747261637429",
  "immutableReferences": {
    "10430": [
      {
        "length": 32,
        "start": 2499
      },
      {
        "length": 32,
        "start": 6851
      }
    ],
    "10432": [
      {
        "length": 32,
        "start": 2600
      },
      {
        "length": 32,
        "start": 3279
      }
    ],
    "10696": [
      {
        "length": 32,
        "start": 3114
      },
      {
        "length": 32,
        "start": 8679
      }
    ],
    "10698": [
      {
        "length": 32,
        "start": 3159
      },
      {
        "length": 32,
        "start": 8788
      }
    ],
    "29566": [
      {
        "length": 32,
        "start": 2921
      },
      {
        "length": 32,
        "start": 3317
      },
      {
        "length": 32,
        "start": 3451
      },
      {
        "length": 32,
        "start": 4246
      },
      {
        "length": 32,
        "start": 4923
      },
      {
        "length": 32,
        "start": 5195
      },
      {
        "length": 32,
        "start": 5341
      },
      {
        "length": 32,
        "start": 5639
      },
      {
        "length": 32,
        "start": 5785
      },
      {
        "length": 32,
        "start": 5886
      },
      {
        "length": 32,
        "start": 6020
      },
      {
        "length": 32,
        "start": 6727
      },
      {
        "length": 32,
        "start": 7850
      },
      {
        "length": 32,
        "start": 8485
      },
      {
        "length": 32,
        "start": 9996
      },
      {
        "length": 32,
        "start": 13464
      },
      {
        "length": 32,
        "start": 13844
      }
    ]
  },
  "source": "// SPDX-License-Identifier: GPL-3.0-or-later\npragma solidity ^0.6.10;\n\nimport \"@openzeppelin/contracts/token/ERC20/ERC20.sol\";\nimport \"@openzeppelin/contracts/token/ERC20/IERC20.sol\";\nimport \"./YieldMath.sol\";\nimport \"../helpers/Delegable.sol\";\nimport \"../helpers/ERC20Permit.sol\";\nimport \"../interfaces/IPot.sol\";\nimport \"../interfaces/IFYDai.sol\";\nimport \"../interfaces/IPool.sol\";\n\n\n/// @dev The Pool contract exchanges Dai for fyDai at a price defined by a specific formula.\ncontract Pool is IPool, Delegable(), ERC20Permit {\n\n    event Trade(uint256 maturity, address indexed from, address indexed to, int256 daiTokens, int256 fyDaiTokens);\n    event Liquidity(uint256 maturity, address indexed from, address indexed to, int256 daiTokens, int256 fyDaiTokens, int256 poolTokens);\n\n    int128 constant public k = int128(uint256((1 << 64)) / 126144000); // 1 / Seconds in 4 years, in 64.64\n    int128 constant public g1 = int128(uint256((950 << 64)) / 1000); // To be used when selling Dai to the pool. All constants are `ufixed`, to divide them they must be converted to uint256\n    int128 constant public g2 = int128(uint256((1000 << 64)) / 950); // To be used when selling fyDai to the pool. All constants are `ufixed`, to divide them they must be converted to uint256\n    uint128 immutable public maturity;\n\n    IERC20 public override dai;\n    IFYDai public override fyDai;\n\n    constructor(address dai_, address fyDai_, string memory name_, string memory symbol_)\n        public\n        ERC20Permit(name_, symbol_)\n    {\n        dai = IERC20(dai_);\n        fyDai = IFYDai(fyDai_);\n\n        maturity = toUint128(fyDai.maturity());\n    }\n\n    /// @dev Trading can only be done before maturity\n    modifier beforeMaturity() {\n        require(\n            now < maturity,\n            \"Pool: Too late\"\n        );\n        _;\n    }\n\n    /// @dev Overflow-protected addition, from OpenZeppelin\n    function add(uint128 a, uint128 b)\n        internal pure returns (uint128)\n    {\n        uint128 c = a + b;\n        require(c >= a, \"Pool: Dai reserves too high\");\n\n        return c;\n    }\n\n    /// @dev Overflow-protected substraction, from OpenZeppelin\n    function sub(uint128 a, uint128 b) internal pure returns (uint128) {\n        require(b <= a, \"Pool: fyDai reserves too low\");\n        uint128 c = a - b;\n\n        return c;\n    }\n\n    /// @dev Safe casting from uint256 to uint128\n    function toUint128(uint256 x) internal pure returns(uint128) {\n        require(\n            x <= type(uint128).max,\n            \"Pool: Cast overflow\"\n        );\n        return uint128(x);\n    }\n\n    /// @dev Safe casting from uint256 to int256\n    function toInt256(uint256 x) internal pure returns(int256) {\n        require(\n            x <= uint256(type(int256).max),\n            \"Pool: Cast overflow\"\n        );\n        return int256(x);\n    }\n\n    /// @dev Mint initial liquidity tokens.\n    /// The liquidity provider needs to have called `dai.approve`\n    /// @param daiIn The initial Dai liquidity to provide.\n    function init(uint256 daiIn)\n        internal\n        beforeMaturity\n        returns (uint256)\n    {\n        require(\n            totalSupply() == 0,\n            \"Pool: Already initialized\"\n        );\n        // no fyDai transferred, because initial fyDai deposit is entirely virtual\n        dai.transferFrom(msg.sender, address(this), daiIn);\n        _mint(msg.sender, daiIn);\n        emit Liquidity(maturity, msg.sender, msg.sender, -toInt256(daiIn), 0, toInt256(daiIn));\n\n        return daiIn;\n    }\n\n    /// @dev Mint liquidity tokens in exchange for adding dai and fyDai\n    /// The liquidity provider needs to have called `dai.approve` and `fyDai.approve`.\n    /// @param from Wallet providing the dai and fyDai. Must have approved the operator with `pool.addDelegate(operator)`.\n    /// @param to Wallet receiving the minted liquidity tokens.\n    /// @param daiOffered Amount of `dai` being invested, an appropriate amount of `fyDai` to be invested alongside will be calculated and taken by this function from the caller.\n    /// @return The amount of liquidity tokens minted.\n    function mint(address from, address to, uint256 daiOffered)\n        external override\n        onlyHolderOrDelegate(from, \"Pool: Only Holder Or Delegate\")\n        returns (uint256)\n    {\n        uint256 supply = totalSupply();\n        if (supply == 0) return init(daiOffered);\n\n        uint256 daiReserves = dai.balanceOf(address(this));\n        // use the actual reserves rather than the virtual reserves\n        uint256 fyDaiReserves = fyDai.balanceOf(address(this));\n        uint256 tokensMinted = supply.mul(daiOffered).div(daiReserves);\n        uint256 fyDaiRequired = fyDaiReserves.mul(tokensMinted).div(supply);\n\n        require(daiReserves.add(daiOffered) <= type(uint128).max); // daiReserves can't go over type(uint128).max\n        require(supply.add(fyDaiReserves.add(fyDaiRequired)) <= type(uint128).max); // fyDaiReserves can't go over type(uint128).max\n\n        require(dai.transferFrom(from, address(this), daiOffered));\n        require(fyDai.transferFrom(from, address(this), fyDaiRequired));\n        _mint(to, tokensMinted);\n        emit Liquidity(maturity, from, to, -toInt256(daiOffered), -toInt256(fyDaiRequired), toInt256(tokensMinted));\n\n        return tokensMinted;\n    }\n\n    /// @dev Burn liquidity tokens in exchange for dai and fyDai.\n    /// The liquidity provider needs to have called `pool.approve`.\n    /// @param from Wallet providing the liquidity tokens. Must have approved the operator with `pool.addDelegate(operator)`.\n    /// @param to Wallet receiving the dai and fyDai.\n    /// @param tokensBurned Amount of liquidity tokens being burned.\n    /// @return The amount of reserve tokens returned (daiTokens, fyDaiTokens).\n    function burn(address from, address to, uint256 tokensBurned)\n        external override\n        onlyHolderOrDelegate(from, \"Pool: Only Holder Or Delegate\")\n        returns (uint256, uint256)\n    {\n        uint256 supply = totalSupply();\n        uint256 daiReserves = dai.balanceOf(address(this));\n        // use the actual reserves rather than the virtual reserves\n        uint256 daiReturned;\n        uint256 fyDaiReturned;\n        { // avoiding stack too deep\n            uint256 fyDaiReserves = fyDai.balanceOf(address(this));\n            daiReturned = tokensBurned.mul(daiReserves).div(supply);\n            fyDaiReturned = tokensBurned.mul(fyDaiReserves).div(supply);\n        }\n\n        _burn(from, tokensBurned);\n        dai.transfer(to, daiReturned);\n        fyDai.transfer(to, fyDaiReturned);\n        emit Liquidity(maturity, from, to, toInt256(daiReturned), toInt256(fyDaiReturned), -toInt256(tokensBurned));\n\n        return (daiReturned, fyDaiReturned);\n    }\n\n    /// @dev Sell Dai for fyDai\n    /// The trader needs to have called `dai.approve`\n    /// @param from Wallet providing the dai being sold. Must have approved the operator with `pool.addDelegate(operator)`.\n    /// @param to Wallet receiving the fyDai being bought\n    /// @param daiIn Amount of dai being sold that will be taken from the user's wallet\n    /// @return Amount of fyDai that will be deposited on `to` wallet\n    function sellDai(address from, address to, uint128 daiIn)\n        external override\n        onlyHolderOrDelegate(from, \"Pool: Only Holder Or Delegate\")\n        returns(uint128)\n    {\n        uint128 fyDaiOut = sellDaiPreview(daiIn);\n\n        dai.transferFrom(from, address(this), daiIn);\n        fyDai.transfer(to, fyDaiOut);\n        emit Trade(maturity, from, to, -toInt256(daiIn), toInt256(fyDaiOut));\n\n        return fyDaiOut;\n    }\n\n    /// @dev Returns how much fyDai would be obtained by selling `daiIn` dai\n    /// @param daiIn Amount of dai hypothetically sold.\n    /// @return Amount of fyDai hypothetically bought.\n    function sellDaiPreview(uint128 daiIn)\n        public view override\n        beforeMaturity\n        returns(uint128)\n    {\n        uint128 daiReserves = getDaiReserves();\n        uint128 fyDaiReserves = getFYDaiReserves();\n\n        uint128 fyDaiOut = YieldMath.fyDaiOutForDaiIn(\n            daiReserves,\n            fyDaiReserves,\n            daiIn,\n            toUint128(maturity - now), // This can't be called after maturity\n            k,\n            g1\n        );\n\n        require(\n            sub(fyDaiReserves, fyDaiOut) >= add(daiReserves, daiIn),\n            \"Pool: fyDai reserves too low\"\n        );\n\n        return fyDaiOut;\n    }\n\n    /// @dev Buy Dai for fyDai\n    /// The trader needs to have called `fyDai.approve`\n    /// @param from Wallet providing the fyDai being sold. Must have approved the operator with `pool.addDelegate(operator)`.\n    /// @param to Wallet receiving the dai being bought\n    /// @param daiOut Amount of dai being bought that will be deposited in `to` wallet\n    /// @return Amount of fyDai that will be taken from `from` wallet\n    function buyDai(address from, address to, uint128 daiOut)\n        external override\n        onlyHolderOrDelegate(from, \"Pool: Only Holder Or Delegate\")\n        returns(uint128)\n    {\n        uint128 fyDaiIn = buyDaiPreview(daiOut);\n\n        fyDai.transferFrom(from, address(this), fyDaiIn);\n        dai.transfer(to, daiOut);\n        emit Trade(maturity, from, to, toInt256(daiOut), -toInt256(fyDaiIn));\n\n        return fyDaiIn;\n    }\n\n    /// @dev Returns how much fyDai would be required to buy `daiOut` dai.\n    /// @param daiOut Amount of dai hypothetically desired.\n    /// @return Amount of fyDai hypothetically required.\n    function buyDaiPreview(uint128 daiOut)\n        public view override\n        beforeMaturity\n        returns(uint128)\n    {\n        return YieldMath.fyDaiInForDaiOut(\n            getDaiReserves(),\n            getFYDaiReserves(),\n            daiOut,\n            toUint128(maturity - now), // This can't be called after maturity\n            k,\n            g2\n        );\n    }\n\n    /// @dev Sell fyDai for Dai\n    /// The trader needs to have called `fyDai.approve`\n    /// @param from Wallet providing the fyDai being sold. Must have approved the operator with `pool.addDelegate(operator)`.\n    /// @param to Wallet receiving the dai being bought\n    /// @param fyDaiIn Amount of fyDai being sold that will be taken from the user's wallet\n    /// @return Amount of dai that will be deposited on `to` wallet\n    function sellFYDai(address from, address to, uint128 fyDaiIn)\n        external override\n        onlyHolderOrDelegate(from, \"Pool: Only Holder Or Delegate\")\n        returns(uint128)\n    {\n        uint128 daiOut = sellFYDaiPreview(fyDaiIn);\n\n        fyDai.transferFrom(from, address(this), fyDaiIn);\n        dai.transfer(to, daiOut);\n        emit Trade(maturity, from, to, toInt256(daiOut), -toInt256(fyDaiIn));\n\n        return daiOut;\n    }\n\n    /// @dev Returns how much dai would be obtained by selling `fyDaiIn` fyDai.\n    /// @param fyDaiIn Amount of fyDai hypothetically sold.\n    /// @return Amount of Dai hypothetically bought.\n    function sellFYDaiPreview(uint128 fyDaiIn)\n        public view override\n        beforeMaturity\n        returns(uint128)\n    {\n        return YieldMath.daiOutForFYDaiIn(\n            getDaiReserves(),\n            getFYDaiReserves(),\n            fyDaiIn,\n            toUint128(maturity - now), // This can't be called after maturity\n            k,\n            g2\n        );\n    }\n\n    /// @dev Buy fyDai for dai\n    /// The trader needs to have called `dai.approve`\n    /// @param from Wallet providing the dai being sold. Must have approved the operator with `pool.addDelegate(operator)`.\n    /// @param to Wallet receiving the fyDai being bought\n    /// @param fyDaiOut Amount of fyDai being bought that will be deposited in `to` wallet\n    /// @return Amount of dai that will be taken from `from` wallet\n    function buyFYDai(address from, address to, uint128 fyDaiOut)\n        external override\n        onlyHolderOrDelegate(from, \"Pool: Only Holder Or Delegate\")\n        returns(uint128)\n    {\n        uint128 daiIn = buyFYDaiPreview(fyDaiOut);\n\n        dai.transferFrom(from, address(this), daiIn);\n        fyDai.transfer(to, fyDaiOut);\n        emit Trade(maturity, from, to, -toInt256(daiIn), toInt256(fyDaiOut));\n\n        return daiIn;\n    }\n\n\n    /// @dev Returns how much dai would be required to buy `fyDaiOut` fyDai.\n    /// @param fyDaiOut Amount of fyDai hypothetically desired.\n    /// @return Amount of Dai hypothetically required.\n    function buyFYDaiPreview(uint128 fyDaiOut)\n        public view override\n        beforeMaturity\n        returns(uint128)\n    {\n        uint128 daiReserves = getDaiReserves();\n        uint128 fyDaiReserves = getFYDaiReserves();\n\n        uint128 daiIn = YieldMath.daiInForFYDaiOut(\n            daiReserves,\n            fyDaiReserves,\n            fyDaiOut,\n            toUint128(maturity - now), // This can't be called after maturity\n            k,\n            g1\n        );\n\n        require(\n            sub(fyDaiReserves, fyDaiOut) >= add(daiReserves, daiIn),\n            \"Pool: fyDai reserves too low\"\n        );\n\n        return daiIn;\n    }\n\n    /// @dev Returns the \"virtual\" fyDai reserves\n    function getFYDaiReserves()\n        public view override\n        returns(uint128)\n    {\n        return toUint128(fyDai.balanceOf(address(this)).add(totalSupply()));\n    }\n\n    /// @dev Returns the Dai reserves\n    function getDaiReserves()\n        public view override\n        returns(uint128)\n    {\n        return toUint128(dai.balanceOf(address(this)));\n    }\n}\n",
  "sourcePath": "/Users/brucedonovan/dev/yield/yDai/contracts/pool/Pool.sol",
  "compiler": {
    "name": "solc",
    "version": "0.6.10+commit.00c0fcaf.Emscripten.clang"
  },
  "schemaVersion": "3.2.3",
  "updatedAt": "2020-11-20T12:19:16.930Z",
  "devdoc": {
    "details": "The Pool contract exchanges Dai for fyDai at a price defined by a specific formula.",
    "methods": {
      "addDelegate(address)": {
        "details": "Enable a delegate to act on the behalf of caller"
      },
      "addDelegateBySignature(address,address,uint256,uint8,bytes32,bytes32)": {
        "details": "Add a delegate through an encoded signature"
      },
      "allowance(address,address)": {
        "details": "See {IERC20-allowance}."
      },
      "approve(address,uint256)": {
        "details": "See {IERC20-approve}. Requirements: - `spender` cannot be the zero address."
      },
      "balanceOf(address)": {
        "details": "See {IERC20-balanceOf}."
      },
      "burn(address,address,uint256)": {
        "details": "Burn liquidity tokens in exchange for dai and fyDai. The liquidity provider needs to have called `pool.approve`.",
        "params": {
          "from": "Wallet providing the liquidity tokens. Must have approved the operator with `pool.addDelegate(operator)`.",
          "to": "Wallet receiving the dai and fyDai.",
          "tokensBurned": "Amount of liquidity tokens being burned."
        },
        "returns": {
          "_0": "The amount of reserve tokens returned (daiTokens, fyDaiTokens)."
        }
      },
      "buyDai(address,address,uint128)": {
        "details": "Buy Dai for fyDai The trader needs to have called `fyDai.approve`",
        "params": {
          "daiOut": "Amount of dai being bought that will be deposited in `to` wallet",
          "from": "Wallet providing the fyDai being sold. Must have approved the operator with `pool.addDelegate(operator)`.",
          "to": "Wallet receiving the dai being bought"
        },
        "returns": {
          "_0": "Amount of fyDai that will be taken from `from` wallet"
        }
      },
      "buyDaiPreview(uint128)": {
        "details": "Returns how much fyDai would be required to buy `daiOut` dai.",
        "params": {
          "daiOut": "Amount of dai hypothetically desired."
        },
        "returns": {
          "_0": "Amount of fyDai hypothetically required."
        }
      },
      "buyFYDai(address,address,uint128)": {
        "details": "Buy fyDai for dai The trader needs to have called `dai.approve`",
        "params": {
          "from": "Wallet providing the dai being sold. Must have approved the operator with `pool.addDelegate(operator)`.",
          "fyDaiOut": "Amount of fyDai being bought that will be deposited in `to` wallet",
          "to": "Wallet receiving the fyDai being bought"
        },
        "returns": {
          "_0": "Amount of dai that will be taken from `from` wallet"
        }
      },
      "buyFYDaiPreview(uint128)": {
        "details": "Returns how much dai would be required to buy `fyDaiOut` fyDai.",
        "params": {
          "fyDaiOut": "Amount of fyDai hypothetically desired."
        },
        "returns": {
          "_0": "Amount of Dai hypothetically required."
        }
      },
      "decimals()": {
        "details": "Returns the number of decimals used to get its user representation. For example, if `decimals` equals `2`, a balance of `505` tokens should be displayed to a user as `5,05` (`505 / 10 ** 2`). Tokens usually opt for a value of 18, imitating the relationship between Ether and Wei. This is the value {ERC20} uses, unless {_setupDecimals} is called. NOTE: This information is only used for _display_ purposes: it in no way affects any of the arithmetic of the contract, including {IERC20-balanceOf} and {IERC20-transfer}."
      },
      "decreaseAllowance(address,uint256)": {
        "details": "Atomically decreases the allowance granted to `spender` by the caller. This is an alternative to {approve} that can be used as a mitigation for problems described in {IERC20-approve}. Emits an {Approval} event indicating the updated allowance. Requirements: - `spender` cannot be the zero address. - `spender` must have allowance for the caller of at least `subtractedValue`."
      },
      "getDaiReserves()": {
        "details": "Returns the Dai reserves"
      },
      "getFYDaiReserves()": {
        "details": "Returns the \"virtual\" fyDai reserves"
      },
      "increaseAllowance(address,uint256)": {
        "details": "Atomically increases the allowance granted to `spender` by the caller. This is an alternative to {approve} that can be used as a mitigation for problems described in {IERC20-approve}. Emits an {Approval} event indicating the updated allowance. Requirements: - `spender` cannot be the zero address."
      },
      "mint(address,address,uint256)": {
        "details": "Mint liquidity tokens in exchange for adding dai and fyDai The liquidity provider needs to have called `dai.approve` and `fyDai.approve`.",
        "params": {
          "daiOffered": "Amount of `dai` being invested, an appropriate amount of `fyDai` to be invested alongside will be calculated and taken by this function from the caller.",
          "from": "Wallet providing the dai and fyDai. Must have approved the operator with `pool.addDelegate(operator)`.",
          "to": "Wallet receiving the minted liquidity tokens."
        },
        "returns": {
          "_0": "The amount of liquidity tokens minted."
        }
      },
      "name()": {
        "details": "Returns the name of the token."
      },
      "permit(address,address,uint256,uint256,uint8,bytes32,bytes32)": {
        "details": "See {IERC2612-permit}. In cases where the free option is not a concern, deadline can simply be set to uint(-1), so it should be seen as an optional parameter"
      },
      "revokeDelegate(address)": {
        "details": "Stop a delegate from acting on the behalf of caller"
      },
      "sellDai(address,address,uint128)": {
        "details": "Sell Dai for fyDai The trader needs to have called `dai.approve`",
        "params": {
          "daiIn": "Amount of dai being sold that will be taken from the user's wallet",
          "from": "Wallet providing the dai being sold. Must have approved the operator with `pool.addDelegate(operator)`.",
          "to": "Wallet receiving the fyDai being bought"
        },
        "returns": {
          "_0": "Amount of fyDai that will be deposited on `to` wallet"
        }
      },
      "sellDaiPreview(uint128)": {
        "details": "Returns how much fyDai would be obtained by selling `daiIn` dai",
        "params": {
          "daiIn": "Amount of dai hypothetically sold."
        },
        "returns": {
          "_0": "Amount of fyDai hypothetically bought."
        }
      },
      "sellFYDai(address,address,uint128)": {
        "details": "Sell fyDai for Dai The trader needs to have called `fyDai.approve`",
        "params": {
          "from": "Wallet providing the fyDai being sold. Must have approved the operator with `pool.addDelegate(operator)`.",
          "fyDaiIn": "Amount of fyDai being sold that will be taken from the user's wallet",
          "to": "Wallet receiving the dai being bought"
        },
        "returns": {
          "_0": "Amount of dai that will be deposited on `to` wallet"
        }
      },
      "sellFYDaiPreview(uint128)": {
        "details": "Returns how much dai would be obtained by selling `fyDaiIn` fyDai.",
        "params": {
          "fyDaiIn": "Amount of fyDai hypothetically sold."
        },
        "returns": {
          "_0": "Amount of Dai hypothetically bought."
        }
      },
      "symbol()": {
        "details": "Returns the symbol of the token, usually a shorter version of the name."
      },
      "totalSupply()": {
        "details": "See {IERC20-totalSupply}."
      },
      "transfer(address,uint256)": {
        "details": "See {IERC20-transfer}. Requirements: - `recipient` cannot be the zero address. - the caller must have a balance of at least `amount`."
      },
      "transferFrom(address,address,uint256)": {
        "details": "See {IERC20-transferFrom}. Emits an {Approval} event indicating the updated allowance. This is not required by the EIP. See the note at the beginning of {ERC20}; Requirements: - `sender` and `recipient` cannot be the zero address. - `sender` must have a balance of at least `amount`. - the caller must have allowance for ``sender``'s tokens of at least `amount`."
      }
    }
  },
  "userdoc": {
    "methods": {}
  }
}