{
  "contractName": "PoolProxy",
  "abi": [
    {
      "inputs": [
        {
          "internalType": "address",
          "name": "controller_",
          "type": "address"
        },
        {
          "internalType": "contract IPool[]",
          "name": "_pools",
          "type": "address[]"
        }
      ],
      "stateMutability": "nonpayable",
      "type": "constructor"
    },
    {
      "inputs": [],
      "name": "CHAI",
      "outputs": [
        {
          "internalType": "bytes32",
          "name": "",
          "type": "bytes32"
        }
      ],
      "stateMutability": "view",
      "type": "function"
    },
    {
      "inputs": [],
      "name": "MTY",
      "outputs": [
        {
          "internalType": "bool",
          "name": "",
          "type": "bool"
        }
      ],
      "stateMutability": "view",
      "type": "function"
    },
    {
      "inputs": [],
      "name": "UNIT",
      "outputs": [
        {
          "internalType": "uint256",
          "name": "",
          "type": "uint256"
        }
      ],
      "stateMutability": "view",
      "type": "function"
    },
    {
      "inputs": [],
      "name": "WETH",
      "outputs": [
        {
          "internalType": "bytes32",
          "name": "",
          "type": "bytes32"
        }
      ],
      "stateMutability": "view",
      "type": "function"
    },
    {
      "inputs": [],
      "name": "YTM",
      "outputs": [
        {
          "internalType": "bool",
          "name": "",
          "type": "bool"
        }
      ],
      "stateMutability": "view",
      "type": "function"
    },
    {
      "inputs": [],
      "name": "chai",
      "outputs": [
        {
          "internalType": "contract IChai",
          "name": "",
          "type": "address"
        }
      ],
      "stateMutability": "view",
      "type": "function"
    },
    {
      "inputs": [],
      "name": "controller",
      "outputs": [
        {
          "internalType": "contract IController",
          "name": "",
          "type": "address"
        }
      ],
      "stateMutability": "view",
      "type": "function"
    },
    {
      "inputs": [],
      "name": "dai",
      "outputs": [
        {
          "internalType": "contract IDai",
          "name": "",
          "type": "address"
        }
      ],
      "stateMutability": "view",
      "type": "function"
    },
    {
      "inputs": [],
      "name": "daiJoin",
      "outputs": [
        {
          "internalType": "contract IDaiJoin",
          "name": "",
          "type": "address"
        }
      ],
      "stateMutability": "view",
      "type": "function"
    },
    {
      "inputs": [
        {
          "internalType": "uint256",
          "name": "",
          "type": "uint256"
        }
      ],
      "name": "pools",
      "outputs": [
        {
          "internalType": "contract IPool",
          "name": "",
          "type": "address"
        }
      ],
      "stateMutability": "view",
      "type": "function"
    },
    {
      "inputs": [
        {
          "internalType": "address",
          "name": "",
          "type": "address"
        }
      ],
      "name": "poolsMap",
      "outputs": [
        {
          "internalType": "bool",
          "name": "",
          "type": "bool"
        }
      ],
      "stateMutability": "view",
      "type": "function"
    },
    {
      "inputs": [],
      "name": "treasury",
      "outputs": [
        {
          "internalType": "contract ITreasury",
          "name": "",
          "type": "address"
        }
      ],
      "stateMutability": "view",
      "type": "function"
    },
    {
      "inputs": [],
      "name": "vat",
      "outputs": [
        {
          "internalType": "contract IVat",
          "name": "",
          "type": "address"
        }
      ],
      "stateMutability": "view",
      "type": "function"
    },
    {
      "inputs": [],
      "name": "weth",
      "outputs": [
        {
          "internalType": "contract IWeth",
          "name": "",
          "type": "address"
        }
      ],
      "stateMutability": "view",
      "type": "function"
    },
    {
      "inputs": [],
      "name": "wethJoin",
      "outputs": [
        {
          "internalType": "contract IGemJoin",
          "name": "",
          "type": "address"
        }
      ],
      "stateMutability": "view",
      "type": "function"
    },
    {
      "inputs": [
        {
          "internalType": "bytes",
          "name": "daiSig",
          "type": "bytes"
        },
        {
          "internalType": "bytes",
          "name": "controllerSig",
          "type": "bytes"
        }
      ],
      "name": "authorizeForAdding",
      "outputs": [],
      "stateMutability": "nonpayable",
      "type": "function"
    },
    {
      "inputs": [
        {
          "internalType": "contract IPool",
          "name": "pool",
          "type": "address"
        },
        {
          "internalType": "bytes",
          "name": "controllerSig",
          "type": "bytes"
        },
        {
          "internalType": "bytes",
          "name": "poolSig",
          "type": "bytes"
        }
      ],
      "name": "authorizeForRemoving",
      "outputs": [],
      "stateMutability": "nonpayable",
      "type": "function"
    },
    {
      "inputs": [
        {
          "internalType": "contract IPool",
          "name": "pool",
          "type": "address"
        },
        {
          "internalType": "uint256",
          "name": "daiUsed",
          "type": "uint256"
        },
        {
          "internalType": "uint256",
          "name": "maxFYDai",
          "type": "uint256"
        },
        {
          "internalType": "bytes",
          "name": "daiSig",
          "type": "bytes"
        },
        {
          "internalType": "bytes",
          "name": "controllerSig",
          "type": "bytes"
        }
      ],
      "name": "addLiquidityWithSignature",
      "outputs": [
        {
          "internalType": "uint256",
          "name": "",
          "type": "uint256"
        }
      ],
      "stateMutability": "nonpayable",
      "type": "function"
    },
    {
      "inputs": [
        {
          "internalType": "contract IPool",
          "name": "pool",
          "type": "address"
        },
        {
          "internalType": "uint256",
          "name": "poolTokens",
          "type": "uint256"
        },
        {
          "internalType": "uint256",
          "name": "minimumDaiPrice",
          "type": "uint256"
        },
        {
          "internalType": "uint256",
          "name": "minimumFYDaiPrice",
          "type": "uint256"
        },
        {
          "internalType": "bytes",
          "name": "controllerSig",
          "type": "bytes"
        },
        {
          "internalType": "bytes",
          "name": "poolSig",
          "type": "bytes"
        }
      ],
      "name": "removeLiquidityEarlyDaiPoolWithSignature",
      "outputs": [],
      "stateMutability": "nonpayable",
      "type": "function"
    },
    {
      "inputs": [
        {
          "internalType": "contract IPool",
          "name": "pool",
          "type": "address"
        },
        {
          "internalType": "uint256",
          "name": "poolTokens",
          "type": "uint256"
        },
        {
          "internalType": "uint256",
          "name": "minimumFYDaiPrice",
          "type": "uint256"
        },
        {
          "internalType": "bytes",
          "name": "controllerSig",
          "type": "bytes"
        },
        {
          "internalType": "bytes",
          "name": "poolSig",
          "type": "bytes"
        }
      ],
      "name": "removeLiquidityEarlyDaiFixedWithSignature",
      "outputs": [],
      "stateMutability": "nonpayable",
      "type": "function"
    },
    {
      "inputs": [
        {
          "internalType": "contract IPool",
          "name": "pool",
          "type": "address"
        },
        {
          "internalType": "uint256",
          "name": "poolTokens",
          "type": "uint256"
        },
        {
          "internalType": "bytes",
          "name": "controllerSig",
          "type": "bytes"
        },
        {
          "internalType": "bytes",
          "name": "poolSig",
          "type": "bytes"
        }
      ],
      "name": "removeLiquidityMatureWithSignature",
      "outputs": [],
      "stateMutability": "nonpayable",
      "type": "function"
    },
    {
      "inputs": [
        {
          "internalType": "contract IPool",
          "name": "pool",
          "type": "address"
        },
        {
          "internalType": "uint256",
          "name": "daiUsed",
          "type": "uint256"
        },
        {
          "internalType": "uint256",
          "name": "maxFYDai",
          "type": "uint256"
        }
      ],
      "name": "addLiquidity",
      "outputs": [
        {
          "internalType": "uint256",
          "name": "",
          "type": "uint256"
        }
      ],
      "stateMutability": "nonpayable",
      "type": "function"
    },
    {
      "inputs": [
        {
          "internalType": "contract IPool",
          "name": "pool",
          "type": "address"
        },
        {
          "internalType": "uint256",
          "name": "poolTokens",
          "type": "uint256"
        },
        {
          "internalType": "uint256",
          "name": "minimumDaiPrice",
          "type": "uint256"
        },
        {
          "internalType": "uint256",
          "name": "minimumFYDaiPrice",
          "type": "uint256"
        }
      ],
      "name": "removeLiquidityEarlyDaiPool",
      "outputs": [],
      "stateMutability": "nonpayable",
      "type": "function"
    },
    {
      "inputs": [
        {
          "internalType": "contract IPool",
          "name": "pool",
          "type": "address"
        },
        {
          "internalType": "uint256",
          "name": "poolTokens",
          "type": "uint256"
        },
        {
          "internalType": "uint256",
          "name": "minimumFYDaiPrice",
          "type": "uint256"
        }
      ],
      "name": "removeLiquidityEarlyDaiFixed",
      "outputs": [],
      "stateMutability": "nonpayable",
      "type": "function"
    },
    {
      "inputs": [
        {
          "internalType": "contract IPool",
          "name": "pool",
          "type": "address"
        },
        {
          "internalType": "uint256",
          "name": "poolTokens",
          "type": "uint256"
        }
      ],
      "name": "removeLiquidityMature",
      "outputs": [],
      "stateMutability": "nonpayable",
      "type": "function"
    }
  ],
  "bytecode": "0x60806040523480156200001157600080fd5b50604051620037a3380380620037a3833981810160405260408110156200003757600080fd5b8151602083018051604051929492938301929190846401000000008211156200005f57600080fd5b9083019060208201858111156200007557600080fd5b82518660208202830111640100000000821117156200009357600080fd5b82525081516020918201928201910280838360005b83811015620000c2578181015183820152602001620000a8565b50505050919091016040818152600680546001600160a01b0319166001600160a01b038a811691909117918290556361d027b360e01b84529151911695506361d027b3945060048083019450602093509091829003018186803b1580156200012957600080fd5b505afa1580156200013e573d6000803e3d6000fd5b505050506040513d60208110156200015557600080fd5b5051600780546001600160a01b0319166001600160a01b03928316179081905560408051633fc8cef360e01b815290519190921691633fc8cef3916004808301926020929190829003018186803b158015620001b057600080fd5b505afa158015620001c5573d6000803e3d6000fd5b505050506040513d6020811015620001dc57600080fd5b5051600180546001600160a01b0319166001600160a01b039283161790556007546040805163f4b9fa7560e01b81529051919092169163f4b9fa75916004808301926020929190829003018186803b1580156200023857600080fd5b505afa1580156200024d573d6000803e3d6000fd5b505050506040513d60208110156200026457600080fd5b5051600280546001600160a01b0319166001600160a01b0392831617905560075460408051635b4e822b60e11b81529051919092169163b69d0456916004808301926020929190829003018186803b158015620002c057600080fd5b505afa158015620002d5573d6000803e3d6000fd5b505050506040513d6020811015620002ec57600080fd5b5051600580546001600160a01b0319166001600160a01b0392831617905560075460408051633045916f60e21b81529051919092169163c11645bc916004808301926020929190829003018186803b1580156200034857600080fd5b505afa1580156200035d573d6000803e3d6000fd5b505050506040513d60208110156200037457600080fd5b5051600480546001600160a01b0319166001600160a01b0392831617815560075460408051632dbacef360e01b815290519190931692632dbacef39281810192602092909190829003018186803b158015620003cf57600080fd5b505afa158015620003e4573d6000803e3d6000fd5b505050506040513d6020811015620003fb57600080fd5b5051600380546001600160a01b0319166001600160a01b03928316179055600754604080516336569e7760e01b8152905191909216916336569e77916004808301926020929190829003018186803b1580156200045757600080fd5b505afa1580156200046c573d6000803e3d6000fd5b505050506040513d60208110156200048357600080fd5b5051600080546001600160a01b0319166001600160a01b039283161781556002546007546040805163095ea7b360e01b81529185166004830152600019602483015251919093169263095ea7b39260448083019360209390929083900390910190829087803b158015620004f657600080fd5b505af11580156200050b573d6000803e3d6000fd5b505050506040513d60208110156200052257600080fd5b50506005546007546040805163095ea7b360e01b81526001600160a01b03928316600482015260001960248201529051919092169163095ea7b39160448083019260209291908290030181600087803b1580156200057f57600080fd5b505af115801562000594573d6000803e3d6000fd5b505050506040513d6020811015620005ab57600080fd5b50506001546007546040805163095ea7b360e01b81526001600160a01b03928316600482015260001960248201529051919092169163095ea7b39160448083019260209291908290030181600087803b1580156200060857600080fd5b505af11580156200061d573d6000803e3d6000fd5b505050506040513d60208110156200063457600080fd5b50506002546005546040805163095ea7b360e01b81526001600160a01b03928316600482015260001960248201529051919092169163095ea7b39160448083019260209291908290030181600087803b1580156200069157600080fd5b505af1158015620006a6573d6000803e3d6000fd5b505050506040513d6020811015620006bd57600080fd5b50506000805460048054604080516328ec8bf160e21b81526001600160a01b03928316938101939093525192169263a3b22fc49260248084019382900301818387803b1580156200070d57600080fd5b505af115801562000722573d6000803e3d6000fd5b505060008054600354604080516328ec8bf160e21b81526001600160a01b039283166004820152905191909216945063a3b22fc493506024808301939282900301818387803b1580156200077557600080fd5b505af11580156200078a573d6000803e3d6000fd5b5050600254600480546040805163095ea7b360e01b81526001600160a01b03928316938101939093526000196024840152519216935063095ea7b392506044808201926020929091908290030181600087803b158015620007ea57600080fd5b505af1158015620007ff573d6000803e3d6000fd5b505050506040513d60208110156200081657600080fd5b50506001546003546040805163095ea7b360e01b81526001600160a01b03928316600482015260001960248201529051919092169163095ea7b39160448083019260209291908290030181600087803b1580156200087357600080fd5b505af115801562000888573d6000803e3d6000fd5b505050506040513d60208110156200089f57600080fd5b50506001546007546040805163095ea7b360e01b81526001600160a01b03928316600482015260001960248201529051919092169163095ea7b39160448083019260209291908290030181600087803b158015620008fc57600080fd5b505af115801562000911573d6000803e3d6000fd5b505050506040513d60208110156200092857600080fd5b50600090505b815181101562000b605760025482516001600160a01b039091169063095ea7b3908490849081106200095c57fe5b60200260200101516000196040518363ffffffff1660e01b815260040180836001600160a01b03166001600160a01b0316815260200182815260200192505050602060405180830381600087803b158015620009b757600080fd5b505af1158015620009cc573d6000803e3d6000fd5b505050506040513d6020811015620009e357600080fd5b50508151829082908110620009f457fe5b60200260200101516001600160a01b031663284f44446040518163ffffffff1660e01b815260040160206040518083038186803b15801562000a3557600080fd5b505afa15801562000a4a573d6000803e3d6000fd5b505050506040513d602081101562000a6157600080fd5b505182516001600160a01b039091169063095ea7b39084908490811062000a8457fe5b60200260200101516000196040518363ffffffff1660e01b815260040180836001600160a01b03166001600160a01b0316815260200182815260200192505050602060405180830381600087803b15801562000adf57600080fd5b505af115801562000af4573d6000803e3d6000fd5b505050506040513d602081101562000b0b57600080fd5b5050815160019060099060009085908590811062000b2557fe5b6020908102919091018101516001600160a01b03168252810191909152604001600020805460ff19169115159190911790556001016200092e565b50805162000b7690600890602084019062000b7f565b50505062000c13565b82805482825590600052602060002090810192821562000bd7579160200282015b8281111562000bd757825182546001600160a01b0319166001600160a01b0390911617825560209092019160019091019062000ba0565b5062000be592915062000be9565b5090565b62000c1091905b8082111562000be55780546001600160a01b031916815560010162000bf0565b90565b612b808062000c236000396000f3fe608060405234801561001057600080fd5b50600436106101735760003560e01c806395c1551c116100de578063b69d045611610097578063c11645bc11610071578063c11645bc14610a83578063c43a860814610a8b578063f4b9fa7514610a93578063f77c479114610a9b57610173565b8063b69d045614610a47578063b6dbf9ce14610a4f578063b8fde75014610a5757610173565b806395c1551c146106735780639c79c51c146107b85780639d8e2177146108f1578063ac4afa38146108f9578063ad5c464814610916578063ae09baa21461091e57610173565b806355776b771161013057806355776b771461046e578063572d9c4f146104b257806361d027b3146104e45780637e3d4cfa146104ec57806382b7be3c146105085780638ba1d1c91461064d57610173565b80632dbacef314610178578063319f4bb61461019c57806336569e77146102dc57806336b4f5bd146102e45780633bfea3c01461031c5780633fc8cef314610466575b600080fd5b610180610aa3565b604080516001600160a01b039092168252519081900360200190f35b6102da600480360360808110156101b257600080fd5b6001600160a01b0382351691602081013591810190606081016040820135600160201b8111156101e157600080fd5b8201836020820111156101f357600080fd5b803590602001918460018302840111600160201b8311171561021457600080fd5b91908080601f0160208091040260200160405190810160405280939291908181526020018383808284376000920191909152509295949360208101935035915050600160201b81111561026657600080fd5b82018360208201111561027857600080fd5b803590602001918460018302840111600160201b8311171561029957600080fd5b91908080601f016020809104026020016040519081016040528093929190818152602001838380828437600092019190915250929550610ab2945050505050565b005b610180610ad6565b6102da600480360360808110156102fa57600080fd5b506001600160a01b038135169060208101359060408101359060600135610ae5565b6102da600480360360c081101561033257600080fd5b6001600160a01b038235169160208101359160408201359160608101359181019060a081016080820135600160201b81111561036d57600080fd5b82018360208201111561037f57600080fd5b803590602001918460018302840111600160201b831117156103a057600080fd5b91908080601f0160208091040260200160405190810160405280939291908181526020018383808284376000920191909152509295949360208101935035915050600160201b8111156103f257600080fd5b82018360208201111561040457600080fd5b803590602001918460018302840111600160201b8311171561042557600080fd5b91908080601f016020809104026020016040519081016040528093929190818152602001838380828437600092019190915250929550610fa7945050505050565b610180610fcf565b6104a06004803603606081101561048457600080fd5b506001600160a01b038135169060208101359060400135610fde565b60408051918252519081900360200190f35b6102da600480360360608110156104c857600080fd5b506001600160a01b038135169060208101359060400135611705565b610180611bf5565b6104f4611c04565b604080519115158252519081900360200190f35b6102da600480360360a081101561051e57600080fd5b6001600160a01b038235169160208101359160408201359190810190608081016060820135600160201b81111561055457600080fd5b82018360208201111561056657600080fd5b803590602001918460018302840111600160201b8311171561058757600080fd5b91908080601f0160208091040260200160405190810160405280939291908181526020018383808284376000920191909152509295949360208101935035915050600160201b8111156105d957600080fd5b8201836020820111156105eb57600080fd5b803590602001918460018302840111600160201b8311171561060c57600080fd5b91908080601f016020809104026020016040519081016040528093929190818152602001838380828437600092019190915250929550611c09945050505050565b6104f46004803603602081101561066357600080fd5b50356001600160a01b0316611c2f565b6104a0600480360360a081101561068957600080fd5b6001600160a01b038235169160208101359160408201359190810190608081016060820135600160201b8111156106bf57600080fd5b8201836020820111156106d157600080fd5b803590602001918460018302840111600160201b831117156106f257600080fd5b91908080601f0160208091040260200160405190810160405280939291908181526020018383808284376000920191909152509295949360208101935035915050600160201b81111561074457600080fd5b82018360208201111561075657600080fd5b803590602001918460018302840111600160201b8311171561077757600080fd5b91908080601f016020809104026020016040519081016040528093929190818152602001838380828437600092019190915250929550611c44945050505050565b6102da600480360360608110156107ce57600080fd5b6001600160a01b038235169190810190604081016020820135600160201b8111156107f857600080fd5b82018360208201111561080a57600080fd5b803590602001918460018302840111600160201b8311171561082b57600080fd5b91908080601f0160208091040260200160405190810160405280939291908181526020018383808284376000920191909152509295949360208101935035915050600160201b81111561087d57600080fd5b82018360208201111561088f57600080fd5b803590602001918460018302840111600160201b831117156108b057600080fd5b91908080601f016020809104026020016040519081016040528093929190818152602001838380828437600092019190915250929550611c6e945050505050565b6104a0611dc4565b6101806004803603602081101561090f57600080fd5b5035611dd4565b6104a0611dfb565b6102da6004803603604081101561093457600080fd5b810190602081018135600160201b81111561094e57600080fd5b82018360208201111561096057600080fd5b803590602001918460018302840111600160201b8311171561098157600080fd5b91908080601f0160208091040260200160405190810160405280939291908181526020018383808284376000920191909152509295949360208101935035915050600160201b8111156109d357600080fd5b8201836020820111156109e557600080fd5b803590602001918460018302840111600160201b83111715610a0657600080fd5b91908080601f016020809104026020016040519081016040528093929190818152602001838380828437600092019190915250929550611e07945050505050565b610180611fd7565b6104a0611fe6565b6102da60048036036040811015610a6d57600080fd5b506001600160a01b038135169060200135611ff1565b610180612340565b6104f461234f565b610180612354565b610180612363565b6003546001600160a01b031681565b610abb84612372565b610ac6848383611c6e565b610ad08484611ff1565b50505050565b6000546001600160a01b031681565b610aee84612372565b6000846001600160a01b031663284f44446040518163ffffffff1660e01b815260040160206040518083038186803b158015610b2957600080fd5b505afa158015610b3d573d6000803e3d6000fd5b505050506040513d6020811015610b5357600080fd5b50516040805163204f83f960e01b815290519192506000916001600160a01b0384169163204f83f9916004808301926020929190829003018186803b158015610b9b57600080fd5b505afa158015610baf573d6000803e3d6000fd5b505050506040513d6020811015610bc557600080fd5b505160408051633dae446f60e21b815233600482015230602482015260448101889052815192935060009283926001600160a01b038b169263f6b911bc926064808301939282900301818787803b158015610c1f57600080fd5b505af1158015610c33573d6000803e3d6000fd5b505050506040513d6040811015610c4957600080fd5b508051602090910151909250905060006001600160a01b03891663b26be9223080610c73876123e2565b604080516001600160e01b031960e087901b1681526001600160a01b0394851660048201529290931660248301526001600160801b03166044820152905160648083019260209291908290030181600087803b158015610cd257600080fd5b505af1158015610ce6573d6000803e3d6000fd5b505050506040513d6020811015610cfc57600080fd5b50516001600160801b03169050610d138388612444565b811015610d515760405162461bcd60e51b8152600401808060200182810382526027815260200180612ada6027913960400191505060405180910390fd5b610d61828263ffffffff61246f16565b915060008083118015610dfc5750600654604080516324c94bb560e21b8152634348414960e01b60048201526024810188905233604482015290516000926001600160a01b0316916393252ed4916064808301926020929190829003018186803b158015610dce57600080fd5b505afa158015610de2573d6000803e3d6000fd5b505050506040513d6020811015610df857600080fd5b5051115b15610e9e576006546040805163b93dd41d60e01b8152634348414960e01b6004820152602481018890523060448201523360648201526084810186905290516001600160a01b039092169163b93dd41d9160a4808201926020929091908290030181600087803b158015610e6f57600080fd5b505af1158015610e83573d6000803e3d6000fd5b505050506040513d6020811015610e9957600080fd5b505190505b6000610eb0848363ffffffff6124c916565b90508015610f9257610ec28189612444565b604080516360561e0560e01b8152306004820181905260248201526001600160801b038416604482015290516001600160a01b038e16916360561e059160648083019260209291908290030181600087803b158015610f2057600080fd5b505af1158015610f34573d6000803e3d6000fd5b505050506040513d6020811015610f4a57600080fd5b50516001600160801b03161015610f925760405162461bcd60e51b8152600401808060200182810382526029815260200180612b226029913960400191505060405180910390fd5b610f9a61250b565b5050505050505050505050565b610fb086612372565b610fbb868383611c6e565b610fc786868686610ae5565b505050505050565b6001546001600160a01b031681565b6000610fe984612372565b6000846001600160a01b031663284f44446040518163ffffffff1660e01b815260040160206040518083038186803b15801561102457600080fd5b505afa158015611038573d6000803e3d6000fd5b505050506040513d602081101561104e57600080fd5b50516040805163ae4e7fdf60e01b815290519192506001600160a01b0383169163ae4e7fdf91600480820192602092909190829003018186803b15801561109457600080fd5b505afa1580156110a8573d6000803e3d6000fd5b505050506040513d60208110156110be57600080fd5b5051151560011415611117576040805162461bcd60e51b815260206004820181905260248201527f5969656c6450726f78793a204f6e6c79206265666f7265206d61747572697479604482015290519081900360640190fd5b600254604080516323b872dd60e01b81523360048201523060248201526044810187905290516001600160a01b03909216916323b872dd916064808201926020929091908290030181600087803b15801561117157600080fd5b505af1158015611185573d6000803e3d6000fd5b505050506040513d602081101561119b57600080fd5b50516111ee576040805162461bcd60e51b815260206004820152601b60248201527f5969656c6450726f78793a205472616e73666572204661696c65640000000000604482015290519081900360640190fd5b600254604080516370a0823160e01b81526001600160a01b038881166004830152915160009392909216916370a0823191602480820192602092909190829003018186803b15801561123f57600080fd5b505afa158015611253573d6000803e3d6000fd5b505050506040513d602081101561126957600080fd5b5051604080516370a0823160e01b81526001600160a01b0389811660048301529151929350600092918516916370a0823191602480820192602092909190829003018186803b1580156112bb57600080fd5b505afa1580156112cf573d6000803e3d6000fd5b505050506040513d60208110156112e557600080fd5b50519050600061131a6112fe838563ffffffff61246f16565b61130e898663ffffffff61292716565b9063ffffffff61298016565b9050600061132e888363ffffffff6124c916565b905086811115611385576040805162461bcd60e51b815260206004820152601d60248201527f5969656c6450726f78793a206d61784659446169206578636565646564000000604482015290519081900360640190fd5b60055460408051633b4da69f60e01b81523060048201526024810184905290516001600160a01b0390921691633b4da69f9160448082019260009290919082900301818387803b1580156113d857600080fd5b505af11580156113ec573d6000803e3d6000fd5b505060055460408051633612d9a360e11b81523060048201529051600094506001600160a01b039092169250636c25b34691602480830192602092919082900301818787803b15801561143e57600080fd5b505af1158015611452573d6000803e3d6000fd5b505050506040513d602081101561146857600080fd5b5051600654600554604080516370a0823160e01b8152306004820181905291519495506001600160a01b039384169463adb9e54e94634348414960e01b9433939116916370a0823191602480820192602092909190829003018186803b1580156114d157600080fd5b505afa1580156114e5573d6000803e3d6000fd5b505050506040513d60208110156114fb57600080fd5b5051604080516001600160e01b031960e088901b16815260048101959095526001600160a01b039384166024860152919092166044840152606483019190915251608480830192600092919082900301818387803b15801561155c57600080fd5b505af1158015611570573d6000803e3d6000fd5b50505050600660009054906101000a90046001600160a01b03166001600160a01b031663801d325f634348414960e01b886001600160a01b031663204f83f96040518163ffffffff1660e01b815260040160206040518083038186803b1580156115d957600080fd5b505afa1580156115ed573d6000803e3d6000fd5b505050506040513d602081101561160357600080fd5b5051604080516001600160e01b031960e086901b16815260048101939093526024830191909152336044830152306064830152608482018590525160a480830192600092919082900301818387803b15801561165e57600080fd5b505af1158015611672573d6000803e3d6000fd5b505060408051636361ddf360e11b81523060048201523360248201526044810187905290516001600160a01b038e16935063c6c3bbe6925060648083019260209291908290030181600087803b1580156116cb57600080fd5b505af11580156116df573d6000803e3d6000fd5b505050506040513d60208110156116f557600080fd5b50519a9950505050505050505050565b61170e83612372565b6000836001600160a01b031663284f44446040518163ffffffff1660e01b815260040160206040518083038186803b15801561174957600080fd5b505afa15801561175d573d6000803e3d6000fd5b505050506040513d602081101561177357600080fd5b50516040805163204f83f960e01b815290519192506000916001600160a01b0384169163204f83f9916004808301926020929190829003018186803b1580156117bb57600080fd5b505afa1580156117cf573d6000803e3d6000fd5b505050506040513d60208110156117e557600080fd5b505160408051633dae446f60e21b815233600482015230602482015260448101879052815192935060009283926001600160a01b038a169263f6b911bc926064808301939282900301818787803b15801561183f57600080fd5b505af1158015611853573d6000803e3d6000fd5b505050506040513d604081101561186957600080fd5b5080516020909101519092509050600081158015906119105750600654604080516324c94bb560e21b8152634348414960e01b60048201526024810187905233604482015290516000926001600160a01b0316916393252ed4916064808301926020929190829003018186803b1580156118e257600080fd5b505afa1580156118f6573d6000803e3d6000fd5b505050506040513d602081101561190c57600080fd5b5051115b156119b2576006546040805163b93dd41d60e01b8152634348414960e01b6004820152602481018790523060448201523360648201526084810185905290516001600160a01b039092169163b93dd41d9160a4808201926020929091908290030181600087803b15801561198357600080fd5b505af1158015611997573d6000803e3d6000fd5b505050506040513d60208110156119ad57600080fd5b505190505b60006119c4838363ffffffff6124c916565b905080611b0857600084118015611a635750600654604080516324c94bb560e21b8152634348414960e01b60048201526024810188905233604482015290516000926001600160a01b0316916393252ed4916064808301926020929190829003018186803b158015611a3557600080fd5b505afa158015611a49573d6000803e3d6000fd5b505050506040513d6020811015611a5f57600080fd5b5051115b15611b0357600654604080516325d3cd1760e01b8152634348414960e01b6004820152602481018890523060448201523360648201526084810187905290516001600160a01b03909216916325d3cd179160a4808201926020929091908290030181600087803b158015611ad657600080fd5b505af1158015611aea573d6000803e3d6000fd5b505050506040513d6020811015611b0057600080fd5b50505b611be2565b611b128188612444565b604080516360561e0560e01b8152306004820181905260248201526001600160801b038416604482015290516001600160a01b038c16916360561e059160648083019260209291908290030181600087803b158015611b7057600080fd5b505af1158015611b84573d6000803e3d6000fd5b505050506040513d6020811015611b9a57600080fd5b50516001600160801b03161015611be25760405162461bcd60e51b8152600401808060200182810382526029815260200180612b226029913960400191505060405180910390fd5b611bea61250b565b505050505050505050565b6007546001600160a01b031681565b600181565b611c1285612372565b611c1d858383611c6e565b611c28858585611705565b5050505050565b60096020526000908152604090205460ff1681565b6000611c4f86612372565b611c598383611e07565b611c64868686610fde565b9695505050505050565b611c7783612372565b60008060008085511115611d1f57611c8e856129c2565b60065460408051631a28ff0560e01b8152336004820152306024820152600019604482015260ff841660648201526084810186905260a4810185905290519497509295509093506001600160a01b031691631a28ff059160c48082019260009290919082900301818387803b158015611d0657600080fd5b505af1158015611d1a573d6000803e3d6000fd5b505050505b835115610fc757611d2f846129c2565b60408051631a28ff0560e01b8152336004820152306024820152600019604482015260ff831660648201526084810185905260a48101849052905193965091945092506001600160a01b03881691631a28ff059160c48082019260009290919082900301818387803b158015611da457600080fd5b505af1158015611db8573d6000803e3d6000fd5b50505050505050505050565b6b033b2e3c9fd0803ce800000081565b60088181548110611de157fe5b6000918252602090912001546001600160a01b0316905081565b644554482d4160d81b81565b60008060008085511115611f3b57611e1e856129c2565b60025460408051623f675f60e91b8152336004820181905291519598509396509194506001600160a01b031692638fcbaf0c9230918591637ecebe00916024808301926020929190829003018186803b158015611e7a57600080fd5b505afa158015611e8e573d6000803e3d6000fd5b505050506040513d6020811015611ea457600080fd5b5051604080516001600160e01b031960e087901b1681526001600160a01b039485166004820152929093166024830152604482015260001960648201526001608482015260ff851660a482015260c4810187905260e48101869052905161010480830192600092919082900301818387803b158015611f2257600080fd5b505af1158015611f36573d6000803e3d6000fd5b505050505b835115611c2857611f4b846129c2565b60065460408051631a28ff0560e01b8152336004820152306024820152600019604482015260ff841660648201526084810186905260a4810185905290519497509295509093506001600160a01b031691631a28ff059160c48082019260009290919082900301818387803b158015611fc357600080fd5b505af1158015611bea573d6000803e3d6000fd5b6005546001600160a01b031681565b634348414960e01b81565b611ffa82612372565b6000826001600160a01b031663284f44446040518163ffffffff1660e01b815260040160206040518083038186803b15801561203557600080fd5b505afa158015612049573d6000803e3d6000fd5b505050506040513d602081101561205f57600080fd5b50516040805163204f83f960e01b815290519192506000916001600160a01b0384169163204f83f9916004808301926020929190829003018186803b1580156120a757600080fd5b505afa1580156120bb573d6000803e3d6000fd5b505050506040513d60208110156120d157600080fd5b505160408051633dae446f60e21b815233600482015230602482015260448101869052815192935060009283926001600160a01b0389169263f6b911bc926064808301939282900301818787803b15801561212b57600080fd5b505af115801561213f573d6000803e3d6000fd5b505050506040513d604081101561215557600080fd5b508051602090910151909250905080156122005760408051630e6dfcd560e01b8152306004820181905260248201526044810183905290516121fd916001600160a01b03871691630e6dfcd5916064808201926020929091908290030181600087803b1580156121c457600080fd5b505af11580156121d8573d6000803e3d6000fd5b505050506040513d60208110156121ee57600080fd5b5051839063ffffffff61246f16565b91505b6000821180156122985750600654604080516324c94bb560e21b8152634348414960e01b60048201526024810186905233604482015290516000926001600160a01b0316916393252ed4916064808301926020929190829003018186803b15801561226a57600080fd5b505afa15801561227e573d6000803e3d6000fd5b505050506040513d602081101561229457600080fd5b5051115b1561233857600654604080516325d3cd1760e01b8152634348414960e01b6004820152602481018690523060448201523360648201526084810185905290516001600160a01b03909216916325d3cd179160a4808201926020929091908290030181600087803b15801561230b57600080fd5b505af115801561231f573d6000803e3d6000fd5b505050506040513d602081101561233557600080fd5b50505b610fc761250b565b6004546001600160a01b031681565b600081565b6002546001600160a01b031681565b6006546001600160a01b031681565b6001600160a01b03811660009081526009602052604090205460ff166123df576040805162461bcd60e51b815260206004820152601860248201527f5969656c6450726f78793a20556e6b6e6f776e20706f6f6c0000000000000000604482015290519081900360640190fd5b50565b60006001600160801b03821115612440576040805162461bcd60e51b815260206004820152601960248201527f5969656c6450726f78793a2043617374206f766572666c6f7700000000000000604482015290519081900360640190fd5b5090565b60006124666b033b2e3c9fd0803ce800000061130e858563ffffffff61292716565b90505b92915050565b600082820183811015612466576040805162461bcd60e51b815260206004820152601b60248201527f536166654d6174683a206164646974696f6e206f766572666c6f770000000000604482015290519081900360640190fd5b600061246683836040518060400160405280601e81526020017f536166654d6174683a207375627472616374696f6e206f766572666c6f7700008152506129dd565b6006546040805163dd62f42360e01b8152634348414960e01b600482015233602482015290516000926001600160a01b03169163dd62f423916044808301926020929190829003018186803b15801561256357600080fd5b505afa158015612577573d6000803e3d6000fd5b505050506040513d602081101561258d57600080fd5b5051600654604080516301aa6cff60e51b8152634348414960e01b600482015233602482015290519293506000926001600160a01b039092169163354d9fe091604480820192602092909190829003018186803b1580156125ed57600080fd5b505afa158015612601573d6000803e3d6000fd5b505050506040513d602081101561261757600080fd5b5051905080821015612670576040805162461bcd60e51b815260206004820152601f60248201527f5969656c6450726f78793a20556e646572636f6c6c61746572616c697a656400604482015290519081900360640190fd5b6006546040805163470660bb60e11b8152634348414960e01b6004820152336024820152306044820152838503606482015290516001600160a01b0390921691638e0cc1769160848082019260009290919082900301818387803b1580156126d757600080fd5b505af11580156126eb573d6000803e3d6000fd5b5050600554604080516370a0823160e01b8152306004820181905291516001600160a01b03909316945063ef693bed9350909184916370a08231916024808301926020929190829003018186803b15801561274557600080fd5b505afa158015612759573d6000803e3d6000fd5b505050506040513d602081101561276f57600080fd5b5051604080516001600160e01b031960e086901b1681526001600160a01b039093166004840152602483019190915251604480830192600092919082900301818387803b1580156127bf57600080fd5b505af11580156127d3573d6000803e3d6000fd5b5050600254604080516370a0823160e01b815230600482015290516001600160a01b03909216935063a9059cbb9250339184916370a08231916024808301926020929190829003018186803b15801561282b57600080fd5b505afa15801561283f573d6000803e3d6000fd5b505050506040513d602081101561285557600080fd5b5051604080516001600160e01b031960e086901b1681526001600160a01b03909316600484015260248301919091525160448083019260209291908290030181600087803b1580156128a657600080fd5b505af11580156128ba573d6000803e3d6000fd5b505050506040513d60208110156128d057600080fd5b5051612923576040805162461bcd60e51b815260206004820152601f60248201527f5969656c6450726f78793a20446169205472616e73666572204661696c656400604482015290519081900360640190fd5b5050565b60008261293657506000612469565b8282028284828161294357fe5b04146124665760405162461bcd60e51b8152600401808060200182810382526021815260200180612b016021913960400191505060405180910390fd5b600061246683836040518060400160405280601a81526020017f536166654d6174683a206469766973696f6e206279207a65726f000000000000815250612a74565b60208101516040820151606090920151909260009190911a90565b60008184841115612a6c5760405162461bcd60e51b81526004018080602001828103825283818151815260200191508051906020019080838360005b83811015612a31578181015183820152602001612a19565b50505050905090810190601f168015612a5e5780820380516001836020036101000a031916815260200191505b509250505060405180910390fd5b505050900390565b60008183612ac35760405162461bcd60e51b8152602060048201818152835160248401528351909283926044909101919085019080838360008315612a31578181015183820152602001612a19565b506000838581612acf57fe5b049594505050505056fe5969656c6450726f78793a206d696e696d756d4461695072696365206e6f742072656163686564536166654d6174683a206d756c7469706c69636174696f6e206f766572666c6f775969656c6450726f78793a206d696e696d756d46594461695072696365206e6f742072656163686564a264697066735822122069740b329c9790b0c6b3cc657c3818e2942939e6cdb7263434949715cee4842864736f6c634300060a0033",
  "immutableReferences": {},
  "source": "// SPDX-License-Identifier: GPL-3.0-or-later\npragma solidity ^0.6.10;\n\nimport \"../interfaces/IWeth.sol\";\nimport \"../interfaces/IDai.sol\";\nimport \"../interfaces/IGemJoin.sol\";\nimport \"../interfaces/IDaiJoin.sol\";\nimport \"../interfaces/IVat.sol\";\nimport \"../interfaces/IPot.sol\";\nimport \"../interfaces/IPool.sol\";\nimport \"../interfaces/IFYDai.sol\";\nimport \"../interfaces/IChai.sol\";\nimport \"../interfaces/IDelegable.sol\";\nimport \"../interfaces/ITreasury.sol\";\nimport \"../interfaces/IController.sol\";\nimport \"../helpers/DecimalMath.sol\";\n\n\nlibrary SafeCast {\n    /// @dev Safe casting from uint256 to uint128\n    function toUint128(uint256 x) internal pure returns(uint128) {\n        require(\n            x <= type(uint128).max,\n            \"YieldProxy: Cast overflow\"\n        );\n        return uint128(x);\n    }\n\n    /// @dev Safe casting from uint256 to int256\n    function toInt256(uint256 x) internal pure returns(int256) {\n        require(\n            x <= uint256(type(int256).max),\n            \"YieldProxy: Cast overflow\"\n        );\n        return int256(x);\n    }\n}\n\ncontract PoolProxy is DecimalMath {\n    using SafeCast for uint256;\n\n    IVat public vat;\n    IWeth public weth;\n    IDai public dai;\n    IGemJoin public wethJoin;\n    IDaiJoin public daiJoin;\n    IChai public chai;\n    IController public controller;\n    ITreasury public treasury;\n\n    IPool[] public pools;\n    mapping (address => bool) public poolsMap;\n\n    bytes32 public constant CHAI = \"CHAI\";\n    bytes32 public constant WETH = \"ETH-A\";\n    bool constant public MTY = true;\n    bool constant public YTM = false;\n\n\n    constructor(address controller_, IPool[] memory _pools) public {\n        controller = IController(controller_);\n        treasury = controller.treasury();\n\n        weth = treasury.weth();\n        dai = IDai(address(treasury.dai()));\n        chai = treasury.chai();\n        daiJoin = treasury.daiJoin();\n        wethJoin = treasury.wethJoin();\n        vat = treasury.vat();\n\n        // for repaying debt\n        dai.approve(address(treasury), uint(-1));\n\n        // for posting to the controller\n        chai.approve(address(treasury), uint(-1));\n        weth.approve(address(treasury), uint(-1));\n\n        // for converting DAI to CHAI\n        dai.approve(address(chai), uint(-1));\n\n        vat.hope(address(daiJoin));\n        vat.hope(address(wethJoin));\n\n        dai.approve(address(daiJoin), uint(-1));\n        weth.approve(address(wethJoin), uint(-1));\n        weth.approve(address(treasury), uint(-1));\n\n        // allow all the pools to pull FYDai/dai from us for LPing\n        for (uint i = 0 ; i < _pools.length; i++) {\n            dai.approve(address(_pools[i]), uint(-1));\n            _pools[i].fyDai().approve(address(_pools[i]), uint(-1));\n            poolsMap[address(_pools[i])]= true;\n        }\n\n        pools = _pools;\n    }\n\n    /// @dev Unpack r, s and v from a `bytes` signature\n    function unpack(bytes memory signature) private pure returns (bytes32 r, bytes32 s, uint8 v) {\n        assembly {\n            r := mload(add(signature, 0x20))\n            s := mload(add(signature, 0x40))\n            v := byte(0, mload(add(signature, 0x60)))\n        }\n    }\n\n    function authorizeForAdding(bytes memory daiSig, bytes memory controllerSig) public {\n        bytes32 r;\n        bytes32 s;\n        uint8 v;\n\n        if (daiSig.length > 0) {\n            (r, s, v) = unpack(daiSig);\n            dai.permit(msg.sender, address(this), dai.nonces(msg.sender), uint(-1), true, v, r, s);\n        }\n\n        if (controllerSig.length > 0) {\n            (r, s, v) = unpack(controllerSig);\n            controller.addDelegateBySignature(msg.sender, address(this), uint(-1), v, r, s);\n        }\n    }\n\n    function authorizeForRemoving(IPool pool, bytes memory controllerSig, bytes memory poolSig) public {\n        onlyKnownPool(pool);\n\n        bytes32 r;\n        bytes32 s;\n        uint8 v;\n\n        if (controllerSig.length > 0) {\n            (r, s, v) = unpack(controllerSig);\n            controller.addDelegateBySignature(msg.sender, address(this), uint(-1), v, r, s);\n        }\n\n        if (poolSig.length > 0) {\n            (r, s, v) = unpack(poolSig);\n            pool.addDelegateBySignature(msg.sender, address(this), uint(-1), v, r, s);\n        }\n    }\n\n    /// @dev Mints liquidity with provided Dai by borrowing fyDai with some of the Dai.\n    /// Caller must have approved the proxy using`controller.addDelegate(yieldProxy)`\n    /// Caller must have approved the dai transfer with `dai.approve(daiUsed)`\n    /// @param daiUsed amount of Dai to use to mint liquidity. \n    /// @param maxFYDai maximum amount of fyDai to be borrowed to mint liquidity.\n    /// @param daiSig packed signature for permit of dai transfers to this proxy.\n    /// @param controllerSig packed signature for delegation of this proxy in the controller.\n    /// @return The amount of liquidity tokens minted.  \n    function addLiquidityWithSignature(\n        IPool pool,\n        uint256 daiUsed,\n        uint256 maxFYDai,\n        bytes memory daiSig,\n        bytes memory controllerSig\n    ) external returns (uint256) {\n        onlyKnownPool(pool);\n        authorizeForAdding(daiSig, controllerSig);\n        return addLiquidity(pool, daiUsed, maxFYDai);\n    }\n\n    /// @dev Burns tokens and sells Dai proceedings for fyDai. Pays as much debt as possible, then sells back any remaining fyDai for Dai. Then returns all Dai, and all unlocked Chai.\n    /// Caller must have approved the proxy using`controller.addDelegate(yieldProxy)` and `pool.addDelegate(yieldProxy)`\n    /// Caller must have approved the liquidity burn with `pool.approve(poolTokens)` <-- It actually doesn't.\n    /// @param poolTokens amount of pool tokens to burn. \n    /// @param minimumDaiPrice minimum fyDai/Dai price to be accepted when internally selling Dai.\n    /// @param minimumFYDaiPrice minimum Dai/fyDai price to be accepted when internally selling fyDai.\n    /// @param controllerSig packed signature for delegation of this proxy in the controller.\n    /// @param poolSig packed signature for delegation of this proxy in a pool.\n    function removeLiquidityEarlyDaiPoolWithSignature(\n        IPool pool,\n        uint256 poolTokens,\n        uint256 minimumDaiPrice,\n        uint256 minimumFYDaiPrice,\n        bytes memory controllerSig,\n        bytes memory poolSig\n    ) public {\n        onlyKnownPool(pool);\n        authorizeForRemoving(pool, controllerSig, poolSig);\n        removeLiquidityEarlyDaiPool(pool, poolTokens, minimumDaiPrice, minimumFYDaiPrice);\n    }\n\n    /// @dev Burns tokens and repays debt with proceedings. Sells any excess fyDai for Dai, then returns all Dai, and all unlocked Chai.\n    /// @param poolTokens amount of pool tokens to burn. \n    /// @param minimumFYDaiPrice minimum Dai/fyDai price to be accepted when internally selling fyDai.\n    /// @param controllerSig packed signature for delegation of this proxy in the controller.\n    /// @param poolSig packed signature for delegation of this proxy in a pool.\n    function removeLiquidityEarlyDaiFixedWithSignature(\n        IPool pool,\n        uint256 poolTokens,\n        uint256 minimumFYDaiPrice,\n        bytes memory controllerSig,\n        bytes memory poolSig\n    ) public {\n        onlyKnownPool(pool);\n        authorizeForRemoving(pool, controllerSig, poolSig);\n        removeLiquidityEarlyDaiFixed(pool, poolTokens, minimumFYDaiPrice);\n    }\n\n    /// @dev Burns tokens and repays fyDai debt after Maturity.\n    /// @param poolTokens amount of pool tokens to burn.\n    /// @param controllerSig packed signature for delegation of this proxy in the controller.\n    /// @param poolSig packed signature for delegation of this proxy in a pool.\n    function removeLiquidityMatureWithSignature(\n        IPool pool,\n        uint256 poolTokens,\n        bytes memory controllerSig,\n        bytes memory poolSig\n    ) external {\n        onlyKnownPool(pool);\n        authorizeForRemoving(pool, controllerSig, poolSig);\n        removeLiquidityMature(pool, poolTokens);\n    }\n\n    /// @dev Mints liquidity with provided Dai by borrowing fyDai with some of the Dai.\n    /// Caller must have approved the proxy using`controller.addDelegate(yieldProxy)`\n    /// Caller must have approved the dai transfer with `dai.approve(daiUsed)`\n    /// @param daiUsed amount of Dai to use to mint liquidity. \n    /// @param maxFYDai maximum amount of fyDai to be borrowed to mint liquidity. \n    /// @return The amount of liquidity tokens minted.  \n    function addLiquidity(IPool pool, uint256 daiUsed, uint256 maxFYDai) public returns (uint256) {\n        onlyKnownPool(pool);\n        IFYDai fyDai = pool.fyDai();\n        require(fyDai.isMature() != true, \"YieldProxy: Only before maturity\");\n        require(dai.transferFrom(msg.sender, address(this), daiUsed), \"YieldProxy: Transfer Failed\");\n\n        // calculate needed fyDai\n        uint256 daiReserves = dai.balanceOf(address(pool));\n        uint256 fyDaiReserves = fyDai.balanceOf(address(pool));\n        uint256 daiToAdd = daiUsed.mul(daiReserves).div(fyDaiReserves.add(daiReserves));\n        uint256 daiToConvert = daiUsed.sub(daiToAdd);\n        require(\n            daiToConvert <= maxFYDai,\n            \"YieldProxy: maxFYDai exceeded\"\n        ); // 1 Dai == 1 fyDai\n\n        // convert dai to chai and borrow needed fyDai\n        chai.join(address(this), daiToConvert);\n        // look at the balance of chai in dai to avoid rounding issues\n        uint256 toBorrow = chai.dai(address(this));\n        controller.post(CHAI, address(this), msg.sender, chai.balanceOf(address(this)));\n        controller.borrow(CHAI, fyDai.maturity(), msg.sender, address(this), toBorrow);\n        \n        // mint liquidity tokens\n        return pool.mint(address(this), msg.sender, daiToAdd);\n    }\n\n    /// @dev Burns tokens and sells Dai proceedings for fyDai. Pays as much debt as possible, then sells back any remaining fyDai for Dai. Then returns all Dai, and if there is no debt in the Controller, all posted Chai.\n    /// Caller must have approved the proxy using`controller.addDelegate(yieldProxy)` and `pool.addDelegate(yieldProxy)`\n    /// Caller must have approved the liquidity burn with `pool.approve(poolTokens)`\n    /// @param poolTokens amount of pool tokens to burn. \n    /// @param minimumDaiPrice minimum fyDai/Dai price to be accepted when internally selling Dai.\n    /// @param minimumFYDaiPrice minimum Dai/fyDai price to be accepted when internally selling fyDai.\n    function removeLiquidityEarlyDaiPool(IPool pool, uint256 poolTokens, uint256 minimumDaiPrice, uint256 minimumFYDaiPrice) public {\n        onlyKnownPool(pool);\n\n        IFYDai fyDai = pool.fyDai();\n        uint256 maturity = fyDai.maturity();\n        (uint256 daiObtained, uint256 fyDaiObtained) = pool.burn(msg.sender, address(this), poolTokens);\n\n        // Exchange Dai for fyDai to pay as much debt as possible\n        uint256 fyDaiBought = pool.sellDai(address(this), address(this), daiObtained.toUint128());\n        require(\n            fyDaiBought >= muld(daiObtained, minimumDaiPrice),\n            \"YieldProxy: minimumDaiPrice not reached\"\n        );\n        fyDaiObtained = fyDaiObtained.add(fyDaiBought);\n        \n        uint256 fyDaiUsed;\n        if (fyDaiObtained > 0 && controller.debtFYDai(CHAI, maturity, msg.sender) > 0) {\n            fyDaiUsed = controller.repayFYDai(CHAI, maturity, address(this), msg.sender, fyDaiObtained);\n        }\n        uint256 fyDaiRemaining = fyDaiObtained.sub(fyDaiUsed);\n\n        if (fyDaiRemaining > 0) {// There is fyDai left, so exchange it for Dai to withdraw only Dai and Chai\n            require(\n                pool.sellFYDai(address(this), address(this), uint128(fyDaiRemaining)) >= muld(fyDaiRemaining, minimumFYDaiPrice),\n                \"YieldProxy: minimumFYDaiPrice not reached\"\n            );\n        }\n        withdrawAssets();\n    }\n\n    /// @dev Burns tokens and repays debt with proceedings. Sells any excess fyDai for Dai, then returns all Dai, and if there is no debt in the Controller, all posted Chai.\n    /// Caller must have approved the proxy using`controller.addDelegate(yieldProxy)` and `pool.addDelegate(yieldProxy)`\n    /// Caller must have approved the liquidity burn with `pool.approve(poolTokens)`\n    /// @param poolTokens amount of pool tokens to burn. \n    /// @param minimumFYDaiPrice minimum Dai/fyDai price to be accepted when internally selling fyDai.\n    function removeLiquidityEarlyDaiFixed(IPool pool, uint256 poolTokens, uint256 minimumFYDaiPrice) public {\n        onlyKnownPool(pool);\n        IFYDai fyDai = pool.fyDai();\n        uint256 maturity = fyDai.maturity();\n        (uint256 daiObtained, uint256 fyDaiObtained) = pool.burn(msg.sender, address(this), poolTokens);\n\n        uint256 fyDaiUsed;\n        if (fyDaiObtained > 0 && controller.debtFYDai(CHAI, maturity, msg.sender) > 0) {\n            fyDaiUsed = controller.repayFYDai(CHAI, maturity, address(this), msg.sender, fyDaiObtained);\n        }\n\n        uint256 fyDaiRemaining = fyDaiObtained.sub(fyDaiUsed);\n        if (fyDaiRemaining == 0) { // We used all the fyDai, so probably there is debt left, so pay with Dai\n            if (daiObtained > 0 && controller.debtFYDai(CHAI, maturity, msg.sender) > 0) {\n                controller.repayDai(CHAI, maturity, address(this), msg.sender, daiObtained);\n            }\n        } else { // Exchange remaining fyDai for Dai to withdraw only Dai and Chai\n            require(\n                pool.sellFYDai(address(this), address(this), uint128(fyDaiRemaining)) >= muld(fyDaiRemaining, minimumFYDaiPrice),\n                \"YieldProxy: minimumFYDaiPrice not reached\"\n            );\n        }\n        withdrawAssets();\n    }\n\n    /// @dev Burns tokens and repays fyDai debt after Maturity. \n    /// Caller must have approved the proxy using`controller.addDelegate(yieldProxy)`\n    /// Caller must have approved the liquidity burn with `pool.approve(poolTokens)`\n    /// @param poolTokens amount of pool tokens to burn.\n    function removeLiquidityMature(IPool pool, uint256 poolTokens) public {\n        onlyKnownPool(pool);\n        IFYDai fyDai = pool.fyDai();\n        uint256 maturity = fyDai.maturity();\n        (uint256 daiObtained, uint256 fyDaiObtained) = pool.burn(msg.sender, address(this), poolTokens);\n        if (fyDaiObtained > 0) {\n            daiObtained = daiObtained.add(fyDai.redeem(address(this), address(this), fyDaiObtained));\n        }\n        \n        // Repay debt\n        if (daiObtained > 0 && controller.debtFYDai(CHAI, maturity, msg.sender) > 0) {\n            controller.repayDai(CHAI, maturity, address(this), msg.sender, daiObtained);\n        }\n        withdrawAssets();\n    }\n\n    /// @dev Return to caller all posted chai if there is no debt, converted to dai, plus any dai remaining in the contract.\n    function withdrawAssets() internal {\n        uint256 posted = controller.posted(CHAI, msg.sender);\n        uint256 locked = controller.locked(CHAI, msg.sender);\n        require (posted >= locked, \"YieldProxy: Undercollateralized\");\n        controller.withdraw(CHAI, msg.sender, address(this), posted - locked);\n        chai.exit(address(this), chai.balanceOf(address(this)));\n        require(dai.transfer(msg.sender, dai.balanceOf(address(this))), \"YieldProxy: Dai Transfer Failed\");\n    }\n\n    function onlyKnownPool(IPool pool) private view {\n        require(poolsMap[address(pool)], \"YieldProxy: Unknown pool\");\n    }\n}\n",
  "sourcePath": "/Users/brucedonovan/dev/yield/yDai/contracts/peripheral/PoolProxy.sol",
  "compiler": {
    "name": "solc",
    "version": "0.6.10+commit.00c0fcaf.Emscripten.clang"
  },
  "schemaVersion": "3.2.3",
  "updatedAt": "2020-10-27T15:20:48.060Z",
  "devdoc": {
    "methods": {
      "addLiquidity(address,uint256,uint256)": {
        "details": "Mints liquidity with provided Dai by borrowing fyDai with some of the Dai. Caller must have approved the proxy using`controller.addDelegate(yieldProxy)` Caller must have approved the dai transfer with `dai.approve(daiUsed)`",
        "params": {
          "daiUsed": "amount of Dai to use to mint liquidity. ",
          "maxFYDai": "maximum amount of fyDai to be borrowed to mint liquidity. "
        },
        "returns": {
          "_0": "The amount of liquidity tokens minted.  "
        }
      },
      "addLiquidityWithSignature(address,uint256,uint256,bytes,bytes)": {
        "details": "Mints liquidity with provided Dai by borrowing fyDai with some of the Dai. Caller must have approved the proxy using`controller.addDelegate(yieldProxy)` Caller must have approved the dai transfer with `dai.approve(daiUsed)`",
        "params": {
          "controllerSig": "packed signature for delegation of this proxy in the controller.",
          "daiSig": "packed signature for permit of dai transfers to this proxy.",
          "daiUsed": "amount of Dai to use to mint liquidity. ",
          "maxFYDai": "maximum amount of fyDai to be borrowed to mint liquidity."
        },
        "returns": {
          "_0": "The amount of liquidity tokens minted.  "
        }
      },
      "removeLiquidityEarlyDaiFixed(address,uint256,uint256)": {
        "details": "Burns tokens and repays debt with proceedings. Sells any excess fyDai for Dai, then returns all Dai, and if there is no debt in the Controller, all posted Chai. Caller must have approved the proxy using`controller.addDelegate(yieldProxy)` and `pool.addDelegate(yieldProxy)` Caller must have approved the liquidity burn with `pool.approve(poolTokens)`",
        "params": {
          "minimumFYDaiPrice": "minimum Dai/fyDai price to be accepted when internally selling fyDai.",
          "poolTokens": "amount of pool tokens to burn. "
        }
      },
      "removeLiquidityEarlyDaiFixedWithSignature(address,uint256,uint256,bytes,bytes)": {
        "details": "Burns tokens and repays debt with proceedings. Sells any excess fyDai for Dai, then returns all Dai, and all unlocked Chai.",
        "params": {
          "controllerSig": "packed signature for delegation of this proxy in the controller.",
          "minimumFYDaiPrice": "minimum Dai/fyDai price to be accepted when internally selling fyDai.",
          "poolSig": "packed signature for delegation of this proxy in a pool.",
          "poolTokens": "amount of pool tokens to burn. "
        }
      },
      "removeLiquidityEarlyDaiPool(address,uint256,uint256,uint256)": {
        "details": "Burns tokens and sells Dai proceedings for fyDai. Pays as much debt as possible, then sells back any remaining fyDai for Dai. Then returns all Dai, and if there is no debt in the Controller, all posted Chai. Caller must have approved the proxy using`controller.addDelegate(yieldProxy)` and `pool.addDelegate(yieldProxy)` Caller must have approved the liquidity burn with `pool.approve(poolTokens)`",
        "params": {
          "minimumDaiPrice": "minimum fyDai/Dai price to be accepted when internally selling Dai.",
          "minimumFYDaiPrice": "minimum Dai/fyDai price to be accepted when internally selling fyDai.",
          "poolTokens": "amount of pool tokens to burn. "
        }
      },
      "removeLiquidityEarlyDaiPoolWithSignature(address,uint256,uint256,uint256,bytes,bytes)": {
        "details": "Burns tokens and sells Dai proceedings for fyDai. Pays as much debt as possible, then sells back any remaining fyDai for Dai. Then returns all Dai, and all unlocked Chai. Caller must have approved the proxy using`controller.addDelegate(yieldProxy)` and `pool.addDelegate(yieldProxy)` Caller must have approved the liquidity burn with `pool.approve(poolTokens)` <-- It actually doesn't.",
        "params": {
          "controllerSig": "packed signature for delegation of this proxy in the controller.",
          "minimumDaiPrice": "minimum fyDai/Dai price to be accepted when internally selling Dai.",
          "minimumFYDaiPrice": "minimum Dai/fyDai price to be accepted when internally selling fyDai.",
          "poolSig": "packed signature for delegation of this proxy in a pool.",
          "poolTokens": "amount of pool tokens to burn. "
        }
      },
      "removeLiquidityMature(address,uint256)": {
        "details": "Burns tokens and repays fyDai debt after Maturity.  Caller must have approved the proxy using`controller.addDelegate(yieldProxy)` Caller must have approved the liquidity burn with `pool.approve(poolTokens)`",
        "params": {
          "poolTokens": "amount of pool tokens to burn."
        }
      },
      "removeLiquidityMatureWithSignature(address,uint256,bytes,bytes)": {
        "details": "Burns tokens and repays fyDai debt after Maturity.",
        "params": {
          "controllerSig": "packed signature for delegation of this proxy in the controller.",
          "poolSig": "packed signature for delegation of this proxy in a pool.",
          "poolTokens": "amount of pool tokens to burn."
        }
      }
    }
  },
  "userdoc": {
    "methods": {}
  }
}