{
  "contractName": "Pool",
  "abi": [
    {
      "inputs": [
        {
          "internalType": "address",
          "name": "dai_",
          "type": "address"
        },
        {
          "internalType": "address",
          "name": "yDai_",
          "type": "address"
        },
        {
          "internalType": "string",
          "name": "name_",
          "type": "string"
        },
        {
          "internalType": "string",
          "name": "symbol_",
          "type": "string"
        }
      ],
      "stateMutability": "nonpayable",
      "type": "constructor"
    },
    {
      "anonymous": false,
      "inputs": [
        {
          "indexed": true,
          "internalType": "address",
          "name": "owner",
          "type": "address"
        },
        {
          "indexed": true,
          "internalType": "address",
          "name": "spender",
          "type": "address"
        },
        {
          "indexed": false,
          "internalType": "uint256",
          "name": "value",
          "type": "uint256"
        }
      ],
      "name": "Approval",
      "type": "event"
    },
    {
      "anonymous": false,
      "inputs": [
        {
          "indexed": true,
          "internalType": "address",
          "name": "user",
          "type": "address"
        },
        {
          "indexed": true,
          "internalType": "address",
          "name": "delegate",
          "type": "address"
        },
        {
          "indexed": false,
          "internalType": "bool",
          "name": "enabled",
          "type": "bool"
        }
      ],
      "name": "Delegate",
      "type": "event"
    },
    {
      "anonymous": false,
      "inputs": [
        {
          "indexed": false,
          "internalType": "uint256",
          "name": "maturity",
          "type": "uint256"
        },
        {
          "indexed": true,
          "internalType": "address",
          "name": "from",
          "type": "address"
        },
        {
          "indexed": true,
          "internalType": "address",
          "name": "to",
          "type": "address"
        },
        {
          "indexed": false,
          "internalType": "int256",
          "name": "daiTokens",
          "type": "int256"
        },
        {
          "indexed": false,
          "internalType": "int256",
          "name": "yDaiTokens",
          "type": "int256"
        },
        {
          "indexed": false,
          "internalType": "int256",
          "name": "poolTokens",
          "type": "int256"
        }
      ],
      "name": "Liquidity",
      "type": "event"
    },
    {
      "anonymous": false,
      "inputs": [
        {
          "indexed": false,
          "internalType": "uint256",
          "name": "maturity",
          "type": "uint256"
        },
        {
          "indexed": true,
          "internalType": "address",
          "name": "from",
          "type": "address"
        },
        {
          "indexed": true,
          "internalType": "address",
          "name": "to",
          "type": "address"
        },
        {
          "indexed": false,
          "internalType": "int256",
          "name": "daiTokens",
          "type": "int256"
        },
        {
          "indexed": false,
          "internalType": "int256",
          "name": "yDaiTokens",
          "type": "int256"
        }
      ],
      "name": "Trade",
      "type": "event"
    },
    {
      "anonymous": false,
      "inputs": [
        {
          "indexed": true,
          "internalType": "address",
          "name": "from",
          "type": "address"
        },
        {
          "indexed": true,
          "internalType": "address",
          "name": "to",
          "type": "address"
        },
        {
          "indexed": false,
          "internalType": "uint256",
          "name": "value",
          "type": "uint256"
        }
      ],
      "name": "Transfer",
      "type": "event"
    },
    {
      "inputs": [
        {
          "internalType": "address",
          "name": "delegate",
          "type": "address"
        }
      ],
      "name": "addDelegate",
      "outputs": [],
      "stateMutability": "nonpayable",
      "type": "function"
    },
    {
      "inputs": [
        {
          "internalType": "address",
          "name": "owner",
          "type": "address"
        },
        {
          "internalType": "address",
          "name": "spender",
          "type": "address"
        }
      ],
      "name": "allowance",
      "outputs": [
        {
          "internalType": "uint256",
          "name": "",
          "type": "uint256"
        }
      ],
      "stateMutability": "view",
      "type": "function",
      "constant": true
    },
    {
      "inputs": [
        {
          "internalType": "address",
          "name": "spender",
          "type": "address"
        },
        {
          "internalType": "uint256",
          "name": "amount",
          "type": "uint256"
        }
      ],
      "name": "approve",
      "outputs": [
        {
          "internalType": "bool",
          "name": "",
          "type": "bool"
        }
      ],
      "stateMutability": "nonpayable",
      "type": "function"
    },
    {
      "inputs": [
        {
          "internalType": "address",
          "name": "account",
          "type": "address"
        }
      ],
      "name": "balanceOf",
      "outputs": [
        {
          "internalType": "uint256",
          "name": "",
          "type": "uint256"
        }
      ],
      "stateMutability": "view",
      "type": "function",
      "constant": true
    },
    {
      "inputs": [],
      "name": "dai",
      "outputs": [
        {
          "internalType": "contract IERC20",
          "name": "",
          "type": "address"
        }
      ],
      "stateMutability": "view",
      "type": "function",
      "constant": true
    },
    {
      "inputs": [],
      "name": "decimals",
      "outputs": [
        {
          "internalType": "uint8",
          "name": "",
          "type": "uint8"
        }
      ],
      "stateMutability": "view",
      "type": "function",
      "constant": true
    },
    {
      "inputs": [
        {
          "internalType": "address",
          "name": "spender",
          "type": "address"
        },
        {
          "internalType": "uint256",
          "name": "subtractedValue",
          "type": "uint256"
        }
      ],
      "name": "decreaseAllowance",
      "outputs": [
        {
          "internalType": "bool",
          "name": "",
          "type": "bool"
        }
      ],
      "stateMutability": "nonpayable",
      "type": "function"
    },
    {
      "inputs": [
        {
          "internalType": "address",
          "name": "",
          "type": "address"
        },
        {
          "internalType": "address",
          "name": "",
          "type": "address"
        }
      ],
      "name": "delegated",
      "outputs": [
        {
          "internalType": "bool",
          "name": "",
          "type": "bool"
        }
      ],
      "stateMutability": "view",
      "type": "function",
      "constant": true
    },
    {
      "inputs": [],
      "name": "g",
      "outputs": [
        {
          "internalType": "int128",
          "name": "",
          "type": "int128"
        }
      ],
      "stateMutability": "view",
      "type": "function",
      "constant": true
    },
    {
      "inputs": [
        {
          "internalType": "address",
          "name": "spender",
          "type": "address"
        },
        {
          "internalType": "uint256",
          "name": "addedValue",
          "type": "uint256"
        }
      ],
      "name": "increaseAllowance",
      "outputs": [
        {
          "internalType": "bool",
          "name": "",
          "type": "bool"
        }
      ],
      "stateMutability": "nonpayable",
      "type": "function"
    },
    {
      "inputs": [],
      "name": "k",
      "outputs": [
        {
          "internalType": "int128",
          "name": "",
          "type": "int128"
        }
      ],
      "stateMutability": "view",
      "type": "function",
      "constant": true
    },
    {
      "inputs": [],
      "name": "maturity",
      "outputs": [
        {
          "internalType": "uint128",
          "name": "",
          "type": "uint128"
        }
      ],
      "stateMutability": "view",
      "type": "function",
      "constant": true
    },
    {
      "inputs": [],
      "name": "name",
      "outputs": [
        {
          "internalType": "string",
          "name": "",
          "type": "string"
        }
      ],
      "stateMutability": "view",
      "type": "function",
      "constant": true
    },
    {
      "inputs": [
        {
          "internalType": "address",
          "name": "delegate",
          "type": "address"
        }
      ],
      "name": "revokeDelegate",
      "outputs": [],
      "stateMutability": "nonpayable",
      "type": "function"
    },
    {
      "inputs": [],
      "name": "symbol",
      "outputs": [
        {
          "internalType": "string",
          "name": "",
          "type": "string"
        }
      ],
      "stateMutability": "view",
      "type": "function",
      "constant": true
    },
    {
      "inputs": [],
      "name": "totalSupply",
      "outputs": [
        {
          "internalType": "uint256",
          "name": "",
          "type": "uint256"
        }
      ],
      "stateMutability": "view",
      "type": "function",
      "constant": true
    },
    {
      "inputs": [
        {
          "internalType": "address",
          "name": "recipient",
          "type": "address"
        },
        {
          "internalType": "uint256",
          "name": "amount",
          "type": "uint256"
        }
      ],
      "name": "transfer",
      "outputs": [
        {
          "internalType": "bool",
          "name": "",
          "type": "bool"
        }
      ],
      "stateMutability": "nonpayable",
      "type": "function"
    },
    {
      "inputs": [
        {
          "internalType": "address",
          "name": "sender",
          "type": "address"
        },
        {
          "internalType": "address",
          "name": "recipient",
          "type": "address"
        },
        {
          "internalType": "uint256",
          "name": "amount",
          "type": "uint256"
        }
      ],
      "name": "transferFrom",
      "outputs": [
        {
          "internalType": "bool",
          "name": "",
          "type": "bool"
        }
      ],
      "stateMutability": "nonpayable",
      "type": "function"
    },
    {
      "inputs": [],
      "name": "yDai",
      "outputs": [
        {
          "internalType": "contract IYDai",
          "name": "",
          "type": "address"
        }
      ],
      "stateMutability": "view",
      "type": "function",
      "constant": true
    },
    {
      "inputs": [
        {
          "internalType": "uint128",
          "name": "daiIn",
          "type": "uint128"
        }
      ],
      "name": "init",
      "outputs": [],
      "stateMutability": "nonpayable",
      "type": "function"
    },
    {
      "inputs": [
        {
          "internalType": "uint256",
          "name": "daiOffered",
          "type": "uint256"
        }
      ],
      "name": "mint",
      "outputs": [
        {
          "internalType": "uint256",
          "name": "",
          "type": "uint256"
        }
      ],
      "stateMutability": "nonpayable",
      "type": "function"
    },
    {
      "inputs": [
        {
          "internalType": "uint256",
          "name": "tokensBurned",
          "type": "uint256"
        }
      ],
      "name": "burn",
      "outputs": [
        {
          "internalType": "uint256",
          "name": "",
          "type": "uint256"
        },
        {
          "internalType": "uint256",
          "name": "",
          "type": "uint256"
        }
      ],
      "stateMutability": "nonpayable",
      "type": "function"
    },
    {
      "inputs": [
        {
          "internalType": "address",
          "name": "from",
          "type": "address"
        },
        {
          "internalType": "address",
          "name": "to",
          "type": "address"
        },
        {
          "internalType": "uint128",
          "name": "daiIn",
          "type": "uint128"
        }
      ],
      "name": "sellDai",
      "outputs": [
        {
          "internalType": "uint128",
          "name": "",
          "type": "uint128"
        }
      ],
      "stateMutability": "nonpayable",
      "type": "function"
    },
    {
      "inputs": [
        {
          "internalType": "uint128",
          "name": "daiIn",
          "type": "uint128"
        }
      ],
      "name": "sellDaiPreview",
      "outputs": [
        {
          "internalType": "uint128",
          "name": "",
          "type": "uint128"
        }
      ],
      "stateMutability": "view",
      "type": "function",
      "constant": true
    },
    {
      "inputs": [
        {
          "internalType": "address",
          "name": "from",
          "type": "address"
        },
        {
          "internalType": "address",
          "name": "to",
          "type": "address"
        },
        {
          "internalType": "uint128",
          "name": "daiOut",
          "type": "uint128"
        }
      ],
      "name": "buyDai",
      "outputs": [
        {
          "internalType": "uint128",
          "name": "",
          "type": "uint128"
        }
      ],
      "stateMutability": "nonpayable",
      "type": "function"
    },
    {
      "inputs": [
        {
          "internalType": "uint128",
          "name": "daiOut",
          "type": "uint128"
        }
      ],
      "name": "buyDaiPreview",
      "outputs": [
        {
          "internalType": "uint128",
          "name": "",
          "type": "uint128"
        }
      ],
      "stateMutability": "view",
      "type": "function",
      "constant": true
    },
    {
      "inputs": [
        {
          "internalType": "address",
          "name": "from",
          "type": "address"
        },
        {
          "internalType": "address",
          "name": "to",
          "type": "address"
        },
        {
          "internalType": "uint128",
          "name": "yDaiIn",
          "type": "uint128"
        }
      ],
      "name": "sellYDai",
      "outputs": [
        {
          "internalType": "uint128",
          "name": "",
          "type": "uint128"
        }
      ],
      "stateMutability": "nonpayable",
      "type": "function"
    },
    {
      "inputs": [
        {
          "internalType": "uint128",
          "name": "yDaiIn",
          "type": "uint128"
        }
      ],
      "name": "sellYDaiPreview",
      "outputs": [
        {
          "internalType": "uint128",
          "name": "",
          "type": "uint128"
        }
      ],
      "stateMutability": "view",
      "type": "function",
      "constant": true
    },
    {
      "inputs": [
        {
          "internalType": "address",
          "name": "from",
          "type": "address"
        },
        {
          "internalType": "address",
          "name": "to",
          "type": "address"
        },
        {
          "internalType": "uint128",
          "name": "yDaiOut",
          "type": "uint128"
        }
      ],
      "name": "buyYDai",
      "outputs": [
        {
          "internalType": "uint128",
          "name": "",
          "type": "uint128"
        }
      ],
      "stateMutability": "nonpayable",
      "type": "function"
    },
    {
      "inputs": [
        {
          "internalType": "uint128",
          "name": "yDaiOut",
          "type": "uint128"
        }
      ],
      "name": "buyYDaiPreview",
      "outputs": [
        {
          "internalType": "uint128",
          "name": "",
          "type": "uint128"
        }
      ],
      "stateMutability": "view",
      "type": "function",
      "constant": true
    },
    {
      "inputs": [],
      "name": "getYDaiReserves",
      "outputs": [
        {
          "internalType": "uint128",
          "name": "",
          "type": "uint128"
        }
      ],
      "stateMutability": "view",
      "type": "function",
      "constant": true
    },
    {
      "inputs": [],
      "name": "getDaiReserves",
      "outputs": [
        {
          "internalType": "uint128",
          "name": "",
          "type": "uint128"
        }
      ],
      "stateMutability": "view",
      "type": "function",
      "constant": true
    }
  ],
  "bytecode": "0x60a06040523480156200001157600080fd5b50604051620045de380380620045de833981810160405260808110156200003757600080fd5b815160208301516040808501805191519395929483019291846401000000008211156200006357600080fd5b9083019060208201858111156200007957600080fd5b82516401000000008111828201881017156200009457600080fd5b82525081516020918201929091019080838360005b83811015620000c3578181015183820152602001620000a9565b50505050905090810190601f168015620000f15780820380516001836020036101000a031916815260200191505b50604052602001805160405193929190846401000000008211156200011557600080fd5b9083019060208201858111156200012b57600080fd5b82516401000000008111828201881017156200014657600080fd5b82525081516020918201929091019080838360005b83811015620001755781810151838201526020016200015b565b50505050905090810190601f168015620001a35780820380516001836020036101000a031916815260200191505b50604052505082518391508290620001c390600390602085019062000316565b508051620001d990600490602084019062000316565b50506005805460ff1916601217905550600780546001600160a01b038087166001600160a01b03199283161790925560088054868416921691909117908190556040805163204f83f960e01b815290516200029793929092169163204f83f991600480820192602092909190829003018186803b1580156200025a57600080fd5b505afa1580156200026f573d6000803e3d6000fd5b505050506040513d60208110156200028657600080fd5b50516001600160e01b03620002b316565b6001600160801b0319608091821b16905250620003b092505050565b60006001600160801b0382111562000312576040805162461bcd60e51b815260206004820152601360248201527f506f6f6c3a2043617374206f766572666c6f7700000000000000000000000000604482015290519081900360640190fd5b5090565b828054600181600116156101000203166002900490600052602060002090601f016020900481019282601f106200035957805160ff191683800117855562000389565b8280016001018555821562000389579182015b82811115620003895782518255916020019190600101906200036c565b506200031292620003ad9250905b8082111562000312576000815560010162000397565b90565b60805160801c6141c06200041e600039806107d4528061085a52806108a0528061093252806109f95280610d7b5280610df85280610e7e5280610f675280610ff952806110bd528061124a5280611549528061188e5280611b125280611d875280611fc852506141c06000f3fe608060405234801561001057600080fd5b50600436106101f05760003560e01c8063a0712d681161010f578063d43fde70116100a2578063e71bdf4111610071578063e71bdf4114610694578063f4b9fa75146106ba578063f6bcbd31146106c2578063fa352c00146106f0576101f0565b8063d43fde7014610616578063d7a9dd6114610656578063dd62ed3e1461065e578063e2179b8e1461068c576101f0565b8063b26be922116100de578063b26be92214610535578063b4f40c6114610575578063c47b5b8314610596578063cc5783d3146105d6576101f0565b8063a0712d681461049c578063a457c2d7146104b9578063a9059cbb146104e5578063aef52e3f14610511576101f0565b8063395093511161018757806377d739f31161015657806377d739f31461043e57806385561a341461044657806395d89b411461046c5780639f1f7f6f14610474576101f0565b8063395093511461039057806342966c68146103bc5780634e20e952146103f257806370a0823114610418576101f0565b80631e4d81db116101c35780631e4d81db1461030e578063204f83f91461033457806323b872dd1461033c578063313ce56714610372576101f0565b806306fdde03146101f5578063095ea7b31461027257806318160ddd146102b257806318db7ee6146102cc575b600080fd5b6101fd610716565b6040805160208082528351818301528351919283929083019185019080838360005b8381101561023757818101518382015260200161021f565b50505050905090810190601f1680156102645780820380516001836020036101000a031916815260200191505b509250505060405180910390f35b61029e6004803603604081101561028857600080fd5b506001600160a01b0381351690602001356107ac565b604080519115158252519081900360200190f35b6102ba6107ca565b60408051918252519081900360200190f35b6102f2600480360360208110156102e257600080fd5b50356001600160801b03166107d0565b604080516001600160801b039092168252519081900360200190f35b6102f26004803603602081101561032457600080fd5b50356001600160801b031661089c565b6102f26109f7565b61029e6004803603606081101561035257600080fd5b506001600160a01b03813581169160208101359091169060400135610a1b565b61037a610aa9565b6040805160ff9092168252519081900360200190f35b61029e600480360360408110156103a657600080fd5b506001600160a01b038135169060200135610ab2565b6103d9600480360360208110156103d257600080fd5b5035610b06565b6040805192835260208301919091528051918290030190f35b6102f26004803603602081101561040857600080fd5b50356001600160801b0316610df4565b6102ba6004803603602081101561042e57600080fd5b50356001600160a01b0316610ec0565b6102f2610edb565b6102f26004803603602081101561045c57600080fd5b50356001600160801b0316610f63565b6101fd61105a565b61049a6004803603602081101561048a57600080fd5b50356001600160801b03166110bb565b005b6102ba600480360360208110156104b257600080fd5b50356112c4565b61029e600480360360408110156104cf57600080fd5b506001600160a01b0381351690602001356115c2565b61029e600480360360408110156104fb57600080fd5b506001600160a01b038135169060200135611630565b610519611644565b604080516001600160a01b039092168252519081900360200190f35b6102f26004803603606081101561054b57600080fd5b5080356001600160a01b0390811691602081013590911690604001356001600160801b0316611653565b61057d611905565b60408051600f92830b90920b8252519081900360200190f35b6102f2600480360360608110156105ac57600080fd5b5080356001600160a01b0390811691602081013590911690604001356001600160801b0316611914565b6102f2600480360360608110156105ec57600080fd5b5080356001600160a01b0390811691602081013590911690604001356001600160801b0316611b89565b6102f26004803603606081101561062c57600080fd5b5080356001600160a01b0390811691602081013590911690604001356001600160801b0316611dca565b6102f261200e565b6102ba6004803603604081101561067457600080fd5b506001600160a01b0381358116916020013516612098565b61057d6120c3565b61049a600480360360208110156106aa57600080fd5b50356001600160a01b03166120d6565b6105196121bb565b61029e600480360360408110156106d857600080fd5b506001600160a01b03813581169160200135166121ca565b61049a6004803603602081101561070657600080fd5b50356001600160a01b03166121ea565b60038054604080516020601f60026000196101006001881615020190951694909404938401819004810282018101909252828152606093909290918301828280156107a25780601f10610777576101008083540402835291602001916107a2565b820191906000526020600020905b81548152906001019060200180831161078557829003601f168201915b5050505050905090565b60006107c06107b96122c5565b84846122c9565b5060015b92915050565b60025490565b60007f00000000000000000000000000000000000000000000000000000000000000006001600160801b03164210610840576040805162461bcd60e51b815260206004820152600e60248201526d506f6f6c3a20546f6f206c61746560901b604482015290519081900360640190fd5b6107c461084b610edb565b61085361200e565b84610888427f00000000000000000000000000000000000000000000000000000000000000006001600160801b0316036123b5565b64220c523d7267ffbe76c8b439581061240d565b60007f00000000000000000000000000000000000000000000000000000000000000006001600160801b0316421061090c576040805162461bcd60e51b815260206004820152600e60248201526d506f6f6c3a20546f6f206c61746560901b604482015290519081900360640190fd5b6000610916610edb565b9050600061092261200e565b90506000610974838387610960427f00000000000000000000000000000000000000000000000000000000000000006001600160801b0316036123b5565b64220c523d7267ffbe76c8b43958106125f4565b905061098083826127c6565b6001600160801b0316610993838761282c565b6001600160801b031610156109ef576040805162461bcd60e51b815260206004820152601b60248201527f506f6f6c3a207944616920726573657276657320746f6f206c6f770000000000604482015290519081900360640190fd5b949350505050565b7f000000000000000000000000000000000000000000000000000000000000000081565b6000610a2884848461289b565b610a9e84610a346122c5565b610a9985604051806060016040528060288152602001614070602891396001600160a01b038a16600090815260016020526040812090610a726122c5565b6001600160a01b03168152602081019190915260400160002054919063ffffffff612a0216565b6122c9565b5060015b9392505050565b60055460ff1690565b60006107c0610abf6122c5565b84610a998560016000610ad06122c5565b6001600160a01b03908116825260208083019390935260409182016000908120918c16815292529020549063ffffffff612a5c16565b6000806000610b136107ca565b600754604080516370a0823160e01b815230600482015290519293506000926001600160a01b03909216916370a0823191602480820192602092909190829003018186803b158015610b6457600080fd5b505afa158015610b78573d6000803e3d6000fd5b505050506040513d6020811015610b8e57600080fd5b5051600854604080516370a0823160e01b815230600482015290519293506000926001600160a01b03909216916370a0823191602480820192602092909190829003018186803b158015610be157600080fd5b505afa158015610bf5573d6000803e3d6000fd5b505050506040513d6020811015610c0b57600080fd5b505190506000610c3184610c25898663ffffffff612ab616565b9063ffffffff612b0f16565b90506000610c4985610c258a8663ffffffff612ab616565b9050610c553389612b51565b6007546040805163a9059cbb60e01b81523360048201526024810185905290516001600160a01b039092169163a9059cbb916044808201926020929091908290030181600087803b158015610ca957600080fd5b505af1158015610cbd573d6000803e3d6000fd5b505050506040513d6020811015610cd357600080fd5b50506008546040805163a9059cbb60e01b81523360048201526024810184905290516001600160a01b039092169163a9059cbb916044808201926020929091908290030181600087803b158015610d2957600080fd5b505af1158015610d3d573d6000803e3d6000fd5b505050506040513d6020811015610d5357600080fd5b50339050807fd9b421596e3bc3caf78305bc0d270566916f58cd61b71c9c2a3d923a3ea3ea8b7f0000000000000000000000000000000000000000000000000000000000000000610da386612c59565b610dac86612c59565b610db58e612c59565b604080516001600160801b0390951685526020850193909352838301919091526000036060830152519081900360800190a39095509350505050915091565b60007f00000000000000000000000000000000000000000000000000000000000000006001600160801b03164210610e64576040805162461bcd60e51b815260206004820152600e60248201526d506f6f6c3a20546f6f206c61746560901b604482015290519081900360640190fd5b6107c4610e6f610edb565b610e7761200e565b84610eac427f00000000000000000000000000000000000000000000000000000000000000006001600160801b0316036123b5565b64220c523d7267ffbe76c8b4395810612cad565b6001600160a01b031660009081526020819052604090205490565b600754604080516370a0823160e01b81523060048201529051600092610f5e926001600160a01b03909116916370a0823191602480820192602092909190829003018186803b158015610f2d57600080fd5b505afa158015610f41573d6000803e3d6000fd5b505050506040513d6020811015610f5757600080fd5b50516123b5565b905090565b60007f00000000000000000000000000000000000000000000000000000000000000006001600160801b03164210610fd3576040805162461bcd60e51b815260206004820152600e60248201526d506f6f6c3a20546f6f206c61746560901b604482015290519081900360640190fd5b6000610fdd610edb565b90506000610fe961200e565b9050600061103b838387611027427f00000000000000000000000000000000000000000000000000000000000000006001600160801b0316036123b5565b64220c523d7267ffbe76c8b4395810612e7b565b905061104783866127c6565b6001600160801b0316610993838361282c565b60048054604080516020601f60026000196101006001881615020190951694909404938401819004810282018101909252828152606093909290918301828280156107a25780601f10610777576101008083540402835291602001916107a2565b7f00000000000000000000000000000000000000000000000000000000000000006001600160801b03164210611129576040805162461bcd60e51b815260206004820152600e60248201526d506f6f6c3a20546f6f206c61746560901b604482015290519081900360640190fd5b6111316107ca565b15611183576040805162461bcd60e51b815260206004820152601960248201527f506f6f6c3a20416c726561647920696e697469616c697a656400000000000000604482015290519081900360640190fd5b600754604080516323b872dd60e01b81523360048201523060248201526001600160801b038416604482015290516001600160a01b03909216916323b872dd916064808201926020929091908290030181600087803b1580156111e557600080fd5b505af11580156111f9573d6000803e3d6000fd5b505050506040513d602081101561120f57600080fd5b506112259050336001600160801b038316613049565b33807fd9b421596e3bc3caf78305bc0d270566916f58cd61b71c9c2a3d923a3ea3ea8b7f000000000000000000000000000000000000000000000000000000000000000061127b6001600160801b038616612c59565b6000036000611292876001600160801b0316612c59565b604080516001600160801b0390951685526020850193909352838301919091526060830152519081900360800190a350565b6000806112cf6107ca565b600754604080516370a0823160e01b815230600482015290519293506000926001600160a01b03909216916370a0823191602480820192602092909190829003018186803b15801561132057600080fd5b505afa158015611334573d6000803e3d6000fd5b505050506040513d602081101561134a57600080fd5b5051600854604080516370a0823160e01b815230600482015290519293506000926001600160a01b03909216916370a0823191602480820192602092909190829003018186803b15801561139d57600080fd5b505afa1580156113b1573d6000803e3d6000fd5b505050506040513d60208110156113c757600080fd5b5051905060006113e183610c25868963ffffffff612ab616565b905060006113f985610c25858563ffffffff612ab616565b600754604080516323b872dd60e01b8152336004820152306024820152604481018b905290519293506001600160a01b03909116916323b872dd916064808201926020929091908290030181600087803b15801561145657600080fd5b505af115801561146a573d6000803e3d6000fd5b505050506040513d602081101561148057600080fd5b505161148b57600080fd5b600854604080516323b872dd60e01b81523360048201523060248201526044810184905290516001600160a01b03909216916323b872dd916064808201926020929091908290030181600087803b1580156114e557600080fd5b505af11580156114f9573d6000803e3d6000fd5b505050506040513d602081101561150f57600080fd5b505161151a57600080fd5b6115243383613049565b33807fd9b421596e3bc3caf78305bc0d270566916f58cd61b71c9c2a3d923a3ea3ea8b7f00000000000000000000000000000000000000000000000000000000000000006115718b612c59565b60000361157d86612c59565b60000361158988612c59565b604080516001600160801b0390951685526020850193909352838301919091526060830152519081900360800190a35095945050505050565b60006107c06115cf6122c5565b84610a998560405180606001604052806025815260200161416660259139600160006115f96122c5565b6001600160a01b03908116825260208083019390935260409182016000908120918d1681529252902054919063ffffffff612a0216565b60006107c061163d6122c5565b848461289b565b6008546001600160a01b031681565b6000836040518060400160405280601d81526020016000805160206140b9833981519152815250816001600160a01b0316336001600160a01b031614806116bd57506001600160a01b038216600090815260066020908152604080832033845290915290205460ff165b81906117475760405162461bcd60e51b81526004018080602001828103825283818151815260200191508051906020019080838360005b8381101561170c5781810151838201526020016116f4565b50505050905090810190601f1680156117395780820380516001836020036101000a031916815260200191505b509250505060405180910390fd5b50600061175385610f63565b600754604080516323b872dd60e01b81526001600160a01b038b811660048301523060248301526001600160801b038a16604483015291519394509116916323b872dd916064808201926020929091908290030181600087803b1580156117b957600080fd5b505af11580156117cd573d6000803e3d6000fd5b505050506040513d60208110156117e357600080fd5b50506008546040805163a9059cbb60e01b81526001600160a01b0389811660048301526001600160801b03851660248301529151919092169163a9059cbb9160448083019260209291908290030181600087803b15801561184357600080fd5b505af1158015611857573d6000803e3d6000fd5b505050506040513d602081101561186d57600080fd5b50506001600160a01b03808716908816600080516020613fe48339815191527f00000000000000000000000000000000000000000000000000000000000000006118bf6001600160801b038a16612c59565b6000036118d4866001600160801b0316612c59565b604080516001600160801b039094168452602084019290925282820152519081900360600190a39695505050505050565b630784ce00600160401b5b0481565b6000836040518060400160405280601d81526020016000805160206140b9833981519152815250816001600160a01b0316336001600160a01b0316148061197e57506001600160a01b038216600090815260066020908152604080832033845290915290205460ff165b81906119cb5760405162461bcd60e51b815260206004820181815283516024840152835190928392604490910191908501908083836000831561170c5781810151838201526020016116f4565b5060006119d7856107d0565b600854604080516323b872dd60e01b81526001600160a01b038b811660048301523060248301526001600160801b038a16604483015291519394509116916323b872dd916064808201926020929091908290030181600087803b158015611a3d57600080fd5b505af1158015611a51573d6000803e3d6000fd5b505050506040513d6020811015611a6757600080fd5b50506007546040805163a9059cbb60e01b81526001600160a01b0389811660048301526001600160801b03851660248301529151919092169163a9059cbb9160448083019260209291908290030181600087803b158015611ac757600080fd5b505af1158015611adb573d6000803e3d6000fd5b505050506040513d6020811015611af157600080fd5b50506001600160a01b03808716908816600080516020613fe48339815191527f0000000000000000000000000000000000000000000000000000000000000000611b436001600160801b038616612c59565b611b558a6001600160801b0316612c59565b604080516001600160801b039094168452602084019290925260000382820152519081900360600190a39695505050505050565b6000836040518060400160405280601d81526020016000805160206140b9833981519152815250816001600160a01b0316336001600160a01b03161480611bf357506001600160a01b038216600090815260066020908152604080832033845290915290205460ff165b8190611c405760405162461bcd60e51b815260206004820181815283516024840152835190928392604490910191908501908083836000831561170c5781810151838201526020016116f4565b506000611c4c85610df4565b600854604080516323b872dd60e01b81526001600160a01b038b811660048301523060248301526001600160801b038516604483015291519394509116916323b872dd916064808201926020929091908290030181600087803b158015611cb257600080fd5b505af1158015611cc6573d6000803e3d6000fd5b505050506040513d6020811015611cdc57600080fd5b50506007546040805163a9059cbb60e01b81526001600160a01b0389811660048301526001600160801b03891660248301529151919092169163a9059cbb9160448083019260209291908290030181600087803b158015611d3c57600080fd5b505af1158015611d50573d6000803e3d6000fd5b505050506040513d6020811015611d6657600080fd5b50506001600160a01b03808716908816600080516020613fe48339815191527f0000000000000000000000000000000000000000000000000000000000000000611db86001600160801b038a16612c59565b611b55866001600160801b0316612c59565b6000836040518060400160405280601d81526020016000805160206140b9833981519152815250816001600160a01b0316336001600160a01b03161480611e3457506001600160a01b038216600090815260066020908152604080832033845290915290205460ff165b8190611e815760405162461bcd60e51b815260206004820181815283516024840152835190928392604490910191908501908083836000831561170c5781810151838201526020016116f4565b506000611e8d8561089c565b600754604080516323b872dd60e01b81526001600160a01b038b811660048301523060248301526001600160801b038516604483015291519394509116916323b872dd916064808201926020929091908290030181600087803b158015611ef357600080fd5b505af1158015611f07573d6000803e3d6000fd5b505050506040513d6020811015611f1d57600080fd5b50506008546040805163a9059cbb60e01b81526001600160a01b0389811660048301526001600160801b03891660248301529151919092169163a9059cbb9160448083019260209291908290030181600087803b158015611f7d57600080fd5b505af1158015611f91573d6000803e3d6000fd5b505050506040513d6020811015611fa757600080fd5b50506001600160a01b03808716908816600080516020613fe48339815191527f0000000000000000000000000000000000000000000000000000000000000000611ff96001600160801b038616612c59565b6000036118d48a6001600160801b0316612c59565b6000610f5e61201b6107ca565b600854604080516370a0823160e01b815230600482015290516001600160a01b03909216916370a0823191602480820192602092909190829003018186803b15801561206657600080fd5b505afa15801561207a573d6000803e3d6000fd5b505050506040513d602081101561209057600080fd5b5051016123b5565b6001600160a01b03918216600090815260016020908152604080832093909416825291909152205490565b6103e86903e70000000000000000611910565b3360009081526006602090815260408083206001600160a01b038516845290915290205460ff161561214f576040805162461bcd60e51b815260206004820152601c60248201527f44656c656761626c653a20416c72656164792064656c65676174656400000000604482015290519081900360640190fd5b3360008181526006602090815260408083206001600160a01b03861680855290835292819020805460ff19166001908117909155815190815290519293927f045b0fef01772d2fbba53dbd38c9777806eac0865b00af43abcfbcaf50da9206929181900390910190a350565b6007546001600160a01b031681565b600660209081526000928352604080842090915290825290205460ff1681565b3360009081526006602090815260408083206001600160a01b038516845290915290205460ff16612262576040805162461bcd60e51b815260206004820152601e60248201527f44656c656761626c653a20416c726561647920756e64656c6567617465640000604482015290519081900360640190fd5b3360008181526006602090815260408083206001600160a01b038616808552908352818420805460ff19169055815193845290519093927f045b0fef01772d2fbba53dbd38c9777806eac0865b00af43abcfbcaf50da920692908290030190a350565b3390565b6001600160a01b03831661230e5760405162461bcd60e51b81526004018080602001828103825260248152602001806140fe6024913960400191505060405180910390fd5b6001600160a01b0382166123535760405162461bcd60e51b8152600401808060200182810382526022815260200180613f9c6022913960400191505060405180910390fd5b6001600160a01b03808416600081815260016020908152604080832094871680845294825291829020859055815185815291517f8c5be1e5ebec7d5bd14f71427d1e84f3dd0314c0f7b2291e5b200ac8c7c3b9259281900390910190a3505050565b60006001600160801b03821115612409576040805162461bcd60e51b8152602060048201526013602482015272506f6f6c3a2043617374206f766572666c6f7760681b604482015290519081900360640190fd5b5090565b60008061242b84612426876001600160801b0316613145565b613163565b90506000612446600160401b6124418685613163565b61319a565b9050600081600f0b1361248e576040805162461bcd60e51b81526020600482018190526024820152600080516020614122833981519152604482015290519081900360640190fd5b6001600160801b0388811690881601600160801b81106124f5576040805162461bcd60e51b815260206004820152601b60248201527f5969656c644d6174683a20546f6f206d756368207944616920696e0000000000604482015290519081900360640190fd5b60006125068a84600160401b6131cd565b6001600160801b031661251e8385600160401b6131cd565b6001600160801b03166125368d86600160401b6131cd565b6001600160801b031603019050600160801b81106125855760405162461bcd60e51b81526004018080602001828103825260248152602001806141426024913960400191505060405180910390fd5b600061259682600160401b866131cd565b8c036001600160801b03169050600160801b81106125e55760405162461bcd60e51b81526004018080602001828103825260218152602001806140046021913960400191505060405180910390fd5b9b9a5050505050505050505050565b600080612619600160401b61244185612426886124268b6001600160801b0316613145565b9050600081600f0b13612661576040805162461bcd60e51b81526020600482018190526024820152600080516020614122833981519152604482015290519081900360640190fd5b6001600160801b0380871690881603600160801b81106126c8576040805162461bcd60e51b815260206004820152601c60248201527f5969656c644d6174683a20546f6f206d7563682079446169206f757400000000604482015290519081900360640190fd5b60006126d98284600160401b6131cd565b6001600160801b03166126f18a85600160401b6131cd565b6001600160801b03166127098c86600160401b6131cd565b6001600160801b031601039050600160801b81106127585760405162461bcd60e51b815260040180806020018281038252602a815260200180614025602a913960400191505060405180910390fd5b60008a61276a83600160401b876131cd565b036001600160801b03169050600160801b81106127b85760405162461bcd60e51b81526004018080602001828103825260218152602001806140046021913960400191505060405180910390fd5b9a9950505050505050505050565b60008282016001600160801b038085169082161015610aa2576040805162461bcd60e51b815260206004820152601b60248201527f506f6f6c3a2044616920726573657276657320746f6f20686967680000000000604482015290519081900360640190fd5b6000826001600160801b0316826001600160801b03161115612895576040805162461bcd60e51b815260206004820152601b60248201527f506f6f6c3a207944616920726573657276657320746f6f206c6f770000000000604482015290519081900360640190fd5b50900390565b6001600160a01b0383166128e05760405162461bcd60e51b81526004018080602001828103825260258152602001806140d96025913960400191505060405180910390fd5b6001600160a01b0382166129255760405162461bcd60e51b8152600401808060200182810382526023815260200180613f326023913960400191505060405180910390fd5b61293083838361327a565b61297381604051806060016040528060268152602001613fbe602691396001600160a01b038616600090815260208190526040902054919063ffffffff612a0216565b6001600160a01b0380851660009081526020819052604080822093909355908416815220546129a8908263ffffffff612a5c16565b6001600160a01b038084166000818152602081815260409182902094909455805185815290519193928716927fddf252ad1be2c89b69c2b068fc378daa952ba7f163c4a11628f55a4df523b3ef92918290030190a3505050565b60008184841115612a545760405162461bcd60e51b815260206004820181815283516024840152835190928392604490910191908501908083836000831561170c5781810151838201526020016116f4565b505050900390565b600082820183811015610aa2576040805162461bcd60e51b815260206004820152601b60248201527f536166654d6174683a206164646974696f6e206f766572666c6f770000000000604482015290519081900360640190fd5b600082612ac5575060006107c4565b82820282848281612ad257fe5b0414610aa25760405162461bcd60e51b815260040180806020018281038252602181526020018061404f6021913960400191505060405180910390fd5b6000610aa283836040518060400160405280601a81526020017f536166654d6174683a206469766973696f6e206279207a65726f00000000000081525061327f565b6001600160a01b038216612b965760405162461bcd60e51b81526004018080602001828103825260218152602001806140986021913960400191505060405180910390fd5b612ba28260008361327a565b612be581604051806060016040528060228152602001613f55602291396001600160a01b038516600090815260208190526040902054919063ffffffff612a0216565b6001600160a01b038316600090815260208190526040902055600254612c11908263ffffffff6132e416565b6002556040805182815290516000916001600160a01b038516917fddf252ad1be2c89b69c2b068fc378daa952ba7f163c4a11628f55a4df523b3ef9181900360200190a35050565b60006001600160ff1b03821115612409576040805162461bcd60e51b8152602060048201526013602482015272506f6f6c3a2043617374206f766572666c6f7760681b604482015290519081900360640190fd5b600080612cc684612426876001600160801b0316613145565b90506000612cdc600160401b6124418685613163565b9050600081600f0b13612d24576040805162461bcd60e51b81526020600482018190526024820152600080516020614122833981519152604482015290519081900360640190fd5b6001600160801b03808816908a1603600160801b8110612d8b576040805162461bcd60e51b815260206004820152601b60248201527f5969656c644d6174683a20546f6f206d75636820446169206f75740000000000604482015290519081900360640190fd5b6000612d9c8284600160401b6131cd565b6001600160801b0316612db48b85600160401b6131cd565b6001600160801b0316612dcc8d86600160401b6131cd565b6001600160801b031601039050600160801b8110612e1b5760405162461bcd60e51b815260040180806020018281038252602b815260200180613f07602b913960400191505060405180910390fd5b60008a612e2d83600160401b876131cd565b036001600160801b03169050600160801b81106125e55760405162461bcd60e51b81526004018080602001828103825260218152602001806140046021913960400191505060405180910390fd5b600080612e9484612426876001600160801b0316613145565b90506000612eaa600160401b6124418685613163565b9050600081600f0b13612ef2576040805162461bcd60e51b81526020600482018190526024820152600080516020614122833981519152604482015290519081900360640190fd5b6001600160801b0389811690881601600160801b8110612f59576040805162461bcd60e51b815260206004820152601a60248201527f5969656c644d6174683a20546f6f206d7563682044616920696e000000000000604482015290519081900360640190fd5b6000612f6a8284600160401b6131cd565b6001600160801b0316612f828b85600160401b6131cd565b6001600160801b0316612f9a8d86600160401b6131cd565b6001600160801b031601039050600160801b8110612fe95760405162461bcd60e51b8152600401808060200182810382526025815260200180613f776025913960400191505060405180910390fd5b6000612ffa82600160401b866131cd565b8b036001600160801b03169050600160801b81106125e55760405162461bcd60e51b81526004018080602001828103825260218152602001806140046021913960400191505060405180910390fd5b6001600160a01b0382166130a4576040805162461bcd60e51b815260206004820152601f60248201527f45524332303a206d696e7420746f20746865207a65726f206164647265737300604482015290519081900360640190fd5b6130b06000838361327a565b6002546130c3908263ffffffff612a5c16565b6002556001600160a01b0382166000908152602081905260409020546130ef908263ffffffff612a5c16565b6001600160a01b0383166000818152602081815260408083209490945583518581529351929391927fddf252ad1be2c89b69c2b068fc378daa952ba7f163c4a11628f55a4df523b3ef9281900390910190a35050565b6000677fffffffffffffff82111561315c57600080fd5b5060401b90565b6000600f83810b9083900b0260401d60016001607f1b03198112801590613191575060016001607f1b038113155b610aa257600080fd5b6000600f82810b9084900b0360016001607f1b03198112801590613191575060016001607f1b03811315610aa257600080fd5b60006001600160801b0382166131e257600080fd5b6001600160801b03841661320b576001600160801b03831661320357600080fd5b506000610aa2565b6000826001600160801b0316846001600160801b031661322a87613326565b6001600160801b03036001600160801b0316028161324457fe5b0490506001600160801b03811115613260576000915050610aa2565b613272816001600160801b0303613971565b915050610aa2565b505050565b600081836132ce5760405162461bcd60e51b815260206004820181815283516024840152835190928392604490910191908501908083836000831561170c5781810151838201526020016116f4565b5060008385816132da57fe5b0495945050505050565b6000610aa283836040518060400160405280601e81526020017f536166654d6174683a207375627472616374696f6e206f766572666c6f770000815250612a02565b60006001600160801b03821661333b57600080fd5b6001600160801b038216607f60791b600160401b8210156133685760409190911b9060016001607f1b0319015b600160601b82101561338f5760209190911b906f3fffffffffffffffffffffffffffffff19015b600160701b8210156133b65760109190911b906f1fffffffffffffffffffffffffffffff19015b600160781b8210156133dd5760089190911b906f0fffffffffffffffffffffffffffffff19015b6001607c1b8210156134045760049190911b906f07ffffffffffffffffffffffffffffff19015b6001607e1b82101561342b5760029190911b906f03ffffffffffffffffffffffffffffff19015b6001607f1b8210156134525760019190911b906f01ffffffffffffffffffffffffffffff19015b908002607f1c90600160801b82106134725760019190911c90600160781b175b908002607f1c90600160801b82106134925760019190911c90600160771b175b908002607f1c90600160801b82106134b25760019190911c90600160761b175b908002607f1c90600160801b82106134d25760019190911c90600160751b175b908002607f1c90600160801b82106134f25760019190911c90600160741b175b908002607f1c90600160801b82106135125760019190911c90600160731b175b908002607f1c90600160801b82106135325760019190911c90600160721b175b908002607f1c90600160801b82106135525760019190911c90600160711b175b908002607f1c90600160801b82106135725760019190911c90600160701b175b908002607f1c90600160801b82106135925760019190911c906001606f1b175b908002607f1c90600160801b82106135b25760019190911c906001606e1b175b908002607f1c90600160801b82106135d25760019190911c906001606d1b175b908002607f1c90600160801b82106135f25760019190911c906001606c1b175b908002607f1c90600160801b82106136125760019190911c906001606b1b175b908002607f1c90600160801b82106136325760019190911c906001606a1b175b908002607f1c90600160801b82106136525760019190911c90600160691b175b908002607f1c90600160801b82106136725760019190911c90600160681b175b908002607f1c90600160801b82106136925760019190911c90600160671b175b908002607f1c90600160801b82106136b25760019190911c90600160661b175b908002607f1c90600160801b82106136d25760019190911c90600160651b175b908002607f1c90600160801b82106136f25760019190911c90600160641b175b908002607f1c90600160801b82106137125760019190911c90600160631b175b908002607f1c90600160801b82106137325760019190911c90600160621b175b908002607f1c90600160801b82106137525760019190911c90600160611b175b908002607f1c90600160801b82106137725760019190911c90600160601b175b908002607f1c90600160801b82106137925760019190911c906001605f1b175b908002607f1c90600160801b82106137b25760019190911c906001605e1b175b908002607f1c90600160801b82106137d25760019190911c906001605d1b175b908002607f1c90600160801b82106137f25760019190911c906001605c1b175b908002607f1c90600160801b82106138125760019190911c906001605b1b175b908002607f1c90600160801b82106138325760019190911c906001605a1b175b908002607f1c90600160801b82106138525760019190911c90600160591b175b908002607f1c90600160801b82106138725760019190911c90600160581b175b908002607f1c90600160801b82106138925760019190911c90600160571b175b908002607f1c90600160801b82106138b25760019190911c90600160561b175b908002607f1c90600160801b82106138d25760019190911c90600160551b175b908002607f1c90600160801b82106138f25760019190911c90600160541b175b908002607f1c90600160801b82106139125760019190911c90600160531b175b908002607f1c90600160801b82106139325760019190911c90600160521b175b908002607f1c90600160801b82106139525760019190911c90600160511b175b908002607f1c90600160801b8210610aa257600160501b179392505050565b60006001607f1b600160781b83161561399a576fb504f333f9de6484597d89b3754abe9f02607f1c5b600160771b8316156139bc576f9837f0518db8a96f46ad23182e42f6f602607f1c5b600160761b8316156139de576f8b95c1e3ea8bd6e6fbe4628758a53c9002607f1c5b600160751b831615613a00576f85aac367cc487b14c5c95b8c2154c1b202607f1c5b600160741b831615613a22576f82cd8698ac2ba1d73e2a475b46520bff02607f1c5b600160731b831615613a44576f8164d1f3bc0307737be56527bd14def402607f1c5b600160721b831615613a66576f80b1ed4fd999ab6c25335719b6e6fd2002607f1c5b600160711b831615613a88576f8058d7d2d5e5f6b094d589f608ee4aa202607f1c5b600160701b831615613aaa576f802c6436d0e04f50ff8ce94a6797b3ce02607f1c5b6001606f1b831615613acc576f8016302f174676283690dfe44d11d00802607f1c5b6001606e1b831615613aee576f800b179c82028fd0945e54e2ae18f2f002607f1c5b6001606d1b831615613b10576f80058baf7fee3b5d1c718b38e549cb9302607f1c5b6001606c1b831615613b32576f8002c5d00fdcfcb6b6566a58c048be1f02607f1c5b6001606b1b831615613b54576f800162e61bed4a48e84c2e1a463473d902607f1c5b6001606a1b831615613b76576f8000b17292f702a3aa22beacca94901302607f1c5b600160691b831615613b98576f800058b92abbae02030c5fa5256f41fe02607f1c5b600160681b831615613bba576f80002c5c8dade4d71776c0f4dbea67d602607f1c5b600160671b831615613bdc576f8000162e44eaf636526be456600bdbe402607f1c5b600160661b831615613bfe576f80000b1721fa7c188307016c1cd4e8b602607f1c5b600160651b831615613c20576f8000058b90de7e4cecfc487503488bb102607f1c5b600160641b831615613c42576f800002c5c8678f36cbfce50a6de60b1402607f1c5b600160631b831615613c64576f80000162e431db9f80b2347b5d62e51602607f1c5b600160621b831615613c86576f800000b1721872d0c7b08cf1e011415202607f1c5b600160611b831615613ca8576f80000058b90c1aa8a5c3736cb77e8dff02607f1c5b600160601b831615613cca576f8000002c5c8605a4635f2efc2362d97802607f1c5b6001605f1b831615613cec576f800000162e4300e635cf4a109e3939bd02607f1c5b6001605e1b831615613d0e576f8000000b17217ff81bef9c551590cf8302607f1c5b6001605d1b831615613d30576f800000058b90bfdd4e39cd52c0cfa27c02607f1c5b6001605c1b831615613d52576f80000002c5c85fe6f72d669e0e76e41102607f1c5b6001605b1b831615613d74576f8000000162e42ff18f9ad35186d0df2802607f1c5b6001605a1b831615613d96576f80000000b17217f84cce71aa0dcfffe702607f1c5b600160591b831615613db8576f8000000058b90bfc07a77ad56ed22aaa02607f1c5b600160581b831615613dda576f800000002c5c85fdfc23cdead40da8d602607f1c5b600160571b831615613dfc576f80000000162e42fefc25eb1571853a6602607f1c5b600160561b831615613e1e576f800000000b17217f7d97f692baacded502607f1c5b600160551b831615613e40576f80000000058b90bfbead3b8b5dd254d702607f1c5b600160541b831615613e62576f8000000002c5c85fdf4eedd62f084e6702607f1c5b600160531b831615613e84576f800000000162e42fefa58aef378bf58602607f1c5b600160521b831615613ea6576f8000000000b17217f7d24a78a3c7ef0202607f1c5b600160511b831615613ec8576f800000000058b90bfbe9067c93e474a602607f1c5b600160501b831615613eea576f80000000002c5c85fdf47b8e5a72599f02607f1c5b607f607984901c811690036001600160801b03161c905091905056fe5969656c644d6174683a20526573756c74696e67207944616920726573657276657320746f6f206869676845524332303a207472616e7366657220746f20746865207a65726f206164647265737345524332303a206275726e20616d6f756e7420657863656564732062616c616e63655969656c644d6174683a20496e73756666696369656e74207944414920726573657276657345524332303a20617070726f766520746f20746865207a65726f206164647265737345524332303a207472616e7366657220616d6f756e7420657863656564732062616c616e63653f207773c457c66e004ab34e2ce7ae1fcafc7b4c3286f63997c87428014219155969656c644d6174683a20526f756e64696e6720696e6475636564206572726f725969656c644d6174683a20526573756c74696e672044616920726573657276657320746f6f2068696768536166654d6174683a206d756c7469706c69636174696f6e206f766572666c6f7745524332303a207472616e7366657220616d6f756e74206578636565647320616c6c6f77616e636545524332303a206275726e2066726f6d20746865207a65726f2061646472657373506f6f6c3a204f6e6c7920486f6c646572204f722044656c656761746500000045524332303a207472616e736665722066726f6d20746865207a65726f206164647265737345524332303a20617070726f76652066726f6d20746865207a65726f20616464726573735969656c644d6174683a20546f6f206661722066726f6d206d617475726974795969656c644d6174683a20496e73756666696369656e742044616920726573657276657345524332303a2064656372656173656420616c6c6f77616e63652062656c6f77207a65726fa26469706673582212201cf2b7083065c666310536756b2d3b8d4206929aaa0d251580aab034ae044f4f64736f6c634300060a0033",
  "immutableReferences": {
    "22907": [
      {
        "length": 32,
        "start": 2004
      },
      {
        "length": 32,
        "start": 2138
      },
      {
        "length": 32,
        "start": 2208
      },
      {
        "length": 32,
        "start": 2354
      },
      {
        "length": 32,
        "start": 2553
      },
      {
        "length": 32,
        "start": 3451
      },
      {
        "length": 32,
        "start": 3576
      },
      {
        "length": 32,
        "start": 3710
      },
      {
        "length": 32,
        "start": 3943
      },
      {
        "length": 32,
        "start": 4089
      },
      {
        "length": 32,
        "start": 4285
      },
      {
        "length": 32,
        "start": 4682
      },
      {
        "length": 32,
        "start": 5449
      },
      {
        "length": 32,
        "start": 6286
      },
      {
        "length": 32,
        "start": 6930
      },
      {
        "length": 32,
        "start": 7559
      },
      {
        "length": 32,
        "start": 8136
      }
    ]
  },
  "source": "// SPDX-License-Identifier: GPL-3.0-or-later\r\npragma solidity ^0.6.10;\r\n\r\nimport \"@openzeppelin/contracts/token/ERC20/ERC20.sol\";\r\nimport \"@openzeppelin/contracts/token/ERC20/IERC20.sol\";\r\nimport \"./YieldMath.sol\";\r\nimport \"../helpers/Delegable.sol\";\r\nimport \"../interfaces/IPot.sol\";\r\nimport \"../interfaces/IYDai.sol\";\r\nimport \"../interfaces/IPool.sol\";\r\n\r\n\r\n\r\n/// @dev The Pool contract exchanges Dai for yDai at a price defined by a specific formula.\r\ncontract Pool is IPool, ERC20, Delegable {\r\n\r\n    event Trade(uint256 maturity, address indexed from, address indexed to, int256 daiTokens, int256 yDaiTokens);\r\n    event Liquidity(uint256 maturity, address indexed from, address indexed to, int256 daiTokens, int256 yDaiTokens, int256 poolTokens);\r\n\r\n    int128 constant public k = int128(uint256((1 << 64)) / 126144000); // 1 / Seconds in 4 years, in 64.64\r\n    int128 constant public g = int128(uint256((999 << 64)) / 1000); // All constants are `ufixed`, to divide them they must be converted to uint256\r\n    uint128 immutable public maturity;\r\n\r\n    IERC20 public override dai;\r\n    IYDai public override yDai;\r\n\r\n    constructor(address dai_, address yDai_, string memory name_, string memory symbol_)\r\n        public\r\n        ERC20(name_, symbol_)\r\n        Delegable()\r\n    {\r\n        dai = IERC20(dai_);\r\n        yDai = IYDai(yDai_);\r\n\r\n        maturity = toUint128(yDai.maturity());\r\n    }\r\n\r\n    /// @dev Trading can only be done before maturity\r\n    modifier beforeMaturity() {\r\n        require(\r\n            now < maturity,\r\n            \"Pool: Too late\"\r\n        );\r\n        _;\r\n    }\r\n\r\n    /// @dev Overflow-protected addition, from OpenZeppelin\r\n    function add(uint128 a, uint128 b)\r\n        internal pure returns (uint128)\r\n    {\r\n        uint128 c = a + b;\r\n        require(c >= a, \"Pool: Dai reserves too high\");\r\n\r\n        return c;\r\n    }\r\n\r\n    /// @dev Overflow-protected substraction, from OpenZeppelin\r\n    function sub(uint128 a, uint128 b) internal pure returns (uint128) {\r\n        require(b <= a, \"Pool: yDai reserves too low\");\r\n        uint128 c = a - b;\r\n\r\n        return c;\r\n    }\r\n\r\n    /// @dev Safe casting from uint256 to uint128\r\n    function toUint128(uint256 x) internal pure returns(uint128) {\r\n        require(\r\n            x <= type(uint128).max,\r\n            \"Pool: Cast overflow\"\r\n        );\r\n        return uint128(x);\r\n    }\r\n\r\n    /// @dev Safe casting from uint256 to int256\r\n    function toInt256(uint256 x) internal pure returns(int256) {\r\n        require(\r\n            x <= uint256(type(int256).max),\r\n            \"Pool: Cast overflow\"\r\n        );\r\n        return int256(x);\r\n    }\r\n\r\n    /// @dev Mint initial liquidity tokens.\r\n    /// The liquidity provider needs to have called `dai.approve`\r\n    /// @param daiIn The initial Dai liquidity to provide.\r\n    function init(uint128 daiIn)\r\n        external\r\n        beforeMaturity\r\n    {\r\n        require(\r\n            totalSupply() == 0,\r\n            \"Pool: Already initialized\"\r\n        );\r\n        // no yDai transferred, because initial yDai deposit is entirely virtual\r\n        dai.transferFrom(msg.sender, address(this), daiIn);\r\n        _mint(msg.sender, daiIn);\r\n        emit Liquidity(maturity, msg.sender, msg.sender, -toInt256(daiIn), 0, toInt256(daiIn));\r\n    }\r\n\r\n    /// @dev Mint liquidity tokens in exchange for adding dai and yDai\r\n    /// The liquidity provider needs to have called `dai.approve` and `yDai.approve`.\r\n    /// @param daiOffered Amount of `dai` being invested, an appropriate amount of `yDai` to be invested alongside will be calculated and taken by this function from the caller.\r\n    /// @return The amount of liquidity tokens minted.\r\n    function mint(uint256 daiOffered)\r\n        external\r\n        returns (uint256)\r\n    {\r\n        uint256 supply = totalSupply();\r\n        uint256 daiReserves = dai.balanceOf(address(this));\r\n        // use the actual reserves rather than the virtual reserves\r\n        uint256 yDaiReserves = yDai.balanceOf(address(this));\r\n        uint256 tokensMinted = supply.mul(daiOffered).div(daiReserves);\r\n        uint256 yDaiRequired = yDaiReserves.mul(tokensMinted).div(supply);\r\n\r\n        require(dai.transferFrom(msg.sender, address(this), daiOffered));\r\n        require(yDai.transferFrom(msg.sender, address(this), yDaiRequired));\r\n        _mint(msg.sender, tokensMinted);\r\n        emit Liquidity(maturity, msg.sender, msg.sender, -toInt256(daiOffered), -toInt256(yDaiRequired), toInt256(tokensMinted));\r\n\r\n        return tokensMinted;\r\n    }\r\n\r\n    /// @dev Burn liquidity tokens in exchange for dai and yDai.\r\n    /// The liquidity provider needs to have called `pool.approve`.\r\n    /// @param tokensBurned Amount of liquidity tokens being burned.\r\n    /// @return The amount of reserve tokens returned (daiTokens, yDaiTokens).\r\n    function burn(uint256 tokensBurned)\r\n        external\r\n        returns (uint256, uint256)\r\n    {\r\n        uint256 supply = totalSupply();\r\n        uint256 daiReserves = dai.balanceOf(address(this));\r\n        // use the actual reserves rather than the virtual reserves\r\n        uint256 yDaiReserves = yDai.balanceOf(address(this));\r\n        uint256 daiReturned = tokensBurned.mul(daiReserves).div(supply);\r\n        uint256 yDaiReturned = tokensBurned.mul(yDaiReserves).div(supply);\r\n\r\n        _burn(msg.sender, tokensBurned);\r\n        dai.transfer(msg.sender, daiReturned);\r\n        yDai.transfer(msg.sender, yDaiReturned);\r\n        emit Liquidity(maturity, msg.sender, msg.sender, toInt256(daiReturned), toInt256(yDaiReturned), -toInt256(tokensBurned));\r\n\r\n        return (daiReturned, yDaiReturned);\r\n    }\r\n\r\n    /// @dev Sell Dai for yDai\r\n    /// The trader needs to have called `dai.approve`\r\n    /// @param from Wallet providing the dai being sold. Must have approved the operator with `pool.addDelegate(operator)`.\r\n    /// @param to Wallet receiving the yDai being bought\r\n    /// @param daiIn Amount of dai being sold that will be taken from the user's wallet\r\n    /// @return Amount of yDai that will be deposited on `to` wallet\r\n    function sellDai(address from, address to, uint128 daiIn)\r\n        external override\r\n        onlyHolderOrDelegate(from, \"Pool: Only Holder Or Delegate\")\r\n        returns(uint128)\r\n    {\r\n        uint128 yDaiOut = sellDaiPreview(daiIn);\r\n\r\n        dai.transferFrom(from, address(this), daiIn);\r\n        yDai.transfer(to, yDaiOut);\r\n        emit Trade(maturity, from, to, -toInt256(daiIn), toInt256(yDaiOut));\r\n\r\n        return yDaiOut;\r\n    }\r\n\r\n    /// @dev Returns how much yDai would be obtained by selling `daiIn` dai\r\n    /// @param daiIn Amount of dai hypothetically sold.\r\n    /// @return Amount of yDai hypothetically bought.\r\n    function sellDaiPreview(uint128 daiIn)\r\n        public view override\r\n        beforeMaturity\r\n        returns(uint128)\r\n    {\r\n        uint128 daiReserves = getDaiReserves();\r\n        uint128 yDaiReserves = getYDaiReserves();\r\n\r\n        uint128 yDaiOut = YieldMath.yDaiOutForDaiIn(\r\n            daiReserves,\r\n            yDaiReserves,\r\n            daiIn,\r\n            toUint128(maturity - now), // This can't be called after maturity\r\n            k,\r\n            g\r\n        );\r\n\r\n        require(\r\n            sub(yDaiReserves, yDaiOut) >= add(daiReserves, daiIn),\r\n            \"Pool: yDai reserves too low\"\r\n        );\r\n\r\n        return yDaiOut;\r\n    }\r\n\r\n    /// @dev Buy Dai for yDai\r\n    /// The trader needs to have called `yDai.approve`\r\n    /// @param from Wallet providing the yDai being sold. Must have approved the operator with `pool.addDelegate(operator)`.\r\n    /// @param to Wallet receiving the dai being bought\r\n    /// @param daiOut Amount of dai being bought that will be deposited in `to` wallet\r\n    /// @return Amount of yDai that will be taken from `from` wallet\r\n    function buyDai(address from, address to, uint128 daiOut)\r\n        external override\r\n        onlyHolderOrDelegate(from, \"Pool: Only Holder Or Delegate\")\r\n        returns(uint128)\r\n    {\r\n        uint128 yDaiIn = buyDaiPreview(daiOut);\r\n\r\n        yDai.transferFrom(from, address(this), yDaiIn);\r\n        dai.transfer(to, daiOut);\r\n        emit Trade(maturity, from, to, toInt256(daiOut), -toInt256(yDaiIn));\r\n\r\n        return yDaiIn;\r\n    }\r\n\r\n    /// @dev Returns how much yDai would be required to buy `daiOut` dai.\r\n    /// @param daiOut Amount of dai hypothetically desired.\r\n    /// @return Amount of yDai hypothetically required.\r\n    function buyDaiPreview(uint128 daiOut)\r\n        public view override\r\n        beforeMaturity\r\n        returns(uint128)\r\n    {\r\n        return YieldMath.yDaiInForDaiOut(\r\n            getDaiReserves(),\r\n            getYDaiReserves(),\r\n            daiOut,\r\n            toUint128(maturity - now), // This can't be called after maturity\r\n            k,\r\n            g\r\n        );\r\n    }\r\n\r\n    /// @dev Sell yDai for Dai\r\n    /// The trader needs to have called `yDai.approve`\r\n    /// @param from Wallet providing the yDai being sold. Must have approved the operator with `pool.addDelegate(operator)`.\r\n    /// @param to Wallet receiving the dai being bought\r\n    /// @param yDaiIn Amount of yDai being sold that will be taken from the user's wallet\r\n    /// @return Amount of dai that will be deposited on `to` wallet\r\n    function sellYDai(address from, address to, uint128 yDaiIn)\r\n        external override\r\n        onlyHolderOrDelegate(from, \"Pool: Only Holder Or Delegate\")\r\n        returns(uint128)\r\n    {\r\n        uint128 daiOut = sellYDaiPreview(yDaiIn);\r\n\r\n        yDai.transferFrom(from, address(this), yDaiIn);\r\n        dai.transfer(to, daiOut);\r\n        emit Trade(maturity, from, to, toInt256(daiOut), -toInt256(yDaiIn));\r\n\r\n        return daiOut;\r\n    }\r\n\r\n    /// @dev Returns how much dai would be obtained by selling `yDaiIn` yDai.\r\n    /// @param yDaiIn Amount of yDai hypothetically sold.\r\n    /// @return Amount of Dai hypothetically bought.\r\n    function sellYDaiPreview(uint128 yDaiIn)\r\n        public view override\r\n        beforeMaturity\r\n        returns(uint128)\r\n    {\r\n        return YieldMath.daiOutForYDaiIn(\r\n            getDaiReserves(),\r\n            getYDaiReserves(),\r\n            yDaiIn,\r\n            toUint128(maturity - now), // This can't be called after maturity\r\n            k,\r\n            g\r\n        );\r\n    }\r\n\r\n    /// @dev Buy yDai for dai\r\n    /// The trader needs to have called `dai.approve`\r\n    /// @param from Wallet providing the dai being sold. Must have approved the operator with `pool.addDelegate(operator)`.\r\n    /// @param to Wallet receiving the yDai being bought\r\n    /// @param yDaiOut Amount of yDai being bought that will be deposited in `to` wallet\r\n    /// @return Amount of dai that will be taken from `from` wallet\r\n    function buyYDai(address from, address to, uint128 yDaiOut)\r\n        external override\r\n        onlyHolderOrDelegate(from, \"Pool: Only Holder Or Delegate\")\r\n        returns(uint128)\r\n    {\r\n        uint128 daiIn = buyYDaiPreview(yDaiOut);\r\n\r\n        dai.transferFrom(from, address(this), daiIn);\r\n        yDai.transfer(to, yDaiOut);\r\n        emit Trade(maturity, from, to, -toInt256(daiIn), toInt256(yDaiOut));\r\n\r\n        return daiIn;\r\n    }\r\n\r\n\r\n    /// @dev Returns how much dai would be required to buy `yDaiOut` yDai.\r\n    /// @param yDaiOut Amount of yDai hypothetically desired.\r\n    /// @return Amount of Dai hypothetically required.\r\n    function buyYDaiPreview(uint128 yDaiOut)\r\n        public view override\r\n        beforeMaturity\r\n        returns(uint128)\r\n    {\r\n        uint128 daiReserves = getDaiReserves();\r\n        uint128 yDaiReserves = getYDaiReserves();\r\n\r\n        uint128 daiIn = YieldMath.daiInForYDaiOut(\r\n            daiReserves,\r\n            yDaiReserves,\r\n            yDaiOut,\r\n            toUint128(maturity - now), // This can't be called after maturity\r\n            k,\r\n            g\r\n        );\r\n\r\n        require(\r\n            sub(yDaiReserves, yDaiOut) >= add(daiReserves, daiIn),\r\n            \"Pool: yDai reserves too low\"\r\n        );\r\n\r\n        return daiIn;\r\n    }\r\n\r\n    /// @dev Returns the \"virtual\" yDai reserves\r\n    function getYDaiReserves()\r\n        public view\r\n        returns(uint128)\r\n    {\r\n        return toUint128(yDai.balanceOf(address(this)) + totalSupply());\r\n    }\r\n\r\n    /// @dev Returns the Dai reserves\r\n    function getDaiReserves()\r\n        public view\r\n        returns(uint128)\r\n    {\r\n        return toUint128(dai.balanceOf(address(this)));\r\n    }\r\n}\r\n",
  "sourcePath": "C:\\Users\\bruce\\dev\\yield\\yDai\\contracts\\pool\\Pool.sol",
  "compiler": {
    "name": "solc",
    "version": "0.6.10+commit.00c0fcaf.Emscripten.clang"
  },
  "schemaVersion": "3.2.3",
  "updatedAt": "2020-08-19T15:25:34.009Z",
  "networkType": "ethereum",
  "devdoc": {
    "details": "The Pool contract exchanges Dai for yDai at a price defined by a specific formula.",
    "methods": {
      "addDelegate(address)": {
        "details": "Enable a delegate to act on the behalf of caller"
      },
      "allowance(address,address)": {
        "details": "See {IERC20-allowance}."
      },
      "approve(address,uint256)": {
        "details": "See {IERC20-approve}. Requirements: - `spender` cannot be the zero address."
      },
      "balanceOf(address)": {
        "details": "See {IERC20-balanceOf}."
      },
      "burn(uint256)": {
        "details": "Burn liquidity tokens in exchange for dai and yDai. The liquidity provider needs to have called `pool.approve`.",
        "params": {
          "tokensBurned": "Amount of liquidity tokens being burned."
        },
        "returns": {
          "_0": "The amount of reserve tokens returned (daiTokens, yDaiTokens)."
        }
      },
      "buyDai(address,address,uint128)": {
        "details": "Buy Dai for yDai The trader needs to have called `yDai.approve`",
        "params": {
          "daiOut": "Amount of dai being bought that will be deposited in `to` wallet",
          "from": "Wallet providing the yDai being sold. Must have approved the operator with `pool.addDelegate(operator)`.",
          "to": "Wallet receiving the dai being bought"
        },
        "returns": {
          "_0": "Amount of yDai that will be taken from `from` wallet"
        }
      },
      "buyDaiPreview(uint128)": {
        "details": "Returns how much yDai would be required to buy `daiOut` dai.",
        "params": {
          "daiOut": "Amount of dai hypothetically desired."
        },
        "returns": {
          "_0": "Amount of yDai hypothetically required."
        }
      },
      "buyYDai(address,address,uint128)": {
        "details": "Buy yDai for dai The trader needs to have called `dai.approve`",
        "params": {
          "from": "Wallet providing the dai being sold. Must have approved the operator with `pool.addDelegate(operator)`.",
          "to": "Wallet receiving the yDai being bought",
          "yDaiOut": "Amount of yDai being bought that will be deposited in `to` wallet"
        },
        "returns": {
          "_0": "Amount of dai that will be taken from `from` wallet"
        }
      },
      "buyYDaiPreview(uint128)": {
        "details": "Returns how much dai would be required to buy `yDaiOut` yDai.",
        "params": {
          "yDaiOut": "Amount of yDai hypothetically desired."
        },
        "returns": {
          "_0": "Amount of Dai hypothetically required."
        }
      },
      "decimals()": {
        "details": "Returns the number of decimals used to get its user representation. For example, if `decimals` equals `2`, a balance of `505` tokens should be displayed to a user as `5,05` (`505 / 10 ** 2`). Tokens usually opt for a value of 18, imitating the relationship between Ether and Wei. This is the value {ERC20} uses, unless {_setupDecimals} is called. NOTE: This information is only used for _display_ purposes: it in no way affects any of the arithmetic of the contract, including {IERC20-balanceOf} and {IERC20-transfer}."
      },
      "decreaseAllowance(address,uint256)": {
        "details": "Atomically decreases the allowance granted to `spender` by the caller. This is an alternative to {approve} that can be used as a mitigation for problems described in {IERC20-approve}. Emits an {Approval} event indicating the updated allowance. Requirements: - `spender` cannot be the zero address. - `spender` must have allowance for the caller of at least `subtractedValue`."
      },
      "getDaiReserves()": {
        "details": "Returns the Dai reserves"
      },
      "getYDaiReserves()": {
        "details": "Returns the \"virtual\" yDai reserves"
      },
      "increaseAllowance(address,uint256)": {
        "details": "Atomically increases the allowance granted to `spender` by the caller. This is an alternative to {approve} that can be used as a mitigation for problems described in {IERC20-approve}. Emits an {Approval} event indicating the updated allowance. Requirements: - `spender` cannot be the zero address."
      },
      "init(uint128)": {
        "details": "Mint initial liquidity tokens. The liquidity provider needs to have called `dai.approve`",
        "params": {
          "daiIn": "The initial Dai liquidity to provide."
        }
      },
      "mint(uint256)": {
        "details": "Mint liquidity tokens in exchange for adding dai and yDai The liquidity provider needs to have called `dai.approve` and `yDai.approve`.",
        "params": {
          "daiOffered": "Amount of `dai` being invested, an appropriate amount of `yDai` to be invested alongside will be calculated and taken by this function from the caller."
        },
        "returns": {
          "_0": "The amount of liquidity tokens minted."
        }
      },
      "name()": {
        "details": "Returns the name of the token."
      },
      "revokeDelegate(address)": {
        "details": "Stop a delegate from acting on the behalf of caller"
      },
      "sellDai(address,address,uint128)": {
        "details": "Sell Dai for yDai The trader needs to have called `dai.approve`",
        "params": {
          "daiIn": "Amount of dai being sold that will be taken from the user's wallet",
          "from": "Wallet providing the dai being sold. Must have approved the operator with `pool.addDelegate(operator)`.",
          "to": "Wallet receiving the yDai being bought"
        },
        "returns": {
          "_0": "Amount of yDai that will be deposited on `to` wallet"
        }
      },
      "sellDaiPreview(uint128)": {
        "details": "Returns how much yDai would be obtained by selling `daiIn` dai",
        "params": {
          "daiIn": "Amount of dai hypothetically sold."
        },
        "returns": {
          "_0": "Amount of yDai hypothetically bought."
        }
      },
      "sellYDai(address,address,uint128)": {
        "details": "Sell yDai for Dai The trader needs to have called `yDai.approve`",
        "params": {
          "from": "Wallet providing the yDai being sold. Must have approved the operator with `pool.addDelegate(operator)`.",
          "to": "Wallet receiving the dai being bought",
          "yDaiIn": "Amount of yDai being sold that will be taken from the user's wallet"
        },
        "returns": {
          "_0": "Amount of dai that will be deposited on `to` wallet"
        }
      },
      "sellYDaiPreview(uint128)": {
        "details": "Returns how much dai would be obtained by selling `yDaiIn` yDai.",
        "params": {
          "yDaiIn": "Amount of yDai hypothetically sold."
        },
        "returns": {
          "_0": "Amount of Dai hypothetically bought."
        }
      },
      "symbol()": {
        "details": "Returns the symbol of the token, usually a shorter version of the name."
      },
      "totalSupply()": {
        "details": "See {IERC20-totalSupply}."
      },
      "transfer(address,uint256)": {
        "details": "See {IERC20-transfer}. Requirements: - `recipient` cannot be the zero address. - the caller must have a balance of at least `amount`."
      },
      "transferFrom(address,address,uint256)": {
        "details": "See {IERC20-transferFrom}. Emits an {Approval} event indicating the updated allowance. This is not required by the EIP. See the note at the beginning of {ERC20}; Requirements: - `sender` and `recipient` cannot be the zero address. - `sender` must have a balance of at least `amount`. - the caller must have allowance for ``sender``'s tokens of at least `amount`."
      }
    }
  },
  "userdoc": {
    "methods": {}
  }
}