{
  "contractName": "Pool",
  "abi": [
    {
      "inputs": [
        {
          "internalType": "address",
          "name": "dai_",
          "type": "address"
        },
        {
          "internalType": "address",
          "name": "yDai_",
          "type": "address"
        },
        {
          "internalType": "string",
          "name": "name_",
          "type": "string"
        },
        {
          "internalType": "string",
          "name": "symbol_",
          "type": "string"
        }
      ],
      "stateMutability": "nonpayable",
      "type": "constructor"
    },
    {
      "anonymous": false,
      "inputs": [
        {
          "indexed": true,
          "internalType": "address",
          "name": "owner",
          "type": "address"
        },
        {
          "indexed": true,
          "internalType": "address",
          "name": "spender",
          "type": "address"
        },
        {
          "indexed": false,
          "internalType": "uint256",
          "name": "value",
          "type": "uint256"
        }
      ],
      "name": "Approval",
      "type": "event"
    },
    {
      "anonymous": false,
      "inputs": [
        {
          "indexed": true,
          "internalType": "address",
          "name": "user",
          "type": "address"
        },
        {
          "indexed": true,
          "internalType": "address",
          "name": "delegate",
          "type": "address"
        },
        {
          "indexed": false,
          "internalType": "bool",
          "name": "enabled",
          "type": "bool"
        }
      ],
      "name": "Delegate",
      "type": "event"
    },
    {
      "anonymous": false,
      "inputs": [
        {
          "indexed": false,
          "internalType": "uint256",
          "name": "maturity",
          "type": "uint256"
        },
        {
          "indexed": true,
          "internalType": "address",
          "name": "from",
          "type": "address"
        },
        {
          "indexed": true,
          "internalType": "address",
          "name": "to",
          "type": "address"
        },
        {
          "indexed": false,
          "internalType": "int256",
          "name": "daiTokens",
          "type": "int256"
        },
        {
          "indexed": false,
          "internalType": "int256",
          "name": "yDaiTokens",
          "type": "int256"
        },
        {
          "indexed": false,
          "internalType": "int256",
          "name": "poolTokens",
          "type": "int256"
        }
      ],
      "name": "Liquidity",
      "type": "event"
    },
    {
      "anonymous": false,
      "inputs": [
        {
          "indexed": false,
          "internalType": "uint256",
          "name": "maturity",
          "type": "uint256"
        },
        {
          "indexed": true,
          "internalType": "address",
          "name": "from",
          "type": "address"
        },
        {
          "indexed": true,
          "internalType": "address",
          "name": "to",
          "type": "address"
        },
        {
          "indexed": false,
          "internalType": "int256",
          "name": "daiTokens",
          "type": "int256"
        },
        {
          "indexed": false,
          "internalType": "int256",
          "name": "yDaiTokens",
          "type": "int256"
        }
      ],
      "name": "Trade",
      "type": "event"
    },
    {
      "anonymous": false,
      "inputs": [
        {
          "indexed": true,
          "internalType": "address",
          "name": "from",
          "type": "address"
        },
        {
          "indexed": true,
          "internalType": "address",
          "name": "to",
          "type": "address"
        },
        {
          "indexed": false,
          "internalType": "uint256",
          "name": "value",
          "type": "uint256"
        }
      ],
      "name": "Transfer",
      "type": "event"
    },
    {
      "inputs": [
        {
          "internalType": "address",
          "name": "delegate",
          "type": "address"
        }
      ],
      "name": "addDelegate",
      "outputs": [],
      "stateMutability": "nonpayable",
      "type": "function"
    },
    {
      "inputs": [
        {
          "internalType": "address",
          "name": "owner",
          "type": "address"
        },
        {
          "internalType": "address",
          "name": "spender",
          "type": "address"
        }
      ],
      "name": "allowance",
      "outputs": [
        {
          "internalType": "uint256",
          "name": "",
          "type": "uint256"
        }
      ],
      "stateMutability": "view",
      "type": "function",
      "constant": true
    },
    {
      "inputs": [
        {
          "internalType": "address",
          "name": "spender",
          "type": "address"
        },
        {
          "internalType": "uint256",
          "name": "amount",
          "type": "uint256"
        }
      ],
      "name": "approve",
      "outputs": [
        {
          "internalType": "bool",
          "name": "",
          "type": "bool"
        }
      ],
      "stateMutability": "nonpayable",
      "type": "function"
    },
    {
      "inputs": [
        {
          "internalType": "address",
          "name": "account",
          "type": "address"
        }
      ],
      "name": "balanceOf",
      "outputs": [
        {
          "internalType": "uint256",
          "name": "",
          "type": "uint256"
        }
      ],
      "stateMutability": "view",
      "type": "function",
      "constant": true
    },
    {
      "inputs": [],
      "name": "dai",
      "outputs": [
        {
          "internalType": "contract IERC20",
          "name": "",
          "type": "address"
        }
      ],
      "stateMutability": "view",
      "type": "function",
      "constant": true
    },
    {
      "inputs": [],
      "name": "decimals",
      "outputs": [
        {
          "internalType": "uint8",
          "name": "",
          "type": "uint8"
        }
      ],
      "stateMutability": "view",
      "type": "function",
      "constant": true
    },
    {
      "inputs": [
        {
          "internalType": "address",
          "name": "spender",
          "type": "address"
        },
        {
          "internalType": "uint256",
          "name": "subtractedValue",
          "type": "uint256"
        }
      ],
      "name": "decreaseAllowance",
      "outputs": [
        {
          "internalType": "bool",
          "name": "",
          "type": "bool"
        }
      ],
      "stateMutability": "nonpayable",
      "type": "function"
    },
    {
      "inputs": [
        {
          "internalType": "address",
          "name": "",
          "type": "address"
        },
        {
          "internalType": "address",
          "name": "",
          "type": "address"
        }
      ],
      "name": "delegated",
      "outputs": [
        {
          "internalType": "bool",
          "name": "",
          "type": "bool"
        }
      ],
      "stateMutability": "view",
      "type": "function",
      "constant": true
    },
    {
      "inputs": [],
      "name": "g",
      "outputs": [
        {
          "internalType": "int128",
          "name": "",
          "type": "int128"
        }
      ],
      "stateMutability": "view",
      "type": "function",
      "constant": true
    },
    {
      "inputs": [
        {
          "internalType": "address",
          "name": "spender",
          "type": "address"
        },
        {
          "internalType": "uint256",
          "name": "addedValue",
          "type": "uint256"
        }
      ],
      "name": "increaseAllowance",
      "outputs": [
        {
          "internalType": "bool",
          "name": "",
          "type": "bool"
        }
      ],
      "stateMutability": "nonpayable",
      "type": "function"
    },
    {
      "inputs": [],
      "name": "k",
      "outputs": [
        {
          "internalType": "int128",
          "name": "",
          "type": "int128"
        }
      ],
      "stateMutability": "view",
      "type": "function",
      "constant": true
    },
    {
      "inputs": [],
      "name": "maturity",
      "outputs": [
        {
          "internalType": "uint128",
          "name": "",
          "type": "uint128"
        }
      ],
      "stateMutability": "view",
      "type": "function",
      "constant": true
    },
    {
      "inputs": [],
      "name": "name",
      "outputs": [
        {
          "internalType": "string",
          "name": "",
          "type": "string"
        }
      ],
      "stateMutability": "view",
      "type": "function",
      "constant": true
    },
    {
      "inputs": [
        {
          "internalType": "address",
          "name": "delegate",
          "type": "address"
        }
      ],
      "name": "revokeDelegate",
      "outputs": [],
      "stateMutability": "nonpayable",
      "type": "function"
    },
    {
      "inputs": [],
      "name": "symbol",
      "outputs": [
        {
          "internalType": "string",
          "name": "",
          "type": "string"
        }
      ],
      "stateMutability": "view",
      "type": "function",
      "constant": true
    },
    {
      "inputs": [],
      "name": "totalSupply",
      "outputs": [
        {
          "internalType": "uint256",
          "name": "",
          "type": "uint256"
        }
      ],
      "stateMutability": "view",
      "type": "function",
      "constant": true
    },
    {
      "inputs": [
        {
          "internalType": "address",
          "name": "recipient",
          "type": "address"
        },
        {
          "internalType": "uint256",
          "name": "amount",
          "type": "uint256"
        }
      ],
      "name": "transfer",
      "outputs": [
        {
          "internalType": "bool",
          "name": "",
          "type": "bool"
        }
      ],
      "stateMutability": "nonpayable",
      "type": "function"
    },
    {
      "inputs": [
        {
          "internalType": "address",
          "name": "sender",
          "type": "address"
        },
        {
          "internalType": "address",
          "name": "recipient",
          "type": "address"
        },
        {
          "internalType": "uint256",
          "name": "amount",
          "type": "uint256"
        }
      ],
      "name": "transferFrom",
      "outputs": [
        {
          "internalType": "bool",
          "name": "",
          "type": "bool"
        }
      ],
      "stateMutability": "nonpayable",
      "type": "function"
    },
    {
      "inputs": [],
      "name": "yDai",
      "outputs": [
        {
          "internalType": "contract IYDai",
          "name": "",
          "type": "address"
        }
      ],
      "stateMutability": "view",
      "type": "function",
      "constant": true
    },
    {
      "inputs": [
        {
          "internalType": "uint128",
          "name": "daiIn",
          "type": "uint128"
        }
      ],
      "name": "init",
      "outputs": [],
      "stateMutability": "nonpayable",
      "type": "function"
    },
    {
      "inputs": [
        {
          "internalType": "uint256",
          "name": "daiOffered",
          "type": "uint256"
        }
      ],
      "name": "mint",
      "outputs": [
        {
          "internalType": "uint256",
          "name": "",
          "type": "uint256"
        }
      ],
      "stateMutability": "nonpayable",
      "type": "function"
    },
    {
      "inputs": [
        {
          "internalType": "uint256",
          "name": "tokensBurned",
          "type": "uint256"
        }
      ],
      "name": "burn",
      "outputs": [
        {
          "internalType": "uint256",
          "name": "",
          "type": "uint256"
        },
        {
          "internalType": "uint256",
          "name": "",
          "type": "uint256"
        }
      ],
      "stateMutability": "nonpayable",
      "type": "function"
    },
    {
      "inputs": [
        {
          "internalType": "address",
          "name": "from",
          "type": "address"
        },
        {
          "internalType": "address",
          "name": "to",
          "type": "address"
        },
        {
          "internalType": "uint128",
          "name": "daiIn",
          "type": "uint128"
        }
      ],
      "name": "sellDai",
      "outputs": [
        {
          "internalType": "uint128",
          "name": "",
          "type": "uint128"
        }
      ],
      "stateMutability": "nonpayable",
      "type": "function"
    },
    {
      "inputs": [
        {
          "internalType": "uint128",
          "name": "daiIn",
          "type": "uint128"
        }
      ],
      "name": "sellDaiPreview",
      "outputs": [
        {
          "internalType": "uint128",
          "name": "",
          "type": "uint128"
        }
      ],
      "stateMutability": "view",
      "type": "function",
      "constant": true
    },
    {
      "inputs": [
        {
          "internalType": "address",
          "name": "from",
          "type": "address"
        },
        {
          "internalType": "address",
          "name": "to",
          "type": "address"
        },
        {
          "internalType": "uint128",
          "name": "daiOut",
          "type": "uint128"
        }
      ],
      "name": "buyDai",
      "outputs": [
        {
          "internalType": "uint128",
          "name": "",
          "type": "uint128"
        }
      ],
      "stateMutability": "nonpayable",
      "type": "function"
    },
    {
      "inputs": [
        {
          "internalType": "uint128",
          "name": "daiOut",
          "type": "uint128"
        }
      ],
      "name": "buyDaiPreview",
      "outputs": [
        {
          "internalType": "uint128",
          "name": "",
          "type": "uint128"
        }
      ],
      "stateMutability": "view",
      "type": "function",
      "constant": true
    },
    {
      "inputs": [
        {
          "internalType": "address",
          "name": "from",
          "type": "address"
        },
        {
          "internalType": "address",
          "name": "to",
          "type": "address"
        },
        {
          "internalType": "uint128",
          "name": "yDaiIn",
          "type": "uint128"
        }
      ],
      "name": "sellYDai",
      "outputs": [
        {
          "internalType": "uint128",
          "name": "",
          "type": "uint128"
        }
      ],
      "stateMutability": "nonpayable",
      "type": "function"
    },
    {
      "inputs": [
        {
          "internalType": "uint128",
          "name": "yDaiIn",
          "type": "uint128"
        }
      ],
      "name": "sellYDaiPreview",
      "outputs": [
        {
          "internalType": "uint128",
          "name": "",
          "type": "uint128"
        }
      ],
      "stateMutability": "view",
      "type": "function",
      "constant": true
    },
    {
      "inputs": [
        {
          "internalType": "address",
          "name": "from",
          "type": "address"
        },
        {
          "internalType": "address",
          "name": "to",
          "type": "address"
        },
        {
          "internalType": "uint128",
          "name": "yDaiOut",
          "type": "uint128"
        }
      ],
      "name": "buyYDai",
      "outputs": [
        {
          "internalType": "uint128",
          "name": "",
          "type": "uint128"
        }
      ],
      "stateMutability": "nonpayable",
      "type": "function"
    },
    {
      "inputs": [
        {
          "internalType": "uint128",
          "name": "yDaiOut",
          "type": "uint128"
        }
      ],
      "name": "buyYDaiPreview",
      "outputs": [
        {
          "internalType": "uint128",
          "name": "",
          "type": "uint128"
        }
      ],
      "stateMutability": "view",
      "type": "function",
      "constant": true
    },
    {
      "inputs": [],
      "name": "getYDaiReserves",
      "outputs": [
        {
          "internalType": "uint128",
          "name": "",
          "type": "uint128"
        }
      ],
      "stateMutability": "view",
      "type": "function",
      "constant": true
    },
    {
      "inputs": [],
      "name": "getDaiReserves",
      "outputs": [
        {
          "internalType": "uint128",
          "name": "",
          "type": "uint128"
        }
      ],
      "stateMutability": "view",
      "type": "function",
      "constant": true
    }
  ],
  "bytecode": "0x60a06040523480156200001157600080fd5b506040516200556638038062005566833981810160405260808110156200003757600080fd5b815160208301516040808501805191519395929483019291846401000000008211156200006357600080fd5b9083019060208201858111156200007957600080fd5b82516401000000008111828201881017156200009457600080fd5b82525081516020918201929091019080838360005b83811015620000c3578181015183820152602001620000a9565b50505050905090810190601f168015620000f15780820380516001836020036101000a031916815260200191505b50604052602001805160405193929190846401000000008211156200011557600080fd5b9083019060208201858111156200012b57600080fd5b82516401000000008111828201881017156200014657600080fd5b82525081516020918201929091019080838360005b83811015620001755781810151838201526020016200015b565b50505050905090810190601f168015620001a35780820380516001836020036101000a031916815260200191505b50604052505082518391508290620001c390600390602085019062000316565b508051620001d990600490602084019062000316565b50506005805460ff1916601217905550600780546001600160a01b038087166001600160a01b03199283161790925560088054868416921691909117908190556040805163204f83f960e01b815290516200029793929092169163204f83f991600480820192602092909190829003018186803b1580156200025a57600080fd5b505afa1580156200026f573d6000803e3d6000fd5b505050506040513d60208110156200028657600080fd5b50516001600160e01b03620002b316565b6001600160801b0319608091821b16905250620003b092505050565b60006001600160801b0382111562000312576040805162461bcd60e51b815260206004820152601360248201527f506f6f6c3a2043617374206f766572666c6f7700000000000000000000000000604482015290519081900360640190fd5b5090565b828054600181600116156101000203166002900490600052602060002090601f016020900481019282601f106200035957805160ff191683800117855562000389565b8280016001018555821562000389579182015b82811115620003895782518255916020019190600101906200036c565b506200031292620003ad9250905b8082111562000312576000815560010162000397565b90565b60805160801c6151486200041e600039806107d4528061085a52806108a0528061093252806109f95280610d7b5280610df85280610e7e5280610f675280610ff952806110bd528061124a5280611549528061188e5280611b125280611d875280611fc852506151486000f3fe608060405234801561001057600080fd5b50600436106101f05760003560e01c8063a0712d681161010f578063d43fde70116100a2578063e71bdf4111610071578063e71bdf4114610694578063f4b9fa75146106ba578063f6bcbd31146106c2578063fa352c00146106f0576101f0565b8063d43fde7014610616578063d7a9dd6114610656578063dd62ed3e1461065e578063e2179b8e1461068c576101f0565b8063b26be922116100de578063b26be92214610535578063b4f40c6114610575578063c47b5b8314610596578063cc5783d3146105d6576101f0565b8063a0712d681461049c578063a457c2d7146104b9578063a9059cbb146104e5578063aef52e3f14610511576101f0565b8063395093511161018757806377d739f31161015657806377d739f31461043e57806385561a341461044657806395d89b411461046c5780639f1f7f6f14610474576101f0565b8063395093511461039057806342966c68146103bc5780634e20e952146103f257806370a0823114610418576101f0565b80631e4d81db116101c35780631e4d81db1461030e578063204f83f91461033457806323b872dd1461033c578063313ce56714610372576101f0565b806306fdde03146101f5578063095ea7b31461027257806318160ddd146102b257806318db7ee6146102cc575b600080fd5b6101fd610716565b6040805160208082528351818301528351919283929083019185019080838360005b8381101561023757818101518382015260200161021f565b50505050905090810190601f1680156102645780820380516001836020036101000a031916815260200191505b509250505060405180910390f35b61029e6004803603604081101561028857600080fd5b506001600160a01b0381351690602001356107ac565b604080519115158252519081900360200190f35b6102ba6107ca565b60408051918252519081900360200190f35b6102f2600480360360208110156102e257600080fd5b50356001600160801b03166107d0565b604080516001600160801b039092168252519081900360200190f35b6102f26004803603602081101561032457600080fd5b50356001600160801b031661089c565b6102f26109f7565b61029e6004803603606081101561035257600080fd5b506001600160a01b03813581169160208101359091169060400135610a1b565b61037a610aa9565b6040805160ff9092168252519081900360200190f35b61029e600480360360408110156103a657600080fd5b506001600160a01b038135169060200135610ab2565b6103d9600480360360208110156103d257600080fd5b5035610b06565b6040805192835260208301919091528051918290030190f35b6102f26004803603602081101561040857600080fd5b50356001600160801b0316610df4565b6102ba6004803603602081101561042e57600080fd5b50356001600160a01b0316610ec0565b6102f2610edb565b6102f26004803603602081101561045c57600080fd5b50356001600160801b0316610f63565b6101fd61105a565b61049a6004803603602081101561048a57600080fd5b50356001600160801b03166110bb565b005b6102ba600480360360208110156104b257600080fd5b50356112c4565b61029e600480360360408110156104cf57600080fd5b506001600160a01b0381351690602001356115c2565b61029e600480360360408110156104fb57600080fd5b506001600160a01b038135169060200135611630565b610519611644565b604080516001600160a01b039092168252519081900360200190f35b6102f26004803603606081101561054b57600080fd5b5080356001600160a01b0390811691602081013590911690604001356001600160801b0316611653565b61057d611905565b60408051600f92830b90920b8252519081900360200190f35b6102f2600480360360608110156105ac57600080fd5b5080356001600160a01b0390811691602081013590911690604001356001600160801b0316611914565b6102f2600480360360608110156105ec57600080fd5b5080356001600160a01b0390811691602081013590911690604001356001600160801b0316611b89565b6102f26004803603606081101561062c57600080fd5b5080356001600160a01b0390811691602081013590911690604001356001600160801b0316611dca565b6102f261200e565b6102ba6004803603604081101561067457600080fd5b506001600160a01b0381358116916020013516612098565b61057d6120c3565b61049a600480360360208110156106aa57600080fd5b50356001600160a01b03166120d6565b610519612142565b61029e600480360360408110156106d857600080fd5b506001600160a01b0381358116916020013516612151565b61049a6004803603602081101561070657600080fd5b50356001600160a01b0316612171565b60038054604080516020601f60026000196101006001881615020190951694909404938401819004810282018101909252828152606093909290918301828280156107a25780601f10610777576101008083540402835291602001916107a2565b820191906000526020600020905b81548152906001019060200180831161078557829003601f168201915b5050505050905090565b60006107c06107b96121d4565b84846121d8565b5060015b92915050565b60025490565b60007f00000000000000000000000000000000000000000000000000000000000000006001600160801b03164210610840576040805162461bcd60e51b815260206004820152600e60248201526d506f6f6c3a20546f6f206c61746560901b604482015290519081900360640190fd5b6107c461084b610edb565b61085361200e565b84610888427f00000000000000000000000000000000000000000000000000000000000000006001600160801b0316036122c4565b64220c523d7267ffbe76c8b439581061231c565b60007f00000000000000000000000000000000000000000000000000000000000000006001600160801b0316421061090c576040805162461bcd60e51b815260206004820152600e60248201526d506f6f6c3a20546f6f206c61746560901b604482015290519081900360640190fd5b6000610916610edb565b9050600061092261200e565b90506000610974838387610960427f00000000000000000000000000000000000000000000000000000000000000006001600160801b0316036122c4565b64220c523d7267ffbe76c8b4395810612421565b90506109808382612531565b6001600160801b03166109938387612597565b6001600160801b031610156109ef576040805162461bcd60e51b815260206004820152601b60248201527f506f6f6c3a207944616920726573657276657320746f6f206c6f770000000000604482015290519081900360640190fd5b949350505050565b7f000000000000000000000000000000000000000000000000000000000000000081565b6000610a28848484612606565b610a9e84610a346121d4565b610a998560405180606001604052806028815260200161503c602891396001600160a01b038a16600090815260016020526040812090610a726121d4565b6001600160a01b03168152602081019190915260400160002054919063ffffffff61276d16565b6121d8565b5060015b9392505050565b60055460ff1690565b60006107c0610abf6121d4565b84610a998560016000610ad06121d4565b6001600160a01b03908116825260208083019390935260409182016000908120918c16815292529020549063ffffffff6127c716565b6000806000610b136107ca565b600754604080516370a0823160e01b815230600482015290519293506000926001600160a01b03909216916370a0823191602480820192602092909190829003018186803b158015610b6457600080fd5b505afa158015610b78573d6000803e3d6000fd5b505050506040513d6020811015610b8e57600080fd5b5051600854604080516370a0823160e01b815230600482015290519293506000926001600160a01b03909216916370a0823191602480820192602092909190829003018186803b158015610be157600080fd5b505afa158015610bf5573d6000803e3d6000fd5b505050506040513d6020811015610c0b57600080fd5b505190506000610c3184610c25898663ffffffff61282116565b9063ffffffff61287a16565b90506000610c4985610c258a8663ffffffff61282116565b9050610c5533896128bc565b6007546040805163a9059cbb60e01b81523360048201526024810185905290516001600160a01b039092169163a9059cbb916044808201926020929091908290030181600087803b158015610ca957600080fd5b505af1158015610cbd573d6000803e3d6000fd5b505050506040513d6020811015610cd357600080fd5b50506008546040805163a9059cbb60e01b81523360048201526024810184905290516001600160a01b039092169163a9059cbb916044808201926020929091908290030181600087803b158015610d2957600080fd5b505af1158015610d3d573d6000803e3d6000fd5b505050506040513d6020811015610d5357600080fd5b50339050807fd9b421596e3bc3caf78305bc0d270566916f58cd61b71c9c2a3d923a3ea3ea8b7f0000000000000000000000000000000000000000000000000000000000000000610da3866129c4565b610dac866129c4565b610db58e6129c4565b604080516001600160801b0390951685526020850193909352838301919091526000036060830152519081900360800190a39095509350505050915091565b60007f00000000000000000000000000000000000000000000000000000000000000006001600160801b03164210610e64576040805162461bcd60e51b815260206004820152600e60248201526d506f6f6c3a20546f6f206c61746560901b604482015290519081900360640190fd5b6107c4610e6f610edb565b610e7761200e565b84610eac427f00000000000000000000000000000000000000000000000000000000000000006001600160801b0316036122c4565b64220c523d7267ffbe76c8b4395810612a18565b6001600160a01b031660009081526020819052604090205490565b600754604080516370a0823160e01b81523060048201529051600092610f5e926001600160a01b03909116916370a0823191602480820192602092909190829003018186803b158015610f2d57600080fd5b505afa158015610f41573d6000803e3d6000fd5b505050506040513d6020811015610f5757600080fd5b50516122c4565b905090565b60007f00000000000000000000000000000000000000000000000000000000000000006001600160801b03164210610fd3576040805162461bcd60e51b815260206004820152600e60248201526d506f6f6c3a20546f6f206c61746560901b604482015290519081900360640190fd5b6000610fdd610edb565b90506000610fe961200e565b9050600061103b838387611027427f00000000000000000000000000000000000000000000000000000000000000006001600160801b0316036122c4565b64220c523d7267ffbe76c8b4395810612b24565b90506110478386612531565b6001600160801b03166109938383612597565b60048054604080516020601f60026000196101006001881615020190951694909404938401819004810282018101909252828152606093909290918301828280156107a25780601f10610777576101008083540402835291602001916107a2565b7f00000000000000000000000000000000000000000000000000000000000000006001600160801b03164210611129576040805162461bcd60e51b815260206004820152600e60248201526d506f6f6c3a20546f6f206c61746560901b604482015290519081900360640190fd5b6111316107ca565b15611183576040805162461bcd60e51b815260206004820152601960248201527f506f6f6c3a20416c726561647920696e697469616c697a656400000000000000604482015290519081900360640190fd5b600754604080516323b872dd60e01b81523360048201523060248201526001600160801b038416604482015290516001600160a01b03909216916323b872dd916064808201926020929091908290030181600087803b1580156111e557600080fd5b505af11580156111f9573d6000803e3d6000fd5b505050506040513d602081101561120f57600080fd5b506112259050336001600160801b038316612c10565b33807fd9b421596e3bc3caf78305bc0d270566916f58cd61b71c9c2a3d923a3ea3ea8b7f000000000000000000000000000000000000000000000000000000000000000061127b6001600160801b0386166129c4565b6000036000611292876001600160801b03166129c4565b604080516001600160801b0390951685526020850193909352838301919091526060830152519081900360800190a350565b6000806112cf6107ca565b600754604080516370a0823160e01b815230600482015290519293506000926001600160a01b03909216916370a0823191602480820192602092909190829003018186803b15801561132057600080fd5b505afa158015611334573d6000803e3d6000fd5b505050506040513d602081101561134a57600080fd5b5051600854604080516370a0823160e01b815230600482015290519293506000926001600160a01b03909216916370a0823191602480820192602092909190829003018186803b15801561139d57600080fd5b505afa1580156113b1573d6000803e3d6000fd5b505050506040513d60208110156113c757600080fd5b5051905060006113e183610c25868963ffffffff61282116565b905060006113f985610c25858563ffffffff61282116565b600754604080516323b872dd60e01b8152336004820152306024820152604481018b905290519293506001600160a01b03909116916323b872dd916064808201926020929091908290030181600087803b15801561145657600080fd5b505af115801561146a573d6000803e3d6000fd5b505050506040513d602081101561148057600080fd5b505161148b57600080fd5b600854604080516323b872dd60e01b81523360048201523060248201526044810184905290516001600160a01b03909216916323b872dd916064808201926020929091908290030181600087803b1580156114e557600080fd5b505af11580156114f9573d6000803e3d6000fd5b505050506040513d602081101561150f57600080fd5b505161151a57600080fd5b6115243383612c10565b33807fd9b421596e3bc3caf78305bc0d270566916f58cd61b71c9c2a3d923a3ea3ea8b7f00000000000000000000000000000000000000000000000000000000000000006115718b6129c4565b60000361157d866129c4565b600003611589886129c4565b604080516001600160801b0390951685526020850193909352838301919091526060830152519081900360800190a35095945050505050565b60006107c06115cf6121d4565b84610a99856040518060600160405280602581526020016150ee60259139600160006115f96121d4565b6001600160a01b03908116825260208083019390935260409182016000908120918d1681529252902054919063ffffffff61276d16565b60006107c061163d6121d4565b8484612606565b6008546001600160a01b031681565b6000836040518060400160405280601d8152602001600080516020615085833981519152815250816001600160a01b0316336001600160a01b031614806116bd57506001600160a01b038216600090815260066020908152604080832033845290915290205460ff165b81906117475760405162461bcd60e51b81526004018080602001828103825283818151815260200191508051906020019080838360005b8381101561170c5781810151838201526020016116f4565b50505050905090810190601f1680156117395780820380516001836020036101000a031916815260200191505b509250505060405180910390fd5b50600061175385610f63565b600754604080516323b872dd60e01b81526001600160a01b038b811660048301523060248301526001600160801b038a16604483015291519394509116916323b872dd916064808201926020929091908290030181600087803b1580156117b957600080fd5b505af11580156117cd573d6000803e3d6000fd5b505050506040513d60208110156117e357600080fd5b50506008546040805163a9059cbb60e01b81526001600160a01b0389811660048301526001600160801b03851660248301529151919092169163a9059cbb9160448083019260209291908290030181600087803b15801561184357600080fd5b505af1158015611857573d6000803e3d6000fd5b505050506040513d602081101561186d57600080fd5b50506001600160a01b03808716908816600080516020614ffb8339815191527f00000000000000000000000000000000000000000000000000000000000000006118bf6001600160801b038a166129c4565b6000036118d4866001600160801b03166129c4565b604080516001600160801b039094168452602084019290925282820152519081900360600190a39695505050505050565b630784ce00600160401b5b0481565b6000836040518060400160405280601d8152602001600080516020615085833981519152815250816001600160a01b0316336001600160a01b0316148061197e57506001600160a01b038216600090815260066020908152604080832033845290915290205460ff165b81906119cb5760405162461bcd60e51b815260206004820181815283516024840152835190928392604490910191908501908083836000831561170c5781810151838201526020016116f4565b5060006119d7856107d0565b600854604080516323b872dd60e01b81526001600160a01b038b811660048301523060248301526001600160801b038a16604483015291519394509116916323b872dd916064808201926020929091908290030181600087803b158015611a3d57600080fd5b505af1158015611a51573d6000803e3d6000fd5b505050506040513d6020811015611a6757600080fd5b50506007546040805163a9059cbb60e01b81526001600160a01b0389811660048301526001600160801b03851660248301529151919092169163a9059cbb9160448083019260209291908290030181600087803b158015611ac757600080fd5b505af1158015611adb573d6000803e3d6000fd5b505050506040513d6020811015611af157600080fd5b50506001600160a01b03808716908816600080516020614ffb8339815191527f0000000000000000000000000000000000000000000000000000000000000000611b436001600160801b0386166129c4565b611b558a6001600160801b03166129c4565b604080516001600160801b039094168452602084019290925260000382820152519081900360600190a39695505050505050565b6000836040518060400160405280601d8152602001600080516020615085833981519152815250816001600160a01b0316336001600160a01b03161480611bf357506001600160a01b038216600090815260066020908152604080832033845290915290205460ff165b8190611c405760405162461bcd60e51b815260206004820181815283516024840152835190928392604490910191908501908083836000831561170c5781810151838201526020016116f4565b506000611c4c85610df4565b600854604080516323b872dd60e01b81526001600160a01b038b811660048301523060248301526001600160801b038516604483015291519394509116916323b872dd916064808201926020929091908290030181600087803b158015611cb257600080fd5b505af1158015611cc6573d6000803e3d6000fd5b505050506040513d6020811015611cdc57600080fd5b50506007546040805163a9059cbb60e01b81526001600160a01b0389811660048301526001600160801b03891660248301529151919092169163a9059cbb9160448083019260209291908290030181600087803b158015611d3c57600080fd5b505af1158015611d50573d6000803e3d6000fd5b505050506040513d6020811015611d6657600080fd5b50506001600160a01b03808716908816600080516020614ffb8339815191527f0000000000000000000000000000000000000000000000000000000000000000611db86001600160801b038a166129c4565b611b55866001600160801b03166129c4565b6000836040518060400160405280601d8152602001600080516020615085833981519152815250816001600160a01b0316336001600160a01b03161480611e3457506001600160a01b038216600090815260066020908152604080832033845290915290205460ff165b8190611e815760405162461bcd60e51b815260206004820181815283516024840152835190928392604490910191908501908083836000831561170c5781810151838201526020016116f4565b506000611e8d8561089c565b600754604080516323b872dd60e01b81526001600160a01b038b811660048301523060248301526001600160801b038516604483015291519394509116916323b872dd916064808201926020929091908290030181600087803b158015611ef357600080fd5b505af1158015611f07573d6000803e3d6000fd5b505050506040513d6020811015611f1d57600080fd5b50506008546040805163a9059cbb60e01b81526001600160a01b0389811660048301526001600160801b03891660248301529151919092169163a9059cbb9160448083019260209291908290030181600087803b158015611f7d57600080fd5b505af1158015611f91573d6000803e3d6000fd5b505050506040513d6020811015611fa757600080fd5b50506001600160a01b03808716908816600080516020614ffb8339815191527f0000000000000000000000000000000000000000000000000000000000000000611ff96001600160801b0386166129c4565b6000036118d48a6001600160801b03166129c4565b6000610f5e61201b6107ca565b600854604080516370a0823160e01b815230600482015290516001600160a01b03909216916370a0823191602480820192602092909190829003018186803b15801561206657600080fd5b505afa15801561207a573d6000803e3d6000fd5b505050506040513d602081101561209057600080fd5b5051016122c4565b6001600160a01b03918216600090815260016020908152604080832093909416825291909152205490565b6103e86903e70000000000000000611910565b3360008181526006602090815260408083206001600160a01b03861680855290835292819020805460ff19166001908117909155815190815290519293927f045b0fef01772d2fbba53dbd38c9777806eac0865b00af43abcfbcaf50da9206929181900390910190a350565b6007546001600160a01b031681565b600660209081526000928352604080842090915290825290205460ff1681565b3360008181526006602090815260408083206001600160a01b038616808552908352818420805460ff19169055815193845290519093927f045b0fef01772d2fbba53dbd38c9777806eac0865b00af43abcfbcaf50da920692908290030190a350565b3390565b6001600160a01b03831661221d5760405162461bcd60e51b81526004018080602001828103825260248152602001806150ca6024913960400191505060405180910390fd5b6001600160a01b0382166122625760405162461bcd60e51b8152600401808060200182810382526022815260200180614fb36022913960400191505060405180910390fd5b6001600160a01b03808416600081815260016020908152604080832094871680845294825291829020859055815185815291517f8c5be1e5ebec7d5bd14f71427d1e84f3dd0314c0f7b2291e5b200ac8c7c3b9259281900390910190a3505050565b60006001600160801b03821115612318576040805162461bcd60e51b8152602060048201526013602482015272506f6f6c3a2043617374206f766572666c6f7760681b604482015290519081900360640190fd5b5090565b60008061233a84612335876001600160801b0316612d0c565b612d2a565b90506000612355600160401b6123508685612d2a565b612d61565b9050600081600f0b1361236757600080fd5b6001600160801b0388811690881601600160801b811061238657600080fd5b60006123978a84600160401b612d94565b6001600160801b03166123af8385600160401b612d94565b6001600160801b0316036123c88c85600160401b612d94565b6001600160801b0316039050600160801b81106123e457600080fd5b60006123f582600160401b86612d94565b8c036001600160801b03169050600160801b811061241257600080fd5b9b9a5050505050505050505050565b6000856001600160801b0316856001600160801b0316111561244257600080fd5b6000612466600160401b61235085612335886123358b6001600160801b0316612d0c565b9050600081600f0b1361247857600080fd5b6001600160801b0380871690881603600160801b811061249757600080fd5b60006124a88284600160401b612d94565b6001600160801b03166124c08a85600160401b612d94565b6001600160801b03166124d88c86600160401b612d94565b6001600160801b031601039050600160801b81106124f557600080fd5b60008a61250783600160401b87612d94565b036001600160801b03169050600160801b811061252357600080fd5b9a9950505050505050505050565b60008282016001600160801b038085169082161015610aa2576040805162461bcd60e51b815260206004820152601b60248201527f506f6f6c3a2044616920726573657276657320746f6f20686967680000000000604482015290519081900360640190fd5b6000826001600160801b0316826001600160801b03161115612600576040805162461bcd60e51b815260206004820152601b60248201527f506f6f6c3a207944616920726573657276657320746f6f206c6f770000000000604482015290519081900360640190fd5b50900390565b6001600160a01b03831661264b5760405162461bcd60e51b81526004018080602001828103825260258152602001806150a56025913960400191505060405180910390fd5b6001600160a01b0382166126905760405162461bcd60e51b8152600401808060200182810382526023815260200180614f6e6023913960400191505060405180910390fd5b61269b838383612e41565b6126de81604051806060016040528060268152602001614fd5602691396001600160a01b038616600090815260208190526040902054919063ffffffff61276d16565b6001600160a01b038085166000908152602081905260408082209390935590841681522054612713908263ffffffff6127c716565b6001600160a01b038084166000818152602081815260409182902094909455805185815290519193928716927fddf252ad1be2c89b69c2b068fc378daa952ba7f163c4a11628f55a4df523b3ef92918290030190a3505050565b600081848411156127bf5760405162461bcd60e51b815260206004820181815283516024840152835190928392604490910191908501908083836000831561170c5781810151838201526020016116f4565b505050900390565b600082820183811015610aa2576040805162461bcd60e51b815260206004820152601b60248201527f536166654d6174683a206164646974696f6e206f766572666c6f770000000000604482015290519081900360640190fd5b600082612830575060006107c4565b8282028284828161283d57fe5b0414610aa25760405162461bcd60e51b815260040180806020018281038252602181526020018061501b6021913960400191505060405180910390fd5b6000610aa283836040518060400160405280601a81526020017f536166654d6174683a206469766973696f6e206279207a65726f000000000000815250612e46565b6001600160a01b0382166129015760405162461bcd60e51b81526004018080602001828103825260218152602001806150646021913960400191505060405180910390fd5b61290d82600083612e41565b61295081604051806060016040528060228152602001614f91602291396001600160a01b038516600090815260208190526040902054919063ffffffff61276d16565b6001600160a01b03831660009081526020819052604090205560025461297c908263ffffffff612eab16565b6002556040805182815290516000916001600160a01b038516917fddf252ad1be2c89b69c2b068fc378daa952ba7f163c4a11628f55a4df523b3ef9181900360200190a35050565b60006001600160ff1b03821115612318576040805162461bcd60e51b8152602060048201526013602482015272506f6f6c3a2043617374206f766572666c6f7760681b604482015290519081900360640190fd5b6000866001600160801b0316856001600160801b03161115612a3957600080fd5b6000612a5184612335876001600160801b0316612d0c565b90506000612a67600160401b6123508685612d2a565b9050600081600f0b13612a7957600080fd5b6001600160801b03808816908a1603600160801b8110612a9857600080fd5b6000612aa98284600160401b612d94565b6001600160801b0316612ac18b85600160401b612d94565b6001600160801b0316612ad98d86600160401b612d94565b6001600160801b031601039050600160801b8110612af657600080fd5b60008a612b0883600160401b87612d94565b036001600160801b03169050600160801b811061241257600080fd5b600080612b3d84612335876001600160801b0316612d0c565b90506000612b53600160401b6123508685612d2a565b9050600081600f0b13612b6557600080fd5b6001600160801b0389811690881601600160801b8110612b8457600080fd5b6000612b958284600160401b612d94565b6001600160801b0316612bad8b85600160401b612d94565b6001600160801b0316612bc58d86600160401b612d94565b6001600160801b031601039050600160801b8110612be257600080fd5b6000612bf382600160401b86612d94565b8b036001600160801b03169050600160801b811061241257600080fd5b6001600160a01b038216612c6b576040805162461bcd60e51b815260206004820152601f60248201527f45524332303a206d696e7420746f20746865207a65726f206164647265737300604482015290519081900360640190fd5b612c7760008383612e41565b600254612c8a908263ffffffff6127c716565b6002556001600160a01b038216600090815260208190526040902054612cb6908263ffffffff6127c716565b6001600160a01b0383166000818152602081815260408083209490945583518581529351929391927fddf252ad1be2c89b69c2b068fc378daa952ba7f163c4a11628f55a4df523b3ef9281900390910190a35050565b6000677fffffffffffffff821115612d2357600080fd5b5060401b90565b6000600f83810b9083900b0260401d60016001607f1b03198112801590612d58575060016001607f1b038113155b610aa257600080fd5b6000600f82810b9084900b0360016001607f1b03198112801590612d58575060016001607f1b03811315610aa257600080fd5b60006001600160801b038216612da957600080fd5b6001600160801b038416612dd2576001600160801b038316612dca57600080fd5b506000610aa2565b6000826001600160801b0316846001600160801b0316612df187612eed565b6001600160801b03036001600160801b03160281612e0b57fe5b0490506001600160801b03811115612e27576000915050610aa2565b612e39816001600160801b0303613f38565b915050610aa2565b505050565b60008183612e955760405162461bcd60e51b815260206004820181815283516024840152835190928392604490910191908501908083836000831561170c5781810151838201526020016116f4565b506000838581612ea157fe5b0495945050505050565b6000610aa283836040518060400160405280601e81526020017f536166654d6174683a207375627472616374696f6e206f766572666c6f77000081525061276d565b60006001600160801b038216612f0257600080fd5b6001600160801b038216607f60791b600160401b821015612f2f5760409190911b9060016001607f1b0319015b600160601b821015612f565760209190911b906f3fffffffffffffffffffffffffffffff19015b600160701b821015612f7d5760109190911b906f1fffffffffffffffffffffffffffffff19015b600160781b821015612fa45760089190911b906f0fffffffffffffffffffffffffffffff19015b6001607c1b821015612fcb5760049190911b906f07ffffffffffffffffffffffffffffff19015b6001607e1b821015612ff25760029190911b906f03ffffffffffffffffffffffffffffff19015b6001607f1b8210156130195760019190911b906f01ffffffffffffffffffffffffffffff19015b908002607f1c90600160801b82106130395760019190911c90600160781b175b908002607f1c90600160801b82106130595760019190911c90600160771b175b908002607f1c90600160801b82106130795760019190911c90600160761b175b908002607f1c90600160801b82106130995760019190911c90600160751b175b908002607f1c90600160801b82106130b95760019190911c90600160741b175b908002607f1c90600160801b82106130d95760019190911c90600160731b175b908002607f1c90600160801b82106130f95760019190911c90600160721b175b908002607f1c90600160801b82106131195760019190911c90600160711b175b908002607f1c90600160801b82106131395760019190911c90600160701b175b908002607f1c90600160801b82106131595760019190911c906001606f1b175b908002607f1c90600160801b82106131795760019190911c906001606e1b175b908002607f1c90600160801b82106131995760019190911c906001606d1b175b908002607f1c90600160801b82106131b95760019190911c906001606c1b175b908002607f1c90600160801b82106131d95760019190911c906001606b1b175b908002607f1c90600160801b82106131f95760019190911c906001606a1b175b908002607f1c90600160801b82106132195760019190911c90600160691b175b908002607f1c90600160801b82106132395760019190911c90600160681b175b908002607f1c90600160801b82106132595760019190911c90600160671b175b908002607f1c90600160801b82106132795760019190911c90600160661b175b908002607f1c90600160801b82106132995760019190911c90600160651b175b908002607f1c90600160801b82106132b95760019190911c90600160641b175b908002607f1c90600160801b82106132d95760019190911c90600160631b175b908002607f1c90600160801b82106132f95760019190911c90600160621b175b908002607f1c90600160801b82106133195760019190911c90600160611b175b908002607f1c90600160801b82106133395760019190911c90600160601b175b908002607f1c90600160801b82106133595760019190911c906001605f1b175b908002607f1c90600160801b82106133795760019190911c906001605e1b175b908002607f1c90600160801b82106133995760019190911c906001605d1b175b908002607f1c90600160801b82106133b95760019190911c906001605c1b175b908002607f1c90600160801b82106133d95760019190911c906001605b1b175b908002607f1c90600160801b82106133f95760019190911c906001605a1b175b908002607f1c90600160801b82106134195760019190911c90600160591b175b908002607f1c90600160801b82106134395760019190911c90600160581b175b908002607f1c90600160801b82106134595760019190911c90600160571b175b908002607f1c90600160801b82106134795760019190911c90600160561b175b908002607f1c90600160801b82106134995760019190911c90600160551b175b908002607f1c90600160801b82106134b95760019190911c90600160541b175b908002607f1c90600160801b82106134d95760019190911c90600160531b175b908002607f1c90600160801b82106134f95760019190911c90600160521b175b908002607f1c90600160801b82106135195760019190911c90600160511b175b908002607f1c90600160801b82106135395760019190911c90600160501b175b908002607f1c90600160801b82106135595760019190911c906001604f1b175b908002607f1c90600160801b82106135795760019190911c906001604e1b175b908002607f1c90600160801b82106135995760019190911c906001604d1b175b908002607f1c90600160801b82106135b95760019190911c906001604c1b175b908002607f1c90600160801b82106135d95760019190911c906001604b1b175b908002607f1c90600160801b82106135f95760019190911c906001604a1b175b908002607f1c90600160801b82106136195760019190911c90600160491b175b908002607f1c90600160801b82106136395760019190911c90600160481b175b908002607f1c90600160801b82106136595760019190911c90600160471b175b908002607f1c90600160801b82106136795760019190911c90600160461b175b908002607f1c90600160801b82106136995760019190911c90600160451b175b908002607f1c90600160801b82106136b95760019190911c90600160441b175b908002607f1c90600160801b82106136d95760019190911c90600160431b175b908002607f1c90600160801b82106136f95760019190911c90600160421b175b908002607f1c90600160801b82106137195760019190911c90600160411b175b908002607f1c90600160801b82106137395760019190911c90600160401b175b908002607f1c90600160801b82106137595760019190911c906001603f1b175b908002607f1c90600160801b82106137795760019190911c906001603e1b175b908002607f1c90600160801b82106137995760019190911c906001603d1b175b908002607f1c90600160801b82106137b95760019190911c906001603c1b175b908002607f1c90600160801b82106137d95760019190911c906001603b1b175b908002607f1c90600160801b82106137f95760019190911c906001603a1b175b908002607f1c90600160801b82106138195760019190911c90600160391b175b908002607f1c90600160801b82106138395760019190911c90600160381b175b908002607f1c90600160801b821061385c5760019190911c906680000000000000175b908002607f1c90600160801b821061387f5760019190911c906640000000000000175b908002607f1c90600160801b82106138a25760019190911c906620000000000000175b908002607f1c90600160801b82106138c55760019190911c906610000000000000175b908002607f1c90600160801b82106138e85760019190911c906608000000000000175b908002607f1c90600160801b821061390b5760019190911c906604000000000000175b908002607f1c90600160801b821061392e5760019190911c906602000000000000175b908002607f1c90600160801b82106139515760019190911c906601000000000000175b908002607f1c90600160801b82106139735760019190911c9065800000000000175b908002607f1c90600160801b82106139955760019190911c9065400000000000175b908002607f1c90600160801b82106139b75760019190911c9065200000000000175b908002607f1c90600160801b82106139d95760019190911c9065100000000000175b908002607f1c90600160801b82106139fb5760019190911c9065080000000000175b908002607f1c90600160801b8210613a1d5760019190911c9065040000000000175b908002607f1c90600160801b8210613a3f5760019190911c9065020000000000175b908002607f1c90600160801b8210613a615760019190911c9065010000000000175b908002607f1c90600160801b8210613a825760019190911c90648000000000175b908002607f1c90600160801b8210613aa35760019190911c90644000000000175b908002607f1c90600160801b8210613ac45760019190911c90642000000000175b908002607f1c90600160801b8210613ae55760019190911c90641000000000175b908002607f1c90600160801b8210613b065760019190911c90640800000000175b908002607f1c90600160801b8210613b275760019190911c90640400000000175b908002607f1c90600160801b8210613b485760019190911c90640200000000175b908002607f1c90600160801b8210613b695760019190911c90640100000000175b908002607f1c90600160801b8210613b895760019190911c906380000000175b908002607f1c90600160801b8210613ba95760019190911c906340000000175b908002607f1c90600160801b8210613bc95760019190911c906320000000175b908002607f1c90600160801b8210613be95760019190911c906310000000175b908002607f1c90600160801b8210613c095760019190911c906308000000175b908002607f1c90600160801b8210613c295760019190911c906304000000175b908002607f1c90600160801b8210613c495760019190911c906302000000175b908002607f1c90600160801b8210613c695760019190911c906301000000175b908002607f1c90600160801b8210613c885760019190911c9062800000175b908002607f1c90600160801b8210613ca75760019190911c9062400000175b908002607f1c90600160801b8210613cc65760019190911c9062200000175b908002607f1c90600160801b8210613ce55760019190911c9062100000175b908002607f1c90600160801b8210613d045760019190911c9062080000175b908002607f1c90600160801b8210613d235760019190911c9062040000175b908002607f1c90600160801b8210613d425760019190911c9062020000175b908002607f1c90600160801b8210613d615760019190911c9062010000175b908002607f1c90600160801b8210613d7f5760019190911c90618000175b908002607f1c90600160801b8210613d9d5760019190911c90614000175b908002607f1c90600160801b8210613dbb5760019190911c90612000175b908002607f1c90600160801b8210613dd95760019190911c90611000175b908002607f1c90600160801b8210613df75760019190911c90610800175b908002607f1c90600160801b8210613e155760019190911c90610400175b908002607f1c90600160801b8210613e335760019190911c90610200175b908002607f1c90600160801b8210613e515760019190911c90610100175b908002607f1c90600160801b8210613e6e5760019190911c906080175b908002607f1c90600160801b8210613e8b5760019190911c906040175b908002607f1c90600160801b8210613ea85760019190911c906020175b908002607f1c90600160801b8210613ec55760019190911c906010175b908002607f1c90600160801b8210613ee25760019190911c906008175b908002607f1c90600160801b8210613eff5760019190911c906004175b908002607f1c90600160801b8210613f1c5760019190911c906002175b908002607f1c90600160801b8210610aa2576001179392505050565b60006001607f1b600160781b831615613f61576fb504f333f9de6484597d89b3754abe9f02607f1c5b600160771b831615613f83576f9837f0518db8a96f46ad23182e42f6f602607f1c5b600160761b831615613fa5576f8b95c1e3ea8bd6e6fbe4628758a53c9002607f1c5b600160751b831615613fc7576f85aac367cc487b14c5c95b8c2154c1b202607f1c5b600160741b831615613fe9576f82cd8698ac2ba1d73e2a475b46520bff02607f1c5b600160731b83161561400b576f8164d1f3bc0307737be56527bd14def402607f1c5b600160721b83161561402d576f80b1ed4fd999ab6c25335719b6e6fd2002607f1c5b600160711b83161561404f576f8058d7d2d5e5f6b094d589f608ee4aa202607f1c5b600160701b831615614071576f802c6436d0e04f50ff8ce94a6797b3ce02607f1c5b6001606f1b831615614093576f8016302f174676283690dfe44d11d00802607f1c5b6001606e1b8316156140b5576f800b179c82028fd0945e54e2ae18f2f002607f1c5b6001606d1b8316156140d7576f80058baf7fee3b5d1c718b38e549cb9302607f1c5b6001606c1b8316156140f9576f8002c5d00fdcfcb6b6566a58c048be1f02607f1c5b6001606b1b83161561411b576f800162e61bed4a48e84c2e1a463473d902607f1c5b6001606a1b83161561413d576f8000b17292f702a3aa22beacca94901302607f1c5b600160691b83161561415f576f800058b92abbae02030c5fa5256f41fe02607f1c5b600160681b831615614181576f80002c5c8dade4d71776c0f4dbea67d602607f1c5b600160671b8316156141a3576f8000162e44eaf636526be456600bdbe402607f1c5b600160661b8316156141c5576f80000b1721fa7c188307016c1cd4e8b602607f1c5b600160651b8316156141e7576f8000058b90de7e4cecfc487503488bb102607f1c5b600160641b831615614209576f800002c5c8678f36cbfce50a6de60b1402607f1c5b600160631b83161561422b576f80000162e431db9f80b2347b5d62e51602607f1c5b600160621b83161561424d576f800000b1721872d0c7b08cf1e011415202607f1c5b600160611b83161561426f576f80000058b90c1aa8a5c3736cb77e8dff02607f1c5b600160601b831615614291576f8000002c5c8605a4635f2efc2362d97802607f1c5b6001605f1b8316156142b3576f800000162e4300e635cf4a109e3939bd02607f1c5b6001605e1b8316156142d5576f8000000b17217ff81bef9c551590cf8302607f1c5b6001605d1b8316156142f7576f800000058b90bfdd4e39cd52c0cfa27c02607f1c5b6001605c1b831615614319576f80000002c5c85fe6f72d669e0e76e41102607f1c5b6001605b1b83161561433b576f8000000162e42ff18f9ad35186d0df2802607f1c5b6001605a1b83161561435d576f80000000b17217f84cce71aa0dcfffe702607f1c5b600160591b83161561437f576f8000000058b90bfc07a77ad56ed22aaa02607f1c5b600160581b8316156143a1576f800000002c5c85fdfc23cdead40da8d602607f1c5b600160571b8316156143c3576f80000000162e42fefc25eb1571853a6602607f1c5b600160561b8316156143e5576f800000000b17217f7d97f692baacded502607f1c5b600160551b831615614407576f80000000058b90bfbead3b8b5dd254d702607f1c5b600160541b831615614429576f8000000002c5c85fdf4eedd62f084e6702607f1c5b600160531b83161561444b576f800000000162e42fefa58aef378bf58602607f1c5b600160521b83161561446d576f8000000000b17217f7d24a78a3c7ef0202607f1c5b600160511b83161561448f576f800000000058b90bfbe9067c93e474a602607f1c5b600160501b8316156144b1576f80000000002c5c85fdf47b8e5a72599f02607f1c5b6001604f1b8316156144d3576f8000000000162e42fefa3bdb315934a202607f1c5b6001604e1b8316156144f5576f80000000000b17217f7d1d7299b49c4602607f1c5b6001604d1b831615614517576f8000000000058b90bfbe8e9a8d1c4ea002607f1c5b6001604c1b831615614539576f800000000002c5c85fdf4745969ea76f02607f1c5b6001604b1b83161561455b576f80000000000162e42fefa3a0df5373bf02607f1c5b6001604a1b83161561457d576f800000000000b17217f7d1cff4aac1e102607f1c5b600160491b83161561459f576f80000000000058b90bfbe8e7db95a2f102607f1c5b600160481b8316156145c1576f8000000000002c5c85fdf473e61ae1f802607f1c5b600160471b8316156145e3576f800000000000162e42fefa39f121751c02607f1c5b600160461b831615614605576f8000000000000b17217f7d1cf815bb9602607f1c5b600160451b831615614627576f800000000000058b90bfbe8e7bec1e0d02607f1c5b600160441b831615614649576f80000000000002c5c85fdf473dee5f1702607f1c5b600160431b83161561466b576f8000000000000162e42fefa39ef5438f02607f1c5b600160421b83161561468d576f80000000000000b17217f7d1cf7a26c802607f1c5b600160411b8316156146af576f8000000000000058b90bfbe8e7bcf4a402607f1c5b600160401b8316156146d1576f800000000000002c5c85fdf473de72a202607f1c5b6001603f1b8316156146f3576f80000000000000162e42fefa39ef376502607f1c5b6001603e1b831615614715576f800000000000000b17217f7d1cf79b3702607f1c5b6001603d1b831615614737576f80000000000000058b90bfbe8e7bcd7d02607f1c5b6001603c1b831615614759576f8000000000000002c5c85fdf473de6b602607f1c5b6001603b1b83161561477b576f800000000000000162e42fefa39ef35902607f1c5b6001603a1b83161561479d576f8000000000000000b17217f7d1cf79ac02607f1c5b600160391b8316156147bf576f800000000000000058b90bfbe8e7bcd602607f1c5b600160381b8316156147e1576f80000000000000002c5c85fdf473de6a02607f1c5b6680000000000000831615614806576f8000000000000000162e42fefa39ef3502607f1c5b664000000000000083161561482b576f80000000000000000b17217f7d1cf79a02607f1c5b6620000000000000831615614850576f8000000000000000058b90bfbe8e7bcd02607f1c5b6610000000000000831615614875576f800000000000000002c5c85fdf473de602607f1c5b660800000000000083161561489a576f80000000000000000162e42fefa39ef302607f1c5b66040000000000008316156148bf576f800000000000000000b17217f7d1cf7902607f1c5b66020000000000008316156148e4576f80000000000000000058b90bfbe8e7bc02607f1c5b6601000000000000831615614909576f8000000000000000002c5c85fdf473de02607f1c5b6580000000000083161561492d576f800000000000000000162e42fefa39ef02607f1c5b65400000000000831615614951576f8000000000000000000b17217f7d1cf702607f1c5b65200000000000831615614975576f800000000000000000058b90bfbe8e7b02607f1c5b65100000000000831615614999576f80000000000000000002c5c85fdf473d02607f1c5b650800000000008316156149bd576f8000000000000000000162e42fefa39e02607f1c5b650400000000008316156149e1576f80000000000000000000b17217f7d1cf02607f1c5b65020000000000831615614a05576f8000000000000000000058b90bfbe8e702607f1c5b65010000000000831615614a29576f800000000000000000002c5c85fdf47302607f1c5b648000000000831615614a4c576f80000000000000000000162e42fefa3902607f1c5b644000000000831615614a6f576f800000000000000000000b17217f7d1c02607f1c5b642000000000831615614a92576f80000000000000000000058b90bfbe8e02607f1c5b641000000000831615614ab5576f8000000000000000000002c5c85fdf4702607f1c5b640800000000831615614ad8576f800000000000000000000162e42fefa302607f1c5b640400000000831615614afb576f8000000000000000000000b17217f7d102607f1c5b640200000000831615614b1e576f800000000000000000000058b90bfbe802607f1c5b640100000000831615614b41576f80000000000000000000002c5c85fdf402607f1c5b6380000000831615614b63576f8000000000000000000000162e42fefa02607f1c5b6340000000831615614b85576f80000000000000000000000b17217f7d02607f1c5b6320000000831615614ba7576f8000000000000000000000058b90bfbe02607f1c5b6310000000831615614bc9576f800000000000000000000002c5c85fdf02607f1c5b6308000000831615614beb576f80000000000000000000000162e42fef02607f1c5b6304000000831615614c0d576f800000000000000000000000b17217f702607f1c5b6302000000831615614c2f576f80000000000000000000000058b90bfb02607f1c5b6301000000831615614c51576f8000000000000000000000002c5c85fd02607f1c5b62800000831615614c72576f800000000000000000000000162e42fe02607f1c5b62400000831615614c93576f8000000000000000000000000b17217f02607f1c5b62200000831615614cb4576f800000000000000000000000058b90bf02607f1c5b62100000831615614cd5576f80000000000000000000000002c5c85f02607f1c5b62080000831615614cf6576f8000000000000000000000000162e42f02607f1c5b62040000831615614d17576f80000000000000000000000000b1721702607f1c5b62020000831615614d38576f8000000000000000000000000058b90b02607f1c5b62010000831615614d59576f800000000000000000000000002c5c8502607f1c5b618000831615614d79576f80000000000000000000000000162e4202607f1c5b614000831615614d99576f800000000000000000000000000b172102607f1c5b612000831615614db9576f80000000000000000000000000058b9002607f1c5b611000831615614dd9576f8000000000000000000000000002c5c802607f1c5b610800831615614df9576f800000000000000000000000000162e402607f1c5b610400831615614e19576f8000000000000000000000000000b17202607f1c5b610200831615614e39576f800000000000000000000000000058b902607f1c5b610100831615614e59576f80000000000000000000000000002c5c02607f1c5b6080831615614e78576f8000000000000000000000000000162e02607f1c5b6040831615614e97576f80000000000000000000000000000b1702607f1c5b6020831615614eb6576f8000000000000000000000000000058b02607f1c5b6010831615614ed5576f800000000000000000000000000002c502607f1c5b6008831615614ef4576f8000000000000000000000000000016202607f1c5b6004831615614f13576f800000000000000000000000000000b102607f1c5b6002831615614f32576f8000000000000000000000000000005802607f1c5b6001831615614f51576f8000000000000000000000000000002c02607f1c5b607f607984901c811690036001600160801b03161c905091905056fe45524332303a207472616e7366657220746f20746865207a65726f206164647265737345524332303a206275726e20616d6f756e7420657863656564732062616c616e636545524332303a20617070726f766520746f20746865207a65726f206164647265737345524332303a207472616e7366657220616d6f756e7420657863656564732062616c616e63653f207773c457c66e004ab34e2ce7ae1fcafc7b4c3286f63997c8742801421915536166654d6174683a206d756c7469706c69636174696f6e206f766572666c6f7745524332303a207472616e7366657220616d6f756e74206578636565647320616c6c6f77616e636545524332303a206275726e2066726f6d20746865207a65726f2061646472657373506f6f6c3a204f6e6c7920486f6c646572204f722044656c656761746500000045524332303a207472616e736665722066726f6d20746865207a65726f206164647265737345524332303a20617070726f76652066726f6d20746865207a65726f206164647265737345524332303a2064656372656173656420616c6c6f77616e63652062656c6f77207a65726fa264697066735822122011e52e75a117979b66dfde85f2451827e043e0e898757f6ccfb31260b1534acf64736f6c634300060a0033",
  "immutableReferences": {
    "20028": [
      {
        "length": 32,
        "start": 2004
      },
      {
        "length": 32,
        "start": 2138
      },
      {
        "length": 32,
        "start": 2208
      },
      {
        "length": 32,
        "start": 2354
      },
      {
        "length": 32,
        "start": 2553
      },
      {
        "length": 32,
        "start": 3451
      },
      {
        "length": 32,
        "start": 3576
      },
      {
        "length": 32,
        "start": 3710
      },
      {
        "length": 32,
        "start": 3943
      },
      {
        "length": 32,
        "start": 4089
      },
      {
        "length": 32,
        "start": 4285
      },
      {
        "length": 32,
        "start": 4682
      },
      {
        "length": 32,
        "start": 5449
      },
      {
        "length": 32,
        "start": 6286
      },
      {
        "length": 32,
        "start": 6930
      },
      {
        "length": 32,
        "start": 7559
      },
      {
        "length": 32,
        "start": 8136
      }
    ]
  },
  "source": "// SPDX-License-Identifier: GPL-3.0-or-later\r\npragma solidity ^0.6.10;\r\n\r\nimport \"@openzeppelin/contracts/token/ERC20/ERC20.sol\";\r\nimport \"@openzeppelin/contracts/token/ERC20/IERC20.sol\";\r\nimport \"./YieldMath.sol\";\r\nimport \"../helpers/Delegable.sol\";\r\nimport \"../interfaces/IPot.sol\";\r\nimport \"../interfaces/IYDai.sol\";\r\nimport \"../interfaces/IPool.sol\";\r\n\r\n\r\n\r\n/// @dev The Pool contract exchanges Dai for yDai at a price defined by a specific formula.\r\ncontract Pool is IPool, ERC20, Delegable {\r\n\r\n    event Trade(uint256 maturity, address indexed from, address indexed to, int256 daiTokens, int256 yDaiTokens);\r\n    event Liquidity(uint256 maturity, address indexed from, address indexed to, int256 daiTokens, int256 yDaiTokens, int256 poolTokens);\r\n\r\n    int128 constant public k = int128(uint256((1 << 64)) / 126144000); // 1 / Seconds in 4 years, in 64.64\r\n    int128 constant public g = int128(uint256((999 << 64)) / 1000); // All constants are `ufixed`, to divide them they must be converted to uint256\r\n    uint128 immutable public maturity;\r\n\r\n    IERC20 public dai;\r\n    IYDai public yDai;\r\n\r\n    constructor(address dai_, address yDai_, string memory name_, string memory symbol_)\r\n        public\r\n        ERC20(name_, symbol_)\r\n        Delegable()\r\n    {\r\n        dai = IERC20(dai_);\r\n        yDai = IYDai(yDai_);\r\n\r\n        maturity = toUint128(yDai.maturity());\r\n    }\r\n\r\n    /// @dev Trading can only be done before maturity\r\n    modifier beforeMaturity() {\r\n        require(\r\n            now < maturity,\r\n            \"Pool: Too late\"\r\n        );\r\n        _;\r\n    }\r\n\r\n    /// @dev Overflow-protected addition, from OpenZeppelin\r\n    function add(uint128 a, uint128 b)\r\n        internal pure returns (uint128)\r\n    {\r\n        uint128 c = a + b;\r\n        require(c >= a, \"Pool: Dai reserves too high\");\r\n\r\n        return c;\r\n    }\r\n\r\n    /// @dev Overflow-protected substraction, from OpenZeppelin\r\n    function sub(uint128 a, uint128 b) internal pure returns (uint128) {\r\n        require(b <= a, \"Pool: yDai reserves too low\");\r\n        uint128 c = a - b;\r\n\r\n        return c;\r\n    }\r\n\r\n    /// @dev Safe casting from uint256 to uint128\r\n    function toUint128(uint256 x) internal pure returns(uint128) {\r\n        require(\r\n            x <= 340282366920938463463374607431768211455,\r\n            \"Pool: Cast overflow\"\r\n        );\r\n        return uint128(x);\r\n    }\r\n\r\n    /// @dev Safe casting from uint256 to int256\r\n    function toInt256(uint256 x) internal pure returns(int256) {\r\n        require(\r\n            x <= 57896044618658097711785492504343953926634992332820282019728792003956564819967,\r\n            \"Pool: Cast overflow\"\r\n        );\r\n        return int256(x);\r\n    }\r\n\r\n    /// @dev Mint initial liquidity tokens.\r\n    /// The liquidity provider needs to have called `dai.approve`\r\n    /// @param daiIn The initial Dai liquidity to provide.\r\n    function init(uint128 daiIn)\r\n        external\r\n        beforeMaturity\r\n    {\r\n        require(\r\n            totalSupply() == 0,\r\n            \"Pool: Already initialized\"\r\n        );\r\n        // no yDai transferred, because initial yDai deposit is entirely virtual\r\n        dai.transferFrom(msg.sender, address(this), daiIn);\r\n        _mint(msg.sender, daiIn);\r\n        emit Liquidity(maturity, msg.sender, msg.sender, -toInt256(daiIn), 0, toInt256(daiIn));\r\n    }\r\n\r\n    /// @dev Mint liquidity tokens in exchange for adding dai and yDai\r\n    /// The liquidity provider needs to have called `dai.approve` and `yDai.approve`.\r\n    /// @param daiOffered Amount of `dai` being invested, an appropriate amount of `yDai` to be invested alongside will be calculated and taken by this function from the caller.\r\n    /// @return The amount of liquidity tokens minted.\r\n    function mint(uint256 daiOffered)\r\n        external\r\n        returns (uint256)\r\n    {\r\n        uint256 supply = totalSupply();\r\n        uint256 daiReserves = dai.balanceOf(address(this));\r\n        // use the actual reserves rather than the virtual reserves\r\n        uint256 yDaiReserves = yDai.balanceOf(address(this));\r\n        uint256 tokensMinted = supply.mul(daiOffered).div(daiReserves);\r\n        uint256 yDaiRequired = yDaiReserves.mul(tokensMinted).div(supply);\r\n\r\n        require(dai.transferFrom(msg.sender, address(this), daiOffered));\r\n        require(yDai.transferFrom(msg.sender, address(this), yDaiRequired));\r\n        _mint(msg.sender, tokensMinted);\r\n        emit Liquidity(maturity, msg.sender, msg.sender, -toInt256(daiOffered), -toInt256(yDaiRequired), toInt256(tokensMinted));\r\n\r\n        return tokensMinted;\r\n    }\r\n\r\n    /// @dev Burn liquidity tokens in exchange for dai and yDai.\r\n    /// The liquidity provider needs to have called `pool.approve`.\r\n    /// @param tokensBurned Amount of liquidity tokens being burned.\r\n    /// @return The amount of reserve tokens returned (daiTokens, yDaiTokens).\r\n    function burn(uint256 tokensBurned)\r\n        external\r\n        returns (uint256, uint256)\r\n    {\r\n        uint256 supply = totalSupply();\r\n        uint256 daiReserves = dai.balanceOf(address(this));\r\n        // use the actual reserves rather than the virtual reserves\r\n        uint256 yDaiReserves = yDai.balanceOf(address(this));\r\n        uint256 daiReturned = tokensBurned.mul(daiReserves).div(supply);\r\n        uint256 yDaiReturned = tokensBurned.mul(yDaiReserves).div(supply);\r\n\r\n        _burn(msg.sender, tokensBurned);\r\n        dai.transfer(msg.sender, daiReturned);\r\n        yDai.transfer(msg.sender, yDaiReturned);\r\n        emit Liquidity(maturity, msg.sender, msg.sender, toInt256(daiReturned), toInt256(yDaiReturned), -toInt256(tokensBurned));\r\n\r\n        return (daiReturned, yDaiReturned);\r\n    }\r\n\r\n    /// @dev Sell Dai for yDai\r\n    /// The trader needs to have called `dai.approve`\r\n    /// @param from Wallet providing the dai being sold. Must have approved the operator with `pool.addDelegate(operator)`.\r\n    /// @param to Wallet receiving the yDai being bought\r\n    /// @param daiIn Amount of dai being sold that will be taken from the user's wallet\r\n    /// @return Amount of yDai that will be deposited on `to` wallet\r\n    function sellDai(address from, address to, uint128 daiIn)\r\n        external override\r\n        onlyHolderOrDelegate(from, \"Pool: Only Holder Or Delegate\")\r\n        returns(uint128)\r\n    {\r\n        uint128 yDaiOut = sellDaiPreview(daiIn);\r\n\r\n        dai.transferFrom(from, address(this), daiIn);\r\n        yDai.transfer(to, yDaiOut);\r\n        emit Trade(maturity, from, to, -toInt256(daiIn), toInt256(yDaiOut));\r\n\r\n        return yDaiOut;\r\n    }\r\n\r\n    /// @dev Returns how much yDai would be obtained by selling `daiIn` dai\r\n    /// @param daiIn Amount of dai hypothetically sold.\r\n    /// @return Amount of yDai hypothetically bought.\r\n    function sellDaiPreview(uint128 daiIn)\r\n        public view override\r\n        beforeMaturity\r\n        returns(uint128)\r\n    {\r\n        uint128 daiReserves = getDaiReserves();\r\n        uint128 yDaiReserves = getYDaiReserves();\r\n\r\n        uint128 yDaiOut = YieldMath.yDaiOutForDaiIn(\r\n            daiReserves,\r\n            yDaiReserves,\r\n            daiIn,\r\n            toUint128(maturity - now), // This can't be called after maturity\r\n            k,\r\n            g\r\n        );\r\n\r\n        require(\r\n            sub(yDaiReserves, yDaiOut) >= add(daiReserves, daiIn),\r\n            \"Pool: yDai reserves too low\"\r\n        );\r\n\r\n        return yDaiOut;\r\n    }\r\n\r\n    /// @dev Buy Dai for yDai\r\n    /// The trader needs to have called `yDai.approve`\r\n    /// @param from Wallet providing the yDai being sold. Must have approved the operator with `pool.addDelegate(operator)`.\r\n    /// @param to Wallet receiving the dai being bought\r\n    /// @param daiOut Amount of dai being bought that will be deposited in `to` wallet\r\n    /// @return Amount of yDai that will be taken from `from` wallet\r\n    function buyDai(address from, address to, uint128 daiOut)\r\n        external override\r\n        onlyHolderOrDelegate(from, \"Pool: Only Holder Or Delegate\")\r\n        returns(uint128)\r\n    {\r\n        uint128 yDaiIn = buyDaiPreview(daiOut);\r\n\r\n        yDai.transferFrom(from, address(this), yDaiIn);\r\n        dai.transfer(to, daiOut);\r\n        emit Trade(maturity, from, to, toInt256(daiOut), -toInt256(yDaiIn));\r\n\r\n        return yDaiIn;\r\n    }\r\n\r\n    /// @dev Returns how much yDai would be required to buy `daiOut` dai.\r\n    /// @param daiOut Amount of dai hypothetically desired.\r\n    /// @return Amount of yDai hypothetically required.\r\n    function buyDaiPreview(uint128 daiOut)\r\n        public view override\r\n        beforeMaturity\r\n        returns(uint128)\r\n    {\r\n        return YieldMath.yDaiInForDaiOut(\r\n            getDaiReserves(),\r\n            getYDaiReserves(),\r\n            daiOut,\r\n            toUint128(maturity - now), // This can't be called after maturity\r\n            k,\r\n            g\r\n        );\r\n    }\r\n\r\n    /// @dev Sell yDai for Dai\r\n    /// The trader needs to have called `yDai.approve`\r\n    /// @param from Wallet providing the yDai being sold. Must have approved the operator with `pool.addDelegate(operator)`.\r\n    /// @param to Wallet receiving the dai being bought\r\n    /// @param yDaiIn Amount of yDai being sold that will be taken from the user's wallet\r\n    /// @return Amount of dai that will be deposited on `to` wallet\r\n    function sellYDai(address from, address to, uint128 yDaiIn)\r\n        external override\r\n        onlyHolderOrDelegate(from, \"Pool: Only Holder Or Delegate\")\r\n        returns(uint128)\r\n    {\r\n        uint128 daiOut = sellYDaiPreview(yDaiIn);\r\n\r\n        yDai.transferFrom(from, address(this), yDaiIn);\r\n        dai.transfer(to, daiOut);\r\n        emit Trade(maturity, from, to, toInt256(daiOut), -toInt256(yDaiIn));\r\n\r\n        return daiOut;\r\n    }\r\n\r\n    /// @dev Returns how much dai would be obtained by selling `yDaiIn` yDai.\r\n    /// @param yDaiIn Amount of yDai hypothetically sold.\r\n    /// @return Amount of Dai hypothetically bought.\r\n    function sellYDaiPreview(uint128 yDaiIn)\r\n        public view override\r\n        beforeMaturity\r\n        returns(uint128)\r\n    {\r\n        return YieldMath.daiOutForYDaiIn(\r\n            getDaiReserves(),\r\n            getYDaiReserves(),\r\n            yDaiIn,\r\n            toUint128(maturity - now), // This can't be called after maturity\r\n            k,\r\n            g\r\n        );\r\n    }\r\n\r\n    /// @dev Buy yDai for dai\r\n    /// The trader needs to have called `dai.approve`\r\n    /// @param from Wallet providing the dai being sold. Must have approved the operator with `pool.addDelegate(operator)`.\r\n    /// @param to Wallet receiving the yDai being bought\r\n    /// @param yDaiOut Amount of yDai being bought that will be deposited in `to` wallet\r\n    /// @return Amount of dai that will be taken from `from` wallet\r\n    function buyYDai(address from, address to, uint128 yDaiOut)\r\n        external override\r\n        onlyHolderOrDelegate(from, \"Pool: Only Holder Or Delegate\")\r\n        returns(uint128)\r\n    {\r\n        uint128 daiIn = buyYDaiPreview(yDaiOut);\r\n\r\n        dai.transferFrom(from, address(this), daiIn);\r\n        yDai.transfer(to, yDaiOut);\r\n        emit Trade(maturity, from, to, -toInt256(daiIn), toInt256(yDaiOut));\r\n\r\n        return daiIn;\r\n    }\r\n\r\n\r\n    /// @dev Returns how much dai would be required to buy `yDaiOut` yDai.\r\n    /// @param yDaiOut Amount of yDai hypothetically desired.\r\n    /// @return Amount of Dai hypothetically required.\r\n    function buyYDaiPreview(uint128 yDaiOut)\r\n        public view override\r\n        beforeMaturity\r\n        returns(uint128)\r\n    {\r\n        uint128 daiReserves = getDaiReserves();\r\n        uint128 yDaiReserves = getYDaiReserves();\r\n\r\n        uint128 daiIn = YieldMath.daiInForYDaiOut(\r\n            daiReserves,\r\n            yDaiReserves,\r\n            yDaiOut,\r\n            toUint128(maturity - now), // This can't be called after maturity\r\n            k,\r\n            g\r\n        );\r\n\r\n        require(\r\n            sub(yDaiReserves, yDaiOut) >= add(daiReserves, daiIn),\r\n            \"Pool: yDai reserves too low\"\r\n        );\r\n\r\n        return daiIn;\r\n    }\r\n\r\n    /// @dev Returns the \"virtual\" yDai reserves\r\n    function getYDaiReserves()\r\n        public view\r\n        returns(uint128)\r\n    {\r\n        return toUint128(yDai.balanceOf(address(this)) + totalSupply());\r\n    }\r\n\r\n    /// @dev Returns the Dai reserves\r\n    function getDaiReserves()\r\n        public view\r\n        returns(uint128)\r\n    {\r\n        return toUint128(dai.balanceOf(address(this)));\r\n    }\r\n}\r\n",
  "sourcePath": "C:\\Users\\bruce\\dev\\yield\\yDai\\contracts\\pool\\Pool.sol",
  "compiler": {
    "name": "solc",
    "version": "0.6.10+commit.00c0fcaf.Emscripten.clang"
  },
  "schemaVersion": "3.2.3",
  "updatedAt": "2020-07-29T20:51:53.484Z",
  "networkType": "ethereum",
  "devdoc": {
    "details": "The Pool contract exchanges Dai for yDai at a price defined by a specific formula.",
    "methods": {
      "addDelegate(address)": {
        "details": "Enable a delegate to act on the behalf of caller"
      },
      "allowance(address,address)": {
        "details": "See {IERC20-allowance}."
      },
      "approve(address,uint256)": {
        "details": "See {IERC20-approve}. Requirements: - `spender` cannot be the zero address."
      },
      "balanceOf(address)": {
        "details": "See {IERC20-balanceOf}."
      },
      "burn(uint256)": {
        "details": "Burn liquidity tokens in exchange for dai and yDai. The liquidity provider needs to have called `pool.approve`.",
        "params": {
          "tokensBurned": "Amount of liquidity tokens being burned."
        },
        "returns": {
          "_0": "The amount of reserve tokens returned (daiTokens, yDaiTokens)."
        }
      },
      "buyDai(address,address,uint128)": {
        "details": "Buy Dai for yDai The trader needs to have called `yDai.approve`",
        "params": {
          "daiOut": "Amount of dai being bought that will be deposited in `to` wallet",
          "from": "Wallet providing the yDai being sold. Must have approved the operator with `pool.addDelegate(operator)`.",
          "to": "Wallet receiving the dai being bought"
        },
        "returns": {
          "_0": "Amount of yDai that will be taken from `from` wallet"
        }
      },
      "buyDaiPreview(uint128)": {
        "details": "Returns how much yDai would be required to buy `daiOut` dai.",
        "params": {
          "daiOut": "Amount of dai hypothetically desired."
        },
        "returns": {
          "_0": "Amount of yDai hypothetically required."
        }
      },
      "buyYDai(address,address,uint128)": {
        "details": "Buy yDai for dai The trader needs to have called `dai.approve`",
        "params": {
          "from": "Wallet providing the dai being sold. Must have approved the operator with `pool.addDelegate(operator)`.",
          "to": "Wallet receiving the yDai being bought",
          "yDaiOut": "Amount of yDai being bought that will be deposited in `to` wallet"
        },
        "returns": {
          "_0": "Amount of dai that will be taken from `from` wallet"
        }
      },
      "buyYDaiPreview(uint128)": {
        "details": "Returns how much dai would be required to buy `yDaiOut` yDai.",
        "params": {
          "yDaiOut": "Amount of yDai hypothetically desired."
        },
        "returns": {
          "_0": "Amount of Dai hypothetically required."
        }
      },
      "decimals()": {
        "details": "Returns the number of decimals used to get its user representation. For example, if `decimals` equals `2`, a balance of `505` tokens should be displayed to a user as `5,05` (`505 / 10 ** 2`). Tokens usually opt for a value of 18, imitating the relationship between Ether and Wei. This is the value {ERC20} uses, unless {_setupDecimals} is called. NOTE: This information is only used for _display_ purposes: it in no way affects any of the arithmetic of the contract, including {IERC20-balanceOf} and {IERC20-transfer}."
      },
      "decreaseAllowance(address,uint256)": {
        "details": "Atomically decreases the allowance granted to `spender` by the caller. This is an alternative to {approve} that can be used as a mitigation for problems described in {IERC20-approve}. Emits an {Approval} event indicating the updated allowance. Requirements: - `spender` cannot be the zero address. - `spender` must have allowance for the caller of at least `subtractedValue`."
      },
      "getDaiReserves()": {
        "details": "Returns the Dai reserves"
      },
      "getYDaiReserves()": {
        "details": "Returns the \"virtual\" yDai reserves"
      },
      "increaseAllowance(address,uint256)": {
        "details": "Atomically increases the allowance granted to `spender` by the caller. This is an alternative to {approve} that can be used as a mitigation for problems described in {IERC20-approve}. Emits an {Approval} event indicating the updated allowance. Requirements: - `spender` cannot be the zero address."
      },
      "init(uint128)": {
        "details": "Mint initial liquidity tokens. The liquidity provider needs to have called `dai.approve`",
        "params": {
          "daiIn": "The initial Dai liquidity to provide."
        }
      },
      "mint(uint256)": {
        "details": "Mint liquidity tokens in exchange for adding dai and yDai The liquidity provider needs to have called `dai.approve` and `yDai.approve`.",
        "params": {
          "daiOffered": "Amount of `dai` being invested, an appropriate amount of `yDai` to be invested alongside will be calculated and taken by this function from the caller."
        },
        "returns": {
          "_0": "The amount of liquidity tokens minted."
        }
      },
      "name()": {
        "details": "Returns the name of the token."
      },
      "revokeDelegate(address)": {
        "details": "Stop a delegate from acting on the behalf of caller"
      },
      "sellDai(address,address,uint128)": {
        "details": "Sell Dai for yDai The trader needs to have called `dai.approve`",
        "params": {
          "daiIn": "Amount of dai being sold that will be taken from the user's wallet",
          "from": "Wallet providing the dai being sold. Must have approved the operator with `pool.addDelegate(operator)`.",
          "to": "Wallet receiving the yDai being bought"
        },
        "returns": {
          "_0": "Amount of yDai that will be deposited on `to` wallet"
        }
      },
      "sellDaiPreview(uint128)": {
        "details": "Returns how much yDai would be obtained by selling `daiIn` dai",
        "params": {
          "daiIn": "Amount of dai hypothetically sold."
        },
        "returns": {
          "_0": "Amount of yDai hypothetically bought."
        }
      },
      "sellYDai(address,address,uint128)": {
        "details": "Sell yDai for Dai The trader needs to have called `yDai.approve`",
        "params": {
          "from": "Wallet providing the yDai being sold. Must have approved the operator with `pool.addDelegate(operator)`.",
          "to": "Wallet receiving the dai being bought",
          "yDaiIn": "Amount of yDai being sold that will be taken from the user's wallet"
        },
        "returns": {
          "_0": "Amount of dai that will be deposited on `to` wallet"
        }
      },
      "sellYDaiPreview(uint128)": {
        "details": "Returns how much dai would be obtained by selling `yDaiIn` yDai.",
        "params": {
          "yDaiIn": "Amount of yDai hypothetically sold."
        },
        "returns": {
          "_0": "Amount of Dai hypothetically bought."
        }
      },
      "symbol()": {
        "details": "Returns the symbol of the token, usually a shorter version of the name."
      },
      "totalSupply()": {
        "details": "See {IERC20-totalSupply}."
      },
      "transfer(address,uint256)": {
        "details": "See {IERC20-transfer}. Requirements: - `recipient` cannot be the zero address. - the caller must have a balance of at least `amount`."
      },
      "transferFrom(address,address,uint256)": {
        "details": "See {IERC20-transferFrom}. Emits an {Approval} event indicating the updated allowance. This is not required by the EIP. See the note at the beginning of {ERC20}; Requirements: - `sender` and `recipient` cannot be the zero address. - `sender` must have a balance of at least `amount`. - the caller must have allowance for ``sender``'s tokens of at least `amount`."
      }
    }
  },
  "userdoc": {
    "methods": {}
  }
}