{
  "contractName": "Pot",
  "abi": [
    {
      "inputs": [
        {
          "internalType": "address",
          "name": "vat_",
          "type": "address"
        }
      ],
      "stateMutability": "nonpayable",
      "type": "constructor"
    },
    {
      "anonymous": true,
      "inputs": [
        {
          "indexed": true,
          "internalType": "bytes4",
          "name": "sig",
          "type": "bytes4"
        },
        {
          "indexed": true,
          "internalType": "address",
          "name": "usr",
          "type": "address"
        },
        {
          "indexed": true,
          "internalType": "bytes32",
          "name": "arg1",
          "type": "bytes32"
        },
        {
          "indexed": true,
          "internalType": "bytes32",
          "name": "arg2",
          "type": "bytes32"
        },
        {
          "indexed": false,
          "internalType": "bytes",
          "name": "data",
          "type": "bytes"
        }
      ],
      "name": "LogNote",
      "type": "event"
    },
    {
      "inputs": [],
      "name": "Pie",
      "outputs": [
        {
          "internalType": "uint256",
          "name": "",
          "type": "uint256"
        }
      ],
      "stateMutability": "view",
      "type": "function",
      "constant": true
    },
    {
      "inputs": [],
      "name": "chi",
      "outputs": [
        {
          "internalType": "uint256",
          "name": "",
          "type": "uint256"
        }
      ],
      "stateMutability": "view",
      "type": "function",
      "constant": true
    },
    {
      "inputs": [],
      "name": "dsr",
      "outputs": [
        {
          "internalType": "uint256",
          "name": "",
          "type": "uint256"
        }
      ],
      "stateMutability": "view",
      "type": "function",
      "constant": true
    },
    {
      "inputs": [],
      "name": "live",
      "outputs": [
        {
          "internalType": "uint256",
          "name": "",
          "type": "uint256"
        }
      ],
      "stateMutability": "view",
      "type": "function",
      "constant": true
    },
    {
      "inputs": [
        {
          "internalType": "address",
          "name": "",
          "type": "address"
        }
      ],
      "name": "pie",
      "outputs": [
        {
          "internalType": "uint256",
          "name": "",
          "type": "uint256"
        }
      ],
      "stateMutability": "view",
      "type": "function",
      "constant": true
    },
    {
      "inputs": [],
      "name": "rho",
      "outputs": [
        {
          "internalType": "uint256",
          "name": "",
          "type": "uint256"
        }
      ],
      "stateMutability": "view",
      "type": "function",
      "constant": true
    },
    {
      "inputs": [],
      "name": "vat",
      "outputs": [
        {
          "internalType": "contract VatLike",
          "name": "",
          "type": "address"
        }
      ],
      "stateMutability": "view",
      "type": "function",
      "constant": true
    },
    {
      "inputs": [],
      "name": "vow",
      "outputs": [
        {
          "internalType": "address",
          "name": "",
          "type": "address"
        }
      ],
      "stateMutability": "view",
      "type": "function",
      "constant": true
    },
    {
      "inputs": [
        {
          "internalType": "address",
          "name": "",
          "type": "address"
        }
      ],
      "name": "wards",
      "outputs": [
        {
          "internalType": "uint256",
          "name": "",
          "type": "uint256"
        }
      ],
      "stateMutability": "view",
      "type": "function",
      "constant": true
    },
    {
      "inputs": [
        {
          "internalType": "address",
          "name": "guy",
          "type": "address"
        }
      ],
      "name": "rely",
      "outputs": [],
      "stateMutability": "nonpayable",
      "type": "function"
    },
    {
      "inputs": [
        {
          "internalType": "address",
          "name": "guy",
          "type": "address"
        }
      ],
      "name": "deny",
      "outputs": [],
      "stateMutability": "nonpayable",
      "type": "function"
    },
    {
      "inputs": [
        {
          "internalType": "uint256",
          "name": "chi_",
          "type": "uint256"
        }
      ],
      "name": "setChi",
      "outputs": [],
      "stateMutability": "nonpayable",
      "type": "function"
    },
    {
      "inputs": [
        {
          "internalType": "bytes32",
          "name": "what",
          "type": "bytes32"
        },
        {
          "internalType": "uint256",
          "name": "data",
          "type": "uint256"
        }
      ],
      "name": "file",
      "outputs": [],
      "stateMutability": "nonpayable",
      "type": "function"
    },
    {
      "inputs": [
        {
          "internalType": "bytes32",
          "name": "what",
          "type": "bytes32"
        },
        {
          "internalType": "address",
          "name": "addr",
          "type": "address"
        }
      ],
      "name": "file",
      "outputs": [],
      "stateMutability": "nonpayable",
      "type": "function"
    },
    {
      "inputs": [],
      "name": "cage",
      "outputs": [],
      "stateMutability": "nonpayable",
      "type": "function"
    },
    {
      "inputs": [],
      "name": "drip",
      "outputs": [
        {
          "internalType": "uint256",
          "name": "tmp",
          "type": "uint256"
        }
      ],
      "stateMutability": "nonpayable",
      "type": "function"
    },
    {
      "inputs": [
        {
          "internalType": "uint256",
          "name": "wad",
          "type": "uint256"
        }
      ],
      "name": "join",
      "outputs": [],
      "stateMutability": "nonpayable",
      "type": "function"
    },
    {
      "inputs": [
        {
          "internalType": "uint256",
          "name": "wad",
          "type": "uint256"
        }
      ],
      "name": "mockJoin",
      "outputs": [],
      "stateMutability": "nonpayable",
      "type": "function"
    },
    {
      "inputs": [
        {
          "internalType": "uint256",
          "name": "wad",
          "type": "uint256"
        }
      ],
      "name": "exit",
      "outputs": [],
      "stateMutability": "nonpayable",
      "type": "function"
    }
  ],
  "bytecode": "0x608060405234801561001057600080fd5b5060405161160b38038061160b8339818101604052602081101561003357600080fd5b810190808051906020019092919050505060016000803373ffffffffffffffffffffffffffffffffffffffff1673ffffffffffffffffffffffffffffffffffffffff1681526020019081526020016000208190555080600560006101000a81548173ffffffffffffffffffffffffffffffffffffffff021916908373ffffffffffffffffffffffffffffffffffffffff1602179055506b033b2e3c9fd0803ce80000006003819055506b033b2e3c9fd0803ce8000000600481905550426007819055506001600881905550506114fd8061010e6000396000f3fe608060405234801561001057600080fd5b50600436106101215760003560e01c806365fae35e116100ad5780639f678cca116100715780639f678cca146103de578063bf353dbb146103fc578063c92aecc414610454578063d4e8be8314610472578063ffa0d7b3146104c057610121565b806365fae35e1461030057806369245009146103445780637f8661a11461034e578063957aa58c1461037c5780639c52a7f11461039a57610121565b806329ae8114116100f457806329ae8114146101f85780632c69ed581461023057806336569e771461024e578063487bf08214610298578063626cb3c5146102b657610121565b8063049878f3146101265780630bebac86146101545780631d8048de146101ac57806320aba08b146101da575b600080fd5b6101526004803603602081101561013c57600080fd5b81019080803590602001909291905050506104ee565b005b6101966004803603602081101561016a57600080fd5b81019080803573ffffffffffffffffffffffffffffffffffffffff169060200190929190505050610706565b6040518082815260200191505060405180910390f35b6101d8600480360360208110156101c257600080fd5b810190808035906020019092919050505061071e565b005b6101e26108bf565b6040518082815260200191505060405180910390f35b61022e6004803603604081101561020e57600080fd5b8101908080359060200190929190803590602001909291905050506108c5565b005b610238610b0e565b6040518082815260200191505060405180910390f35b610256610b14565b604051808273ffffffffffffffffffffffffffffffffffffffff1673ffffffffffffffffffffffffffffffffffffffff16815260200191505060405180910390f35b6102a0610b3a565b6040518082815260200191505060405180910390f35b6102be610b40565b604051808273ffffffffffffffffffffffffffffffffffffffff1673ffffffffffffffffffffffffffffffffffffffff16815260200191505060405180910390f35b6103426004803603602081101561031657600080fd5b81019080803573ffffffffffffffffffffffffffffffffffffffff169060200190929190505050610b66565b005b61034c610c61565b005b61037a6004803603602081101561036457600080fd5b8101908080359060200190929190505050610d32565b005b610384610ed3565b6040518082815260200191505060405180910390f35b6103dc600480360360208110156103b057600080fd5b81019080803573ffffffffffffffffffffffffffffffffffffffff169060200190929190505050610ed9565b005b6103e6610fd4565b6040518082815260200191505060405180910390f35b61043e6004803603602081101561041257600080fd5b81019080803573ffffffffffffffffffffffffffffffffffffffff1690602001909291905050506111bc565b6040518082815260200191505060405180910390f35b61045c6111d4565b6040518082815260200191505060405180910390f35b6104be6004803603604081101561048857600080fd5b8101908080359060200190929190803573ffffffffffffffffffffffffffffffffffffffff1690602001909291905050506111da565b005b6104ec600480360360208110156104d657600080fd5b810190808035906020019092919050505061136e565b005b6007544214610565576040517f08c379a00000000000000000000000000000000000000000000000000000000081526004018080602001828103825260138152602001807f506f742f72686f2d6e6f742d757064617465640000000000000000000000000081525060200191505060405180910390fd5b6105ae600160003373ffffffffffffffffffffffffffffffffffffffff1673ffffffffffffffffffffffffffffffffffffffff1681526020019081526020016000205482611378565b600160003373ffffffffffffffffffffffffffffffffffffffff1673ffffffffffffffffffffffffffffffffffffffff168152602001908152602001600020819055506105fd60025482611378565b600281905550600560009054906101000a900473ffffffffffffffffffffffffffffffffffffffff1673ffffffffffffffffffffffffffffffffffffffff1663bb35783b333061064f60045486611392565b6040518463ffffffff1660e01b8152600401808473ffffffffffffffffffffffffffffffffffffffff1673ffffffffffffffffffffffffffffffffffffffff1681526020018373ffffffffffffffffffffffffffffffffffffffff1673ffffffffffffffffffffffffffffffffffffffff1681526020018281526020019350505050600060405180830381600087803b1580156106eb57600080fd5b505af11580156106ff573d6000803e3d6000fd5b5050505050565b60016020528060005260406000206000915090505481565b610767600160003373ffffffffffffffffffffffffffffffffffffffff1673ffffffffffffffffffffffffffffffffffffffff1681526020019081526020016000205482611378565b600160003373ffffffffffffffffffffffffffffffffffffffff1673ffffffffffffffffffffffffffffffffffffffff168152602001908152602001600020819055506107b660025482611378565b600281905550600560009054906101000a900473ffffffffffffffffffffffffffffffffffffffff1673ffffffffffffffffffffffffffffffffffffffff1663bb35783b333061080860045486611392565b6040518463ffffffff1660e01b8152600401808473ffffffffffffffffffffffffffffffffffffffff1673ffffffffffffffffffffffffffffffffffffffff1681526020018373ffffffffffffffffffffffffffffffffffffffff1673ffffffffffffffffffffffffffffffffffffffff1681526020018281526020019350505050600060405180830381600087803b1580156108a457600080fd5b505af11580156108b8573d6000803e3d6000fd5b5050505050565b60075481565b60016000803373ffffffffffffffffffffffffffffffffffffffff1673ffffffffffffffffffffffffffffffffffffffff1681526020019081526020016000205414610979576040517f08c379a00000000000000000000000000000000000000000000000000000000081526004018080602001828103825260128152602001807f506f742f6e6f742d617574686f72697a6564000000000000000000000000000081525060200191505060405180910390fd5b6001600854146109f1576040517f08c379a000000000000000000000000000000000000000000000000000000000815260040180806020018281038252600c8152602001807f506f742f6e6f742d6c697665000000000000000000000000000000000000000081525060200191505060405180910390fd5b6007544214610a68576040517f08c379a00000000000000000000000000000000000000000000000000000000081526004018080602001828103825260138152602001807f506f742f72686f2d6e6f742d757064617465640000000000000000000000000081525060200191505060405180910390fd5b7f6473720000000000000000000000000000000000000000000000000000000000821415610a9c5780600381905550610b0a565b6040517f08c379a000000000000000000000000000000000000000000000000000000000815260040180806020018281038252601b8152602001807f506f742f66696c652d756e7265636f676e697a65642d706172616d000000000081525060200191505060405180910390fd5b5050565b60025481565b600560009054906101000a900473ffffffffffffffffffffffffffffffffffffffff1681565b60035481565b600660009054906101000a900473ffffffffffffffffffffffffffffffffffffffff1681565b60016000803373ffffffffffffffffffffffffffffffffffffffff1673ffffffffffffffffffffffffffffffffffffffff1681526020019081526020016000205414610c1a576040517f08c379a00000000000000000000000000000000000000000000000000000000081526004018080602001828103825260128152602001807f506f742f6e6f742d617574686f72697a6564000000000000000000000000000081525060200191505060405180910390fd5b60016000808373ffffffffffffffffffffffffffffffffffffffff1673ffffffffffffffffffffffffffffffffffffffff1681526020019081526020016000208190555050565b60016000803373ffffffffffffffffffffffffffffffffffffffff1673ffffffffffffffffffffffffffffffffffffffff1681526020019081526020016000205414610d15576040517f08c379a00000000000000000000000000000000000000000000000000000000081526004018080602001828103825260128152602001807f506f742f6e6f742d617574686f72697a6564000000000000000000000000000081525060200191505060405180910390fd5b60006008819055506b033b2e3c9fd0803ce8000000600381905550565b610d7b600160003373ffffffffffffffffffffffffffffffffffffffff1673ffffffffffffffffffffffffffffffffffffffff16815260200190815260200160002054826113be565b600160003373ffffffffffffffffffffffffffffffffffffffff1673ffffffffffffffffffffffffffffffffffffffff16815260200190815260200160002081905550610dca600254826113be565b600281905550600560009054906101000a900473ffffffffffffffffffffffffffffffffffffffff1673ffffffffffffffffffffffffffffffffffffffff1663bb35783b3033610e1c60045486611392565b6040518463ffffffff1660e01b8152600401808473ffffffffffffffffffffffffffffffffffffffff1673ffffffffffffffffffffffffffffffffffffffff1681526020018373ffffffffffffffffffffffffffffffffffffffff1673ffffffffffffffffffffffffffffffffffffffff1681526020018281526020019350505050600060405180830381600087803b158015610eb857600080fd5b505af1158015610ecc573d6000803e3d6000fd5b5050505050565b60085481565b60016000803373ffffffffffffffffffffffffffffffffffffffff1673ffffffffffffffffffffffffffffffffffffffff1681526020019081526020016000205414610f8d576040517f08c379a00000000000000000000000000000000000000000000000000000000081526004018080602001828103825260128152602001807f506f742f6e6f742d617574686f72697a6564000000000000000000000000000081525060200191505060405180910390fd5b60008060008373ffffffffffffffffffffffffffffffffffffffff1673ffffffffffffffffffffffffffffffffffffffff1681526020019081526020016000208190555050565b600060075442101561104e576040517f08c379a000000000000000000000000000000000000000000000000000000000815260040180806020018281038252600f8152602001807f506f742f696e76616c69642d6e6f77000000000000000000000000000000000081525060200191505060405180910390fd5b61107661106e60035460075442036b033b2e3c9fd0803ce80000006113d8565b60045461149e565b90506000611086826004546113be565b90508160048190555042600781905550600560009054906101000a900473ffffffffffffffffffffffffffffffffffffffff1673ffffffffffffffffffffffffffffffffffffffff1663f24e23eb600660009054906101000a900473ffffffffffffffffffffffffffffffffffffffff163061110460025486611392565b6040518463ffffffff1660e01b8152600401808473ffffffffffffffffffffffffffffffffffffffff1673ffffffffffffffffffffffffffffffffffffffff1681526020018373ffffffffffffffffffffffffffffffffffffffff1673ffffffffffffffffffffffffffffffffffffffff1681526020018281526020019350505050600060405180830381600087803b1580156111a057600080fd5b505af11580156111b4573d6000803e3d6000fd5b505050505090565b60006020528060005260406000206000915090505481565b60045481565b60016000803373ffffffffffffffffffffffffffffffffffffffff1673ffffffffffffffffffffffffffffffffffffffff168152602001908152602001600020541461128e576040517f08c379a00000000000000000000000000000000000000000000000000000000081526004018080602001828103825260128152602001807f506f742f6e6f742d617574686f72697a6564000000000000000000000000000081525060200191505060405180910390fd5b7f766f7700000000000000000000000000000000000000000000000000000000008214156112fc5780600660006101000a81548173ffffffffffffffffffffffffffffffffffffffff021916908373ffffffffffffffffffffffffffffffffffffffff16021790555061136a565b6040517f08c379a000000000000000000000000000000000000000000000000000000000815260040180806020018281038252601b8152602001807f506f742f66696c652d756e7265636f676e697a65642d706172616d000000000081525060200191505060405180910390fd5b5050565b8060048190555050565b600082828401915081101561138c57600080fd5b92915050565b6000808214806113af57508282838502925082816113ac57fe5b04145b6113b857600080fd5b92915050565b60008282840391508111156113d257600080fd5b92915050565b6000836000811461147e5760028406600081146113f7578592506113fb565b8392505b50600283046002850494505b841561147857858602868782041461141e57600080fd5b8181018181101561142e57600080fd5b8581049750600287061561146b57878502858982041415891515161561145357600080fd5b8381018181101561146357600080fd5b878104965050505b5050600285049450611407565b50611496565b83600081146114905760009250611494565b8392505b505b509392505050565b60006b033b2e3c9fd0803ce80000006114b78484611392565b816114be57fe5b0490509291505056fea26469706673582212204b232e0359e6bda5f5389ea8a89b4aa686d6dc8ad6fdb821746470533feb2d5b64736f6c63430006020033",
  "source": "/// pot.sol -- Dai Savings Rate\n\n// Copyright (C) 2018 Rain <rainbreak@riseup.net>\n//\n// This program is free software: you can redistribute it and/or modify\n// it under the terms of the GNU Affero General Public License as published by\n// the Free Software Foundation, either version 3 of the License, or\n// (at your option) any later version.\n//\n// This program is distributed in the hope that it will be useful,\n// but WITHOUT ANY WARRANTY; without even the implied warranty of\n// MERCHANTABILITY or FITNESS FOR A PARTICULAR PURPOSE.  See the\n// GNU Affero General Public License for more details.\n//\n// You should have received a copy of the GNU Affero General Public License\n// along with this program.  If not, see <https://www.gnu.org/licenses/>.\n\npragma solidity ^0.6.0;\n\nimport \"./lib.sol\";\n\n/*\n   \"Savings Dai\" is obtained when Dai is deposited into\n   this contract. Each \"Savings Dai\" accrues Dai interest\n   at the \"Dai Savings Rate\".\n   This contract does not implement a user tradeable token\n   and is intended to be used with adapters.\n         --- `save` your `dai` in the `pot` ---\n   - `dsr`: the Dai Savings Rate\n   - `pie`: user balance of Savings Dai\n   - `join`: start saving some dai\n   - `exit`: remove some dai\n   - `drip`: perform rate collection\n*/\n\ninterface VatLike {\n    function move(address,address,uint256) external;\n    function suck(address,address,uint256) external;\n}\n\ncontract Pot is LibNote {\n    // --- Auth ---\n    mapping (address => uint) public wards;\n    function rely(address guy) external note auth { wards[guy] = 1; }\n    function deny(address guy) external note auth { wards[guy] = 0; }\n    modifier auth {\n        require(wards[msg.sender] == 1, \"Pot/not-authorized\");\n        _;\n    }\n\n    // --- Data ---\n    mapping (address => uint256) public pie;  // user Savings Dai\n\n    uint256 public Pie;  // total Savings Dai\n    uint256 public dsr;  // the Dai Savings Rate\n    uint256 public chi;  // the Rate Accumulator\n\n    VatLike public vat;  // CDP engine\n    address public vow;  // debt engine\n    uint256 public rho;  // time of last drip\n\n    uint256 public live;  // Access Flag\n\n    // --- Init ---\n    constructor(address vat_) public {\n        wards[msg.sender] = 1;\n        vat = VatLike(vat_);\n        dsr = ONE;\n        chi = ONE;\n        rho = now;\n        live = 1;\n    }\n\n    // --- Test ---\n    /// @dev The dsr can be left at ONE so that calling `drip` doesn't change chi\n    function setChi(uint chi_) public {\n        chi = chi_;\n    }\n\n    // --- Math ---\n    uint256 constant ONE = 10 ** 27;\n    function rpow(uint x, uint n, uint base) internal pure returns (uint z) {\n        assembly {\n            switch x case 0 {switch n case 0 {z := base} default {z := 0}}\n            default {\n                switch mod(n, 2) case 0 { z := base } default { z := x }\n                let half := div(base, 2)  // for rounding.\n                for { n := div(n, 2) } n { n := div(n,2) } {\n                    let xx := mul(x, x)\n                    if iszero(eq(div(xx, x), x)) { revert(0,0) }\n                    let xxRound := add(xx, half)\n                    if lt(xxRound, xx) { revert(0,0) }\n                    x := div(xxRound, base)\n                    if mod(n,2) {\n                        let zx := mul(z, x)\n                        if and(iszero(iszero(x)), iszero(eq(div(zx, x), z))) { revert(0,0) }\n                        let zxRound := add(zx, half)\n                        if lt(zxRound, zx) { revert(0,0) }\n                        z := div(zxRound, base)\n                    }\n                }\n            }\n        }\n    }\n\n    function rmul(uint x, uint y) internal pure returns (uint z) {\n        z = mul(x, y) / ONE;\n    }\n\n    function add(uint x, uint y) internal pure returns (uint z) {\n        require((z = x + y) >= x);\n    }\n\n    function sub(uint x, uint y) internal pure returns (uint z) {\n        require((z = x - y) <= x);\n    }\n\n    function mul(uint x, uint y) internal pure returns (uint z) {\n        require(y == 0 || (z = x * y) / y == x);\n    }\n\n    // --- Administration ---\n    function file(bytes32 what, uint256 data) external note auth {\n        require(live == 1, \"Pot/not-live\");\n        require(now == rho, \"Pot/rho-not-updated\");\n        if (what == \"dsr\") dsr = data;\n        else revert(\"Pot/file-unrecognized-param\");\n    }\n\n    function file(bytes32 what, address addr) external note auth {\n        if (what == \"vow\") vow = addr;\n        else revert(\"Pot/file-unrecognized-param\");\n    }\n\n    function cage() external note auth {\n        live = 0;\n        dsr = ONE;\n    }\n\n    // --- Savings Rate Accumulation ---\n    function drip() external note returns (uint tmp) {\n        require(now >= rho, \"Pot/invalid-now\");\n        tmp = rmul(rpow(dsr, now - rho, ONE), chi);\n        uint chi_ = sub(tmp, chi);\n        chi = tmp;\n        rho = now;\n        vat.suck(address(vow), address(this), mul(Pie, chi_));\n    }\n\n    // --- Savings Dai Management ---\n    function join(uint wad) external note {\n        require(now == rho, \"Pot/rho-not-updated\");\n        pie[msg.sender] = add(pie[msg.sender], wad);\n        Pie             = add(Pie,             wad);\n        vat.move(msg.sender, address(this), mul(chi, wad));\n    }\n\n    // --- Savings Dai Management ---\n    function mockJoin(uint wad) external note {\n        // require(now == rho, \"Pot/rho-not-updated\");\n        pie[msg.sender] = add(pie[msg.sender], wad);\n        Pie             = add(Pie,             wad);\n        vat.move(msg.sender, address(this), mul(chi, wad));\n    }\n\n    function exit(uint wad) external note {\n        pie[msg.sender] = sub(pie[msg.sender], wad);\n        Pie             = sub(Pie,             wad);\n        vat.move(address(this), msg.sender, mul(chi, wad));\n    }\n}",
  "sourcePath": "/Users/bruce/dev/yieldprotocol/ytoken-mvp/contracts/external/maker/pot.sol",
  "compiler": {
    "name": "solc",
    "version": "0.6.2+commit.bacdbe57.Emscripten.clang"
  },
  "schemaVersion": "3.0.23",
  "updatedAt": "2020-07-01T06:27:42.078Z",
  "networkType": "ethereum",
  "devdoc": {
    "methods": {
      "setChi(uint256)": {
        "details": "The dsr can be left at ONE so that calling `drip` doesn't change chi"
      }
    }
  },
  "userdoc": {
    "methods": {}
  }
}