{
  "contractName": "Pot",
  "abi": [
    {
      "inputs": [
        {
          "internalType": "address",
          "name": "vat_",
          "type": "address"
        }
      ],
      "stateMutability": "nonpayable",
      "type": "constructor"
    },
    {
      "anonymous": true,
      "inputs": [
        {
          "indexed": true,
          "internalType": "bytes4",
          "name": "sig",
          "type": "bytes4"
        },
        {
          "indexed": true,
          "internalType": "address",
          "name": "usr",
          "type": "address"
        },
        {
          "indexed": true,
          "internalType": "bytes32",
          "name": "arg1",
          "type": "bytes32"
        },
        {
          "indexed": true,
          "internalType": "bytes32",
          "name": "arg2",
          "type": "bytes32"
        },
        {
          "indexed": false,
          "internalType": "bytes",
          "name": "data",
          "type": "bytes"
        }
      ],
      "name": "LogNote",
      "type": "event"
    },
    {
      "inputs": [],
      "name": "Pie",
      "outputs": [
        {
          "internalType": "uint256",
          "name": "",
          "type": "uint256"
        }
      ],
      "stateMutability": "view",
      "type": "function",
      "constant": true
    },
    {
      "inputs": [],
      "name": "chi",
      "outputs": [
        {
          "internalType": "uint256",
          "name": "",
          "type": "uint256"
        }
      ],
      "stateMutability": "view",
      "type": "function",
      "constant": true
    },
    {
      "inputs": [],
      "name": "dsr",
      "outputs": [
        {
          "internalType": "uint256",
          "name": "",
          "type": "uint256"
        }
      ],
      "stateMutability": "view",
      "type": "function",
      "constant": true
    },
    {
      "inputs": [],
      "name": "live",
      "outputs": [
        {
          "internalType": "uint256",
          "name": "",
          "type": "uint256"
        }
      ],
      "stateMutability": "view",
      "type": "function",
      "constant": true
    },
    {
      "inputs": [
        {
          "internalType": "address",
          "name": "",
          "type": "address"
        }
      ],
      "name": "pie",
      "outputs": [
        {
          "internalType": "uint256",
          "name": "",
          "type": "uint256"
        }
      ],
      "stateMutability": "view",
      "type": "function",
      "constant": true
    },
    {
      "inputs": [],
      "name": "rho",
      "outputs": [
        {
          "internalType": "uint256",
          "name": "",
          "type": "uint256"
        }
      ],
      "stateMutability": "view",
      "type": "function",
      "constant": true
    },
    {
      "inputs": [],
      "name": "vat",
      "outputs": [
        {
          "internalType": "contract VatLike",
          "name": "",
          "type": "address"
        }
      ],
      "stateMutability": "view",
      "type": "function",
      "constant": true
    },
    {
      "inputs": [],
      "name": "vow",
      "outputs": [
        {
          "internalType": "address",
          "name": "",
          "type": "address"
        }
      ],
      "stateMutability": "view",
      "type": "function",
      "constant": true
    },
    {
      "inputs": [
        {
          "internalType": "address",
          "name": "",
          "type": "address"
        }
      ],
      "name": "wards",
      "outputs": [
        {
          "internalType": "uint256",
          "name": "",
          "type": "uint256"
        }
      ],
      "stateMutability": "view",
      "type": "function",
      "constant": true
    },
    {
      "inputs": [
        {
          "internalType": "address",
          "name": "guy",
          "type": "address"
        }
      ],
      "name": "rely",
      "outputs": [],
      "stateMutability": "nonpayable",
      "type": "function"
    },
    {
      "inputs": [
        {
          "internalType": "address",
          "name": "guy",
          "type": "address"
        }
      ],
      "name": "deny",
      "outputs": [],
      "stateMutability": "nonpayable",
      "type": "function"
    },
    {
      "inputs": [
        {
          "internalType": "uint256",
          "name": "chi_",
          "type": "uint256"
        }
      ],
      "name": "setChi",
      "outputs": [],
      "stateMutability": "nonpayable",
      "type": "function"
    },
    {
      "inputs": [
        {
          "internalType": "bytes32",
          "name": "what",
          "type": "bytes32"
        },
        {
          "internalType": "uint256",
          "name": "data",
          "type": "uint256"
        }
      ],
      "name": "file",
      "outputs": [],
      "stateMutability": "nonpayable",
      "type": "function"
    },
    {
      "inputs": [
        {
          "internalType": "bytes32",
          "name": "what",
          "type": "bytes32"
        },
        {
          "internalType": "address",
          "name": "addr",
          "type": "address"
        }
      ],
      "name": "file",
      "outputs": [],
      "stateMutability": "nonpayable",
      "type": "function"
    },
    {
      "inputs": [],
      "name": "cage",
      "outputs": [],
      "stateMutability": "nonpayable",
      "type": "function"
    },
    {
      "inputs": [],
      "name": "drip",
      "outputs": [
        {
          "internalType": "uint256",
          "name": "tmp",
          "type": "uint256"
        }
      ],
      "stateMutability": "nonpayable",
      "type": "function"
    },
    {
      "inputs": [
        {
          "internalType": "uint256",
          "name": "wad",
          "type": "uint256"
        }
      ],
      "name": "join",
      "outputs": [],
      "stateMutability": "nonpayable",
      "type": "function"
    },
    {
      "inputs": [
        {
          "internalType": "uint256",
          "name": "wad",
          "type": "uint256"
        }
      ],
      "name": "mockJoin",
      "outputs": [],
      "stateMutability": "nonpayable",
      "type": "function"
    },
    {
      "inputs": [
        {
          "internalType": "uint256",
          "name": "wad",
          "type": "uint256"
        }
      ],
      "name": "exit",
      "outputs": [],
      "stateMutability": "nonpayable",
      "type": "function"
    }
  ],
  "bytecode": "0x608060405234801561001057600080fd5b50604051610b5c380380610b5c8339818101604052602081101561003357600080fd5b5051336000908152602081905260409020600190819055600580546001600160a01b039093166001600160a01b0319909316929092179091556b033b2e3c9fd0803ce8000000600381905560045542600755600855610ac5806100976000396000f3fe608060405234801561001057600080fd5b50600436106101215760003560e01c806365fae35e116100ad5780639f678cca116100715780639f678cca1461027a578063bf353dbb14610282578063c92aecc4146102a8578063d4e8be83146102b0578063ffa0d7b3146102dc57610121565b806365fae35e1461020157806369245009146102275780637f8661a11461022f578063957aa58c1461024c5780639c52a7f11461025457610121565b806329ae8114116100f457806329ae8114146101a25780632c69ed58146101c557806336569e77146101cd578063487bf082146101f1578063626cb3c5146101f957610121565b8063049878f3146101265780630bebac86146101455780631d8048de1461017d57806320aba08b1461019a575b600080fd5b6101436004803603602081101561013c57600080fd5b50356102f9565b005b61016b6004803603602081101561015b57600080fd5b50356001600160a01b0316610428565b60408051918252519081900360200190f35b6101436004803603602081101561019357600080fd5b5035610345565b61016b61043a565b610143600480360360408110156101b857600080fd5b5080359060200135610440565b61016b610594565b6101d561059a565b604080516001600160a01b039092168252519081900360200190f35b61016b6105a9565b6101d56105af565b6101436004803603602081101561021757600080fd5b50356001600160a01b03166105be565b610143610634565b6101436004803603602081101561024557600080fd5b50356106a4565b61016b610704565b6101436004803603602081101561026a57600080fd5b50356001600160a01b031661070a565b61016b61077d565b61016b6004803603602081101561029857600080fd5b50356001600160a01b03166108bb565b61016b6108cd565b610143600480360360408110156102c657600080fd5b50803590602001356001600160a01b03166108d3565b610143600480360360208110156102f257600080fd5b503561095a565b6007544214610345576040805162461bcd60e51b8152602060048201526013602482015272141bdd0bdc9a1bcb5b9bdd0b5d5c19185d1959606a1b604482015290519081900360640190fd5b3360009081526001602052604090205461035f908261095f565b3360009081526001602052604090205560025461037c908261095f565b6002556005546004546001600160a01b039091169063bb35783b90339030906103a59086610975565b6040518463ffffffff1660e01b815260040180846001600160a01b03166001600160a01b03168152602001836001600160a01b03166001600160a01b031681526020018281526020019350505050600060405180830381600087803b15801561040d57600080fd5b505af1158015610421573d6000803e3d6000fd5b5050505050565b60016020526000908152604090205481565b60075481565b33600090815260208190526040902054600114610499576040805162461bcd60e51b8152602060048201526012602482015271141bdd0bdb9bdd0b585d5d1a1bdc9a5e995960721b604482015290519081900360640190fd5b6008546001146104df576040805162461bcd60e51b815260206004820152600c60248201526b506f742f6e6f742d6c69766560a01b604482015290519081900360640190fd5b600754421461052b576040805162461bcd60e51b8152602060048201526013602482015272141bdd0bdc9a1bcb5b9bdd0b5d5c19185d1959606a1b604482015290519081900360640190fd5b81623239b960e91b1415610543576003819055610590565b6040805162461bcd60e51b815260206004820152601b60248201527f506f742f66696c652d756e7265636f676e697a65642d706172616d0000000000604482015290519081900360640190fd5b5050565b60025481565b6005546001600160a01b031681565b60035481565b6006546001600160a01b031681565b33600090815260208190526040902054600114610617576040805162461bcd60e51b8152602060048201526012602482015271141bdd0bdb9bdd0b585d5d1a1bdc9a5e995960721b604482015290519081900360640190fd5b6001600160a01b0316600090815260208190526040902060019055565b3360009081526020819052604090205460011461068d576040805162461bcd60e51b8152602060048201526012602482015271141bdd0bdb9bdd0b585d5d1a1bdc9a5e995960721b604482015290519081900360640190fd5b60006008556b033b2e3c9fd0803ce8000000600355565b336000908152600160205260409020546106be9082610999565b336000908152600160205260409020556002546106db9082610999565b6002556005546004546001600160a01b039091169063bb35783b90309033906103a59086610975565b60085481565b33600090815260208190526040902054600114610763576040805162461bcd60e51b8152602060048201526012602482015271141bdd0bdb9bdd0b585d5d1a1bdc9a5e995960721b604482015290519081900360640190fd5b6001600160a01b0316600090815260208190526040812055565b60006007544210156107c8576040805162461bcd60e51b815260206004820152600f60248201526e506f742f696e76616c69642d6e6f7760881b604482015290519081900360640190fd5b6107f06107e860035460075442036b033b2e3c9fd0803ce80000006109a9565b600454610a67565b9050600061080082600454610999565b6004839055426007556005546006546002549293506001600160a01b039182169263f24e23eb929091169030906108379086610975565b6040518463ffffffff1660e01b815260040180846001600160a01b03166001600160a01b03168152602001836001600160a01b03166001600160a01b031681526020018281526020019350505050600060405180830381600087803b15801561089f57600080fd5b505af11580156108b3573d6000803e3d6000fd5b505050505090565b60006020819052908152604090205481565b60045481565b3360009081526020819052604090205460011461092c576040805162461bcd60e51b8152602060048201526012602482015271141bdd0bdb9bdd0b585d5d1a1bdc9a5e995960721b604482015290519081900360640190fd5b8162766f7760e81b141561054357600680546001600160a01b0319166001600160a01b038316179055610590565b600455565b8082018281101561096f57600080fd5b92915050565b60008115806109905750508082028282828161098d57fe5b04145b61096f57600080fd5b8082038281111561096f57600080fd5b6000838015610a49576001841680156109c4578592506109c8565b8392505b50600283046002850494505b8415610a435785860286878204146109eb57600080fd5b818101818110156109fb57600080fd5b8590049650506001851615610a38578583028387820414158715151615610a2157600080fd5b81810181811015610a3157600080fd5b8590049350505b6002850494506109d4565b50610a5f565b838015610a595760009250610a5d565b8392505b505b509392505050565b60006b033b2e3c9fd0803ce8000000610a808484610975565b81610a8757fe5b04939250505056fea26469706673582212208fe8ae004b7dd7ef68d8a17fa0eb62d86d8555b74f5a3ababbfa54bbacfa9fd764736f6c634300060a0033",
  "immutableReferences": {},
  "source": "// SPDX-License-Identifier: AGPL-3.0-or-later\n/// pot.sol -- Dai Savings Rate\n\n// Copyright (C) 2018 Rain <rainbreak@riseup.net>\n//\n// This program is free software: you can redistribute it and/or modify\n// it under the terms of the GNU Affero General Public License as published by\n// the Free Software Foundation, either version 3 of the License, or\n// (at your option) any later version.\n//\n// This program is distributed in the hope that it will be useful,\n// but WITHOUT ANY WARRANTY; without even the implied warranty of\n// MERCHANTABILITY or FITNESS FOR A PARTICULAR PURPOSE.  See the\n// GNU Affero General Public License for more details.\n//\n// You should have received a copy of the GNU Affero General Public License\n// along with this program.  If not, see <https://www.gnu.org/licenses/>.\n\npragma solidity ^0.6.0;\n\nimport \"./lib.sol\";\n\n/*\n   \"Savings Dai\" is obtained when Dai is deposited into\n   this contract. Each \"Savings Dai\" accrues Dai interest\n   at the \"Dai Savings Rate\".\n   This contract does not implement a user tradeable token\n   and is intended to be used with adapters.\n         --- `save` your `dai` in the `pot` ---\n   - `dsr`: the Dai Savings Rate\n   - `pie`: user balance of Savings Dai\n   - `join`: start saving some dai\n   - `exit`: remove some dai\n   - `drip`: perform rate collection\n*/\n\ninterface VatLike {\n    function move(address,address,uint256) external;\n    function suck(address,address,uint256) external;\n}\n\ncontract Pot is LibNote {\n    // --- Auth ---\n    mapping (address => uint) public wards;\n    function rely(address guy) external note auth { wards[guy] = 1; }\n    function deny(address guy) external note auth { wards[guy] = 0; }\n    modifier auth {\n        require(wards[msg.sender] == 1, \"Pot/not-authorized\");\n        _;\n    }\n\n    // --- Data ---\n    mapping (address => uint256) public pie;  // user Savings Dai\n\n    uint256 public Pie;  // total Savings Dai\n    uint256 public dsr;  // the Dai Savings Rate\n    uint256 public chi;  // the Rate Accumulator\n\n    VatLike public vat;  // CDP engine\n    address public vow;  // debt engine\n    uint256 public rho;  // time of last drip\n\n    uint256 public live;  // Access Flag\n\n    // --- Init ---\n    constructor(address vat_) public {\n        wards[msg.sender] = 1;\n        vat = VatLike(vat_);\n        dsr = ONE;\n        chi = ONE;\n        rho = now;\n        live = 1;\n    }\n\n    // --- Test ---\n    /// @dev The dsr can be left at ONE so that calling `drip` doesn't change chi\n    function setChi(uint chi_) public {\n        chi = chi_;\n    }\n\n    // --- Math ---\n    uint256 constant ONE = 10 ** 27;\n    function rpow(uint x, uint n, uint base) internal pure returns (uint z) {\n        assembly {\n            switch x case 0 {switch n case 0 {z := base} default {z := 0}}\n            default {\n                switch mod(n, 2) case 0 { z := base } default { z := x }\n                let half := div(base, 2)  // for rounding.\n                for { n := div(n, 2) } n { n := div(n,2) } {\n                    let xx := mul(x, x)\n                    if iszero(eq(div(xx, x), x)) { revert(0,0) }\n                    let xxRound := add(xx, half)\n                    if lt(xxRound, xx) { revert(0,0) }\n                    x := div(xxRound, base)\n                    if mod(n,2) {\n                        let zx := mul(z, x)\n                        if and(iszero(iszero(x)), iszero(eq(div(zx, x), z))) { revert(0,0) }\n                        let zxRound := add(zx, half)\n                        if lt(zxRound, zx) { revert(0,0) }\n                        z := div(zxRound, base)\n                    }\n                }\n            }\n        }\n    }\n\n    function rmul(uint x, uint y) internal pure returns (uint z) {\n        z = mul_(x, y) / ONE;\n    }\n\n    function add_(uint x, uint y) internal pure returns (uint z) {\n        require((z = x + y) >= x);\n    }\n\n    function sub_(uint x, uint y) internal pure returns (uint z) {\n        require((z = x - y) <= x);\n    }\n\n    function mul_(uint x, uint y) internal pure returns (uint z) {\n        require(y == 0 || (z = x * y) / y == x);\n    }\n\n    // --- Administration ---\n    function file(bytes32 what, uint256 data) external note auth {\n        require(live == 1, \"Pot/not-live\");\n        require(now == rho, \"Pot/rho-not-updated\");\n        if (what == \"dsr\") dsr = data;\n        else revert(\"Pot/file-unrecognized-param\");\n    }\n\n    function file(bytes32 what, address addr) external note auth {\n        if (what == \"vow\") vow = addr;\n        else revert(\"Pot/file-unrecognized-param\");\n    }\n\n    function cage() external note auth {\n        live = 0;\n        dsr = ONE;\n    }\n\n    // --- Savings Rate Accumulation ---\n    function drip() external note returns (uint tmp) {\n        require(now >= rho, \"Pot/invalid-now\");\n        tmp = rmul(rpow(dsr, now - rho, ONE), chi);\n        uint chi_ = sub_(tmp, chi);\n        chi = tmp;\n        rho = now;\n        vat.suck(address(vow), address(this), mul_(Pie, chi_));\n    }\n\n    // --- Savings Dai Management ---\n    function join(uint wad) external note {\n        require(now == rho, \"Pot/rho-not-updated\");\n        pie[msg.sender] = add_(pie[msg.sender], wad);\n        Pie             = add_(Pie,             wad);\n        vat.move(msg.sender, address(this), mul_(chi, wad));\n    }\n\n    // --- Savings Dai Management ---\n    function mockJoin(uint wad) external note {\n        // require(now == rho, \"Pot/rho-not-updated\");\n        pie[msg.sender] = add_(pie[msg.sender], wad);\n        Pie             = add_(Pie,             wad);\n        vat.move(msg.sender, address(this), mul_(chi, wad));\n    }\n\n    function exit(uint wad) external note {\n        pie[msg.sender] = sub_(pie[msg.sender], wad);\n        Pie             = sub_(Pie,             wad);\n        vat.move(address(this), msg.sender, mul_(chi, wad));\n    }\n}",
  "sourcePath": "/Users/brucedonovan/dev/yield/yDai/contracts/external/maker/pot.sol",
  "compiler": {
    "name": "solc",
    "version": "0.6.10+commit.00c0fcaf.Emscripten.clang"
  },
  "schemaVersion": "3.2.3",
  "updatedAt": "2020-09-08T15:13:37.381Z",
  "networkType": "ethereum",
  "devdoc": {
    "methods": {
      "setChi(uint256)": {
        "details": "The dsr can be left at ONE so that calling `drip` doesn't change chi"
      }
    }
  },
  "userdoc": {
    "methods": {}
  }
}