{
  "contractName": "Pot",
  "abi": [
    {
      "inputs": [
        {
          "internalType": "address",
          "name": "vat_",
          "type": "address"
        }
      ],
      "stateMutability": "nonpayable",
      "type": "constructor"
    },
    {
      "anonymous": true,
      "inputs": [
        {
          "indexed": true,
          "internalType": "bytes4",
          "name": "sig",
          "type": "bytes4"
        },
        {
          "indexed": true,
          "internalType": "address",
          "name": "usr",
          "type": "address"
        },
        {
          "indexed": true,
          "internalType": "bytes32",
          "name": "arg1",
          "type": "bytes32"
        },
        {
          "indexed": true,
          "internalType": "bytes32",
          "name": "arg2",
          "type": "bytes32"
        },
        {
          "indexed": false,
          "internalType": "bytes",
          "name": "data",
          "type": "bytes"
        }
      ],
      "name": "LogNote",
      "type": "event"
    },
    {
      "inputs": [],
      "name": "Pie",
      "outputs": [
        {
          "internalType": "uint256",
          "name": "",
          "type": "uint256"
        }
      ],
      "stateMutability": "view",
      "type": "function",
      "constant": true
    },
    {
      "inputs": [],
      "name": "chi",
      "outputs": [
        {
          "internalType": "uint256",
          "name": "",
          "type": "uint256"
        }
      ],
      "stateMutability": "view",
      "type": "function",
      "constant": true
    },
    {
      "inputs": [],
      "name": "dsr",
      "outputs": [
        {
          "internalType": "uint256",
          "name": "",
          "type": "uint256"
        }
      ],
      "stateMutability": "view",
      "type": "function",
      "constant": true
    },
    {
      "inputs": [],
      "name": "live",
      "outputs": [
        {
          "internalType": "uint256",
          "name": "",
          "type": "uint256"
        }
      ],
      "stateMutability": "view",
      "type": "function",
      "constant": true
    },
    {
      "inputs": [
        {
          "internalType": "address",
          "name": "",
          "type": "address"
        }
      ],
      "name": "pie",
      "outputs": [
        {
          "internalType": "uint256",
          "name": "",
          "type": "uint256"
        }
      ],
      "stateMutability": "view",
      "type": "function",
      "constant": true
    },
    {
      "inputs": [],
      "name": "rho",
      "outputs": [
        {
          "internalType": "uint256",
          "name": "",
          "type": "uint256"
        }
      ],
      "stateMutability": "view",
      "type": "function",
      "constant": true
    },
    {
      "inputs": [],
      "name": "vat",
      "outputs": [
        {
          "internalType": "contract VatLike",
          "name": "",
          "type": "address"
        }
      ],
      "stateMutability": "view",
      "type": "function",
      "constant": true
    },
    {
      "inputs": [],
      "name": "vow",
      "outputs": [
        {
          "internalType": "address",
          "name": "",
          "type": "address"
        }
      ],
      "stateMutability": "view",
      "type": "function",
      "constant": true
    },
    {
      "inputs": [
        {
          "internalType": "address",
          "name": "",
          "type": "address"
        }
      ],
      "name": "wards",
      "outputs": [
        {
          "internalType": "uint256",
          "name": "",
          "type": "uint256"
        }
      ],
      "stateMutability": "view",
      "type": "function",
      "constant": true
    },
    {
      "inputs": [
        {
          "internalType": "address",
          "name": "guy",
          "type": "address"
        }
      ],
      "name": "rely",
      "outputs": [],
      "stateMutability": "nonpayable",
      "type": "function"
    },
    {
      "inputs": [
        {
          "internalType": "address",
          "name": "guy",
          "type": "address"
        }
      ],
      "name": "deny",
      "outputs": [],
      "stateMutability": "nonpayable",
      "type": "function"
    },
    {
      "inputs": [
        {
          "internalType": "uint256",
          "name": "chi_",
          "type": "uint256"
        }
      ],
      "name": "setChi",
      "outputs": [],
      "stateMutability": "nonpayable",
      "type": "function"
    },
    {
      "inputs": [
        {
          "internalType": "bytes32",
          "name": "what",
          "type": "bytes32"
        },
        {
          "internalType": "uint256",
          "name": "data",
          "type": "uint256"
        }
      ],
      "name": "file",
      "outputs": [],
      "stateMutability": "nonpayable",
      "type": "function"
    },
    {
      "inputs": [
        {
          "internalType": "bytes32",
          "name": "what",
          "type": "bytes32"
        },
        {
          "internalType": "address",
          "name": "addr",
          "type": "address"
        }
      ],
      "name": "file",
      "outputs": [],
      "stateMutability": "nonpayable",
      "type": "function"
    },
    {
      "inputs": [],
      "name": "cage",
      "outputs": [],
      "stateMutability": "nonpayable",
      "type": "function"
    },
    {
      "inputs": [],
      "name": "drip",
      "outputs": [
        {
          "internalType": "uint256",
          "name": "tmp",
          "type": "uint256"
        }
      ],
      "stateMutability": "nonpayable",
      "type": "function"
    },
    {
      "inputs": [
        {
          "internalType": "uint256",
          "name": "wad",
          "type": "uint256"
        }
      ],
      "name": "join",
      "outputs": [],
      "stateMutability": "nonpayable",
      "type": "function"
    },
    {
      "inputs": [
        {
          "internalType": "uint256",
          "name": "wad",
          "type": "uint256"
        }
      ],
      "name": "mockJoin",
      "outputs": [],
      "stateMutability": "nonpayable",
      "type": "function"
    },
    {
      "inputs": [
        {
          "internalType": "uint256",
          "name": "wad",
          "type": "uint256"
        }
      ],
      "name": "exit",
      "outputs": [],
      "stateMutability": "nonpayable",
      "type": "function"
    }
  ],
  "bytecode": "0x608060405234801561001057600080fd5b50604051610b5c380380610b5c8339818101604052602081101561003357600080fd5b5051336000908152602081905260409020600190819055600580546001600160a01b039093166001600160a01b0319909316929092179091556b033b2e3c9fd0803ce8000000600381905560045542600755600855610ac5806100976000396000f3fe608060405234801561001057600080fd5b50600436106101215760003560e01c806365fae35e116100ad5780639f678cca116100715780639f678cca1461027a578063bf353dbb14610282578063c92aecc4146102a8578063d4e8be83146102b0578063ffa0d7b3146102dc57610121565b806365fae35e1461020157806369245009146102275780637f8661a11461022f578063957aa58c1461024c5780639c52a7f11461025457610121565b806329ae8114116100f457806329ae8114146101a25780632c69ed58146101c557806336569e77146101cd578063487bf082146101f1578063626cb3c5146101f957610121565b8063049878f3146101265780630bebac86146101455780631d8048de1461017d57806320aba08b1461019a575b600080fd5b6101436004803603602081101561013c57600080fd5b50356102f9565b005b61016b6004803603602081101561015b57600080fd5b50356001600160a01b0316610428565b60408051918252519081900360200190f35b6101436004803603602081101561019357600080fd5b5035610345565b61016b61043a565b610143600480360360408110156101b857600080fd5b5080359060200135610440565b61016b610594565b6101d561059a565b604080516001600160a01b039092168252519081900360200190f35b61016b6105a9565b6101d56105af565b6101436004803603602081101561021757600080fd5b50356001600160a01b03166105be565b610143610634565b6101436004803603602081101561024557600080fd5b50356106a4565b61016b610704565b6101436004803603602081101561026a57600080fd5b50356001600160a01b031661070a565b61016b61077d565b61016b6004803603602081101561029857600080fd5b50356001600160a01b03166108bb565b61016b6108cd565b610143600480360360408110156102c657600080fd5b50803590602001356001600160a01b03166108d3565b610143600480360360208110156102f257600080fd5b503561095a565b6007544214610345576040805162461bcd60e51b8152602060048201526013602482015272141bdd0bdc9a1bcb5b9bdd0b5d5c19185d1959606a1b604482015290519081900360640190fd5b3360009081526001602052604090205461035f908261095f565b3360009081526001602052604090205560025461037c908261095f565b6002556005546004546001600160a01b039091169063bb35783b90339030906103a59086610975565b6040518463ffffffff1660e01b815260040180846001600160a01b03166001600160a01b03168152602001836001600160a01b03166001600160a01b031681526020018281526020019350505050600060405180830381600087803b15801561040d57600080fd5b505af1158015610421573d6000803e3d6000fd5b5050505050565b60016020526000908152604090205481565b60075481565b33600090815260208190526040902054600114610499576040805162461bcd60e51b8152602060048201526012602482015271141bdd0bdb9bdd0b585d5d1a1bdc9a5e995960721b604482015290519081900360640190fd5b6008546001146104df576040805162461bcd60e51b815260206004820152600c60248201526b506f742f6e6f742d6c69766560a01b604482015290519081900360640190fd5b600754421461052b576040805162461bcd60e51b8152602060048201526013602482015272141bdd0bdc9a1bcb5b9bdd0b5d5c19185d1959606a1b604482015290519081900360640190fd5b81623239b960e91b1415610543576003819055610590565b6040805162461bcd60e51b815260206004820152601b60248201527f506f742f66696c652d756e7265636f676e697a65642d706172616d0000000000604482015290519081900360640190fd5b5050565b60025481565b6005546001600160a01b031681565b60035481565b6006546001600160a01b031681565b33600090815260208190526040902054600114610617576040805162461bcd60e51b8152602060048201526012602482015271141bdd0bdb9bdd0b585d5d1a1bdc9a5e995960721b604482015290519081900360640190fd5b6001600160a01b0316600090815260208190526040902060019055565b3360009081526020819052604090205460011461068d576040805162461bcd60e51b8152602060048201526012602482015271141bdd0bdb9bdd0b585d5d1a1bdc9a5e995960721b604482015290519081900360640190fd5b60006008556b033b2e3c9fd0803ce8000000600355565b336000908152600160205260409020546106be9082610999565b336000908152600160205260409020556002546106db9082610999565b6002556005546004546001600160a01b039091169063bb35783b90309033906103a59086610975565b60085481565b33600090815260208190526040902054600114610763576040805162461bcd60e51b8152602060048201526012602482015271141bdd0bdb9bdd0b585d5d1a1bdc9a5e995960721b604482015290519081900360640190fd5b6001600160a01b0316600090815260208190526040812055565b60006007544210156107c8576040805162461bcd60e51b815260206004820152600f60248201526e506f742f696e76616c69642d6e6f7760881b604482015290519081900360640190fd5b6107f06107e860035460075442036b033b2e3c9fd0803ce80000006109a9565b600454610a67565b9050600061080082600454610999565b6004839055426007556005546006546002549293506001600160a01b039182169263f24e23eb929091169030906108379086610975565b6040518463ffffffff1660e01b815260040180846001600160a01b03166001600160a01b03168152602001836001600160a01b03166001600160a01b031681526020018281526020019350505050600060405180830381600087803b15801561089f57600080fd5b505af11580156108b3573d6000803e3d6000fd5b505050505090565b60006020819052908152604090205481565b60045481565b3360009081526020819052604090205460011461092c576040805162461bcd60e51b8152602060048201526012602482015271141bdd0bdb9bdd0b585d5d1a1bdc9a5e995960721b604482015290519081900360640190fd5b8162766f7760e81b141561054357600680546001600160a01b0319166001600160a01b038316179055610590565b600455565b8082018281101561096f57600080fd5b92915050565b60008115806109905750508082028282828161098d57fe5b04145b61096f57600080fd5b8082038281111561096f57600080fd5b6000838015610a49576001841680156109c4578592506109c8565b8392505b50600283046002850494505b8415610a435785860286878204146109eb57600080fd5b818101818110156109fb57600080fd5b8590049650506001851615610a38578583028387820414158715151615610a2157600080fd5b81810181811015610a3157600080fd5b8590049350505b6002850494506109d4565b50610a5f565b838015610a595760009250610a5d565b8392505b505b509392505050565b60006b033b2e3c9fd0803ce8000000610a808484610975565b81610a8757fe5b04939250505056fea26469706673582212204ecca16ad2da6019bae417a61e4e067147a5d396aedfafeffae2409fb0117a5d64736f6c634300060a0033",
  "immutableReferences": {},
  "source": "// SPDX-License-Identifier: AGPL-3.0-or-later\r\n/// pot.sol -- Dai Savings Rate\r\n\r\n// Copyright (C) 2018 Rain <rainbreak@riseup.net>\r\n//\r\n// This program is free software: you can redistribute it and/or modify\r\n// it under the terms of the GNU Affero General Public License as published by\r\n// the Free Software Foundation, either version 3 of the License, or\r\n// (at your option) any later version.\r\n//\r\n// This program is distributed in the hope that it will be useful,\r\n// but WITHOUT ANY WARRANTY; without even the implied warranty of\r\n// MERCHANTABILITY or FITNESS FOR A PARTICULAR PURPOSE.  See the\r\n// GNU Affero General Public License for more details.\r\n//\r\n// You should have received a copy of the GNU Affero General Public License\r\n// along with this program.  If not, see <https://www.gnu.org/licenses/>.\r\n\r\npragma solidity ^0.6.0;\r\n\r\nimport \"./lib.sol\";\r\n\r\n/*\r\n   \"Savings Dai\" is obtained when Dai is deposited into\r\n   this contract. Each \"Savings Dai\" accrues Dai interest\r\n   at the \"Dai Savings Rate\".\r\n   This contract does not implement a user tradeable token\r\n   and is intended to be used with adapters.\r\n         --- `save` your `dai` in the `pot` ---\r\n   - `dsr`: the Dai Savings Rate\r\n   - `pie`: user balance of Savings Dai\r\n   - `join`: start saving some dai\r\n   - `exit`: remove some dai\r\n   - `drip`: perform rate collection\r\n*/\r\n\r\ninterface VatLike {\r\n    function move(address,address,uint256) external;\r\n    function suck(address,address,uint256) external;\r\n}\r\n\r\ncontract Pot is LibNote {\r\n    // --- Auth ---\r\n    mapping (address => uint) public wards;\r\n    function rely(address guy) external note auth { wards[guy] = 1; }\r\n    function deny(address guy) external note auth { wards[guy] = 0; }\r\n    modifier auth {\r\n        require(wards[msg.sender] == 1, \"Pot/not-authorized\");\r\n        _;\r\n    }\r\n\r\n    // --- Data ---\r\n    mapping (address => uint256) public pie;  // user Savings Dai\r\n\r\n    uint256 public Pie;  // total Savings Dai\r\n    uint256 public dsr;  // the Dai Savings Rate\r\n    uint256 public chi;  // the Rate Accumulator\r\n\r\n    VatLike public vat;  // CDP engine\r\n    address public vow;  // debt engine\r\n    uint256 public rho;  // time of last drip\r\n\r\n    uint256 public live;  // Access Flag\r\n\r\n    // --- Init ---\r\n    constructor(address vat_) public {\r\n        wards[msg.sender] = 1;\r\n        vat = VatLike(vat_);\r\n        dsr = ONE;\r\n        chi = ONE;\r\n        rho = now;\r\n        live = 1;\r\n    }\r\n\r\n    // --- Test ---\r\n    /// @dev The dsr can be left at ONE so that calling `drip` doesn't change chi\r\n    function setChi(uint chi_) public {\r\n        chi = chi_;\r\n    }\r\n\r\n    // --- Math ---\r\n    uint256 constant ONE = 10 ** 27;\r\n    function rpow(uint x, uint n, uint base) internal pure returns (uint z) {\r\n        assembly {\r\n            switch x case 0 {switch n case 0 {z := base} default {z := 0}}\r\n            default {\r\n                switch mod(n, 2) case 0 { z := base } default { z := x }\r\n                let half := div(base, 2)  // for rounding.\r\n                for { n := div(n, 2) } n { n := div(n,2) } {\r\n                    let xx := mul(x, x)\r\n                    if iszero(eq(div(xx, x), x)) { revert(0,0) }\r\n                    let xxRound := add(xx, half)\r\n                    if lt(xxRound, xx) { revert(0,0) }\r\n                    x := div(xxRound, base)\r\n                    if mod(n,2) {\r\n                        let zx := mul(z, x)\r\n                        if and(iszero(iszero(x)), iszero(eq(div(zx, x), z))) { revert(0,0) }\r\n                        let zxRound := add(zx, half)\r\n                        if lt(zxRound, zx) { revert(0,0) }\r\n                        z := div(zxRound, base)\r\n                    }\r\n                }\r\n            }\r\n        }\r\n    }\r\n\r\n    function rmul(uint x, uint y) internal pure returns (uint z) {\r\n        z = mul_(x, y) / ONE;\r\n    }\r\n\r\n    function add_(uint x, uint y) internal pure returns (uint z) {\r\n        require((z = x + y) >= x);\r\n    }\r\n\r\n    function sub_(uint x, uint y) internal pure returns (uint z) {\r\n        require((z = x - y) <= x);\r\n    }\r\n\r\n    function mul_(uint x, uint y) internal pure returns (uint z) {\r\n        require(y == 0 || (z = x * y) / y == x);\r\n    }\r\n\r\n    // --- Administration ---\r\n    function file(bytes32 what, uint256 data) external note auth {\r\n        require(live == 1, \"Pot/not-live\");\r\n        require(now == rho, \"Pot/rho-not-updated\");\r\n        if (what == \"dsr\") dsr = data;\r\n        else revert(\"Pot/file-unrecognized-param\");\r\n    }\r\n\r\n    function file(bytes32 what, address addr) external note auth {\r\n        if (what == \"vow\") vow = addr;\r\n        else revert(\"Pot/file-unrecognized-param\");\r\n    }\r\n\r\n    function cage() external note auth {\r\n        live = 0;\r\n        dsr = ONE;\r\n    }\r\n\r\n    // --- Savings Rate Accumulation ---\r\n    function drip() external note returns (uint tmp) {\r\n        require(now >= rho, \"Pot/invalid-now\");\r\n        tmp = rmul(rpow(dsr, now - rho, ONE), chi);\r\n        uint chi_ = sub_(tmp, chi);\r\n        chi = tmp;\r\n        rho = now;\r\n        vat.suck(address(vow), address(this), mul_(Pie, chi_));\r\n    }\r\n\r\n    // --- Savings Dai Management ---\r\n    function join(uint wad) external note {\r\n        require(now == rho, \"Pot/rho-not-updated\");\r\n        pie[msg.sender] = add_(pie[msg.sender], wad);\r\n        Pie             = add_(Pie,             wad);\r\n        vat.move(msg.sender, address(this), mul_(chi, wad));\r\n    }\r\n\r\n    // --- Savings Dai Management ---\r\n    function mockJoin(uint wad) external note {\r\n        // require(now == rho, \"Pot/rho-not-updated\");\r\n        pie[msg.sender] = add_(pie[msg.sender], wad);\r\n        Pie             = add_(Pie,             wad);\r\n        vat.move(msg.sender, address(this), mul_(chi, wad));\r\n    }\r\n\r\n    function exit(uint wad) external note {\r\n        pie[msg.sender] = sub_(pie[msg.sender], wad);\r\n        Pie             = sub_(Pie,             wad);\r\n        vat.move(address(this), msg.sender, mul_(chi, wad));\r\n    }\r\n}",
  "sourcePath": "C:/Users/bruce/dev/yield/yDai/contracts/external/maker/pot.sol",
  "compiler": {
    "name": "solc",
    "version": "0.6.10+commit.00c0fcaf.Emscripten.clang"
  },
  "schemaVersion": "3.2.3",
  "updatedAt": "2020-08-03T09:58:53.550Z",
  "networkType": "ethereum",
  "devdoc": {
    "methods": {
      "setChi(uint256)": {
        "details": "The dsr can be left at ONE so that calling `drip` doesn't change chi"
      }
    }
  },
  "userdoc": {
    "methods": {}
  }
}