{
  "contractName": "ProxyRegistry",
  "abi": [
    {
      "inputs": [
        {
          "internalType": "address",
          "name": "factory_",
          "type": "address"
        }
      ],
      "stateMutability": "nonpayable",
      "type": "constructor"
    },
    {
      "inputs": [
        {
          "internalType": "address",
          "name": "",
          "type": "address"
        }
      ],
      "name": "proxies",
      "outputs": [
        {
          "internalType": "contract DSProxy",
          "name": "",
          "type": "address"
        }
      ],
      "stateMutability": "view",
      "type": "function"
    },
    {
      "inputs": [],
      "name": "build",
      "outputs": [
        {
          "internalType": "address payable",
          "name": "proxy",
          "type": "address"
        }
      ],
      "stateMutability": "nonpayable",
      "type": "function"
    },
    {
      "inputs": [
        {
          "internalType": "address",
          "name": "owner",
          "type": "address"
        }
      ],
      "name": "build",
      "outputs": [
        {
          "internalType": "address payable",
          "name": "proxy",
          "type": "address"
        }
      ],
      "stateMutability": "nonpayable",
      "type": "function"
    }
  ],
  "bytecode": "0x608060405234801561001057600080fd5b506040516102dd3803806102dd8339818101604052602081101561003357600080fd5b5051600180546001600160a01b0319166001600160a01b0390921691909117905561027a806100636000396000f3fe608060405234801561001057600080fd5b50600436106100415760003560e01c80638e1a55fc14610046578063c45527911461006a578063f3701da214610090575b600080fd5b61004e6100b6565b604080516001600160a01b039092168252519081900360200190f35b61004e6004803603602081101561008057600080fd5b50356001600160a01b03166100c6565b61004e600480360360208110156100a657600080fd5b50356001600160a01b03166100e1565b60006100c1336100e1565b905090565b6000602081905290815260409020546001600160a01b031681565b6001600160a01b03818116600090815260208190526040812054909116158061018d57506001600160a01b0380831660008181526020818152604091829020548251638da5cb5b60e01b8152925193941692638da5cb5b926004808201939291829003018186803b15801561015557600080fd5b505afa158015610169573d6000803e3d6000fd5b505050506040513d602081101561017f57600080fd5b50516001600160a01b031614155b61019657600080fd5b600154604080516379b80ed160e11b81526001600160a01b0385811660048301529151919092169163f3701da29160248083019260209291908290030181600087803b1580156101e557600080fd5b505af11580156101f9573d6000803e3d6000fd5b505050506040513d602081101561020f57600080fd5b50516001600160a01b03928316600090815260208190526040902080546001600160a01b03191693821693909317909255509056fea264697066735822122041914229d4f1729309a52f2f177bbe1f1879282eb8e5ca18c2a8a66c7a0122ef64736f6c634300060a0033",
  "immutableReferences": {},
  "source": "// SPDX-License-Identifier: GPL-3.0-or-later\npragma solidity >=0.5.0;\n\nimport \"./dsproxy.sol\";\n\n// This Registry deploys new proxy instances through DSProxyFactory.build(address) and keeps a registry of owner => proxy\ncontract ProxyRegistry {\n    mapping(address => DSProxy) public proxies;\n    DSProxyFactory factory;\n\n    constructor(address factory_) public {\n        factory = DSProxyFactory(factory_);\n    }\n\n    // deploys a new proxy instance\n    // sets owner of proxy to caller\n    function build() public returns (address payable proxy) {\n        proxy = build(msg.sender);\n    }\n\n    // deploys a new proxy instance\n    // sets custom owner of proxy\n    function build(address owner) public returns (address payable proxy) {\n        require(proxies[owner] == DSProxy(0) || proxies[owner].owner() != owner); // Not allow new proxy if the user already has one and remains being the owner\n        proxy = factory.build(owner);\n        proxies[owner] = DSProxy(proxy);\n    }\n}",
  "sourcePath": "/Users/brucedonovan/dev/yield/yDai/contracts/external/maker/ProxyRegistry.sol",
  "compiler": {
    "name": "solc",
    "version": "0.6.10+commit.00c0fcaf.Emscripten.clang"
  },
  "schemaVersion": "3.2.3",
  "updatedAt": "2020-11-12T09:01:49.511Z",
  "devdoc": {
    "methods": {}
  },
  "userdoc": {
    "methods": {}
  }
}