{
  "contractName": "Splitter",
  "abi": [
    {
      "inputs": [
        {
          "internalType": "address",
          "name": "vat_",
          "type": "address"
        },
        {
          "internalType": "address",
          "name": "weth_",
          "type": "address"
        },
        {
          "internalType": "address",
          "name": "dai_",
          "type": "address"
        },
        {
          "internalType": "address",
          "name": "wethJoin_",
          "type": "address"
        },
        {
          "internalType": "address",
          "name": "daiJoin_",
          "type": "address"
        },
        {
          "internalType": "address",
          "name": "chai_",
          "type": "address"
        },
        {
          "internalType": "address",
          "name": "yDai_",
          "type": "address"
        },
        {
          "internalType": "address",
          "name": "controller_",
          "type": "address"
        },
        {
          "internalType": "address",
          "name": "market_",
          "type": "address"
        }
      ],
      "stateMutability": "nonpayable",
      "type": "constructor"
    },
    {
      "inputs": [],
      "name": "MTY",
      "outputs": [
        {
          "internalType": "bool",
          "name": "",
          "type": "bool"
        }
      ],
      "stateMutability": "view",
      "type": "function"
    },
    {
      "inputs": [],
      "name": "UNIT",
      "outputs": [
        {
          "internalType": "uint256",
          "name": "",
          "type": "uint256"
        }
      ],
      "stateMutability": "view",
      "type": "function"
    },
    {
      "inputs": [],
      "name": "WETH",
      "outputs": [
        {
          "internalType": "bytes32",
          "name": "",
          "type": "bytes32"
        }
      ],
      "stateMutability": "view",
      "type": "function"
    },
    {
      "inputs": [],
      "name": "YTM",
      "outputs": [
        {
          "internalType": "bool",
          "name": "",
          "type": "bool"
        }
      ],
      "stateMutability": "view",
      "type": "function"
    },
    {
      "inputs": [],
      "name": "chai",
      "outputs": [
        {
          "internalType": "contract IChai",
          "name": "",
          "type": "address"
        }
      ],
      "stateMutability": "view",
      "type": "function"
    },
    {
      "inputs": [],
      "name": "controller",
      "outputs": [
        {
          "internalType": "contract IController",
          "name": "",
          "type": "address"
        }
      ],
      "stateMutability": "view",
      "type": "function"
    },
    {
      "inputs": [],
      "name": "dai",
      "outputs": [
        {
          "internalType": "contract IERC20",
          "name": "",
          "type": "address"
        }
      ],
      "stateMutability": "view",
      "type": "function"
    },
    {
      "inputs": [],
      "name": "daiJoin",
      "outputs": [
        {
          "internalType": "contract IDaiJoin",
          "name": "",
          "type": "address"
        }
      ],
      "stateMutability": "view",
      "type": "function"
    },
    {
      "inputs": [],
      "name": "market",
      "outputs": [
        {
          "internalType": "contract IMarket",
          "name": "",
          "type": "address"
        }
      ],
      "stateMutability": "view",
      "type": "function"
    },
    {
      "inputs": [],
      "name": "vat",
      "outputs": [
        {
          "internalType": "contract IVat",
          "name": "",
          "type": "address"
        }
      ],
      "stateMutability": "view",
      "type": "function"
    },
    {
      "inputs": [],
      "name": "weth",
      "outputs": [
        {
          "internalType": "contract IERC20",
          "name": "",
          "type": "address"
        }
      ],
      "stateMutability": "view",
      "type": "function"
    },
    {
      "inputs": [],
      "name": "wethJoin",
      "outputs": [
        {
          "internalType": "contract IGemJoin",
          "name": "",
          "type": "address"
        }
      ],
      "stateMutability": "view",
      "type": "function"
    },
    {
      "inputs": [],
      "name": "yDai",
      "outputs": [
        {
          "internalType": "contract IYDai",
          "name": "",
          "type": "address"
        }
      ],
      "stateMutability": "view",
      "type": "function"
    },
    {
      "inputs": [
        {
          "internalType": "address",
          "name": "user",
          "type": "address"
        },
        {
          "internalType": "uint256",
          "name": "yDaiAmount",
          "type": "uint256"
        },
        {
          "internalType": "uint256",
          "name": "wethAmount",
          "type": "uint256"
        },
        {
          "internalType": "uint256",
          "name": "daiAmount",
          "type": "uint256"
        }
      ],
      "name": "makerToYield",
      "outputs": [],
      "stateMutability": "nonpayable",
      "type": "function"
    },
    {
      "inputs": [
        {
          "internalType": "address",
          "name": "user",
          "type": "address"
        },
        {
          "internalType": "uint256",
          "name": "yDaiAmount",
          "type": "uint256"
        },
        {
          "internalType": "uint256",
          "name": "wethAmount",
          "type": "uint256"
        }
      ],
      "name": "yieldToMaker",
      "outputs": [],
      "stateMutability": "nonpayable",
      "type": "function"
    },
    {
      "inputs": [
        {
          "internalType": "address",
          "name": "user",
          "type": "address"
        },
        {
          "internalType": "uint256",
          "name": "yDaiAmount",
          "type": "uint256"
        },
        {
          "internalType": "bytes",
          "name": "data",
          "type": "bytes"
        }
      ],
      "name": "executeOnFlashMint",
      "outputs": [],
      "stateMutability": "nonpayable",
      "type": "function"
    }
  ],
  "bytecode": "0x608060405234801561001057600080fd5b5060405161176c38038061176c833981810160405261012081101561003457600080fd5b81019080805190602001909291908051906020019092919080519060200190929190805190602001909291908051906020019092919080519060200190929190805190602001909291908051906020019092919080519060200190929190505050886000806101000a8154816001600160a01b0302191690836001600160a01b0316021790555087600160006101000a8154816001600160a01b0302191690836001600160a01b0316021790555086600260006101000a8154816001600160a01b0302191690836001600160a01b0316021790555085600360006101000a8154816001600160a01b0302191690836001600160a01b0316021790555084600460006101000a8154816001600160a01b0302191690836001600160a01b0316021790555083600560006101000a8154816001600160a01b0302191690836001600160a01b0316021790555082600660006101000a8154816001600160a01b0302191690836001600160a01b0316021790555081600760006101000a8154816001600160a01b0302191690836001600160a01b0316021790555080600860006101000a8154816001600160a01b0302191690836001600160a01b031602179055506000809054906101000a90046001600160a01b03166001600160a01b031663a3b22fc4866040518263ffffffff1660e01b815260040180826001600160a01b03166001600160a01b03168152602001915050600060405180830381600087803b15801561025f57600080fd5b505af1158015610273573d6000803e3d6000fd5b505060008054604080516328ec8bf160e21b81526001600160a01b038c81166004830152915191909216945063a3b22fc493506024808301939282900301818387803b1580156102c257600080fd5b505af11580156102d6573d6000803e3d6000fd5b5050505050505050505050505061147a806102f26000396000f3fe608060405234801561001057600080fd5b50600436106101005760003560e01c8063aef52e3f11610097578063c11645bc11610066578063c11645bc14610280578063c43a860814610288578063f4b9fa7514610290578063f77c47911461029857610100565b8063aef52e3f146101b3578063b69d0456146101bb578063bd80f783146101c3578063bdd26b31146101fb57610100565b80637e3d4cfa116100d35780637e3d4cfa1461016d57806380f55605146101895780639d8e217714610191578063ad5c4648146101ab57610100565b80631fcd1f2b146101055780632dbacef31461013957806336569e771461015d5780633fc8cef314610165575b600080fd5b6101376004803603606081101561011b57600080fd5b506001600160a01b0381351690602081013590604001356102a0565b005b6101416103ac565b604080516001600160a01b039092168252519081900360200190f35b6101416103bb565b6101416103ca565b6101756103d9565b604080519115158252519081900360200190f35b6101416103de565b6101996103ed565b60408051918252519081900360200190f35b6101996103fd565b610141610409565b610141610418565b610137600480360360808110156101d957600080fd5b506001600160a01b038135169060208101359060408101359060600135610427565b6101376004803603606081101561021157600080fd5b6001600160a01b038235169160208101359181019060608101604082013564010000000081111561024157600080fd5b82018360208201111561025357600080fd5b8035906020019184600183028401116401000000008311171561027557600080fd5b509092509050610533565b610141610582565b610175610591565b610141610596565b6101416105a5565b600654604080516000602080830182905282840186905260608084018390528451808503820181526080850195869052633ea2146560e01b9095526001600160a01b038981166084860190815260a486018a905260c48601928352865160e487015286519190971696633ea21465968b968b969195929493610104909101928601918190849084905b83811015610341578181015183820152602001610329565b50505050905090810190601f16801561036e5780820380516001836020036101000a031916815260200191505b50945050505050600060405180830381600087803b15801561038f57600080fd5b505af11580156103a3573d6000803e3d6000fd5b50505050505050565b6003546001600160a01b031681565b6000546001600160a01b031681565b6001546001600160a01b031681565b600181565b6008546001600160a01b031681565b6b033b2e3c9fd0803ce800000081565b644554482d4160d81b81565b6006546001600160a01b031681565b6005546001600160a01b031681565b60065460408051600160208083019190915281830186905260608083018690528351808403820181526080840194859052633ea2146560e01b9094526001600160a01b038981166084850190815260a485018a905260c48501928352855160e486015285519190961695633ea21465958b958b95919492936101049091019185019080838360005b838110156104c75781810151838201526020016104af565b50505050905090810190601f1680156104f45780820380516001836020036101000a031916815260200191505b50945050505050600060405180830381600087803b15801561051557600080fd5b505af1158015610529573d6000803e3d6000fd5b5050505050505050565b60008060008484606081101561054857600080fd5b5080351515935060208101359250604001359050600183141561057157610571878784846105b4565b826103a3576103a387878484610b51565b6004546001600160a01b031681565b600081565b6002546001600160a01b031681565b6007546001600160a01b031681565b6008546040805163c47b5b8360e01b8152306004820181905260248201526001600160801b038616604482015290516001600160a01b039092169163c47b5b83916064808201926020929091908290030181600087803b15801561061757600080fd5b505af115801561062b573d6000803e3d6000fd5b505050506040513d602081101561064157600080fd5b5050600554604080516370a0823160e01b8152306004820181905291516001600160a01b039093169263ef693bed929184916370a0823191602480820192602092909190829003018186803b15801561069957600080fd5b505afa1580156106ad573d6000803e3d6000fd5b505050506040513d60208110156106c357600080fd5b5051604080516001600160e01b031960e086901b1681526001600160a01b039093166004840152602483019190915251604480830192600092919082900301818387803b15801561071357600080fd5b505af1158015610727573d6000803e3d6000fd5b50506004805460408051633b4da69f60e01b81526001600160a01b038a811694820194909452602481018790529051929091169350633b4da69f925060448082019260009290919082900301818387803b15801561078457600080fd5b505af1158015610798573d6000803e3d6000fd5b50506000805460408051636cb1c69b60e11b8152644554482d4160d81b600482015290519294506001600160a01b03909116925063d9638d369160248083019260a0929190829003018186803b1580156107f157600080fd5b505afa158015610805573d6000803e3d6000fd5b505050506040513d60a081101561081b57600080fd5b50602001516000549091506001600160a01b0316637608870386808061084088611252565b60000361085561085089896112b4565b611252565b604080516001600160e01b031960e089901b168152644554482d4160d81b60048201526001600160a01b03968716602482015294861660448601529290941660648401526084830152600092830360a48301525160c4808301939282900301818387803b1580156108c557600080fd5b505af11580156108d9573d6000803e3d6000fd5b50506000805460408051633088df1760e11b8152644554482d4160d81b60048201526001600160a01b038b81166024830152306044830152606482018a90529151919092169450636111be2e93506084808301939282900301818387803b15801561094357600080fd5b505af1158015610957573d6000803e3d6000fd5b50506003546040805163ef693bed60e01b81523060048201526024810188905290516001600160a01b03909216935063ef693bed925060448082019260009290919082900301818387803b1580156109ae57600080fd5b505af11580156109c2573d6000803e3d6000fd5b5050600754604080516356dcf2a760e11b8152644554482d4160d81b60048201523060248201526001600160a01b038a8116604483015260648201899052915191909216935063adb9e54e9250608480830192600092919082900301818387803b158015610a2f57600080fd5b505af1158015610a43573d6000803e3d6000fd5b50506007546006546040805163204f83f960e01b815290516001600160a01b03938416955063801d325f9450644554482d4160d81b939092169163204f83f991600480820192602092909190829003018186803b158015610aa357600080fd5b505afa158015610ab7573d6000803e3d6000fd5b505050506040513d6020811015610acd57600080fd5b5051604080516001600160e01b031960e086901b168152600481019390935260248301919091526001600160a01b038916604483018190526064830152608482018890525160a480830192600092919082900301818387803b158015610b3257600080fd5b505af1158015610b46573d6000803e3d6000fd5b505050505050505050565b6007546006546040805163204f83f960e01b815290516001600160a01b03938416936391371ffb93644554482d4160d81b9391169163204f83f991600480820192602092909190829003018186803b158015610bac57600080fd5b505afa158015610bc0573d6000803e3d6000fd5b505050506040513d6020811015610bd657600080fd5b5051604080516001600160e01b031960e086901b168152600481019390935260248301919091526001600160a01b038816604483018190526064830152608482018790525160a480830192600092919082900301818387803b158015610c3b57600080fd5b505af1158015610c4f573d6000803e3d6000fd5b50506007546040805163470660bb60e11b8152644554482d4160d81b60048201526001600160a01b038981166024830152306044830152606482018890529151919092169350638e0cc1769250608480830192600092919082900301818387803b158015610cbc57600080fd5b505af1158015610cd0573d6000803e3d6000fd5b505060035460408051633b4da69f60e01b81526001600160a01b038981166004830152602482018890529151919092169350633b4da69f9250604480830192600092919082900301818387803b158015610d2957600080fd5b505af1158015610d3d573d6000803e3d6000fd5b50506000805460408051636cb1c69b60e11b8152644554482d4160d81b600482015290519294506001600160a01b03909116925063d9638d369160248083019260a0929190829003018186803b158015610d9657600080fd5b505afa158015610daa573d6000803e3d6000fd5b505050506040513d60a0811015610dc057600080fd5b50602001516000549091506001600160a01b03166376088703868080610de588611252565b610df261085089896112b4565b604080516001600160e01b031960e089901b168152644554482d4160d81b60048201526001600160a01b0396871660248201529486166044860152929094166064840152608483015260a4820192909252905160c480830192600092919082900301818387803b158015610e6557600080fd5b505af1158015610e79573d6000803e3d6000fd5b5050600080546040805163bb35783b60e01b81526001600160a01b038b8116600483015230602483015260448201899052915191909216945063bb35783b93506064808301939282900301818387803b158015610ed557600080fd5b505af1158015610ee9573d6000803e3d6000fd5b5050600480546040805163ef693bed60e01b8152309381019390935260248301879052516001600160a01b03909116935063ef693bed9250604480830192600092919082900301818387803b158015610f4157600080fd5b505af1158015610f55573d6000803e3d6000fd5b5050600554600254604080516370a0823160e01b8152306004820181905291516001600160a01b039485169650633b4da69f95509193909216916370a08231916024808301926020929190829003018186803b158015610fb457600080fd5b505afa158015610fc8573d6000803e3d6000fd5b505050506040513d6020811015610fde57600080fd5b5051604080516001600160e01b031960e086901b1681526001600160a01b039093166004840152602483019190915251604480830192600092919082900301818387803b15801561102e57600080fd5b505af1158015611042573d6000803e3d6000fd5b5050600854600554604080516370a0823160e01b8152306004820181905291516001600160a01b039485169650637af4360895509193849316916370a0823191602480820192602092909190829003018186803b1580156110a257600080fd5b505afa1580156110b6573d6000803e3d6000fd5b505050506040513d60208110156110cc57600080fd5b5051604080516001600160e01b031960e087901b1681526001600160a01b0394851660048201529290931660248301526001600160801b03166044820152905160648083019260209291908290030181600087803b15801561112d57600080fd5b505af1158015611141573d6000803e3d6000fd5b505050506040513d602081101561115757600080fd5b5050600654604080516370a0823160e01b815230600482015290516001600160a01b039092169163a9059cbb91889184916370a08231916024808301926020929190829003018186803b1580156111ad57600080fd5b505afa1580156111c1573d6000803e3d6000fd5b505050506040513d60208110156111d757600080fd5b5051604080516001600160e01b031960e086901b1681526001600160a01b03909316600484015260248301919091525160448083019260209291908290030181600087803b15801561122857600080fd5b505af115801561123c573d6000803e3d6000fd5b505050506040513d60208110156103a357600080fd5b60006001600160ff1b038211156112b0576040805162461bcd60e51b815260206004820152601760248201527f54726561737572793a2043617374206f766572666c6f77000000000000000000604482015290519081900360640190fd5b5090565b60006112e2826112d6856b033b2e3c9fd0803ce800000063ffffffff6112eb16565b9063ffffffff61134416565b90505b92915050565b6000826112fa575060006112e5565b8282028284828161130757fe5b04146112e25760405162461bcd60e51b81526004018080602001828103825260218152602001806114246021913960400191505060405180910390fd5b60006112e283836040518060400160405280601a81526020017f536166654d6174683a206469766973696f6e206279207a65726f0000000000008152506000818361140d5760405162461bcd60e51b81526004018080602001828103825283818151815260200191508051906020019080838360005b838110156113d25781810151838201526020016113ba565b50505050905090810190601f1680156113ff5780820380516001836020036101000a031916815260200191505b509250505060405180910390fd5b50600083858161141957fe5b049594505050505056fe536166654d6174683a206d756c7469706c69636174696f6e206f766572666c6f77a26469706673582212206ad3faa81314d584b24ae128e1b854ebc7122335d107da922ff62c43e313089264736f6c634300060a0033",
  "source": "pragma solidity ^0.6.10;\n\nimport \"@openzeppelin/contracts/token/ERC20/IERC20.sol\";\nimport \"../helpers/DecimalMath.sol\";\nimport \"../interfaces/IVat.sol\";\nimport \"../interfaces/IGemJoin.sol\";\nimport \"../interfaces/IDaiJoin.sol\";\nimport \"../interfaces/IChai.sol\";\nimport \"../interfaces/IYDai.sol\";\nimport \"../interfaces/IController.sol\";\nimport \"../interfaces/IMarket.sol\";\nimport \"../interfaces/IFlashMinter.sol\";\n// import \"@nomiclabs/buidler/console.sol\";\n\n\n/// @dev Splitter migrates vaults between MakerDAO and Yield using flash minting.\ncontract Splitter is IFlashMinter, DecimalMath {\n\n    bytes32 public constant WETH = \"ETH-A\";\n    bool constant public MTY = true;\n    bool constant public YTM = false;\n\n    IVat public vat;\n    IERC20 public weth;\n    IERC20 public dai;\n    IGemJoin public wethJoin;\n    IDaiJoin public daiJoin;\n    IChai public chai;\n    IYDai public yDai;\n    IController public controller;\n    IMarket public market;\n\n    constructor(\n        address vat_,\n        address weth_,\n        address dai_,\n        address wethJoin_,\n        address daiJoin_,\n        address chai_,\n        address yDai_,\n        address controller_,\n        address market_\n    ) public {\n        vat = IVat(vat_);\n        weth = IERC20(weth_);\n        dai = IERC20(dai_);\n        wethJoin = IGemJoin(wethJoin_);\n        daiJoin = IDaiJoin(daiJoin_);\n        chai = IChai(chai_);\n        yDai = IYDai(yDai_);\n        controller = IController(controller_);\n        market = IMarket(market_);\n\n        vat.hope(daiJoin_);\n        vat.hope(wethJoin_);\n    }\n\n    /// @dev Safe casting from uint256 to int256\n    function toInt(uint256 x) internal pure returns(int256) {\n        require(\n            x <= 57896044618658097711785492504343953926634992332820282019728792003956564819967,\n            \"Treasury: Cast overflow\"\n        );\n        return int256(x);\n    }\n\n    function makerToYield(address user, uint256 yDaiAmount, uint256 wethAmount, uint256 daiAmount) public {\n        // The user specifies the yDai he wants to mint to cover his maker debt, the weth to be passed on as collateral, and the dai debt to move\n        // Flash mint the yDai\n        yDai.flashMint(user, yDaiAmount, abi.encode(MTY, wethAmount, daiAmount));\n    }\n\n    function yieldToMaker(address user, uint256 yDaiAmount, uint256 wethAmount) public {\n        // The user specifies the yDai he wants to move, and the weth to be passed on as collateral\n        // Flash mint the yDai\n        yDai.flashMint( user, yDaiAmount, abi.encode(YTM, wethAmount, 0)); // The daiAmount encoded is ignored\n    }\n\n    function executeOnFlashMint(address user, uint256 yDaiAmount, bytes calldata data) external override {\n        (bool direction, uint256 wethAmount, uint256 daiAmount) = abi.decode(data, (bool, uint256, uint256));\n        if(direction == MTY) _makerToYield(user, yDaiAmount, wethAmount, daiAmount); // TODO: Consider parameter order\n        if(direction == YTM) _yieldToMaker(user, yDaiAmount, wethAmount, daiAmount); // TODO: Consider parameter order\n    }\n\n    function _makerToYield(address user, uint256 yDaiAmount, uint256 wethAmount, uint256 daiAmount) internal {\n        // Sell the YDai for Chai\n        // TODO: Calculate how much dai, then chai is needed, and use buyChai\n        // Splitter will hold the chai temporarily - TODO: Consider SafeCast\n        market.sellYDai(address(this), address(this), uint128(yDaiAmount));\n        // Unpack the Chai into Dai\n        chai.exit(address(this), chai.balanceOf(address(this)));\n        // Put the Dai in Maker\n        // TODO: daiJoin.hope(splitter.address, { from: user });\n        daiJoin.join(user, daiAmount);\n        // Pay the debt in Maker\n        (, uint256 rate,,,) = vat.ilks(\"ETH-A\");            // Retrieve the MakerDAO stability fee for Weth\n        // TODO: vat.hope(splitter.address, { from: user });\n        vat.frob(\n            \"ETH-A\",\n            user,\n            user,\n            user,\n            -toInt(wethAmount),                           // Weth collateral to add\n            -toInt(divd(daiAmount, rate))  // Dai debt to remove\n        );\n        // Remove the collateral from Maker\n        vat.flux(\"ETH-A\", user, address(this), wethAmount);\n        wethJoin.exit(address(this), wethAmount); // Splitter will hold the weth temporarily\n        // Add the collateral to Yield\n        controller.post(WETH, address(this), user, wethAmount);\n        // Borrow the Dai\n        // TODO: controller.addProxy(splitter.address, { from: user });\n        controller.borrow(WETH, yDai.maturity(), user, user, yDaiAmount);\n    }\n\n    function _yieldToMaker(address user, uint256 yDaiAmount, uint256 wethAmount, uint256 daiAmount) internal {\n        // Pay the Yield debt\n        controller.repayYDai(WETH, yDai.maturity(), user, user, yDaiAmount); // repayYDai wil only take what is needed\n        // Withdraw the collateral from Yield\n        // TODO: dealer.addProxy(splitter.address, { from: user });\n        controller.withdraw(WETH, user, address(this), wethAmount);\n        // Post the collateral to Maker\n        // TODO: wethJoin.hope(splitter.address, { from: user });\n        wethJoin.join(user, wethAmount);\n        // Borrow the Dai from Maker\n        (, uint256 rate,,,) = vat.ilks(\"ETH-A\");            // Retrieve the MakerDAO stability fee for Weth\n        // TODO: vat.hope(splitter.address, { from: user });\n        vat.frob(\n            \"ETH-A\",\n            user,\n            user,\n            user,\n            toInt(wethAmount),                           // Weth collateral to add\n            toInt(divd(daiAmount, rate))  // Dai debt to remove\n        );\n        vat.move(user, address(this), daiAmount);\n        daiJoin.exit(address(this), daiAmount); // Splitter will hold the dai temporarily\n        // Wrap the Dai into Chai\n        chai.join(address(this), dai.balanceOf(address(this)));\n        // Sell the Chai for YDai at Market - It should make up for what was taken with repayYdai\n        // Splitter will hold the chai temporarily - TODO: Consider SafeCast\n        market.sellChai(address(this), address(this), uint128(chai.balanceOf(address(this))));\n        yDai.transfer(user, yDai.balanceOf(address(this)));\n    }\n}",
  "sourcePath": "/Users/bruce/dev/yieldprotocol/ytoken-mvp/contracts/peripheral/Splitter.sol",
  "compiler": {
    "name": "solc",
    "version": "0.6.10+commit.00c0fcaf.Emscripten.clang"
  },
  "schemaVersion": "3.0.23",
  "updatedAt": "2020-07-15T08:08:37.785Z",
  "devdoc": {
    "details": "Splitter migrates vaults between MakerDAO and Yield using flash minting.",
    "methods": {}
  },
  "userdoc": {
    "methods": {}
  }
}