{
  "contractName": "Splitter",
  "abi": [
    {
      "inputs": [
        {
          "internalType": "address",
          "name": "vat_",
          "type": "address"
        },
        {
          "internalType": "address",
          "name": "weth_",
          "type": "address"
        },
        {
          "internalType": "address",
          "name": "dai_",
          "type": "address"
        },
        {
          "internalType": "address",
          "name": "wethJoin_",
          "type": "address"
        },
        {
          "internalType": "address",
          "name": "daiJoin_",
          "type": "address"
        },
        {
          "internalType": "address",
          "name": "treasury_",
          "type": "address"
        },
        {
          "internalType": "address",
          "name": "controller_",
          "type": "address"
        },
        {
          "internalType": "address[]",
          "name": "pools",
          "type": "address[]"
        }
      ],
      "stateMutability": "nonpayable",
      "type": "constructor"
    },
    {
      "inputs": [],
      "name": "MTY",
      "outputs": [
        {
          "internalType": "bool",
          "name": "",
          "type": "bool"
        }
      ],
      "stateMutability": "view",
      "type": "function"
    },
    {
      "inputs": [],
      "name": "UNIT",
      "outputs": [
        {
          "internalType": "uint256",
          "name": "",
          "type": "uint256"
        }
      ],
      "stateMutability": "view",
      "type": "function"
    },
    {
      "inputs": [],
      "name": "WETH",
      "outputs": [
        {
          "internalType": "bytes32",
          "name": "",
          "type": "bytes32"
        }
      ],
      "stateMutability": "view",
      "type": "function"
    },
    {
      "inputs": [],
      "name": "YTM",
      "outputs": [
        {
          "internalType": "bool",
          "name": "",
          "type": "bool"
        }
      ],
      "stateMutability": "view",
      "type": "function"
    },
    {
      "inputs": [],
      "name": "controller",
      "outputs": [
        {
          "internalType": "contract IController",
          "name": "",
          "type": "address"
        }
      ],
      "stateMutability": "view",
      "type": "function"
    },
    {
      "inputs": [],
      "name": "dai",
      "outputs": [
        {
          "internalType": "contract IERC20",
          "name": "",
          "type": "address"
        }
      ],
      "stateMutability": "view",
      "type": "function"
    },
    {
      "inputs": [],
      "name": "daiJoin",
      "outputs": [
        {
          "internalType": "contract IDaiJoin",
          "name": "",
          "type": "address"
        }
      ],
      "stateMutability": "view",
      "type": "function"
    },
    {
      "inputs": [],
      "name": "vat",
      "outputs": [
        {
          "internalType": "contract IVat",
          "name": "",
          "type": "address"
        }
      ],
      "stateMutability": "view",
      "type": "function"
    },
    {
      "inputs": [],
      "name": "weth",
      "outputs": [
        {
          "internalType": "contract IERC20",
          "name": "",
          "type": "address"
        }
      ],
      "stateMutability": "view",
      "type": "function"
    },
    {
      "inputs": [],
      "name": "wethJoin",
      "outputs": [
        {
          "internalType": "contract IGemJoin",
          "name": "",
          "type": "address"
        }
      ],
      "stateMutability": "view",
      "type": "function"
    },
    {
      "inputs": [
        {
          "internalType": "address",
          "name": "pool",
          "type": "address"
        },
        {
          "internalType": "address",
          "name": "user",
          "type": "address"
        },
        {
          "internalType": "uint256",
          "name": "wethAmount",
          "type": "uint256"
        },
        {
          "internalType": "uint256",
          "name": "daiAmount",
          "type": "uint256"
        }
      ],
      "name": "makerToYield",
      "outputs": [],
      "stateMutability": "nonpayable",
      "type": "function"
    },
    {
      "inputs": [
        {
          "internalType": "address",
          "name": "pool",
          "type": "address"
        },
        {
          "internalType": "address",
          "name": "user",
          "type": "address"
        },
        {
          "internalType": "uint256",
          "name": "wethAmount",
          "type": "uint256"
        },
        {
          "internalType": "uint256",
          "name": "daiAmount",
          "type": "uint256"
        },
        {
          "internalType": "uint256",
          "name": "deadline",
          "type": "uint256"
        },
        {
          "internalType": "uint8",
          "name": "v",
          "type": "uint8"
        },
        {
          "internalType": "bytes32",
          "name": "r",
          "type": "bytes32"
        },
        {
          "internalType": "bytes32",
          "name": "s",
          "type": "bytes32"
        }
      ],
      "name": "makerToYieldBySignature",
      "outputs": [],
      "stateMutability": "nonpayable",
      "type": "function"
    },
    {
      "inputs": [
        {
          "internalType": "address",
          "name": "pool",
          "type": "address"
        },
        {
          "internalType": "address",
          "name": "user",
          "type": "address"
        },
        {
          "internalType": "uint256",
          "name": "yDaiAmount",
          "type": "uint256"
        },
        {
          "internalType": "uint256",
          "name": "wethAmount",
          "type": "uint256"
        }
      ],
      "name": "yieldToMaker",
      "outputs": [],
      "stateMutability": "nonpayable",
      "type": "function"
    },
    {
      "inputs": [
        {
          "internalType": "address",
          "name": "pool",
          "type": "address"
        },
        {
          "internalType": "address",
          "name": "user",
          "type": "address"
        },
        {
          "internalType": "uint256",
          "name": "yDaiAmount",
          "type": "uint256"
        },
        {
          "internalType": "uint256",
          "name": "wethAmount",
          "type": "uint256"
        },
        {
          "internalType": "uint256",
          "name": "deadline",
          "type": "uint256"
        },
        {
          "internalType": "uint8",
          "name": "v",
          "type": "uint8"
        },
        {
          "internalType": "bytes32",
          "name": "r",
          "type": "bytes32"
        },
        {
          "internalType": "bytes32",
          "name": "s",
          "type": "bytes32"
        }
      ],
      "name": "yieldToMakerBySignature",
      "outputs": [],
      "stateMutability": "nonpayable",
      "type": "function"
    },
    {
      "inputs": [
        {
          "internalType": "address",
          "name": "",
          "type": "address"
        },
        {
          "internalType": "uint256",
          "name": "yDaiAmount",
          "type": "uint256"
        },
        {
          "internalType": "bytes",
          "name": "data",
          "type": "bytes"
        }
      ],
      "name": "executeOnFlashMint",
      "outputs": [],
      "stateMutability": "nonpayable",
      "type": "function"
    },
    {
      "inputs": [
        {
          "internalType": "uint256",
          "name": "daiAmount",
          "type": "uint256"
        }
      ],
      "name": "wethForDai",
      "outputs": [
        {
          "internalType": "uint256",
          "name": "",
          "type": "uint256"
        }
      ],
      "stateMutability": "view",
      "type": "function"
    },
    {
      "inputs": [
        {
          "internalType": "uint256",
          "name": "yDaiAmount",
          "type": "uint256"
        }
      ],
      "name": "wethForYDai",
      "outputs": [
        {
          "internalType": "uint256",
          "name": "",
          "type": "uint256"
        }
      ],
      "stateMutability": "view",
      "type": "function"
    },
    {
      "inputs": [
        {
          "internalType": "address",
          "name": "pool",
          "type": "address"
        },
        {
          "internalType": "uint256",
          "name": "daiAmount",
          "type": "uint256"
        }
      ],
      "name": "yDaiForDai",
      "outputs": [
        {
          "internalType": "uint256",
          "name": "",
          "type": "uint256"
        }
      ],
      "stateMutability": "view",
      "type": "function"
    },
    {
      "inputs": [
        {
          "internalType": "address",
          "name": "pool",
          "type": "address"
        },
        {
          "internalType": "uint256",
          "name": "yDaiAmount",
          "type": "uint256"
        }
      ],
      "name": "daiForYDai",
      "outputs": [
        {
          "internalType": "uint256",
          "name": "",
          "type": "uint256"
        }
      ],
      "stateMutability": "view",
      "type": "function"
    }
  ],
  "bytecode": "0x60806040523480156200001157600080fd5b50604051620023463803806200234683398181016040526101008110156200003857600080fd5b815160208301516040808501516060860151608087015160a088015160c089015160e08a0180519651989a9799959894979396929591949391820192846401000000008211156200008857600080fd5b9083019060208201858111156200009e57600080fd5b8251866020820283011164010000000082111715620000bc57600080fd5b82525081516020918201928201910280838360005b83811015620000eb578181015183820152602001620000d1565b50505050905001604052505050876000806101000a8154816001600160a01b0302191690836001600160a01b0316021790555086600160006101000a8154816001600160a01b0302191690836001600160a01b0316021790555085600260006101000a8154816001600160a01b0302191690836001600160a01b0316021790555084600360006101000a8154816001600160a01b0302191690836001600160a01b0316021790555083600460006101000a8154816001600160a01b0302191690836001600160a01b0316021790555081600560006101000a8154816001600160a01b0302191690836001600160a01b031602179055506000809054906101000a90046001600160a01b03166001600160a01b031663a3b22fc4856040518263ffffffff1660e01b815260040180826001600160a01b03166001600160a01b03168152602001915050600060405180830381600087803b1580156200024e57600080fd5b505af115801562000263573d6000803e3d6000fd5b505060008054604080516328ec8bf160e21b81526001600160a01b038b81166004830152915191909216945063a3b22fc493506024808301939282900301818387803b158015620002b357600080fd5b505af1158015620002c8573d6000803e3d6000fd5b50506002546040805163095ea7b360e01b81526001600160a01b0389811660048301526000196024830152915191909216935063095ea7b3925060448083019260209291908290030181600087803b1580156200032457600080fd5b505af115801562000339573d6000803e3d6000fd5b505050506040513d60208110156200035057600080fd5b50506001546040805163095ea7b360e01b81526001600160a01b03888116600483015260001960248301529151919092169163095ea7b39160448083019260209291908290030181600087803b158015620003aa57600080fd5b505af1158015620003bf573d6000803e3d6000fd5b505050506040513d6020811015620003d657600080fd5b50506001546040805163095ea7b360e01b81526001600160a01b03868116600483015260001960248301529151919092169163095ea7b39160448083019260209291908290030181600087803b1580156200043057600080fd5b505af115801562000445573d6000803e3d6000fd5b505050506040513d60208110156200045c57600080fd5b50600090505b81518110156200064d5760008282815181106200047b57fe5b60200260200101516001600160a01b031663aef52e3f6040518163ffffffff1660e01b815260040160206040518083038186803b158015620004bc57600080fd5b505afa158015620004d1573d6000803e3d6000fd5b505050506040513d6020811015620004e857600080fd5b505183519091506001600160a01b0382169063095ea7b3908590859081106200050d57fe5b60200260200101516000196040518363ffffffff1660e01b815260040180836001600160a01b03166001600160a01b0316815260200182815260200192505050602060405180830381600087803b1580156200056857600080fd5b505af11580156200057d573d6000803e3d6000fd5b505050506040513d60208110156200059457600080fd5b505060025483516001600160a01b039091169063095ea7b390859085908110620005ba57fe5b60200260200101516000196040518363ffffffff1660e01b815260040180836001600160a01b03166001600160a01b0316815260200182815260200192505050602060405180830381600087803b1580156200061557600080fd5b505af11580156200062a573d6000803e3d6000fd5b505050506040513d60208110156200064157600080fd5b50505060010162000462565b505050505050505050611ce080620006666000396000f3fe608060405234801561001057600080fd5b50600436106101215760003560e01c8063ad5c4648116100ad578063ef788f4d11610071578063ef788f4d1461030c578063f4b9fa7514610348578063f77c479114610350578063f7bbc3ca14610358578063fcd32a4f1461038457610121565b8063ad5c46481461026f578063b471480414610126578063bdd26b3114610277578063c11645bc146102fc578063c43a86081461030457610121565b806357120ded116100f457806357120ded14610189578063723d9489146101c75780637e3d4cfa146101f35780638954daa51461020f5780639d8e21771461026757610121565b806315d9c754146101265780632dbacef31461015557806336569e77146101795780633fc8cef314610181575b600080fd5b6101436004803603602081101561013c57600080fd5b50356103dc565b60408051918252519081900360200190f35b61015d610471565b604080516001600160a01b039092168252519081900360200190f35b61015d610480565b61015d61048f565b6101c56004803603608081101561019f57600080fd5b506001600160a01b0381358116916020810135909116906040810135906060013561049e565b005b610143600480360360408110156101dd57600080fd5b506001600160a01b038135169060200135610804565b6101fb6108a2565b604080519115158252519081900360200190f35b6101c5600480360361010081101561022657600080fd5b506001600160a01b03813581169160208101359091169060408101359060608101359060808101359060ff60a0820135169060c08101359060e001356108a7565b610143610945565b610143610955565b6101c56004803603606081101561028d57600080fd5b6001600160a01b03823516916020810135918101906060810160408201356401000000008111156102bd57600080fd5b8201836020820111156102cf57600080fd5b803590602001918460018302840111640100000000831117156102f157600080fd5b509092509050610961565b61015d6109d7565b6101fb6109e6565b6101c56004803603608081101561032257600080fd5b506001600160a01b038135811691602081013590911690604081013590606001356109eb565b61015d610d71565b61015d610d80565b6101436004803603604081101561036e57600080fd5b506001600160a01b038135169060200135610d8f565b6101c5600480360361010081101561039b57600080fd5b506001600160a01b03813581169160208101359091169060408101359060608101359060808101359060ff60a0820135169060c08101359060e00135610da9565b6000805460408051636cb1c69b60e11b8152644554482d4160d81b6004820152905183926001600160a01b03169163d9638d369160248083019260a0929190829003018186803b15801561042f57600080fd5b505afa158015610443573d6000803e3d6000fd5b505050506040513d60a081101561045957600080fd5b5060400151905061046a8382610e3d565b9392505050565b6003546001600160a01b031681565b6000546001600160a01b031681565b6001546001600160a01b031681565b60008054604080516309092f9760e21b8152644554482d4160d81b60048201526001600160a01b038781166024830152825185949190911692632424be5c9260448082019391829003018186803b1580156104f857600080fd5b505afa15801561050c573d6000803e3d6000fd5b505050506040513d604081101561052257600080fd5b5080516020909101516000805460408051636cb1c69b60e11b8152644554482d4160d81b6004820152905194965092945090926001600160a01b039091169163d9638d369160248083019260a0929190829003018186803b15801561058657600080fd5b505afa15801561059a573d6000803e3d6000fd5b505050506040513d60a08110156105b057600080fd5b506020015190506105c18282610e6b565b8411156105ff5760405162461bcd60e51b8152600401808060200182810382526022815260200180611c686022913960400191505060405180910390fd5b8285111561063e5760405162461bcd60e51b8152600401808060200182810382526028815260200180611c406028913960400191505060405180910390fd5b6000876001600160a01b031663aef52e3f6040518163ffffffff1660e01b815260040160206040518083038186803b15801561067957600080fd5b505afa15801561068d573d6000803e3d6000fd5b505050506040513d60208110156106a357600080fd5b505190506001600160a01b038116633ea21465306106c18b89610804565b60018c8c8c8c6040516020018086151515158152602001856001600160a01b03166001600160a01b03168152602001846001600160a01b03166001600160a01b03168152602001838152602001828152602001955050505050506040516020818303038152906040526040518463ffffffff1660e01b815260040180846001600160a01b03166001600160a01b0316815260200183815260200180602001828103825283818151815260200191508051906020019080838360005b8381101561079457818101518382015260200161077c565b50505050905090810190601f1680156107c15780820380516001836020036101000a031916815260200191505b50945050505050600060405180830381600087803b1580156107e257600080fd5b505af11580156107f6573d6000803e3d6000fd5b505050505050505050505050565b6000826001600160a01b0316634e20e95261081e84610e8d565b6040518263ffffffff1660e01b815260040180826001600160801b03166001600160801b0316815260200191505060206040518083038186803b15801561086457600080fd5b505afa158015610878573d6000803e3d6000fd5b505050506040513d602081101561088e57600080fd5b50516001600160801b031690505b92915050565b600181565b60055460408051631a28ff0560e01b81523360048201523060248201526044810187905260ff861660648201526084810185905260a4810184905290516001600160a01b0390921691631a28ff059160c48082019260009290919082900301818387803b15801561091757600080fd5b505af115801561092b573d6000803e3d6000fd5b5050505061093b8888888861049e565b5050505050505050565b6b033b2e3c9fd0803ce800000081565b644554482d4160d81b81565b6000806000806000868660a081101561097957600080fd5b508035151595506001600160a01b0360208201358116955060408201351693506060810135925060800135905060018514156109bb576109bb84848484610ee5565b846109cc576109cc84848a85611415565b505050505050505050565b6004546001600160a01b031681565b600081565b6000846001600160a01b031663aef52e3f6040518163ffffffff1660e01b815260040160206040518083038186803b158015610a2657600080fd5b505afa158015610a3a573d6000803e3d6000fd5b505050506040513d6020811015610a5057600080fd5b50516005546040805163204f83f960e01b815290519293506001600160a01b03918216926398cdae5a92644554482d4160d81b929086169163204f83f991600480820192602092909190829003018186803b158015610aae57600080fd5b505afa158015610ac2573d6000803e3d6000fd5b505050506040513d6020811015610ad857600080fd5b5051604080516001600160e01b031960e086901b168152600481019390935260248301919091526001600160a01b0388166044830152516064808301926020929190829003018186803b158015610b2e57600080fd5b505afa158015610b42573d6000803e3d6000fd5b505050506040513d6020811015610b5857600080fd5b5051831115610b985760405162461bcd60e51b8152600401808060200182810382526022815260200180611bf66022913960400191505060405180910390fd5b6005546040805163dd62f42360e01b8152644554482d4160d81b60048201526001600160a01b0387811660248301529151919092169163dd62f423916044808301926020929190829003018186803b158015610bf357600080fd5b505afa158015610c07573d6000803e3d6000fd5b505050506040513d6020811015610c1d57600080fd5b5051821115610c5d5760405162461bcd60e51b8152600401808060200182810382526028815260200180611c186028913960400191505060405180910390fd5b60408051600060208083018290526001600160a01b03898116848601528881166060808601919091526080850188905260a08086018590528651808703909101815260c0860196879052633ea2146560e01b9096523060c4860181815260e487018b905261010487019283528751610124880152875193891697633ea214659792968c969195929493610144019291860191908190849084905b83811015610d0f578181015183820152602001610cf7565b50505050905090810190601f168015610d3c5780820380516001836020036101000a031916815260200191505b50945050505050600060405180830381600087803b158015610d5d57600080fd5b505af11580156109cc573d6000803e3d6000fd5b6002546001600160a01b031681565b6005546001600160a01b031681565b6000826001600160a01b0316631e4d81db61081e84610e8d565b60055460408051631a28ff0560e01b81523360048201523060248201526044810187905260ff861660648201526084810185905260a4810184905290516001600160a01b0390921691631a28ff059160c48082019260009290919082900301818387803b158015610e1957600080fd5b505af1158015610e2d573d6000803e3d6000fd5b5050505061093b888888886109eb565b600061046a82610e5f856b033b2e3c9fd0803ce800000063ffffffff611a1216565b9063ffffffff611a6b16565b600061046a6b033b2e3c9fd0803ce8000000610e5f858563ffffffff611a1216565b60006001600160801b03821115610ee1576040805162461bcd60e51b8152602060048201526013602482015272506f6f6c3a2043617374206f766572666c6f7760681b604482015290519081900360640190fd5b5090565b60008490506000816001600160a01b031663aef52e3f6040518163ffffffff1660e01b815260040160206040518083038186803b158015610f2557600080fd5b505afa158015610f39573d6000803e3d6000fd5b505050506040513d6020811015610f4f57600080fd5b5051905060006001600160a01b03831663cc5783d33080610f6f88610e8d565b604080516001600160e01b031960e087901b1681526001600160a01b0394851660048201529290931660248301526001600160801b03166044820152905160648083019260209291908290030181600087803b158015610fce57600080fd5b505af1158015610fe2573d6000803e3d6000fd5b505050506040513d6020811015610ff857600080fd5b50516004805460408051633b4da69f60e01b81526001600160a01b038b8116948201949094526024810189905290516001600160801b039094169450911691633b4da69f9160448082019260009290919082900301818387803b15801561105e57600080fd5b505af1158015611072573d6000803e3d6000fd5b50506000805460408051636cb1c69b60e11b8152644554482d4160d81b600482015290519294506001600160a01b03909116925063d9638d369160248083019260a0929190829003018186803b1580156110cb57600080fd5b505afa1580156110df573d6000803e3d6000fd5b505050506040513d60a08110156110f557600080fd5b50602001516000549091506001600160a01b0316637608870388808061111a8b611aad565b60000361112f61112a8c89611b0b565b611aad565b604080516001600160e01b031960e089901b168152644554482d4160d81b60048201526001600160a01b03968716602482015294861660448601529290941660648401526084830152600092830360a48301525160c4808301939282900301818387803b15801561119f57600080fd5b505af11580156111b3573d6000803e3d6000fd5b50506000805460408051633088df1760e11b8152644554482d4160d81b60048201526001600160a01b038d81166024830152306044830152606482018d90529151919092169450636111be2e93506084808301939282900301818387803b15801561121d57600080fd5b505af1158015611231573d6000803e3d6000fd5b50506003546040805163ef693bed60e01b8152306004820152602481018b905290516001600160a01b03909216935063ef693bed925060448082019260009290919082900301818387803b15801561128857600080fd5b505af115801561129c573d6000803e3d6000fd5b5050600554604080516356dcf2a760e11b8152644554482d4160d81b60048201523060248201526001600160a01b038c81166044830152606482018c9052915191909216935063adb9e54e9250608480830192600092919082900301818387803b15801561130957600080fd5b505af115801561131d573d6000803e3d6000fd5b50505050600560009054906101000a90046001600160a01b03166001600160a01b031663801d325f644554482d4160d81b856001600160a01b031663204f83f96040518163ffffffff1660e01b815260040160206040518083038186803b15801561138757600080fd5b505afa15801561139b573d6000803e3d6000fd5b505050506040513d60208110156113b157600080fd5b5051604080516001600160e01b031960e086901b168152600481019390935260248301919091526001600160a01b038b166044830152306064830152608482018690525160a480830192600092919082900301818387803b1580156107e257600080fd5b60008490506000816001600160a01b031663aef52e3f6040518163ffffffff1660e01b815260040160206040518083038186803b15801561145557600080fd5b505afa158015611469573d6000803e3d6000fd5b505050506040513d602081101561147f57600080fd5b50516005546040805163204f83f960e01b815290519293506001600160a01b03918216926391371ffb92644554482d4160d81b929086169163204f83f991600480820192602092909190829003018186803b1580156114dd57600080fd5b505afa1580156114f1573d6000803e3d6000fd5b505050506040513d602081101561150757600080fd5b5051604080516001600160e01b031960e086901b168152600481019390935260248301919091523060448301526001600160a01b0389166064830152608482018890525160a480830192600092919082900301818387803b15801561156b57600080fd5b505af115801561157f573d6000803e3d6000fd5b50506005546040805163470660bb60e11b8152644554482d4160d81b60048201526001600160a01b038a81166024830152306044830152606482018990529151919092169350638e0cc1769250608480830192600092919082900301818387803b1580156115ec57600080fd5b505af1158015611600573d6000803e3d6000fd5b505060035460408051633b4da69f60e01b81526001600160a01b038a81166004830152602482018990529151919092169350633b4da69f9250604480830192600092919082900301818387803b15801561165957600080fd5b505af115801561166d573d6000803e3d6000fd5b505050506000826001600160a01b0316631e4d81db61168b87610e8d565b6040518263ffffffff1660e01b815260040180826001600160801b03166001600160801b0316815260200191505060206040518083038186803b1580156116d157600080fd5b505afa1580156116e5573d6000803e3d6000fd5b505050506040513d60208110156116fb57600080fd5b50516000805460408051636cb1c69b60e11b8152644554482d4160d81b600482015290516001600160801b03909416945091926001600160a01b039091169163d9638d369160248083019260a0929190829003018186803b15801561175f57600080fd5b505afa158015611773573d6000803e3d6000fd5b505050506040513d60a081101561178957600080fd5b50602001516000549091506001600160a01b031663760887038880806117ae8a611aad565b6117bb61112a8989611b0b565b604080516001600160e01b031960e089901b168152644554482d4160d81b60048201526001600160a01b0396871660248201529486166044860152929094166064840152608483015260a4820192909252905160c480830192600092919082900301818387803b15801561182e57600080fd5b505af1158015611842573d6000803e3d6000fd5b50506000546001600160a01b0316915063bb35783b90508830611877866b033b2e3c9fd0803ce800000063ffffffff611a1216565b6040518463ffffffff1660e01b815260040180846001600160a01b03166001600160a01b03168152602001836001600160a01b03166001600160a01b031681526020018281526020019350505050600060405180830381600087803b1580156118df57600080fd5b505af11580156118f3573d6000803e3d6000fd5b5050600480546040805163ef693bed60e01b8152309381019390935260248301879052516001600160a01b03909116935063ef693bed9250604480830192600092919082900301818387803b15801561194b57600080fd5b505af115801561195f573d6000803e3d6000fd5b50505050836001600160a01b031663d43fde70303061197d8a610e8d565b604080516001600160e01b031960e087901b1681526001600160a01b0394851660048201529290931660248301526001600160801b03166044820152905160648083019260209291908290030181600087803b1580156119dc57600080fd5b505af11580156119f0573d6000803e3d6000fd5b505050506040513d6020811015611a0657600080fd5b50505050505050505050565b600082611a215750600061089c565b82820282848281611a2e57fe5b041461046a5760405162461bcd60e51b8152600401808060200182810382526021815260200180611c8a6021913960400191505060405180910390fd5b600061046a83836040518060400160405280601a81526020017f536166654d6174683a206469766973696f6e206279207a65726f000000000000815250611b53565b60006001600160ff1b03821115610ee1576040805162461bcd60e51b815260206004820152601760248201527f54726561737572793a2043617374206f766572666c6f77000000000000000000604482015290519081900360640190fd5b600080611b2e83610e5f866b204fce5e3e2502611000000063ffffffff611a1216565b9050600a810615611b4857600a810460010191505061089c565b600a9004905061089c565b60008183611bdf5760405162461bcd60e51b81526004018080602001828103825283818151815260200191508051906020019080838360005b83811015611ba4578181015183820152602001611b8c565b50505050905090810190601f168015611bd15780820380516001836020036101000a031916815260200191505b509250505060405180910390fd5b506000838581611beb57fe5b049594505050505056fe53706c69747465723a204e6f7420656e6f756768206465627420696e205969656c6453706c69747465723a204e6f7420656e6f75676820636f6c6c61746572616c20696e205969656c6453706c69747465723a204e6f7420656e6f75676820636f6c6c61746572616c20696e204d616b657253706c69747465723a204e6f7420656e6f756768206465627420696e204d616b6572536166654d6174683a206d756c7469706c69636174696f6e206f766572666c6f77a26469706673582212208accd22d20bd7cb46a986594910298e0962a815b8bca01f5f8e4f4184e24d09464736f6c634300060a0033",
  "immutableReferences": {},
  "source": "// SPDX-License-Identifier: GPL-3.0-or-later\r\npragma solidity ^0.6.10;\r\n\r\nimport \"@openzeppelin/contracts/math/Math.sol\";\r\nimport \"@openzeppelin/contracts/token/ERC20/IERC20.sol\";\r\nimport \"../helpers/DecimalMath.sol\";\r\nimport \"../interfaces/IVat.sol\";\r\nimport \"../interfaces/IGemJoin.sol\";\r\nimport \"../interfaces/IDaiJoin.sol\";\r\nimport \"../interfaces/IPot.sol\";\r\nimport \"../interfaces/IChai.sol\";\r\nimport \"../interfaces/IYDai.sol\";\r\nimport \"../interfaces/IController.sol\";\r\nimport \"../interfaces/IPool.sol\";\r\nimport \"../interfaces/IFlashMinter.sol\";\r\n\r\n\r\n/// @dev Splitter migrates vaults between MakerDAO and Yield using flash minting.\r\ncontract Splitter is IFlashMinter, DecimalMath {\r\n\r\n    bytes32 public constant WETH = \"ETH-A\";\r\n    bool constant public MTY = true;\r\n    bool constant public YTM = false;\r\n\r\n    IVat public vat;\r\n    IERC20 public weth;\r\n    IERC20 public dai;\r\n    IGemJoin public wethJoin;\r\n    IDaiJoin public daiJoin;\r\n    IController public controller;\r\n\r\n    constructor(\r\n        address vat_,\r\n        address weth_,\r\n        address dai_,\r\n        address wethJoin_,\r\n        address daiJoin_,\r\n        address treasury_,\r\n        address controller_,\r\n        address[] memory pools\r\n    ) public {\r\n        vat = IVat(vat_);\r\n        weth = IERC20(weth_);\r\n        dai = IERC20(dai_);\r\n        wethJoin = IGemJoin(wethJoin_);\r\n        daiJoin = IDaiJoin(daiJoin_);\r\n        controller = IController(controller_);\r\n\r\n        vat.hope(daiJoin_);\r\n        vat.hope(wethJoin_);\r\n\r\n        dai.approve(daiJoin_, uint(-1));\r\n        weth.approve(wethJoin_, uint(-1));\r\n        weth.approve(treasury_, uint(-1));\r\n\r\n        for (uint i = 0; i < pools.length; i++) {\r\n            IYDai yDai = IPool(pools[i]).yDai();\r\n            yDai.approve(pools[i], uint256(-1));\r\n            dai.approve(pools[i], uint256(-1));            \r\n        }\r\n    }\r\n\r\n    /// @dev Safe casting from uint256 to int256\r\n    function toInt256(uint256 x) internal pure returns(int256) {\r\n        require(\r\n            x <= uint256(type(int256).max),\r\n            \"Treasury: Cast overflow\"\r\n        );\r\n        return int256(x);\r\n    }\r\n    \r\n    /// @dev Safe casting from uint256 to uint128\r\n    function toUint128(uint256 x) internal pure returns(uint128) {\r\n        require(\r\n            x <= type(uint128).max,\r\n            \"Pool: Cast overflow\"\r\n        );\r\n        return uint128(x);\r\n    }\r\n\r\n    /// @dev Transfer debt and collateral from MakerDAO to Yield\r\n    /// Needs vat.hope(splitter.address, { from: user });\r\n    /// Needs controller.addDelegate(splitter.address, { from: user });\r\n    /// @param pool The pool to trade in (and therefore yDai series to borrow)\r\n    /// @param user Vault to migrate.\r\n    /// @param wethAmount weth to move from MakerDAO to Yield. Needs to be high enough to collateralize the dai debt in Yield,\r\n    /// and low enough to make sure that debt left in MakerDAO is also collateralized.\r\n    /// @param daiAmount dai debt to move from MakerDAO to Yield. Denominated in Dai (= art * rate)\r\n    function makerToYield(address pool, address user, uint256 wethAmount, uint256 daiAmount) public {\r\n        // The user specifies the yDai he wants to mint to cover his maker debt, the weth to be passed on as collateral, and the dai debt to move\r\n        (uint256 ink, uint256 art) = vat.urns(WETH, user);\r\n        (, uint256 rate,,,) = vat.ilks(\"ETH-A\");\r\n        require(\r\n            daiAmount <= muld(art, rate),\r\n            \"Splitter: Not enough debt in Maker\"\r\n        );\r\n        require(\r\n            wethAmount <= ink,\r\n            \"Splitter: Not enough collateral in Maker\"\r\n        );\r\n        // Flash mint the yDai\r\n        IYDai yDai = IPool(pool).yDai();\r\n        yDai.flashMint(\r\n            address(this),\r\n            yDaiForDai(pool, daiAmount),\r\n            abi.encode(MTY, pool, user, wethAmount, daiAmount)\r\n        );\r\n    }\r\n\r\n    /// @dev Transfer debt and collateral from MakerDAO to Yield using an encoded signature for controller\r\n    /// Needs vat.hope(splitter.address, { from: user });\r\n    /// @param pool The pool to trade in (and therefore yDai series to borrow)\r\n    /// @param user Vault to migrate.\r\n    /// @param wethAmount weth to move from MakerDAO to Yield. Needs to be high enough to collateralize the dai debt in Yield,\r\n    /// and low enough to make sure that debt left in MakerDAO is also collateralized.\r\n    /// @param daiAmount dai debt to move from MakerDAO to Yield. Denominated in Dai (= art * rate)\r\n    /// @param deadline Latest block timestamp for which the signature is valid\r\n    /// @param v Signature parameter\r\n    /// @param r Signature parameter\r\n    /// @param s Signature parameter\r\n    function makerToYieldBySignature(address pool, address user, uint256 wethAmount, uint256 daiAmount, uint deadline, uint8 v, bytes32 r, bytes32 s) public {\r\n        controller.addDelegateBySignature(msg.sender, address(this), deadline, v, r, s);\r\n        makerToYield(pool, user, wethAmount, daiAmount);\r\n    }\r\n\r\n    /// @dev Transfer debt and collateral from Yield to MakerDAO\r\n    /// Needs vat.hope(splitter.address, { from: user });\r\n    /// Needs controller.addDelegate(splitter.address, { from: user });\r\n    /// @param pool The pool to trade in (and therefore yDai series to migrate)\r\n    /// @param user Vault to migrate.\r\n    /// @param yDaiAmount yDai debt to move from Yield to MakerDAO.\r\n    /// @param wethAmount weth to move from Yield to MakerDAO. Needs to be high enough to collateralize the dai debt in MakerDAO,\r\n    /// and low enough to make sure that debt left in Yield is also collateralized.\r\n    function yieldToMaker(address pool, address user, uint256 yDaiAmount, uint256 wethAmount) public {\r\n        IYDai yDai = IPool(pool).yDai();\r\n\r\n        // The user specifies the yDai he wants to move, and the weth to be passed on as collateral\r\n        require(\r\n            yDaiAmount <= controller.debtYDai(WETH, yDai.maturity(), user),\r\n            \"Splitter: Not enough debt in Yield\"\r\n        );\r\n        require(\r\n            wethAmount <= controller.posted(WETH, user),\r\n            \"Splitter: Not enough collateral in Yield\"\r\n        );\r\n        // Flash mint the yDai\r\n        yDai.flashMint(\r\n            address(this),\r\n            yDaiAmount,\r\n            abi.encode(YTM, pool, user, wethAmount, 0)\r\n        ); // The daiAmount encoded is ignored\r\n    }\r\n\r\n    /// @dev Transfer debt and collateral from Yield to MakerDAO using an encoded signature for controller\r\n    /// Needs vat.hope(splitter.address, { from: user });\r\n    /// @param pool The pool to trade in (and therefore yDai series to migrate)\r\n    /// @param user Vault to migrate.\r\n    /// @param yDaiAmount yDai debt to move from Yield to MakerDAO.\r\n    /// @param wethAmount weth to move from Yield to MakerDAO. Needs to be high enough to collateralize the dai debt in MakerDAO,\r\n    /// and low enough to make sure that debt left in Yield is also collateralized.\r\n    /// @param deadline Latest block timestamp for which the signature is valid\r\n    /// @param v Signature parameter\r\n    /// @param r Signature parameter\r\n    /// @param s Signature parameter\r\n    function yieldToMakerBySignature(address pool, address user, uint256 yDaiAmount, uint256 wethAmount, uint deadline, uint8 v, bytes32 r, bytes32 s) public {\r\n        controller.addDelegateBySignature(msg.sender, address(this), deadline, v, r, s);\r\n        yieldToMaker(pool, user, yDaiAmount, wethAmount);\r\n    }\r\n\r\n    /// @dev Callback from `YDai.flashMint()`\r\n    function executeOnFlashMint(address, uint256 yDaiAmount, bytes calldata data) external override {\r\n        (bool direction, address pool, address user, uint256 wethAmount, uint256 daiAmount) = \r\n            abi.decode(data, (bool, address, address, uint256, uint256));\r\n        if(direction == MTY) _makerToYield(pool, user, wethAmount, daiAmount);\r\n        if(direction == YTM) _yieldToMaker(pool, user, yDaiAmount, wethAmount);\r\n    }\r\n\r\n    /// @dev Minimum weth needed to collateralize an amount of dai in MakerDAO\r\n    function wethForDai(uint256 daiAmount) public view returns (uint256) {\r\n        (,, uint256 spot,,) = vat.ilks(\"ETH-A\");\r\n        return divd(daiAmount, spot);\r\n    }\r\n\r\n    /// @dev Minimum weth needed to collateralize an amount of yDai in Yield. Yes, it's the same formula.\r\n    function wethForYDai(uint256 yDaiAmount) public view returns (uint256) {\r\n        (,, uint256 spot,,) = vat.ilks(\"ETH-A\");\r\n        return divd(yDaiAmount, spot);\r\n    }\r\n\r\n    /// @dev Amount of yDai debt that will result from migrating Dai debt from MakerDAO to Yield\r\n    function yDaiForDai(address pool, uint256 daiAmount) public view returns (uint256) {\r\n        return IPool(pool).buyDaiPreview(toUint128(daiAmount));\r\n    }\r\n\r\n    /// @dev Amount of dai debt that will result from migrating yDai debt from Yield to MakerDAO\r\n    function daiForYDai(address pool, uint256 yDaiAmount) public view returns (uint256) {\r\n        return IPool(pool).buyYDaiPreview(toUint128(yDaiAmount));\r\n    }\r\n\r\n    /// @dev Internal function to transfer debt and collateral from MakerDAO to Yield\r\n    /// @param pool The pool to trade in (and therefore yDai series to borrow)\r\n    /// @param user Vault to migrate.\r\n    /// @param wethAmount weth to move from MakerDAO to Yield. Needs to be high enough to collateralize the dai debt in Yield,\r\n    /// and low enough to make sure that debt left in MakerDAO is also collateralized.\r\n    /// @param daiAmount dai debt to move from MakerDAO to Yield. Denominated in Dai (= art * rate)\r\n    /// Needs vat.hope(splitter.address, { from: user });\r\n    /// Needs controller.addDelegate(splitter.address, { from: user });\r\n    function _makerToYield(address pool, address user, uint256 wethAmount, uint256 daiAmount) internal {\r\n        IPool _pool = IPool(pool);\r\n        IYDai yDai = IYDai(_pool.yDai());\r\n\r\n        // Pool should take exactly all yDai flash minted. Splitter will hold the dai temporarily\r\n        uint256 yDaiSold = _pool.buyDai(address(this), address(this), toUint128(daiAmount));\r\n\r\n        daiJoin.join(user, daiAmount);      // Put the Dai in Maker\r\n        (, uint256 rate,,,) = vat.ilks(\"ETH-A\");\r\n        vat.frob(                           // Pay the debt and unlock collateral in Maker\r\n            \"ETH-A\",\r\n            user,\r\n            user,\r\n            user,\r\n            -toInt256(wethAmount),               // Removing Weth collateral\r\n            -toInt256(divdrup(daiAmount, rate))  // Removing Dai debt\r\n        );\r\n\r\n        vat.flux(\"ETH-A\", user, address(this), wethAmount);             // Remove the collateral from Maker\r\n        wethJoin.exit(address(this), wethAmount);                       // Hold the weth in Splitter\r\n        controller.post(WETH, address(this), user, wethAmount);         // Add the collateral to Yield\r\n        controller.borrow(WETH, yDai.maturity(), user, address(this), yDaiSold); // Borrow the yDai\r\n    }\r\n\r\n\r\n    /// @dev Internal function to transfer debt and collateral from Yield to MakerDAO\r\n    /// Needs vat.hope(splitter.address, { from: user });\r\n    /// Needs controller.addDelegate(splitter.address, { from: user });\r\n    /// @param pool The pool to trade in (and therefore yDai series to migrate)\r\n    /// @param user Vault to migrate.\r\n    /// @param yDaiAmount yDai debt to move from Yield to MakerDAO.\r\n    /// @param wethAmount weth to move from Yield to MakerDAO. Needs to be high enough to collateralize the dai debt in MakerDAO,\r\n    /// and low enough to make sure that debt left in Yield is also collateralized.\r\n    function _yieldToMaker(address pool, address user, uint256 yDaiAmount, uint256 wethAmount) internal {\r\n        IPool _pool = IPool(pool);\r\n        IYDai yDai = IYDai(_pool.yDai());\r\n\r\n        // Pay the Yield debt - Splitter pays YDai to remove the debt of `user`\r\n        // Controller should take exactly all yDai flash minted.\r\n        controller.repayYDai(WETH, yDai.maturity(), address(this), user, yDaiAmount);\r\n\r\n        // Withdraw the collateral from Yield, Splitter will hold it\r\n        controller.withdraw(WETH, user, address(this), wethAmount);\r\n\r\n        // Post the collateral to Maker, in the `user` vault\r\n        wethJoin.join(user, wethAmount);\r\n\r\n        // We are going to need to buy the YDai back with Dai borrowed from Maker\r\n        uint256 daiAmount = _pool.buyYDaiPreview(toUint128(yDaiAmount));\r\n\r\n        // Borrow the Dai from Maker\r\n        (, uint256 rate,,,) = vat.ilks(\"ETH-A\"); // Retrieve the MakerDAO stability fee for Weth\r\n        vat.frob(\r\n            \"ETH-A\",\r\n            user,\r\n            user,\r\n            user,\r\n            toInt256(wethAmount),                   // Adding Weth collateral\r\n            toInt256(divdrup(daiAmount, rate))      // Adding Dai debt\r\n        );\r\n        vat.move(user, address(this), daiAmount.mul(UNIT)); // Transfer the Dai to Splitter within MakerDAO, in RAD\r\n        daiJoin.exit(address(this), daiAmount);             // Splitter will hold the dai temporarily\r\n\r\n        // Sell the Dai for YDai at Pool - It should make up for what was taken with repayYdai\r\n        _pool.buyYDai(address(this), address(this), toUint128(yDaiAmount));\r\n    }\r\n}",
  "sourcePath": "C:/Users/bruce/dev/yield/yDai/contracts/peripheral/Splitter.sol",
  "compiler": {
    "name": "solc",
    "version": "0.6.10+commit.00c0fcaf.Emscripten.clang"
  },
  "schemaVersion": "3.2.3",
  "updatedAt": "2020-08-24T15:06:41.341Z",
  "devdoc": {
    "details": "Splitter migrates vaults between MakerDAO and Yield using flash minting.",
    "methods": {
      "daiForYDai(address,uint256)": {
        "details": "Amount of dai debt that will result from migrating yDai debt from Yield to MakerDAO"
      },
      "executeOnFlashMint(address,uint256,bytes)": {
        "details": "Callback from `YDai.flashMint()`"
      },
      "makerToYield(address,address,uint256,uint256)": {
        "details": "Transfer debt and collateral from MakerDAO to Yield Needs vat.hope(splitter.address, { from: user }); Needs controller.addDelegate(splitter.address, { from: user });",
        "params": {
          "daiAmount": "dai debt to move from MakerDAO to Yield. Denominated in Dai (= art * rate)",
          "pool": "The pool to trade in (and therefore yDai series to borrow)",
          "user": "Vault to migrate.",
          "wethAmount": "weth to move from MakerDAO to Yield. Needs to be high enough to collateralize the dai debt in Yield, and low enough to make sure that debt left in MakerDAO is also collateralized."
        }
      },
      "makerToYieldBySignature(address,address,uint256,uint256,uint256,uint8,bytes32,bytes32)": {
        "details": "Transfer debt and collateral from MakerDAO to Yield using an encoded signature for controller Needs vat.hope(splitter.address, { from: user });",
        "params": {
          "daiAmount": "dai debt to move from MakerDAO to Yield. Denominated in Dai (= art * rate)",
          "deadline": "Latest block timestamp for which the signature is valid",
          "pool": "The pool to trade in (and therefore yDai series to borrow)",
          "r": "Signature parameter",
          "s": "Signature parameter",
          "user": "Vault to migrate.",
          "v": "Signature parameter",
          "wethAmount": "weth to move from MakerDAO to Yield. Needs to be high enough to collateralize the dai debt in Yield, and low enough to make sure that debt left in MakerDAO is also collateralized."
        }
      },
      "wethForDai(uint256)": {
        "details": "Minimum weth needed to collateralize an amount of dai in MakerDAO"
      },
      "wethForYDai(uint256)": {
        "details": "Minimum weth needed to collateralize an amount of yDai in Yield. Yes, it's the same formula."
      },
      "yDaiForDai(address,uint256)": {
        "details": "Amount of yDai debt that will result from migrating Dai debt from MakerDAO to Yield"
      },
      "yieldToMaker(address,address,uint256,uint256)": {
        "details": "Transfer debt and collateral from Yield to MakerDAO Needs vat.hope(splitter.address, { from: user }); Needs controller.addDelegate(splitter.address, { from: user });",
        "params": {
          "pool": "The pool to trade in (and therefore yDai series to migrate)",
          "user": "Vault to migrate.",
          "wethAmount": "weth to move from Yield to MakerDAO. Needs to be high enough to collateralize the dai debt in MakerDAO, and low enough to make sure that debt left in Yield is also collateralized.",
          "yDaiAmount": "yDai debt to move from Yield to MakerDAO."
        }
      },
      "yieldToMakerBySignature(address,address,uint256,uint256,uint256,uint8,bytes32,bytes32)": {
        "details": "Transfer debt and collateral from Yield to MakerDAO using an encoded signature for controller Needs vat.hope(splitter.address, { from: user });",
        "params": {
          "deadline": "Latest block timestamp for which the signature is valid",
          "pool": "The pool to trade in (and therefore yDai series to migrate)",
          "r": "Signature parameter",
          "s": "Signature parameter",
          "user": "Vault to migrate.",
          "v": "Signature parameter",
          "wethAmount": "weth to move from Yield to MakerDAO. Needs to be high enough to collateralize the dai debt in MakerDAO, and low enough to make sure that debt left in Yield is also collateralized.",
          "yDaiAmount": "yDai debt to move from Yield to MakerDAO."
        }
      }
    }
  },
  "userdoc": {
    "methods": {}
  }
}