{
  "contractName": "Splitter",
  "abi": [
    {
      "inputs": [
        {
          "internalType": "address",
          "name": "treasury_",
          "type": "address"
        },
        {
          "internalType": "address",
          "name": "vault_",
          "type": "address"
        }
      ],
      "stateMutability": "nonpayable",
      "type": "constructor"
    },
    {
      "inputs": [],
      "name": "CHAI",
      "outputs": [
        {
          "internalType": "bytes32",
          "name": "",
          "type": "bytes32"
        }
      ],
      "stateMutability": "view",
      "type": "function",
      "constant": true
    },
    {
      "inputs": [],
      "name": "RAD",
      "outputs": [
        {
          "internalType": "uint8",
          "name": "",
          "type": "uint8"
        }
      ],
      "stateMutability": "view",
      "type": "function",
      "constant": true
    },
    {
      "inputs": [],
      "name": "RAY",
      "outputs": [
        {
          "internalType": "uint8",
          "name": "",
          "type": "uint8"
        }
      ],
      "stateMutability": "view",
      "type": "function",
      "constant": true
    },
    {
      "inputs": [],
      "name": "WAD",
      "outputs": [
        {
          "internalType": "uint8",
          "name": "",
          "type": "uint8"
        }
      ],
      "stateMutability": "view",
      "type": "function",
      "constant": true
    },
    {
      "inputs": [],
      "name": "WETH",
      "outputs": [
        {
          "internalType": "bytes32",
          "name": "",
          "type": "bytes32"
        }
      ],
      "stateMutability": "view",
      "type": "function",
      "constant": true
    },
    {
      "inputs": [
        {
          "internalType": "address",
          "name": "from",
          "type": "address"
        },
        {
          "internalType": "address",
          "name": "to",
          "type": "address"
        }
      ],
      "name": "split",
      "outputs": [],
      "stateMutability": "nonpayable",
      "type": "function"
    }
  ],
  "bytecode": "0x608060405234801561001057600080fd5b506040516105633803806105638339818101604052604081101561003357600080fd5b810190808051906020019092919080519060200190929190505050816000806101000a81548173ffffffffffffffffffffffffffffffffffffffff021916908373ffffffffffffffffffffffffffffffffffffffff16021790555080600160006101000a81548173ffffffffffffffffffffffffffffffffffffffff021916908373ffffffffffffffffffffffffffffffffffffffff1602179055505050610483806100e06000396000f3fe608060405234801561001057600080fd5b50600436106100625760003560e01c806306f405fd146100675780630f2c93291461008b578063552033c4146100ef5780636a14602414610113578063ad5c464814610137578063b6dbf9ce14610155575b600080fd5b61006f610173565b604051808260ff1660ff16815260200191505060405180910390f35b6100ed600480360360408110156100a157600080fd5b81019080803573ffffffffffffffffffffffffffffffffffffffff169060200190929190803573ffffffffffffffffffffffffffffffffffffffff169060200190929190505050610178565b005b6100f76103fb565b604051808260ff1660ff16815260200191505060405180910390f35b61011b610400565b604051808260ff1660ff16815260200191505060405180910390f35b61013f610405565b6040518082815260200191505060405180910390f35b61015d610429565b6040518082815260200191505060405180910390f35b602d81565b8173ffffffffffffffffffffffffffffffffffffffff163373ffffffffffffffffffffffffffffffffffffffff1614610219576040517f08c379a00000000000000000000000000000000000000000000000000000000081526004018080602001828103825260148152602001807f53706c69747465723a204f6e6c79206f776e657200000000000000000000000081525060200191505060405180910390fd5b600080600160009054906101000a900473ffffffffffffffffffffffffffffffffffffffff1673ffffffffffffffffffffffffffffffffffffffff16630d4c43be7f5745544800000000000000000000000000000000000000000000000000000000866040518363ffffffff1660e01b8152600401808381526020018273ffffffffffffffffffffffffffffffffffffffff1673ffffffffffffffffffffffffffffffffffffffff168152602001925050506040805180830381600087803b1580156102e457600080fd5b505af11580156102f8573d6000803e3d6000fd5b505050506040513d604081101561030e57600080fd5b810190808051906020019092919080519060200190929190505050915091506000809054906101000a900473ffffffffffffffffffffffffffffffffffffffff1673ffffffffffffffffffffffffffffffffffffffff16634f7eeaac8484846040518463ffffffff1660e01b8152600401808473ffffffffffffffffffffffffffffffffffffffff1673ffffffffffffffffffffffffffffffffffffffff1681526020018381526020018281526020019350505050600060405180830381600087803b1580156103dd57600080fd5b505af11580156103f1573d6000803e3d6000fd5b5050505050505050565b601b81565b601281565b7f574554480000000000000000000000000000000000000000000000000000000081565b7f43484149000000000000000000000000000000000000000000000000000000008156fea26469706673582212205ca9927db491361a07b00fd97e71d9848cdec404475fa1c1a636663284f7429c64736f6c63430006020033",
  "source": "pragma solidity ^0.6.2;\n\nimport \"./Constants.sol\";\nimport \"./interfaces/ITreasury.sol\";\nimport \"./interfaces/IDealer.sol\";\n\n\n/// @dev A splitter moves positions and weth collateral from Dealers (using the IDealer interface) to MakerDAO.\ncontract Splitter is Constants {\n    ITreasury internal _treasury;\n    IDealer internal _vault;\n\n    constructor (address treasury_, address vault_) public {\n        _treasury = ITreasury(treasury_);\n        _vault = IDealer(vault_);\n    }\n\n    /// @dev Moves all WETH debt and collateral from `from` in YDai to `to` in MakerDAO.\n    /// `to` needs to authorize treasury in vat with `_vat.hope(address(_treasury))`.\n    function split(address from, address to) public {\n        require(\n            msg.sender == from,\n            \"Splitter: Only owner\"\n        );\n        (uint256 weth, uint256 debt) = _vault.erase(WETH, from);\n        _treasury.fork(to, weth, debt);            // Transfer weth and debt\n    }\n}",
  "sourcePath": "/Users/bruce/dev/yieldprotocol/ytoken-mvp/contracts/Splitter.sol",
  "compiler": {
    "name": "solc",
    "version": "0.6.2+commit.bacdbe57.Emscripten.clang"
  },
  "schemaVersion": "3.0.23",
  "updatedAt": "2020-06-26T11:31:05.136Z",
  "networkType": "ethereum",
  "devdoc": {
    "details": "A splitter moves positions and weth collateral from Dealers (using the IDealer interface) to MakerDAO.",
    "methods": {
      "split(address,address)": {
        "details": "Moves all WETH debt and collateral from `from` in YDai to `to` in MakerDAO. `to` needs to authorize treasury in vat with `_vat.hope(address(_treasury))`."
      }
    }
  },
  "userdoc": {
    "methods": {}
  }
}