{
  "contractName": "Splitter",
  "abi": [
    {
      "inputs": [
        {
          "internalType": "address",
          "name": "vat_",
          "type": "address"
        },
        {
          "internalType": "address",
          "name": "weth_",
          "type": "address"
        },
        {
          "internalType": "address",
          "name": "dai_",
          "type": "address"
        },
        {
          "internalType": "address",
          "name": "wethJoin_",
          "type": "address"
        },
        {
          "internalType": "address",
          "name": "daiJoin_",
          "type": "address"
        },
        {
          "internalType": "address",
          "name": "yDai_",
          "type": "address"
        },
        {
          "internalType": "address",
          "name": "controller_",
          "type": "address"
        },
        {
          "internalType": "address",
          "name": "market_",
          "type": "address"
        }
      ],
      "stateMutability": "nonpayable",
      "type": "constructor"
    },
    {
      "inputs": [],
      "name": "MTY",
      "outputs": [
        {
          "internalType": "bool",
          "name": "",
          "type": "bool"
        }
      ],
      "stateMutability": "view",
      "type": "function"
    },
    {
      "inputs": [],
      "name": "UNIT",
      "outputs": [
        {
          "internalType": "uint256",
          "name": "",
          "type": "uint256"
        }
      ],
      "stateMutability": "view",
      "type": "function"
    },
    {
      "inputs": [],
      "name": "WETH",
      "outputs": [
        {
          "internalType": "bytes32",
          "name": "",
          "type": "bytes32"
        }
      ],
      "stateMutability": "view",
      "type": "function"
    },
    {
      "inputs": [],
      "name": "YTM",
      "outputs": [
        {
          "internalType": "bool",
          "name": "",
          "type": "bool"
        }
      ],
      "stateMutability": "view",
      "type": "function"
    },
    {
      "inputs": [],
      "name": "controller",
      "outputs": [
        {
          "internalType": "contract IController",
          "name": "",
          "type": "address"
        }
      ],
      "stateMutability": "view",
      "type": "function"
    },
    {
      "inputs": [],
      "name": "dai",
      "outputs": [
        {
          "internalType": "contract IERC20",
          "name": "",
          "type": "address"
        }
      ],
      "stateMutability": "view",
      "type": "function"
    },
    {
      "inputs": [],
      "name": "daiJoin",
      "outputs": [
        {
          "internalType": "contract IDaiJoin",
          "name": "",
          "type": "address"
        }
      ],
      "stateMutability": "view",
      "type": "function"
    },
    {
      "inputs": [],
      "name": "market",
      "outputs": [
        {
          "internalType": "contract IMarket",
          "name": "",
          "type": "address"
        }
      ],
      "stateMutability": "view",
      "type": "function"
    },
    {
      "inputs": [],
      "name": "vat",
      "outputs": [
        {
          "internalType": "contract IVat",
          "name": "",
          "type": "address"
        }
      ],
      "stateMutability": "view",
      "type": "function"
    },
    {
      "inputs": [],
      "name": "weth",
      "outputs": [
        {
          "internalType": "contract IERC20",
          "name": "",
          "type": "address"
        }
      ],
      "stateMutability": "view",
      "type": "function"
    },
    {
      "inputs": [],
      "name": "wethJoin",
      "outputs": [
        {
          "internalType": "contract IGemJoin",
          "name": "",
          "type": "address"
        }
      ],
      "stateMutability": "view",
      "type": "function"
    },
    {
      "inputs": [],
      "name": "yDai",
      "outputs": [
        {
          "internalType": "contract IYDai",
          "name": "",
          "type": "address"
        }
      ],
      "stateMutability": "view",
      "type": "function"
    },
    {
      "inputs": [
        {
          "internalType": "address",
          "name": "user",
          "type": "address"
        },
        {
          "internalType": "uint256",
          "name": "yDaiAmount",
          "type": "uint256"
        },
        {
          "internalType": "uint256",
          "name": "wethAmount",
          "type": "uint256"
        },
        {
          "internalType": "uint256",
          "name": "daiAmount",
          "type": "uint256"
        }
      ],
      "name": "makerToYield",
      "outputs": [],
      "stateMutability": "nonpayable",
      "type": "function"
    },
    {
      "inputs": [
        {
          "internalType": "address",
          "name": "user",
          "type": "address"
        },
        {
          "internalType": "uint256",
          "name": "yDaiAmount",
          "type": "uint256"
        },
        {
          "internalType": "uint256",
          "name": "wethAmount",
          "type": "uint256"
        }
      ],
      "name": "yieldToMaker",
      "outputs": [],
      "stateMutability": "nonpayable",
      "type": "function"
    },
    {
      "inputs": [
        {
          "internalType": "address",
          "name": "user",
          "type": "address"
        },
        {
          "internalType": "uint256",
          "name": "yDaiAmount",
          "type": "uint256"
        },
        {
          "internalType": "bytes",
          "name": "data",
          "type": "bytes"
        }
      ],
      "name": "executeOnFlashMint",
      "outputs": [],
      "stateMutability": "nonpayable",
      "type": "function"
    }
  ],
  "bytecode": "0x608060405234801561001057600080fd5b50604051611543380380611543833981810160405261010081101561003457600080fd5b810190808051906020019092919080519060200190929190805190602001909291908051906020019092919080519060200190929190805190602001909291908051906020019092919080519060200190929190505050876000806101000a8154816001600160a01b0302191690836001600160a01b0316021790555086600160006101000a8154816001600160a01b0302191690836001600160a01b0316021790555085600260006101000a8154816001600160a01b0302191690836001600160a01b0316021790555084600360006101000a8154816001600160a01b0302191690836001600160a01b0316021790555083600460006101000a8154816001600160a01b0302191690836001600160a01b0316021790555082600560006101000a8154816001600160a01b0302191690836001600160a01b0316021790555081600660006101000a8154816001600160a01b0302191690836001600160a01b0316021790555080600760006101000a8154816001600160a01b0302191690836001600160a01b031602179055506000809054906101000a90046001600160a01b03166001600160a01b031663a3b22fc4856040518263ffffffff1660e01b815260040180826001600160a01b03166001600160a01b03168152602001915050600060405180830381600087803b15801561022e57600080fd5b505af1158015610242573d6000803e3d6000fd5b505060008054604080516328ec8bf160e21b81526001600160a01b038b81166004830152915191909216945063a3b22fc493506024808301939282900301818387803b15801561029157600080fd5b505af11580156102a5573d6000803e3d6000fd5b505050505050505050505050611283806102c06000396000f3fe608060405234801561001057600080fd5b50600436106100f55760003560e01c8063ad5c464811610097578063c11645bc11610066578063c11645bc1461026d578063c43a860814610275578063f4b9fa751461027d578063f77c479114610285576100f5565b8063ad5c4648146101a0578063aef52e3f146101a8578063bd80f783146101b0578063bdd26b31146101e8576100f5565b80633fc8cef3116100d35780633fc8cef31461015a5780637e3d4cfa1461016257806380f556051461017e5780639d8e217714610186576100f5565b80631fcd1f2b146100fa5780632dbacef31461012e57806336569e7714610152575b600080fd5b61012c6004803603606081101561011057600080fd5b506001600160a01b03813516906020810135906040013561028d565b005b610136610399565b604080516001600160a01b039092168252519081900360200190f35b6101366103a8565b6101366103b7565b61016a6103c6565b604080519115158252519081900360200190f35b6101366103cb565b61018e6103da565b60408051918252519081900360200190f35b61018e6103ea565b6101366103f6565b61012c600480360360808110156101c657600080fd5b506001600160a01b038135169060208101359060408101359060600135610405565b61012c600480360360608110156101fe57600080fd5b6001600160a01b038235169160208101359181019060608101604082013564010000000081111561022e57600080fd5b82018360208201111561024057600080fd5b8035906020019184600183028401116401000000008311171561026257600080fd5b509092509050610511565b610136610560565b61016a61056f565b610136610574565b610136610583565b600554604080516000602080830182905282840186905260608084018390528451808503820181526080850195869052633ea2146560e01b9095526001600160a01b038981166084860190815260a486018a905260c48601928352865160e487015286519190971696633ea21465968b968b969195929493610104909101928601918190849084905b8381101561032e578181015183820152602001610316565b50505050905090810190601f16801561035b5780820380516001836020036101000a031916815260200191505b50945050505050600060405180830381600087803b15801561037c57600080fd5b505af1158015610390573d6000803e3d6000fd5b50505050505050565b6003546001600160a01b031681565b6000546001600160a01b031681565b6001546001600160a01b031681565b600181565b6007546001600160a01b031681565b6b033b2e3c9fd0803ce800000081565b644554482d4160d81b81565b6005546001600160a01b031681565b60055460408051600160208083019190915281830186905260608083018690528351808403820181526080840194859052633ea2146560e01b9094526001600160a01b038981166084850190815260a485018a905260c48501928352855160e486015285519190961695633ea21465958b958b95919492936101049091019185019080838360005b838110156104a557818101518382015260200161048d565b50505050905090810190601f1680156104d25780820380516001836020036101000a031916815260200191505b50945050505050600060405180830381600087803b1580156104f357600080fd5b505af1158015610507573d6000803e3d6000fd5b5050505050505050565b60008060008484606081101561052657600080fd5b5080351515935060208101359250604001359050600183141561054f5761054f87878484610592565b826103905761039087878484610a47565b6004546001600160a01b031681565b600081565b6002546001600160a01b031681565b6006546001600160a01b031681565b6007546040805163c47b5b8360e01b8152306004820181905260248201526001600160801b038616604482015290516001600160a01b039092169163c47b5b83916064808201926020929091908290030181600087803b1580156105f557600080fd5b505af1158015610609573d6000803e3d6000fd5b505050506040513d602081101561061f57600080fd5b50506004805460408051633b4da69f60e01b81526001600160a01b03888116948201949094526024810185905290519290911691633b4da69f9160448082019260009290919082900301818387803b15801561067a57600080fd5b505af115801561068e573d6000803e3d6000fd5b50506000805460408051636cb1c69b60e11b8152644554482d4160d81b600482015290519294506001600160a01b03909116925063d9638d369160248083019260a0929190829003018186803b1580156106e757600080fd5b505afa1580156106fb573d6000803e3d6000fd5b505050506040513d60a081101561071157600080fd5b50602001516000549091506001600160a01b031663760887038680806107368861105b565b60000361074b61074689896110bd565b61105b565b604080516001600160e01b031960e089901b168152644554482d4160d81b60048201526001600160a01b03968716602482015294861660448601529290941660648401526084830152600092830360a48301525160c4808301939282900301818387803b1580156107bb57600080fd5b505af11580156107cf573d6000803e3d6000fd5b50506000805460408051633088df1760e11b8152644554482d4160d81b60048201526001600160a01b038b81166024830152306044830152606482018a90529151919092169450636111be2e93506084808301939282900301818387803b15801561083957600080fd5b505af115801561084d573d6000803e3d6000fd5b50506003546040805163ef693bed60e01b81523060048201526024810188905290516001600160a01b03909216935063ef693bed925060448082019260009290919082900301818387803b1580156108a457600080fd5b505af11580156108b8573d6000803e3d6000fd5b5050600654604080516356dcf2a760e11b8152644554482d4160d81b60048201523060248201526001600160a01b038a8116604483015260648201899052915191909216935063adb9e54e9250608480830192600092919082900301818387803b15801561092557600080fd5b505af1158015610939573d6000803e3d6000fd5b50506006546005546040805163204f83f960e01b815290516001600160a01b03938416955063801d325f9450644554482d4160d81b939092169163204f83f991600480820192602092909190829003018186803b15801561099957600080fd5b505afa1580156109ad573d6000803e3d6000fd5b505050506040513d60208110156109c357600080fd5b5051604080516001600160e01b031960e086901b168152600481019390935260248301919091526001600160a01b038916604483018190526064830152608482018890525160a480830192600092919082900301818387803b158015610a2857600080fd5b505af1158015610a3c573d6000803e3d6000fd5b505050505050505050565b6006546005546040805163204f83f960e01b815290516001600160a01b03938416936391371ffb93644554482d4160d81b9391169163204f83f991600480820192602092909190829003018186803b158015610aa257600080fd5b505afa158015610ab6573d6000803e3d6000fd5b505050506040513d6020811015610acc57600080fd5b5051604080516001600160e01b031960e086901b168152600481019390935260248301919091526001600160a01b038816604483018190526064830152608482018790525160a480830192600092919082900301818387803b158015610b3157600080fd5b505af1158015610b45573d6000803e3d6000fd5b50506006546040805163470660bb60e11b8152644554482d4160d81b60048201526001600160a01b038981166024830152306044830152606482018890529151919092169350638e0cc1769250608480830192600092919082900301818387803b158015610bb257600080fd5b505af1158015610bc6573d6000803e3d6000fd5b505060035460408051633b4da69f60e01b81526001600160a01b038981166004830152602482018890529151919092169350633b4da69f9250604480830192600092919082900301818387803b158015610c1f57600080fd5b505af1158015610c33573d6000803e3d6000fd5b50506000805460408051636cb1c69b60e11b8152644554482d4160d81b600482015290519294506001600160a01b03909116925063d9638d369160248083019260a0929190829003018186803b158015610c8c57600080fd5b505afa158015610ca0573d6000803e3d6000fd5b505050506040513d60a0811015610cb657600080fd5b50602001516000549091506001600160a01b03166376088703868080610cdb8861105b565b610ce861074689896110bd565b604080516001600160e01b031960e089901b168152644554482d4160d81b60048201526001600160a01b0396871660248201529486166044860152929094166064840152608483015260a4820192909252905160c480830192600092919082900301818387803b158015610d5b57600080fd5b505af1158015610d6f573d6000803e3d6000fd5b5050600080546040805163bb35783b60e01b81526001600160a01b038b8116600483015230602483015260448201899052915191909216945063bb35783b93506064808301939282900301818387803b158015610dcb57600080fd5b505af1158015610ddf573d6000803e3d6000fd5b5050600480546040805163ef693bed60e01b8152309381019390935260248301879052516001600160a01b03909116935063ef693bed9250604480830192600092919082900301818387803b158015610e3757600080fd5b505af1158015610e4b573d6000803e3d6000fd5b5050600754600254604080516370a0823160e01b8152306004820181905291516001600160a01b03948516965063b26be92295509193849316916370a0823191602480820192602092909190829003018186803b158015610eab57600080fd5b505afa158015610ebf573d6000803e3d6000fd5b505050506040513d6020811015610ed557600080fd5b5051604080516001600160e01b031960e087901b1681526001600160a01b0394851660048201529290931660248301526001600160801b03166044820152905160648083019260209291908290030181600087803b158015610f3657600080fd5b505af1158015610f4a573d6000803e3d6000fd5b505050506040513d6020811015610f6057600080fd5b5050600554604080516370a0823160e01b815230600482015290516001600160a01b039092169163a9059cbb91889184916370a08231916024808301926020929190829003018186803b158015610fb657600080fd5b505afa158015610fca573d6000803e3d6000fd5b505050506040513d6020811015610fe057600080fd5b5051604080516001600160e01b031960e086901b1681526001600160a01b03909316600484015260248301919091525160448083019260209291908290030181600087803b15801561103157600080fd5b505af1158015611045573d6000803e3d6000fd5b505050506040513d602081101561039057600080fd5b60006001600160ff1b038211156110b9576040805162461bcd60e51b815260206004820152601760248201527f54726561737572793a2043617374206f766572666c6f77000000000000000000604482015290519081900360640190fd5b5090565b60006110eb826110df856b033b2e3c9fd0803ce800000063ffffffff6110f416565b9063ffffffff61114d16565b90505b92915050565b600082611103575060006110ee565b8282028284828161111057fe5b04146110eb5760405162461bcd60e51b815260040180806020018281038252602181526020018061122d6021913960400191505060405180910390fd5b60006110eb83836040518060400160405280601a81526020017f536166654d6174683a206469766973696f6e206279207a65726f000000000000815250600081836112165760405162461bcd60e51b81526004018080602001828103825283818151815260200191508051906020019080838360005b838110156111db5781810151838201526020016111c3565b50505050905090810190601f1680156112085780820380516001836020036101000a031916815260200191505b509250505060405180910390fd5b50600083858161122257fe5b049594505050505056fe536166654d6174683a206d756c7469706c69636174696f6e206f766572666c6f77a264697066735822122093c3ea4d273fa381366df392adaa7cc31f0bf699b8793050bdebafb46bd0cd5664736f6c634300060a0033",
  "source": "// SPDX-License-Identifier: GPL-3.0-or-later\npragma solidity ^0.6.10;\n\nimport \"@openzeppelin/contracts/token/ERC20/IERC20.sol\";\nimport \"../helpers/DecimalMath.sol\";\nimport \"../interfaces/IVat.sol\";\nimport \"../interfaces/IGemJoin.sol\";\nimport \"../interfaces/IDaiJoin.sol\";\nimport \"../interfaces/IChai.sol\";\nimport \"../interfaces/IYDai.sol\";\nimport \"../interfaces/IController.sol\";\nimport \"../interfaces/IMarket.sol\";\nimport \"../interfaces/IFlashMinter.sol\";\n// import \"@nomiclabs/buidler/console.sol\";\n\n\n/// @dev Splitter migrates vaults between MakerDAO and Yield using flash minting.\ncontract Splitter is IFlashMinter, DecimalMath {\n\n    bytes32 public constant WETH = \"ETH-A\";\n    bool constant public MTY = true;\n    bool constant public YTM = false;\n\n    IVat public vat;\n    IERC20 public weth;\n    IERC20 public dai;\n    IGemJoin public wethJoin;\n    IDaiJoin public daiJoin;\n    IYDai public yDai;\n    IController public controller;\n    IMarket public market;\n\n    constructor(\n        address vat_,\n        address weth_,\n        address dai_,\n        address wethJoin_,\n        address daiJoin_,\n        address yDai_,\n        address controller_,\n        address market_\n    ) public {\n        vat = IVat(vat_);\n        weth = IERC20(weth_);\n        dai = IERC20(dai_);\n        wethJoin = IGemJoin(wethJoin_);\n        daiJoin = IDaiJoin(daiJoin_);\n        yDai = IYDai(yDai_);\n        controller = IController(controller_);\n        market = IMarket(market_);\n\n        vat.hope(daiJoin_);\n        vat.hope(wethJoin_);\n    }\n\n    /// @dev Safe casting from uint256 to int256\n    function toInt(uint256 x) internal pure returns(int256) {\n        require(\n            x <= 57896044618658097711785492504343953926634992332820282019728792003956564819967,\n            \"Treasury: Cast overflow\"\n        );\n        return int256(x);\n    }\n\n    function makerToYield(address user, uint256 yDaiAmount, uint256 wethAmount, uint256 daiAmount) public {\n        // The user specifies the yDai he wants to mint to cover his maker debt, the weth to be passed on as collateral, and the dai debt to move\n        // Flash mint the yDai\n        yDai.flashMint(user, yDaiAmount, abi.encode(MTY, wethAmount, daiAmount));\n    }\n\n    function yieldToMaker(address user, uint256 yDaiAmount, uint256 wethAmount) public {\n        // The user specifies the yDai he wants to move, and the weth to be passed on as collateral\n        // Flash mint the yDai\n        yDai.flashMint( user, yDaiAmount, abi.encode(YTM, wethAmount, 0)); // The daiAmount encoded is ignored\n    }\n\n    function executeOnFlashMint(address user, uint256 yDaiAmount, bytes calldata data) external override {\n        (bool direction, uint256 wethAmount, uint256 daiAmount) = abi.decode(data, (bool, uint256, uint256));\n        if(direction == MTY) _makerToYield(user, yDaiAmount, wethAmount, daiAmount); // TODO: Consider parameter order\n        if(direction == YTM) _yieldToMaker(user, yDaiAmount, wethAmount, daiAmount); // TODO: Consider parameter order\n    }\n\n    function _makerToYield(address user, uint256 yDaiAmount, uint256 wethAmount, uint256 daiAmount) internal {\n        // Sell the YDai for Dai\n        // TODO: Calculate how much dai is needed and use buyDai?\n        // Splitter will hold the chai temporarily - TODO: Consider SafeCast\n        market.sellYDai(address(this), address(this), uint128(yDaiAmount));\n        // Put the Dai in Maker\n        // TODO: daiJoin.hope(splitter.address, { from: user });\n        daiJoin.join(user, daiAmount);\n        // Pay the debt in Maker\n        (, uint256 rate,,,) = vat.ilks(\"ETH-A\");            // Retrieve the MakerDAO stability fee for Weth\n        // TODO: vat.hope(splitter.address, { from: user });\n        vat.frob(\n            \"ETH-A\",\n            user,\n            user,\n            user,\n            -toInt(wethAmount),                           // Weth collateral to add\n            -toInt(divd(daiAmount, rate))  // Dai debt to remove\n        );\n        // Remove the collateral from Maker\n        vat.flux(\"ETH-A\", user, address(this), wethAmount);\n        wethJoin.exit(address(this), wethAmount); // Splitter will hold the weth temporarily\n        // Add the collateral to Yield\n        controller.post(WETH, address(this), user, wethAmount);\n        // Borrow the Dai\n        // TODO: controller.addProxy(splitter.address, { from: user });\n        controller.borrow(WETH, yDai.maturity(), user, user, yDaiAmount);\n    }\n\n    function _yieldToMaker(address user, uint256 yDaiAmount, uint256 wethAmount, uint256 daiAmount) internal {\n        // Pay the Yield debt\n        controller.repayYDai(WETH, yDai.maturity(), user, user, yDaiAmount); // repayYDai wil only take what is needed\n        // Withdraw the collateral from Yield\n        // TODO: dealer.addProxy(splitter.address, { from: user });\n        controller.withdraw(WETH, user, address(this), wethAmount);\n        // Post the collateral to Maker\n        // TODO: wethJoin.hope(splitter.address, { from: user });\n        wethJoin.join(user, wethAmount);\n        // Borrow the Dai from Maker\n        (, uint256 rate,,,) = vat.ilks(\"ETH-A\");            // Retrieve the MakerDAO stability fee for Weth\n        // TODO: vat.hope(splitter.address, { from: user });\n        vat.frob(\n            \"ETH-A\",\n            user,\n            user,\n            user,\n            toInt(wethAmount),                           // Weth collateral to add\n            toInt(divd(daiAmount, rate))  // Dai debt to remove\n        );\n        vat.move(user, address(this), daiAmount);\n        daiJoin.exit(address(this), daiAmount); // Splitter will hold the dai temporarily\n        // Sell the Dai for YDai at Market - It should make up for what was taken with repayYdai\n        // Splitter will hold the dai temporarily - TODO: Consider SafeCast\n        market.sellDai(address(this), address(this), uint128(dai.balanceOf(address(this))));\n        yDai.transfer(user, yDai.balanceOf(address(this)));\n    }\n}",
  "sourcePath": "/Users/bruce/dev/yieldprotocol/ytoken-mvp/contracts/peripheral/Splitter.sol",
  "compiler": {
    "name": "solc",
    "version": "0.6.10+commit.00c0fcaf.Emscripten.clang"
  },
  "schemaVersion": "3.0.23",
  "updatedAt": "2020-07-20T10:58:15.583Z",
  "devdoc": {
    "details": "Splitter migrates vaults between MakerDAO and Yield using flash minting.",
    "methods": {}
  },
  "userdoc": {
    "methods": {}
  }
}