{
  "contractName": "Splitter",
  "abi": [
    {
      "inputs": [
        {
          "internalType": "address",
          "name": "vat_",
          "type": "address"
        },
        {
          "internalType": "address",
          "name": "weth_",
          "type": "address"
        },
        {
          "internalType": "address",
          "name": "dai_",
          "type": "address"
        },
        {
          "internalType": "address",
          "name": "wethJoin_",
          "type": "address"
        },
        {
          "internalType": "address",
          "name": "daiJoin_",
          "type": "address"
        },
        {
          "internalType": "address",
          "name": "treasury_",
          "type": "address"
        },
        {
          "internalType": "address",
          "name": "yDai_",
          "type": "address"
        },
        {
          "internalType": "address",
          "name": "controller_",
          "type": "address"
        },
        {
          "internalType": "address",
          "name": "pool_",
          "type": "address"
        }
      ],
      "stateMutability": "nonpayable",
      "type": "constructor"
    },
    {
      "inputs": [],
      "name": "MTY",
      "outputs": [
        {
          "internalType": "bool",
          "name": "",
          "type": "bool"
        }
      ],
      "stateMutability": "view",
      "type": "function"
    },
    {
      "inputs": [],
      "name": "UNIT",
      "outputs": [
        {
          "internalType": "uint256",
          "name": "",
          "type": "uint256"
        }
      ],
      "stateMutability": "view",
      "type": "function"
    },
    {
      "inputs": [],
      "name": "WETH",
      "outputs": [
        {
          "internalType": "bytes32",
          "name": "",
          "type": "bytes32"
        }
      ],
      "stateMutability": "view",
      "type": "function"
    },
    {
      "inputs": [],
      "name": "YTM",
      "outputs": [
        {
          "internalType": "bool",
          "name": "",
          "type": "bool"
        }
      ],
      "stateMutability": "view",
      "type": "function"
    },
    {
      "inputs": [],
      "name": "controller",
      "outputs": [
        {
          "internalType": "contract IController",
          "name": "",
          "type": "address"
        }
      ],
      "stateMutability": "view",
      "type": "function"
    },
    {
      "inputs": [],
      "name": "dai",
      "outputs": [
        {
          "internalType": "contract IERC20",
          "name": "",
          "type": "address"
        }
      ],
      "stateMutability": "view",
      "type": "function"
    },
    {
      "inputs": [],
      "name": "daiJoin",
      "outputs": [
        {
          "internalType": "contract IDaiJoin",
          "name": "",
          "type": "address"
        }
      ],
      "stateMutability": "view",
      "type": "function"
    },
    {
      "inputs": [],
      "name": "pool",
      "outputs": [
        {
          "internalType": "contract IPool",
          "name": "",
          "type": "address"
        }
      ],
      "stateMutability": "view",
      "type": "function"
    },
    {
      "inputs": [],
      "name": "vat",
      "outputs": [
        {
          "internalType": "contract IVat",
          "name": "",
          "type": "address"
        }
      ],
      "stateMutability": "view",
      "type": "function"
    },
    {
      "inputs": [],
      "name": "weth",
      "outputs": [
        {
          "internalType": "contract IERC20",
          "name": "",
          "type": "address"
        }
      ],
      "stateMutability": "view",
      "type": "function"
    },
    {
      "inputs": [],
      "name": "wethJoin",
      "outputs": [
        {
          "internalType": "contract IGemJoin",
          "name": "",
          "type": "address"
        }
      ],
      "stateMutability": "view",
      "type": "function"
    },
    {
      "inputs": [],
      "name": "yDai",
      "outputs": [
        {
          "internalType": "contract IYDai",
          "name": "",
          "type": "address"
        }
      ],
      "stateMutability": "view",
      "type": "function"
    },
    {
      "inputs": [
        {
          "internalType": "address",
          "name": "user",
          "type": "address"
        },
        {
          "internalType": "uint256",
          "name": "wethAmount",
          "type": "uint256"
        },
        {
          "internalType": "uint256",
          "name": "daiAmount",
          "type": "uint256"
        }
      ],
      "name": "makerToYield",
      "outputs": [],
      "stateMutability": "nonpayable",
      "type": "function"
    },
    {
      "inputs": [
        {
          "internalType": "address",
          "name": "user",
          "type": "address"
        },
        {
          "internalType": "uint256",
          "name": "yDaiAmount",
          "type": "uint256"
        },
        {
          "internalType": "uint256",
          "name": "wethAmount",
          "type": "uint256"
        }
      ],
      "name": "yieldToMaker",
      "outputs": [],
      "stateMutability": "nonpayable",
      "type": "function"
    },
    {
      "inputs": [
        {
          "internalType": "address",
          "name": "",
          "type": "address"
        },
        {
          "internalType": "uint256",
          "name": "yDaiAmount",
          "type": "uint256"
        },
        {
          "internalType": "bytes",
          "name": "data",
          "type": "bytes"
        }
      ],
      "name": "executeOnFlashMint",
      "outputs": [],
      "stateMutability": "nonpayable",
      "type": "function"
    },
    {
      "inputs": [
        {
          "internalType": "uint256",
          "name": "daiAmount",
          "type": "uint256"
        }
      ],
      "name": "wethForDai",
      "outputs": [
        {
          "internalType": "uint256",
          "name": "",
          "type": "uint256"
        }
      ],
      "stateMutability": "view",
      "type": "function"
    },
    {
      "inputs": [
        {
          "internalType": "uint256",
          "name": "yDaiAmount",
          "type": "uint256"
        }
      ],
      "name": "wethForYDai",
      "outputs": [
        {
          "internalType": "uint256",
          "name": "",
          "type": "uint256"
        }
      ],
      "stateMutability": "view",
      "type": "function"
    },
    {
      "inputs": [
        {
          "internalType": "uint256",
          "name": "daiAmount",
          "type": "uint256"
        }
      ],
      "name": "yDaiForDai",
      "outputs": [
        {
          "internalType": "uint256",
          "name": "",
          "type": "uint256"
        }
      ],
      "stateMutability": "view",
      "type": "function"
    },
    {
      "inputs": [
        {
          "internalType": "uint256",
          "name": "yDaiAmount",
          "type": "uint256"
        }
      ],
      "name": "daiForYDai",
      "outputs": [
        {
          "internalType": "uint256",
          "name": "",
          "type": "uint256"
        }
      ],
      "stateMutability": "view",
      "type": "function"
    }
  ],
  "bytecode": "0x60806040523480156200001157600080fd5b5060405162001e9f38038062001e9f83398181016040526101208110156200003857600080fd5b81019080805190602001909291908051906020019092919080519060200190929190805190602001909291908051906020019092919080519060200190929190805190602001909291908051906020019092919080519060200190929190505050886000806101000a8154816001600160a01b0302191690836001600160a01b0316021790555087600160006101000a8154816001600160a01b0302191690836001600160a01b0316021790555086600260006101000a8154816001600160a01b0302191690836001600160a01b0316021790555085600360006101000a8154816001600160a01b0302191690836001600160a01b0316021790555084600460006101000a8154816001600160a01b0302191690836001600160a01b0316021790555082600560006101000a8154816001600160a01b0302191690836001600160a01b0316021790555081600660006101000a8154816001600160a01b0302191690836001600160a01b0316021790555080600760006101000a8154816001600160a01b0302191690836001600160a01b031602179055506000809054906101000a90046001600160a01b03166001600160a01b031663a3b22fc4866040518263ffffffff1660e01b815260040180826001600160a01b03166001600160a01b03168152602001915050600060405180830381600087803b1580156200023d57600080fd5b505af115801562000252573d6000803e3d6000fd5b505060008054604080516328ec8bf160e21b81526001600160a01b038c81166004830152915191909216945063a3b22fc493506024808301939282900301818387803b158015620002a257600080fd5b505af1158015620002b7573d6000803e3d6000fd5b50506002546040805163095ea7b360e01b81526001600160a01b0386811660048301526000196024830152915191909216935063095ea7b3925060448083019260209291908290030181600087803b1580156200031357600080fd5b505af115801562000328573d6000803e3d6000fd5b505050506040513d60208110156200033f57600080fd5b50506005546040805163095ea7b360e01b81526001600160a01b03848116600483015260001960248301529151919092169163095ea7b39160448083019260209291908290030181600087803b1580156200039957600080fd5b505af1158015620003ae573d6000803e3d6000fd5b505050506040513d6020811015620003c557600080fd5b50506002546040805163095ea7b360e01b81526001600160a01b03888116600483015260001960248301529151919092169163095ea7b39160448083019260209291908290030181600087803b1580156200041f57600080fd5b505af115801562000434573d6000803e3d6000fd5b505050506040513d60208110156200044b57600080fd5b50506001546040805163095ea7b360e01b81526001600160a01b03898116600483015260001960248301529151919092169163095ea7b39160448083019260209291908290030181600087803b158015620004a557600080fd5b505af1158015620004ba573d6000803e3d6000fd5b505050506040513d6020811015620004d157600080fd5b50506001546040805163095ea7b360e01b81526001600160a01b03878116600483015260001960248301529151919092169163095ea7b39160448083019260209291908290030181600087803b1580156200052b57600080fd5b505af115801562000540573d6000803e3d6000fd5b505050506040513d60208110156200055757600080fd5b505050505050505050505061192d80620005726000396000f3fe608060405234801561001057600080fd5b50600436106101215760003560e01c80639d8e2177116100ad578063c11645bc11610071578063c11645bc146102b8578063c43a8608146102c0578063d7acab95146102c8578063f4b9fa75146102fa578063f77c47911461030257610121565b80639d8e21771461021b578063ad5c464814610223578063aef52e3f1461022b578063b471480414610126578063bdd26b311461023357610121565b806336569e77116100f457806336569e77146101b55780633fc8cef3146101bd5780635e440651146101c55780637e3d4cfa146101e25780638ab2b950146101fe57610121565b806315d9c7541461012657806316f0115b146101555780631fcd1f2b146101795780632dbacef3146101ad575b600080fd5b6101436004803603602081101561013c57600080fd5b503561030a565b60408051918252519081900360200190f35b61015d61039f565b604080516001600160a01b039092168252519081900360200190f35b6101ab6004803603606081101561018f57600080fd5b506001600160a01b0381351690602081013590604001356103ae565b005b61015d6106cd565b61015d6106dc565b61015d6106eb565b610143600480360360208110156101db57600080fd5b50356106fa565b6101ea610798565b604080519115158252519081900360200190f35b6101436004803603602081101561021457600080fd5b503561079d565b6101436107ba565b6101436107ca565b61015d6107d6565b6101ab6004803603606081101561024957600080fd5b6001600160a01b038235169160208101359181019060608101604082013564010000000081111561027957600080fd5b82018360208201111561028b57600080fd5b803590602001918460018302840111640100000000831117156102ad57600080fd5b5090925090506107e5565b61015d61084d565b6101ea61085c565b6101ab600480360360608110156102de57600080fd5b506001600160a01b038135169060208101359060400135610861565b61015d610b2a565b61015d610b39565b6000805460408051636cb1c69b60e11b8152644554482d4160d81b6004820152905183926001600160a01b03169163d9638d369160248083019260a0929190829003018186803b15801561035d57600080fd5b505afa158015610371573d6000803e3d6000fd5b505050506040513d60a081101561038757600080fd5b506040015190506103988382610b48565b9392505050565b6007546001600160a01b031681565b6006546005546040805163204f83f960e01b815290516001600160a01b03938416936398cdae5a93644554482d4160d81b9391169163204f83f991600480820192602092909190829003018186803b15801561040957600080fd5b505afa15801561041d573d6000803e3d6000fd5b505050506040513d602081101561043357600080fd5b5051604080516001600160e01b031960e086901b168152600481019390935260248301919091526001600160a01b0387166044830152516064808301926020929190829003018186803b15801561048957600080fd5b505afa15801561049d573d6000803e3d6000fd5b505050506040513d60208110156104b357600080fd5b50518211156104f35760405162461bcd60e51b81526004018080602001828103825260228152602001806118436022913960400191505060405180910390fd5b6006546040805163dd62f42360e01b8152644554482d4160d81b60048201526001600160a01b0386811660248301529151919092169163dd62f423916044808301926020929190829003018186803b15801561054e57600080fd5b505afa158015610562573d6000803e3d6000fd5b505050506040513d602081101561057857600080fd5b50518111156105b85760405162461bcd60e51b81526004018080602001828103825260288152602001806118656028913960400191505060405180910390fd5b60055460408051600060208083018290526001600160a01b0388811684860152606080850188905260808086018590528651808703909101815260a0860196879052633ea2146560e01b9096523060a4860181815260c487018b905260e48701928352875161010488015287519390981697633ea214659791968b969295919461012490910192918601918190849084905b8381101561066257818101518382015260200161064a565b50505050905090810190601f16801561068f5780820380516001836020036101000a031916815260200191505b50945050505050600060405180830381600087803b1580156106b057600080fd5b505af11580156106c4573d6000803e3d6000fd5b50505050505050565b6003546001600160a01b031681565b6000546001600160a01b031681565b6001546001600160a01b031681565b6007546000906001600160a01b0316634e20e95261071784610b7f565b6040518263ffffffff1660e01b815260040180826001600160801b03166001600160801b0316815260200191505060206040518083038186803b15801561075d57600080fd5b505afa158015610771573d6000803e3d6000fd5b505050506040513d602081101561078757600080fd5b50516001600160801b031692915050565b600181565b6007546000906001600160a01b0316631e4d81db61071784610b7f565b6b033b2e3c9fd0803ce800000081565b644554482d4160d81b81565b6005546001600160a01b031681565b600080600080858560808110156107fb57600080fd5b508035151594506001600160a01b03602082013516935060408101359250606001359050600184141561083357610833838383610bd7565b83610843576108438388846110b1565b5050505050505050565b6004546001600160a01b031681565b600081565b60008054604080516309092f9760e21b8152644554482d4160d81b60048201526001600160a01b038781166024830152825185949190911692632424be5c9260448082019391829003018186803b1580156108bb57600080fd5b505afa1580156108cf573d6000803e3d6000fd5b505050506040513d60408110156108e557600080fd5b5080516020909101516000805460408051636cb1c69b60e11b8152644554482d4160d81b6004820152905194965092945090926001600160a01b039091169163d9638d369160248083019260a0929190829003018186803b15801561094957600080fd5b505afa15801561095d573d6000803e3d6000fd5b505050506040513d60a081101561097357600080fd5b50602001519050610984828261163d565b8411156109c25760405162461bcd60e51b81526004018080602001828103825260228152602001806118b56022913960400191505060405180910390fd5b82851115610a015760405162461bcd60e51b815260040180806020018281038252602881526020018061188d6028913960400191505060405180910390fd5b6005546001600160a01b0316633ea2146530610a1c876106fa565b6040805160016020808301919091526001600160a01b03808e168385015260608084018e905260808085018e90528551808603909101815260a08501958690526001600160e01b031960e08a901b1690955290861660a4840190815260c4840186905260e4840191825284516101048501528451909391926101249092019185019080838360005b83811015610abc578181015183820152602001610aa4565b50505050905090810190601f168015610ae95780820380516001836020036101000a031916815260200191505b50945050505050600060405180830381600087803b158015610b0a57600080fd5b505af1158015610b1e573d6000803e3d6000fd5b50505050505050505050565b6002546001600160a01b031681565b6006546001600160a01b031681565b6000610b7682610b6a856b033b2e3c9fd0803ce800000063ffffffff61165f16565b9063ffffffff6116b816565b90505b92915050565b60006001600160801b03821115610bd3576040805162461bcd60e51b8152602060048201526013602482015272506f6f6c3a2043617374206f766572666c6f7760681b604482015290519081900360640190fd5b5090565b6007546000906001600160a01b031663cc5783d33080610bf686610b7f565b604080516001600160e01b031960e087901b1681526001600160a01b0394851660048201529290931660248301526001600160801b03166044820152905160648083019260209291908290030181600087803b158015610c5557600080fd5b505af1158015610c69573d6000803e3d6000fd5b505050506040513d6020811015610c7f57600080fd5b50516004805460408051633b4da69f60e01b81526001600160a01b03898116948201949094526024810187905290516001600160801b039094169450911691633b4da69f9160448082019260009290919082900301818387803b158015610ce557600080fd5b505af1158015610cf9573d6000803e3d6000fd5b50506000805460408051636cb1c69b60e11b8152644554482d4160d81b600482015290519294506001600160a01b03909116925063d9638d369160248083019260a0929190829003018186803b158015610d5257600080fd5b505afa158015610d66573d6000803e3d6000fd5b505050506040513d60a0811015610d7c57600080fd5b50602001516000549091506001600160a01b03166376088703868080610da1896116fa565b600003610db6610db18a89611758565b6116fa565b604080516001600160e01b031960e089901b168152644554482d4160d81b60048201526001600160a01b03968716602482015294861660448601529290941660648401526084830152600092830360a48301525160c4808301939282900301818387803b158015610e2657600080fd5b505af1158015610e3a573d6000803e3d6000fd5b50506000805460408051633088df1760e11b8152644554482d4160d81b60048201526001600160a01b038b81166024830152306044830152606482018b90529151919092169450636111be2e93506084808301939282900301818387803b158015610ea457600080fd5b505af1158015610eb8573d6000803e3d6000fd5b50506003546040805163ef693bed60e01b81523060048201526024810189905290516001600160a01b03909216935063ef693bed925060448082019260009290919082900301818387803b158015610f0f57600080fd5b505af1158015610f23573d6000803e3d6000fd5b5050600654604080516356dcf2a760e11b8152644554482d4160d81b60048201523060248201526001600160a01b038a81166044830152606482018a9052915191909216935063adb9e54e9250608480830192600092919082900301818387803b158015610f9057600080fd5b505af1158015610fa4573d6000803e3d6000fd5b50506006546005546040805163204f83f960e01b815290516001600160a01b03938416955063801d325f9450644554482d4160d81b939092169163204f83f991600480820192602092909190829003018186803b15801561100457600080fd5b505afa158015611018573d6000803e3d6000fd5b505050506040513d602081101561102e57600080fd5b5051604080516001600160e01b031960e086901b168152600481019390935260248301919091526001600160a01b0389166044830152306064830152608482018690525160a480830192600092919082900301818387803b15801561109257600080fd5b505af11580156110a6573d6000803e3d6000fd5b505050505050505050565b6006546005546040805163204f83f960e01b815290516001600160a01b03938416936391371ffb93644554482d4160d81b9391169163204f83f991600480820192602092909190829003018186803b15801561110c57600080fd5b505afa158015611120573d6000803e3d6000fd5b505050506040513d602081101561113657600080fd5b5051604080516001600160e01b031960e086901b168152600481019390935260248301919091523060448301526001600160a01b0387166064830152608482018690525160a480830192600092919082900301818387803b15801561119a57600080fd5b505af11580156111ae573d6000803e3d6000fd5b50506006546040805163470660bb60e11b8152644554482d4160d81b60048201526001600160a01b038881166024830152306044830152606482018790529151919092169350638e0cc1769250608480830192600092919082900301818387803b15801561121b57600080fd5b505af115801561122f573d6000803e3d6000fd5b505060035460408051633b4da69f60e01b81526001600160a01b038881166004830152602482018790529151919092169350633b4da69f9250604480830192600092919082900301818387803b15801561128857600080fd5b505af115801561129c573d6000803e3d6000fd5b5050600754600092506001600160a01b03169050631e4d81db6112be85610b7f565b6040518263ffffffff1660e01b815260040180826001600160801b03166001600160801b0316815260200191505060206040518083038186803b15801561130457600080fd5b505afa158015611318573d6000803e3d6000fd5b505050506040513d602081101561132e57600080fd5b50516000805460408051636cb1c69b60e11b8152644554482d4160d81b600482015290516001600160801b03909416945091926001600160a01b039091169163d9638d369160248083019260a0929190829003018186803b15801561139257600080fd5b505afa1580156113a6573d6000803e3d6000fd5b505050506040513d60a08110156113bc57600080fd5b50602001516000549091506001600160a01b031663760887038680806113e1886116fa565b6113ee610db18989611758565b604080516001600160e01b031960e089901b168152644554482d4160d81b60048201526001600160a01b0396871660248201529486166044860152929094166064840152608483015260a4820192909252905160c480830192600092919082900301818387803b15801561146157600080fd5b505af1158015611475573d6000803e3d6000fd5b50506000546001600160a01b0316915063bb35783b905086306114aa866b033b2e3c9fd0803ce800000063ffffffff61165f16565b6040518463ffffffff1660e01b815260040180846001600160a01b03166001600160a01b03168152602001836001600160a01b03166001600160a01b031681526020018281526020019350505050600060405180830381600087803b15801561151257600080fd5b505af1158015611526573d6000803e3d6000fd5b5050600480546040805163ef693bed60e01b8152309381019390935260248301879052516001600160a01b03909116935063ef693bed9250604480830192600092919082900301818387803b15801561157e57600080fd5b505af1158015611592573d6000803e3d6000fd5b50506007546001600160a01b0316915063d43fde70905030806115b488610b7f565b604080516001600160e01b031960e087901b1681526001600160a01b0394851660048201529290931660248301526001600160801b03166044820152905160648083019260209291908290030181600087803b15801561161357600080fd5b505af1158015611627573d6000803e3d6000fd5b505050506040513d60208110156106c457600080fd5b6000610b766b033b2e3c9fd0803ce8000000610b6a858563ffffffff61165f16565b60008261166e57506000610b79565b8282028284828161167b57fe5b0414610b765760405162461bcd60e51b81526004018080602001828103825260218152602001806118d76021913960400191505060405180910390fd5b6000610b7683836040518060400160405280601a81526020017f536166654d6174683a206469766973696f6e206279207a65726f0000000000008152506117a0565b60006001600160ff1b03821115610bd3576040805162461bcd60e51b815260206004820152601760248201527f54726561737572793a2043617374206f766572666c6f77000000000000000000604482015290519081900360640190fd5b60008061177b83610b6a866b204fce5e3e2502611000000063ffffffff61165f16565b9050600a81061561179557600a8104600101915050610b79565b600a90049050610b79565b6000818361182c5760405162461bcd60e51b81526004018080602001828103825283818151815260200191508051906020019080838360005b838110156117f15781810151838201526020016117d9565b50505050905090810190601f16801561181e5780820380516001836020036101000a031916815260200191505b509250505060405180910390fd5b50600083858161183857fe5b049594505050505056fe53706c69747465723a204e6f7420656e6f756768206465627420696e205969656c6453706c69747465723a204e6f7420656e6f75676820636f6c6c61746572616c20696e205969656c6453706c69747465723a204e6f7420656e6f75676820636f6c6c61746572616c20696e204d616b657253706c69747465723a204e6f7420656e6f756768206465627420696e204d616b6572536166654d6174683a206d756c7469706c69636174696f6e206f766572666c6f77a2646970667358221220964f8d38ae0e27aecfb858cedf997ff190743813991f1c95bbddf4b68aacbbaa64736f6c634300060a0033",
  "immutableReferences": {},
  "source": "// SPDX-License-Identifier: GPL-3.0-or-later\r\npragma solidity ^0.6.10;\r\n\r\nimport \"@openzeppelin/contracts/math/Math.sol\";\r\nimport \"@openzeppelin/contracts/token/ERC20/IERC20.sol\";\r\nimport \"../helpers/DecimalMath.sol\";\r\nimport \"../interfaces/IVat.sol\";\r\nimport \"../interfaces/IGemJoin.sol\";\r\nimport \"../interfaces/IDaiJoin.sol\";\r\nimport \"../interfaces/IPot.sol\";\r\nimport \"../interfaces/IChai.sol\";\r\nimport \"../interfaces/IYDai.sol\";\r\nimport \"../interfaces/IController.sol\";\r\nimport \"../interfaces/IPool.sol\";\r\nimport \"../interfaces/IFlashMinter.sol\";\r\n\r\n\r\n/// @dev Splitter migrates vaults between MakerDAO and Yield using flash minting.\r\ncontract Splitter is IFlashMinter, DecimalMath {\r\n\r\n    bytes32 public constant WETH = \"ETH-A\";\r\n    bool constant public MTY = true;\r\n    bool constant public YTM = false;\r\n\r\n    IVat public vat;\r\n    IERC20 public weth;\r\n    IERC20 public dai;\r\n    IGemJoin public wethJoin;\r\n    IDaiJoin public daiJoin;\r\n    IYDai public yDai;\r\n    IController public controller;\r\n    IPool public pool;\r\n\r\n    constructor(\r\n        address vat_,\r\n        address weth_,\r\n        address dai_,\r\n        address wethJoin_,\r\n        address daiJoin_,\r\n        address treasury_,\r\n        address yDai_,\r\n        address controller_,\r\n        address pool_\r\n    ) public {\r\n        vat = IVat(vat_);\r\n        weth = IERC20(weth_);\r\n        dai = IERC20(dai_);\r\n        wethJoin = IGemJoin(wethJoin_);\r\n        daiJoin = IDaiJoin(daiJoin_);\r\n        yDai = IYDai(yDai_);\r\n        controller = IController(controller_);\r\n        pool = IPool(pool_);\r\n\r\n        vat.hope(daiJoin_);\r\n        vat.hope(wethJoin_);\r\n\r\n        dai.approve(pool_, uint256(-1));\r\n        yDai.approve(pool_, uint256(-1));\r\n        dai.approve(daiJoin_, uint(-1));\r\n        weth.approve(wethJoin_, uint(-1));\r\n        weth.approve(treasury_, uint(-1));\r\n    }\r\n\r\n    /// @dev Safe casting from uint256 to int256\r\n    function toInt256(uint256 x) internal pure returns(int256) {\r\n        require(\r\n            x <= uint256(type(int256).max),\r\n            \"Treasury: Cast overflow\"\r\n        );\r\n        return int256(x);\r\n    }\r\n    \r\n    /// @dev Safe casting from uint256 to uint128\r\n    function toUint128(uint256 x) internal pure returns(uint128) {\r\n        require(\r\n            x <= type(uint128).max,\r\n            \"Pool: Cast overflow\"\r\n        );\r\n        return uint128(x);\r\n    }\r\n\r\n    /// @dev Transfer debt and collateral from MakerDAO to Yield\r\n    /// @param user Vault to migrate.\r\n    /// @param wethAmount weth to move from MakerDAO to Yield. Needs to be high enough to collateralize the dai debt in Yield,\r\n    /// and low enough to make sure that debt left in MakerDAO is also collateralized.\r\n    /// @param daiAmount dai debt to move from MakerDAO to Yield. Denominated in Dai (= art * rate)\r\n    /// Needs vat.hope(splitter.address, { from: user });\r\n    /// Needs controller.addDelegate(splitter.address, { from: user });\r\n    function makerToYield(address user, uint256 wethAmount, uint256 daiAmount) public {\r\n        // The user specifies the yDai he wants to mint to cover his maker debt, the weth to be passed on as collateral, and the dai debt to move\r\n        (uint256 ink, uint256 art) = vat.urns(WETH, user);\r\n        (, uint256 rate,,,) = vat.ilks(\"ETH-A\");\r\n        require(\r\n            daiAmount <= muld(art, rate),\r\n            \"Splitter: Not enough debt in Maker\"\r\n        );\r\n        require(\r\n            wethAmount <= ink,\r\n            \"Splitter: Not enough collateral in Maker\"\r\n        );\r\n        // Flash mint the yDai\r\n        yDai.flashMint(\r\n            address(this),\r\n            yDaiForDai(daiAmount),\r\n            abi.encode(MTY, user, wethAmount, daiAmount)\r\n        );\r\n    }\r\n\r\n    /// @dev Transfer debt and collateral from Yield to MakerDAO\r\n    /// @param user Vault to migrate.\r\n    /// @param yDaiAmount yDai debt to move from Yield to MakerDAO.\r\n    /// @param wethAmount weth to move from Yield to MakerDAO. Needs to be high enough to collateralize the dai debt in MakerDAO,\r\n    /// and low enough to make sure that debt left in Yield is also collateralized.\r\n    /// Needs vat.hope(splitter.address, { from: user });\r\n    /// Needs controller.addDelegate(splitter.address, { from: user });\r\n    function yieldToMaker(address user, uint256 yDaiAmount, uint256 wethAmount) public {\r\n        // The user specifies the yDai he wants to move, and the weth to be passed on as collateral\r\n        require(\r\n            yDaiAmount <= controller.debtYDai(WETH, yDai.maturity(), user),\r\n            \"Splitter: Not enough debt in Yield\"\r\n        );\r\n        require(\r\n            wethAmount <= controller.posted(WETH, user),\r\n            \"Splitter: Not enough collateral in Yield\"\r\n        );\r\n        // Flash mint the yDai\r\n        yDai.flashMint(\r\n            address(this),\r\n            yDaiAmount,\r\n            abi.encode(YTM, user, wethAmount, 0)\r\n        ); // The daiAmount encoded is ignored\r\n    }\r\n\r\n    /// @dev Callback from `YDai.flashMint()`\r\n    function executeOnFlashMint(address, uint256 yDaiAmount, bytes calldata data) external override {\r\n        (bool direction, address user, uint256 wethAmount, uint256 daiAmount) = abi.decode(data, (bool, address, uint256, uint256));\r\n        if(direction == MTY) _makerToYield(user, wethAmount, daiAmount);\r\n        if(direction == YTM) _yieldToMaker(user, yDaiAmount, wethAmount);\r\n    }\r\n\r\n    /// @dev Minimum weth needed to collateralize an amount of dai in MakerDAO\r\n    function wethForDai(uint256 daiAmount) public view returns (uint256) {\r\n        (,, uint256 spot,,) = vat.ilks(\"ETH-A\");\r\n        return divd(daiAmount, spot);\r\n    }\r\n\r\n    /// @dev Minimum weth needed to collateralize an amount of yDai in Yield. Yes, it's the same formula.\r\n    function wethForYDai(uint256 yDaiAmount) public view returns (uint256) {\r\n        (,, uint256 spot,,) = vat.ilks(\"ETH-A\");\r\n        return divd(yDaiAmount, spot);\r\n    }\r\n\r\n    /// @dev Amount of yDai debt that will result from migrating Dai debt from MakerDAO to Yield\r\n    function yDaiForDai(uint256 daiAmount) public view returns (uint256) {\r\n        return pool.buyDaiPreview(toUint128(daiAmount));\r\n    }\r\n\r\n    /// @dev Amount of dai debt that will result from migrating yDai debt from Yield to MakerDAO\r\n    function daiForYDai(uint256 yDaiAmount) public view returns (uint256) {\r\n        return pool.buyYDaiPreview(toUint128(yDaiAmount));\r\n    }\r\n\r\n    /// @dev Internal function to transfer debt and collateral from MakerDAO to Yield\r\n    /// @param user Vault to migrate.\r\n    /// @param wethAmount weth to move from MakerDAO to Yield. Needs to be high enough to collateralize the dai debt in Yield,\r\n    /// and low enough to make sure that debt left in MakerDAO is also collateralized.\r\n    /// @param daiAmount dai debt to move from MakerDAO to Yield. Denominated in Dai (= art * rate)\r\n    /// Needs vat.hope(splitter.address, { from: user });\r\n    /// Needs controller.addDelegate(splitter.address, { from: user });\r\n    function _makerToYield(address user, uint256 wethAmount, uint256 daiAmount) internal {\r\n\r\n        // Pool should take exactly all yDai flash minted. Splitter will hold the dai temporarily\r\n        uint256 yDaiSold = pool.buyDai(address(this), address(this), toUint128(daiAmount));\r\n\r\n        daiJoin.join(user, daiAmount);      // Put the Dai in Maker\r\n        (, uint256 rate,,,) = vat.ilks(\"ETH-A\");\r\n        vat.frob(                           // Pay the debt and unlock collateral in Maker\r\n            \"ETH-A\",\r\n            user,\r\n            user,\r\n            user,\r\n            -toInt256(wethAmount),               // Removing Weth collateral\r\n            -toInt256(divdrup(daiAmount, rate))  // Removing Dai debt\r\n        );\r\n\r\n        vat.flux(\"ETH-A\", user, address(this), wethAmount);             // Remove the collateral from Maker\r\n        wethJoin.exit(address(this), wethAmount);                       // Hold the weth in Splitter\r\n        controller.post(WETH, address(this), user, wethAmount);         // Add the collateral to Yield\r\n        controller.borrow(WETH, yDai.maturity(), user, address(this), yDaiSold); // Borrow the yDai\r\n    }\r\n\r\n\r\n    /// @dev Internal function to transfer debt and collateral from Yield to MakerDAO\r\n    /// @param user Vault to migrate.\r\n    /// @param yDaiAmount yDai debt to move from Yield to MakerDAO.\r\n    /// @param wethAmount weth to move from Yield to MakerDAO. Needs to be high enough to collateralize the dai debt in MakerDAO,\r\n    /// and low enough to make sure that debt left in Yield is also collateralized.\r\n    /// Needs vat.hope(splitter.address, { from: user });\r\n    /// Needs controller.addDelegate(splitter.address, { from: user });\r\n    function _yieldToMaker(address user, uint256 yDaiAmount, uint256 wethAmount) internal {\r\n        // Pay the Yield debt - Splitter pays YDai to remove the debt of `user`\r\n        // Controller should take exactly all yDai flash minted.\r\n        controller.repayYDai(WETH, yDai.maturity(), address(this), user, yDaiAmount);\r\n\r\n        // Withdraw the collateral from Yield, Splitter will hold it\r\n        controller.withdraw(WETH, user, address(this), wethAmount);\r\n\r\n        // Post the collateral to Maker, in the `user` vault\r\n        wethJoin.join(user, wethAmount);\r\n\r\n        // We are going to need to buy the YDai back with Dai borrowed from Maker\r\n        uint256 daiAmount = pool.buyYDaiPreview(toUint128(yDaiAmount));\r\n\r\n        // Borrow the Dai from Maker\r\n        (, uint256 rate,,,) = vat.ilks(\"ETH-A\"); // Retrieve the MakerDAO stability fee for Weth\r\n        vat.frob(\r\n            \"ETH-A\",\r\n            user,\r\n            user,\r\n            user,\r\n            toInt256(wethAmount),                   // Adding Weth collateral\r\n            toInt256(divdrup(daiAmount, rate))      // Adding Dai debt\r\n        );\r\n        vat.move(user, address(this), daiAmount.mul(UNIT)); // Transfer the Dai to Splitter within MakerDAO, in RAD\r\n        daiJoin.exit(address(this), daiAmount);             // Splitter will hold the dai temporarily\r\n\r\n        // Sell the Dai for YDai at Pool - It should make up for what was taken with repayYdai\r\n        pool.buyYDai(address(this), address(this), toUint128(yDaiAmount));\r\n    }\r\n}",
  "sourcePath": "C:/Users/bruce/dev/yield/yDai/contracts/peripheral/Splitter.sol",
  "compiler": {
    "name": "solc",
    "version": "0.6.10+commit.00c0fcaf.Emscripten.clang"
  },
  "schemaVersion": "3.2.3",
  "updatedAt": "2020-08-19T15:24:08.845Z",
  "devdoc": {
    "details": "Splitter migrates vaults between MakerDAO and Yield using flash minting.",
    "methods": {
      "daiForYDai(uint256)": {
        "details": "Amount of dai debt that will result from migrating yDai debt from Yield to MakerDAO"
      },
      "executeOnFlashMint(address,uint256,bytes)": {
        "details": "Callback from `YDai.flashMint()`"
      },
      "makerToYield(address,uint256,uint256)": {
        "details": "Transfer debt and collateral from MakerDAO to Yield",
        "params": {
          "daiAmount": "dai debt to move from MakerDAO to Yield. Denominated in Dai (= art * rate) Needs vat.hope(splitter.address, { from: user }); Needs controller.addDelegate(splitter.address, { from: user });",
          "user": "Vault to migrate.",
          "wethAmount": "weth to move from MakerDAO to Yield. Needs to be high enough to collateralize the dai debt in Yield, and low enough to make sure that debt left in MakerDAO is also collateralized."
        }
      },
      "wethForDai(uint256)": {
        "details": "Minimum weth needed to collateralize an amount of dai in MakerDAO"
      },
      "wethForYDai(uint256)": {
        "details": "Minimum weth needed to collateralize an amount of yDai in Yield. Yes, it's the same formula."
      },
      "yDaiForDai(uint256)": {
        "details": "Amount of yDai debt that will result from migrating Dai debt from MakerDAO to Yield"
      },
      "yieldToMaker(address,uint256,uint256)": {
        "details": "Transfer debt and collateral from Yield to MakerDAO",
        "params": {
          "user": "Vault to migrate.",
          "wethAmount": "weth to move from Yield to MakerDAO. Needs to be high enough to collateralize the dai debt in MakerDAO, and low enough to make sure that debt left in Yield is also collateralized. Needs vat.hope(splitter.address, { from: user }); Needs controller.addDelegate(splitter.address, { from: user });",
          "yDaiAmount": "yDai debt to move from Yield to MakerDAO."
        }
      }
    }
  },
  "userdoc": {
    "methods": {}
  }
}