{
  "contractName": "Splitter",
  "abi": [
    {
      "inputs": [
        {
          "internalType": "address",
          "name": "vat_",
          "type": "address"
        },
        {
          "internalType": "address",
          "name": "weth_",
          "type": "address"
        },
        {
          "internalType": "address",
          "name": "dai_",
          "type": "address"
        },
        {
          "internalType": "address",
          "name": "wethJoin_",
          "type": "address"
        },
        {
          "internalType": "address",
          "name": "daiJoin_",
          "type": "address"
        },
        {
          "internalType": "address",
          "name": "chai_",
          "type": "address"
        },
        {
          "internalType": "address",
          "name": "yDai_",
          "type": "address"
        },
        {
          "internalType": "address",
          "name": "dealer_",
          "type": "address"
        },
        {
          "internalType": "address",
          "name": "market_",
          "type": "address"
        }
      ],
      "stateMutability": "nonpayable",
      "type": "constructor"
    },
    {
      "inputs": [],
      "name": "MTY",
      "outputs": [
        {
          "internalType": "bool",
          "name": "",
          "type": "bool"
        }
      ],
      "stateMutability": "view",
      "type": "function"
    },
    {
      "inputs": [],
      "name": "UNIT",
      "outputs": [
        {
          "internalType": "uint256",
          "name": "",
          "type": "uint256"
        }
      ],
      "stateMutability": "view",
      "type": "function"
    },
    {
      "inputs": [],
      "name": "WETH",
      "outputs": [
        {
          "internalType": "bytes32",
          "name": "",
          "type": "bytes32"
        }
      ],
      "stateMutability": "view",
      "type": "function"
    },
    {
      "inputs": [],
      "name": "YTM",
      "outputs": [
        {
          "internalType": "bool",
          "name": "",
          "type": "bool"
        }
      ],
      "stateMutability": "view",
      "type": "function"
    },
    {
      "inputs": [],
      "name": "chai",
      "outputs": [
        {
          "internalType": "contract IChai",
          "name": "",
          "type": "address"
        }
      ],
      "stateMutability": "view",
      "type": "function"
    },
    {
      "inputs": [],
      "name": "dai",
      "outputs": [
        {
          "internalType": "contract IERC20",
          "name": "",
          "type": "address"
        }
      ],
      "stateMutability": "view",
      "type": "function"
    },
    {
      "inputs": [],
      "name": "daiJoin",
      "outputs": [
        {
          "internalType": "contract IDaiJoin",
          "name": "",
          "type": "address"
        }
      ],
      "stateMutability": "view",
      "type": "function"
    },
    {
      "inputs": [],
      "name": "dealer",
      "outputs": [
        {
          "internalType": "contract IDealer",
          "name": "",
          "type": "address"
        }
      ],
      "stateMutability": "view",
      "type": "function"
    },
    {
      "inputs": [],
      "name": "market",
      "outputs": [
        {
          "internalType": "contract IMarket",
          "name": "",
          "type": "address"
        }
      ],
      "stateMutability": "view",
      "type": "function"
    },
    {
      "inputs": [],
      "name": "vat",
      "outputs": [
        {
          "internalType": "contract IVat",
          "name": "",
          "type": "address"
        }
      ],
      "stateMutability": "view",
      "type": "function"
    },
    {
      "inputs": [],
      "name": "weth",
      "outputs": [
        {
          "internalType": "contract IERC20",
          "name": "",
          "type": "address"
        }
      ],
      "stateMutability": "view",
      "type": "function"
    },
    {
      "inputs": [],
      "name": "wethJoin",
      "outputs": [
        {
          "internalType": "contract IGemJoin",
          "name": "",
          "type": "address"
        }
      ],
      "stateMutability": "view",
      "type": "function"
    },
    {
      "inputs": [],
      "name": "yDai",
      "outputs": [
        {
          "internalType": "contract IYDai",
          "name": "",
          "type": "address"
        }
      ],
      "stateMutability": "view",
      "type": "function"
    },
    {
      "inputs": [
        {
          "internalType": "address",
          "name": "user",
          "type": "address"
        },
        {
          "internalType": "uint256",
          "name": "yDaiAmount",
          "type": "uint256"
        },
        {
          "internalType": "uint256",
          "name": "wethAmount",
          "type": "uint256"
        },
        {
          "internalType": "uint256",
          "name": "daiAmount",
          "type": "uint256"
        }
      ],
      "name": "makerToYield",
      "outputs": [],
      "stateMutability": "nonpayable",
      "type": "function"
    },
    {
      "inputs": [
        {
          "internalType": "address",
          "name": "user",
          "type": "address"
        },
        {
          "internalType": "uint256",
          "name": "yDaiAmount",
          "type": "uint256"
        },
        {
          "internalType": "uint256",
          "name": "wethAmount",
          "type": "uint256"
        }
      ],
      "name": "yieldToMaker",
      "outputs": [],
      "stateMutability": "nonpayable",
      "type": "function"
    },
    {
      "inputs": [
        {
          "internalType": "address",
          "name": "user",
          "type": "address"
        },
        {
          "internalType": "uint256",
          "name": "yDaiAmount",
          "type": "uint256"
        },
        {
          "internalType": "bytes",
          "name": "data",
          "type": "bytes"
        }
      ],
      "name": "executeOnFlashMint",
      "outputs": [],
      "stateMutability": "nonpayable",
      "type": "function"
    }
  ],
  "bytecode": "0x608060405234801561001057600080fd5b5060405161175a38038061175a833981810160405261012081101561003457600080fd5b50805160208201516040808401516060850151608086015160a087015160c088015160e089015161010090990151600080546001600160a01b03199081166001600160a01b03808d1691909117808455600180548416838e16179055600280548416838c16179055600380548416838b16179055600480548416838a169081178255600580548616858b169081179091556006805487169091179055600780548616858a1617905560088054909516848816179094558b516328ec8bf160e21b81529081019390935299519b9c9a9b989a979996989597949694959394169263a3b22fc49260248084019391929182900301818387803b15801561013757600080fd5b505af115801561014b573d6000803e3d6000fd5b505060008054604080516328ec8bf160e21b81526001600160a01b038c81166004830152915191909216945063a3b22fc493506024808301939282900301818387803b15801561019a57600080fd5b505af11580156101ae573d6000803e3d6000fd5b50505050505050505050505050611590806101ca6000396000f3fe608060405234801561001057600080fd5b50600436106101005760003560e01c8063ad5c464811610097578063bdd26b3111610066578063bdd26b3114610203578063c11645bc14610288578063c43a860814610290578063f4b9fa751461029857610100565b8063ad5c4648146101b3578063aef52e3f146101bb578063b69d0456146101c3578063bd80f783146101cb57610100565b80637e3d4cfa116100d35780637e3d4cfa1461016d57806380f55605146101895780639d8e2177146101915780639de2ee21146101ab57610100565b80631fcd1f2b146101055780632dbacef31461013957806336569e771461015d5780633fc8cef314610165575b600080fd5b6101376004803603606081101561011b57600080fd5b506001600160a01b0381351690602081013590604001356102a0565b005b6101416103ac565b604080516001600160a01b039092168252519081900360200190f35b6101416103bb565b6101416103ca565b6101756103d9565b604080519115158252519081900360200190f35b6101416103de565b6101996103ed565b60408051918252519081900360200190f35b6101416103fd565b61019961040c565b610141610418565b610141610427565b610137600480360360808110156101e157600080fd5b506001600160a01b038135169060208101359060408101359060600135610436565b6101376004803603606081101561021957600080fd5b6001600160a01b038235169160208101359181019060608101604082013564010000000081111561024957600080fd5b82018360208201111561025b57600080fd5b8035906020019184600183028401116401000000008311171561027d57600080fd5b509092509050610542565b610141610591565b6101756105a0565b6101416105a5565b600654604080516000602080830182905282840186905260608084018390528451808503820181526080850195869052633ea2146560e01b9095526001600160a01b038981166084860190815260a486018a905260c48601928352865160e487015286519190971696633ea21465968b968b969195929493610104909101928601918190849084905b83811015610341578181015183820152602001610329565b50505050905090810190601f16801561036e5780820380516001836020036101000a031916815260200191505b50945050505050600060405180830381600087803b15801561038f57600080fd5b505af11580156103a3573d6000803e3d6000fd5b50505050505050565b6003546001600160a01b031681565b6000546001600160a01b031681565b6001546001600160a01b031681565b600181565b6008546001600160a01b031681565b6b033b2e3c9fd0803ce800000081565b6007546001600160a01b031681565b644554482d4160d81b81565b6006546001600160a01b031681565b6005546001600160a01b031681565b60065460408051600160208083019190915281830186905260608083018690528351808403820181526080840194859052633ea2146560e01b9094526001600160a01b038981166084850190815260a485018a905260c48501928352855160e486015285519190961695633ea21465958b958b95919492936101049091019185019080838360005b838110156104d65781810151838201526020016104be565b50505050905090810190601f1680156105035780820380516001836020036101000a031916815260200191505b50945050505050600060405180830381600087803b15801561052457600080fd5b505af1158015610538573d6000803e3d6000fd5b5050505050505050565b60008060008484606081101561055757600080fd5b5080351515935060208101359250604001359050600183141561058057610580878784846105b4565b826103a3576103a387878484610b89565b6004546001600160a01b031681565b600081565b6002546001600160a01b031681565b600854604080517fc47b5b83000000000000000000000000000000000000000000000000000000008152306004820181905260248201526fffffffffffffffffffffffffffffffff8616604482015290516001600160a01b039092169163c47b5b839160648082019260009290919082900301818387803b15801561063857600080fd5b505af115801561064c573d6000803e3d6000fd5b5050600554604080516370a0823160e01b8152306004820181905291516001600160a01b03909316945063ef693bed9350909184916370a08231916024808301926020929190829003018186803b1580156106a657600080fd5b505afa1580156106ba573d6000803e3d6000fd5b505050506040513d60208110156106d057600080fd5b5051604080516001600160e01b031960e086901b1681526001600160a01b039093166004840152602483019190915251604480830192600092919082900301818387803b15801561072057600080fd5b505af1158015610734573d6000803e3d6000fd5b50506004805460408051633b4da69f60e01b81526001600160a01b038a811694820194909452602481018790529051929091169350633b4da69f925060448082019260009290919082900301818387803b15801561079157600080fd5b505af11580156107a5573d6000803e3d6000fd5b50506000805460408051636cb1c69b60e11b8152644554482d4160d81b600482015290519294506001600160a01b03909116925063d9638d369160248083019260a0929190829003018186803b1580156107fe57600080fd5b505afa158015610812573d6000803e3d6000fd5b505050506040513d60a081101561082857600080fd5b50602001516000549091506001600160a01b0316637608870386808061084d8861134f565b60000361086261085d89896113ca565b61134f565b604080516001600160e01b031960e089901b168152644554482d4160d81b60048201526001600160a01b03968716602482015294861660448601529290941660648401526084830152600092830360a48301525160c4808301939282900301818387803b1580156108d257600080fd5b505af11580156108e6573d6000803e3d6000fd5b505060008054604080517f6111be2e000000000000000000000000000000000000000000000000000000008152644554482d4160d81b60048201526001600160a01b038b81166024830152306044830152606482018a90529151919092169450636111be2e93506084808301939282900301818387803b15801561096957600080fd5b505af115801561097d573d6000803e3d6000fd5b50506003546040805163ef693bed60e01b81523060048201526024810188905290516001600160a01b03909216935063ef693bed925060448082019260009290919082900301818387803b1580156109d457600080fd5b505af11580156109e8573d6000803e3d6000fd5b5050600754604080517fadb9e54e000000000000000000000000000000000000000000000000000000008152644554482d4160d81b60048201523060248201526001600160a01b038a8116604483015260648201899052915191909216935063adb9e54e9250608480830192600092919082900301818387803b158015610a6e57600080fd5b505af1158015610a82573d6000803e3d6000fd5b50506007546006546040805163204f83f960e01b815290516001600160a01b03938416955063708520429450644554482d4160d81b939092169163204f83f991600480820192602092909190829003018186803b158015610ae257600080fd5b505afa158015610af6573d6000803e3d6000fd5b505050506040513d6020811015610b0c57600080fd5b5051604080516001600160e01b031960e086901b168152600481019390935260248301919091526001600160a01b03891660448301526064820188905251608480830192600092919082900301818387803b158015610b6a57600080fd5b505af1158015610b7e573d6000803e3d6000fd5b505050505050505050565b6007546006546040805163204f83f960e01b815290516001600160a01b0393841693630302aeb093644554482d4160d81b9391169163204f83f991600480820192602092909190829003018186803b158015610be457600080fd5b505afa158015610bf8573d6000803e3d6000fd5b505050506040513d6020811015610c0e57600080fd5b5051604080516001600160e01b031960e086901b168152600481019390935260248301919091526001600160a01b03881660448301526064820187905251608480830192600092919082900301818387803b158015610c6c57600080fd5b505af1158015610c80573d6000803e3d6000fd5b5050600754604080517fdd62f423000000000000000000000000000000000000000000000000000000008152644554482d4160d81b60048201526001600160a01b03898116602483015291516000955091909216925063dd62f42391604480820192602092909190829003018186803b158015610cfc57600080fd5b505afa158015610d10573d6000803e3d6000fd5b505050506040513d6020811015610d2657600080fd5b5051600754604080517f8e0cc176000000000000000000000000000000000000000000000000000000008152644554482d4160d81b60048201526001600160a01b038981166024830152306044830152606482018590529151939450911691638e0cc1769160848082019260009290919082900301818387803b158015610dac57600080fd5b505af1158015610dc0573d6000803e3d6000fd5b505060035460408051633b4da69f60e01b81526001600160a01b038a81166004830152602482018790529151919092169350633b4da69f9250604480830192600092919082900301818387803b158015610e1957600080fd5b505af1158015610e2d573d6000803e3d6000fd5b50506000805460408051636cb1c69b60e11b8152644554482d4160d81b600482015290519294506001600160a01b03909116925063d9638d369160248083019260a0929190829003018186803b158015610e8657600080fd5b505afa158015610e9a573d6000803e3d6000fd5b505050506040513d60a0811015610eb057600080fd5b50602001516000549091506001600160a01b03166376088703878080610ed58761134f565b610ee261085d8a896113ca565b604080516001600160e01b031960e089901b168152644554482d4160d81b60048201526001600160a01b0396871660248201529486166044860152929094166064840152608483015260a4820192909252905160c480830192600092919082900301818387803b158015610f5557600080fd5b505af1158015610f69573d6000803e3d6000fd5b505060008054604080517fbb35783b0000000000000000000000000000000000000000000000000000000081526001600160a01b038c81166004830152306024830152604482018a9052915191909216945063bb35783b93506064808301939282900301818387803b158015610fde57600080fd5b505af1158015610ff2573d6000803e3d6000fd5b5050600480546040805163ef693bed60e01b8152309381019390935260248301889052516001600160a01b03909116935063ef693bed9250604480830192600092919082900301818387803b15801561104a57600080fd5b505af115801561105e573d6000803e3d6000fd5b5050600554600254604080516370a0823160e01b8152306004820181905291516001600160a01b039485169650633b4da69f95509193909216916370a08231916024808301926020929190829003018186803b1580156110bd57600080fd5b505afa1580156110d1573d6000803e3d6000fd5b505050506040513d60208110156110e757600080fd5b5051604080516001600160e01b031960e086901b1681526001600160a01b039093166004840152602483019190915251604480830192600092919082900301818387803b15801561113757600080fd5b505af115801561114b573d6000803e3d6000fd5b5050600854600554604080516370a0823160e01b8152306004820181905291516001600160a01b039485169650637af4360895509193849316916370a0823191602480820192602092909190829003018186803b1580156111ab57600080fd5b505afa1580156111bf573d6000803e3d6000fd5b505050506040513d60208110156111d557600080fd5b5051604080516001600160e01b031960e087901b1681526001600160a01b0394851660048201529290931660248301526fffffffffffffffffffffffffffffffff1660448201529051606480830192600092919082900301818387803b15801561123e57600080fd5b505af1158015611252573d6000803e3d6000fd5b5050600654604080516370a0823160e01b815230600482015290516001600160a01b03909216935063a9059cbb9250899184916370a08231916024808301926020929190829003018186803b1580156112aa57600080fd5b505afa1580156112be573d6000803e3d6000fd5b505050506040513d60208110156112d457600080fd5b5051604080516001600160e01b031960e086901b1681526001600160a01b03909316600484015260248301919091525160448083019260209291908290030181600087803b15801561132557600080fd5b505af1158015611339573d6000803e3d6000fd5b505050506040513d602081101561053857600080fd5b60007f7fffffffffffffffffffffffffffffffffffffffffffffffffffffffffffffff8211156113c6576040805162461bcd60e51b815260206004820152601760248201527f54726561737572793a2043617374206f766572666c6f77000000000000000000604482015290519081900360640190fd5b5090565b60006113f8826113ec856b033b2e3c9fd0803ce800000063ffffffff61140116565b9063ffffffff61145a16565b90505b92915050565b600082611410575060006113fb565b8282028284828161141d57fe5b04146113f85760405162461bcd60e51b815260040180806020018281038252602181526020018061153a6021913960400191505060405180910390fd5b60006113f883836040518060400160405280601a81526020017f536166654d6174683a206469766973696f6e206279207a65726f000000000000815250600081836115235760405162461bcd60e51b81526004018080602001828103825283818151815260200191508051906020019080838360005b838110156114e85781810151838201526020016114d0565b50505050905090810190601f1680156115155780820380516001836020036101000a031916815260200191505b509250505060405180910390fd5b50600083858161152f57fe5b049594505050505056fe536166654d6174683a206d756c7469706c69636174696f6e206f766572666c6f77a264697066735822122077b255e3fc2ed84fce2a7d7d6881adc9cd02ef12901ed6b2c6d5793be7c137a964736f6c634300060a0033",
  "source": "pragma solidity ^0.6.10;\n\nimport \"@openzeppelin/contracts/token/ERC20/IERC20.sol\";\nimport \"../helpers/DecimalMath.sol\";\nimport \"../interfaces/IVat.sol\";\nimport \"../interfaces/IGemJoin.sol\";\nimport \"../interfaces/IDaiJoin.sol\";\nimport \"../interfaces/IChai.sol\";\nimport \"../interfaces/IYDai.sol\";\nimport \"../interfaces/IDealer.sol\";\nimport \"../interfaces/IMarket.sol\";\nimport \"../interfaces/IFlashMinter.sol\";\n// import \"@nomiclabs/buidler/console.sol\";\n\n\n/// @dev The Market contract exchanges Dai for yDai at a price defined by a specific formula.\ncontract Splitter is IFlashMinter, DecimalMath {\n\n    bytes32 public constant WETH = \"ETH-A\";\n    bool constant public MTY = true;\n    bool constant public YTM = false;\n\n    IVat public vat;\n    IERC20 public weth;\n    IERC20 public dai;\n    IGemJoin public wethJoin;\n    IDaiJoin public daiJoin;\n    IChai public chai;\n    IYDai public yDai;\n    IDealer public dealer;\n    IMarket public market;\n\n    constructor(\n        address vat_,\n        address weth_,\n        address dai_,\n        address wethJoin_,\n        address daiJoin_,\n        address chai_,\n        address yDai_,\n        address dealer_,\n        address market_\n    ) public {\n        vat = IVat(vat_);\n        weth = IERC20(weth_);\n        dai = IERC20(dai_);\n        wethJoin = IGemJoin(wethJoin_);\n        daiJoin = IDaiJoin(daiJoin_);\n        chai = IChai(chai_);\n        yDai = IYDai(chai_);\n        dealer = IDealer(yDai_);\n        market = IMarket(market_);\n\n        vat.hope(daiJoin_);\n        vat.hope(wethJoin_);\n    }\n\n    /// @dev Safe casting from uint256 to int256\n    function toInt(uint256 x) internal pure returns(int256) {\n        require(\n            x <= 57896044618658097711785492504343953926634992332820282019728792003956564819967,\n            \"Treasury: Cast overflow\"\n        );\n        return int256(x);\n    }\n\n    function makerToYield(address user, uint256 yDaiAmount, uint256 wethAmount, uint256 daiAmount) public {\n        // The user specifies the yDai he wants to mint to cover his maker debt, the weth to be passed on as collateral, and the dai debt to move\n        // Flash mint the yDai\n        yDai.flashMint(user, yDaiAmount, abi.encode(MTY, wethAmount, daiAmount));\n    }\n\n    function yieldToMaker(address user, uint256 yDaiAmount, uint256 wethAmount) public {\n        // The user specifies the yDai he wants to move, and the weth to be passed on as collateral\n        // Flash mint the yDai\n        yDai.flashMint( user, yDaiAmount, abi.encode(YTM, wethAmount, 0)); // The daiAmount encoded is ignored\n    }\n\n    function executeOnFlashMint(address user, uint256 yDaiAmount, bytes calldata data) external override {\n        (bool direction, uint256 wethAmount, uint256 daiAmount) = abi.decode(data, (bool, uint256, uint256));\n        if(direction == MTY) _makerToYield(user, yDaiAmount, wethAmount, daiAmount); // TODO: Consider parameter order\n        if(direction == YTM) _yieldToMaker(user, yDaiAmount, wethAmount, daiAmount); // TODO: Consider parameter order\n    }\n\n    function _makerToYield(address user, uint256 yDaiAmount, uint256 wethAmount, uint256 daiAmount) internal {\n        // Sell the YDai for Chai\n        // TODO: Calculate how much dai, then chai is needed, and use buyChai\n        // Splitter will hold the chai temporarily - TODO: Consider SafeCast\n        market.sellYDai(address(this), address(this), uint128(yDaiAmount));\n        // Unpack the Chai into Dai\n        chai.exit(address(this), chai.balanceOf(address(this)));\n        // Put the Dai in Maker\n        // TODO: daiJoin.hope(splitter.address, { from: user });\n        daiJoin.join(user, daiAmount);\n        // Pay the debt in Maker\n        (, uint256 rate,,,) = vat.ilks(\"ETH-A\");            // Retrieve the MakerDAO stability fee for Weth\n        // TODO: vat.hope(splitter.address, { from: user });\n        vat.frob(\n            \"ETH-A\",\n            user,\n            user,\n            user,\n            -toInt(wethAmount),                           // Weth collateral to add\n            -toInt(divd(daiAmount, rate))  // Dai debt to remove\n        );\n        // Remove the collateral from Maker\n        vat.flux(\"ETH-A\", user, address(this), wethAmount);\n        wethJoin.exit(address(this), wethAmount); // Splitter will hold the weth temporarily\n        // Add the collateral to Yield\n        dealer.post(WETH, address(this), user, wethAmount);\n        // Borrow the Dai\n        // TODO: dealer.addProxy(splitter.address, { from: user });\n        dealer.borrow(WETH, yDai.maturity(), user, yDaiAmount);\n    }\n\n    function _yieldToMaker(address user, uint256 yDaiAmount, uint256 wethAmount, uint256 daiAmount) internal {\n        // Pay the Yield debt\n        dealer.repayYDai(WETH, yDai.maturity(), user, yDaiAmount); // repayYDai wil only take what is needed\n        // Withdraw the collateral from Yield\n        uint256 wethAmount = dealer.posted(WETH, user);\n        // TODO: dealer.addProxy(splitter.address, { from: user });\n        dealer.withdraw(WETH, user, address(this), wethAmount);\n        // Post the collateral to Maker\n        // TODO: wethJoin.hope(splitter.address, { from: user });\n        wethJoin.join(user, wethAmount);\n        // Borrow the Dai from Maker\n        (, uint256 rate,,,) = vat.ilks(\"ETH-A\");            // Retrieve the MakerDAO stability fee for Weth\n        // TODO: vat.hope(splitter.address, { from: user });\n        vat.frob(\n            \"ETH-A\",\n            user,\n            user,\n            user,\n            toInt(wethAmount),                           // Weth collateral to add\n            toInt(divd(daiAmount, rate))  // Dai debt to remove\n        );\n        vat.move(user, address(this), daiAmount);\n        daiJoin.exit(address(this), daiAmount); // Splitter will hold the dai temporarily\n        // Wrap the Dai into Chai\n        chai.join(address(this), dai.balanceOf(address(this)));\n        // Sell the Chai for YDai at Market - It should make up for what was taken with repayYdai\n        // Splitter will hold the chai temporarily - TODO: Consider SafeCast\n        market.sellChai(address(this), address(this), uint128(chai.balanceOf(address(this))));\n        yDai.transfer(user, yDai.balanceOf(address(this)));\n    }\n}",
  "sourcePath": "/Users/bruce/dev/yieldprotocol/ytoken-mvp/contracts/peripheral/Splitter.sol",
  "compiler": {
    "name": "solc",
    "version": "0.6.10+commit.00c0fcaf.Emscripten.clang"
  },
  "schemaVersion": "3.0.23",
  "updatedAt": "2020-07-10T08:34:42.378Z",
  "devdoc": {
    "details": "The Market contract exchanges Dai for yDai at a price defined by a specific formula.",
    "methods": {}
  },
  "userdoc": {
    "methods": {}
  }
}