{
  "contractName": "TestOracle",
  "abi": [
    {
      "inputs": [
        {
          "internalType": "uint256",
          "name": "price_",
          "type": "uint256"
        }
      ],
      "name": "setPrice",
      "outputs": [],
      "stateMutability": "nonpayable",
      "type": "function"
    },
    {
      "inputs": [],
      "name": "price",
      "outputs": [
        {
          "internalType": "uint256",
          "name": "",
          "type": "uint256"
        }
      ],
      "stateMutability": "nonpayable",
      "type": "function"
    }
  ],
  "bytecode": "0x608060405234801561001057600080fd5b5060c78061001f6000396000f3fe6080604052348015600f57600080fd5b506004361060325760003560e01c806391b7f5ed146037578063a035b1fe146062575b600080fd5b606060048036036020811015604b57600080fd5b8101908080359060200190929190505050607e565b005b60686088565b6040518082815260200191505060405180910390f35b8060008190555050565b6000805490509056fea2646970667358221220f21252cb050d7b817e0a6fd9efdbfe265d6c7610b6f722ae6dbb649a8751792564736f6c63430006020033",
  "source": "pragma solidity ^0.6.2;\n\nimport \"./../interfaces/IOracle.sol\";\n\n\n//Using fake contract instead of abstract for mocking\ncontract TestOracle is IOracle {\n    uint256 internal _price; // collateral = dai * price, in RAY units\n\n    function setPrice(uint256 price_) public {\n        _price = price_;\n    }\n\n    function price() public override returns (uint256) {\n        return _price;\n    }\n}\n",
  "sourcePath": "/Users/bruce/dev/yieldprotocol/ytoken-mvp/contracts/mocks/TestOracle.sol",
  "compiler": {
    "name": "solc",
    "version": "0.6.2+commit.bacdbe57.Emscripten.clang"
  },
  "schemaVersion": "3.0.23",
  "updatedAt": "2020-06-01T11:27:12.887Z",
  "devdoc": {
    "methods": {}
  },
  "userdoc": {
    "methods": {}
  }
}