{
  "contractName": "Treasury",
  "abi": [
    {
      "inputs": [
        {
          "internalType": "address",
          "name": "dai_",
          "type": "address"
        },
        {
          "internalType": "address",
          "name": "chai_",
          "type": "address"
        },
        {
          "internalType": "address",
          "name": "chaiOracle_",
          "type": "address"
        },
        {
          "internalType": "address",
          "name": "weth_",
          "type": "address"
        },
        {
          "internalType": "address",
          "name": "daiJoin_",
          "type": "address"
        },
        {
          "internalType": "address",
          "name": "wethJoin_",
          "type": "address"
        },
        {
          "internalType": "address",
          "name": "vat_",
          "type": "address"
        }
      ],
      "stateMutability": "nonpayable",
      "type": "constructor"
    },
    {
      "anonymous": false,
      "inputs": [
        {
          "indexed": false,
          "internalType": "address",
          "name": "user",
          "type": "address"
        }
      ],
      "name": "GrantedAccess",
      "type": "event"
    },
    {
      "anonymous": false,
      "inputs": [
        {
          "indexed": true,
          "internalType": "address",
          "name": "previousOwner",
          "type": "address"
        },
        {
          "indexed": true,
          "internalType": "address",
          "name": "newOwner",
          "type": "address"
        }
      ],
      "name": "OwnershipTransferred",
      "type": "event"
    },
    {
      "anonymous": false,
      "inputs": [
        {
          "indexed": false,
          "internalType": "address",
          "name": "user",
          "type": "address"
        }
      ],
      "name": "RevokedAccess",
      "type": "event"
    },
    {
      "inputs": [],
      "name": "RAD",
      "outputs": [
        {
          "internalType": "uint8",
          "name": "",
          "type": "uint8"
        }
      ],
      "stateMutability": "view",
      "type": "function",
      "constant": true
    },
    {
      "inputs": [],
      "name": "RAY",
      "outputs": [
        {
          "internalType": "uint8",
          "name": "",
          "type": "uint8"
        }
      ],
      "stateMutability": "view",
      "type": "function",
      "constant": true
    },
    {
      "inputs": [],
      "name": "WAD",
      "outputs": [
        {
          "internalType": "uint8",
          "name": "",
          "type": "uint8"
        }
      ],
      "stateMutability": "view",
      "type": "function",
      "constant": true
    },
    {
      "inputs": [
        {
          "internalType": "address",
          "name": "user",
          "type": "address"
        }
      ],
      "name": "grantAccess",
      "outputs": [],
      "stateMutability": "nonpayable",
      "type": "function"
    },
    {
      "inputs": [],
      "name": "owner",
      "outputs": [
        {
          "internalType": "address",
          "name": "",
          "type": "address"
        }
      ],
      "stateMutability": "view",
      "type": "function",
      "constant": true
    },
    {
      "inputs": [],
      "name": "renounceOwnership",
      "outputs": [],
      "stateMutability": "nonpayable",
      "type": "function"
    },
    {
      "inputs": [
        {
          "internalType": "address",
          "name": "user",
          "type": "address"
        }
      ],
      "name": "revokeAccess",
      "outputs": [],
      "stateMutability": "nonpayable",
      "type": "function"
    },
    {
      "inputs": [
        {
          "internalType": "address",
          "name": "newOwner",
          "type": "address"
        }
      ],
      "name": "transferOwnership",
      "outputs": [],
      "stateMutability": "nonpayable",
      "type": "function"
    },
    {
      "inputs": [],
      "name": "debt",
      "outputs": [
        {
          "internalType": "uint256",
          "name": "",
          "type": "uint256"
        }
      ],
      "stateMutability": "view",
      "type": "function",
      "constant": true
    },
    {
      "inputs": [],
      "name": "power",
      "outputs": [
        {
          "internalType": "uint256",
          "name": "",
          "type": "uint256"
        }
      ],
      "stateMutability": "view",
      "type": "function",
      "constant": true
    },
    {
      "inputs": [],
      "name": "savings",
      "outputs": [
        {
          "internalType": "uint256",
          "name": "",
          "type": "uint256"
        }
      ],
      "stateMutability": "nonpayable",
      "type": "function"
    },
    {
      "inputs": [],
      "name": "pushDai",
      "outputs": [],
      "stateMutability": "nonpayable",
      "type": "function"
    },
    {
      "inputs": [],
      "name": "pushChai",
      "outputs": [],
      "stateMutability": "nonpayable",
      "type": "function"
    },
    {
      "inputs": [
        {
          "internalType": "address",
          "name": "user",
          "type": "address"
        },
        {
          "internalType": "uint256",
          "name": "dai",
          "type": "uint256"
        }
      ],
      "name": "pullDai",
      "outputs": [],
      "stateMutability": "nonpayable",
      "type": "function"
    },
    {
      "inputs": [
        {
          "internalType": "address",
          "name": "user",
          "type": "address"
        },
        {
          "internalType": "uint256",
          "name": "chai",
          "type": "uint256"
        }
      ],
      "name": "pullChai",
      "outputs": [],
      "stateMutability": "nonpayable",
      "type": "function"
    },
    {
      "inputs": [],
      "name": "pushWeth",
      "outputs": [],
      "stateMutability": "nonpayable",
      "type": "function"
    },
    {
      "inputs": [
        {
          "internalType": "address",
          "name": "to",
          "type": "address"
        },
        {
          "internalType": "uint256",
          "name": "weth",
          "type": "uint256"
        }
      ],
      "name": "pullWeth",
      "outputs": [],
      "stateMutability": "nonpayable",
      "type": "function"
    },
    {
      "inputs": [
        {
          "internalType": "address",
          "name": "user",
          "type": "address"
        },
        {
          "internalType": "uint256",
          "name": "weth",
          "type": "uint256"
        },
        {
          "internalType": "uint256",
          "name": "dai",
          "type": "uint256"
        }
      ],
      "name": "transferPosition",
      "outputs": [],
      "stateMutability": "nonpayable",
      "type": "function"
    }
  ],
  "bytecode": "0x60806040523480156200001157600080fd5b506040516200460438038062004604833981810160405260e08110156200003757600080fd5b8101908080519060200190929190805190602001909291908051906020019092919080519060200190929190805190602001909291908051906020019092919080519060200190929190505050600062000096620006d260201b60201c565b9050806000806101000a81548173ffffffffffffffffffffffffffffffffffffffff021916908373ffffffffffffffffffffffffffffffffffffffff1602179055508073ffffffffffffffffffffffffffffffffffffffff16600073ffffffffffffffffffffffffffffffffffffffff167f8be0079c531659141344cd1fd0a4f28419497f9722a3daafe3b4186f6b6457e060405160405180910390a35086600260006101000a81548173ffffffffffffffffffffffffffffffffffffffff021916908373ffffffffffffffffffffffffffffffffffffffff16021790555085600360006101000a81548173ffffffffffffffffffffffffffffffffffffffff021916908373ffffffffffffffffffffffffffffffffffffffff16021790555084600460006101000a81548173ffffffffffffffffffffffffffffffffffffffff021916908373ffffffffffffffffffffffffffffffffffffffff16021790555083600560006101000a81548173ffffffffffffffffffffffffffffffffffffffff021916908373ffffffffffffffffffffffffffffffffffffffff16021790555082600660006101000a81548173ffffffffffffffffffffffffffffffffffffffff021916908373ffffffffffffffffffffffffffffffffffffffff16021790555081600760006101000a81548173ffffffffffffffffffffffffffffffffffffffff021916908373ffffffffffffffffffffffffffffffffffffffff16021790555080600860006101000a81548173ffffffffffffffffffffffffffffffffffffffff021916908373ffffffffffffffffffffffffffffffffffffffff160217905550600860009054906101000a900473ffffffffffffffffffffffffffffffffffffffff1673ffffffffffffffffffffffffffffffffffffffff1663a3b22fc4836040518263ffffffff1660e01b8152600401808273ffffffffffffffffffffffffffffffffffffffff1673ffffffffffffffffffffffffffffffffffffffff168152602001915050600060405180830381600087803b1580156200039d57600080fd5b505af1158015620003b2573d6000803e3d6000fd5b50505050600860009054906101000a900473ffffffffffffffffffffffffffffffffffffffff1673ffffffffffffffffffffffffffffffffffffffff1663a3b22fc4846040518263ffffffff1660e01b8152600401808273ffffffffffffffffffffffffffffffffffffffff1673ffffffffffffffffffffffffffffffffffffffff168152602001915050600060405180830381600087803b1580156200045857600080fd5b505af11580156200046d573d6000803e3d6000fd5b50505050600260009054906101000a900473ffffffffffffffffffffffffffffffffffffffff1673ffffffffffffffffffffffffffffffffffffffff1663095ea7b3600360009054906101000a900473ffffffffffffffffffffffffffffffffffffffff167fffffffffffffffffffffffffffffffffffffffffffffffffffffffffffffffff6040518363ffffffff1660e01b8152600401808373ffffffffffffffffffffffffffffffffffffffff1673ffffffffffffffffffffffffffffffffffffffff16815260200182815260200192505050602060405180830381600087803b1580156200055d57600080fd5b505af115801562000572573d6000803e3d6000fd5b505050506040513d60208110156200058957600080fd5b810190808051906020019092919050505050600560009054906101000a900473ffffffffffffffffffffffffffffffffffffffff1673ffffffffffffffffffffffffffffffffffffffff1663095ea7b3600760009054906101000a900473ffffffffffffffffffffffffffffffffffffffff167fffffffffffffffffffffffffffffffffffffffffffffffffffffffffffffffff6040518363ffffffff1660e01b8152600401808373ffffffffffffffffffffffffffffffffffffffff1673ffffffffffffffffffffffffffffffffffffffff16815260200182815260200192505050602060405180830381600087803b1580156200068757600080fd5b505af11580156200069c573d6000803e3d6000fd5b505050506040513d6020811015620006b357600080fd5b81019080805190602001909291905050505050505050505050620006da565b600033905090565b613f1a80620006ea6000396000f3fe608060405234801561001057600080fd5b50600436106101165760003560e01c80636f12ba7f116100a25780638da5cb5b116100715780638da5cb5b1461035d5780639fa83689146103a7578063adb987e3146103f5578063c86d6ae4146103ff578063f2fde38b1461041d57610116565b80636f12ba7f14610269578063715018a6146102c157806385e68531146102cb5780638ac96dfc1461030f57610116565b80634a4d59fa116100e95780634a4d59fa146101ab57806355027703146101c9578063552033c414610217578063653b8e811461023b5780636a1460241461024557610116565b806306f405fd1461011b5780630ae5e7391461013f5780630b6500ee146101835780630dca59c11461018d575b600080fd5b610123610461565b604051808260ff1660ff16815260200191505060405180910390f35b6101816004803603602081101561015557600080fd5b81019080803573ffffffffffffffffffffffffffffffffffffffff169060200190929190505050610466565b005b61018b6105ec565b005b610195610a1c565b6040518082815260200191505060405180910390f35b6101b3610c48565b6040518082815260200191505060405180910390f35b610215600480360360408110156101df57600080fd5b81019080803573ffffffffffffffffffffffffffffffffffffffff16906020019092919080359060200190929190505050610e74565b005b61021f611524565b604051808260ff1660ff16815260200191505060405180910390f35b610243611529565b005b61024d611b53565b604051808260ff1660ff16815260200191505060405180910390f35b6102bf6004803603606081101561027f57600080fd5b81019080803573ffffffffffffffffffffffffffffffffffffffff1690602001909291908035906020019092919080359060200190929190505050611b58565b005b6102c961235f565b005b61030d600480360360208110156102e157600080fd5b81019080803573ffffffffffffffffffffffffffffffffffffffff1690602001909291905050506124e7565b005b61035b6004803603604081101561032557600080fd5b81019080803573ffffffffffffffffffffffffffffffffffffffff1690602001909291908035906020019092919050505061266e565b005b6103656129c4565b604051808273ffffffffffffffffffffffffffffffffffffffff1673ffffffffffffffffffffffffffffffffffffffff16815260200191505060405180910390f35b6103f3600480360360408110156103bd57600080fd5b81019080803573ffffffffffffffffffffffffffffffffffffffff169060200190929190803590602001909291905050506129ed565b005b6103fd613152565b005b61040761378c565b6040518082815260200191505060405180910390f35b61045f6004803603602081101561043357600080fd5b81019080803573ffffffffffffffffffffffffffffffffffffffff16906020019092919050505061386f565b005b602d81565b61046e613a7c565b73ffffffffffffffffffffffffffffffffffffffff166000809054906101000a900473ffffffffffffffffffffffffffffffffffffffff1673ffffffffffffffffffffffffffffffffffffffff161461052f576040517f08c379a00000000000000000000000000000000000000000000000000000000081526004018080602001828103825260208152602001807f4f776e61626c653a2063616c6c6572206973206e6f7420746865206f776e657281525060200191505060405180910390fd5b60018060008373ffffffffffffffffffffffffffffffffffffffff1673ffffffffffffffffffffffffffffffffffffffff16815260200190815260200160002060006101000a81548160ff0219169083151502179055507f6a7c5f28ea564fafc8b079663a2a9b9d26fe735d97c97611484ce044f40a16e281604051808273ffffffffffffffffffffffffffffffffffffffff1673ffffffffffffffffffffffffffffffffffffffff16815260200191505060405180910390a150565b6040518060400160405280601881526020017f54726561737572793a204e6f7420417574686f72697a65640000000000000000815250600160003373ffffffffffffffffffffffffffffffffffffffff1673ffffffffffffffffffffffffffffffffffffffff16815260200190815260200160002060009054906101000a900460ff168190610716576040517f08c379a00000000000000000000000000000000000000000000000000000000081526004018080602001828103825283818151815260200191508051906020019080838360005b838110156106db5780820151818401526020810190506106c0565b50505050905090810190601f1680156107085780820380516001836020036101000a031916815260200191505b509250505060405180910390fd5b506000600560009054906101000a900473ffffffffffffffffffffffffffffffffffffffff1673ffffffffffffffffffffffffffffffffffffffff166370a08231306040518263ffffffff1660e01b8152600401808273ffffffffffffffffffffffffffffffffffffffff1673ffffffffffffffffffffffffffffffffffffffff16815260200191505060206040518083038186803b1580156107b857600080fd5b505afa1580156107cc573d6000803e3d6000fd5b505050506040513d60208110156107e257600080fd5b81019080805190602001909291905050509050600760009054906101000a900473ffffffffffffffffffffffffffffffffffffffff1673ffffffffffffffffffffffffffffffffffffffff16633b4da69f30836040518363ffffffff1660e01b8152600401808373ffffffffffffffffffffffffffffffffffffffff1673ffffffffffffffffffffffffffffffffffffffff16815260200182815260200192505050600060405180830381600087803b15801561089e57600080fd5b505af11580156108b2573d6000803e3d6000fd5b50505050600860009054906101000a900473ffffffffffffffffffffffffffffffffffffffff1673ffffffffffffffffffffffffffffffffffffffff1663760887037f4554482d4100000000000000000000000000000000000000000000000000000030303061092187613a84565b60006040518763ffffffff1660e01b8152600401808781526020018673ffffffffffffffffffffffffffffffffffffffff1673ffffffffffffffffffffffffffffffffffffffff1681526020018573ffffffffffffffffffffffffffffffffffffffff1673ffffffffffffffffffffffffffffffffffffffff1681526020018473ffffffffffffffffffffffffffffffffffffffff1673ffffffffffffffffffffffffffffffffffffffff1681526020018381526020018281526020019650505050505050600060405180830381600087803b158015610a0057600080fd5b505af1158015610a14573d6000803e3d6000fd5b505050505050565b600080600860009054906101000a900473ffffffffffffffffffffffffffffffffffffffff1673ffffffffffffffffffffffffffffffffffffffff1663d9638d366040518163ffffffff1660e01b815260040180807f4554482d41000000000000000000000000000000000000000000000000000000815250602001905060a06040518083038186803b158015610ab257600080fd5b505afa158015610ac6573d6000803e3d6000fd5b505050506040513d60a0811015610adc57600080fd5b8101908080519060200190929190805190602001909291908051906020019092919080519060200190929190805190602001909291905050505050509150506000600860009054906101000a900473ffffffffffffffffffffffffffffffffffffffff1673ffffffffffffffffffffffffffffffffffffffff16632424be5c306040518263ffffffff1660e01b815260040180807f4554482d410000000000000000000000000000000000000000000000000000008152506020018273ffffffffffffffffffffffffffffffffffffffff1673ffffffffffffffffffffffffffffffffffffffff168152602001915050604080518083038186803b158015610be357600080fd5b505afa158015610bf7573d6000803e3d6000fd5b505050506040513d6040811015610c0d57600080fd5b810190808051906020019092919080519060200190929190505050915050610c4182601b83613af69092919063ffffffff16565b9250505090565b600080600860009054906101000a900473ffffffffffffffffffffffffffffffffffffffff1673ffffffffffffffffffffffffffffffffffffffff1663d9638d366040518163ffffffff1660e01b815260040180807f4554482d41000000000000000000000000000000000000000000000000000000815250602001905060a06040518083038186803b158015610cde57600080fd5b505afa158015610cf2573d6000803e3d6000fd5b505050506040513d60a0811015610d0857600080fd5b8101908080519060200190929190805190602001909291908051906020019092919080519060200190929190805190602001909291905050505050925050506000600860009054906101000a900473ffffffffffffffffffffffffffffffffffffffff1673ffffffffffffffffffffffffffffffffffffffff16632424be5c306040518263ffffffff1660e01b815260040180807f4554482d410000000000000000000000000000000000000000000000000000008152506020018273ffffffffffffffffffffffffffffffffffffffff1673ffffffffffffffffffffffffffffffffffffffff168152602001915050604080518083038186803b158015610e0f57600080fd5b505afa158015610e23573d6000803e3d6000fd5b505050506040513d6040811015610e3957600080fd5b810190808051906020019092919080519060200190929190505050509050610e6d82601b83613af69092919063ffffffff16565b9250505090565b6040518060400160405280601881526020017f54726561737572793a204e6f7420417574686f72697a65640000000000000000815250600160003373ffffffffffffffffffffffffffffffffffffffff1673ffffffffffffffffffffffffffffffffffffffff16815260200190815260200160002060009054906101000a900460ff168190610f9e576040517f08c379a00000000000000000000000000000000000000000000000000000000081526004018080602001828103825283818151815260200191508051906020019080838360005b83811015610f63578082015181840152602081019050610f48565b50505050905090810190601f168015610f905780820380516001836020036101000a031916815260200191505b509250505060405180910390fd5b506000610fb2610fac61378c565b84613b2e565b9050600081111561107f57600360009054906101000a900473ffffffffffffffffffffffffffffffffffffffff1673ffffffffffffffffffffffffffffffffffffffff16634a03707c30836040518363ffffffff1660e01b8152600401808373ffffffffffffffffffffffffffffffffffffffff1673ffffffffffffffffffffffffffffffffffffffff16815260200182815260200192505050600060405180830381600087803b15801561106657600080fd5b505af115801561107a573d6000803e3d6000fd5b505050505b6000818403905060008111156113c7576000600860009054906101000a900473ffffffffffffffffffffffffffffffffffffffff1673ffffffffffffffffffffffffffffffffffffffff1663d9638d366040518163ffffffff1660e01b815260040180807f4554482d41000000000000000000000000000000000000000000000000000000815250602001905060a06040518083038186803b15801561112457600080fd5b505afa158015611138573d6000803e3d6000fd5b505050506040513d60a081101561114e57600080fd5b810190808051906020019092919080519060200190929190805190602001909291908051906020019092919080519060200190929190505050505050915050600860009054906101000a900473ffffffffffffffffffffffffffffffffffffffff1673ffffffffffffffffffffffffffffffffffffffff1663760887037f4554482d41000000000000000000000000000000000000000000000000000000303030600061120f61120a89601b8c613b479092919063ffffffff16565b613a84565b6040518763ffffffff1660e01b8152600401808781526020018673ffffffffffffffffffffffffffffffffffffffff1673ffffffffffffffffffffffffffffffffffffffff1681526020018573ffffffffffffffffffffffffffffffffffffffff1673ffffffffffffffffffffffffffffffffffffffff1681526020018473ffffffffffffffffffffffffffffffffffffffff1673ffffffffffffffffffffffffffffffffffffffff1681526020018381526020018281526020019650505050505050600060405180830381600087803b1580156112ec57600080fd5b505af1158015611300573d6000803e3d6000fd5b50505050600660009054906101000a900473ffffffffffffffffffffffffffffffffffffffff1673ffffffffffffffffffffffffffffffffffffffff1663ef693bed30846040518363ffffffff1660e01b8152600401808373ffffffffffffffffffffffffffffffffffffffff1673ffffffffffffffffffffffffffffffffffffffff16815260200182815260200192505050600060405180830381600087803b1580156113ad57600080fd5b505af11580156113c1573d6000803e3d6000fd5b50505050505b600260009054906101000a900473ffffffffffffffffffffffffffffffffffffffff1673ffffffffffffffffffffffffffffffffffffffff1663a9059cbb86866040518363ffffffff1660e01b8152600401808373ffffffffffffffffffffffffffffffffffffffff1673ffffffffffffffffffffffffffffffffffffffff16815260200182815260200192505050602060405180830381600087803b15801561147057600080fd5b505af1158015611484573d6000803e3d6000fd5b505050506040513d602081101561149a57600080fd5b810190808051906020019092919050505061151d576040517f08c379a000000000000000000000000000000000000000000000000000000000815260040180806020018281038252601b8152602001807f54726561737572793a20446169207472616e73666572206661696c000000000081525060200191505060405180910390fd5b5050505050565b601b81565b6040518060400160405280601881526020017f54726561737572793a204e6f7420417574686f72697a65640000000000000000815250600160003373ffffffffffffffffffffffffffffffffffffffff1673ffffffffffffffffffffffffffffffffffffffff16815260200190815260200160002060009054906101000a900460ff168190611653576040517f08c379a00000000000000000000000000000000000000000000000000000000081526004018080602001828103825283818151815260200191508051906020019080838360005b838110156116185780820151818401526020810190506115fd565b50505050905090810190601f1680156116455780820380516001836020036101000a031916815260200191505b509250505060405180910390fd5b506000600360009054906101000a900473ffffffffffffffffffffffffffffffffffffffff1673ffffffffffffffffffffffffffffffffffffffff16636c25b346306040518263ffffffff1660e01b8152600401808273ffffffffffffffffffffffffffffffffffffffff1673ffffffffffffffffffffffffffffffffffffffff168152602001915050602060405180830381600087803b1580156116f757600080fd5b505af115801561170b573d6000803e3d6000fd5b505050506040513d602081101561172157600080fd5b810190808051906020019092919050505090506000611747611741610a1c565b83613b2e565b90506000811115611b4e57600360009054906101000a900473ffffffffffffffffffffffffffffffffffffffff1673ffffffffffffffffffffffffffffffffffffffff16634a03707c30836040518363ffffffff1660e01b8152600401808373ffffffffffffffffffffffffffffffffffffffff1673ffffffffffffffffffffffffffffffffffffffff16815260200182815260200192505050600060405180830381600087803b1580156117fb57600080fd5b505af115801561180f573d6000803e3d6000fd5b50505050600660009054906101000a900473ffffffffffffffffffffffffffffffffffffffff1673ffffffffffffffffffffffffffffffffffffffff16633b4da69f30836040518363ffffffff1660e01b8152600401808373ffffffffffffffffffffffffffffffffffffffff1673ffffffffffffffffffffffffffffffffffffffff16815260200182815260200192505050600060405180830381600087803b1580156118bc57600080fd5b505af11580156118d0573d6000803e3d6000fd5b505050506000600860009054906101000a900473ffffffffffffffffffffffffffffffffffffffff1673ffffffffffffffffffffffffffffffffffffffff1663d9638d366040518163ffffffff1660e01b815260040180807f4554482d41000000000000000000000000000000000000000000000000000000815250602001905060a06040518083038186803b15801561196957600080fd5b505afa15801561197d573d6000803e3d6000fd5b505050506040513d60a081101561199357600080fd5b810190808051906020019092919080519060200190929190805190602001909291908051906020019092919080519060200190929190505050505050915050600860009054906101000a900473ffffffffffffffffffffffffffffffffffffffff1673ffffffffffffffffffffffffffffffffffffffff1663760887037f4554482d410000000000000000000000000000000000000000000000000000003030306000611a54611a4f89601b8c613b479092919063ffffffff16565b613a84565b6000036040518763ffffffff1660e01b8152600401808781526020018673ffffffffffffffffffffffffffffffffffffffff1673ffffffffffffffffffffffffffffffffffffffff1681526020018573ffffffffffffffffffffffffffffffffffffffff1673ffffffffffffffffffffffffffffffffffffffff1681526020018473ffffffffffffffffffffffffffffffffffffffff1673ffffffffffffffffffffffffffffffffffffffff1681526020018381526020018281526020019650505050505050600060405180830381600087803b158015611b3457600080fd5b505af1158015611b48573d6000803e3d6000fd5b50505050505b505050565b601281565b6040518060400160405280601881526020017f54726561737572793a204e6f7420417574686f72697a65640000000000000000815250600160003373ffffffffffffffffffffffffffffffffffffffff1673ffffffffffffffffffffffffffffffffffffffff16815260200190815260200160002060009054906101000a900460ff168190611c82576040517f08c379a00000000000000000000000000000000000000000000000000000000081526004018080602001828103825283818151815260200191508051906020019080838360005b83811015611c47578082015181840152602081019050611c2c565b50505050905090810190601f168015611c745780820380516001836020036101000a031916815260200191505b509250505060405180910390fd5b506000600860009054906101000a900473ffffffffffffffffffffffffffffffffffffffff1673ffffffffffffffffffffffffffffffffffffffff1663d9638d366040518163ffffffff1660e01b815260040180807f4554482d41000000000000000000000000000000000000000000000000000000815250602001905060a06040518083038186803b158015611d1857600080fd5b505afa158015611d2c573d6000803e3d6000fd5b505050506040513d60a0811015611d4257600080fd5b8101908080519060200190929190805190602001909291908051906020019092919080519060200190929190805190602001909291905050505050509150506000611d94611d8e610a1c565b85613b2e565b84039050600081111561209b57600860009054906101000a900473ffffffffffffffffffffffffffffffffffffffff1673ffffffffffffffffffffffffffffffffffffffff1663760887037f4554482d410000000000000000000000000000000000000000000000000000003030306000611e23611e1e8a601b8b613b479092919063ffffffff16565b613a84565b6040518763ffffffff1660e01b8152600401808781526020018673ffffffffffffffffffffffffffffffffffffffff1673ffffffffffffffffffffffffffffffffffffffff1681526020018573ffffffffffffffffffffffffffffffffffffffff1673ffffffffffffffffffffffffffffffffffffffff1681526020018473ffffffffffffffffffffffffffffffffffffffff1673ffffffffffffffffffffffffffffffffffffffff1681526020018381526020018281526020019650505050505050600060405180830381600087803b158015611f0057600080fd5b505af1158015611f14573d6000803e3d6000fd5b50505050600660009054906101000a900473ffffffffffffffffffffffffffffffffffffffff1673ffffffffffffffffffffffffffffffffffffffff1663ef693bed30836040518363ffffffff1660e01b8152600401808373ffffffffffffffffffffffffffffffffffffffff1673ffffffffffffffffffffffffffffffffffffffff16815260200182815260200192505050600060405180830381600087803b158015611fc157600080fd5b505af1158015611fd5573d6000803e3d6000fd5b50505050600360009054906101000a900473ffffffffffffffffffffffffffffffffffffffff1673ffffffffffffffffffffffffffffffffffffffff16633b4da69f30836040518363ffffffff1660e01b8152600401808373ffffffffffffffffffffffffffffffffffffffff1673ffffffffffffffffffffffffffffffffffffffff16815260200182815260200192505050600060405180830381600087803b15801561208257600080fd5b505af1158015612096573d6000803e3d6000fd5b505050505b600860009054906101000a900473ffffffffffffffffffffffffffffffffffffffff1673ffffffffffffffffffffffffffffffffffffffff1663a3b22fc4876040518263ffffffff1660e01b8152600401808273ffffffffffffffffffffffffffffffffffffffff1673ffffffffffffffffffffffffffffffffffffffff168152602001915050600060405180830381600087803b15801561213c57600080fd5b505af1158015612150573d6000803e3d6000fd5b50505050600860009054906101000a900473ffffffffffffffffffffffffffffffffffffffff1673ffffffffffffffffffffffffffffffffffffffff1663870c616d7f4554482d4100000000000000000000000000000000000000000000000000000030896121be8a613a84565b6121dc6121d789601b8d613b479092919063ffffffff16565b613a84565b6040518663ffffffff1660e01b8152600401808681526020018573ffffffffffffffffffffffffffffffffffffffff1673ffffffffffffffffffffffffffffffffffffffff1681526020018473ffffffffffffffffffffffffffffffffffffffff1673ffffffffffffffffffffffffffffffffffffffff16815260200183815260200182815260200195505050505050600060405180830381600087803b15801561228657600080fd5b505af115801561229a573d6000803e3d6000fd5b50505050600860009054906101000a900473ffffffffffffffffffffffffffffffffffffffff1673ffffffffffffffffffffffffffffffffffffffff1663dc4d20fa876040518263ffffffff1660e01b8152600401808273ffffffffffffffffffffffffffffffffffffffff1673ffffffffffffffffffffffffffffffffffffffff168152602001915050600060405180830381600087803b15801561233f57600080fd5b505af1158015612353573d6000803e3d6000fd5b50505050505050505050565b612367613a7c565b73ffffffffffffffffffffffffffffffffffffffff166000809054906101000a900473ffffffffffffffffffffffffffffffffffffffff1673ffffffffffffffffffffffffffffffffffffffff1614612428576040517f08c379a00000000000000000000000000000000000000000000000000000000081526004018080602001828103825260208152602001807f4f776e61626c653a2063616c6c6572206973206e6f7420746865206f776e657281525060200191505060405180910390fd5b600073ffffffffffffffffffffffffffffffffffffffff166000809054906101000a900473ffffffffffffffffffffffffffffffffffffffff1673ffffffffffffffffffffffffffffffffffffffff167f8be0079c531659141344cd1fd0a4f28419497f9722a3daafe3b4186f6b6457e060405160405180910390a360008060006101000a81548173ffffffffffffffffffffffffffffffffffffffff021916908373ffffffffffffffffffffffffffffffffffffffff160217905550565b6124ef613a7c565b73ffffffffffffffffffffffffffffffffffffffff166000809054906101000a900473ffffffffffffffffffffffffffffffffffffffff1673ffffffffffffffffffffffffffffffffffffffff16146125b0576040517f08c379a00000000000000000000000000000000000000000000000000000000081526004018080602001828103825260208152602001807f4f776e61626c653a2063616c6c6572206973206e6f7420746865206f776e657281525060200191505060405180910390fd5b6000600160008373ffffffffffffffffffffffffffffffffffffffff1673ffffffffffffffffffffffffffffffffffffffff16815260200190815260200160002060006101000a81548160ff0219169083151502179055507fa3458b95c7eaa39f5f81c99d512823ec3e1372cd42b56f5239e15ac1752d55ad81604051808273ffffffffffffffffffffffffffffffffffffffff1673ffffffffffffffffffffffffffffffffffffffff16815260200191505060405180910390a150565b6040518060400160405280601881526020017f54726561737572793a204e6f7420417574686f72697a65640000000000000000815250600160003373ffffffffffffffffffffffffffffffffffffffff1673ffffffffffffffffffffffffffffffffffffffff16815260200190815260200160002060009054906101000a900460ff168190612798576040517f08c379a00000000000000000000000000000000000000000000000000000000081526004018080602001828103825283818151815260200191508051906020019080838360005b8381101561275d578082015181840152602081019050612742565b50505050905090810190601f16801561278a5780820380516001836020036101000a031916815260200191505b509250505060405180910390fd5b50600860009054906101000a900473ffffffffffffffffffffffffffffffffffffffff1673ffffffffffffffffffffffffffffffffffffffff1663760887037f4554482d4100000000000000000000000000000000000000000000000000000030303061280488613a84565b60000360006040518763ffffffff1660e01b8152600401808781526020018673ffffffffffffffffffffffffffffffffffffffff1673ffffffffffffffffffffffffffffffffffffffff1681526020018573ffffffffffffffffffffffffffffffffffffffff1673ffffffffffffffffffffffffffffffffffffffff1681526020018473ffffffffffffffffffffffffffffffffffffffff1673ffffffffffffffffffffffffffffffffffffffff1681526020018381526020018281526020019650505050505050600060405180830381600087803b1580156128e657600080fd5b505af11580156128fa573d6000803e3d6000fd5b50505050600760009054906101000a900473ffffffffffffffffffffffffffffffffffffffff1673ffffffffffffffffffffffffffffffffffffffff1663ef693bed84846040518363ffffffff1660e01b8152600401808373ffffffffffffffffffffffffffffffffffffffff1673ffffffffffffffffffffffffffffffffffffffff16815260200182815260200192505050600060405180830381600087803b1580156129a757600080fd5b505af11580156129bb573d6000803e3d6000fd5b50505050505050565b60008060009054906101000a900473ffffffffffffffffffffffffffffffffffffffff16905090565b6040518060400160405280601881526020017f54726561737572793a204e6f7420417574686f72697a65640000000000000000815250600160003373ffffffffffffffffffffffffffffffffffffffff1673ffffffffffffffffffffffffffffffffffffffff16815260200190815260200160002060009054906101000a900460ff168190612b17576040517f08c379a00000000000000000000000000000000000000000000000000000000081526004018080602001828103825283818151815260200191508051906020019080838360005b83811015612adc578082015181840152602081019050612ac1565b50505050905090810190601f168015612b095780820380516001836020036101000a031916815260200191505b509250505060405180910390fd5b506000612bd4600460009054906101000a900473ffffffffffffffffffffffffffffffffffffffff1673ffffffffffffffffffffffffffffffffffffffff1663a035b1fe6040518163ffffffff1660e01b8152600401602060405180830381600087803b158015612b8757600080fd5b505af1158015612b9b573d6000803e3d6000fd5b505050506040513d6020811015612bb157600080fd5b8101908080519060200190929190505050601b85613af69092919063ffffffff16565b90506000612be9612be361378c565b83613b2e565b9050600081830390506000811115612ff4576000600860009054906101000a900473ffffffffffffffffffffffffffffffffffffffff1673ffffffffffffffffffffffffffffffffffffffff1663d9638d366040518163ffffffff1660e01b815260040180807f4554482d41000000000000000000000000000000000000000000000000000000815250602001905060a06040518083038186803b158015612c9057600080fd5b505afa158015612ca4573d6000803e3d6000fd5b505050506040513d60a0811015612cba57600080fd5b810190808051906020019092919080519060200190929190805190602001909291908051906020019092919080519060200190929190505050505050915050600860009054906101000a900473ffffffffffffffffffffffffffffffffffffffff1673ffffffffffffffffffffffffffffffffffffffff1663760887037f4554482d410000000000000000000000000000000000000000000000000000003030306000612d7b612d7689601b8c613b479092919063ffffffff16565b613a84565b6040518763ffffffff1660e01b8152600401808781526020018673ffffffffffffffffffffffffffffffffffffffff1673ffffffffffffffffffffffffffffffffffffffff1681526020018573ffffffffffffffffffffffffffffffffffffffff1673ffffffffffffffffffffffffffffffffffffffff1681526020018473ffffffffffffffffffffffffffffffffffffffff1673ffffffffffffffffffffffffffffffffffffffff1681526020018381526020018281526020019650505050505050600060405180830381600087803b158015612e5857600080fd5b505af1158015612e6c573d6000803e3d6000fd5b50505050600660009054906101000a900473ffffffffffffffffffffffffffffffffffffffff1673ffffffffffffffffffffffffffffffffffffffff1663ef693bed30846040518363ffffffff1660e01b8152600401808373ffffffffffffffffffffffffffffffffffffffff1673ffffffffffffffffffffffffffffffffffffffff16815260200182815260200192505050600060405180830381600087803b158015612f1957600080fd5b505af1158015612f2d573d6000803e3d6000fd5b50505050600360009054906101000a900473ffffffffffffffffffffffffffffffffffffffff1673ffffffffffffffffffffffffffffffffffffffff16633b4da69f30846040518363ffffffff1660e01b8152600401808373ffffffffffffffffffffffffffffffffffffffff1673ffffffffffffffffffffffffffffffffffffffff16815260200182815260200192505050600060405180830381600087803b158015612fda57600080fd5b505af1158015612fee573d6000803e3d6000fd5b50505050505b600360009054906101000a900473ffffffffffffffffffffffffffffffffffffffff1673ffffffffffffffffffffffffffffffffffffffff1663a9059cbb87876040518363ffffffff1660e01b8152600401808373ffffffffffffffffffffffffffffffffffffffff1673ffffffffffffffffffffffffffffffffffffffff16815260200182815260200192505050602060405180830381600087803b15801561309d57600080fd5b505af11580156130b1573d6000803e3d6000fd5b505050506040513d60208110156130c757600080fd5b810190808051906020019092919050505061314a576040517f08c379a000000000000000000000000000000000000000000000000000000000815260040180806020018281038252601c8152602001807f54726561737572793a2043686169207472616e73666572206661696c0000000081525060200191505060405180910390fd5b505050505050565b6040518060400160405280601881526020017f54726561737572793a204e6f7420417574686f72697a65640000000000000000815250600160003373ffffffffffffffffffffffffffffffffffffffff1673ffffffffffffffffffffffffffffffffffffffff16815260200190815260200160002060009054906101000a900460ff16819061327c576040517f08c379a00000000000000000000000000000000000000000000000000000000081526004018080602001828103825283818151815260200191508051906020019080838360005b83811015613241578082015181840152602081019050613226565b50505050905090810190601f16801561326e5780820380516001836020036101000a031916815260200191505b509250505060405180910390fd5b506000600260009054906101000a900473ffffffffffffffffffffffffffffffffffffffff1673ffffffffffffffffffffffffffffffffffffffff166370a08231306040518263ffffffff1660e01b8152600401808273ffffffffffffffffffffffffffffffffffffffff1673ffffffffffffffffffffffffffffffffffffffff16815260200191505060206040518083038186803b15801561331e57600080fd5b505afa158015613332573d6000803e3d6000fd5b505050506040513d602081101561334857600080fd5b81019080805190602001909291905050509050600061336e613368610a1c565b83613b2e565b905060008111156136b457600660009054906101000a900473ffffffffffffffffffffffffffffffffffffffff1673ffffffffffffffffffffffffffffffffffffffff16633b4da69f30836040518363ffffffff1660e01b8152600401808373ffffffffffffffffffffffffffffffffffffffff1673ffffffffffffffffffffffffffffffffffffffff16815260200182815260200192505050600060405180830381600087803b15801561342257600080fd5b505af1158015613436573d6000803e3d6000fd5b505050506000600860009054906101000a900473ffffffffffffffffffffffffffffffffffffffff1673ffffffffffffffffffffffffffffffffffffffff1663d9638d366040518163ffffffff1660e01b815260040180807f4554482d41000000000000000000000000000000000000000000000000000000815250602001905060a06040518083038186803b1580156134cf57600080fd5b505afa1580156134e3573d6000803e3d6000fd5b505050506040513d60a08110156134f957600080fd5b810190808051906020019092919080519060200190929190805190602001909291908051906020019092919080519060200190929190505050505050915050600860009054906101000a900473ffffffffffffffffffffffffffffffffffffffff1673ffffffffffffffffffffffffffffffffffffffff1663760887037f4554482d4100000000000000000000000000000000000000000000000000000030303060006135ba6135b589601b8c613b479092919063ffffffff16565b613a84565b6000036040518763ffffffff1660e01b8152600401808781526020018673ffffffffffffffffffffffffffffffffffffffff1673ffffffffffffffffffffffffffffffffffffffff1681526020018573ffffffffffffffffffffffffffffffffffffffff1673ffffffffffffffffffffffffffffffffffffffff1681526020018473ffffffffffffffffffffffffffffffffffffffff1673ffffffffffffffffffffffffffffffffffffffff1681526020018381526020018281526020019650505050505050600060405180830381600087803b15801561369a57600080fd5b505af11580156136ae573d6000803e3d6000fd5b50505050505b60008183039050600081111561378657600360009054906101000a900473ffffffffffffffffffffffffffffffffffffffff1673ffffffffffffffffffffffffffffffffffffffff16633b4da69f30836040518363ffffffff1660e01b8152600401808373ffffffffffffffffffffffffffffffffffffffff1673ffffffffffffffffffffffffffffffffffffffff16815260200182815260200192505050600060405180830381600087803b15801561376d57600080fd5b505af1158015613781573d6000803e3d6000fd5b505050505b50505050565b6000600360009054906101000a900473ffffffffffffffffffffffffffffffffffffffff1673ffffffffffffffffffffffffffffffffffffffff16636c25b346306040518263ffffffff1660e01b8152600401808273ffffffffffffffffffffffffffffffffffffffff1673ffffffffffffffffffffffffffffffffffffffff168152602001915050602060405180830381600087803b15801561382f57600080fd5b505af1158015613843573d6000803e3d6000fd5b505050506040513d602081101561385957600080fd5b8101908080519060200190929190505050905090565b613877613a7c565b73ffffffffffffffffffffffffffffffffffffffff166000809054906101000a900473ffffffffffffffffffffffffffffffffffffffff1673ffffffffffffffffffffffffffffffffffffffff1614613938576040517f08c379a00000000000000000000000000000000000000000000000000000000081526004018080602001828103825260208152602001807f4f776e61626c653a2063616c6c6572206973206e6f7420746865206f776e657281525060200191505060405180910390fd5b600073ffffffffffffffffffffffffffffffffffffffff168173ffffffffffffffffffffffffffffffffffffffff1614156139be576040517f08c379a0000000000000000000000000000000000000000000000000000000008152600401808060200182810382526026815260200180613e2b6026913960400191505060405180910390fd5b8073ffffffffffffffffffffffffffffffffffffffff166000809054906101000a900473ffffffffffffffffffffffffffffffffffffffff1673ffffffffffffffffffffffffffffffffffffffff167f8be0079c531659141344cd1fd0a4f28419497f9722a3daafe3b4186f6b6457e060405160405180910390a3806000806101000a81548173ffffffffffffffffffffffffffffffffffffffff021916908373ffffffffffffffffffffffffffffffffffffffff16021790555050565b600033905090565b6000613a96613a91613b7f565b613ba7565b821115613aee576040517f08c379a000000000000000000000000000000000000000000000000000000000815260040180806020018281038252603b815260200180613e51603b913960400191505060405180910390fd5b819050919050565b6000613b25613b0483613c0a565b613b178587613c9490919063ffffffff16565b613d1a90919063ffffffff16565b90509392505050565b6000818310613b3d5781613b3f565b825b905092915050565b6000613b7683613b68613b5985613c0a565b87613c9490919063ffffffff16565b613d1a90919063ffffffff16565b90509392505050565b60007f7fffffffffffffffffffffffffffffffffffffffffffffffffffffffffffffff905090565b600080821215613c02576040517f08c379a0000000000000000000000000000000000000000000000000000000008152600401808060200182810382526038815260200180613e8c6038913960400191505060405180910390fd5b819050919050565b6000604d8260ff161115613c86576040517f08c379a00000000000000000000000000000000000000000000000000000000081526004018080602001828103825260118152602001807f546f6f206d616e7920646563696d616c7300000000000000000000000000000081525060200191505060405180910390fd5b8160ff16600a0a9050919050565b600080831415613ca75760009050613d14565b6000828402905082848281613cb857fe5b0414613d0f576040517f08c379a0000000000000000000000000000000000000000000000000000000008152600401808060200182810382526021815260200180613ec46021913960400191505060405180910390fd5b809150505b92915050565b6000613d5c83836040518060400160405280601a81526020017f536166654d6174683a206469766973696f6e206279207a65726f000000000000815250613d64565b905092915050565b60008083118290613e10576040517f08c379a00000000000000000000000000000000000000000000000000000000081526004018080602001828103825283818151815260200191508051906020019080838360005b83811015613dd5578082015181840152602081019050613dba565b50505050905090810190601f168015613e025780820380516001836020036101000a031916815260200191505b509250505060405180910390fd5b506000838581613e1c57fe5b04905080915050939250505056fe4f776e61626c653a206e6577206f776e657220697320746865207a65726f206164647265737343616e6e6f742063617374206f766572666c6f77696e6720756e7369676e656420696e746567657220746f207369676e656420696e74656765722e43616e6e6f742063617374206e65676174697665207369676e656420696e746567657220746f20756e7369676e656420696e74656765722e536166654d6174683a206d756c7469706c69636174696f6e206f766572666c6f77a2646970667358221220b31fc01b7548356e9624079275c84d1413ff33ef35bbdcfbe818e44ceddeb0c364736f6c63430006020033",
  "source": "pragma solidity ^0.6.0;\n\nimport \"@hq20/contracts/contracts/access/AuthorizedAccess.sol\";\nimport \"@hq20/contracts/contracts/math/DecimalMath.sol\";\nimport \"@hq20/contracts/contracts/utils/SafeCast.sol\";\nimport \"@openzeppelin/contracts/access/Ownable.sol\";\nimport \"@openzeppelin/contracts/math/Math.sol\";\nimport \"@openzeppelin/contracts/token/ERC20/IERC20.sol\";\nimport \"./interfaces/IDaiJoin.sol\";\nimport \"./interfaces/IGemJoin.sol\";\nimport \"./interfaces/IVat.sol\";\nimport \"./interfaces/IChai.sol\";\nimport \"./interfaces/IOracle.sol\";\nimport \"./interfaces/ITreasury.sol\";\nimport \"./Constants.sol\";\nimport \"@nomiclabs/buidler/console.sol\";\n\n\n/// @dev Treasury manages the Dai, interacting with MakerDAO's vat and chai when needed.\ncontract Treasury is ITreasury, AuthorizedAccess(), Constants() {\n    using DecimalMath for uint256;\n    using DecimalMath for int256;\n    using DecimalMath for uint8;\n    using SafeCast for uint256;\n    using SafeCast for int256;\n\n    bytes32 constant collateralType = \"ETH-A\";\n\n    IERC20 internal _dai;\n    IChai internal _chai;\n    IOracle internal _chaiOracle;\n    IERC20 internal _weth;\n    IDaiJoin internal _daiJoin;\n    IGemJoin internal _wethJoin;\n    IVat internal _vat;\n\n    constructor (\n        address dai_,\n        address chai_,\n        address chaiOracle_,\n        address weth_,\n        address daiJoin_,\n        address wethJoin_,\n        address vat_\n    ) public {\n        // These could be hardcoded for mainnet deployment.\n        _dai = IERC20(dai_);\n        _chai = IChai(chai_);\n        _chaiOracle = IOracle(chaiOracle_);\n        _weth = IERC20(weth_);\n        _daiJoin = IDaiJoin(daiJoin_);\n        _wethJoin = IGemJoin(wethJoin_);\n        _vat = IVat(vat_);\n        _vat.hope(address(wethJoin_));\n        _vat.hope(address(daiJoin_));\n\n        _dai.approve(address(_chai), uint256(-1));      // Chai will never cheat on us\n        _weth.approve(address(_wethJoin), uint256(-1)); // WethJoin will never cheat on us\n    }\n\n    /// @dev Returns the Treasury debt towards MakerDAO, as the dai borrowed times the stability fee for Weth.\n    /// We have borrowed (rate * art)\n    /// Borrowing Limit (rate * art) <= (ink * spot)\n    function debt() public view returns(uint256) {\n        (, uint256 rate,,,) = _vat.ilks(\"ETH-A\");            // Retrieve the MakerDAO stability fee for Weth\n        (, uint256 art) = _vat.urns(\"ETH-A\", address(this)); // Retrieve the Treasury debt in MakerDAO\n        return art.muld(rate, RAY);\n    }\n\n    /// @dev Returns the Treasury borrowing capacity from MakerDAO, as the collateral posted times the collateralization ratio for Weth.\n    /// We can borrow (ink * spot)\n    function power() public view returns(uint256) {\n        (,, uint256 spot,,) = _vat.ilks(\"ETH-A\");            // Collateralization ratio for Weth\n        (uint256 ink,) = _vat.urns(\"ETH-A\", address(this));  // Treasury Weth collateral in MakerDAO\n        return ink.muld(spot, RAY);\n    }\n\n    /// @dev Returns the amount of Dai in this contract.\n    function savings() public returns(uint256){\n        return _chai.dai(address(this));\n    }\n\n    /// @dev Pays as much system debt as possible from the Treasury dai balance, saving the rest as chai.\n    function pushDai() public override onlyAuthorized(\"Treasury: Not Authorized\") {\n        uint256 dai = _dai.balanceOf(address(this));\n\n        uint256 toRepay = Math.min(debt(), dai);\n        if (toRepay > 0) {\n            _daiJoin.join(address(this), toRepay);\n            // Remove debt from vault using frob\n            (, uint256 rate,,,) = _vat.ilks(\"ETH-A\"); // Retrieve the MakerDAO stability fee\n            _vat.frob(\n                collateralType,\n                address(this),\n                address(this),\n                address(this),\n                0,                           // Weth collateral to add\n                -toRepay.divd(rate, RAY).toInt() // Dai debt to remove\n            );\n        }\n\n        uint256 toSave = dai - toRepay;         // toRepay can't be greater than dai\n        if (toSave > 0) {\n            _chai.join(address(this), toSave);    // Give dai to Chai, take chai back\n        }\n    }\n\n    /// @dev Pays as much system debt as possible from the Treasury chai balance, saving the rest as chai.\n    function pushChai() public override onlyAuthorized(\"Treasury: Not Authorized\") {\n        uint256 dai = _chai.dai(address(this));\n\n        uint256 toRepay = Math.min(debt(), dai);\n        if (toRepay > 0) {\n            _chai.draw(address(this), toRepay);     // Grab dai from Chai, converted from chai\n            _daiJoin.join(address(this), toRepay);\n            // Remove debt from vault using frob\n            (, uint256 rate,,,) = _vat.ilks(\"ETH-A\"); // Retrieve the MakerDAO stability fee\n            _vat.frob(\n                collateralType,\n                address(this),\n                address(this),\n                address(this),\n                0,                           // Weth collateral to add\n                -toRepay.divd(rate, RAY).toInt() // Dai debt to remove\n            );\n        }\n        // Anything that is left from repaying, is chai savings\n    }\n\n    /// @dev Returns dai using chai savings as much as possible, and borrowing the rest.\n    function pullDai(address user, uint256 dai) public override onlyAuthorized(\"Treasury: Not Authorized\") {\n        uint256 toRelease = Math.min(savings(), dai);\n        if (toRelease > 0) {\n            _chai.draw(address(this), toRelease);     // Grab dai from Chai, converted from chai\n        }\n\n        uint256 toBorrow = dai - toRelease;    // toRelease can't be greater than dai\n        if (toBorrow > 0) {\n            (, uint256 rate,,,) = _vat.ilks(\"ETH-A\"); // Retrieve the MakerDAO stability fee\n            // Increase the dai debt by the dai to receive divided by the stability fee\n            _vat.frob(\n                collateralType,\n                address(this),\n                address(this),\n                address(this),\n                0,\n                toBorrow.divd(rate, RAY).toInt()\n            ); // `vat.frob` reverts on failure\n            _daiJoin.exit(address(this), toBorrow); // `daiJoin` reverts on failures\n        }\n\n        require(                            // Give dai to user\n            _dai.transfer(user, dai),\n            \"Treasury: Dai transfer fail\"\n        );\n    }\n\n    /// @dev Returns chai using chai savings as much as possible, and borrowing the rest.\n    function pullChai(address user, uint256 chai) public override onlyAuthorized(\"Treasury: Not Authorized\") {\n        uint256 dai = chai.muld(_chaiOracle.price(), RAY);   // dai = price * chai\n        uint256 toRelease = Math.min(savings(), dai);\n        // As much chai as the Treasury has, can be used, we borrwo dai and convert it to chai for the rest\n\n        uint256 toBorrow = dai - toRelease;    // toRelease can't be greater than dai\n        if (toBorrow > 0) {\n            (, uint256 rate,,,) = _vat.ilks(\"ETH-A\"); // Retrieve the MakerDAO stability fee\n            // Increase the dai debt by the dai to receive divided by the stability fee\n            _vat.frob(\n                collateralType,\n                address(this),\n                address(this),\n                address(this),\n                0,\n                toBorrow.divd(rate, RAY).toInt()\n            ); // `vat.frob` reverts on failure\n            _daiJoin.exit(address(this), toBorrow);  // `daiJoin` reverts on failures\n            _chai.join(address(this), toBorrow);     // Grab chai from Chai, converted from dai\n        }\n\n        require(                            // Give dai to user\n            _chai.transfer(user, chai),\n            \"Treasury: Chai transfer fail\"\n        );\n    }\n\n    /// @dev Moves all Weth collateral from Treasury into Maker\n    function pushWeth() public override onlyAuthorized(\"Treasury: Not Authorized\") {\n        uint256 weth = _weth.balanceOf(address(this));\n\n        _wethJoin.join(address(this), weth); // GemJoin reverts if anything goes wrong.\n        // All added collateral should be locked into the vault using frob\n        _vat.frob(\n            collateralType,\n            address(this),\n            address(this),\n            address(this),\n            weth.toInt(), // Collateral to add - WAD\n            0 // Normalized Dai to receive - WAD\n        );\n    }\n\n    /// @dev Moves Weth collateral from Treasury controlled Maker Eth vault to `to` address.\n    function pullWeth(address to, uint256 weth) public override onlyAuthorized(\"Treasury: Not Authorized\") {\n        // Remove collateral from vault using frob\n        _vat.frob(\n            collateralType,\n            address(this),\n            address(this),\n            address(this),\n            -weth.toInt(), // Weth collateral to remove - WAD\n            0              // Dai debt to add - WAD\n        );\n        _wethJoin.exit(to, weth); // `GemJoin` reverts on failures\n    }\n\n    /// @dev Moves dai debt and weth collateral from Treasury to `user` in MakerDAO\n    /// Needs to be surrounded by `vat.hope(treasury.address)` and `vat.nope(treasury.address)`\n    /// Only the Dealer can call `transferPosition`, to avoid transferring more debt than an user has.\n    /// The `dai` parameter is measured in normalized dai, not in the units used in `vat.urns(ilk, user)).art`.\n    function transferPosition(address user, uint256 weth, uint256 dai)\n        public override onlyAuthorized(\"Treasury: Not Authorized\")\n    {\n        // If the Treasury doesn't have enough debt, it needs to borrow dai, which becomes chai savings.\n        (, uint256 rate,,,) = _vat.ilks(\"ETH-A\"); // Retrieve the MakerDAO stability fee\n        uint256 toBorrow = dai - Math.min(debt(), dai);\n        if (toBorrow > 0) {\n            _vat.frob(\n                collateralType,\n                address(this),\n                address(this),\n                address(this),\n                0,\n                toBorrow.divd(rate, RAY).toInt()\n            ); // `vat.frob` reverts on failure\n            _daiJoin.exit(address(this), toBorrow);  // `daiJoin` reverts on failures\n            _chai.join(address(this), toBorrow);     // Grab chai from Chai, converted from dai\n        }\n\n        _vat.hope(user);\n        _vat.fork( // Move the debt\n            collateralType,\n            address(this),\n            user,\n            weth.toInt(),\n            dai.divd(rate, RAY).toInt()\n        );\n        _vat.nope(user);\n    }\n}",
  "sourcePath": "/Users/bruce/dev/yieldprotocol/ytoken-mvp/contracts/Treasury.sol",
  "compiler": {
    "name": "solc",
    "version": "0.6.2+commit.bacdbe57.Emscripten.clang"
  },
  "schemaVersion": "3.0.23",
  "updatedAt": "2020-06-11T16:17:06.077Z",
  "networkType": "ethereum",
  "devdoc": {
    "details": "Treasury manages the Dai, interacting with MakerDAO's vat and chai when needed.",
    "methods": {
      "debt()": {
        "details": "Returns the Treasury debt towards MakerDAO, as the dai borrowed times the stability fee for Weth. We have borrowed (rate * art) Borrowing Limit (rate * art) <= (ink * spot)"
      },
      "grantAccess(address)": {
        "details": "Add user to the authorized users list"
      },
      "owner()": {
        "details": "Returns the address of the current owner."
      },
      "power()": {
        "details": "Returns the Treasury borrowing capacity from MakerDAO, as the collateral posted times the collateralization ratio for Weth. We can borrow (ink * spot)"
      },
      "pullChai(address,uint256)": {
        "details": "Returns chai using chai savings as much as possible, and borrowing the rest."
      },
      "pullDai(address,uint256)": {
        "details": "Returns dai using chai savings as much as possible, and borrowing the rest."
      },
      "pullWeth(address,uint256)": {
        "details": "Moves Weth collateral from Treasury controlled Maker Eth vault to `to` address."
      },
      "pushChai()": {
        "details": "Pays as much system debt as possible from the Treasury chai balance, saving the rest as chai."
      },
      "pushDai()": {
        "details": "Pays as much system debt as possible from the Treasury dai balance, saving the rest as chai."
      },
      "pushWeth()": {
        "details": "Moves all Weth collateral from Treasury into Maker"
      },
      "renounceOwnership()": {
        "details": "Leaves the contract without owner. It will not be possible to call `onlyOwner` functions anymore. Can only be called by the current owner.     * NOTE: Renouncing ownership will leave the contract without an owner, thereby removing any functionality that is only available to the owner."
      },
      "revokeAccess(address)": {
        "details": "Remove user to the authorized users list"
      },
      "savings()": {
        "details": "Returns the amount of Dai in this contract."
      },
      "transferOwnership(address)": {
        "details": "Transfers ownership of the contract to a new account (`newOwner`). Can only be called by the current owner."
      },
      "transferPosition(address,uint256,uint256)": {
        "details": "Moves dai debt and weth collateral from Treasury to `user` in MakerDAO Needs to be surrounded by `vat.hope(treasury.address)` and `vat.nope(treasury.address)` Only the Dealer can call `transferPosition`, to avoid transferring more debt than an user has. The `dai` parameter is measured in normalized dai, not in the units used in `vat.urns(ilk, user)).art`."
      }
    }
  },
  "userdoc": {
    "methods": {}
  }
}