{
  "contractName": "Treasury",
  "abi": [
    {
      "inputs": [
        {
          "internalType": "address",
          "name": "vat_",
          "type": "address"
        },
        {
          "internalType": "address",
          "name": "weth_",
          "type": "address"
        },
        {
          "internalType": "address",
          "name": "dai_",
          "type": "address"
        },
        {
          "internalType": "address",
          "name": "wethJoin_",
          "type": "address"
        },
        {
          "internalType": "address",
          "name": "daiJoin_",
          "type": "address"
        },
        {
          "internalType": "address",
          "name": "pot_",
          "type": "address"
        },
        {
          "internalType": "address",
          "name": "chai_",
          "type": "address"
        }
      ],
      "stateMutability": "nonpayable",
      "type": "constructor"
    },
    {
      "anonymous": false,
      "inputs": [
        {
          "indexed": false,
          "internalType": "address",
          "name": "access",
          "type": "address"
        }
      ],
      "name": "GrantedAccess",
      "type": "event"
    },
    {
      "anonymous": false,
      "inputs": [
        {
          "indexed": true,
          "internalType": "address",
          "name": "previousOwner",
          "type": "address"
        },
        {
          "indexed": true,
          "internalType": "address",
          "name": "newOwner",
          "type": "address"
        }
      ],
      "name": "OwnershipTransferred",
      "type": "event"
    },
    {
      "inputs": [],
      "name": "UNIT",
      "outputs": [
        {
          "internalType": "uint256",
          "name": "",
          "type": "uint256"
        }
      ],
      "stateMutability": "view",
      "type": "function",
      "constant": true
    },
    {
      "inputs": [],
      "name": "live",
      "outputs": [
        {
          "internalType": "bool",
          "name": "",
          "type": "bool"
        }
      ],
      "stateMutability": "view",
      "type": "function",
      "constant": true
    },
    {
      "inputs": [
        {
          "internalType": "address",
          "name": "user",
          "type": "address"
        }
      ],
      "name": "orchestrate",
      "outputs": [],
      "stateMutability": "nonpayable",
      "type": "function"
    },
    {
      "inputs": [],
      "name": "owner",
      "outputs": [
        {
          "internalType": "address",
          "name": "",
          "type": "address"
        }
      ],
      "stateMutability": "view",
      "type": "function",
      "constant": true
    },
    {
      "inputs": [],
      "name": "renounceOwnership",
      "outputs": [],
      "stateMutability": "nonpayable",
      "type": "function"
    },
    {
      "inputs": [
        {
          "internalType": "address",
          "name": "newOwner",
          "type": "address"
        }
      ],
      "name": "transferOwnership",
      "outputs": [],
      "stateMutability": "nonpayable",
      "type": "function"
    },
    {
      "inputs": [],
      "name": "shutdown",
      "outputs": [],
      "stateMutability": "nonpayable",
      "type": "function"
    },
    {
      "inputs": [],
      "name": "debt",
      "outputs": [
        {
          "internalType": "uint256",
          "name": "",
          "type": "uint256"
        }
      ],
      "stateMutability": "view",
      "type": "function",
      "constant": true
    },
    {
      "inputs": [],
      "name": "power",
      "outputs": [
        {
          "internalType": "uint256",
          "name": "",
          "type": "uint256"
        }
      ],
      "stateMutability": "view",
      "type": "function",
      "constant": true
    },
    {
      "inputs": [],
      "name": "savings",
      "outputs": [
        {
          "internalType": "uint256",
          "name": "",
          "type": "uint256"
        }
      ],
      "stateMutability": "nonpayable",
      "type": "function"
    },
    {
      "inputs": [
        {
          "internalType": "address",
          "name": "from",
          "type": "address"
        },
        {
          "internalType": "uint256",
          "name": "amount",
          "type": "uint256"
        }
      ],
      "name": "pushDai",
      "outputs": [],
      "stateMutability": "nonpayable",
      "type": "function"
    },
    {
      "inputs": [
        {
          "internalType": "address",
          "name": "from",
          "type": "address"
        },
        {
          "internalType": "uint256",
          "name": "amount",
          "type": "uint256"
        }
      ],
      "name": "pushChai",
      "outputs": [],
      "stateMutability": "nonpayable",
      "type": "function"
    },
    {
      "inputs": [
        {
          "internalType": "address",
          "name": "from",
          "type": "address"
        },
        {
          "internalType": "uint256",
          "name": "amount",
          "type": "uint256"
        }
      ],
      "name": "pushWeth",
      "outputs": [],
      "stateMutability": "nonpayable",
      "type": "function"
    },
    {
      "inputs": [
        {
          "internalType": "address",
          "name": "to",
          "type": "address"
        },
        {
          "internalType": "uint256",
          "name": "dai",
          "type": "uint256"
        }
      ],
      "name": "pullDai",
      "outputs": [],
      "stateMutability": "nonpayable",
      "type": "function"
    },
    {
      "inputs": [
        {
          "internalType": "address",
          "name": "to",
          "type": "address"
        },
        {
          "internalType": "uint256",
          "name": "chai",
          "type": "uint256"
        }
      ],
      "name": "pullChai",
      "outputs": [],
      "stateMutability": "nonpayable",
      "type": "function"
    },
    {
      "inputs": [
        {
          "internalType": "address",
          "name": "to",
          "type": "address"
        },
        {
          "internalType": "uint256",
          "name": "weth",
          "type": "uint256"
        }
      ],
      "name": "pullWeth",
      "outputs": [],
      "stateMutability": "nonpayable",
      "type": "function"
    },
    {
      "inputs": [
        {
          "internalType": "address",
          "name": "unwind_",
          "type": "address"
        }
      ],
      "name": "registerUnwind",
      "outputs": [],
      "stateMutability": "nonpayable",
      "type": "function"
    }
  ],
  "bytecode": "0x60806040526009805460ff60a01b1916600160a01b1790553480156200002457600080fd5b506040516200261538038062002615833981810160405260e08110156200004a57600080fd5b508051602082015160408301516060840151608085015160a086015160c090960151949593949293919290919060006200008c6001600160e01b036200032916565b600080546001600160a01b0319166001600160a01b0383169081178255604051929350917f8be0079c531659141344cd1fd0a4f28419497f9722a3daafe3b4186f6b6457e0908290a350600280546001600160a01b03199081166001600160a01b03888116919091179092556003805482168484161790556004805482168584161781556005805483168a8516179055600680548316878516179055600780548316888516908117909155600880549093168b85161792839055604080516328ec8bf160e21b81529283019190915251919092169163a3b22fc491602480830192600092919082900301818387803b1580156200018857600080fd5b505af11580156200019d573d6000803e3d6000fd5b5050600854604080516328ec8bf160e21b81526001600160a01b038881166004830152915191909216935063a3b22fc49250602480830192600092919082900301818387803b158015620001f057600080fd5b505af115801562000205573d6000803e3d6000fd5b50506002546003546040805163095ea7b360e01b81526001600160a01b0392831660048201526000196024820152905191909216935063095ea7b3925060448083019260209291908290030181600087803b1580156200026457600080fd5b505af115801562000279573d6000803e3d6000fd5b505050506040513d60208110156200029057600080fd5b50506005546007546040805163095ea7b360e01b81526001600160a01b03928316600482015260001960248201529051919092169163095ea7b39160448083019260209291908290030181600087803b158015620002ed57600080fd5b505af115801562000302573d6000803e3d6000fd5b505050506040513d60208110156200031957600080fd5b506200032d975050505050505050565b3390565b6122d8806200033d6000396000f3fe608060405234801561001057600080fd5b506004361061010b5760003560e01c80638da5cb5b116100a25780639fa83689116100715780639fa8368914610280578063c86d6ae4146102ac578063f2fde38b146102b4578063f9391991146102da578063fc0e74d1146103065761010b565b80638da5cb5b1461020c578063957aa58c146102305780639a5aaf781461024c5780639d8e2177146102785761010b565b806355027703116100de5780635502770314610186578063715018a6146101b257806380f5a440146101ba5780638ac96dfc146101e05761010b565b80630dca59c1146101105780631997c3611461012a5780631e2043b1146101585780634a4d59fa1461017e575b600080fd5b61011861030e565b60408051918252519081900360200190f35b6101566004803603604081101561014057600080fd5b506001600160a01b038135169060200135610433565b005b6101566004803603602081101561016e57600080fd5b50356001600160a01b0316610884565b610118610a38565b6101566004803603604081101561019c57600080fd5b506001600160a01b038135169060200135610b53565b610156610f06565b610156600480360360208110156101d057600080fd5b50356001600160a01b0316610fa8565b610156600480360360408110156101f657600080fd5b506001600160a01b03813516906020013561105c565b610214611248565b604080516001600160a01b039092168252519081900360200190f35b610238611257565b604080519115158252519081900360200190f35b6101566004803603604081101561026257600080fd5b506001600160a01b038135169060200135611267565b6101186114c8565b6101566004803603604081101561029657600080fd5b506001600160a01b0381351690602001356114d8565b6101186119f6565b610156600480360360208110156102ca57600080fd5b50356001600160a01b0316611a73565b610156600480360360408110156102f057600080fd5b506001600160a01b038135169060200135611b6b565b610156611f03565b60085460408051636cb1c69b60e11b8152644554482d4160d81b6004820152905160009283926001600160a01b039091169163d9638d369160248082019260a092909190829003018186803b15801561036657600080fd5b505afa15801561037a573d6000803e3d6000fd5b505050506040513d60a081101561039057600080fd5b5060200151600854604080516309092f9760e21b8152644554482d4160d81b600482015230602482015281519394506000936001600160a01b0390931692632424be5c92604480840193919291829003018186803b1580156103f157600080fd5b505afa158015610405573d6000803e3d6000fd5b505050506040513d604081101561041b57600080fd5b5060200151905061042c8183611fde565b9250505090565b6040805180820182526018815260008051602061221d83398151915260208083019190915233600090815260019091529190912054819060ff166104f55760405162461bcd60e51b81526004018080602001828103825283818151815260200191508051906020019080838360005b838110156104ba5781810151838201526020016104a2565b50505050905090810190601f1680156104e75780820380516001836020036101000a031916815260200191505b509250505060405180910390fd5b50600954600160a01b900460ff1615156001146105435760405162461bcd60e51b815260040180806020018281038252602581526020018061227e6025913960400191505060405180910390fd5b600354604080516323b872dd60e01b81526001600160a01b03868116600483015230602483015260448201869052915191909216916323b872dd9160648083019260209291908290030181600087803b15801561059f57600080fd5b505af11580156105b3573d6000803e3d6000fd5b505050506040513d60208110156105c957600080fd5b50516105d457600080fd5b60035460408051633612d9a360e11b815230600482015290516000926001600160a01b031691636c25b34691602480830192602092919082900301818787803b15801561062057600080fd5b505af1158015610634573d6000803e3d6000fd5b505050506040513d602081101561064a57600080fd5b50519050600061066161065b61030e565b83612015565b9050801561087d5760035460408051631280dc1f60e21b81523060048201526024810184905290516001600160a01b0390921691634a03707c9160448082019260009290919082900301818387803b1580156106bc57600080fd5b505af11580156106d0573d6000803e3d6000fd5b505060065460408051633b4da69f60e01b81523060048201526024810186905290516001600160a01b039092169350633b4da69f925060448082019260009290919082900301818387803b15801561072757600080fd5b505af115801561073b573d6000803e3d6000fd5b505060085460408051636cb1c69b60e11b8152644554482d4160d81b60048201529051600094506001600160a01b03909216925063d9638d369160248083019260a0929190829003018186803b15801561079457600080fd5b505afa1580156107a8573d6000803e3d6000fd5b505050506040513d60a08110156107be57600080fd5b50602001516008549091506001600160a01b03166376088703644554482d4160d81b30808060006107f76107f28a8a61202b565b61204d565b604080516001600160e01b031960e08a901b16815260048101979097526001600160a01b03958616602488015293851660448701529190931660648501526084840192909252600091820360a48401525160c48084019382900301818387803b15801561086357600080fd5b505af1158015610877573d6000803e3d6000fd5b50505050505b5050505050565b61088c6120af565b6000546001600160a01b039081169116146108dc576040805162461bcd60e51b8152602060048201819052602482015260008051602061225e833981519152604482015290519081900360640190fd5b6009546001600160a01b03161561093a576040805162461bcd60e51b815260206004820152601c60248201527f54726561737572793a20556e77696e6420616c72656164792073657400000000604482015290519081900360640190fd5b600980546001600160a01b0319166001600160a01b0383811691909117918290556003546040805163095ea7b360e01b8152938316600485015260001960248501525191169163095ea7b39160448083019260209291908290030181600087803b1580156109a757600080fd5b505af11580156109bb573d6000803e3d6000fd5b505050506040513d60208110156109d157600080fd5b5050600854600954604080516328ec8bf160e21b81526001600160a01b0392831660048201529051919092169163a3b22fc491602480830192600092919082900301818387803b158015610a2457600080fd5b505af115801561087d573d6000803e3d6000fd5b60085460408051636cb1c69b60e11b8152644554482d4160d81b6004820152905160009283926001600160a01b039091169163d9638d369160248082019260a092909190829003018186803b158015610a9057600080fd5b505afa158015610aa4573d6000803e3d6000fd5b505050506040513d60a0811015610aba57600080fd5b5060409081015160085482516309092f9760e21b8152644554482d4160d81b600482015230602482015283519294506000936001600160a01b0390921692632424be5c92604480840193919291829003018186803b158015610b1b57600080fd5b505afa158015610b2f573d6000803e3d6000fd5b505050506040513d6040811015610b4557600080fd5b5051905061042c8183611fde565b6040805180820182526018815260008051602061221d83398151915260208083019190915233600090815260019091529190912054819060ff16610bd85760405162461bcd60e51b81526020600482018181528351602484015283519092839260449091019190850190808383600083156104ba5781810151838201526020016104a2565b50600954600160a01b900460ff161515600114610c265760405162461bcd60e51b815260040180806020018281038252602581526020018061227e6025913960400191505060405180910390fd5b6000610c39610c336119f6565b84612015565b90508015610cad5760035460408051631280dc1f60e21b81523060048201526024810184905290516001600160a01b0390921691634a03707c9160448082019260009290919082900301818387803b158015610c9457600080fd5b505af1158015610ca8573d6000803e3d6000fd5b505050505b8083038015610e7b5760085460408051636cb1c69b60e11b8152644554482d4160d81b600482015290516000926001600160a01b03169163d9638d369160248083019260a0929190829003018186803b158015610d0957600080fd5b505afa158015610d1d573d6000803e3d6000fd5b505050506040513d60a0811015610d3357600080fd5b50602001516008549091506001600160a01b03166376088703644554482d4160d81b3080806000610d676107f28a8a6120b3565b6040518763ffffffff1660e01b815260040180878152602001866001600160a01b03166001600160a01b03168152602001856001600160a01b03166001600160a01b03168152602001846001600160a01b03166001600160a01b031681526020018381526020018281526020019650505050505050600060405180830381600087803b158015610df657600080fd5b505af1158015610e0a573d6000803e3d6000fd5b50506006546040805163ef693bed60e01b81523060048201526024810187905290516001600160a01b03909216935063ef693bed925060448082019260009290919082900301818387803b158015610e6157600080fd5b505af1158015610e75573d6000803e3d6000fd5b50505050505b6002546040805163a9059cbb60e01b81526001600160a01b038881166004830152602482018890529151919092169163a9059cbb9160448083019260209291908290030181600087803b158015610ed157600080fd5b505af1158015610ee5573d6000803e3d6000fd5b505050506040513d6020811015610efb57600080fd5b505161087d57600080fd5b610f0e6120af565b6000546001600160a01b03908116911614610f5e576040805162461bcd60e51b8152602060048201819052602482015260008051602061225e833981519152604482015290519081900360640190fd5b600080546040516001600160a01b03909116907f8be0079c531659141344cd1fd0a4f28419497f9722a3daafe3b4186f6b6457e0908390a3600080546001600160a01b0319169055565b610fb06120af565b6000546001600160a01b03908116911614611000576040805162461bcd60e51b8152602060048201819052602482015260008051602061225e833981519152604482015290519081900360640190fd5b6001600160a01b038116600081815260016020818152604092839020805460ff1916909217909155815192835290517f6a7c5f28ea564fafc8b079663a2a9b9d26fe735d97c97611484ce044f40a16e29281900390910190a150565b6040805180820182526018815260008051602061221d83398151915260208083019190915233600090815260019091529190912054819060ff166110e15760405162461bcd60e51b81526020600482018181528351602484015283519092839260449091019190850190808383600083156104ba5781810151838201526020016104a2565b50600954600160a01b900460ff16151560011461112f5760405162461bcd60e51b815260040180806020018281038252602581526020018061227e6025913960400191505060405180910390fd5b6008546001600160a01b03166376088703644554482d4160d81b3080806111558861204d565b604080516001600160e01b031960e089901b16815260048101969096526001600160a01b0394851660248701529284166044860152921660648401526000918203608484015260a483018290525160c48084019382900301818387803b1580156111be57600080fd5b505af11580156111d2573d6000803e3d6000fd5b50506007546040805163ef693bed60e01b81526001600160a01b03888116600483015260248201889052915191909216935063ef693bed9250604480830192600092919082900301818387803b15801561122b57600080fd5b505af115801561123f573d6000803e3d6000fd5b50505050505050565b6000546001600160a01b031690565b600954600160a01b900460ff1681565b6040805180820182526018815260008051602061221d83398151915260208083019190915233600090815260019091529190912054819060ff166112ec5760405162461bcd60e51b81526020600482018181528351602484015283519092839260449091019190850190808383600083156104ba5781810151838201526020016104a2565b50600954600160a01b900460ff16151560011461133a5760405162461bcd60e51b815260040180806020018281038252602581526020018061227e6025913960400191505060405180910390fd5b600554604080516323b872dd60e01b81526001600160a01b03868116600483015230602483015260448201869052915191909216916323b872dd9160648083019260209291908290030181600087803b15801561139657600080fd5b505af11580156113aa573d6000803e3d6000fd5b505050506040513d60208110156113c057600080fd5b50516113cb57600080fd5b60075460408051633b4da69f60e01b81523060048201526024810185905290516001600160a01b0390921691633b4da69f9160448082019260009290919082900301818387803b15801561141e57600080fd5b505af1158015611432573d6000803e3d6000fd5b50506008546001600160a01b0316915063760887039050644554482d4160d81b30808061145e8861204d565b604080516001600160e01b031960e089901b16815260048101969096526001600160a01b0394851660248701529284166044860152921660648401526084830191909152600060a48301819052905160c48084019382900301818387803b15801561122b57600080fd5b6b033b2e3c9fd0803ce800000081565b6040805180820182526018815260008051602061221d83398151915260208083019190915233600090815260019091529190912054819060ff1661155d5760405162461bcd60e51b81526020600482018181528351602484015283519092839260449091019190850190808383600083156104ba5781810151838201526020016104a2565b50600954600160a01b900460ff1615156001146115ab5760405162461bcd60e51b815260040180806020018281038252602581526020018061227e6025913960400191505060405180910390fd5b6000600460009054906101000a90046001600160a01b03166001600160a01b03166320aba08b6040518163ffffffff1660e01b8152600401602060405180830381600087803b1580156115fd57600080fd5b505af1158015611611573d6000803e3d6000fd5b505050506040513d602081101561162757600080fd5b505142116116a257600480546040805163324abb3160e21b815290516001600160a01b039092169263c92aecc4928282019260209290829003018186803b15801561167157600080fd5b505afa158015611685573d6000803e3d6000fd5b505050506040513d602081101561169b57600080fd5b5051611713565b6004805460408051634fb3c66560e11b815290516001600160a01b0390921692639f678cca9282820192602092908290030181600087803b1580156116e657600080fd5b505af11580156116fa573d6000803e3d6000fd5b505050506040513d602081101561171057600080fd5b50515b905060006117218483611fde565b9050600061173061065b6119f6565b9050808203801561196b5760085460408051636cb1c69b60e11b8152644554482d4160d81b600482015290516000926001600160a01b03169163d9638d369160248083019260a0929190829003018186803b15801561178e57600080fd5b505afa1580156117a2573d6000803e3d6000fd5b505050506040513d60a08110156117b857600080fd5b50602001516008549091506001600160a01b03166376088703644554482d4160d81b30808060006117ec6107f28a8a6120b3565b6040518763ffffffff1660e01b815260040180878152602001866001600160a01b03166001600160a01b03168152602001856001600160a01b03166001600160a01b03168152602001846001600160a01b03166001600160a01b031681526020018381526020018281526020019650505050505050600060405180830381600087803b15801561187b57600080fd5b505af115801561188f573d6000803e3d6000fd5b50506006546040805163ef693bed60e01b81523060048201526024810187905290516001600160a01b03909216935063ef693bed925060448082019260009290919082900301818387803b1580156118e657600080fd5b505af11580156118fa573d6000803e3d6000fd5b505060035460408051633b4da69f60e01b81523060048201526024810187905290516001600160a01b039092169350633b4da69f925060448082019260009290919082900301818387803b15801561195157600080fd5b505af1158015611965573d6000803e3d6000fd5b50505050505b6003546040805163a9059cbb60e01b81526001600160a01b038a81166004830152602482018a90529151919092169163a9059cbb9160448083019260209291908290030181600087803b1580156119c157600080fd5b505af11580156119d5573d6000803e3d6000fd5b505050506040513d60208110156119eb57600080fd5b505161123f57600080fd5b60035460408051633612d9a360e11b815230600482015290516000926001600160a01b031691636c25b34691602480830192602092919082900301818787803b158015611a4257600080fd5b505af1158015611a56573d6000803e3d6000fd5b505050506040513d6020811015611a6c57600080fd5b5051905090565b611a7b6120af565b6000546001600160a01b03908116911614611acb576040805162461bcd60e51b8152602060048201819052602482015260008051602061225e833981519152604482015290519081900360640190fd5b6001600160a01b038116611b105760405162461bcd60e51b81526004018080602001828103825260268152602001806121f76026913960400191505060405180910390fd5b600080546040516001600160a01b03808516939216917f8be0079c531659141344cd1fd0a4f28419497f9722a3daafe3b4186f6b6457e091a3600080546001600160a01b0319166001600160a01b0392909216919091179055565b6040805180820182526018815260008051602061221d83398151915260208083019190915233600090815260019091529190912054819060ff16611bf05760405162461bcd60e51b81526020600482018181528351602484015283519092839260449091019190850190808383600083156104ba5781810151838201526020016104a2565b50600954600160a01b900460ff161515600114611c3e5760405162461bcd60e51b815260040180806020018281038252602581526020018061227e6025913960400191505060405180910390fd5b600254604080516323b872dd60e01b81526001600160a01b03868116600483015230602483015260448201869052915191909216916323b872dd9160648083019260209291908290030181600087803b158015611c9a57600080fd5b505af1158015611cae573d6000803e3d6000fd5b505050506040513d6020811015611cc457600080fd5b5051611ccf57600080fd5b6000611cdc610c3361030e565b90508015611e885760065460408051633b4da69f60e01b81523060048201526024810184905290516001600160a01b0390921691633b4da69f9160448082019260009290919082900301818387803b158015611d3757600080fd5b505af1158015611d4b573d6000803e3d6000fd5b505060085460408051636cb1c69b60e11b8152644554482d4160d81b60048201529051600094506001600160a01b03909216925063d9638d369160248083019260a0929190829003018186803b158015611da457600080fd5b505afa158015611db8573d6000803e3d6000fd5b505050506040513d60a0811015611dce57600080fd5b50602001516008549091506001600160a01b03166376088703644554482d4160d81b3080806000611e026107f28a8a61202b565b604080516001600160e01b031960e08a901b16815260048101979097526001600160a01b03958616602488015293851660448701529190931660648501526084840192909252600091820360a48401525160c48084019382900301818387803b158015611e6e57600080fd5b505af1158015611e82573d6000803e3d6000fd5b50505050505b808303801561087d5760035460408051633b4da69f60e01b81523060048201526024810184905290516001600160a01b0390921691633b4da69f9160448082019260009290919082900301818387803b158015611ee457600080fd5b505af1158015611ef8573d6000803e3d6000fd5b505050505050505050565b600860009054906101000a90046001600160a01b03166001600160a01b031663957aa58c6040518163ffffffff1660e01b815260040160206040518083038186803b158015611f5157600080fd5b505afa158015611f65573d6000803e3d6000fd5b505050506040513d6020811015611f7b57600080fd5b505115611fcf576040805162461bcd60e51b815260206004820152601a60248201527f54726561737572793a204d616b657244414f206973206c697665000000000000604482015290519081900360640190fd5b6009805460ff60a01b19169055565b600061200c6b033b2e3c9fd0803ce8000000612000858563ffffffff6120fb16565b9063ffffffff61215416565b90505b92915050565b6000818310612024578161200c565b5090919050565b600061200c82612000856b033b2e3c9fd0803ce800000063ffffffff6120fb16565b60006001600160ff1b038211156120ab576040805162461bcd60e51b815260206004820152601760248201527f54726561737572793a2043617374206f766572666c6f77000000000000000000604482015290519081900360640190fd5b5090565b3390565b6000806120d683612000866b204fce5e3e2502611000000063ffffffff6120fb16565b9050600a8106156120f057600a810460010191505061200f565b600a9004905061200f565b60008261210a5750600061200f565b8282028284828161211757fe5b041461200c5760405162461bcd60e51b815260040180806020018281038252602181526020018061223d6021913960400191505060405180910390fd5b600061200c83836040518060400160405280601a81526020017f536166654d6174683a206469766973696f6e206279207a65726f000000000000815250600081836121e05760405162461bcd60e51b81526020600482018181528351602484015283519092839260449091019190850190808383600083156104ba5781810151838201526020016104a2565b5060008385816121ec57fe5b049594505050505056fe4f776e61626c653a206e6577206f776e657220697320746865207a65726f206164647265737354726561737572793a204e6f7420417574686f72697a65640000000000000000536166654d6174683a206d756c7469706c69636174696f6e206f766572666c6f774f776e61626c653a2063616c6c6572206973206e6f7420746865206f776e657254726561737572793a204e6f7420617661696c61626c6520647572696e6720756e77696e64a264697066735822122002ea9e37122dfc0b37b3dea80b750a39eefaf235fc7e2875fe1ef7259f7313a864736f6c634300060a0033",
  "source": "// SPDX-License-Identifier: GPL-3.0-or-later\npragma solidity ^0.6.10;\n\nimport \"@openzeppelin/contracts/math/Math.sol\";\nimport \"@openzeppelin/contracts/token/ERC20/IERC20.sol\";\nimport \"./interfaces/IVat.sol\";\nimport \"./interfaces/IDaiJoin.sol\";\nimport \"./interfaces/IGemJoin.sol\";\nimport \"./interfaces/IPot.sol\";\nimport \"./interfaces/IChai.sol\";\nimport \"./interfaces/ITreasury.sol\";\nimport \"./helpers/DecimalMath.sol\";\nimport \"./helpers/Orchestrated.sol\";\n// import \"@nomiclabs/buidler/console.sol\";\n\n\n/**\n * @dev Treasury manages asset transfers between all contracts in the Yield Protocol and other external contracts such as Chai and MakerDAO.\n * Treasury doesn't have any transactional functions available for regular users.\n * All transactional methods are to be available only for orchestrated contracts.\n * Treasury will ensure that all Weth is always stored as collateral in MAkerDAO.\n * Treasury will use all Dai to pay off system debt in MakerDAO first, and if there is no system debt the surplus Dai will be wrapped as Chai.\n * Treasury will use any Chai it holds when requested to provide Dai. If there isn't enough Chai, it will borrow Dai from MakerDAO.\n */\ncontract Treasury is ITreasury, Orchestrated(), DecimalMath {\n    bytes32 constant WETH = \"ETH-A\";\n\n    IERC20 internal _dai;\n    IChai internal _chai;\n    IPot internal _pot;\n    IERC20 internal _weth;\n    IDaiJoin internal _daiJoin;\n    IGemJoin internal _wethJoin;\n    IVat internal _vat;\n    address internal _unwind;\n\n    bool public override live = true;\n\n    constructor (\n        address vat_,\n        address weth_,\n        address dai_,\n        address wethJoin_,\n        address daiJoin_,\n        address pot_,\n        address chai_\n    ) public {\n        // These could be hardcoded for mainnet deployment.\n        _dai = IERC20(dai_);\n        _chai = IChai(chai_);\n        _pot = IPot(pot_);\n        _weth = IERC20(weth_);\n        _daiJoin = IDaiJoin(daiJoin_);\n        _wethJoin = IGemJoin(wethJoin_);\n        _vat = IVat(vat_);\n        _vat.hope(wethJoin_);\n        _vat.hope(daiJoin_);\n\n        _dai.approve(address(_chai), uint256(-1));      // Chai will never cheat on us\n        _weth.approve(address(_wethJoin), uint256(-1)); // WethJoin will never cheat on us\n    }\n\n    modifier onlyLive() {\n        require(live == true, \"Treasury: Not available during unwind\");\n        _;\n    }\n\n    /// @dev Safe casting from uint256 to int256\n    function toInt(uint256 x) internal pure returns(int256) {\n        require(\n            x <= 57896044618658097711785492504343953926634992332820282019728792003956564819967,\n            \"Treasury: Cast overflow\"\n        );\n        return int256(x);\n    }\n\n    /// @dev Disables pulling and pushing. Can only be called if MakerDAO shuts down.\n    function shutdown() public override {\n        require(\n            _vat.live() == 0,\n            \"Treasury: MakerDAO is live\"\n        );\n        live = false;\n    }\n\n    /// @dev Returns the Treasury debt towards MakerDAO, as the dai borrowed times the stability fee for Weth.\n    /// We have borrowed (rate * art)\n    /// Borrowing Limit (rate * art) <= (ink * spot)\n    function debt() public view override returns(uint256) {\n        (, uint256 rate,,,) = _vat.ilks(WETH);            // Retrieve the MakerDAO stability fee for Weth\n        (, uint256 art) = _vat.urns(WETH, address(this)); // Retrieve the Treasury debt in MakerDAO\n        return muld(art, rate);\n    }\n\n    /// @dev Returns the Treasury borrowing capacity from MakerDAO, as the collateral posted times the collateralization ratio for Weth.\n    /// We can borrow (ink * spot)\n    function power() public view returns(uint256) {\n        (,, uint256 spot,,) = _vat.ilks(WETH);            // Collateralization ratio for Weth\n        (uint256 ink,) = _vat.urns(WETH, address(this));  // Treasury Weth collateral in MakerDAO\n        return muld(ink, spot);\n    }\n\n    /// @dev Returns the amount of Dai in this contract.\n    function savings() public override returns(uint256){\n        return _chai.dai(address(this));\n    }\n\n    /// @dev Takes dai from user and pays as much system debt as possible, saving the rest as chai.\n    function pushDai(address from, uint256 amount) public override onlyOrchestrated(\"Treasury: Not Authorized\") onlyLive  {\n        require(_dai.transferFrom(from, address(this), amount));  // Take dai from user to Treasury\n\n        uint256 toRepay = Math.min(debt(), amount);\n        if (toRepay > 0) {\n            _daiJoin.join(address(this), toRepay);\n            // Remove debt from vault using frob\n            (, uint256 rate,,,) = _vat.ilks(WETH); // Retrieve the MakerDAO stability fee\n            _vat.frob(\n                WETH,\n                address(this),\n                address(this),\n                address(this),\n                0,                           // Weth collateral to add\n                -toInt(divd(toRepay, rate))  // Dai debt to remove\n            );\n        }\n\n        uint256 toSave = amount - toRepay;         // toRepay can't be greater than dai\n        if (toSave > 0) {\n            _chai.join(address(this), toSave);    // Give dai to Chai, take chai back\n        }\n    }\n\n    /// @dev Takes chai from user and pays as much system debt as possible, saving the rest as chai.\n    function pushChai(address from, uint256 amount) public override onlyOrchestrated(\"Treasury: Not Authorized\") onlyLive  {\n        require(_chai.transferFrom(from, address(this), amount));\n        uint256 dai = _chai.dai(address(this));\n\n        uint256 toRepay = Math.min(debt(), dai);\n        if (toRepay > 0) {\n            _chai.draw(address(this), toRepay);     // Grab dai from Chai, converted from chai\n            _daiJoin.join(address(this), toRepay);\n            // Remove debt from vault using frob\n            (, uint256 rate,,,) = _vat.ilks(WETH); // Retrieve the MakerDAO stability fee\n            _vat.frob(\n                WETH,\n                address(this),\n                address(this),\n                address(this),\n                0,                           // Weth collateral to add\n                -toInt(divd(toRepay, rate))  // Dai debt to remove\n            );\n        }\n        // Anything that is left from repaying, is chai savings\n    }\n\n    /// @dev Takes Weth collateral from user into the system Maker vault\n    function pushWeth(address from, uint256 amount) public override onlyOrchestrated(\"Treasury: Not Authorized\") onlyLive  {\n        require(_weth.transferFrom(from, address(this), amount));\n\n        _wethJoin.join(address(this), amount); // GemJoin reverts if anything goes wrong.\n        // All added collateral should be locked into the vault using frob\n        _vat.frob(\n            WETH,\n            address(this),\n            address(this),\n            address(this),\n            toInt(amount), // Collateral to add - WAD\n            0 // Normalized Dai to receive - WAD\n        );\n    }\n\n    /// @dev Returns dai using chai savings as much as possible, and borrowing the rest.\n    function pullDai(address to, uint256 dai) public override onlyOrchestrated(\"Treasury: Not Authorized\") onlyLive  {\n        uint256 toRelease = Math.min(savings(), dai);\n        if (toRelease > 0) {\n            _chai.draw(address(this), toRelease);     // Grab dai from Chai, converted from chai\n        }\n\n        uint256 toBorrow = dai - toRelease;    // toRelease can't be greater than dai\n        if (toBorrow > 0) {\n            (, uint256 rate,,,) = _vat.ilks(WETH); // Retrieve the MakerDAO stability fee\n            // Increase the dai debt by the dai to receive divided by the stability fee\n            _vat.frob(\n                WETH,\n                address(this),\n                address(this),\n                address(this),\n                0,\n                toInt(divdrup(toBorrow, rate))      // We need to round up, otherwise we won't exit toBorrow\n            ); // `vat.frob` reverts on failure\n            _daiJoin.exit(address(this), toBorrow); // `daiJoin` reverts on failures\n        }\n\n        require(_dai.transfer(to, dai));                            // Give dai to user\n    }\n\n    /// @dev Returns chai using chai savings as much as possible, and borrowing the rest.\n    function pullChai(address to, uint256 chai) public override onlyOrchestrated(\"Treasury: Not Authorized\") onlyLive  {\n        uint256 chi = (now > _pot.rho()) ? _pot.drip() : _pot.chi();\n        uint256 dai = muld(chai, chi);   // dai = price * chai\n        uint256 toRelease = Math.min(savings(), dai);\n        // As much chai as the Treasury has, can be used, we borrwo dai and convert it to chai for the rest\n\n        uint256 toBorrow = dai - toRelease;    // toRelease can't be greater than dai\n        if (toBorrow > 0) {\n            (, uint256 rate,,,) = _vat.ilks(WETH); // Retrieve the MakerDAO stability fee\n            // Increase the dai debt by the dai to receive divided by the stability fee\n            _vat.frob(\n                WETH,\n                address(this),\n                address(this),\n                address(this),\n                0,\n                toInt(divdrup(toBorrow, rate))       // We need to round up, otherwise we won't exit toBorrow\n            ); // `vat.frob` reverts on failure\n            _daiJoin.exit(address(this), toBorrow);  // `daiJoin` reverts on failures\n            _chai.join(address(this), toBorrow);     // Grab chai from Chai, converted from dai\n        }\n\n        require(_chai.transfer(to, chai));                            // Give dai to user\n    }\n\n    /// @dev Moves Weth collateral from Treasury controlled Maker Eth vault to `to` address.\n    function pullWeth(address to, uint256 weth) public override onlyOrchestrated(\"Treasury: Not Authorized\") onlyLive  {\n        // Remove collateral from vault using frob\n        _vat.frob(\n            WETH,\n            address(this),\n            address(this),\n            address(this),\n            -toInt(weth), // Weth collateral to remove - WAD\n            0              // Dai debt to add - WAD\n        );\n        _wethJoin.exit(to, weth); // `GemJoin` reverts on failures\n    }\n\n    /// @dev Registers the one contract that will take assets from the Treasury if MakerDAO shuts down.\n    function registerUnwind(address unwind_) public onlyOwner {\n        require(\n            _unwind == address(0),\n            \"Treasury: Unwind already set\"\n        );\n        _unwind = unwind_;\n        _chai.approve(address(_unwind), uint256(-1)); // Unwind will never cheat on us\n        _vat.hope(address(_unwind));                  // Unwind will never cheat on us\n    }\n}",
  "sourcePath": "/Users/bruce/dev/yieldprotocol/ytoken-mvp/contracts/Treasury.sol",
  "compiler": {
    "name": "solc",
    "version": "0.6.10+commit.00c0fcaf.Emscripten.clang"
  },
  "schemaVersion": "3.0.23",
  "updatedAt": "2020-07-23T14:16:09.866Z",
  "networkType": "ethereum",
  "devdoc": {
    "details": "Treasury manages asset transfers between all contracts in the Yield Protocol and other external contracts such as Chai and MakerDAO. Treasury doesn't have any transactional functions available for regular users. All transactional methods are to be available only for orchestrated contracts. Treasury will ensure that all Weth is always stored as collateral in MAkerDAO. Treasury will use all Dai to pay off system debt in MakerDAO first, and if there is no system debt the surplus Dai will be wrapped as Chai. Treasury will use any Chai it holds when requested to provide Dai. If there isn't enough Chai, it will borrow Dai from MakerDAO.",
    "methods": {
      "debt()": {
        "details": "Returns the Treasury debt towards MakerDAO, as the dai borrowed times the stability fee for Weth. We have borrowed (rate * art) Borrowing Limit (rate * art) <= (ink * spot)"
      },
      "orchestrate(address)": {
        "details": "Add user to the authorized users list"
      },
      "owner()": {
        "details": "Returns the address of the current owner."
      },
      "power()": {
        "details": "Returns the Treasury borrowing capacity from MakerDAO, as the collateral posted times the collateralization ratio for Weth. We can borrow (ink * spot)"
      },
      "pullChai(address,uint256)": {
        "details": "Returns chai using chai savings as much as possible, and borrowing the rest."
      },
      "pullDai(address,uint256)": {
        "details": "Returns dai using chai savings as much as possible, and borrowing the rest."
      },
      "pullWeth(address,uint256)": {
        "details": "Moves Weth collateral from Treasury controlled Maker Eth vault to `to` address."
      },
      "pushChai(address,uint256)": {
        "details": "Takes chai from user and pays as much system debt as possible, saving the rest as chai."
      },
      "pushDai(address,uint256)": {
        "details": "Takes dai from user and pays as much system debt as possible, saving the rest as chai."
      },
      "pushWeth(address,uint256)": {
        "details": "Takes Weth collateral from user into the system Maker vault"
      },
      "registerUnwind(address)": {
        "details": "Registers the one contract that will take assets from the Treasury if MakerDAO shuts down."
      },
      "renounceOwnership()": {
        "details": "Leaves the contract without owner. It will not be possible to call `onlyOwner` functions anymore. Can only be called by the current owner. NOTE: Renouncing ownership will leave the contract without an owner, thereby removing any functionality that is only available to the owner."
      },
      "savings()": {
        "details": "Returns the amount of Dai in this contract."
      },
      "shutdown()": {
        "details": "Disables pulling and pushing. Can only be called if MakerDAO shuts down."
      },
      "transferOwnership(address)": {
        "details": "Transfers ownership of the contract to a new account (`newOwner`). Can only be called by the current owner."
      }
    }
  },
  "userdoc": {
    "methods": {}
  }
}