{
  "contractName": "Treasury",
  "abi": [
    {
      "inputs": [
        {
          "internalType": "address",
          "name": "dai_",
          "type": "address"
        },
        {
          "internalType": "address",
          "name": "chai_",
          "type": "address"
        },
        {
          "internalType": "address",
          "name": "chaiOracle_",
          "type": "address"
        },
        {
          "internalType": "address",
          "name": "weth_",
          "type": "address"
        },
        {
          "internalType": "address",
          "name": "daiJoin_",
          "type": "address"
        },
        {
          "internalType": "address",
          "name": "wethJoin_",
          "type": "address"
        },
        {
          "internalType": "address",
          "name": "vat_",
          "type": "address"
        }
      ],
      "stateMutability": "nonpayable",
      "type": "constructor"
    },
    {
      "anonymous": false,
      "inputs": [
        {
          "indexed": false,
          "internalType": "address",
          "name": "access",
          "type": "address"
        }
      ],
      "name": "GrantedAccess",
      "type": "event"
    },
    {
      "anonymous": false,
      "inputs": [
        {
          "indexed": true,
          "internalType": "address",
          "name": "previousOwner",
          "type": "address"
        },
        {
          "indexed": true,
          "internalType": "address",
          "name": "newOwner",
          "type": "address"
        }
      ],
      "name": "OwnershipTransferred",
      "type": "event"
    },
    {
      "inputs": [],
      "name": "CHAI",
      "outputs": [
        {
          "internalType": "bytes32",
          "name": "",
          "type": "bytes32"
        }
      ],
      "stateMutability": "view",
      "type": "function",
      "constant": true
    },
    {
      "inputs": [],
      "name": "RAD",
      "outputs": [
        {
          "internalType": "uint8",
          "name": "",
          "type": "uint8"
        }
      ],
      "stateMutability": "view",
      "type": "function",
      "constant": true
    },
    {
      "inputs": [],
      "name": "RAY",
      "outputs": [
        {
          "internalType": "uint8",
          "name": "",
          "type": "uint8"
        }
      ],
      "stateMutability": "view",
      "type": "function",
      "constant": true
    },
    {
      "inputs": [],
      "name": "WAD",
      "outputs": [
        {
          "internalType": "uint8",
          "name": "",
          "type": "uint8"
        }
      ],
      "stateMutability": "view",
      "type": "function",
      "constant": true
    },
    {
      "inputs": [],
      "name": "WETH",
      "outputs": [
        {
          "internalType": "bytes32",
          "name": "",
          "type": "bytes32"
        }
      ],
      "stateMutability": "view",
      "type": "function",
      "constant": true
    },
    {
      "inputs": [],
      "name": "live",
      "outputs": [
        {
          "internalType": "bool",
          "name": "",
          "type": "bool"
        }
      ],
      "stateMutability": "view",
      "type": "function",
      "constant": true
    },
    {
      "inputs": [
        {
          "internalType": "address",
          "name": "user",
          "type": "address"
        }
      ],
      "name": "orchestrate",
      "outputs": [],
      "stateMutability": "nonpayable",
      "type": "function"
    },
    {
      "inputs": [],
      "name": "owner",
      "outputs": [
        {
          "internalType": "address",
          "name": "",
          "type": "address"
        }
      ],
      "stateMutability": "view",
      "type": "function",
      "constant": true
    },
    {
      "inputs": [],
      "name": "renounceOwnership",
      "outputs": [],
      "stateMutability": "nonpayable",
      "type": "function"
    },
    {
      "inputs": [
        {
          "internalType": "address",
          "name": "newOwner",
          "type": "address"
        }
      ],
      "name": "transferOwnership",
      "outputs": [],
      "stateMutability": "nonpayable",
      "type": "function"
    },
    {
      "inputs": [],
      "name": "shutdown",
      "outputs": [],
      "stateMutability": "nonpayable",
      "type": "function"
    },
    {
      "inputs": [],
      "name": "debt",
      "outputs": [
        {
          "internalType": "uint256",
          "name": "",
          "type": "uint256"
        }
      ],
      "stateMutability": "view",
      "type": "function",
      "constant": true
    },
    {
      "inputs": [],
      "name": "power",
      "outputs": [
        {
          "internalType": "uint256",
          "name": "",
          "type": "uint256"
        }
      ],
      "stateMutability": "view",
      "type": "function",
      "constant": true
    },
    {
      "inputs": [],
      "name": "savings",
      "outputs": [
        {
          "internalType": "uint256",
          "name": "",
          "type": "uint256"
        }
      ],
      "stateMutability": "nonpayable",
      "type": "function"
    },
    {
      "inputs": [],
      "name": "pushDai",
      "outputs": [],
      "stateMutability": "nonpayable",
      "type": "function"
    },
    {
      "inputs": [],
      "name": "pushChai",
      "outputs": [],
      "stateMutability": "nonpayable",
      "type": "function"
    },
    {
      "inputs": [
        {
          "internalType": "address",
          "name": "to",
          "type": "address"
        },
        {
          "internalType": "uint256",
          "name": "dai",
          "type": "uint256"
        }
      ],
      "name": "pullDai",
      "outputs": [],
      "stateMutability": "nonpayable",
      "type": "function"
    },
    {
      "inputs": [
        {
          "internalType": "address",
          "name": "to",
          "type": "address"
        },
        {
          "internalType": "uint256",
          "name": "chai",
          "type": "uint256"
        }
      ],
      "name": "pullChai",
      "outputs": [],
      "stateMutability": "nonpayable",
      "type": "function"
    },
    {
      "inputs": [],
      "name": "pushWeth",
      "outputs": [],
      "stateMutability": "nonpayable",
      "type": "function"
    },
    {
      "inputs": [
        {
          "internalType": "address",
          "name": "to",
          "type": "address"
        },
        {
          "internalType": "uint256",
          "name": "weth",
          "type": "uint256"
        }
      ],
      "name": "pullWeth",
      "outputs": [],
      "stateMutability": "nonpayable",
      "type": "function"
    },
    {
      "inputs": [
        {
          "internalType": "address",
          "name": "unwind_",
          "type": "address"
        }
      ],
      "name": "registerUnwind",
      "outputs": [],
      "stateMutability": "nonpayable",
      "type": "function"
    }
  ],
  "bytecode": "0x60806040526001600960146101000a81548160ff0219169083151502179055503480156200002c57600080fd5b506040516200440238038062004402833981810160405260e08110156200005257600080fd5b81019080805190602001909291908051906020019092919080519060200190929190805190602001909291908051906020019092919080519060200190929190805190602001909291905050506000620000b1620006ed60201b60201c565b9050806000806101000a81548173ffffffffffffffffffffffffffffffffffffffff021916908373ffffffffffffffffffffffffffffffffffffffff1602179055508073ffffffffffffffffffffffffffffffffffffffff16600073ffffffffffffffffffffffffffffffffffffffff167f8be0079c531659141344cd1fd0a4f28419497f9722a3daafe3b4186f6b6457e060405160405180910390a35086600260006101000a81548173ffffffffffffffffffffffffffffffffffffffff021916908373ffffffffffffffffffffffffffffffffffffffff16021790555085600360006101000a81548173ffffffffffffffffffffffffffffffffffffffff021916908373ffffffffffffffffffffffffffffffffffffffff16021790555084600460006101000a81548173ffffffffffffffffffffffffffffffffffffffff021916908373ffffffffffffffffffffffffffffffffffffffff16021790555083600560006101000a81548173ffffffffffffffffffffffffffffffffffffffff021916908373ffffffffffffffffffffffffffffffffffffffff16021790555082600660006101000a81548173ffffffffffffffffffffffffffffffffffffffff021916908373ffffffffffffffffffffffffffffffffffffffff16021790555081600760006101000a81548173ffffffffffffffffffffffffffffffffffffffff021916908373ffffffffffffffffffffffffffffffffffffffff16021790555080600860006101000a81548173ffffffffffffffffffffffffffffffffffffffff021916908373ffffffffffffffffffffffffffffffffffffffff160217905550600860009054906101000a900473ffffffffffffffffffffffffffffffffffffffff1673ffffffffffffffffffffffffffffffffffffffff1663a3b22fc4836040518263ffffffff1660e01b8152600401808273ffffffffffffffffffffffffffffffffffffffff1673ffffffffffffffffffffffffffffffffffffffff168152602001915050600060405180830381600087803b158015620003b857600080fd5b505af1158015620003cd573d6000803e3d6000fd5b50505050600860009054906101000a900473ffffffffffffffffffffffffffffffffffffffff1673ffffffffffffffffffffffffffffffffffffffff1663a3b22fc4846040518263ffffffff1660e01b8152600401808273ffffffffffffffffffffffffffffffffffffffff1673ffffffffffffffffffffffffffffffffffffffff168152602001915050600060405180830381600087803b1580156200047357600080fd5b505af115801562000488573d6000803e3d6000fd5b50505050600260009054906101000a900473ffffffffffffffffffffffffffffffffffffffff1673ffffffffffffffffffffffffffffffffffffffff1663095ea7b3600360009054906101000a900473ffffffffffffffffffffffffffffffffffffffff167fffffffffffffffffffffffffffffffffffffffffffffffffffffffffffffffff6040518363ffffffff1660e01b8152600401808373ffffffffffffffffffffffffffffffffffffffff1673ffffffffffffffffffffffffffffffffffffffff16815260200182815260200192505050602060405180830381600087803b1580156200057857600080fd5b505af11580156200058d573d6000803e3d6000fd5b505050506040513d6020811015620005a457600080fd5b810190808051906020019092919050505050600560009054906101000a900473ffffffffffffffffffffffffffffffffffffffff1673ffffffffffffffffffffffffffffffffffffffff1663095ea7b3600760009054906101000a900473ffffffffffffffffffffffffffffffffffffffff167fffffffffffffffffffffffffffffffffffffffffffffffffffffffffffffffff6040518363ffffffff1660e01b8152600401808373ffffffffffffffffffffffffffffffffffffffff1673ffffffffffffffffffffffffffffffffffffffff16815260200182815260200192505050602060405180830381600087803b158015620006a257600080fd5b505af1158015620006b7573d6000803e3d6000fd5b505050506040513d6020811015620006ce57600080fd5b81019080805190602001909291905050505050505050505050620006f5565b600033905090565b613cfd80620007056000396000f3fe608060405234801561001057600080fd5b50600436106101375760003560e01c806380f5a440116100b8578063ad5c46481161007c578063ad5c4648146103e0578063adb987e3146103fe578063b6dbf9ce14610408578063c86d6ae414610426578063f2fde38b14610444578063fc0e74d11461048857610137565b806380f5a440146102945780638ac96dfc146102d85780638da5cb5b14610326578063957aa58c146103705780639fa836891461039257610137565b806355027703116100ff57806355027703146101ea578063552033c414610238578063653b8e811461025c5780636a14602414610266578063715018a61461028a57610137565b806306f405fd1461013c5780630b6500ee146101605780630dca59c11461016a5780631e2043b1146101885780634a4d59fa146101cc575b600080fd5b610144610492565b604051808260ff1660ff16815260200191505060405180910390f35b610168610497565b005b610172610933565b6040518082815260200191505060405180910390f35b6101ca6004803603602081101561019e57600080fd5b81019080803573ffffffffffffffffffffffffffffffffffffffff169060200190929190505050610b5f565b005b6101d4610f32565b6040518082815260200191505060405180910390f35b6102366004803603604081101561020057600080fd5b81019080803573ffffffffffffffffffffffffffffffffffffffff1690602001909291908035906020019092919050505061115e565b005b61024061187a565b604051808260ff1660ff16815260200191505060405180910390f35b61026461187f565b005b61026e611f15565b604051808260ff1660ff16815260200191505060405180910390f35b610292611f1a565b005b6102d6600480360360208110156102aa57600080fd5b81019080803573ffffffffffffffffffffffffffffffffffffffff1690602001909291905050506120a2565b005b610324600480360360408110156102ee57600080fd5b81019080803573ffffffffffffffffffffffffffffffffffffffff16906020019092919080359060200190929190505050612228565b005b61032e6125ea565b604051808273ffffffffffffffffffffffffffffffffffffffff1673ffffffffffffffffffffffffffffffffffffffff16815260200191505060405180910390f35b610378612613565b604051808215151515815260200191505060405180910390f35b6103de600480360360408110156103a857600080fd5b81019080803573ffffffffffffffffffffffffffffffffffffffff16906020019092919080359060200190929190505050612626565b005b6103e8612df7565b6040518082815260200191505060405180910390f35b610406612e1b565b005b6104106134c1565b6040518082815260200191505060405180910390f35b61042e6134e5565b6040518082815260200191505060405180910390f35b6104866004803603602081101561045a57600080fd5b81019080803573ffffffffffffffffffffffffffffffffffffffff1690602001909291905050506135c8565b005b6104906137d5565b005b602d81565b6040518060400160405280601881526020017f54726561737572793a204e6f7420417574686f72697a65640000000000000000815250600160003373ffffffffffffffffffffffffffffffffffffffff1673ffffffffffffffffffffffffffffffffffffffff16815260200190815260200160002060009054906101000a900460ff1681906105c1576040517f08c379a00000000000000000000000000000000000000000000000000000000081526004018080602001828103825283818151815260200191508051906020019080838360005b8381101561058657808201518184015260208101905061056b565b50505050905090810190601f1680156105b35780820380516001836020036101000a031916815260200191505b509250505060405180910390fd5b5060011515600960149054906101000a900460ff1615151461062e576040517f08c379a0000000000000000000000000000000000000000000000000000000008152600401808060200182810382526025815260200180613ca36025913960400191505060405180910390fd5b6000600560009054906101000a900473ffffffffffffffffffffffffffffffffffffffff1673ffffffffffffffffffffffffffffffffffffffff166370a08231306040518263ffffffff1660e01b8152600401808273ffffffffffffffffffffffffffffffffffffffff1673ffffffffffffffffffffffffffffffffffffffff16815260200191505060206040518083038186803b1580156106cf57600080fd5b505afa1580156106e3573d6000803e3d6000fd5b505050506040513d60208110156106f957600080fd5b81019080805190602001909291905050509050600760009054906101000a900473ffffffffffffffffffffffffffffffffffffffff1673ffffffffffffffffffffffffffffffffffffffff16633b4da69f30836040518363ffffffff1660e01b8152600401808373ffffffffffffffffffffffffffffffffffffffff1673ffffffffffffffffffffffffffffffffffffffff16815260200182815260200192505050600060405180830381600087803b1580156107b557600080fd5b505af11580156107c9573d6000803e3d6000fd5b50505050600860009054906101000a900473ffffffffffffffffffffffffffffffffffffffff1673ffffffffffffffffffffffffffffffffffffffff1663760887037f4554482d410000000000000000000000000000000000000000000000000000003030306108388761390a565b60006040518763ffffffff1660e01b8152600401808781526020018673ffffffffffffffffffffffffffffffffffffffff1673ffffffffffffffffffffffffffffffffffffffff1681526020018573ffffffffffffffffffffffffffffffffffffffff1673ffffffffffffffffffffffffffffffffffffffff1681526020018473ffffffffffffffffffffffffffffffffffffffff1673ffffffffffffffffffffffffffffffffffffffff1681526020018381526020018281526020019650505050505050600060405180830381600087803b15801561091757600080fd5b505af115801561092b573d6000803e3d6000fd5b505050505050565b600080600860009054906101000a900473ffffffffffffffffffffffffffffffffffffffff1673ffffffffffffffffffffffffffffffffffffffff1663d9638d366040518163ffffffff1660e01b815260040180807f4554482d41000000000000000000000000000000000000000000000000000000815250602001905060a06040518083038186803b1580156109c957600080fd5b505afa1580156109dd573d6000803e3d6000fd5b505050506040513d60a08110156109f357600080fd5b8101908080519060200190929190805190602001909291908051906020019092919080519060200190929190805190602001909291905050505050509150506000600860009054906101000a900473ffffffffffffffffffffffffffffffffffffffff1673ffffffffffffffffffffffffffffffffffffffff16632424be5c306040518263ffffffff1660e01b815260040180807f4554482d410000000000000000000000000000000000000000000000000000008152506020018273ffffffffffffffffffffffffffffffffffffffff1673ffffffffffffffffffffffffffffffffffffffff168152602001915050604080518083038186803b158015610afa57600080fd5b505afa158015610b0e573d6000803e3d6000fd5b505050506040513d6040811015610b2457600080fd5b810190808051906020019092919080519060200190929190505050915050610b5882601b836139aa9092919063ffffffff16565b9250505090565b610b676139e2565b73ffffffffffffffffffffffffffffffffffffffff166000809054906101000a900473ffffffffffffffffffffffffffffffffffffffff1673ffffffffffffffffffffffffffffffffffffffff1614610c28576040517f08c379a00000000000000000000000000000000000000000000000000000000081526004018080602001828103825260208152602001807f4f776e61626c653a2063616c6c6572206973206e6f7420746865206f776e657281525060200191505060405180910390fd5b600073ffffffffffffffffffffffffffffffffffffffff16600960009054906101000a900473ffffffffffffffffffffffffffffffffffffffff1673ffffffffffffffffffffffffffffffffffffffff1614610cec576040517f08c379a000000000000000000000000000000000000000000000000000000000815260040180806020018281038252601c8152602001807f54726561737572793a20556e77696e6420616c7265616479207365740000000081525060200191505060405180910390fd5b80600960006101000a81548173ffffffffffffffffffffffffffffffffffffffff021916908373ffffffffffffffffffffffffffffffffffffffff160217905550600360009054906101000a900473ffffffffffffffffffffffffffffffffffffffff1673ffffffffffffffffffffffffffffffffffffffff1663095ea7b3600960009054906101000a900473ffffffffffffffffffffffffffffffffffffffff167fffffffffffffffffffffffffffffffffffffffffffffffffffffffffffffffff6040518363ffffffff1660e01b8152600401808373ffffffffffffffffffffffffffffffffffffffff1673ffffffffffffffffffffffffffffffffffffffff16815260200182815260200192505050602060405180830381600087803b158015610e1857600080fd5b505af1158015610e2c573d6000803e3d6000fd5b505050506040513d6020811015610e4257600080fd5b810190808051906020019092919050505050600860009054906101000a900473ffffffffffffffffffffffffffffffffffffffff1673ffffffffffffffffffffffffffffffffffffffff1663a3b22fc4600960009054906101000a900473ffffffffffffffffffffffffffffffffffffffff166040518263ffffffff1660e01b8152600401808273ffffffffffffffffffffffffffffffffffffffff1673ffffffffffffffffffffffffffffffffffffffff168152602001915050600060405180830381600087803b158015610f1757600080fd5b505af1158015610f2b573d6000803e3d6000fd5b5050505050565b600080600860009054906101000a900473ffffffffffffffffffffffffffffffffffffffff1673ffffffffffffffffffffffffffffffffffffffff1663d9638d366040518163ffffffff1660e01b815260040180807f4554482d41000000000000000000000000000000000000000000000000000000815250602001905060a06040518083038186803b158015610fc857600080fd5b505afa158015610fdc573d6000803e3d6000fd5b505050506040513d60a0811015610ff257600080fd5b8101908080519060200190929190805190602001909291908051906020019092919080519060200190929190805190602001909291905050505050925050506000600860009054906101000a900473ffffffffffffffffffffffffffffffffffffffff1673ffffffffffffffffffffffffffffffffffffffff16632424be5c306040518263ffffffff1660e01b815260040180807f4554482d410000000000000000000000000000000000000000000000000000008152506020018273ffffffffffffffffffffffffffffffffffffffff1673ffffffffffffffffffffffffffffffffffffffff168152602001915050604080518083038186803b1580156110f957600080fd5b505afa15801561110d573d6000803e3d6000fd5b505050506040513d604081101561112357600080fd5b81019080805190602001909291908051906020019092919050505050905061115782601b836139aa9092919063ffffffff16565b9250505090565b6040518060400160405280601881526020017f54726561737572793a204e6f7420417574686f72697a65640000000000000000815250600160003373ffffffffffffffffffffffffffffffffffffffff1673ffffffffffffffffffffffffffffffffffffffff16815260200190815260200160002060009054906101000a900460ff168190611288576040517f08c379a00000000000000000000000000000000000000000000000000000000081526004018080602001828103825283818151815260200191508051906020019080838360005b8381101561124d578082015181840152602081019050611232565b50505050905090810190601f16801561127a5780820380516001836020036101000a031916815260200191505b509250505060405180910390fd5b5060011515600960149054906101000a900460ff161515146112f5576040517f08c379a0000000000000000000000000000000000000000000000000000000008152600401808060200182810382526025815260200180613ca36025913960400191505060405180910390fd5b60006113086113026134e5565b846139ea565b905060008111156113d557600360009054906101000a900473ffffffffffffffffffffffffffffffffffffffff1673ffffffffffffffffffffffffffffffffffffffff16634a03707c30836040518363ffffffff1660e01b8152600401808373ffffffffffffffffffffffffffffffffffffffff1673ffffffffffffffffffffffffffffffffffffffff16815260200182815260200192505050600060405180830381600087803b1580156113bc57600080fd5b505af11580156113d0573d6000803e3d6000fd5b505050505b60008184039050600081111561171d576000600860009054906101000a900473ffffffffffffffffffffffffffffffffffffffff1673ffffffffffffffffffffffffffffffffffffffff1663d9638d366040518163ffffffff1660e01b815260040180807f4554482d41000000000000000000000000000000000000000000000000000000815250602001905060a06040518083038186803b15801561147a57600080fd5b505afa15801561148e573d6000803e3d6000fd5b505050506040513d60a08110156114a457600080fd5b810190808051906020019092919080519060200190929190805190602001909291908051906020019092919080519060200190929190505050505050915050600860009054906101000a900473ffffffffffffffffffffffffffffffffffffffff1673ffffffffffffffffffffffffffffffffffffffff1663760887037f4554482d41000000000000000000000000000000000000000000000000000000303030600061156561156089601b8c613a039092919063ffffffff16565b61390a565b6040518763ffffffff1660e01b8152600401808781526020018673ffffffffffffffffffffffffffffffffffffffff1673ffffffffffffffffffffffffffffffffffffffff1681526020018573ffffffffffffffffffffffffffffffffffffffff1673ffffffffffffffffffffffffffffffffffffffff1681526020018473ffffffffffffffffffffffffffffffffffffffff1673ffffffffffffffffffffffffffffffffffffffff1681526020018381526020018281526020019650505050505050600060405180830381600087803b15801561164257600080fd5b505af1158015611656573d6000803e3d6000fd5b50505050600660009054906101000a900473ffffffffffffffffffffffffffffffffffffffff1673ffffffffffffffffffffffffffffffffffffffff1663ef693bed30846040518363ffffffff1660e01b8152600401808373ffffffffffffffffffffffffffffffffffffffff1673ffffffffffffffffffffffffffffffffffffffff16815260200182815260200192505050600060405180830381600087803b15801561170357600080fd5b505af1158015611717573d6000803e3d6000fd5b50505050505b600260009054906101000a900473ffffffffffffffffffffffffffffffffffffffff1673ffffffffffffffffffffffffffffffffffffffff1663a9059cbb86866040518363ffffffff1660e01b8152600401808373ffffffffffffffffffffffffffffffffffffffff1673ffffffffffffffffffffffffffffffffffffffff16815260200182815260200192505050602060405180830381600087803b1580156117c657600080fd5b505af11580156117da573d6000803e3d6000fd5b505050506040513d60208110156117f057600080fd5b8101908080519060200190929190505050611873576040517f08c379a000000000000000000000000000000000000000000000000000000000815260040180806020018281038252601b8152602001807f54726561737572793a20446169207472616e73666572206661696c000000000081525060200191505060405180910390fd5b5050505050565b601b81565b6040518060400160405280601881526020017f54726561737572793a204e6f7420417574686f72697a65640000000000000000815250600160003373ffffffffffffffffffffffffffffffffffffffff1673ffffffffffffffffffffffffffffffffffffffff16815260200190815260200160002060009054906101000a900460ff1681906119a9576040517f08c379a00000000000000000000000000000000000000000000000000000000081526004018080602001828103825283818151815260200191508051906020019080838360005b8381101561196e578082015181840152602081019050611953565b50505050905090810190601f16801561199b5780820380516001836020036101000a031916815260200191505b509250505060405180910390fd5b5060011515600960149054906101000a900460ff16151514611a16576040517f08c379a0000000000000000000000000000000000000000000000000000000008152600401808060200182810382526025815260200180613ca36025913960400191505060405180910390fd5b6000600360009054906101000a900473ffffffffffffffffffffffffffffffffffffffff1673ffffffffffffffffffffffffffffffffffffffff16636c25b346306040518263ffffffff1660e01b8152600401808273ffffffffffffffffffffffffffffffffffffffff1673ffffffffffffffffffffffffffffffffffffffff168152602001915050602060405180830381600087803b158015611ab957600080fd5b505af1158015611acd573d6000803e3d6000fd5b505050506040513d6020811015611ae357600080fd5b810190808051906020019092919050505090506000611b09611b03610933565b836139ea565b90506000811115611f1057600360009054906101000a900473ffffffffffffffffffffffffffffffffffffffff1673ffffffffffffffffffffffffffffffffffffffff16634a03707c30836040518363ffffffff1660e01b8152600401808373ffffffffffffffffffffffffffffffffffffffff1673ffffffffffffffffffffffffffffffffffffffff16815260200182815260200192505050600060405180830381600087803b158015611bbd57600080fd5b505af1158015611bd1573d6000803e3d6000fd5b50505050600660009054906101000a900473ffffffffffffffffffffffffffffffffffffffff1673ffffffffffffffffffffffffffffffffffffffff16633b4da69f30836040518363ffffffff1660e01b8152600401808373ffffffffffffffffffffffffffffffffffffffff1673ffffffffffffffffffffffffffffffffffffffff16815260200182815260200192505050600060405180830381600087803b158015611c7e57600080fd5b505af1158015611c92573d6000803e3d6000fd5b505050506000600860009054906101000a900473ffffffffffffffffffffffffffffffffffffffff1673ffffffffffffffffffffffffffffffffffffffff1663d9638d366040518163ffffffff1660e01b815260040180807f4554482d41000000000000000000000000000000000000000000000000000000815250602001905060a06040518083038186803b158015611d2b57600080fd5b505afa158015611d3f573d6000803e3d6000fd5b505050506040513d60a0811015611d5557600080fd5b810190808051906020019092919080519060200190929190805190602001909291908051906020019092919080519060200190929190505050505050915050600860009054906101000a900473ffffffffffffffffffffffffffffffffffffffff1673ffffffffffffffffffffffffffffffffffffffff1663760887037f4554482d410000000000000000000000000000000000000000000000000000003030306000611e16611e1189601b8c613a039092919063ffffffff16565b61390a565b6000036040518763ffffffff1660e01b8152600401808781526020018673ffffffffffffffffffffffffffffffffffffffff1673ffffffffffffffffffffffffffffffffffffffff1681526020018573ffffffffffffffffffffffffffffffffffffffff1673ffffffffffffffffffffffffffffffffffffffff1681526020018473ffffffffffffffffffffffffffffffffffffffff1673ffffffffffffffffffffffffffffffffffffffff1681526020018381526020018281526020019650505050505050600060405180830381600087803b158015611ef657600080fd5b505af1158015611f0a573d6000803e3d6000fd5b50505050505b505050565b601281565b611f226139e2565b73ffffffffffffffffffffffffffffffffffffffff166000809054906101000a900473ffffffffffffffffffffffffffffffffffffffff1673ffffffffffffffffffffffffffffffffffffffff1614611fe3576040517f08c379a00000000000000000000000000000000000000000000000000000000081526004018080602001828103825260208152602001807f4f776e61626c653a2063616c6c6572206973206e6f7420746865206f776e657281525060200191505060405180910390fd5b600073ffffffffffffffffffffffffffffffffffffffff166000809054906101000a900473ffffffffffffffffffffffffffffffffffffffff1673ffffffffffffffffffffffffffffffffffffffff167f8be0079c531659141344cd1fd0a4f28419497f9722a3daafe3b4186f6b6457e060405160405180910390a360008060006101000a81548173ffffffffffffffffffffffffffffffffffffffff021916908373ffffffffffffffffffffffffffffffffffffffff160217905550565b6120aa6139e2565b73ffffffffffffffffffffffffffffffffffffffff166000809054906101000a900473ffffffffffffffffffffffffffffffffffffffff1673ffffffffffffffffffffffffffffffffffffffff161461216b576040517f08c379a00000000000000000000000000000000000000000000000000000000081526004018080602001828103825260208152602001807f4f776e61626c653a2063616c6c6572206973206e6f7420746865206f776e657281525060200191505060405180910390fd5b60018060008373ffffffffffffffffffffffffffffffffffffffff1673ffffffffffffffffffffffffffffffffffffffff16815260200190815260200160002060006101000a81548160ff0219169083151502179055507f6a7c5f28ea564fafc8b079663a2a9b9d26fe735d97c97611484ce044f40a16e281604051808273ffffffffffffffffffffffffffffffffffffffff1673ffffffffffffffffffffffffffffffffffffffff16815260200191505060405180910390a150565b6040518060400160405280601881526020017f54726561737572793a204e6f7420417574686f72697a65640000000000000000815250600160003373ffffffffffffffffffffffffffffffffffffffff1673ffffffffffffffffffffffffffffffffffffffff16815260200190815260200160002060009054906101000a900460ff168190612352576040517f08c379a00000000000000000000000000000000000000000000000000000000081526004018080602001828103825283818151815260200191508051906020019080838360005b838110156123175780820151818401526020810190506122fc565b50505050905090810190601f1680156123445780820380516001836020036101000a031916815260200191505b509250505060405180910390fd5b5060011515600960149054906101000a900460ff161515146123bf576040517f08c379a0000000000000000000000000000000000000000000000000000000008152600401808060200182810382526025815260200180613ca36025913960400191505060405180910390fd5b600860009054906101000a900473ffffffffffffffffffffffffffffffffffffffff1673ffffffffffffffffffffffffffffffffffffffff1663760887037f4554482d4100000000000000000000000000000000000000000000000000000030303061242a8861390a565b60000360006040518763ffffffff1660e01b8152600401808781526020018673ffffffffffffffffffffffffffffffffffffffff1673ffffffffffffffffffffffffffffffffffffffff1681526020018573ffffffffffffffffffffffffffffffffffffffff1673ffffffffffffffffffffffffffffffffffffffff1681526020018473ffffffffffffffffffffffffffffffffffffffff1673ffffffffffffffffffffffffffffffffffffffff1681526020018381526020018281526020019650505050505050600060405180830381600087803b15801561250c57600080fd5b505af1158015612520573d6000803e3d6000fd5b50505050600760009054906101000a900473ffffffffffffffffffffffffffffffffffffffff1673ffffffffffffffffffffffffffffffffffffffff1663ef693bed84846040518363ffffffff1660e01b8152600401808373ffffffffffffffffffffffffffffffffffffffff1673ffffffffffffffffffffffffffffffffffffffff16815260200182815260200192505050600060405180830381600087803b1580156125cd57600080fd5b505af11580156125e1573d6000803e3d6000fd5b50505050505050565b60008060009054906101000a900473ffffffffffffffffffffffffffffffffffffffff16905090565b600960149054906101000a900460ff1681565b6040518060400160405280601881526020017f54726561737572793a204e6f7420417574686f72697a65640000000000000000815250600160003373ffffffffffffffffffffffffffffffffffffffff1673ffffffffffffffffffffffffffffffffffffffff16815260200190815260200160002060009054906101000a900460ff168190612750576040517f08c379a00000000000000000000000000000000000000000000000000000000081526004018080602001828103825283818151815260200191508051906020019080838360005b838110156127155780820151818401526020810190506126fa565b50505050905090810190601f1680156127425780820380516001836020036101000a031916815260200191505b509250505060405180910390fd5b5060011515600960149054906101000a900460ff161515146127bd576040517f08c379a0000000000000000000000000000000000000000000000000000000008152600401808060200182810382526025815260200180613ca36025913960400191505060405180910390fd5b6000612879600460009054906101000a900473ffffffffffffffffffffffffffffffffffffffff1673ffffffffffffffffffffffffffffffffffffffff1663a035b1fe6040518163ffffffff1660e01b8152600401602060405180830381600087803b15801561282c57600080fd5b505af1158015612840573d6000803e3d6000fd5b505050506040513d602081101561285657600080fd5b8101908080519060200190929190505050601b856139aa9092919063ffffffff16565b9050600061288e6128886134e5565b836139ea565b9050600081830390506000811115612c99576000600860009054906101000a900473ffffffffffffffffffffffffffffffffffffffff1673ffffffffffffffffffffffffffffffffffffffff1663d9638d366040518163ffffffff1660e01b815260040180807f4554482d41000000000000000000000000000000000000000000000000000000815250602001905060a06040518083038186803b15801561293557600080fd5b505afa158015612949573d6000803e3d6000fd5b505050506040513d60a081101561295f57600080fd5b810190808051906020019092919080519060200190929190805190602001909291908051906020019092919080519060200190929190505050505050915050600860009054906101000a900473ffffffffffffffffffffffffffffffffffffffff1673ffffffffffffffffffffffffffffffffffffffff1663760887037f4554482d410000000000000000000000000000000000000000000000000000003030306000612a20612a1b89601b8c613a039092919063ffffffff16565b61390a565b6040518763ffffffff1660e01b8152600401808781526020018673ffffffffffffffffffffffffffffffffffffffff1673ffffffffffffffffffffffffffffffffffffffff1681526020018573ffffffffffffffffffffffffffffffffffffffff1673ffffffffffffffffffffffffffffffffffffffff1681526020018473ffffffffffffffffffffffffffffffffffffffff1673ffffffffffffffffffffffffffffffffffffffff1681526020018381526020018281526020019650505050505050600060405180830381600087803b158015612afd57600080fd5b505af1158015612b11573d6000803e3d6000fd5b50505050600660009054906101000a900473ffffffffffffffffffffffffffffffffffffffff1673ffffffffffffffffffffffffffffffffffffffff1663ef693bed30846040518363ffffffff1660e01b8152600401808373ffffffffffffffffffffffffffffffffffffffff1673ffffffffffffffffffffffffffffffffffffffff16815260200182815260200192505050600060405180830381600087803b158015612bbe57600080fd5b505af1158015612bd2573d6000803e3d6000fd5b50505050600360009054906101000a900473ffffffffffffffffffffffffffffffffffffffff1673ffffffffffffffffffffffffffffffffffffffff16633b4da69f30846040518363ffffffff1660e01b8152600401808373ffffffffffffffffffffffffffffffffffffffff1673ffffffffffffffffffffffffffffffffffffffff16815260200182815260200192505050600060405180830381600087803b158015612c7f57600080fd5b505af1158015612c93573d6000803e3d6000fd5b50505050505b600360009054906101000a900473ffffffffffffffffffffffffffffffffffffffff1673ffffffffffffffffffffffffffffffffffffffff1663a9059cbb87876040518363ffffffff1660e01b8152600401808373ffffffffffffffffffffffffffffffffffffffff1673ffffffffffffffffffffffffffffffffffffffff16815260200182815260200192505050602060405180830381600087803b158015612d4257600080fd5b505af1158015612d56573d6000803e3d6000fd5b505050506040513d6020811015612d6c57600080fd5b8101908080519060200190929190505050612def576040517f08c379a000000000000000000000000000000000000000000000000000000000815260040180806020018281038252601c8152602001807f54726561737572793a2043686169207472616e73666572206661696c0000000081525060200191505060405180910390fd5b505050505050565b7f574554480000000000000000000000000000000000000000000000000000000081565b6040518060400160405280601881526020017f54726561737572793a204e6f7420417574686f72697a65640000000000000000815250600160003373ffffffffffffffffffffffffffffffffffffffff1673ffffffffffffffffffffffffffffffffffffffff16815260200190815260200160002060009054906101000a900460ff168190612f45576040517f08c379a00000000000000000000000000000000000000000000000000000000081526004018080602001828103825283818151815260200191508051906020019080838360005b83811015612f0a578082015181840152602081019050612eef565b50505050905090810190601f168015612f375780820380516001836020036101000a031916815260200191505b509250505060405180910390fd5b5060011515600960149054906101000a900460ff16151514612fb2576040517f08c379a0000000000000000000000000000000000000000000000000000000008152600401808060200182810382526025815260200180613ca36025913960400191505060405180910390fd5b6000600260009054906101000a900473ffffffffffffffffffffffffffffffffffffffff1673ffffffffffffffffffffffffffffffffffffffff166370a08231306040518263ffffffff1660e01b8152600401808273ffffffffffffffffffffffffffffffffffffffff1673ffffffffffffffffffffffffffffffffffffffff16815260200191505060206040518083038186803b15801561305357600080fd5b505afa158015613067573d6000803e3d6000fd5b505050506040513d602081101561307d57600080fd5b8101908080519060200190929190505050905060006130a361309d610933565b836139ea565b905060008111156133e957600660009054906101000a900473ffffffffffffffffffffffffffffffffffffffff1673ffffffffffffffffffffffffffffffffffffffff16633b4da69f30836040518363ffffffff1660e01b8152600401808373ffffffffffffffffffffffffffffffffffffffff1673ffffffffffffffffffffffffffffffffffffffff16815260200182815260200192505050600060405180830381600087803b15801561315757600080fd5b505af115801561316b573d6000803e3d6000fd5b505050506000600860009054906101000a900473ffffffffffffffffffffffffffffffffffffffff1673ffffffffffffffffffffffffffffffffffffffff1663d9638d366040518163ffffffff1660e01b815260040180807f4554482d41000000000000000000000000000000000000000000000000000000815250602001905060a06040518083038186803b15801561320457600080fd5b505afa158015613218573d6000803e3d6000fd5b505050506040513d60a081101561322e57600080fd5b810190808051906020019092919080519060200190929190805190602001909291908051906020019092919080519060200190929190505050505050915050600860009054906101000a900473ffffffffffffffffffffffffffffffffffffffff1673ffffffffffffffffffffffffffffffffffffffff1663760887037f4554482d4100000000000000000000000000000000000000000000000000000030303060006132ef6132ea89601b8c613a039092919063ffffffff16565b61390a565b6000036040518763ffffffff1660e01b8152600401808781526020018673ffffffffffffffffffffffffffffffffffffffff1673ffffffffffffffffffffffffffffffffffffffff1681526020018573ffffffffffffffffffffffffffffffffffffffff1673ffffffffffffffffffffffffffffffffffffffff1681526020018473ffffffffffffffffffffffffffffffffffffffff1673ffffffffffffffffffffffffffffffffffffffff1681526020018381526020018281526020019650505050505050600060405180830381600087803b1580156133cf57600080fd5b505af11580156133e3573d6000803e3d6000fd5b50505050505b6000818303905060008111156134bb57600360009054906101000a900473ffffffffffffffffffffffffffffffffffffffff1673ffffffffffffffffffffffffffffffffffffffff16633b4da69f30836040518363ffffffff1660e01b8152600401808373ffffffffffffffffffffffffffffffffffffffff1673ffffffffffffffffffffffffffffffffffffffff16815260200182815260200192505050600060405180830381600087803b1580156134a257600080fd5b505af11580156134b6573d6000803e3d6000fd5b505050505b50505050565b7f434841490000000000000000000000000000000000000000000000000000000081565b6000600360009054906101000a900473ffffffffffffffffffffffffffffffffffffffff1673ffffffffffffffffffffffffffffffffffffffff16636c25b346306040518263ffffffff1660e01b8152600401808273ffffffffffffffffffffffffffffffffffffffff1673ffffffffffffffffffffffffffffffffffffffff168152602001915050602060405180830381600087803b15801561358857600080fd5b505af115801561359c573d6000803e3d6000fd5b505050506040513d60208110156135b257600080fd5b8101908080519060200190929190505050905090565b6135d06139e2565b73ffffffffffffffffffffffffffffffffffffffff166000809054906101000a900473ffffffffffffffffffffffffffffffffffffffff1673ffffffffffffffffffffffffffffffffffffffff1614613691576040517f08c379a00000000000000000000000000000000000000000000000000000000081526004018080602001828103825260208152602001807f4f776e61626c653a2063616c6c6572206973206e6f7420746865206f776e657281525060200191505060405180910390fd5b600073ffffffffffffffffffffffffffffffffffffffff168173ffffffffffffffffffffffffffffffffffffffff161415613717576040517f08c379a0000000000000000000000000000000000000000000000000000000008152600401808060200182810382526026815260200180613c5c6026913960400191505060405180910390fd5b8073ffffffffffffffffffffffffffffffffffffffff166000809054906101000a900473ffffffffffffffffffffffffffffffffffffffff1673ffffffffffffffffffffffffffffffffffffffff167f8be0079c531659141344cd1fd0a4f28419497f9722a3daafe3b4186f6b6457e060405160405180910390a3806000806101000a81548173ffffffffffffffffffffffffffffffffffffffff021916908373ffffffffffffffffffffffffffffffffffffffff16021790555050565b6000600860009054906101000a900473ffffffffffffffffffffffffffffffffffffffff1673ffffffffffffffffffffffffffffffffffffffff1663957aa58c6040518163ffffffff1660e01b815260040160206040518083038186803b15801561383f57600080fd5b505afa158015613853573d6000803e3d6000fd5b505050506040513d602081101561386957600080fd5b8101908080519060200190929190505050146138ed576040517f08c379a000000000000000000000000000000000000000000000000000000000815260040180806020018281038252601a8152602001807f54726561737572793a204d616b657244414f206973206c69766500000000000081525060200191505060405180910390fd5b6000600960146101000a81548160ff021916908315150217905550565b60007f7fffffffffffffffffffffffffffffffffffffffffffffffffffffffffffffff8211156139a2576040517f08c379a00000000000000000000000000000000000000000000000000000000081526004018080602001828103825260178152602001807f54726561737572793a2043617374206f766572666c6f7700000000000000000081525060200191505060405180910390fd5b819050919050565b60006139d96139b883613a3b565b6139cb8587613ac590919063ffffffff16565b613b4b90919063ffffffff16565b90509392505050565b600033905090565b60008183106139f957816139fb565b825b905092915050565b6000613a3283613a24613a1585613a3b565b87613ac590919063ffffffff16565b613b4b90919063ffffffff16565b90509392505050565b6000604d8260ff161115613ab7576040517f08c379a00000000000000000000000000000000000000000000000000000000081526004018080602001828103825260118152602001807f546f6f206d616e7920646563696d616c7300000000000000000000000000000081525060200191505060405180910390fd5b8160ff16600a0a9050919050565b600080831415613ad85760009050613b45565b6000828402905082848281613ae957fe5b0414613b40576040517f08c379a0000000000000000000000000000000000000000000000000000000008152600401808060200182810382526021815260200180613c826021913960400191505060405180910390fd5b809150505b92915050565b6000613b8d83836040518060400160405280601a81526020017f536166654d6174683a206469766973696f6e206279207a65726f000000000000815250613b95565b905092915050565b60008083118290613c41576040517f08c379a00000000000000000000000000000000000000000000000000000000081526004018080602001828103825283818151815260200191508051906020019080838360005b83811015613c06578082015181840152602081019050613beb565b50505050905090810190601f168015613c335780820380516001836020036101000a031916815260200191505b509250505060405180910390fd5b506000838581613c4d57fe5b04905080915050939250505056fe4f776e61626c653a206e6577206f776e657220697320746865207a65726f2061646472657373536166654d6174683a206d756c7469706c69636174696f6e206f766572666c6f7754726561737572793a204e6f7420617661696c61626c6520647572696e6720756e77696e64a2646970667358221220154680ff13df1d3e47632a863bc8b26ac5b1b92915cf2e6cf70c0c0646a5856564736f6c63430006020033",
  "source": "pragma solidity ^0.6.0;\n\nimport \"./helpers/Orchestrated.sol\";\nimport \"@hq20/contracts/contracts/math/DecimalMath.sol\";\nimport \"@openzeppelin/contracts/access/Ownable.sol\";\nimport \"@openzeppelin/contracts/math/Math.sol\";\nimport \"@openzeppelin/contracts/token/ERC20/IERC20.sol\";\nimport \"./interfaces/IDaiJoin.sol\";\nimport \"./interfaces/IGemJoin.sol\";\nimport \"./interfaces/IVat.sol\";\nimport \"./interfaces/IChai.sol\";\nimport \"./interfaces/IOracle.sol\";\nimport \"./interfaces/ITreasury.sol\";\nimport \"./helpers/Constants.sol\";\nimport \"@nomiclabs/buidler/console.sol\";\n\n\n/// @dev Treasury manages the Dai, interacting with MakerDAO's vat and chai when needed.\ncontract Treasury is ITreasury, Orchestrated(), Constants {\n    using DecimalMath for uint256;\n    using DecimalMath for int256;\n    using DecimalMath for uint8;\n\n    bytes32 constant collateralType = \"ETH-A\";\n\n    IERC20 internal _dai;\n    IChai internal _chai;\n    IOracle internal _chaiOracle;\n    IERC20 internal _weth;\n    IDaiJoin internal _daiJoin;\n    IGemJoin internal _wethJoin;\n    IVat internal _vat;\n    address internal _unwind;\n\n    bool public override live = true;\n\n    constructor (\n        address dai_,\n        address chai_,\n        address chaiOracle_,\n        address weth_,\n        address daiJoin_,\n        address wethJoin_,\n        address vat_\n    ) public {\n        // These could be hardcoded for mainnet deployment.\n        _dai = IERC20(dai_);\n        _chai = IChai(chai_);\n        _chaiOracle = IOracle(chaiOracle_);\n        _weth = IERC20(weth_);\n        _daiJoin = IDaiJoin(daiJoin_);\n        _wethJoin = IGemJoin(wethJoin_);\n        _vat = IVat(vat_);\n        _vat.hope(wethJoin_);\n        _vat.hope(daiJoin_);\n\n        _dai.approve(address(_chai), uint256(-1));      // Chai will never cheat on us\n        _weth.approve(address(_wethJoin), uint256(-1)); // WethJoin will never cheat on us\n    }\n\n    modifier onlyLive() {\n        require(live == true, \"Treasury: Not available during unwind\");\n        _;\n    }\n\n    /// @dev Safe casting from uint256 to int256\n    function toInt(uint256 x) internal pure returns(int256) {\n        require(\n            x <= 57896044618658097711785492504343953926634992332820282019728792003956564819967,\n            \"Treasury: Cast overflow\"\n        );\n        return int256(x);\n    }\n\n    /// @dev Disables pulling and pushing. Can only be called if MakerDAO shuts down.\n    function shutdown() public override {\n        require(\n            _vat.live() == 0,\n            \"Treasury: MakerDAO is live\"\n        );\n        live = false;\n    }\n\n    /// @dev Returns the Treasury debt towards MakerDAO, as the dai borrowed times the stability fee for Weth.\n    /// We have borrowed (rate * art)\n    /// Borrowing Limit (rate * art) <= (ink * spot)\n    function debt() public view override returns(uint256) {\n        (, uint256 rate,,,) = _vat.ilks(\"ETH-A\");            // Retrieve the MakerDAO stability fee for Weth\n        (, uint256 art) = _vat.urns(\"ETH-A\", address(this)); // Retrieve the Treasury debt in MakerDAO\n        return art.muld(rate, RAY);\n    }\n\n    /// @dev Returns the Treasury borrowing capacity from MakerDAO, as the collateral posted times the collateralization ratio for Weth.\n    /// We can borrow (ink * spot)\n    function power() public view returns(uint256) {\n        (,, uint256 spot,,) = _vat.ilks(\"ETH-A\");            // Collateralization ratio for Weth\n        (uint256 ink,) = _vat.urns(\"ETH-A\", address(this));  // Treasury Weth collateral in MakerDAO\n        return ink.muld(spot, RAY);\n    }\n\n    /// @dev Returns the amount of Dai in this contract.\n    function savings() public override returns(uint256){\n        return _chai.dai(address(this));\n    }\n\n    /// @dev Pays as much system debt as possible from the Treasury dai balance, saving the rest as chai.\n    function pushDai() public override onlyOrchestrated(\"Treasury: Not Authorized\") onlyLive  {\n        uint256 dai = _dai.balanceOf(address(this));\n\n        uint256 toRepay = Math.min(debt(), dai);\n        if (toRepay > 0) {\n            _daiJoin.join(address(this), toRepay);\n            // Remove debt from vault using frob\n            (, uint256 rate,,,) = _vat.ilks(\"ETH-A\"); // Retrieve the MakerDAO stability fee\n            _vat.frob(\n                collateralType,\n                address(this),\n                address(this),\n                address(this),\n                0,                           // Weth collateral to add\n                -toInt(toRepay.divd(rate, RAY)) // Dai debt to remove\n            );\n        }\n\n        uint256 toSave = dai - toRepay;         // toRepay can't be greater than dai\n        if (toSave > 0) {\n            _chai.join(address(this), toSave);    // Give dai to Chai, take chai back\n        }\n    }\n\n    /// @dev Pays as much system debt as possible from the Treasury chai balance, saving the rest as chai.\n    function pushChai() public override onlyOrchestrated(\"Treasury: Not Authorized\") onlyLive  {\n        uint256 dai = _chai.dai(address(this));\n\n        uint256 toRepay = Math.min(debt(), dai);\n        if (toRepay > 0) {\n            _chai.draw(address(this), toRepay);     // Grab dai from Chai, converted from chai\n            _daiJoin.join(address(this), toRepay);\n            // Remove debt from vault using frob\n            (, uint256 rate,,,) = _vat.ilks(\"ETH-A\"); // Retrieve the MakerDAO stability fee\n            _vat.frob(\n                collateralType,\n                address(this),\n                address(this),\n                address(this),\n                0,                           // Weth collateral to add\n                -toInt(toRepay.divd(rate, RAY)) // Dai debt to remove\n            );\n        }\n        // Anything that is left from repaying, is chai savings\n    }\n\n    /// @dev Returns dai using chai savings as much as possible, and borrowing the rest.\n    function pullDai(address to, uint256 dai) public override onlyOrchestrated(\"Treasury: Not Authorized\") onlyLive  {\n        uint256 toRelease = Math.min(savings(), dai);\n        if (toRelease > 0) {\n            _chai.draw(address(this), toRelease);     // Grab dai from Chai, converted from chai\n        }\n\n        uint256 toBorrow = dai - toRelease;    // toRelease can't be greater than dai\n        if (toBorrow > 0) {\n            (, uint256 rate,,,) = _vat.ilks(\"ETH-A\"); // Retrieve the MakerDAO stability fee\n            // Increase the dai debt by the dai to receive divided by the stability fee\n            _vat.frob(\n                collateralType,\n                address(this),\n                address(this),\n                address(this),\n                0,\n                toInt(toBorrow.divd(rate, RAY))\n            ); // `vat.frob` reverts on failure\n            _daiJoin.exit(address(this), toBorrow); // `daiJoin` reverts on failures\n        }\n\n        require(                            // Give dai to user\n            _dai.transfer(to, dai),\n            \"Treasury: Dai transfer fail\"\n        );\n    }\n\n    /// @dev Returns chai using chai savings as much as possible, and borrowing the rest.\n    function pullChai(address to, uint256 chai) public override onlyOrchestrated(\"Treasury: Not Authorized\") onlyLive  {\n        uint256 dai = chai.muld(_chaiOracle.price(), RAY);   // dai = price * chai\n        uint256 toRelease = Math.min(savings(), dai);\n        // As much chai as the Treasury has, can be used, we borrwo dai and convert it to chai for the rest\n\n        uint256 toBorrow = dai - toRelease;    // toRelease can't be greater than dai\n        if (toBorrow > 0) {\n            (, uint256 rate,,,) = _vat.ilks(\"ETH-A\"); // Retrieve the MakerDAO stability fee\n            // Increase the dai debt by the dai to receive divided by the stability fee\n            _vat.frob(\n                collateralType,\n                address(this),\n                address(this),\n                address(this),\n                0,\n                toInt(toBorrow.divd(rate, RAY))\n            ); // `vat.frob` reverts on failure\n            _daiJoin.exit(address(this), toBorrow);  // `daiJoin` reverts on failures\n            _chai.join(address(this), toBorrow);     // Grab chai from Chai, converted from dai\n        }\n\n        require(                            // Give dai to user\n            _chai.transfer(to, chai),\n            \"Treasury: Chai transfer fail\"\n        );\n    }\n\n    /// @dev Moves all Weth collateral from Treasury into Maker\n    function pushWeth() public override onlyOrchestrated(\"Treasury: Not Authorized\") onlyLive  {\n        uint256 weth = _weth.balanceOf(address(this));\n\n        _wethJoin.join(address(this), weth); // GemJoin reverts if anything goes wrong.\n        // All added collateral should be locked into the vault using frob\n        _vat.frob(\n            collateralType,\n            address(this),\n            address(this),\n            address(this),\n            toInt(weth), // Collateral to add - WAD\n            0 // Normalized Dai to receive - WAD\n        );\n    }\n\n    /// @dev Moves Weth collateral from Treasury controlled Maker Eth vault to `to` address.\n    function pullWeth(address to, uint256 weth) public override onlyOrchestrated(\"Treasury: Not Authorized\") onlyLive  {\n        // Remove collateral from vault using frob\n        _vat.frob(\n            collateralType,\n            address(this),\n            address(this),\n            address(this),\n            -toInt(weth), // Weth collateral to remove - WAD\n            0              // Dai debt to add - WAD\n        );\n        _wethJoin.exit(to, weth); // `GemJoin` reverts on failures\n    }\n\n    /// @dev Registers the one contract that will take assets from the Treasury if MakerDAO shuts down.\n    function registerUnwind(address unwind_) public onlyOwner {\n        require(\n            _unwind == address(0),\n            \"Treasury: Unwind already set\"\n        );\n        _unwind = unwind_;\n        _chai.approve(address(_unwind), uint256(-1)); // Unwind will never cheat on us\n        _vat.hope(address(_unwind));                  // Unwind will never cheat on us\n    }\n}",
  "sourcePath": "/Users/bruce/dev/yieldprotocol/ytoken-mvp/contracts/Treasury.sol",
  "compiler": {
    "name": "solc",
    "version": "0.6.2+commit.bacdbe57.Emscripten.clang"
  },
  "schemaVersion": "3.0.23",
  "updatedAt": "2020-07-02T10:01:06.539Z",
  "networkType": "ethereum",
  "devdoc": {
    "details": "Treasury manages the Dai, interacting with MakerDAO's vat and chai when needed.",
    "methods": {
      "debt()": {
        "details": "Returns the Treasury debt towards MakerDAO, as the dai borrowed times the stability fee for Weth. We have borrowed (rate * art) Borrowing Limit (rate * art) <= (ink * spot)"
      },
      "orchestrate(address)": {
        "details": "Add user to the authorized users list"
      },
      "owner()": {
        "details": "Returns the address of the current owner."
      },
      "power()": {
        "details": "Returns the Treasury borrowing capacity from MakerDAO, as the collateral posted times the collateralization ratio for Weth. We can borrow (ink * spot)"
      },
      "pullChai(address,uint256)": {
        "details": "Returns chai using chai savings as much as possible, and borrowing the rest."
      },
      "pullDai(address,uint256)": {
        "details": "Returns dai using chai savings as much as possible, and borrowing the rest."
      },
      "pullWeth(address,uint256)": {
        "details": "Moves Weth collateral from Treasury controlled Maker Eth vault to `to` address."
      },
      "pushChai()": {
        "details": "Pays as much system debt as possible from the Treasury chai balance, saving the rest as chai."
      },
      "pushDai()": {
        "details": "Pays as much system debt as possible from the Treasury dai balance, saving the rest as chai."
      },
      "pushWeth()": {
        "details": "Moves all Weth collateral from Treasury into Maker"
      },
      "registerUnwind(address)": {
        "details": "Registers the one contract that will take assets from the Treasury if MakerDAO shuts down."
      },
      "renounceOwnership()": {
        "details": "Leaves the contract without owner. It will not be possible to call `onlyOwner` functions anymore. Can only be called by the current owner.     * NOTE: Renouncing ownership will leave the contract without an owner, thereby removing any functionality that is only available to the owner."
      },
      "savings()": {
        "details": "Returns the amount of Dai in this contract."
      },
      "shutdown()": {
        "details": "Disables pulling and pushing. Can only be called if MakerDAO shuts down."
      },
      "transferOwnership(address)": {
        "details": "Transfers ownership of the contract to a new account (`newOwner`). Can only be called by the current owner."
      }
    }
  },
  "userdoc": {
    "methods": {}
  }
}