{
  "contractName": "Treasury",
  "abi": [
    {
      "inputs": [
        {
          "internalType": "address",
          "name": "vat_",
          "type": "address"
        },
        {
          "internalType": "address",
          "name": "weth_",
          "type": "address"
        },
        {
          "internalType": "address",
          "name": "dai_",
          "type": "address"
        },
        {
          "internalType": "address",
          "name": "wethJoin_",
          "type": "address"
        },
        {
          "internalType": "address",
          "name": "daiJoin_",
          "type": "address"
        },
        {
          "internalType": "address",
          "name": "pot_",
          "type": "address"
        },
        {
          "internalType": "address",
          "name": "chai_",
          "type": "address"
        }
      ],
      "stateMutability": "nonpayable",
      "type": "constructor"
    },
    {
      "anonymous": false,
      "inputs": [
        {
          "indexed": false,
          "internalType": "address",
          "name": "access",
          "type": "address"
        },
        {
          "indexed": false,
          "internalType": "bytes4",
          "name": "signature",
          "type": "bytes4"
        }
      ],
      "name": "GrantedAccess",
      "type": "event"
    },
    {
      "anonymous": false,
      "inputs": [
        {
          "indexed": true,
          "internalType": "address",
          "name": "previousOwner",
          "type": "address"
        },
        {
          "indexed": true,
          "internalType": "address",
          "name": "newOwner",
          "type": "address"
        }
      ],
      "name": "OwnershipTransferred",
      "type": "event"
    },
    {
      "inputs": [],
      "name": "UNIT",
      "outputs": [
        {
          "internalType": "uint256",
          "name": "",
          "type": "uint256"
        }
      ],
      "stateMutability": "view",
      "type": "function",
      "constant": true
    },
    {
      "inputs": [
        {
          "internalType": "address",
          "name": "user",
          "type": "address"
        },
        {
          "internalType": "bytes4[]",
          "name": "signatures",
          "type": "bytes4[]"
        }
      ],
      "name": "batchOrchestrate",
      "outputs": [],
      "stateMutability": "nonpayable",
      "type": "function"
    },
    {
      "inputs": [],
      "name": "chai",
      "outputs": [
        {
          "internalType": "contract IChai",
          "name": "",
          "type": "address"
        }
      ],
      "stateMutability": "view",
      "type": "function",
      "constant": true
    },
    {
      "inputs": [],
      "name": "dai",
      "outputs": [
        {
          "internalType": "contract IERC20",
          "name": "",
          "type": "address"
        }
      ],
      "stateMutability": "view",
      "type": "function",
      "constant": true
    },
    {
      "inputs": [],
      "name": "daiJoin",
      "outputs": [
        {
          "internalType": "contract IDaiJoin",
          "name": "",
          "type": "address"
        }
      ],
      "stateMutability": "view",
      "type": "function",
      "constant": true
    },
    {
      "inputs": [],
      "name": "live",
      "outputs": [
        {
          "internalType": "bool",
          "name": "",
          "type": "bool"
        }
      ],
      "stateMutability": "view",
      "type": "function",
      "constant": true
    },
    {
      "inputs": [
        {
          "internalType": "address",
          "name": "user",
          "type": "address"
        },
        {
          "internalType": "bytes4",
          "name": "signature",
          "type": "bytes4"
        }
      ],
      "name": "orchestrate",
      "outputs": [],
      "stateMutability": "nonpayable",
      "type": "function"
    },
    {
      "inputs": [
        {
          "internalType": "address",
          "name": "",
          "type": "address"
        },
        {
          "internalType": "bytes4",
          "name": "",
          "type": "bytes4"
        }
      ],
      "name": "orchestration",
      "outputs": [
        {
          "internalType": "bool",
          "name": "",
          "type": "bool"
        }
      ],
      "stateMutability": "view",
      "type": "function",
      "constant": true
    },
    {
      "inputs": [],
      "name": "owner",
      "outputs": [
        {
          "internalType": "address",
          "name": "",
          "type": "address"
        }
      ],
      "stateMutability": "view",
      "type": "function",
      "constant": true
    },
    {
      "inputs": [],
      "name": "pot",
      "outputs": [
        {
          "internalType": "contract IPot",
          "name": "",
          "type": "address"
        }
      ],
      "stateMutability": "view",
      "type": "function",
      "constant": true
    },
    {
      "inputs": [],
      "name": "renounceOwnership",
      "outputs": [],
      "stateMutability": "nonpayable",
      "type": "function"
    },
    {
      "inputs": [
        {
          "internalType": "address",
          "name": "newOwner",
          "type": "address"
        }
      ],
      "name": "transferOwnership",
      "outputs": [],
      "stateMutability": "nonpayable",
      "type": "function"
    },
    {
      "inputs": [],
      "name": "unwind",
      "outputs": [
        {
          "internalType": "address",
          "name": "",
          "type": "address"
        }
      ],
      "stateMutability": "view",
      "type": "function",
      "constant": true
    },
    {
      "inputs": [],
      "name": "vat",
      "outputs": [
        {
          "internalType": "contract IVat",
          "name": "",
          "type": "address"
        }
      ],
      "stateMutability": "view",
      "type": "function",
      "constant": true
    },
    {
      "inputs": [],
      "name": "weth",
      "outputs": [
        {
          "internalType": "contract IWeth",
          "name": "",
          "type": "address"
        }
      ],
      "stateMutability": "view",
      "type": "function",
      "constant": true
    },
    {
      "inputs": [],
      "name": "wethJoin",
      "outputs": [
        {
          "internalType": "contract IGemJoin",
          "name": "",
          "type": "address"
        }
      ],
      "stateMutability": "view",
      "type": "function",
      "constant": true
    },
    {
      "inputs": [],
      "name": "shutdown",
      "outputs": [],
      "stateMutability": "nonpayable",
      "type": "function"
    },
    {
      "inputs": [],
      "name": "debt",
      "outputs": [
        {
          "internalType": "uint256",
          "name": "",
          "type": "uint256"
        }
      ],
      "stateMutability": "view",
      "type": "function",
      "constant": true
    },
    {
      "inputs": [],
      "name": "savings",
      "outputs": [
        {
          "internalType": "uint256",
          "name": "",
          "type": "uint256"
        }
      ],
      "stateMutability": "view",
      "type": "function",
      "constant": true
    },
    {
      "inputs": [
        {
          "internalType": "address",
          "name": "from",
          "type": "address"
        },
        {
          "internalType": "uint256",
          "name": "daiAmount",
          "type": "uint256"
        }
      ],
      "name": "pushDai",
      "outputs": [],
      "stateMutability": "nonpayable",
      "type": "function"
    },
    {
      "inputs": [
        {
          "internalType": "address",
          "name": "from",
          "type": "address"
        },
        {
          "internalType": "uint256",
          "name": "chaiAmount",
          "type": "uint256"
        }
      ],
      "name": "pushChai",
      "outputs": [],
      "stateMutability": "nonpayable",
      "type": "function"
    },
    {
      "inputs": [
        {
          "internalType": "address",
          "name": "from",
          "type": "address"
        },
        {
          "internalType": "uint256",
          "name": "wethAmount",
          "type": "uint256"
        }
      ],
      "name": "pushWeth",
      "outputs": [],
      "stateMutability": "nonpayable",
      "type": "function"
    },
    {
      "inputs": [
        {
          "internalType": "address",
          "name": "to",
          "type": "address"
        },
        {
          "internalType": "uint256",
          "name": "daiAmount",
          "type": "uint256"
        }
      ],
      "name": "pullDai",
      "outputs": [],
      "stateMutability": "nonpayable",
      "type": "function"
    },
    {
      "inputs": [
        {
          "internalType": "address",
          "name": "to",
          "type": "address"
        },
        {
          "internalType": "uint256",
          "name": "chaiAmount",
          "type": "uint256"
        }
      ],
      "name": "pullChai",
      "outputs": [],
      "stateMutability": "nonpayable",
      "type": "function"
    },
    {
      "inputs": [
        {
          "internalType": "address",
          "name": "to",
          "type": "address"
        },
        {
          "internalType": "uint256",
          "name": "wethAmount",
          "type": "uint256"
        }
      ],
      "name": "pullWeth",
      "outputs": [],
      "stateMutability": "nonpayable",
      "type": "function"
    },
    {
      "inputs": [
        {
          "internalType": "address",
          "name": "unwind_",
          "type": "address"
        }
      ],
      "name": "registerUnwind",
      "outputs": [],
      "stateMutability": "nonpayable",
      "type": "function"
    }
  ],
  "bytecode": "0x60806040526009805460ff60a01b1916600160a01b1790553480156200002457600080fd5b506040516200298638038062002986833981810160405260e08110156200004a57600080fd5b508051602082015160408301516060840151608085015160a086015160c090960151949593949293919290919060006200008c6001600160e01b036200032616565b600080546001600160a01b0319166001600160a01b0383169081178255604051929350917f8be0079c531659141344cd1fd0a4f28419497f9722a3daafe3b4186f6b6457e0908290a350600480546001600160a01b03199081166001600160a01b038881169190911783556008805483168583161790556007805483168683161790556003805483168a8316179055600580548316878316179055600680548316888316908117909155600280549093168b83161792839055604080516328ec8bf160e21b8152948501919091525191169163a3b22fc491602480830192600092919082900301818387803b1580156200018557600080fd5b505af11580156200019a573d6000803e3d6000fd5b5050600254604080516328ec8bf160e21b81526001600160a01b038881166004830152915191909216935063a3b22fc49250602480830192600092919082900301818387803b158015620001ed57600080fd5b505af115801562000202573d6000803e3d6000fd5b5050600480546008546040805163095ea7b360e01b81526001600160a01b03928316948101949094526000196024850152519116935063095ea7b3925060448083019260209291908290030181600087803b1580156200026157600080fd5b505af115801562000276573d6000803e3d6000fd5b505050506040513d60208110156200028d57600080fd5b50506003546006546040805163095ea7b360e01b81526001600160a01b03928316600482015260001960248201529051919092169163095ea7b39160448083019260209291908290030181600087803b158015620002ea57600080fd5b505af1158015620002ff573d6000803e3d6000fd5b505050506040513d60208110156200031657600080fd5b506200032a975050505050505050565b3390565b61264c806200033a6000396000f3fe608060405234801561001057600080fd5b506004361061018e5760003560e01c80638da5cb5b116100de578063c11645bc11610097578063f2fde38b11610071578063f2fde38b14610460578063f4b9fa7514610486578063f93919911461048e578063fc0e74d1146104ba5761018e565b8063c11645bc1461039d578063c86d6ae4146103a5578063e80c72c0146103ad5761018e565b80638da5cb5b14610325578063957aa58c1461032d5780639a5aaf78146103355780639d8e2177146103615780639fa8368914610369578063b69d0456146103955761018e565b80633fc8cef31161014b57806358ada5261161012557806358ada5261461029f578063715018a6146102e9578063807763ab146102f15780638ac96dfc146102f95761018e565b80633fc8cef3146102635780634ba2363a1461026b57806355027703146102735761018e565b8063028f7d55146101935780630dca59c1146101cb5780631997c361146101e55780631e2043b1146102115780632dbacef31461023757806336569e771461025b575b600080fd5b6101c9600480360360408110156101a957600080fd5b5080356001600160a01b031690602001356001600160e01b0319166104c2565b005b6101d3610591565b60408051918252519081900360200190f35b6101c9600480360360408110156101fb57600080fd5b506001600160a01b0381351690602001356106b6565b6101c96004803603602081101561022757600080fd5b50356001600160a01b0316610b1a565b61023f610cce565b604080516001600160a01b039092168252519081900360200190f35b61023f610cdd565b61023f610cec565b61023f610cfb565b6101c96004803603604081101561028957600080fd5b506001600160a01b038135169060200135610d0a565b6102d5600480360360408110156102b557600080fd5b5080356001600160a01b031690602001356001600160e01b0319166110d4565b604080519115158252519081900360200190f35b6101c96110f4565b61023f611196565b6101c96004803603604081101561030f57600080fd5b506001600160a01b0381351690602001356111a5565b61023f6113a4565b6102d56113b3565b6101c96004803603604081101561034b57600080fd5b506001600160a01b0381351690602001356113c3565b6101d3611637565b6101c96004803603604081101561037f57600080fd5b506001600160a01b038135169060200135611646565b61023f611a80565b61023f611a8f565b6101d3611a9e565b6101c9600480360360408110156103c357600080fd5b6001600160a01b0382351691908101906040810160208201356401000000008111156103ee57600080fd5b82018360208201111561040057600080fd5b8035906020019184602083028401116401000000008311171561042257600080fd5b919080806020026020016040519081016040528093929190818152602001838360200280828437600092019190915250929550611b97945050505050565b6101c96004803603602081101561047657600080fd5b50356001600160a01b0316611c25565b61023f611d1d565b6101c9600480360360408110156104a457600080fd5b506001600160a01b038135169060200135611d2c565b6101c96120db565b6104ca6121b6565b6000546001600160a01b0390811691161461051a576040805162461bcd60e51b815260206004820181905260248201526000805160206125d2833981519152604482015290519081900360640190fd5b6001600160a01b03821660008181526001602081815260408084206001600160e01b0319871680865290835293819020805460ff1916909317909255815193845283019190915280517f80e6a982b9aa622283c64c5ba322fc345fe769ac330a174f3254e52926e5fcf89281900390910190a15050565b60025460408051636cb1c69b60e11b8152644554482d4160d81b6004820152905160009283926001600160a01b039091169163d9638d369160248082019260a092909190829003018186803b1580156105e957600080fd5b505afa1580156105fd573d6000803e3d6000fd5b505050506040513d60a081101561061357600080fd5b5060200151600254604080516309092f9760e21b8152644554482d4160d81b600482015230602482015281519394506000936001600160a01b0390931692632424be5c92604480840193919291829003018186803b15801561067457600080fd5b505afa158015610688573d6000803e3d6000fd5b505050506040513d604081101561069e57600080fd5b506020015190506106af81836121ba565b9250505090565b60408051808201825260188152600080516020612591833981519152602080830191909152336000908152600182528381206001600160e01b031982351682529091529190912054819060ff1661078b5760405162461bcd60e51b81526004018080602001828103825283818151815260200191508051906020019080838360005b83811015610750578181015183820152602001610738565b50505050905090810190601f16801561077d5780820380516001836020036101000a031916815260200191505b509250505060405180910390fd5b50600954600160a01b900460ff1615156001146107d95760405162461bcd60e51b81526004018080602001828103825260258152602001806125f26025913960400191505060405180910390fd5b600854604080516323b872dd60e01b81526001600160a01b03868116600483015230602483015260448201869052915191909216916323b872dd9160648083019260209291908290030181600087803b15801561083557600080fd5b505af1158015610849573d6000803e3d6000fd5b505050506040513d602081101561085f57600080fd5b505161086a57600080fd5b60085460408051633612d9a360e11b815230600482015290516000926001600160a01b031691636c25b34691602480830192602092919082900301818787803b1580156108b657600080fd5b505af11580156108ca573d6000803e3d6000fd5b505050506040513d60208110156108e057600080fd5b5051905060006108f76108f1610591565b836121f0565b90508015610b135760085460408051631280dc1f60e21b81523060048201526024810184905290516001600160a01b0390921691634a03707c9160448082019260009290919082900301818387803b15801561095257600080fd5b505af1158015610966573d6000803e3d6000fd5b505060055460408051633b4da69f60e01b81523060048201526024810186905290516001600160a01b039092169350633b4da69f925060448082019260009290919082900301818387803b1580156109bd57600080fd5b505af11580156109d1573d6000803e3d6000fd5b505060025460408051636cb1c69b60e11b8152644554482d4160d81b60048201529051600094506001600160a01b03909216925063d9638d369160248083019260a0929190829003018186803b158015610a2a57600080fd5b505afa158015610a3e573d6000803e3d6000fd5b505050506040513d60a0811015610a5457600080fd5b50602001516002549091506001600160a01b03166376088703644554482d4160d81b3080806000610a8d610a888a8a612206565b612227565b604080516001600160e01b031960e08a901b16815260048101979097526001600160a01b03958616602488015293851660448701529190931660648501526084840192909252600091820360a48401525160c48084019382900301818387803b158015610af957600080fd5b505af1158015610b0d573d6000803e3d6000fd5b50505050505b5050505050565b610b226121b6565b6000546001600160a01b03908116911614610b72576040805162461bcd60e51b815260206004820181905260248201526000805160206125d2833981519152604482015290519081900360640190fd5b6009546001600160a01b031615610bd0576040805162461bcd60e51b815260206004820152601c60248201527f54726561737572793a20556e77696e6420616c72656164792073657400000000604482015290519081900360640190fd5b600980546001600160a01b0319166001600160a01b0383811691909117918290556008546040805163095ea7b360e01b8152938316600485015260001960248501525191169163095ea7b39160448083019260209291908290030181600087803b158015610c3d57600080fd5b505af1158015610c51573d6000803e3d6000fd5b505050506040513d6020811015610c6757600080fd5b5050600254600954604080516328ec8bf160e21b81526001600160a01b0392831660048201529051919092169163a3b22fc491602480830192600092919082900301818387803b158015610cba57600080fd5b505af1158015610b13573d6000803e3d6000fd5b6006546001600160a01b031681565b6002546001600160a01b031681565b6003546001600160a01b031681565b6007546001600160a01b031681565b60408051808201825260188152600080516020612591833981519152602080830191909152336000908152600182528381206001600160e01b031982351682529091529190912054819060ff16610da25760405162461bcd60e51b8152602060048201818152835160248401528351909283926044909101919085019080838360008315610750578181015183820152602001610738565b50600954600160a01b900460ff161515600114610df05760405162461bcd60e51b81526004018080602001828103825260258152602001806125f26025913960400191505060405180910390fd5b6000610e03610dfd611a9e565b846121f0565b90508015610e775760085460408051631280dc1f60e21b81523060048201526024810184905290516001600160a01b0390921691634a03707c9160448082019260009290919082900301818387803b158015610e5e57600080fd5b505af1158015610e72573d6000803e3d6000fd5b505050505b80830380156110455760025460408051636cb1c69b60e11b8152644554482d4160d81b600482015290516000926001600160a01b03169163d9638d369160248083019260a0929190829003018186803b158015610ed357600080fd5b505afa158015610ee7573d6000803e3d6000fd5b505050506040513d60a0811015610efd57600080fd5b50602001516002549091506001600160a01b03166376088703644554482d4160d81b3080806000610f31610a888a8a612289565b6040518763ffffffff1660e01b815260040180878152602001866001600160a01b03166001600160a01b03168152602001856001600160a01b03166001600160a01b03168152602001846001600160a01b03166001600160a01b031681526020018381526020018281526020019650505050505050600060405180830381600087803b158015610fc057600080fd5b505af1158015610fd4573d6000803e3d6000fd5b50506005546040805163ef693bed60e01b81523060048201526024810187905290516001600160a01b03909216935063ef693bed925060448082019260009290919082900301818387803b15801561102b57600080fd5b505af115801561103f573d6000803e3d6000fd5b50505050505b600480546040805163a9059cbb60e01b81526001600160a01b0389811694820194909452602481018890529051929091169163a9059cbb916044808201926020929091908290030181600087803b15801561109f57600080fd5b505af11580156110b3573d6000803e3d6000fd5b505050506040513d60208110156110c957600080fd5b5051610b1357600080fd5b600160209081526000928352604080842090915290825290205460ff1681565b6110fc6121b6565b6000546001600160a01b0390811691161461114c576040805162461bcd60e51b815260206004820181905260248201526000805160206125d2833981519152604482015290519081900360640190fd5b600080546040516001600160a01b03909116907f8be0079c531659141344cd1fd0a4f28419497f9722a3daafe3b4186f6b6457e0908390a3600080546001600160a01b0319169055565b6009546001600160a01b031681565b60408051808201825260188152600080516020612591833981519152602080830191909152336000908152600182528381206001600160e01b031982351682529091529190912054819060ff1661123d5760405162461bcd60e51b8152602060048201818152835160248401528351909283926044909101919085019080838360008315610750578181015183820152602001610738565b50600954600160a01b900460ff16151560011461128b5760405162461bcd60e51b81526004018080602001828103825260258152602001806125f26025913960400191505060405180910390fd5b6002546001600160a01b03166376088703644554482d4160d81b3080806112b188612227565b604080516001600160e01b031960e089901b16815260048101969096526001600160a01b0394851660248701529284166044860152921660648401526000918203608484015260a483018290525160c48084019382900301818387803b15801561131a57600080fd5b505af115801561132e573d6000803e3d6000fd5b50506006546040805163ef693bed60e01b81526001600160a01b03888116600483015260248201889052915191909216935063ef693bed9250604480830192600092919082900301818387803b15801561138757600080fd5b505af115801561139b573d6000803e3d6000fd5b50505050505050565b6000546001600160a01b031690565b600954600160a01b900460ff1681565b60408051808201825260188152600080516020612591833981519152602080830191909152336000908152600182528381206001600160e01b031982351682529091529190912054819060ff1661145b5760405162461bcd60e51b8152602060048201818152835160248401528351909283926044909101919085019080838360008315610750578181015183820152602001610738565b50600954600160a01b900460ff1615156001146114a95760405162461bcd60e51b81526004018080602001828103825260258152602001806125f26025913960400191505060405180910390fd5b600354604080516323b872dd60e01b81526001600160a01b03868116600483015230602483015260448201869052915191909216916323b872dd9160648083019260209291908290030181600087803b15801561150557600080fd5b505af1158015611519573d6000803e3d6000fd5b505050506040513d602081101561152f57600080fd5b505161153a57600080fd5b60065460408051633b4da69f60e01b81523060048201526024810185905290516001600160a01b0390921691633b4da69f9160448082019260009290919082900301818387803b15801561158d57600080fd5b505af11580156115a1573d6000803e3d6000fd5b50506002546001600160a01b0316915063760887039050644554482d4160d81b3080806115cd88612227565b604080516001600160e01b031960e089901b16815260048101969096526001600160a01b0394851660248701529284166044860152921660648401526084830191909152600060a48301819052905160c48084019382900301818387803b15801561138757600080fd5b676765c793fa10079d601b1b81565b60408051808201825260188152600080516020612591833981519152602080830191909152336000908152600182528381206001600160e01b031982351682529091529190912054819060ff166116de5760405162461bcd60e51b8152602060048201818152835160248401528351909283926044909101919085019080838360008315610750578181015183820152602001610738565b50600954600160a01b900460ff16151560011461172c5760405162461bcd60e51b81526004018080602001828103825260258152602001806125f26025913960400191505060405180910390fd5b6007546040805163324abb3160e21b815290516000926001600160a01b03169163c92aecc4916004808301926020929190829003018186803b15801561177157600080fd5b505afa158015611785573d6000803e3d6000fd5b505050506040513d602081101561179b57600080fd5b5051905060006117ab84836122fc565b905060006117ba6108f1611a9e565b905080820380156119f55760025460408051636cb1c69b60e11b8152644554482d4160d81b600482015290516000926001600160a01b03169163d9638d369160248083019260a0929190829003018186803b15801561181857600080fd5b505afa15801561182c573d6000803e3d6000fd5b505050506040513d60a081101561184257600080fd5b50602001516002549091506001600160a01b03166376088703644554482d4160d81b3080806000611876610a888a8a612289565b6040518763ffffffff1660e01b815260040180878152602001866001600160a01b03166001600160a01b03168152602001856001600160a01b03166001600160a01b03168152602001846001600160a01b03166001600160a01b031681526020018381526020018281526020019650505050505050600060405180830381600087803b15801561190557600080fd5b505af1158015611919573d6000803e3d6000fd5b50506005546040805163ef693bed60e01b81523060048201526024810187905290516001600160a01b03909216935063ef693bed925060448082019260009290919082900301818387803b15801561197057600080fd5b505af1158015611984573d6000803e3d6000fd5b505060085460408051633b4da69f60e01b81523060048201526024810187905290516001600160a01b039092169350633b4da69f925060448082019260009290919082900301818387803b1580156119db57600080fd5b505af11580156119ef573d6000803e3d6000fd5b50505050505b6008546040805163a9059cbb60e01b81526001600160a01b038a81166004830152602482018a90529151919092169163a9059cbb9160448083019260209291908290030181600087803b158015611a4b57600080fd5b505af1158015611a5f573d6000803e3d6000fd5b505050506040513d6020811015611a7557600080fd5b505161139b57600080fd5b6008546001600160a01b031681565b6005546001600160a01b031681565b600854604080516370a0823160e01b81523060048201529051600092611b92926001600160a01b03909116916370a0823191602480820192602092909190829003018186803b158015611af057600080fd5b505afa158015611b04573d6000803e3d6000fd5b505050506040513d6020811015611b1a57600080fd5b50516007546040805163324abb3160e21b815290516001600160a01b039092169163c92aecc491600480820192602092909190829003018186803b158015611b6157600080fd5b505afa158015611b75573d6000803e3d6000fd5b505050506040513d6020811015611b8b57600080fd5b50516121ba565b905090565b611b9f6121b6565b6000546001600160a01b03908116911614611bef576040805162461bcd60e51b815260206004820181905260248201526000805160206125d2833981519152604482015290519081900360640190fd5b60005b8151811015611c2057611c1883838381518110611c0b57fe5b60200260200101516104c2565b600101611bf2565b505050565b611c2d6121b6565b6000546001600160a01b03908116911614611c7d576040805162461bcd60e51b815260206004820181905260248201526000805160206125d2833981519152604482015290519081900360640190fd5b6001600160a01b038116611cc25760405162461bcd60e51b815260040180806020018281038252602681526020018061256b6026913960400191505060405180910390fd5b600080546040516001600160a01b03808516939216917f8be0079c531659141344cd1fd0a4f28419497f9722a3daafe3b4186f6b6457e091a3600080546001600160a01b0319166001600160a01b0392909216919091179055565b6004546001600160a01b031681565b60408051808201825260188152600080516020612591833981519152602080830191909152336000908152600182528381206001600160e01b031982351682529091529190912054819060ff16611dc45760405162461bcd60e51b8152602060048201818152835160248401528351909283926044909101919085019080838360008315610750578181015183820152602001610738565b50600954600160a01b900460ff161515600114611e125760405162461bcd60e51b81526004018080602001828103825260258152602001806125f26025913960400191505060405180910390fd5b60048054604080516323b872dd60e01b81526001600160a01b038781169482019490945230602482015260448101869052905192909116916323b872dd916064808201926020929091908290030181600087803b158015611e7257600080fd5b505af1158015611e86573d6000803e3d6000fd5b505050506040513d6020811015611e9c57600080fd5b5051611ea757600080fd5b6000611eb4610dfd610591565b905080156120605760055460408051633b4da69f60e01b81523060048201526024810184905290516001600160a01b0390921691633b4da69f9160448082019260009290919082900301818387803b158015611f0f57600080fd5b505af1158015611f23573d6000803e3d6000fd5b505060025460408051636cb1c69b60e11b8152644554482d4160d81b60048201529051600094506001600160a01b03909216925063d9638d369160248083019260a0929190829003018186803b158015611f7c57600080fd5b505afa158015611f90573d6000803e3d6000fd5b505050506040513d60a0811015611fa657600080fd5b50602001516002549091506001600160a01b03166376088703644554482d4160d81b3080806000611fda610a888a8a612206565b604080516001600160e01b031960e08a901b16815260048101979097526001600160a01b03958616602488015293851660448701529190931660648501526084840192909252600091820360a48401525160c48084019382900301818387803b15801561204657600080fd5b505af115801561205a573d6000803e3d6000fd5b50505050505b8083038015610b135760085460408051633b4da69f60e01b81523060048201526024810184905290516001600160a01b0390921691633b4da69f9160448082019260009290919082900301818387803b1580156120bc57600080fd5b505af11580156120d0573d6000803e3d6000fd5b505050505050505050565b600260009054906101000a90046001600160a01b03166001600160a01b031663957aa58c6040518163ffffffff1660e01b815260040160206040518083038186803b15801561212957600080fd5b505afa15801561213d573d6000803e3d6000fd5b505050506040513d602081101561215357600080fd5b5051156121a7576040805162461bcd60e51b815260206004820152601a60248201527f54726561737572793a204d616b657244414f206973206c697665000000000000604482015290519081900360640190fd5b6009805460ff60a01b19169055565b3390565b60006121e7676765c793fa10079d601b1b6121db858563ffffffff61236c16565b9063ffffffff6123c516565b90505b92915050565b60008183106121ff57816121e7565b5090919050565b60006121e7826121db85676765c793fa10079d601b1b63ffffffff61236c16565b60006001600160ff1b03821115612285576040805162461bcd60e51b815260206004820152601760248201527f54726561737572793a2043617374206f766572666c6f77000000000000000000604482015290519081900360640190fd5b5090565b6000806122a784676765c793fa10079d601b1b63ffffffff61236c16565b90506122b9818463ffffffff61240716565b156122e4576122df60016122d3838663ffffffff6123c516565b9063ffffffff61244916565b6122f4565b6122f4818463ffffffff6123c516565b949350505050565b60008061230f848463ffffffff61236c16565b905061232c81676765c793fa10079d601b1b63ffffffff61240716565b15612351576122df60016122d383676765c793fa10079d601b1b63ffffffff6123c516565b6122f481676765c793fa10079d601b1b63ffffffff6123c516565b60008261237b575060006121ea565b8282028284828161238857fe5b04146121e75760405162461bcd60e51b81526004018080602001828103825260218152602001806125b16021913960400191505060405180910390fd5b60006121e783836040518060400160405280601a81526020017f536166654d6174683a206469766973696f6e206279207a65726f0000000000008152506124a3565b60006121e783836040518060400160405280601881526020017f536166654d6174683a206d6f64756c6f206279207a65726f0000000000000000815250612508565b6000828201838110156121e7576040805162461bcd60e51b815260206004820152601b60248201527f536166654d6174683a206164646974696f6e206f766572666c6f770000000000604482015290519081900360640190fd5b600081836124f25760405162461bcd60e51b8152602060048201818152835160248401528351909283926044909101919085019080838360008315610750578181015183820152602001610738565b5060008385816124fe57fe5b0495945050505050565b600081836125575760405162461bcd60e51b8152602060048201818152835160248401528351909283926044909101919085019080838360008315610750578181015183820152602001610738565b5082848161256157fe5b0694935050505056fe4f776e61626c653a206e6577206f776e657220697320746865207a65726f206164647265737354726561737572793a204e6f7420417574686f72697a65640000000000000000536166654d6174683a206d756c7469706c69636174696f6e206f766572666c6f774f776e61626c653a2063616c6c6572206973206e6f7420746865206f776e657254726561737572793a204e6f7420617661696c61626c6520647572696e6720756e77696e64a26469706673582212203bee06c0e29dd94aba1ea659468294e9bc089f9f387d56c7af7f7c04dc7fe63164736f6c634300060a0033",
  "immutableReferences": {},
  "source": "// SPDX-License-Identifier: GPL-3.0-or-later\npragma solidity ^0.6.10;\n\nimport \"@openzeppelin/contracts/math/Math.sol\";\nimport \"@openzeppelin/contracts/token/ERC20/IERC20.sol\";\nimport \"./interfaces/IVat.sol\";\nimport \"./interfaces/IDaiJoin.sol\";\nimport \"./interfaces/IGemJoin.sol\";\nimport \"./interfaces/IPot.sol\";\nimport \"./interfaces/IChai.sol\";\nimport \"./interfaces/ITreasury.sol\";\nimport \"./helpers/DecimalMath.sol\";\nimport \"./helpers/Orchestrated.sol\";\n\n\n/**\n * @dev Treasury manages asset transfers between all contracts in the Yield Protocol and other external contracts such as Chai and MakerDAO.\n * Treasury doesn't have any transactional functions available for regular users.\n * All transactional methods are to be available only for orchestrated contracts.\n * Treasury will ensure that all Weth is always stored as collateral in MAkerDAO.\n * Treasury will use all Dai to pay off system debt in MakerDAO first, and if there is no system debt the surplus Dai will be wrapped as Chai.\n * Treasury will use any Chai it holds when requested to provide Dai. If there isn't enough Chai, it will borrow Dai from MakerDAO.\n */\ncontract Treasury is ITreasury, Orchestrated(), DecimalMath {\n    bytes32 constant WETH = \"ETH-A\";\n\n    IVat public override vat;\n    IWeth public override weth;\n    IERC20 public override dai;\n    IDaiJoin public override daiJoin;\n    IGemJoin public override wethJoin;\n    IPot public override pot;\n    IChai public override chai;\n    address public unwind;\n\n    bool public override live = true;\n\n    /// @dev As part of the constructor:\n    /// Treasury allows the `chai` and `wethJoin` contracts to take as many tokens as wanted.\n    /// Treasury approves the `daiJoin` and `wethJoin` contracts to move assets in MakerDAO.\n    constructor (\n        address vat_,\n        address weth_,\n        address dai_,\n        address wethJoin_,\n        address daiJoin_,\n        address pot_,\n        address chai_\n    ) public {\n        // These could be hardcoded for mainnet deployment.\n        dai = IERC20(dai_);\n        chai = IChai(chai_);\n        pot = IPot(pot_);\n        weth = IWeth(weth_);\n        daiJoin = IDaiJoin(daiJoin_);\n        wethJoin = IGemJoin(wethJoin_);\n        vat = IVat(vat_);\n        vat.hope(wethJoin_);\n        vat.hope(daiJoin_);\n\n        dai.approve(address(chai), uint256(-1));      // Chai will never cheat on us\n        weth.approve(address(wethJoin), uint256(-1)); // WethJoin will never cheat on us\n    }\n\n    /// @dev Only while the Treasury is not unwinding due to a MakerDAO shutdown.\n    modifier onlyLive() {\n        require(live == true, \"Treasury: Not available during unwind\");\n        _;\n    }\n\n    /// @dev Safe casting from uint256 to int256\n    function toInt(uint256 x) internal pure returns(int256) {\n        require(\n            x <= uint256(type(int256).max),\n            \"Treasury: Cast overflow\"\n        );\n        return int256(x);\n    }\n\n    /// @dev Disables pulling and pushing. Can only be called if MakerDAO shuts down.\n    function shutdown() public override {\n        require(\n            vat.live() == 0,\n            \"Treasury: MakerDAO is live\"\n        );\n        live = false;\n    }\n\n    /// @dev Returns the Treasury debt towards MakerDAO, in Dai.\n    /// We have borrowed (rate * art)\n    /// Borrowing limit (rate * art) <= (ink * spot)\n    function debt() public view override returns(uint256) {\n        (, uint256 rate,,,) = vat.ilks(WETH);            // Retrieve the MakerDAO stability fee for Weth\n        (, uint256 art) = vat.urns(WETH, address(this)); // Retrieve the Treasury debt in MakerDAO\n        return muld(art, rate);\n    }\n\n    /// @dev Returns the amount of chai in this contract, converted to Dai.\n    function savings() public view override returns(uint256){\n        return muld(chai.balanceOf(address(this)), pot.chi());\n    }\n\n    /// @dev Takes dai from user and pays as much system debt as possible, saving the rest as chai.\n    /// User needs to have approved Treasury to take the Dai.\n    /// This function can only be called by other Yield contracts, not users directly.\n    /// @param from Wallet to take Dai from.\n    /// @param daiAmount Dai quantity to take.\n    function pushDai(address from, uint256 daiAmount)\n        public override\n        onlyOrchestrated(\"Treasury: Not Authorized\")\n        onlyLive\n    {\n        require(dai.transferFrom(from, address(this), daiAmount));  // Take dai from user to Treasury\n\n        // Due to the DSR being mostly lower than the SF, it is better for us to\n        // immediately pay back as much as possible from the current debt to\n        // minimize our future stability fee liabilities. If we didn't do this,\n        // the treasury would simultaneously owe DAI (and need to pay the SF) and\n        // hold Chai, which is inefficient.\n        uint256 toRepay = Math.min(debt(), daiAmount);\n        if (toRepay > 0) {\n            daiJoin.join(address(this), toRepay);\n            // Remove debt from vault using frob\n            (, uint256 rate,,,) = vat.ilks(WETH); // Retrieve the MakerDAO stability fee\n            vat.frob(\n                WETH,\n                address(this),\n                address(this),\n                address(this),\n                0,                           // Weth collateral to add\n                -toInt(divd(toRepay, rate))  // Dai debt to remove\n            );\n        }\n\n        uint256 toSave = daiAmount - toRepay;         // toRepay can't be greater than dai\n        if (toSave > 0) {\n            chai.join(address(this), toSave);    // Give dai to Chai, take chai back\n        }\n    }\n\n    /// @dev Takes Chai from user and pays as much system debt as possible, saving the rest as chai.\n    /// User needs to have approved Treasury to take the Chai.\n    /// This function can only be called by other Yield contracts, not users directly.\n    /// @param from Wallet to take Chai from.\n    /// @param chaiAmount Chai quantity to take.\n    function pushChai(address from, uint256 chaiAmount)\n        public override\n        onlyOrchestrated(\"Treasury: Not Authorized\")\n        onlyLive\n    {\n        require(chai.transferFrom(from, address(this), chaiAmount));\n        uint256 daiAmount = chai.dai(address(this));\n\n        uint256 toRepay = Math.min(debt(), daiAmount);\n        if (toRepay > 0) {\n            chai.draw(address(this), toRepay);     // Grab dai from Chai, converted from chai\n            daiJoin.join(address(this), toRepay);\n            // Remove debt from vault using frob\n            (, uint256 rate,,,) = vat.ilks(WETH); // Retrieve the MakerDAO stability fee\n            vat.frob(\n                WETH,\n                address(this),\n                address(this),\n                address(this),\n                0,                           // Weth collateral to add\n                -toInt(divd(toRepay, rate))  // Dai debt to remove\n            );\n        }\n        // Anything that is left from repaying, is chai savings\n    }\n\n    /// @dev Takes Weth collateral from user into the Treasury Maker vault\n    /// User needs to have approved Treasury to take the Weth.\n    /// This function can only be called by other Yield contracts, not users directly.\n    /// @param from Wallet to take Weth from.\n    /// @param wethAmount Weth quantity to take.\n    function pushWeth(address from, uint256 wethAmount)\n        public override\n        onlyOrchestrated(\"Treasury: Not Authorized\")\n        onlyLive\n    {\n        require(weth.transferFrom(from, address(this), wethAmount));\n\n        wethJoin.join(address(this), wethAmount); // GemJoin reverts if anything goes wrong.\n        // All added collateral should be locked into the vault using frob\n        vat.frob(\n            WETH,\n            address(this),\n            address(this),\n            address(this),\n            toInt(wethAmount), // Collateral to add - WAD\n            0 // Normalized Dai to receive - WAD\n        );\n    }\n\n    /// @dev Returns dai using chai savings as much as possible, and borrowing the rest.\n    /// This function can only be called by other Yield contracts, not users directly.\n    /// @param to Wallet to send Dai to.\n    /// @param daiAmount Dai quantity to send.\n    function pullDai(address to, uint256 daiAmount)\n        public override\n        onlyOrchestrated(\"Treasury: Not Authorized\")\n        onlyLive\n    {\n        uint256 toRelease = Math.min(savings(), daiAmount);\n        if (toRelease > 0) {\n            chai.draw(address(this), toRelease);     // Grab dai from Chai, converted from chai\n        }\n\n        uint256 toBorrow = daiAmount - toRelease;    // toRelease can't be greater than dai\n        if (toBorrow > 0) {\n            (, uint256 rate,,,) = vat.ilks(WETH); // Retrieve the MakerDAO stability fee\n            // Increase the dai debt by the dai to receive divided by the stability fee\n            // `frob` deals with \"normalized debt\", instead of DAI.\n            // \"normalized debt\" is used to account for the fact that debt grows\n            // by the stability fee. The stability fee is accumulated by the \"rate\"\n            // variable, so if you store Dai balances in \"normalized dai\" you can\n            // deal with the stability fee accumulation with just a multiplication.\n            // This means that the `frob` call needs to be divided by the `rate`\n            // while the `GemJoin.exit` call can be done with the raw `toBorrow`\n            // number.\n            vat.frob(\n                WETH,\n                address(this),\n                address(this),\n                address(this),\n                0,\n                toInt(divdrup(toBorrow, rate))      // We need to round up, otherwise we won't exit toBorrow\n            );\n            daiJoin.exit(address(this), toBorrow); // `daiJoin` reverts on failures\n        }\n\n        require(dai.transfer(to, daiAmount));                            // Give dai to user\n    }\n\n    /// @dev Returns chai using chai savings as much as possible, and borrowing the rest.\n    /// This function can only be called by other Yield contracts, not users directly.\n    /// @param to Wallet to send Chai to.\n    /// @param chaiAmount Chai quantity to send.\n    function pullChai(address to, uint256 chaiAmount)\n        public override\n        onlyOrchestrated(\"Treasury: Not Authorized\")\n        onlyLive\n    {\n        uint256 chi = pot.chi();\n        uint256 daiAmount = muldrup(chaiAmount, chi);   // dai = price * chai, we round up, otherwise we won't borrow enough dai\n        uint256 toRelease = Math.min(savings(), daiAmount);\n        // As much chai as the Treasury has, can be used, we borrow dai and convert it to chai for the rest\n\n        uint256 toBorrow = daiAmount - toRelease;    // toRelease can't be greater than daiAmount\n        if (toBorrow > 0) {\n            (, uint256 rate,,,) = vat.ilks(WETH); // Retrieve the MakerDAO stability fee\n            // Increase the dai debt by the dai to receive divided by the stability fee\n            vat.frob(\n                WETH,\n                address(this),\n                address(this),\n                address(this),\n                0,\n                toInt(divdrup(toBorrow, rate))       // We need to round up, otherwise we won't exit toBorrow\n            ); // `vat.frob` reverts on failure\n            daiJoin.exit(address(this), toBorrow);  // `daiJoin` reverts on failures\n            chai.join(address(this), toBorrow);     // Grab chai from Chai, converted from dai\n        }\n\n        require(chai.transfer(to, chaiAmount));                            // Give dai to user\n    }\n\n    /// @dev Moves Weth collateral from Treasury controlled Maker Eth vault to `to` address.\n    /// This function can only be called by other Yield contracts, not users directly.\n    /// @param to Wallet to send Weth to.\n    /// @param wethAmount Weth quantity to send.\n    function pullWeth(address to, uint256 wethAmount)\n        public override\n        onlyOrchestrated(\"Treasury: Not Authorized\")\n        onlyLive\n    {\n        // Remove collateral from vault using frob\n        vat.frob(\n            WETH,\n            address(this),\n            address(this),\n            address(this),\n            -toInt(wethAmount), // Weth collateral to remove - WAD\n            0              // Dai debt to add - WAD\n        );\n        wethJoin.exit(to, wethAmount); // `GemJoin` reverts on failures\n    }\n\n    /// @dev Registers the one contract that will take assets from the Treasury if MakerDAO shuts down.\n    /// This function can only be called by the contract owner, which should only be possible during deployment.\n    /// This function allows Unwind to take all the Chai savings and operate with the Treasury MakerDAO vault.\n    /// @param unwind_ The address of the Unwild.sol contract.\n    function registerUnwind(address unwind_)\n        public\n        onlyOwner\n    {\n        require(\n            unwind == address(0),\n            \"Treasury: Unwind already set\"\n        );\n        unwind = unwind_;\n        chai.approve(address(unwind), uint256(-1)); // Unwind will never cheat on us\n        vat.hope(address(unwind));                  // Unwind will never cheat on us\n    }\n}\n",
  "sourcePath": "/Users/brucedonovan/dev/yield/yDai/contracts/Treasury.sol",
  "compiler": {
    "name": "solc",
    "version": "0.6.10+commit.00c0fcaf.Emscripten.clang"
  },
  "schemaVersion": "3.2.3",
  "updatedAt": "2020-09-11T14:39:56.017Z",
  "networkType": "ethereum",
  "devdoc": {
    "details": "Treasury manages asset transfers between all contracts in the Yield Protocol and other external contracts such as Chai and MakerDAO. Treasury doesn't have any transactional functions available for regular users. All transactional methods are to be available only for orchestrated contracts. Treasury will ensure that all Weth is always stored as collateral in MAkerDAO. Treasury will use all Dai to pay off system debt in MakerDAO first, and if there is no system debt the surplus Dai will be wrapped as Chai. Treasury will use any Chai it holds when requested to provide Dai. If there isn't enough Chai, it will borrow Dai from MakerDAO.",
    "methods": {
      "batchOrchestrate(address,bytes4[])": {
        "details": "Adds orchestration for the provided function signatures"
      },
      "constructor": {
        "details": "As part of the constructor: Treasury allows the `chai` and `wethJoin` contracts to take as many tokens as wanted. Treasury approves the `daiJoin` and `wethJoin` contracts to move assets in MakerDAO."
      },
      "debt()": {
        "details": "Returns the Treasury debt towards MakerDAO, in Dai. We have borrowed (rate * art) Borrowing limit (rate * art) <= (ink * spot)"
      },
      "orchestrate(address,bytes4)": {
        "details": "Add orchestration",
        "params": {
          "signature": "bytes4 signature of the function we are giving orchestrated access to. It seems to me a bad idea to give access to humans, and would use this only for predictable smart contracts.",
          "user": "Address of user or contract having access to this contract."
        }
      },
      "owner()": {
        "details": "Returns the address of the current owner."
      },
      "pullChai(address,uint256)": {
        "details": "Returns chai using chai savings as much as possible, and borrowing the rest. This function can only be called by other Yield contracts, not users directly.",
        "params": {
          "chaiAmount": "Chai quantity to send.",
          "to": "Wallet to send Chai to."
        }
      },
      "pullDai(address,uint256)": {
        "details": "Returns dai using chai savings as much as possible, and borrowing the rest. This function can only be called by other Yield contracts, not users directly.",
        "params": {
          "daiAmount": "Dai quantity to send.",
          "to": "Wallet to send Dai to."
        }
      },
      "pullWeth(address,uint256)": {
        "details": "Moves Weth collateral from Treasury controlled Maker Eth vault to `to` address. This function can only be called by other Yield contracts, not users directly.",
        "params": {
          "to": "Wallet to send Weth to.",
          "wethAmount": "Weth quantity to send."
        }
      },
      "pushChai(address,uint256)": {
        "details": "Takes Chai from user and pays as much system debt as possible, saving the rest as chai. User needs to have approved Treasury to take the Chai. This function can only be called by other Yield contracts, not users directly.",
        "params": {
          "chaiAmount": "Chai quantity to take.",
          "from": "Wallet to take Chai from."
        }
      },
      "pushDai(address,uint256)": {
        "details": "Takes dai from user and pays as much system debt as possible, saving the rest as chai. User needs to have approved Treasury to take the Dai. This function can only be called by other Yield contracts, not users directly.",
        "params": {
          "daiAmount": "Dai quantity to take.",
          "from": "Wallet to take Dai from."
        }
      },
      "pushWeth(address,uint256)": {
        "details": "Takes Weth collateral from user into the Treasury Maker vault User needs to have approved Treasury to take the Weth. This function can only be called by other Yield contracts, not users directly.",
        "params": {
          "from": "Wallet to take Weth from.",
          "wethAmount": "Weth quantity to take."
        }
      },
      "registerUnwind(address)": {
        "details": "Registers the one contract that will take assets from the Treasury if MakerDAO shuts down. This function can only be called by the contract owner, which should only be possible during deployment. This function allows Unwind to take all the Chai savings and operate with the Treasury MakerDAO vault.",
        "params": {
          "unwind_": "The address of the Unwild.sol contract."
        }
      },
      "renounceOwnership()": {
        "details": "Leaves the contract without owner. It will not be possible to call `onlyOwner` functions anymore. Can only be called by the current owner. NOTE: Renouncing ownership will leave the contract without an owner, thereby removing any functionality that is only available to the owner."
      },
      "savings()": {
        "details": "Returns the amount of chai in this contract, converted to Dai."
      },
      "shutdown()": {
        "details": "Disables pulling and pushing. Can only be called if MakerDAO shuts down."
      },
      "transferOwnership(address)": {
        "details": "Transfers ownership of the contract to a new account (`newOwner`). Can only be called by the current owner."
      }
    }
  },
  "userdoc": {
    "methods": {}
  }
}