{
  "contractName": "Treasury",
  "abi": [
    {
      "inputs": [
        {
          "internalType": "address",
          "name": "dai_",
          "type": "address"
        },
        {
          "internalType": "address",
          "name": "chai_",
          "type": "address"
        },
        {
          "internalType": "address",
          "name": "chaiOracle_",
          "type": "address"
        },
        {
          "internalType": "address",
          "name": "weth_",
          "type": "address"
        },
        {
          "internalType": "address",
          "name": "daiJoin_",
          "type": "address"
        },
        {
          "internalType": "address",
          "name": "wethJoin_",
          "type": "address"
        },
        {
          "internalType": "address",
          "name": "vat_",
          "type": "address"
        }
      ],
      "stateMutability": "nonpayable",
      "type": "constructor"
    },
    {
      "anonymous": false,
      "inputs": [
        {
          "indexed": false,
          "internalType": "address",
          "name": "user",
          "type": "address"
        }
      ],
      "name": "GrantedAccess",
      "type": "event"
    },
    {
      "anonymous": false,
      "inputs": [
        {
          "indexed": true,
          "internalType": "address",
          "name": "previousOwner",
          "type": "address"
        },
        {
          "indexed": true,
          "internalType": "address",
          "name": "newOwner",
          "type": "address"
        }
      ],
      "name": "OwnershipTransferred",
      "type": "event"
    },
    {
      "anonymous": false,
      "inputs": [
        {
          "indexed": false,
          "internalType": "address",
          "name": "user",
          "type": "address"
        }
      ],
      "name": "RevokedAccess",
      "type": "event"
    },
    {
      "inputs": [],
      "name": "CHAI",
      "outputs": [
        {
          "internalType": "bytes32",
          "name": "",
          "type": "bytes32"
        }
      ],
      "stateMutability": "view",
      "type": "function",
      "constant": true
    },
    {
      "inputs": [],
      "name": "RAD",
      "outputs": [
        {
          "internalType": "uint8",
          "name": "",
          "type": "uint8"
        }
      ],
      "stateMutability": "view",
      "type": "function",
      "constant": true
    },
    {
      "inputs": [],
      "name": "RAY",
      "outputs": [
        {
          "internalType": "uint8",
          "name": "",
          "type": "uint8"
        }
      ],
      "stateMutability": "view",
      "type": "function",
      "constant": true
    },
    {
      "inputs": [],
      "name": "WAD",
      "outputs": [
        {
          "internalType": "uint8",
          "name": "",
          "type": "uint8"
        }
      ],
      "stateMutability": "view",
      "type": "function",
      "constant": true
    },
    {
      "inputs": [],
      "name": "WETH",
      "outputs": [
        {
          "internalType": "bytes32",
          "name": "",
          "type": "bytes32"
        }
      ],
      "stateMutability": "view",
      "type": "function",
      "constant": true
    },
    {
      "inputs": [
        {
          "internalType": "address",
          "name": "user",
          "type": "address"
        }
      ],
      "name": "grantAccess",
      "outputs": [],
      "stateMutability": "nonpayable",
      "type": "function"
    },
    {
      "inputs": [],
      "name": "live",
      "outputs": [
        {
          "internalType": "bool",
          "name": "",
          "type": "bool"
        }
      ],
      "stateMutability": "view",
      "type": "function",
      "constant": true
    },
    {
      "inputs": [],
      "name": "owner",
      "outputs": [
        {
          "internalType": "address",
          "name": "",
          "type": "address"
        }
      ],
      "stateMutability": "view",
      "type": "function",
      "constant": true
    },
    {
      "inputs": [],
      "name": "renounceOwnership",
      "outputs": [],
      "stateMutability": "nonpayable",
      "type": "function"
    },
    {
      "inputs": [
        {
          "internalType": "address",
          "name": "user",
          "type": "address"
        }
      ],
      "name": "revokeAccess",
      "outputs": [],
      "stateMutability": "nonpayable",
      "type": "function"
    },
    {
      "inputs": [
        {
          "internalType": "address",
          "name": "newOwner",
          "type": "address"
        }
      ],
      "name": "transferOwnership",
      "outputs": [],
      "stateMutability": "nonpayable",
      "type": "function"
    },
    {
      "inputs": [],
      "name": "shutdown",
      "outputs": [],
      "stateMutability": "nonpayable",
      "type": "function"
    },
    {
      "inputs": [],
      "name": "debt",
      "outputs": [
        {
          "internalType": "uint256",
          "name": "",
          "type": "uint256"
        }
      ],
      "stateMutability": "view",
      "type": "function",
      "constant": true
    },
    {
      "inputs": [],
      "name": "power",
      "outputs": [
        {
          "internalType": "uint256",
          "name": "",
          "type": "uint256"
        }
      ],
      "stateMutability": "view",
      "type": "function",
      "constant": true
    },
    {
      "inputs": [],
      "name": "savings",
      "outputs": [
        {
          "internalType": "uint256",
          "name": "",
          "type": "uint256"
        }
      ],
      "stateMutability": "nonpayable",
      "type": "function"
    },
    {
      "inputs": [],
      "name": "pushDai",
      "outputs": [],
      "stateMutability": "nonpayable",
      "type": "function"
    },
    {
      "inputs": [],
      "name": "pushChai",
      "outputs": [],
      "stateMutability": "nonpayable",
      "type": "function"
    },
    {
      "inputs": [
        {
          "internalType": "address",
          "name": "to",
          "type": "address"
        },
        {
          "internalType": "uint256",
          "name": "dai",
          "type": "uint256"
        }
      ],
      "name": "pullDai",
      "outputs": [],
      "stateMutability": "nonpayable",
      "type": "function"
    },
    {
      "inputs": [
        {
          "internalType": "address",
          "name": "to",
          "type": "address"
        },
        {
          "internalType": "uint256",
          "name": "chai",
          "type": "uint256"
        }
      ],
      "name": "pullChai",
      "outputs": [],
      "stateMutability": "nonpayable",
      "type": "function"
    },
    {
      "inputs": [],
      "name": "pushWeth",
      "outputs": [],
      "stateMutability": "nonpayable",
      "type": "function"
    },
    {
      "inputs": [
        {
          "internalType": "address",
          "name": "to",
          "type": "address"
        },
        {
          "internalType": "uint256",
          "name": "weth",
          "type": "uint256"
        }
      ],
      "name": "pullWeth",
      "outputs": [],
      "stateMutability": "nonpayable",
      "type": "function"
    },
    {
      "inputs": [
        {
          "internalType": "address",
          "name": "user",
          "type": "address"
        },
        {
          "internalType": "uint256",
          "name": "weth",
          "type": "uint256"
        },
        {
          "internalType": "uint256",
          "name": "dai",
          "type": "uint256"
        }
      ],
      "name": "fork",
      "outputs": [],
      "stateMutability": "nonpayable",
      "type": "function"
    },
    {
      "inputs": [
        {
          "internalType": "address",
          "name": "dssShutdown_",
          "type": "address"
        }
      ],
      "name": "registerDssShutdown",
      "outputs": [],
      "stateMutability": "nonpayable",
      "type": "function"
    }
  ],
  "bytecode": "0x60806040523480156200001157600080fd5b5060405162004ee438038062004ee4833981810160405260e08110156200003757600080fd5b8101908080519060200190929190805190602001909291908051906020019092919080519060200190929190805190602001909291908051906020019092919080519060200190929190505050600062000096620006a960201b60201c565b9050806000806101000a81548173ffffffffffffffffffffffffffffffffffffffff021916908373ffffffffffffffffffffffffffffffffffffffff1602179055508073ffffffffffffffffffffffffffffffffffffffff16600073ffffffffffffffffffffffffffffffffffffffff167f8be0079c531659141344cd1fd0a4f28419497f9722a3daafe3b4186f6b6457e060405160405180910390a35086600260006101000a81548173ffffffffffffffffffffffffffffffffffffffff021916908373ffffffffffffffffffffffffffffffffffffffff16021790555085600360006101000a81548173ffffffffffffffffffffffffffffffffffffffff021916908373ffffffffffffffffffffffffffffffffffffffff16021790555084600460006101000a81548173ffffffffffffffffffffffffffffffffffffffff021916908373ffffffffffffffffffffffffffffffffffffffff16021790555083600560006101000a81548173ffffffffffffffffffffffffffffffffffffffff021916908373ffffffffffffffffffffffffffffffffffffffff16021790555082600660006101000a81548173ffffffffffffffffffffffffffffffffffffffff021916908373ffffffffffffffffffffffffffffffffffffffff16021790555081600760006101000a81548173ffffffffffffffffffffffffffffffffffffffff021916908373ffffffffffffffffffffffffffffffffffffffff16021790555080600860006101000a81548173ffffffffffffffffffffffffffffffffffffffff021916908373ffffffffffffffffffffffffffffffffffffffff160217905550600860009054906101000a900473ffffffffffffffffffffffffffffffffffffffff1673ffffffffffffffffffffffffffffffffffffffff1663a3b22fc4836040518263ffffffff1660e01b8152600401808273ffffffffffffffffffffffffffffffffffffffff1673ffffffffffffffffffffffffffffffffffffffff168152602001915050600060405180830381600087803b1580156200039d57600080fd5b505af1158015620003b2573d6000803e3d6000fd5b50505050600860009054906101000a900473ffffffffffffffffffffffffffffffffffffffff1673ffffffffffffffffffffffffffffffffffffffff1663a3b22fc4846040518263ffffffff1660e01b8152600401808273ffffffffffffffffffffffffffffffffffffffff1673ffffffffffffffffffffffffffffffffffffffff168152602001915050600060405180830381600087803b1580156200045857600080fd5b505af11580156200046d573d6000803e3d6000fd5b50505050600260009054906101000a900473ffffffffffffffffffffffffffffffffffffffff1673ffffffffffffffffffffffffffffffffffffffff1663095ea7b3877fffffffffffffffffffffffffffffffffffffffffffffffffffffffffffffffff6040518363ffffffff1660e01b8152600401808373ffffffffffffffffffffffffffffffffffffffff1673ffffffffffffffffffffffffffffffffffffffff16815260200182815260200192505050602060405180830381600087803b1580156200053b57600080fd5b505af115801562000550573d6000803e3d6000fd5b505050506040513d60208110156200056757600080fd5b810190808051906020019092919050505050600560009054906101000a900473ffffffffffffffffffffffffffffffffffffffff1673ffffffffffffffffffffffffffffffffffffffff1663095ea7b3837fffffffffffffffffffffffffffffffffffffffffffffffffffffffffffffffff6040518363ffffffff1660e01b8152600401808373ffffffffffffffffffffffffffffffffffffffff1673ffffffffffffffffffffffffffffffffffffffff16815260200182815260200192505050602060405180830381600087803b1580156200064357600080fd5b505af115801562000658573d6000803e3d6000fd5b505050506040513d60208110156200066f57600080fd5b8101908080519060200190929190505050506001600960146101000a81548160ff02191690831515021790555050505050505050620006b1565b600033905090565b61482380620006c16000396000f3fe608060405234801561001057600080fd5b506004361061014d5760003560e01c806385e68531116100c3578063ad5c46481161007c578063ad5c464814610492578063adb987e3146104b0578063b6dbf9ce146104ba578063c86d6ae4146104d8578063f2fde38b146104f6578063fc0e74d11461053a5761014d565b806385e68531146103025780638ac96dfc146103465780638b126e48146103945780638da5cb5b146103d8578063957aa58c146104225780639fa83689146104445761014d565b80634f7eeaac116101155780634f7eeaac146102005780635502770314610258578063552033c4146102a6578063653b8e81146102ca5780636a146024146102d4578063715018a6146102f85761014d565b806306f405fd146101525780630ae5e739146101765780630b6500ee146101ba5780630dca59c1146101c45780634a4d59fa146101e2575b600080fd5b61015a610544565b604051808260ff1660ff16815260200191505060405180910390f35b6101b86004803603602081101561018c57600080fd5b81019080803573ffffffffffffffffffffffffffffffffffffffff169060200190929190505050610549565b005b6101c26106cf565b005b6101cc610b6b565b6040518082815260200191505060405180910390f35b6101ea610d97565b6040518082815260200191505060405180910390f35b6102566004803603606081101561021657600080fd5b81019080803573ffffffffffffffffffffffffffffffffffffffff1690602001909291908035906020019092919080359060200190929190505050610fc3565b005b6102a46004803603604081101561026e57600080fd5b81019080803573ffffffffffffffffffffffffffffffffffffffff169060200190929190803590602001909291905050506117ca565b005b6102ae611ee6565b604051808260ff1660ff16815260200191505060405180910390f35b6102d2611eeb565b005b6102dc612581565b604051808260ff1660ff16815260200191505060405180910390f35b610300612586565b005b6103446004803603602081101561031857600080fd5b81019080803573ffffffffffffffffffffffffffffffffffffffff16906020019092919050505061270e565b005b6103926004803603604081101561035c57600080fd5b81019080803573ffffffffffffffffffffffffffffffffffffffff16906020019092919080359060200190929190505050612895565b005b6103d6600480360360208110156103aa57600080fd5b81019080803573ffffffffffffffffffffffffffffffffffffffff169060200190929190505050612c57565b005b6103e061302a565b604051808273ffffffffffffffffffffffffffffffffffffffff1673ffffffffffffffffffffffffffffffffffffffff16815260200191505060405180910390f35b61042a613053565b604051808215151515815260200191505060405180910390f35b6104906004803603604081101561045a57600080fd5b81019080803573ffffffffffffffffffffffffffffffffffffffff16906020019092919080359060200190929190505050613066565b005b61049a613837565b6040518082815260200191505060405180910390f35b6104b861385b565b005b6104c2613f01565b6040518082815260200191505060405180910390f35b6104e0613f25565b6040518082815260200191505060405180910390f35b6105386004803603602081101561050c57600080fd5b81019080803573ffffffffffffffffffffffffffffffffffffffff169060200190929190505050614008565b005b610542614215565b005b602d81565b61055161435e565b73ffffffffffffffffffffffffffffffffffffffff166000809054906101000a900473ffffffffffffffffffffffffffffffffffffffff1673ffffffffffffffffffffffffffffffffffffffff1614610612576040517f08c379a00000000000000000000000000000000000000000000000000000000081526004018080602001828103825260208152602001807f4f776e61626c653a2063616c6c6572206973206e6f7420746865206f776e657281525060200191505060405180910390fd5b60018060008373ffffffffffffffffffffffffffffffffffffffff1673ffffffffffffffffffffffffffffffffffffffff16815260200190815260200160002060006101000a81548160ff0219169083151502179055507f6a7c5f28ea564fafc8b079663a2a9b9d26fe735d97c97611484ce044f40a16e281604051808273ffffffffffffffffffffffffffffffffffffffff1673ffffffffffffffffffffffffffffffffffffffff16815260200191505060405180910390a150565b6040518060400160405280601881526020017f54726561737572793a204e6f7420417574686f72697a65640000000000000000815250600160003373ffffffffffffffffffffffffffffffffffffffff1673ffffffffffffffffffffffffffffffffffffffff16815260200190815260200160002060009054906101000a900460ff1681906107f9576040517f08c379a00000000000000000000000000000000000000000000000000000000081526004018080602001828103825283818151815260200191508051906020019080838360005b838110156107be5780820151818401526020810190506107a3565b50505050905090810190601f1680156107eb5780820380516001836020036101000a031916815260200191505b509250505060405180910390fd5b5060011515600960149054906101000a900460ff16151514610866576040517f08c379a000000000000000000000000000000000000000000000000000000000815260040180806020018281038252602781526020018061476e6027913960400191505060405180910390fd5b6000600560009054906101000a900473ffffffffffffffffffffffffffffffffffffffff1673ffffffffffffffffffffffffffffffffffffffff166370a08231306040518263ffffffff1660e01b8152600401808273ffffffffffffffffffffffffffffffffffffffff1673ffffffffffffffffffffffffffffffffffffffff16815260200191505060206040518083038186803b15801561090757600080fd5b505afa15801561091b573d6000803e3d6000fd5b505050506040513d602081101561093157600080fd5b81019080805190602001909291905050509050600760009054906101000a900473ffffffffffffffffffffffffffffffffffffffff1673ffffffffffffffffffffffffffffffffffffffff16633b4da69f30836040518363ffffffff1660e01b8152600401808373ffffffffffffffffffffffffffffffffffffffff1673ffffffffffffffffffffffffffffffffffffffff16815260200182815260200192505050600060405180830381600087803b1580156109ed57600080fd5b505af1158015610a01573d6000803e3d6000fd5b50505050600860009054906101000a900473ffffffffffffffffffffffffffffffffffffffff1673ffffffffffffffffffffffffffffffffffffffff1663760887037f4554482d41000000000000000000000000000000000000000000000000000000303030610a7087614366565b60006040518763ffffffff1660e01b8152600401808781526020018673ffffffffffffffffffffffffffffffffffffffff1673ffffffffffffffffffffffffffffffffffffffff1681526020018573ffffffffffffffffffffffffffffffffffffffff1673ffffffffffffffffffffffffffffffffffffffff1681526020018473ffffffffffffffffffffffffffffffffffffffff1673ffffffffffffffffffffffffffffffffffffffff1681526020018381526020018281526020019650505050505050600060405180830381600087803b158015610b4f57600080fd5b505af1158015610b63573d6000803e3d6000fd5b505050505050565b600080600860009054906101000a900473ffffffffffffffffffffffffffffffffffffffff1673ffffffffffffffffffffffffffffffffffffffff1663d9638d366040518163ffffffff1660e01b815260040180807f4554482d41000000000000000000000000000000000000000000000000000000815250602001905060a06040518083038186803b158015610c0157600080fd5b505afa158015610c15573d6000803e3d6000fd5b505050506040513d60a0811015610c2b57600080fd5b8101908080519060200190929190805190602001909291908051906020019092919080519060200190929190805190602001909291905050505050509150506000600860009054906101000a900473ffffffffffffffffffffffffffffffffffffffff1673ffffffffffffffffffffffffffffffffffffffff16632424be5c306040518263ffffffff1660e01b815260040180807f4554482d410000000000000000000000000000000000000000000000000000008152506020018273ffffffffffffffffffffffffffffffffffffffff1673ffffffffffffffffffffffffffffffffffffffff168152602001915050604080518083038186803b158015610d3257600080fd5b505afa158015610d46573d6000803e3d6000fd5b505050506040513d6040811015610d5c57600080fd5b810190808051906020019092919080519060200190929190505050915050610d9082601b836143d89092919063ffffffff16565b9250505090565b600080600860009054906101000a900473ffffffffffffffffffffffffffffffffffffffff1673ffffffffffffffffffffffffffffffffffffffff1663d9638d366040518163ffffffff1660e01b815260040180807f4554482d41000000000000000000000000000000000000000000000000000000815250602001905060a06040518083038186803b158015610e2d57600080fd5b505afa158015610e41573d6000803e3d6000fd5b505050506040513d60a0811015610e5757600080fd5b8101908080519060200190929190805190602001909291908051906020019092919080519060200190929190805190602001909291905050505050925050506000600860009054906101000a900473ffffffffffffffffffffffffffffffffffffffff1673ffffffffffffffffffffffffffffffffffffffff16632424be5c306040518263ffffffff1660e01b815260040180807f4554482d410000000000000000000000000000000000000000000000000000008152506020018273ffffffffffffffffffffffffffffffffffffffff1673ffffffffffffffffffffffffffffffffffffffff168152602001915050604080518083038186803b158015610f5e57600080fd5b505afa158015610f72573d6000803e3d6000fd5b505050506040513d6040811015610f8857600080fd5b810190808051906020019092919080519060200190929190505050509050610fbc82601b836143d89092919063ffffffff16565b9250505090565b6040518060400160405280601881526020017f54726561737572793a204e6f7420417574686f72697a65640000000000000000815250600160003373ffffffffffffffffffffffffffffffffffffffff1673ffffffffffffffffffffffffffffffffffffffff16815260200190815260200160002060009054906101000a900460ff1681906110ed576040517f08c379a00000000000000000000000000000000000000000000000000000000081526004018080602001828103825283818151815260200191508051906020019080838360005b838110156110b2578082015181840152602081019050611097565b50505050905090810190601f1680156110df5780820380516001836020036101000a031916815260200191505b509250505060405180910390fd5b506000600860009054906101000a900473ffffffffffffffffffffffffffffffffffffffff1673ffffffffffffffffffffffffffffffffffffffff1663d9638d366040518163ffffffff1660e01b815260040180807f4554482d41000000000000000000000000000000000000000000000000000000815250602001905060a06040518083038186803b15801561118357600080fd5b505afa158015611197573d6000803e3d6000fd5b505050506040513d60a08110156111ad57600080fd5b81019080805190602001909291908051906020019092919080519060200190929190805190602001909291908051906020019092919050505050505091505060006111ff6111f9610b6b565b85614410565b84039050600081111561150657600860009054906101000a900473ffffffffffffffffffffffffffffffffffffffff1673ffffffffffffffffffffffffffffffffffffffff1663760887037f4554482d41000000000000000000000000000000000000000000000000000000303030600061128e6112898a601b8b6144299092919063ffffffff16565b614366565b6040518763ffffffff1660e01b8152600401808781526020018673ffffffffffffffffffffffffffffffffffffffff1673ffffffffffffffffffffffffffffffffffffffff1681526020018573ffffffffffffffffffffffffffffffffffffffff1673ffffffffffffffffffffffffffffffffffffffff1681526020018473ffffffffffffffffffffffffffffffffffffffff1673ffffffffffffffffffffffffffffffffffffffff1681526020018381526020018281526020019650505050505050600060405180830381600087803b15801561136b57600080fd5b505af115801561137f573d6000803e3d6000fd5b50505050600660009054906101000a900473ffffffffffffffffffffffffffffffffffffffff1673ffffffffffffffffffffffffffffffffffffffff1663ef693bed30836040518363ffffffff1660e01b8152600401808373ffffffffffffffffffffffffffffffffffffffff1673ffffffffffffffffffffffffffffffffffffffff16815260200182815260200192505050600060405180830381600087803b15801561142c57600080fd5b505af1158015611440573d6000803e3d6000fd5b50505050600360009054906101000a900473ffffffffffffffffffffffffffffffffffffffff1673ffffffffffffffffffffffffffffffffffffffff16633b4da69f30836040518363ffffffff1660e01b8152600401808373ffffffffffffffffffffffffffffffffffffffff1673ffffffffffffffffffffffffffffffffffffffff16815260200182815260200192505050600060405180830381600087803b1580156114ed57600080fd5b505af1158015611501573d6000803e3d6000fd5b505050505b600860009054906101000a900473ffffffffffffffffffffffffffffffffffffffff1673ffffffffffffffffffffffffffffffffffffffff1663a3b22fc4876040518263ffffffff1660e01b8152600401808273ffffffffffffffffffffffffffffffffffffffff1673ffffffffffffffffffffffffffffffffffffffff168152602001915050600060405180830381600087803b1580156115a757600080fd5b505af11580156115bb573d6000803e3d6000fd5b50505050600860009054906101000a900473ffffffffffffffffffffffffffffffffffffffff1673ffffffffffffffffffffffffffffffffffffffff1663870c616d7f4554482d4100000000000000000000000000000000000000000000000000000030896116298a614366565b61164761164289601b8d6144299092919063ffffffff16565b614366565b6040518663ffffffff1660e01b8152600401808681526020018573ffffffffffffffffffffffffffffffffffffffff1673ffffffffffffffffffffffffffffffffffffffff1681526020018473ffffffffffffffffffffffffffffffffffffffff1673ffffffffffffffffffffffffffffffffffffffff16815260200183815260200182815260200195505050505050600060405180830381600087803b1580156116f157600080fd5b505af1158015611705573d6000803e3d6000fd5b50505050600860009054906101000a900473ffffffffffffffffffffffffffffffffffffffff1673ffffffffffffffffffffffffffffffffffffffff1663dc4d20fa876040518263ffffffff1660e01b8152600401808273ffffffffffffffffffffffffffffffffffffffff1673ffffffffffffffffffffffffffffffffffffffff168152602001915050600060405180830381600087803b1580156117aa57600080fd5b505af11580156117be573d6000803e3d6000fd5b50505050505050505050565b6040518060400160405280601881526020017f54726561737572793a204e6f7420417574686f72697a65640000000000000000815250600160003373ffffffffffffffffffffffffffffffffffffffff1673ffffffffffffffffffffffffffffffffffffffff16815260200190815260200160002060009054906101000a900460ff1681906118f4576040517f08c379a00000000000000000000000000000000000000000000000000000000081526004018080602001828103825283818151815260200191508051906020019080838360005b838110156118b957808201518184015260208101905061189e565b50505050905090810190601f1680156118e65780820380516001836020036101000a031916815260200191505b509250505060405180910390fd5b5060011515600960149054906101000a900460ff16151514611961576040517f08c379a000000000000000000000000000000000000000000000000000000000815260040180806020018281038252602781526020018061476e6027913960400191505060405180910390fd5b600061197461196e613f25565b84614410565b90506000811115611a4157600360009054906101000a900473ffffffffffffffffffffffffffffffffffffffff1673ffffffffffffffffffffffffffffffffffffffff16634a03707c30836040518363ffffffff1660e01b8152600401808373ffffffffffffffffffffffffffffffffffffffff1673ffffffffffffffffffffffffffffffffffffffff16815260200182815260200192505050600060405180830381600087803b158015611a2857600080fd5b505af1158015611a3c573d6000803e3d6000fd5b505050505b600081840390506000811115611d89576000600860009054906101000a900473ffffffffffffffffffffffffffffffffffffffff1673ffffffffffffffffffffffffffffffffffffffff1663d9638d366040518163ffffffff1660e01b815260040180807f4554482d41000000000000000000000000000000000000000000000000000000815250602001905060a06040518083038186803b158015611ae657600080fd5b505afa158015611afa573d6000803e3d6000fd5b505050506040513d60a0811015611b1057600080fd5b810190808051906020019092919080519060200190929190805190602001909291908051906020019092919080519060200190929190505050505050915050600860009054906101000a900473ffffffffffffffffffffffffffffffffffffffff1673ffffffffffffffffffffffffffffffffffffffff1663760887037f4554482d410000000000000000000000000000000000000000000000000000003030306000611bd1611bcc89601b8c6144299092919063ffffffff16565b614366565b6040518763ffffffff1660e01b8152600401808781526020018673ffffffffffffffffffffffffffffffffffffffff1673ffffffffffffffffffffffffffffffffffffffff1681526020018573ffffffffffffffffffffffffffffffffffffffff1673ffffffffffffffffffffffffffffffffffffffff1681526020018473ffffffffffffffffffffffffffffffffffffffff1673ffffffffffffffffffffffffffffffffffffffff1681526020018381526020018281526020019650505050505050600060405180830381600087803b158015611cae57600080fd5b505af1158015611cc2573d6000803e3d6000fd5b50505050600660009054906101000a900473ffffffffffffffffffffffffffffffffffffffff1673ffffffffffffffffffffffffffffffffffffffff1663ef693bed30846040518363ffffffff1660e01b8152600401808373ffffffffffffffffffffffffffffffffffffffff1673ffffffffffffffffffffffffffffffffffffffff16815260200182815260200192505050600060405180830381600087803b158015611d6f57600080fd5b505af1158015611d83573d6000803e3d6000fd5b50505050505b600260009054906101000a900473ffffffffffffffffffffffffffffffffffffffff1673ffffffffffffffffffffffffffffffffffffffff1663a9059cbb86866040518363ffffffff1660e01b8152600401808373ffffffffffffffffffffffffffffffffffffffff1673ffffffffffffffffffffffffffffffffffffffff16815260200182815260200192505050602060405180830381600087803b158015611e3257600080fd5b505af1158015611e46573d6000803e3d6000fd5b505050506040513d6020811015611e5c57600080fd5b8101908080519060200190929190505050611edf576040517f08c379a000000000000000000000000000000000000000000000000000000000815260040180806020018281038252601b8152602001807f54726561737572793a20446169207472616e73666572206661696c000000000081525060200191505060405180910390fd5b5050505050565b601b81565b6040518060400160405280601881526020017f54726561737572793a204e6f7420417574686f72697a65640000000000000000815250600160003373ffffffffffffffffffffffffffffffffffffffff1673ffffffffffffffffffffffffffffffffffffffff16815260200190815260200160002060009054906101000a900460ff168190612015576040517f08c379a00000000000000000000000000000000000000000000000000000000081526004018080602001828103825283818151815260200191508051906020019080838360005b83811015611fda578082015181840152602081019050611fbf565b50505050905090810190601f1680156120075780820380516001836020036101000a031916815260200191505b509250505060405180910390fd5b5060011515600960149054906101000a900460ff16151514612082576040517f08c379a000000000000000000000000000000000000000000000000000000000815260040180806020018281038252602781526020018061476e6027913960400191505060405180910390fd5b6000600360009054906101000a900473ffffffffffffffffffffffffffffffffffffffff1673ffffffffffffffffffffffffffffffffffffffff16636c25b346306040518263ffffffff1660e01b8152600401808273ffffffffffffffffffffffffffffffffffffffff1673ffffffffffffffffffffffffffffffffffffffff168152602001915050602060405180830381600087803b15801561212557600080fd5b505af1158015612139573d6000803e3d6000fd5b505050506040513d602081101561214f57600080fd5b81019080805190602001909291905050509050600061217561216f610b6b565b83614410565b9050600081111561257c57600360009054906101000a900473ffffffffffffffffffffffffffffffffffffffff1673ffffffffffffffffffffffffffffffffffffffff16634a03707c30836040518363ffffffff1660e01b8152600401808373ffffffffffffffffffffffffffffffffffffffff1673ffffffffffffffffffffffffffffffffffffffff16815260200182815260200192505050600060405180830381600087803b15801561222957600080fd5b505af115801561223d573d6000803e3d6000fd5b50505050600660009054906101000a900473ffffffffffffffffffffffffffffffffffffffff1673ffffffffffffffffffffffffffffffffffffffff16633b4da69f30836040518363ffffffff1660e01b8152600401808373ffffffffffffffffffffffffffffffffffffffff1673ffffffffffffffffffffffffffffffffffffffff16815260200182815260200192505050600060405180830381600087803b1580156122ea57600080fd5b505af11580156122fe573d6000803e3d6000fd5b505050506000600860009054906101000a900473ffffffffffffffffffffffffffffffffffffffff1673ffffffffffffffffffffffffffffffffffffffff1663d9638d366040518163ffffffff1660e01b815260040180807f4554482d41000000000000000000000000000000000000000000000000000000815250602001905060a06040518083038186803b15801561239757600080fd5b505afa1580156123ab573d6000803e3d6000fd5b505050506040513d60a08110156123c157600080fd5b810190808051906020019092919080519060200190929190805190602001909291908051906020019092919080519060200190929190505050505050915050600860009054906101000a900473ffffffffffffffffffffffffffffffffffffffff1673ffffffffffffffffffffffffffffffffffffffff1663760887037f4554482d41000000000000000000000000000000000000000000000000000000303030600061248261247d89601b8c6144299092919063ffffffff16565b614366565b6000036040518763ffffffff1660e01b8152600401808781526020018673ffffffffffffffffffffffffffffffffffffffff1673ffffffffffffffffffffffffffffffffffffffff1681526020018573ffffffffffffffffffffffffffffffffffffffff1673ffffffffffffffffffffffffffffffffffffffff1681526020018473ffffffffffffffffffffffffffffffffffffffff1673ffffffffffffffffffffffffffffffffffffffff1681526020018381526020018281526020019650505050505050600060405180830381600087803b15801561256257600080fd5b505af1158015612576573d6000803e3d6000fd5b50505050505b505050565b601281565b61258e61435e565b73ffffffffffffffffffffffffffffffffffffffff166000809054906101000a900473ffffffffffffffffffffffffffffffffffffffff1673ffffffffffffffffffffffffffffffffffffffff161461264f576040517f08c379a00000000000000000000000000000000000000000000000000000000081526004018080602001828103825260208152602001807f4f776e61626c653a2063616c6c6572206973206e6f7420746865206f776e657281525060200191505060405180910390fd5b600073ffffffffffffffffffffffffffffffffffffffff166000809054906101000a900473ffffffffffffffffffffffffffffffffffffffff1673ffffffffffffffffffffffffffffffffffffffff167f8be0079c531659141344cd1fd0a4f28419497f9722a3daafe3b4186f6b6457e060405160405180910390a360008060006101000a81548173ffffffffffffffffffffffffffffffffffffffff021916908373ffffffffffffffffffffffffffffffffffffffff160217905550565b61271661435e565b73ffffffffffffffffffffffffffffffffffffffff166000809054906101000a900473ffffffffffffffffffffffffffffffffffffffff1673ffffffffffffffffffffffffffffffffffffffff16146127d7576040517f08c379a00000000000000000000000000000000000000000000000000000000081526004018080602001828103825260208152602001807f4f776e61626c653a2063616c6c6572206973206e6f7420746865206f776e657281525060200191505060405180910390fd5b6000600160008373ffffffffffffffffffffffffffffffffffffffff1673ffffffffffffffffffffffffffffffffffffffff16815260200190815260200160002060006101000a81548160ff0219169083151502179055507fa3458b95c7eaa39f5f81c99d512823ec3e1372cd42b56f5239e15ac1752d55ad81604051808273ffffffffffffffffffffffffffffffffffffffff1673ffffffffffffffffffffffffffffffffffffffff16815260200191505060405180910390a150565b6040518060400160405280601881526020017f54726561737572793a204e6f7420417574686f72697a65640000000000000000815250600160003373ffffffffffffffffffffffffffffffffffffffff1673ffffffffffffffffffffffffffffffffffffffff16815260200190815260200160002060009054906101000a900460ff1681906129bf576040517f08c379a00000000000000000000000000000000000000000000000000000000081526004018080602001828103825283818151815260200191508051906020019080838360005b83811015612984578082015181840152602081019050612969565b50505050905090810190601f1680156129b15780820380516001836020036101000a031916815260200191505b509250505060405180910390fd5b5060011515600960149054906101000a900460ff16151514612a2c576040517f08c379a000000000000000000000000000000000000000000000000000000000815260040180806020018281038252602781526020018061476e6027913960400191505060405180910390fd5b600860009054906101000a900473ffffffffffffffffffffffffffffffffffffffff1673ffffffffffffffffffffffffffffffffffffffff1663760887037f4554482d41000000000000000000000000000000000000000000000000000000303030612a9788614366565b60000360006040518763ffffffff1660e01b8152600401808781526020018673ffffffffffffffffffffffffffffffffffffffff1673ffffffffffffffffffffffffffffffffffffffff1681526020018573ffffffffffffffffffffffffffffffffffffffff1673ffffffffffffffffffffffffffffffffffffffff1681526020018473ffffffffffffffffffffffffffffffffffffffff1673ffffffffffffffffffffffffffffffffffffffff1681526020018381526020018281526020019650505050505050600060405180830381600087803b158015612b7957600080fd5b505af1158015612b8d573d6000803e3d6000fd5b50505050600760009054906101000a900473ffffffffffffffffffffffffffffffffffffffff1673ffffffffffffffffffffffffffffffffffffffff1663ef693bed84846040518363ffffffff1660e01b8152600401808373ffffffffffffffffffffffffffffffffffffffff1673ffffffffffffffffffffffffffffffffffffffff16815260200182815260200192505050600060405180830381600087803b158015612c3a57600080fd5b505af1158015612c4e573d6000803e3d6000fd5b50505050505050565b612c5f61435e565b73ffffffffffffffffffffffffffffffffffffffff166000809054906101000a900473ffffffffffffffffffffffffffffffffffffffff1673ffffffffffffffffffffffffffffffffffffffff1614612d20576040517f08c379a00000000000000000000000000000000000000000000000000000000081526004018080602001828103825260208152602001807f4f776e61626c653a2063616c6c6572206973206e6f7420746865206f776e657281525060200191505060405180910390fd5b600073ffffffffffffffffffffffffffffffffffffffff16600960009054906101000a900473ffffffffffffffffffffffffffffffffffffffff1673ffffffffffffffffffffffffffffffffffffffff1614612de4576040517f08c379a000000000000000000000000000000000000000000000000000000000815260040180806020018281038252601e8152602001807f54726561737572793a2053687574646f776e20616c726561647920736574000081525060200191505060405180910390fd5b80600960006101000a81548173ffffffffffffffffffffffffffffffffffffffff021916908373ffffffffffffffffffffffffffffffffffffffff160217905550600360009054906101000a900473ffffffffffffffffffffffffffffffffffffffff1673ffffffffffffffffffffffffffffffffffffffff1663095ea7b3600960009054906101000a900473ffffffffffffffffffffffffffffffffffffffff167fffffffffffffffffffffffffffffffffffffffffffffffffffffffffffffffff6040518363ffffffff1660e01b8152600401808373ffffffffffffffffffffffffffffffffffffffff1673ffffffffffffffffffffffffffffffffffffffff16815260200182815260200192505050602060405180830381600087803b158015612f1057600080fd5b505af1158015612f24573d6000803e3d6000fd5b505050506040513d6020811015612f3a57600080fd5b810190808051906020019092919050505050600860009054906101000a900473ffffffffffffffffffffffffffffffffffffffff1673ffffffffffffffffffffffffffffffffffffffff1663a3b22fc4600960009054906101000a900473ffffffffffffffffffffffffffffffffffffffff166040518263ffffffff1660e01b8152600401808273ffffffffffffffffffffffffffffffffffffffff1673ffffffffffffffffffffffffffffffffffffffff168152602001915050600060405180830381600087803b15801561300f57600080fd5b505af1158015613023573d6000803e3d6000fd5b5050505050565b60008060009054906101000a900473ffffffffffffffffffffffffffffffffffffffff16905090565b600960149054906101000a900460ff1681565b6040518060400160405280601881526020017f54726561737572793a204e6f7420417574686f72697a65640000000000000000815250600160003373ffffffffffffffffffffffffffffffffffffffff1673ffffffffffffffffffffffffffffffffffffffff16815260200190815260200160002060009054906101000a900460ff168190613190576040517f08c379a00000000000000000000000000000000000000000000000000000000081526004018080602001828103825283818151815260200191508051906020019080838360005b8381101561315557808201518184015260208101905061313a565b50505050905090810190601f1680156131825780820380516001836020036101000a031916815260200191505b509250505060405180910390fd5b5060011515600960149054906101000a900460ff161515146131fd576040517f08c379a000000000000000000000000000000000000000000000000000000000815260040180806020018281038252602781526020018061476e6027913960400191505060405180910390fd5b60006132b9600460009054906101000a900473ffffffffffffffffffffffffffffffffffffffff1673ffffffffffffffffffffffffffffffffffffffff1663a035b1fe6040518163ffffffff1660e01b8152600401602060405180830381600087803b15801561326c57600080fd5b505af1158015613280573d6000803e3d6000fd5b505050506040513d602081101561329657600080fd5b8101908080519060200190929190505050601b856143d89092919063ffffffff16565b905060006132ce6132c8613f25565b83614410565b90506000818303905060008111156136d9576000600860009054906101000a900473ffffffffffffffffffffffffffffffffffffffff1673ffffffffffffffffffffffffffffffffffffffff1663d9638d366040518163ffffffff1660e01b815260040180807f4554482d41000000000000000000000000000000000000000000000000000000815250602001905060a06040518083038186803b15801561337557600080fd5b505afa158015613389573d6000803e3d6000fd5b505050506040513d60a081101561339f57600080fd5b810190808051906020019092919080519060200190929190805190602001909291908051906020019092919080519060200190929190505050505050915050600860009054906101000a900473ffffffffffffffffffffffffffffffffffffffff1673ffffffffffffffffffffffffffffffffffffffff1663760887037f4554482d41000000000000000000000000000000000000000000000000000000303030600061346061345b89601b8c6144299092919063ffffffff16565b614366565b6040518763ffffffff1660e01b8152600401808781526020018673ffffffffffffffffffffffffffffffffffffffff1673ffffffffffffffffffffffffffffffffffffffff1681526020018573ffffffffffffffffffffffffffffffffffffffff1673ffffffffffffffffffffffffffffffffffffffff1681526020018473ffffffffffffffffffffffffffffffffffffffff1673ffffffffffffffffffffffffffffffffffffffff1681526020018381526020018281526020019650505050505050600060405180830381600087803b15801561353d57600080fd5b505af1158015613551573d6000803e3d6000fd5b50505050600660009054906101000a900473ffffffffffffffffffffffffffffffffffffffff1673ffffffffffffffffffffffffffffffffffffffff1663ef693bed30846040518363ffffffff1660e01b8152600401808373ffffffffffffffffffffffffffffffffffffffff1673ffffffffffffffffffffffffffffffffffffffff16815260200182815260200192505050600060405180830381600087803b1580156135fe57600080fd5b505af1158015613612573d6000803e3d6000fd5b50505050600360009054906101000a900473ffffffffffffffffffffffffffffffffffffffff1673ffffffffffffffffffffffffffffffffffffffff16633b4da69f30846040518363ffffffff1660e01b8152600401808373ffffffffffffffffffffffffffffffffffffffff1673ffffffffffffffffffffffffffffffffffffffff16815260200182815260200192505050600060405180830381600087803b1580156136bf57600080fd5b505af11580156136d3573d6000803e3d6000fd5b50505050505b600360009054906101000a900473ffffffffffffffffffffffffffffffffffffffff1673ffffffffffffffffffffffffffffffffffffffff1663a9059cbb87876040518363ffffffff1660e01b8152600401808373ffffffffffffffffffffffffffffffffffffffff1673ffffffffffffffffffffffffffffffffffffffff16815260200182815260200192505050602060405180830381600087803b15801561378257600080fd5b505af1158015613796573d6000803e3d6000fd5b505050506040513d60208110156137ac57600080fd5b810190808051906020019092919050505061382f576040517f08c379a000000000000000000000000000000000000000000000000000000000815260040180806020018281038252601c8152602001807f54726561737572793a2043686169207472616e73666572206661696c0000000081525060200191505060405180910390fd5b505050505050565b7f574554480000000000000000000000000000000000000000000000000000000081565b6040518060400160405280601881526020017f54726561737572793a204e6f7420417574686f72697a65640000000000000000815250600160003373ffffffffffffffffffffffffffffffffffffffff1673ffffffffffffffffffffffffffffffffffffffff16815260200190815260200160002060009054906101000a900460ff168190613985576040517f08c379a00000000000000000000000000000000000000000000000000000000081526004018080602001828103825283818151815260200191508051906020019080838360005b8381101561394a57808201518184015260208101905061392f565b50505050905090810190601f1680156139775780820380516001836020036101000a031916815260200191505b509250505060405180910390fd5b5060011515600960149054906101000a900460ff161515146139f2576040517f08c379a000000000000000000000000000000000000000000000000000000000815260040180806020018281038252602781526020018061476e6027913960400191505060405180910390fd5b6000600260009054906101000a900473ffffffffffffffffffffffffffffffffffffffff1673ffffffffffffffffffffffffffffffffffffffff166370a08231306040518263ffffffff1660e01b8152600401808273ffffffffffffffffffffffffffffffffffffffff1673ffffffffffffffffffffffffffffffffffffffff16815260200191505060206040518083038186803b158015613a9357600080fd5b505afa158015613aa7573d6000803e3d6000fd5b505050506040513d6020811015613abd57600080fd5b810190808051906020019092919050505090506000613ae3613add610b6b565b83614410565b90506000811115613e2957600660009054906101000a900473ffffffffffffffffffffffffffffffffffffffff1673ffffffffffffffffffffffffffffffffffffffff16633b4da69f30836040518363ffffffff1660e01b8152600401808373ffffffffffffffffffffffffffffffffffffffff1673ffffffffffffffffffffffffffffffffffffffff16815260200182815260200192505050600060405180830381600087803b158015613b9757600080fd5b505af1158015613bab573d6000803e3d6000fd5b505050506000600860009054906101000a900473ffffffffffffffffffffffffffffffffffffffff1673ffffffffffffffffffffffffffffffffffffffff1663d9638d366040518163ffffffff1660e01b815260040180807f4554482d41000000000000000000000000000000000000000000000000000000815250602001905060a06040518083038186803b158015613c4457600080fd5b505afa158015613c58573d6000803e3d6000fd5b505050506040513d60a0811015613c6e57600080fd5b810190808051906020019092919080519060200190929190805190602001909291908051906020019092919080519060200190929190505050505050915050600860009054906101000a900473ffffffffffffffffffffffffffffffffffffffff1673ffffffffffffffffffffffffffffffffffffffff1663760887037f4554482d410000000000000000000000000000000000000000000000000000003030306000613d2f613d2a89601b8c6144299092919063ffffffff16565b614366565b6000036040518763ffffffff1660e01b8152600401808781526020018673ffffffffffffffffffffffffffffffffffffffff1673ffffffffffffffffffffffffffffffffffffffff1681526020018573ffffffffffffffffffffffffffffffffffffffff1673ffffffffffffffffffffffffffffffffffffffff1681526020018473ffffffffffffffffffffffffffffffffffffffff1673ffffffffffffffffffffffffffffffffffffffff1681526020018381526020018281526020019650505050505050600060405180830381600087803b158015613e0f57600080fd5b505af1158015613e23573d6000803e3d6000fd5b50505050505b600081830390506000811115613efb57600360009054906101000a900473ffffffffffffffffffffffffffffffffffffffff1673ffffffffffffffffffffffffffffffffffffffff16633b4da69f30836040518363ffffffff1660e01b8152600401808373ffffffffffffffffffffffffffffffffffffffff1673ffffffffffffffffffffffffffffffffffffffff16815260200182815260200192505050600060405180830381600087803b158015613ee257600080fd5b505af1158015613ef6573d6000803e3d6000fd5b505050505b50505050565b7f434841490000000000000000000000000000000000000000000000000000000081565b6000600360009054906101000a900473ffffffffffffffffffffffffffffffffffffffff1673ffffffffffffffffffffffffffffffffffffffff16636c25b346306040518263ffffffff1660e01b8152600401808273ffffffffffffffffffffffffffffffffffffffff1673ffffffffffffffffffffffffffffffffffffffff168152602001915050602060405180830381600087803b158015613fc857600080fd5b505af1158015613fdc573d6000803e3d6000fd5b505050506040513d6020811015613ff257600080fd5b8101908080519060200190929190505050905090565b61401061435e565b73ffffffffffffffffffffffffffffffffffffffff166000809054906101000a900473ffffffffffffffffffffffffffffffffffffffff1673ffffffffffffffffffffffffffffffffffffffff16146140d1576040517f08c379a00000000000000000000000000000000000000000000000000000000081526004018080602001828103825260208152602001807f4f776e61626c653a2063616c6c6572206973206e6f7420746865206f776e657281525060200191505060405180910390fd5b600073ffffffffffffffffffffffffffffffffffffffff168173ffffffffffffffffffffffffffffffffffffffff161415614157576040517f08c379a000000000000000000000000000000000000000000000000000000000815260040180806020018281038252602681526020018061470d6026913960400191505060405180910390fd5b8073ffffffffffffffffffffffffffffffffffffffff166000809054906101000a900473ffffffffffffffffffffffffffffffffffffffff1673ffffffffffffffffffffffffffffffffffffffff167f8be0079c531659141344cd1fd0a4f28419497f9722a3daafe3b4186f6b6457e060405160405180910390a3806000806101000a81548173ffffffffffffffffffffffffffffffffffffffff021916908373ffffffffffffffffffffffffffffffffffffffff16021790555050565b6040518060400160405280601881526020017f54726561737572793a204e6f7420417574686f72697a65640000000000000000815250600160003373ffffffffffffffffffffffffffffffffffffffff1673ffffffffffffffffffffffffffffffffffffffff16815260200190815260200160002060009054906101000a900460ff16819061433f576040517f08c379a00000000000000000000000000000000000000000000000000000000081526004018080602001828103825283818151815260200191508051906020019080838360005b838110156143045780820151818401526020810190506142e9565b50505050905090810190601f1680156143315780820380516001836020036101000a031916815260200191505b509250505060405180910390fd5b506000600960146101000a81548160ff02191690831515021790555050565b600033905090565b6000614378614373614461565b614489565b8211156143d0576040517f08c379a000000000000000000000000000000000000000000000000000000000815260040180806020018281038252603b815260200180614733603b913960400191505060405180910390fd5b819050919050565b60006144076143e6836144ec565b6143f9858761457690919063ffffffff16565b6145fc90919063ffffffff16565b90509392505050565b600081831061441f5781614421565b825b905092915050565b60006144588361444a61443b856144ec565b8761457690919063ffffffff16565b6145fc90919063ffffffff16565b90509392505050565b60007f7fffffffffffffffffffffffffffffffffffffffffffffffffffffffffffffff905090565b6000808212156144e4576040517f08c379a00000000000000000000000000000000000000000000000000000000081526004018080602001828103825260388152602001806147956038913960400191505060405180910390fd5b819050919050565b6000604d8260ff161115614568576040517f08c379a00000000000000000000000000000000000000000000000000000000081526004018080602001828103825260118152602001807f546f6f206d616e7920646563696d616c7300000000000000000000000000000081525060200191505060405180910390fd5b8160ff16600a0a9050919050565b60008083141561458957600090506145f6565b600082840290508284828161459a57fe5b04146145f1576040517f08c379a00000000000000000000000000000000000000000000000000000000081526004018080602001828103825260218152602001806147cd6021913960400191505060405180910390fd5b809150505b92915050565b600061463e83836040518060400160405280601a81526020017f536166654d6174683a206469766973696f6e206279207a65726f000000000000815250614646565b905092915050565b600080831182906146f2576040517f08c379a00000000000000000000000000000000000000000000000000000000081526004018080602001828103825283818151815260200191508051906020019080838360005b838110156146b757808201518184015260208101905061469c565b50505050905090810190601f1680156146e45780820380516001836020036101000a031916815260200191505b509250505060405180910390fd5b5060008385816146fe57fe5b04905080915050939250505056fe4f776e61626c653a206e6577206f776e657220697320746865207a65726f206164647265737343616e6e6f742063617374206f766572666c6f77696e6720756e7369676e656420696e746567657220746f207369676e656420696e74656765722e54726561737572793a204e6f7420617661696c61626c6520647572696e672073687574646f776e43616e6e6f742063617374206e65676174697665207369676e656420696e746567657220746f20756e7369676e656420696e74656765722e536166654d6174683a206d756c7469706c69636174696f6e206f766572666c6f77a26469706673582212209cf07abffc2d8dc3499ae34742a643ea0704d185427ee944beeded8f60725d3e64736f6c63430006020033",
  "source": "pragma solidity ^0.6.0;\n\nimport \"@hq20/contracts/contracts/access/AuthorizedAccess.sol\";\nimport \"@hq20/contracts/contracts/math/DecimalMath.sol\";\nimport \"@hq20/contracts/contracts/utils/SafeCast.sol\";\nimport \"@openzeppelin/contracts/access/Ownable.sol\";\nimport \"@openzeppelin/contracts/math/Math.sol\";\nimport \"@openzeppelin/contracts/token/ERC20/IERC20.sol\";\nimport \"./interfaces/IDaiJoin.sol\";\nimport \"./interfaces/IGemJoin.sol\";\nimport \"./interfaces/IVat.sol\";\nimport \"./interfaces/IChai.sol\";\nimport \"./interfaces/IOracle.sol\";\nimport \"./interfaces/ITreasury.sol\";\nimport \"./Constants.sol\";\nimport \"@nomiclabs/buidler/console.sol\";\n\n\n/// @dev Treasury manages the Dai, interacting with MakerDAO's vat and chai when needed.\ncontract Treasury is ITreasury, AuthorizedAccess(), Constants() {\n    using DecimalMath for uint256;\n    using DecimalMath for int256;\n    using DecimalMath for uint8;\n    using SafeCast for uint256;\n    using SafeCast for int256;\n\n    bytes32 constant collateralType = \"ETH-A\";\n\n    IERC20 internal _dai;\n    IChai internal _chai;\n    IOracle internal _chaiOracle;\n    IERC20 internal _weth;\n    IDaiJoin internal _daiJoin;\n    IGemJoin internal _wethJoin;\n    IVat internal _vat;\n    address internal _dssShutdown;\n\n    bool public live;\n\n    constructor (\n        address dai_,\n        address chai_,\n        address chaiOracle_,\n        address weth_,\n        address daiJoin_,\n        address wethJoin_,\n        address vat_\n    ) public {\n        // These could be hardcoded for mainnet deployment.\n        _dai = IERC20(dai_);\n        _chai = IChai(chai_);\n        _chaiOracle = IOracle(chaiOracle_);\n        _weth = IERC20(weth_);\n        _daiJoin = IDaiJoin(daiJoin_);\n        _wethJoin = IGemJoin(wethJoin_);\n        _vat = IVat(vat_);\n        _vat.hope(wethJoin_);\n        _vat.hope(daiJoin_);\n\n        // TODO: Fix for migrations\n        _dai.approve(chai_, uint256(-1));      // Chai will never cheat on us\n        _weth.approve(wethJoin_, uint256(-1)); // WethJoin will never cheat on us\n\n        live = true;\n    }\n\n    modifier onlyLive() {\n        require(live == true, \"Treasury: Not available during shutdown\");\n        _;\n    }\n\n    /// @dev Disables pulling and pushing. To be called only by shutdown management contracts.\n    function shutdown() public override onlyAuthorized(\"Treasury: Not Authorized\") {\n        live = false;\n    }\n\n    /// @dev Returns the Treasury debt towards MakerDAO, as the dai borrowed times the stability fee for Weth.\n    /// We have borrowed (rate * art)\n    /// Borrowing Limit (rate * art) <= (ink * spot)\n    function debt() public view override returns(uint256) {\n        (, uint256 rate,,,) = _vat.ilks(\"ETH-A\");            // Retrieve the MakerDAO stability fee for Weth\n        (, uint256 art) = _vat.urns(\"ETH-A\", address(this)); // Retrieve the Treasury debt in MakerDAO\n        return art.muld(rate, RAY);\n    }\n\n    /// @dev Returns the Treasury borrowing capacity from MakerDAO, as the collateral posted times the collateralization ratio for Weth.\n    /// We can borrow (ink * spot)\n    function power() public view returns(uint256) {\n        (,, uint256 spot,,) = _vat.ilks(\"ETH-A\");            // Collateralization ratio for Weth\n        (uint256 ink,) = _vat.urns(\"ETH-A\", address(this));  // Treasury Weth collateral in MakerDAO\n        return ink.muld(spot, RAY);\n    }\n\n    /// @dev Returns the amount of Dai in this contract.\n    function savings() public override returns(uint256){\n        return _chai.dai(address(this));\n    }\n\n    /// @dev Pays as much system debt as possible from the Treasury dai balance, saving the rest as chai.\n    function pushDai() public override onlyAuthorized(\"Treasury: Not Authorized\") onlyLive  {\n        uint256 dai = _dai.balanceOf(address(this));\n\n        uint256 toRepay = Math.min(debt(), dai);\n        if (toRepay > 0) {\n            _daiJoin.join(address(this), toRepay);\n            // Remove debt from vault using frob\n            (, uint256 rate,,,) = _vat.ilks(\"ETH-A\"); // Retrieve the MakerDAO stability fee\n            _vat.frob(\n                collateralType,\n                address(this),\n                address(this),\n                address(this),\n                0,                           // Weth collateral to add\n                -toRepay.divd(rate, RAY).toInt() // Dai debt to remove\n            );\n        }\n\n        uint256 toSave = dai - toRepay;         // toRepay can't be greater than dai\n        if (toSave > 0) {\n            _chai.join(address(this), toSave);    // Give dai to Chai, take chai back\n        }\n    }\n\n    /// @dev Pays as much system debt as possible from the Treasury chai balance, saving the rest as chai.\n    function pushChai() public override onlyAuthorized(\"Treasury: Not Authorized\") onlyLive  {\n        uint256 dai = _chai.dai(address(this));\n\n        uint256 toRepay = Math.min(debt(), dai);\n        if (toRepay > 0) {\n            _chai.draw(address(this), toRepay);     // Grab dai from Chai, converted from chai\n            _daiJoin.join(address(this), toRepay);\n            // Remove debt from vault using frob\n            (, uint256 rate,,,) = _vat.ilks(\"ETH-A\"); // Retrieve the MakerDAO stability fee\n            _vat.frob(\n                collateralType,\n                address(this),\n                address(this),\n                address(this),\n                0,                           // Weth collateral to add\n                -toRepay.divd(rate, RAY).toInt() // Dai debt to remove\n            );\n        }\n        // Anything that is left from repaying, is chai savings\n    }\n\n    /// @dev Returns dai using chai savings as much as possible, and borrowing the rest.\n    function pullDai(address to, uint256 dai) public override onlyAuthorized(\"Treasury: Not Authorized\") onlyLive  {\n        uint256 toRelease = Math.min(savings(), dai);\n        if (toRelease > 0) {\n            _chai.draw(address(this), toRelease);     // Grab dai from Chai, converted from chai\n        }\n\n        uint256 toBorrow = dai - toRelease;    // toRelease can't be greater than dai\n        if (toBorrow > 0) {\n            (, uint256 rate,,,) = _vat.ilks(\"ETH-A\"); // Retrieve the MakerDAO stability fee\n            // Increase the dai debt by the dai to receive divided by the stability fee\n            _vat.frob(\n                collateralType,\n                address(this),\n                address(this),\n                address(this),\n                0,\n                toBorrow.divd(rate, RAY).toInt()\n            ); // `vat.frob` reverts on failure\n            _daiJoin.exit(address(this), toBorrow); // `daiJoin` reverts on failures\n        }\n\n        require(                            // Give dai to user\n            _dai.transfer(to, dai),\n            \"Treasury: Dai transfer fail\"\n        );\n    }\n\n    /// @dev Returns chai using chai savings as much as possible, and borrowing the rest.\n    function pullChai(address to, uint256 chai) public override onlyAuthorized(\"Treasury: Not Authorized\") onlyLive  {\n        uint256 dai = chai.muld(_chaiOracle.price(), RAY);   // dai = price * chai\n        uint256 toRelease = Math.min(savings(), dai);\n        // As much chai as the Treasury has, can be used, we borrwo dai and convert it to chai for the rest\n\n        uint256 toBorrow = dai - toRelease;    // toRelease can't be greater than dai\n        if (toBorrow > 0) {\n            (, uint256 rate,,,) = _vat.ilks(\"ETH-A\"); // Retrieve the MakerDAO stability fee\n            // Increase the dai debt by the dai to receive divided by the stability fee\n            _vat.frob(\n                collateralType,\n                address(this),\n                address(this),\n                address(this),\n                0,\n                toBorrow.divd(rate, RAY).toInt()\n            ); // `vat.frob` reverts on failure\n            _daiJoin.exit(address(this), toBorrow);  // `daiJoin` reverts on failures\n            _chai.join(address(this), toBorrow);     // Grab chai from Chai, converted from dai\n        }\n\n        require(                            // Give dai to user\n            _chai.transfer(to, chai),\n            \"Treasury: Chai transfer fail\"\n        );\n    }\n\n    /// @dev Moves all Weth collateral from Treasury into Maker\n    function pushWeth() public override onlyAuthorized(\"Treasury: Not Authorized\") onlyLive  {\n        uint256 weth = _weth.balanceOf(address(this));\n\n        _wethJoin.join(address(this), weth); // GemJoin reverts if anything goes wrong.\n        // All added collateral should be locked into the vault using frob\n        _vat.frob(\n            collateralType,\n            address(this),\n            address(this),\n            address(this),\n            weth.toInt(), // Collateral to add - WAD\n            0 // Normalized Dai to receive - WAD\n        );\n    }\n\n    /// @dev Moves Weth collateral from Treasury controlled Maker Eth vault to `to` address.\n    function pullWeth(address to, uint256 weth) public override onlyAuthorized(\"Treasury: Not Authorized\") onlyLive  {\n        // Remove collateral from vault using frob\n        _vat.frob(\n            collateralType,\n            address(this),\n            address(this),\n            address(this),\n            -weth.toInt(), // Weth collateral to remove - WAD\n            0              // Dai debt to add - WAD\n        );\n        _wethJoin.exit(to, weth); // `GemJoin` reverts on failures\n    }\n\n    /// @dev Moves dai debt and weth collateral from Treasury to `user` in MakerDAO\n    /// Needs to be surrounded by `vat.hope(treasury.address)` and `vat.nope(treasury.address)`\n    /// Only the Dealer can call `transferPosition`, to avoid transferring more debt than an user has.\n    /// The `dai` parameter is measured in normalized dai, not in the units used in `vat.urns(ilk, user)).art`.\n    function fork(address user, uint256 weth, uint256 dai)\n        public override onlyAuthorized(\"Treasury: Not Authorized\")\n    {\n        // If the Treasury doesn't have enough debt, it needs to borrow dai, which becomes chai savings.\n        (, uint256 rate,,,) = _vat.ilks(\"ETH-A\"); // Retrieve the MakerDAO stability fee\n        uint256 toBorrow = dai - Math.min(debt(), dai);\n        if (toBorrow > 0) {\n            _vat.frob(\n                collateralType,\n                address(this),\n                address(this),\n                address(this),\n                0,\n                toBorrow.divd(rate, RAY).toInt()\n            ); // `vat.frob` reverts on failure\n            _daiJoin.exit(address(this), toBorrow);  // `daiJoin` reverts on failures\n            _chai.join(address(this), toBorrow);     // Grab chai from Chai, converted from dai\n        }\n\n        _vat.hope(user);\n        _vat.fork( // Move the debt\n            collateralType,\n            address(this),\n            user,\n            weth.toInt(),\n            dai.divd(rate, RAY).toInt()\n        );\n        _vat.nope(user);\n    }\n\n    /// @dev Registers the one contract that will shut down the Treasury if MakerDAO shuts down.\n    function registerDssShutdown(address dssShutdown_) public onlyOwner {\n        require(\n            _dssShutdown == address(0),\n            \"Treasury: Shutdown already set\"\n        );\n        _dssShutdown = dssShutdown_;\n        _chai.approve(address(_dssShutdown), uint256(-1)); // Shutdown will never cheat on us\n        _vat.hope(address(_dssShutdown));                  // Shutdown will never cheat on us\n    }\n}",
  "sourcePath": "/Users/bruce/dev/yieldprotocol/ytoken-mvp/contracts/Treasury.sol",
  "compiler": {
    "name": "solc",
    "version": "0.6.2+commit.bacdbe57.Emscripten.clang"
  },
  "schemaVersion": "3.0.23",
  "updatedAt": "2020-06-17T11:33:08.919Z",
  "networkType": "ethereum",
  "devdoc": {
    "details": "Treasury manages the Dai, interacting with MakerDAO's vat and chai when needed.",
    "methods": {
      "debt()": {
        "details": "Returns the Treasury debt towards MakerDAO, as the dai borrowed times the stability fee for Weth. We have borrowed (rate * art) Borrowing Limit (rate * art) <= (ink * spot)"
      },
      "fork(address,uint256,uint256)": {
        "details": "Moves dai debt and weth collateral from Treasury to `user` in MakerDAO Needs to be surrounded by `vat.hope(treasury.address)` and `vat.nope(treasury.address)` Only the Dealer can call `transferPosition`, to avoid transferring more debt than an user has. The `dai` parameter is measured in normalized dai, not in the units used in `vat.urns(ilk, user)).art`."
      },
      "grantAccess(address)": {
        "details": "Add user to the authorized users list"
      },
      "owner()": {
        "details": "Returns the address of the current owner."
      },
      "power()": {
        "details": "Returns the Treasury borrowing capacity from MakerDAO, as the collateral posted times the collateralization ratio for Weth. We can borrow (ink * spot)"
      },
      "pullChai(address,uint256)": {
        "details": "Returns chai using chai savings as much as possible, and borrowing the rest."
      },
      "pullDai(address,uint256)": {
        "details": "Returns dai using chai savings as much as possible, and borrowing the rest."
      },
      "pullWeth(address,uint256)": {
        "details": "Moves Weth collateral from Treasury controlled Maker Eth vault to `to` address."
      },
      "pushChai()": {
        "details": "Pays as much system debt as possible from the Treasury chai balance, saving the rest as chai."
      },
      "pushDai()": {
        "details": "Pays as much system debt as possible from the Treasury dai balance, saving the rest as chai."
      },
      "pushWeth()": {
        "details": "Moves all Weth collateral from Treasury into Maker"
      },
      "registerDssShutdown(address)": {
        "details": "Registers the one contract that will shut down the Treasury if MakerDAO shuts down."
      },
      "renounceOwnership()": {
        "details": "Leaves the contract without owner. It will not be possible to call `onlyOwner` functions anymore. Can only be called by the current owner.     * NOTE: Renouncing ownership will leave the contract without an owner, thereby removing any functionality that is only available to the owner."
      },
      "revokeAccess(address)": {
        "details": "Remove user to the authorized users list"
      },
      "savings()": {
        "details": "Returns the amount of Dai in this contract."
      },
      "shutdown()": {
        "details": "Disables pulling and pushing. To be called only by shutdown management contracts."
      },
      "transferOwnership(address)": {
        "details": "Transfers ownership of the contract to a new account (`newOwner`). Can only be called by the current owner."
      }
    }
  },
  "userdoc": {
    "methods": {}
  }
}