{
  "contractName": "Treasury",
  "abi": [
    {
      "inputs": [
        {
          "internalType": "address",
          "name": "dai_",
          "type": "address"
        },
        {
          "internalType": "address",
          "name": "chai_",
          "type": "address"
        },
        {
          "internalType": "address",
          "name": "chaiOracle_",
          "type": "address"
        },
        {
          "internalType": "address",
          "name": "weth_",
          "type": "address"
        },
        {
          "internalType": "address",
          "name": "daiJoin_",
          "type": "address"
        },
        {
          "internalType": "address",
          "name": "wethJoin_",
          "type": "address"
        },
        {
          "internalType": "address",
          "name": "vat_",
          "type": "address"
        }
      ],
      "stateMutability": "nonpayable",
      "type": "constructor"
    },
    {
      "anonymous": false,
      "inputs": [
        {
          "indexed": false,
          "internalType": "address",
          "name": "user",
          "type": "address"
        }
      ],
      "name": "GrantedAccess",
      "type": "event"
    },
    {
      "anonymous": false,
      "inputs": [
        {
          "indexed": true,
          "internalType": "address",
          "name": "previousOwner",
          "type": "address"
        },
        {
          "indexed": true,
          "internalType": "address",
          "name": "newOwner",
          "type": "address"
        }
      ],
      "name": "OwnershipTransferred",
      "type": "event"
    },
    {
      "anonymous": false,
      "inputs": [
        {
          "indexed": false,
          "internalType": "address",
          "name": "user",
          "type": "address"
        }
      ],
      "name": "RevokedAccess",
      "type": "event"
    },
    {
      "inputs": [],
      "name": "RAD",
      "outputs": [
        {
          "internalType": "uint8",
          "name": "",
          "type": "uint8"
        }
      ],
      "stateMutability": "view",
      "type": "function",
      "constant": true
    },
    {
      "inputs": [],
      "name": "RAY",
      "outputs": [
        {
          "internalType": "uint8",
          "name": "",
          "type": "uint8"
        }
      ],
      "stateMutability": "view",
      "type": "function",
      "constant": true
    },
    {
      "inputs": [],
      "name": "WAD",
      "outputs": [
        {
          "internalType": "uint8",
          "name": "",
          "type": "uint8"
        }
      ],
      "stateMutability": "view",
      "type": "function",
      "constant": true
    },
    {
      "inputs": [
        {
          "internalType": "address",
          "name": "user",
          "type": "address"
        }
      ],
      "name": "grantAccess",
      "outputs": [],
      "stateMutability": "nonpayable",
      "type": "function"
    },
    {
      "inputs": [],
      "name": "owner",
      "outputs": [
        {
          "internalType": "address",
          "name": "",
          "type": "address"
        }
      ],
      "stateMutability": "view",
      "type": "function",
      "constant": true
    },
    {
      "inputs": [],
      "name": "renounceOwnership",
      "outputs": [],
      "stateMutability": "nonpayable",
      "type": "function"
    },
    {
      "inputs": [
        {
          "internalType": "address",
          "name": "user",
          "type": "address"
        }
      ],
      "name": "revokeAccess",
      "outputs": [],
      "stateMutability": "nonpayable",
      "type": "function"
    },
    {
      "inputs": [
        {
          "internalType": "address",
          "name": "newOwner",
          "type": "address"
        }
      ],
      "name": "transferOwnership",
      "outputs": [],
      "stateMutability": "nonpayable",
      "type": "function"
    },
    {
      "inputs": [],
      "name": "debt",
      "outputs": [
        {
          "internalType": "uint256",
          "name": "",
          "type": "uint256"
        }
      ],
      "stateMutability": "view",
      "type": "function",
      "constant": true
    },
    {
      "inputs": [],
      "name": "power",
      "outputs": [
        {
          "internalType": "uint256",
          "name": "",
          "type": "uint256"
        }
      ],
      "stateMutability": "view",
      "type": "function",
      "constant": true
    },
    {
      "inputs": [],
      "name": "savings",
      "outputs": [
        {
          "internalType": "uint256",
          "name": "",
          "type": "uint256"
        }
      ],
      "stateMutability": "nonpayable",
      "type": "function"
    },
    {
      "inputs": [],
      "name": "pushDai",
      "outputs": [],
      "stateMutability": "nonpayable",
      "type": "function"
    },
    {
      "inputs": [],
      "name": "pushChai",
      "outputs": [],
      "stateMutability": "nonpayable",
      "type": "function"
    },
    {
      "inputs": [
        {
          "internalType": "address",
          "name": "user",
          "type": "address"
        },
        {
          "internalType": "uint256",
          "name": "dai",
          "type": "uint256"
        }
      ],
      "name": "pullDai",
      "outputs": [],
      "stateMutability": "nonpayable",
      "type": "function"
    },
    {
      "inputs": [
        {
          "internalType": "address",
          "name": "user",
          "type": "address"
        },
        {
          "internalType": "uint256",
          "name": "chai",
          "type": "uint256"
        }
      ],
      "name": "pullChai",
      "outputs": [],
      "stateMutability": "nonpayable",
      "type": "function"
    },
    {
      "inputs": [],
      "name": "pushWeth",
      "outputs": [],
      "stateMutability": "nonpayable",
      "type": "function"
    },
    {
      "inputs": [
        {
          "internalType": "address",
          "name": "to",
          "type": "address"
        },
        {
          "internalType": "uint256",
          "name": "weth",
          "type": "uint256"
        }
      ],
      "name": "pullWeth",
      "outputs": [],
      "stateMutability": "nonpayable",
      "type": "function"
    }
  ],
  "bytecode": "0x60806040523480156200001157600080fd5b5060405162003e5b38038062003e5b833981810160405260e08110156200003757600080fd5b81019080805190602001909291908051906020019092919080519060200190929190805190602001909291908051906020019092919080519060200190929190805190602001909291905050506000620000966200047e60201b60201c565b9050806000806101000a81548173ffffffffffffffffffffffffffffffffffffffff021916908373ffffffffffffffffffffffffffffffffffffffff1602179055508073ffffffffffffffffffffffffffffffffffffffff16600073ffffffffffffffffffffffffffffffffffffffff167f8be0079c531659141344cd1fd0a4f28419497f9722a3daafe3b4186f6b6457e060405160405180910390a35086600260006101000a81548173ffffffffffffffffffffffffffffffffffffffff021916908373ffffffffffffffffffffffffffffffffffffffff16021790555085600360006101000a81548173ffffffffffffffffffffffffffffffffffffffff021916908373ffffffffffffffffffffffffffffffffffffffff16021790555084600460006101000a81548173ffffffffffffffffffffffffffffffffffffffff021916908373ffffffffffffffffffffffffffffffffffffffff16021790555083600560006101000a81548173ffffffffffffffffffffffffffffffffffffffff021916908373ffffffffffffffffffffffffffffffffffffffff16021790555082600660006101000a81548173ffffffffffffffffffffffffffffffffffffffff021916908373ffffffffffffffffffffffffffffffffffffffff16021790555081600760006101000a81548173ffffffffffffffffffffffffffffffffffffffff021916908373ffffffffffffffffffffffffffffffffffffffff16021790555080600860006101000a81548173ffffffffffffffffffffffffffffffffffffffff021916908373ffffffffffffffffffffffffffffffffffffffff160217905550600860009054906101000a900473ffffffffffffffffffffffffffffffffffffffff1673ffffffffffffffffffffffffffffffffffffffff1663a3b22fc4836040518263ffffffff1660e01b8152600401808273ffffffffffffffffffffffffffffffffffffffff1673ffffffffffffffffffffffffffffffffffffffff168152602001915050600060405180830381600087803b1580156200039d57600080fd5b505af1158015620003b2573d6000803e3d6000fd5b50505050600860009054906101000a900473ffffffffffffffffffffffffffffffffffffffff1673ffffffffffffffffffffffffffffffffffffffff1663a3b22fc4846040518263ffffffff1660e01b8152600401808273ffffffffffffffffffffffffffffffffffffffff1673ffffffffffffffffffffffffffffffffffffffff168152602001915050600060405180830381600087803b1580156200045857600080fd5b505af11580156200046d573d6000803e3d6000fd5b505050505050505050505062000486565b600033905090565b6139c580620004966000396000f3fe608060405234801561001057600080fd5b506004361061010b5760003560e01c80636a146024116100a25780638da5cb5b116100715780638da5cb5b146102fa5780639fa8368914610344578063adb987e314610392578063c86d6ae41461039c578063f2fde38b146103ba5761010b565b80636a1460241461023a578063715018a61461025e57806385e68531146102685780638ac96dfc146102ac5761010b565b80634a4d59fa116100de5780634a4d59fa146101a057806355027703146101be578063552033c41461020c578063653b8e81146102305761010b565b806306f405fd146101105780630ae5e739146101345780630b6500ee146101785780630dca59c114610182575b600080fd5b6101186103fe565b604051808260ff1660ff16815260200191505060405180910390f35b6101766004803603602081101561014a57600080fd5b81019080803573ffffffffffffffffffffffffffffffffffffffff169060200190929190505050610403565b005b610180610589565b005b61018a610ac0565b6040518082815260200191505060405180910390f35b6101a8610cec565b6040518082815260200191505060405180910390f35b61020a600480360360408110156101d457600080fd5b81019080803573ffffffffffffffffffffffffffffffffffffffff16906020019092919080359060200190929190505050610f18565b005b6102146115c8565b604051808260ff1660ff16815260200191505060405180910390f35b6102386115cd565b005b610242611bf7565b604051808260ff1660ff16815260200191505060405180910390f35b610266611bfc565b005b6102aa6004803603602081101561027e57600080fd5b81019080803573ffffffffffffffffffffffffffffffffffffffff169060200190929190505050611d84565b005b6102f8600480360360408110156102c257600080fd5b81019080803573ffffffffffffffffffffffffffffffffffffffff16906020019092919080359060200190929190505050611f0b565b005b610302612261565b604051808273ffffffffffffffffffffffffffffffffffffffff1673ffffffffffffffffffffffffffffffffffffffff16815260200191505060405180910390f35b6103906004803603604081101561035a57600080fd5b81019080803573ffffffffffffffffffffffffffffffffffffffff1690602001909291908035906020019092919050505061228a565b005b61039a612af6565b005b6103a4613237565b6040518082815260200191505060405180910390f35b6103fc600480360360208110156103d057600080fd5b81019080803573ffffffffffffffffffffffffffffffffffffffff16906020019092919050505061331a565b005b602d81565b61040b613527565b73ffffffffffffffffffffffffffffffffffffffff166000809054906101000a900473ffffffffffffffffffffffffffffffffffffffff1673ffffffffffffffffffffffffffffffffffffffff16146104cc576040517f08c379a00000000000000000000000000000000000000000000000000000000081526004018080602001828103825260208152602001807f4f776e61626c653a2063616c6c6572206973206e6f7420746865206f776e657281525060200191505060405180910390fd5b60018060008373ffffffffffffffffffffffffffffffffffffffff1673ffffffffffffffffffffffffffffffffffffffff16815260200190815260200160002060006101000a81548160ff0219169083151502179055507f6a7c5f28ea564fafc8b079663a2a9b9d26fe735d97c97611484ce044f40a16e281604051808273ffffffffffffffffffffffffffffffffffffffff1673ffffffffffffffffffffffffffffffffffffffff16815260200191505060405180910390a150565b6040518060400160405280601881526020017f54726561737572793a204e6f7420417574686f72697a65640000000000000000815250600160003373ffffffffffffffffffffffffffffffffffffffff1673ffffffffffffffffffffffffffffffffffffffff16815260200190815260200160002060009054906101000a900460ff1681906106b3576040517f08c379a00000000000000000000000000000000000000000000000000000000081526004018080602001828103825283818151815260200191508051906020019080838360005b8381101561067857808201518184015260208101905061065d565b50505050905090810190601f1680156106a55780820380516001836020036101000a031916815260200191505b509250505060405180910390fd5b506000600560009054906101000a900473ffffffffffffffffffffffffffffffffffffffff1673ffffffffffffffffffffffffffffffffffffffff166370a08231306040518263ffffffff1660e01b8152600401808273ffffffffffffffffffffffffffffffffffffffff1673ffffffffffffffffffffffffffffffffffffffff16815260200191505060206040518083038186803b15801561075557600080fd5b505afa158015610769573d6000803e3d6000fd5b505050506040513d602081101561077f57600080fd5b81019080805190602001909291905050509050600560009054906101000a900473ffffffffffffffffffffffffffffffffffffffff1673ffffffffffffffffffffffffffffffffffffffff1663095ea7b3600760009054906101000a900473ffffffffffffffffffffffffffffffffffffffff16836040518363ffffffff1660e01b8152600401808373ffffffffffffffffffffffffffffffffffffffff1673ffffffffffffffffffffffffffffffffffffffff16815260200182815260200192505050602060405180830381600087803b15801561085d57600080fd5b505af1158015610871573d6000803e3d6000fd5b505050506040513d602081101561088757600080fd5b810190808051906020019092919050505050600760009054906101000a900473ffffffffffffffffffffffffffffffffffffffff1673ffffffffffffffffffffffffffffffffffffffff16633b4da69f30836040518363ffffffff1660e01b8152600401808373ffffffffffffffffffffffffffffffffffffffff1673ffffffffffffffffffffffffffffffffffffffff16815260200182815260200192505050600060405180830381600087803b15801561094257600080fd5b505af1158015610956573d6000803e3d6000fd5b50505050600860009054906101000a900473ffffffffffffffffffffffffffffffffffffffff1673ffffffffffffffffffffffffffffffffffffffff1663760887037f4554482d410000000000000000000000000000000000000000000000000000003030306109c58761352f565b60006040518763ffffffff1660e01b8152600401808781526020018673ffffffffffffffffffffffffffffffffffffffff1673ffffffffffffffffffffffffffffffffffffffff1681526020018573ffffffffffffffffffffffffffffffffffffffff1673ffffffffffffffffffffffffffffffffffffffff1681526020018473ffffffffffffffffffffffffffffffffffffffff1673ffffffffffffffffffffffffffffffffffffffff1681526020018381526020018281526020019650505050505050600060405180830381600087803b158015610aa457600080fd5b505af1158015610ab8573d6000803e3d6000fd5b505050505050565b600080600860009054906101000a900473ffffffffffffffffffffffffffffffffffffffff1673ffffffffffffffffffffffffffffffffffffffff1663d9638d366040518163ffffffff1660e01b815260040180807f4554482d41000000000000000000000000000000000000000000000000000000815250602001905060a06040518083038186803b158015610b5657600080fd5b505afa158015610b6a573d6000803e3d6000fd5b505050506040513d60a0811015610b8057600080fd5b8101908080519060200190929190805190602001909291908051906020019092919080519060200190929190805190602001909291905050505050509150506000600860009054906101000a900473ffffffffffffffffffffffffffffffffffffffff1673ffffffffffffffffffffffffffffffffffffffff16632424be5c306040518263ffffffff1660e01b815260040180807f4554482d410000000000000000000000000000000000000000000000000000008152506020018273ffffffffffffffffffffffffffffffffffffffff1673ffffffffffffffffffffffffffffffffffffffff168152602001915050604080518083038186803b158015610c8757600080fd5b505afa158015610c9b573d6000803e3d6000fd5b505050506040513d6040811015610cb157600080fd5b810190808051906020019092919080519060200190929190505050915050610ce582601b836135a19092919063ffffffff16565b9250505090565b600080600860009054906101000a900473ffffffffffffffffffffffffffffffffffffffff1673ffffffffffffffffffffffffffffffffffffffff1663d9638d366040518163ffffffff1660e01b815260040180807f4554482d41000000000000000000000000000000000000000000000000000000815250602001905060a06040518083038186803b158015610d8257600080fd5b505afa158015610d96573d6000803e3d6000fd5b505050506040513d60a0811015610dac57600080fd5b8101908080519060200190929190805190602001909291908051906020019092919080519060200190929190805190602001909291905050505050925050506000600860009054906101000a900473ffffffffffffffffffffffffffffffffffffffff1673ffffffffffffffffffffffffffffffffffffffff16632424be5c306040518263ffffffff1660e01b815260040180807f4554482d410000000000000000000000000000000000000000000000000000008152506020018273ffffffffffffffffffffffffffffffffffffffff1673ffffffffffffffffffffffffffffffffffffffff168152602001915050604080518083038186803b158015610eb357600080fd5b505afa158015610ec7573d6000803e3d6000fd5b505050506040513d6040811015610edd57600080fd5b810190808051906020019092919080519060200190929190505050509050610f1182601b836135a19092919063ffffffff16565b9250505090565b6040518060400160405280601881526020017f54726561737572793a204e6f7420417574686f72697a65640000000000000000815250600160003373ffffffffffffffffffffffffffffffffffffffff1673ffffffffffffffffffffffffffffffffffffffff16815260200190815260200160002060009054906101000a900460ff168190611042576040517f08c379a00000000000000000000000000000000000000000000000000000000081526004018080602001828103825283818151815260200191508051906020019080838360005b83811015611007578082015181840152602081019050610fec565b50505050905090810190601f1680156110345780820380516001836020036101000a031916815260200191505b509250505060405180910390fd5b506000611056611050613237565b846135d9565b9050600081111561112357600360009054906101000a900473ffffffffffffffffffffffffffffffffffffffff1673ffffffffffffffffffffffffffffffffffffffff16634a03707c30836040518363ffffffff1660e01b8152600401808373ffffffffffffffffffffffffffffffffffffffff1673ffffffffffffffffffffffffffffffffffffffff16815260200182815260200192505050600060405180830381600087803b15801561110a57600080fd5b505af115801561111e573d6000803e3d6000fd5b505050505b60008184039050600081111561146b576000600860009054906101000a900473ffffffffffffffffffffffffffffffffffffffff1673ffffffffffffffffffffffffffffffffffffffff1663d9638d366040518163ffffffff1660e01b815260040180807f4554482d41000000000000000000000000000000000000000000000000000000815250602001905060a06040518083038186803b1580156111c857600080fd5b505afa1580156111dc573d6000803e3d6000fd5b505050506040513d60a08110156111f257600080fd5b810190808051906020019092919080519060200190929190805190602001909291908051906020019092919080519060200190929190505050505050915050600860009054906101000a900473ffffffffffffffffffffffffffffffffffffffff1673ffffffffffffffffffffffffffffffffffffffff1663760887037f4554482d4100000000000000000000000000000000000000000000000000000030303060006112b36112ae89601b8c6135f29092919063ffffffff16565b61352f565b6040518763ffffffff1660e01b8152600401808781526020018673ffffffffffffffffffffffffffffffffffffffff1673ffffffffffffffffffffffffffffffffffffffff1681526020018573ffffffffffffffffffffffffffffffffffffffff1673ffffffffffffffffffffffffffffffffffffffff1681526020018473ffffffffffffffffffffffffffffffffffffffff1673ffffffffffffffffffffffffffffffffffffffff1681526020018381526020018281526020019650505050505050600060405180830381600087803b15801561139057600080fd5b505af11580156113a4573d6000803e3d6000fd5b50505050600660009054906101000a900473ffffffffffffffffffffffffffffffffffffffff1673ffffffffffffffffffffffffffffffffffffffff1663ef693bed30846040518363ffffffff1660e01b8152600401808373ffffffffffffffffffffffffffffffffffffffff1673ffffffffffffffffffffffffffffffffffffffff16815260200182815260200192505050600060405180830381600087803b15801561145157600080fd5b505af1158015611465573d6000803e3d6000fd5b50505050505b600260009054906101000a900473ffffffffffffffffffffffffffffffffffffffff1673ffffffffffffffffffffffffffffffffffffffff1663a9059cbb86866040518363ffffffff1660e01b8152600401808373ffffffffffffffffffffffffffffffffffffffff1673ffffffffffffffffffffffffffffffffffffffff16815260200182815260200192505050602060405180830381600087803b15801561151457600080fd5b505af1158015611528573d6000803e3d6000fd5b505050506040513d602081101561153e57600080fd5b81019080805190602001909291905050506115c1576040517f08c379a000000000000000000000000000000000000000000000000000000000815260040180806020018281038252601b8152602001807f54726561737572793a20446169207472616e73666572206661696c000000000081525060200191505060405180910390fd5b5050505050565b601b81565b6040518060400160405280601881526020017f54726561737572793a204e6f7420417574686f72697a65640000000000000000815250600160003373ffffffffffffffffffffffffffffffffffffffff1673ffffffffffffffffffffffffffffffffffffffff16815260200190815260200160002060009054906101000a900460ff1681906116f7576040517f08c379a00000000000000000000000000000000000000000000000000000000081526004018080602001828103825283818151815260200191508051906020019080838360005b838110156116bc5780820151818401526020810190506116a1565b50505050905090810190601f1680156116e95780820380516001836020036101000a031916815260200191505b509250505060405180910390fd5b506000600360009054906101000a900473ffffffffffffffffffffffffffffffffffffffff1673ffffffffffffffffffffffffffffffffffffffff16636c25b346306040518263ffffffff1660e01b8152600401808273ffffffffffffffffffffffffffffffffffffffff1673ffffffffffffffffffffffffffffffffffffffff168152602001915050602060405180830381600087803b15801561179b57600080fd5b505af11580156117af573d6000803e3d6000fd5b505050506040513d60208110156117c557600080fd5b8101908080519060200190929190505050905060006117eb6117e5610ac0565b836135d9565b90506000811115611bf257600360009054906101000a900473ffffffffffffffffffffffffffffffffffffffff1673ffffffffffffffffffffffffffffffffffffffff16634a03707c30836040518363ffffffff1660e01b8152600401808373ffffffffffffffffffffffffffffffffffffffff1673ffffffffffffffffffffffffffffffffffffffff16815260200182815260200192505050600060405180830381600087803b15801561189f57600080fd5b505af11580156118b3573d6000803e3d6000fd5b50505050600660009054906101000a900473ffffffffffffffffffffffffffffffffffffffff1673ffffffffffffffffffffffffffffffffffffffff16633b4da69f30836040518363ffffffff1660e01b8152600401808373ffffffffffffffffffffffffffffffffffffffff1673ffffffffffffffffffffffffffffffffffffffff16815260200182815260200192505050600060405180830381600087803b15801561196057600080fd5b505af1158015611974573d6000803e3d6000fd5b505050506000600860009054906101000a900473ffffffffffffffffffffffffffffffffffffffff1673ffffffffffffffffffffffffffffffffffffffff1663d9638d366040518163ffffffff1660e01b815260040180807f4554482d41000000000000000000000000000000000000000000000000000000815250602001905060a06040518083038186803b158015611a0d57600080fd5b505afa158015611a21573d6000803e3d6000fd5b505050506040513d60a0811015611a3757600080fd5b810190808051906020019092919080519060200190929190805190602001909291908051906020019092919080519060200190929190505050505050915050600860009054906101000a900473ffffffffffffffffffffffffffffffffffffffff1673ffffffffffffffffffffffffffffffffffffffff1663760887037f4554482d410000000000000000000000000000000000000000000000000000003030306000611af8611af389601b8c6135f29092919063ffffffff16565b61352f565b6000036040518763ffffffff1660e01b8152600401808781526020018673ffffffffffffffffffffffffffffffffffffffff1673ffffffffffffffffffffffffffffffffffffffff1681526020018573ffffffffffffffffffffffffffffffffffffffff1673ffffffffffffffffffffffffffffffffffffffff1681526020018473ffffffffffffffffffffffffffffffffffffffff1673ffffffffffffffffffffffffffffffffffffffff1681526020018381526020018281526020019650505050505050600060405180830381600087803b158015611bd857600080fd5b505af1158015611bec573d6000803e3d6000fd5b50505050505b505050565b601281565b611c04613527565b73ffffffffffffffffffffffffffffffffffffffff166000809054906101000a900473ffffffffffffffffffffffffffffffffffffffff1673ffffffffffffffffffffffffffffffffffffffff1614611cc5576040517f08c379a00000000000000000000000000000000000000000000000000000000081526004018080602001828103825260208152602001807f4f776e61626c653a2063616c6c6572206973206e6f7420746865206f776e657281525060200191505060405180910390fd5b600073ffffffffffffffffffffffffffffffffffffffff166000809054906101000a900473ffffffffffffffffffffffffffffffffffffffff1673ffffffffffffffffffffffffffffffffffffffff167f8be0079c531659141344cd1fd0a4f28419497f9722a3daafe3b4186f6b6457e060405160405180910390a360008060006101000a81548173ffffffffffffffffffffffffffffffffffffffff021916908373ffffffffffffffffffffffffffffffffffffffff160217905550565b611d8c613527565b73ffffffffffffffffffffffffffffffffffffffff166000809054906101000a900473ffffffffffffffffffffffffffffffffffffffff1673ffffffffffffffffffffffffffffffffffffffff1614611e4d576040517f08c379a00000000000000000000000000000000000000000000000000000000081526004018080602001828103825260208152602001807f4f776e61626c653a2063616c6c6572206973206e6f7420746865206f776e657281525060200191505060405180910390fd5b6000600160008373ffffffffffffffffffffffffffffffffffffffff1673ffffffffffffffffffffffffffffffffffffffff16815260200190815260200160002060006101000a81548160ff0219169083151502179055507fa3458b95c7eaa39f5f81c99d512823ec3e1372cd42b56f5239e15ac1752d55ad81604051808273ffffffffffffffffffffffffffffffffffffffff1673ffffffffffffffffffffffffffffffffffffffff16815260200191505060405180910390a150565b6040518060400160405280601881526020017f54726561737572793a204e6f7420417574686f72697a65640000000000000000815250600160003373ffffffffffffffffffffffffffffffffffffffff1673ffffffffffffffffffffffffffffffffffffffff16815260200190815260200160002060009054906101000a900460ff168190612035576040517f08c379a00000000000000000000000000000000000000000000000000000000081526004018080602001828103825283818151815260200191508051906020019080838360005b83811015611ffa578082015181840152602081019050611fdf565b50505050905090810190601f1680156120275780820380516001836020036101000a031916815260200191505b509250505060405180910390fd5b50600860009054906101000a900473ffffffffffffffffffffffffffffffffffffffff1673ffffffffffffffffffffffffffffffffffffffff1663760887037f4554482d410000000000000000000000000000000000000000000000000000003030306120a18861352f565b60000360006040518763ffffffff1660e01b8152600401808781526020018673ffffffffffffffffffffffffffffffffffffffff1673ffffffffffffffffffffffffffffffffffffffff1681526020018573ffffffffffffffffffffffffffffffffffffffff1673ffffffffffffffffffffffffffffffffffffffff1681526020018473ffffffffffffffffffffffffffffffffffffffff1673ffffffffffffffffffffffffffffffffffffffff1681526020018381526020018281526020019650505050505050600060405180830381600087803b15801561218357600080fd5b505af1158015612197573d6000803e3d6000fd5b50505050600760009054906101000a900473ffffffffffffffffffffffffffffffffffffffff1673ffffffffffffffffffffffffffffffffffffffff1663ef693bed84846040518363ffffffff1660e01b8152600401808373ffffffffffffffffffffffffffffffffffffffff1673ffffffffffffffffffffffffffffffffffffffff16815260200182815260200192505050600060405180830381600087803b15801561224457600080fd5b505af1158015612258573d6000803e3d6000fd5b50505050505050565b60008060009054906101000a900473ffffffffffffffffffffffffffffffffffffffff16905090565b6040518060400160405280601881526020017f54726561737572793a204e6f7420417574686f72697a65640000000000000000815250600160003373ffffffffffffffffffffffffffffffffffffffff1673ffffffffffffffffffffffffffffffffffffffff16815260200190815260200160002060009054906101000a900460ff1681906123b4576040517f08c379a00000000000000000000000000000000000000000000000000000000081526004018080602001828103825283818151815260200191508051906020019080838360005b8381101561237957808201518184015260208101905061235e565b50505050905090810190601f1680156123a65780820380516001836020036101000a031916815260200191505b509250505060405180910390fd5b506000612471600460009054906101000a900473ffffffffffffffffffffffffffffffffffffffff1673ffffffffffffffffffffffffffffffffffffffff1663a035b1fe6040518163ffffffff1660e01b8152600401602060405180830381600087803b15801561242457600080fd5b505af1158015612438573d6000803e3d6000fd5b505050506040513d602081101561244e57600080fd5b8101908080519060200190929190505050601b856135f29092919063ffffffff16565b90506000612486612480613237565b836135d9565b9050600081830390506000811115612998576000600860009054906101000a900473ffffffffffffffffffffffffffffffffffffffff1673ffffffffffffffffffffffffffffffffffffffff1663d9638d366040518163ffffffff1660e01b815260040180807f4554482d41000000000000000000000000000000000000000000000000000000815250602001905060a06040518083038186803b15801561252d57600080fd5b505afa158015612541573d6000803e3d6000fd5b505050506040513d60a081101561255757600080fd5b810190808051906020019092919080519060200190929190805190602001909291908051906020019092919080519060200190929190505050505050915050600860009054906101000a900473ffffffffffffffffffffffffffffffffffffffff1673ffffffffffffffffffffffffffffffffffffffff1663760887037f4554482d41000000000000000000000000000000000000000000000000000000303030600061261861261389601b8c6135f29092919063ffffffff16565b61352f565b6040518763ffffffff1660e01b8152600401808781526020018673ffffffffffffffffffffffffffffffffffffffff1673ffffffffffffffffffffffffffffffffffffffff1681526020018573ffffffffffffffffffffffffffffffffffffffff1673ffffffffffffffffffffffffffffffffffffffff1681526020018473ffffffffffffffffffffffffffffffffffffffff1673ffffffffffffffffffffffffffffffffffffffff1681526020018381526020018281526020019650505050505050600060405180830381600087803b1580156126f557600080fd5b505af1158015612709573d6000803e3d6000fd5b50505050600660009054906101000a900473ffffffffffffffffffffffffffffffffffffffff1673ffffffffffffffffffffffffffffffffffffffff1663ef693bed30846040518363ffffffff1660e01b8152600401808373ffffffffffffffffffffffffffffffffffffffff1673ffffffffffffffffffffffffffffffffffffffff16815260200182815260200192505050600060405180830381600087803b1580156127b657600080fd5b505af11580156127ca573d6000803e3d6000fd5b50505050600260009054906101000a900473ffffffffffffffffffffffffffffffffffffffff1673ffffffffffffffffffffffffffffffffffffffff1663095ea7b3600360009054906101000a900473ffffffffffffffffffffffffffffffffffffffff16846040518363ffffffff1660e01b8152600401808373ffffffffffffffffffffffffffffffffffffffff1673ffffffffffffffffffffffffffffffffffffffff16815260200182815260200192505050602060405180830381600087803b15801561289957600080fd5b505af11580156128ad573d6000803e3d6000fd5b505050506040513d60208110156128c357600080fd5b810190808051906020019092919050505050600360009054906101000a900473ffffffffffffffffffffffffffffffffffffffff1673ffffffffffffffffffffffffffffffffffffffff16633b4da69f30846040518363ffffffff1660e01b8152600401808373ffffffffffffffffffffffffffffffffffffffff1673ffffffffffffffffffffffffffffffffffffffff16815260200182815260200192505050600060405180830381600087803b15801561297e57600080fd5b505af1158015612992573d6000803e3d6000fd5b50505050505b600360009054906101000a900473ffffffffffffffffffffffffffffffffffffffff1673ffffffffffffffffffffffffffffffffffffffff1663a9059cbb87876040518363ffffffff1660e01b8152600401808373ffffffffffffffffffffffffffffffffffffffff1673ffffffffffffffffffffffffffffffffffffffff16815260200182815260200192505050602060405180830381600087803b158015612a4157600080fd5b505af1158015612a55573d6000803e3d6000fd5b505050506040513d6020811015612a6b57600080fd5b8101908080519060200190929190505050612aee576040517f08c379a000000000000000000000000000000000000000000000000000000000815260040180806020018281038252601c8152602001807f54726561737572793a2043686169207472616e73666572206661696c0000000081525060200191505060405180910390fd5b505050505050565b6040518060400160405280601881526020017f54726561737572793a204e6f7420417574686f72697a65640000000000000000815250600160003373ffffffffffffffffffffffffffffffffffffffff1673ffffffffffffffffffffffffffffffffffffffff16815260200190815260200160002060009054906101000a900460ff168190612c20576040517f08c379a00000000000000000000000000000000000000000000000000000000081526004018080602001828103825283818151815260200191508051906020019080838360005b83811015612be5578082015181840152602081019050612bca565b50505050905090810190601f168015612c125780820380516001836020036101000a031916815260200191505b509250505060405180910390fd5b506000600260009054906101000a900473ffffffffffffffffffffffffffffffffffffffff1673ffffffffffffffffffffffffffffffffffffffff166370a08231306040518263ffffffff1660e01b8152600401808273ffffffffffffffffffffffffffffffffffffffff1673ffffffffffffffffffffffffffffffffffffffff16815260200191505060206040518083038186803b158015612cc257600080fd5b505afa158015612cd6573d6000803e3d6000fd5b505050506040513d6020811015612cec57600080fd5b810190808051906020019092919050505090506000612d12612d0c610ac0565b836135d9565b9050600081111561305857600660009054906101000a900473ffffffffffffffffffffffffffffffffffffffff1673ffffffffffffffffffffffffffffffffffffffff16633b4da69f30836040518363ffffffff1660e01b8152600401808373ffffffffffffffffffffffffffffffffffffffff1673ffffffffffffffffffffffffffffffffffffffff16815260200182815260200192505050600060405180830381600087803b158015612dc657600080fd5b505af1158015612dda573d6000803e3d6000fd5b505050506000600860009054906101000a900473ffffffffffffffffffffffffffffffffffffffff1673ffffffffffffffffffffffffffffffffffffffff1663d9638d366040518163ffffffff1660e01b815260040180807f4554482d41000000000000000000000000000000000000000000000000000000815250602001905060a06040518083038186803b158015612e7357600080fd5b505afa158015612e87573d6000803e3d6000fd5b505050506040513d60a0811015612e9d57600080fd5b810190808051906020019092919080519060200190929190805190602001909291908051906020019092919080519060200190929190505050505050915050600860009054906101000a900473ffffffffffffffffffffffffffffffffffffffff1673ffffffffffffffffffffffffffffffffffffffff1663760887037f4554482d410000000000000000000000000000000000000000000000000000003030306000612f5e612f5989601b8c6135f29092919063ffffffff16565b61352f565b6000036040518763ffffffff1660e01b8152600401808781526020018673ffffffffffffffffffffffffffffffffffffffff1673ffffffffffffffffffffffffffffffffffffffff1681526020018573ffffffffffffffffffffffffffffffffffffffff1673ffffffffffffffffffffffffffffffffffffffff1681526020018473ffffffffffffffffffffffffffffffffffffffff1673ffffffffffffffffffffffffffffffffffffffff1681526020018381526020018281526020019650505050505050600060405180830381600087803b15801561303e57600080fd5b505af1158015613052573d6000803e3d6000fd5b50505050505b60008183039050600081111561323157600260009054906101000a900473ffffffffffffffffffffffffffffffffffffffff1673ffffffffffffffffffffffffffffffffffffffff1663095ea7b3600360009054906101000a900473ffffffffffffffffffffffffffffffffffffffff16836040518363ffffffff1660e01b8152600401808373ffffffffffffffffffffffffffffffffffffffff1673ffffffffffffffffffffffffffffffffffffffff16815260200182815260200192505050602060405180830381600087803b15801561313357600080fd5b505af1158015613147573d6000803e3d6000fd5b505050506040513d602081101561315d57600080fd5b810190808051906020019092919050505050600360009054906101000a900473ffffffffffffffffffffffffffffffffffffffff1673ffffffffffffffffffffffffffffffffffffffff16633b4da69f30836040518363ffffffff1660e01b8152600401808373ffffffffffffffffffffffffffffffffffffffff1673ffffffffffffffffffffffffffffffffffffffff16815260200182815260200192505050600060405180830381600087803b15801561321857600080fd5b505af115801561322c573d6000803e3d6000fd5b505050505b50505050565b6000600360009054906101000a900473ffffffffffffffffffffffffffffffffffffffff1673ffffffffffffffffffffffffffffffffffffffff16636c25b346306040518263ffffffff1660e01b8152600401808273ffffffffffffffffffffffffffffffffffffffff1673ffffffffffffffffffffffffffffffffffffffff168152602001915050602060405180830381600087803b1580156132da57600080fd5b505af11580156132ee573d6000803e3d6000fd5b505050506040513d602081101561330457600080fd5b8101908080519060200190929190505050905090565b613322613527565b73ffffffffffffffffffffffffffffffffffffffff166000809054906101000a900473ffffffffffffffffffffffffffffffffffffffff1673ffffffffffffffffffffffffffffffffffffffff16146133e3576040517f08c379a00000000000000000000000000000000000000000000000000000000081526004018080602001828103825260208152602001807f4f776e61626c653a2063616c6c6572206973206e6f7420746865206f776e657281525060200191505060405180910390fd5b600073ffffffffffffffffffffffffffffffffffffffff168173ffffffffffffffffffffffffffffffffffffffff161415613469576040517f08c379a00000000000000000000000000000000000000000000000000000000081526004018080602001828103825260268152602001806138d66026913960400191505060405180910390fd5b8073ffffffffffffffffffffffffffffffffffffffff166000809054906101000a900473ffffffffffffffffffffffffffffffffffffffff1673ffffffffffffffffffffffffffffffffffffffff167f8be0079c531659141344cd1fd0a4f28419497f9722a3daafe3b4186f6b6457e060405160405180910390a3806000806101000a81548173ffffffffffffffffffffffffffffffffffffffff021916908373ffffffffffffffffffffffffffffffffffffffff16021790555050565b600033905090565b600061354161353c61362a565b613652565b821115613599576040517f08c379a000000000000000000000000000000000000000000000000000000000815260040180806020018281038252603b8152602001806138fc603b913960400191505060405180910390fd5b819050919050565b60006135d06135af836136b5565b6135c2858761373f90919063ffffffff16565b6137c590919063ffffffff16565b90509392505050565b60008183106135e857816135ea565b825b905092915050565b600061362183613613613604856136b5565b8761373f90919063ffffffff16565b6137c590919063ffffffff16565b90509392505050565b60007f7fffffffffffffffffffffffffffffffffffffffffffffffffffffffffffffff905090565b6000808212156136ad576040517f08c379a00000000000000000000000000000000000000000000000000000000081526004018080602001828103825260388152602001806139376038913960400191505060405180910390fd5b819050919050565b6000604d8260ff161115613731576040517f08c379a00000000000000000000000000000000000000000000000000000000081526004018080602001828103825260118152602001807f546f6f206d616e7920646563696d616c7300000000000000000000000000000081525060200191505060405180910390fd5b8160ff16600a0a9050919050565b60008083141561375257600090506137bf565b600082840290508284828161376357fe5b04146137ba576040517f08c379a000000000000000000000000000000000000000000000000000000000815260040180806020018281038252602181526020018061396f6021913960400191505060405180910390fd5b809150505b92915050565b600061380783836040518060400160405280601a81526020017f536166654d6174683a206469766973696f6e206279207a65726f00000000000081525061380f565b905092915050565b600080831182906138bb576040517f08c379a00000000000000000000000000000000000000000000000000000000081526004018080602001828103825283818151815260200191508051906020019080838360005b83811015613880578082015181840152602081019050613865565b50505050905090810190601f1680156138ad5780820380516001836020036101000a031916815260200191505b509250505060405180910390fd5b5060008385816138c757fe5b04905080915050939250505056fe4f776e61626c653a206e6577206f776e657220697320746865207a65726f206164647265737343616e6e6f742063617374206f766572666c6f77696e6720756e7369676e656420696e746567657220746f207369676e656420696e74656765722e43616e6e6f742063617374206e65676174697665207369676e656420696e746567657220746f20756e7369676e656420696e74656765722e536166654d6174683a206d756c7469706c69636174696f6e206f766572666c6f77a2646970667358221220457728f1963514ea7510419884db7dba0649d833ff77026f55e500796429e6f364736f6c63430006020033",
  "source": "pragma solidity ^0.6.0;\n\nimport \"@hq20/contracts/contracts/access/AuthorizedAccess.sol\";\nimport \"@hq20/contracts/contracts/math/DecimalMath.sol\";\nimport \"@hq20/contracts/contracts/utils/SafeCast.sol\";\nimport \"@openzeppelin/contracts/access/Ownable.sol\";\nimport \"@openzeppelin/contracts/math/Math.sol\";\nimport \"@openzeppelin/contracts/token/ERC20/IERC20.sol\";\nimport \"./interfaces/IDaiJoin.sol\";\nimport \"./interfaces/IGemJoin.sol\";\nimport \"./interfaces/IVat.sol\";\nimport \"./interfaces/IChai.sol\";\nimport \"./interfaces/IOracle.sol\";\nimport \"./interfaces/ITreasury.sol\";\nimport \"./Constants.sol\";\nimport \"@nomiclabs/buidler/console.sol\";\n\n\n/// @dev Treasury manages the Dai, interacting with MakerDAO's vat and chai when needed.\ncontract Treasury is ITreasury, AuthorizedAccess(), Constants() {\n    using DecimalMath for uint256;\n    using DecimalMath for int256;\n    using DecimalMath for uint8;\n    using SafeCast for uint256;\n    using SafeCast for int256;\n\n    bytes32 constant collateralType = \"ETH-A\";\n\n    IERC20 internal _dai;\n    IChai internal _chai;\n    IOracle internal _chaiOracle;\n    IERC20 internal _weth;\n    IDaiJoin internal _daiJoin;\n    IGemJoin internal _wethJoin;\n    IVat internal _vat;\n\n    constructor (\n        address dai_,\n        address chai_,\n        address chaiOracle_,\n        address weth_,\n        address daiJoin_,\n        address wethJoin_,\n        address vat_\n    ) public {\n        // These could be hardcoded for mainnet deployment.\n        _dai = IERC20(dai_);\n        _chai = IChai(chai_);\n        _chaiOracle = IOracle(chaiOracle_);\n        _weth = IERC20(weth_);\n        _daiJoin = IDaiJoin(daiJoin_);\n        _wethJoin = IGemJoin(wethJoin_);\n        _vat = IVat(vat_);\n        _vat.hope(address(wethJoin_));\n        _vat.hope(address(daiJoin_));\n\n    }\n\n    /// @dev Returns the Treasury debt towards MakerDAO, as the dai borrowed times the stability fee for Weth.\n    /// We have borrowed (rate * art)\n    /// Borrowing Limit (rate * art) <= (ink * spot)\n    function debt() public view returns(uint256) {\n        (, uint256 rate,,,) = _vat.ilks(\"ETH-A\");            // Retrieve the MakerDAO stability fee for Weth\n        (, uint256 art) = _vat.urns(\"ETH-A\", address(this)); // Retrieve the Treasury debt in MakerDAO\n        return art.muld(rate, RAY);\n    }\n\n    /// @dev Returns the Treasury borrowing capacity from MakerDAO, as the collateral posted times the collateralization ratio for Weth.\n    /// We can borrow (ink * spot)\n    function power() public view returns(uint256) {\n        (,, uint256 spot,,) = _vat.ilks(\"ETH-A\");            // Collateralization ratio for Weth\n        (uint256 ink,) = _vat.urns(\"ETH-A\", address(this));  // Treasury Weth collateral in MakerDAO\n        return ink.muld(spot, RAY);\n    }\n\n    /// @dev Returns the amount of Dai in this contract.\n    function savings() public returns(uint256){\n        return _chai.dai(address(this));\n    }\n\n    /// @dev Pays as much system debt as possible from the Treasury dai balance, saving the rest as chai.\n    function pushDai() public override onlyAuthorized(\"Treasury: Not Authorized\") {\n        uint256 dai = _dai.balanceOf(address(this));\n\n        uint256 toRepay = Math.min(debt(), dai);\n        if (toRepay > 0) {\n            _daiJoin.join(address(this), toRepay);\n            // Remove debt from vault using frob\n            (, uint256 rate,,,) = _vat.ilks(\"ETH-A\"); // Retrieve the MakerDAO stability fee\n            _vat.frob(\n                collateralType,\n                address(this),\n                address(this),\n                address(this),\n                0,                           // Weth collateral to add\n                -toRepay.divd(rate, RAY).toInt() // Dai debt to remove\n            );\n        }\n\n        uint256 toSave = dai - toRepay;         // toRepay can't be greater than dai\n        if (toSave > 0) {\n            _dai.approve(address(_chai), toSave); // Chai will take dai\n            _chai.join(address(this), toSave);    // Give dai to Chai, take chai back\n        }\n    }\n\n    /// @dev Pays as much system debt as possible from the Treasury chai balance, saving the rest as chai.\n    function pushChai() public override onlyAuthorized(\"Treasury: Not Authorized\") {\n        uint256 dai = _chai.dai(address(this));\n\n        uint256 toRepay = Math.min(debt(), dai);\n        if (toRepay > 0) {\n            _chai.draw(address(this), toRepay);     // Grab dai from Chai, converted from chai\n            _daiJoin.join(address(this), toRepay);\n            // Remove debt from vault using frob\n            (, uint256 rate,,,) = _vat.ilks(\"ETH-A\"); // Retrieve the MakerDAO stability fee\n            _vat.frob(\n                collateralType,\n                address(this),\n                address(this),\n                address(this),\n                0,                           // Weth collateral to add\n                -toRepay.divd(rate, RAY).toInt() // Dai debt to remove\n            );\n        }\n        // Anything that is left from repaying, is chai savings\n    }\n\n    /// @dev Returns dai using chai savings as much as possible, and borrowing the rest.\n    function pullDai(address user, uint256 dai) public override onlyAuthorized(\"Treasury: Not Authorized\") {\n        uint256 toRelease = Math.min(savings(), dai);\n        if (toRelease > 0) {\n            _chai.draw(address(this), toRelease);     // Grab dai from Chai, converted from chai\n        }\n\n        uint256 toBorrow = dai - toRelease;    // toRelease can't be greater than dai\n        if (toBorrow > 0) {\n            (, uint256 rate,,,) = _vat.ilks(\"ETH-A\"); // Retrieve the MakerDAO stability fee\n            // Increase the dai debt by the dai to receive divided by the stability fee\n            _vat.frob(\n                collateralType,\n                address(this),\n                address(this),\n                address(this),\n                0,\n                toBorrow.divd(rate, RAY).toInt()\n            ); // `vat.frob` reverts on failure\n            _daiJoin.exit(address(this), toBorrow); // `daiJoin` reverts on failures\n        }\n\n        require(                            // Give dai to user\n            _dai.transfer(user, dai),\n            \"Treasury: Dai transfer fail\"\n        );\n    }\n\n    /// @dev Returns chai using chai savings as much as possible, and borrowing the rest.\n    function pullChai(address user, uint256 chai) public override onlyAuthorized(\"Treasury: Not Authorized\") {\n        uint256 dai = chai.divd(_chaiOracle.price(), RAY);   // dai = chai * price\n        uint256 toRelease = Math.min(savings(), dai);\n        // As much chai as the Treasury has, can be used, we borrwo dai and convert it to chai for the rest\n\n        uint256 toBorrow = dai - toRelease;    // toRelease can't be greater than dai\n        if (toBorrow > 0) {\n            (, uint256 rate,,,) = _vat.ilks(\"ETH-A\"); // Retrieve the MakerDAO stability fee\n            // Increase the dai debt by the dai to receive divided by the stability fee\n            _vat.frob(\n                collateralType,\n                address(this),\n                address(this),\n                address(this),\n                0,\n                toBorrow.divd(rate, RAY).toInt()\n            ); // `vat.frob` reverts on failure\n            _daiJoin.exit(address(this), toBorrow);  // `daiJoin` reverts on failures\n            _dai.approve(address(_chai), toBorrow);   // Chai will take dai\n            _chai.join(address(this), toBorrow);     // Grab chai from Chai, converted from dai\n        }\n\n        require(                            // Give dai to user\n            _chai.transfer(user, chai),\n            \"Treasury: Chai transfer fail\"\n        );\n    }\n\n    /// @dev Moves all Weth collateral from Treasury into Maker\n    function pushWeth() public override onlyAuthorized(\"Treasury: Not Authorized\") {\n        uint256 weth = _weth.balanceOf(address(this));\n\n        _weth.approve(address(_wethJoin), weth);\n        _wethJoin.join(address(this), weth); // GemJoin reverts if anything goes wrong.\n        // All added collateral should be locked into the vault using frob\n        _vat.frob(\n            collateralType,\n            address(this),\n            address(this),\n            address(this),\n            weth.toInt(), // Collateral to add - WAD\n            0 // Normalized Dai to receive - WAD\n        );\n    }\n\n    /// @dev Moves Weth collateral from Treasury controlled Maker Eth vault to `to` address.\n    function pullWeth(address to, uint256 weth) public override onlyAuthorized(\"Treasury: Not Authorized\") {\n        // Remove collateral from vault using frob\n        _vat.frob(\n            collateralType,\n            address(this),\n            address(this),\n            address(this),\n            -weth.toInt(), // Weth collateral to remove - WAD\n            0              // Dai debt to add - WAD\n        );\n        _wethJoin.exit(to, weth); // `GemJoin` reverts on failures\n    }\n}",
  "sourcePath": "/Users/bruce/dev/yieldprotocol/ytoken-mvp/contracts/Treasury.sol",
  "compiler": {
    "name": "solc",
    "version": "0.6.2+commit.bacdbe57.Emscripten.clang"
  },
  "schemaVersion": "3.0.23",
  "updatedAt": "2020-06-01T11:27:32.992Z",
  "networkType": "ethereum",
  "devdoc": {
    "details": "Treasury manages the Dai, interacting with MakerDAO's vat and chai when needed.",
    "methods": {
      "debt()": {
        "details": "Returns the Treasury debt towards MakerDAO, as the dai borrowed times the stability fee for Weth. We have borrowed (rate * art) Borrowing Limit (rate * art) <= (ink * spot)"
      },
      "grantAccess(address)": {
        "details": "Add user to the authorized users list"
      },
      "owner()": {
        "details": "Returns the address of the current owner."
      },
      "power()": {
        "details": "Returns the Treasury borrowing capacity from MakerDAO, as the collateral posted times the collateralization ratio for Weth. We can borrow (ink * spot)"
      },
      "pullChai(address,uint256)": {
        "details": "Returns chai using chai savings as much as possible, and borrowing the rest."
      },
      "pullDai(address,uint256)": {
        "details": "Returns dai using chai savings as much as possible, and borrowing the rest."
      },
      "pullWeth(address,uint256)": {
        "details": "Moves Weth collateral from Treasury controlled Maker Eth vault to `to` address."
      },
      "pushChai()": {
        "details": "Pays as much system debt as possible from the Treasury chai balance, saving the rest as chai."
      },
      "pushDai()": {
        "details": "Pays as much system debt as possible from the Treasury dai balance, saving the rest as chai."
      },
      "pushWeth()": {
        "details": "Moves all Weth collateral from Treasury into Maker"
      },
      "renounceOwnership()": {
        "details": "Leaves the contract without owner. It will not be possible to call `onlyOwner` functions anymore. Can only be called by the current owner.     * NOTE: Renouncing ownership will leave the contract without an owner, thereby removing any functionality that is only available to the owner."
      },
      "revokeAccess(address)": {
        "details": "Remove user to the authorized users list"
      },
      "savings()": {
        "details": "Returns the amount of Dai in this contract."
      },
      "transferOwnership(address)": {
        "details": "Transfers ownership of the contract to a new account (`newOwner`). Can only be called by the current owner."
      }
    }
  },
  "userdoc": {
    "methods": {}
  }
}