{
  "contractName": "Uniswap",
  "abi": [
    {
      "inputs": [
        {
          "internalType": "uint112",
          "name": "_reserve0",
          "type": "uint112"
        },
        {
          "internalType": "uint112",
          "name": "_reserve1",
          "type": "uint112"
        }
      ],
      "name": "setReserves",
      "outputs": [],
      "stateMutability": "nonpayable",
      "type": "function"
    },
    {
      "inputs": [],
      "name": "getReserves",
      "outputs": [
        {
          "internalType": "uint112",
          "name": "_reserve0",
          "type": "uint112"
        },
        {
          "internalType": "uint112",
          "name": "_reserve1",
          "type": "uint112"
        },
        {
          "internalType": "uint32",
          "name": "_blockTimestampLast",
          "type": "uint32"
        }
      ],
      "stateMutability": "view",
      "type": "function"
    },
    {
      "inputs": [
        {
          "internalType": "uint256",
          "name": "_supply",
          "type": "uint256"
        }
      ],
      "name": "setTotalSupply",
      "outputs": [],
      "stateMutability": "nonpayable",
      "type": "function"
    },
    {
      "inputs": [],
      "name": "totalSupply",
      "outputs": [
        {
          "internalType": "uint256",
          "name": "",
          "type": "uint256"
        }
      ],
      "stateMutability": "view",
      "type": "function"
    }
  ],
  "bytecode": "0x608060405234801561001057600080fd5b506102af806100206000396000f3fe608060405234801561001057600080fd5b506004361061004c5760003560e01c80630902f1ac1461005157806318160ddd146100c957806375ea5f2e146100e7578063f7ea7a3d1461013f575b600080fd5b61005961016d565b60405180846dffffffffffffffffffffffffffff166dffffffffffffffffffffffffffff168152602001836dffffffffffffffffffffffffffff166dffffffffffffffffffffffffffff1681526020018263ffffffff1663ffffffff168152602001935050505060405180910390f35b6100d16101c9565b6040518082815260200191505060405180910390f35b61013d600480360360408110156100fd57600080fd5b8101908080356dffffffffffffffffffffffffffff16906020019092919080356dffffffffffffffffffffffffffff1690602001909291905050506101d3565b005b61016b6004803603602081101561015557600080fd5b810190808035906020019092919050505061026f565b005b60008060008060009054906101000a90046dffffffffffffffffffffffffffff1692506000600e9054906101000a90046dffffffffffffffffffffffffffff1691506000601c9054906101000a900463ffffffff169050909192565b6000600154905090565b816000806101000a8154816dffffffffffffffffffffffffffff02191690836dffffffffffffffffffffffffffff160217905550806000600e6101000a8154816dffffffffffffffffffffffffffff02191690836dffffffffffffffffffffffffffff160217905550640100000000428161024a57fe5b066000601c6101000a81548163ffffffff021916908363ffffffff1602179055505050565b806001819055505056fea2646970667358221220cba67b066cdc524560ab52d64fa4900b1227a2f56d19f52fee4139cd6354b37d64736f6c63430006020033",
  "source": "pragma solidity ^0.6.2;\n\n\ncontract Uniswap {\n    uint112 private reserve0;           // uses single storage slot, accessible via getReserves\n    uint112 private reserve1;           // uses single storage slot, accessible via getReserves\n    uint32  private blockTimestampLast; // uses single storage slot, accessible via getReserves\n    uint256 private _totalSupply;\n\n    function setReserves(uint112 _reserve0, uint112 _reserve1) public {\n        reserve0 = _reserve0;\n        reserve1 = _reserve1;\n        blockTimestampLast = uint32(block.timestamp % 2**32);\n    }\n\n    function getReserves() public view returns (uint112 _reserve0, uint112 _reserve1, uint32 _blockTimestampLast) {\n        _reserve0 = reserve0;\n        _reserve1 = reserve1;\n        _blockTimestampLast = blockTimestampLast;\n    }\n\n    function setTotalSupply(uint256 _supply) public {\n        _totalSupply = _supply;\n    }\n\n    function totalSupply() public view returns (uint256){\n        return _totalSupply;\n    }\n}",
  "sourcePath": "/Users/bruce/dev/yieldprotocol/ytoken-mvp/contracts/mocks/MockUniswap.sol",
  "compiler": {
    "name": "solc",
    "version": "0.6.2+commit.bacdbe57.Emscripten.clang"
  },
  "schemaVersion": "3.0.23",
  "updatedAt": "2020-06-01T11:27:12.877Z",
  "devdoc": {
    "methods": {}
  },
  "userdoc": {
    "methods": {}
  }
}