{
  "contractName": "Unwind",
  "abi": [
    {
      "inputs": [
        {
          "internalType": "address",
          "name": "vat_",
          "type": "address"
        },
        {
          "internalType": "address",
          "name": "daiJoin_",
          "type": "address"
        },
        {
          "internalType": "address",
          "name": "weth_",
          "type": "address"
        },
        {
          "internalType": "address",
          "name": "wethJoin_",
          "type": "address"
        },
        {
          "internalType": "address",
          "name": "jug_",
          "type": "address"
        },
        {
          "internalType": "address",
          "name": "pot_",
          "type": "address"
        },
        {
          "internalType": "address",
          "name": "end_",
          "type": "address"
        },
        {
          "internalType": "address",
          "name": "chai_",
          "type": "address"
        },
        {
          "internalType": "address",
          "name": "treasury_",
          "type": "address"
        },
        {
          "internalType": "address",
          "name": "controller_",
          "type": "address"
        },
        {
          "internalType": "address",
          "name": "liquidations_",
          "type": "address"
        }
      ],
      "stateMutability": "nonpayable",
      "type": "constructor"
    },
    {
      "anonymous": false,
      "inputs": [
        {
          "indexed": true,
          "internalType": "address",
          "name": "previousOwner",
          "type": "address"
        },
        {
          "indexed": true,
          "internalType": "address",
          "name": "newOwner",
          "type": "address"
        }
      ],
      "name": "OwnershipTransferred",
      "type": "event"
    },
    {
      "inputs": [],
      "name": "CHAI",
      "outputs": [
        {
          "internalType": "bytes32",
          "name": "",
          "type": "bytes32"
        }
      ],
      "stateMutability": "view",
      "type": "function",
      "constant": true
    },
    {
      "inputs": [],
      "name": "UNIT",
      "outputs": [
        {
          "internalType": "uint256",
          "name": "",
          "type": "uint256"
        }
      ],
      "stateMutability": "view",
      "type": "function",
      "constant": true
    },
    {
      "inputs": [],
      "name": "WETH",
      "outputs": [
        {
          "internalType": "bytes32",
          "name": "",
          "type": "bytes32"
        }
      ],
      "stateMutability": "view",
      "type": "function",
      "constant": true
    },
    {
      "inputs": [],
      "name": "_chi",
      "outputs": [
        {
          "internalType": "uint256",
          "name": "",
          "type": "uint256"
        }
      ],
      "stateMutability": "view",
      "type": "function",
      "constant": true
    },
    {
      "inputs": [],
      "name": "_fix",
      "outputs": [
        {
          "internalType": "uint256",
          "name": "",
          "type": "uint256"
        }
      ],
      "stateMutability": "view",
      "type": "function",
      "constant": true
    },
    {
      "inputs": [],
      "name": "cashedOut",
      "outputs": [
        {
          "internalType": "bool",
          "name": "",
          "type": "bool"
        }
      ],
      "stateMutability": "view",
      "type": "function",
      "constant": true
    },
    {
      "inputs": [],
      "name": "live",
      "outputs": [
        {
          "internalType": "bool",
          "name": "",
          "type": "bool"
        }
      ],
      "stateMutability": "view",
      "type": "function",
      "constant": true
    },
    {
      "inputs": [],
      "name": "owner",
      "outputs": [
        {
          "internalType": "address",
          "name": "",
          "type": "address"
        }
      ],
      "stateMutability": "view",
      "type": "function",
      "constant": true
    },
    {
      "inputs": [],
      "name": "renounceOwnership",
      "outputs": [],
      "stateMutability": "nonpayable",
      "type": "function"
    },
    {
      "inputs": [],
      "name": "settled",
      "outputs": [
        {
          "internalType": "bool",
          "name": "",
          "type": "bool"
        }
      ],
      "stateMutability": "view",
      "type": "function",
      "constant": true
    },
    {
      "inputs": [
        {
          "internalType": "address",
          "name": "newOwner",
          "type": "address"
        }
      ],
      "name": "transferOwnership",
      "outputs": [],
      "stateMutability": "nonpayable",
      "type": "function"
    },
    {
      "inputs": [
        {
          "internalType": "uint256",
          "name": "x",
          "type": "uint256"
        },
        {
          "internalType": "uint256",
          "name": "y",
          "type": "uint256"
        }
      ],
      "name": "subFloorZero",
      "outputs": [
        {
          "internalType": "uint256",
          "name": "",
          "type": "uint256"
        }
      ],
      "stateMutability": "pure",
      "type": "function",
      "constant": true
    },
    {
      "inputs": [],
      "name": "unwind",
      "outputs": [],
      "stateMutability": "nonpayable",
      "type": "function"
    },
    {
      "inputs": [],
      "name": "getChi",
      "outputs": [
        {
          "internalType": "uint256",
          "name": "",
          "type": "uint256"
        }
      ],
      "stateMutability": "nonpayable",
      "type": "function"
    },
    {
      "inputs": [],
      "name": "getRate",
      "outputs": [
        {
          "internalType": "uint256",
          "name": "",
          "type": "uint256"
        }
      ],
      "stateMutability": "nonpayable",
      "type": "function"
    },
    {
      "inputs": [
        {
          "internalType": "address",
          "name": "beneficiary",
          "type": "address"
        }
      ],
      "name": "skimWhileLive",
      "outputs": [],
      "stateMutability": "nonpayable",
      "type": "function"
    },
    {
      "inputs": [
        {
          "internalType": "address",
          "name": "beneficiary",
          "type": "address"
        }
      ],
      "name": "skimDssShutdown",
      "outputs": [],
      "stateMutability": "nonpayable",
      "type": "function"
    },
    {
      "inputs": [],
      "name": "settleTreasury",
      "outputs": [],
      "stateMutability": "nonpayable",
      "type": "function"
    },
    {
      "inputs": [],
      "name": "cashSavings",
      "outputs": [],
      "stateMutability": "nonpayable",
      "type": "function"
    },
    {
      "inputs": [
        {
          "internalType": "bytes32",
          "name": "collateral",
          "type": "bytes32"
        },
        {
          "internalType": "address",
          "name": "user",
          "type": "address"
        }
      ],
      "name": "settle",
      "outputs": [],
      "stateMutability": "nonpayable",
      "type": "function"
    },
    {
      "inputs": [
        {
          "internalType": "uint256",
          "name": "maturity",
          "type": "uint256"
        },
        {
          "internalType": "uint256",
          "name": "yDaiAmount",
          "type": "uint256"
        },
        {
          "internalType": "address",
          "name": "user",
          "type": "address"
        }
      ],
      "name": "redeem",
      "outputs": [],
      "stateMutability": "nonpayable",
      "type": "function"
    }
  ],
  "bytecode": "0x6080604052600f805462ff00001916620100001790553480156200002257600080fd5b50604051620028893803806200288983398181016040526101608110156200004957600080fd5b508051602082015160408301516060840151608085015160a086015160c087015160e08801516101008901516101208a0151610140909a0151989997989697959694959394929391929091906000620000aa6001600160e01b036200026c16565b600080546001600160a01b0319166001600160a01b0383169081178255604051929350917f8be0079c531659141344cd1fd0a4f28419497f9722a3daafe3b4186f6b6457e0908290a350600180546001600160a01b03199081166001600160a01b038e811691909117928390556002805483168e83161790556003805483168d83161790556004805483168c83161781556005805484168c84161790556006805484168b84161790556007805484168a84161790556008805484168984161790556009805484168884161790819055600a80548516888516179055600b805490941686841617909355604080516328ec8bf160e21b8152938316918401919091525192169163a3b22fc49160248082019260009290919082900301818387803b158015620001d757600080fd5b505af1158015620001ec573d6000803e3d6000fd5b5050600154600754604080516328ec8bf160e21b81526001600160a01b039283166004820152905191909216935063a3b22fc49250602480830192600092919082900301818387803b1580156200024257600080fd5b505af115801562000257573d6000803e3d6000fd5b50505050505050505050505050505062000270565b3390565b61260980620002806000396000f3fe608060405234801561001057600080fd5b50600436106101375760003560e01c80638da5cb5b116100b8578063ad5c46481161007c578063ad5c464814610261578063b6dbf9ce14610269578063ba4bb37714610271578063d4fe76c014610297578063f2fde38b146102bd578063f392c35a146102e357610137565b80638da5cb5b1461021d5780638f77583914610241578063957aa58c1461024957806396b3e2f0146102515780639d8e21771461025957610137565b806374cbd36e116100ff57806374cbd36e146101bd5780637d4a9ab8146101d95780637e709c3c14610205578063807763ab1461020d57806383a965241461021557610137565b80630416c1a51461013c578063049104e51461015657806335dbea171461018a578063679aefce146101ad578063715018a6146101b5575b600080fd5b6101446102eb565b60408051918252519081900360200190f35b6101886004803603606081101561016c57600080fd5b50803590602081013590604001356001600160a01b0316610464565b005b610144600480360360408110156101a057600080fd5b50803590602001356106c8565b6101446106e4565b610188610887565b6101c561093b565b604080519115158252519081900360200190f35b610188600480360360408110156101ef57600080fd5b50803590602001356001600160a01b0316610949565b610144610b15565b610188610b1b565b610144610d13565b610225610d19565b604080516001600160a01b039092168252519081900360200190f35b6101c5610d28565b6101c5610d31565b610188610d40565b6101446110d8565b6101446110e8565b6101446110f4565b6101886004803603602081101561028757600080fd5b50356001600160a01b03166110ff565b610188600480360360208110156102ad57600080fd5b50356001600160a01b0316611403565b610188600480360360208110156102d357600080fd5b50356001600160a01b0316611672565b61018861177c565b600654604080516320aba08b60e01b815290516000926001600160a01b0316916320aba08b91600480830192602092919082900301818787803b15801561033157600080fd5b505af1158015610345573d6000803e3d6000fd5b505050506040513d602081101561035b57600080fd5b505142116103e257600660009054906101000a90046001600160a01b03166001600160a01b031663c92aecc46040518163ffffffff1660e01b815260040160206040518083038186803b1580156103b157600080fd5b505afa1580156103c5573d6000803e3d6000fd5b505050506040513d60208110156103db57600080fd5b505161045f565b600660009054906101000a90046001600160a01b03166001600160a01b0316639f678cca6040518163ffffffff1660e01b8152600401602060405180830381600087803b15801561043257600080fd5b505af1158015610446573d6000803e3d6000fd5b505050506040513d602081101561045c57600080fd5b50515b905090565b600f5460ff16801561047d5750600f54610100900460ff165b6104c2576040805162461bcd60e51b8152602060048201526011602482015270556e77696e643a204e6f7420726561647960781b604482015290519081900360640190fd5b600a5460408051636e1165b560e11b81526004810186905290516000926001600160a01b03169163dc22cb6a916024808301926020929190829003018186803b15801561050e57600080fd5b505afa158015610522573d6000803e3d6000fd5b505050506040513d602081101561053857600080fd5b505160408051632770a7eb60e21b81526001600160a01b03858116600483015260248201879052915192935090831691639dc29fac9160448082019260009290919082900301818387803b15801561058f57600080fd5b505af11580156105a3573d6000803e3d6000fd5b50505050600360009054906101000a90046001600160a01b03166001600160a01b031663a9059cbb8361064761063f87866001600160a01b031663cb2401986040518163ffffffff1660e01b8152600401602060405180830381600087803b15801561060e57600080fd5b505af1158015610622573d6000803e3d6000fd5b505050506040513d602081101561063857600080fd5b5051611dce565b600c54611dce565b6040518363ffffffff1660e01b815260040180836001600160a01b03166001600160a01b0316815260200182815260200192505050602060405180830381600087803b15801561069657600080fd5b505af11580156106aa573d6000803e3d6000fd5b505050506040513d60208110156106c057600080fd5b505050505050565b60008282106106d9575060006106de565b508082035b92915050565b60055460408051636cb1c69b60e11b8152644554482d4160d81b60048201528151600093849384936001600160a01b039092169263d9638d3692602480820193929182900301818787803b15801561073b57600080fd5b505af115801561074f573d6000803e3d6000fd5b505050506040513d604081101561076557600080fd5b50602001519050428110156107fc576005546040805163089c54b560e31b8152644554482d4160d81b600482015290516001600160a01b03909216916344e2a5a8916024808201926020929091908290030181600087803b1580156107c957600080fd5b505af11580156107dd573d6000803e3d6000fd5b505050506040513d60208110156107f357600080fd5b50519150610881565b60015460408051636cb1c69b60e11b8152644554482d4160d81b600482015290516001600160a01b039092169163d9638d369160248082019260a092909190829003018186803b15801561084f57600080fd5b505afa158015610863573d6000803e3d6000fd5b505050506040513d60a081101561087957600080fd5b506020015191505b50905090565b61088f611e03565b6000546001600160a01b039081169116146108f1576040805162461bcd60e51b815260206004820181905260248201527f4f776e61626c653a2063616c6c6572206973206e6f7420746865206f776e6572604482015290519081900360640190fd5b600080546040516001600160a01b03909116907f8be0079c531659141344cd1fd0a4f28419497f9722a3daafe3b4186f6b6457e0908390a3600080546001600160a01b0319169055565b600f54610100900460ff1681565b600f5460ff1680156109625750600f54610100900460ff165b6109a7576040805162461bcd60e51b8152602060048201526011602482015270556e77696e643a204e6f7420726561647960781b604482015290519081900360640190fd5b600a54604080516306a621df60e11b8152600481018590526001600160a01b03848116602483015282516000948594921692630d4c43be92604480830193919282900301818787803b1580156109fc57600080fd5b505af1158015610a10573d6000803e3d6000fd5b505050506040513d6040811015610a2657600080fd5b50805160209091015190925090506000644554482d4160d81b851415610a6257610a5b83610a5684600c54611dce565b6106c8565b9050610a8c565b634348414960e01b851415610a8c57610a8961063f610a8385600d54611dce565b846106c8565b90505b6003546040805163a9059cbb60e01b81526001600160a01b038781166004830152602482018590529151919092169163a9059cbb9160448083019260209291908290030181600087803b158015610ae257600080fd5b505af1158015610af6573d6000803e3d6000fd5b505050506040513d6020811015610b0c57600080fd5b50505050505050565b600d5481565b6007546040805163ee6447b560e01b8152644554482d4160d81b600482015290516001600160a01b039092169163ee6447b5916024808201926020929091908290030181600087803b158015610b7057600080fd5b505af1158015610b84573d6000803e3d6000fd5b505050506040513d6020811015610b9a57600080fd5b5051610bd75760405162461bcd60e51b81526004018080602001828103825260228152602001806125b26022913960400191505060405180910390fd5b600f805462ff0000191690556009546040805163fc0e74d160e01b815290516001600160a01b039092169163fc0e74d19160048082019260009290919082900301818387803b158015610c2957600080fd5b505af1158015610c3d573d6000803e3d6000fd5b50505050600a60009054906101000a90046001600160a01b03166001600160a01b031663fc0e74d16040518163ffffffff1660e01b8152600401600060405180830381600087803b158015610c9157600080fd5b505af1158015610ca5573d6000803e3d6000fd5b50505050600b60009054906101000a90046001600160a01b03166001600160a01b031663fc0e74d16040518163ffffffff1660e01b8152600401600060405180830381600087803b158015610cf957600080fd5b505af1158015610d0d573d6000803e3d6000fd5b50505050565b600c5481565b6000546001600160a01b031690565b600f5460ff1681565b600f5462010000900460ff1681565b600f5462010000900460ff1615610d95576040805162461bcd60e51b8152602060048201526014602482015273155b9dda5b990e88155b9dda5b9908199a5c9cdd60621b604482015290519081900360640190fd5b600154600954604080516309092f9760e21b8152644554482d4160d81b60048201526001600160a01b039283166024820152815160009485941692632424be5c9260448082019391829003018186803b158015610df157600080fd5b505afa158015610e05573d6000803e3d6000fd5b505050506040513d6040811015610e1b57600080fd5b508051602090910151600e8290556001546009549294509092506001600160a01b039081169163870c616d91644554482d4160d81b911630610e5c87611e07565b610e6587611e07565b6040518663ffffffff1660e01b815260040180868152602001856001600160a01b03166001600160a01b03168152602001846001600160a01b03166001600160a01b0316815260200183815260200182815260200195505050505050600060405180830381600087803b158015610edb57600080fd5b505af1158015610eef573d6000803e3d6000fd5b5050600754604080516389ea45d360e01b8152644554482d4160d81b600482015230602482015290516001600160a01b0390921693506389ea45d3925060448082019260009290919082900301818387803b158015610f4d57600080fd5b505af1158015610f61573d6000803e3d6000fd5b505060075460408051636418316360e11b8152644554482d4160d81b600482015290516001600160a01b03909216935063c83062c6925060248082019260009290919082900301818387803b158015610fb957600080fd5b505af1158015610fcd573d6000803e3d6000fd5b50506001546040805163214414d560e01b8152644554482d4160d81b60048201523060248201529051600094506001600160a01b03909216925063214414d5916044808301926020929190829003018186803b15801561102c57600080fd5b505afa158015611040573d6000803e3d6000fd5b505050506040513d602081101561105657600080fd5b5051600480546040805163ef693bed60e01b8152309381019390935260248301849052519293506001600160a01b03169163ef693bed9160448082019260009290919082900301818387803b1580156110ae57600080fd5b505af11580156110c2573d6000803e3d6000fd5b5050600f805460ff191660011790555050505050565b6b033b2e3c9fd0803ce800000081565b644554482d4160d81b81565b634348414960e01b81565b600f5460ff1680156111185750600f54610100900460ff165b61115d576040805162461bcd60e51b8152602060048201526011602482015270556e77696e643a204e6f7420726561647960781b604482015290519081900360640190fd5b6006546040805163324abb3160e21b815290516000926001600160a01b03169163c92aecc4916004808301926020929190829003018186803b1580156111a257600080fd5b505afa1580156111b6573d6000803e3d6000fd5b505050506040513d60208110156111cc57600080fd5b505160015460408051636cb1c69b60e11b8152644554482d4160d81b600482015290519293506000926001600160a01b039092169163d9638d369160248082019260a092909190829003018186803b15801561122757600080fd5b505afa15801561123b573d6000803e3d6000fd5b505050506040513d60a081101561125157600080fd5b50602090810151600354604080516370a0823160e01b815230600482015290519294506000936001600160a01b03909216926370a0823192602480840193919291829003018186803b1580156112a657600080fd5b505afa1580156112ba573d6000803e3d6000fd5b505050506040513d60208110156112d057600080fd5b505190506112fa6112ed6112e761063f8686611e69565b85611dce565b829063ffffffff6122ef16565b9050611311600e548261234990919063ffffffff16565b90506113ab61139e6112e7600a60009054906101000a90046001600160a01b03166001600160a01b0316634cb89c4f6040518163ffffffff1660e01b815260040160206040518083038186803b15801561136a57600080fd5b505afa15801561137e573d6000803e3d6000fd5b505050506040513d602081101561139457600080fd5b5051600c54611dce565b829063ffffffff61234916565b6003546040805163a9059cbb60e01b81526001600160a01b03888116600483015260248201859052915193945091169163a9059cbb916044808201926020929091908290030181600087803b15801561069657600080fd5b600f5462010000900460ff16151560011461144f5760405162461bcd60e51b815260040180806020018281038252602681526020018061256b6026913960400191505060405180910390fd5b600854600954604080516370a0823160e01b81526001600160a01b039283166004820152905160009392909216916370a0823191602480820192602092909190829003018186803b1580156114a357600080fd5b505afa1580156114b7573d6000803e3d6000fd5b505050506040513d60208110156114cd57600080fd5b505190506114ec6112ed6114df6102eb565b6114e76106e4565b611e69565b905061157b61139e600960009054906101000a90046001600160a01b03166001600160a01b0316630dca59c16040518163ffffffff1660e01b815260040160206040518083038186803b15801561154257600080fd5b505afa158015611556573d6000803e3d6000fd5b505050506040513d602081101561156c57600080fd5b50516115766102eb565b61238b565b9050611607600a60009054906101000a90046001600160a01b03166001600160a01b0316634cb89c4f6040518163ffffffff1660e01b815260040160206040518083038186803b1580156115ce57600080fd5b505afa1580156115e2573d6000803e3d6000fd5b505050506040513d60208110156115f857600080fd5b5051829063ffffffff61234916565b60095460408051639fa8368960e01b81526001600160a01b038681166004830152602482018590529151939450911691639fa836899160448082019260009290919082900301818387803b15801561165e57600080fd5b505af11580156106c0573d6000803e3d6000fd5b61167a611e03565b6000546001600160a01b039081169116146116dc576040805162461bcd60e51b815260206004820181905260248201527f4f776e61626c653a2063616c6c6572206973206e6f7420746865206f776e6572604482015290519081900360640190fd5b6001600160a01b0381166117215760405162461bcd60e51b81526004018080602001828103825260268152602001806125456026913960400191505060405180910390fd5b600080546040516001600160a01b03808516939216917f8be0079c531659141344cd1fd0a4f28419497f9722a3daafe3b4186f6b6457e091a3600080546001600160a01b0319166001600160a01b0392909216919091179055565b6007546040805163ee6447b560e01b8152644554482d4160d81b600482015290516001600160a01b039092169163ee6447b5916024808201926020929091908290030181600087803b1580156117d157600080fd5b505af11580156117e5573d6000803e3d6000fd5b505050506040513d60208110156117fb57600080fd5b505161184e576040805162461bcd60e51b815260206004820152601960248201527f556e77696e643a20456e642e736f6c206e6f7420636167656400000000000000604482015290519081900360640190fd5b600754604080516331fd6c2f60e11b8152644554482d4160d81b600482015290516001600160a01b03909216916363fad85e916024808201926020929091908290030181600087803b1580156118a357600080fd5b505af11580156118b7573d6000803e3d6000fd5b505050506040513d60208110156118cd57600080fd5b5051611920576040805162461bcd60e51b815260206004820152601960248201527f556e77696e643a20456e642e736f6c206e6f7420726561647900000000000000604482015290519081900360640190fd5b60085460095460408051633612d9a360e11b81526001600160a01b03928316600482015290516000939290921691636c25b3469160248082019260209290919082900301818787803b15801561197557600080fd5b505af1158015611989573d6000803e3d6000fd5b505050506040513d602081101561199f57600080fd5b50516008546009546040805163321b5ab960e21b815290519394506001600160a01b0392831693634a03707c9390921691829163c86d6ae49160048083019260209291908290030181600087803b1580156119f957600080fd5b505af1158015611a0d573d6000803e3d6000fd5b505050506040513d6020811015611a2357600080fd5b5051604080516001600160e01b031960e086901b1681526001600160a01b039093166004840152602483019190915251604480830192600092919082900301818387803b158015611a7357600080fd5b505af1158015611a87573d6000803e3d6000fd5b505060025460408051633b4da69f60e01b81523060048201526024810186905290516001600160a01b039092169350633b4da69f925060448082019260009290919082900301818387803b158015611ade57600080fd5b505af1158015611af2573d6000803e3d6000fd5b505060075460408051636ea4255560e01b81526004810186905290516001600160a01b039092169350636ea42555925060248082019260009290919082900301818387803b158015611b4357600080fd5b505af1158015611b57573d6000803e3d6000fd5b505060075460408051637f4283e360e11b8152644554482d4160d81b60048201526024810186905290516001600160a01b03909216935063fe8507c6925060448082019260009290919082900301818387803b158015611bb657600080fd5b505af1158015611bca573d6000803e3d6000fd5b50506001546040805163214414d560e01b8152644554482d4160d81b60048201523060248201529051600094506001600160a01b03909216925063214414d5916044808301926020929190829003018186803b158015611c2957600080fd5b505afa158015611c3d573d6000803e3d6000fd5b505050506040513d6020811015611c5357600080fd5b5051600480546040805163ef693bed60e01b8152309381019390935260248301849052519293506001600160a01b03169163ef693bed9160448082019260009290919082900301818387803b158015611cab57600080fd5b505af1158015611cbf573d6000803e3d6000fd5b5050600f805461ff0019166101001790555050600754604080516331fd6c2f60e11b8152644554482d4160d81b600482015290516001600160a01b03909216916363fad85e916024808201926020929091908290030181600087803b158015611d2757600080fd5b505af1158015611d3b573d6000803e3d6000fd5b505050506040513d6020811015611d5157600080fd5b5051600c556006546040805163324abb3160e21b815290516001600160a01b039092169163c92aecc491600480820192602092909190829003018186803b158015611d9b57600080fd5b505afa158015611daf573d6000803e3d6000fd5b505050506040513d6020811015611dc557600080fd5b5051600d555050565b6000611dfc6b033b2e3c9fd0803ce8000000611df0858563ffffffff6123ad16565b9063ffffffff61240616565b9392505050565b3390565b60006001600160ff1b03821115611e65576040805162461bcd60e51b815260206004820152601760248201527f54726561737572793a2043617374206f766572666c6f77000000000000000000604482015290519081900360640190fd5b5090565b600080805b600a60009054906101000a90046001600160a01b03166001600160a01b0316630c6a595a6040518163ffffffff1660e01b815260040160206040518083038186803b158015611ebc57600080fd5b505afa158015611ed0573d6000803e3d6000fd5b505050506040513d6020811015611ee657600080fd5b50518110156122e757600a546040805163dd10222560e01b81526004810184905290516000926001600160a01b03169163dd102225916024808301926020929190829003018186803b158015611f3b57600080fd5b505afa158015611f4f573d6000803e3d6000fd5b505050506040513d6020811015611f6557600080fd5b5051600a5460408051636e1165b560e11b81526004810184905290519293506000926001600160a01b039092169163dc22cb6a91602480820192602092909190829003018186803b158015611fb957600080fd5b505afa158015611fcd573d6000803e3d6000fd5b505050506040513d6020811015611fe357600080fd5b50516040805163ae4e7fdf60e01b8152905191925060009182916001600160a01b0385169163ae4e7fdf91600480820192602092909190829003018186803b15801561202e57600080fd5b505afa158015612042573d6000803e3d6000fd5b505050506040513d602081101561205857600080fd5b50511561213b57826001600160a01b03166312970eac6040518163ffffffff1660e01b815260040160206040518083038186803b15801561209857600080fd5b505afa1580156120ac573d6000803e3d6000fd5b505050506040513d60208110156120c257600080fd5b50516040805163127833c360e31b815290519193506001600160a01b038516916393c19e1891600480820192602092909190829003018186803b15801561210857600080fd5b505afa15801561211c573d6000803e3d6000fd5b505050506040513d602081101561213257600080fd5b50519050612141565b50879050865b600a54604080516361d6fb7f60e01b8152644554482d4160d81b60048201526024810187905290516121f5926121e8926121e2926001600160a01b03909216916361d6fb7f91604480820192602092909190829003018186803b1580156121a757600080fd5b505afa1580156121bb573d6000803e3d6000fd5b505050506040513d60208110156121d157600080fd5b50516121dd8c8661238b565b611dce565b8461238b565b879063ffffffff6122ef16565b600a54604080516361d6fb7f60e01b8152634348414960e01b6004820152602481018890529051929850612288926121e8926001600160a01b0316916361d6fb7f916044808301926020929190829003018186803b15801561225657600080fd5b505afa15801561226a573d6000803e3d6000fd5b505050506040513d602081101561228057600080fd5b50518461238b565b95506122d66122c9846001600160a01b03166318160ddd6040518163ffffffff1660e01b815260040160206040518083038186803b15801561225657600080fd5b879063ffffffff61234916565b955050505050600181019050611e6e565b509392505050565b600082820183811015611dfc576040805162461bcd60e51b815260206004820152601b60248201527f536166654d6174683a206164646974696f6e206f766572666c6f770000000000604482015290519081900360640190fd5b6000611dfc83836040518060400160405280601e81526020017f536166654d6174683a207375627472616374696f6e206f766572666c6f770000815250612448565b6000611dfc82611df0856b033b2e3c9fd0803ce800000063ffffffff6123ad16565b6000826123bc575060006106de565b828202828482816123c957fe5b0414611dfc5760405162461bcd60e51b81526004018080602001828103825260218152602001806125916021913960400191505060405180910390fd5b6000611dfc83836040518060400160405280601a81526020017f536166654d6174683a206469766973696f6e206279207a65726f0000000000008152506124df565b600081848411156124d75760405162461bcd60e51b81526004018080602001828103825283818151815260200191508051906020019080838360005b8381101561249c578181015183820152602001612484565b50505050905090810190601f1680156124c95780820380516001836020036101000a031916815260200191505b509250505060405180910390fd5b505050900390565b6000818361252e5760405162461bcd60e51b815260206004820181815283516024840152835190928392604490910191908501908083836000831561249c578181015183820152602001612484565b50600083858161253a57fe5b049594505050505056fe4f776e61626c653a206e6577206f776e657220697320746865207a65726f2061646472657373556e77696e643a2043616e206f6e6c7920736b696d5768696c654c697665206966206c697665536166654d6174683a206d756c7469706c69636174696f6e206f766572666c6f77556e77696e643a204d616b657244414f206e6f74207368757474696e6720646f776ea2646970667358221220b9f9d1a6fc583ee0b714ddc169fabb8d753dde064cfbae786b6dd00e3113060964736f6c634300060a0033",
  "source": "// SPDX-License-Identifier: GPL-3.0-or-later\npragma solidity ^0.6.10;\n\nimport \"@openzeppelin/contracts/access/Ownable.sol\";\nimport \"@openzeppelin/contracts/math/SafeMath.sol\";\nimport \"@openzeppelin/contracts/token/ERC20/IERC20.sol\";\nimport \"./interfaces/IVat.sol\";\nimport \"./interfaces/IDaiJoin.sol\";\nimport \"./interfaces/IGemJoin.sol\";\nimport \"./interfaces/IJug.sol\";\nimport \"./interfaces/IPot.sol\";\nimport \"./interfaces/IEnd.sol\";\nimport \"./interfaces/IChai.sol\";\nimport \"./interfaces/ITreasury.sol\";\nimport \"./interfaces/IController.sol\";\nimport \"./interfaces/IYDai.sol\";\nimport \"./interfaces/ILiquidations.sol\";\nimport \"./helpers/DecimalMath.sol\";\n// import \"@nomiclabs/buidler/console.sol\";\n\n\n/**\n * @dev Unwind allows everyone to recover their assets from the Yield protocol in the event of a MakerDAO shutdown.\n * Unwind also allows to remove any protocol profits at any time to the beneficiary address using `skimWhileLive`.\n * During the unwind process, the system debt to MakerDAO is settled first with `settleTreasury`, extracting all free weth.\n * Once the Treasury is settled, any system savings are converted from Chai to Weth using `cashSavings`.\n * At this point, users can settle their positions using `settle`. The MakerDAO rates will be used to convert all debt and collateral to a Weth payout.\n * Users can also redeem here their yDai for a Weth payout, using `redeem`.\n * Protocol profits can be transferred to the beneficiary also at this point, using `skimDssShutdown`.\n */\ncontract Unwind is Ownable(), DecimalMath {\n    using SafeMath for uint256;\n\n    bytes32 public constant CHAI = \"CHAI\";\n    bytes32 public constant WETH = \"ETH-A\";\n\n    IVat internal _vat;\n    IDaiJoin internal _daiJoin;\n    IERC20 internal _weth;\n    IGemJoin internal _wethJoin;\n    IJug internal _jug;\n    IPot internal _pot;\n    IEnd internal _end;\n    IChai internal _chai;\n    ITreasury internal _treasury;\n    IController internal _controller;\n    ILiquidations internal _liquidations;\n\n    uint256 public _fix; // Dai to weth price on DSS Unwind\n    uint256 public _chi; // Chai to dai price on DSS Unwind\n\n    uint256 internal _treasuryWeth; // Weth that was held by treasury before settling\n\n    bool public settled;\n    bool public cashedOut;\n    bool public live = true;\n\n    constructor (\n        address vat_,\n        address daiJoin_,\n        address weth_,\n        address wethJoin_,\n        address jug_,\n        address pot_,\n        address end_,\n        address chai_,\n        address treasury_,\n        address controller_,\n        address liquidations_\n    ) public {\n        // These could be hardcoded for mainnet deployment.\n        _vat = IVat(vat_);\n        _daiJoin = IDaiJoin(daiJoin_);\n        _weth = IERC20(weth_);\n        _wethJoin = IGemJoin(wethJoin_);\n        _jug = IJug(jug_);\n        _pot = IPot(pot_);\n        _end = IEnd(end_);\n        _chai = IChai(chai_);\n        _treasury = ITreasury(treasury_);\n        _controller = IController(controller_);\n        _liquidations = ILiquidations(liquidations_);\n\n        _vat.hope(address(_treasury));\n        _vat.hope(address(_end));\n    }\n\n    /// @dev max(0, x - y)\n    function subFloorZero(uint256 x, uint256 y) public pure returns(uint256) {\n        if (y >= x) return 0;\n        else return x - y;\n    }\n\n    /// @dev Safe casting from uint256 to int256\n    function toInt(uint256 x) internal pure returns(int256) {\n        require(\n            x <= 57896044618658097711785492504343953926634992332820282019728792003956564819967,\n            \"Treasury: Cast overflow\"\n        );\n        return int256(x);\n    }\n\n    /// @dev Disables treasury and controller.\n    function unwind() public {\n        require(\n            _end.tag(WETH) != 0,\n            \"Unwind: MakerDAO not shutting down\"\n        );\n        live = false;\n        _treasury.shutdown();\n        _controller.shutdown();\n        _liquidations.shutdown();\n    }\n\n    function getChi() public returns (uint256) {\n        return (now > _pot.rho()) ? _pot.drip() : _pot.chi();\n    }\n\n    function getRate() public returns (uint256) {\n        uint256 rate;\n        (, uint256 rho) = _jug.ilks(WETH);\n        if (now > rho) {\n            rate = _jug.drip(WETH);\n        } else {\n            (, rate,,,) = _vat.ilks(WETH);\n        }\n        return rate;\n    }\n\n    /// @dev Calculates how much profit is in the system and transfers it to the beneficiary\n    function skimWhileLive(address beneficiary) public { // TODO: Hardcode\n        require(\n            live == true, // If DSS is not live this method will fail later on.\n            \"Unwind: Can only skimWhileLive if live\"\n        );\n\n        uint256 profit = _chai.balanceOf(address(_treasury));\n        profit = profit.add(_yDaiProfit(getChi(), getRate()));\n        profit = profit.sub(divd(_treasury.debt(), getChi()));\n        profit = profit.sub(_controller.totalChaiPosted());\n\n        _treasury.pullChai(beneficiary, profit);\n    }\n\n    /// @dev Calculates how much profit is in the system and transfers it to the beneficiary\n    function skimDssShutdown(address beneficiary) public { // TODO: Hardcode\n        require(settled && cashedOut, \"Unwind: Not ready\");\n\n        uint256 chi = _pot.chi();\n        (, uint256 rate,,,) = _vat.ilks(WETH);\n        uint256 profit = _weth.balanceOf(address(this));\n\n        profit = profit.add(muld(muld(_yDaiProfit(chi, rate), _fix), chi));\n        profit = profit.sub(_treasuryWeth);\n        profit = profit.sub(muld(muld(_controller.totalChaiPosted(), _fix), chi));\n\n        _weth.transfer(beneficiary, profit);\n    }\n\n    /// @dev Returns the profit accummulated in the system due to yDai supply and debt, in chai, for a given chi and rate.\n    function _yDaiProfit(uint256 chi, uint256 rate) internal view returns (uint256) {\n        uint256 profit;\n\n        for (uint256 i = 0; i < _controller.totalSeries(); i += 1) {\n            uint256 maturity = _controller.seriesIterator(i);\n            IYDai yDai = _controller.series(maturity);\n\n            uint256 chi0;\n            uint256 rate0;\n            if (yDai.isMature()){\n                chi0 = yDai.chi0();\n                rate0 = yDai.rate0();\n            } else {\n                chi0 = chi;\n                rate0 = rate;\n            }\n\n            profit = profit.add(divd(muld(_controller.totalDebtYDai(WETH, maturity), divd(rate, rate0)), chi0));\n            profit = profit.add(divd(_controller.totalDebtYDai(CHAI, maturity), chi0));\n            profit = profit.sub(divd(yDai.totalSupply(), chi0));\n        }\n\n        return profit;\n    }\n\n    /// @dev Settle system debt in MakerDAO and free remaining collateral.\n    function settleTreasury() public {\n        require(\n            live == false,\n            \"Unwind: Unwind first\"\n        );\n        (uint256 ink, uint256 art) = _vat.urns(WETH, address(_treasury));\n        _treasuryWeth = ink;                            // We will need this to skim profits\n        _vat.fork(                                      // Take the treasury vault\n            WETH,\n            address(_treasury),\n            address(this),\n            toInt(ink),\n            toInt(art)\n        );\n        _end.skim(WETH, address(this));                // Settle debts\n        _end.free(WETH);                               // Free collateral\n        uint256 gem = _vat.gem(WETH, address(this));   // Find out how much collateral we have now\n        _wethJoin.exit(address(this), gem);            // Take collateral out\n        settled = true;\n    }\n\n    /// @dev Put all chai savings in MakerDAO and exchange them for weth\n    function cashSavings() public {\n        require(\n            _end.tag(WETH) != 0,\n            \"Unwind: End.sol not caged\"\n        );\n        require(\n            _end.fix(WETH) != 0,\n            \"Unwind: End.sol not ready\"\n        );\n        uint256 daiTokens = _chai.dai(address(_treasury));   // Find out how much is the chai worth\n        _chai.draw(address(_treasury), _treasury.savings()); // Get the chai as dai\n        _daiJoin.join(address(this), daiTokens);             // Put the dai into MakerDAO\n        _end.pack(daiTokens);                                // Into End.sol, more exactly\n        _end.cash(WETH, daiTokens);                          // Exchange the dai for weth\n        uint256 gem = _vat.gem(WETH, address(this));         // Find out how much collateral we have now\n        _wethJoin.exit(address(this), gem);                  // Take collateral out\n        cashedOut = true;\n\n        _fix = _end.fix(WETH);\n        _chi = _pot.chi();\n    }\n\n    /// @dev Settles a series position in Controller, and then returns any remaining collateral as weth using the unwind Dai to Weth price.\n    function settle(bytes32 collateral, address user) public {\n        require(settled && cashedOut, \"Unwind: Not ready\");\n\n        (uint256 tokens, uint256 debt) = _controller.erase(collateral, user);\n\n        uint256 remainder;\n        if (collateral == WETH) {\n            remainder = subFloorZero(tokens, muld(debt, _fix));\n        } else if (collateral == CHAI) {\n            remainder = muld(subFloorZero(muld(tokens, _chi), debt), _fix);\n        }\n        _weth.transfer(user, remainder);\n    }\n\n    /// @dev Redeems YDai for weth\n    function redeem(uint256 maturity, uint256 yDaiAmount, address user) public {\n        require(settled && cashedOut, \"Unwind: Not ready\");\n        IYDai yDai = _controller.series(maturity);\n        yDai.burn(user, yDaiAmount);\n        _weth.transfer(\n            user,\n            muld(muld(yDaiAmount, yDai.chiGrowth()), _fix)\n        );\n    }\n}\n",
  "sourcePath": "/Users/bruce/dev/yieldprotocol/ytoken-mvp/contracts/Unwind.sol",
  "compiler": {
    "name": "solc",
    "version": "0.6.10+commit.00c0fcaf.Emscripten.clang"
  },
  "schemaVersion": "3.0.23",
  "updatedAt": "2020-07-20T13:24:07.210Z",
  "networkType": "ethereum",
  "devdoc": {
    "details": "Unwind allows everyone to recover their assets from the Yield protocol in the event of a MakerDAO shutdown. Unwind also allows to remove any protocol profits at any time to the beneficiary address using `skimWhileLive`. During the unwind process, the system debt to MakerDAO is settled first with `settleTreasury`, extracting all free weth. Once the Treasury is settled, any system savings are converted from Chai to Weth using `cashSavings`. At this point, users can settle their positions using `settle`. The MakerDAO rates will be used to convert all debt and collateral to a Weth payout. Users can also redeem here their yDai for a Weth payout, using `redeem`. Protocol profits can be transferred to the beneficiary also at this point, using `skimDssShutdown`.",
    "methods": {
      "cashSavings()": {
        "details": "Put all chai savings in MakerDAO and exchange them for weth"
      },
      "owner()": {
        "details": "Returns the address of the current owner."
      },
      "redeem(uint256,uint256,address)": {
        "details": "Redeems YDai for weth"
      },
      "renounceOwnership()": {
        "details": "Leaves the contract without owner. It will not be possible to call `onlyOwner` functions anymore. Can only be called by the current owner. NOTE: Renouncing ownership will leave the contract without an owner, thereby removing any functionality that is only available to the owner."
      },
      "settle(bytes32,address)": {
        "details": "Settles a series position in Controller, and then returns any remaining collateral as weth using the unwind Dai to Weth price."
      },
      "settleTreasury()": {
        "details": "Settle system debt in MakerDAO and free remaining collateral."
      },
      "skimDssShutdown(address)": {
        "details": "Calculates how much profit is in the system and transfers it to the beneficiary"
      },
      "skimWhileLive(address)": {
        "details": "Calculates how much profit is in the system and transfers it to the beneficiary"
      },
      "subFloorZero(uint256,uint256)": {
        "details": "max(0, x - y)"
      },
      "transferOwnership(address)": {
        "details": "Transfers ownership of the contract to a new account (`newOwner`). Can only be called by the current owner."
      },
      "unwind()": {
        "details": "Disables treasury and controller."
      }
    }
  },
  "userdoc": {
    "methods": {}
  }
}