{
  "contractName": "Unwind",
  "abi": [
    {
      "inputs": [
        {
          "internalType": "address",
          "name": "vat_",
          "type": "address"
        },
        {
          "internalType": "address",
          "name": "daiJoin_",
          "type": "address"
        },
        {
          "internalType": "address",
          "name": "weth_",
          "type": "address"
        },
        {
          "internalType": "address",
          "name": "wethJoin_",
          "type": "address"
        },
        {
          "internalType": "address",
          "name": "jug_",
          "type": "address"
        },
        {
          "internalType": "address",
          "name": "pot_",
          "type": "address"
        },
        {
          "internalType": "address",
          "name": "end_",
          "type": "address"
        },
        {
          "internalType": "address",
          "name": "chai_",
          "type": "address"
        },
        {
          "internalType": "address",
          "name": "treasury_",
          "type": "address"
        },
        {
          "internalType": "address",
          "name": "dealer_",
          "type": "address"
        },
        {
          "internalType": "address",
          "name": "liquidations_",
          "type": "address"
        }
      ],
      "stateMutability": "nonpayable",
      "type": "constructor"
    },
    {
      "anonymous": false,
      "inputs": [
        {
          "indexed": true,
          "internalType": "address",
          "name": "previousOwner",
          "type": "address"
        },
        {
          "indexed": true,
          "internalType": "address",
          "name": "newOwner",
          "type": "address"
        }
      ],
      "name": "OwnershipTransferred",
      "type": "event"
    },
    {
      "inputs": [],
      "name": "CHAI",
      "outputs": [
        {
          "internalType": "bytes32",
          "name": "",
          "type": "bytes32"
        }
      ],
      "stateMutability": "view",
      "type": "function",
      "constant": true
    },
    {
      "inputs": [],
      "name": "UNIT",
      "outputs": [
        {
          "internalType": "uint256",
          "name": "",
          "type": "uint256"
        }
      ],
      "stateMutability": "view",
      "type": "function",
      "constant": true
    },
    {
      "inputs": [],
      "name": "WETH",
      "outputs": [
        {
          "internalType": "bytes32",
          "name": "",
          "type": "bytes32"
        }
      ],
      "stateMutability": "view",
      "type": "function",
      "constant": true
    },
    {
      "inputs": [],
      "name": "_chi",
      "outputs": [
        {
          "internalType": "uint256",
          "name": "",
          "type": "uint256"
        }
      ],
      "stateMutability": "view",
      "type": "function",
      "constant": true
    },
    {
      "inputs": [],
      "name": "_fix",
      "outputs": [
        {
          "internalType": "uint256",
          "name": "",
          "type": "uint256"
        }
      ],
      "stateMutability": "view",
      "type": "function",
      "constant": true
    },
    {
      "inputs": [],
      "name": "cashedOut",
      "outputs": [
        {
          "internalType": "bool",
          "name": "",
          "type": "bool"
        }
      ],
      "stateMutability": "view",
      "type": "function",
      "constant": true
    },
    {
      "inputs": [],
      "name": "live",
      "outputs": [
        {
          "internalType": "bool",
          "name": "",
          "type": "bool"
        }
      ],
      "stateMutability": "view",
      "type": "function",
      "constant": true
    },
    {
      "inputs": [],
      "name": "owner",
      "outputs": [
        {
          "internalType": "address",
          "name": "",
          "type": "address"
        }
      ],
      "stateMutability": "view",
      "type": "function",
      "constant": true
    },
    {
      "inputs": [],
      "name": "renounceOwnership",
      "outputs": [],
      "stateMutability": "nonpayable",
      "type": "function"
    },
    {
      "inputs": [
        {
          "internalType": "uint256",
          "name": "",
          "type": "uint256"
        }
      ],
      "name": "series",
      "outputs": [
        {
          "internalType": "contract IYDai",
          "name": "",
          "type": "address"
        }
      ],
      "stateMutability": "view",
      "type": "function",
      "constant": true
    },
    {
      "inputs": [],
      "name": "settled",
      "outputs": [
        {
          "internalType": "bool",
          "name": "",
          "type": "bool"
        }
      ],
      "stateMutability": "view",
      "type": "function",
      "constant": true
    },
    {
      "inputs": [
        {
          "internalType": "address",
          "name": "newOwner",
          "type": "address"
        }
      ],
      "name": "transferOwnership",
      "outputs": [],
      "stateMutability": "nonpayable",
      "type": "function"
    },
    {
      "inputs": [
        {
          "internalType": "uint256",
          "name": "x",
          "type": "uint256"
        },
        {
          "internalType": "uint256",
          "name": "y",
          "type": "uint256"
        }
      ],
      "name": "subFloorZero",
      "outputs": [
        {
          "internalType": "uint256",
          "name": "",
          "type": "uint256"
        }
      ],
      "stateMutability": "pure",
      "type": "function",
      "constant": true
    },
    {
      "inputs": [
        {
          "internalType": "uint256",
          "name": "maturity",
          "type": "uint256"
        }
      ],
      "name": "containsSeries",
      "outputs": [
        {
          "internalType": "bool",
          "name": "",
          "type": "bool"
        }
      ],
      "stateMutability": "view",
      "type": "function",
      "constant": true
    },
    {
      "inputs": [
        {
          "internalType": "address",
          "name": "yDaiContract",
          "type": "address"
        }
      ],
      "name": "addSeries",
      "outputs": [],
      "stateMutability": "nonpayable",
      "type": "function"
    },
    {
      "inputs": [],
      "name": "unwind",
      "outputs": [],
      "stateMutability": "nonpayable",
      "type": "function"
    },
    {
      "inputs": [],
      "name": "getChi",
      "outputs": [
        {
          "internalType": "uint256",
          "name": "",
          "type": "uint256"
        }
      ],
      "stateMutability": "nonpayable",
      "type": "function"
    },
    {
      "inputs": [],
      "name": "getRate",
      "outputs": [
        {
          "internalType": "uint256",
          "name": "",
          "type": "uint256"
        }
      ],
      "stateMutability": "nonpayable",
      "type": "function"
    },
    {
      "inputs": [
        {
          "internalType": "address",
          "name": "beneficiary",
          "type": "address"
        }
      ],
      "name": "skimWhileLive",
      "outputs": [],
      "stateMutability": "nonpayable",
      "type": "function"
    },
    {
      "inputs": [
        {
          "internalType": "address",
          "name": "beneficiary",
          "type": "address"
        }
      ],
      "name": "skimDssShutdown",
      "outputs": [],
      "stateMutability": "nonpayable",
      "type": "function"
    },
    {
      "inputs": [],
      "name": "settleTreasury",
      "outputs": [],
      "stateMutability": "nonpayable",
      "type": "function"
    },
    {
      "inputs": [],
      "name": "cashSavings",
      "outputs": [],
      "stateMutability": "nonpayable",
      "type": "function"
    },
    {
      "inputs": [
        {
          "internalType": "bytes32",
          "name": "collateral",
          "type": "bytes32"
        },
        {
          "internalType": "address",
          "name": "user",
          "type": "address"
        }
      ],
      "name": "settle",
      "outputs": [],
      "stateMutability": "nonpayable",
      "type": "function"
    },
    {
      "inputs": [
        {
          "internalType": "uint256",
          "name": "maturity",
          "type": "uint256"
        },
        {
          "internalType": "uint256",
          "name": "yDaiAmount",
          "type": "uint256"
        },
        {
          "internalType": "address",
          "name": "user",
          "type": "address"
        }
      ],
      "name": "redeem",
      "outputs": [],
      "stateMutability": "nonpayable",
      "type": "function"
    }
  ],
  "bytecode": "0x60806040526010805462ff00001916620100001790553480156200002257600080fd5b5060405162002e2e38038062002e2e83398181016040526101608110156200004957600080fd5b508051602082015160408301516060840151608085015160a086015160c087015160e08801516101008901516101208a0151610140909a0151989997989697959694959394929391929091906000620000aa6001600160e01b036200026c16565b600080546001600160a01b0319166001600160a01b0383169081178255604051929350917f8be0079c531659141344cd1fd0a4f28419497f9722a3daafe3b4186f6b6457e0908290a350600180546001600160a01b03199081166001600160a01b038e811691909117928390556002805483168e83161790556003805483168d83161790556004805483168c83161781556005805484168c84161790556006805484168b84161790556007805484168a84161790556008805484168984161790556009805484168884161790819055600a80548516888516179055600b805490941686841617909355604080516328ec8bf160e21b8152938316918401919091525192169163a3b22fc49160248082019260009290919082900301818387803b158015620001d757600080fd5b505af1158015620001ec573d6000803e3d6000fd5b5050600154600754604080516328ec8bf160e21b81526001600160a01b039283166004820152905191909216935063a3b22fc49250602480830192600092919082900301818387803b1580156200024257600080fd5b505af115801562000257573d6000803e3d6000fd5b50505050505050505050505050505062000270565b3390565b612bae80620002806000396000f3fe608060405234801561001057600080fd5b50600436106101985760003560e01c80638f775839116100e3578063ba4bb3771161008c578063dc22cb6a11610066578063dc22cb6a14610361578063f2fde38b1461037e578063f392c35a146103a457610198565b8063ba4bb377146102f8578063d0a3a7e41461031e578063d4fe76c01461033b57610198565b80639d8e2177116100bd5780639d8e2177146102e0578063ad5c4648146102e8578063b6dbf9ce146102f057610198565b80638f775839146102c8578063957aa58c146102d057806396b3e2f0146102d857610198565b80637c43a20111610145578063807763ab1161011f578063807763ab1461029457806383a965241461029c5780638da5cb5b146102a457610198565b80637c43a2011461023a5780637d4a9ab8146102605780637e709c3c1461028c57610198565b8063679aefce11610176578063679aefce1461020e578063715018a61461021657806374cbd36e1461021e57610198565b80630416c1a51461019d578063049104e5146101b757806335dbea17146101eb575b600080fd5b6101a56103ac565b60408051918252519081900360200190f35b6101e9600480360360608110156101cd57600080fd5b50803590602081013590604001356001600160a01b031661053e565b005b6101a56004803603604081101561020157600080fd5b50803590602001356107d5565b6101a56107f1565b6101e96109ad565b610226610a6e565b604080519115158252519081900360200190f35b6101e96004803603602081101561025057600080fd5b50356001600160a01b0316610a7c565b6101e96004803603604081101561027657600080fd5b50803590602001356001600160a01b0316610c17565b6101a5610f29565b6101e9610f2f565b6101a5611140565b6102ac611146565b604080516001600160a01b039092168252519081900360200190f35b610226611155565b61022661115e565b6101e961116d565b6101a5611554565b6101a5611564565b6101a5611570565b6101e96004803603602081101561030e57600080fd5b50356001600160a01b031661157b565b6102266004803603602081101561033457600080fd5b5035611907565b6101e96004803603602081101561035157600080fd5b50356001600160a01b0316611924565b6102ac6004803603602081101561037757600080fd5b5035611b7b565b6101e96004803603602081101561039457600080fd5b50356001600160a01b0316611b96565b6101e9611cad565b600654604080517f20aba08b00000000000000000000000000000000000000000000000000000000815290516000926001600160a01b0316916320aba08b91600480830192602092919082900301818787803b15801561040b57600080fd5b505af115801561041f573d6000803e3d6000fd5b505050506040513d602081101561043557600080fd5b505142116104bc57600660009054906101000a90046001600160a01b03166001600160a01b031663c92aecc46040518163ffffffff1660e01b815260040160206040518083038186803b15801561048b57600080fd5b505afa15801561049f573d6000803e3d6000fd5b505050506040513d60208110156104b557600080fd5b5051610539565b600660009054906101000a90046001600160a01b03166001600160a01b0316639f678cca6040518163ffffffff1660e01b8152600401602060405180830381600087803b15801561050c57600080fd5b505af1158015610520573d6000803e3d6000fd5b505050506040513d602081101561053657600080fd5b50515b905090565b60105460ff1680156105575750601054610100900460ff165b61059c576040805162461bcd60e51b8152602060048201526011602482015270556e77696e643a204e6f7420726561647960781b604482015290519081900360640190fd5b600a54604080517fdc22cb6a0000000000000000000000000000000000000000000000000000000081526004810186905290516000926001600160a01b03169163dc22cb6a91602480830192602092919082900301818787803b15801561060257600080fd5b505af1158015610616573d6000803e3d6000fd5b505050506040513d602081101561062c57600080fd5b5051604080517f9dc29fac0000000000000000000000000000000000000000000000000000000081526001600160a01b03858116600483015260248201879052915192935090831691639dc29fac9160448082019260009290919082900301818387803b15801561069c57600080fd5b505af11580156106b0573d6000803e3d6000fd5b50505050600360009054906101000a90046001600160a01b03166001600160a01b031663a9059cbb8361075461074c87866001600160a01b031663cb2401986040518163ffffffff1660e01b8152600401602060405180830381600087803b15801561071b57600080fd5b505af115801561072f573d6000803e3d6000fd5b505050506040513d602081101561074557600080fd5b5051612394565b600e54612394565b6040518363ffffffff1660e01b815260040180836001600160a01b03166001600160a01b0316815260200182815260200192505050602060405180830381600087803b1580156107a357600080fd5b505af11580156107b7573d6000803e3d6000fd5b505050506040513d60208110156107cd57600080fd5b505050505050565b60008282106107e6575060006107eb565b508082035b92915050565b60055460408051636cb1c69b60e11b8152644554482d4160d81b60048201528151600093849384936001600160a01b039092169263d9638d3692602480820193929182900301818787803b15801561084857600080fd5b505af115801561085c573d6000803e3d6000fd5b505050506040513d604081101561087257600080fd5b506020015190504281101561092257600554604080517f44e2a5a8000000000000000000000000000000000000000000000000000000008152644554482d4160d81b600482015290516001600160a01b03909216916344e2a5a8916024808201926020929091908290030181600087803b1580156108ef57600080fd5b505af1158015610903573d6000803e3d6000fd5b505050506040513d602081101561091957600080fd5b505191506109a7565b60015460408051636cb1c69b60e11b8152644554482d4160d81b600482015290516001600160a01b039092169163d9638d369160248082019260a092909190829003018186803b15801561097557600080fd5b505afa158015610989573d6000803e3d6000fd5b505050506040513d60a081101561099f57600080fd5b506020015191505b50905090565b6109b56123c9565b6000546001600160a01b03908116911614610a17576040805162461bcd60e51b815260206004820181905260248201527f4f776e61626c653a2063616c6c6572206973206e6f7420746865206f776e6572604482015290519081900360640190fd5b600080546040516001600160a01b03909116907f8be0079c531659141344cd1fd0a4f28419497f9722a3daafe3b4186f6b6457e0908390a36000805473ffffffffffffffffffffffffffffffffffffffff19169055565b601054610100900460ff1681565b610a846123c9565b6000546001600160a01b03908116911614610ae6576040805162461bcd60e51b815260206004820181905260248201527f4f776e61626c653a2063616c6c6572206973206e6f7420746865206f776e6572604482015290519081900360640190fd5b6000816001600160a01b031663204f83f96040518163ffffffff1660e01b815260040160206040518083038186803b158015610b2157600080fd5b505afa158015610b35573d6000803e3d6000fd5b505050506040513d6020811015610b4b57600080fd5b50519050610b5881611907565b15610baa576040805162461bcd60e51b815260206004820152601c60248201527f4465616c65723a2053657269657320616c726561647920616464656400000000604482015290519081900360640190fd5b6000818152600c60205260408120805473ffffffffffffffffffffffffffffffffffffffff19166001600160a01b039490941693909317909255600d805460018101825592527fd7b6990105719101dabeb77144f2a3385c8033acd3af97e9423a695e81ad1eb590910155565b60105460ff168015610c305750601054610100900460ff165b610c75576040805162461bcd60e51b8152602060048201526011602482015270556e77696e643a204e6f7420726561647960781b604482015290519081900360640190fd5b600a54604080517fe68b7cf4000000000000000000000000000000000000000000000000000000008152600481018590526001600160a01b0384811660248301529151600093929092169163e68b7cf49160448082019260209290919082900301818787803b158015610ce757600080fd5b505af1158015610cfb573d6000803e3d6000fd5b505050506040513d6020811015610d1157600080fd5b5051600a54604080517fdd62f423000000000000000000000000000000000000000000000000000000008152600481018790526001600160a01b0386811660248301529151939450600093919092169163dd62f423916044808301926020929190829003018186803b158015610d8657600080fd5b505afa158015610d9a573d6000803e3d6000fd5b505050506040513d6020811015610db057600080fd5b5051600a54604080517ff51a391a000000000000000000000000000000000000000000000000000000008152600481018890526001600160a01b0387811660248301526044820187905260648201859052915193945091169163f51a391a9160848082019260009290919082900301818387803b158015610e3057600080fd5b505af1158015610e44573d6000803e3d6000fd5b505050506000644554482d4160d81b851415610e7657610e6f82610e6a85600e54612394565b6107d5565b9050610ea0565b634348414960e01b851415610ea057610e9d61074c610e9784600f54612394565b856107d5565b90505b6003546040805163a9059cbb60e01b81526001600160a01b038781166004830152602482018590529151919092169163a9059cbb9160448083019260209291908290030181600087803b158015610ef657600080fd5b505af1158015610f0a573d6000803e3d6000fd5b505050506040513d6020811015610f2057600080fd5b50505050505050565b600f5481565b6007546040805163ee6447b560e01b8152644554482d4160d81b600482015290516001600160a01b039092169163ee6447b5916024808201926020929091908290030181600087803b158015610f8457600080fd5b505af1158015610f98573d6000803e3d6000fd5b505050506040513d6020811015610fae57600080fd5b5051610feb5760405162461bcd60e51b8152600401808060200182810382526022815260200180612b576022913960400191505060405180910390fd5b6010805462ff000019169055600954604080517ffc0e74d100000000000000000000000000000000000000000000000000000000815290516001600160a01b039092169163fc0e74d19160048082019260009290919082900301818387803b15801561105657600080fd5b505af115801561106a573d6000803e3d6000fd5b50505050600a60009054906101000a90046001600160a01b03166001600160a01b031663fc0e74d16040518163ffffffff1660e01b8152600401600060405180830381600087803b1580156110be57600080fd5b505af11580156110d2573d6000803e3d6000fd5b50505050600b60009054906101000a90046001600160a01b03166001600160a01b031663fc0e74d16040518163ffffffff1660e01b8152600401600060405180830381600087803b15801561112657600080fd5b505af115801561113a573d6000803e3d6000fd5b50505050565b600e5481565b6000546001600160a01b031690565b60105460ff1681565b60105462010000900460ff1681565b60105462010000900460ff16156111cb576040805162461bcd60e51b815260206004820152601460248201527f556e77696e643a20556e77696e64206669727374000000000000000000000000604482015290519081900360640190fd5b600154600954604080517f2424be5c000000000000000000000000000000000000000000000000000000008152644554482d4160d81b60048201526001600160a01b039283166024820152815160009485941692632424be5c9260448082019391829003018186803b15801561124057600080fd5b505afa158015611254573d6000803e3d6000fd5b505050506040513d604081101561126a57600080fd5b5080516020909101516001546009549294509092506001600160a01b039081169163870c616d91644554482d4160d81b9116306112a6876123cd565b6112af876123cd565b6040518663ffffffff1660e01b815260040180868152602001856001600160a01b03166001600160a01b03168152602001846001600160a01b03166001600160a01b0316815260200183815260200182815260200195505050505050600060405180830381600087803b15801561132557600080fd5b505af1158015611339573d6000803e3d6000fd5b5050600754604080517f89ea45d3000000000000000000000000000000000000000000000000000000008152644554482d4160d81b600482015230602482015290516001600160a01b0390921693506389ea45d3925060448082019260009290919082900301818387803b1580156113b057600080fd5b505af11580156113c4573d6000803e3d6000fd5b5050600754604080517fc83062c6000000000000000000000000000000000000000000000000000000008152644554482d4160d81b600482015290516001600160a01b03909216935063c83062c6925060248082019260009290919082900301818387803b15801561143557600080fd5b505af1158015611449573d6000803e3d6000fd5b50506001546040805163214414d560e01b8152644554482d4160d81b60048201523060248201529051600094506001600160a01b03909216925063214414d5916044808301926020929190829003018186803b1580156114a857600080fd5b505afa1580156114bc573d6000803e3d6000fd5b505050506040513d60208110156114d257600080fd5b5051600480546040805163ef693bed60e01b8152309381019390935260248301849052519293506001600160a01b03169163ef693bed9160448082019260009290919082900301818387803b15801561152a57600080fd5b505af115801561153e573d6000803e3d6000fd5b50506010805460ff191660011790555050505050565b6b033b2e3c9fd0803ce800000081565b644554482d4160d81b81565b634348414960e01b81565b60105460ff1680156115945750601054610100900460ff165b6115d9576040805162461bcd60e51b8152602060048201526011602482015270556e77696e643a204e6f7420726561647960781b604482015290519081900360640190fd5b6006546040805163324abb3160e21b815290516000926001600160a01b03169163c92aecc4916004808301926020929190829003018186803b15801561161e57600080fd5b505afa158015611632573d6000803e3d6000fd5b505050506040513d602081101561164857600080fd5b505160015460408051636cb1c69b60e11b8152644554482d4160d81b600482015290519293506000926001600160a01b039092169163d9638d369160248082019260a092909190829003018186803b1580156116a357600080fd5b505afa1580156116b7573d6000803e3d6000fd5b505050506040513d60a08110156116cd57600080fd5b50602090810151600354604080516370a0823160e01b815230600482015290519294506000936001600160a01b03909216926370a0823192602480840193919291829003018186803b15801561172257600080fd5b505afa158015611736573d6000803e3d6000fd5b505050506040513d602081101561174c57600080fd5b5051905061177661176961176361074c8686612421565b85612394565b829063ffffffff6127bc16565b600a5460408051638da66ed960e01b8152644554482d4160d81b6004820152905192935061180b926001600160a01b0390921691638da66ed9916024808201926020929091908290030181600087803b1580156117d257600080fd5b505af11580156117e6573d6000803e3d6000fd5b505050506040513d60208110156117fc57600080fd5b5051829063ffffffff61281616565b600a5460408051638da66ed960e01b8152634348414960e01b600482015290519293506118af926118a292611763926001600160a01b0390911691638da66ed9916024808201926020929091908290030181600087803b15801561186e57600080fd5b505af1158015611882573d6000803e3d6000fd5b505050506040513d602081101561189857600080fd5b5051600e54612394565b829063ffffffff61281616565b6003546040805163a9059cbb60e01b81526001600160a01b03888116600483015260248201859052915193945091169163a9059cbb916044808201926020929091908290030181600087803b1580156107a357600080fd5b6000908152600c60205260409020546001600160a01b0316151590565b60105462010000900460ff1615156001146119705760405162461bcd60e51b8152600401808060200182810382526026815260200180612b106026913960400191505060405180910390fd5b600854600954604080516370a0823160e01b81526001600160a01b039283166004820152905160009392909216916370a0823191602480820192602092909190829003018186803b1580156119c457600080fd5b505afa1580156119d8573d6000803e3d6000fd5b505050506040513d60208110156119ee57600080fd5b50519050611a0d611769611a006103ac565b611a086107f1565b612421565b9050611a9c6118a2600960009054906101000a90046001600160a01b03166001600160a01b0316630dca59c16040518163ffffffff1660e01b815260040160206040518083038186803b158015611a6357600080fd5b505afa158015611a77573d6000803e3d6000fd5b505050506040513d6020811015611a8d57600080fd5b5051611a976103ac565b612858565b600a5460408051638da66ed960e01b8152634348414960e01b60048201529051929350611af7926001600160a01b0390921691638da66ed9916024808201926020929091908290030181600087803b1580156117d257600080fd5b600954604080517f9fa836890000000000000000000000000000000000000000000000000000000081526001600160a01b038681166004830152602482018590529151939450911691639fa836899160448082019260009290919082900301818387803b158015611b6757600080fd5b505af11580156107cd573d6000803e3d6000fd5b600c602052600090815260409020546001600160a01b031681565b611b9e6123c9565b6000546001600160a01b03908116911614611c00576040805162461bcd60e51b815260206004820181905260248201527f4f776e61626c653a2063616c6c6572206973206e6f7420746865206f776e6572604482015290519081900360640190fd5b6001600160a01b038116611c455760405162461bcd60e51b8152600401808060200182810382526026815260200180612a776026913960400191505060405180910390fd5b600080546040516001600160a01b03808516939216917f8be0079c531659141344cd1fd0a4f28419497f9722a3daafe3b4186f6b6457e091a36000805473ffffffffffffffffffffffffffffffffffffffff19166001600160a01b0392909216919091179055565b6007546040805163ee6447b560e01b8152644554482d4160d81b600482015290516001600160a01b039092169163ee6447b5916024808201926020929091908290030181600087803b158015611d0257600080fd5b505af1158015611d16573d6000803e3d6000fd5b505050506040513d6020811015611d2c57600080fd5b5051611d7f576040805162461bcd60e51b815260206004820152601960248201527f556e77696e643a20456e642e736f6c206e6f7420636167656400000000000000604482015290519081900360640190fd5b600754604080516331fd6c2f60e11b8152644554482d4160d81b600482015290516001600160a01b03909216916363fad85e916024808201926020929091908290030181600087803b158015611dd457600080fd5b505af1158015611de8573d6000803e3d6000fd5b505050506040513d6020811015611dfe57600080fd5b5051611e51576040805162461bcd60e51b815260206004820152601960248201527f556e77696e643a20456e642e736f6c206e6f7420726561647900000000000000604482015290519081900360640190fd5b600854600954604080517f6c25b3460000000000000000000000000000000000000000000000000000000081526001600160a01b03928316600482015290516000939290921691636c25b3469160248082019260209290919082900301818787803b158015611ebf57600080fd5b505af1158015611ed3573d6000803e3d6000fd5b505050506040513d6020811015611ee957600080fd5b5051600854600954604080517fc86d6ae400000000000000000000000000000000000000000000000000000000815290519394506001600160a01b0392831693634a03707c9390921691829163c86d6ae49160048083019260209291908290030181600087803b158015611f5c57600080fd5b505af1158015611f70573d6000803e3d6000fd5b505050506040513d6020811015611f8657600080fd5b5051604080517fffffffff0000000000000000000000000000000000000000000000000000000060e086901b1681526001600160a01b039093166004840152602483019190915251604480830192600092919082900301818387803b158015611fee57600080fd5b505af1158015612002573d6000803e3d6000fd5b5050600254604080517f3b4da69f0000000000000000000000000000000000000000000000000000000081523060048201526024810186905290516001600160a01b039092169350633b4da69f925060448082019260009290919082900301818387803b15801561207257600080fd5b505af1158015612086573d6000803e3d6000fd5b5050600754604080517f6ea425550000000000000000000000000000000000000000000000000000000081526004810186905290516001600160a01b039092169350636ea42555925060248082019260009290919082900301818387803b1580156120f057600080fd5b505af1158015612104573d6000803e3d6000fd5b5050600754604080517ffe8507c6000000000000000000000000000000000000000000000000000000008152644554482d4160d81b60048201526024810186905290516001600160a01b03909216935063fe8507c6925060448082019260009290919082900301818387803b15801561217c57600080fd5b505af1158015612190573d6000803e3d6000fd5b50506001546040805163214414d560e01b8152644554482d4160d81b60048201523060248201529051600094506001600160a01b03909216925063214414d5916044808301926020929190829003018186803b1580156121ef57600080fd5b505afa158015612203573d6000803e3d6000fd5b505050506040513d602081101561221957600080fd5b5051600480546040805163ef693bed60e01b8152309381019390935260248301849052519293506001600160a01b03169163ef693bed9160448082019260009290919082900301818387803b15801561227157600080fd5b505af1158015612285573d6000803e3d6000fd5b50506010805461ff0019166101001790555050600754604080516331fd6c2f60e11b8152644554482d4160d81b600482015290516001600160a01b03909216916363fad85e916024808201926020929091908290030181600087803b1580156122ed57600080fd5b505af1158015612301573d6000803e3d6000fd5b505050506040513d602081101561231757600080fd5b5051600e556006546040805163324abb3160e21b815290516001600160a01b039092169163c92aecc491600480820192602092909190829003018186803b15801561236157600080fd5b505afa158015612375573d6000803e3d6000fd5b505050506040513d602081101561238b57600080fd5b5051600f555050565b60006123c26b033b2e3c9fd0803ce80000006123b6858563ffffffff61287a16565b9063ffffffff6128d316565b9392505050565b3390565b60006123df6123da612915565b612939565b82111561241d5760405162461bcd60e51b815260040180806020018281038252603b815260200180612a9d603b913960400191505060405180910390fd5b5090565b600080805b600d548110156127b4576000600d828154811061243f57fe5b906000526020600020015490506000600c6000600d858154811061245f57fe5b9060005260206000200154815260200190815260200160002060009054906101000a90046001600160a01b03169050600080826001600160a01b031663ae4e7fdf6040518163ffffffff1660e01b815260040160206040518083038186803b1580156124ca57600080fd5b505afa1580156124de573d6000803e3d6000fd5b505050506040513d60208110156124f457600080fd5b5051156125f057826001600160a01b03166312970eac6040518163ffffffff1660e01b815260040160206040518083038186803b15801561253457600080fd5b505afa158015612548573d6000803e3d6000fd5b505050506040513d602081101561255e57600080fd5b5051604080517f93c19e1800000000000000000000000000000000000000000000000000000000815290519193506001600160a01b038516916393c19e1891600480820192602092909190829003018186803b1580156125bd57600080fd5b505afa1580156125d1573d6000803e3d6000fd5b505050506040513d60208110156125e757600080fd5b505190506125f6565b50879050865b600a54604080516320e7349f60e21b8152644554482d4160d81b60048201526024810187905290516126ac9261269f92612699926001600160a01b039092169163839cd27c916044808201926020929091908290030181600087803b15801561265e57600080fd5b505af1158015612672573d6000803e3d6000fd5b505050506040513d602081101561268857600080fd5b50516126948c86612858565b612394565b84612858565b879063ffffffff6127bc16565b600a54604080516320e7349f60e21b8152634348414960e01b60048201526024810188905290519298506127419261269f926001600160a01b03169163839cd27c9160448083019260209291908290030181600087803b15801561270f57600080fd5b505af1158015612723573d6000803e3d6000fd5b505050506040513d602081101561273957600080fd5b505184612858565b95506127a3612796846001600160a01b03166318160ddd6040518163ffffffff1660e01b815260040160206040518083038186803b15801561278257600080fd5b505afa158015612723573d6000803e3d6000fd5b879063ffffffff61281616565b955050505050600181019050612426565b509392505050565b6000828201838110156123c2576040805162461bcd60e51b815260206004820152601b60248201527f536166654d6174683a206164646974696f6e206f766572666c6f770000000000604482015290519081900360640190fd5b60006123c283836040518060400160405280601e81526020017f536166654d6174683a207375627472616374696f6e206f766572666c6f77000081525061297a565b60006123c2826123b6856b033b2e3c9fd0803ce800000063ffffffff61287a16565b600082612889575060006107eb565b8282028284828161289657fe5b04146123c25760405162461bcd60e51b8152600401808060200182810382526021815260200180612b366021913960400191505060405180910390fd5b60006123c283836040518060400160405280601a81526020017f536166654d6174683a206469766973696f6e206279207a65726f000000000000815250612a11565b7f7fffffffffffffffffffffffffffffffffffffffffffffffffffffffffffffff90565b60008082121561241d5760405162461bcd60e51b8152600401808060200182810382526038815260200180612ad86038913960400191505060405180910390fd5b60008184841115612a095760405162461bcd60e51b81526004018080602001828103825283818151815260200191508051906020019080838360005b838110156129ce5781810151838201526020016129b6565b50505050905090810190601f1680156129fb5780820380516001836020036101000a031916815260200191505b509250505060405180910390fd5b505050900390565b60008183612a605760405162461bcd60e51b81526020600482018181528351602484015283519092839260449091019190850190808383600083156129ce5781810151838201526020016129b6565b506000838581612a6c57fe5b049594505050505056fe4f776e61626c653a206e6577206f776e657220697320746865207a65726f206164647265737343616e6e6f742063617374206f766572666c6f77696e6720756e7369676e656420696e746567657220746f207369676e656420696e74656765722e43616e6e6f742063617374206e65676174697665207369676e656420696e746567657220746f20756e7369676e656420696e74656765722e556e77696e643a2043616e206f6e6c7920736b696d5768696c654c697665206966206c697665536166654d6174683a206d756c7469706c69636174696f6e206f766572666c6f77556e77696e643a204d616b657244414f206e6f74207368757474696e6720646f776ea264697066735822122023b2b65e9e5c75363f4cc757bee363e886a490278f85c6c195cd7537bb0117a664736f6c634300060a0033",
  "source": "pragma solidity ^0.6.0;\n\nimport \"@hq20/contracts/contracts/utils/SafeCast.sol\";\nimport \"@openzeppelin/contracts/access/Ownable.sol\";\nimport \"@openzeppelin/contracts/math/SafeMath.sol\";\nimport \"@openzeppelin/contracts/token/ERC20/IERC20.sol\";\nimport \"./interfaces/IVat.sol\";\nimport \"./interfaces/IDaiJoin.sol\";\nimport \"./interfaces/IGemJoin.sol\";\nimport \"./interfaces/IJug.sol\";\nimport \"./interfaces/IPot.sol\";\nimport \"./interfaces/IEnd.sol\";\nimport \"./interfaces/IChai.sol\";\nimport \"./interfaces/ITreasury.sol\";\nimport \"./interfaces/IDealer.sol\";\nimport \"./interfaces/IYDai.sol\";\nimport \"./interfaces/ILiquidations.sol\";\nimport \"./helpers/DecimalMath.sol\";\n// import \"@nomiclabs/buidler/console.sol\";\n\n\n/// @dev Treasury manages the Dai, interacting with MakerDAO's vat and chai when needed.\ncontract Unwind is Ownable(), DecimalMath {\n    using SafeCast for uint256;\n    using SafeMath for uint256;\n\n\n    bytes32 public constant CHAI = \"CHAI\";\n    bytes32 public constant WETH = \"ETH-A\";\n\n    IVat internal _vat;\n    IDaiJoin internal _daiJoin;\n    IERC20 internal _weth;\n    IGemJoin internal _wethJoin;\n    IJug internal _jug;\n    IPot internal _pot;\n    IEnd internal _end;\n    IChai internal _chai;\n    ITreasury internal _treasury;\n    IDealer internal _dealer;\n    ILiquidations internal _liquidations;\n\n    // TODO: Series related code is repeated with Dealer, can be extracted into a parent class.\n    mapping(uint256 => IYDai) public series; // YDai series, indexed by maturity\n    uint256[] internal seriesIterator;       // We need to know all the series\n\n    uint256 public _fix; // Dai to weth price on DSS Unwind\n    uint256 public _chi; // Chai to dai price on DSS Unwind\n\n    bool public settled;\n    bool public cashedOut;\n    bool public live = true;\n\n    constructor (\n        address vat_,\n        address daiJoin_,\n        address weth_,\n        address wethJoin_,\n        address jug_,\n        address pot_,\n        address end_,\n        address chai_,\n        address treasury_,\n        address dealer_,\n        address liquidations_\n    ) public {\n        // These could be hardcoded for mainnet deployment.\n        _vat = IVat(vat_);\n        _daiJoin = IDaiJoin(daiJoin_);\n        _weth = IERC20(weth_);\n        _wethJoin = IGemJoin(wethJoin_);\n        _jug = IJug(jug_);\n        _pot = IPot(pot_);\n        _end = IEnd(end_);\n        _chai = IChai(chai_);\n        _treasury = ITreasury(treasury_);\n        _dealer = IDealer(dealer_);\n        _liquidations = ILiquidations(liquidations_);\n\n        _vat.hope(address(_treasury));\n        _vat.hope(address(_end));\n    }\n\n    /// @dev max(0, x - y)\n    function subFloorZero(uint256 x, uint256 y) public pure returns(uint256) {\n        if (y >= x) return 0;\n        else return x - y;\n    }\n\n    /// @dev Returns if a series has been added to the Dealer, for a given series identified by maturity\n    function containsSeries(uint256 maturity) public view returns (bool) {\n        return address(series[maturity]) != address(0);\n    }\n\n    /// @dev Adds an yDai series to this Dealer\n    function addSeries(address yDaiContract) public onlyOwner {\n        uint256 maturity = IYDai(yDaiContract).maturity();\n        require(\n            !containsSeries(maturity),\n            \"Dealer: Series already added\"\n        );\n        series[maturity] = IYDai(yDaiContract);\n        seriesIterator.push(maturity);\n    }\n\n    /// @dev Disables treasury and dealer.\n    function unwind() public {\n        require(\n            _end.tag(WETH) != 0,\n            \"Unwind: MakerDAO not shutting down\"\n        );\n        live = false;\n        _treasury.shutdown();\n        _dealer.shutdown();\n        _liquidations.shutdown();\n    }\n\n    function getChi() public returns (uint256) {\n        return (now > _pot.rho()) ? _pot.drip() : _pot.chi();\n    }\n\n    function getRate() public returns (uint256) {\n        uint256 rate;\n        (, uint256 rho) = _jug.ilks(WETH);\n        if (now > rho) {\n            rate = _jug.drip(WETH);\n        } else {\n            (, rate,,,) = _vat.ilks(WETH);\n        }\n        return rate;\n    }\n\n    /// @dev Calculates how much profit is in the system and transfers it to the beneficiary\n    function skimWhileLive(address beneficiary) public { // TODO: Hardcode\n        require(\n            live == true, // If DSS is not live this method will fail later on.\n            \"Unwind: Can only skimWhileLive if live\"\n        );\n\n        uint256 profit = _chai.balanceOf(address(_treasury));\n        profit = profit.add(_yDaiProfit(getChi(), getRate()));\n        profit = profit.sub(divd(_treasury.debt(), getChi()));\n        profit = profit.sub(_dealer.systemPosted(CHAI));\n\n        _treasury.pullChai(beneficiary, profit);\n    }\n\n    /// @dev Calculates how much profit is in the system and transfers it to the beneficiary\n    function skimDssShutdown(address beneficiary) public { // TODO: Hardcode\n        require(settled && cashedOut, \"Unwind: Not ready\");\n\n        uint256 chi = _pot.chi();\n        (, uint256 rate,,,) = _vat.ilks(WETH);\n        uint256 profit = _weth.balanceOf(address(this));\n\n        profit = profit.add(muld(muld(_yDaiProfit(chi, rate), _fix), chi));\n        profit = profit.sub(_dealer.systemPosted(WETH));\n        profit = profit.sub(muld(muld(_dealer.systemPosted(CHAI), _fix), chi));\n\n        _weth.transfer(beneficiary, profit);\n    }\n\n    /// @dev Returns the profit accummulated in the system due to yDai supply and debt, in chai, for a given chi and rate.\n    function _yDaiProfit(uint256 chi, uint256 rate) internal returns (uint256) {\n        uint256 profit;\n\n        for (uint256 i = 0; i < seriesIterator.length; i += 1) {\n            uint256 maturity = seriesIterator[i];\n            IYDai yDai = IYDai(series[seriesIterator[i]]);\n\n            uint256 chi0;\n            uint256 rate0;\n            if (yDai.isMature()){\n                chi0 = yDai.chi0();\n                rate0 = yDai.rate0();\n            } else {\n                chi0 = chi;\n                rate0 = rate;\n            }\n\n            profit = profit.add(divd(muld(_dealer.systemDebtYDai(WETH, maturity), divd(rate, rate0)), chi0));\n            profit = profit.add(divd(_dealer.systemDebtYDai(CHAI, maturity), chi0));\n            profit = profit.sub(divd(yDai.totalSupply(), chi0));\n        }\n\n        return profit;\n    }\n\n    /// @dev Settle system debt in MakerDAO and free remaining collateral.\n    function settleTreasury() public {\n        require(\n            live == false,\n            \"Unwind: Unwind first\"\n        );\n        (uint256 ink, uint256 art) = _vat.urns(WETH, address(_treasury));\n        _vat.fork(                                               // Take the treasury vault\n            WETH,\n            address(_treasury),\n            address(this),\n            ink.toInt(),\n            art.toInt()\n        );\n        _end.skim(WETH, address(this));                // Settle debts\n        _end.free(WETH);                               // Free collateral\n        uint256 gem = _vat.gem(WETH, address(this));          // Find out how much collateral we have now\n        _wethJoin.exit(address(this), gem);                      // Take collateral out\n        settled = true;\n    }\n\n    /// @dev Put all chai savings in MakerDAO and exchange them for weth\n    function cashSavings() public {\n        require(\n            _end.tag(WETH) != 0,\n            \"Unwind: End.sol not caged\"\n        );\n        require(\n            _end.fix(WETH) != 0,\n            \"Unwind: End.sol not ready\"\n        );\n        uint256 daiTokens = _chai.dai(address(_treasury));   // Find out how much is the chai worth\n        _chai.draw(address(_treasury), _treasury.savings()); // Get the chai as dai\n        _daiJoin.join(address(this), daiTokens);             // Put the dai into MakerDAO\n        _end.pack(daiTokens);                                // Into End.sol, more exactly\n        _end.cash(WETH, daiTokens);                // Exchange the dai for weth\n        uint256 gem = _vat.gem(WETH, address(this));      // Find out how much collateral we have now\n        _wethJoin.exit(address(this), gem);                  // Take collateral out\n        cashedOut = true;\n\n        _fix = _end.fix(WETH);\n        _chi = _pot.chi();\n    }\n\n    /// @dev Settles a series position in Dealer, and then returns any remaining collateral as weth using the unwind Dai to Weth price.\n    function settle(bytes32 collateral, address user) public {\n        require(settled && cashedOut, \"Unwind: Not ready\");\n\n        uint256 debt = _dealer.totalDebtDai(collateral, user);\n        uint256 tokens = _dealer.posted(collateral, user);\n        _dealer.grab(collateral, user, debt, tokens);\n\n        uint256 remainder;\n        if (collateral == WETH) {\n            remainder = subFloorZero(tokens, muld(debt, _fix));\n        } else if (collateral == CHAI) {\n            remainder = muld(subFloorZero(muld(tokens, _chi), debt), _fix);\n        }\n        _weth.transfer(user, remainder);\n    }\n\n    /// @dev Redeems YDai for weth\n    function redeem(uint256 maturity, uint256 yDaiAmount, address user) public {\n        require(settled && cashedOut, \"Unwind: Not ready\");\n        IYDai yDai = _dealer.series(maturity);\n        yDai.burn(user, yDaiAmount);\n        _weth.transfer(\n            user,\n            muld(muld(yDaiAmount, yDai.chiGrowth()), _fix)\n        );\n    }\n}",
  "sourcePath": "/Users/bruce/dev/yieldprotocol/ytoken-mvp/contracts/Unwind.sol",
  "compiler": {
    "name": "solc",
    "version": "0.6.10+commit.00c0fcaf.Emscripten.clang"
  },
  "schemaVersion": "3.0.23",
  "updatedAt": "2020-07-10T08:45:07.183Z",
  "networkType": "ethereum",
  "devdoc": {
    "details": "Treasury manages the Dai, interacting with MakerDAO's vat and chai when needed.",
    "methods": {
      "addSeries(address)": {
        "details": "Adds an yDai series to this Dealer"
      },
      "cashSavings()": {
        "details": "Put all chai savings in MakerDAO and exchange them for weth"
      },
      "containsSeries(uint256)": {
        "details": "Returns if a series has been added to the Dealer, for a given series identified by maturity"
      },
      "owner()": {
        "details": "Returns the address of the current owner."
      },
      "redeem(uint256,uint256,address)": {
        "details": "Redeems YDai for weth"
      },
      "renounceOwnership()": {
        "details": "Leaves the contract without owner. It will not be possible to call `onlyOwner` functions anymore. Can only be called by the current owner. NOTE: Renouncing ownership will leave the contract without an owner, thereby removing any functionality that is only available to the owner."
      },
      "settle(bytes32,address)": {
        "details": "Settles a series position in Dealer, and then returns any remaining collateral as weth using the unwind Dai to Weth price."
      },
      "settleTreasury()": {
        "details": "Settle system debt in MakerDAO and free remaining collateral."
      },
      "skimDssShutdown(address)": {
        "details": "Calculates how much profit is in the system and transfers it to the beneficiary"
      },
      "skimWhileLive(address)": {
        "details": "Calculates how much profit is in the system and transfers it to the beneficiary"
      },
      "subFloorZero(uint256,uint256)": {
        "details": "max(0, x - y)"
      },
      "transferOwnership(address)": {
        "details": "Transfers ownership of the contract to a new account (`newOwner`). Can only be called by the current owner."
      },
      "unwind()": {
        "details": "Disables treasury and dealer."
      }
    }
  },
  "userdoc": {
    "methods": {}
  }
}