{
  "contractName": "Unwind",
  "abi": [
    {
      "inputs": [
        {
          "internalType": "address",
          "name": "vat_",
          "type": "address"
        },
        {
          "internalType": "address",
          "name": "daiJoin_",
          "type": "address"
        },
        {
          "internalType": "address",
          "name": "weth_",
          "type": "address"
        },
        {
          "internalType": "address",
          "name": "wethJoin_",
          "type": "address"
        },
        {
          "internalType": "address",
          "name": "pot_",
          "type": "address"
        },
        {
          "internalType": "address",
          "name": "end_",
          "type": "address"
        },
        {
          "internalType": "address",
          "name": "chai_",
          "type": "address"
        },
        {
          "internalType": "address",
          "name": "treasury_",
          "type": "address"
        },
        {
          "internalType": "address",
          "name": "controller_",
          "type": "address"
        },
        {
          "internalType": "address",
          "name": "liquidations_",
          "type": "address"
        }
      ],
      "stateMutability": "nonpayable",
      "type": "constructor"
    },
    {
      "anonymous": false,
      "inputs": [
        {
          "indexed": true,
          "internalType": "address",
          "name": "previousOwner",
          "type": "address"
        },
        {
          "indexed": true,
          "internalType": "address",
          "name": "newOwner",
          "type": "address"
        }
      ],
      "name": "OwnershipTransferred",
      "type": "event"
    },
    {
      "inputs": [],
      "name": "CHAI",
      "outputs": [
        {
          "internalType": "bytes32",
          "name": "",
          "type": "bytes32"
        }
      ],
      "stateMutability": "view",
      "type": "function",
      "constant": true
    },
    {
      "inputs": [],
      "name": "UNIT",
      "outputs": [
        {
          "internalType": "uint256",
          "name": "",
          "type": "uint256"
        }
      ],
      "stateMutability": "view",
      "type": "function",
      "constant": true
    },
    {
      "inputs": [],
      "name": "WETH",
      "outputs": [
        {
          "internalType": "bytes32",
          "name": "",
          "type": "bytes32"
        }
      ],
      "stateMutability": "view",
      "type": "function",
      "constant": true
    },
    {
      "inputs": [],
      "name": "_chi",
      "outputs": [
        {
          "internalType": "uint256",
          "name": "",
          "type": "uint256"
        }
      ],
      "stateMutability": "view",
      "type": "function",
      "constant": true
    },
    {
      "inputs": [],
      "name": "_fix",
      "outputs": [
        {
          "internalType": "uint256",
          "name": "",
          "type": "uint256"
        }
      ],
      "stateMutability": "view",
      "type": "function",
      "constant": true
    },
    {
      "inputs": [],
      "name": "cashedOut",
      "outputs": [
        {
          "internalType": "bool",
          "name": "",
          "type": "bool"
        }
      ],
      "stateMutability": "view",
      "type": "function",
      "constant": true
    },
    {
      "inputs": [],
      "name": "live",
      "outputs": [
        {
          "internalType": "bool",
          "name": "",
          "type": "bool"
        }
      ],
      "stateMutability": "view",
      "type": "function",
      "constant": true
    },
    {
      "inputs": [],
      "name": "owner",
      "outputs": [
        {
          "internalType": "address",
          "name": "",
          "type": "address"
        }
      ],
      "stateMutability": "view",
      "type": "function",
      "constant": true
    },
    {
      "inputs": [],
      "name": "renounceOwnership",
      "outputs": [],
      "stateMutability": "nonpayable",
      "type": "function"
    },
    {
      "inputs": [],
      "name": "settled",
      "outputs": [
        {
          "internalType": "bool",
          "name": "",
          "type": "bool"
        }
      ],
      "stateMutability": "view",
      "type": "function",
      "constant": true
    },
    {
      "inputs": [
        {
          "internalType": "address",
          "name": "newOwner",
          "type": "address"
        }
      ],
      "name": "transferOwnership",
      "outputs": [],
      "stateMutability": "nonpayable",
      "type": "function"
    },
    {
      "inputs": [
        {
          "internalType": "uint256",
          "name": "x",
          "type": "uint256"
        },
        {
          "internalType": "uint256",
          "name": "y",
          "type": "uint256"
        }
      ],
      "name": "subFloorZero",
      "outputs": [
        {
          "internalType": "uint256",
          "name": "",
          "type": "uint256"
        }
      ],
      "stateMutability": "pure",
      "type": "function",
      "constant": true
    },
    {
      "inputs": [],
      "name": "unwind",
      "outputs": [],
      "stateMutability": "nonpayable",
      "type": "function"
    },
    {
      "inputs": [
        {
          "internalType": "uint256",
          "name": "chaiAmount",
          "type": "uint256"
        },
        {
          "internalType": "uint256",
          "name": "chi",
          "type": "uint256"
        }
      ],
      "name": "chaiToDai",
      "outputs": [
        {
          "internalType": "uint256",
          "name": "",
          "type": "uint256"
        }
      ],
      "stateMutability": "pure",
      "type": "function",
      "constant": true
    },
    {
      "inputs": [
        {
          "internalType": "uint256",
          "name": "daiAmount",
          "type": "uint256"
        },
        {
          "internalType": "uint256",
          "name": "fix",
          "type": "uint256"
        }
      ],
      "name": "daiToFixWeth",
      "outputs": [
        {
          "internalType": "uint256",
          "name": "",
          "type": "uint256"
        }
      ],
      "stateMutability": "pure",
      "type": "function",
      "constant": true
    },
    {
      "inputs": [],
      "name": "settleTreasury",
      "outputs": [],
      "stateMutability": "nonpayable",
      "type": "function"
    },
    {
      "inputs": [],
      "name": "cashSavings",
      "outputs": [],
      "stateMutability": "nonpayable",
      "type": "function"
    },
    {
      "inputs": [
        {
          "internalType": "bytes32",
          "name": "collateral",
          "type": "bytes32"
        },
        {
          "internalType": "address",
          "name": "user",
          "type": "address"
        }
      ],
      "name": "settle",
      "outputs": [],
      "stateMutability": "nonpayable",
      "type": "function"
    },
    {
      "inputs": [
        {
          "internalType": "address",
          "name": "user",
          "type": "address"
        }
      ],
      "name": "settleLiquidations",
      "outputs": [],
      "stateMutability": "nonpayable",
      "type": "function"
    },
    {
      "inputs": [
        {
          "internalType": "uint256",
          "name": "maturity",
          "type": "uint256"
        },
        {
          "internalType": "address",
          "name": "user",
          "type": "address"
        }
      ],
      "name": "redeem",
      "outputs": [],
      "stateMutability": "nonpayable",
      "type": "function"
    }
  ],
  "bytecode": "0x6080604052600e805462ff000019166201000017905534801561002157600080fd5b5060405162001be638038062001be6833981810160405261014081101561004757600080fd5b508051602082015160408301516060840151608085015160a086015160c087015160e08801516101008901516101209099015197989697959694959394929391929091600061009d6001600160e01b0361024d16565b600080546001600160a01b0319166001600160a01b0383169081178255604051929350917f8be0079c531659141344cd1fd0a4f28419497f9722a3daafe3b4186f6b6457e0908290a350600180546001600160a01b03199081166001600160a01b038d811691909117928390556002805483168d83161790556003805483168c83161790556004805483168b83161781556005805484168b84161790556006805484168a84161790556007805484168984161790556008805484168884161790819055600980548516888516179055600a805490941686841617909355604080516328ec8bf160e21b8152938316918401919091525192169163a3b22fc49160248082019260009290919082900301818387803b1580156101bd57600080fd5b505af11580156101d1573d6000803e3d6000fd5b5050600154600654604080516328ec8bf160e21b81526001600160a01b039283166004820152905191909216935063a3b22fc49250602480830192600092919082900301818387803b15801561022657600080fd5b505af115801561023a573d6000803e3d6000fd5b5050505050505050505050505050610251565b3390565b61198580620002616000396000f3fe608060405234801561001057600080fd5b506004361061012c5760003560e01c80638da5cb5b116100ad578063a187aa6911610071578063a187aa691461018e578063ad5c464814610289578063b6dbf9ce14610291578063f2fde38b14610299578063f392c35a146102bf5761012c565b80638da5cb5b146102455780638f77583914610269578063957aa58c1461027157806396b3e2f0146102795780639d8e2177146102815761012c565b80637bde82f2116100f45780637bde82f2146101d55780637d4a9ab8146102015780637e709c3c1461022d578063807763ab1461023557806383a965241461023d5761012c565b806335dbea17146101315780633b42f5e814610166578063689d3d341461018e578063715018a6146101b157806374cbd36e146101b9575b600080fd5b6101546004803603604081101561014757600080fd5b50803590602001356102c7565b60408051918252519081900360200190f35b61018c6004803603602081101561017c57600080fd5b50356001600160a01b03166102e3565b005b610154600480360360408110156101a457600080fd5b508035906020013561048b565b61018c61049e565b6101c1610552565b604080519115158252519081900360200190f35b61018c600480360360408110156101eb57600080fd5b50803590602001356001600160a01b0316610560565b61018c6004803603604081101561021757600080fd5b50803590602001356001600160a01b031661080c565b6101546109dc565b61018c6109e2565b610154610bd4565b61024d610bda565b604080516001600160a01b039092168252519081900360200190f35b6101c1610be9565b6101c1610bf2565b61018c610c01565b610154610f99565b610154610fa9565b610154610fb5565b61018c600480360360208110156102af57600080fd5b50356001600160a01b0316610fc0565b61018c6110ca565b60008282106102d8575060006102dd565b508082035b92915050565b600e5460ff1680156102fc5750600e54610100900460ff165b610341576040805162461bcd60e51b8152602060048201526011602482015270556e77696e643a204e6f7420726561647960781b604482015290519081900360640190fd5b600a54604080516301d0b60160e71b81526001600160a01b0384811660048301528251600094859492169263e85b008092602480830193919282900301818787803b15801561038f57600080fd5b505af11580156103a3573d6000803e3d6000fd5b505050506040513d60408110156103b957600080fd5b508051602090910151600b546fffffffffffffffffffffffffffffffff9283169450911691506000906103f89084906103f390859061048b565b6102c7565b6003546040805163a9059cbb60e01b81526001600160a01b03888116600483015260248201859052915193945091169163a9059cbb916044808201926020929091908290030181600087803b15801561045057600080fd5b505af1158015610464573d6000803e3d6000fd5b505050506040513d602081101561047a57600080fd5b505161048557600080fd5b50505050565b6000610497838361171a565b9392505050565b6104a6611748565b6000546001600160a01b03908116911614610508576040805162461bcd60e51b815260206004820181905260248201527f4f776e61626c653a2063616c6c6572206973206e6f7420746865206f776e6572604482015290519081900360640190fd5b600080546040516001600160a01b03909116907f8be0079c531659141344cd1fd0a4f28419497f9722a3daafe3b4186f6b6457e0908390a3600080546001600160a01b0319169055565b600e54610100900460ff1681565b600e5460ff1680156105795750600e54610100900460ff165b6105be576040805162461bcd60e51b8152602060048201526011602482015270556e77696e643a204e6f7420726561647960781b604482015290519081900360640190fd5b60095460408051636e1165b560e11b81526004810185905290516000926001600160a01b03169163dc22cb6a916024808301926020929190829003018186803b15801561060a57600080fd5b505afa15801561061e573d6000803e3d6000fd5b505050506040513d602081101561063457600080fd5b5051604080516370a0823160e01b81526001600160a01b0385811660048301529151929350600092918416916370a0823191602480820192602092909190829003018186803b15801561068657600080fd5b505afa15801561069a573d6000803e3d6000fd5b505050506040513d60208110156106b057600080fd5b505160408051632770a7eb60e21b81526001600160a01b03868116600483015260248201849052915192935090841691639dc29fac9160448082019260009290919082900301818387803b15801561070757600080fd5b505af115801561071b573d6000803e3d6000fd5b50505050600360009054906101000a90046001600160a01b03166001600160a01b031663a9059cbb846107bd6107b585876001600160a01b031663cb2401986040518163ffffffff1660e01b815260040160206040518083038186803b15801561078457600080fd5b505afa158015610798573d6000803e3d6000fd5b505050506040513d60208110156107ae57600080fd5b505161171a565b600b5461048b565b6040518363ffffffff1660e01b815260040180836001600160a01b03166001600160a01b0316815260200182815260200192505050602060405180830381600087803b15801561045057600080fd5b600e5460ff1680156108255750600e54610100900460ff165b61086a576040805162461bcd60e51b8152602060048201526011602482015270556e77696e643a204e6f7420726561647960781b604482015290519081900360640190fd5b600954604080516306a621df60e11b8152600481018590526001600160a01b03848116602483015282516000948594921692630d4c43be92604480830193919282900301818787803b1580156108bf57600080fd5b505af11580156108d3573d6000803e3d6000fd5b505050506040513d60408110156108e957600080fd5b50805160209091015190925090506000644554482d4160d81b85141561092057610919836103f384600b5461048b565b905061094a565b634348414960e01b85141561094a576109476107b561094185600c5461048b565b846102c7565b90505b6003546040805163a9059cbb60e01b81526001600160a01b038781166004830152602482018590529151919092169163a9059cbb9160448083019260209291908290030181600087803b1580156109a057600080fd5b505af11580156109b4573d6000803e3d6000fd5b505050506040513d60208110156109ca57600080fd5b50516109d557600080fd5b5050505050565b600c5481565b6006546040805163ee6447b560e01b8152644554482d4160d81b600482015290516001600160a01b039092169163ee6447b5916024808201926020929091908290030181600087803b158015610a3757600080fd5b505af1158015610a4b573d6000803e3d6000fd5b505050506040513d6020811015610a6157600080fd5b5051610a9e5760405162461bcd60e51b815260040180806020018281038252602281526020018061192e6022913960400191505060405180910390fd5b600e805462ff0000191690556008546040805163fc0e74d160e01b815290516001600160a01b039092169163fc0e74d19160048082019260009290919082900301818387803b158015610af057600080fd5b505af1158015610b04573d6000803e3d6000fd5b50505050600960009054906101000a90046001600160a01b03166001600160a01b031663fc0e74d16040518163ffffffff1660e01b8152600401600060405180830381600087803b158015610b5857600080fd5b505af1158015610b6c573d6000803e3d6000fd5b50505050600a60009054906101000a90046001600160a01b03166001600160a01b031663fc0e74d16040518163ffffffff1660e01b8152600401600060405180830381600087803b158015610bc057600080fd5b505af1158015610485573d6000803e3d6000fd5b600b5481565b6000546001600160a01b031690565b600e5460ff1681565b600e5462010000900460ff1681565b600e5462010000900460ff1615610c56576040805162461bcd60e51b8152602060048201526014602482015273155b9dda5b990e88155b9dda5b9908199a5c9cdd60621b604482015290519081900360640190fd5b600154600854604080516309092f9760e21b8152644554482d4160d81b60048201526001600160a01b039283166024820152815160009485941692632424be5c9260448082019391829003018186803b158015610cb257600080fd5b505afa158015610cc6573d6000803e3d6000fd5b505050506040513d6040811015610cdc57600080fd5b508051602090910151600d8290556001546008549294509092506001600160a01b039081169163870c616d91644554482d4160d81b911630610d1d8761174c565b610d268761174c565b6040518663ffffffff1660e01b815260040180868152602001856001600160a01b03166001600160a01b03168152602001846001600160a01b03166001600160a01b0316815260200183815260200182815260200195505050505050600060405180830381600087803b158015610d9c57600080fd5b505af1158015610db0573d6000803e3d6000fd5b5050600654604080516389ea45d360e01b8152644554482d4160d81b600482015230602482015290516001600160a01b0390921693506389ea45d3925060448082019260009290919082900301818387803b158015610e0e57600080fd5b505af1158015610e22573d6000803e3d6000fd5b505060065460408051636418316360e11b8152644554482d4160d81b600482015290516001600160a01b03909216935063c83062c6925060248082019260009290919082900301818387803b158015610e7a57600080fd5b505af1158015610e8e573d6000803e3d6000fd5b50506001546040805163214414d560e01b8152644554482d4160d81b60048201523060248201529051600094506001600160a01b03909216925063214414d5916044808301926020929190829003018186803b158015610eed57600080fd5b505afa158015610f01573d6000803e3d6000fd5b505050506040513d6020811015610f1757600080fd5b5051600480546040805163ef693bed60e01b8152309381019390935260248301849052519293506001600160a01b03169163ef693bed9160448082019260009290919082900301818387803b158015610f6f57600080fd5b505af1158015610f83573d6000803e3d6000fd5b5050600e805460ff191660011790555050505050565b6b033b2e3c9fd0803ce800000081565b644554482d4160d81b81565b634348414960e01b81565b610fc8611748565b6000546001600160a01b0390811691161461102a576040805162461bcd60e51b815260206004820181905260248201527f4f776e61626c653a2063616c6c6572206973206e6f7420746865206f776e6572604482015290519081900360640190fd5b6001600160a01b03811661106f5760405162461bcd60e51b81526004018080602001828103825260268152602001806118e76026913960400191505060405180910390fd5b600080546040516001600160a01b03808516939216917f8be0079c531659141344cd1fd0a4f28419497f9722a3daafe3b4186f6b6457e091a3600080546001600160a01b0319166001600160a01b0392909216919091179055565b6006546040805163ee6447b560e01b8152644554482d4160d81b600482015290516001600160a01b039092169163ee6447b5916024808201926020929091908290030181600087803b15801561111f57600080fd5b505af1158015611133573d6000803e3d6000fd5b505050506040513d602081101561114957600080fd5b505161119c576040805162461bcd60e51b815260206004820152601960248201527f556e77696e643a20456e642e736f6c206e6f7420636167656400000000000000604482015290519081900360640190fd5b600654604080516331fd6c2f60e11b8152644554482d4160d81b600482015290516001600160a01b03909216916363fad85e916024808201926020929091908290030181600087803b1580156111f157600080fd5b505af1158015611205573d6000803e3d6000fd5b505050506040513d602081101561121b57600080fd5b505161126e576040805162461bcd60e51b815260206004820152601960248201527f556e77696e643a20456e642e736f6c206e6f7420726561647900000000000000604482015290519081900360640190fd5b60075460085460408051633612d9a360e11b81526001600160a01b03928316600482015290516000939290921691636c25b3469160248082019260209290919082900301818787803b1580156112c357600080fd5b505af11580156112d7573d6000803e3d6000fd5b505050506040513d60208110156112ed57600080fd5b50516007546008546040805163321b5ab960e21b815290519394506001600160a01b0392831693634a03707c9390921691829163c86d6ae4916004808301926020929190829003018186803b15801561134557600080fd5b505afa158015611359573d6000803e3d6000fd5b505050506040513d602081101561136f57600080fd5b5051604080516001600160e01b031960e086901b1681526001600160a01b039093166004840152602483019190915251604480830192600092919082900301818387803b1580156113bf57600080fd5b505af11580156113d3573d6000803e3d6000fd5b505060025460408051633b4da69f60e01b81523060048201526024810186905290516001600160a01b039092169350633b4da69f925060448082019260009290919082900301818387803b15801561142a57600080fd5b505af115801561143e573d6000803e3d6000fd5b505060065460408051636ea4255560e01b81526004810186905290516001600160a01b039092169350636ea42555925060248082019260009290919082900301818387803b15801561148f57600080fd5b505af11580156114a3573d6000803e3d6000fd5b505060065460408051637f4283e360e11b8152644554482d4160d81b60048201526024810186905290516001600160a01b03909216935063fe8507c6925060448082019260009290919082900301818387803b15801561150257600080fd5b505af1158015611516573d6000803e3d6000fd5b50506001546040805163214414d560e01b8152644554482d4160d81b60048201523060248201529051600094506001600160a01b03909216925063214414d5916044808301926020929190829003018186803b15801561157557600080fd5b505afa158015611589573d6000803e3d6000fd5b505050506040513d602081101561159f57600080fd5b5051600480546040805163ef693bed60e01b8152309381019390935260248301849052519293506001600160a01b03169163ef693bed9160448082019260009290919082900301818387803b1580156115f757600080fd5b505af115801561160b573d6000803e3d6000fd5b5050600e805461ff0019166101001790555050600654604080516331fd6c2f60e11b8152644554482d4160d81b600482015290516001600160a01b03909216916363fad85e916024808201926020929091908290030181600087803b15801561167357600080fd5b505af1158015611687573d6000803e3d6000fd5b505050506040513d602081101561169d57600080fd5b5051600b556005546040805163324abb3160e21b815290516001600160a01b039092169163c92aecc491600480820192602092909190829003018186803b1580156116e757600080fd5b505afa1580156116fb573d6000803e3d6000fd5b505050506040513d602081101561171157600080fd5b5051600c555050565b60006104976b033b2e3c9fd0803ce800000061173c858563ffffffff6117ae16565b9063ffffffff61180716565b3390565b60006001600160ff1b038211156117aa576040805162461bcd60e51b815260206004820152601760248201527f54726561737572793a2043617374206f766572666c6f77000000000000000000604482015290519081900360640190fd5b5090565b6000826117bd575060006102dd565b828202828482816117ca57fe5b04146104975760405162461bcd60e51b815260040180806020018281038252602181526020018061190d6021913960400191505060405180910390fd5b600061049783836040518060400160405280601a81526020017f536166654d6174683a206469766973696f6e206279207a65726f000000000000815250600081836118d05760405162461bcd60e51b81526004018080602001828103825283818151815260200191508051906020019080838360005b8381101561189557818101518382015260200161187d565b50505050905090810190601f1680156118c25780820380516001836020036101000a031916815260200191505b509250505060405180910390fd5b5060008385816118dc57fe5b049594505050505056fe4f776e61626c653a206e6577206f776e657220697320746865207a65726f2061646472657373536166654d6174683a206d756c7469706c69636174696f6e206f766572666c6f77556e77696e643a204d616b657244414f206e6f74207368757474696e6720646f776ea26469706673582212206886f90bcc2951ccd78841a4cc6fff608d7f45863110b82231ebca3b8620a8f064736f6c634300060a0033",
  "immutableReferences": {},
  "source": "// SPDX-License-Identifier: GPL-3.0-or-later\r\npragma solidity ^0.6.10;\r\n\r\nimport \"@openzeppelin/contracts/access/Ownable.sol\";\r\nimport \"@openzeppelin/contracts/math/Math.sol\";\r\nimport \"@openzeppelin/contracts/math/SafeMath.sol\";\r\nimport \"@openzeppelin/contracts/token/ERC20/IERC20.sol\";\r\nimport \"./interfaces/IVat.sol\";\r\nimport \"./interfaces/IDaiJoin.sol\";\r\nimport \"./interfaces/IGemJoin.sol\";\r\nimport \"./interfaces/IPot.sol\";\r\nimport \"./interfaces/IEnd.sol\";\r\nimport \"./interfaces/IChai.sol\";\r\nimport \"./interfaces/ITreasury.sol\";\r\nimport \"./interfaces/IController.sol\";\r\nimport \"./interfaces/IYDai.sol\";\r\nimport \"./interfaces/ILiquidations.sol\";\r\nimport \"./helpers/DecimalMath.sol\";\r\n\r\n\r\n\r\n/**\r\n * @dev Unwind allows everyone to recover their assets from the Yield protocol in the event of a MakerDAO shutdown.\r\n * During the unwind process, the system debt to MakerDAO is settled first with `settleTreasury`, extracting all free weth.\r\n * Once the Treasury is settled, any system savings are converted from Chai to Weth using `cashSavings`.\r\n * At this point, users can settle their positions using `settle`. The MakerDAO rates will be used to convert all debt and collateral to a Weth payout.\r\n * Users can also redeem here their yDai for a Weth payout, using `redeem`.\r\n */\r\ncontract Unwind is Ownable(), DecimalMath {\r\n    using SafeMath for uint256;\r\n\r\n    bytes32 public constant CHAI = \"CHAI\";\r\n    bytes32 public constant WETH = \"ETH-A\";\r\n\r\n    IVat internal _vat;\r\n    IDaiJoin internal _daiJoin;\r\n    IERC20 internal _weth;\r\n    IGemJoin internal _wethJoin;\r\n    IPot internal _pot;\r\n    IEnd internal _end;\r\n    IChai internal _chai;\r\n    ITreasury internal _treasury;\r\n    IController internal _controller;\r\n    ILiquidations internal _liquidations;\r\n\r\n    uint256 public _fix; // Dai to weth price on DSS Unwind\r\n    uint256 public _chi; // Chai to dai price on DSS Unwind\r\n\r\n    uint256 internal _treasuryWeth; // Weth that was held by treasury before settling\r\n\r\n    bool public settled;\r\n    bool public cashedOut;\r\n    bool public live = true;\r\n\r\n    /// @dev The constructor links to vat, daiJoin, weth, wethJoin, jug, pot, end, chai, treasury, controller and liquidations.\r\n    /// Liquidations should have privileged access to treasury, controller and liquidations using orchestration.\r\n    /// The constructor gives treasury and end permission on unwind's MakerDAO vaults.\r\n    constructor (\r\n        address vat_,\r\n        address daiJoin_,\r\n        address weth_,\r\n        address wethJoin_,\r\n        address pot_,\r\n        address end_,\r\n        address chai_,\r\n        address treasury_,\r\n        address controller_,\r\n        address liquidations_\r\n    ) public {\r\n        // These could be hardcoded for mainnet deployment.\r\n        _vat = IVat(vat_);\r\n        _daiJoin = IDaiJoin(daiJoin_);\r\n        _weth = IERC20(weth_);\r\n        _wethJoin = IGemJoin(wethJoin_);\r\n        _pot = IPot(pot_);\r\n        _end = IEnd(end_);\r\n        _chai = IChai(chai_);\r\n        _treasury = ITreasury(treasury_);\r\n        _controller = IController(controller_);\r\n        _liquidations = ILiquidations(liquidations_);\r\n\r\n        _vat.hope(address(_treasury));\r\n        _vat.hope(address(_end));\r\n    }\r\n\r\n    /// @dev max(0, x - y)\r\n    function subFloorZero(uint256 x, uint256 y) public pure returns(uint256) {\r\n        if (y >= x) return 0;\r\n        else return x - y;\r\n    }\r\n\r\n    /// @dev Safe casting from uint256 to int256\r\n    function toInt(uint256 x) internal pure returns(int256) {\r\n        require(\r\n            x <= uint256(type(int256).max),\r\n            \"Treasury: Cast overflow\"\r\n        );\r\n        return int256(x);\r\n    }\r\n\r\n    /// @dev Disables treasury, controller and liquidations.\r\n    function unwind() public {\r\n        require(\r\n            _end.tag(WETH) != 0,\r\n            \"Unwind: MakerDAO not shutting down\"\r\n        );\r\n        live = false;\r\n        _treasury.shutdown();\r\n        _controller.shutdown();\r\n        _liquidations.shutdown();\r\n    }\r\n\r\n    /// @dev Return the Dai equivalent value to a Chai amount.\r\n    /// @param chaiAmount The Chai value to convert.\r\n    /// @param chi The `chi` value from `Pot`.\r\n    function chaiToDai(uint256 chaiAmount, uint256 chi) public pure returns(uint256) {\r\n        return muld(chaiAmount, chi);\r\n    }\r\n\r\n    /// @dev Return the Weth equivalent value to a Dai amount, during Dss Shutdown\r\n    /// @param daiAmount The Dai value to convert.\r\n    /// @param fix The `fix` value from `End`.\r\n    function daiToFixWeth(uint256 daiAmount, uint256 fix) public pure returns(uint256) {\r\n        return muld(daiAmount, fix);\r\n    }\r\n\r\n    /// @dev Settle system debt in MakerDAO and free remaining collateral.\r\n    function settleTreasury() public {\r\n        require(\r\n            live == false,\r\n            \"Unwind: Unwind first\"\r\n        );\r\n        (uint256 ink, uint256 art) = _vat.urns(WETH, address(_treasury));\r\n        _treasuryWeth = ink;                            // We will need this to skim profits\r\n        _vat.fork(                                      // Take the treasury vault\r\n            WETH,\r\n            address(_treasury),\r\n            address(this),\r\n            toInt(ink),\r\n            toInt(art)\r\n        );\r\n        _end.skim(WETH, address(this));                // Settle debts\r\n        _end.free(WETH);                               // Free collateral\r\n        uint256 gem = _vat.gem(WETH, address(this));   // Find out how much collateral we have now\r\n        _wethJoin.exit(address(this), gem);            // Take collateral out\r\n        settled = true;\r\n    }\r\n\r\n    /// @dev Put all chai savings in MakerDAO and exchange them for weth\r\n    function cashSavings() public {\r\n        require(\r\n            _end.tag(WETH) != 0,\r\n            \"Unwind: End.sol not caged\"\r\n        );\r\n        require(\r\n            _end.fix(WETH) != 0,\r\n            \"Unwind: End.sol not ready\"\r\n        );\r\n        uint256 daiTokens = _chai.dai(address(_treasury));   // Find out how much is the chai worth\r\n        _chai.draw(address(_treasury), _treasury.savings()); // Get the chai as dai\r\n        _daiJoin.join(address(this), daiTokens);             // Put the dai into MakerDAO\r\n        _end.pack(daiTokens);                                // Into End.sol, more exactly\r\n        _end.cash(WETH, daiTokens);                          // Exchange the dai for weth\r\n        uint256 gem = _vat.gem(WETH, address(this));         // Find out how much collateral we have now\r\n        _wethJoin.exit(address(this), gem);                  // Take collateral out\r\n        cashedOut = true;\r\n\r\n        _fix = _end.fix(WETH);\r\n        _chi = _pot.chi();\r\n    }\r\n\r\n    /// @dev Settles a series position in Controller for any user, and then returns any remaining collateral as weth using the unwind Dai to Weth price.\r\n    /// @param collateral Valid collateral type.\r\n    /// @param user User vault to settle, and wallet to receive the corresponding weth.\r\n    function settle(bytes32 collateral, address user) public {\r\n        require(settled && cashedOut, \"Unwind: Not ready\");\r\n\r\n        (uint256 tokens, uint256 debt) = _controller.erase(collateral, user);\r\n\r\n        uint256 remainder;\r\n        if (collateral == WETH) {\r\n            remainder = subFloorZero(tokens, daiToFixWeth(debt, _fix));\r\n        } else if (collateral == CHAI) {\r\n            remainder = daiToFixWeth(subFloorZero(chaiToDai(tokens, _chi), debt), _fix);\r\n        }\r\n        require(_weth.transfer(user, remainder));\r\n    }\r\n\r\n    /// @dev Settles a user vault in Liquidations, and then returns any remaining collateral as weth using the unwind Dai to Weth price.\r\n    /// @param user User vault to settle, and wallet to receive the corresponding weth.\r\n    function settleLiquidations(address user) public {\r\n        require(settled && cashedOut, \"Unwind: Not ready\");\r\n\r\n        (uint256 weth, uint256 debt) = _liquidations.erase(user);\r\n        uint256 remainder = subFloorZero(weth, daiToFixWeth(debt, _fix));\r\n\r\n        require(_weth.transfer(user, remainder));\r\n    }\r\n\r\n    /// @dev Redeems YDai for weth for any user. YDai.redeem won't work if MakerDAO is in shutdown.\r\n    /// @param maturity Maturity of an added series\r\n    /// @param user Wallet containing the yDai to burn.\r\n    function redeem(uint256 maturity, address user) public {\r\n        require(settled && cashedOut, \"Unwind: Not ready\");\r\n        IYDai yDai = _controller.series(maturity);\r\n        uint256 yDaiAmount = yDai.balanceOf(user);\r\n        yDai.burn(user, yDaiAmount);\r\n        require(\r\n            _weth.transfer(\r\n                user,\r\n                daiToFixWeth(muld(yDaiAmount, yDai.chiGrowth()), _fix)\r\n            )\r\n        );\r\n    }\r\n}\r\n",
  "sourcePath": "C:/Users/bruce/dev/yield/yDai/contracts/Unwind.sol",
  "compiler": {
    "name": "solc",
    "version": "0.6.10+commit.00c0fcaf.Emscripten.clang"
  },
  "schemaVersion": "3.2.3",
  "updatedAt": "2020-08-19T15:24:54.068Z",
  "networkType": "ethereum",
  "devdoc": {
    "details": "Unwind allows everyone to recover their assets from the Yield protocol in the event of a MakerDAO shutdown. During the unwind process, the system debt to MakerDAO is settled first with `settleTreasury`, extracting all free weth. Once the Treasury is settled, any system savings are converted from Chai to Weth using `cashSavings`. At this point, users can settle their positions using `settle`. The MakerDAO rates will be used to convert all debt and collateral to a Weth payout. Users can also redeem here their yDai for a Weth payout, using `redeem`.",
    "methods": {
      "cashSavings()": {
        "details": "Put all chai savings in MakerDAO and exchange them for weth"
      },
      "chaiToDai(uint256,uint256)": {
        "details": "Return the Dai equivalent value to a Chai amount.",
        "params": {
          "chaiAmount": "The Chai value to convert.",
          "chi": "The `chi` value from `Pot`."
        }
      },
      "constructor": {
        "details": "The constructor links to vat, daiJoin, weth, wethJoin, jug, pot, end, chai, treasury, controller and liquidations. Liquidations should have privileged access to treasury, controller and liquidations using orchestration. The constructor gives treasury and end permission on unwind's MakerDAO vaults."
      },
      "daiToFixWeth(uint256,uint256)": {
        "details": "Return the Weth equivalent value to a Dai amount, during Dss Shutdown",
        "params": {
          "daiAmount": "The Dai value to convert.",
          "fix": "The `fix` value from `End`."
        }
      },
      "owner()": {
        "details": "Returns the address of the current owner."
      },
      "redeem(uint256,address)": {
        "details": "Redeems YDai for weth for any user. YDai.redeem won't work if MakerDAO is in shutdown.",
        "params": {
          "maturity": "Maturity of an added series",
          "user": "Wallet containing the yDai to burn."
        }
      },
      "renounceOwnership()": {
        "details": "Leaves the contract without owner. It will not be possible to call `onlyOwner` functions anymore. Can only be called by the current owner. NOTE: Renouncing ownership will leave the contract without an owner, thereby removing any functionality that is only available to the owner."
      },
      "settle(bytes32,address)": {
        "details": "Settles a series position in Controller for any user, and then returns any remaining collateral as weth using the unwind Dai to Weth price.",
        "params": {
          "collateral": "Valid collateral type.",
          "user": "User vault to settle, and wallet to receive the corresponding weth."
        }
      },
      "settleLiquidations(address)": {
        "details": "Settles a user vault in Liquidations, and then returns any remaining collateral as weth using the unwind Dai to Weth price.",
        "params": {
          "user": "User vault to settle, and wallet to receive the corresponding weth."
        }
      },
      "settleTreasury()": {
        "details": "Settle system debt in MakerDAO and free remaining collateral."
      },
      "subFloorZero(uint256,uint256)": {
        "details": "max(0, x - y)"
      },
      "transferOwnership(address)": {
        "details": "Transfers ownership of the contract to a new account (`newOwner`). Can only be called by the current owner."
      },
      "unwind()": {
        "details": "Disables treasury, controller and liquidations."
      }
    }
  },
  "userdoc": {
    "methods": {}
  }
}