{
  "contractName": "Unwind",
  "abi": [
    {
      "inputs": [
        {
          "internalType": "address",
          "name": "vat_",
          "type": "address"
        },
        {
          "internalType": "address",
          "name": "daiJoin_",
          "type": "address"
        },
        {
          "internalType": "address",
          "name": "weth_",
          "type": "address"
        },
        {
          "internalType": "address",
          "name": "wethJoin_",
          "type": "address"
        },
        {
          "internalType": "address",
          "name": "jug_",
          "type": "address"
        },
        {
          "internalType": "address",
          "name": "pot_",
          "type": "address"
        },
        {
          "internalType": "address",
          "name": "end_",
          "type": "address"
        },
        {
          "internalType": "address",
          "name": "chai_",
          "type": "address"
        },
        {
          "internalType": "address",
          "name": "chaiOracle_",
          "type": "address"
        },
        {
          "internalType": "address",
          "name": "treasury_",
          "type": "address"
        },
        {
          "internalType": "address",
          "name": "dealer_",
          "type": "address"
        },
        {
          "internalType": "address",
          "name": "liquidations_",
          "type": "address"
        }
      ],
      "stateMutability": "nonpayable",
      "type": "constructor"
    },
    {
      "anonymous": false,
      "inputs": [
        {
          "indexed": true,
          "internalType": "address",
          "name": "previousOwner",
          "type": "address"
        },
        {
          "indexed": true,
          "internalType": "address",
          "name": "newOwner",
          "type": "address"
        }
      ],
      "name": "OwnershipTransferred",
      "type": "event"
    },
    {
      "inputs": [],
      "name": "CHAI",
      "outputs": [
        {
          "internalType": "bytes32",
          "name": "",
          "type": "bytes32"
        }
      ],
      "stateMutability": "view",
      "type": "function",
      "constant": true
    },
    {
      "inputs": [],
      "name": "RAD",
      "outputs": [
        {
          "internalType": "uint8",
          "name": "",
          "type": "uint8"
        }
      ],
      "stateMutability": "view",
      "type": "function",
      "constant": true
    },
    {
      "inputs": [],
      "name": "RAY",
      "outputs": [
        {
          "internalType": "uint8",
          "name": "",
          "type": "uint8"
        }
      ],
      "stateMutability": "view",
      "type": "function",
      "constant": true
    },
    {
      "inputs": [],
      "name": "UNIT",
      "outputs": [
        {
          "internalType": "uint256",
          "name": "",
          "type": "uint256"
        }
      ],
      "stateMutability": "view",
      "type": "function",
      "constant": true
    },
    {
      "inputs": [],
      "name": "WAD",
      "outputs": [
        {
          "internalType": "uint8",
          "name": "",
          "type": "uint8"
        }
      ],
      "stateMutability": "view",
      "type": "function",
      "constant": true
    },
    {
      "inputs": [],
      "name": "WETH",
      "outputs": [
        {
          "internalType": "bytes32",
          "name": "",
          "type": "bytes32"
        }
      ],
      "stateMutability": "view",
      "type": "function",
      "constant": true
    },
    {
      "inputs": [],
      "name": "_chi",
      "outputs": [
        {
          "internalType": "uint256",
          "name": "",
          "type": "uint256"
        }
      ],
      "stateMutability": "view",
      "type": "function",
      "constant": true
    },
    {
      "inputs": [],
      "name": "_fix",
      "outputs": [
        {
          "internalType": "uint256",
          "name": "",
          "type": "uint256"
        }
      ],
      "stateMutability": "view",
      "type": "function",
      "constant": true
    },
    {
      "inputs": [],
      "name": "cashedOut",
      "outputs": [
        {
          "internalType": "bool",
          "name": "",
          "type": "bool"
        }
      ],
      "stateMutability": "view",
      "type": "function",
      "constant": true
    },
    {
      "inputs": [],
      "name": "collateralType",
      "outputs": [
        {
          "internalType": "bytes32",
          "name": "",
          "type": "bytes32"
        }
      ],
      "stateMutability": "view",
      "type": "function",
      "constant": true
    },
    {
      "inputs": [],
      "name": "live",
      "outputs": [
        {
          "internalType": "bool",
          "name": "",
          "type": "bool"
        }
      ],
      "stateMutability": "view",
      "type": "function",
      "constant": true
    },
    {
      "inputs": [],
      "name": "owner",
      "outputs": [
        {
          "internalType": "address",
          "name": "",
          "type": "address"
        }
      ],
      "stateMutability": "view",
      "type": "function",
      "constant": true
    },
    {
      "inputs": [],
      "name": "renounceOwnership",
      "outputs": [],
      "stateMutability": "nonpayable",
      "type": "function"
    },
    {
      "inputs": [
        {
          "internalType": "uint256",
          "name": "",
          "type": "uint256"
        }
      ],
      "name": "series",
      "outputs": [
        {
          "internalType": "contract IYDai",
          "name": "",
          "type": "address"
        }
      ],
      "stateMutability": "view",
      "type": "function",
      "constant": true
    },
    {
      "inputs": [],
      "name": "settled",
      "outputs": [
        {
          "internalType": "bool",
          "name": "",
          "type": "bool"
        }
      ],
      "stateMutability": "view",
      "type": "function",
      "constant": true
    },
    {
      "inputs": [
        {
          "internalType": "address",
          "name": "newOwner",
          "type": "address"
        }
      ],
      "name": "transferOwnership",
      "outputs": [],
      "stateMutability": "nonpayable",
      "type": "function"
    },
    {
      "inputs": [
        {
          "internalType": "uint256",
          "name": "x",
          "type": "uint256"
        },
        {
          "internalType": "uint256",
          "name": "y",
          "type": "uint256"
        }
      ],
      "name": "subFloorZero",
      "outputs": [
        {
          "internalType": "uint256",
          "name": "",
          "type": "uint256"
        }
      ],
      "stateMutability": "pure",
      "type": "function",
      "constant": true
    },
    {
      "inputs": [
        {
          "internalType": "uint256",
          "name": "maturity",
          "type": "uint256"
        }
      ],
      "name": "containsSeries",
      "outputs": [
        {
          "internalType": "bool",
          "name": "",
          "type": "bool"
        }
      ],
      "stateMutability": "view",
      "type": "function",
      "constant": true
    },
    {
      "inputs": [
        {
          "internalType": "address",
          "name": "yDaiContract",
          "type": "address"
        }
      ],
      "name": "addSeries",
      "outputs": [],
      "stateMutability": "nonpayable",
      "type": "function"
    },
    {
      "inputs": [],
      "name": "unwind",
      "outputs": [],
      "stateMutability": "nonpayable",
      "type": "function"
    },
    {
      "inputs": [],
      "name": "getChi",
      "outputs": [
        {
          "internalType": "uint256",
          "name": "",
          "type": "uint256"
        }
      ],
      "stateMutability": "nonpayable",
      "type": "function"
    },
    {
      "inputs": [],
      "name": "getRate",
      "outputs": [
        {
          "internalType": "uint256",
          "name": "",
          "type": "uint256"
        }
      ],
      "stateMutability": "nonpayable",
      "type": "function"
    },
    {
      "inputs": [
        {
          "internalType": "address",
          "name": "beneficiary",
          "type": "address"
        }
      ],
      "name": "skimWhileLive",
      "outputs": [],
      "stateMutability": "nonpayable",
      "type": "function"
    },
    {
      "inputs": [],
      "name": "yDaiProfit",
      "outputs": [
        {
          "internalType": "uint256",
          "name": "",
          "type": "uint256"
        }
      ],
      "stateMutability": "nonpayable",
      "type": "function"
    },
    {
      "inputs": [],
      "name": "settleTreasury",
      "outputs": [],
      "stateMutability": "nonpayable",
      "type": "function"
    },
    {
      "inputs": [],
      "name": "cashSavings",
      "outputs": [],
      "stateMutability": "nonpayable",
      "type": "function"
    },
    {
      "inputs": [
        {
          "internalType": "bytes32",
          "name": "collateral",
          "type": "bytes32"
        },
        {
          "internalType": "address",
          "name": "user",
          "type": "address"
        }
      ],
      "name": "settle",
      "outputs": [],
      "stateMutability": "nonpayable",
      "type": "function"
    },
    {
      "inputs": [
        {
          "internalType": "uint256",
          "name": "maturity",
          "type": "uint256"
        },
        {
          "internalType": "uint256",
          "name": "yDaiAmount",
          "type": "uint256"
        },
        {
          "internalType": "address",
          "name": "user",
          "type": "address"
        }
      ],
      "name": "redeem",
      "outputs": [],
      "stateMutability": "nonpayable",
      "type": "function"
    },
    {
      "inputs": [
        {
          "internalType": "address",
          "name": "beneficiary",
          "type": "address"
        }
      ],
      "name": "skimDssShutdown",
      "outputs": [],
      "stateMutability": "nonpayable",
      "type": "function"
    }
  ],
  "bytecode": "0x60806040526001601160026101000a81548160ff0219169083151502179055503480156200002c57600080fd5b50604051620048dd380380620048dd83398181016040526101808110156200005357600080fd5b810190808051906020019092919080519060200190929190805190602001909291908051906020019092919080519060200190929190805190602001909291908051906020019092919080519060200190929190805190602001909291908051906020019092919080519060200190929190805190602001909291905050506000620000e46200065a60201b60201c565b9050806000806101000a81548173ffffffffffffffffffffffffffffffffffffffff021916908373ffffffffffffffffffffffffffffffffffffffff1602179055508073ffffffffffffffffffffffffffffffffffffffff16600073ffffffffffffffffffffffffffffffffffffffff167f8be0079c531659141344cd1fd0a4f28419497f9722a3daafe3b4186f6b6457e060405160405180910390a3508b600160006101000a81548173ffffffffffffffffffffffffffffffffffffffff021916908373ffffffffffffffffffffffffffffffffffffffff1602179055508a600260006101000a81548173ffffffffffffffffffffffffffffffffffffffff021916908373ffffffffffffffffffffffffffffffffffffffff16021790555089600360006101000a81548173ffffffffffffffffffffffffffffffffffffffff021916908373ffffffffffffffffffffffffffffffffffffffff16021790555088600460006101000a81548173ffffffffffffffffffffffffffffffffffffffff021916908373ffffffffffffffffffffffffffffffffffffffff16021790555087600560006101000a81548173ffffffffffffffffffffffffffffffffffffffff021916908373ffffffffffffffffffffffffffffffffffffffff16021790555086600660006101000a81548173ffffffffffffffffffffffffffffffffffffffff021916908373ffffffffffffffffffffffffffffffffffffffff16021790555085600760006101000a81548173ffffffffffffffffffffffffffffffffffffffff021916908373ffffffffffffffffffffffffffffffffffffffff16021790555084600860006101000a81548173ffffffffffffffffffffffffffffffffffffffff021916908373ffffffffffffffffffffffffffffffffffffffff16021790555083600960006101000a81548173ffffffffffffffffffffffffffffffffffffffff021916908373ffffffffffffffffffffffffffffffffffffffff16021790555082600a60006101000a81548173ffffffffffffffffffffffffffffffffffffffff021916908373ffffffffffffffffffffffffffffffffffffffff16021790555081600b60006101000a81548173ffffffffffffffffffffffffffffffffffffffff021916908373ffffffffffffffffffffffffffffffffffffffff16021790555080600c60006101000a81548173ffffffffffffffffffffffffffffffffffffffff021916908373ffffffffffffffffffffffffffffffffffffffff160217905550600160009054906101000a900473ffffffffffffffffffffffffffffffffffffffff1673ffffffffffffffffffffffffffffffffffffffff1663a3b22fc4600a60009054906101000a900473ffffffffffffffffffffffffffffffffffffffff166040518263ffffffff1660e01b8152600401808273ffffffffffffffffffffffffffffffffffffffff1673ffffffffffffffffffffffffffffffffffffffff168152602001915050600060405180830381600087803b1580156200055257600080fd5b505af115801562000567573d6000803e3d6000fd5b50505050600160009054906101000a900473ffffffffffffffffffffffffffffffffffffffff1673ffffffffffffffffffffffffffffffffffffffff1663a3b22fc4600760009054906101000a900473ffffffffffffffffffffffffffffffffffffffff166040518263ffffffff1660e01b8152600401808273ffffffffffffffffffffffffffffffffffffffff1673ffffffffffffffffffffffffffffffffffffffff168152602001915050600060405180830381600087803b1580156200062f57600080fd5b505af115801562000644573d6000803e3d6000fd5b5050505050505050505050505050505062000662565b600033905090565b61426b80620006726000396000f3fe608060405234801561001057600080fd5b50600436106101cf5760003560e01c80638da5cb5b11610104578063ba4bb377116100a2578063e824600f11610071578063e824600f14610652578063ebdfa01114610670578063f2fde38b1461068e578063f392c35a146106d2576101cf565b8063ba4bb37714610516578063d0a3a7e41461055a578063d4fe76c0146105a0578063dc22cb6a146105e4576101cf565b806396b3e2f0116100de57806396b3e2f0146104b25780639d8e2177146104bc578063ad5c4648146104da578063b6dbf9ce146104f8576101cf565b80638da5cb5b146104245780638f7758391461046e578063957aa58c14610490576101cf565b8063715018a6116101715780637d4a9ab81161014b5780637d4a9ab8146103905780637e709c3c146103de578063807763ab146103fc57806383a9652414610406576101cf565b8063715018a61461032057806374cbd36e1461032a5780637c43a2011461034c576101cf565b806335dbea17116101ad57806335dbea171461026e578063552033c4146102ba578063679aefce146102de5780636a146024146102fc576101cf565b80630416c1a5146101d4578063049104e5146101f257806306f405fd1461024a575b600080fd5b6101dc6106dc565b6040518082815260200191505060405180910390f35b6102486004803603606081101561020857600080fd5b810190808035906020019092919080359060200190929190803573ffffffffffffffffffffffffffffffffffffffff1690602001909291905050506108dc565b005b610252610c4a565b604051808260ff1660ff16815260200191505060405180910390f35b6102a46004803603604081101561028457600080fd5b810190808035906020019092919080359060200190929190505050610c4f565b6040518082815260200191505060405180910390f35b6102c2610c6d565b604051808260ff1660ff16815260200191505060405180910390f35b6102e6610c72565b6040518082815260200191505060405180910390f35b610304610f40565b604051808260ff1660ff16815260200191505060405180910390f35b610328610f45565b005b6103326110cd565b604051808215151515815260200191505060405180910390f35b61038e6004803603602081101561036257600080fd5b81019080803573ffffffffffffffffffffffffffffffffffffffff1690602001909291905050506110e0565b005b6103dc600480360360408110156103a657600080fd5b8101908080359060200190929190803573ffffffffffffffffffffffffffffffffffffffff169060200190929190505050611329565b005b6103e66117e0565b6040518082815260200191505060405180910390f35b6104046117e6565b005b61040e611ab2565b6040518082815260200191505060405180910390f35b61042c611ab8565b604051808273ffffffffffffffffffffffffffffffffffffffff1673ffffffffffffffffffffffffffffffffffffffff16815260200191505060405180910390f35b610476611ae1565b604051808215151515815260200191505060405180910390f35b610498611af4565b604051808215151515815260200191505060405180910390f35b6104ba611b07565b005b6104c4612190565b6040518082815260200191505060405180910390f35b6104e26121a0565b6040518082815260200191505060405180910390f35b6105006121c4565b6040518082815260200191505060405180910390f35b6105586004803603602081101561052c57600080fd5b81019080803573ffffffffffffffffffffffffffffffffffffffff1690602001909291905050506121e8565b005b6105866004803603602081101561057057600080fd5b8101908080359060200190929190505050612662565b604051808215151515815260200191505060405180910390f35b6105e2600480360360208110156105b657600080fd5b81019080803573ffffffffffffffffffffffffffffffffffffffff1690602001909291905050506126ce565b005b610610600480360360208110156105fa57600080fd5b8101908080359060200190929190505050612ac6565b604051808273ffffffffffffffffffffffffffffffffffffffff1673ffffffffffffffffffffffffffffffffffffffff16815260200191505060405180910390f35b61065a612af9565b6040518082815260200191505060405180910390f35b610678612b1d565b6040518082815260200191505060405180910390f35b6106d0600480360360208110156106a457600080fd5b81019080803573ffffffffffffffffffffffffffffffffffffffff169060200190929190505050613004565b005b6106da613211565b005b6000600660009054906101000a900473ffffffffffffffffffffffffffffffffffffffff1673ffffffffffffffffffffffffffffffffffffffff166320aba08b6040518163ffffffff1660e01b8152600401602060405180830381600087803b15801561074857600080fd5b505af115801561075c573d6000803e3d6000fd5b505050506040513d602081101561077257600080fd5b8101908080519060200190929190505050421161083157600660009054906101000a900473ffffffffffffffffffffffffffffffffffffffff1673ffffffffffffffffffffffffffffffffffffffff1663c92aecc46040518163ffffffff1660e01b815260040160206040518083038186803b1580156107f157600080fd5b505afa158015610805573d6000803e3d6000fd5b505050506040513d602081101561081b57600080fd5b81019080805190602001909291905050506108d7565b600660009054906101000a900473ffffffffffffffffffffffffffffffffffffffff1673ffffffffffffffffffffffffffffffffffffffff16639f678cca6040518163ffffffff1660e01b8152600401602060405180830381600087803b15801561089b57600080fd5b505af11580156108af573d6000803e3d6000fd5b505050506040513d60208110156108c557600080fd5b81019080805190602001909291905050505b905090565b601160009054906101000a900460ff1680156109045750601160019054906101000a900460ff165b610976576040517f08c379a00000000000000000000000000000000000000000000000000000000081526004018080602001828103825260118152602001807f556e77696e643a204e6f7420726561647900000000000000000000000000000081525060200191505060405180910390fd5b6000600b60009054906101000a900473ffffffffffffffffffffffffffffffffffffffff1673ffffffffffffffffffffffffffffffffffffffff1663dc22cb6a856040518263ffffffff1660e01b815260040180828152602001915050602060405180830381600087803b1580156109ed57600080fd5b505af1158015610a01573d6000803e3d6000fd5b505050506040513d6020811015610a1757600080fd5b810190808051906020019092919050505090508073ffffffffffffffffffffffffffffffffffffffff16639dc29fac83856040518363ffffffff1660e01b8152600401808373ffffffffffffffffffffffffffffffffffffffff1673ffffffffffffffffffffffffffffffffffffffff16815260200182815260200192505050600060405180830381600087803b158015610ab157600080fd5b505af1158015610ac5573d6000803e3d6000fd5b50505050600360009054906101000a900473ffffffffffffffffffffffffffffffffffffffff1673ffffffffffffffffffffffffffffffffffffffff1663a9059cbb83610b9f610b97878673ffffffffffffffffffffffffffffffffffffffff1663cb2401986040518163ffffffff1660e01b8152600401602060405180830381600087803b158015610b5757600080fd5b505af1158015610b6b573d6000803e3d6000fd5b505050506040513d6020811015610b8157600080fd5b8101908080519060200190929190505050613c90565b600f54613c90565b6040518363ffffffff1660e01b8152600401808373ffffffffffffffffffffffffffffffffffffffff1673ffffffffffffffffffffffffffffffffffffffff16815260200182815260200192505050602060405180830381600087803b158015610c0857600080fd5b505af1158015610c1c573d6000803e3d6000fd5b505050506040513d6020811015610c3257600080fd5b81019080805190602001909291905050505050505050565b602d81565b6000828210610c615760009050610c67565b81830390505b92915050565b601b81565b6000806000600560009054906101000a900473ffffffffffffffffffffffffffffffffffffffff1673ffffffffffffffffffffffffffffffffffffffff1663d9638d366040518163ffffffff1660e01b815260040180807f4554482d4100000000000000000000000000000000000000000000000000000081525060200190506040805180830381600087803b158015610d0b57600080fd5b505af1158015610d1f573d6000803e3d6000fd5b505050506040513d6040811015610d3557600080fd5b81019080805190602001909291908051906020019092919050505091505080421115610e3257600560009054906101000a900473ffffffffffffffffffffffffffffffffffffffff1673ffffffffffffffffffffffffffffffffffffffff166344e2a5a86040518163ffffffff1660e01b815260040180807f4554482d410000000000000000000000000000000000000000000000000000008152506020019050602060405180830381600087803b158015610df057600080fd5b505af1158015610e04573d6000803e3d6000fd5b505050506040513d6020811015610e1a57600080fd5b81019080805190602001909291905050509150610f38565b600160009054906101000a900473ffffffffffffffffffffffffffffffffffffffff1673ffffffffffffffffffffffffffffffffffffffff1663d9638d366040518163ffffffff1660e01b815260040180807f4554482d41000000000000000000000000000000000000000000000000000000815250602001905060a06040518083038186803b158015610ec557600080fd5b505afa158015610ed9573d6000803e3d6000fd5b505050506040513d60a0811015610eef57600080fd5b8101908080519060200190929190805190602001909291908051906020019092919080519060200190929190805190602001909291905050509091929350909150905050809250505b819250505090565b601281565b610f4d613ccb565b73ffffffffffffffffffffffffffffffffffffffff166000809054906101000a900473ffffffffffffffffffffffffffffffffffffffff1673ffffffffffffffffffffffffffffffffffffffff161461100e576040517f08c379a00000000000000000000000000000000000000000000000000000000081526004018080602001828103825260208152602001807f4f776e61626c653a2063616c6c6572206973206e6f7420746865206f776e657281525060200191505060405180910390fd5b600073ffffffffffffffffffffffffffffffffffffffff166000809054906101000a900473ffffffffffffffffffffffffffffffffffffffff1673ffffffffffffffffffffffffffffffffffffffff167f8be0079c531659141344cd1fd0a4f28419497f9722a3daafe3b4186f6b6457e060405160405180910390a360008060006101000a81548173ffffffffffffffffffffffffffffffffffffffff021916908373ffffffffffffffffffffffffffffffffffffffff160217905550565b601160019054906101000a900460ff1681565b6110e8613ccb565b73ffffffffffffffffffffffffffffffffffffffff166000809054906101000a900473ffffffffffffffffffffffffffffffffffffffff1673ffffffffffffffffffffffffffffffffffffffff16146111a9576040517f08c379a00000000000000000000000000000000000000000000000000000000081526004018080602001828103825260208152602001807f4f776e61626c653a2063616c6c6572206973206e6f7420746865206f776e657281525060200191505060405180910390fd5b60008173ffffffffffffffffffffffffffffffffffffffff1663204f83f96040518163ffffffff1660e01b815260040160206040518083038186803b1580156111f157600080fd5b505afa158015611205573d6000803e3d6000fd5b505050506040513d602081101561121b57600080fd5b8101908080519060200190929190505050905061123781612662565b156112aa576040517f08c379a000000000000000000000000000000000000000000000000000000000815260040180806020018281038252601c8152602001807f4465616c65723a2053657269657320616c72656164792061646465640000000081525060200191505060405180910390fd5b81600d600083815260200190815260200160002060006101000a81548173ffffffffffffffffffffffffffffffffffffffff021916908373ffffffffffffffffffffffffffffffffffffffff160217905550600e8190806001815401808255809150506001900390600052602060002001600090919091909150555050565b601160009054906101000a900460ff1680156113515750601160019054906101000a900460ff165b6113c3576040517f08c379a00000000000000000000000000000000000000000000000000000000081526004018080602001828103825260118152602001807f556e77696e643a204e6f7420726561647900000000000000000000000000000081525060200191505060405180910390fd5b6000600b60009054906101000a900473ffffffffffffffffffffffffffffffffffffffff1673ffffffffffffffffffffffffffffffffffffffff1663e68b7cf484846040518363ffffffff1660e01b8152600401808381526020018273ffffffffffffffffffffffffffffffffffffffff1673ffffffffffffffffffffffffffffffffffffffff16815260200192505050602060405180830381600087803b15801561146e57600080fd5b505af1158015611482573d6000803e3d6000fd5b505050506040513d602081101561149857600080fd5b810190808051906020019092919050505090506000600b60009054906101000a900473ffffffffffffffffffffffffffffffffffffffff1673ffffffffffffffffffffffffffffffffffffffff1663dd62f42385856040518363ffffffff1660e01b8152600401808381526020018273ffffffffffffffffffffffffffffffffffffffff1673ffffffffffffffffffffffffffffffffffffffff1681526020019250505060206040518083038186803b15801561155457600080fd5b505afa158015611568573d6000803e3d6000fd5b505050506040513d602081101561157e57600080fd5b81019080805190602001909291905050509050600b60009054906101000a900473ffffffffffffffffffffffffffffffffffffffff1673ffffffffffffffffffffffffffffffffffffffff1663f51a391a858585856040518563ffffffff1660e01b8152600401808581526020018473ffffffffffffffffffffffffffffffffffffffff1673ffffffffffffffffffffffffffffffffffffffff168152602001838152602001828152602001945050505050600060405180830381600087803b15801561164a57600080fd5b505af115801561165e573d6000803e3d6000fd5b5050505060007f57455448000000000000000000000000000000000000000000000000000000008514156116a8576116a18261169c85600f54613c90565b610c4f565b90506116f4565b7f43484149000000000000000000000000000000000000000000000000000000008514156116f3576116f06116e86116e284601054613c90565b85610c4f565b600f54613c90565b90505b5b600360009054906101000a900473ffffffffffffffffffffffffffffffffffffffff1673ffffffffffffffffffffffffffffffffffffffff1663a9059cbb85836040518363ffffffff1660e01b8152600401808373ffffffffffffffffffffffffffffffffffffffff1673ffffffffffffffffffffffffffffffffffffffff16815260200182815260200192505050602060405180830381600087803b15801561179d57600080fd5b505af11580156117b1573d6000803e3d6000fd5b505050506040513d60208110156117c757600080fd5b8101908080519060200190929190505050505050505050565b60105481565b6000600760009054906101000a900473ffffffffffffffffffffffffffffffffffffffff1673ffffffffffffffffffffffffffffffffffffffff1663ee6447b57f4554482d410000000000000000000000000000000000000000000000000000006040518263ffffffff1660e01b815260040180828152602001915050602060405180830381600087803b15801561187d57600080fd5b505af1158015611891573d6000803e3d6000fd5b505050506040513d60208110156118a757600080fd5b8101908080519060200190929190505050141561190f576040517f08c379a00000000000000000000000000000000000000000000000000000000081526004018080602001828103825260228152602001806142146022913960400191505060405180910390fd5b6000601160026101000a81548160ff021916908315150217905550600a60009054906101000a900473ffffffffffffffffffffffffffffffffffffffff1673ffffffffffffffffffffffffffffffffffffffff1663fc0e74d16040518163ffffffff1660e01b8152600401600060405180830381600087803b15801561199457600080fd5b505af11580156119a8573d6000803e3d6000fd5b50505050600b60009054906101000a900473ffffffffffffffffffffffffffffffffffffffff1673ffffffffffffffffffffffffffffffffffffffff1663fc0e74d16040518163ffffffff1660e01b8152600401600060405180830381600087803b158015611a1657600080fd5b505af1158015611a2a573d6000803e3d6000fd5b50505050600c60009054906101000a900473ffffffffffffffffffffffffffffffffffffffff1673ffffffffffffffffffffffffffffffffffffffff1663fc0e74d16040518163ffffffff1660e01b8152600401600060405180830381600087803b158015611a9857600080fd5b505af1158015611aac573d6000803e3d6000fd5b50505050565b600f5481565b60008060009054906101000a900473ffffffffffffffffffffffffffffffffffffffff16905090565b601160009054906101000a900460ff1681565b601160029054906101000a900460ff1681565b60001515601160029054906101000a900460ff16151514611b90576040517f08c379a00000000000000000000000000000000000000000000000000000000081526004018080602001828103825260148152602001807f556e77696e643a20556e77696e6420666972737400000000000000000000000081525060200191505060405180910390fd5b600080600160009054906101000a900473ffffffffffffffffffffffffffffffffffffffff1673ffffffffffffffffffffffffffffffffffffffff16632424be5c600a60009054906101000a900473ffffffffffffffffffffffffffffffffffffffff166040518263ffffffff1660e01b815260040180807f4554482d410000000000000000000000000000000000000000000000000000008152506020018273ffffffffffffffffffffffffffffffffffffffff1673ffffffffffffffffffffffffffffffffffffffff168152602001915050604080518083038186803b158015611c7b57600080fd5b505afa158015611c8f573d6000803e3d6000fd5b505050506040513d6040811015611ca557600080fd5b81019080805190602001909291908051906020019092919050505091509150600160009054906101000a900473ffffffffffffffffffffffffffffffffffffffff1673ffffffffffffffffffffffffffffffffffffffff1663870c616d7f4554482d41000000000000000000000000000000000000000000000000000000600a60009054906101000a900473ffffffffffffffffffffffffffffffffffffffff1630611d5087613cd3565b611d5987613cd3565b6040518663ffffffff1660e01b8152600401808681526020018573ffffffffffffffffffffffffffffffffffffffff1673ffffffffffffffffffffffffffffffffffffffff1681526020018473ffffffffffffffffffffffffffffffffffffffff1673ffffffffffffffffffffffffffffffffffffffff16815260200183815260200182815260200195505050505050600060405180830381600087803b158015611e0357600080fd5b505af1158015611e17573d6000803e3d6000fd5b50505050600760009054906101000a900473ffffffffffffffffffffffffffffffffffffffff1673ffffffffffffffffffffffffffffffffffffffff166389ea45d37f4554482d41000000000000000000000000000000000000000000000000000000306040518363ffffffff1660e01b8152600401808381526020018273ffffffffffffffffffffffffffffffffffffffff1673ffffffffffffffffffffffffffffffffffffffff16815260200192505050600060405180830381600087803b158015611ee457600080fd5b505af1158015611ef8573d6000803e3d6000fd5b50505050600760009054906101000a900473ffffffffffffffffffffffffffffffffffffffff1673ffffffffffffffffffffffffffffffffffffffff1663c83062c67f4554482d410000000000000000000000000000000000000000000000000000006040518263ffffffff1660e01b815260040180828152602001915050600060405180830381600087803b158015611f9157600080fd5b505af1158015611fa5573d6000803e3d6000fd5b505050506000600160009054906101000a900473ffffffffffffffffffffffffffffffffffffffff1673ffffffffffffffffffffffffffffffffffffffff1663214414d5306040518263ffffffff1660e01b815260040180807f4554482d410000000000000000000000000000000000000000000000000000008152506020018273ffffffffffffffffffffffffffffffffffffffff1673ffffffffffffffffffffffffffffffffffffffff16815260200191505060206040518083038186803b15801561207257600080fd5b505afa158015612086573d6000803e3d6000fd5b505050506040513d602081101561209c57600080fd5b81019080805190602001909291905050509050600460009054906101000a900473ffffffffffffffffffffffffffffffffffffffff1673ffffffffffffffffffffffffffffffffffffffff1663ef693bed30836040518363ffffffff1660e01b8152600401808373ffffffffffffffffffffffffffffffffffffffff1673ffffffffffffffffffffffffffffffffffffffff16815260200182815260200192505050600060405180830381600087803b15801561215857600080fd5b505af115801561216c573d6000803e3d6000fd5b505050506001601160006101000a81548160ff021916908315150217905550505050565b6b033b2e3c9fd0803ce800000081565b7f574554480000000000000000000000000000000000000000000000000000000081565b7f434841490000000000000000000000000000000000000000000000000000000081565b601160009054906101000a900460ff1680156122105750601160019054906101000a900460ff165b612282576040517f08c379a00000000000000000000000000000000000000000000000000000000081526004018080602001828103825260118152602001807f556e77696e643a204e6f7420726561647900000000000000000000000000000081525060200191505060405180910390fd5b600061228c6106dc565b90506000600360009054906101000a900473ffffffffffffffffffffffffffffffffffffffff1673ffffffffffffffffffffffffffffffffffffffff166370a08231306040518263ffffffff1660e01b8152600401808273ffffffffffffffffffffffffffffffffffffffff1673ffffffffffffffffffffffffffffffffffffffff16815260200191505060206040518083038186803b15801561232f57600080fd5b505afa158015612343573d6000803e3d6000fd5b505050506040513d602081101561235957600080fd5b8101908080519060200190929190505050905061239a61238b61238561237d612b1d565b600f54613c90565b84613c90565b82613d4590919063ffffffff16565b905061247e600b60009054906101000a900473ffffffffffffffffffffffffffffffffffffffff1673ffffffffffffffffffffffffffffffffffffffff16638da66ed97f57455448000000000000000000000000000000000000000000000000000000006040518263ffffffff1660e01b815260040180828152602001915050602060405180830381600087803b15801561243457600080fd5b505af1158015612448573d6000803e3d6000fd5b505050506040513d602081101561245e57600080fd5b810190808051906020019092919050505082613dcd90919063ffffffff16565b9050612576612567612561600b60009054906101000a900473ffffffffffffffffffffffffffffffffffffffff1673ffffffffffffffffffffffffffffffffffffffff16638da66ed97f43484149000000000000000000000000000000000000000000000000000000006040518263ffffffff1660e01b815260040180828152602001915050602060405180830381600087803b15801561251e57600080fd5b505af1158015612532573d6000803e3d6000fd5b505050506040513d602081101561254857600080fd5b8101908080519060200190929190505050600f54613c90565b84613c90565b82613dcd90919063ffffffff16565b9050600360009054906101000a900473ffffffffffffffffffffffffffffffffffffffff1673ffffffffffffffffffffffffffffffffffffffff1663a9059cbb84836040518363ffffffff1660e01b8152600401808373ffffffffffffffffffffffffffffffffffffffff1673ffffffffffffffffffffffffffffffffffffffff16815260200182815260200192505050602060405180830381600087803b15801561262157600080fd5b505af1158015612635573d6000803e3d6000fd5b505050506040513d602081101561264b57600080fd5b810190808051906020019092919050505050505050565b60008073ffffffffffffffffffffffffffffffffffffffff16600d600084815260200190815260200160002060009054906101000a900473ffffffffffffffffffffffffffffffffffffffff1673ffffffffffffffffffffffffffffffffffffffff1614159050919050565b60011515601160029054906101000a900460ff1615151461273a576040517f08c379a00000000000000000000000000000000000000000000000000000000081526004018080602001828103825260268152602001806141cd6026913960400191505060405180910390fd5b6000600860009054906101000a900473ffffffffffffffffffffffffffffffffffffffff1673ffffffffffffffffffffffffffffffffffffffff166370a08231600a60009054906101000a900473ffffffffffffffffffffffffffffffffffffffff166040518263ffffffff1660e01b8152600401808273ffffffffffffffffffffffffffffffffffffffff1673ffffffffffffffffffffffffffffffffffffffff16815260200191505060206040518083038186803b1580156127fd57600080fd5b505afa158015612811573d6000803e3d6000fd5b505050506040513d602081101561282757600080fd5b81019080805190602001909291905050509050612854612845612b1d565b82613d4590919063ffffffff16565b905061291b61290c600a60009054906101000a900473ffffffffffffffffffffffffffffffffffffffff1673ffffffffffffffffffffffffffffffffffffffff16630dca59c16040518163ffffffff1660e01b815260040160206040518083038186803b1580156128c457600080fd5b505afa1580156128d8573d6000803e3d6000fd5b505050506040513d60208110156128ee57600080fd5b81019080805190602001909291905050506129076106dc565b613e17565b82613dcd90919063ffffffff16565b90506129ff600b60009054906101000a900473ffffffffffffffffffffffffffffffffffffffff1673ffffffffffffffffffffffffffffffffffffffff16638da66ed97f43484149000000000000000000000000000000000000000000000000000000006040518263ffffffff1660e01b815260040180828152602001915050602060405180830381600087803b1580156129b557600080fd5b505af11580156129c9573d6000803e3d6000fd5b505050506040513d60208110156129df57600080fd5b810190808051906020019092919050505082613dcd90919063ffffffff16565b9050600a60009054906101000a900473ffffffffffffffffffffffffffffffffffffffff1673ffffffffffffffffffffffffffffffffffffffff16639fa8368983836040518363ffffffff1660e01b8152600401808373ffffffffffffffffffffffffffffffffffffffff1673ffffffffffffffffffffffffffffffffffffffff16815260200182815260200192505050600060405180830381600087803b158015612aaa57600080fd5b505af1158015612abe573d6000803e3d6000fd5b505050505050565b600d6020528060005260406000206000915054906101000a900473ffffffffffffffffffffffffffffffffffffffff1681565b7f4554482d4100000000000000000000000000000000000000000000000000000081565b6000806000612b2a6106dc565b90506000612b36610c72565b905060008090505b600e80549050811015612ffa576000600e8281548110612b5a57fe5b906000526020600020015490506000600d6000600e8581548110612b7a57fe5b9060005260206000200154815260200190815260200160002060009054906101000a900473ffffffffffffffffffffffffffffffffffffffff1690506000808273ffffffffffffffffffffffffffffffffffffffff1663ae4e7fdf6040518163ffffffff1660e01b815260040160206040518083038186803b158015612bff57600080fd5b505afa158015612c13573d6000803e3d6000fd5b505050506040513d6020811015612c2957600080fd5b810190808051906020019092919050505015612d4a578273ffffffffffffffffffffffffffffffffffffffff166312970eac6040518163ffffffff1660e01b815260040160206040518083038186803b158015612c8557600080fd5b505afa158015612c99573d6000803e3d6000fd5b505050506040513d6020811015612caf57600080fd5b810190808051906020019092919050505091508273ffffffffffffffffffffffffffffffffffffffff166393c19e186040518163ffffffff1660e01b815260040160206040518083038186803b158015612d0857600080fd5b505afa158015612d1c573d6000803e3d6000fd5b505050506040513d6020811015612d3257600080fd5b81019080805190602001909291905050509050612d51565b8691508590505b612e56612e47612e41600b60009054906101000a900473ffffffffffffffffffffffffffffffffffffffff1673ffffffffffffffffffffffffffffffffffffffff1663839cd27c7f5745544800000000000000000000000000000000000000000000000000000000896040518363ffffffff1660e01b81526004018083815260200182815260200192505050602060405180830381600087803b158015612df757600080fd5b505af1158015612e0b573d6000803e3d6000fd5b505050506040513d6020811015612e2157600080fd5b8101908080519060200190929190505050612e3c8a86613e17565b613c90565b84613e17565b89613d4590919063ffffffff16565b9750612f4b612f3c600b60009054906101000a900473ffffffffffffffffffffffffffffffffffffffff1673ffffffffffffffffffffffffffffffffffffffff1663839cd27c7f4348414900000000000000000000000000000000000000000000000000000000886040518363ffffffff1660e01b81526004018083815260200182815260200192505050602060405180830381600087803b158015612efb57600080fd5b505af1158015612f0f573d6000803e3d6000fd5b505050506040513d6020811015612f2557600080fd5b810190808051906020019092919050505084613e17565b89613d4590919063ffffffff16565b9750612fe9612fda8473ffffffffffffffffffffffffffffffffffffffff166318160ddd6040518163ffffffff1660e01b815260040160206040518083038186803b158015612f9957600080fd5b505afa158015612fad573d6000803e3d6000fd5b505050506040513d6020811015612fc357600080fd5b810190808051906020019092919050505084613e17565b89613dcd90919063ffffffff16565b975050505050600181019050612b3e565b5082935050505090565b61300c613ccb565b73ffffffffffffffffffffffffffffffffffffffff166000809054906101000a900473ffffffffffffffffffffffffffffffffffffffff1673ffffffffffffffffffffffffffffffffffffffff16146130cd576040517f08c379a00000000000000000000000000000000000000000000000000000000081526004018080602001828103825260208152602001807f4f776e61626c653a2063616c6c6572206973206e6f7420746865206f776e657281525060200191505060405180910390fd5b600073ffffffffffffffffffffffffffffffffffffffff168173ffffffffffffffffffffffffffffffffffffffff161415613153576040517f08c379a00000000000000000000000000000000000000000000000000000000081526004018080602001828103825260268152602001806141346026913960400191505060405180910390fd5b8073ffffffffffffffffffffffffffffffffffffffff166000809054906101000a900473ffffffffffffffffffffffffffffffffffffffff1673ffffffffffffffffffffffffffffffffffffffff167f8be0079c531659141344cd1fd0a4f28419497f9722a3daafe3b4186f6b6457e060405160405180910390a3806000806101000a81548173ffffffffffffffffffffffffffffffffffffffff021916908373ffffffffffffffffffffffffffffffffffffffff16021790555050565b6000600760009054906101000a900473ffffffffffffffffffffffffffffffffffffffff1673ffffffffffffffffffffffffffffffffffffffff1663ee6447b57f4554482d410000000000000000000000000000000000000000000000000000006040518263ffffffff1660e01b815260040180828152602001915050602060405180830381600087803b1580156132a857600080fd5b505af11580156132bc573d6000803e3d6000fd5b505050506040513d60208110156132d257600080fd5b81019080805190602001909291905050501415613357576040517f08c379a00000000000000000000000000000000000000000000000000000000081526004018080602001828103825260198152602001807f556e77696e643a20456e642e736f6c206e6f742063616765640000000000000081525060200191505060405180910390fd5b6000600760009054906101000a900473ffffffffffffffffffffffffffffffffffffffff1673ffffffffffffffffffffffffffffffffffffffff166363fad85e7f4554482d410000000000000000000000000000000000000000000000000000006040518263ffffffff1660e01b815260040180828152602001915050602060405180830381600087803b1580156133ee57600080fd5b505af1158015613402573d6000803e3d6000fd5b505050506040513d602081101561341857600080fd5b8101908080519060200190929190505050141561349d576040517f08c379a00000000000000000000000000000000000000000000000000000000081526004018080602001828103825260198152602001807f556e77696e643a20456e642e736f6c206e6f742072656164790000000000000081525060200191505060405180910390fd5b6000600860009054906101000a900473ffffffffffffffffffffffffffffffffffffffff1673ffffffffffffffffffffffffffffffffffffffff16636c25b346600a60009054906101000a900473ffffffffffffffffffffffffffffffffffffffff166040518263ffffffff1660e01b8152600401808273ffffffffffffffffffffffffffffffffffffffff1673ffffffffffffffffffffffffffffffffffffffff168152602001915050602060405180830381600087803b15801561356257600080fd5b505af1158015613576573d6000803e3d6000fd5b505050506040513d602081101561358c57600080fd5b81019080805190602001909291905050509050600860009054906101000a900473ffffffffffffffffffffffffffffffffffffffff1673ffffffffffffffffffffffffffffffffffffffff16634a03707c600a60009054906101000a900473ffffffffffffffffffffffffffffffffffffffff16600a60009054906101000a900473ffffffffffffffffffffffffffffffffffffffff1673ffffffffffffffffffffffffffffffffffffffff1663c86d6ae46040518163ffffffff1660e01b8152600401602060405180830381600087803b15801561366a57600080fd5b505af115801561367e573d6000803e3d6000fd5b505050506040513d602081101561369457600080fd5b81019080805190602001909291905050506040518363ffffffff1660e01b8152600401808373ffffffffffffffffffffffffffffffffffffffff1673ffffffffffffffffffffffffffffffffffffffff16815260200182815260200192505050600060405180830381600087803b15801561370e57600080fd5b505af1158015613722573d6000803e3d6000fd5b50505050600260009054906101000a900473ffffffffffffffffffffffffffffffffffffffff1673ffffffffffffffffffffffffffffffffffffffff16633b4da69f30836040518363ffffffff1660e01b8152600401808373ffffffffffffffffffffffffffffffffffffffff1673ffffffffffffffffffffffffffffffffffffffff16815260200182815260200192505050600060405180830381600087803b1580156137cf57600080fd5b505af11580156137e3573d6000803e3d6000fd5b50505050600760009054906101000a900473ffffffffffffffffffffffffffffffffffffffff1673ffffffffffffffffffffffffffffffffffffffff16636ea42555826040518263ffffffff1660e01b815260040180828152602001915050600060405180830381600087803b15801561385c57600080fd5b505af1158015613870573d6000803e3d6000fd5b50505050600760009054906101000a900473ffffffffffffffffffffffffffffffffffffffff1673ffffffffffffffffffffffffffffffffffffffff1663fe8507c67f4554482d41000000000000000000000000000000000000000000000000000000836040518363ffffffff1660e01b81526004018083815260200182815260200192505050600060405180830381600087803b15801561391157600080fd5b505af1158015613925573d6000803e3d6000fd5b505050506000600160009054906101000a900473ffffffffffffffffffffffffffffffffffffffff1673ffffffffffffffffffffffffffffffffffffffff1663214414d5306040518263ffffffff1660e01b815260040180807f4554482d410000000000000000000000000000000000000000000000000000008152506020018273ffffffffffffffffffffffffffffffffffffffff1673ffffffffffffffffffffffffffffffffffffffff16815260200191505060206040518083038186803b1580156139f257600080fd5b505afa158015613a06573d6000803e3d6000fd5b505050506040513d6020811015613a1c57600080fd5b81019080805190602001909291905050509050600460009054906101000a900473ffffffffffffffffffffffffffffffffffffffff1673ffffffffffffffffffffffffffffffffffffffff1663ef693bed30836040518363ffffffff1660e01b8152600401808373ffffffffffffffffffffffffffffffffffffffff1673ffffffffffffffffffffffffffffffffffffffff16815260200182815260200192505050600060405180830381600087803b158015613ad857600080fd5b505af1158015613aec573d6000803e3d6000fd5b505050506001601160016101000a81548160ff021916908315150217905550600760009054906101000a900473ffffffffffffffffffffffffffffffffffffffff1673ffffffffffffffffffffffffffffffffffffffff166363fad85e7f4554482d410000000000000000000000000000000000000000000000000000006040518263ffffffff1660e01b815260040180828152602001915050602060405180830381600087803b158015613ba057600080fd5b505af1158015613bb4573d6000803e3d6000fd5b505050506040513d6020811015613bca57600080fd5b8101908080519060200190929190505050600f81905550600960009054906101000a900473ffffffffffffffffffffffffffffffffffffffff1673ffffffffffffffffffffffffffffffffffffffff1663a035b1fe6040518163ffffffff1660e01b8152600401602060405180830381600087803b158015613c4b57600080fd5b505af1158015613c5f573d6000803e3d6000fd5b505050506040513d6020811015613c7557600080fd5b81019080805190602001909291905050506010819055505050565b6000613cc36b033b2e3c9fd0803ce8000000613cb58486613e5290919063ffffffff16565b613ed890919063ffffffff16565b905092915050565b600033905090565b6000613ce5613ce0613f22565b613f4a565b821115613d3d576040517f08c379a000000000000000000000000000000000000000000000000000000000815260040180806020018281038252603b81526020018061415a603b913960400191505060405180910390fd5b819050919050565b600080828401905083811015613dc3576040517f08c379a000000000000000000000000000000000000000000000000000000000815260040180806020018281038252601b8152602001807f536166654d6174683a206164646974696f6e206f766572666c6f77000000000081525060200191505060405180910390fd5b8091505092915050565b6000613e0f83836040518060400160405280601e81526020017f536166654d6174683a207375627472616374696f6e206f766572666c6f770000815250613fad565b905092915050565b6000613e4a82613e3c6b033b2e3c9fd0803ce800000086613e5290919063ffffffff16565b613ed890919063ffffffff16565b905092915050565b600080831415613e655760009050613ed2565b6000828402905082848281613e7657fe5b0414613ecd576040517f08c379a00000000000000000000000000000000000000000000000000000000081526004018080602001828103825260218152602001806141f36021913960400191505060405180910390fd5b809150505b92915050565b6000613f1a83836040518060400160405280601a81526020017f536166654d6174683a206469766973696f6e206279207a65726f00000000000081525061406d565b905092915050565b60007f7fffffffffffffffffffffffffffffffffffffffffffffffffffffffffffffff905090565b600080821215613fa5576040517f08c379a00000000000000000000000000000000000000000000000000000000081526004018080602001828103825260388152602001806141956038913960400191505060405180910390fd5b819050919050565b600083831115829061405a576040517f08c379a00000000000000000000000000000000000000000000000000000000081526004018080602001828103825283818151815260200191508051906020019080838360005b8381101561401f578082015181840152602081019050614004565b50505050905090810190601f16801561404c5780820380516001836020036101000a031916815260200191505b509250505060405180910390fd5b5060008385039050809150509392505050565b60008083118290614119576040517f08c379a00000000000000000000000000000000000000000000000000000000081526004018080602001828103825283818151815260200191508051906020019080838360005b838110156140de5780820151818401526020810190506140c3565b50505050905090810190601f16801561410b5780820380516001836020036101000a031916815260200191505b509250505060405180910390fd5b50600083858161412557fe5b04905080915050939250505056fe4f776e61626c653a206e6577206f776e657220697320746865207a65726f206164647265737343616e6e6f742063617374206f766572666c6f77696e6720756e7369676e656420696e746567657220746f207369676e656420696e74656765722e43616e6e6f742063617374206e65676174697665207369676e656420696e746567657220746f20756e7369676e656420696e74656765722e556e77696e643a2043616e206f6e6c7920736b696d5768696c654c697665206966206c697665536166654d6174683a206d756c7469706c69636174696f6e206f766572666c6f77556e77696e643a204d616b657244414f206e6f74207368757474696e6720646f776ea2646970667358221220b5e6dc5837cd3c86daa8454b03f781da6ce61f5d604a42cbaabc915640581dad64736f6c63430006020033",
  "source": "pragma solidity ^0.6.0;\n\nimport \"@hq20/contracts/contracts/utils/SafeCast.sol\";\nimport \"@openzeppelin/contracts/access/Ownable.sol\";\nimport \"@openzeppelin/contracts/math/SafeMath.sol\";\nimport \"@openzeppelin/contracts/token/ERC20/IERC20.sol\";\nimport \"./interfaces/IVat.sol\";\nimport \"./interfaces/IDaiJoin.sol\";\nimport \"./interfaces/IGemJoin.sol\";\nimport \"./interfaces/IJug.sol\";\nimport \"./interfaces/IPot.sol\";\nimport \"./interfaces/IEnd.sol\";\nimport \"./interfaces/IChai.sol\";\nimport \"./interfaces/IOracle.sol\";\nimport \"./interfaces/ITreasury.sol\";\nimport \"./interfaces/IDealer.sol\";\nimport \"./interfaces/IYDai.sol\";\nimport \"./interfaces/ILiquidations.sol\";\nimport \"./helpers/Constants.sol\";\n// import \"@nomiclabs/buidler/console.sol\";\n\n\n/// @dev Treasury manages the Dai, interacting with MakerDAO's vat and chai when needed.\ncontract Unwind is Ownable(), Constants {\n    using SafeCast for uint256;\n    using SafeMath for uint256;\n\n    bytes32 public constant collateralType = \"ETH-A\";\n    uint256 public constant UNIT = 1000000000000000000000000000;\n\n    IVat internal _vat;\n    IDaiJoin internal _daiJoin;\n    IERC20 internal _weth;\n    IGemJoin internal _wethJoin;\n    IJug internal _jug;\n    IPot internal _pot;\n    IEnd internal _end;\n    IChai internal _chai;\n    IOracle internal _chaiOracle;\n    ITreasury internal _treasury;\n    IDealer internal _dealer;\n    ILiquidations internal _liquidations;\n\n    // TODO: Series related code is repeated with Dealer, can be extracted into a parent class.\n    mapping(uint256 => IYDai) public series; // YDai series, indexed by maturity\n    uint256[] internal seriesIterator;       // We need to know all the series\n\n    uint256 public _fix; // Dai to weth price on DSS Unwind\n    uint256 public _chi; // Chai to dai price on DSS Unwind\n\n    bool public settled;\n    bool public cashedOut;\n    bool public live = true;\n\n    constructor (\n        address vat_,\n        address daiJoin_,\n        address weth_,\n        address wethJoin_,\n        address jug_,\n        address pot_,\n        address end_,\n        address chai_,\n        address chaiOracle_,\n        address treasury_,\n        address dealer_,\n        address liquidations_\n    ) public {\n        // These could be hardcoded for mainnet deployment.\n        _vat = IVat(vat_);\n        _daiJoin = IDaiJoin(daiJoin_);\n        _weth = IERC20(weth_);\n        _wethJoin = IGemJoin(wethJoin_);\n        _jug = IJug(jug_);\n        _pot = IPot(pot_);\n        _end = IEnd(end_);\n        _chai = IChai(chai_);\n        _chaiOracle = IOracle(chaiOracle_);\n        _treasury = ITreasury(treasury_);\n        _dealer = IDealer(dealer_);\n        _liquidations = ILiquidations(liquidations_);\n\n        _vat.hope(address(_treasury));\n        _vat.hope(address(_end));\n    }\n\n    /// @dev Multiplies x and y, assuming they are both fixed point with 27 digits.\n    function muld(uint256 x, uint256 y) internal pure returns (uint256) {\n        return x.mul(y).div(UNIT);\n    }\n\n    /// @dev Divides x between y, assuming they are both fixed point with 18 digits.\n    function divd(uint256 x, uint256 y) internal pure returns (uint256) {\n        return x.mul(UNIT).div(y);\n    }\n\n    /// @dev max(0, x - y)\n    function subFloorZero(uint256 x, uint256 y) public pure returns(uint256) {\n        if (y >= x) return 0;\n        else return x - y;\n    }\n\n    /// @dev Returns if a series has been added to the Dealer, for a given series identified by maturity\n    function containsSeries(uint256 maturity) public view returns (bool) {\n        return address(series[maturity]) != address(0);\n    }\n\n    /// @dev Adds an yDai series to this Dealer\n    function addSeries(address yDaiContract) public onlyOwner {\n        uint256 maturity = IYDai(yDaiContract).maturity();\n        require(\n            !containsSeries(maturity),\n            \"Dealer: Series already added\"\n        );\n        series[maturity] = IYDai(yDaiContract);\n        seriesIterator.push(maturity);\n    }\n\n    /// @dev Disables treasury and dealer.\n    function unwind() public {\n        require(\n            _end.tag(collateralType) != 0,\n            \"Unwind: MakerDAO not shutting down\"\n        );\n        live = false;\n        _treasury.shutdown();\n        _dealer.shutdown();\n        _liquidations.shutdown();\n    }\n\n    function getChi() public returns (uint256) {\n        return (now > _pot.rho()) ? _pot.drip() : _pot.chi();\n    }\n\n    function getRate() public returns (uint256) {\n        uint256 rate;\n        (, uint256 rho) = _jug.ilks(\"ETH-A\"); // \"WETH\" for weth.sol, \"ETH-A\" for MakerDAO\n        if (now > rho) {\n            rate = _jug.drip(\"ETH-A\");\n        } else {\n            (, rate,,,) = _vat.ilks(\"ETH-A\");\n        }\n        return rate;\n    }\n\n    /// @dev Calculates how much profit is in the system and transfers it to the beneficiary\n    function skimWhileLive(address beneficiary) public { // TODO: Hardcode\n        require(\n            live == true,\n            \"Unwind: Can only skimWhileLive if live\"\n        );\n\n        uint256 profit = _chai.balanceOf(address(_treasury));\n        profit = profit.add(yDaiProfit());\n        profit = profit.sub(divd(_treasury.debt(), getChi()));\n        profit = profit.sub(_dealer.systemPosted(CHAI));\n\n        _treasury.pullChai(beneficiary, profit);\n    }\n\n    /// @dev Returns the profit accummulated in the system due to yDai supply and debt, in chai.\n    function yDaiProfit() public returns (uint256) {\n        uint256 profit;\n        uint256 chi = getChi();\n        uint256 rate = getRate();\n\n        for (uint256 i = 0; i < seriesIterator.length; i += 1) {\n            uint256 maturity = seriesIterator[i];\n            IYDai yDai = IYDai(series[seriesIterator[i]]);\n\n            uint256 chi0;\n            uint256 rate0;\n            if (yDai.isMature()){\n                chi0 = yDai.chi0();\n                rate0 = yDai.rate0();\n            } else {\n                chi0 = chi;\n                rate0 = rate;\n            }\n\n            profit = profit.add(divd(muld(_dealer.systemDebtYDai(WETH, maturity), divd(rate, rate0)), chi0));\n            profit = profit.add(divd(_dealer.systemDebtYDai(CHAI, maturity), chi0));\n            profit = profit.sub(divd(yDai.totalSupply(), chi0));\n        }\n\n        return profit;\n    }\n\n    /// @dev Settle system debt in MakerDAO and free remaining collateral.\n    function settleTreasury() public {\n        require(\n            live == false,\n            \"Unwind: Unwind first\"\n        );\n        (uint256 ink, uint256 art) = _vat.urns(\"ETH-A\", address(_treasury));\n        _vat.fork(                                               // Take the treasury vault\n            collateralType,\n            address(_treasury),\n            address(this),\n            ink.toInt(),\n            art.toInt()\n        );\n        _end.skim(collateralType, address(this));                // Settle debts\n        _end.free(collateralType);                               // Free collateral\n        uint256 gem = _vat.gem(\"ETH-A\", address(this));          // Find out how much collateral we have now\n        _wethJoin.exit(address(this), gem);                      // Take collateral out\n        settled = true;\n    }\n\n    /// @dev Put all chai savings in MakerDAO and exchange them for weth\n    function cashSavings() public {\n        require(\n            _end.tag(collateralType) != 0,\n            \"Unwind: End.sol not caged\"\n        );\n        require(\n            _end.fix(collateralType) != 0,\n            \"Unwind: End.sol not ready\"\n        );\n        uint256 daiTokens = _chai.dai(address(_treasury));   // Find out how much is the chai worth\n        _chai.draw(address(_treasury), _treasury.savings()); // Get the chai as dai\n        _daiJoin.join(address(this), daiTokens);             // Put the dai into MakerDAO\n        _end.pack(daiTokens);                                // Into End.sol, more exactly\n        _end.cash(collateralType, daiTokens);                // Exchange the dai for weth\n        uint256 gem = _vat.gem(\"ETH-A\", address(this));      // Find out how much collateral we have now\n        _wethJoin.exit(address(this), gem);                  // Take collateral out\n        cashedOut = true;\n\n        _fix = _end.fix(collateralType);\n        _chi = _chaiOracle.price();\n    }\n\n    /// @dev Settles a series position in Dealer, and then returns any remaining collateral as weth using the unwind Dai to Weth price.\n    function settle(bytes32 collateral, address user) public {\n        require(settled && cashedOut, \"Unwind: Not ready\");\n\n        uint256 debt = _dealer.totalDebtDai(collateral, user);\n        uint256 tokens = _dealer.posted(collateral, user);\n        _dealer.grab(collateral, user, debt, tokens);\n\n        uint256 remainder;\n        if (collateral == WETH) {\n            remainder = subFloorZero(tokens, muld(debt, _fix));\n        } else if (collateral == CHAI) {\n            remainder = muld(subFloorZero(muld(tokens, _chi), debt), _fix);\n        }\n        _weth.transfer(user, remainder);\n    }\n\n    /// @dev Redeems YDai for weth\n    function redeem(uint256 maturity, uint256 yDaiAmount, address user) public {\n        require(settled && cashedOut, \"Unwind: Not ready\");\n        IYDai yDai = _dealer.series(maturity);\n        yDai.burn(user, yDaiAmount);\n        _weth.transfer(\n            user,\n            muld(muld(yDaiAmount, yDai.chiGrowth()), _fix)\n        );\n    }\n\n    /// @dev Calculates how much profit is in the system and transfers it to the beneficiary\n    // TODO: Test\n    function skimDssShutdown(address beneficiary) public { // TODO: Hardcode\n        require(settled && cashedOut, \"Unwind: Not ready\");\n\n        uint256 chi = getChi();\n        uint256 profit = _weth.balanceOf(address(this));\n\n        profit = profit.add(muld(muld(yDaiProfit(), _fix), chi));\n        profit = profit.sub(_dealer.systemPosted(WETH));\n        profit = profit.sub(muld(muld(_dealer.systemPosted(CHAI), _fix), chi));\n\n        _weth.transfer(beneficiary, profit);\n    }\n}",
  "sourcePath": "/Users/bruce/dev/yieldprotocol/ytoken-mvp/contracts/Unwind.sol",
  "compiler": {
    "name": "solc",
    "version": "0.6.2+commit.bacdbe57.Emscripten.clang"
  },
  "schemaVersion": "3.0.23",
  "updatedAt": "2020-07-01T06:27:42.242Z",
  "networkType": "ethereum",
  "devdoc": {
    "details": "Treasury manages the Dai, interacting with MakerDAO's vat and chai when needed.",
    "methods": {
      "addSeries(address)": {
        "details": "Adds an yDai series to this Dealer"
      },
      "cashSavings()": {
        "details": "Put all chai savings in MakerDAO and exchange them for weth"
      },
      "containsSeries(uint256)": {
        "details": "Returns if a series has been added to the Dealer, for a given series identified by maturity"
      },
      "owner()": {
        "details": "Returns the address of the current owner."
      },
      "redeem(uint256,uint256,address)": {
        "details": "Redeems YDai for weth"
      },
      "renounceOwnership()": {
        "details": "Leaves the contract without owner. It will not be possible to call `onlyOwner` functions anymore. Can only be called by the current owner.     * NOTE: Renouncing ownership will leave the contract without an owner, thereby removing any functionality that is only available to the owner."
      },
      "settle(bytes32,address)": {
        "details": "Settles a series position in Dealer, and then returns any remaining collateral as weth using the unwind Dai to Weth price."
      },
      "settleTreasury()": {
        "details": "Settle system debt in MakerDAO and free remaining collateral."
      },
      "skimDssShutdown(address)": {
        "details": "Calculates how much profit is in the system and transfers it to the beneficiary"
      },
      "skimWhileLive(address)": {
        "details": "Calculates how much profit is in the system and transfers it to the beneficiary"
      },
      "subFloorZero(uint256,uint256)": {
        "details": "max(0, x - y)"
      },
      "transferOwnership(address)": {
        "details": "Transfers ownership of the contract to a new account (`newOwner`). Can only be called by the current owner."
      },
      "unwind()": {
        "details": "Disables treasury and dealer."
      },
      "yDaiProfit()": {
        "details": "Returns the profit accummulated in the system due to yDai supply and debt, in chai."
      }
    }
  },
  "userdoc": {
    "methods": {}
  }
}