{
  "contractName": "Unwind",
  "abi": [
    {
      "inputs": [
        {
          "internalType": "address",
          "name": "vat_",
          "type": "address"
        },
        {
          "internalType": "address",
          "name": "daiJoin_",
          "type": "address"
        },
        {
          "internalType": "address",
          "name": "weth_",
          "type": "address"
        },
        {
          "internalType": "address",
          "name": "wethJoin_",
          "type": "address"
        },
        {
          "internalType": "address",
          "name": "pot_",
          "type": "address"
        },
        {
          "internalType": "address",
          "name": "end_",
          "type": "address"
        },
        {
          "internalType": "address",
          "name": "chai_",
          "type": "address"
        },
        {
          "internalType": "address",
          "name": "treasury_",
          "type": "address"
        },
        {
          "internalType": "address",
          "name": "controller_",
          "type": "address"
        },
        {
          "internalType": "address",
          "name": "liquidations_",
          "type": "address"
        },
        {
          "internalType": "address",
          "name": "beneficiary_",
          "type": "address"
        }
      ],
      "stateMutability": "nonpayable",
      "type": "constructor"
    },
    {
      "anonymous": false,
      "inputs": [
        {
          "indexed": true,
          "internalType": "address",
          "name": "previousOwner",
          "type": "address"
        },
        {
          "indexed": true,
          "internalType": "address",
          "name": "newOwner",
          "type": "address"
        }
      ],
      "name": "OwnershipTransferred",
      "type": "event"
    },
    {
      "inputs": [],
      "name": "CHAI",
      "outputs": [
        {
          "internalType": "bytes32",
          "name": "",
          "type": "bytes32"
        }
      ],
      "stateMutability": "view",
      "type": "function",
      "constant": true
    },
    {
      "inputs": [],
      "name": "UNIT",
      "outputs": [
        {
          "internalType": "uint256",
          "name": "",
          "type": "uint256"
        }
      ],
      "stateMutability": "view",
      "type": "function",
      "constant": true
    },
    {
      "inputs": [],
      "name": "WETH",
      "outputs": [
        {
          "internalType": "bytes32",
          "name": "",
          "type": "bytes32"
        }
      ],
      "stateMutability": "view",
      "type": "function",
      "constant": true
    },
    {
      "inputs": [],
      "name": "_chi",
      "outputs": [
        {
          "internalType": "uint256",
          "name": "",
          "type": "uint256"
        }
      ],
      "stateMutability": "view",
      "type": "function",
      "constant": true
    },
    {
      "inputs": [],
      "name": "_fix",
      "outputs": [
        {
          "internalType": "uint256",
          "name": "",
          "type": "uint256"
        }
      ],
      "stateMutability": "view",
      "type": "function",
      "constant": true
    },
    {
      "inputs": [],
      "name": "beneficiary",
      "outputs": [
        {
          "internalType": "address",
          "name": "",
          "type": "address"
        }
      ],
      "stateMutability": "view",
      "type": "function",
      "constant": true
    },
    {
      "inputs": [],
      "name": "cashedOut",
      "outputs": [
        {
          "internalType": "bool",
          "name": "",
          "type": "bool"
        }
      ],
      "stateMutability": "view",
      "type": "function",
      "constant": true
    },
    {
      "inputs": [],
      "name": "live",
      "outputs": [
        {
          "internalType": "bool",
          "name": "",
          "type": "bool"
        }
      ],
      "stateMutability": "view",
      "type": "function",
      "constant": true
    },
    {
      "inputs": [],
      "name": "owner",
      "outputs": [
        {
          "internalType": "address",
          "name": "",
          "type": "address"
        }
      ],
      "stateMutability": "view",
      "type": "function",
      "constant": true
    },
    {
      "inputs": [],
      "name": "renounceOwnership",
      "outputs": [],
      "stateMutability": "nonpayable",
      "type": "function"
    },
    {
      "inputs": [],
      "name": "settled",
      "outputs": [
        {
          "internalType": "bool",
          "name": "",
          "type": "bool"
        }
      ],
      "stateMutability": "view",
      "type": "function",
      "constant": true
    },
    {
      "inputs": [
        {
          "internalType": "address",
          "name": "newOwner",
          "type": "address"
        }
      ],
      "name": "transferOwnership",
      "outputs": [],
      "stateMutability": "nonpayable",
      "type": "function"
    },
    {
      "inputs": [
        {
          "internalType": "uint256",
          "name": "x",
          "type": "uint256"
        },
        {
          "internalType": "uint256",
          "name": "y",
          "type": "uint256"
        }
      ],
      "name": "subFloorZero",
      "outputs": [
        {
          "internalType": "uint256",
          "name": "",
          "type": "uint256"
        }
      ],
      "stateMutability": "pure",
      "type": "function",
      "constant": true
    },
    {
      "inputs": [],
      "name": "unwind",
      "outputs": [],
      "stateMutability": "nonpayable",
      "type": "function"
    },
    {
      "inputs": [],
      "name": "skimWhileLive",
      "outputs": [],
      "stateMutability": "nonpayable",
      "type": "function"
    },
    {
      "inputs": [],
      "name": "skimDssShutdown",
      "outputs": [],
      "stateMutability": "nonpayable",
      "type": "function"
    },
    {
      "inputs": [],
      "name": "settleTreasury",
      "outputs": [],
      "stateMutability": "nonpayable",
      "type": "function"
    },
    {
      "inputs": [],
      "name": "cashSavings",
      "outputs": [],
      "stateMutability": "nonpayable",
      "type": "function"
    },
    {
      "inputs": [
        {
          "internalType": "bytes32",
          "name": "collateral",
          "type": "bytes32"
        },
        {
          "internalType": "address",
          "name": "user",
          "type": "address"
        }
      ],
      "name": "settle",
      "outputs": [],
      "stateMutability": "nonpayable",
      "type": "function"
    },
    {
      "inputs": [
        {
          "internalType": "uint256",
          "name": "maturity",
          "type": "uint256"
        },
        {
          "internalType": "address",
          "name": "user",
          "type": "address"
        },
        {
          "internalType": "uint256",
          "name": "yDaiAmount",
          "type": "uint256"
        }
      ],
      "name": "redeem",
      "outputs": [],
      "stateMutability": "nonpayable",
      "type": "function"
    }
  ],
  "bytecode": "0x6080604052600e805462ff00001916620100001790553480156200002257600080fd5b506040516200280b3803806200280b83398181016040526101608110156200004957600080fd5b508051602082015160408301516060840151608085015160a086015160c087015160e08801516101008901516101208a0151610140909a0151989997989697959694959394929391929091906000620000aa6001600160e01b036200027d16565b600080546001600160a01b0319166001600160a01b0383169081178255604051929350917f8be0079c531659141344cd1fd0a4f28419497f9722a3daafe3b4186f6b6457e0908290a350600180546001600160a01b03199081166001600160a01b038e811691909117928390556002805483168e83161790556003805483168d83161790556004805483168c83161781556005805484168c84161790556006805484168b84161790556007805484168a84161790556008805484168984161790819055600980548516898516179055600a805490941687841617909355600e80546301000000600160b81b031916630100000087851602179055604080516328ec8bf160e21b8152938316918401919091525192169163a3b22fc49160248082019260009290919082900301818387803b158015620001e857600080fd5b505af1158015620001fd573d6000803e3d6000fd5b5050600154600654604080516328ec8bf160e21b81526001600160a01b039283166004820152905191909216935063a3b22fc49250602480830192600092919082900301818387803b1580156200025357600080fd5b505af115801562000268573d6000803e3d6000fd5b50505050505050505050505050505062000281565b3390565b61257a80620002916000396000f3fe608060405234801561001057600080fd5b506004361061012c5760003560e01c80638f775839116100ad578063b6dbf9ce11610071578063b6dbf9ce1461022c578063c24293ec14610234578063d87801611461023c578063f2fde38b1461026e578063f392c35a146102945761012c565b80638f77583914610204578063957aa58c1461020c57806396b3e2f0146102145780639d8e21771461021c578063ad5c4648146102245761012c565b80637d4a9ab8116100f45780637d4a9ab8146101b85780637e709c3c146101e4578063807763ab146101ec57806383a96524146101f45780638da5cb5b146101fc5761012c565b806335dbea171461013157806338af3eed146101665780636165b1041461018a578063715018a61461019457806374cbd36e1461019c575b600080fd5b6101546004803603604081101561014757600080fd5b508035906020013561029c565b60408051918252519081900360200190f35b61016e6102b8565b604080516001600160a01b039092168252519081900360200190f35b6101926102ce565b005b61019261061e565b6101a46106d2565b604080519115158252519081900360200190f35b610192600480360360408110156101ce57600080fd5b50803590602001356001600160a01b03166106e0565b6101546108b5565b6101926108bb565b610154610ab3565b61016e610ab9565b6101a4610ac8565b6101a4610ad1565b610192610ae0565b610154610e78565b610154610e88565b610154610e94565b610192610e9f565b6101926004803603606081101561025257600080fd5b508035906001600160a01b0360208201351690604001356112d4565b6101926004803603602081101561028457600080fd5b50356001600160a01b0316611531565b61019261163b565b60008282106102ad575060006102b2565b508082035b92915050565b600e54630100000090046001600160a01b031681565b600e5460ff1680156102e75750600e54610100900460ff165b61032c576040805162461bcd60e51b8152602060048201526011602482015270556e77696e643a204e6f7420726561647960781b604482015290519081900360640190fd5b6005546040805163324abb3160e21b815290516000926001600160a01b03169163c92aecc4916004808301926020929190829003018186803b15801561037157600080fd5b505afa158015610385573d6000803e3d6000fd5b505050506040513d602081101561039b57600080fd5b505160015460408051636cb1c69b60e11b8152644554482d4160d81b600482015290519293506000926001600160a01b039092169163d9638d369160248082019260a092909190829003018186803b1580156103f657600080fd5b505afa15801561040a573d6000803e3d6000fd5b505050506040513d60a081101561042057600080fd5b50602090810151600354604080516370a0823160e01b815230600482015290519294506000936001600160a01b03909216926370a0823192602480840193919291829003018186803b15801561047557600080fd5b505afa158015610489573d6000803e3d6000fd5b505050506040513d602081101561049f57600080fd5b505190506104d16104c46104be6104b68686611c8b565b600b54611ea6565b85611ea6565b829063ffffffff611edb16565b90506104e8600d5482611f3590919063ffffffff16565b90506105826105756104be600960009054906101000a90046001600160a01b03166001600160a01b0316634cb89c4f6040518163ffffffff1660e01b815260040160206040518083038186803b15801561054157600080fd5b505afa158015610555573d6000803e3d6000fd5b505050506040513d602081101561056b57600080fd5b5051600b54611ea6565b829063ffffffff611f3516565b600354600e546040805163a9059cbb60e01b81526001600160a01b0363010000009093048316600482015260248101859052905193945091169163a9059cbb916044808201926020929091908290030181600087803b1580156105e457600080fd5b505af11580156105f8573d6000803e3d6000fd5b505050506040513d602081101561060e57600080fd5b505161061957600080fd5b505050565b610626611f77565b6000546001600160a01b03908116911614610688576040805162461bcd60e51b815260206004820181905260248201527f4f776e61626c653a2063616c6c6572206973206e6f7420746865206f776e6572604482015290519081900360640190fd5b600080546040516001600160a01b03909116907f8be0079c531659141344cd1fd0a4f28419497f9722a3daafe3b4186f6b6457e0908390a3600080546001600160a01b0319169055565b600e54610100900460ff1681565b600e5460ff1680156106f95750600e54610100900460ff165b61073e576040805162461bcd60e51b8152602060048201526011602482015270556e77696e643a204e6f7420726561647960781b604482015290519081900360640190fd5b600954604080516306a621df60e11b8152600481018590526001600160a01b03848116602483015282516000948594921692630d4c43be92604480830193919282900301818787803b15801561079357600080fd5b505af11580156107a7573d6000803e3d6000fd5b505050506040513d60408110156107bd57600080fd5b50805160209091015190925090506000644554482d4160d81b8514156107f9576107f2836107ed84600b54611ea6565b61029c565b9050610823565b634348414960e01b851415610823576108206104b661081a85600c54611ea6565b8461029c565b90505b6003546040805163a9059cbb60e01b81526001600160a01b038781166004830152602482018590529151919092169163a9059cbb9160448083019260209291908290030181600087803b15801561087957600080fd5b505af115801561088d573d6000803e3d6000fd5b505050506040513d60208110156108a357600080fd5b50516108ae57600080fd5b5050505050565b600c5481565b6006546040805163ee6447b560e01b8152644554482d4160d81b600482015290516001600160a01b039092169163ee6447b5916024808201926020929091908290030181600087803b15801561091057600080fd5b505af1158015610924573d6000803e3d6000fd5b505050506040513d602081101561093a57600080fd5b50516109775760405162461bcd60e51b81526004018080602001828103825260228152602001806125236022913960400191505060405180910390fd5b600e805462ff0000191690556008546040805163fc0e74d160e01b815290516001600160a01b039092169163fc0e74d19160048082019260009290919082900301818387803b1580156109c957600080fd5b505af11580156109dd573d6000803e3d6000fd5b50505050600960009054906101000a90046001600160a01b03166001600160a01b031663fc0e74d16040518163ffffffff1660e01b8152600401600060405180830381600087803b158015610a3157600080fd5b505af1158015610a45573d6000803e3d6000fd5b50505050600a60009054906101000a90046001600160a01b03166001600160a01b031663fc0e74d16040518163ffffffff1660e01b8152600401600060405180830381600087803b158015610a9957600080fd5b505af1158015610aad573d6000803e3d6000fd5b50505050565b600b5481565b6000546001600160a01b031690565b600e5460ff1681565b600e5462010000900460ff1681565b600e5462010000900460ff1615610b35576040805162461bcd60e51b8152602060048201526014602482015273155b9dda5b990e88155b9dda5b9908199a5c9cdd60621b604482015290519081900360640190fd5b600154600854604080516309092f9760e21b8152644554482d4160d81b60048201526001600160a01b039283166024820152815160009485941692632424be5c9260448082019391829003018186803b158015610b9157600080fd5b505afa158015610ba5573d6000803e3d6000fd5b505050506040513d6040811015610bbb57600080fd5b508051602090910151600d8290556001546008549294509092506001600160a01b039081169163870c616d91644554482d4160d81b911630610bfc87611f7b565b610c0587611f7b565b6040518663ffffffff1660e01b815260040180868152602001856001600160a01b03166001600160a01b03168152602001846001600160a01b03166001600160a01b0316815260200183815260200182815260200195505050505050600060405180830381600087803b158015610c7b57600080fd5b505af1158015610c8f573d6000803e3d6000fd5b5050600654604080516389ea45d360e01b8152644554482d4160d81b600482015230602482015290516001600160a01b0390921693506389ea45d3925060448082019260009290919082900301818387803b158015610ced57600080fd5b505af1158015610d01573d6000803e3d6000fd5b505060065460408051636418316360e11b8152644554482d4160d81b600482015290516001600160a01b03909216935063c83062c6925060248082019260009290919082900301818387803b158015610d5957600080fd5b505af1158015610d6d573d6000803e3d6000fd5b50506001546040805163214414d560e01b8152644554482d4160d81b60048201523060248201529051600094506001600160a01b03909216925063214414d5916044808301926020929190829003018186803b158015610dcc57600080fd5b505afa158015610de0573d6000803e3d6000fd5b505050506040513d6020811015610df657600080fd5b5051600480546040805163ef693bed60e01b8152309381019390935260248301849052519293506001600160a01b03169163ef693bed9160448082019260009290919082900301818387803b158015610e4e57600080fd5b505af1158015610e62573d6000803e3d6000fd5b5050600e805460ff191660011790555050505050565b6b033b2e3c9fd0803ce800000081565b644554482d4160d81b81565b634348414960e01b81565b600e5462010000900460ff161515600114610eeb5760405162461bcd60e51b81526004018080602001828103825260268152602001806124dc6026913960400191505060405180910390fd5b600960009054906101000a90046001600160a01b03166001600160a01b031663ed300a326040518163ffffffff1660e01b815260040160206040518083038186803b158015610f3957600080fd5b505afa158015610f4d573d6000803e3d6000fd5b505050506040513d6020811015610f6357600080fd5b5051421015610fb9576040805162461bcd60e51b815260206004820152601c60248201527f556e77696e643a204f6e6c7920616674657220736b696d537461727400000000604482015290519081900360640190fd5b6005546040805163324abb3160e21b815290516000926001600160a01b03169163c92aecc4916004808301926020929190829003018186803b158015610ffe57600080fd5b505afa158015611012573d6000803e3d6000fd5b505050506040513d602081101561102857600080fd5b505160015460408051636cb1c69b60e11b8152644554482d4160d81b600482015290519293506000926001600160a01b039092169163d9638d369160248082019260a092909190829003018186803b15801561108357600080fd5b505afa158015611097573d6000803e3d6000fd5b505050506040513d60a08110156110ad57600080fd5b50602090810151600754600854604080516370a0823160e01b81526001600160a01b039283166004820152905193955060009491909216926370a08231926024808201939291829003018186803b15801561110757600080fd5b505afa15801561111b573d6000803e3d6000fd5b505050506040513d602081101561113157600080fd5b505190506111426104c48484611c8b565b90506111ca610575600860009054906101000a90046001600160a01b03166001600160a01b0316630dca59c16040518163ffffffff1660e01b815260040160206040518083038186803b15801561119857600080fd5b505afa1580156111ac573d6000803e3d6000fd5b505050506040513d60208110156111c257600080fd5b505185611fdd565b9050611256600960009054906101000a90046001600160a01b03166001600160a01b0316634cb89c4f6040518163ffffffff1660e01b815260040160206040518083038186803b15801561121d57600080fd5b505afa158015611231573d6000803e3d6000fd5b505050506040513d602081101561124757600080fd5b5051829063ffffffff611f3516565b600854600e5460408051639fa8368960e01b81526001600160a01b03630100000090930483166004820152602481018590529051939450911691639fa836899160448082019260009290919082900301818387803b1580156112b757600080fd5b505af11580156112cb573d6000803e3d6000fd5b50505050505050565b600e5460ff1680156112ed5750600e54610100900460ff165b611332576040805162461bcd60e51b8152602060048201526011602482015270556e77696e643a204e6f7420726561647960781b604482015290519081900360640190fd5b60095460408051636e1165b560e11b81526004810186905290516000926001600160a01b03169163dc22cb6a916024808301926020929190829003018186803b15801561137e57600080fd5b505afa158015611392573d6000803e3d6000fd5b505050506040513d60208110156113a857600080fd5b505160408051632770a7eb60e21b81526001600160a01b03868116600483015260248201869052915192935090831691639dc29fac9160448082019260009290919082900301818387803b1580156113ff57600080fd5b505af1158015611413573d6000803e3d6000fd5b50505050600360009054906101000a90046001600160a01b03166001600160a01b031663a9059cbb846114ad6104b686866001600160a01b031663cb2401986040518163ffffffff1660e01b815260040160206040518083038186803b15801561147c57600080fd5b505afa158015611490573d6000803e3d6000fd5b505050506040513d60208110156114a657600080fd5b5051611ea6565b6040518363ffffffff1660e01b815260040180836001600160a01b03166001600160a01b0316815260200182815260200192505050602060405180830381600087803b1580156114fc57600080fd5b505af1158015611510573d6000803e3d6000fd5b505050506040513d602081101561152657600080fd5b5051610aad57600080fd5b611539611f77565b6000546001600160a01b0390811691161461159b576040805162461bcd60e51b815260206004820181905260248201527f4f776e61626c653a2063616c6c6572206973206e6f7420746865206f776e6572604482015290519081900360640190fd5b6001600160a01b0381166115e05760405162461bcd60e51b81526004018080602001828103825260268152602001806124b66026913960400191505060405180910390fd5b600080546040516001600160a01b03808516939216917f8be0079c531659141344cd1fd0a4f28419497f9722a3daafe3b4186f6b6457e091a3600080546001600160a01b0319166001600160a01b0392909216919091179055565b6006546040805163ee6447b560e01b8152644554482d4160d81b600482015290516001600160a01b039092169163ee6447b5916024808201926020929091908290030181600087803b15801561169057600080fd5b505af11580156116a4573d6000803e3d6000fd5b505050506040513d60208110156116ba57600080fd5b505161170d576040805162461bcd60e51b815260206004820152601960248201527f556e77696e643a20456e642e736f6c206e6f7420636167656400000000000000604482015290519081900360640190fd5b600654604080516331fd6c2f60e11b8152644554482d4160d81b600482015290516001600160a01b03909216916363fad85e916024808201926020929091908290030181600087803b15801561176257600080fd5b505af1158015611776573d6000803e3d6000fd5b505050506040513d602081101561178c57600080fd5b50516117df576040805162461bcd60e51b815260206004820152601960248201527f556e77696e643a20456e642e736f6c206e6f7420726561647900000000000000604482015290519081900360640190fd5b60075460085460408051633612d9a360e11b81526001600160a01b03928316600482015290516000939290921691636c25b3469160248082019260209290919082900301818787803b15801561183457600080fd5b505af1158015611848573d6000803e3d6000fd5b505050506040513d602081101561185e57600080fd5b50516007546008546040805163321b5ab960e21b815290519394506001600160a01b0392831693634a03707c9390921691829163c86d6ae4916004808301926020929190829003018186803b1580156118b657600080fd5b505afa1580156118ca573d6000803e3d6000fd5b505050506040513d60208110156118e057600080fd5b5051604080516001600160e01b031960e086901b1681526001600160a01b039093166004840152602483019190915251604480830192600092919082900301818387803b15801561193057600080fd5b505af1158015611944573d6000803e3d6000fd5b505060025460408051633b4da69f60e01b81523060048201526024810186905290516001600160a01b039092169350633b4da69f925060448082019260009290919082900301818387803b15801561199b57600080fd5b505af11580156119af573d6000803e3d6000fd5b505060065460408051636ea4255560e01b81526004810186905290516001600160a01b039092169350636ea42555925060248082019260009290919082900301818387803b158015611a0057600080fd5b505af1158015611a14573d6000803e3d6000fd5b505060065460408051637f4283e360e11b8152644554482d4160d81b60048201526024810186905290516001600160a01b03909216935063fe8507c6925060448082019260009290919082900301818387803b158015611a7357600080fd5b505af1158015611a87573d6000803e3d6000fd5b50506001546040805163214414d560e01b8152644554482d4160d81b60048201523060248201529051600094506001600160a01b03909216925063214414d5916044808301926020929190829003018186803b158015611ae657600080fd5b505afa158015611afa573d6000803e3d6000fd5b505050506040513d6020811015611b1057600080fd5b5051600480546040805163ef693bed60e01b8152309381019390935260248301849052519293506001600160a01b03169163ef693bed9160448082019260009290919082900301818387803b158015611b6857600080fd5b505af1158015611b7c573d6000803e3d6000fd5b5050600e805461ff0019166101001790555050600654604080516331fd6c2f60e11b8152644554482d4160d81b600482015290516001600160a01b03909216916363fad85e916024808201926020929091908290030181600087803b158015611be457600080fd5b505af1158015611bf8573d6000803e3d6000fd5b505050506040513d6020811015611c0e57600080fd5b5051600b556005546040805163324abb3160e21b815290516001600160a01b039092169163c92aecc491600480820192602092909190829003018186803b158015611c5857600080fd5b505afa158015611c6c573d6000803e3d6000fd5b505050506040513d6020811015611c8257600080fd5b5051600c555050565b600080606080600960009054906101000a90046001600160a01b03166001600160a01b031663f48013396040518163ffffffff1660e01b815260040160006040518083038186803b158015611cdf57600080fd5b505afa158015611cf3573d6000803e3d6000fd5b505050506040513d6000823e601f3d908101601f191682016040908152811015611d1c57600080fd5b8101908080516040519392919084640100000000821115611d3c57600080fd5b908301906020820185811115611d5157600080fd5b8251866020820283011164010000000082111715611d6e57600080fd5b82525081516020918201928201910280838360005b83811015611d9b578181015183820152602001611d83565b5050505090500160405260200180516040519392919084640100000000821115611dc457600080fd5b908301906020820185811115611dd957600080fd5b8251866020820283011164010000000082111715611df657600080fd5b82525081516020918201928201910280838360005b83811015611e23578181015183820152602001611e0b565b505050509050016040525050509150915060008090505b8251811015611e9b576000828281518110611e5157fe5b602002602001015190506000848381518110611e6957fe5b60200260200101519050611e8f611e8282848c8c611fff565b879063ffffffff611edb16565b95505050600101611e3a565b509195945050505050565b6000611ed46b033b2e3c9fd0803ce8000000611ec8858563ffffffff61230716565b9063ffffffff61236016565b9392505050565b600082820183811015611ed4576040805162461bcd60e51b815260206004820152601b60248201527f536166654d6174683a206164646974696f6e206f766572666c6f770000000000604482015290519081900360640190fd5b6000611ed483836040518060400160405280601e81526020017f536166654d6174683a207375627472616374696f6e206f766572666c6f7700008152506123a2565b3390565b60006001600160ff1b03821115611fd9576040805162461bcd60e51b815260206004820152601760248201527f54726561737572793a2043617374206f766572666c6f77000000000000000000604482015290519081900360640190fd5b5090565b6000611ed482611ec8856b033b2e3c9fd0803ce800000063ffffffff61230716565b600080600080876001600160a01b031663ae4e7fdf6040518163ffffffff1660e01b815260040160206040518083038186803b15801561203e57600080fd5b505afa158015612052573d6000803e3d6000fd5b505050506040513d602081101561206857600080fd5b50511561214b57876001600160a01b03166312970eac6040518163ffffffff1660e01b815260040160206040518083038186803b1580156120a857600080fd5b505afa1580156120bc573d6000803e3d6000fd5b505050506040513d60208110156120d257600080fd5b50516040805163127833c360e31b815290519193506001600160a01b038a16916393c19e1891600480820192602092909190829003018186803b15801561211857600080fd5b505afa15801561212c573d6000803e3d6000fd5b505050506040513d602081101561214257600080fd5b50519050612151565b50849050835b600954604080516361d6fb7f60e01b8152644554482d4160d81b6004820152602481018a9052905161221a9261220d92612207926001600160a01b03909216916361d6fb7f91604480820192602092909190829003018186803b1580156121b757600080fd5b505afa1580156121cb573d6000803e3d6000fd5b505050506040513d60208110156121e157600080fd5b50516122026b033b2e3c9fd0803ce80000006121fd8b88611fdd565b612439565b611ea6565b88611fdd565b849063ffffffff611edb16565b600954604080516361d6fb7f60e01b8152634348414960e01b6004820152602481018b905290519295506122ad9261220d926001600160a01b0316916361d6fb7f916044808301926020929190829003018186803b15801561227b57600080fd5b505afa15801561228f573d6000803e3d6000fd5b505050506040513d60208110156122a557600080fd5b505184611fdd565b92506122fb6122ee896001600160a01b03166318160ddd6040518163ffffffff1660e01b815260040160206040518083038186803b15801561227b57600080fd5b849063ffffffff611f3516565b98975050505050505050565b600082612316575060006102b2565b8282028284828161232357fe5b0414611ed45760405162461bcd60e51b81526004018080602001828103825260218152602001806125026021913960400191505060405180910390fd5b6000611ed483836040518060400160405280601a81526020017f536166654d6174683a206469766973696f6e206279207a65726f000000000000815250612450565b600081848411156124315760405162461bcd60e51b81526004018080602001828103825283818151815260200191508051906020019080838360005b838110156123f65781810151838201526020016123de565b50505050905090810190601f1680156124235780820380516001836020036101000a031916815260200191505b509250505060405180910390fd5b505050900390565b6000818310156124495781611ed4565b5090919050565b6000818361249f5760405162461bcd60e51b81526020600482018181528351602484015283519092839260449091019190850190808383600083156123f65781810151838201526020016123de565b5060008385816124ab57fe5b049594505050505056fe4f776e61626c653a206e6577206f776e657220697320746865207a65726f2061646472657373556e77696e643a2043616e206f6e6c7920736b696d5768696c654c697665206966206c697665536166654d6174683a206d756c7469706c69636174696f6e206f766572666c6f77556e77696e643a204d616b657244414f206e6f74207368757474696e6720646f776ea264697066735822122000bf86d8f8733b1e728c35b95d424f0d99d7c0901526683d7e5516381d2fb0b564736f6c634300060a0033",
  "immutableReferences": {},
  "source": "// SPDX-License-Identifier: GPL-3.0-or-later\r\npragma solidity ^0.6.10;\r\n\r\nimport \"@openzeppelin/contracts/access/Ownable.sol\";\r\nimport \"@openzeppelin/contracts/math/Math.sol\";\r\nimport \"@openzeppelin/contracts/math/SafeMath.sol\";\r\nimport \"@openzeppelin/contracts/token/ERC20/IERC20.sol\";\r\nimport \"./interfaces/IVat.sol\";\r\nimport \"./interfaces/IDaiJoin.sol\";\r\nimport \"./interfaces/IGemJoin.sol\";\r\nimport \"./interfaces/IPot.sol\";\r\nimport \"./interfaces/IEnd.sol\";\r\nimport \"./interfaces/IChai.sol\";\r\nimport \"./interfaces/ITreasury.sol\";\r\nimport \"./interfaces/IController.sol\";\r\nimport \"./interfaces/IYDai.sol\";\r\nimport \"./interfaces/ILiquidations.sol\";\r\nimport \"./helpers/DecimalMath.sol\";\r\n\r\n\r\n\r\n/**\r\n * @dev Unwind allows everyone to recover their assets from the Yield protocol in the event of a MakerDAO shutdown.\r\n * Unwind also allows to remove any protocol profits at any time to the beneficiary address using `skimWhileLive`.\r\n * During the unwind process, the system debt to MakerDAO is settled first with `settleTreasury`, extracting all free weth.\r\n * Once the Treasury is settled, any system savings are converted from Chai to Weth using `cashSavings`.\r\n * At this point, users can settle their positions using `settle`. The MakerDAO rates will be used to convert all debt and collateral to a Weth payout.\r\n * Users can also redeem here their yDai for a Weth payout, using `redeem`.\r\n * Protocol profits can be transferred to the beneficiary also at this point, using `skimDssShutdown`.\r\n */\r\ncontract Unwind is Ownable(), DecimalMath {\r\n    using SafeMath for uint256;\r\n\r\n    bytes32 public constant CHAI = \"CHAI\";\r\n    bytes32 public constant WETH = \"ETH-A\";\r\n\r\n    IVat internal _vat;\r\n    IDaiJoin internal _daiJoin;\r\n    IERC20 internal _weth;\r\n    IGemJoin internal _wethJoin;\r\n    IPot internal _pot;\r\n    IEnd internal _end;\r\n    IChai internal _chai;\r\n    ITreasury internal _treasury;\r\n    IController internal _controller;\r\n    ILiquidations internal _liquidations;\r\n\r\n    uint256 public _fix; // Dai to weth price on DSS Unwind\r\n    uint256 public _chi; // Chai to dai price on DSS Unwind\r\n\r\n    uint256 internal _treasuryWeth; // Weth that was held by treasury before settling\r\n\r\n    bool public settled;\r\n    bool public cashedOut;\r\n    bool public live = true;\r\n\r\n    address public beneficiary;\r\n\r\n    /// @dev The constructor links to vat, daiJoin, weth, wethJoin, jug, pot, end, chai, treasury, controller and liquidations.\r\n    /// Liquidations should have privileged access to treasury, controller and liquidations using orchestration.\r\n    /// The constructor gives treasury and end permission on unwind's MakerDAO vaults.\r\n    constructor (\r\n        address vat_,\r\n        address daiJoin_,\r\n        address weth_,\r\n        address wethJoin_,\r\n        address pot_,\r\n        address end_,\r\n        address chai_,\r\n        address treasury_,\r\n        address controller_,\r\n        address liquidations_,\r\n        address beneficiary_\r\n    ) public {\r\n        // These could be hardcoded for mainnet deployment.\r\n        _vat = IVat(vat_);\r\n        _daiJoin = IDaiJoin(daiJoin_);\r\n        _weth = IERC20(weth_);\r\n        _wethJoin = IGemJoin(wethJoin_);\r\n        _pot = IPot(pot_);\r\n        _end = IEnd(end_);\r\n        _chai = IChai(chai_);\r\n        _treasury = ITreasury(treasury_);\r\n        _controller = IController(controller_);\r\n        _liquidations = ILiquidations(liquidations_);\r\n        beneficiary = beneficiary_;\r\n\r\n        _vat.hope(address(_treasury));\r\n        _vat.hope(address(_end));\r\n    }\r\n\r\n    /// @dev max(0, x - y)\r\n    function subFloorZero(uint256 x, uint256 y) public pure returns(uint256) {\r\n        if (y >= x) return 0;\r\n        else return x - y;\r\n    }\r\n\r\n    /// @dev Safe casting from uint256 to int256\r\n    function toInt(uint256 x) internal pure returns(int256) {\r\n        require(\r\n            x <= 57896044618658097711785492504343953926634992332820282019728792003956564819967,\r\n            \"Treasury: Cast overflow\"\r\n        );\r\n        return int256(x);\r\n    }\r\n\r\n    /// @dev Disables treasury, controller and liquidations.\r\n    function unwind() public {\r\n        require(\r\n            _end.tag(WETH) != 0,\r\n            \"Unwind: MakerDAO not shutting down\"\r\n        );\r\n        live = false;\r\n        _treasury.shutdown();\r\n        _controller.shutdown();\r\n        _liquidations.shutdown();\r\n    }\r\n\r\n    /// @dev Calculates how much profit is in the system and transfers it to the beneficiary\r\n    function skimWhileLive() public {\r\n        require(\r\n            live == true, // If DSS is not live this method will fail later on.\r\n            \"Unwind: Can only skimWhileLive if live\"\r\n        );\r\n        require(\r\n            now >= _controller.skimStart(),\r\n            \"Unwind: Only after skimStart\"\r\n        );\r\n\r\n        uint256 chi = _pot.chi();\r\n        (, uint256 rate,,,) = _vat.ilks(WETH);\r\n        uint256 profit = _chai.balanceOf(address(_treasury));\r\n        profit = profit.add(_yDaiProfit(chi, rate));\r\n        profit = profit.sub(divd(_treasury.debt(), chi));\r\n        profit = profit.sub(_controller.totalChaiPosted());\r\n\r\n        _treasury.pullChai(beneficiary, profit);\r\n    }\r\n\r\n    /// @dev Calculates how much profit is in the system and transfers it to the beneficiary\r\n    function skimDssShutdown() public {\r\n        require(settled && cashedOut, \"Unwind: Not ready\");\r\n\r\n        uint256 chi = _pot.chi();\r\n        (, uint256 rate,,,) = _vat.ilks(WETH);\r\n        uint256 profit = _weth.balanceOf(address(this));\r\n\r\n        profit = profit.add(muld(muld(_yDaiProfit(chi, rate), _fix), chi));\r\n        profit = profit.sub(_treasuryWeth);\r\n        profit = profit.sub(muld(muld(_controller.totalChaiPosted(), _fix), chi));\r\n\r\n        require(_weth.transfer(beneficiary, profit));\r\n    }\r\n\r\n    /// @dev Returns the profit accummulated in the system due to yDai supply and debt, in chai.\r\n    /// Chi and rate are passed on as parameters to avoid multiple calls that retrieve the same values.\r\n    /// @param chi The chi value from MakerDAO\r\n    /// @param rate The rate value from MakerDAO\r\n    function _yDaiProfit(uint256 chi, uint256 rate) internal view returns (uint256) {\r\n        uint256 profit;\r\n\r\n        (IYDai[] memory series, uint256[] memory maturities) = _controller.allSeries();\r\n        for (uint256 i = 0; i < series.length; i += 1) {\r\n            uint256 maturity = maturities[i];\r\n            IYDai yDai = series[i];\r\n            profit = profit.add(getProfit(yDai, maturity, chi, rate));\r\n        }\r\n\r\n        return profit;\r\n    }\r\n\r\n    /// @dev Returns the profit accumulated for a specific yDai token\r\n    // NB: this funciton is required due to `Stack Too Deep` errors.\r\n    function getProfit(IYDai yDai, uint256 maturity, uint256 chi, uint256 rate) private view returns (uint256) {\r\n        uint256 profit;\r\n\r\n        uint256 chi0;\r\n        uint256 rate0;\r\n        if (yDai.isMature()){\r\n            chi0 = yDai.chi0();\r\n            rate0 = yDai.rate0();\r\n        } else {\r\n            chi0 = chi;\r\n            rate0 = rate;\r\n        }\r\n\r\n        profit = profit.add(\r\n            divd(\r\n                muld(\r\n                    _controller.totalDebtYDai(WETH, maturity),\r\n                    Math.max(UNIT, divd(rate, rate0)) // rate growth since maturity, floored at 1.0\r\n                ),                                    // muld(yDaiDebt, rateGrowth) - Convert Weth collateralized YDai debt to Dai debt\r\n                chi                                   // divd(daiDebt, chi) - Convert Dai debt to Chai debt\r\n            )\r\n        );\r\n        profit = profit.add(\r\n            divd(\r\n                _controller.totalDebtYDai(CHAI, maturity),\r\n                chi0                                  // divd(yDaiDebt, chi0) - Convert Chai collateralized YDai debt to Chai debt\r\n            )\r\n        );\r\n        profit = profit.sub(divd(yDai.totalSupply(), chi0)); // divd(yDai, chi0) - Convert YDai to Chai\r\n\r\n        return profit;\r\n    }\r\n\r\n    /// @dev Settle system debt in MakerDAO and free remaining collateral.\r\n    function settleTreasury() public {\r\n        require(\r\n            live == false,\r\n            \"Unwind: Unwind first\"\r\n        );\r\n        (uint256 ink, uint256 art) = _vat.urns(WETH, address(_treasury));\r\n        _treasuryWeth = ink;                            // We will need this to skim profits\r\n        _vat.fork(                                      // Take the treasury vault\r\n            WETH,\r\n            address(_treasury),\r\n            address(this),\r\n            toInt(ink),\r\n            toInt(art)\r\n        );\r\n        _end.skim(WETH, address(this));                // Settle debts\r\n        _end.free(WETH);                               // Free collateral\r\n        uint256 gem = _vat.gem(WETH, address(this));   // Find out how much collateral we have now\r\n        _wethJoin.exit(address(this), gem);            // Take collateral out\r\n        settled = true;\r\n    }\r\n\r\n    /// @dev Put all chai savings in MakerDAO and exchange them for weth\r\n    function cashSavings() public {\r\n        require(\r\n            _end.tag(WETH) != 0,\r\n            \"Unwind: End.sol not caged\"\r\n        );\r\n        require(\r\n            _end.fix(WETH) != 0,\r\n            \"Unwind: End.sol not ready\"\r\n        );\r\n        uint256 daiTokens = _chai.dai(address(_treasury));   // Find out how much is the chai worth\r\n        _chai.draw(address(_treasury), _treasury.savings()); // Get the chai as dai\r\n        _daiJoin.join(address(this), daiTokens);             // Put the dai into MakerDAO\r\n        _end.pack(daiTokens);                                // Into End.sol, more exactly\r\n        _end.cash(WETH, daiTokens);                          // Exchange the dai for weth\r\n        uint256 gem = _vat.gem(WETH, address(this));         // Find out how much collateral we have now\r\n        _wethJoin.exit(address(this), gem);                  // Take collateral out\r\n        cashedOut = true;\r\n\r\n        _fix = _end.fix(WETH);\r\n        _chi = _pot.chi();\r\n    }\r\n\r\n    /// @dev Settles a series position in Controller, and then returns any remaining collateral as weth using the unwind Dai to Weth price.\r\n    /// @param collateral Valid collateral type.\r\n    /// @param user User vault to settle, and wallet to receive the corresponding weth.\r\n    function settle(bytes32 collateral, address user) public {\r\n        require(settled && cashedOut, \"Unwind: Not ready\");\r\n\r\n        (uint256 tokens, uint256 debt) = _controller.erase(collateral, user);\r\n\r\n        uint256 remainder;\r\n        if (collateral == WETH) {\r\n            remainder = subFloorZero(tokens, muld(debt, _fix));\r\n        } else if (collateral == CHAI) {\r\n            remainder = muld(subFloorZero(muld(tokens, _chi), debt), _fix);\r\n        }\r\n        require(_weth.transfer(user, remainder));\r\n    }\r\n\r\n    /// @dev Redeems YDai for weth. YDai.redeem won't work if MakerDAO is in shutdown.\r\n    /// yDai holder must call yDai.approve before calling this function.\r\n    /// @param maturity Maturity of an added series\r\n    /// @param user Wallet containing the yDai to burn.\r\n    /// @param yDaiAmount Amount of yDai to burn.\r\n    function redeem(uint256 maturity, address user, uint256 yDaiAmount) public {\r\n        require(settled && cashedOut, \"Unwind: Not ready\");\r\n        IYDai yDai = _controller.series(maturity);\r\n        yDai.burn(user, yDaiAmount);\r\n        require(\r\n            _weth.transfer(\r\n                user,\r\n                muld(muld(yDaiAmount, yDai.chiGrowth()), _fix)\r\n            )\r\n        );\r\n    }\r\n}\r\n",
  "sourcePath": "C:/Users/bruce/dev/yield/yDai/contracts/Unwind.sol",
  "compiler": {
    "name": "solc",
    "version": "0.6.10+commit.00c0fcaf.Emscripten.clang"
  },
  "schemaVersion": "3.2.3",
  "updatedAt": "2020-07-29T20:51:43.520Z",
  "networkType": "ethereum",
  "devdoc": {
    "details": "Unwind allows everyone to recover their assets from the Yield protocol in the event of a MakerDAO shutdown. Unwind also allows to remove any protocol profits at any time to the beneficiary address using `skimWhileLive`. During the unwind process, the system debt to MakerDAO is settled first with `settleTreasury`, extracting all free weth. Once the Treasury is settled, any system savings are converted from Chai to Weth using `cashSavings`. At this point, users can settle their positions using `settle`. The MakerDAO rates will be used to convert all debt and collateral to a Weth payout. Users can also redeem here their yDai for a Weth payout, using `redeem`. Protocol profits can be transferred to the beneficiary also at this point, using `skimDssShutdown`.",
    "methods": {
      "cashSavings()": {
        "details": "Put all chai savings in MakerDAO and exchange them for weth"
      },
      "constructor": {
        "details": "The constructor links to vat, daiJoin, weth, wethJoin, jug, pot, end, chai, treasury, controller and liquidations. Liquidations should have privileged access to treasury, controller and liquidations using orchestration. The constructor gives treasury and end permission on unwind's MakerDAO vaults."
      },
      "owner()": {
        "details": "Returns the address of the current owner."
      },
      "redeem(uint256,address,uint256)": {
        "details": "Redeems YDai for weth. YDai.redeem won't work if MakerDAO is in shutdown. yDai holder must call yDai.approve before calling this function.",
        "params": {
          "maturity": "Maturity of an added series",
          "user": "Wallet containing the yDai to burn.",
          "yDaiAmount": "Amount of yDai to burn."
        }
      },
      "renounceOwnership()": {
        "details": "Leaves the contract without owner. It will not be possible to call `onlyOwner` functions anymore. Can only be called by the current owner. NOTE: Renouncing ownership will leave the contract without an owner, thereby removing any functionality that is only available to the owner."
      },
      "settle(bytes32,address)": {
        "details": "Settles a series position in Controller, and then returns any remaining collateral as weth using the unwind Dai to Weth price.",
        "params": {
          "collateral": "Valid collateral type.",
          "user": "User vault to settle, and wallet to receive the corresponding weth."
        }
      },
      "settleTreasury()": {
        "details": "Settle system debt in MakerDAO and free remaining collateral."
      },
      "skimDssShutdown()": {
        "details": "Calculates how much profit is in the system and transfers it to the beneficiary"
      },
      "skimWhileLive()": {
        "details": "Calculates how much profit is in the system and transfers it to the beneficiary"
      },
      "subFloorZero(uint256,uint256)": {
        "details": "max(0, x - y)"
      },
      "transferOwnership(address)": {
        "details": "Transfers ownership of the contract to a new account (`newOwner`). Can only be called by the current owner."
      },
      "unwind()": {
        "details": "Disables treasury, controller and liquidations."
      }
    }
  },
  "userdoc": {
    "methods": {}
  }
}