{
  "contractName": "Unwind",
  "abi": [
    {
      "inputs": [
        {
          "internalType": "address",
          "name": "vat_",
          "type": "address"
        },
        {
          "internalType": "address",
          "name": "daiJoin_",
          "type": "address"
        },
        {
          "internalType": "address",
          "name": "weth_",
          "type": "address"
        },
        {
          "internalType": "address",
          "name": "wethJoin_",
          "type": "address"
        },
        {
          "internalType": "address",
          "name": "jug_",
          "type": "address"
        },
        {
          "internalType": "address",
          "name": "pot_",
          "type": "address"
        },
        {
          "internalType": "address",
          "name": "end_",
          "type": "address"
        },
        {
          "internalType": "address",
          "name": "chai_",
          "type": "address"
        },
        {
          "internalType": "address",
          "name": "treasury_",
          "type": "address"
        },
        {
          "internalType": "address",
          "name": "controller_",
          "type": "address"
        },
        {
          "internalType": "address",
          "name": "liquidations_",
          "type": "address"
        }
      ],
      "stateMutability": "nonpayable",
      "type": "constructor"
    },
    {
      "anonymous": false,
      "inputs": [
        {
          "indexed": true,
          "internalType": "address",
          "name": "previousOwner",
          "type": "address"
        },
        {
          "indexed": true,
          "internalType": "address",
          "name": "newOwner",
          "type": "address"
        }
      ],
      "name": "OwnershipTransferred",
      "type": "event"
    },
    {
      "inputs": [],
      "name": "CHAI",
      "outputs": [
        {
          "internalType": "bytes32",
          "name": "",
          "type": "bytes32"
        }
      ],
      "stateMutability": "view",
      "type": "function",
      "constant": true
    },
    {
      "inputs": [],
      "name": "UNIT",
      "outputs": [
        {
          "internalType": "uint256",
          "name": "",
          "type": "uint256"
        }
      ],
      "stateMutability": "view",
      "type": "function",
      "constant": true
    },
    {
      "inputs": [],
      "name": "WETH",
      "outputs": [
        {
          "internalType": "bytes32",
          "name": "",
          "type": "bytes32"
        }
      ],
      "stateMutability": "view",
      "type": "function",
      "constant": true
    },
    {
      "inputs": [],
      "name": "_chi",
      "outputs": [
        {
          "internalType": "uint256",
          "name": "",
          "type": "uint256"
        }
      ],
      "stateMutability": "view",
      "type": "function",
      "constant": true
    },
    {
      "inputs": [],
      "name": "_fix",
      "outputs": [
        {
          "internalType": "uint256",
          "name": "",
          "type": "uint256"
        }
      ],
      "stateMutability": "view",
      "type": "function",
      "constant": true
    },
    {
      "inputs": [],
      "name": "cashedOut",
      "outputs": [
        {
          "internalType": "bool",
          "name": "",
          "type": "bool"
        }
      ],
      "stateMutability": "view",
      "type": "function",
      "constant": true
    },
    {
      "inputs": [],
      "name": "live",
      "outputs": [
        {
          "internalType": "bool",
          "name": "",
          "type": "bool"
        }
      ],
      "stateMutability": "view",
      "type": "function",
      "constant": true
    },
    {
      "inputs": [],
      "name": "owner",
      "outputs": [
        {
          "internalType": "address",
          "name": "",
          "type": "address"
        }
      ],
      "stateMutability": "view",
      "type": "function",
      "constant": true
    },
    {
      "inputs": [],
      "name": "renounceOwnership",
      "outputs": [],
      "stateMutability": "nonpayable",
      "type": "function"
    },
    {
      "inputs": [
        {
          "internalType": "uint256",
          "name": "",
          "type": "uint256"
        }
      ],
      "name": "series",
      "outputs": [
        {
          "internalType": "contract IYDai",
          "name": "",
          "type": "address"
        }
      ],
      "stateMutability": "view",
      "type": "function",
      "constant": true
    },
    {
      "inputs": [],
      "name": "settled",
      "outputs": [
        {
          "internalType": "bool",
          "name": "",
          "type": "bool"
        }
      ],
      "stateMutability": "view",
      "type": "function",
      "constant": true
    },
    {
      "inputs": [
        {
          "internalType": "address",
          "name": "newOwner",
          "type": "address"
        }
      ],
      "name": "transferOwnership",
      "outputs": [],
      "stateMutability": "nonpayable",
      "type": "function"
    },
    {
      "inputs": [
        {
          "internalType": "uint256",
          "name": "x",
          "type": "uint256"
        },
        {
          "internalType": "uint256",
          "name": "y",
          "type": "uint256"
        }
      ],
      "name": "subFloorZero",
      "outputs": [
        {
          "internalType": "uint256",
          "name": "",
          "type": "uint256"
        }
      ],
      "stateMutability": "pure",
      "type": "function",
      "constant": true
    },
    {
      "inputs": [
        {
          "internalType": "uint256",
          "name": "maturity",
          "type": "uint256"
        }
      ],
      "name": "containsSeries",
      "outputs": [
        {
          "internalType": "bool",
          "name": "",
          "type": "bool"
        }
      ],
      "stateMutability": "view",
      "type": "function",
      "constant": true
    },
    {
      "inputs": [
        {
          "internalType": "address",
          "name": "yDaiContract",
          "type": "address"
        }
      ],
      "name": "addSeries",
      "outputs": [],
      "stateMutability": "nonpayable",
      "type": "function"
    },
    {
      "inputs": [],
      "name": "unwind",
      "outputs": [],
      "stateMutability": "nonpayable",
      "type": "function"
    },
    {
      "inputs": [],
      "name": "getChi",
      "outputs": [
        {
          "internalType": "uint256",
          "name": "",
          "type": "uint256"
        }
      ],
      "stateMutability": "nonpayable",
      "type": "function"
    },
    {
      "inputs": [],
      "name": "getRate",
      "outputs": [
        {
          "internalType": "uint256",
          "name": "",
          "type": "uint256"
        }
      ],
      "stateMutability": "nonpayable",
      "type": "function"
    },
    {
      "inputs": [
        {
          "internalType": "address",
          "name": "beneficiary",
          "type": "address"
        }
      ],
      "name": "skimWhileLive",
      "outputs": [],
      "stateMutability": "nonpayable",
      "type": "function"
    },
    {
      "inputs": [
        {
          "internalType": "address",
          "name": "beneficiary",
          "type": "address"
        }
      ],
      "name": "skimDssShutdown",
      "outputs": [],
      "stateMutability": "nonpayable",
      "type": "function"
    },
    {
      "inputs": [],
      "name": "settleTreasury",
      "outputs": [],
      "stateMutability": "nonpayable",
      "type": "function"
    },
    {
      "inputs": [],
      "name": "cashSavings",
      "outputs": [],
      "stateMutability": "nonpayable",
      "type": "function"
    },
    {
      "inputs": [
        {
          "internalType": "bytes32",
          "name": "collateral",
          "type": "bytes32"
        },
        {
          "internalType": "address",
          "name": "user",
          "type": "address"
        }
      ],
      "name": "settle",
      "outputs": [],
      "stateMutability": "nonpayable",
      "type": "function"
    },
    {
      "inputs": [
        {
          "internalType": "uint256",
          "name": "maturity",
          "type": "uint256"
        },
        {
          "internalType": "uint256",
          "name": "yDaiAmount",
          "type": "uint256"
        },
        {
          "internalType": "address",
          "name": "user",
          "type": "address"
        }
      ],
      "name": "redeem",
      "outputs": [],
      "stateMutability": "nonpayable",
      "type": "function"
    }
  ],
  "bytecode": "0x60806040526010805462ff00001916620100001790553480156200002257600080fd5b5060405162002b1a38038062002b1a83398181016040526101608110156200004957600080fd5b508051602082015160408301516060840151608085015160a086015160c087015160e08801516101008901516101208a0151610140909a0151989997989697959694959394929391929091906000620000aa6001600160e01b036200026c16565b600080546001600160a01b0319166001600160a01b0383169081178255604051929350917f8be0079c531659141344cd1fd0a4f28419497f9722a3daafe3b4186f6b6457e0908290a350600180546001600160a01b03199081166001600160a01b038e811691909117928390556002805483168e83161790556003805483168d83161790556004805483168c83161781556005805484168c84161790556006805484168b84161790556007805484168a84161790556008805484168984161790556009805484168884161790819055600a80548516888516179055600b805490941686841617909355604080516328ec8bf160e21b8152938316918401919091525192169163a3b22fc49160248082019260009290919082900301818387803b158015620001d757600080fd5b505af1158015620001ec573d6000803e3d6000fd5b5050600154600754604080516328ec8bf160e21b81526001600160a01b039283166004820152905191909216935063a3b22fc49250602480830192600092919082900301818387803b1580156200024257600080fd5b505af115801562000257573d6000803e3d6000fd5b50505050505050505050505050505062000270565b3390565b61289a80620002806000396000f3fe608060405234801561001057600080fd5b50600436106101585760003560e01c80638f775839116100c3578063ba4bb3771161007c578063ba4bb377146102b8578063d0a3a7e4146102de578063d4fe76c0146102fb578063dc22cb6a14610321578063f2fde38b1461033e578063f392c35a1461036457610158565b80638f77583914610288578063957aa58c1461029057806396b3e2f0146102985780639d8e2177146102a0578063ad5c4648146102a8578063b6dbf9ce146102b057610158565b80637c43a201116101155780637c43a201146101fa5780637d4a9ab8146102205780637e709c3c1461024c578063807763ab1461025457806383a965241461025c5780638da5cb5b1461026457610158565b80630416c1a51461015d578063049104e51461017757806335dbea17146101ab578063679aefce146101ce578063715018a6146101d657806374cbd36e146101de575b600080fd5b61016561036c565b60408051918252519081900360200190f35b6101a96004803603606081101561018d57600080fd5b50803590602081013590604001356001600160a01b03166104e5565b005b610165600480360360408110156101c157600080fd5b508035906020013561074a565b610165610766565b6101a9610909565b6101e66109bd565b604080519115158252519081900360200190f35b6101a96004803603602081101561021057600080fd5b50356001600160a01b03166109cb565b6101a96004803603604081101561023657600080fd5b50803590602001356001600160a01b0316610b59565b610165610e20565b6101a9610e26565b61016561101e565b61026c611024565b604080516001600160a01b039092168252519081900360200190f35b6101e6611033565b6101e661103c565b6101a961104b565b6101656113de565b6101656113ee565b6101656113fa565b6101a9600480360360208110156102ce57600080fd5b50356001600160a01b0316611405565b6101e6600480360360208110156102f457600080fd5b5035611791565b6101a96004803603602081101561031157600080fd5b50356001600160a01b03166117ae565b61026c6004803603602081101561033757600080fd5b50356119ec565b6101a96004803603602081101561035457600080fd5b50356001600160a01b0316611a07565b6101a9611b11565b600654604080516320aba08b60e01b815290516000926001600160a01b0316916320aba08b91600480830192602092919082900301818787803b1580156103b257600080fd5b505af11580156103c6573d6000803e3d6000fd5b505050506040513d60208110156103dc57600080fd5b5051421161046357600660009054906101000a90046001600160a01b03166001600160a01b031663c92aecc46040518163ffffffff1660e01b815260040160206040518083038186803b15801561043257600080fd5b505afa158015610446573d6000803e3d6000fd5b505050506040513d602081101561045c57600080fd5b50516104e0565b600660009054906101000a90046001600160a01b03166001600160a01b0316639f678cca6040518163ffffffff1660e01b8152600401602060405180830381600087803b1580156104b357600080fd5b505af11580156104c7573d6000803e3d6000fd5b505050506040513d60208110156104dd57600080fd5b50515b905090565b60105460ff1680156104fe5750601054610100900460ff165b610543576040805162461bcd60e51b8152602060048201526011602482015270556e77696e643a204e6f7420726561647960781b604482015290519081900360640190fd5b600a5460408051636e1165b560e11b81526004810186905290516000926001600160a01b03169163dc22cb6a91602480830192602092919082900301818787803b15801561059057600080fd5b505af11580156105a4573d6000803e3d6000fd5b505050506040513d60208110156105ba57600080fd5b505160408051632770a7eb60e21b81526001600160a01b03858116600483015260248201879052915192935090831691639dc29fac9160448082019260009290919082900301818387803b15801561061157600080fd5b505af1158015610625573d6000803e3d6000fd5b50505050600360009054906101000a90046001600160a01b03166001600160a01b031663a9059cbb836106c96106c187866001600160a01b031663cb2401986040518163ffffffff1660e01b8152600401602060405180830381600087803b15801561069057600080fd5b505af11580156106a4573d6000803e3d6000fd5b505050506040513d60208110156106ba57600080fd5b5051612163565b600e54612163565b6040518363ffffffff1660e01b815260040180836001600160a01b03166001600160a01b0316815260200182815260200192505050602060405180830381600087803b15801561071857600080fd5b505af115801561072c573d6000803e3d6000fd5b505050506040513d602081101561074257600080fd5b505050505050565b600082821061075b57506000610760565b508082035b92915050565b60055460408051636cb1c69b60e11b8152644554482d4160d81b60048201528151600093849384936001600160a01b039092169263d9638d3692602480820193929182900301818787803b1580156107bd57600080fd5b505af11580156107d1573d6000803e3d6000fd5b505050506040513d60408110156107e757600080fd5b506020015190504281101561087e576005546040805163089c54b560e31b8152644554482d4160d81b600482015290516001600160a01b03909216916344e2a5a8916024808201926020929091908290030181600087803b15801561084b57600080fd5b505af115801561085f573d6000803e3d6000fd5b505050506040513d602081101561087557600080fd5b50519150610903565b60015460408051636cb1c69b60e11b8152644554482d4160d81b600482015290516001600160a01b039092169163d9638d369160248082019260a092909190829003018186803b1580156108d157600080fd5b505afa1580156108e5573d6000803e3d6000fd5b505050506040513d60a08110156108fb57600080fd5b506020015191505b50905090565b610911612198565b6000546001600160a01b03908116911614610973576040805162461bcd60e51b815260206004820181905260248201527f4f776e61626c653a2063616c6c6572206973206e6f7420746865206f776e6572604482015290519081900360640190fd5b600080546040516001600160a01b03909116907f8be0079c531659141344cd1fd0a4f28419497f9722a3daafe3b4186f6b6457e0908390a3600080546001600160a01b0319169055565b601054610100900460ff1681565b6109d3612198565b6000546001600160a01b03908116911614610a35576040805162461bcd60e51b815260206004820181905260248201527f4f776e61626c653a2063616c6c6572206973206e6f7420746865206f776e6572604482015290519081900360640190fd5b6000816001600160a01b031663204f83f96040518163ffffffff1660e01b815260040160206040518083038186803b158015610a7057600080fd5b505afa158015610a84573d6000803e3d6000fd5b505050506040513d6020811015610a9a57600080fd5b50519050610aa781611791565b15610af9576040805162461bcd60e51b815260206004820181905260248201527f436f6e74726f6c6c65723a2053657269657320616c7265616479206164646564604482015290519081900360640190fd5b6000818152600c6020526040812080546001600160a01b0319166001600160a01b039490941693909317909255600d805460018101825592527fd7b6990105719101dabeb77144f2a3385c8033acd3af97e9423a695e81ad1eb590910155565b60105460ff168015610b725750601054610100900460ff165b610bb7576040805162461bcd60e51b8152602060048201526011602482015270556e77696e643a204e6f7420726561647960781b604482015290519081900360640190fd5b600a54604080516339a2df3d60e21b8152600481018590526001600160a01b0384811660248301529151600093929092169163e68b7cf49160448082019260209290919082900301818787803b158015610c1057600080fd5b505af1158015610c24573d6000803e3d6000fd5b505050506040513d6020811015610c3a57600080fd5b5051600a546040805163dd62f42360e01b8152600481018790526001600160a01b0386811660248301529151939450600093919092169163dd62f423916044808301926020929190829003018186803b158015610c9657600080fd5b505afa158015610caa573d6000803e3d6000fd5b505050506040513d6020811015610cc057600080fd5b5051600a5460408051637a8d1c8d60e11b8152600481018890526001600160a01b0387811660248301526044820187905260648201859052915193945091169163f51a391a9160848082019260009290919082900301818387803b158015610d2757600080fd5b505af1158015610d3b573d6000803e3d6000fd5b505050506000644554482d4160d81b851415610d6d57610d6682610d6185600e54612163565b61074a565b9050610d97565b634348414960e01b851415610d9757610d946106c1610d8e84600f54612163565b8561074a565b90505b6003546040805163a9059cbb60e01b81526001600160a01b038781166004830152602482018590529151919092169163a9059cbb9160448083019260209291908290030181600087803b158015610ded57600080fd5b505af1158015610e01573d6000803e3d6000fd5b505050506040513d6020811015610e1757600080fd5b50505050505050565b600f5481565b6007546040805163ee6447b560e01b8152644554482d4160d81b600482015290516001600160a01b039092169163ee6447b5916024808201926020929091908290030181600087803b158015610e7b57600080fd5b505af1158015610e8f573d6000803e3d6000fd5b505050506040513d6020811015610ea557600080fd5b5051610ee25760405162461bcd60e51b81526004018080602001828103825260228152602001806128436022913960400191505060405180910390fd5b6010805462ff0000191690556009546040805163fc0e74d160e01b815290516001600160a01b039092169163fc0e74d19160048082019260009290919082900301818387803b158015610f3457600080fd5b505af1158015610f48573d6000803e3d6000fd5b50505050600a60009054906101000a90046001600160a01b03166001600160a01b031663fc0e74d16040518163ffffffff1660e01b8152600401600060405180830381600087803b158015610f9c57600080fd5b505af1158015610fb0573d6000803e3d6000fd5b50505050600b60009054906101000a90046001600160a01b03166001600160a01b031663fc0e74d16040518163ffffffff1660e01b8152600401600060405180830381600087803b15801561100457600080fd5b505af1158015611018573d6000803e3d6000fd5b50505050565b600e5481565b6000546001600160a01b031690565b60105460ff1681565b60105462010000900460ff1681565b60105462010000900460ff16156110a0576040805162461bcd60e51b8152602060048201526014602482015273155b9dda5b990e88155b9dda5b9908199a5c9cdd60621b604482015290519081900360640190fd5b600154600954604080516309092f9760e21b8152644554482d4160d81b60048201526001600160a01b039283166024820152815160009485941692632424be5c9260448082019391829003018186803b1580156110fc57600080fd5b505afa158015611110573d6000803e3d6000fd5b505050506040513d604081101561112657600080fd5b5080516020909101516001546009549294509092506001600160a01b039081169163870c616d91644554482d4160d81b9116306111628761219c565b61116b8761219c565b6040518663ffffffff1660e01b815260040180868152602001856001600160a01b03166001600160a01b03168152602001846001600160a01b03166001600160a01b0316815260200183815260200182815260200195505050505050600060405180830381600087803b1580156111e157600080fd5b505af11580156111f5573d6000803e3d6000fd5b5050600754604080516389ea45d360e01b8152644554482d4160d81b600482015230602482015290516001600160a01b0390921693506389ea45d3925060448082019260009290919082900301818387803b15801561125357600080fd5b505af1158015611267573d6000803e3d6000fd5b505060075460408051636418316360e11b8152644554482d4160d81b600482015290516001600160a01b03909216935063c83062c6925060248082019260009290919082900301818387803b1580156112bf57600080fd5b505af11580156112d3573d6000803e3d6000fd5b50506001546040805163214414d560e01b8152644554482d4160d81b60048201523060248201529051600094506001600160a01b03909216925063214414d5916044808301926020929190829003018186803b15801561133257600080fd5b505afa158015611346573d6000803e3d6000fd5b505050506040513d602081101561135c57600080fd5b5051600480546040805163ef693bed60e01b8152309381019390935260248301849052519293506001600160a01b03169163ef693bed9160448082019260009290919082900301818387803b1580156113b457600080fd5b505af11580156113c8573d6000803e3d6000fd5b50506010805460ff191660011790555050505050565b6b033b2e3c9fd0803ce800000081565b644554482d4160d81b81565b634348414960e01b81565b60105460ff16801561141e5750601054610100900460ff165b611463576040805162461bcd60e51b8152602060048201526011602482015270556e77696e643a204e6f7420726561647960781b604482015290519081900360640190fd5b6006546040805163324abb3160e21b815290516000926001600160a01b03169163c92aecc4916004808301926020929190829003018186803b1580156114a857600080fd5b505afa1580156114bc573d6000803e3d6000fd5b505050506040513d60208110156114d257600080fd5b505160015460408051636cb1c69b60e11b8152644554482d4160d81b600482015290519293506000926001600160a01b039092169163d9638d369160248082019260a092909190829003018186803b15801561152d57600080fd5b505afa158015611541573d6000803e3d6000fd5b505050506040513d60a081101561155757600080fd5b50602090810151600354604080516370a0823160e01b815230600482015290519294506000936001600160a01b03909216926370a0823192602480840193919291829003018186803b1580156115ac57600080fd5b505afa1580156115c0573d6000803e3d6000fd5b505050506040513d60208110156115d657600080fd5b505190506116006115f36115ed6106c186866121fe565b85612163565b829063ffffffff61258016565b600a5460408051638da66ed960e01b8152644554482d4160d81b60048201529051929350611695926001600160a01b0390921691638da66ed9916024808201926020929091908290030181600087803b15801561165c57600080fd5b505af1158015611670573d6000803e3d6000fd5b505050506040513d602081101561168657600080fd5b5051829063ffffffff6125da16565b600a5460408051638da66ed960e01b8152634348414960e01b600482015290519293506117399261172c926115ed926001600160a01b0390911691638da66ed9916024808201926020929091908290030181600087803b1580156116f857600080fd5b505af115801561170c573d6000803e3d6000fd5b505050506040513d602081101561172257600080fd5b5051600e54612163565b829063ffffffff6125da16565b6003546040805163a9059cbb60e01b81526001600160a01b03888116600483015260248201859052915193945091169163a9059cbb916044808201926020929091908290030181600087803b15801561071857600080fd5b6000908152600c60205260409020546001600160a01b0316151590565b60105462010000900460ff1615156001146117fa5760405162461bcd60e51b81526004018080602001828103825260268152602001806127fc6026913960400191505060405180910390fd5b600854600954604080516370a0823160e01b81526001600160a01b039283166004820152905160009392909216916370a0823191602480820192602092909190829003018186803b15801561184e57600080fd5b505afa158015611862573d6000803e3d6000fd5b505050506040513d602081101561187857600080fd5b505190506118976115f361188a61036c565b611892610766565b6121fe565b905061192661172c600960009054906101000a90046001600160a01b03166001600160a01b0316630dca59c16040518163ffffffff1660e01b815260040160206040518083038186803b1580156118ed57600080fd5b505afa158015611901573d6000803e3d6000fd5b505050506040513d602081101561191757600080fd5b505161192161036c565b61261c565b600a5460408051638da66ed960e01b8152634348414960e01b60048201529051929350611981926001600160a01b0390921691638da66ed9916024808201926020929091908290030181600087803b15801561165c57600080fd5b60095460408051639fa8368960e01b81526001600160a01b038681166004830152602482018590529151939450911691639fa836899160448082019260009290919082900301818387803b1580156119d857600080fd5b505af1158015610742573d6000803e3d6000fd5b600c602052600090815260409020546001600160a01b031681565b611a0f612198565b6000546001600160a01b03908116911614611a71576040805162461bcd60e51b815260206004820181905260248201527f4f776e61626c653a2063616c6c6572206973206e6f7420746865206f776e6572604482015290519081900360640190fd5b6001600160a01b038116611ab65760405162461bcd60e51b81526004018080602001828103825260268152602001806127d66026913960400191505060405180910390fd5b600080546040516001600160a01b03808516939216917f8be0079c531659141344cd1fd0a4f28419497f9722a3daafe3b4186f6b6457e091a3600080546001600160a01b0319166001600160a01b0392909216919091179055565b6007546040805163ee6447b560e01b8152644554482d4160d81b600482015290516001600160a01b039092169163ee6447b5916024808201926020929091908290030181600087803b158015611b6657600080fd5b505af1158015611b7a573d6000803e3d6000fd5b505050506040513d6020811015611b9057600080fd5b5051611be3576040805162461bcd60e51b815260206004820152601960248201527f556e77696e643a20456e642e736f6c206e6f7420636167656400000000000000604482015290519081900360640190fd5b600754604080516331fd6c2f60e11b8152644554482d4160d81b600482015290516001600160a01b03909216916363fad85e916024808201926020929091908290030181600087803b158015611c3857600080fd5b505af1158015611c4c573d6000803e3d6000fd5b505050506040513d6020811015611c6257600080fd5b5051611cb5576040805162461bcd60e51b815260206004820152601960248201527f556e77696e643a20456e642e736f6c206e6f7420726561647900000000000000604482015290519081900360640190fd5b60085460095460408051633612d9a360e11b81526001600160a01b03928316600482015290516000939290921691636c25b3469160248082019260209290919082900301818787803b158015611d0a57600080fd5b505af1158015611d1e573d6000803e3d6000fd5b505050506040513d6020811015611d3457600080fd5b50516008546009546040805163321b5ab960e21b815290519394506001600160a01b0392831693634a03707c9390921691829163c86d6ae49160048083019260209291908290030181600087803b158015611d8e57600080fd5b505af1158015611da2573d6000803e3d6000fd5b505050506040513d6020811015611db857600080fd5b5051604080516001600160e01b031960e086901b1681526001600160a01b039093166004840152602483019190915251604480830192600092919082900301818387803b158015611e0857600080fd5b505af1158015611e1c573d6000803e3d6000fd5b505060025460408051633b4da69f60e01b81523060048201526024810186905290516001600160a01b039092169350633b4da69f925060448082019260009290919082900301818387803b158015611e7357600080fd5b505af1158015611e87573d6000803e3d6000fd5b505060075460408051636ea4255560e01b81526004810186905290516001600160a01b039092169350636ea42555925060248082019260009290919082900301818387803b158015611ed857600080fd5b505af1158015611eec573d6000803e3d6000fd5b505060075460408051637f4283e360e11b8152644554482d4160d81b60048201526024810186905290516001600160a01b03909216935063fe8507c6925060448082019260009290919082900301818387803b158015611f4b57600080fd5b505af1158015611f5f573d6000803e3d6000fd5b50506001546040805163214414d560e01b8152644554482d4160d81b60048201523060248201529051600094506001600160a01b03909216925063214414d5916044808301926020929190829003018186803b158015611fbe57600080fd5b505afa158015611fd2573d6000803e3d6000fd5b505050506040513d6020811015611fe857600080fd5b5051600480546040805163ef693bed60e01b8152309381019390935260248301849052519293506001600160a01b03169163ef693bed9160448082019260009290919082900301818387803b15801561204057600080fd5b505af1158015612054573d6000803e3d6000fd5b50506010805461ff0019166101001790555050600754604080516331fd6c2f60e11b8152644554482d4160d81b600482015290516001600160a01b03909216916363fad85e916024808201926020929091908290030181600087803b1580156120bc57600080fd5b505af11580156120d0573d6000803e3d6000fd5b505050506040513d60208110156120e657600080fd5b5051600e556006546040805163324abb3160e21b815290516001600160a01b039092169163c92aecc491600480820192602092909190829003018186803b15801561213057600080fd5b505afa158015612144573d6000803e3d6000fd5b505050506040513d602081101561215a57600080fd5b5051600f555050565b60006121916b033b2e3c9fd0803ce8000000612185858563ffffffff61263e16565b9063ffffffff61269716565b9392505050565b3390565b60006001600160ff1b038211156121fa576040805162461bcd60e51b815260206004820152601760248201527f54726561737572793a2043617374206f766572666c6f77000000000000000000604482015290519081900360640190fd5b5090565b600080805b600d54811015612578576000600d828154811061221c57fe5b906000526020600020015490506000600c6000600d858154811061223c57fe5b9060005260206000200154815260200190815260200160002060009054906101000a90046001600160a01b03169050600080826001600160a01b031663ae4e7fdf6040518163ffffffff1660e01b815260040160206040518083038186803b1580156122a757600080fd5b505afa1580156122bb573d6000803e3d6000fd5b505050506040513d60208110156122d157600080fd5b5051156123b457826001600160a01b03166312970eac6040518163ffffffff1660e01b815260040160206040518083038186803b15801561231157600080fd5b505afa158015612325573d6000803e3d6000fd5b505050506040513d602081101561233b57600080fd5b50516040805163127833c360e31b815290519193506001600160a01b038516916393c19e1891600480820192602092909190829003018186803b15801561238157600080fd5b505afa158015612395573d6000803e3d6000fd5b505050506040513d60208110156123ab57600080fd5b505190506123ba565b50879050865b600a54604080516320e7349f60e21b8152644554482d4160d81b6004820152602481018790529051612470926124639261245d926001600160a01b039092169163839cd27c916044808201926020929091908290030181600087803b15801561242257600080fd5b505af1158015612436573d6000803e3d6000fd5b505050506040513d602081101561244c57600080fd5b50516124588c8661261c565b612163565b8461261c565b879063ffffffff61258016565b600a54604080516320e7349f60e21b8152634348414960e01b600482015260248101889052905192985061250592612463926001600160a01b03169163839cd27c9160448083019260209291908290030181600087803b1580156124d357600080fd5b505af11580156124e7573d6000803e3d6000fd5b505050506040513d60208110156124fd57600080fd5b50518461261c565b955061256761255a846001600160a01b03166318160ddd6040518163ffffffff1660e01b815260040160206040518083038186803b15801561254657600080fd5b505afa1580156124e7573d6000803e3d6000fd5b879063ffffffff6125da16565b955050505050600181019050612203565b509392505050565b600082820183811015612191576040805162461bcd60e51b815260206004820152601b60248201527f536166654d6174683a206164646974696f6e206f766572666c6f770000000000604482015290519081900360640190fd5b600061219183836040518060400160405280601e81526020017f536166654d6174683a207375627472616374696f6e206f766572666c6f7700008152506126d9565b600061219182612185856b033b2e3c9fd0803ce800000063ffffffff61263e16565b60008261264d57506000610760565b8282028284828161265a57fe5b04146121915760405162461bcd60e51b81526004018080602001828103825260218152602001806128226021913960400191505060405180910390fd5b600061219183836040518060400160405280601a81526020017f536166654d6174683a206469766973696f6e206279207a65726f000000000000815250612770565b600081848411156127685760405162461bcd60e51b81526004018080602001828103825283818151815260200191508051906020019080838360005b8381101561272d578181015183820152602001612715565b50505050905090810190601f16801561275a5780820380516001836020036101000a031916815260200191505b509250505060405180910390fd5b505050900390565b600081836127bf5760405162461bcd60e51b815260206004820181815283516024840152835190928392604490910191908501908083836000831561272d578181015183820152602001612715565b5060008385816127cb57fe5b049594505050505056fe4f776e61626c653a206e6577206f776e657220697320746865207a65726f2061646472657373556e77696e643a2043616e206f6e6c7920736b696d5768696c654c697665206966206c697665536166654d6174683a206d756c7469706c69636174696f6e206f766572666c6f77556e77696e643a204d616b657244414f206e6f74207368757474696e6720646f776ea2646970667358221220c61943884b90721f3cfa3315ece23aca0f3a1c43443e8d0c78bcf7dd0626f52c64736f6c634300060a0033",
  "source": "pragma solidity ^0.6.10;\n\nimport \"@openzeppelin/contracts/access/Ownable.sol\";\nimport \"@openzeppelin/contracts/math/SafeMath.sol\";\nimport \"@openzeppelin/contracts/token/ERC20/IERC20.sol\";\nimport \"./interfaces/IVat.sol\";\nimport \"./interfaces/IDaiJoin.sol\";\nimport \"./interfaces/IGemJoin.sol\";\nimport \"./interfaces/IJug.sol\";\nimport \"./interfaces/IPot.sol\";\nimport \"./interfaces/IEnd.sol\";\nimport \"./interfaces/IChai.sol\";\nimport \"./interfaces/ITreasury.sol\";\nimport \"./interfaces/IController.sol\";\nimport \"./interfaces/IYDai.sol\";\nimport \"./interfaces/ILiquidations.sol\";\nimport \"./helpers/DecimalMath.sol\";\n// import \"@nomiclabs/buidler/console.sol\";\n\n\n/**\n * @dev Unwind allows everyone to recover their assets from the Yield protocol in the event of a MakerDAO shutdown.\n * Unwind also allows to remove any protocol profits at any time to the beneficiary address using `skimWhileLive`.\n * During the unwind process, the system debt to MakerDAO is settled first with `settleTreasury`, extracting all free weth.\n * Once the Treasury is settled, any system savings are converted from Chai to Weth using `cashSavings`.\n * At this point, users can settle their positions using `settle`. The MakerDAO rates will be used to convert all debt and collateral to a Weth payout.\n * Users can also redeem here their yDai for a Weth payout, using `redeem`.\n * Protocol profits can be transferred to the beneficiary also at this point, using `skimDssShutdown`.\n */\ncontract Unwind is Ownable(), DecimalMath {\n    using SafeMath for uint256;\n\n    bytes32 public constant CHAI = \"CHAI\";\n    bytes32 public constant WETH = \"ETH-A\";\n\n    IVat internal _vat;\n    IDaiJoin internal _daiJoin;\n    IERC20 internal _weth;\n    IGemJoin internal _wethJoin;\n    IJug internal _jug;\n    IPot internal _pot;\n    IEnd internal _end;\n    IChai internal _chai;\n    ITreasury internal _treasury;\n    IController internal _controller;\n    ILiquidations internal _liquidations;\n\n    // TODO: Series related code is repeated with Controller, can be extracted into a parent class.\n    mapping(uint256 => IYDai) public series; // YDai series, indexed by maturity\n    uint256[] internal seriesIterator;       // We need to know all the series\n\n    uint256 public _fix; // Dai to weth price on DSS Unwind\n    uint256 public _chi; // Chai to dai price on DSS Unwind\n\n    bool public settled;\n    bool public cashedOut;\n    bool public live = true;\n\n    constructor (\n        address vat_,\n        address daiJoin_,\n        address weth_,\n        address wethJoin_,\n        address jug_,\n        address pot_,\n        address end_,\n        address chai_,\n        address treasury_,\n        address controller_,\n        address liquidations_\n    ) public {\n        // These could be hardcoded for mainnet deployment.\n        _vat = IVat(vat_);\n        _daiJoin = IDaiJoin(daiJoin_);\n        _weth = IERC20(weth_);\n        _wethJoin = IGemJoin(wethJoin_);\n        _jug = IJug(jug_);\n        _pot = IPot(pot_);\n        _end = IEnd(end_);\n        _chai = IChai(chai_);\n        _treasury = ITreasury(treasury_);\n        _controller = IController(controller_);\n        _liquidations = ILiquidations(liquidations_);\n\n        _vat.hope(address(_treasury));\n        _vat.hope(address(_end));\n    }\n\n    /// @dev max(0, x - y)\n    function subFloorZero(uint256 x, uint256 y) public pure returns(uint256) {\n        if (y >= x) return 0;\n        else return x - y;\n    }\n\n    /// @dev Safe casting from uint256 to int256\n    function toInt(uint256 x) internal pure returns(int256) {\n        require(\n            x <= 57896044618658097711785492504343953926634992332820282019728792003956564819967,\n            \"Treasury: Cast overflow\"\n        );\n        return int256(x);\n    }\n\n    /// @dev Returns if a series has been added to the Controller, for a given series identified by maturity\n    function containsSeries(uint256 maturity) public view returns (bool) {\n        return address(series[maturity]) != address(0);\n    }\n\n    /// @dev Adds an yDai series to this Controller\n    function addSeries(address yDaiContract) public onlyOwner {\n        uint256 maturity = IYDai(yDaiContract).maturity();\n        require(\n            !containsSeries(maturity),\n            \"Controller: Series already added\"\n        );\n        series[maturity] = IYDai(yDaiContract);\n        seriesIterator.push(maturity);\n    }\n\n    /// @dev Disables treasury and controller.\n    function unwind() public {\n        require(\n            _end.tag(WETH) != 0,\n            \"Unwind: MakerDAO not shutting down\"\n        );\n        live = false;\n        _treasury.shutdown();\n        _controller.shutdown();\n        _liquidations.shutdown();\n    }\n\n    function getChi() public returns (uint256) {\n        return (now > _pot.rho()) ? _pot.drip() : _pot.chi();\n    }\n\n    function getRate() public returns (uint256) {\n        uint256 rate;\n        (, uint256 rho) = _jug.ilks(WETH);\n        if (now > rho) {\n            rate = _jug.drip(WETH);\n        } else {\n            (, rate,,,) = _vat.ilks(WETH);\n        }\n        return rate;\n    }\n\n    /// @dev Calculates how much profit is in the system and transfers it to the beneficiary\n    function skimWhileLive(address beneficiary) public { // TODO: Hardcode\n        require(\n            live == true, // If DSS is not live this method will fail later on.\n            \"Unwind: Can only skimWhileLive if live\"\n        );\n\n        uint256 profit = _chai.balanceOf(address(_treasury));\n        profit = profit.add(_yDaiProfit(getChi(), getRate()));\n        profit = profit.sub(divd(_treasury.debt(), getChi()));\n        profit = profit.sub(_controller.systemPosted(CHAI));\n\n        _treasury.pullChai(beneficiary, profit);\n    }\n\n    /// @dev Calculates how much profit is in the system and transfers it to the beneficiary\n    function skimDssShutdown(address beneficiary) public { // TODO: Hardcode\n        require(settled && cashedOut, \"Unwind: Not ready\");\n\n        uint256 chi = _pot.chi();\n        (, uint256 rate,,,) = _vat.ilks(WETH);\n        uint256 profit = _weth.balanceOf(address(this));\n\n        profit = profit.add(muld(muld(_yDaiProfit(chi, rate), _fix), chi));\n        profit = profit.sub(_controller.systemPosted(WETH));\n        profit = profit.sub(muld(muld(_controller.systemPosted(CHAI), _fix), chi));\n\n        _weth.transfer(beneficiary, profit);\n    }\n\n    /// @dev Returns the profit accummulated in the system due to yDai supply and debt, in chai, for a given chi and rate.\n    function _yDaiProfit(uint256 chi, uint256 rate) internal returns (uint256) {\n        uint256 profit;\n\n        for (uint256 i = 0; i < seriesIterator.length; i += 1) {\n            uint256 maturity = seriesIterator[i];\n            IYDai yDai = IYDai(series[seriesIterator[i]]);\n\n            uint256 chi0;\n            uint256 rate0;\n            if (yDai.isMature()){\n                chi0 = yDai.chi0();\n                rate0 = yDai.rate0();\n            } else {\n                chi0 = chi;\n                rate0 = rate;\n            }\n\n            profit = profit.add(divd(muld(_controller.systemDebtYDai(WETH, maturity), divd(rate, rate0)), chi0));\n            profit = profit.add(divd(_controller.systemDebtYDai(CHAI, maturity), chi0));\n            profit = profit.sub(divd(yDai.totalSupply(), chi0));\n        }\n\n        return profit;\n    }\n\n    /// @dev Settle system debt in MakerDAO and free remaining collateral.\n    function settleTreasury() public {\n        require(\n            live == false,\n            \"Unwind: Unwind first\"\n        );\n        (uint256 ink, uint256 art) = _vat.urns(WETH, address(_treasury));\n        _vat.fork(                                               // Take the treasury vault\n            WETH,\n            address(_treasury),\n            address(this),\n            toInt(ink),\n            toInt(art)\n        );\n        _end.skim(WETH, address(this));                // Settle debts\n        _end.free(WETH);                               // Free collateral\n        uint256 gem = _vat.gem(WETH, address(this));          // Find out how much collateral we have now\n        _wethJoin.exit(address(this), gem);                      // Take collateral out\n        settled = true;\n    }\n\n    /// @dev Put all chai savings in MakerDAO and exchange them for weth\n    function cashSavings() public {\n        require(\n            _end.tag(WETH) != 0,\n            \"Unwind: End.sol not caged\"\n        );\n        require(\n            _end.fix(WETH) != 0,\n            \"Unwind: End.sol not ready\"\n        );\n        uint256 daiTokens = _chai.dai(address(_treasury));   // Find out how much is the chai worth\n        _chai.draw(address(_treasury), _treasury.savings()); // Get the chai as dai\n        _daiJoin.join(address(this), daiTokens);             // Put the dai into MakerDAO\n        _end.pack(daiTokens);                                // Into End.sol, more exactly\n        _end.cash(WETH, daiTokens);                // Exchange the dai for weth\n        uint256 gem = _vat.gem(WETH, address(this));      // Find out how much collateral we have now\n        _wethJoin.exit(address(this), gem);                  // Take collateral out\n        cashedOut = true;\n\n        _fix = _end.fix(WETH);\n        _chi = _pot.chi();\n    }\n\n    /// @dev Settles a series position in Controller, and then returns any remaining collateral as weth using the unwind Dai to Weth price.\n    function settle(bytes32 collateral, address user) public {\n        require(settled && cashedOut, \"Unwind: Not ready\");\n\n        uint256 debt = _controller.totalDebtDai(collateral, user);\n        uint256 tokens = _controller.posted(collateral, user);\n        _controller.grab(collateral, user, debt, tokens);\n\n        uint256 remainder;\n        if (collateral == WETH) {\n            remainder = subFloorZero(tokens, muld(debt, _fix));\n        } else if (collateral == CHAI) {\n            remainder = muld(subFloorZero(muld(tokens, _chi), debt), _fix);\n        }\n        _weth.transfer(user, remainder);\n    }\n\n    /// @dev Redeems YDai for weth\n    function redeem(uint256 maturity, uint256 yDaiAmount, address user) public {\n        require(settled && cashedOut, \"Unwind: Not ready\");\n        IYDai yDai = _controller.series(maturity);\n        yDai.burn(user, yDaiAmount);\n        _weth.transfer(\n            user,\n            muld(muld(yDaiAmount, yDai.chiGrowth()), _fix)\n        );\n    }\n}",
  "sourcePath": "/Users/bruce/dev/yieldprotocol/ytoken-mvp/contracts/Unwind.sol",
  "compiler": {
    "name": "solc",
    "version": "0.6.10+commit.00c0fcaf.Emscripten.clang"
  },
  "schemaVersion": "3.0.23",
  "updatedAt": "2020-07-15T08:10:31.424Z",
  "networkType": "ethereum",
  "devdoc": {
    "details": "Unwind allows everyone to recover their assets from the Yield protocol in the event of a MakerDAO shutdown. Unwind also allows to remove any protocol profits at any time to the beneficiary address using `skimWhileLive`. During the unwind process, the system debt to MakerDAO is settled first with `settleTreasury`, extracting all free weth. Once the Treasury is settled, any system savings are converted from Chai to Weth using `cashSavings`. At this point, users can settle their positions using `settle`. The MakerDAO rates will be used to convert all debt and collateral to a Weth payout. Users can also redeem here their yDai for a Weth payout, using `redeem`. Protocol profits can be transferred to the beneficiary also at this point, using `skimDssShutdown`.",
    "methods": {
      "addSeries(address)": {
        "details": "Adds an yDai series to this Controller"
      },
      "cashSavings()": {
        "details": "Put all chai savings in MakerDAO and exchange them for weth"
      },
      "containsSeries(uint256)": {
        "details": "Returns if a series has been added to the Controller, for a given series identified by maturity"
      },
      "owner()": {
        "details": "Returns the address of the current owner."
      },
      "redeem(uint256,uint256,address)": {
        "details": "Redeems YDai for weth"
      },
      "renounceOwnership()": {
        "details": "Leaves the contract without owner. It will not be possible to call `onlyOwner` functions anymore. Can only be called by the current owner. NOTE: Renouncing ownership will leave the contract without an owner, thereby removing any functionality that is only available to the owner."
      },
      "settle(bytes32,address)": {
        "details": "Settles a series position in Controller, and then returns any remaining collateral as weth using the unwind Dai to Weth price."
      },
      "settleTreasury()": {
        "details": "Settle system debt in MakerDAO and free remaining collateral."
      },
      "skimDssShutdown(address)": {
        "details": "Calculates how much profit is in the system and transfers it to the beneficiary"
      },
      "skimWhileLive(address)": {
        "details": "Calculates how much profit is in the system and transfers it to the beneficiary"
      },
      "subFloorZero(uint256,uint256)": {
        "details": "max(0, x - y)"
      },
      "transferOwnership(address)": {
        "details": "Transfers ownership of the contract to a new account (`newOwner`). Can only be called by the current owner."
      },
      "unwind()": {
        "details": "Disables treasury and controller."
      }
    }
  },
  "userdoc": {
    "methods": {}
  }
}