{
  "contractName": "UserProxy",
  "abi": [
    {
      "anonymous": false,
      "inputs": [
        {
          "indexed": true,
          "internalType": "address",
          "name": "user",
          "type": "address"
        },
        {
          "indexed": true,
          "internalType": "address",
          "name": "proxy",
          "type": "address"
        },
        {
          "indexed": false,
          "internalType": "bool",
          "name": "enabled",
          "type": "bool"
        }
      ],
      "name": "Proxy",
      "type": "event"
    },
    {
      "inputs": [
        {
          "internalType": "address",
          "name": "proxy",
          "type": "address"
        }
      ],
      "name": "addProxy",
      "outputs": [],
      "stateMutability": "nonpayable",
      "type": "function"
    },
    {
      "inputs": [
        {
          "internalType": "address",
          "name": "proxy",
          "type": "address"
        }
      ],
      "name": "revokeProxy",
      "outputs": [],
      "stateMutability": "nonpayable",
      "type": "function"
    }
  ],
  "bytecode": "0x608060405234801561001057600080fd5b506102fb806100206000396000f3fe608060405234801561001057600080fd5b50600436106100365760003560e01c806323b11d8d1461003b578063c89052251461007f575b600080fd5b61007d6004803603602081101561005157600080fd5b81019080803573ffffffffffffffffffffffffffffffffffffffff1690602001909291905050506100c3565b005b6100c16004803603602081101561009557600080fd5b81019080803573ffffffffffffffffffffffffffffffffffffffff1690602001909291905050506101c4565b005b60016000803373ffffffffffffffffffffffffffffffffffffffff1673ffffffffffffffffffffffffffffffffffffffff16815260200190815260200160002060008373ffffffffffffffffffffffffffffffffffffffff1673ffffffffffffffffffffffffffffffffffffffff16815260200190815260200160002060006101000a81548160ff0219169083151502179055508073ffffffffffffffffffffffffffffffffffffffff163373ffffffffffffffffffffffffffffffffffffffff167fc36ad848097e7ffe295df9c20b29568928ae4fd30eff1557db5ebbcf127c9c766001604051808215151515815260200191505060405180910390a350565b60008060003373ffffffffffffffffffffffffffffffffffffffff1673ffffffffffffffffffffffffffffffffffffffff16815260200190815260200160002060008373ffffffffffffffffffffffffffffffffffffffff1673ffffffffffffffffffffffffffffffffffffffff16815260200190815260200160002060006101000a81548160ff0219169083151502179055508073ffffffffffffffffffffffffffffffffffffffff163373ffffffffffffffffffffffffffffffffffffffff167fc36ad848097e7ffe295df9c20b29568928ae4fd30eff1557db5ebbcf127c9c766000604051808215151515815260200191505060405180910390a35056fea264697066735822122067d6dbd70020fe428dd8610c021bea23860b741834011a65ff4fb12eab841b3d64736f6c63430006020033",
  "source": "pragma solidity ^0.6.2;\n\n\n/// @dev UserProxy enables users to delegate their account management to proxies\ncontract UserProxy {\n    // All proxies can be known from events for audit purposes\n    event Proxy(address indexed user, address indexed proxy, bool enabled);\n\n    mapping(address => mapping(address => bool)) internal proxies;\n\n    /// @dev Require that tx.origin is the account holder or a proxy\n    modifier onlyHolderOrProxy(address holder, string memory errorMessage) {\n        require(\n            msg.sender == holder || proxies[holder][msg.sender],\n            errorMessage\n        );\n        _;\n    }\n\n    /// @dev Enable a proxy to act on the behalf of caller\n    function addProxy(address proxy) public {\n        proxies[msg.sender][proxy] = true;\n        emit Proxy(msg.sender, proxy, true);\n    }\n\n    /// @dev Stop a proxy from acting on the behalf of caller\n    function revokeProxy(address proxy) public {\n        proxies[msg.sender][proxy] = false;\n        emit Proxy(msg.sender, proxy, false);\n    }\n}",
  "sourcePath": "/Users/bruce/dev/yieldprotocol/ytoken-mvp/contracts/UserProxy.sol",
  "compiler": {
    "name": "solc",
    "version": "0.6.2+commit.bacdbe57.Emscripten.clang"
  },
  "schemaVersion": "3.0.23",
  "updatedAt": "2020-06-26T10:57:53.783Z",
  "devdoc": {
    "details": "UserProxy enables users to delegate their account management to proxies",
    "methods": {
      "addProxy(address)": {
        "details": "Enable a proxy to act on the behalf of caller"
      },
      "revokeProxy(address)": {
        "details": "Stop a proxy from acting on the behalf of caller"
      }
    }
  },
  "userdoc": {
    "methods": {}
  }
}