{
  "contractName": "Vat",
  "abi": [
    {
      "inputs": [],
      "stateMutability": "nonpayable",
      "type": "constructor"
    },
    {
      "anonymous": true,
      "inputs": [
        {
          "indexed": true,
          "internalType": "bytes4",
          "name": "sig",
          "type": "bytes4"
        },
        {
          "indexed": true,
          "internalType": "bytes32",
          "name": "arg1",
          "type": "bytes32"
        },
        {
          "indexed": true,
          "internalType": "bytes32",
          "name": "arg2",
          "type": "bytes32"
        },
        {
          "indexed": true,
          "internalType": "bytes32",
          "name": "arg3",
          "type": "bytes32"
        },
        {
          "indexed": false,
          "internalType": "bytes",
          "name": "data",
          "type": "bytes"
        }
      ],
      "name": "LogNote",
      "type": "event"
    },
    {
      "inputs": [],
      "name": "Line",
      "outputs": [
        {
          "internalType": "uint256",
          "name": "",
          "type": "uint256"
        }
      ],
      "stateMutability": "view",
      "type": "function",
      "constant": true
    },
    {
      "inputs": [
        {
          "internalType": "address",
          "name": "",
          "type": "address"
        },
        {
          "internalType": "address",
          "name": "",
          "type": "address"
        }
      ],
      "name": "can",
      "outputs": [
        {
          "internalType": "uint256",
          "name": "",
          "type": "uint256"
        }
      ],
      "stateMutability": "view",
      "type": "function",
      "constant": true
    },
    {
      "inputs": [
        {
          "internalType": "address",
          "name": "",
          "type": "address"
        }
      ],
      "name": "dai",
      "outputs": [
        {
          "internalType": "uint256",
          "name": "",
          "type": "uint256"
        }
      ],
      "stateMutability": "view",
      "type": "function",
      "constant": true
    },
    {
      "inputs": [],
      "name": "debt",
      "outputs": [
        {
          "internalType": "uint256",
          "name": "",
          "type": "uint256"
        }
      ],
      "stateMutability": "view",
      "type": "function",
      "constant": true
    },
    {
      "inputs": [
        {
          "internalType": "bytes32",
          "name": "",
          "type": "bytes32"
        },
        {
          "internalType": "address",
          "name": "",
          "type": "address"
        }
      ],
      "name": "gem",
      "outputs": [
        {
          "internalType": "uint256",
          "name": "",
          "type": "uint256"
        }
      ],
      "stateMutability": "view",
      "type": "function",
      "constant": true
    },
    {
      "inputs": [
        {
          "internalType": "bytes32",
          "name": "",
          "type": "bytes32"
        }
      ],
      "name": "ilks",
      "outputs": [
        {
          "internalType": "uint256",
          "name": "Art",
          "type": "uint256"
        },
        {
          "internalType": "uint256",
          "name": "rate",
          "type": "uint256"
        },
        {
          "internalType": "uint256",
          "name": "spot",
          "type": "uint256"
        },
        {
          "internalType": "uint256",
          "name": "line",
          "type": "uint256"
        },
        {
          "internalType": "uint256",
          "name": "dust",
          "type": "uint256"
        }
      ],
      "stateMutability": "view",
      "type": "function",
      "constant": true
    },
    {
      "inputs": [],
      "name": "live",
      "outputs": [
        {
          "internalType": "uint256",
          "name": "",
          "type": "uint256"
        }
      ],
      "stateMutability": "view",
      "type": "function",
      "constant": true
    },
    {
      "inputs": [
        {
          "internalType": "address",
          "name": "",
          "type": "address"
        }
      ],
      "name": "sin",
      "outputs": [
        {
          "internalType": "uint256",
          "name": "",
          "type": "uint256"
        }
      ],
      "stateMutability": "view",
      "type": "function",
      "constant": true
    },
    {
      "inputs": [
        {
          "internalType": "bytes32",
          "name": "",
          "type": "bytes32"
        },
        {
          "internalType": "address",
          "name": "",
          "type": "address"
        }
      ],
      "name": "urns",
      "outputs": [
        {
          "internalType": "uint256",
          "name": "ink",
          "type": "uint256"
        },
        {
          "internalType": "uint256",
          "name": "art",
          "type": "uint256"
        }
      ],
      "stateMutability": "view",
      "type": "function",
      "constant": true
    },
    {
      "inputs": [],
      "name": "vice",
      "outputs": [
        {
          "internalType": "uint256",
          "name": "",
          "type": "uint256"
        }
      ],
      "stateMutability": "view",
      "type": "function",
      "constant": true
    },
    {
      "inputs": [
        {
          "internalType": "address",
          "name": "",
          "type": "address"
        }
      ],
      "name": "wards",
      "outputs": [
        {
          "internalType": "uint256",
          "name": "",
          "type": "uint256"
        }
      ],
      "stateMutability": "view",
      "type": "function",
      "constant": true
    },
    {
      "inputs": [
        {
          "internalType": "address",
          "name": "usr",
          "type": "address"
        }
      ],
      "name": "rely",
      "outputs": [],
      "stateMutability": "nonpayable",
      "type": "function"
    },
    {
      "inputs": [
        {
          "internalType": "address",
          "name": "usr",
          "type": "address"
        }
      ],
      "name": "deny",
      "outputs": [],
      "stateMutability": "nonpayable",
      "type": "function"
    },
    {
      "inputs": [
        {
          "internalType": "address",
          "name": "usr",
          "type": "address"
        }
      ],
      "name": "hope",
      "outputs": [],
      "stateMutability": "nonpayable",
      "type": "function"
    },
    {
      "inputs": [
        {
          "internalType": "address",
          "name": "usr",
          "type": "address"
        }
      ],
      "name": "nope",
      "outputs": [],
      "stateMutability": "nonpayable",
      "type": "function"
    },
    {
      "inputs": [
        {
          "internalType": "bytes32",
          "name": "ilk",
          "type": "bytes32"
        }
      ],
      "name": "init",
      "outputs": [],
      "stateMutability": "nonpayable",
      "type": "function"
    },
    {
      "inputs": [
        {
          "internalType": "bytes32",
          "name": "what",
          "type": "bytes32"
        },
        {
          "internalType": "uint256",
          "name": "data",
          "type": "uint256"
        }
      ],
      "name": "file",
      "outputs": [],
      "stateMutability": "nonpayable",
      "type": "function"
    },
    {
      "inputs": [
        {
          "internalType": "bytes32",
          "name": "ilk",
          "type": "bytes32"
        },
        {
          "internalType": "bytes32",
          "name": "what",
          "type": "bytes32"
        },
        {
          "internalType": "uint256",
          "name": "data",
          "type": "uint256"
        }
      ],
      "name": "file",
      "outputs": [],
      "stateMutability": "nonpayable",
      "type": "function"
    },
    {
      "inputs": [],
      "name": "cage",
      "outputs": [],
      "stateMutability": "nonpayable",
      "type": "function"
    },
    {
      "inputs": [
        {
          "internalType": "bytes32",
          "name": "ilk",
          "type": "bytes32"
        },
        {
          "internalType": "address",
          "name": "usr",
          "type": "address"
        },
        {
          "internalType": "int256",
          "name": "wad",
          "type": "int256"
        }
      ],
      "name": "slip",
      "outputs": [],
      "stateMutability": "nonpayable",
      "type": "function"
    },
    {
      "inputs": [
        {
          "internalType": "bytes32",
          "name": "ilk",
          "type": "bytes32"
        },
        {
          "internalType": "address",
          "name": "src",
          "type": "address"
        },
        {
          "internalType": "address",
          "name": "dst",
          "type": "address"
        },
        {
          "internalType": "uint256",
          "name": "wad",
          "type": "uint256"
        }
      ],
      "name": "flux",
      "outputs": [],
      "stateMutability": "nonpayable",
      "type": "function"
    },
    {
      "inputs": [
        {
          "internalType": "address",
          "name": "src",
          "type": "address"
        },
        {
          "internalType": "address",
          "name": "dst",
          "type": "address"
        },
        {
          "internalType": "uint256",
          "name": "rad",
          "type": "uint256"
        }
      ],
      "name": "move",
      "outputs": [],
      "stateMutability": "nonpayable",
      "type": "function"
    },
    {
      "inputs": [
        {
          "internalType": "bytes32",
          "name": "i",
          "type": "bytes32"
        },
        {
          "internalType": "address",
          "name": "u",
          "type": "address"
        },
        {
          "internalType": "address",
          "name": "v",
          "type": "address"
        },
        {
          "internalType": "address",
          "name": "w",
          "type": "address"
        },
        {
          "internalType": "int256",
          "name": "dink",
          "type": "int256"
        },
        {
          "internalType": "int256",
          "name": "dart",
          "type": "int256"
        }
      ],
      "name": "frob",
      "outputs": [],
      "stateMutability": "nonpayable",
      "type": "function"
    },
    {
      "inputs": [
        {
          "internalType": "bytes32",
          "name": "ilk",
          "type": "bytes32"
        },
        {
          "internalType": "address",
          "name": "src",
          "type": "address"
        },
        {
          "internalType": "address",
          "name": "dst",
          "type": "address"
        },
        {
          "internalType": "int256",
          "name": "dink",
          "type": "int256"
        },
        {
          "internalType": "int256",
          "name": "dart",
          "type": "int256"
        }
      ],
      "name": "fork",
      "outputs": [],
      "stateMutability": "nonpayable",
      "type": "function"
    },
    {
      "inputs": [
        {
          "internalType": "bytes32",
          "name": "i",
          "type": "bytes32"
        },
        {
          "internalType": "address",
          "name": "u",
          "type": "address"
        },
        {
          "internalType": "address",
          "name": "v",
          "type": "address"
        },
        {
          "internalType": "address",
          "name": "w",
          "type": "address"
        },
        {
          "internalType": "int256",
          "name": "dink",
          "type": "int256"
        },
        {
          "internalType": "int256",
          "name": "dart",
          "type": "int256"
        }
      ],
      "name": "grab",
      "outputs": [],
      "stateMutability": "nonpayable",
      "type": "function"
    },
    {
      "inputs": [
        {
          "internalType": "uint256",
          "name": "rad",
          "type": "uint256"
        }
      ],
      "name": "heal",
      "outputs": [],
      "stateMutability": "nonpayable",
      "type": "function"
    },
    {
      "inputs": [
        {
          "internalType": "address",
          "name": "u",
          "type": "address"
        },
        {
          "internalType": "address",
          "name": "v",
          "type": "address"
        },
        {
          "internalType": "uint256",
          "name": "rad",
          "type": "uint256"
        }
      ],
      "name": "suck",
      "outputs": [],
      "stateMutability": "nonpayable",
      "type": "function"
    },
    {
      "inputs": [
        {
          "internalType": "bytes32",
          "name": "i",
          "type": "bytes32"
        },
        {
          "internalType": "address",
          "name": "u",
          "type": "address"
        },
        {
          "internalType": "int256",
          "name": "rate",
          "type": "int256"
        }
      ],
      "name": "fold",
      "outputs": [],
      "stateMutability": "nonpayable",
      "type": "function"
    }
  ],
  "bytecode": "0x608060405234801561001057600080fd5b50336000908152602081905260409020600190819055600a55611d22806100386000396000f3fe608060405234801561001057600080fd5b50600436106101c45760003560e01c80637cdd3fde116100f9578063bb35783b11610097578063dc4d20fa11610071578063dc4d20fa146105bb578063f059212a146105e1578063f24e23eb14610607578063f37ac61c1461063d576101c4565b8063bb35783b14610517578063bf353dbb1461054d578063d9638d3614610573576101c4565b80639c52a7f1116100d35780639c52a7f114610491578063a3b22fc4146104b7578063b65337df146104dd578063babe8a3f1461050f576101c4565b80637cdd3fde14610415578063870c616d14610447578063957aa58c14610489576101c4565b80634538c4eb11610166578063692450091161014057806369245009146103575780636c25b3461461035f57806376088703146103855780637bab3f40146103cd576101c4565b80634538c4eb146102c75780636111be2e146102f557806365fae35e14610331576101c4565b80632424be5c116101a25780632424be5c1461023a57806329ae81141461027f5780632d61a355146102a25780633b663195146102aa576101c4565b80630dca59c1146101c95780631a0b287e146101e3578063214414d51461020e575b600080fd5b6101d161065a565b60408051918252519081900360200190f35b61020c600480360360608110156101f957600080fd5b5080359060208101359060400135610660565b005b6101d16004803603604081101561022457600080fd5b50803590602001356001600160a01b03166107c3565b6102666004803603604081101561025057600080fd5b50803590602001356001600160a01b03166107e0565b6040805192835260208301919091528051918290030190f35b61020c6004803603604081101561029557600080fd5b5080359060200135610804565b6101d16108b1565b61020c600480360360208110156102c057600080fd5b50356108b7565b6101d1600480360360408110156102dd57600080fd5b506001600160a01b0381358116916020013516610987565b61020c6004803603608081101561030b57600080fd5b508035906001600160a01b036020820135811691604081013590911690606001356109a4565b61020c6004803603602081101561034757600080fd5b50356001600160a01b0316610a7f565b61020c610b34565b6101d16004803603602081101561037557600080fd5b50356001600160a01b0316610b8d565b61020c600480360360c081101561039b57600080fd5b508035906001600160a01b03602082013581169160408101358216916060820135169060808101359060a00135610b9f565b61020c600480360360c08110156103e357600080fd5b508035906001600160a01b03602082013581169160408101358216916060820135169060808101359060a0013561106c565b61020c6004803603606081101561042b57600080fd5b508035906001600160a01b0360208201351690604001356111ce565b61020c600480360360a081101561045d57600080fd5b508035906001600160a01b03602082013581169160408101359091169060608101359060800135611276565b6101d16114ec565b61020c600480360360208110156104a757600080fd5b50356001600160a01b03166114f2565b61020c600480360360208110156104cd57600080fd5b50356001600160a01b03166115a4565b61020c600480360360608110156104f357600080fd5b508035906001600160a01b0360208201351690604001356115cd565b6101d16116ec565b61020c6004803603606081101561052d57600080fd5b506001600160a01b038135811691602081013590911690604001356116f2565b6101d16004803603602081101561056357600080fd5b50356001600160a01b03166117b2565b6105906004803603602081101561058957600080fd5b50356117c4565b6040805195865260208601949094528484019290925260608401526080830152519081900360a00190f35b61020c600480360360208110156105d157600080fd5b50356001600160a01b03166117f3565b6101d1600480360360208110156105f757600080fd5b50356001600160a01b031661181c565b61020c6004803603606081101561061d57600080fd5b506001600160a01b0381358116916020810135909116906040013561182e565b61020c6004803603602081101561065357600080fd5b5035611917565b60075481565b336000908152602081905260409020546001146106b2576040805162461bcd60e51b81526020600482015260126024820152600080516020611ccd833981519152604482015290519081900360640190fd5b600a546001146106f8576040805162461bcd60e51b815260206004820152600c60248201526b5661742f6e6f742d6c69766560a01b604482015290519081900360640190fd5b81631cdc1bdd60e21b1415610721576000838152600260208190526040909120018190556107be565b81636c696e6560e01b14156107495760008381526002602052604090206003018190556107be565b8163191d5cdd60e21b14156107715760008381526002602052604090206004018190556107be565b6040805162461bcd60e51b815260206004820152601b60248201527f5661742f66696c652d756e7265636f676e697a65642d706172616d0000000000604482015290519081900360640190fd5b505050565b600460209081526000928352604080842090915290825290205481565b60036020908152600092835260408084209091529082529020805460019091015482565b33600090815260208190526040902054600114610856576040805162461bcd60e51b81526020600482015260126024820152600080516020611ccd833981519152604482015290519081900360640190fd5b600a5460011461089c576040805162461bcd60e51b815260206004820152600c60248201526b5661742f6e6f742d6c69766560a01b604482015290519081900360640190fd5b81634c696e6560e01b14156107715760095550565b60085481565b33600090815260208190526040902054600114610909576040805162461bcd60e51b81526020600482015260126024820152600080516020611ccd833981519152604482015290519081900360640190fd5b60008181526002602052604090206001015415610964576040805162461bcd60e51b815260206004820152601460248201527315985d0bda5b1acb585b1c9958591e4b5a5b9a5d60621b604482015290519081900360640190fd5b60009081526002602052604090206b033b2e3c9fd0803ce8000000600190910155565b600160209081526000928352604080842090915290825290205481565b6109ae833361199d565b6109f1576040805162461bcd60e51b815260206004820152600f60248201526e15985d0bdb9bdd0b585b1b1bddd959608a1b604482015290519081900360640190fd5b60008481526004602090815260408083206001600160a01b0387168452909152902054610a1e90826119dd565b60008581526004602090815260408083206001600160a01b038881168552925280832093909355841681522054610a559082611a1f565b60009485526004602090815260408087206001600160a01b03909516875293905291909320555050565b33600090815260208190526040902054600114610ad1576040805162461bcd60e51b81526020600482015260126024820152600080516020611ccd833981519152604482015290519081900360640190fd5b600a54600114610b17576040805162461bcd60e51b815260206004820152600c60248201526b5661742f6e6f742d6c69766560a01b604482015290519081900360640190fd5b6001600160a01b0316600090815260208190526040902060019055565b33600090815260208190526040902054600114610b86576040805162461bcd60e51b81526020600482015260126024820152600080516020611ccd833981519152604482015290519081900360640190fd5b6000600a55565b60056020526000908152604090205481565b600a54600114610be5576040805162461bcd60e51b815260206004820152600c60248201526b5661742f6e6f742d6c69766560a01b604482015290519081900360640190fd5b610bed611c83565b5060008681526003602090815260408083206001600160a01b03891684528252918290208251808401909352805483526001015490820152610c2d611c9d565b50600087815260026020818152604092839020835160a081018552815481526001820154928101839052928101549383019390935260038301546060830152600490920154608082015290610cbc576040805162461bcd60e51b815260206004820152601060248201526f15985d0bda5b1acb5b9bdd0b5a5b9a5d60821b604482015290519081900360640190fd5b8151610cc89085611a61565b82526020820151610cd99084611a61565b60208301528051610cea9084611a61565b81526020810151600090610cfe9085611afa565b90506000610d1483602001518560200151611b8d565b9050610d2260075483611a61565b600781905550610d5e6000861315610d598560600151610d4a87600001518860200151611b8d565b11156009546007541115611be2565b611be6565b610da6576040805162461bcd60e51b815260206004820152601460248201527315985d0bd8d95a5b1a5b99cb595e18d95959195960621b604482015290519081900360640190fd5b610dd5610dbb60008713156000891215611be2565b610dcd86600001518660400151611b8d565b831115611be6565b610e15576040805162461bcd60e51b815260206004820152600c60248201526b5661742f6e6f742d7361666560a01b604482015290519081900360640190fd5b610e34610e2a60008713156000891215611be2565b610d598b3361199d565b610e79576040805162461bcd60e51b81526020600482015260116024820152705661742f6e6f742d616c6c6f7765642d7560781b604482015290519081900360640190fd5b610e8b6000871315610d598a3361199d565b610ed0576040805162461bcd60e51b81526020600482015260116024820152702b30ba17b737ba16b0b63637bbb2b216bb60791b604482015290519081900360640190fd5b610ee26000861215610d59893361199d565b610f27576040805162461bcd60e51b81526020600482015260116024820152705661742f6e6f742d616c6c6f7765642d7760781b604482015290519081900360640190fd5b610f3f84602001516000148460800151831015611be6565b610f7b576040805162461bcd60e51b815260206004820152600860248201526715985d0bd91d5cdd60c21b604482015290519081900360640190fd5b60008a81526004602090815260408083206001600160a01b038c168452909152902054610fa89087611bea565b60008b81526004602090815260408083206001600160a01b03808e16855290835281842094909455928a168252600590522054610fe59083611a61565b6001600160a01b039788166000908152600560209081526040808320939093558c825260038082528383209c909a1682529a8b5281812086518155958b01516001968701559a8b526002808b529a8190208451815599840151948a019490945550509081015196860196909655505060608401519083015550608090910151600490910155565b336000908152602081905260409020546001146110be576040805162461bcd60e51b81526020600482015260126024820152600080516020611ccd833981519152604482015290519081900360640190fd5b60008681526003602090815260408083206001600160a01b03891684528252808320898452600290925290912081546110f79085611a61565b825560018201546111089084611a61565b600183015580546111199084611a61565b8155600181015460009061112d9085611afa565b60008a81526004602090815260408083206001600160a01b038c16845290915290205490915061115d9086611bea565b60008a81526004602090815260408083206001600160a01b03808d16855290835281842094909455928916825260069052205461119a9082611bea565b6001600160a01b0387166000908152600660205260409020556008546111c09082611bea565b600855505050505050505050565b33600090815260208190526040902054600114611220576040805162461bcd60e51b81526020600482015260126024820152600080516020611ccd833981519152604482015290519081900360640190fd5b60008381526004602090815260408083206001600160a01b038616845290915290205461124d9082611a61565b60009384526004602090815260408086206001600160a01b039095168652939052919092205550565b60008581526003602090815260408083206001600160a01b03888116855290835281842090871684528184208985526002909352922082546112b89086611bea565b835560018301546112c99085611bea565b600184015581546112da9086611a61565b825560018201546112eb9085611a61565b8260010181905550600061130784600101548360010154611b8d565b9050600061131d84600101548460010154611b8d565b905061133b61132c8a3361199d565b6113368a3361199d565b611be2565b61137e576040805162461bcd60e51b815260206004820152600f60248201526e15985d0bdb9bdd0b585b1b1bddd959608a1b604482015290519081900360640190fd5b61139085600001548460020154611b8d565b8211156113d7576040805162461bcd60e51b815260206004820152601060248201526f5661742f6e6f742d736166652d73726360801b604482015290519081900360640190fd5b6113e984600001548460020154611b8d565b811115611430576040805162461bcd60e51b815260206004820152601060248201526f15985d0bdb9bdd0b5cd859994b591cdd60821b604482015290519081900360640190fd5b61144883600401548310158660010154600014611be6565b611488576040805162461bcd60e51b815260206004820152600c60248201526b5661742f647573742d73726360a01b604482015290519081900360640190fd5b6114a083600401548210158560010154600014611be6565b6114e0576040805162461bcd60e51b815260206004820152600c60248201526b15985d0bd91d5cdd0b591cdd60a21b604482015290519081900360640190fd5b50505050505050505050565b600a5481565b33600090815260208190526040902054600114611544576040805162461bcd60e51b81526020600482015260126024820152600080516020611ccd833981519152604482015290519081900360640190fd5b600a5460011461158a576040805162461bcd60e51b815260206004820152600c60248201526b5661742f6e6f742d6c69766560a01b604482015290519081900360640190fd5b6001600160a01b0316600090815260208190526040812055565b3360009081526001602081815260408084206001600160a01b0395909516845293905291902055565b3360009081526020819052604090205460011461161f576040805162461bcd60e51b81526020600482015260126024820152600080516020611ccd833981519152604482015290519081900360640190fd5b600a54600114611665576040805162461bcd60e51b815260206004820152600c60248201526b5661742f6e6f742d6c69766560a01b604482015290519081900360640190fd5b600083815260026020526040902060018101546116829083611a61565b600182015580546000906116969084611afa565b6001600160a01b0385166000908152600560205260409020549091506116bc9082611a61565b6001600160a01b0385166000908152600560205260409020556007546116e29082611a61565b6007555050505050565b60095481565b6116fc833361199d565b61173f576040805162461bcd60e51b815260206004820152600f60248201526e15985d0bdb9bdd0b585b1b1bddd959608a1b604482015290519081900360640190fd5b6001600160a01b03831660009081526005602052604090205461176290826119dd565b6001600160a01b0380851660009081526005602052604080822093909355908416815220546117919082611a1f565b6001600160a01b039092166000908152600560205260409020919091555050565b60006020819052908152604090205481565b600260208190526000918252604090912080546001820154928201546003830154600490930154919392909185565b3360009081526001602090815260408083206001600160a01b0394909416835292905290812055565b60066020526000908152604090205481565b33600090815260208190526040902054600114611880576040805162461bcd60e51b81526020600482015260126024820152600080516020611ccd833981519152604482015290519081900360640190fd5b6001600160a01b0383166000908152600660205260409020546118a39082611a1f565b6001600160a01b038085166000908152600660209081526040808320949094559185168152600590915220546118d99082611a1f565b6001600160a01b0383166000908152600560205260409020556008546118ff9082611a1f565b60085560075461190f9082611a1f565b600755505050565b3360008181526006602052604090205461193190836119dd565b6001600160a01b03821660009081526006602090815260408083209390935560059052205461196090836119dd565b6001600160a01b03821660009081526005602052604090205560085461198690836119dd565b60085560075461199690836119dd565b6007555050565b6001600160a01b0382811660008181526001602081815260408084209587168085529590915282205491936119d493149114611be6565b90505b92915050565b808203828111156119d7576040805162461bcd60e51b81526020600482015260076024820152662b30ba17b9bab160c91b604482015290519081900360640190fd5b808201828110156119d7576040805162461bcd60e51b815260206004820152600760248201526615985d0bd8591960ca1b604482015290519081900360640190fd5b818101600082121580611a745750828111155b611aaf576040805162461bcd60e51b815260206004820152600760248201526615985d0bd8591960ca1b604482015290519081900360640190fd5b600082131580611abf5750828110155b6119d7576040805162461bcd60e51b815260206004820152600760248201526615985d0bd8591960ca1b604482015290519081900360640190fd5b8181026000831215611b3d576040805162461bcd60e51b815260206004820152600760248201526615985d0bdb5d5b60ca1b604482015290519081900360640190fd5b811580611b52575082828281611b4f57fe5b05145b6119d7576040805162461bcd60e51b815260206004820152600760248201526615985d0bdb5d5b60ca1b604482015290519081900360640190fd5b6000811580611b5257505080820282828281611ba557fe5b04146119d7576040805162461bcd60e51b815260206004820152600760248201526615985d0bdb5d5b60ca1b604482015290519081900360640190fd5b1690565b1790565b808203600082131580611bfd5750828111155b611c38576040805162461bcd60e51b81526020600482015260076024820152662b30ba17b9bab160c91b604482015290519081900360640190fd5b600082121580611c485750828110155b6119d7576040805162461bcd60e51b81526020600482015260076024820152662b30ba17b9bab160c91b604482015290519081900360640190fd5b604051806040016040528060008152602001600081525090565b6040518060a001604052806000815260200160008152602001600081526020016000815260200160008152509056fe5661742f6e6f742d617574686f72697a65640000000000000000000000000000a2646970667358221220a15412f9a525a07bb453849a956120ad3a94cb1d7ae8901972c4ef192296a32764736f6c634300060a0033",
  "source": "// SPDX-License-Identifier: AGPL-3.0-or-later\npragma solidity ^0.6.0;\n\n/// vat.sol -- Dai CDP database\n\n// Copyright (C) 2018 Rain <rainbreak@riseup.net>\n//\n// This program is free software: you can redistribute it and/or modify\n// it under the terms of the GNU Affero General Public License as published by\n// the Free Software Foundation, either version 3 of the License, or\n// (at your option) any later version.\n//\n// This program is distributed in the hope that it will be useful,\n// but WITHOUT ANY WARRANTY; without even the implied warranty of\n// MERCHANTABILITY or FITNESS FOR A PARTICULAR PURPOSE.  See the\n// GNU Affero General Public License for more details.\n//\n// You should have received a copy of the GNU Affero General Public License\n// along with this program.  If not, see <https://www.gnu.org/licenses/>.\nimport \"@nomiclabs/buidler/console.sol\";\n\n\ncontract Vat {\n    // --- Auth ---\n    mapping (address => uint) public wards;\n    function rely(address usr) external note auth { require(live == 1, \"Vat/not-live\"); wards[usr] = 1; }\n    function deny(address usr) external note auth { require(live == 1, \"Vat/not-live\"); wards[usr] = 0; }\n    modifier auth {\n        require(wards[msg.sender] == 1, \"Vat/not-authorized\");\n        _;\n    }\n\n    mapping(address => mapping (address => uint)) public can;\n    function hope(address usr) external note { can[msg.sender][usr] = 1; }\n    function nope(address usr) external note { can[msg.sender][usr] = 0; }\n    function wish(address bit, address usr) internal view returns (bool) {\n        return either(bit == usr, can[bit][usr] == 1);\n    }\n\n    // --- Data ---\n    struct Ilk {\n        uint256 Art;   // Total Normalised Debt     [wad]\n        uint256 rate;  // Accumulated Rates         [ray]\n        uint256 spot;  // Price with Safety Margin  [ray]\n        uint256 line;  // Debt Ceiling              [rad]\n        uint256 dust;  // Urn Debt Floor            [rad]\n    }\n    struct Urn {\n        uint256 ink;   // Locked Collateral  [wad]\n        uint256 art;   // Normalised Debt    [wad]\n    }\n\n    mapping (bytes32 => Ilk)                       public ilks;\n    mapping (bytes32 => mapping (address => Urn )) public urns;\n    mapping (bytes32 => mapping (address => uint)) public gem;  // [wad]\n    mapping (address => uint256)                   public dai;  // [rad]\n    mapping (address => uint256)                   public sin;  // [rad]\n\n    uint256 public debt;  // Total Dai Issued    [rad]\n    uint256 public vice;  // Total Unbacked Dai  [rad]\n    uint256 public Line;  // Total Debt Ceiling  [rad]\n    uint256 public live;  // Access Flag\n\n    // --- Logs ---\n    event LogNote(\n        bytes4   indexed  sig,\n        bytes32  indexed  arg1,\n        bytes32  indexed  arg2,\n        bytes32  indexed  arg3,\n        bytes             data\n    ) anonymous;\n\n    modifier note {\n        _;\n        //removed logging\n    }\n\n    // --- Init ---\n    constructor() public {\n        wards[msg.sender] = 1;\n        live = 1;\n    }\n\n    // --- Math ---\n    function add_(uint x, int y) internal pure returns (uint z) {\n        z = x + uint(y);\n        require(y >= 0 || z <= x, \"Vat/add\");\n        require(y <= 0 || z >= x, \"Vat/add\");\n    }\n    function sub_(uint x, int y) internal pure returns (uint z) {\n        z = x - uint(y);\n        require(y <= 0 || z <= x, \"Vat/sub\");\n        require(y >= 0 || z >= x, \"Vat/sub\");\n    }\n    function mul_(uint x, int y) internal pure returns (int z) {\n        z = int(x) * y;\n        require(int(x) >= 0, \"Vat/mul\");\n        require(y == 0 || z / y == int(x), \"Vat/mul\");\n    }\n    function add_(uint x, uint y) internal pure returns (uint z) {\n        require((z = x + y) >= x, \"Vat/add\");\n    }\n    function sub_(uint x, uint y) internal pure returns (uint z) {\n        require((z = x - y) <= x, \"Vat/sub\");\n    }\n    function mul_(uint x, uint y) internal pure returns (uint z) {\n        require(y == 0 || (z = x * y) / y == x, \"Vat/mul\");\n    }\n\n    // --- Administration ---\n    function init(bytes32 ilk) external note auth {\n        require(ilks[ilk].rate == 0, \"Vat/ilk-already-init\");\n        ilks[ilk].rate = 10 ** 27;\n    }\n    function file(bytes32 what, uint data) external note auth {\n        require(live == 1, \"Vat/not-live\");\n        if (what == \"Line\") Line = data;\n        else revert(\"Vat/file-unrecognized-param\");\n    }\n    function file(bytes32 ilk, bytes32 what, uint data) external note auth {\n        require(live == 1, \"Vat/not-live\");\n        if (what == \"spot\") ilks[ilk].spot = data;\n        else if (what == \"line\") ilks[ilk].line = data;\n        else if (what == \"dust\") ilks[ilk].dust = data;\n        else revert(\"Vat/file-unrecognized-param\");\n    }\n    function cage() external note auth {\n        live = 0;\n    }\n\n    // --- Fungibility ---\n    function slip(bytes32 ilk, address usr, int256 wad) external note auth {\n        gem[ilk][usr] = add_(gem[ilk][usr], wad);\n    }\n    function flux(bytes32 ilk, address src, address dst, uint256 wad) external note {\n        require(wish(src, msg.sender), \"Vat/not-allowed\");\n        gem[ilk][src] = sub_(gem[ilk][src], wad);\n        gem[ilk][dst] = add_(gem[ilk][dst], wad);\n    }\n    function move(address src, address dst, uint256 rad) external note {\n        require(wish(src, msg.sender), \"Vat/not-allowed\");\n        dai[src] = sub_(dai[src], rad);\n        dai[dst] = add_(dai[dst], rad);\n    }\n\n    function either(bool x, bool y) internal pure returns (bool z) {\n        assembly{ z := or(x, y)}\n    }\n    function both(bool x, bool y) internal pure returns (bool z) {\n        assembly{ z := and(x, y)}\n    }\n\n    // --- CDP Manipulation ---\n    function frob(bytes32 i, address u, address v, address w, int dink, int dart) external note {\n        // system is live\n        require(live == 1, \"Vat/not-live\");\n\n        Urn memory urn = urns[i][u];\n        Ilk memory ilk = ilks[i];\n        // ilk has been initialised\n        require(ilk.rate != 0, \"Vat/ilk-not-init\");\n\n        urn.ink = add_(urn.ink, dink);\n        urn.art = add_(urn.art, dart);\n        ilk.Art = add_(ilk.Art, dart);\n\n        int dtab = mul_(ilk.rate, dart);\n        uint tab = mul_(ilk.rate, urn.art);\n        debt     = add_(debt, dtab);\n\n        // either debt has decreased, or debt ceilings are not exceeded\n        require(either(dart <= 0, both(mul_(ilk.Art, ilk.rate) <= ilk.line, debt <= Line)), \"Vat/ceiling-exceeded\");\n        // urn is either less risky than before, or it is safe\n        require(either(both(dart <= 0, dink >= 0), tab <= mul_(urn.ink, ilk.spot)), \"Vat/not-safe\");\n\n        // urn is either more safe, or the owner consents\n        require(either(both(dart <= 0, dink >= 0), wish(u, msg.sender)), \"Vat/not-allowed-u\");\n        // collateral src consents\n        require(either(dink <= 0, wish(v, msg.sender)), \"Vat/not-allowed-v\");\n        // debt dst consents\n        require(either(dart >= 0, wish(w, msg.sender)), \"Vat/not-allowed-w\");\n\n        // urn has no debt, or a non-dusty amount\n        require(either(urn.art == 0, tab >= ilk.dust), \"Vat/dust\");\n\n        gem[i][v] = sub_(gem[i][v], dink);\n        dai[w]    = add_(dai[w],    dtab);\n\n        urns[i][u] = urn;\n        ilks[i]    = ilk;\n    }\n    // --- CDP Fungibility ---\n    function fork(bytes32 ilk, address src, address dst, int dink, int dart) external note {\n        Urn storage u = urns[ilk][src];\n        Urn storage v = urns[ilk][dst];\n        Ilk storage i = ilks[ilk];\n\n        u.ink = sub_(u.ink, dink);\n        u.art = sub_(u.art, dart);\n        v.ink = add_(v.ink, dink);\n        v.art = add_(v.art, dart);\n\n        uint utab = mul_(u.art, i.rate);\n        uint vtab = mul_(v.art, i.rate);\n\n        // both sides consent\n        require(both(wish(src, msg.sender), wish(dst, msg.sender)), \"Vat/not-allowed\");\n\n        // both sides safe\n        require(utab <= mul_(u.ink, i.spot), \"Vat/not-safe-src\");\n        require(vtab <= mul_(v.ink, i.spot), \"Vat/not-safe-dst\");\n\n        // both sides non-dusty\n        require(either(utab >= i.dust, u.art == 0), \"Vat/dust-src\");\n        require(either(vtab >= i.dust, v.art == 0), \"Vat/dust-dst\");\n    }\n    // --- CDP Confiscation ---\n    function grab(bytes32 i, address u, address v, address w, int dink, int dart) external note auth {\n        Urn storage urn = urns[i][u];\n        Ilk storage ilk = ilks[i];\n\n        urn.ink = add_(urn.ink, dink);\n        urn.art = add_(urn.art, dart);\n        ilk.Art = add_(ilk.Art, dart);\n\n        int dtab = mul_(ilk.rate, dart);\n\n        gem[i][v] = sub_(gem[i][v], dink);\n        sin[w]    = sub_(sin[w],    dtab);\n        vice      = sub_(vice,      dtab);\n    }\n\n    // --- Settlement ---\n    function heal(uint rad) external note {\n        address u = msg.sender;\n        sin[u] = sub_(sin[u], rad);\n        dai[u] = sub_(dai[u], rad);\n        vice   = sub_(vice,   rad);\n        debt   = sub_(debt,   rad);\n    }\n    function suck(address u, address v, uint rad) external note auth {\n        sin[u] = add_(sin[u], rad);\n        dai[v] = add_(dai[v], rad);\n        vice   = add_(vice,   rad);\n        debt   = add_(debt,   rad);\n    }\n\n    // --- Rates ---\n    function fold(bytes32 i, address u, int rate) external note auth {\n        require(live == 1, \"Vat/not-live\");\n        Ilk storage ilk = ilks[i];\n        ilk.rate = add_(ilk.rate, rate);\n        int rad  = mul_(ilk.Art, rate);\n        dai[u]   = add_(dai[u], rad);\n        debt     = add_(debt,   rad);\n    }\n}",
  "sourcePath": "/Users/bruce/dev/yieldprotocol/ytoken-mvp/contracts/external/maker/vat.sol",
  "compiler": {
    "name": "solc",
    "version": "0.6.10+commit.00c0fcaf.Emscripten.clang"
  },
  "schemaVersion": "3.0.23",
  "updatedAt": "2020-07-15T08:10:30.719Z",
  "networkType": "ethereum",
  "devdoc": {
    "methods": {}
  },
  "userdoc": {
    "methods": {}
  }
}