{
  "contractName": "WethOracle",
  "abi": [
    {
      "inputs": [
        {
          "internalType": "address",
          "name": "vat_",
          "type": "address"
        }
      ],
      "stateMutability": "nonpayable",
      "type": "constructor"
    },
    {
      "inputs": [],
      "name": "RAD",
      "outputs": [
        {
          "internalType": "uint8",
          "name": "",
          "type": "uint8"
        }
      ],
      "stateMutability": "view",
      "type": "function",
      "constant": true
    },
    {
      "inputs": [],
      "name": "RAY",
      "outputs": [
        {
          "internalType": "uint8",
          "name": "",
          "type": "uint8"
        }
      ],
      "stateMutability": "view",
      "type": "function",
      "constant": true
    },
    {
      "inputs": [],
      "name": "WAD",
      "outputs": [
        {
          "internalType": "uint8",
          "name": "",
          "type": "uint8"
        }
      ],
      "stateMutability": "view",
      "type": "function",
      "constant": true
    },
    {
      "inputs": [],
      "name": "_vat",
      "outputs": [
        {
          "internalType": "contract IVat",
          "name": "",
          "type": "address"
        }
      ],
      "stateMutability": "view",
      "type": "function",
      "constant": true
    },
    {
      "inputs": [],
      "name": "price",
      "outputs": [
        {
          "internalType": "uint256",
          "name": "",
          "type": "uint256"
        }
      ],
      "stateMutability": "nonpayable",
      "type": "function"
    }
  ],
  "bytecode": "0x608060405234801561001057600080fd5b506040516105c53803806105c58339818101604052602081101561003357600080fd5b8101908080519060200190929190505050806000806101000a81548173ffffffffffffffffffffffffffffffffffffffff021916908373ffffffffffffffffffffffffffffffffffffffff16021790555050610531806100946000396000f3fe608060405234801561001057600080fd5b50600436106100575760003560e01c806306f405fd1461005c578063552033c4146100805780636a146024146100a4578063a035b1fe146100c8578063ca7b3b78146100e6575b600080fd5b610064610130565b604051808260ff1660ff16815260200191505060405180910390f35b610088610135565b604051808260ff1660ff16815260200191505060405180910390f35b6100ac61013a565b604051808260ff1660ff16815260200191505060405180910390f35b6100d061013f565b6040518082815260200191505060405180910390f35b6100ee61025d565b604051808273ffffffffffffffffffffffffffffffffffffffff1673ffffffffffffffffffffffffffffffffffffffff16815260200191505060405180910390f35b602d81565b601b81565b601281565b60008060008060009054906101000a900473ffffffffffffffffffffffffffffffffffffffff1673ffffffffffffffffffffffffffffffffffffffff1663d9638d366040518163ffffffff1660e01b815260040180807f4554482d41000000000000000000000000000000000000000000000000000000815250602001905060a06040518083038186803b1580156101d657600080fd5b505afa1580156101ea573d6000803e3d6000fd5b505050506040513d60a081101561020057600080fd5b8101908080519060200190929190805190602001909291908051906020019092919080519060200190929190805190602001909291905050505050925092505061025682601b836102829092919063ffffffff16565b9250505090565b6000809054906101000a900473ffffffffffffffffffffffffffffffffffffffff1681565b60006102b1836102a3610294856102ba565b8761034490919063ffffffff16565b6103ca90919063ffffffff16565b90509392505050565b6000604d8260ff161115610336576040517f08c379a00000000000000000000000000000000000000000000000000000000081526004018080602001828103825260118152602001807f546f6f206d616e7920646563696d616c7300000000000000000000000000000081525060200191505060405180910390fd5b8160ff16600a0a9050919050565b60008083141561035757600090506103c4565b600082840290508284828161036857fe5b04146103bf576040517f08c379a00000000000000000000000000000000000000000000000000000000081526004018080602001828103825260218152602001806104db6021913960400191505060405180910390fd5b809150505b92915050565b600061040c83836040518060400160405280601a81526020017f536166654d6174683a206469766973696f6e206279207a65726f000000000000815250610414565b905092915050565b600080831182906104c0576040517f08c379a00000000000000000000000000000000000000000000000000000000081526004018080602001828103825283818151815260200191508051906020019080838360005b8381101561048557808201518184015260208101905061046a565b50505050905090810190601f1680156104b25780820380516001836020036101000a031916815260200191505b509250505060405180910390fd5b5060008385816104cc57fe5b04905080915050939250505056fe536166654d6174683a206d756c7469706c69636174696f6e206f766572666c6f77a26469706673582212207bed00037c4ac7b890a5f71f5527de0ae8445a4bfc4d8b1a2569a8978fe652fb64736f6c63430006020033",
  "source": "pragma solidity ^0.6.2;\nimport \"@hq20/contracts/contracts/math/DecimalMath.sol\";\nimport \"./interfaces/IVat.sol\";\nimport \"./interfaces/IOracle.sol\";\nimport \"./Constants.sol\";\n\n\n/// @dev WethOracle returns the price of Weth as retrieved from MakerDAO\ncontract WethOracle is IOracle, Constants {\n    using DecimalMath for uint256;\n    IVat public _vat;\n\n    /// @dev To calculate price we retrieve rate and spot from Vat\n    constructor (address vat_) public {\n        _vat = IVat(vat_);\n    }\n\n    /// @dev Price is (spot / rate)\n    /// collateral = price * dai\n    function price() public override returns(uint256) {\n        (,uint256 rate, uint256 spot,,) = _vat.ilks(\"ETH-A\");  // Stability fee and collateralization ratio for Weth\n        return spot.divd(rate, RAY);\n    }\n}",
  "sourcePath": "/Users/bruce/dev/yieldprotocol/ytoken-mvp/contracts/WethOracle.sol",
  "compiler": {
    "name": "solc",
    "version": "0.6.2+commit.bacdbe57.Emscripten.clang"
  },
  "schemaVersion": "3.0.23",
  "updatedAt": "2020-06-01T11:27:33.011Z",
  "networkType": "ethereum",
  "devdoc": {
    "details": "WethOracle returns the price of Weth as retrieved from MakerDAO",
    "methods": {
      "constructor": {
        "details": "To calculate price we retrieve rate and spot from Vat"
      },
      "price()": {
        "details": "Price is (spot / rate) collateral = price * dai"
      }
    }
  },
  "userdoc": {
    "methods": {}
  }
}