{
  "contractName": "WethOracle",
  "abi": [
    {
      "inputs": [
        {
          "internalType": "address",
          "name": "vat_",
          "type": "address"
        }
      ],
      "stateMutability": "nonpayable",
      "type": "constructor"
    },
    {
      "inputs": [],
      "name": "_vat",
      "outputs": [
        {
          "internalType": "contract IVat",
          "name": "",
          "type": "address"
        }
      ],
      "stateMutability": "view",
      "type": "function",
      "constant": true
    },
    {
      "inputs": [],
      "name": "price",
      "outputs": [
        {
          "internalType": "uint256",
          "name": "",
          "type": "uint256"
        }
      ],
      "stateMutability": "nonpayable",
      "type": "function"
    }
  ],
  "bytecode": "0x608060405234801561001057600080fd5b506040516102973803806102978339818101604052602081101561003357600080fd5b8101908080519060200190929190505050806000806101000a81548173ffffffffffffffffffffffffffffffffffffffff021916908373ffffffffffffffffffffffffffffffffffffffff16021790555050610203806100946000396000f3fe608060405234801561001057600080fd5b50600436106100365760003560e01c8063a035b1fe1461003b578063ca7b3b7814610059575b600080fd5b6100436100a3565b6040518082815260200191505060405180910390f35b6100616101a8565b604051808273ffffffffffffffffffffffffffffffffffffffff1673ffffffffffffffffffffffffffffffffffffffff16815260200191505060405180910390f35b6000806000809054906101000a900473ffffffffffffffffffffffffffffffffffffffff1673ffffffffffffffffffffffffffffffffffffffff1663d9638d366040518163ffffffff1660e01b815260040180807f4554482d41000000000000000000000000000000000000000000000000000000815250602001905060a06040518083038186803b15801561013857600080fd5b505afa15801561014c573d6000803e3d6000fd5b505050506040513d60a081101561016257600080fd5b8101908080519060200190929190805190602001909291908051906020019092919080519060200190929190805190602001909291905050505050925050508091505090565b6000809054906101000a900473ffffffffffffffffffffffffffffffffffffffff168156fea26469706673582212204db8121abe1ea529fde5eafddc32158f41679793c17623c05424a8404b55ff5c64736f6c63430006020033",
  "source": "pragma solidity ^0.6.2;\nimport \"./interfaces/IVat.sol\";\nimport \"./interfaces/IOracle.sol\";\n\n\n/// @dev WethOracle returns the price of Weth as retrieved from MakerDAO\ncontract WethOracle is IOracle {\n    IVat public _vat;\n\n    /// @dev To calculate price we retrieve rate and spot from Vat\n    constructor (address vat_) public {\n        _vat = IVat(vat_);\n    }\n\n    /// @dev We retrieve the spot in MakerDAO and return it as the price\n    /// weth = 1/spot * dai\n    /// dai = spot * weth\n    /// price = spot\n    function price() public override returns(uint256) {\n        (,, uint256 spot,,) = _vat.ilks(\"ETH-A\");  // Stability fee and collateralization ratio for Weth\n        return spot;\n    }\n}",
  "sourcePath": "/Users/bruce/dev/yieldprotocol/ytoken-mvp/contracts/WethOracle.sol",
  "compiler": {
    "name": "solc",
    "version": "0.6.2+commit.bacdbe57.Emscripten.clang"
  },
  "schemaVersion": "3.0.23",
  "updatedAt": "2020-07-02T16:09:07.826Z",
  "networkType": "ethereum",
  "devdoc": {
    "details": "WethOracle returns the price of Weth as retrieved from MakerDAO",
    "methods": {
      "constructor": {
        "details": "To calculate price we retrieve rate and spot from Vat"
      },
      "price()": {
        "details": "We retrieve the spot in MakerDAO and return it as the price weth = 1/spot * dai dai = spot * weth price = spot"
      }
    }
  },
  "userdoc": {
    "methods": {}
  }
}