{
  "contractName": "YDai",
  "abi": [
    {
      "inputs": [
        {
          "internalType": "address",
          "name": "vat_",
          "type": "address"
        },
        {
          "internalType": "address",
          "name": "pot_",
          "type": "address"
        },
        {
          "internalType": "address",
          "name": "treasury_",
          "type": "address"
        },
        {
          "internalType": "uint256",
          "name": "maturity_",
          "type": "uint256"
        },
        {
          "internalType": "string",
          "name": "name",
          "type": "string"
        },
        {
          "internalType": "string",
          "name": "symbol",
          "type": "string"
        }
      ],
      "stateMutability": "nonpayable",
      "type": "constructor"
    },
    {
      "anonymous": false,
      "inputs": [
        {
          "indexed": true,
          "internalType": "address",
          "name": "owner",
          "type": "address"
        },
        {
          "indexed": true,
          "internalType": "address",
          "name": "spender",
          "type": "address"
        },
        {
          "indexed": false,
          "internalType": "uint256",
          "name": "value",
          "type": "uint256"
        }
      ],
      "name": "Approval",
      "type": "event"
    },
    {
      "anonymous": false,
      "inputs": [
        {
          "indexed": true,
          "internalType": "address",
          "name": "user",
          "type": "address"
        },
        {
          "indexed": true,
          "internalType": "address",
          "name": "delegate",
          "type": "address"
        },
        {
          "indexed": false,
          "internalType": "bool",
          "name": "enabled",
          "type": "bool"
        }
      ],
      "name": "Delegate",
      "type": "event"
    },
    {
      "anonymous": false,
      "inputs": [
        {
          "indexed": false,
          "internalType": "address",
          "name": "access",
          "type": "address"
        }
      ],
      "name": "GrantedAccess",
      "type": "event"
    },
    {
      "anonymous": false,
      "inputs": [
        {
          "indexed": false,
          "internalType": "uint256",
          "name": "rate",
          "type": "uint256"
        },
        {
          "indexed": false,
          "internalType": "uint256",
          "name": "chi",
          "type": "uint256"
        }
      ],
      "name": "Matured",
      "type": "event"
    },
    {
      "anonymous": false,
      "inputs": [
        {
          "indexed": true,
          "internalType": "address",
          "name": "previousOwner",
          "type": "address"
        },
        {
          "indexed": true,
          "internalType": "address",
          "name": "newOwner",
          "type": "address"
        }
      ],
      "name": "OwnershipTransferred",
      "type": "event"
    },
    {
      "anonymous": false,
      "inputs": [
        {
          "indexed": true,
          "internalType": "address",
          "name": "from",
          "type": "address"
        },
        {
          "indexed": true,
          "internalType": "address",
          "name": "to",
          "type": "address"
        },
        {
          "indexed": false,
          "internalType": "uint256",
          "name": "yDaiIn",
          "type": "uint256"
        },
        {
          "indexed": false,
          "internalType": "uint256",
          "name": "daiOut",
          "type": "uint256"
        }
      ],
      "name": "Redeemed",
      "type": "event"
    },
    {
      "anonymous": false,
      "inputs": [
        {
          "indexed": true,
          "internalType": "address",
          "name": "from",
          "type": "address"
        },
        {
          "indexed": true,
          "internalType": "address",
          "name": "to",
          "type": "address"
        },
        {
          "indexed": false,
          "internalType": "uint256",
          "name": "value",
          "type": "uint256"
        }
      ],
      "name": "Transfer",
      "type": "event"
    },
    {
      "inputs": [],
      "name": "DOMAIN_SEPARATOR",
      "outputs": [
        {
          "internalType": "bytes32",
          "name": "",
          "type": "bytes32"
        }
      ],
      "stateMutability": "view",
      "type": "function",
      "constant": true
    },
    {
      "inputs": [],
      "name": "PERMIT_TYPEHASH",
      "outputs": [
        {
          "internalType": "bytes32",
          "name": "",
          "type": "bytes32"
        }
      ],
      "stateMutability": "view",
      "type": "function",
      "constant": true
    },
    {
      "inputs": [],
      "name": "UNIT",
      "outputs": [
        {
          "internalType": "uint256",
          "name": "",
          "type": "uint256"
        }
      ],
      "stateMutability": "view",
      "type": "function",
      "constant": true
    },
    {
      "inputs": [],
      "name": "WETH",
      "outputs": [
        {
          "internalType": "bytes32",
          "name": "",
          "type": "bytes32"
        }
      ],
      "stateMutability": "view",
      "type": "function",
      "constant": true
    },
    {
      "inputs": [
        {
          "internalType": "address",
          "name": "delegate",
          "type": "address"
        }
      ],
      "name": "addDelegate",
      "outputs": [],
      "stateMutability": "nonpayable",
      "type": "function"
    },
    {
      "inputs": [
        {
          "internalType": "address",
          "name": "owner",
          "type": "address"
        },
        {
          "internalType": "address",
          "name": "spender",
          "type": "address"
        }
      ],
      "name": "allowance",
      "outputs": [
        {
          "internalType": "uint256",
          "name": "",
          "type": "uint256"
        }
      ],
      "stateMutability": "view",
      "type": "function",
      "constant": true
    },
    {
      "inputs": [
        {
          "internalType": "address",
          "name": "spender",
          "type": "address"
        },
        {
          "internalType": "uint256",
          "name": "amount",
          "type": "uint256"
        }
      ],
      "name": "approve",
      "outputs": [
        {
          "internalType": "bool",
          "name": "",
          "type": "bool"
        }
      ],
      "stateMutability": "nonpayable",
      "type": "function"
    },
    {
      "inputs": [
        {
          "internalType": "address",
          "name": "",
          "type": "address"
        }
      ],
      "name": "authorized",
      "outputs": [
        {
          "internalType": "bool",
          "name": "",
          "type": "bool"
        }
      ],
      "stateMutability": "view",
      "type": "function",
      "constant": true
    },
    {
      "inputs": [
        {
          "internalType": "address",
          "name": "account",
          "type": "address"
        }
      ],
      "name": "balanceOf",
      "outputs": [
        {
          "internalType": "uint256",
          "name": "",
          "type": "uint256"
        }
      ],
      "stateMutability": "view",
      "type": "function",
      "constant": true
    },
    {
      "inputs": [],
      "name": "chi0",
      "outputs": [
        {
          "internalType": "uint256",
          "name": "",
          "type": "uint256"
        }
      ],
      "stateMutability": "view",
      "type": "function",
      "constant": true
    },
    {
      "inputs": [],
      "name": "decimals",
      "outputs": [
        {
          "internalType": "uint8",
          "name": "",
          "type": "uint8"
        }
      ],
      "stateMutability": "view",
      "type": "function",
      "constant": true
    },
    {
      "inputs": [
        {
          "internalType": "address",
          "name": "spender",
          "type": "address"
        },
        {
          "internalType": "uint256",
          "name": "subtractedValue",
          "type": "uint256"
        }
      ],
      "name": "decreaseAllowance",
      "outputs": [
        {
          "internalType": "bool",
          "name": "",
          "type": "bool"
        }
      ],
      "stateMutability": "nonpayable",
      "type": "function"
    },
    {
      "inputs": [
        {
          "internalType": "address",
          "name": "",
          "type": "address"
        },
        {
          "internalType": "address",
          "name": "",
          "type": "address"
        }
      ],
      "name": "delegated",
      "outputs": [
        {
          "internalType": "bool",
          "name": "",
          "type": "bool"
        }
      ],
      "stateMutability": "view",
      "type": "function",
      "constant": true
    },
    {
      "inputs": [
        {
          "internalType": "address",
          "name": "spender",
          "type": "address"
        },
        {
          "internalType": "uint256",
          "name": "addedValue",
          "type": "uint256"
        }
      ],
      "name": "increaseAllowance",
      "outputs": [
        {
          "internalType": "bool",
          "name": "",
          "type": "bool"
        }
      ],
      "stateMutability": "nonpayable",
      "type": "function"
    },
    {
      "inputs": [],
      "name": "isMature",
      "outputs": [
        {
          "internalType": "bool",
          "name": "",
          "type": "bool"
        }
      ],
      "stateMutability": "view",
      "type": "function",
      "constant": true
    },
    {
      "inputs": [],
      "name": "maturity",
      "outputs": [
        {
          "internalType": "uint256",
          "name": "",
          "type": "uint256"
        }
      ],
      "stateMutability": "view",
      "type": "function",
      "constant": true
    },
    {
      "inputs": [],
      "name": "name",
      "outputs": [
        {
          "internalType": "string",
          "name": "",
          "type": "string"
        }
      ],
      "stateMutability": "view",
      "type": "function",
      "constant": true
    },
    {
      "inputs": [
        {
          "internalType": "address",
          "name": "",
          "type": "address"
        }
      ],
      "name": "nonces",
      "outputs": [
        {
          "internalType": "uint256",
          "name": "",
          "type": "uint256"
        }
      ],
      "stateMutability": "view",
      "type": "function",
      "constant": true
    },
    {
      "inputs": [
        {
          "internalType": "address",
          "name": "user",
          "type": "address"
        }
      ],
      "name": "orchestrate",
      "outputs": [],
      "stateMutability": "nonpayable",
      "type": "function"
    },
    {
      "inputs": [],
      "name": "owner",
      "outputs": [
        {
          "internalType": "address",
          "name": "",
          "type": "address"
        }
      ],
      "stateMutability": "view",
      "type": "function",
      "constant": true
    },
    {
      "inputs": [
        {
          "internalType": "address",
          "name": "owner",
          "type": "address"
        },
        {
          "internalType": "address",
          "name": "spender",
          "type": "address"
        },
        {
          "internalType": "uint256",
          "name": "amount",
          "type": "uint256"
        },
        {
          "internalType": "uint256",
          "name": "deadline",
          "type": "uint256"
        },
        {
          "internalType": "uint8",
          "name": "v",
          "type": "uint8"
        },
        {
          "internalType": "bytes32",
          "name": "r",
          "type": "bytes32"
        },
        {
          "internalType": "bytes32",
          "name": "s",
          "type": "bytes32"
        }
      ],
      "name": "permit",
      "outputs": [],
      "stateMutability": "nonpayable",
      "type": "function"
    },
    {
      "inputs": [],
      "name": "rate0",
      "outputs": [
        {
          "internalType": "uint256",
          "name": "",
          "type": "uint256"
        }
      ],
      "stateMutability": "view",
      "type": "function",
      "constant": true
    },
    {
      "inputs": [],
      "name": "renounceOwnership",
      "outputs": [],
      "stateMutability": "nonpayable",
      "type": "function"
    },
    {
      "inputs": [
        {
          "internalType": "address",
          "name": "delegate",
          "type": "address"
        }
      ],
      "name": "revokeDelegate",
      "outputs": [],
      "stateMutability": "nonpayable",
      "type": "function"
    },
    {
      "inputs": [],
      "name": "symbol",
      "outputs": [
        {
          "internalType": "string",
          "name": "",
          "type": "string"
        }
      ],
      "stateMutability": "view",
      "type": "function",
      "constant": true
    },
    {
      "inputs": [],
      "name": "totalSupply",
      "outputs": [
        {
          "internalType": "uint256",
          "name": "",
          "type": "uint256"
        }
      ],
      "stateMutability": "view",
      "type": "function",
      "constant": true
    },
    {
      "inputs": [
        {
          "internalType": "address",
          "name": "recipient",
          "type": "address"
        },
        {
          "internalType": "uint256",
          "name": "amount",
          "type": "uint256"
        }
      ],
      "name": "transfer",
      "outputs": [
        {
          "internalType": "bool",
          "name": "",
          "type": "bool"
        }
      ],
      "stateMutability": "nonpayable",
      "type": "function"
    },
    {
      "inputs": [
        {
          "internalType": "address",
          "name": "sender",
          "type": "address"
        },
        {
          "internalType": "address",
          "name": "recipient",
          "type": "address"
        },
        {
          "internalType": "uint256",
          "name": "amount",
          "type": "uint256"
        }
      ],
      "name": "transferFrom",
      "outputs": [
        {
          "internalType": "bool",
          "name": "",
          "type": "bool"
        }
      ],
      "stateMutability": "nonpayable",
      "type": "function"
    },
    {
      "inputs": [
        {
          "internalType": "address",
          "name": "newOwner",
          "type": "address"
        }
      ],
      "name": "transferOwnership",
      "outputs": [],
      "stateMutability": "nonpayable",
      "type": "function"
    },
    {
      "inputs": [],
      "name": "chiGrowth",
      "outputs": [
        {
          "internalType": "uint256",
          "name": "",
          "type": "uint256"
        }
      ],
      "stateMutability": "view",
      "type": "function",
      "constant": true
    },
    {
      "inputs": [],
      "name": "rateGrowth",
      "outputs": [
        {
          "internalType": "uint256",
          "name": "",
          "type": "uint256"
        }
      ],
      "stateMutability": "view",
      "type": "function",
      "constant": true
    },
    {
      "inputs": [],
      "name": "mature",
      "outputs": [],
      "stateMutability": "nonpayable",
      "type": "function"
    },
    {
      "inputs": [
        {
          "internalType": "address",
          "name": "from",
          "type": "address"
        },
        {
          "internalType": "address",
          "name": "to",
          "type": "address"
        },
        {
          "internalType": "uint256",
          "name": "yDaiAmount",
          "type": "uint256"
        }
      ],
      "name": "redeem",
      "outputs": [],
      "stateMutability": "nonpayable",
      "type": "function"
    },
    {
      "inputs": [
        {
          "internalType": "address",
          "name": "to",
          "type": "address"
        },
        {
          "internalType": "uint256",
          "name": "yDaiAmount",
          "type": "uint256"
        },
        {
          "internalType": "bytes",
          "name": "data",
          "type": "bytes"
        }
      ],
      "name": "flashMint",
      "outputs": [],
      "stateMutability": "nonpayable",
      "type": "function"
    },
    {
      "inputs": [
        {
          "internalType": "address",
          "name": "to",
          "type": "address"
        },
        {
          "internalType": "uint256",
          "name": "yDaiAmount",
          "type": "uint256"
        }
      ],
      "name": "mint",
      "outputs": [],
      "stateMutability": "nonpayable",
      "type": "function"
    },
    {
      "inputs": [
        {
          "internalType": "address",
          "name": "from",
          "type": "address"
        },
        {
          "internalType": "uint256",
          "name": "yDaiAmount",
          "type": "uint256"
        }
      ],
      "name": "burn",
      "outputs": [],
      "stateMutability": "nonpayable",
      "type": "function"
    }
  ],
  "bytecode": "0x60c06040819052806052620025e58239604051908190036052019020608052503480156200002c57600080fd5b506040516200268938038062002689833981810160405260c08110156200005257600080fd5b81516020830151604080850151606086015160808701805193519597949692959194919392820192846401000000008211156200008e57600080fd5b908301906020820185811115620000a457600080fd5b8251640100000000811182820188101715620000bf57600080fd5b82525081516020918201929091019080838360005b83811015620000ee578181015183820152602001620000d4565b50505050905090810190601f1680156200011c5780820380516001836020036101000a031916815260200191505b50604052602001805160405193929190846401000000008211156200014057600080fd5b9083019060208201858111156200015657600080fd5b82516401000000008111828201881017156200017157600080fd5b82525081516020918201929091019080838360005b83811015620001a057818101518382015260200162000186565b50505050905090810190601f168015620001ce5780820380516001836020036101000a031916815260200191505b5060405250505081816000620001e96200037860201b60201c565b600080546001600160a01b0319166001600160a01b0383169081178255604051929350917f8be0079c531659141344cd1fd0a4f28419497f9722a3daafe3b4186f6b6457e0908290a35081516200024890600690602085019062000417565b5080516200025e90600790602084019062000417565b50506008805460ff1916601217905550604051469080605262002637823960405190819003605201902090506200029d6001600160e01b036200037d16565b805160209182012060408051808201825260018152603160f81b90840152805180840194909452838101919091527fc89efdaa54c0f20c7adf612882df0950f5a951637e0307cdcb4c672f298b8bc6606084015260808301939093523060a08084019190915283518084038201815260c0909301909352815191012090525050600a80546001600160a01b03199081166001600160a01b0396871617909155600b8054821694861694909417909355600c805490931691909316179055600d556b033b2e3c9fd0803ce8000000600e819055600f55620004b9565b335b90565b60068054604080516020601f60026000196101006001881615020190951694909404938401819004810282018101909252828152606093909290918301828280156200040d5780601f10620003e1576101008083540402835291602001916200040d565b820191906000526020600020905b815481529060010190602001808311620003ef57829003601f168201915b5050505050905090565b828054600181600116156101000203166002900490600052602060002090601f016020900481019282601f106200045a57805160ff19168380011785556200048a565b828001600101855582156200048a579182015b828111156200048a5782518255916020019190600101906200046d565b50620004989291506200049c565b5090565b6200037a91905b80821115620004985760008155600101620004a3565b60805160a0516120fe620004e760003980610af052806114c2525080610ac3528061145552506120fe6000f3fe608060405234801561001057600080fd5b506004361061021c5760003560e01c80638da5cb5b11610125578063ae4e7fdf116100ad578063dd62ed3e1161007c578063dd62ed3e1461065a578063e71bdf4114610688578063f2fde38b146106ae578063f6bcbd31146106d4578063fa352c00146107025761021c565b8063ae4e7fdf146105d3578063b9181611146105db578063cb24019814610601578063d505accf146106095761021c565b80639dc29fac116100f45780639dc29fac1461053f578063a457c2d71461056b578063a9059cbb14610597578063abf1614b146105c3578063ad5c4648146105cb5761021c565b80638da5cb5b1461050357806393c19e181461052757806395d89b411461052f5780639d8e2177146105375761021c565b80633644e515116101a857806370a082311161017757806370a0823114610481578063715018a6146104a75780637ecebe00146104af57806380f5a440146104d557806387b65207146104fb5761021c565b80633644e5151461039c57806339509351146103a45780633ea21465146103d057806340c10f19146104555761021c565b806318160ddd116101ef57806318160ddd14610330578063204f83f91461033857806323b872dd1461034057806330adf81f14610376578063313ce5671461037e5761021c565b806306fdde0314610221578063095ea7b31461029e5780630e6dfcd5146102de57806312970eac14610316575b600080fd5b610229610728565b6040805160208082528351818301528351919283929083019185019080838360005b8381101561026357818101518382015260200161024b565b50505050905090810190601f1680156102905780820380516001836020036101000a031916815260200191505b509250505060405180910390f35b6102ca600480360360408110156102b457600080fd5b506001600160a01b0381351690602001356107bf565b604080519115158252519081900360200190f35b610314600480360360608110156102f457600080fd5b506001600160a01b038135811691602081013590911690604001356107dd565b005b61031e610a22565b60408051918252519081900360200190f35b61031e610a28565b61031e610a2e565b6102ca6004803603606081101561035657600080fd5b506001600160a01b03813581169160208101359091169060400135610a34565b61031e610ac1565b610386610ae5565b6040805160ff9092168252519081900360200190f35b61031e610aee565b6102ca600480360360408110156103ba57600080fd5b506001600160a01b038135169060200135610b12565b610314600480360360608110156103e657600080fd5b6001600160a01b038235169160208101359181019060608101604082013564010000000081111561041657600080fd5b82018360208201111561042857600080fd5b8035906020019184600183028401116401000000008311171561044a57600080fd5b509092509050610b66565b6103146004803603604081101561046b57600080fd5b506001600160a01b038135169060200135610c20565b61031e6004803603602081101561049757600080fd5b50356001600160a01b0316610cbe565b610314610cd9565b61031e600480360360208110156104c557600080fd5b50356001600160a01b0316610d8d565b610314600480360360208110156104eb57600080fd5b50356001600160a01b0316610d9f565b610314610e65565b61050b611081565b604080516001600160a01b039092168252519081900360200190f35b61031e611090565b610229611096565b61031e6110f7565b6103146004803603604081101561055557600080fd5b506001600160a01b038135169060200135611107565b6102ca6004803603604081101561058157600080fd5b506001600160a01b0381351690602001356111a0565b6102ca600480360360408110156105ad57600080fd5b506001600160a01b03813516906020013561120e565b61031e611222565b61031e6112f4565b6102ca611300565b6102ca600480360360208110156105f157600080fd5b50356001600160a01b0316611310565b61031e611325565b610314600480360360e081101561061f57600080fd5b506001600160a01b03813581169160208101359091169060408101359060608101359060ff6080820135169060a08101359060c001356113d6565b61031e6004803603604081101561067057600080fd5b506001600160a01b0381358116916020013516611604565b6103146004803603602081101561069e57600080fd5b50356001600160a01b031661162f565b610314600480360360208110156106c457600080fd5b50356001600160a01b031661169b565b6102ca600480360360408110156106ea57600080fd5b506001600160a01b03813581169160200135166117a5565b6103146004803603602081101561071857600080fd5b50356001600160a01b03166117c5565b60068054604080516020601f60026000196101006001881615020190951694909404938401819004810282018101909252828152606093909290918301828280156107b45780601f10610789576101008083540402835291602001916107b4565b820191906000526020600020905b81548152906001019060200180831161079757829003601f168201915b505050505090505b90565b60006107d36107cc611828565b848461182c565b5060015b92915050565b60408051808201909152601d81527f594461693a204f6e6c7920486f6c646572204f722044656c656761746500000060208201528390336001600160a01b038316148061084d57506001600160a01b038216600090815260026020908152604080832033845290915290205460ff165b81906108d75760405162461bcd60e51b81526004018080602001828103825283818151815260200191508051906020019080838360005b8381101561089c578181015183820152602001610884565b50505050905090810190601f1680156108c95780820380516001836020036101000a031916815260200191505b509250505060405180910390fd5b50600c54600160a01b900460ff16151560011461093b576040805162461bcd60e51b815260206004820152601860248201527f594461693a2079446169206973206e6f74206d61747572650000000000000000604482015290519081900360640190fd5b6109458584611918565b600061095884610953611325565b611a20565b600c5460408051635502770360e01b81526001600160a01b03898116600483015260248201859052915193945091169163550277039160448082019260009290919082900301818387803b1580156109af57600080fd5b505af11580156109c3573d6000803e3d6000fd5b50505050846001600160a01b0316866001600160a01b03167f5cdf07ad0fc222442720b108e3ed4c4640f0fadc2ab2253e66f259a0fea834808684604051808381526020018281526020019250505060405180910390a3505050505050565b600e5481565b60055490565b600d5481565b6000610a41848484611a55565b610ab784610a4d611828565b610ab285604051806060016040528060288152602001612012602891396001600160a01b038a16600090815260046020526040812090610a8b611828565b6001600160a01b03168152602081019190915260400160002054919063ffffffff611bbe16565b61182c565b5060019392505050565b7f000000000000000000000000000000000000000000000000000000000000000081565b60085460ff1690565b7f000000000000000000000000000000000000000000000000000000000000000081565b60006107d3610b1f611828565b84610ab28560046000610b30611828565b6001600160a01b03908116825260208083019390935260409182016000908120918c16815292529020549063ffffffff611c1816565b610b708484611c72565b60405163bdd26b3160e01b81526001600160a01b038516600482019081526024820185905260606044830190815260648301849052339263bdd26b319288928892889288929091608401848480828437600081840152601f19601f82011690508083019250505095505050505050600060405180830381600087803b158015610bf857600080fd5b505af1158015610c0c573d6000803e3d6000fd5b50505050610c1a8484611918565b50505050565b60408051808201825260148152731651185a4e88139bdd08105d5d1a1bdc9a5e995960621b60208083019190915233600090815260019091529190912054819060ff16610cae5760405162461bcd60e51b815260206004820181815283516024840152835190928392604490910191908501908083836000831561089c578181015183820152602001610884565b50610cb98383611c72565b505050565b6001600160a01b031660009081526003602052604090205490565b610ce1611828565b6000546001600160a01b03908116911614610d43576040805162461bcd60e51b815260206004820181905260248201527f4f776e61626c653a2063616c6c6572206973206e6f7420746865206f776e6572604482015290519081900360640190fd5b600080546040516001600160a01b03909116907f8be0079c531659141344cd1fd0a4f28419497f9722a3daafe3b4186f6b6457e0908390a3600080546001600160a01b0319169055565b60096020526000908152604090205481565b610da7611828565b6000546001600160a01b03908116911614610e09576040805162461bcd60e51b815260206004820181905260248201527f4f776e61626c653a2063616c6c6572206973206e6f7420746865206f776e6572604482015290519081900360640190fd5b6001600160a01b038116600081815260016020818152604092839020805460ff1916909217909155815192835290517f6a7c5f28ea564fafc8b079663a2a9b9d26fe735d97c97611484ce044f40a16e29281900390910190a150565b600d544211610ebb576040805162461bcd60e51b815260206004820152601960248201527f594461693a20546f6f206561726c7920746f206d617475726500000000000000604482015290519081900360640190fd5b600c54600160a01b900460ff16151560011415610f17576040805162461bcd60e51b81526020600482015260156024820152741651185a4e88105b1c9958591e481b585d1d5c9959605a1b604482015290519081900360640190fd5b600a5460408051636cb1c69b60e11b8152644554482d4160d81b600482015290516001600160a01b039092169163d9638d369160248082019260a092909190829003018186803b158015610f6a57600080fd5b505afa158015610f7e573d6000803e3d6000fd5b505050506040513d60a0811015610f9457600080fd5b5060200151600f819055610fb4906b033b2e3c9fd0803ce8000000611d70565b600f55600b546040805163324abb3160e21b815290516001600160a01b039092169163c92aecc491600480820192602092909190829003018186803b158015610ffc57600080fd5b505afa158015611010573d6000803e3d6000fd5b505050506040513d602081101561102657600080fd5b5051600e819055600c805460ff60a01b1916600160a01b179055600f5460408051918252602082019290925281517f30a742d45111295203c4b8db614c8b05dd1323a7c5159fb88b0cc73be46b7a75929181900390910190a1565b6000546001600160a01b031690565b600f5481565b60078054604080516020601f60026000196101006001881615020190951694909404938401819004810282018101909252828152606093909290918301828280156107b45780601f10610789576101008083540402835291602001916107b4565b6b033b2e3c9fd0803ce800000081565b60408051808201825260148152731651185a4e88139bdd08105d5d1a1bdc9a5e995960621b60208083019190915233600090815260019091529190912054819060ff166111955760405162461bcd60e51b815260206004820181815283516024840152835190928392604490910191908501908083836000831561089c578181015183820152602001610884565b50610cb98383611918565b60006107d36111ad611828565b84610ab2856040518060600160405280602581526020016120a460259139600460006111d7611828565b6001600160a01b03908116825260208083019390935260409182016000908120918d1681529252902054919063ffffffff611bbe16565b60006107d361121b611828565b8484611a55565b600c54600090600160a01b900460ff1615156001146112445750600f546107bc565b600a5460408051636cb1c69b60e11b8152644554482d4160d81b600482015290516000926001600160a01b03169163d9638d369160248083019260a0929190829003018186803b15801561129757600080fd5b505afa1580156112ab573d6000803e3d6000fd5b505050506040513d60a08110156112c157600080fd5b5060200151600f549091506112ee906b033b2e3c9fd0803ce8000000906112e9908490611d87565b611d70565b91505090565b644554482d4160d81b81565b600c54600160a01b900460ff1681565b60016020526000908152604090205460ff1681565b600c54600090600160a01b900460ff1615156001146113475750600e546107bc565b6113d1611352611222565b600b546040805163324abb3160e21b815290516113cc926001600160a01b03169163c92aecc4916004808301926020929190829003018186803b15801561139857600080fd5b505afa1580156113ac573d6000803e3d6000fd5b505050506040513d60208110156113c257600080fd5b5051600e54611dcf565b611df1565b905090565b4284101561142b576040805162461bcd60e51b815260206004820152601d60248201527f45524332305065726d69743a206578706972656420646561646c696e65000000604482015290519081900360640190fd5b6001600160a01b0380881660008181526009602090815260408083208054600180820190925582517f00000000000000000000000000000000000000000000000000000000000000008186015280840196909652958c166060860152608085018b905260a085019590955260c08085018a90528151808603909101815260e08501825280519083012061190160f01b6101008601527f000000000000000000000000000000000000000000000000000000000000000061010286015261012280860182905282518087039091018152610142860180845281519185019190912090859052610162860180845281905260ff8a166101828701526101a286018990526101c2860188905291519095919491926101e2808401939192601f1981019281900390910190855afa158015611566573d6000803e3d6000fd5b5050604051601f1901519150506001600160a01b0381161580159061159c5750896001600160a01b0316816001600160a01b0316145b6115ed576040805162461bcd60e51b815260206004820152601e60248201527f45524332305065726d69743a20696e76616c6964207369676e61747572650000604482015290519081900360640190fd5b6115f88a8a8a61182c565b50505050505050505050565b6001600160a01b03918216600090815260046020908152604080832093909416825291909152205490565b3360008181526002602090815260408083206001600160a01b03861680855290835292819020805460ff19166001908117909155815190815290519293927f045b0fef01772d2fbba53dbd38c9777806eac0865b00af43abcfbcaf50da9206929181900390910190a350565b6116a3611828565b6000546001600160a01b03908116911614611705576040805162461bcd60e51b815260206004820181905260248201527f4f776e61626c653a2063616c6c6572206973206e6f7420746865206f776e6572604482015290519081900360640190fd5b6001600160a01b03811661174a5760405162461bcd60e51b8152600401808060200182810382526026815260200180611f836026913960400191505060405180910390fd5b600080546040516001600160a01b03808516939216917f8be0079c531659141344cd1fd0a4f28419497f9722a3daafe3b4186f6b6457e091a3600080546001600160a01b0319166001600160a01b0392909216919091179055565b600260209081526000928352604080842090915290825290205460ff1681565b3360008181526002602090815260408083206001600160a01b038616808552908352818420805460ff19169055815193845290519093927f045b0fef01772d2fbba53dbd38c9777806eac0865b00af43abcfbcaf50da920692908290030190a350565b3390565b6001600160a01b0383166118715760405162461bcd60e51b81526004018080602001828103825260248152602001806120806024913960400191505060405180910390fd5b6001600160a01b0382166118b65760405162461bcd60e51b8152600401808060200182810382526022815260200180611fa96022913960400191505060405180910390fd5b6001600160a01b03808416600081815260046020908152604080832094871680845294825291829020859055815185815291517f8c5be1e5ebec7d5bd14f71427d1e84f3dd0314c0f7b2291e5b200ac8c7c3b9259281900390910190a3505050565b6001600160a01b03821661195d5760405162461bcd60e51b815260040180806020018281038252602181526020018061203a6021913960400191505060405180910390fd5b61196982600083610cb9565b6119ac81604051806060016040528060228152602001611f61602291396001600160a01b038516600090815260036020526040902054919063ffffffff611bbe16565b6001600160a01b0383166000908152600360205260409020556005546119d8908263ffffffff611e0016565b6005556040805182815290516000916001600160a01b038516917fddf252ad1be2c89b69c2b068fc378daa952ba7f163c4a11628f55a4df523b3ef9181900360200190a35050565b6000611a4e6b033b2e3c9fd0803ce8000000611a42858563ffffffff611e4216565b9063ffffffff611e9b16565b9392505050565b6001600160a01b038316611a9a5760405162461bcd60e51b815260040180806020018281038252602581526020018061205b6025913960400191505060405180910390fd5b6001600160a01b038216611adf5760405162461bcd60e51b8152600401808060200182810382526023815260200180611f3e6023913960400191505060405180910390fd5b611aea838383610cb9565b611b2d81604051806060016040528060268152602001611fcb602691396001600160a01b038616600090815260036020526040902054919063ffffffff611bbe16565b6001600160a01b038085166000908152600360205260408082209390935590841681522054611b62908263ffffffff611c1816565b6001600160a01b0380841660008181526003602090815260409182902094909455805185815290519193928716927fddf252ad1be2c89b69c2b068fc378daa952ba7f163c4a11628f55a4df523b3ef92918290030190a3505050565b60008184841115611c105760405162461bcd60e51b815260206004820181815283516024840152835190928392604490910191908501908083836000831561089c578181015183820152602001610884565b505050900390565b600082820183811015611a4e576040805162461bcd60e51b815260206004820152601b60248201527f536166654d6174683a206164646974696f6e206f766572666c6f770000000000604482015290519081900360640190fd5b6001600160a01b038216611ccd576040805162461bcd60e51b815260206004820152601f60248201527f45524332303a206d696e7420746f20746865207a65726f206164647265737300604482015290519081900360640190fd5b611cd960008383610cb9565b600554611cec908263ffffffff611c1816565b6005556001600160a01b038216600090815260036020526040902054611d18908263ffffffff611c1816565b6001600160a01b03831660008181526003602090815260408083209490945583518581529351929391927fddf252ad1be2c89b69c2b068fc378daa952ba7f163c4a11628f55a4df523b3ef9281900390910190a35050565b600081831015611d805781611a4e565b5090919050565b600080611daa83611a42866b204fce5e3e2502611000000063ffffffff611e4216565b9050600a810615611dc457600a81046001019150506107d7565b600a900490506107d7565b6000611a4e82611a42856b033b2e3c9fd0803ce800000063ffffffff611e4216565b6000818310611d805781611a4e565b6000611a4e83836040518060400160405280601e81526020017f536166654d6174683a207375627472616374696f6e206f766572666c6f770000815250611bbe565b600082611e51575060006107d7565b82820282848281611e5e57fe5b0414611a4e5760405162461bcd60e51b8152600401808060200182810382526021815260200180611ff16021913960400191505060405180910390fd5b6000611a4e83836040518060400160405280601a81526020017f536166654d6174683a206469766973696f6e206279207a65726f00000000000081525060008183611f275760405162461bcd60e51b815260206004820181815283516024840152835190928392604490910191908501908083836000831561089c578181015183820152602001610884565b506000838581611f3357fe5b049594505050505056fe45524332303a207472616e7366657220746f20746865207a65726f206164647265737345524332303a206275726e20616d6f756e7420657863656564732062616c616e63654f776e61626c653a206e6577206f776e657220697320746865207a65726f206164647265737345524332303a20617070726f766520746f20746865207a65726f206164647265737345524332303a207472616e7366657220616d6f756e7420657863656564732062616c616e6365536166654d6174683a206d756c7469706c69636174696f6e206f766572666c6f7745524332303a207472616e7366657220616d6f756e74206578636565647320616c6c6f77616e636545524332303a206275726e2066726f6d20746865207a65726f206164647265737345524332303a207472616e736665722066726f6d20746865207a65726f206164647265737345524332303a20617070726f76652066726f6d20746865207a65726f206164647265737345524332303a2064656372656173656420616c6c6f77616e63652062656c6f77207a65726fa26469706673582212209ad6a6bab60e7c9707d461af6b02b114c0e09421f81dabe8d53fa4cf2c2f5d0464736f6c634300060a00335065726d69742861646472657373206f776e65722c61646472657373207370656e6465722c75696e743235362076616c75652c75696e74323536206e6f6e63652c75696e7432353620646561646c696e6529454950373132446f6d61696e28737472696e67206e616d652c737472696e672076657273696f6e2c75696e7432353620636861696e49642c6164647265737320766572696679696e67436f6e747261637429",
  "immutableReferences": {
    "9519": [
      {
        "length": 32,
        "start": 2755
      },
      {
        "length": 32,
        "start": 5205
      }
    ],
    "9521": [
      {
        "length": 32,
        "start": 2800
      },
      {
        "length": 32,
        "start": 5314
      }
    ]
  },
  "source": "// SPDX-License-Identifier: GPL-3.0-or-later\r\npragma solidity ^0.6.10;\r\n\r\nimport \"@openzeppelin/contracts/math/Math.sol\";\r\nimport \"./interfaces/IVat.sol\";\r\nimport \"./interfaces/IPot.sol\";\r\nimport \"./interfaces/ITreasury.sol\";\r\nimport \"./interfaces/IYDai.sol\";\r\nimport \"./interfaces/IFlashMinter.sol\";\r\nimport \"./helpers/Delegable.sol\";\r\nimport \"./helpers/DecimalMath.sol\";\r\nimport \"./helpers/Orchestrated.sol\";\r\nimport \"./helpers/ERC20Permit.sol\";\r\n\r\n\r\n\r\n/**\r\n * @dev yDai is a yToken targeting Chai.\r\n * Each yDai contract has a specific maturity time. One yDai is worth one Chai at or after maturity time.\r\n * At maturity, the yDai can be triggered to mature, which records the current rate and chi from MakerDAO and enables redemption.\r\n * Redeeming an yDai means burning it, and the contract will retrieve Dai from Treasury equal to one Dai times the growth in chi since maturity.\r\n * yDai also tracks the MakerDAO stability fee accumulator at the time of maturity, and the growth since. This is not used internally.\r\n * Minting and burning of yDai is restricted to orchestrated contracts. Redeeming and flash-minting is allowed to anyone.\r\n */\r\n\r\ncontract YDai is Orchestrated(), Delegable(), DecimalMath, ERC20Permit, IYDai  {\r\n\r\n    event Redeemed(address indexed from, address indexed to, uint256 yDaiIn, uint256 daiOut);\r\n    event Matured(uint256 rate, uint256 chi);\r\n\r\n    bytes32 public constant WETH = \"ETH-A\";\r\n\r\n    IVat internal _vat;\r\n    IPot internal _pot;\r\n    ITreasury internal _treasury;\r\n\r\n    bool public override isMature;\r\n    uint256 public override maturity;\r\n    uint256 public override chi0;      // Chi at maturity\r\n    uint256 public override rate0;     // Rate at maturity\r\n\r\n    /// @dev The constructor:\r\n    /// Sets the name and symbol for the yDai token.\r\n    /// Connects to Vat, Jug, Pot and Treasury.\r\n    /// Sets the maturity date for the yDai, in unix time.\r\n    /// Initializes chi and rate at maturity time as 1.0 with 27 decimals.\r\n    constructor(\r\n        address vat_,\r\n        address pot_,\r\n        address treasury_,\r\n        uint256 maturity_,\r\n        string memory name,\r\n        string memory symbol\r\n    ) public ERC20(name, symbol) {\r\n        _vat = IVat(vat_);\r\n        _pot = IPot(pot_);\r\n        _treasury = ITreasury(treasury_);\r\n        maturity = maturity_;\r\n        chi0 = UNIT;\r\n        rate0 = UNIT;\r\n    }\r\n\r\n    /// @dev Chi differential between maturity and now in RAY. Returns 1.0 if not mature.\r\n    /// If rateGrowth < chiGrowth, returns rate.\r\n    //\r\n    //          chi_now\r\n    // chi() = ---------\r\n    //          chi_mat\r\n    //\r\n    function chiGrowth() public view override returns(uint256){\r\n        if (isMature != true) return chi0;\r\n        return Math.min(rateGrowth(), divd(_pot.chi(), chi0)); // Rounding in favour of the protocol\r\n    }\r\n\r\n    /// @dev Rate differential between maturity and now in RAY. Returns 1.0 if not mature.\r\n    /// rateGrowth is floored to 1.0.\r\n    //\r\n    //                 rate_now\r\n    // rateGrowth() = ----------\r\n    //                 rate_mat\r\n    //\r\n    function rateGrowth() public view override returns(uint256){\r\n        if (isMature != true) return rate0;\r\n        (, uint256 rate,,,) = _vat.ilks(WETH);\r\n        return Math.max(UNIT, divdrup(rate, rate0)); // Rounding in favour of the protocol\r\n    }\r\n\r\n    /// @dev Mature yDai and capture chi and rate\r\n    function mature() public override {\r\n        require(\r\n            // solium-disable-next-line security/no-block-members\r\n            now > maturity,\r\n            \"YDai: Too early to mature\"\r\n        );\r\n        require(\r\n            isMature != true,\r\n            \"YDai: Already matured\"\r\n        );\r\n        (, rate0,,,) = _vat.ilks(WETH); // Retrieve the MakerDAO Vat\r\n        rate0 = Math.max(rate0, UNIT); // Floor it at 1.0\r\n        chi0 = _pot.chi();\r\n        isMature = true;\r\n        emit Matured(rate0, chi0);\r\n    }\r\n\r\n    /// @dev Burn yTokens and return their dai equivalent value, pulled from the Treasury\r\n    /// During unwind, `_treasury.pullDai()` will revert which is right.\r\n    /// `from` needs to tell yDai to approve the burning of the yDai tokens.\r\n    /// `from` can delegate to other addresses to redeem his yDai and put the Dai proceeds in the `to` wallet.\r\n    /// The collateral needed changes according to series maturity and MakerDAO rate and chi, depending on collateral type.\r\n    /// @param from Wallet to burn yDai from.\r\n    /// @param to Wallet to put the Dai in.\r\n    /// @param yDaiAmount Amount of yDai to burn.\r\n    // from --- yDai ---> us\r\n    // us   --- Dai  ---> to\r\n    function redeem(address from, address to, uint256 yDaiAmount)\r\n        public onlyHolderOrDelegate(from, \"YDai: Only Holder Or Delegate\") {\r\n        require(\r\n            isMature == true,\r\n            \"YDai: yDai is not mature\"\r\n        );\r\n        _burn(from, yDaiAmount);                              // Burn yDai from `from`\r\n        uint256 daiAmount = muld(yDaiAmount, chiGrowth());    // User gets interest for holding after maturity\r\n        _treasury.pullDai(to, daiAmount);                     // Give dai to `to`, from Treasury\r\n        emit Redeemed(from, to, yDaiAmount, daiAmount);\r\n    }\r\n\r\n    /// @dev Flash-mint yDai. Calls back on `IFlashMinter.executeOnFlashMint()`\r\n    /// @param to Wallet to mint the yDai in.\r\n    /// @param yDaiAmount Amount of yDai to mint.\r\n    /// @param data User-defined data to pass on to `executeOnFlashMint()`\r\n    function flashMint(address to, uint256 yDaiAmount, bytes calldata data) external override {\r\n        _mint(to, yDaiAmount);\r\n        IFlashMinter(msg.sender).executeOnFlashMint(to, yDaiAmount, data);\r\n        _burn(to, yDaiAmount);\r\n    }\r\n\r\n    /// @dev Mint yDai. Only callable by Controller contracts.\r\n    /// This function can only be called by other Yield contracts, not users directly.\r\n    /// @param to Wallet to mint the yDai in.\r\n    /// @param yDaiAmount Amount of yDai to mint.\r\n    function mint(address to, uint256 yDaiAmount) public override onlyOrchestrated(\"YDai: Not Authorized\")\r\n        {\r\n        _mint(to, yDaiAmount);\r\n    }\r\n\r\n    /// @dev Burn yDai. Only callable by Controller contracts.\r\n    /// This function can only be called by other Yield contracts, not users directly.\r\n    /// @param from Wallet to burn the yDai from.\r\n    /// @param yDaiAmount Amount of yDai to burn.\r\n    function burn(address from, uint256 yDaiAmount) public override onlyOrchestrated(\"YDai: Not Authorized\") {\r\n        _burn(from, yDaiAmount);\r\n    }\r\n}\r\n",
  "sourcePath": "C:/Users/bruce/dev/yield/yDai/contracts/YDai.sol",
  "compiler": {
    "name": "solc",
    "version": "0.6.10+commit.00c0fcaf.Emscripten.clang"
  },
  "schemaVersion": "3.2.3",
  "updatedAt": "2020-07-29T20:51:53.441Z",
  "networkType": "ethereum",
  "devdoc": {
    "details": "yDai is a yToken targeting Chai. Each yDai contract has a specific maturity time. One yDai is worth one Chai at or after maturity time. At maturity, the yDai can be triggered to mature, which records the current rate and chi from MakerDAO and enables redemption. Redeeming an yDai means burning it, and the contract will retrieve Dai from Treasury equal to one Dai times the growth in chi since maturity. yDai also tracks the MakerDAO stability fee accumulator at the time of maturity, and the growth since. This is not used internally. Minting and burning of yDai is restricted to orchestrated contracts. Redeeming and flash-minting is allowed to anyone.",
    "methods": {
      "addDelegate(address)": {
        "details": "Enable a delegate to act on the behalf of caller"
      },
      "allowance(address,address)": {
        "details": "See {IERC20-allowance}."
      },
      "approve(address,uint256)": {
        "details": "See {IERC20-approve}. Requirements: - `spender` cannot be the zero address."
      },
      "balanceOf(address)": {
        "details": "See {IERC20-balanceOf}."
      },
      "burn(address,uint256)": {
        "details": "Burn yDai. Only callable by Controller contracts. This function can only be called by other Yield contracts, not users directly.",
        "params": {
          "from": "Wallet to burn the yDai from.",
          "yDaiAmount": "Amount of yDai to burn."
        }
      },
      "chiGrowth()": {
        "details": "Chi differential between maturity and now in RAY. Returns 1.0 if not mature. If rateGrowth < chiGrowth, returns rate."
      },
      "constructor": {
        "details": "The constructor: Sets the name and symbol for the yDai token. Connects to Vat, Jug, Pot and Treasury. Sets the maturity date for the yDai, in unix time. Initializes chi and rate at maturity time as 1.0 with 27 decimals."
      },
      "decimals()": {
        "details": "Returns the number of decimals used to get its user representation. For example, if `decimals` equals `2`, a balance of `505` tokens should be displayed to a user as `5,05` (`505 / 10 ** 2`). Tokens usually opt for a value of 18, imitating the relationship between Ether and Wei. This is the value {ERC20} uses, unless {_setupDecimals} is called. NOTE: This information is only used for _display_ purposes: it in no way affects any of the arithmetic of the contract, including {IERC20-balanceOf} and {IERC20-transfer}."
      },
      "decreaseAllowance(address,uint256)": {
        "details": "Atomically decreases the allowance granted to `spender` by the caller. This is an alternative to {approve} that can be used as a mitigation for problems described in {IERC20-approve}. Emits an {Approval} event indicating the updated allowance. Requirements: - `spender` cannot be the zero address. - `spender` must have allowance for the caller of at least `subtractedValue`."
      },
      "flashMint(address,uint256,bytes)": {
        "details": "Flash-mint yDai. Calls back on `IFlashMinter.executeOnFlashMint()`",
        "params": {
          "data": "User-defined data to pass on to `executeOnFlashMint()`",
          "to": "Wallet to mint the yDai in.",
          "yDaiAmount": "Amount of yDai to mint."
        }
      },
      "increaseAllowance(address,uint256)": {
        "details": "Atomically increases the allowance granted to `spender` by the caller. This is an alternative to {approve} that can be used as a mitigation for problems described in {IERC20-approve}. Emits an {Approval} event indicating the updated allowance. Requirements: - `spender` cannot be the zero address."
      },
      "mature()": {
        "details": "Mature yDai and capture chi and rate"
      },
      "mint(address,uint256)": {
        "details": "Mint yDai. Only callable by Controller contracts. This function can only be called by other Yield contracts, not users directly.",
        "params": {
          "to": "Wallet to mint the yDai in.",
          "yDaiAmount": "Amount of yDai to mint."
        }
      },
      "name()": {
        "details": "Returns the name of the token."
      },
      "orchestrate(address)": {
        "details": "Add user to the authorized users list"
      },
      "owner()": {
        "details": "Returns the address of the current owner."
      },
      "permit(address,address,uint256,uint256,uint8,bytes32,bytes32)": {
        "details": "See {IERC2612-permit}. In cases where the free option is not a concern, deadline can simply be set to uint(-1), so it should be seen as an optional parameter"
      },
      "rateGrowth()": {
        "details": "Rate differential between maturity and now in RAY. Returns 1.0 if not mature. rateGrowth is floored to 1.0."
      },
      "redeem(address,address,uint256)": {
        "details": "Burn yTokens and return their dai equivalent value, pulled from the Treasury During unwind, `_treasury.pullDai()` will revert which is right. `from` needs to tell yDai to approve the burning of the yDai tokens. `from` can delegate to other addresses to redeem his yDai and put the Dai proceeds in the `to` wallet. The collateral needed changes according to series maturity and MakerDAO rate and chi, depending on collateral type.",
        "params": {
          "from": "Wallet to burn yDai from.",
          "to": "Wallet to put the Dai in.",
          "yDaiAmount": "Amount of yDai to burn."
        }
      },
      "renounceOwnership()": {
        "details": "Leaves the contract without owner. It will not be possible to call `onlyOwner` functions anymore. Can only be called by the current owner. NOTE: Renouncing ownership will leave the contract without an owner, thereby removing any functionality that is only available to the owner."
      },
      "revokeDelegate(address)": {
        "details": "Stop a delegate from acting on the behalf of caller"
      },
      "symbol()": {
        "details": "Returns the symbol of the token, usually a shorter version of the name."
      },
      "totalSupply()": {
        "details": "See {IERC20-totalSupply}."
      },
      "transfer(address,uint256)": {
        "details": "See {IERC20-transfer}. Requirements: - `recipient` cannot be the zero address. - the caller must have a balance of at least `amount`."
      },
      "transferFrom(address,address,uint256)": {
        "details": "See {IERC20-transferFrom}. Emits an {Approval} event indicating the updated allowance. This is not required by the EIP. See the note at the beginning of {ERC20}; Requirements: - `sender` and `recipient` cannot be the zero address. - `sender` must have a balance of at least `amount`. - the caller must have allowance for ``sender``'s tokens of at least `amount`."
      },
      "transferOwnership(address)": {
        "details": "Transfers ownership of the contract to a new account (`newOwner`). Can only be called by the current owner."
      }
    }
  },
  "userdoc": {
    "methods": {}
  }
}