{
  "contractName": "YDai",
  "abi": [
    {
      "inputs": [
        {
          "internalType": "address",
          "name": "vat_",
          "type": "address"
        },
        {
          "internalType": "address",
          "name": "jug_",
          "type": "address"
        },
        {
          "internalType": "address",
          "name": "pot_",
          "type": "address"
        },
        {
          "internalType": "address",
          "name": "treasury_",
          "type": "address"
        },
        {
          "internalType": "uint256",
          "name": "maturity_",
          "type": "uint256"
        },
        {
          "internalType": "string",
          "name": "name",
          "type": "string"
        },
        {
          "internalType": "string",
          "name": "symbol",
          "type": "string"
        }
      ],
      "stateMutability": "nonpayable",
      "type": "constructor"
    },
    {
      "anonymous": false,
      "inputs": [
        {
          "indexed": true,
          "internalType": "address",
          "name": "owner",
          "type": "address"
        },
        {
          "indexed": true,
          "internalType": "address",
          "name": "spender",
          "type": "address"
        },
        {
          "indexed": false,
          "internalType": "uint256",
          "name": "value",
          "type": "uint256"
        }
      ],
      "name": "Approval",
      "type": "event"
    },
    {
      "anonymous": false,
      "inputs": [
        {
          "indexed": true,
          "internalType": "address",
          "name": "user",
          "type": "address"
        },
        {
          "indexed": true,
          "internalType": "address",
          "name": "delegate",
          "type": "address"
        },
        {
          "indexed": false,
          "internalType": "bool",
          "name": "enabled",
          "type": "bool"
        }
      ],
      "name": "Delegate",
      "type": "event"
    },
    {
      "anonymous": false,
      "inputs": [
        {
          "indexed": false,
          "internalType": "address",
          "name": "access",
          "type": "address"
        }
      ],
      "name": "GrantedAccess",
      "type": "event"
    },
    {
      "anonymous": false,
      "inputs": [
        {
          "indexed": false,
          "internalType": "uint256",
          "name": "rate",
          "type": "uint256"
        },
        {
          "indexed": false,
          "internalType": "uint256",
          "name": "chi",
          "type": "uint256"
        }
      ],
      "name": "Matured",
      "type": "event"
    },
    {
      "anonymous": false,
      "inputs": [
        {
          "indexed": true,
          "internalType": "address",
          "name": "previousOwner",
          "type": "address"
        },
        {
          "indexed": true,
          "internalType": "address",
          "name": "newOwner",
          "type": "address"
        }
      ],
      "name": "OwnershipTransferred",
      "type": "event"
    },
    {
      "anonymous": false,
      "inputs": [
        {
          "indexed": true,
          "internalType": "address",
          "name": "from",
          "type": "address"
        },
        {
          "indexed": true,
          "internalType": "address",
          "name": "to",
          "type": "address"
        },
        {
          "indexed": false,
          "internalType": "uint256",
          "name": "yDaiIn",
          "type": "uint256"
        },
        {
          "indexed": false,
          "internalType": "uint256",
          "name": "daiOut",
          "type": "uint256"
        }
      ],
      "name": "Redeemed",
      "type": "event"
    },
    {
      "anonymous": false,
      "inputs": [
        {
          "indexed": true,
          "internalType": "address",
          "name": "from",
          "type": "address"
        },
        {
          "indexed": true,
          "internalType": "address",
          "name": "to",
          "type": "address"
        },
        {
          "indexed": false,
          "internalType": "uint256",
          "name": "value",
          "type": "uint256"
        }
      ],
      "name": "Transfer",
      "type": "event"
    },
    {
      "inputs": [],
      "name": "UNIT",
      "outputs": [
        {
          "internalType": "uint256",
          "name": "",
          "type": "uint256"
        }
      ],
      "stateMutability": "view",
      "type": "function",
      "constant": true
    },
    {
      "inputs": [],
      "name": "WETH",
      "outputs": [
        {
          "internalType": "bytes32",
          "name": "",
          "type": "bytes32"
        }
      ],
      "stateMutability": "view",
      "type": "function",
      "constant": true
    },
    {
      "inputs": [
        {
          "internalType": "address",
          "name": "delegate",
          "type": "address"
        }
      ],
      "name": "addDelegate",
      "outputs": [],
      "stateMutability": "nonpayable",
      "type": "function"
    },
    {
      "inputs": [
        {
          "internalType": "address",
          "name": "owner",
          "type": "address"
        },
        {
          "internalType": "address",
          "name": "spender",
          "type": "address"
        }
      ],
      "name": "allowance",
      "outputs": [
        {
          "internalType": "uint256",
          "name": "",
          "type": "uint256"
        }
      ],
      "stateMutability": "view",
      "type": "function",
      "constant": true
    },
    {
      "inputs": [
        {
          "internalType": "address",
          "name": "spender",
          "type": "address"
        },
        {
          "internalType": "uint256",
          "name": "amount",
          "type": "uint256"
        }
      ],
      "name": "approve",
      "outputs": [
        {
          "internalType": "bool",
          "name": "",
          "type": "bool"
        }
      ],
      "stateMutability": "nonpayable",
      "type": "function"
    },
    {
      "inputs": [
        {
          "internalType": "address",
          "name": "account",
          "type": "address"
        }
      ],
      "name": "balanceOf",
      "outputs": [
        {
          "internalType": "uint256",
          "name": "",
          "type": "uint256"
        }
      ],
      "stateMutability": "view",
      "type": "function",
      "constant": true
    },
    {
      "inputs": [],
      "name": "chi0",
      "outputs": [
        {
          "internalType": "uint256",
          "name": "",
          "type": "uint256"
        }
      ],
      "stateMutability": "view",
      "type": "function",
      "constant": true
    },
    {
      "inputs": [],
      "name": "decimals",
      "outputs": [
        {
          "internalType": "uint8",
          "name": "",
          "type": "uint8"
        }
      ],
      "stateMutability": "view",
      "type": "function",
      "constant": true
    },
    {
      "inputs": [
        {
          "internalType": "address",
          "name": "spender",
          "type": "address"
        },
        {
          "internalType": "uint256",
          "name": "subtractedValue",
          "type": "uint256"
        }
      ],
      "name": "decreaseAllowance",
      "outputs": [
        {
          "internalType": "bool",
          "name": "",
          "type": "bool"
        }
      ],
      "stateMutability": "nonpayable",
      "type": "function"
    },
    {
      "inputs": [
        {
          "internalType": "address",
          "name": "spender",
          "type": "address"
        },
        {
          "internalType": "uint256",
          "name": "addedValue",
          "type": "uint256"
        }
      ],
      "name": "increaseAllowance",
      "outputs": [
        {
          "internalType": "bool",
          "name": "",
          "type": "bool"
        }
      ],
      "stateMutability": "nonpayable",
      "type": "function"
    },
    {
      "inputs": [],
      "name": "isMature",
      "outputs": [
        {
          "internalType": "bool",
          "name": "",
          "type": "bool"
        }
      ],
      "stateMutability": "view",
      "type": "function",
      "constant": true
    },
    {
      "inputs": [],
      "name": "maturity",
      "outputs": [
        {
          "internalType": "uint256",
          "name": "",
          "type": "uint256"
        }
      ],
      "stateMutability": "view",
      "type": "function",
      "constant": true
    },
    {
      "inputs": [],
      "name": "name",
      "outputs": [
        {
          "internalType": "string",
          "name": "",
          "type": "string"
        }
      ],
      "stateMutability": "view",
      "type": "function",
      "constant": true
    },
    {
      "inputs": [
        {
          "internalType": "address",
          "name": "user",
          "type": "address"
        }
      ],
      "name": "orchestrate",
      "outputs": [],
      "stateMutability": "nonpayable",
      "type": "function"
    },
    {
      "inputs": [],
      "name": "owner",
      "outputs": [
        {
          "internalType": "address",
          "name": "",
          "type": "address"
        }
      ],
      "stateMutability": "view",
      "type": "function",
      "constant": true
    },
    {
      "inputs": [],
      "name": "rate0",
      "outputs": [
        {
          "internalType": "uint256",
          "name": "",
          "type": "uint256"
        }
      ],
      "stateMutability": "view",
      "type": "function",
      "constant": true
    },
    {
      "inputs": [],
      "name": "renounceOwnership",
      "outputs": [],
      "stateMutability": "nonpayable",
      "type": "function"
    },
    {
      "inputs": [
        {
          "internalType": "address",
          "name": "delegate",
          "type": "address"
        }
      ],
      "name": "revokeDelegate",
      "outputs": [],
      "stateMutability": "nonpayable",
      "type": "function"
    },
    {
      "inputs": [],
      "name": "symbol",
      "outputs": [
        {
          "internalType": "string",
          "name": "",
          "type": "string"
        }
      ],
      "stateMutability": "view",
      "type": "function",
      "constant": true
    },
    {
      "inputs": [],
      "name": "totalSupply",
      "outputs": [
        {
          "internalType": "uint256",
          "name": "",
          "type": "uint256"
        }
      ],
      "stateMutability": "view",
      "type": "function",
      "constant": true
    },
    {
      "inputs": [
        {
          "internalType": "address",
          "name": "recipient",
          "type": "address"
        },
        {
          "internalType": "uint256",
          "name": "amount",
          "type": "uint256"
        }
      ],
      "name": "transfer",
      "outputs": [
        {
          "internalType": "bool",
          "name": "",
          "type": "bool"
        }
      ],
      "stateMutability": "nonpayable",
      "type": "function"
    },
    {
      "inputs": [
        {
          "internalType": "address",
          "name": "sender",
          "type": "address"
        },
        {
          "internalType": "address",
          "name": "recipient",
          "type": "address"
        },
        {
          "internalType": "uint256",
          "name": "amount",
          "type": "uint256"
        }
      ],
      "name": "transferFrom",
      "outputs": [
        {
          "internalType": "bool",
          "name": "",
          "type": "bool"
        }
      ],
      "stateMutability": "nonpayable",
      "type": "function"
    },
    {
      "inputs": [
        {
          "internalType": "address",
          "name": "newOwner",
          "type": "address"
        }
      ],
      "name": "transferOwnership",
      "outputs": [],
      "stateMutability": "nonpayable",
      "type": "function"
    },
    {
      "inputs": [],
      "name": "chiGrowth",
      "outputs": [
        {
          "internalType": "uint256",
          "name": "",
          "type": "uint256"
        }
      ],
      "stateMutability": "nonpayable",
      "type": "function"
    },
    {
      "inputs": [],
      "name": "rateGrowth",
      "outputs": [
        {
          "internalType": "uint256",
          "name": "",
          "type": "uint256"
        }
      ],
      "stateMutability": "nonpayable",
      "type": "function"
    },
    {
      "inputs": [],
      "name": "mature",
      "outputs": [],
      "stateMutability": "nonpayable",
      "type": "function"
    },
    {
      "inputs": [
        {
          "internalType": "address",
          "name": "from",
          "type": "address"
        },
        {
          "internalType": "address",
          "name": "to",
          "type": "address"
        },
        {
          "internalType": "uint256",
          "name": "yDaiAmount",
          "type": "uint256"
        }
      ],
      "name": "redeem",
      "outputs": [],
      "stateMutability": "nonpayable",
      "type": "function"
    },
    {
      "inputs": [
        {
          "internalType": "address",
          "name": "to",
          "type": "address"
        },
        {
          "internalType": "uint256",
          "name": "yDaiAmount",
          "type": "uint256"
        },
        {
          "internalType": "bytes",
          "name": "data",
          "type": "bytes"
        }
      ],
      "name": "flashMint",
      "outputs": [],
      "stateMutability": "nonpayable",
      "type": "function"
    },
    {
      "inputs": [
        {
          "internalType": "address",
          "name": "to",
          "type": "address"
        },
        {
          "internalType": "uint256",
          "name": "yDaiAmount",
          "type": "uint256"
        }
      ],
      "name": "mint",
      "outputs": [],
      "stateMutability": "nonpayable",
      "type": "function"
    },
    {
      "inputs": [
        {
          "internalType": "address",
          "name": "from",
          "type": "address"
        },
        {
          "internalType": "uint256",
          "name": "yDaiAmount",
          "type": "uint256"
        }
      ],
      "name": "burn",
      "outputs": [],
      "stateMutability": "nonpayable",
      "type": "function"
    }
  ],
  "bytecode": "0x60806040523480156200001157600080fd5b506040516200243a3803806200243a833981810160405260e08110156200003757600080fd5b815160208301516040808501516060860151608087015160a0880180519451969895979396929591949293820192846401000000008211156200007957600080fd5b9083019060208201858111156200008f57600080fd5b8251640100000000811182820188101715620000aa57600080fd5b82525081516020918201929091019080838360005b83811015620000d9578181015183820152602001620000bf565b50505050905090810190601f168015620001075780820380516001836020036101000a031916815260200191505b50604052602001805160405193929190846401000000008211156200012b57600080fd5b9083019060208201858111156200014157600080fd5b82516401000000008111828201881017156200015c57600080fd5b82525081516020918201929091019080838360005b838110156200018b57818101518382015260200162000171565b50505050905090810190601f168015620001b95780820380516001836020036101000a031916815260200191505b5060405250505081816000620001d4620002ce60201b60201c565b600080546001600160a01b0319166001600160a01b0383169081178255604051929350917f8be0079c531659141344cd1fd0a4f28419497f9722a3daafe3b4186f6b6457e0908290a350815162000233906006906020850190620002d3565b50805162000249906007906020840190620002d3565b505060088054601260ff1990911617610100600160a81b0319166101006001600160a01b039a8b16021790555050600980546001600160a01b031990811696881696909617905550600a8054851693861693909317909255600b80549093169316929092179055600c556b033b2e3c9fd0803ce8000000600d819055600e5562000375565b335b90565b828054600181600116156101000203166002900490600052602060002090601f016020900481019282601f106200031657805160ff191683800117855562000346565b8280016001018555821562000346579182015b828111156200034657825182559160200191906001019062000329565b506200035492915062000358565b5090565b620002d091905b808211156200035457600081556001016200035f565b6120b580620003856000396000f3fe608060405234801561001057600080fd5b50600436106101da5760003560e01c80638da5cb5b11610104578063abf1614b116100a2578063dd62ed3e11610071578063dd62ed3e1461056b578063e71bdf4114610599578063f2fde38b146105bf578063fa352c00146105e5576101da565b8063abf1614b1461054b578063ad5c464814610553578063ae4e7fdf1461055b578063cb24019814610563576101da565b80639d8e2177116100de5780639d8e2177146104bf5780639dc29fac146104c7578063a457c2d7146104f3578063a9059cbb1461051f576101da565b80638da5cb5b1461048b57806393c19e18146104af57806395d89b41146104b7576101da565b8063313ce5671161017c57806370a082311161014b57806370a082311461042f578063715018a61461045557806380f5a4401461045d57806387b6520714610483576101da565b8063313ce5671461033457806339509351146103525780633ea214651461037e57806340c10f1914610403576101da565b806312970eac116101b857806312970eac146102d457806318160ddd146102ee578063204f83f9146102f657806323b872dd146102fe576101da565b806306fdde03146101df578063095ea7b31461025c5780630e6dfcd51461029c575b600080fd5b6101e761060b565b6040805160208082528351818301528351919283929083019185019080838360005b83811015610221578181015183820152602001610209565b50505050905090810190601f16801561024e5780820380516001836020036101000a031916815260200191505b509250505060405180910390f35b6102886004803603604081101561027257600080fd5b506001600160a01b0381351690602001356106a2565b604080519115158252519081900360200190f35b6102d2600480360360608110156102b257600080fd5b506001600160a01b038135811691602081013590911690604001356106c0565b005b6102dc61091e565b60408051918252519081900360200190f35b6102dc610924565b6102dc61092a565b6102886004803603606081101561031457600080fd5b506001600160a01b03813581169160208101359091169060400135610930565b61033c6109bd565b6040805160ff9092168252519081900360200190f35b6102886004803603604081101561036857600080fd5b506001600160a01b0381351690602001356109c6565b6102d26004803603606081101561039457600080fd5b6001600160a01b03823516916020810135918101906060810160408201356401000000008111156103c457600080fd5b8201836020820111156103d657600080fd5b803590602001918460018302840111640100000000831117156103f857600080fd5b509092509050610a1a565b6102d26004803603604081101561041957600080fd5b506001600160a01b038135169060200135610aed565b6102dc6004803603602081101561044557600080fd5b50356001600160a01b0316610b94565b6102d2610baf565b6102d26004803603602081101561047357600080fd5b50356001600160a01b0316610c70565b6102d2610d36565b610493611087565b604080516001600160a01b039092168252519081900360200190f35b6102dc611096565b6101e761109c565b6102dc6110fd565b6102d2600480360360408110156104dd57600080fd5b506001600160a01b03813516906020013561110d565b6102886004803603604081101561050957600080fd5b506001600160a01b0381351690602001356111af565b6102886004803603604081101561053557600080fd5b506001600160a01b03813516906020013561121d565b6102dc611231565b6102dc611440565b61028861144c565b6102dc61145c565b6102dc6004803603604081101561058157600080fd5b506001600160a01b0381358116916020013516611616565b6102d2600480360360208110156105af57600080fd5b50356001600160a01b0316611641565b6102d2600480360360208110156105d557600080fd5b50356001600160a01b03166116ad565b6102d2600480360360208110156105fb57600080fd5b50356001600160a01b03166117c4565b60068054604080516020601f60026000196101006001881615020190951694909404938401819004810282018101909252828152606093909290918301828280156106975780601f1061066c57610100808354040283529160200191610697565b820191906000526020600020905b81548152906001019060200180831161067a57829003601f168201915b505050505090505b90565b60006106b66106af611827565b848461182b565b5060015b92915050565b60408051808201909152601d81527f594461693a204f6e6c7920486f6c646572204f722044656c656761746500000060208201528390336001600160a01b038316148061073057506001600160a01b038216600090815260026020908152604080832033845290915290205460ff165b81906107ba5760405162461bcd60e51b81526004018080602001828103825283818151815260200191508051906020019080838360005b8381101561077f578181015183820152602001610767565b50505050905090810190601f1680156107ac5780820380516001836020036101000a031916815260200191505b509250505060405180910390fd5b50600b54600160a01b900460ff16151560011461081e576040805162461bcd60e51b815260206004820152601860248201527f594461693a2079446169206973206e6f74206d61747572650000000000000000604482015290519081900360640190fd5b6108288584611917565b600061083b8461083661145c565b611a1f565b600b54604080517f550277030000000000000000000000000000000000000000000000000000000081526001600160a01b03898116600483015260248201859052915193945091169163550277039160448082019260009290919082900301818387803b1580156108ab57600080fd5b505af11580156108bf573d6000803e3d6000fd5b50505050846001600160a01b0316866001600160a01b03167f5cdf07ad0fc222442720b108e3ed4c4640f0fadc2ab2253e66f259a0fea834808684604051808381526020018281526020019250505060405180910390a3505050505050565b600d5481565b60055490565b600c5481565b600061093d848484611a54565b6109b384610949611827565b6109ae85604051806060016040528060288152602001611fc9602891396001600160a01b038a16600090815260046020526040812090610987611827565b6001600160a01b03168152602081019190915260400160002054919063ffffffff611bbd16565b61182b565b5060019392505050565b60085460ff1690565b60006106b66109d3611827565b846109ae85600460006109e4611827565b6001600160a01b03908116825260208083019390935260409182016000908120918c16815292529020549063ffffffff611c1716565b610a248484611c71565b6040517fbdd26b310000000000000000000000000000000000000000000000000000000081526001600160a01b038516600482019081526024820185905260606044830190815260648301849052339263bdd26b319288928892889288929091608401848480828437600081840152601f19601f82011690508083019250505095505050505050600060405180830381600087803b158015610ac557600080fd5b505af1158015610ad9573d6000803e3d6000fd5b50505050610ae78484611917565b50505050565b604080518082018252601481527f594461693a204e6f7420417574686f72697a656400000000000000000000000060208083019190915233600090815260019091529190912054819060ff16610b845760405162461bcd60e51b815260206004820181815283516024840152835190928392604490910191908501908083836000831561077f578181015183820152602001610767565b50610b8f8383611c71565b505050565b6001600160a01b031660009081526003602052604090205490565b610bb7611827565b6000546001600160a01b03908116911614610c19576040805162461bcd60e51b815260206004820181905260248201527f4f776e61626c653a2063616c6c6572206973206e6f7420746865206f776e6572604482015290519081900360640190fd5b600080546040516001600160a01b03909116907f8be0079c531659141344cd1fd0a4f28419497f9722a3daafe3b4186f6b6457e0908390a36000805473ffffffffffffffffffffffffffffffffffffffff19169055565b610c78611827565b6000546001600160a01b03908116911614610cda576040805162461bcd60e51b815260206004820181905260248201527f4f776e61626c653a2063616c6c6572206973206e6f7420746865206f776e6572604482015290519081900360640190fd5b6001600160a01b038116600081815260016020818152604092839020805460ff1916909217909155815192835290517f6a7c5f28ea564fafc8b079663a2a9b9d26fe735d97c97611484ce044f40a16e29281900390910190a150565b600c544211610d8c576040805162461bcd60e51b815260206004820152601960248201527f594461693a20546f6f206561726c7920746f206d617475726500000000000000604482015290519081900360640190fd5b600b54600160a01b900460ff16151560011415610df0576040805162461bcd60e51b815260206004820152601560248201527f594461693a20416c7265616479206d6174757265640000000000000000000000604482015290519081900360640190fd5b600860019054906101000a90046001600160a01b03166001600160a01b031663d9638d36644554482d4160d81b6040518263ffffffff1660e01b81526004018082815260200191505060a06040518083038186803b158015610e5157600080fd5b505afa158015610e65573d6000803e3d6000fd5b505050506040513d60a0811015610e7b57600080fd5b5060200151600e819055610e9b906b033b2e3c9fd0803ce8000000611d6f565b600e55600a54604080516320aba08b60e01b815290516001600160a01b03909216916320aba08b916004808201926020929091908290030181600087803b158015610ee557600080fd5b505af1158015610ef9573d6000803e3d6000fd5b505050506040513d6020811015610f0f57600080fd5b50514211610f9657600a60009054906101000a90046001600160a01b03166001600160a01b031663c92aecc46040518163ffffffff1660e01b815260040160206040518083038186803b158015610f6557600080fd5b505afa158015610f79573d6000803e3d6000fd5b505050506040513d6020811015610f8f57600080fd5b5051611013565b600a60009054906101000a90046001600160a01b03166001600160a01b0316639f678cca6040518163ffffffff1660e01b8152600401602060405180830381600087803b158015610fe657600080fd5b505af1158015610ffa573d6000803e3d6000fd5b505050506040513d602081101561101057600080fd5b50515b600d819055600b80547fffffffffffffffffffffff00ffffffffffffffffffffffffffffffffffffffff16600160a01b179055600e5460408051918252602082019290925281517f30a742d45111295203c4b8db614c8b05dd1323a7c5159fb88b0cc73be46b7a75929181900390910190a1565b6000546001600160a01b031690565b600e5481565b60078054604080516020601f60026000196101006001881615020190951694909404938401819004810282018101909252828152606093909290918301828280156106975780601f1061066c57610100808354040283529160200191610697565b6b033b2e3c9fd0803ce800000081565b604080518082018252601481527f594461693a204e6f7420417574686f72697a656400000000000000000000000060208083019190915233600090815260019091529190912054819060ff166111a45760405162461bcd60e51b815260206004820181815283516024840152835190928392604490910191908501908083836000831561077f578181015183820152602001610767565b50610b8f8383611917565b60006106b66111bc611827565b846109ae8560405180606001604052806025815260200161205b60259139600460006111e6611827565b6001600160a01b03908116825260208083019390935260409182016000908120918d1681529252902054919063ffffffff611bbd16565b60006106b661122a611827565b8484611a54565b600b54600090600160a01b900460ff1615156001146112535750600e5461069f565b600954604080517fd9638d36000000000000000000000000000000000000000000000000000000008152644554482d4160d81b6004820152815160009384936001600160a01b039091169263d9638d36926024808301939282900301818787803b1580156112c057600080fd5b505af11580156112d4573d6000803e3d6000fd5b505050506040513d60408110156112ea57600080fd5b506020015190504281101561139a57600954604080517f44e2a5a8000000000000000000000000000000000000000000000000000000008152644554482d4160d81b600482015290516001600160a01b03909216916344e2a5a8916024808201926020929091908290030181600087803b15801561136757600080fd5b505af115801561137b573d6000803e3d6000fd5b505050506040513d602081101561139157600080fd5b5051915061142d565b600860019054906101000a90046001600160a01b03166001600160a01b031663d9638d36644554482d4160d81b6040518263ffffffff1660e01b81526004018082815260200191505060a06040518083038186803b1580156113fb57600080fd5b505afa15801561140f573d6000803e3d6000fd5b505050506040513d60a081101561142557600080fd5b506020015191505b61143982600e54611d86565b9250505090565b644554482d4160d81b81565b600b54600160a01b900460ff1681565b600b54600090600160a01b900460ff16151560011461147e5750600d5461069f565b600a54604080516320aba08b60e01b815290516000926001600160a01b0316916320aba08b91600480830192602092919082900301818787803b1580156114c457600080fd5b505af11580156114d8573d6000803e3d6000fd5b505050506040513d60208110156114ee57600080fd5b5051421161157557600a60009054906101000a90046001600160a01b03166001600160a01b031663c92aecc46040518163ffffffff1660e01b815260040160206040518083038186803b15801561154457600080fd5b505afa158015611558573d6000803e3d6000fd5b505050506040513d602081101561156e57600080fd5b50516115f2565b600a60009054906101000a90046001600160a01b03166001600160a01b0316639f678cca6040518163ffffffff1660e01b8152600401602060405180830381600087803b1580156115c557600080fd5b505af11580156115d9573d6000803e3d6000fd5b505050506040513d60208110156115ef57600080fd5b50515b90506116106115ff611231565b61160b83600d54611d86565b611da8565b91505090565b6001600160a01b03918216600090815260046020908152604080832093909416825291909152205490565b3360008181526002602090815260408083206001600160a01b03861680855290835292819020805460ff19166001908117909155815190815290519293927f045b0fef01772d2fbba53dbd38c9777806eac0865b00af43abcfbcaf50da9206929181900390910190a350565b6116b5611827565b6000546001600160a01b03908116911614611717576040805162461bcd60e51b815260206004820181905260248201527f4f776e61626c653a2063616c6c6572206973206e6f7420746865206f776e6572604482015290519081900360640190fd5b6001600160a01b03811661175c5760405162461bcd60e51b8152600401808060200182810382526026815260200180611f3a6026913960400191505060405180910390fd5b600080546040516001600160a01b03808516939216917f8be0079c531659141344cd1fd0a4f28419497f9722a3daafe3b4186f6b6457e091a36000805473ffffffffffffffffffffffffffffffffffffffff19166001600160a01b0392909216919091179055565b3360008181526002602090815260408083206001600160a01b038616808552908352818420805460ff19169055815193845290519093927f045b0fef01772d2fbba53dbd38c9777806eac0865b00af43abcfbcaf50da920692908290030190a350565b3390565b6001600160a01b0383166118705760405162461bcd60e51b81526004018080602001828103825260248152602001806120376024913960400191505060405180910390fd5b6001600160a01b0382166118b55760405162461bcd60e51b8152600401808060200182810382526022815260200180611f606022913960400191505060405180910390fd5b6001600160a01b03808416600081815260046020908152604080832094871680845294825291829020859055815185815291517f8c5be1e5ebec7d5bd14f71427d1e84f3dd0314c0f7b2291e5b200ac8c7c3b9259281900390910190a3505050565b6001600160a01b03821661195c5760405162461bcd60e51b8152600401808060200182810382526021815260200180611ff16021913960400191505060405180910390fd5b61196882600083610b8f565b6119ab81604051806060016040528060228152602001611f18602291396001600160a01b038516600090815260036020526040902054919063ffffffff611bbd16565b6001600160a01b0383166000908152600360205260409020556005546119d7908263ffffffff611db716565b6005556040805182815290516000916001600160a01b038516917fddf252ad1be2c89b69c2b068fc378daa952ba7f163c4a11628f55a4df523b3ef9181900360200190a35050565b6000611a4d6b033b2e3c9fd0803ce8000000611a41858563ffffffff611df916565b9063ffffffff611e5216565b9392505050565b6001600160a01b038316611a995760405162461bcd60e51b81526004018080602001828103825260258152602001806120126025913960400191505060405180910390fd5b6001600160a01b038216611ade5760405162461bcd60e51b8152600401808060200182810382526023815260200180611ef56023913960400191505060405180910390fd5b611ae9838383610b8f565b611b2c81604051806060016040528060268152602001611f82602691396001600160a01b038616600090815260036020526040902054919063ffffffff611bbd16565b6001600160a01b038085166000908152600360205260408082209390935590841681522054611b61908263ffffffff611c1716565b6001600160a01b0380841660008181526003602090815260409182902094909455805185815290519193928716927fddf252ad1be2c89b69c2b068fc378daa952ba7f163c4a11628f55a4df523b3ef92918290030190a3505050565b60008184841115611c0f5760405162461bcd60e51b815260206004820181815283516024840152835190928392604490910191908501908083836000831561077f578181015183820152602001610767565b505050900390565b600082820183811015611a4d576040805162461bcd60e51b815260206004820152601b60248201527f536166654d6174683a206164646974696f6e206f766572666c6f770000000000604482015290519081900360640190fd5b6001600160a01b038216611ccc576040805162461bcd60e51b815260206004820152601f60248201527f45524332303a206d696e7420746f20746865207a65726f206164647265737300604482015290519081900360640190fd5b611cd860008383610b8f565b600554611ceb908263ffffffff611c1716565b6005556001600160a01b038216600090815260036020526040902054611d17908263ffffffff611c1716565b6001600160a01b03831660008181526003602090815260408083209490945583518581529351929391927fddf252ad1be2c89b69c2b068fc378daa952ba7f163c4a11628f55a4df523b3ef9281900390910190a35050565b600081831015611d7f5781611a4d565b5090919050565b6000611a4d82611a41856b033b2e3c9fd0803ce800000063ffffffff611df916565b6000818310611d7f5781611a4d565b6000611a4d83836040518060400160405280601e81526020017f536166654d6174683a207375627472616374696f6e206f766572666c6f770000815250611bbd565b600082611e08575060006106ba565b82820282848281611e1557fe5b0414611a4d5760405162461bcd60e51b8152600401808060200182810382526021815260200180611fa86021913960400191505060405180910390fd5b6000611a4d83836040518060400160405280601a81526020017f536166654d6174683a206469766973696f6e206279207a65726f00000000000081525060008183611ede5760405162461bcd60e51b815260206004820181815283516024840152835190928392604490910191908501908083836000831561077f578181015183820152602001610767565b506000838581611eea57fe5b049594505050505056fe45524332303a207472616e7366657220746f20746865207a65726f206164647265737345524332303a206275726e20616d6f756e7420657863656564732062616c616e63654f776e61626c653a206e6577206f776e657220697320746865207a65726f206164647265737345524332303a20617070726f766520746f20746865207a65726f206164647265737345524332303a207472616e7366657220616d6f756e7420657863656564732062616c616e6365536166654d6174683a206d756c7469706c69636174696f6e206f766572666c6f7745524332303a207472616e7366657220616d6f756e74206578636565647320616c6c6f77616e636545524332303a206275726e2066726f6d20746865207a65726f206164647265737345524332303a207472616e736665722066726f6d20746865207a65726f206164647265737345524332303a20617070726f76652066726f6d20746865207a65726f206164647265737345524332303a2064656372656173656420616c6c6f77616e63652062656c6f77207a65726fa2646970667358221220d778a9824545e8c46a3f11a950221af05fa9aa22daaf016a0b72122fb212829164736f6c634300060a0033",
  "source": "pragma solidity ^0.6.0;\n\nimport \"@openzeppelin/contracts/math/Math.sol\";\nimport \"@openzeppelin/contracts/token/ERC20/ERC20.sol\";\nimport \"./interfaces/IVat.sol\";\nimport \"./interfaces/IJug.sol\";\nimport \"./interfaces/IPot.sol\";\nimport \"./interfaces/ITreasury.sol\";\nimport \"./interfaces/IYDai.sol\";\nimport \"./interfaces/IFlashMinter.sol\";\nimport \"./helpers/Delegable.sol\";\nimport \"./helpers/DecimalMath.sol\";\nimport \"./helpers/Orchestrated.sol\";\nimport \"@nomiclabs/buidler/console.sol\";\n\n\n/// @dev yDai is a yToken targeting Dai.\ncontract YDai is Orchestrated(), Delegable(), DecimalMath, ERC20, IYDai  {\n\n    event Redeemed(address indexed from, address indexed to, uint256 yDaiIn, uint256 daiOut);\n    event Matured(uint256 rate, uint256 chi);\n\n    bytes32 public constant WETH = \"ETH-A\";\n\n    IVat internal _vat;\n    IJug internal _jug;\n    IPot internal _pot;\n    ITreasury internal _treasury;\n\n    bool public override isMature;\n    uint256 public override maturity;\n    uint256 public override chi0;      // Chi at maturity\n    uint256 public override rate0;     // Rate at maturity\n\n    constructor(\n        address vat_,\n        address jug_,\n        address pot_,\n        address treasury_,\n        uint256 maturity_,\n        string memory name,\n        string memory symbol\n    ) public ERC20(name, symbol) {\n        _vat = IVat(vat_);\n        _jug = IJug(jug_);\n        _pot = IPot(pot_);\n        _treasury = ITreasury(treasury_);\n        maturity = maturity_;\n        chi0 = UNIT;\n        rate0 = UNIT;\n    }\n\n    /// @dev Chi differential between maturity and now in RAY. Returns 1.0 if not mature.\n    /// If rateGrowth < chiGrowth, returns rate.\n    //\n    //          chi_now\n    // chi() = ---------\n    //          chi_mat\n    //\n    function chiGrowth() public override returns(uint256){\n        if (isMature != true) return chi0;\n        uint256 chiNow = (now > _pot.rho()) ? _pot.drip() : _pot.chi();\n        return Math.min(rateGrowth(), divd(chiNow, chi0));\n    }\n\n    /// @dev Rate differential between maturity and now in RAY. Returns 1.0 if not mature.\n    //\n    //           rate_now\n    // rateGrowth() = ----------\n    //           rate_mat\n    //\n    function rateGrowth() public override returns(uint256){\n        if (isMature != true) return rate0;\n        uint256 rateNow;\n        (, uint256 rho) = _jug.ilks(WETH);\n        if (now > rho) {\n            rateNow = _jug.drip(WETH);\n            // console.log(rateNow);\n        } else {\n            (, rateNow,,,) = _vat.ilks(WETH);\n        }\n        return divd(rateNow, rate0);\n    }\n\n    /// @dev Mature yDai and capture maturity data\n    function mature() public override {\n        require(\n            // solium-disable-next-line security/no-block-members\n            now > maturity,\n            \"YDai: Too early to mature\"\n        );\n        require(\n            isMature != true,\n            \"YDai: Already matured\"\n        );\n        (, rate0,,,) = _vat.ilks(WETH); // Retrieve the MakerDAO Vat\n        rate0 = Math.max(rate0, UNIT); // Floor it at 1.0\n        chi0 = (now > _pot.rho()) ? _pot.drip() : _pot.chi();\n        isMature = true;\n        emit Matured(rate0, chi0);\n    }\n\n    /// @dev Burn yTokens and return their dai equivalent value, pulled from the Treasury\n    // TODO: Consider whether to allow this to be gracefully unwind, instead of letting `_treasury.pullDai()` revert.\n    // from --- yDai ---> us\n    // us   --- Dai  ---> to\n    function redeem(address from, address to, uint256 yDaiAmount)\n        public onlyHolderOrDelegate(from, \"YDai: Only Holder Or Delegate\") {\n        require(\n            isMature == true,\n            \"YDai: yDai is not mature\"\n        );\n        _burn(from, yDaiAmount);                              // Burn yDai from `from`\n        uint256 daiAmount = muld(yDaiAmount, chiGrowth());    // User gets interest for holding after maturity\n        _treasury.pullDai(to, daiAmount);                     // Give dai to `to`, from Treasury\n        emit Redeemed(from, to, yDaiAmount, daiAmount);\n    }\n\n    /// @dev Flash-mint yDai. Calls back on `IFlashMinter.executeOnFlashMint()`\n    function flashMint(address to, uint256 yDaiAmount, bytes calldata data) external override {\n        _mint(to, yDaiAmount);\n        IFlashMinter(msg.sender).executeOnFlashMint(to, yDaiAmount, data);\n        _burn(to, yDaiAmount);\n    }\n\n    /// @dev Mint yDai. Only callable by Dealer contracts.\n    function mint(address to, uint256 yDaiAmount) public override onlyOrchestrated(\"YDai: Not Authorized\")\n        {\n        _mint(to, yDaiAmount);\n    }\n\n    /// @dev Burn yDai. Only callable by Dealer contracts.\n    function burn(address from, uint256 yDaiAmount) public override onlyOrchestrated(\"YDai: Not Authorized\") {\n        _burn(from, yDaiAmount);\n    }\n}",
  "sourcePath": "/Users/bruce/dev/yieldprotocol/ytoken-mvp/contracts/YDai.sol",
  "compiler": {
    "name": "solc",
    "version": "0.6.10+commit.00c0fcaf.Emscripten.clang"
  },
  "schemaVersion": "3.0.23",
  "updatedAt": "2020-07-10T08:45:14.627Z",
  "networkType": "ethereum",
  "devdoc": {
    "details": "yDai is a yToken targeting Dai.",
    "methods": {
      "addDelegate(address)": {
        "details": "Enable a delegate to act on the behalf of caller"
      },
      "allowance(address,address)": {
        "details": "See {IERC20-allowance}."
      },
      "approve(address,uint256)": {
        "details": "See {IERC20-approve}. Requirements: - `spender` cannot be the zero address."
      },
      "balanceOf(address)": {
        "details": "See {IERC20-balanceOf}."
      },
      "burn(address,uint256)": {
        "details": "Burn yDai. Only callable by Dealer contracts."
      },
      "chiGrowth()": {
        "details": "Chi differential between maturity and now in RAY. Returns 1.0 if not mature. If rateGrowth < chiGrowth, returns rate."
      },
      "decimals()": {
        "details": "Returns the number of decimals used to get its user representation. For example, if `decimals` equals `2`, a balance of `505` tokens should be displayed to a user as `5,05` (`505 / 10 ** 2`). Tokens usually opt for a value of 18, imitating the relationship between Ether and Wei. This is the value {ERC20} uses, unless {_setupDecimals} is called. NOTE: This information is only used for _display_ purposes: it in no way affects any of the arithmetic of the contract, including {IERC20-balanceOf} and {IERC20-transfer}."
      },
      "decreaseAllowance(address,uint256)": {
        "details": "Atomically decreases the allowance granted to `spender` by the caller. This is an alternative to {approve} that can be used as a mitigation for problems described in {IERC20-approve}. Emits an {Approval} event indicating the updated allowance. Requirements: - `spender` cannot be the zero address. - `spender` must have allowance for the caller of at least `subtractedValue`."
      },
      "flashMint(address,uint256,bytes)": {
        "details": "Flash-mint yDai. Calls back on `IFlashMinter.executeOnFlashMint()`"
      },
      "increaseAllowance(address,uint256)": {
        "details": "Atomically increases the allowance granted to `spender` by the caller. This is an alternative to {approve} that can be used as a mitigation for problems described in {IERC20-approve}. Emits an {Approval} event indicating the updated allowance. Requirements: - `spender` cannot be the zero address."
      },
      "mature()": {
        "details": "Mature yDai and capture maturity data"
      },
      "mint(address,uint256)": {
        "details": "Mint yDai. Only callable by Dealer contracts."
      },
      "name()": {
        "details": "Returns the name of the token."
      },
      "orchestrate(address)": {
        "details": "Add user to the authorized users list"
      },
      "owner()": {
        "details": "Returns the address of the current owner."
      },
      "rateGrowth()": {
        "details": "Rate differential between maturity and now in RAY. Returns 1.0 if not mature."
      },
      "redeem(address,address,uint256)": {
        "details": "Burn yTokens and return their dai equivalent value, pulled from the Treasury"
      },
      "renounceOwnership()": {
        "details": "Leaves the contract without owner. It will not be possible to call `onlyOwner` functions anymore. Can only be called by the current owner. NOTE: Renouncing ownership will leave the contract without an owner, thereby removing any functionality that is only available to the owner."
      },
      "revokeDelegate(address)": {
        "details": "Stop a delegate from acting on the behalf of caller"
      },
      "symbol()": {
        "details": "Returns the symbol of the token, usually a shorter version of the name."
      },
      "totalSupply()": {
        "details": "See {IERC20-totalSupply}."
      },
      "transfer(address,uint256)": {
        "details": "See {IERC20-transfer}. Requirements: - `recipient` cannot be the zero address. - the caller must have a balance of at least `amount`."
      },
      "transferFrom(address,address,uint256)": {
        "details": "See {IERC20-transferFrom}. Emits an {Approval} event indicating the updated allowance. This is not required by the EIP. See the note at the beginning of {ERC20}; Requirements: - `sender` and `recipient` cannot be the zero address. - `sender` must have a balance of at least `amount`. - the caller must have allowance for ``sender``'s tokens of at least `amount`."
      },
      "transferOwnership(address)": {
        "details": "Transfers ownership of the contract to a new account (`newOwner`). Can only be called by the current owner."
      }
    }
  },
  "userdoc": {
    "methods": {}
  }
}