{
  "contractName": "YDai",
  "abi": [
    {
      "inputs": [
        {
          "internalType": "address",
          "name": "vat_",
          "type": "address"
        },
        {
          "internalType": "address",
          "name": "jug_",
          "type": "address"
        },
        {
          "internalType": "address",
          "name": "pot_",
          "type": "address"
        },
        {
          "internalType": "address",
          "name": "treasury_",
          "type": "address"
        },
        {
          "internalType": "uint256",
          "name": "maturity_",
          "type": "uint256"
        },
        {
          "internalType": "string",
          "name": "name",
          "type": "string"
        },
        {
          "internalType": "string",
          "name": "symbol",
          "type": "string"
        }
      ],
      "stateMutability": "nonpayable",
      "type": "constructor"
    },
    {
      "anonymous": false,
      "inputs": [
        {
          "indexed": true,
          "internalType": "address",
          "name": "owner",
          "type": "address"
        },
        {
          "indexed": true,
          "internalType": "address",
          "name": "spender",
          "type": "address"
        },
        {
          "indexed": false,
          "internalType": "uint256",
          "name": "value",
          "type": "uint256"
        }
      ],
      "name": "Approval",
      "type": "event"
    },
    {
      "anonymous": false,
      "inputs": [
        {
          "indexed": true,
          "internalType": "address",
          "name": "user",
          "type": "address"
        },
        {
          "indexed": true,
          "internalType": "address",
          "name": "delegate",
          "type": "address"
        },
        {
          "indexed": false,
          "internalType": "bool",
          "name": "enabled",
          "type": "bool"
        }
      ],
      "name": "Delegate",
      "type": "event"
    },
    {
      "anonymous": false,
      "inputs": [
        {
          "indexed": false,
          "internalType": "address",
          "name": "access",
          "type": "address"
        }
      ],
      "name": "GrantedAccess",
      "type": "event"
    },
    {
      "anonymous": false,
      "inputs": [
        {
          "indexed": false,
          "internalType": "uint256",
          "name": "rate",
          "type": "uint256"
        },
        {
          "indexed": false,
          "internalType": "uint256",
          "name": "chi",
          "type": "uint256"
        }
      ],
      "name": "Matured",
      "type": "event"
    },
    {
      "anonymous": false,
      "inputs": [
        {
          "indexed": true,
          "internalType": "address",
          "name": "previousOwner",
          "type": "address"
        },
        {
          "indexed": true,
          "internalType": "address",
          "name": "newOwner",
          "type": "address"
        }
      ],
      "name": "OwnershipTransferred",
      "type": "event"
    },
    {
      "anonymous": false,
      "inputs": [
        {
          "indexed": true,
          "internalType": "address",
          "name": "from",
          "type": "address"
        },
        {
          "indexed": true,
          "internalType": "address",
          "name": "to",
          "type": "address"
        },
        {
          "indexed": false,
          "internalType": "uint256",
          "name": "value",
          "type": "uint256"
        }
      ],
      "name": "Transfer",
      "type": "event"
    },
    {
      "inputs": [],
      "name": "CHAI",
      "outputs": [
        {
          "internalType": "bytes32",
          "name": "",
          "type": "bytes32"
        }
      ],
      "stateMutability": "view",
      "type": "function",
      "constant": true
    },
    {
      "inputs": [],
      "name": "RAD",
      "outputs": [
        {
          "internalType": "uint8",
          "name": "",
          "type": "uint8"
        }
      ],
      "stateMutability": "view",
      "type": "function",
      "constant": true
    },
    {
      "inputs": [],
      "name": "RAY",
      "outputs": [
        {
          "internalType": "uint8",
          "name": "",
          "type": "uint8"
        }
      ],
      "stateMutability": "view",
      "type": "function",
      "constant": true
    },
    {
      "inputs": [],
      "name": "WAD",
      "outputs": [
        {
          "internalType": "uint8",
          "name": "",
          "type": "uint8"
        }
      ],
      "stateMutability": "view",
      "type": "function",
      "constant": true
    },
    {
      "inputs": [],
      "name": "WETH",
      "outputs": [
        {
          "internalType": "bytes32",
          "name": "",
          "type": "bytes32"
        }
      ],
      "stateMutability": "view",
      "type": "function",
      "constant": true
    },
    {
      "inputs": [
        {
          "internalType": "address",
          "name": "delegate",
          "type": "address"
        }
      ],
      "name": "addDelegate",
      "outputs": [],
      "stateMutability": "nonpayable",
      "type": "function"
    },
    {
      "inputs": [
        {
          "internalType": "address",
          "name": "owner",
          "type": "address"
        },
        {
          "internalType": "address",
          "name": "spender",
          "type": "address"
        }
      ],
      "name": "allowance",
      "outputs": [
        {
          "internalType": "uint256",
          "name": "",
          "type": "uint256"
        }
      ],
      "stateMutability": "view",
      "type": "function",
      "constant": true
    },
    {
      "inputs": [
        {
          "internalType": "address",
          "name": "spender",
          "type": "address"
        },
        {
          "internalType": "uint256",
          "name": "amount",
          "type": "uint256"
        }
      ],
      "name": "approve",
      "outputs": [
        {
          "internalType": "bool",
          "name": "",
          "type": "bool"
        }
      ],
      "stateMutability": "nonpayable",
      "type": "function"
    },
    {
      "inputs": [
        {
          "internalType": "address",
          "name": "account",
          "type": "address"
        }
      ],
      "name": "balanceOf",
      "outputs": [
        {
          "internalType": "uint256",
          "name": "",
          "type": "uint256"
        }
      ],
      "stateMutability": "view",
      "type": "function",
      "constant": true
    },
    {
      "inputs": [],
      "name": "chi0",
      "outputs": [
        {
          "internalType": "uint256",
          "name": "",
          "type": "uint256"
        }
      ],
      "stateMutability": "view",
      "type": "function",
      "constant": true
    },
    {
      "inputs": [],
      "name": "decimals",
      "outputs": [
        {
          "internalType": "uint8",
          "name": "",
          "type": "uint8"
        }
      ],
      "stateMutability": "view",
      "type": "function",
      "constant": true
    },
    {
      "inputs": [
        {
          "internalType": "address",
          "name": "spender",
          "type": "address"
        },
        {
          "internalType": "uint256",
          "name": "subtractedValue",
          "type": "uint256"
        }
      ],
      "name": "decreaseAllowance",
      "outputs": [
        {
          "internalType": "bool",
          "name": "",
          "type": "bool"
        }
      ],
      "stateMutability": "nonpayable",
      "type": "function"
    },
    {
      "inputs": [
        {
          "internalType": "address",
          "name": "spender",
          "type": "address"
        },
        {
          "internalType": "uint256",
          "name": "addedValue",
          "type": "uint256"
        }
      ],
      "name": "increaseAllowance",
      "outputs": [
        {
          "internalType": "bool",
          "name": "",
          "type": "bool"
        }
      ],
      "stateMutability": "nonpayable",
      "type": "function"
    },
    {
      "inputs": [],
      "name": "isMature",
      "outputs": [
        {
          "internalType": "bool",
          "name": "",
          "type": "bool"
        }
      ],
      "stateMutability": "view",
      "type": "function",
      "constant": true
    },
    {
      "inputs": [],
      "name": "maturity",
      "outputs": [
        {
          "internalType": "uint256",
          "name": "",
          "type": "uint256"
        }
      ],
      "stateMutability": "view",
      "type": "function",
      "constant": true
    },
    {
      "inputs": [],
      "name": "name",
      "outputs": [
        {
          "internalType": "string",
          "name": "",
          "type": "string"
        }
      ],
      "stateMutability": "view",
      "type": "function",
      "constant": true
    },
    {
      "inputs": [
        {
          "internalType": "address",
          "name": "user",
          "type": "address"
        }
      ],
      "name": "orchestrate",
      "outputs": [],
      "stateMutability": "nonpayable",
      "type": "function"
    },
    {
      "inputs": [],
      "name": "owner",
      "outputs": [
        {
          "internalType": "address",
          "name": "",
          "type": "address"
        }
      ],
      "stateMutability": "view",
      "type": "function",
      "constant": true
    },
    {
      "inputs": [],
      "name": "rate0",
      "outputs": [
        {
          "internalType": "uint256",
          "name": "",
          "type": "uint256"
        }
      ],
      "stateMutability": "view",
      "type": "function",
      "constant": true
    },
    {
      "inputs": [],
      "name": "renounceOwnership",
      "outputs": [],
      "stateMutability": "nonpayable",
      "type": "function"
    },
    {
      "inputs": [
        {
          "internalType": "address",
          "name": "delegate",
          "type": "address"
        }
      ],
      "name": "revokeDelegate",
      "outputs": [],
      "stateMutability": "nonpayable",
      "type": "function"
    },
    {
      "inputs": [],
      "name": "symbol",
      "outputs": [
        {
          "internalType": "string",
          "name": "",
          "type": "string"
        }
      ],
      "stateMutability": "view",
      "type": "function",
      "constant": true
    },
    {
      "inputs": [],
      "name": "totalSupply",
      "outputs": [
        {
          "internalType": "uint256",
          "name": "",
          "type": "uint256"
        }
      ],
      "stateMutability": "view",
      "type": "function",
      "constant": true
    },
    {
      "inputs": [
        {
          "internalType": "address",
          "name": "recipient",
          "type": "address"
        },
        {
          "internalType": "uint256",
          "name": "amount",
          "type": "uint256"
        }
      ],
      "name": "transfer",
      "outputs": [
        {
          "internalType": "bool",
          "name": "",
          "type": "bool"
        }
      ],
      "stateMutability": "nonpayable",
      "type": "function"
    },
    {
      "inputs": [
        {
          "internalType": "address",
          "name": "sender",
          "type": "address"
        },
        {
          "internalType": "address",
          "name": "recipient",
          "type": "address"
        },
        {
          "internalType": "uint256",
          "name": "amount",
          "type": "uint256"
        }
      ],
      "name": "transferFrom",
      "outputs": [
        {
          "internalType": "bool",
          "name": "",
          "type": "bool"
        }
      ],
      "stateMutability": "nonpayable",
      "type": "function"
    },
    {
      "inputs": [
        {
          "internalType": "address",
          "name": "newOwner",
          "type": "address"
        }
      ],
      "name": "transferOwnership",
      "outputs": [],
      "stateMutability": "nonpayable",
      "type": "function"
    },
    {
      "inputs": [],
      "name": "chiGrowth",
      "outputs": [
        {
          "internalType": "uint256",
          "name": "",
          "type": "uint256"
        }
      ],
      "stateMutability": "nonpayable",
      "type": "function"
    },
    {
      "inputs": [],
      "name": "rateGrowth",
      "outputs": [
        {
          "internalType": "uint256",
          "name": "",
          "type": "uint256"
        }
      ],
      "stateMutability": "nonpayable",
      "type": "function"
    },
    {
      "inputs": [],
      "name": "mature",
      "outputs": [],
      "stateMutability": "nonpayable",
      "type": "function"
    },
    {
      "inputs": [
        {
          "internalType": "address",
          "name": "user",
          "type": "address"
        },
        {
          "internalType": "uint256",
          "name": "yDaiAmount",
          "type": "uint256"
        }
      ],
      "name": "redeem",
      "outputs": [],
      "stateMutability": "nonpayable",
      "type": "function"
    },
    {
      "inputs": [
        {
          "internalType": "address",
          "name": "to",
          "type": "address"
        },
        {
          "internalType": "uint256",
          "name": "yDaiAmount",
          "type": "uint256"
        }
      ],
      "name": "mint",
      "outputs": [],
      "stateMutability": "nonpayable",
      "type": "function"
    },
    {
      "inputs": [
        {
          "internalType": "address",
          "name": "from",
          "type": "address"
        },
        {
          "internalType": "uint256",
          "name": "yDaiAmount",
          "type": "uint256"
        }
      ],
      "name": "burn",
      "outputs": [],
      "stateMutability": "nonpayable",
      "type": "function"
    }
  ],
  "bytecode": "0x60806040523480156200001157600080fd5b50604051620039e8380380620039e8833981810160405260e08110156200003757600080fd5b810190808051906020019092919080519060200190929190805190602001909291908051906020019092919080519060200190929190805160405193929190846401000000008211156200008a57600080fd5b83820191506020820185811115620000a157600080fd5b8251866001820283011164010000000082111715620000bf57600080fd5b8083526020830192505050908051906020019080838360005b83811015620000f5578082015181840152602081019050620000d8565b50505050905090810190601f168015620001235780820380516001836020036101000a031916815260200191505b50604052602001805160405193929190846401000000008211156200014757600080fd5b838201915060208201858111156200015e57600080fd5b82518660018202830111640100000000821117156200017c57600080fd5b8083526020830192505050908051906020019080838360005b83811015620001b257808201518184015260208101905062000195565b50505050905090810190601f168015620001e05780820380516001836020036101000a031916815260200191505b5060405250505081816000620001fb6200044160201b60201c565b9050806000806101000a81548173ffffffffffffffffffffffffffffffffffffffff021916908373ffffffffffffffffffffffffffffffffffffffff1602179055508073ffffffffffffffffffffffffffffffffffffffff16600073ffffffffffffffffffffffffffffffffffffffff167f8be0079c531659141344cd1fd0a4f28419497f9722a3daafe3b4186f6b6457e060405160405180910390a3508160069080519060200190620002b1929190620004d4565b508060079080519060200190620002ca929190620004d4565b506012600860006101000a81548160ff021916908360ff160217905550505086600860016101000a81548173ffffffffffffffffffffffffffffffffffffffff021916908373ffffffffffffffffffffffffffffffffffffffff16021790555085600960006101000a81548173ffffffffffffffffffffffffffffffffffffffff021916908373ffffffffffffffffffffffffffffffffffffffff16021790555084600a60006101000a81548173ffffffffffffffffffffffffffffffffffffffff021916908373ffffffffffffffffffffffffffffffffffffffff16021790555083600b60006101000a81548173ffffffffffffffffffffffffffffffffffffffff021916908373ffffffffffffffffffffffffffffffffffffffff16021790555082600c819055506200040e601b60ff166200044960201b62002fba1760201c565b600d819055506200042e601b60ff166200044960201b62002fba1760201c565b600e819055505050505050505062000583565b600033905090565b6000604d8260ff161115620004c6576040517f08c379a00000000000000000000000000000000000000000000000000000000081526004018080602001828103825260118152602001807f546f6f206d616e7920646563696d616c7300000000000000000000000000000081525060200191505060405180910390fd5b8160ff16600a0a9050919050565b828054600181600116156101000203166002900490600052602060002090601f016020900481019282601f106200051757805160ff191683800117855562000548565b8280016001018555821562000548579182015b82811115620005475782518255916020019190600101906200052a565b5b5090506200055791906200055b565b5090565b6200058091905b808211156200057c57600081600090555060010162000562565b5090565b90565b61345580620005936000396000f3fe608060405234801561001057600080fd5b50600436106101f05760003560e01c806387b652071161010f578063ad5c4648116100a2578063dd62ed3e11610071578063dd62ed3e1461089f578063e71bdf4114610917578063f2fde38b1461095b578063fa352c001461099f576101f0565b8063ad5c464814610823578063ae4e7fdf14610841578063b6dbf9ce14610863578063cb24019814610881576101f0565b80639dc29fac116100de5780639dc29fac146106eb578063a457c2d714610739578063a9059cbb1461079f578063abf1614b14610805576101f0565b806387b65207146105f65780638da5cb5b1461060057806393c19e181461064a57806395d89b4114610668576101f0565b8063313ce567116101875780636a146024116101565780636a1460241461052c57806370a0823114610550578063715018a6146105a857806380f5a440146105b2576101f0565b8063313ce56714610430578063395093511461045457806340c10f19146104ba578063552033c414610508576101f0565b806318160ddd116101c357806318160ddd146103205780631e9a69501461033e578063204f83f91461038c57806323b872dd146103aa576101f0565b806306f405fd146101f557806306fdde0314610219578063095ea7b31461029c57806312970eac14610302575b600080fd5b6101fd6109e3565b604051808260ff1660ff16815260200191505060405180910390f35b6102216109e8565b6040518080602001828103825283818151815260200191508051906020019080838360005b83811015610261578082015181840152602081019050610246565b50505050905090810190601f16801561028e5780820380516001836020036101000a031916815260200191505b509250505060405180910390f35b6102e8600480360360408110156102b257600080fd5b81019080803573ffffffffffffffffffffffffffffffffffffffff16906020019092919080359060200190929190505050610a8a565b604051808215151515815260200191505060405180910390f35b61030a610aa8565b6040518082815260200191505060405180910390f35b610328610aae565b6040518082815260200191505060405180910390f35b61038a6004803603604081101561035457600080fd5b81019080803573ffffffffffffffffffffffffffffffffffffffff16906020019092919080359060200190929190505050610ab8565b005b610394610dd3565b6040518082815260200191505060405180910390f35b610416600480360360608110156103c057600080fd5b81019080803573ffffffffffffffffffffffffffffffffffffffff169060200190929190803573ffffffffffffffffffffffffffffffffffffffff16906020019092919080359060200190929190505050610dd9565b604051808215151515815260200191505060405180910390f35b610438610eb2565b604051808260ff1660ff16815260200191505060405180910390f35b6104a06004803603604081101561046a57600080fd5b81019080803573ffffffffffffffffffffffffffffffffffffffff16906020019092919080359060200190929190505050610ec9565b604051808215151515815260200191505060405180910390f35b610506600480360360408110156104d057600080fd5b81019080803573ffffffffffffffffffffffffffffffffffffffff16906020019092919080359060200190929190505050610f7c565b005b6105106110b6565b604051808260ff1660ff16815260200191505060405180910390f35b6105346110bb565b604051808260ff1660ff16815260200191505060405180910390f35b6105926004803603602081101561056657600080fd5b81019080803573ffffffffffffffffffffffffffffffffffffffff1690602001909291905050506110c0565b6040518082815260200191505060405180910390f35b6105b0611109565b005b6105f4600480360360208110156105c857600080fd5b81019080803573ffffffffffffffffffffffffffffffffffffffff169060200190929190505050611291565b005b6105fe611417565b005b6106086118a0565b604051808273ffffffffffffffffffffffffffffffffffffffff1673ffffffffffffffffffffffffffffffffffffffff16815260200191505060405180910390f35b6106526118c9565b6040518082815260200191505060405180910390f35b6106706118cf565b6040518080602001828103825283818151815260200191508051906020019080838360005b838110156106b0578082015181840152602081019050610695565b50505050905090810190601f1680156106dd5780820380516001836020036101000a031916815260200191505b509250505060405180910390f35b6107376004803603604081101561070157600080fd5b81019080803573ffffffffffffffffffffffffffffffffffffffff16906020019092919080359060200190929190505050611971565b005b6107856004803603604081101561074f57600080fd5b81019080803573ffffffffffffffffffffffffffffffffffffffff16906020019092919080359060200190929190505050611aab565b604051808215151515815260200191505060405180910390f35b6107eb600480360360408110156107b557600080fd5b81019080803573ffffffffffffffffffffffffffffffffffffffff16906020019092919080359060200190929190505050611b78565b604051808215151515815260200191505060405180910390f35b61080d611b96565b6040518082815260200191505060405180910390f35b61082b611ea1565b6040518082815260200191505060405180910390f35b610849611ec5565b604051808215151515815260200191505060405180910390f35b61086b611ed8565b6040518082815260200191505060405180910390f35b610889611efc565b6040518082815260200191505060405180910390f35b610901600480360360408110156108b557600080fd5b81019080803573ffffffffffffffffffffffffffffffffffffffff169060200190929190803573ffffffffffffffffffffffffffffffffffffffff16906020019092919050505061214f565b6040518082815260200191505060405180910390f35b6109596004803603602081101561092d57600080fd5b81019080803573ffffffffffffffffffffffffffffffffffffffff1690602001909291905050506121d6565b005b61099d6004803603602081101561097157600080fd5b81019080803573ffffffffffffffffffffffffffffffffffffffff1690602001909291905050506122d8565b005b6109e1600480360360208110156109b557600080fd5b81019080803573ffffffffffffffffffffffffffffffffffffffff1690602001909291905050506124e5565b005b602d81565b606060068054600181600116156101000203166002900480601f016020809104026020016040519081016040528092919081815260200182805460018160011615610100020316600290048015610a805780601f10610a5557610100808354040283529160200191610a80565b820191906000526020600020905b815481529060010190602001808311610a6357829003601f168201915b5050505050905090565b6000610a9e610a976125e7565b84846125ef565b6001905092915050565b600d5481565b6000600554905090565b816040518060400160405280601d81526020017f594461693a204f6e6c7920486f6c646572204f722044656c65676174650000008152508173ffffffffffffffffffffffffffffffffffffffff163373ffffffffffffffffffffffffffffffffffffffff161480610baf5750600260008373ffffffffffffffffffffffffffffffffffffffff1673ffffffffffffffffffffffffffffffffffffffff16815260200190815260200160002060003373ffffffffffffffffffffffffffffffffffffffff1673ffffffffffffffffffffffffffffffffffffffff16815260200190815260200160002060009054906101000a900460ff165b8190610c56576040517f08c379a00000000000000000000000000000000000000000000000000000000081526004018080602001828103825283818151815260200191508051906020019080838360005b83811015610c1b578082015181840152602081019050610c00565b50505050905090810190601f168015610c485780820380516001836020036101000a031916815260200191505b509250505060405180910390fd5b5060011515600b60149054906101000a900460ff16151514610ce0576040517f08c379a00000000000000000000000000000000000000000000000000000000081526004018080602001828103825260188152602001807f594461693a2079446169206973206e6f74206d6174757265000000000000000081525060200191505060405180910390fd5b610cea84846127e6565b6000610d09610cf7611efc565b601b866129ac9092919063ffffffff16565b9050600b60009054906101000a900473ffffffffffffffffffffffffffffffffffffffff1673ffffffffffffffffffffffffffffffffffffffff16635502770386836040518363ffffffff1660e01b8152600401808373ffffffffffffffffffffffffffffffffffffffff1673ffffffffffffffffffffffffffffffffffffffff16815260200182815260200192505050600060405180830381600087803b158015610db457600080fd5b505af1158015610dc8573d6000803e3d6000fd5b505050505050505050565b600c5481565b6000610de68484846129e4565b610ea784610df26125e7565b610ea28560405180606001604052806028815260200161336960289139600460008b73ffffffffffffffffffffffffffffffffffffffff1673ffffffffffffffffffffffffffffffffffffffff1681526020019081526020016000206000610e586125e7565b73ffffffffffffffffffffffffffffffffffffffff1673ffffffffffffffffffffffffffffffffffffffff16815260200190815260200160002054612ca99092919063ffffffff16565b6125ef565b600190509392505050565b6000600860009054906101000a900460ff16905090565b6000610f72610ed66125e7565b84610f6d8560046000610ee76125e7565b73ffffffffffffffffffffffffffffffffffffffff1673ffffffffffffffffffffffffffffffffffffffff16815260200190815260200160002060008973ffffffffffffffffffffffffffffffffffffffff1673ffffffffffffffffffffffffffffffffffffffff16815260200190815260200160002054612d6990919063ffffffff16565b6125ef565b6001905092915050565b6040518060400160405280601481526020017f594461693a204e6f7420417574686f72697a6564000000000000000000000000815250600160003373ffffffffffffffffffffffffffffffffffffffff1673ffffffffffffffffffffffffffffffffffffffff16815260200190815260200160002060009054906101000a900460ff1681906110a6576040517f08c379a00000000000000000000000000000000000000000000000000000000081526004018080602001828103825283818151815260200191508051906020019080838360005b8381101561106b578082015181840152602081019050611050565b50505050905090810190601f1680156110985780820380516001836020036101000a031916815260200191505b509250505060405180910390fd5b506110b18383612df1565b505050565b601b81565b601281565b6000600360008373ffffffffffffffffffffffffffffffffffffffff1673ffffffffffffffffffffffffffffffffffffffff168152602001908152602001600020549050919050565b6111116125e7565b73ffffffffffffffffffffffffffffffffffffffff166000809054906101000a900473ffffffffffffffffffffffffffffffffffffffff1673ffffffffffffffffffffffffffffffffffffffff16146111d2576040517f08c379a00000000000000000000000000000000000000000000000000000000081526004018080602001828103825260208152602001807f4f776e61626c653a2063616c6c6572206973206e6f7420746865206f776e657281525060200191505060405180910390fd5b600073ffffffffffffffffffffffffffffffffffffffff166000809054906101000a900473ffffffffffffffffffffffffffffffffffffffff1673ffffffffffffffffffffffffffffffffffffffff167f8be0079c531659141344cd1fd0a4f28419497f9722a3daafe3b4186f6b6457e060405160405180910390a360008060006101000a81548173ffffffffffffffffffffffffffffffffffffffff021916908373ffffffffffffffffffffffffffffffffffffffff160217905550565b6112996125e7565b73ffffffffffffffffffffffffffffffffffffffff166000809054906101000a900473ffffffffffffffffffffffffffffffffffffffff1673ffffffffffffffffffffffffffffffffffffffff161461135a576040517f08c379a00000000000000000000000000000000000000000000000000000000081526004018080602001828103825260208152602001807f4f776e61626c653a2063616c6c6572206973206e6f7420746865206f776e657281525060200191505060405180910390fd5b60018060008373ffffffffffffffffffffffffffffffffffffffff1673ffffffffffffffffffffffffffffffffffffffff16815260200190815260200160002060006101000a81548160ff0219169083151502179055507f6a7c5f28ea564fafc8b079663a2a9b9d26fe735d97c97611484ce044f40a16e281604051808273ffffffffffffffffffffffffffffffffffffffff1673ffffffffffffffffffffffffffffffffffffffff16815260200191505060405180910390a150565b600c54421161148e576040517f08c379a00000000000000000000000000000000000000000000000000000000081526004018080602001828103825260198152602001807f594461693a20546f6f206561726c7920746f206d61747572650000000000000081525060200191505060405180910390fd5b60011515600b60149054906101000a900460ff1615151415611518576040517f08c379a00000000000000000000000000000000000000000000000000000000081526004018080602001828103825260158152602001807f594461693a20416c7265616479206d617475726564000000000000000000000081525060200191505060405180910390fd5b600860019054906101000a900473ffffffffffffffffffffffffffffffffffffffff1673ffffffffffffffffffffffffffffffffffffffff1663d9638d366040518163ffffffff1660e01b815260040180807f4554482d41000000000000000000000000000000000000000000000000000000815250602001905060a06040518083038186803b1580156115ab57600080fd5b505afa1580156115bf573d6000803e3d6000fd5b505050506040513d60a08110156115d557600080fd5b8101908080519060200190929190805190602001909291908051906020019092919080519060200190929190805190602001909291905050509091929350909150905050600e600082919050555061163b600e54611636601b60ff16612fba565b613044565b600e81905550600a60009054906101000a900473ffffffffffffffffffffffffffffffffffffffff1673ffffffffffffffffffffffffffffffffffffffff166320aba08b6040518163ffffffff1660e01b8152600401602060405180830381600087803b1580156116ab57600080fd5b505af11580156116bf573d6000803e3d6000fd5b505050506040513d60208110156116d557600080fd5b8101908080519060200190929190505050421161179457600a60009054906101000a900473ffffffffffffffffffffffffffffffffffffffff1673ffffffffffffffffffffffffffffffffffffffff1663c92aecc46040518163ffffffff1660e01b815260040160206040518083038186803b15801561175457600080fd5b505afa158015611768573d6000803e3d6000fd5b505050506040513d602081101561177e57600080fd5b810190808051906020019092919050505061183a565b600a60009054906101000a900473ffffffffffffffffffffffffffffffffffffffff1673ffffffffffffffffffffffffffffffffffffffff16639f678cca6040518163ffffffff1660e01b8152600401602060405180830381600087803b1580156117fe57600080fd5b505af1158015611812573d6000803e3d6000fd5b505050506040513d602081101561182857600080fd5b81019080805190602001909291905050505b600d819055506001600b60146101000a81548160ff0219169083151502179055507f30a742d45111295203c4b8db614c8b05dd1323a7c5159fb88b0cc73be46b7a75600e54600d54604051808381526020018281526020019250505060405180910390a1565b60008060009054906101000a900473ffffffffffffffffffffffffffffffffffffffff16905090565b600e5481565b606060078054600181600116156101000203166002900480601f0160208091040260200160405190810160405280929190818152602001828054600181600116156101000203166002900480156119675780601f1061193c57610100808354040283529160200191611967565b820191906000526020600020905b81548152906001019060200180831161194a57829003601f168201915b5050505050905090565b6040518060400160405280601481526020017f594461693a204e6f7420417574686f72697a6564000000000000000000000000815250600160003373ffffffffffffffffffffffffffffffffffffffff1673ffffffffffffffffffffffffffffffffffffffff16815260200190815260200160002060009054906101000a900460ff168190611a9b576040517f08c379a00000000000000000000000000000000000000000000000000000000081526004018080602001828103825283818151815260200191508051906020019080838360005b83811015611a60578082015181840152602081019050611a45565b50505050905090810190601f168015611a8d5780820380516001836020036101000a031916815260200191505b509250505060405180910390fd5b50611aa683836127e6565b505050565b6000611b6e611ab86125e7565b84611b69856040518060600160405280602581526020016133fb6025913960046000611ae26125e7565b73ffffffffffffffffffffffffffffffffffffffff1673ffffffffffffffffffffffffffffffffffffffff16815260200190815260200160002060008a73ffffffffffffffffffffffffffffffffffffffff1673ffffffffffffffffffffffffffffffffffffffff16815260200190815260200160002054612ca99092919063ffffffff16565b6125ef565b6001905092915050565b6000611b8c611b856125e7565b84846129e4565b6001905092915050565b600060011515600b60149054906101000a900460ff16151514611bbd57600e549050611e9e565b600080600960009054906101000a900473ffffffffffffffffffffffffffffffffffffffff1673ffffffffffffffffffffffffffffffffffffffff1663d9638d366040518163ffffffff1660e01b815260040180807f4554482d4100000000000000000000000000000000000000000000000000000081525060200190506040805180830381600087803b158015611c5457600080fd5b505af1158015611c68573d6000803e3d6000fd5b505050506040513d6040811015611c7e57600080fd5b81019080805190602001909291908051906020019092919050505091505080421115611d7b57600960009054906101000a900473ffffffffffffffffffffffffffffffffffffffff1673ffffffffffffffffffffffffffffffffffffffff166344e2a5a86040518163ffffffff1660e01b815260040180807f4554482d410000000000000000000000000000000000000000000000000000008152506020019050602060405180830381600087803b158015611d3957600080fd5b505af1158015611d4d573d6000803e3d6000fd5b505050506040513d6020811015611d6357600080fd5b81019080805190602001909291905050509150611e81565b600860019054906101000a900473ffffffffffffffffffffffffffffffffffffffff1673ffffffffffffffffffffffffffffffffffffffff1663d9638d366040518163ffffffff1660e01b815260040180807f4554482d41000000000000000000000000000000000000000000000000000000815250602001905060a06040518083038186803b158015611e0e57600080fd5b505afa158015611e22573d6000803e3d6000fd5b505050506040513d60a0811015611e3857600080fd5b8101908080519060200190929190805190602001909291908051906020019092919080519060200190929190805190602001909291905050509091929350909150905050809250505b611e99600e54601b8461305e9092919063ffffffff16565b925050505b90565b7f574554480000000000000000000000000000000000000000000000000000000081565b600b60149054906101000a900460ff1681565b7f434841490000000000000000000000000000000000000000000000000000000081565b600060011515600b60149054906101000a900460ff16151514611f2357600d54905061214c565b6000600a60009054906101000a900473ffffffffffffffffffffffffffffffffffffffff1673ffffffffffffffffffffffffffffffffffffffff166320aba08b6040518163ffffffff1660e01b8152600401602060405180830381600087803b158015611f8f57600080fd5b505af1158015611fa3573d6000803e3d6000fd5b505050506040513d6020811015611fb957600080fd5b8101908080519060200190929190505050421161207857600a60009054906101000a900473ffffffffffffffffffffffffffffffffffffffff1673ffffffffffffffffffffffffffffffffffffffff1663c92aecc46040518163ffffffff1660e01b815260040160206040518083038186803b15801561203857600080fd5b505afa15801561204c573d6000803e3d6000fd5b505050506040513d602081101561206257600080fd5b810190808051906020019092919050505061211e565b600a60009054906101000a900473ffffffffffffffffffffffffffffffffffffffff1673ffffffffffffffffffffffffffffffffffffffff16639f678cca6040518163ffffffff1660e01b8152600401602060405180830381600087803b1580156120e257600080fd5b505af11580156120f6573d6000803e3d6000fd5b505050506040513d602081101561210c57600080fd5b81019080805190602001909291905050505b905061214861212b611b96565b612143600d54601b8561305e9092919063ffffffff16565b613096565b9150505b90565b6000600460008473ffffffffffffffffffffffffffffffffffffffff1673ffffffffffffffffffffffffffffffffffffffff16815260200190815260200160002060008373ffffffffffffffffffffffffffffffffffffffff1673ffffffffffffffffffffffffffffffffffffffff16815260200190815260200160002054905092915050565b6001600260003373ffffffffffffffffffffffffffffffffffffffff1673ffffffffffffffffffffffffffffffffffffffff16815260200190815260200160002060008373ffffffffffffffffffffffffffffffffffffffff1673ffffffffffffffffffffffffffffffffffffffff16815260200190815260200160002060006101000a81548160ff0219169083151502179055508073ffffffffffffffffffffffffffffffffffffffff163373ffffffffffffffffffffffffffffffffffffffff167f045b0fef01772d2fbba53dbd38c9777806eac0865b00af43abcfbcaf50da92066001604051808215151515815260200191505060405180910390a350565b6122e06125e7565b73ffffffffffffffffffffffffffffffffffffffff166000809054906101000a900473ffffffffffffffffffffffffffffffffffffffff1673ffffffffffffffffffffffffffffffffffffffff16146123a1576040517f08c379a00000000000000000000000000000000000000000000000000000000081526004018080602001828103825260208152602001807f4f776e61626c653a2063616c6c6572206973206e6f7420746865206f776e657281525060200191505060405180910390fd5b600073ffffffffffffffffffffffffffffffffffffffff168173ffffffffffffffffffffffffffffffffffffffff161415612427576040517f08c379a00000000000000000000000000000000000000000000000000000000081526004018080602001828103825260268152602001806132da6026913960400191505060405180910390fd5b8073ffffffffffffffffffffffffffffffffffffffff166000809054906101000a900473ffffffffffffffffffffffffffffffffffffffff1673ffffffffffffffffffffffffffffffffffffffff167f8be0079c531659141344cd1fd0a4f28419497f9722a3daafe3b4186f6b6457e060405160405180910390a3806000806101000a81548173ffffffffffffffffffffffffffffffffffffffff021916908373ffffffffffffffffffffffffffffffffffffffff16021790555050565b6000600260003373ffffffffffffffffffffffffffffffffffffffff1673ffffffffffffffffffffffffffffffffffffffff16815260200190815260200160002060008373ffffffffffffffffffffffffffffffffffffffff1673ffffffffffffffffffffffffffffffffffffffff16815260200190815260200160002060006101000a81548160ff0219169083151502179055508073ffffffffffffffffffffffffffffffffffffffff163373ffffffffffffffffffffffffffffffffffffffff167f045b0fef01772d2fbba53dbd38c9777806eac0865b00af43abcfbcaf50da92066000604051808215151515815260200191505060405180910390a350565b600033905090565b600073ffffffffffffffffffffffffffffffffffffffff168373ffffffffffffffffffffffffffffffffffffffff161415612675576040517f08c379a00000000000000000000000000000000000000000000000000000000081526004018080602001828103825260248152602001806133d76024913960400191505060405180910390fd5b600073ffffffffffffffffffffffffffffffffffffffff168273ffffffffffffffffffffffffffffffffffffffff1614156126fb576040517f08c379a00000000000000000000000000000000000000000000000000000000081526004018080602001828103825260228152602001806133006022913960400191505060405180910390fd5b80600460008573ffffffffffffffffffffffffffffffffffffffff1673ffffffffffffffffffffffffffffffffffffffff16815260200190815260200160002060008473ffffffffffffffffffffffffffffffffffffffff1673ffffffffffffffffffffffffffffffffffffffff168152602001908152602001600020819055508173ffffffffffffffffffffffffffffffffffffffff168373ffffffffffffffffffffffffffffffffffffffff167f8c5be1e5ebec7d5bd14f71427d1e84f3dd0314c0f7b2291e5b200ac8c7c3b925836040518082815260200191505060405180910390a3505050565b600073ffffffffffffffffffffffffffffffffffffffff168273ffffffffffffffffffffffffffffffffffffffff16141561286c576040517f08c379a00000000000000000000000000000000000000000000000000000000081526004018080602001828103825260218152602001806133916021913960400191505060405180910390fd5b612878826000836130af565b6128e4816040518060600160405280602281526020016132b860229139600360008673ffffffffffffffffffffffffffffffffffffffff1673ffffffffffffffffffffffffffffffffffffffff16815260200190815260200160002054612ca99092919063ffffffff16565b600360008473ffffffffffffffffffffffffffffffffffffffff1673ffffffffffffffffffffffffffffffffffffffff1681526020019081526020016000208190555061293c816005546130b490919063ffffffff16565b600581905550600073ffffffffffffffffffffffffffffffffffffffff168273ffffffffffffffffffffffffffffffffffffffff167fddf252ad1be2c89b69c2b068fc378daa952ba7f163c4a11628f55a4df523b3ef836040518082815260200191505060405180910390a35050565b60006129db6129ba83612fba565b6129cd85876130fe90919063ffffffff16565b61318490919063ffffffff16565b90509392505050565b600073ffffffffffffffffffffffffffffffffffffffff168373ffffffffffffffffffffffffffffffffffffffff161415612a6a576040517f08c379a00000000000000000000000000000000000000000000000000000000081526004018080602001828103825260258152602001806133b26025913960400191505060405180910390fd5b600073ffffffffffffffffffffffffffffffffffffffff168273ffffffffffffffffffffffffffffffffffffffff161415612af0576040517f08c379a00000000000000000000000000000000000000000000000000000000081526004018080602001828103825260238152602001806132956023913960400191505060405180910390fd5b612afb8383836130af565b612b678160405180606001604052806026815260200161332260269139600360008773ffffffffffffffffffffffffffffffffffffffff1673ffffffffffffffffffffffffffffffffffffffff16815260200190815260200160002054612ca99092919063ffffffff16565b600360008573ffffffffffffffffffffffffffffffffffffffff1673ffffffffffffffffffffffffffffffffffffffff16815260200190815260200160002081905550612bfc81600360008573ffffffffffffffffffffffffffffffffffffffff1673ffffffffffffffffffffffffffffffffffffffff16815260200190815260200160002054612d6990919063ffffffff16565b600360008473ffffffffffffffffffffffffffffffffffffffff1673ffffffffffffffffffffffffffffffffffffffff168152602001908152602001600020819055508173ffffffffffffffffffffffffffffffffffffffff168373ffffffffffffffffffffffffffffffffffffffff167fddf252ad1be2c89b69c2b068fc378daa952ba7f163c4a11628f55a4df523b3ef836040518082815260200191505060405180910390a3505050565b6000838311158290612d56576040517f08c379a00000000000000000000000000000000000000000000000000000000081526004018080602001828103825283818151815260200191508051906020019080838360005b83811015612d1b578082015181840152602081019050612d00565b50505050905090810190601f168015612d485780820380516001836020036101000a031916815260200191505b509250505060405180910390fd5b5060008385039050809150509392505050565b600080828401905083811015612de7576040517f08c379a000000000000000000000000000000000000000000000000000000000815260040180806020018281038252601b8152602001807f536166654d6174683a206164646974696f6e206f766572666c6f77000000000081525060200191505060405180910390fd5b8091505092915050565b600073ffffffffffffffffffffffffffffffffffffffff168273ffffffffffffffffffffffffffffffffffffffff161415612e94576040517f08c379a000000000000000000000000000000000000000000000000000000000815260040180806020018281038252601f8152602001807f45524332303a206d696e7420746f20746865207a65726f20616464726573730081525060200191505060405180910390fd5b612ea0600083836130af565b612eb581600554612d6990919063ffffffff16565b600581905550612f0d81600360008573ffffffffffffffffffffffffffffffffffffffff1673ffffffffffffffffffffffffffffffffffffffff16815260200190815260200160002054612d6990919063ffffffff16565b600360008473ffffffffffffffffffffffffffffffffffffffff1673ffffffffffffffffffffffffffffffffffffffff168152602001908152602001600020819055508173ffffffffffffffffffffffffffffffffffffffff16600073ffffffffffffffffffffffffffffffffffffffff167fddf252ad1be2c89b69c2b068fc378daa952ba7f163c4a11628f55a4df523b3ef836040518082815260200191505060405180910390a35050565b6000604d8260ff161115613036576040517f08c379a00000000000000000000000000000000000000000000000000000000081526004018080602001828103825260118152602001807f546f6f206d616e7920646563696d616c7300000000000000000000000000000081525060200191505060405180910390fd5b8160ff16600a0a9050919050565b6000818310156130545781613056565b825b905092915050565b600061308d8361307f61307085612fba565b876130fe90919063ffffffff16565b61318490919063ffffffff16565b90509392505050565b60008183106130a557816130a7565b825b905092915050565b505050565b60006130f683836040518060400160405280601e81526020017f536166654d6174683a207375627472616374696f6e206f766572666c6f770000815250612ca9565b905092915050565b600080831415613111576000905061317e565b600082840290508284828161312257fe5b0414613179576040517f08c379a00000000000000000000000000000000000000000000000000000000081526004018080602001828103825260218152602001806133486021913960400191505060405180910390fd5b809150505b92915050565b60006131c683836040518060400160405280601a81526020017f536166654d6174683a206469766973696f6e206279207a65726f0000000000008152506131ce565b905092915050565b6000808311829061327a576040517f08c379a00000000000000000000000000000000000000000000000000000000081526004018080602001828103825283818151815260200191508051906020019080838360005b8381101561323f578082015181840152602081019050613224565b50505050905090810190601f16801561326c5780820380516001836020036101000a031916815260200191505b509250505060405180910390fd5b50600083858161328657fe5b04905080915050939250505056fe45524332303a207472616e7366657220746f20746865207a65726f206164647265737345524332303a206275726e20616d6f756e7420657863656564732062616c616e63654f776e61626c653a206e6577206f776e657220697320746865207a65726f206164647265737345524332303a20617070726f766520746f20746865207a65726f206164647265737345524332303a207472616e7366657220616d6f756e7420657863656564732062616c616e6365536166654d6174683a206d756c7469706c69636174696f6e206f766572666c6f7745524332303a207472616e7366657220616d6f756e74206578636565647320616c6c6f77616e636545524332303a206275726e2066726f6d20746865207a65726f206164647265737345524332303a207472616e736665722066726f6d20746865207a65726f206164647265737345524332303a20617070726f76652066726f6d20746865207a65726f206164647265737345524332303a2064656372656173656420616c6c6f77616e63652062656c6f77207a65726fa264697066735822122062af5e0a19cca64f527c53eb9af10f6c994baec2c4afc09ceb0f1a31955cbe9964736f6c63430006020033",
  "source": "pragma solidity ^0.6.0;\n\nimport \"./helpers/Orchestrated.sol\";\nimport \"@hq20/contracts/contracts/math/DecimalMath.sol\";\nimport \"@openzeppelin/contracts/math/Math.sol\";\nimport \"@openzeppelin/contracts/token/ERC20/ERC20.sol\";\nimport \"./interfaces/IVat.sol\";\nimport \"./interfaces/IJug.sol\";\nimport \"./interfaces/IPot.sol\";\nimport \"./interfaces/ITreasury.sol\";\nimport \"./interfaces/IYDai.sol\";\nimport \"./helpers/Constants.sol\";\nimport \"./helpers/Delegable.sol\";\nimport \"@nomiclabs/buidler/console.sol\";\n\n\n/// @dev yDai is a yToken targeting Dai.\ncontract YDai is Orchestrated(), Delegable(), ERC20, Constants, IYDai  {\n    using DecimalMath for uint256;\n    using DecimalMath for uint8;\n\n    event Matured(uint256 rate, uint256 chi);\n\n    IVat internal _vat;\n    IJug internal _jug;\n    IPot internal _pot;\n    ITreasury internal _treasury;\n\n    bool public override isMature;\n    uint256 public override maturity;\n    uint256 public override chi0;      // Chi at maturity\n    uint256 public override rate0;     // Rate at maturity\n\n    constructor(\n        address vat_,\n        address jug_,\n        address pot_,\n        address treasury_,\n        uint256 maturity_,\n        string memory name,\n        string memory symbol\n    ) public ERC20(name, symbol) {\n        _vat = IVat(vat_);\n        _jug = IJug(jug_);\n        _pot = IPot(pot_);\n        _treasury = ITreasury(treasury_);\n        maturity = maturity_;\n        chi0 = RAY.unit();\n        rate0 = RAY.unit();\n    }\n\n    /// @dev Chi differential between maturity and now in RAY. Returns 1.0 if not mature.\n    /// If rateGrowth < chiGrowth, returns rate.\n    //\n    //          chi_now\n    // chi() = ---------\n    //          chi_mat\n    //\n    function chiGrowth() public override returns(uint256){\n        if (isMature != true) return chi0;\n        uint256 chiNow = (now > _pot.rho()) ? _pot.drip() : _pot.chi();\n        return Math.min(rateGrowth(), chiNow.divd(chi0, RAY));\n    }\n\n    /// @dev Rate differential between maturity and now in RAY. Returns 1.0 if not mature.\n    //\n    //           rate_now\n    // rateGrowth() = ----------\n    //           rate_mat\n    //\n    function rateGrowth() public override returns(uint256){\n        if (isMature != true) return rate0;\n        uint256 rateNow;\n        (, uint256 rho) = _jug.ilks(\"ETH-A\"); // \"WETH\" for weth.sol, \"ETH-A\" for MakerDAO\n        if (now > rho) {\n            rateNow = _jug.drip(\"ETH-A\");\n            // console.log(rateNow);\n        } else {\n            (, rateNow,,,) = _vat.ilks(\"ETH-A\");\n        }\n        return rateNow.divd(rate0, RAY);\n    }\n\n    /// @dev Mature yDai and capture maturity data\n    function mature() public override {\n        require(\n            // solium-disable-next-line security/no-block-members\n            now > maturity,\n            \"YDai: Too early to mature\"\n        );\n        require(\n            isMature != true,\n            \"YDai: Already matured\"\n        );\n        (, rate0,,,) = _vat.ilks(\"ETH-A\"); // Retrieve the MakerDAO Vat\n        rate0 = Math.max(rate0, RAY.unit()); // Floor it at 1.0\n        chi0 = (now > _pot.rho()) ? _pot.drip() : _pot.chi();\n        isMature = true;\n        emit Matured(rate0, chi0);\n    }\n\n    /// @dev Burn yTokens and return their dai equivalent value, pulled from the Treasury\n    // TODO: Consider whether to allow this to be gracefully unwind, instead of letting `_treasury.pullDai()` revert.\n    // user --- yDai ---> us\n    // us   --- Dai  ---> user\n    function redeem(address user, uint256 yDaiAmount)\n        public onlyHolderOrDelegate(user, \"YDai: Only Holder Or Delegate\") {\n        require(\n            isMature == true,\n            \"YDai: yDai is not mature\"\n        );\n        _burn(user, yDaiAmount);                              // Burn yDai from user\n        uint256 daiAmount = yDaiAmount.muld(chiGrowth(), RAY); // User gets interest for holding after maturity\n        _treasury.pullDai(user, daiAmount);                   // Give dai to user, from Treasury\n    }\n\n    /// @dev Mint yDai. Only callable by Dealer contracts.\n    function mint(address to, uint256 yDaiAmount) public override onlyOrchestrated(\"YDai: Not Authorized\")\n        {\n        _mint(to, yDaiAmount);\n    }\n\n    /// @dev Burn yDai. Only callable by Dealer contracts.\n    function burn(address from, uint256 yDaiAmount) public override onlyOrchestrated(\"YDai: Not Authorized\") {\n        _burn(from, yDaiAmount);\n    }\n}",
  "sourcePath": "/Users/bruce/dev/yieldprotocol/ytoken-mvp/contracts/YDai.sol",
  "compiler": {
    "name": "solc",
    "version": "0.6.2+commit.bacdbe57.Emscripten.clang"
  },
  "schemaVersion": "3.0.23",
  "updatedAt": "2020-07-01T06:27:23.525Z",
  "networkType": "ethereum",
  "devdoc": {
    "details": "yDai is a yToken targeting Dai.",
    "methods": {
      "addDelegate(address)": {
        "details": "Enable a delegate to act on the behalf of caller"
      },
      "allowance(address,address)": {
        "details": "See {IERC20-allowance}."
      },
      "approve(address,uint256)": {
        "details": "See {IERC20-approve}.     * Requirements:     * - `spender` cannot be the zero address."
      },
      "balanceOf(address)": {
        "details": "See {IERC20-balanceOf}."
      },
      "burn(address,uint256)": {
        "details": "Burn yDai. Only callable by Dealer contracts."
      },
      "chiGrowth()": {
        "details": "Chi differential between maturity and now in RAY. Returns 1.0 if not mature. If rateGrowth < chiGrowth, returns rate."
      },
      "decimals()": {
        "details": "Returns the number of decimals used to get its user representation. For example, if `decimals` equals `2`, a balance of `505` tokens should be displayed to a user as `5,05` (`505 / 10 ** 2`).     * Tokens usually opt for a value of 18, imitating the relationship between Ether and Wei. This is the value {ERC20} uses, unless {_setupDecimals} is called.     * NOTE: This information is only used for _display_ purposes: it in no way affects any of the arithmetic of the contract, including {IERC20-balanceOf} and {IERC20-transfer}."
      },
      "decreaseAllowance(address,uint256)": {
        "details": "Atomically decreases the allowance granted to `spender` by the caller.     * This is an alternative to {approve} that can be used as a mitigation for problems described in {IERC20-approve}.     * Emits an {Approval} event indicating the updated allowance.     * Requirements:     * - `spender` cannot be the zero address. - `spender` must have allowance for the caller of at least `subtractedValue`."
      },
      "increaseAllowance(address,uint256)": {
        "details": "Atomically increases the allowance granted to `spender` by the caller.     * This is an alternative to {approve} that can be used as a mitigation for problems described in {IERC20-approve}.     * Emits an {Approval} event indicating the updated allowance.     * Requirements:     * - `spender` cannot be the zero address."
      },
      "mature()": {
        "details": "Mature yDai and capture maturity data"
      },
      "mint(address,uint256)": {
        "details": "Mint yDai. Only callable by Dealer contracts."
      },
      "name()": {
        "details": "Returns the name of the token."
      },
      "orchestrate(address)": {
        "details": "Add user to the authorized users list"
      },
      "owner()": {
        "details": "Returns the address of the current owner."
      },
      "rateGrowth()": {
        "details": "Rate differential between maturity and now in RAY. Returns 1.0 if not mature."
      },
      "redeem(address,uint256)": {
        "details": "Burn yTokens and return their dai equivalent value, pulled from the Treasury"
      },
      "renounceOwnership()": {
        "details": "Leaves the contract without owner. It will not be possible to call `onlyOwner` functions anymore. Can only be called by the current owner.     * NOTE: Renouncing ownership will leave the contract without an owner, thereby removing any functionality that is only available to the owner."
      },
      "revokeDelegate(address)": {
        "details": "Stop a delegate from acting on the behalf of caller"
      },
      "symbol()": {
        "details": "Returns the symbol of the token, usually a shorter version of the name."
      },
      "totalSupply()": {
        "details": "See {IERC20-totalSupply}."
      },
      "transfer(address,uint256)": {
        "details": "See {IERC20-transfer}.     * Requirements:     * - `recipient` cannot be the zero address. - the caller must have a balance of at least `amount`."
      },
      "transferFrom(address,address,uint256)": {
        "details": "See {IERC20-transferFrom}.     * Emits an {Approval} event indicating the updated allowance. This is not required by the EIP. See the note at the beginning of {ERC20};     * Requirements: - `sender` and `recipient` cannot be the zero address. - `sender` must have a balance of at least `amount`. - the caller must have allowance for ``sender``'s tokens of at least `amount`."
      },
      "transferOwnership(address)": {
        "details": "Transfers ownership of the contract to a new account (`newOwner`). Can only be called by the current owner."
      }
    }
  },
  "userdoc": {
    "methods": {}
  }
}