{
  "contractName": "YDai",
  "abi": [
    {
      "inputs": [
        {
          "internalType": "address",
          "name": "vat_",
          "type": "address"
        },
        {
          "internalType": "address",
          "name": "jug_",
          "type": "address"
        },
        {
          "internalType": "address",
          "name": "pot_",
          "type": "address"
        },
        {
          "internalType": "address",
          "name": "treasury_",
          "type": "address"
        },
        {
          "internalType": "uint256",
          "name": "maturity_",
          "type": "uint256"
        },
        {
          "internalType": "string",
          "name": "name",
          "type": "string"
        },
        {
          "internalType": "string",
          "name": "symbol",
          "type": "string"
        }
      ],
      "stateMutability": "nonpayable",
      "type": "constructor"
    },
    {
      "anonymous": false,
      "inputs": [
        {
          "indexed": true,
          "internalType": "address",
          "name": "owner",
          "type": "address"
        },
        {
          "indexed": true,
          "internalType": "address",
          "name": "spender",
          "type": "address"
        },
        {
          "indexed": false,
          "internalType": "uint256",
          "name": "value",
          "type": "uint256"
        }
      ],
      "name": "Approval",
      "type": "event"
    },
    {
      "anonymous": false,
      "inputs": [
        {
          "indexed": true,
          "internalType": "address",
          "name": "user",
          "type": "address"
        },
        {
          "indexed": true,
          "internalType": "address",
          "name": "delegate",
          "type": "address"
        },
        {
          "indexed": false,
          "internalType": "bool",
          "name": "enabled",
          "type": "bool"
        }
      ],
      "name": "Delegate",
      "type": "event"
    },
    {
      "anonymous": false,
      "inputs": [
        {
          "indexed": false,
          "internalType": "address",
          "name": "access",
          "type": "address"
        }
      ],
      "name": "GrantedAccess",
      "type": "event"
    },
    {
      "anonymous": false,
      "inputs": [
        {
          "indexed": false,
          "internalType": "uint256",
          "name": "rate",
          "type": "uint256"
        },
        {
          "indexed": false,
          "internalType": "uint256",
          "name": "chi",
          "type": "uint256"
        }
      ],
      "name": "Matured",
      "type": "event"
    },
    {
      "anonymous": false,
      "inputs": [
        {
          "indexed": true,
          "internalType": "address",
          "name": "previousOwner",
          "type": "address"
        },
        {
          "indexed": true,
          "internalType": "address",
          "name": "newOwner",
          "type": "address"
        }
      ],
      "name": "OwnershipTransferred",
      "type": "event"
    },
    {
      "anonymous": false,
      "inputs": [
        {
          "indexed": true,
          "internalType": "address",
          "name": "from",
          "type": "address"
        },
        {
          "indexed": true,
          "internalType": "address",
          "name": "to",
          "type": "address"
        },
        {
          "indexed": false,
          "internalType": "uint256",
          "name": "yDaiIn",
          "type": "uint256"
        },
        {
          "indexed": false,
          "internalType": "uint256",
          "name": "daiOut",
          "type": "uint256"
        }
      ],
      "name": "Redeemed",
      "type": "event"
    },
    {
      "anonymous": false,
      "inputs": [
        {
          "indexed": true,
          "internalType": "address",
          "name": "from",
          "type": "address"
        },
        {
          "indexed": true,
          "internalType": "address",
          "name": "to",
          "type": "address"
        },
        {
          "indexed": false,
          "internalType": "uint256",
          "name": "value",
          "type": "uint256"
        }
      ],
      "name": "Transfer",
      "type": "event"
    },
    {
      "inputs": [],
      "name": "DOMAIN_SEPARATOR",
      "outputs": [
        {
          "internalType": "bytes32",
          "name": "",
          "type": "bytes32"
        }
      ],
      "stateMutability": "view",
      "type": "function",
      "constant": true
    },
    {
      "inputs": [],
      "name": "PERMIT_TYPEHASH",
      "outputs": [
        {
          "internalType": "bytes32",
          "name": "",
          "type": "bytes32"
        }
      ],
      "stateMutability": "view",
      "type": "function",
      "constant": true
    },
    {
      "inputs": [],
      "name": "UNIT",
      "outputs": [
        {
          "internalType": "uint256",
          "name": "",
          "type": "uint256"
        }
      ],
      "stateMutability": "view",
      "type": "function",
      "constant": true
    },
    {
      "inputs": [],
      "name": "WETH",
      "outputs": [
        {
          "internalType": "bytes32",
          "name": "",
          "type": "bytes32"
        }
      ],
      "stateMutability": "view",
      "type": "function",
      "constant": true
    },
    {
      "inputs": [
        {
          "internalType": "address",
          "name": "delegate",
          "type": "address"
        }
      ],
      "name": "addDelegate",
      "outputs": [],
      "stateMutability": "nonpayable",
      "type": "function"
    },
    {
      "inputs": [
        {
          "internalType": "address",
          "name": "owner",
          "type": "address"
        },
        {
          "internalType": "address",
          "name": "spender",
          "type": "address"
        }
      ],
      "name": "allowance",
      "outputs": [
        {
          "internalType": "uint256",
          "name": "",
          "type": "uint256"
        }
      ],
      "stateMutability": "view",
      "type": "function",
      "constant": true
    },
    {
      "inputs": [
        {
          "internalType": "address",
          "name": "spender",
          "type": "address"
        },
        {
          "internalType": "uint256",
          "name": "amount",
          "type": "uint256"
        }
      ],
      "name": "approve",
      "outputs": [
        {
          "internalType": "bool",
          "name": "",
          "type": "bool"
        }
      ],
      "stateMutability": "nonpayable",
      "type": "function"
    },
    {
      "inputs": [
        {
          "internalType": "address",
          "name": "account",
          "type": "address"
        }
      ],
      "name": "balanceOf",
      "outputs": [
        {
          "internalType": "uint256",
          "name": "",
          "type": "uint256"
        }
      ],
      "stateMutability": "view",
      "type": "function",
      "constant": true
    },
    {
      "inputs": [],
      "name": "chi0",
      "outputs": [
        {
          "internalType": "uint256",
          "name": "",
          "type": "uint256"
        }
      ],
      "stateMutability": "view",
      "type": "function",
      "constant": true
    },
    {
      "inputs": [],
      "name": "decimals",
      "outputs": [
        {
          "internalType": "uint8",
          "name": "",
          "type": "uint8"
        }
      ],
      "stateMutability": "view",
      "type": "function",
      "constant": true
    },
    {
      "inputs": [
        {
          "internalType": "address",
          "name": "spender",
          "type": "address"
        },
        {
          "internalType": "uint256",
          "name": "subtractedValue",
          "type": "uint256"
        }
      ],
      "name": "decreaseAllowance",
      "outputs": [
        {
          "internalType": "bool",
          "name": "",
          "type": "bool"
        }
      ],
      "stateMutability": "nonpayable",
      "type": "function"
    },
    {
      "inputs": [
        {
          "internalType": "address",
          "name": "spender",
          "type": "address"
        },
        {
          "internalType": "uint256",
          "name": "addedValue",
          "type": "uint256"
        }
      ],
      "name": "increaseAllowance",
      "outputs": [
        {
          "internalType": "bool",
          "name": "",
          "type": "bool"
        }
      ],
      "stateMutability": "nonpayable",
      "type": "function"
    },
    {
      "inputs": [],
      "name": "isMature",
      "outputs": [
        {
          "internalType": "bool",
          "name": "",
          "type": "bool"
        }
      ],
      "stateMutability": "view",
      "type": "function",
      "constant": true
    },
    {
      "inputs": [],
      "name": "maturity",
      "outputs": [
        {
          "internalType": "uint256",
          "name": "",
          "type": "uint256"
        }
      ],
      "stateMutability": "view",
      "type": "function",
      "constant": true
    },
    {
      "inputs": [],
      "name": "name",
      "outputs": [
        {
          "internalType": "string",
          "name": "",
          "type": "string"
        }
      ],
      "stateMutability": "view",
      "type": "function",
      "constant": true
    },
    {
      "inputs": [
        {
          "internalType": "address",
          "name": "",
          "type": "address"
        }
      ],
      "name": "nonces",
      "outputs": [
        {
          "internalType": "uint256",
          "name": "",
          "type": "uint256"
        }
      ],
      "stateMutability": "view",
      "type": "function",
      "constant": true
    },
    {
      "inputs": [
        {
          "internalType": "address",
          "name": "user",
          "type": "address"
        }
      ],
      "name": "orchestrate",
      "outputs": [],
      "stateMutability": "nonpayable",
      "type": "function"
    },
    {
      "inputs": [],
      "name": "owner",
      "outputs": [
        {
          "internalType": "address",
          "name": "",
          "type": "address"
        }
      ],
      "stateMutability": "view",
      "type": "function",
      "constant": true
    },
    {
      "inputs": [
        {
          "internalType": "address",
          "name": "owner",
          "type": "address"
        },
        {
          "internalType": "address",
          "name": "spender",
          "type": "address"
        },
        {
          "internalType": "uint256",
          "name": "amount",
          "type": "uint256"
        },
        {
          "internalType": "uint256",
          "name": "deadline",
          "type": "uint256"
        },
        {
          "internalType": "uint8",
          "name": "v",
          "type": "uint8"
        },
        {
          "internalType": "bytes32",
          "name": "r",
          "type": "bytes32"
        },
        {
          "internalType": "bytes32",
          "name": "s",
          "type": "bytes32"
        }
      ],
      "name": "permit",
      "outputs": [],
      "stateMutability": "nonpayable",
      "type": "function"
    },
    {
      "inputs": [],
      "name": "rate0",
      "outputs": [
        {
          "internalType": "uint256",
          "name": "",
          "type": "uint256"
        }
      ],
      "stateMutability": "view",
      "type": "function",
      "constant": true
    },
    {
      "inputs": [],
      "name": "renounceOwnership",
      "outputs": [],
      "stateMutability": "nonpayable",
      "type": "function"
    },
    {
      "inputs": [
        {
          "internalType": "address",
          "name": "delegate",
          "type": "address"
        }
      ],
      "name": "revokeDelegate",
      "outputs": [],
      "stateMutability": "nonpayable",
      "type": "function"
    },
    {
      "inputs": [],
      "name": "symbol",
      "outputs": [
        {
          "internalType": "string",
          "name": "",
          "type": "string"
        }
      ],
      "stateMutability": "view",
      "type": "function",
      "constant": true
    },
    {
      "inputs": [],
      "name": "totalSupply",
      "outputs": [
        {
          "internalType": "uint256",
          "name": "",
          "type": "uint256"
        }
      ],
      "stateMutability": "view",
      "type": "function",
      "constant": true
    },
    {
      "inputs": [
        {
          "internalType": "address",
          "name": "recipient",
          "type": "address"
        },
        {
          "internalType": "uint256",
          "name": "amount",
          "type": "uint256"
        }
      ],
      "name": "transfer",
      "outputs": [
        {
          "internalType": "bool",
          "name": "",
          "type": "bool"
        }
      ],
      "stateMutability": "nonpayable",
      "type": "function"
    },
    {
      "inputs": [
        {
          "internalType": "address",
          "name": "sender",
          "type": "address"
        },
        {
          "internalType": "address",
          "name": "recipient",
          "type": "address"
        },
        {
          "internalType": "uint256",
          "name": "amount",
          "type": "uint256"
        }
      ],
      "name": "transferFrom",
      "outputs": [
        {
          "internalType": "bool",
          "name": "",
          "type": "bool"
        }
      ],
      "stateMutability": "nonpayable",
      "type": "function"
    },
    {
      "inputs": [
        {
          "internalType": "address",
          "name": "newOwner",
          "type": "address"
        }
      ],
      "name": "transferOwnership",
      "outputs": [],
      "stateMutability": "nonpayable",
      "type": "function"
    },
    {
      "inputs": [],
      "name": "chiGrowth",
      "outputs": [
        {
          "internalType": "uint256",
          "name": "",
          "type": "uint256"
        }
      ],
      "stateMutability": "nonpayable",
      "type": "function"
    },
    {
      "inputs": [],
      "name": "rateGrowth",
      "outputs": [
        {
          "internalType": "uint256",
          "name": "",
          "type": "uint256"
        }
      ],
      "stateMutability": "nonpayable",
      "type": "function"
    },
    {
      "inputs": [],
      "name": "mature",
      "outputs": [],
      "stateMutability": "nonpayable",
      "type": "function"
    },
    {
      "inputs": [
        {
          "internalType": "address",
          "name": "from",
          "type": "address"
        },
        {
          "internalType": "address",
          "name": "to",
          "type": "address"
        },
        {
          "internalType": "uint256",
          "name": "yDaiAmount",
          "type": "uint256"
        }
      ],
      "name": "redeem",
      "outputs": [],
      "stateMutability": "nonpayable",
      "type": "function"
    },
    {
      "inputs": [
        {
          "internalType": "address",
          "name": "to",
          "type": "address"
        },
        {
          "internalType": "uint256",
          "name": "yDaiAmount",
          "type": "uint256"
        },
        {
          "internalType": "bytes",
          "name": "data",
          "type": "bytes"
        }
      ],
      "name": "flashMint",
      "outputs": [],
      "stateMutability": "nonpayable",
      "type": "function"
    },
    {
      "inputs": [
        {
          "internalType": "address",
          "name": "to",
          "type": "address"
        },
        {
          "internalType": "uint256",
          "name": "yDaiAmount",
          "type": "uint256"
        }
      ],
      "name": "mint",
      "outputs": [],
      "stateMutability": "nonpayable",
      "type": "function"
    },
    {
      "inputs": [
        {
          "internalType": "address",
          "name": "from",
          "type": "address"
        },
        {
          "internalType": "uint256",
          "name": "yDaiAmount",
          "type": "uint256"
        }
      ],
      "name": "burn",
      "outputs": [],
      "stateMutability": "nonpayable",
      "type": "function"
    }
  ],
  "bytecode": "0x60c060408190528060526200281f8239604051908190036052019020608052503480156200002c57600080fd5b50604051620028c3380380620028c3833981810160405260e08110156200005257600080fd5b815160208301516040808501516060860151608087015160a0880180519451969895979396929591949293820192846401000000008211156200009457600080fd5b908301906020820185811115620000aa57600080fd5b8251640100000000811182820188101715620000c557600080fd5b82525081516020918201929091019080838360005b83811015620000f4578181015183820152602001620000da565b50505050905090810190601f168015620001225780820380516001836020036101000a031916815260200191505b50604052602001805160405193929190846401000000008211156200014657600080fd5b9083019060208201858111156200015c57600080fd5b82516401000000008111828201881017156200017757600080fd5b82525081516020918201929091019080838360005b83811015620001a65781810151838201526020016200018c565b50505050905090810190601f168015620001d45780820380516001836020036101000a031916815260200191505b5060405250505081816000620001ef6200038f60201b60201c565b600080546001600160a01b0319166001600160a01b0383169081178255604051929350917f8be0079c531659141344cd1fd0a4f28419497f9722a3daafe3b4186f6b6457e0908290a35081516200024e9060069060208501906200042e565b508051620002649060079060208401906200042e565b50506008805460ff191660121790555060405146908060526200287182396040519081900360520190209050620002a36001600160e01b036200039416565b805160209182012060408051808201825260018152603160f81b90840152805180840194909452838101919091527fc89efdaa54c0f20c7adf612882df0950f5a951637e0307cdcb4c672f298b8bc6606084015260808301939093523060a08084019190915283518084038201815260c0909301909352815191012090525050600a80546001600160a01b03199081166001600160a01b0397881617909155600b8054821695871695909517909455600c8054851693861693909317909255600d80549093169316929092179055600e556b033b2e3c9fd0803ce8000000600f819055601055620004d0565b335b90565b60068054604080516020601f6002600019610100600188161502019095169490940493840181900481028201810190925282815260609390929091830182828015620004245780601f10620003f85761010080835404028352916020019162000424565b820191906000526020600020905b8154815290600101906020018083116200040657829003601f168201915b5050505050905090565b828054600181600116156101000203166002900490600052602060002090601f016020900481019282601f106200047157805160ff1916838001178555620004a1565b82800160010185558215620004a1579182015b82811115620004a157825182559160200191906001019062000484565b50620004af929150620004b3565b5090565b6200039191905b80821115620004af5760008155600101620004ba565b60805160a051612321620004fe60003980610a86528061174d525080610a5952806116e052506123216000f3fe608060405234801561001057600080fd5b50600436106102065760003560e01c806387b652071161011a578063abf1614b116100ad578063d505accf1161007c578063d505accf146105cd578063dd62ed3e1461061e578063e71bdf411461064c578063f2fde38b14610672578063fa352c001461069857610206565b8063abf1614b146105ad578063ad5c4648146105b5578063ae4e7fdf146105bd578063cb240198146105c557610206565b80639d8e2177116100e95780639d8e2177146105215780639dc29fac14610529578063a457c2d714610555578063a9059cbb1461058157610206565b806387b65207146104e55780638da5cb5b146104ed57806393c19e181461051157806395d89b411461051957610206565b8063313ce5671161019d57806340c10f191161016c57806340c10f191461043f57806370a082311461046b578063715018a6146104915780637ecebe001461049957806380f5a440146104bf57610206565b8063313ce567146103685780633644e51514610386578063395093511461038e5780633ea21465146103ba57610206565b806318160ddd116101d957806318160ddd1461031a578063204f83f91461032257806323b872dd1461032a57806330adf81f1461036057610206565b806306fdde031461020b578063095ea7b3146102885780630e6dfcd5146102c857806312970eac14610300575b600080fd5b6102136106be565b6040805160208082528351818301528351919283929083019185019080838360005b8381101561024d578181015183820152602001610235565b50505050905090810190601f16801561027a5780820380516001836020036101000a031916815260200191505b509250505060405180910390f35b6102b46004803603604081101561029e57600080fd5b506001600160a01b038135169060200135610755565b604080519115158252519081900360200190f35b6102fe600480360360608110156102de57600080fd5b506001600160a01b03813581169160208101359091169060400135610773565b005b6103086109b8565b60408051918252519081900360200190f35b6103086109be565b6103086109c4565b6102b46004803603606081101561034057600080fd5b506001600160a01b038135811691602081013590911690604001356109ca565b610308610a57565b610370610a7b565b6040805160ff9092168252519081900360200190f35b610308610a84565b6102b4600480360360408110156103a457600080fd5b506001600160a01b038135169060200135610aa8565b6102fe600480360360608110156103d057600080fd5b6001600160a01b038235169160208101359181019060608101604082013564010000000081111561040057600080fd5b82018360208201111561041257600080fd5b8035906020019184600183028401116401000000008311171561043457600080fd5b509092509050610afc565b6102fe6004803603604081101561045557600080fd5b506001600160a01b038135169060200135610bb6565b6103086004803603602081101561048157600080fd5b50356001600160a01b0316610c54565b6102fe610c6f565b610308600480360360208110156104af57600080fd5b50356001600160a01b0316610d23565b6102fe600480360360208110156104d557600080fd5b50356001600160a01b0316610d35565b6102fe610dfb565b6104f561111b565b604080516001600160a01b039092168252519081900360200190f35b61030861112a565b610213611130565b610308611191565b6102fe6004803603604081101561053f57600080fd5b506001600160a01b0381351690602001356111a1565b6102b46004803603604081101561056b57600080fd5b506001600160a01b03813516906020013561123a565b6102b46004803603604081101561059757600080fd5b506001600160a01b0381351690602001356112a8565b6103086112bc565b61030861148b565b6102b4611497565b6103086114a7565b6102fe600480360360e08110156105e357600080fd5b506001600160a01b03813581169160208101359091169060408101359060608101359060ff6080820135169060a08101359060c00135611661565b6103086004803603604081101561063457600080fd5b506001600160a01b038135811691602001351661188f565b6102fe6004803603602081101561066257600080fd5b50356001600160a01b03166118ba565b6102fe6004803603602081101561068857600080fd5b50356001600160a01b0316611926565b6102fe600480360360208110156106ae57600080fd5b50356001600160a01b0316611a30565b60068054604080516020601f600260001961010060018816150201909516949094049384018190048102820181019092528281526060939092909183018282801561074a5780601f1061071f5761010080835404028352916020019161074a565b820191906000526020600020905b81548152906001019060200180831161072d57829003601f168201915b505050505090505b90565b6000610769610762611a93565b8484611a97565b5060015b92915050565b60408051808201909152601d81527f594461693a204f6e6c7920486f6c646572204f722044656c656761746500000060208201528390336001600160a01b03831614806107e357506001600160a01b038216600090815260026020908152604080832033845290915290205460ff165b819061086d5760405162461bcd60e51b81526004018080602001828103825283818151815260200191508051906020019080838360005b8381101561083257818101518382015260200161081a565b50505050905090810190601f16801561085f5780820380516001836020036101000a031916815260200191505b509250505060405180910390fd5b50600d54600160a01b900460ff1615156001146108d1576040805162461bcd60e51b815260206004820152601860248201527f594461693a2079446169206973206e6f74206d61747572650000000000000000604482015290519081900360640190fd5b6108db8584611b83565b60006108ee846108e96114a7565b611c8b565b600d5460408051635502770360e01b81526001600160a01b03898116600483015260248201859052915193945091169163550277039160448082019260009290919082900301818387803b15801561094557600080fd5b505af1158015610959573d6000803e3d6000fd5b50505050846001600160a01b0316866001600160a01b03167f5cdf07ad0fc222442720b108e3ed4c4640f0fadc2ab2253e66f259a0fea834808684604051808381526020018281526020019250505060405180910390a3505050505050565b600f5481565b60055490565b600e5481565b60006109d7848484611cc0565b610a4d846109e3611a93565b610a4885604051806060016040528060288152602001612235602891396001600160a01b038a16600090815260046020526040812090610a21611a93565b6001600160a01b03168152602081019190915260400160002054919063ffffffff611e2916565b611a97565b5060019392505050565b7f000000000000000000000000000000000000000000000000000000000000000081565b60085460ff1690565b7f000000000000000000000000000000000000000000000000000000000000000081565b6000610769610ab5611a93565b84610a488560046000610ac6611a93565b6001600160a01b03908116825260208083019390935260409182016000908120918c16815292529020549063ffffffff611e8316565b610b068484611edd565b60405163bdd26b3160e01b81526001600160a01b038516600482019081526024820185905260606044830190815260648301849052339263bdd26b319288928892889288929091608401848480828437600081840152601f19601f82011690508083019250505095505050505050600060405180830381600087803b158015610b8e57600080fd5b505af1158015610ba2573d6000803e3d6000fd5b50505050610bb08484611b83565b50505050565b60408051808201825260148152731651185a4e88139bdd08105d5d1a1bdc9a5e995960621b60208083019190915233600090815260019091529190912054819060ff16610c445760405162461bcd60e51b815260206004820181815283516024840152835190928392604490910191908501908083836000831561083257818101518382015260200161081a565b50610c4f8383611edd565b505050565b6001600160a01b031660009081526003602052604090205490565b610c77611a93565b6000546001600160a01b03908116911614610cd9576040805162461bcd60e51b815260206004820181905260248201527f4f776e61626c653a2063616c6c6572206973206e6f7420746865206f776e6572604482015290519081900360640190fd5b600080546040516001600160a01b03909116907f8be0079c531659141344cd1fd0a4f28419497f9722a3daafe3b4186f6b6457e0908390a3600080546001600160a01b0319169055565b60096020526000908152604090205481565b610d3d611a93565b6000546001600160a01b03908116911614610d9f576040805162461bcd60e51b815260206004820181905260248201527f4f776e61626c653a2063616c6c6572206973206e6f7420746865206f776e6572604482015290519081900360640190fd5b6001600160a01b038116600081815260016020818152604092839020805460ff1916909217909155815192835290517f6a7c5f28ea564fafc8b079663a2a9b9d26fe735d97c97611484ce044f40a16e29281900390910190a150565b600e544211610e51576040805162461bcd60e51b815260206004820152601960248201527f594461693a20546f6f206561726c7920746f206d617475726500000000000000604482015290519081900360640190fd5b600d54600160a01b900460ff16151560011415610ead576040805162461bcd60e51b81526020600482015260156024820152741651185a4e88105b1c9958591e481b585d1d5c9959605a1b604482015290519081900360640190fd5b600a5460408051636cb1c69b60e11b8152644554482d4160d81b600482015290516001600160a01b039092169163d9638d369160248082019260a092909190829003018186803b158015610f0057600080fd5b505afa158015610f14573d6000803e3d6000fd5b505050506040513d60a0811015610f2a57600080fd5b50602001516010819055610f4a906b033b2e3c9fd0803ce8000000611fdb565b601055600c54604080516320aba08b60e01b815290516001600160a01b03909216916320aba08b916004808201926020929091908290030181600087803b158015610f9457600080fd5b505af1158015610fa8573d6000803e3d6000fd5b505050506040513d6020811015610fbe57600080fd5b5051421161104557600c60009054906101000a90046001600160a01b03166001600160a01b031663c92aecc46040518163ffffffff1660e01b815260040160206040518083038186803b15801561101457600080fd5b505afa158015611028573d6000803e3d6000fd5b505050506040513d602081101561103e57600080fd5b50516110c2565b600c60009054906101000a90046001600160a01b03166001600160a01b0316639f678cca6040518163ffffffff1660e01b8152600401602060405180830381600087803b15801561109557600080fd5b505af11580156110a9573d6000803e3d6000fd5b505050506040513d60208110156110bf57600080fd5b50515b600f819055600d805460ff60a01b1916600160a01b17905560105460408051918252602082019290925281517f30a742d45111295203c4b8db614c8b05dd1323a7c5159fb88b0cc73be46b7a75929181900390910190a1565b6000546001600160a01b031690565b60105481565b60078054604080516020601f600260001961010060018816150201909516949094049384018190048102820181019092528281526060939092909183018282801561074a5780601f1061071f5761010080835404028352916020019161074a565b6b033b2e3c9fd0803ce800000081565b60408051808201825260148152731651185a4e88139bdd08105d5d1a1bdc9a5e995960621b60208083019190915233600090815260019091529190912054819060ff1661122f5760405162461bcd60e51b815260206004820181815283516024840152835190928392604490910191908501908083836000831561083257818101518382015260200161081a565b50610c4f8383611b83565b6000610769611247611a93565b84610a48856040518060600160405280602581526020016122c76025913960046000611271611a93565b6001600160a01b03908116825260208083019390935260409182016000908120918d1681529252902054919063ffffffff611e2916565b60006107696112b5611a93565b8484611cc0565b600d54600090600160a01b900460ff1615156001146112de5750601054610752565b600b5460408051636cb1c69b60e11b8152644554482d4160d81b6004820152815160009384936001600160a01b039091169263d9638d36926024808301939282900301818787803b15801561133257600080fd5b505af1158015611346573d6000803e3d6000fd5b505050506040513d604081101561135c57600080fd5b50602001519050428110156113f357600b546040805163089c54b560e31b8152644554482d4160d81b600482015290516001600160a01b03909216916344e2a5a8916024808201926020929091908290030181600087803b1580156113c057600080fd5b505af11580156113d4573d6000803e3d6000fd5b505050506040513d60208110156113ea57600080fd5b50519150611478565b600a5460408051636cb1c69b60e11b8152644554482d4160d81b600482015290516001600160a01b039092169163d9638d369160248082019260a092909190829003018186803b15801561144657600080fd5b505afa15801561145a573d6000803e3d6000fd5b505050506040513d60a081101561147057600080fd5b506020015191505b61148482601054611ff2565b9250505090565b644554482d4160d81b81565b600d54600160a01b900460ff1681565b600d54600090600160a01b900460ff1615156001146114c95750600f54610752565b600c54604080516320aba08b60e01b815290516000926001600160a01b0316916320aba08b91600480830192602092919082900301818787803b15801561150f57600080fd5b505af1158015611523573d6000803e3d6000fd5b505050506040513d602081101561153957600080fd5b505142116115c057600c60009054906101000a90046001600160a01b03166001600160a01b031663c92aecc46040518163ffffffff1660e01b815260040160206040518083038186803b15801561158f57600080fd5b505afa1580156115a3573d6000803e3d6000fd5b505050506040513d60208110156115b957600080fd5b505161163d565b600c60009054906101000a90046001600160a01b03166001600160a01b0316639f678cca6040518163ffffffff1660e01b8152600401602060405180830381600087803b15801561161057600080fd5b505af1158015611624573d6000803e3d6000fd5b505050506040513d602081101561163a57600080fd5b50515b905061165b61164a6112bc565b61165683600f54611ff2565b612014565b91505090565b428410156116b6576040805162461bcd60e51b815260206004820152601d60248201527f45524332305065726d69743a206578706972656420646561646c696e65000000604482015290519081900360640190fd5b6001600160a01b0380881660008181526009602090815260408083208054600180820190925582517f00000000000000000000000000000000000000000000000000000000000000008186015280840196909652958c166060860152608085018b905260a085019590955260c08085018a90528151808603909101815260e08501825280519083012061190160f01b6101008601527f000000000000000000000000000000000000000000000000000000000000000061010286015261012280860182905282518087039091018152610142860180845281519185019190912090859052610162860180845281905260ff8a166101828701526101a286018990526101c2860188905291519095919491926101e2808401939192601f1981019281900390910190855afa1580156117f1573d6000803e3d6000fd5b5050604051601f1901519150506001600160a01b038116158015906118275750896001600160a01b0316816001600160a01b0316145b611878576040805162461bcd60e51b815260206004820152601e60248201527f45524332305065726d69743a20696e76616c6964207369676e61747572650000604482015290519081900360640190fd5b6118838a8a8a611a97565b50505050505050505050565b6001600160a01b03918216600090815260046020908152604080832093909416825291909152205490565b3360008181526002602090815260408083206001600160a01b03861680855290835292819020805460ff19166001908117909155815190815290519293927f045b0fef01772d2fbba53dbd38c9777806eac0865b00af43abcfbcaf50da9206929181900390910190a350565b61192e611a93565b6000546001600160a01b03908116911614611990576040805162461bcd60e51b815260206004820181905260248201527f4f776e61626c653a2063616c6c6572206973206e6f7420746865206f776e6572604482015290519081900360640190fd5b6001600160a01b0381166119d55760405162461bcd60e51b81526004018080602001828103825260268152602001806121a66026913960400191505060405180910390fd5b600080546040516001600160a01b03808516939216917f8be0079c531659141344cd1fd0a4f28419497f9722a3daafe3b4186f6b6457e091a3600080546001600160a01b0319166001600160a01b0392909216919091179055565b3360008181526002602090815260408083206001600160a01b038616808552908352818420805460ff19169055815193845290519093927f045b0fef01772d2fbba53dbd38c9777806eac0865b00af43abcfbcaf50da920692908290030190a350565b3390565b6001600160a01b038316611adc5760405162461bcd60e51b81526004018080602001828103825260248152602001806122a36024913960400191505060405180910390fd5b6001600160a01b038216611b215760405162461bcd60e51b81526004018080602001828103825260228152602001806121cc6022913960400191505060405180910390fd5b6001600160a01b03808416600081815260046020908152604080832094871680845294825291829020859055815185815291517f8c5be1e5ebec7d5bd14f71427d1e84f3dd0314c0f7b2291e5b200ac8c7c3b9259281900390910190a3505050565b6001600160a01b038216611bc85760405162461bcd60e51b815260040180806020018281038252602181526020018061225d6021913960400191505060405180910390fd5b611bd482600083610c4f565b611c1781604051806060016040528060228152602001612184602291396001600160a01b038516600090815260036020526040902054919063ffffffff611e2916565b6001600160a01b038316600090815260036020526040902055600554611c43908263ffffffff61202316565b6005556040805182815290516000916001600160a01b038516917fddf252ad1be2c89b69c2b068fc378daa952ba7f163c4a11628f55a4df523b3ef9181900360200190a35050565b6000611cb96b033b2e3c9fd0803ce8000000611cad858563ffffffff61206516565b9063ffffffff6120be16565b9392505050565b6001600160a01b038316611d055760405162461bcd60e51b815260040180806020018281038252602581526020018061227e6025913960400191505060405180910390fd5b6001600160a01b038216611d4a5760405162461bcd60e51b81526004018080602001828103825260238152602001806121616023913960400191505060405180910390fd5b611d55838383610c4f565b611d98816040518060600160405280602681526020016121ee602691396001600160a01b038616600090815260036020526040902054919063ffffffff611e2916565b6001600160a01b038085166000908152600360205260408082209390935590841681522054611dcd908263ffffffff611e8316565b6001600160a01b0380841660008181526003602090815260409182902094909455805185815290519193928716927fddf252ad1be2c89b69c2b068fc378daa952ba7f163c4a11628f55a4df523b3ef92918290030190a3505050565b60008184841115611e7b5760405162461bcd60e51b815260206004820181815283516024840152835190928392604490910191908501908083836000831561083257818101518382015260200161081a565b505050900390565b600082820183811015611cb9576040805162461bcd60e51b815260206004820152601b60248201527f536166654d6174683a206164646974696f6e206f766572666c6f770000000000604482015290519081900360640190fd5b6001600160a01b038216611f38576040805162461bcd60e51b815260206004820152601f60248201527f45524332303a206d696e7420746f20746865207a65726f206164647265737300604482015290519081900360640190fd5b611f4460008383610c4f565b600554611f57908263ffffffff611e8316565b6005556001600160a01b038216600090815260036020526040902054611f83908263ffffffff611e8316565b6001600160a01b03831660008181526003602090815260408083209490945583518581529351929391927fddf252ad1be2c89b69c2b068fc378daa952ba7f163c4a11628f55a4df523b3ef9281900390910190a35050565b600081831015611feb5781611cb9565b5090919050565b6000611cb982611cad856b033b2e3c9fd0803ce800000063ffffffff61206516565b6000818310611feb5781611cb9565b6000611cb983836040518060400160405280601e81526020017f536166654d6174683a207375627472616374696f6e206f766572666c6f770000815250611e29565b6000826120745750600061076d565b8282028284828161208157fe5b0414611cb95760405162461bcd60e51b81526004018080602001828103825260218152602001806122146021913960400191505060405180910390fd5b6000611cb983836040518060400160405280601a81526020017f536166654d6174683a206469766973696f6e206279207a65726f0000000000008152506000818361214a5760405162461bcd60e51b815260206004820181815283516024840152835190928392604490910191908501908083836000831561083257818101518382015260200161081a565b50600083858161215657fe5b049594505050505056fe45524332303a207472616e7366657220746f20746865207a65726f206164647265737345524332303a206275726e20616d6f756e7420657863656564732062616c616e63654f776e61626c653a206e6577206f776e657220697320746865207a65726f206164647265737345524332303a20617070726f766520746f20746865207a65726f206164647265737345524332303a207472616e7366657220616d6f756e7420657863656564732062616c616e6365536166654d6174683a206d756c7469706c69636174696f6e206f766572666c6f7745524332303a207472616e7366657220616d6f756e74206578636565647320616c6c6f77616e636545524332303a206275726e2066726f6d20746865207a65726f206164647265737345524332303a207472616e736665722066726f6d20746865207a65726f206164647265737345524332303a20617070726f76652066726f6d20746865207a65726f206164647265737345524332303a2064656372656173656420616c6c6f77616e63652062656c6f77207a65726fa26469706673582212206b10878a395d41a394acac84999bc39d3f730bb5c163dc5141637a21494d718464736f6c634300060a00335065726d69742861646472657373206f776e65722c61646472657373207370656e6465722c75696e743235362076616c75652c75696e74323536206e6f6e63652c75696e7432353620646561646c696e6529454950373132446f6d61696e28737472696e67206e616d652c737472696e672076657273696f6e2c75696e7432353620636861696e49642c6164647265737320766572696679696e67436f6e747261637429",
  "source": "// SPDX-License-Identifier: GPL-3.0-or-later\npragma solidity ^0.6.10;\n\nimport \"@openzeppelin/contracts/math/Math.sol\";\nimport \"./interfaces/IVat.sol\";\nimport \"./interfaces/IJug.sol\";\nimport \"./interfaces/IPot.sol\";\nimport \"./interfaces/ITreasury.sol\";\nimport \"./interfaces/IYDai.sol\";\nimport \"./interfaces/IFlashMinter.sol\";\nimport \"./helpers/Delegable.sol\";\nimport \"./helpers/DecimalMath.sol\";\nimport \"./helpers/Orchestrated.sol\";\nimport \"./helpers/ERC20Permit.sol\";\n// import \"@nomiclabs/buidler/console.sol\";\n\n\n/**\n * @dev yDai is a yToken targeting Chai.\n * Each yDai contract has a specific maturity time. One yDai is worth one Chai at or after maturity time.\n * At maturity, the yDai can be triggered to mature, which records the current rate and chi from MakerDAO and enables redemption.\n * Redeeming an yDai means burning it, and the contract will retrieve Dai from Treasury equal to one Dai times the growth in chi since maturity.\n * yDai also tracks the MakerDAO stability fee accumulator at the time of maturity, and the growth since. This is not used internally.\n * Minting and burning of yDai is restricted to orchestrated contracts. Redeeming and flash-minting is allowed to anyone.\n */\n\ncontract YDai is Orchestrated(), Delegable(), DecimalMath, ERC20Permit, IYDai  {\n\n    event Redeemed(address indexed from, address indexed to, uint256 yDaiIn, uint256 daiOut);\n    event Matured(uint256 rate, uint256 chi);\n\n    bytes32 public constant WETH = \"ETH-A\";\n\n    IVat internal _vat;\n    IJug internal _jug;\n    IPot internal _pot;\n    ITreasury internal _treasury;\n\n    bool public override isMature;\n    uint256 public override maturity;\n    uint256 public override chi0;      // Chi at maturity\n    uint256 public override rate0;     // Rate at maturity\n\n    constructor(\n        address vat_,\n        address jug_,\n        address pot_,\n        address treasury_,\n        uint256 maturity_,\n        string memory name,\n        string memory symbol\n    ) public ERC20(name, symbol) {\n        _vat = IVat(vat_);\n        _jug = IJug(jug_);\n        _pot = IPot(pot_);\n        _treasury = ITreasury(treasury_);\n        maturity = maturity_;\n        chi0 = UNIT;\n        rate0 = UNIT;\n    }\n\n    /// @dev Chi differential between maturity and now in RAY. Returns 1.0 if not mature.\n    /// If rateGrowth < chiGrowth, returns rate.\n    //\n    //          chi_now\n    // chi() = ---------\n    //          chi_mat\n    //\n    function chiGrowth() public override returns(uint256){\n        if (isMature != true) return chi0;\n        uint256 chiNow = (now > _pot.rho()) ? _pot.drip() : _pot.chi();\n        return Math.min(rateGrowth(), divd(chiNow, chi0));\n    }\n\n    /// @dev Rate differential between maturity and now in RAY. Returns 1.0 if not mature.\n    //\n    //           rate_now\n    // rateGrowth() = ----------\n    //           rate_mat\n    //\n    function rateGrowth() public override returns(uint256){\n        if (isMature != true) return rate0;\n        uint256 rateNow;\n        (, uint256 rho) = _jug.ilks(WETH);\n        if (now > rho) {\n            rateNow = _jug.drip(WETH);\n            // console.log(rateNow);\n        } else {\n            (, rateNow,,,) = _vat.ilks(WETH);\n        }\n        return divd(rateNow, rate0);\n    }\n\n    /// @dev Mature yDai and capture maturity data\n    function mature() public override {\n        require(\n            // solium-disable-next-line security/no-block-members\n            now > maturity,\n            \"YDai: Too early to mature\"\n        );\n        require(\n            isMature != true,\n            \"YDai: Already matured\"\n        );\n        (, rate0,,,) = _vat.ilks(WETH); // Retrieve the MakerDAO Vat\n        rate0 = Math.max(rate0, UNIT); // Floor it at 1.0\n        chi0 = (now > _pot.rho()) ? _pot.drip() : _pot.chi();\n        isMature = true;\n        emit Matured(rate0, chi0);\n    }\n\n    /// @dev Burn yTokens and return their dai equivalent value, pulled from the Treasury\n    // TODO: Consider whether to allow this to be gracefully unwind, instead of letting `_treasury.pullDai()` revert.\n    // from --- yDai ---> us\n    // us   --- Dai  ---> to\n    function redeem(address from, address to, uint256 yDaiAmount)\n        public onlyHolderOrDelegate(from, \"YDai: Only Holder Or Delegate\") {\n        require(\n            isMature == true,\n            \"YDai: yDai is not mature\"\n        );\n        _burn(from, yDaiAmount);                              // Burn yDai from `from`\n        uint256 daiAmount = muld(yDaiAmount, chiGrowth());    // User gets interest for holding after maturity\n        _treasury.pullDai(to, daiAmount);                     // Give dai to `to`, from Treasury\n        emit Redeemed(from, to, yDaiAmount, daiAmount);\n    }\n\n    /// @dev Flash-mint yDai. Calls back on `IFlashMinter.executeOnFlashMint()`\n    function flashMint(address to, uint256 yDaiAmount, bytes calldata data) external override {\n        _mint(to, yDaiAmount);\n        IFlashMinter(msg.sender).executeOnFlashMint(to, yDaiAmount, data);\n        _burn(to, yDaiAmount);\n    }\n\n    /// @dev Mint yDai. Only callable by Controller contracts.\n    function mint(address to, uint256 yDaiAmount) public override onlyOrchestrated(\"YDai: Not Authorized\")\n        {\n        _mint(to, yDaiAmount);\n    }\n\n    /// @dev Burn yDai. Only callable by Controller contracts.\n    function burn(address from, uint256 yDaiAmount) public override onlyOrchestrated(\"YDai: Not Authorized\") {\n        _burn(from, yDaiAmount);\n    }\n}\n",
  "sourcePath": "/Users/bruce/dev/yieldprotocol/ytoken-mvp/contracts/YDai.sol",
  "compiler": {
    "name": "solc",
    "version": "0.6.10+commit.00c0fcaf.Emscripten.clang"
  },
  "schemaVersion": "3.0.23",
  "updatedAt": "2020-07-20T13:24:06.864Z",
  "networkType": "ethereum",
  "devdoc": {
    "details": "yDai is a yToken targeting Chai. Each yDai contract has a specific maturity time. One yDai is worth one Chai at or after maturity time. At maturity, the yDai can be triggered to mature, which records the current rate and chi from MakerDAO and enables redemption. Redeeming an yDai means burning it, and the contract will retrieve Dai from Treasury equal to one Dai times the growth in chi since maturity. yDai also tracks the MakerDAO stability fee accumulator at the time of maturity, and the growth since. This is not used internally. Minting and burning of yDai is restricted to orchestrated contracts. Redeeming and flash-minting is allowed to anyone.",
    "methods": {
      "addDelegate(address)": {
        "details": "Enable a delegate to act on the behalf of caller"
      },
      "allowance(address,address)": {
        "details": "See {IERC20-allowance}."
      },
      "approve(address,uint256)": {
        "details": "See {IERC20-approve}. Requirements: - `spender` cannot be the zero address."
      },
      "balanceOf(address)": {
        "details": "See {IERC20-balanceOf}."
      },
      "burn(address,uint256)": {
        "details": "Burn yDai. Only callable by Controller contracts."
      },
      "chiGrowth()": {
        "details": "Chi differential between maturity and now in RAY. Returns 1.0 if not mature. If rateGrowth < chiGrowth, returns rate."
      },
      "decimals()": {
        "details": "Returns the number of decimals used to get its user representation. For example, if `decimals` equals `2`, a balance of `505` tokens should be displayed to a user as `5,05` (`505 / 10 ** 2`). Tokens usually opt for a value of 18, imitating the relationship between Ether and Wei. This is the value {ERC20} uses, unless {_setupDecimals} is called. NOTE: This information is only used for _display_ purposes: it in no way affects any of the arithmetic of the contract, including {IERC20-balanceOf} and {IERC20-transfer}."
      },
      "decreaseAllowance(address,uint256)": {
        "details": "Atomically decreases the allowance granted to `spender` by the caller. This is an alternative to {approve} that can be used as a mitigation for problems described in {IERC20-approve}. Emits an {Approval} event indicating the updated allowance. Requirements: - `spender` cannot be the zero address. - `spender` must have allowance for the caller of at least `subtractedValue`."
      },
      "flashMint(address,uint256,bytes)": {
        "details": "Flash-mint yDai. Calls back on `IFlashMinter.executeOnFlashMint()`"
      },
      "increaseAllowance(address,uint256)": {
        "details": "Atomically increases the allowance granted to `spender` by the caller. This is an alternative to {approve} that can be used as a mitigation for problems described in {IERC20-approve}. Emits an {Approval} event indicating the updated allowance. Requirements: - `spender` cannot be the zero address."
      },
      "mature()": {
        "details": "Mature yDai and capture maturity data"
      },
      "mint(address,uint256)": {
        "details": "Mint yDai. Only callable by Controller contracts."
      },
      "name()": {
        "details": "Returns the name of the token."
      },
      "orchestrate(address)": {
        "details": "Add user to the authorized users list"
      },
      "owner()": {
        "details": "Returns the address of the current owner."
      },
      "permit(address,address,uint256,uint256,uint8,bytes32,bytes32)": {
        "details": "See {IERC2612-permit}. In cases where the free option is not a concern, deadline can simply be set to uint(-1), so it should be seen as an optional parameter"
      },
      "rateGrowth()": {
        "details": "Rate differential between maturity and now in RAY. Returns 1.0 if not mature."
      },
      "redeem(address,address,uint256)": {
        "details": "Burn yTokens and return their dai equivalent value, pulled from the Treasury"
      },
      "renounceOwnership()": {
        "details": "Leaves the contract without owner. It will not be possible to call `onlyOwner` functions anymore. Can only be called by the current owner. NOTE: Renouncing ownership will leave the contract without an owner, thereby removing any functionality that is only available to the owner."
      },
      "revokeDelegate(address)": {
        "details": "Stop a delegate from acting on the behalf of caller"
      },
      "symbol()": {
        "details": "Returns the symbol of the token, usually a shorter version of the name."
      },
      "totalSupply()": {
        "details": "See {IERC20-totalSupply}."
      },
      "transfer(address,uint256)": {
        "details": "See {IERC20-transfer}. Requirements: - `recipient` cannot be the zero address. - the caller must have a balance of at least `amount`."
      },
      "transferFrom(address,address,uint256)": {
        "details": "See {IERC20-transferFrom}. Emits an {Approval} event indicating the updated allowance. This is not required by the EIP. See the note at the beginning of {ERC20}; Requirements: - `sender` and `recipient` cannot be the zero address. - `sender` must have a balance of at least `amount`. - the caller must have allowance for ``sender``'s tokens of at least `amount`."
      },
      "transferOwnership(address)": {
        "details": "Transfers ownership of the contract to a new account (`newOwner`). Can only be called by the current owner."
      }
    }
  },
  "userdoc": {
    "methods": {}
  }
}