{
  "contractName": "YDai",
  "abi": [
    {
      "inputs": [
        {
          "internalType": "address",
          "name": "vat_",
          "type": "address"
        },
        {
          "internalType": "address",
          "name": "jug_",
          "type": "address"
        },
        {
          "internalType": "address",
          "name": "pot_",
          "type": "address"
        },
        {
          "internalType": "address",
          "name": "treasury_",
          "type": "address"
        },
        {
          "internalType": "uint256",
          "name": "maturity_",
          "type": "uint256"
        },
        {
          "internalType": "string",
          "name": "name",
          "type": "string"
        },
        {
          "internalType": "string",
          "name": "symbol",
          "type": "string"
        }
      ],
      "stateMutability": "nonpayable",
      "type": "constructor"
    },
    {
      "anonymous": false,
      "inputs": [
        {
          "indexed": true,
          "internalType": "address",
          "name": "owner",
          "type": "address"
        },
        {
          "indexed": true,
          "internalType": "address",
          "name": "spender",
          "type": "address"
        },
        {
          "indexed": false,
          "internalType": "uint256",
          "name": "value",
          "type": "uint256"
        }
      ],
      "name": "Approval",
      "type": "event"
    },
    {
      "anonymous": false,
      "inputs": [
        {
          "indexed": true,
          "internalType": "address",
          "name": "user",
          "type": "address"
        },
        {
          "indexed": true,
          "internalType": "address",
          "name": "delegate",
          "type": "address"
        },
        {
          "indexed": false,
          "internalType": "bool",
          "name": "enabled",
          "type": "bool"
        }
      ],
      "name": "Delegate",
      "type": "event"
    },
    {
      "anonymous": false,
      "inputs": [
        {
          "indexed": false,
          "internalType": "address",
          "name": "access",
          "type": "address"
        }
      ],
      "name": "GrantedAccess",
      "type": "event"
    },
    {
      "anonymous": false,
      "inputs": [
        {
          "indexed": false,
          "internalType": "uint256",
          "name": "rate",
          "type": "uint256"
        },
        {
          "indexed": false,
          "internalType": "uint256",
          "name": "chi",
          "type": "uint256"
        }
      ],
      "name": "Matured",
      "type": "event"
    },
    {
      "anonymous": false,
      "inputs": [
        {
          "indexed": true,
          "internalType": "address",
          "name": "previousOwner",
          "type": "address"
        },
        {
          "indexed": true,
          "internalType": "address",
          "name": "newOwner",
          "type": "address"
        }
      ],
      "name": "OwnershipTransferred",
      "type": "event"
    },
    {
      "anonymous": false,
      "inputs": [
        {
          "indexed": true,
          "internalType": "address",
          "name": "user",
          "type": "address"
        },
        {
          "indexed": false,
          "internalType": "uint256",
          "name": "yDaiIn",
          "type": "uint256"
        },
        {
          "indexed": false,
          "internalType": "uint256",
          "name": "daiOut",
          "type": "uint256"
        }
      ],
      "name": "Redeemed",
      "type": "event"
    },
    {
      "anonymous": false,
      "inputs": [
        {
          "indexed": true,
          "internalType": "address",
          "name": "from",
          "type": "address"
        },
        {
          "indexed": true,
          "internalType": "address",
          "name": "to",
          "type": "address"
        },
        {
          "indexed": false,
          "internalType": "uint256",
          "name": "value",
          "type": "uint256"
        }
      ],
      "name": "Transfer",
      "type": "event"
    },
    {
      "inputs": [],
      "name": "CHAI",
      "outputs": [
        {
          "internalType": "bytes32",
          "name": "",
          "type": "bytes32"
        }
      ],
      "stateMutability": "view",
      "type": "function",
      "constant": true
    },
    {
      "inputs": [],
      "name": "RAD",
      "outputs": [
        {
          "internalType": "uint8",
          "name": "",
          "type": "uint8"
        }
      ],
      "stateMutability": "view",
      "type": "function",
      "constant": true
    },
    {
      "inputs": [],
      "name": "RAY",
      "outputs": [
        {
          "internalType": "uint8",
          "name": "",
          "type": "uint8"
        }
      ],
      "stateMutability": "view",
      "type": "function",
      "constant": true
    },
    {
      "inputs": [],
      "name": "WAD",
      "outputs": [
        {
          "internalType": "uint8",
          "name": "",
          "type": "uint8"
        }
      ],
      "stateMutability": "view",
      "type": "function",
      "constant": true
    },
    {
      "inputs": [],
      "name": "WETH",
      "outputs": [
        {
          "internalType": "bytes32",
          "name": "",
          "type": "bytes32"
        }
      ],
      "stateMutability": "view",
      "type": "function",
      "constant": true
    },
    {
      "inputs": [
        {
          "internalType": "address",
          "name": "delegate",
          "type": "address"
        }
      ],
      "name": "addDelegate",
      "outputs": [],
      "stateMutability": "nonpayable",
      "type": "function"
    },
    {
      "inputs": [
        {
          "internalType": "address",
          "name": "owner",
          "type": "address"
        },
        {
          "internalType": "address",
          "name": "spender",
          "type": "address"
        }
      ],
      "name": "allowance",
      "outputs": [
        {
          "internalType": "uint256",
          "name": "",
          "type": "uint256"
        }
      ],
      "stateMutability": "view",
      "type": "function",
      "constant": true
    },
    {
      "inputs": [
        {
          "internalType": "address",
          "name": "spender",
          "type": "address"
        },
        {
          "internalType": "uint256",
          "name": "amount",
          "type": "uint256"
        }
      ],
      "name": "approve",
      "outputs": [
        {
          "internalType": "bool",
          "name": "",
          "type": "bool"
        }
      ],
      "stateMutability": "nonpayable",
      "type": "function"
    },
    {
      "inputs": [
        {
          "internalType": "address",
          "name": "account",
          "type": "address"
        }
      ],
      "name": "balanceOf",
      "outputs": [
        {
          "internalType": "uint256",
          "name": "",
          "type": "uint256"
        }
      ],
      "stateMutability": "view",
      "type": "function",
      "constant": true
    },
    {
      "inputs": [],
      "name": "chi0",
      "outputs": [
        {
          "internalType": "uint256",
          "name": "",
          "type": "uint256"
        }
      ],
      "stateMutability": "view",
      "type": "function",
      "constant": true
    },
    {
      "inputs": [],
      "name": "decimals",
      "outputs": [
        {
          "internalType": "uint8",
          "name": "",
          "type": "uint8"
        }
      ],
      "stateMutability": "view",
      "type": "function",
      "constant": true
    },
    {
      "inputs": [
        {
          "internalType": "address",
          "name": "spender",
          "type": "address"
        },
        {
          "internalType": "uint256",
          "name": "subtractedValue",
          "type": "uint256"
        }
      ],
      "name": "decreaseAllowance",
      "outputs": [
        {
          "internalType": "bool",
          "name": "",
          "type": "bool"
        }
      ],
      "stateMutability": "nonpayable",
      "type": "function"
    },
    {
      "inputs": [
        {
          "internalType": "address",
          "name": "spender",
          "type": "address"
        },
        {
          "internalType": "uint256",
          "name": "addedValue",
          "type": "uint256"
        }
      ],
      "name": "increaseAllowance",
      "outputs": [
        {
          "internalType": "bool",
          "name": "",
          "type": "bool"
        }
      ],
      "stateMutability": "nonpayable",
      "type": "function"
    },
    {
      "inputs": [],
      "name": "isMature",
      "outputs": [
        {
          "internalType": "bool",
          "name": "",
          "type": "bool"
        }
      ],
      "stateMutability": "view",
      "type": "function",
      "constant": true
    },
    {
      "inputs": [],
      "name": "maturity",
      "outputs": [
        {
          "internalType": "uint256",
          "name": "",
          "type": "uint256"
        }
      ],
      "stateMutability": "view",
      "type": "function",
      "constant": true
    },
    {
      "inputs": [],
      "name": "name",
      "outputs": [
        {
          "internalType": "string",
          "name": "",
          "type": "string"
        }
      ],
      "stateMutability": "view",
      "type": "function",
      "constant": true
    },
    {
      "inputs": [
        {
          "internalType": "address",
          "name": "user",
          "type": "address"
        }
      ],
      "name": "orchestrate",
      "outputs": [],
      "stateMutability": "nonpayable",
      "type": "function"
    },
    {
      "inputs": [],
      "name": "owner",
      "outputs": [
        {
          "internalType": "address",
          "name": "",
          "type": "address"
        }
      ],
      "stateMutability": "view",
      "type": "function",
      "constant": true
    },
    {
      "inputs": [],
      "name": "rate0",
      "outputs": [
        {
          "internalType": "uint256",
          "name": "",
          "type": "uint256"
        }
      ],
      "stateMutability": "view",
      "type": "function",
      "constant": true
    },
    {
      "inputs": [],
      "name": "renounceOwnership",
      "outputs": [],
      "stateMutability": "nonpayable",
      "type": "function"
    },
    {
      "inputs": [
        {
          "internalType": "address",
          "name": "delegate",
          "type": "address"
        }
      ],
      "name": "revokeDelegate",
      "outputs": [],
      "stateMutability": "nonpayable",
      "type": "function"
    },
    {
      "inputs": [],
      "name": "symbol",
      "outputs": [
        {
          "internalType": "string",
          "name": "",
          "type": "string"
        }
      ],
      "stateMutability": "view",
      "type": "function",
      "constant": true
    },
    {
      "inputs": [],
      "name": "totalSupply",
      "outputs": [
        {
          "internalType": "uint256",
          "name": "",
          "type": "uint256"
        }
      ],
      "stateMutability": "view",
      "type": "function",
      "constant": true
    },
    {
      "inputs": [
        {
          "internalType": "address",
          "name": "recipient",
          "type": "address"
        },
        {
          "internalType": "uint256",
          "name": "amount",
          "type": "uint256"
        }
      ],
      "name": "transfer",
      "outputs": [
        {
          "internalType": "bool",
          "name": "",
          "type": "bool"
        }
      ],
      "stateMutability": "nonpayable",
      "type": "function"
    },
    {
      "inputs": [
        {
          "internalType": "address",
          "name": "sender",
          "type": "address"
        },
        {
          "internalType": "address",
          "name": "recipient",
          "type": "address"
        },
        {
          "internalType": "uint256",
          "name": "amount",
          "type": "uint256"
        }
      ],
      "name": "transferFrom",
      "outputs": [
        {
          "internalType": "bool",
          "name": "",
          "type": "bool"
        }
      ],
      "stateMutability": "nonpayable",
      "type": "function"
    },
    {
      "inputs": [
        {
          "internalType": "address",
          "name": "newOwner",
          "type": "address"
        }
      ],
      "name": "transferOwnership",
      "outputs": [],
      "stateMutability": "nonpayable",
      "type": "function"
    },
    {
      "inputs": [],
      "name": "chiGrowth",
      "outputs": [
        {
          "internalType": "uint256",
          "name": "",
          "type": "uint256"
        }
      ],
      "stateMutability": "nonpayable",
      "type": "function"
    },
    {
      "inputs": [],
      "name": "rateGrowth",
      "outputs": [
        {
          "internalType": "uint256",
          "name": "",
          "type": "uint256"
        }
      ],
      "stateMutability": "nonpayable",
      "type": "function"
    },
    {
      "inputs": [],
      "name": "mature",
      "outputs": [],
      "stateMutability": "nonpayable",
      "type": "function"
    },
    {
      "inputs": [
        {
          "internalType": "address",
          "name": "user",
          "type": "address"
        },
        {
          "internalType": "uint256",
          "name": "yDaiAmount",
          "type": "uint256"
        }
      ],
      "name": "redeem",
      "outputs": [],
      "stateMutability": "nonpayable",
      "type": "function"
    },
    {
      "inputs": [
        {
          "internalType": "address",
          "name": "to",
          "type": "address"
        },
        {
          "internalType": "uint256",
          "name": "yDaiAmount",
          "type": "uint256"
        },
        {
          "internalType": "bytes",
          "name": "data",
          "type": "bytes"
        }
      ],
      "name": "flashMint",
      "outputs": [],
      "stateMutability": "nonpayable",
      "type": "function"
    },
    {
      "inputs": [
        {
          "internalType": "address",
          "name": "to",
          "type": "address"
        },
        {
          "internalType": "uint256",
          "name": "yDaiAmount",
          "type": "uint256"
        }
      ],
      "name": "mint",
      "outputs": [],
      "stateMutability": "nonpayable",
      "type": "function"
    },
    {
      "inputs": [
        {
          "internalType": "address",
          "name": "from",
          "type": "address"
        },
        {
          "internalType": "uint256",
          "name": "yDaiAmount",
          "type": "uint256"
        }
      ],
      "name": "burn",
      "outputs": [],
      "stateMutability": "nonpayable",
      "type": "function"
    }
  ],
  "bytecode": "0x60806040523480156200001157600080fd5b5060405162003bd938038062003bd9833981810160405260e08110156200003757600080fd5b810190808051906020019092919080519060200190929190805190602001909291908051906020019092919080519060200190929190805160405193929190846401000000008211156200008a57600080fd5b83820191506020820185811115620000a157600080fd5b8251866001820283011164010000000082111715620000bf57600080fd5b8083526020830192505050908051906020019080838360005b83811015620000f5578082015181840152602081019050620000d8565b50505050905090810190601f168015620001235780820380516001836020036101000a031916815260200191505b50604052602001805160405193929190846401000000008211156200014757600080fd5b838201915060208201858111156200015e57600080fd5b82518660018202830111640100000000821117156200017c57600080fd5b8083526020830192505050908051906020019080838360005b83811015620001b257808201518184015260208101905062000195565b50505050905090810190601f168015620001e05780820380516001836020036101000a031916815260200191505b5060405250505081816000620001fb6200044160201b60201c565b9050806000806101000a81548173ffffffffffffffffffffffffffffffffffffffff021916908373ffffffffffffffffffffffffffffffffffffffff1602179055508073ffffffffffffffffffffffffffffffffffffffff16600073ffffffffffffffffffffffffffffffffffffffff167f8be0079c531659141344cd1fd0a4f28419497f9722a3daafe3b4186f6b6457e060405160405180910390a3508160069080519060200190620002b1929190620004d4565b508060079080519060200190620002ca929190620004d4565b506012600860006101000a81548160ff021916908360ff160217905550505086600860016101000a81548173ffffffffffffffffffffffffffffffffffffffff021916908373ffffffffffffffffffffffffffffffffffffffff16021790555085600960006101000a81548173ffffffffffffffffffffffffffffffffffffffff021916908373ffffffffffffffffffffffffffffffffffffffff16021790555084600a60006101000a81548173ffffffffffffffffffffffffffffffffffffffff021916908373ffffffffffffffffffffffffffffffffffffffff16021790555083600b60006101000a81548173ffffffffffffffffffffffffffffffffffffffff021916908373ffffffffffffffffffffffffffffffffffffffff16021790555082600c819055506200040e601b60ff166200044960201b620031ab1760201c565b600d819055506200042e601b60ff166200044960201b620031ab1760201c565b600e819055505050505050505062000583565b600033905090565b6000604d8260ff161115620004c6576040517f08c379a00000000000000000000000000000000000000000000000000000000081526004018080602001828103825260118152602001807f546f6f206d616e7920646563696d616c7300000000000000000000000000000081525060200191505060405180910390fd5b8160ff16600a0a9050919050565b828054600181600116156101000203166002900490600052602060002090601f016020900481019282601f106200051757805160ff191683800117855562000548565b8280016001018555821562000548579182015b82811115620005475782518255916020019190600101906200052a565b5b5090506200055791906200055b565b5090565b6200058091905b808211156200057c57600081600090555060010162000562565b5090565b90565b61364680620005936000396000f3fe608060405234801561001057600080fd5b50600436106101fb5760003560e01c806380f5a4401161011a578063abf1614b116100ad578063cb2401981161007c578063cb2401981461092f578063dd62ed3e1461094d578063e71bdf41146109c5578063f2fde38b14610a09578063fa352c0014610a4d576101fb565b8063abf1614b146108b3578063ad5c4648146108d1578063ae4e7fdf146108ef578063b6dbf9ce14610911576101fb565b806395d89b41116100e957806395d89b41146107165780639dc29fac14610799578063a457c2d7146107e7578063a9059cbb1461084d576101fb565b806380f5a4401461066057806387b65207146106a45780638da5cb5b146106ae57806393c19e18146106f8576101fb565b8063313ce56711610192578063552033c411610161578063552033c4146105b65780636a146024146105da57806370a08231146105fe578063715018a614610656576101fb565b8063313ce5671461043b578063395093511461045f5780633ea21465146104c557806340c10f1914610568576101fb565b806318160ddd116101ce57806318160ddd1461032b5780631e9a695014610349578063204f83f91461039757806323b872dd146103b5576101fb565b806306f405fd1461020057806306fdde0314610224578063095ea7b3146102a757806312970eac1461030d575b600080fd5b610208610a91565b604051808260ff1660ff16815260200191505060405180910390f35b61022c610a96565b6040518080602001828103825283818151815260200191508051906020019080838360005b8381101561026c578082015181840152602081019050610251565b50505050905090810190601f1680156102995780820380516001836020036101000a031916815260200191505b509250505060405180910390f35b6102f3600480360360408110156102bd57600080fd5b81019080803573ffffffffffffffffffffffffffffffffffffffff16906020019092919080359060200190929190505050610b38565b604051808215151515815260200191505060405180910390f35b610315610b56565b6040518082815260200191505060405180910390f35b610333610b5c565b6040518082815260200191505060405180910390f35b6103956004803603604081101561035f57600080fd5b81019080803573ffffffffffffffffffffffffffffffffffffffff16906020019092919080359060200190929190505050610b66565b005b61039f610ed7565b6040518082815260200191505060405180910390f35b610421600480360360608110156103cb57600080fd5b81019080803573ffffffffffffffffffffffffffffffffffffffff169060200190929190803573ffffffffffffffffffffffffffffffffffffffff16906020019092919080359060200190929190505050610edd565b604051808215151515815260200191505060405180910390f35b610443610fb6565b604051808260ff1660ff16815260200191505060405180910390f35b6104ab6004803603604081101561047557600080fd5b81019080803573ffffffffffffffffffffffffffffffffffffffff16906020019092919080359060200190929190505050610fcd565b604051808215151515815260200191505060405180910390f35b610566600480360360608110156104db57600080fd5b81019080803573ffffffffffffffffffffffffffffffffffffffff169060200190929190803590602001909291908035906020019064010000000081111561052257600080fd5b82018360208201111561053457600080fd5b8035906020019184600183028401116401000000008311171561055657600080fd5b9091929391929390505050611080565b005b6105b46004803603604081101561057e57600080fd5b81019080803573ffffffffffffffffffffffffffffffffffffffff1690602001909291908035906020019092919050505061116d565b005b6105be6112a7565b604051808260ff1660ff16815260200191505060405180910390f35b6105e26112ac565b604051808260ff1660ff16815260200191505060405180910390f35b6106406004803603602081101561061457600080fd5b81019080803573ffffffffffffffffffffffffffffffffffffffff1690602001909291905050506112b1565b6040518082815260200191505060405180910390f35b61065e6112fa565b005b6106a26004803603602081101561067657600080fd5b81019080803573ffffffffffffffffffffffffffffffffffffffff169060200190929190505050611482565b005b6106ac611608565b005b6106b6611a91565b604051808273ffffffffffffffffffffffffffffffffffffffff1673ffffffffffffffffffffffffffffffffffffffff16815260200191505060405180910390f35b610700611aba565b6040518082815260200191505060405180910390f35b61071e611ac0565b6040518080602001828103825283818151815260200191508051906020019080838360005b8381101561075e578082015181840152602081019050610743565b50505050905090810190601f16801561078b5780820380516001836020036101000a031916815260200191505b509250505060405180910390f35b6107e5600480360360408110156107af57600080fd5b81019080803573ffffffffffffffffffffffffffffffffffffffff16906020019092919080359060200190929190505050611b62565b005b610833600480360360408110156107fd57600080fd5b81019080803573ffffffffffffffffffffffffffffffffffffffff16906020019092919080359060200190929190505050611c9c565b604051808215151515815260200191505060405180910390f35b6108996004803603604081101561086357600080fd5b81019080803573ffffffffffffffffffffffffffffffffffffffff16906020019092919080359060200190929190505050611d69565b604051808215151515815260200191505060405180910390f35b6108bb611d87565b6040518082815260200191505060405180910390f35b6108d9612092565b6040518082815260200191505060405180910390f35b6108f76120b6565b604051808215151515815260200191505060405180910390f35b6109196120c9565b6040518082815260200191505060405180910390f35b6109376120ed565b6040518082815260200191505060405180910390f35b6109af6004803603604081101561096357600080fd5b81019080803573ffffffffffffffffffffffffffffffffffffffff169060200190929190803573ffffffffffffffffffffffffffffffffffffffff169060200190929190505050612340565b6040518082815260200191505060405180910390f35b610a07600480360360208110156109db57600080fd5b81019080803573ffffffffffffffffffffffffffffffffffffffff1690602001909291905050506123c7565b005b610a4b60048036036020811015610a1f57600080fd5b81019080803573ffffffffffffffffffffffffffffffffffffffff1690602001909291905050506124c9565b005b610a8f60048036036020811015610a6357600080fd5b81019080803573ffffffffffffffffffffffffffffffffffffffff1690602001909291905050506126d6565b005b602d81565b606060068054600181600116156101000203166002900480601f016020809104026020016040519081016040528092919081815260200182805460018160011615610100020316600290048015610b2e5780601f10610b0357610100808354040283529160200191610b2e565b820191906000526020600020905b815481529060010190602001808311610b1157829003601f168201915b5050505050905090565b6000610b4c610b456127d8565b84846127e0565b6001905092915050565b600d5481565b6000600554905090565b816040518060400160405280601d81526020017f594461693a204f6e6c7920486f6c646572204f722044656c65676174650000008152508173ffffffffffffffffffffffffffffffffffffffff163373ffffffffffffffffffffffffffffffffffffffff161480610c5d5750600260008373ffffffffffffffffffffffffffffffffffffffff1673ffffffffffffffffffffffffffffffffffffffff16815260200190815260200160002060003373ffffffffffffffffffffffffffffffffffffffff1673ffffffffffffffffffffffffffffffffffffffff16815260200190815260200160002060009054906101000a900460ff165b8190610d04576040517f08c379a00000000000000000000000000000000000000000000000000000000081526004018080602001828103825283818151815260200191508051906020019080838360005b83811015610cc9578082015181840152602081019050610cae565b50505050905090810190601f168015610cf65780820380516001836020036101000a031916815260200191505b509250505060405180910390fd5b5060011515600b60149054906101000a900460ff16151514610d8e576040517f08c379a00000000000000000000000000000000000000000000000000000000081526004018080602001828103825260188152602001807f594461693a2079446169206973206e6f74206d6174757265000000000000000081525060200191505060405180910390fd5b610d9884846129d7565b6000610db7610da56120ed565b601b86612b9d9092919063ffffffff16565b9050600b60009054906101000a900473ffffffffffffffffffffffffffffffffffffffff1673ffffffffffffffffffffffffffffffffffffffff16635502770386836040518363ffffffff1660e01b8152600401808373ffffffffffffffffffffffffffffffffffffffff1673ffffffffffffffffffffffffffffffffffffffff16815260200182815260200192505050600060405180830381600087803b158015610e6257600080fd5b505af1158015610e76573d6000803e3d6000fd5b505050508473ffffffffffffffffffffffffffffffffffffffff167ff3a670cd3af7d64b488926880889d08a8585a138ff455227af6737339a1ec2628583604051808381526020018281526020019250505060405180910390a25050505050565b600c5481565b6000610eea848484612bd5565b610fab84610ef66127d8565b610fa68560405180606001604052806028815260200161355a60289139600460008b73ffffffffffffffffffffffffffffffffffffffff1673ffffffffffffffffffffffffffffffffffffffff1681526020019081526020016000206000610f5c6127d8565b73ffffffffffffffffffffffffffffffffffffffff1673ffffffffffffffffffffffffffffffffffffffff16815260200190815260200160002054612e9a9092919063ffffffff16565b6127e0565b600190509392505050565b6000600860009054906101000a900460ff16905090565b6000611076610fda6127d8565b846110718560046000610feb6127d8565b73ffffffffffffffffffffffffffffffffffffffff1673ffffffffffffffffffffffffffffffffffffffff16815260200190815260200160002060008973ffffffffffffffffffffffffffffffffffffffff1673ffffffffffffffffffffffffffffffffffffffff16815260200190815260200160002054612f5a90919063ffffffff16565b6127e0565b6001905092915050565b61108a8484612fe2565b3373ffffffffffffffffffffffffffffffffffffffff1663bdd26b31858585856040518563ffffffff1660e01b8152600401808573ffffffffffffffffffffffffffffffffffffffff1673ffffffffffffffffffffffffffffffffffffffff168152602001848152602001806020018281038252848482818152602001925080828437600081840152601f19601f82011690508083019250505095505050505050600060405180830381600087803b15801561114557600080fd5b505af1158015611159573d6000803e3d6000fd5b5050505061116784846129d7565b50505050565b6040518060400160405280601481526020017f594461693a204e6f7420417574686f72697a6564000000000000000000000000815250600160003373ffffffffffffffffffffffffffffffffffffffff1673ffffffffffffffffffffffffffffffffffffffff16815260200190815260200160002060009054906101000a900460ff168190611297576040517f08c379a00000000000000000000000000000000000000000000000000000000081526004018080602001828103825283818151815260200191508051906020019080838360005b8381101561125c578082015181840152602081019050611241565b50505050905090810190601f1680156112895780820380516001836020036101000a031916815260200191505b509250505060405180910390fd5b506112a28383612fe2565b505050565b601b81565b601281565b6000600360008373ffffffffffffffffffffffffffffffffffffffff1673ffffffffffffffffffffffffffffffffffffffff168152602001908152602001600020549050919050565b6113026127d8565b73ffffffffffffffffffffffffffffffffffffffff166000809054906101000a900473ffffffffffffffffffffffffffffffffffffffff1673ffffffffffffffffffffffffffffffffffffffff16146113c3576040517f08c379a00000000000000000000000000000000000000000000000000000000081526004018080602001828103825260208152602001807f4f776e61626c653a2063616c6c6572206973206e6f7420746865206f776e657281525060200191505060405180910390fd5b600073ffffffffffffffffffffffffffffffffffffffff166000809054906101000a900473ffffffffffffffffffffffffffffffffffffffff1673ffffffffffffffffffffffffffffffffffffffff167f8be0079c531659141344cd1fd0a4f28419497f9722a3daafe3b4186f6b6457e060405160405180910390a360008060006101000a81548173ffffffffffffffffffffffffffffffffffffffff021916908373ffffffffffffffffffffffffffffffffffffffff160217905550565b61148a6127d8565b73ffffffffffffffffffffffffffffffffffffffff166000809054906101000a900473ffffffffffffffffffffffffffffffffffffffff1673ffffffffffffffffffffffffffffffffffffffff161461154b576040517f08c379a00000000000000000000000000000000000000000000000000000000081526004018080602001828103825260208152602001807f4f776e61626c653a2063616c6c6572206973206e6f7420746865206f776e657281525060200191505060405180910390fd5b60018060008373ffffffffffffffffffffffffffffffffffffffff1673ffffffffffffffffffffffffffffffffffffffff16815260200190815260200160002060006101000a81548160ff0219169083151502179055507f6a7c5f28ea564fafc8b079663a2a9b9d26fe735d97c97611484ce044f40a16e281604051808273ffffffffffffffffffffffffffffffffffffffff1673ffffffffffffffffffffffffffffffffffffffff16815260200191505060405180910390a150565b600c54421161167f576040517f08c379a00000000000000000000000000000000000000000000000000000000081526004018080602001828103825260198152602001807f594461693a20546f6f206561726c7920746f206d61747572650000000000000081525060200191505060405180910390fd5b60011515600b60149054906101000a900460ff1615151415611709576040517f08c379a00000000000000000000000000000000000000000000000000000000081526004018080602001828103825260158152602001807f594461693a20416c7265616479206d617475726564000000000000000000000081525060200191505060405180910390fd5b600860019054906101000a900473ffffffffffffffffffffffffffffffffffffffff1673ffffffffffffffffffffffffffffffffffffffff1663d9638d366040518163ffffffff1660e01b815260040180807f4554482d41000000000000000000000000000000000000000000000000000000815250602001905060a06040518083038186803b15801561179c57600080fd5b505afa1580156117b0573d6000803e3d6000fd5b505050506040513d60a08110156117c657600080fd5b8101908080519060200190929190805190602001909291908051906020019092919080519060200190929190805190602001909291905050509091929350909150905050600e600082919050555061182c600e54611827601b60ff166131ab565b613235565b600e81905550600a60009054906101000a900473ffffffffffffffffffffffffffffffffffffffff1673ffffffffffffffffffffffffffffffffffffffff166320aba08b6040518163ffffffff1660e01b8152600401602060405180830381600087803b15801561189c57600080fd5b505af11580156118b0573d6000803e3d6000fd5b505050506040513d60208110156118c657600080fd5b8101908080519060200190929190505050421161198557600a60009054906101000a900473ffffffffffffffffffffffffffffffffffffffff1673ffffffffffffffffffffffffffffffffffffffff1663c92aecc46040518163ffffffff1660e01b815260040160206040518083038186803b15801561194557600080fd5b505afa158015611959573d6000803e3d6000fd5b505050506040513d602081101561196f57600080fd5b8101908080519060200190929190505050611a2b565b600a60009054906101000a900473ffffffffffffffffffffffffffffffffffffffff1673ffffffffffffffffffffffffffffffffffffffff16639f678cca6040518163ffffffff1660e01b8152600401602060405180830381600087803b1580156119ef57600080fd5b505af1158015611a03573d6000803e3d6000fd5b505050506040513d6020811015611a1957600080fd5b81019080805190602001909291905050505b600d819055506001600b60146101000a81548160ff0219169083151502179055507f30a742d45111295203c4b8db614c8b05dd1323a7c5159fb88b0cc73be46b7a75600e54600d54604051808381526020018281526020019250505060405180910390a1565b60008060009054906101000a900473ffffffffffffffffffffffffffffffffffffffff16905090565b600e5481565b606060078054600181600116156101000203166002900480601f016020809104026020016040519081016040528092919081815260200182805460018160011615610100020316600290048015611b585780601f10611b2d57610100808354040283529160200191611b58565b820191906000526020600020905b815481529060010190602001808311611b3b57829003601f168201915b5050505050905090565b6040518060400160405280601481526020017f594461693a204e6f7420417574686f72697a6564000000000000000000000000815250600160003373ffffffffffffffffffffffffffffffffffffffff1673ffffffffffffffffffffffffffffffffffffffff16815260200190815260200160002060009054906101000a900460ff168190611c8c576040517f08c379a00000000000000000000000000000000000000000000000000000000081526004018080602001828103825283818151815260200191508051906020019080838360005b83811015611c51578082015181840152602081019050611c36565b50505050905090810190601f168015611c7e5780820380516001836020036101000a031916815260200191505b509250505060405180910390fd5b50611c9783836129d7565b505050565b6000611d5f611ca96127d8565b84611d5a856040518060600160405280602581526020016135ec6025913960046000611cd36127d8565b73ffffffffffffffffffffffffffffffffffffffff1673ffffffffffffffffffffffffffffffffffffffff16815260200190815260200160002060008a73ffffffffffffffffffffffffffffffffffffffff1673ffffffffffffffffffffffffffffffffffffffff16815260200190815260200160002054612e9a9092919063ffffffff16565b6127e0565b6001905092915050565b6000611d7d611d766127d8565b8484612bd5565b6001905092915050565b600060011515600b60149054906101000a900460ff16151514611dae57600e54905061208f565b600080600960009054906101000a900473ffffffffffffffffffffffffffffffffffffffff1673ffffffffffffffffffffffffffffffffffffffff1663d9638d366040518163ffffffff1660e01b815260040180807f4554482d4100000000000000000000000000000000000000000000000000000081525060200190506040805180830381600087803b158015611e4557600080fd5b505af1158015611e59573d6000803e3d6000fd5b505050506040513d6040811015611e6f57600080fd5b81019080805190602001909291908051906020019092919050505091505080421115611f6c57600960009054906101000a900473ffffffffffffffffffffffffffffffffffffffff1673ffffffffffffffffffffffffffffffffffffffff166344e2a5a86040518163ffffffff1660e01b815260040180807f4554482d410000000000000000000000000000000000000000000000000000008152506020019050602060405180830381600087803b158015611f2a57600080fd5b505af1158015611f3e573d6000803e3d6000fd5b505050506040513d6020811015611f5457600080fd5b81019080805190602001909291905050509150612072565b600860019054906101000a900473ffffffffffffffffffffffffffffffffffffffff1673ffffffffffffffffffffffffffffffffffffffff1663d9638d366040518163ffffffff1660e01b815260040180807f4554482d41000000000000000000000000000000000000000000000000000000815250602001905060a06040518083038186803b158015611fff57600080fd5b505afa158015612013573d6000803e3d6000fd5b505050506040513d60a081101561202957600080fd5b8101908080519060200190929190805190602001909291908051906020019092919080519060200190929190805190602001909291905050509091929350909150905050809250505b61208a600e54601b8461324f9092919063ffffffff16565b925050505b90565b7f574554480000000000000000000000000000000000000000000000000000000081565b600b60149054906101000a900460ff1681565b7f434841490000000000000000000000000000000000000000000000000000000081565b600060011515600b60149054906101000a900460ff1615151461211457600d54905061233d565b6000600a60009054906101000a900473ffffffffffffffffffffffffffffffffffffffff1673ffffffffffffffffffffffffffffffffffffffff166320aba08b6040518163ffffffff1660e01b8152600401602060405180830381600087803b15801561218057600080fd5b505af1158015612194573d6000803e3d6000fd5b505050506040513d60208110156121aa57600080fd5b8101908080519060200190929190505050421161226957600a60009054906101000a900473ffffffffffffffffffffffffffffffffffffffff1673ffffffffffffffffffffffffffffffffffffffff1663c92aecc46040518163ffffffff1660e01b815260040160206040518083038186803b15801561222957600080fd5b505afa15801561223d573d6000803e3d6000fd5b505050506040513d602081101561225357600080fd5b810190808051906020019092919050505061230f565b600a60009054906101000a900473ffffffffffffffffffffffffffffffffffffffff1673ffffffffffffffffffffffffffffffffffffffff16639f678cca6040518163ffffffff1660e01b8152600401602060405180830381600087803b1580156122d357600080fd5b505af11580156122e7573d6000803e3d6000fd5b505050506040513d60208110156122fd57600080fd5b81019080805190602001909291905050505b905061233961231c611d87565b612334600d54601b8561324f9092919063ffffffff16565b613287565b9150505b90565b6000600460008473ffffffffffffffffffffffffffffffffffffffff1673ffffffffffffffffffffffffffffffffffffffff16815260200190815260200160002060008373ffffffffffffffffffffffffffffffffffffffff1673ffffffffffffffffffffffffffffffffffffffff16815260200190815260200160002054905092915050565b6001600260003373ffffffffffffffffffffffffffffffffffffffff1673ffffffffffffffffffffffffffffffffffffffff16815260200190815260200160002060008373ffffffffffffffffffffffffffffffffffffffff1673ffffffffffffffffffffffffffffffffffffffff16815260200190815260200160002060006101000a81548160ff0219169083151502179055508073ffffffffffffffffffffffffffffffffffffffff163373ffffffffffffffffffffffffffffffffffffffff167f045b0fef01772d2fbba53dbd38c9777806eac0865b00af43abcfbcaf50da92066001604051808215151515815260200191505060405180910390a350565b6124d16127d8565b73ffffffffffffffffffffffffffffffffffffffff166000809054906101000a900473ffffffffffffffffffffffffffffffffffffffff1673ffffffffffffffffffffffffffffffffffffffff1614612592576040517f08c379a00000000000000000000000000000000000000000000000000000000081526004018080602001828103825260208152602001807f4f776e61626c653a2063616c6c6572206973206e6f7420746865206f776e657281525060200191505060405180910390fd5b600073ffffffffffffffffffffffffffffffffffffffff168173ffffffffffffffffffffffffffffffffffffffff161415612618576040517f08c379a00000000000000000000000000000000000000000000000000000000081526004018080602001828103825260268152602001806134cb6026913960400191505060405180910390fd5b8073ffffffffffffffffffffffffffffffffffffffff166000809054906101000a900473ffffffffffffffffffffffffffffffffffffffff1673ffffffffffffffffffffffffffffffffffffffff167f8be0079c531659141344cd1fd0a4f28419497f9722a3daafe3b4186f6b6457e060405160405180910390a3806000806101000a81548173ffffffffffffffffffffffffffffffffffffffff021916908373ffffffffffffffffffffffffffffffffffffffff16021790555050565b6000600260003373ffffffffffffffffffffffffffffffffffffffff1673ffffffffffffffffffffffffffffffffffffffff16815260200190815260200160002060008373ffffffffffffffffffffffffffffffffffffffff1673ffffffffffffffffffffffffffffffffffffffff16815260200190815260200160002060006101000a81548160ff0219169083151502179055508073ffffffffffffffffffffffffffffffffffffffff163373ffffffffffffffffffffffffffffffffffffffff167f045b0fef01772d2fbba53dbd38c9777806eac0865b00af43abcfbcaf50da92066000604051808215151515815260200191505060405180910390a350565b600033905090565b600073ffffffffffffffffffffffffffffffffffffffff168373ffffffffffffffffffffffffffffffffffffffff161415612866576040517f08c379a00000000000000000000000000000000000000000000000000000000081526004018080602001828103825260248152602001806135c86024913960400191505060405180910390fd5b600073ffffffffffffffffffffffffffffffffffffffff168273ffffffffffffffffffffffffffffffffffffffff1614156128ec576040517f08c379a00000000000000000000000000000000000000000000000000000000081526004018080602001828103825260228152602001806134f16022913960400191505060405180910390fd5b80600460008573ffffffffffffffffffffffffffffffffffffffff1673ffffffffffffffffffffffffffffffffffffffff16815260200190815260200160002060008473ffffffffffffffffffffffffffffffffffffffff1673ffffffffffffffffffffffffffffffffffffffff168152602001908152602001600020819055508173ffffffffffffffffffffffffffffffffffffffff168373ffffffffffffffffffffffffffffffffffffffff167f8c5be1e5ebec7d5bd14f71427d1e84f3dd0314c0f7b2291e5b200ac8c7c3b925836040518082815260200191505060405180910390a3505050565b600073ffffffffffffffffffffffffffffffffffffffff168273ffffffffffffffffffffffffffffffffffffffff161415612a5d576040517f08c379a00000000000000000000000000000000000000000000000000000000081526004018080602001828103825260218152602001806135826021913960400191505060405180910390fd5b612a69826000836132a0565b612ad5816040518060600160405280602281526020016134a960229139600360008673ffffffffffffffffffffffffffffffffffffffff1673ffffffffffffffffffffffffffffffffffffffff16815260200190815260200160002054612e9a9092919063ffffffff16565b600360008473ffffffffffffffffffffffffffffffffffffffff1673ffffffffffffffffffffffffffffffffffffffff16815260200190815260200160002081905550612b2d816005546132a590919063ffffffff16565b600581905550600073ffffffffffffffffffffffffffffffffffffffff168273ffffffffffffffffffffffffffffffffffffffff167fddf252ad1be2c89b69c2b068fc378daa952ba7f163c4a11628f55a4df523b3ef836040518082815260200191505060405180910390a35050565b6000612bcc612bab836131ab565b612bbe85876132ef90919063ffffffff16565b61337590919063ffffffff16565b90509392505050565b600073ffffffffffffffffffffffffffffffffffffffff168373ffffffffffffffffffffffffffffffffffffffff161415612c5b576040517f08c379a00000000000000000000000000000000000000000000000000000000081526004018080602001828103825260258152602001806135a36025913960400191505060405180910390fd5b600073ffffffffffffffffffffffffffffffffffffffff168273ffffffffffffffffffffffffffffffffffffffff161415612ce1576040517f08c379a00000000000000000000000000000000000000000000000000000000081526004018080602001828103825260238152602001806134866023913960400191505060405180910390fd5b612cec8383836132a0565b612d588160405180606001604052806026815260200161351360269139600360008773ffffffffffffffffffffffffffffffffffffffff1673ffffffffffffffffffffffffffffffffffffffff16815260200190815260200160002054612e9a9092919063ffffffff16565b600360008573ffffffffffffffffffffffffffffffffffffffff1673ffffffffffffffffffffffffffffffffffffffff16815260200190815260200160002081905550612ded81600360008573ffffffffffffffffffffffffffffffffffffffff1673ffffffffffffffffffffffffffffffffffffffff16815260200190815260200160002054612f5a90919063ffffffff16565b600360008473ffffffffffffffffffffffffffffffffffffffff1673ffffffffffffffffffffffffffffffffffffffff168152602001908152602001600020819055508173ffffffffffffffffffffffffffffffffffffffff168373ffffffffffffffffffffffffffffffffffffffff167fddf252ad1be2c89b69c2b068fc378daa952ba7f163c4a11628f55a4df523b3ef836040518082815260200191505060405180910390a3505050565b6000838311158290612f47576040517f08c379a00000000000000000000000000000000000000000000000000000000081526004018080602001828103825283818151815260200191508051906020019080838360005b83811015612f0c578082015181840152602081019050612ef1565b50505050905090810190601f168015612f395780820380516001836020036101000a031916815260200191505b509250505060405180910390fd5b5060008385039050809150509392505050565b600080828401905083811015612fd8576040517f08c379a000000000000000000000000000000000000000000000000000000000815260040180806020018281038252601b8152602001807f536166654d6174683a206164646974696f6e206f766572666c6f77000000000081525060200191505060405180910390fd5b8091505092915050565b600073ffffffffffffffffffffffffffffffffffffffff168273ffffffffffffffffffffffffffffffffffffffff161415613085576040517f08c379a000000000000000000000000000000000000000000000000000000000815260040180806020018281038252601f8152602001807f45524332303a206d696e7420746f20746865207a65726f20616464726573730081525060200191505060405180910390fd5b613091600083836132a0565b6130a681600554612f5a90919063ffffffff16565b6005819055506130fe81600360008573ffffffffffffffffffffffffffffffffffffffff1673ffffffffffffffffffffffffffffffffffffffff16815260200190815260200160002054612f5a90919063ffffffff16565b600360008473ffffffffffffffffffffffffffffffffffffffff1673ffffffffffffffffffffffffffffffffffffffff168152602001908152602001600020819055508173ffffffffffffffffffffffffffffffffffffffff16600073ffffffffffffffffffffffffffffffffffffffff167fddf252ad1be2c89b69c2b068fc378daa952ba7f163c4a11628f55a4df523b3ef836040518082815260200191505060405180910390a35050565b6000604d8260ff161115613227576040517f08c379a00000000000000000000000000000000000000000000000000000000081526004018080602001828103825260118152602001807f546f6f206d616e7920646563696d616c7300000000000000000000000000000081525060200191505060405180910390fd5b8160ff16600a0a9050919050565b6000818310156132455781613247565b825b905092915050565b600061327e83613270613261856131ab565b876132ef90919063ffffffff16565b61337590919063ffffffff16565b90509392505050565b60008183106132965781613298565b825b905092915050565b505050565b60006132e783836040518060400160405280601e81526020017f536166654d6174683a207375627472616374696f6e206f766572666c6f770000815250612e9a565b905092915050565b600080831415613302576000905061336f565b600082840290508284828161331357fe5b041461336a576040517f08c379a00000000000000000000000000000000000000000000000000000000081526004018080602001828103825260218152602001806135396021913960400191505060405180910390fd5b809150505b92915050565b60006133b783836040518060400160405280601a81526020017f536166654d6174683a206469766973696f6e206279207a65726f0000000000008152506133bf565b905092915050565b6000808311829061346b576040517f08c379a00000000000000000000000000000000000000000000000000000000081526004018080602001828103825283818151815260200191508051906020019080838360005b83811015613430578082015181840152602081019050613415565b50505050905090810190601f16801561345d5780820380516001836020036101000a031916815260200191505b509250505060405180910390fd5b50600083858161347757fe5b04905080915050939250505056fe45524332303a207472616e7366657220746f20746865207a65726f206164647265737345524332303a206275726e20616d6f756e7420657863656564732062616c616e63654f776e61626c653a206e6577206f776e657220697320746865207a65726f206164647265737345524332303a20617070726f766520746f20746865207a65726f206164647265737345524332303a207472616e7366657220616d6f756e7420657863656564732062616c616e6365536166654d6174683a206d756c7469706c69636174696f6e206f766572666c6f7745524332303a207472616e7366657220616d6f756e74206578636565647320616c6c6f77616e636545524332303a206275726e2066726f6d20746865207a65726f206164647265737345524332303a207472616e736665722066726f6d20746865207a65726f206164647265737345524332303a20617070726f76652066726f6d20746865207a65726f206164647265737345524332303a2064656372656173656420616c6c6f77616e63652062656c6f77207a65726fa2646970667358221220f8091146517c2accbb86bce32e9ab8f09c49c9c079a4041b33b7861bbf96b6d564736f6c63430006020033",
  "source": "pragma solidity ^0.6.0;\n\nimport \"./helpers/Orchestrated.sol\";\nimport \"@hq20/contracts/contracts/math/DecimalMath.sol\";\nimport \"@openzeppelin/contracts/math/Math.sol\";\nimport \"@openzeppelin/contracts/token/ERC20/ERC20.sol\";\nimport \"./interfaces/IVat.sol\";\nimport \"./interfaces/IJug.sol\";\nimport \"./interfaces/IPot.sol\";\nimport \"./interfaces/ITreasury.sol\";\nimport \"./interfaces/IYDai.sol\";\nimport \"./interfaces/IFlashMinter.sol\";\nimport \"./helpers/Constants.sol\";\nimport \"./helpers/Delegable.sol\";\nimport \"@nomiclabs/buidler/console.sol\";\n\n\n/// @dev yDai is a yToken targeting Dai.\ncontract YDai is Orchestrated(), Delegable(), ERC20, Constants, IYDai  {\n    using DecimalMath for uint256;\n    using DecimalMath for uint8;\n\n    event Redeemed(address indexed user, uint256 yDaiIn, uint256 daiOut);\n    event Matured(uint256 rate, uint256 chi);\n\n    IVat internal _vat;\n    IJug internal _jug;\n    IPot internal _pot;\n    ITreasury internal _treasury;\n\n    bool public override isMature;\n    uint256 public override maturity;\n    uint256 public override chi0;      // Chi at maturity\n    uint256 public override rate0;     // Rate at maturity\n\n    constructor(\n        address vat_,\n        address jug_,\n        address pot_,\n        address treasury_,\n        uint256 maturity_,\n        string memory name,\n        string memory symbol\n    ) public ERC20(name, symbol) {\n        _vat = IVat(vat_);\n        _jug = IJug(jug_);\n        _pot = IPot(pot_);\n        _treasury = ITreasury(treasury_);\n        maturity = maturity_;\n        chi0 = RAY.unit();\n        rate0 = RAY.unit();\n    }\n\n    /// @dev Chi differential between maturity and now in RAY. Returns 1.0 if not mature.\n    /// If rateGrowth < chiGrowth, returns rate.\n    //\n    //          chi_now\n    // chi() = ---------\n    //          chi_mat\n    //\n    function chiGrowth() public override returns(uint256){\n        if (isMature != true) return chi0;\n        uint256 chiNow = (now > _pot.rho()) ? _pot.drip() : _pot.chi();\n        return Math.min(rateGrowth(), chiNow.divd(chi0, RAY));\n    }\n\n    /// @dev Rate differential between maturity and now in RAY. Returns 1.0 if not mature.\n    //\n    //           rate_now\n    // rateGrowth() = ----------\n    //           rate_mat\n    //\n    function rateGrowth() public override returns(uint256){\n        if (isMature != true) return rate0;\n        uint256 rateNow;\n        (, uint256 rho) = _jug.ilks(\"ETH-A\"); // \"WETH\" for weth.sol, \"ETH-A\" for MakerDAO\n        if (now > rho) {\n            rateNow = _jug.drip(\"ETH-A\");\n            // console.log(rateNow);\n        } else {\n            (, rateNow,,,) = _vat.ilks(\"ETH-A\");\n        }\n        return rateNow.divd(rate0, RAY);\n    }\n\n    /// @dev Mature yDai and capture maturity data\n    function mature() public override {\n        require(\n            // solium-disable-next-line security/no-block-members\n            now > maturity,\n            \"YDai: Too early to mature\"\n        );\n        require(\n            isMature != true,\n            \"YDai: Already matured\"\n        );\n        (, rate0,,,) = _vat.ilks(\"ETH-A\"); // Retrieve the MakerDAO Vat\n        rate0 = Math.max(rate0, RAY.unit()); // Floor it at 1.0\n        chi0 = (now > _pot.rho()) ? _pot.drip() : _pot.chi();\n        isMature = true;\n        emit Matured(rate0, chi0);\n    }\n\n    /// @dev Burn yTokens and return their dai equivalent value, pulled from the Treasury\n    // TODO: Consider whether to allow this to be gracefully unwind, instead of letting `_treasury.pullDai()` revert.\n    // user --- yDai ---> us\n    // us   --- Dai  ---> user\n    function redeem(address user, uint256 yDaiAmount)\n        public onlyHolderOrDelegate(user, \"YDai: Only Holder Or Delegate\") {\n        require(\n            isMature == true,\n            \"YDai: yDai is not mature\"\n        );\n        _burn(user, yDaiAmount);                              // Burn yDai from user\n        uint256 daiAmount = yDaiAmount.muld(chiGrowth(), RAY); // User gets interest for holding after maturity\n        _treasury.pullDai(user, daiAmount);                   // Give dai to user, from Treasury\n        emit Redeemed(user, yDaiAmount, daiAmount);\n    }\n\n    /// @dev Flash-mint yDai. Calls back on `IFlashMinter.executeOnFlashMint()`\n    function flashMint(address to, uint256 yDaiAmount, bytes calldata data) external override {\n        _mint(to, yDaiAmount);\n        IFlashMinter(msg.sender).executeOnFlashMint(to, yDaiAmount, data);\n        _burn(to, yDaiAmount);\n    }\n\n    /// @dev Mint yDai. Only callable by Dealer contracts.\n    function mint(address to, uint256 yDaiAmount) public override onlyOrchestrated(\"YDai: Not Authorized\")\n        {\n        _mint(to, yDaiAmount);\n    }\n\n    /// @dev Burn yDai. Only callable by Dealer contracts.\n    function burn(address from, uint256 yDaiAmount) public override onlyOrchestrated(\"YDai: Not Authorized\") {\n        _burn(from, yDaiAmount);\n    }\n}",
  "sourcePath": "/Users/bruce/dev/yieldprotocol/ytoken-mvp/contracts/YDai.sol",
  "compiler": {
    "name": "solc",
    "version": "0.6.2+commit.bacdbe57.Emscripten.clang"
  },
  "schemaVersion": "3.0.23",
  "updatedAt": "2020-07-02T10:00:55.775Z",
  "networkType": "ethereum",
  "devdoc": {
    "details": "yDai is a yToken targeting Dai.",
    "methods": {
      "addDelegate(address)": {
        "details": "Enable a delegate to act on the behalf of caller"
      },
      "allowance(address,address)": {
        "details": "See {IERC20-allowance}."
      },
      "approve(address,uint256)": {
        "details": "See {IERC20-approve}.     * Requirements:     * - `spender` cannot be the zero address."
      },
      "balanceOf(address)": {
        "details": "See {IERC20-balanceOf}."
      },
      "burn(address,uint256)": {
        "details": "Burn yDai. Only callable by Dealer contracts."
      },
      "chiGrowth()": {
        "details": "Chi differential between maturity and now in RAY. Returns 1.0 if not mature. If rateGrowth < chiGrowth, returns rate."
      },
      "decimals()": {
        "details": "Returns the number of decimals used to get its user representation. For example, if `decimals` equals `2`, a balance of `505` tokens should be displayed to a user as `5,05` (`505 / 10 ** 2`).     * Tokens usually opt for a value of 18, imitating the relationship between Ether and Wei. This is the value {ERC20} uses, unless {_setupDecimals} is called.     * NOTE: This information is only used for _display_ purposes: it in no way affects any of the arithmetic of the contract, including {IERC20-balanceOf} and {IERC20-transfer}."
      },
      "decreaseAllowance(address,uint256)": {
        "details": "Atomically decreases the allowance granted to `spender` by the caller.     * This is an alternative to {approve} that can be used as a mitigation for problems described in {IERC20-approve}.     * Emits an {Approval} event indicating the updated allowance.     * Requirements:     * - `spender` cannot be the zero address. - `spender` must have allowance for the caller of at least `subtractedValue`."
      },
      "flashMint(address,uint256,bytes)": {
        "details": "Flash-mint yDai. Calls back on `IFlashMinter.executeOnFlashMint()`"
      },
      "increaseAllowance(address,uint256)": {
        "details": "Atomically increases the allowance granted to `spender` by the caller.     * This is an alternative to {approve} that can be used as a mitigation for problems described in {IERC20-approve}.     * Emits an {Approval} event indicating the updated allowance.     * Requirements:     * - `spender` cannot be the zero address."
      },
      "mature()": {
        "details": "Mature yDai and capture maturity data"
      },
      "mint(address,uint256)": {
        "details": "Mint yDai. Only callable by Dealer contracts."
      },
      "name()": {
        "details": "Returns the name of the token."
      },
      "orchestrate(address)": {
        "details": "Add user to the authorized users list"
      },
      "owner()": {
        "details": "Returns the address of the current owner."
      },
      "rateGrowth()": {
        "details": "Rate differential between maturity and now in RAY. Returns 1.0 if not mature."
      },
      "redeem(address,uint256)": {
        "details": "Burn yTokens and return their dai equivalent value, pulled from the Treasury"
      },
      "renounceOwnership()": {
        "details": "Leaves the contract without owner. It will not be possible to call `onlyOwner` functions anymore. Can only be called by the current owner.     * NOTE: Renouncing ownership will leave the contract without an owner, thereby removing any functionality that is only available to the owner."
      },
      "revokeDelegate(address)": {
        "details": "Stop a delegate from acting on the behalf of caller"
      },
      "symbol()": {
        "details": "Returns the symbol of the token, usually a shorter version of the name."
      },
      "totalSupply()": {
        "details": "See {IERC20-totalSupply}."
      },
      "transfer(address,uint256)": {
        "details": "See {IERC20-transfer}.     * Requirements:     * - `recipient` cannot be the zero address. - the caller must have a balance of at least `amount`."
      },
      "transferFrom(address,address,uint256)": {
        "details": "See {IERC20-transferFrom}.     * Emits an {Approval} event indicating the updated allowance. This is not required by the EIP. See the note at the beginning of {ERC20};     * Requirements: - `sender` and `recipient` cannot be the zero address. - `sender` must have a balance of at least `amount`. - the caller must have allowance for ``sender``'s tokens of at least `amount`."
      },
      "transferOwnership(address)": {
        "details": "Transfers ownership of the contract to a new account (`newOwner`). Can only be called by the current owner."
      }
    }
  },
  "userdoc": {
    "methods": {}
  }
}