{
  "contractName": "YieldMathMock",
  "abi": [
    {
      "inputs": [
        {
          "internalType": "uint128",
          "name": "chaiReserves",
          "type": "uint128"
        },
        {
          "internalType": "uint128",
          "name": "yDAIReserves",
          "type": "uint128"
        },
        {
          "internalType": "uint128",
          "name": "chaiAmount",
          "type": "uint128"
        },
        {
          "internalType": "uint128",
          "name": "timeTillMaturity",
          "type": "uint128"
        },
        {
          "internalType": "int128",
          "name": "k",
          "type": "int128"
        },
        {
          "internalType": "int128",
          "name": "c",
          "type": "int128"
        },
        {
          "internalType": "int128",
          "name": "g",
          "type": "int128"
        }
      ],
      "name": "yDaiOutForChaiIn",
      "outputs": [
        {
          "internalType": "uint128",
          "name": "",
          "type": "uint128"
        }
      ],
      "stateMutability": "pure",
      "type": "function"
    },
    {
      "inputs": [
        {
          "internalType": "uint128",
          "name": "chaiReserves",
          "type": "uint128"
        },
        {
          "internalType": "uint128",
          "name": "yDAIReserves",
          "type": "uint128"
        },
        {
          "internalType": "uint128",
          "name": "yDAIAmount",
          "type": "uint128"
        },
        {
          "internalType": "uint128",
          "name": "timeTillMaturity",
          "type": "uint128"
        },
        {
          "internalType": "int128",
          "name": "k",
          "type": "int128"
        },
        {
          "internalType": "int128",
          "name": "c",
          "type": "int128"
        },
        {
          "internalType": "int128",
          "name": "g",
          "type": "int128"
        }
      ],
      "name": "chaiOutForYDaiIn",
      "outputs": [
        {
          "internalType": "uint128",
          "name": "",
          "type": "uint128"
        }
      ],
      "stateMutability": "pure",
      "type": "function"
    },
    {
      "inputs": [
        {
          "internalType": "uint128",
          "name": "chaiReserves",
          "type": "uint128"
        },
        {
          "internalType": "uint128",
          "name": "yDAIReserves",
          "type": "uint128"
        },
        {
          "internalType": "uint128",
          "name": "chaiAmount",
          "type": "uint128"
        },
        {
          "internalType": "uint128",
          "name": "timeTillMaturity",
          "type": "uint128"
        },
        {
          "internalType": "int128",
          "name": "k",
          "type": "int128"
        },
        {
          "internalType": "int128",
          "name": "c",
          "type": "int128"
        },
        {
          "internalType": "int128",
          "name": "g",
          "type": "int128"
        }
      ],
      "name": "yDaiInForChaiOut",
      "outputs": [
        {
          "internalType": "uint128",
          "name": "",
          "type": "uint128"
        }
      ],
      "stateMutability": "pure",
      "type": "function"
    },
    {
      "inputs": [
        {
          "internalType": "uint128",
          "name": "chaiReserves",
          "type": "uint128"
        },
        {
          "internalType": "uint128",
          "name": "yDAIReserves",
          "type": "uint128"
        },
        {
          "internalType": "uint128",
          "name": "yDAIAmount",
          "type": "uint128"
        },
        {
          "internalType": "uint128",
          "name": "timeTillMaturity",
          "type": "uint128"
        },
        {
          "internalType": "int128",
          "name": "k",
          "type": "int128"
        },
        {
          "internalType": "int128",
          "name": "c",
          "type": "int128"
        },
        {
          "internalType": "int128",
          "name": "g",
          "type": "int128"
        }
      ],
      "name": "chaiInForYDaiOut",
      "outputs": [
        {
          "internalType": "uint128",
          "name": "",
          "type": "uint128"
        }
      ],
      "stateMutability": "pure",
      "type": "function"
    },
    {
      "inputs": [
        {
          "internalType": "uint128",
          "name": "chaiReserves",
          "type": "uint128"
        },
        {
          "internalType": "uint128",
          "name": "yDAIReserves",
          "type": "uint128"
        },
        {
          "internalType": "uint128",
          "name": "chaiAmount",
          "type": "uint128"
        },
        {
          "internalType": "uint128",
          "name": "timeTillMaturity",
          "type": "uint128"
        },
        {
          "internalType": "int128",
          "name": "k",
          "type": "int128"
        },
        {
          "internalType": "int128",
          "name": "c",
          "type": "int128"
        },
        {
          "internalType": "int128",
          "name": "g",
          "type": "int128"
        }
      ],
      "name": "yDaiOutForChaiIn64",
      "outputs": [
        {
          "internalType": "uint128",
          "name": "",
          "type": "uint128"
        }
      ],
      "stateMutability": "pure",
      "type": "function"
    },
    {
      "inputs": [
        {
          "internalType": "uint128",
          "name": "chaiReserves",
          "type": "uint128"
        },
        {
          "internalType": "uint128",
          "name": "yDAIReserves",
          "type": "uint128"
        },
        {
          "internalType": "uint128",
          "name": "yDAIAmount",
          "type": "uint128"
        },
        {
          "internalType": "uint128",
          "name": "timeTillMaturity",
          "type": "uint128"
        },
        {
          "internalType": "int128",
          "name": "k",
          "type": "int128"
        },
        {
          "internalType": "int128",
          "name": "c",
          "type": "int128"
        },
        {
          "internalType": "int128",
          "name": "g",
          "type": "int128"
        }
      ],
      "name": "chaiOutForYDaiIn64",
      "outputs": [
        {
          "internalType": "uint128",
          "name": "",
          "type": "uint128"
        }
      ],
      "stateMutability": "pure",
      "type": "function"
    },
    {
      "inputs": [
        {
          "internalType": "uint128",
          "name": "chaiReserves",
          "type": "uint128"
        },
        {
          "internalType": "uint128",
          "name": "yDAIReserves",
          "type": "uint128"
        },
        {
          "internalType": "uint128",
          "name": "chaiAmount",
          "type": "uint128"
        },
        {
          "internalType": "uint128",
          "name": "timeTillMaturity",
          "type": "uint128"
        },
        {
          "internalType": "int128",
          "name": "k",
          "type": "int128"
        },
        {
          "internalType": "int128",
          "name": "c",
          "type": "int128"
        },
        {
          "internalType": "int128",
          "name": "g",
          "type": "int128"
        }
      ],
      "name": "yDaiInForChaiOut64",
      "outputs": [
        {
          "internalType": "uint128",
          "name": "",
          "type": "uint128"
        }
      ],
      "stateMutability": "pure",
      "type": "function"
    },
    {
      "inputs": [
        {
          "internalType": "uint128",
          "name": "chaiReserves",
          "type": "uint128"
        },
        {
          "internalType": "uint128",
          "name": "yDAIReserves",
          "type": "uint128"
        },
        {
          "internalType": "uint128",
          "name": "yDAIAmount",
          "type": "uint128"
        },
        {
          "internalType": "uint128",
          "name": "timeTillMaturity",
          "type": "uint128"
        },
        {
          "internalType": "int128",
          "name": "k",
          "type": "int128"
        },
        {
          "internalType": "int128",
          "name": "c",
          "type": "int128"
        },
        {
          "internalType": "int128",
          "name": "g",
          "type": "int128"
        }
      ],
      "name": "chaiInForYDaiOut64",
      "outputs": [
        {
          "internalType": "uint128",
          "name": "",
          "type": "uint128"
        }
      ],
      "stateMutability": "pure",
      "type": "function"
    },
    {
      "inputs": [
        {
          "internalType": "uint128",
          "name": "chaiReserves",
          "type": "uint128"
        },
        {
          "internalType": "uint128",
          "name": "yDAIReserves",
          "type": "uint128"
        },
        {
          "internalType": "uint128",
          "name": "chaiAmount",
          "type": "uint128"
        },
        {
          "internalType": "uint128",
          "name": "timeTillMaturity",
          "type": "uint128"
        },
        {
          "internalType": "int128",
          "name": "k",
          "type": "int128"
        },
        {
          "internalType": "int128",
          "name": "c",
          "type": "int128"
        },
        {
          "internalType": "int128",
          "name": "g",
          "type": "int128"
        }
      ],
      "name": "yDaiOutForChaiIn48",
      "outputs": [
        {
          "internalType": "uint128",
          "name": "",
          "type": "uint128"
        }
      ],
      "stateMutability": "pure",
      "type": "function"
    },
    {
      "inputs": [
        {
          "internalType": "uint128",
          "name": "chaiReserves",
          "type": "uint128"
        },
        {
          "internalType": "uint128",
          "name": "yDAIReserves",
          "type": "uint128"
        },
        {
          "internalType": "uint128",
          "name": "yDAIAmount",
          "type": "uint128"
        },
        {
          "internalType": "uint128",
          "name": "timeTillMaturity",
          "type": "uint128"
        },
        {
          "internalType": "int128",
          "name": "k",
          "type": "int128"
        },
        {
          "internalType": "int128",
          "name": "c",
          "type": "int128"
        },
        {
          "internalType": "int128",
          "name": "g",
          "type": "int128"
        }
      ],
      "name": "chaiOutForYDaiIn48",
      "outputs": [
        {
          "internalType": "uint128",
          "name": "",
          "type": "uint128"
        }
      ],
      "stateMutability": "pure",
      "type": "function"
    },
    {
      "inputs": [
        {
          "internalType": "uint128",
          "name": "chaiReserves",
          "type": "uint128"
        },
        {
          "internalType": "uint128",
          "name": "yDAIReserves",
          "type": "uint128"
        },
        {
          "internalType": "uint128",
          "name": "chaiAmount",
          "type": "uint128"
        },
        {
          "internalType": "uint128",
          "name": "timeTillMaturity",
          "type": "uint128"
        },
        {
          "internalType": "int128",
          "name": "k",
          "type": "int128"
        },
        {
          "internalType": "int128",
          "name": "c",
          "type": "int128"
        },
        {
          "internalType": "int128",
          "name": "g",
          "type": "int128"
        }
      ],
      "name": "yDaiInForChaiOut48",
      "outputs": [
        {
          "internalType": "uint128",
          "name": "",
          "type": "uint128"
        }
      ],
      "stateMutability": "pure",
      "type": "function"
    },
    {
      "inputs": [
        {
          "internalType": "uint128",
          "name": "chaiReserves",
          "type": "uint128"
        },
        {
          "internalType": "uint128",
          "name": "yDAIReserves",
          "type": "uint128"
        },
        {
          "internalType": "uint128",
          "name": "yDAIAmount",
          "type": "uint128"
        },
        {
          "internalType": "uint128",
          "name": "timeTillMaturity",
          "type": "uint128"
        },
        {
          "internalType": "int128",
          "name": "k",
          "type": "int128"
        },
        {
          "internalType": "int128",
          "name": "c",
          "type": "int128"
        },
        {
          "internalType": "int128",
          "name": "g",
          "type": "int128"
        }
      ],
      "name": "chaiInForYDaiOut48",
      "outputs": [
        {
          "internalType": "uint128",
          "name": "",
          "type": "uint128"
        }
      ],
      "stateMutability": "pure",
      "type": "function"
    }
  ],
  "bytecode": "0x608060405234801561001057600080fd5b506151ea806100206000396000f3fe608060405234801561001057600080fd5b50600436106100b45760003560e01c8063762d1f2211610071578063762d1f221461030357806392a56a89146103605780639d790b00146103bd578063af8e90cd1461041a578063bea495dd14610477578063c5405f24146104d4576100b4565b80630914e44d146100b957806349b8f34c146101325780634c08f1631461018f5780634cdf6bee146101ec5780636125b97d14610249578063757e0fdf146102a6575b600080fd5b610116600480360360e08110156100cf57600080fd5b506001600160801b038135811691602081013582169160408201358116916060810135909116906080810135600f90810b9160a0810135820b9160c090910135900b610531565b604080516001600160801b039092168252519081900360200190f35b610116600480360360e081101561014857600080fd5b506001600160801b038135811691602081013582169160408201358116916060810135909116906080810135600f90810b9160a0810135820b9160c090910135900b61054e565b610116600480360360e08110156101a557600080fd5b506001600160801b038135811691602081013582169160408201358116916060810135909116906080810135600f90810b9160a0810135820b9160c090910135900b61055f565b610116600480360360e081101561020257600080fd5b506001600160801b038135811691602081013582169160408201358116916060810135909116906080810135600f90810b9160a0810135820b9160c090910135900b610570565b610116600480360360e081101561025f57600080fd5b506001600160801b038135811691602081013582169160408201358116916060810135909116906080810135600f90810b9160a0810135820b9160c090910135900b610581565b610116600480360360e08110156102bc57600080fd5b506001600160801b038135811691602081013582169160408201358116916060810135909116906080810135600f90810b9160a0810135820b9160c090910135900b610592565b610116600480360360e081101561031957600080fd5b506001600160801b038135811691602081013582169160408201358116916060810135909116906080810135600f90810b9160a0810135820b9160c090910135900b6105a3565b610116600480360360e081101561037657600080fd5b506001600160801b038135811691602081013582169160408201358116916060810135909116906080810135600f90810b9160a0810135820b9160c090910135900b6105b4565b610116600480360360e08110156103d357600080fd5b506001600160801b038135811691602081013582169160408201358116916060810135909116906080810135600f90810b9160a0810135820b9160c090910135900b6105c5565b610116600480360360e081101561043057600080fd5b506001600160801b038135811691602081013582169160408201358116916060810135909116906080810135600f90810b9160a0810135820b9160c090910135900b6105d6565b610116600480360360e081101561048d57600080fd5b506001600160801b038135811691602081013582169160408201358116916060810135909116906080810135600f90810b9160a0810135820b9160c090910135900b6105e7565b610116600480360360e08110156104ea57600080fd5b506001600160801b038135811691602081013582169160408201358116916060810135909116906080810135600f90810b9160a0810135820b9160c090910135900b6105f8565b600061054288888888888888610609565b98975050505050505050565b60006105428888888888888861074e565b60006105428888888888888861088a565b6000610542888888888888886109c4565b600061054288888888888888610ac3565b600061054288888888888888610be3565b600061054288888888888888610cfb565b600061054288888888888888610e22565b600061054288888888888888610f21565b600061054288888888888888611041565b600061054288888888888888611159565b600061054288888888888888611251565b60008061062785610622886001600160801b0316611349565b611367565b90506000610642600160401b61063d8685611367565b6113a7565b9050600081600f0b1361065457600080fd5b6000610669868c6001600160801b03166113da565b9050600160801b811061067b57600080fd5b600061069b878b6001600160801b03168e6001600160801b0316016113da565b9050600160801b81106106ad57600080fd5b60006106d0886106c28487600160401b611442565b6001600160801b03166113da565b6106df8d86600160401b611442565b6001600160801b03166106fb8a6106c28789600160401b611442565b01039050600160801b811061070f57600080fd5b600061072082600160401b87611442565b8d036001600160801b03169050600160801b811061073d57600080fd5b9d9c50505050505050505050505050565b6000876001600160801b0316866001600160801b0316111561076f57600080fd5b600061078785610622886001600160801b0316611349565b9050600061079d600160401b61063d8685611367565b9050600081600f0b136107af57600080fd5b60006107c4868c6001600160801b03166113da565b9050600160801b81106107d657600080fd5b60006107f6878b6001600160801b03168e6001600160801b0316036113da565b9050600160801b811061080857600080fd5b600061081d886106c28487600160401b6114f2565b61082c8d86600160401b6114f2565b6001600160801b03166108488a6106c28789600160401b6114f2565b01039050600160801b811061085c57600080fd5b60008c61086e83600160401b886114f2565b036001600160801b03169050600160801b811061073d57600080fd5b6000866001600160801b0316866001600160801b031611156108ab57600080fd5b60006108cf600160401b61063d85610622896106228c6001600160801b0316611349565b9050600081600f0b136108e157600080fd5b60006108ec8561158f565b90506000610903868c6001600160801b03166113da565b9050600160801b811061091557600080fd5b6001600160801b03808a16908b1603600160801b811061093457600080fd5b6000610967846109498488600160401b6114f2565b6109588f89600160401b6114f2565b036001600160801b03166113da565b6109768487600160401b6114f2565b6001600160801b0316019050600160801b811061099257600080fd5b60008d6001600160801b03166109b1866106c285600160401b8b6114f2565b039050600160801b811061073d57600080fd5b6000806109dd85610622886001600160801b0316611349565b905060006109f3600160401b61063d8685611367565b9050600081600f0b13610a0557600080fd5b6000610a1a868c6001600160801b03166113da565b9050600160801b8110610a2c57600080fd5b6000610a4c878b6001600160801b03168e6001600160801b0316016113da565b9050600160801b8110610a5e57600080fd5b6000610a73886106c28487600160401b6114f2565b610a828d86600160401b6114f2565b6001600160801b0316610a9e8a6106c28789600160401b6114f2565b01039050600160801b8110610ab257600080fd5b600061072082600160401b876114f2565b6000876001600160801b0316866001600160801b03161115610ae457600080fd5b6000610afc85610622886001600160801b0316611349565b90506000610b12600160401b61063d8685611367565b9050600081600f0b13610b2457600080fd5b6000610b39868c6001600160801b03166113da565b9050600160801b8110610b4b57600080fd5b6000610b6b878b6001600160801b03168e6001600160801b0316036113da565b9050600160801b8110610b7d57600080fd5b6000610b92886106c28487600160401b611442565b610ba18d86600160401b611442565b6001600160801b0316610bbd8a6106c28789600160401b611442565b01039050600160801b8110610bd157600080fd5b60008c61086e83600160401b88611442565b6000866001600160801b0316866001600160801b03161115610c0457600080fd5b6000610c28600160401b61063d85610622896106228c6001600160801b0316611349565b9050600081600f0b13610c3a57600080fd5b6000610c458561158f565b90506000610c5c868c6001600160801b03166113da565b9050600160801b8110610c6e57600080fd5b6001600160801b03808a16908b1603600160801b8110610c8d57600080fd5b6000610cb184610ca28488600160401b6115df565b6109588f89600160401b6115df565b610cc08487600160401b6115df565b6001600160801b0316019050600160801b8110610cdc57600080fd5b60008d6001600160801b03166109b1866106c285600160401b8b6115df565b600080610d1485610622886001600160801b0316611349565b90506000610d2a600160401b61063d8685611367565b9050600081600f0b13610d3c57600080fd5b6000610d478661158f565b90506000610d5e878d6001600160801b03166113da565b9050600160801b8110610d7057600080fd5b6001600160801b038b8116908b1601600160801b8110610d8f57600080fd5b6000610db384610da48f88600160401b6115df565b6109588589600160401b6115df565b610dc28487600160401b6115df565b6001600160801b0316039050600160801b8110610dde57600080fd5b6000610df3856106c284600160401b8a6115df565b8f6001600160801b0316039050600160801b8110610e1057600080fd5b9e9d5050505050505050505050505050565b600080610e3b85610622886001600160801b0316611349565b90506000610e51600160401b61063d8685611367565b9050600081600f0b13610e6357600080fd5b6000610e78868c6001600160801b03166113da565b9050600160801b8110610e8a57600080fd5b6000610eaa878b6001600160801b03168e6001600160801b0316016113da565b9050600160801b8110610ebc57600080fd5b6000610ed1886106c28487600160401b6115df565b610ee08d86600160401b6115df565b6001600160801b0316610efc8a6106c28789600160401b6115df565b01039050600160801b8110610f1057600080fd5b600061072082600160401b876115df565b6000876001600160801b0316866001600160801b03161115610f4257600080fd5b6000610f5a85610622886001600160801b0316611349565b90506000610f70600160401b61063d8685611367565b9050600081600f0b13610f8257600080fd5b6000610f97868c6001600160801b03166113da565b9050600160801b8110610fa957600080fd5b6000610fc9878b6001600160801b03168e6001600160801b0316036113da565b9050600160801b8110610fdb57600080fd5b6000610ff0886106c28487600160401b6115df565b610fff8d86600160401b6115df565b6001600160801b031661101b8a6106c28789600160401b6115df565b01039050600160801b811061102f57600080fd5b60008c61086e83600160401b886115df565b6000866001600160801b0316866001600160801b0316111561106257600080fd5b6000611086600160401b61063d85610622896106228c6001600160801b0316611349565b9050600081600f0b1361109857600080fd5b60006110a38561158f565b905060006110ba868c6001600160801b03166113da565b9050600160801b81106110cc57600080fd5b6001600160801b03808a16908b1603600160801b81106110eb57600080fd5b600061110f846111008488600160401b611442565b6109588f89600160401b611442565b61111e8487600160401b611442565b6001600160801b0316019050600160801b811061113a57600080fd5b60008d6001600160801b03166109b1866106c285600160401b8b611442565b60008061117285610622886001600160801b0316611349565b90506000611188600160401b61063d8685611367565b9050600081600f0b1361119a57600080fd5b60006111a58661158f565b905060006111bc878d6001600160801b03166113da565b9050600160801b81106111ce57600080fd5b6001600160801b038b8116908b1601600160801b81106111ed57600080fd5b6000611211846112028f88600160401b6114f2565b6109588589600160401b6114f2565b6112208487600160401b6114f2565b6001600160801b0316039050600160801b811061123c57600080fd5b6000610df3856106c284600160401b8a6114f2565b60008061126a85610622886001600160801b0316611349565b90506000611280600160401b61063d8685611367565b9050600081600f0b1361129257600080fd5b600061129d8661158f565b905060006112b4878d6001600160801b03166113da565b9050600160801b81106112c657600080fd5b6001600160801b038b8116908b1601600160801b81106112e557600080fd5b6000611309846112fa8f88600160401b611442565b6109588589600160401b611442565b6113188487600160401b611442565b6001600160801b0316039050600160801b811061133457600080fd5b6000610df3856106c284600160401b8a611442565b6000677fffffffffffffff82111561136057600080fd5b5060401b90565b6000600f83810b9083900b0260401d60016001607f1b03198112801590611395575060016001607f1b038113155b61139e57600080fd5b90505b92915050565b6000600f82810b9084900b0360016001607f1b03198112801590611395575060016001607f1b0381131561139e57600080fd5b6000816113e9575060006113a1565b600083600f0b12156113fa57600080fd5b600f83900b6001600160801b038316810260401c90608084901c026001600160c01b0381111561142957600080fd5b60401b811981111561143a57600080fd5b019392505050565b60006001600160801b03821661145757600080fd5b6001600160801b038416611480576001600160801b03831661147857600080fd5b5060006114eb565b6000826001600160801b0316846001600160801b031661149f8761167c565b6001600160801b03036001600160801b031602816114b957fe5b0490506001600160801b038111156114d55760009150506114eb565b6114e7816001600160801b0303611e71565b9150505b9392505050565b60006001600160801b03821661150757600080fd5b6001600160801b038416611528576001600160801b03831661147857600080fd5b6000826001600160801b0316846001600160801b031661154787612604565b6001600160801b03036001600160801b0316028161156157fe5b0490506001600160801b0381111561157d5760009150506114eb565b6114e7816001600160801b0303612bf9565b600081600f0b600014156115a257600080fd5b600082600f0b600160801b816115b457fe5b05905060016001607f1b031981128015906115d6575060016001607f1b038113155b6113a157600080fd5b60006001600160801b0382166115f457600080fd5b6001600160801b038416611615576001600160801b03831661147857600080fd5b6000826001600160801b0316846001600160801b03166116348761316b565b6001600160801b03036001600160801b0316028161164e57fe5b0490506001600160801b0381111561166a5760009150506114eb565b6114e7816001600160801b0303614180565b60006001600160801b03821661169157600080fd5b6001600160801b038216607f60791b600160401b8210156116be5760409190911b9060016001607f1b0319015b600160601b8210156116dc5760209190911b9060016001607e1b0319015b600160701b8210156116fa5760109190911b9060016001607d1b0319015b600160781b8210156117185760089190911b9060016001607c1b0319015b6001607c1b8210156117365760049190911b9060016001607b1b0319015b6001607e1b8210156117545760029190911b9060016001607a1b0319015b6001607f1b8210156117725760019190911b906001600160791b0319015b908002607f1c90600160801b82106117925760019190911c90600160781b175b908002607f1c90600160801b82106117b25760019190911c90600160771b175b908002607f1c90600160801b82106117d25760019190911c90600160761b175b908002607f1c90600160801b82106117f25760019190911c90600160751b175b908002607f1c90600160801b82106118125760019190911c90600160741b175b908002607f1c90600160801b82106118325760019190911c90600160731b175b908002607f1c90600160801b82106118525760019190911c90600160721b175b908002607f1c90600160801b82106118725760019190911c90600160711b175b908002607f1c90600160801b82106118925760019190911c90600160701b175b908002607f1c90600160801b82106118b25760019190911c906001606f1b175b908002607f1c90600160801b82106118d25760019190911c906001606e1b175b908002607f1c90600160801b82106118f25760019190911c906001606d1b175b908002607f1c90600160801b82106119125760019190911c906001606c1b175b908002607f1c90600160801b82106119325760019190911c906001606b1b175b908002607f1c90600160801b82106119525760019190911c906001606a1b175b908002607f1c90600160801b82106119725760019190911c90600160691b175b908002607f1c90600160801b82106119925760019190911c90600160681b175b908002607f1c90600160801b82106119b25760019190911c90600160671b175b908002607f1c90600160801b82106119d25760019190911c90600160661b175b908002607f1c90600160801b82106119f25760019190911c90600160651b175b908002607f1c90600160801b8210611a125760019190911c90600160641b175b908002607f1c90600160801b8210611a325760019190911c90600160631b175b908002607f1c90600160801b8210611a525760019190911c90600160621b175b908002607f1c90600160801b8210611a725760019190911c90600160611b175b908002607f1c90600160801b8210611a925760019190911c90600160601b175b908002607f1c90600160801b8210611ab25760019190911c906001605f1b175b908002607f1c90600160801b8210611ad25760019190911c906001605e1b175b908002607f1c90600160801b8210611af25760019190911c906001605d1b175b908002607f1c90600160801b8210611b125760019190911c906001605c1b175b908002607f1c90600160801b8210611b325760019190911c906001605b1b175b908002607f1c90600160801b8210611b525760019190911c906001605a1b175b908002607f1c90600160801b8210611b725760019190911c90600160591b175b908002607f1c90600160801b8210611b925760019190911c90600160581b175b908002607f1c90600160801b8210611bb25760019190911c90600160571b175b908002607f1c90600160801b8210611bd25760019190911c90600160561b175b908002607f1c90600160801b8210611bf25760019190911c90600160551b175b908002607f1c90600160801b8210611c125760019190911c90600160541b175b908002607f1c90600160801b8210611c325760019190911c90600160531b175b908002607f1c90600160801b8210611c525760019190911c90600160521b175b908002607f1c90600160801b8210611c725760019190911c90600160511b175b908002607f1c90600160801b8210611c925760019190911c90600160501b175b908002607f1c90600160801b8210611cb25760019190911c906001604f1b175b908002607f1c90600160801b8210611cd25760019190911c906001604e1b175b908002607f1c90600160801b8210611cf25760019190911c906001604d1b175b908002607f1c90600160801b8210611d125760019190911c906001604c1b175b908002607f1c90600160801b8210611d325760019190911c906001604b1b175b908002607f1c90600160801b8210611d525760019190911c906001604a1b175b908002607f1c90600160801b8210611d725760019190911c90600160491b175b908002607f1c90600160801b8210611d925760019190911c90600160481b175b908002607f1c90600160801b8210611db25760019190911c90600160471b175b908002607f1c90600160801b8210611dd25760019190911c90600160461b175b908002607f1c90600160801b8210611df25760019190911c90600160451b175b908002607f1c90600160801b8210611e125760019190911c90600160441b175b908002607f1c90600160801b8210611e325760019190911c90600160431b175b908002607f1c90600160801b8210611e525760019190911c90600160421b175b908002607f1c90600160801b82106114eb57600160411b179392505050565b60006001607f1b600160781b831615611e9a576fb504f333f9de6484597d89b3754abe9f02607f1c5b600160771b831615611ebc576f9837f0518db8a96f46ad23182e42f6f602607f1c5b600160761b831615611ede576f8b95c1e3ea8bd6e6fbe4628758a53c9002607f1c5b600160751b831615611f00576f85aac367cc487b14c5c95b8c2154c1b202607f1c5b600160741b831615611f22576f82cd8698ac2ba1d73e2a475b46520bff02607f1c5b600160731b831615611f44576f8164d1f3bc0307737be56527bd14def402607f1c5b600160721b831615611f66576f80b1ed4fd999ab6c25335719b6e6fd2002607f1c5b600160711b831615611f88576f8058d7d2d5e5f6b094d589f608ee4aa202607f1c5b600160701b831615611faa576f802c6436d0e04f50ff8ce94a6797b3ce02607f1c5b6001606f1b831615611fcc576f8016302f174676283690dfe44d11d00802607f1c5b6001606e1b831615611fee576f800b179c82028fd0945e54e2ae18f2f002607f1c5b6001606d1b831615612010576f80058baf7fee3b5d1c718b38e549cb9302607f1c5b6001606c1b831615612032576f8002c5d00fdcfcb6b6566a58c048be1f02607f1c5b6001606b1b831615612054576f800162e61bed4a48e84c2e1a463473d902607f1c5b6001606a1b831615612076576f8000b17292f702a3aa22beacca94901302607f1c5b600160691b831615612098576f800058b92abbae02030c5fa5256f41fe02607f1c5b600160681b8316156120ba576f80002c5c8dade4d71776c0f4dbea67d602607f1c5b600160671b8316156120dc576f8000162e44eaf636526be456600bdbe402607f1c5b600160661b8316156120fe576f80000b1721fa7c188307016c1cd4e8b602607f1c5b600160651b831615612120576f8000058b90de7e4cecfc487503488bb102607f1c5b600160641b831615612142576f800002c5c8678f36cbfce50a6de60b1402607f1c5b600160631b831615612164576f80000162e431db9f80b2347b5d62e51602607f1c5b600160621b831615612186576f800000b1721872d0c7b08cf1e011415202607f1c5b600160611b8316156121a8576f80000058b90c1aa8a5c3736cb77e8dff02607f1c5b600160601b8316156121ca576f8000002c5c8605a4635f2efc2362d97802607f1c5b6001605f1b8316156121ec576f800000162e4300e635cf4a109e3939bd02607f1c5b6001605e1b83161561220e576f8000000b17217ff81bef9c551590cf8302607f1c5b6001605d1b831615612230576f800000058b90bfdd4e39cd52c0cfa27c02607f1c5b6001605c1b831615612252576f80000002c5c85fe6f72d669e0e76e41102607f1c5b6001605b1b831615612274576f8000000162e42ff18f9ad35186d0df2802607f1c5b6001605a1b831615612296576f80000000b17217f84cce71aa0dcfffe702607f1c5b600160591b8316156122b8576f8000000058b90bfc07a77ad56ed22aaa02607f1c5b600160581b8316156122da576f800000002c5c85fdfc23cdead40da8d602607f1c5b600160571b8316156122fc576f80000000162e42fefc25eb1571853a6602607f1c5b600160561b83161561231e576f800000000b17217f7d97f692baacded502607f1c5b600160551b831615612340576f80000000058b90bfbead3b8b5dd254d702607f1c5b600160541b831615612362576f8000000002c5c85fdf4eedd62f084e6702607f1c5b600160531b831615612384576f800000000162e42fefa58aef378bf58602607f1c5b600160521b8316156123a6576f8000000000b17217f7d24a78a3c7ef0202607f1c5b600160511b8316156123c8576f800000000058b90bfbe9067c93e474a602607f1c5b600160501b8316156123ea576f80000000002c5c85fdf47b8e5a72599f02607f1c5b6001604f1b83161561240c576f8000000000162e42fefa3bdb315934a202607f1c5b6001604e1b83161561242e576f80000000000b17217f7d1d7299b49c4602607f1c5b6001604d1b831615612450576f8000000000058b90bfbe8e9a8d1c4ea002607f1c5b6001604c1b831615612472576f800000000002c5c85fdf4745969ea76f02607f1c5b6001604b1b831615612494576f80000000000162e42fefa3a0df5373bf02607f1c5b6001604a1b8316156124b6576f800000000000b17217f7d1cff4aac1e102607f1c5b600160491b8316156124d8576f80000000000058b90bfbe8e7db95a2f102607f1c5b600160481b8316156124fa576f8000000000002c5c85fdf473e61ae1f802607f1c5b600160471b83161561251c576f800000000000162e42fefa39f121751c02607f1c5b600160461b83161561253e576f8000000000000b17217f7d1cf815bb9602607f1c5b600160451b831615612560576f800000000000058b90bfbe8e7bec1e0d02607f1c5b600160441b831615612582576f80000000000002c5c85fdf473dee5f1702607f1c5b600160431b8316156125a4576f8000000000000162e42fefa39ef5438f02607f1c5b600160421b8316156125c6576f80000000000000b17217f7d1cf7a26c802607f1c5b600160411b8316156125e8576f8000000000000058b90bfbe8e7bcf4a402607f1c5b607f607984901c811690036001600160801b03161c9050919050565b60006001600160801b03821661261957600080fd5b6001600160801b038216607f60791b600160401b8210156126465760409190911b9060016001607f1b0319015b600160601b8210156126645760209190911b9060016001607e1b0319015b600160701b8210156126825760109190911b9060016001607d1b0319015b600160781b8210156126a05760089190911b9060016001607c1b0319015b6001607c1b8210156126be5760049190911b9060016001607b1b0319015b6001607e1b8210156126dc5760029190911b9060016001607a1b0319015b6001607f1b8210156126fa5760019190911b906001600160791b0319015b908002607f1c90600160801b821061271a5760019190911c90600160781b175b908002607f1c90600160801b821061273a5760019190911c90600160771b175b908002607f1c90600160801b821061275a5760019190911c90600160761b175b908002607f1c90600160801b821061277a5760019190911c90600160751b175b908002607f1c90600160801b821061279a5760019190911c90600160741b175b908002607f1c90600160801b82106127ba5760019190911c90600160731b175b908002607f1c90600160801b82106127da5760019190911c90600160721b175b908002607f1c90600160801b82106127fa5760019190911c90600160711b175b908002607f1c90600160801b821061281a5760019190911c90600160701b175b908002607f1c90600160801b821061283a5760019190911c906001606f1b175b908002607f1c90600160801b821061285a5760019190911c906001606e1b175b908002607f1c90600160801b821061287a5760019190911c906001606d1b175b908002607f1c90600160801b821061289a5760019190911c906001606c1b175b908002607f1c90600160801b82106128ba5760019190911c906001606b1b175b908002607f1c90600160801b82106128da5760019190911c906001606a1b175b908002607f1c90600160801b82106128fa5760019190911c90600160691b175b908002607f1c90600160801b821061291a5760019190911c90600160681b175b908002607f1c90600160801b821061293a5760019190911c90600160671b175b908002607f1c90600160801b821061295a5760019190911c90600160661b175b908002607f1c90600160801b821061297a5760019190911c90600160651b175b908002607f1c90600160801b821061299a5760019190911c90600160641b175b908002607f1c90600160801b82106129ba5760019190911c90600160631b175b908002607f1c90600160801b82106129da5760019190911c90600160621b175b908002607f1c90600160801b82106129fa5760019190911c90600160611b175b908002607f1c90600160801b8210612a1a5760019190911c90600160601b175b908002607f1c90600160801b8210612a3a5760019190911c906001605f1b175b908002607f1c90600160801b8210612a5a5760019190911c906001605e1b175b908002607f1c90600160801b8210612a7a5760019190911c906001605d1b175b908002607f1c90600160801b8210612a9a5760019190911c906001605c1b175b908002607f1c90600160801b8210612aba5760019190911c906001605b1b175b908002607f1c90600160801b8210612ada5760019190911c906001605a1b175b908002607f1c90600160801b8210612afa5760019190911c90600160591b175b908002607f1c90600160801b8210612b1a5760019190911c90600160581b175b908002607f1c90600160801b8210612b3a5760019190911c90600160571b175b908002607f1c90600160801b8210612b5a5760019190911c90600160561b175b908002607f1c90600160801b8210612b7a5760019190911c90600160551b175b908002607f1c90600160801b8210612b9a5760019190911c90600160541b175b908002607f1c90600160801b8210612bba5760019190911c90600160531b175b908002607f1c90600160801b8210612bda5760019190911c90600160521b175b908002607f1c90600160801b82106114eb57600160511b179392505050565b60006001607f1b600160781b831615612c22576fb504f333f9de6484597d89b3754abe9f02607f1c5b600160771b831615612c44576f9837f0518db8a96f46ad23182e42f6f602607f1c5b600160761b831615612c66576f8b95c1e3ea8bd6e6fbe4628758a53c9002607f1c5b600160751b831615612c88576f85aac367cc487b14c5c95b8c2154c1b202607f1c5b600160741b831615612caa576f82cd8698ac2ba1d73e2a475b46520bff02607f1c5b600160731b831615612ccc576f8164d1f3bc0307737be56527bd14def402607f1c5b600160721b831615612cee576f80b1ed4fd999ab6c25335719b6e6fd2002607f1c5b600160711b831615612d10576f8058d7d2d5e5f6b094d589f608ee4aa202607f1c5b600160701b831615612d32576f802c6436d0e04f50ff8ce94a6797b3ce02607f1c5b6001606f1b831615612d54576f8016302f174676283690dfe44d11d00802607f1c5b6001606e1b831615612d76576f800b179c82028fd0945e54e2ae18f2f002607f1c5b6001606d1b831615612d98576f80058baf7fee3b5d1c718b38e549cb9302607f1c5b6001606c1b831615612dba576f8002c5d00fdcfcb6b6566a58c048be1f02607f1c5b6001606b1b831615612ddc576f800162e61bed4a48e84c2e1a463473d902607f1c5b6001606a1b831615612dfe576f8000b17292f702a3aa22beacca94901302607f1c5b600160691b831615612e20576f800058b92abbae02030c5fa5256f41fe02607f1c5b600160681b831615612e42576f80002c5c8dade4d71776c0f4dbea67d602607f1c5b600160671b831615612e64576f8000162e44eaf636526be456600bdbe402607f1c5b600160661b831615612e86576f80000b1721fa7c188307016c1cd4e8b602607f1c5b600160651b831615612ea8576f8000058b90de7e4cecfc487503488bb102607f1c5b600160641b831615612eca576f800002c5c8678f36cbfce50a6de60b1402607f1c5b600160631b831615612eec576f80000162e431db9f80b2347b5d62e51602607f1c5b600160621b831615612f0e576f800000b1721872d0c7b08cf1e011415202607f1c5b600160611b831615612f30576f80000058b90c1aa8a5c3736cb77e8dff02607f1c5b600160601b831615612f52576f8000002c5c8605a4635f2efc2362d97802607f1c5b6001605f1b831615612f74576f800000162e4300e635cf4a109e3939bd02607f1c5b6001605e1b831615612f96576f8000000b17217ff81bef9c551590cf8302607f1c5b6001605d1b831615612fb8576f800000058b90bfdd4e39cd52c0cfa27c02607f1c5b6001605c1b831615612fda576f80000002c5c85fe6f72d669e0e76e41102607f1c5b6001605b1b831615612ffc576f8000000162e42ff18f9ad35186d0df2802607f1c5b6001605a1b83161561301e576f80000000b17217f84cce71aa0dcfffe702607f1c5b600160591b831615613040576f8000000058b90bfc07a77ad56ed22aaa02607f1c5b600160581b831615613062576f800000002c5c85fdfc23cdead40da8d602607f1c5b600160571b831615613084576f80000000162e42fefc25eb1571853a6602607f1c5b600160561b8316156130a6576f800000000b17217f7d97f692baacded502607f1c5b600160551b8316156130c8576f80000000058b90bfbead3b8b5dd254d702607f1c5b600160541b8316156130ea576f8000000002c5c85fdf4eedd62f084e6702607f1c5b600160531b83161561310c576f800000000162e42fefa58aef378bf58602607f1c5b600160521b83161561312e576f8000000000b17217f7d24a78a3c7ef0202607f1c5b600160511b8316156125e8576f800000000058b90bfbe9067c93e474a602607f1c607f607984901c811690036001600160801b03161c9050919050565b60006001600160801b03821661318057600080fd5b6001600160801b038216607f60791b600160401b8210156131ad5760409190911b9060016001607f1b0319015b600160601b8210156131cb5760209190911b9060016001607e1b0319015b600160701b8210156131e95760109190911b9060016001607d1b0319015b600160781b8210156132075760089190911b9060016001607c1b0319015b6001607c1b8210156132255760049190911b9060016001607b1b0319015b6001607e1b8210156132435760029190911b9060016001607a1b0319015b6001607f1b8210156132615760019190911b906001600160791b0319015b908002607f1c90600160801b82106132815760019190911c90600160781b175b908002607f1c90600160801b82106132a15760019190911c90600160771b175b908002607f1c90600160801b82106132c15760019190911c90600160761b175b908002607f1c90600160801b82106132e15760019190911c90600160751b175b908002607f1c90600160801b82106133015760019190911c90600160741b175b908002607f1c90600160801b82106133215760019190911c90600160731b175b908002607f1c90600160801b82106133415760019190911c90600160721b175b908002607f1c90600160801b82106133615760019190911c90600160711b175b908002607f1c90600160801b82106133815760019190911c90600160701b175b908002607f1c90600160801b82106133a15760019190911c906001606f1b175b908002607f1c90600160801b82106133c15760019190911c906001606e1b175b908002607f1c90600160801b82106133e15760019190911c906001606d1b175b908002607f1c90600160801b82106134015760019190911c906001606c1b175b908002607f1c90600160801b82106134215760019190911c906001606b1b175b908002607f1c90600160801b82106134415760019190911c906001606a1b175b908002607f1c90600160801b82106134615760019190911c90600160691b175b908002607f1c90600160801b82106134815760019190911c90600160681b175b908002607f1c90600160801b82106134a15760019190911c90600160671b175b908002607f1c90600160801b82106134c15760019190911c90600160661b175b908002607f1c90600160801b82106134e15760019190911c90600160651b175b908002607f1c90600160801b82106135015760019190911c90600160641b175b908002607f1c90600160801b82106135215760019190911c90600160631b175b908002607f1c90600160801b82106135415760019190911c90600160621b175b908002607f1c90600160801b82106135615760019190911c90600160611b175b908002607f1c90600160801b82106135815760019190911c90600160601b175b908002607f1c90600160801b82106135a15760019190911c906001605f1b175b908002607f1c90600160801b82106135c15760019190911c906001605e1b175b908002607f1c90600160801b82106135e15760019190911c906001605d1b175b908002607f1c90600160801b82106136015760019190911c906001605c1b175b908002607f1c90600160801b82106136215760019190911c906001605b1b175b908002607f1c90600160801b82106136415760019190911c906001605a1b175b908002607f1c90600160801b82106136615760019190911c90600160591b175b908002607f1c90600160801b82106136815760019190911c90600160581b175b908002607f1c90600160801b82106136a15760019190911c90600160571b175b908002607f1c90600160801b82106136c15760019190911c90600160561b175b908002607f1c90600160801b82106136e15760019190911c90600160551b175b908002607f1c90600160801b82106137015760019190911c90600160541b175b908002607f1c90600160801b82106137215760019190911c90600160531b175b908002607f1c90600160801b82106137415760019190911c90600160521b175b908002607f1c90600160801b82106137615760019190911c90600160511b175b908002607f1c90600160801b82106137815760019190911c90600160501b175b908002607f1c90600160801b82106137a15760019190911c906001604f1b175b908002607f1c90600160801b82106137c15760019190911c906001604e1b175b908002607f1c90600160801b82106137e15760019190911c906001604d1b175b908002607f1c90600160801b82106138015760019190911c906001604c1b175b908002607f1c90600160801b82106138215760019190911c906001604b1b175b908002607f1c90600160801b82106138415760019190911c906001604a1b175b908002607f1c90600160801b82106138615760019190911c90600160491b175b908002607f1c90600160801b82106138815760019190911c90600160481b175b908002607f1c90600160801b82106138a15760019190911c90600160471b175b908002607f1c90600160801b82106138c15760019190911c90600160461b175b908002607f1c90600160801b82106138e15760019190911c90600160451b175b908002607f1c90600160801b82106139015760019190911c90600160441b175b908002607f1c90600160801b82106139215760019190911c90600160431b175b908002607f1c90600160801b82106139415760019190911c90600160421b175b908002607f1c90600160801b82106139615760019190911c90600160411b175b908002607f1c90600160801b82106139815760019190911c90600160401b175b908002607f1c90600160801b82106139a15760019190911c906001603f1b175b908002607f1c90600160801b82106139c15760019190911c906001603e1b175b908002607f1c90600160801b82106139e15760019190911c906001603d1b175b908002607f1c90600160801b8210613a015760019190911c906001603c1b175b908002607f1c90600160801b8210613a215760019190911c906001603b1b175b908002607f1c90600160801b8210613a415760019190911c906001603a1b175b908002607f1c90600160801b8210613a615760019190911c90600160391b175b908002607f1c90600160801b8210613a815760019190911c90600160381b175b908002607f1c90600160801b8210613aa45760019190911c906680000000000000175b908002607f1c90600160801b8210613ac75760019190911c906640000000000000175b908002607f1c90600160801b8210613aea5760019190911c906620000000000000175b908002607f1c90600160801b8210613b0d5760019190911c906610000000000000175b908002607f1c90600160801b8210613b305760019190911c906608000000000000175b908002607f1c90600160801b8210613b535760019190911c906604000000000000175b908002607f1c90600160801b8210613b765760019190911c906602000000000000175b908002607f1c90600160801b8210613b995760019190911c906601000000000000175b908002607f1c90600160801b8210613bbb5760019190911c9065800000000000175b908002607f1c90600160801b8210613bdd5760019190911c9065400000000000175b908002607f1c90600160801b8210613bff5760019190911c9065200000000000175b908002607f1c90600160801b8210613c215760019190911c9065100000000000175b908002607f1c90600160801b8210613c435760019190911c9065080000000000175b908002607f1c90600160801b8210613c655760019190911c9065040000000000175b908002607f1c90600160801b8210613c875760019190911c9065020000000000175b908002607f1c90600160801b8210613ca95760019190911c9065010000000000175b908002607f1c90600160801b8210613cca5760019190911c90648000000000175b908002607f1c90600160801b8210613ceb5760019190911c90644000000000175b908002607f1c90600160801b8210613d0c5760019190911c90642000000000175b908002607f1c90600160801b8210613d2d5760019190911c90641000000000175b908002607f1c90600160801b8210613d4e5760019190911c90640800000000175b908002607f1c90600160801b8210613d6f5760019190911c90640400000000175b908002607f1c90600160801b8210613d905760019190911c90640200000000175b908002607f1c90600160801b8210613db15760019190911c90640100000000175b908002607f1c90600160801b8210613dd15760019190911c906380000000175b908002607f1c90600160801b8210613df15760019190911c906340000000175b908002607f1c90600160801b8210613e115760019190911c906320000000175b908002607f1c90600160801b8210613e315760019190911c906310000000175b908002607f1c90600160801b8210613e515760019190911c906308000000175b908002607f1c90600160801b8210613e715760019190911c906304000000175b908002607f1c90600160801b8210613e915760019190911c906302000000175b908002607f1c90600160801b8210613eb15760019190911c906301000000175b908002607f1c90600160801b8210613ed05760019190911c9062800000175b908002607f1c90600160801b8210613eef5760019190911c9062400000175b908002607f1c90600160801b8210613f0e5760019190911c9062200000175b908002607f1c90600160801b8210613f2d5760019190911c9062100000175b908002607f1c90600160801b8210613f4c5760019190911c9062080000175b908002607f1c90600160801b8210613f6b5760019190911c9062040000175b908002607f1c90600160801b8210613f8a5760019190911c9062020000175b908002607f1c90600160801b8210613fa95760019190911c9062010000175b908002607f1c90600160801b8210613fc75760019190911c90618000175b908002607f1c90600160801b8210613fe55760019190911c90614000175b908002607f1c90600160801b82106140035760019190911c90612000175b908002607f1c90600160801b82106140215760019190911c90611000175b908002607f1c90600160801b821061403f5760019190911c90610800175b908002607f1c90600160801b821061405d5760019190911c90610400175b908002607f1c90600160801b821061407b5760019190911c90610200175b908002607f1c90600160801b82106140995760019190911c90610100175b908002607f1c90600160801b82106140b65760019190911c906080175b908002607f1c90600160801b82106140d35760019190911c906040175b908002607f1c90600160801b82106140f05760019190911c906020175b908002607f1c90600160801b821061410d5760019190911c906010175b908002607f1c90600160801b821061412a5760019190911c906008175b908002607f1c90600160801b82106141475760019190911c906004175b908002607f1c90600160801b82106141645760019190911c906002175b908002607f1c90600160801b82106114eb576001179392505050565b60006001607f1b600160781b8316156141a9576fb504f333f9de6484597d89b3754abe9f02607f1c5b600160771b8316156141cb576f9837f0518db8a96f46ad23182e42f6f602607f1c5b600160761b8316156141ed576f8b95c1e3ea8bd6e6fbe4628758a53c9002607f1c5b600160751b83161561420f576f85aac367cc487b14c5c95b8c2154c1b202607f1c5b600160741b831615614231576f82cd8698ac2ba1d73e2a475b46520bff02607f1c5b600160731b831615614253576f8164d1f3bc0307737be56527bd14def402607f1c5b600160721b831615614275576f80b1ed4fd999ab6c25335719b6e6fd2002607f1c5b600160711b831615614297576f8058d7d2d5e5f6b094d589f608ee4aa202607f1c5b600160701b8316156142b9576f802c6436d0e04f50ff8ce94a6797b3ce02607f1c5b6001606f1b8316156142db576f8016302f174676283690dfe44d11d00802607f1c5b6001606e1b8316156142fd576f800b179c82028fd0945e54e2ae18f2f002607f1c5b6001606d1b83161561431f576f80058baf7fee3b5d1c718b38e549cb9302607f1c5b6001606c1b831615614341576f8002c5d00fdcfcb6b6566a58c048be1f02607f1c5b6001606b1b831615614363576f800162e61bed4a48e84c2e1a463473d902607f1c5b6001606a1b831615614385576f8000b17292f702a3aa22beacca94901302607f1c5b600160691b8316156143a7576f800058b92abbae02030c5fa5256f41fe02607f1c5b600160681b8316156143c9576f80002c5c8dade4d71776c0f4dbea67d602607f1c5b600160671b8316156143eb576f8000162e44eaf636526be456600bdbe402607f1c5b600160661b83161561440d576f80000b1721fa7c188307016c1cd4e8b602607f1c5b600160651b83161561442f576f8000058b90de7e4cecfc487503488bb102607f1c5b600160641b831615614451576f800002c5c8678f36cbfce50a6de60b1402607f1c5b600160631b831615614473576f80000162e431db9f80b2347b5d62e51602607f1c5b600160621b831615614495576f800000b1721872d0c7b08cf1e011415202607f1c5b600160611b8316156144b7576f80000058b90c1aa8a5c3736cb77e8dff02607f1c5b600160601b8316156144d9576f8000002c5c8605a4635f2efc2362d97802607f1c5b6001605f1b8316156144fb576f800000162e4300e635cf4a109e3939bd02607f1c5b6001605e1b83161561451d576f8000000b17217ff81bef9c551590cf8302607f1c5b6001605d1b83161561453f576f800000058b90bfdd4e39cd52c0cfa27c02607f1c5b6001605c1b831615614561576f80000002c5c85fe6f72d669e0e76e41102607f1c5b6001605b1b831615614583576f8000000162e42ff18f9ad35186d0df2802607f1c5b6001605a1b8316156145a5576f80000000b17217f84cce71aa0dcfffe702607f1c5b600160591b8316156145c7576f8000000058b90bfc07a77ad56ed22aaa02607f1c5b600160581b8316156145e9576f800000002c5c85fdfc23cdead40da8d602607f1c5b600160571b83161561460b576f80000000162e42fefc25eb1571853a6602607f1c5b600160561b83161561462d576f800000000b17217f7d97f692baacded502607f1c5b600160551b83161561464f576f80000000058b90bfbead3b8b5dd254d702607f1c5b600160541b831615614671576f8000000002c5c85fdf4eedd62f084e6702607f1c5b600160531b831615614693576f800000000162e42fefa58aef378bf58602607f1c5b600160521b8316156146b5576f8000000000b17217f7d24a78a3c7ef0202607f1c5b600160511b8316156146d7576f800000000058b90bfbe9067c93e474a602607f1c5b600160501b8316156146f9576f80000000002c5c85fdf47b8e5a72599f02607f1c5b6001604f1b83161561471b576f8000000000162e42fefa3bdb315934a202607f1c5b6001604e1b83161561473d576f80000000000b17217f7d1d7299b49c4602607f1c5b6001604d1b83161561475f576f8000000000058b90bfbe8e9a8d1c4ea002607f1c5b6001604c1b831615614781576f800000000002c5c85fdf4745969ea76f02607f1c5b6001604b1b8316156147a3576f80000000000162e42fefa3a0df5373bf02607f1c5b6001604a1b8316156147c5576f800000000000b17217f7d1cff4aac1e102607f1c5b600160491b8316156147e7576f80000000000058b90bfbe8e7db95a2f102607f1c5b600160481b831615614809576f8000000000002c5c85fdf473e61ae1f802607f1c5b600160471b83161561482b576f800000000000162e42fefa39f121751c02607f1c5b600160461b83161561484d576f8000000000000b17217f7d1cf815bb9602607f1c5b600160451b83161561486f576f800000000000058b90bfbe8e7bec1e0d02607f1c5b600160441b831615614891576f80000000000002c5c85fdf473dee5f1702607f1c5b600160431b8316156148b3576f8000000000000162e42fefa39ef5438f02607f1c5b600160421b8316156148d5576f80000000000000b17217f7d1cf7a26c802607f1c5b600160411b8316156148f7576f8000000000000058b90bfbe8e7bcf4a402607f1c5b600160401b831615614919576f800000000000002c5c85fdf473de72a202607f1c5b6001603f1b83161561493b576f80000000000000162e42fefa39ef376502607f1c5b6001603e1b83161561495d576f800000000000000b17217f7d1cf79b3702607f1c5b6001603d1b83161561497f576f80000000000000058b90bfbe8e7bcd7d02607f1c5b6001603c1b8316156149a1576f8000000000000002c5c85fdf473de6b602607f1c5b6001603b1b8316156149c3576f800000000000000162e42fefa39ef35902607f1c5b6001603a1b8316156149e5576f8000000000000000b17217f7d1cf79ac02607f1c5b600160391b831615614a07576f800000000000000058b90bfbe8e7bcd602607f1c5b600160381b831615614a29576f80000000000000002c5c85fdf473de6a02607f1c5b6680000000000000831615614a4e576f8000000000000000162e42fefa39ef3502607f1c5b6640000000000000831615614a73576f80000000000000000b17217f7d1cf79a02607f1c5b6620000000000000831615614a98576f8000000000000000058b90bfbe8e7bcd02607f1c5b6610000000000000831615614abd576f800000000000000002c5c85fdf473de602607f1c5b6608000000000000831615614ae2576f80000000000000000162e42fefa39ef302607f1c5b6604000000000000831615614b07576f800000000000000000b17217f7d1cf7902607f1c5b6602000000000000831615614b2c576f80000000000000000058b90bfbe8e7bc02607f1c5b6601000000000000831615614b51576f8000000000000000002c5c85fdf473de02607f1c5b65800000000000831615614b75576f800000000000000000162e42fefa39ef02607f1c5b65400000000000831615614b99576f8000000000000000000b17217f7d1cf702607f1c5b65200000000000831615614bbd576f800000000000000000058b90bfbe8e7b02607f1c5b65100000000000831615614be1576f80000000000000000002c5c85fdf473d02607f1c5b65080000000000831615614c05576f8000000000000000000162e42fefa39e02607f1c5b65040000000000831615614c29576f80000000000000000000b17217f7d1cf02607f1c5b65020000000000831615614c4d576f8000000000000000000058b90bfbe8e702607f1c5b65010000000000831615614c71576f800000000000000000002c5c85fdf47302607f1c5b648000000000831615614c94576f80000000000000000000162e42fefa3902607f1c5b644000000000831615614cb7576f800000000000000000000b17217f7d1c02607f1c5b642000000000831615614cda576f80000000000000000000058b90bfbe8e02607f1c5b641000000000831615614cfd576f8000000000000000000002c5c85fdf4702607f1c5b640800000000831615614d20576f800000000000000000000162e42fefa302607f1c5b640400000000831615614d43576f8000000000000000000000b17217f7d102607f1c5b640200000000831615614d66576f800000000000000000000058b90bfbe802607f1c5b640100000000831615614d89576f80000000000000000000002c5c85fdf402607f1c5b6380000000831615614dab576f8000000000000000000000162e42fefa02607f1c5b6340000000831615614dcd576f80000000000000000000000b17217f7d02607f1c5b6320000000831615614def576f8000000000000000000000058b90bfbe02607f1c5b6310000000831615614e11576f800000000000000000000002c5c85fdf02607f1c5b6308000000831615614e33576f80000000000000000000000162e42fef02607f1c5b6304000000831615614e55576f800000000000000000000000b17217f702607f1c5b6302000000831615614e77576f80000000000000000000000058b90bfb02607f1c5b6301000000831615614e99576f8000000000000000000000002c5c85fd02607f1c5b62800000831615614eba576f800000000000000000000000162e42fe02607f1c5b62400000831615614edb576f8000000000000000000000000b17217f02607f1c5b62200000831615614efc576f800000000000000000000000058b90bf02607f1c5b62100000831615614f1d576f80000000000000000000000002c5c85f02607f1c5b62080000831615614f3e576f8000000000000000000000000162e42f02607f1c5b62040000831615614f5f576f80000000000000000000000000b1721702607f1c5b62020000831615614f80576f8000000000000000000000000058b90b02607f1c5b62010000831615614fa1576f800000000000000000000000002c5c8502607f1c5b618000831615614fc1576f80000000000000000000000000162e4202607f1c5b614000831615614fe1576f800000000000000000000000000b172102607f1c5b612000831615615001576f80000000000000000000000000058b9002607f1c5b611000831615615021576f8000000000000000000000000002c5c802607f1c5b610800831615615041576f800000000000000000000000000162e402607f1c5b610400831615615061576f8000000000000000000000000000b17202607f1c5b610200831615615081576f800000000000000000000000000058b902607f1c5b6101008316156150a1576f80000000000000000000000000002c5c02607f1c5b60808316156150c0576f8000000000000000000000000000162e02607f1c5b60408316156150df576f80000000000000000000000000000b1702607f1c5b60208316156150fe576f8000000000000000000000000000058b02607f1c5b601083161561511d576f800000000000000000000000000002c502607f1c5b600883161561513c576f8000000000000000000000000000016202607f1c5b600483161561515b576f800000000000000000000000000000b102607f1c5b600283161561517a576f8000000000000000000000000000005802607f1c5b60018316156125e8576f8000000000000000000000000000002c02607f1c607f607984901c811690036001600160801b03161c905091905056fea26469706673582212208581301a9af00fff5fb459bec24efed17c9764fec83b85cf77a518c63e0a4b7a64736f6c634300060a0033",
  "source": "pragma solidity ^0.6.10;\n\nimport \"../market/YieldMath.sol\";\nimport \"../mocks/YieldMath64.sol\";\nimport \"../mocks/YieldMath48.sol\";\n\n\ncontract YieldMathMock {\n    function yDaiOutForChaiIn (\n        uint128 chaiReserves, uint128 yDAIReserves, uint128 chaiAmount,\n        uint128 timeTillMaturity, int128 k, int128 c, int128 g)\n    external pure returns (uint128) {\n        return YieldMath.yDaiOutForChaiIn(chaiReserves, yDAIReserves, chaiAmount, timeTillMaturity, k, c, g);\n    }\n\n    function chaiOutForYDaiIn (\n        uint128 chaiReserves, uint128 yDAIReserves, uint128 yDAIAmount,\n        uint128 timeTillMaturity, int128 k, int128 c, int128 g)\n    external pure returns (uint128) {\n        return YieldMath.chaiOutForYDaiIn(chaiReserves, yDAIReserves, yDAIAmount, timeTillMaturity, k, c, g);\n    }\n\n    function yDaiInForChaiOut (\n        uint128 chaiReserves, uint128 yDAIReserves, uint128 chaiAmount,\n        uint128 timeTillMaturity, int128 k, int128 c, int128 g)\n    external pure returns (uint128) {\n        return YieldMath.yDaiInForChaiOut(chaiReserves, yDAIReserves, chaiAmount, timeTillMaturity, k, c, g);\n    }\n\n    function chaiInForYDaiOut (\n        uint128 chaiReserves, uint128 yDAIReserves, uint128 yDAIAmount,\n        uint128 timeTillMaturity, int128 k, int128 c, int128 g)\n    external pure returns (uint128) {\n        return YieldMath.chaiInForYDaiOut(chaiReserves, yDAIReserves, yDAIAmount, timeTillMaturity, k, c, g);\n    }\n\n    // --- 64 ---\n\n    function yDaiOutForChaiIn64 (\n        uint128 chaiReserves, uint128 yDAIReserves, uint128 chaiAmount,\n        uint128 timeTillMaturity, int128 k, int128 c, int128 g)\n    external pure returns (uint128) {\n        return YieldMath64.yDaiOutForChaiIn(chaiReserves, yDAIReserves, chaiAmount, timeTillMaturity, k, c, g);\n    }\n\n    function chaiOutForYDaiIn64 (\n        uint128 chaiReserves, uint128 yDAIReserves, uint128 yDAIAmount,\n        uint128 timeTillMaturity, int128 k, int128 c, int128 g)\n    external pure returns (uint128) {\n        return YieldMath64.chaiOutForYDaiIn(chaiReserves, yDAIReserves, yDAIAmount, timeTillMaturity, k, c, g);\n    }\n\n    function yDaiInForChaiOut64 (\n        uint128 chaiReserves, uint128 yDAIReserves, uint128 chaiAmount,\n        uint128 timeTillMaturity, int128 k, int128 c, int128 g)\n    external pure returns (uint128) {\n        return YieldMath64.yDaiInForChaiOut(chaiReserves, yDAIReserves, chaiAmount, timeTillMaturity, k, c, g);\n    }\n\n    function chaiInForYDaiOut64 (\n        uint128 chaiReserves, uint128 yDAIReserves, uint128 yDAIAmount,\n        uint128 timeTillMaturity, int128 k, int128 c, int128 g)\n    external pure returns (uint128) {\n        return YieldMath64.chaiInForYDaiOut(chaiReserves, yDAIReserves, yDAIAmount, timeTillMaturity, k, c, g);\n    }\n\n    // --- 48 ---\n\n    function yDaiOutForChaiIn48 (\n        uint128 chaiReserves, uint128 yDAIReserves, uint128 chaiAmount,\n        uint128 timeTillMaturity, int128 k, int128 c, int128 g)\n    external pure returns (uint128) {\n        return YieldMath48.yDaiOutForChaiIn(chaiReserves, yDAIReserves, chaiAmount, timeTillMaturity, k, c, g);\n    }\n\n    function chaiOutForYDaiIn48 (\n        uint128 chaiReserves, uint128 yDAIReserves, uint128 yDAIAmount,\n        uint128 timeTillMaturity, int128 k, int128 c, int128 g)\n    external pure returns (uint128) {\n        return YieldMath48.chaiOutForYDaiIn(chaiReserves, yDAIReserves, yDAIAmount, timeTillMaturity, k, c, g);\n    }\n\n    function yDaiInForChaiOut48 (\n        uint128 chaiReserves, uint128 yDAIReserves, uint128 chaiAmount,\n        uint128 timeTillMaturity, int128 k, int128 c, int128 g)\n    external pure returns (uint128) {\n        return YieldMath48.yDaiInForChaiOut(chaiReserves, yDAIReserves, chaiAmount, timeTillMaturity, k, c, g);\n    }\n\n    function chaiInForYDaiOut48 (\n        uint128 chaiReserves, uint128 yDAIReserves, uint128 yDAIAmount,\n        uint128 timeTillMaturity, int128 k, int128 c, int128 g)\n    external pure returns (uint128) {\n        return YieldMath48.chaiInForYDaiOut(chaiReserves, yDAIReserves, yDAIAmount, timeTillMaturity, k, c, g);\n    }\n}",
  "sourcePath": "/Users/bruce/dev/yieldprotocol/ytoken-mvp/contracts/mocks/YieldMathMock.sol",
  "compiler": {
    "name": "solc",
    "version": "0.6.10+commit.00c0fcaf.Emscripten.clang"
  },
  "schemaVersion": "3.0.23",
  "updatedAt": "2020-07-15T08:08:37.769Z",
  "devdoc": {
    "methods": {}
  },
  "userdoc": {
    "methods": {}
  }
}