{
  "contractName": "YieldMathMock",
  "abi": [
    {
      "inputs": [
        {
          "internalType": "uint128",
          "name": "daiReserves",
          "type": "uint128"
        },
        {
          "internalType": "uint128",
          "name": "yDAIReserves",
          "type": "uint128"
        },
        {
          "internalType": "uint128",
          "name": "daiAmount",
          "type": "uint128"
        },
        {
          "internalType": "uint128",
          "name": "timeTillMaturity",
          "type": "uint128"
        },
        {
          "internalType": "int128",
          "name": "k",
          "type": "int128"
        },
        {
          "internalType": "int128",
          "name": "g",
          "type": "int128"
        }
      ],
      "name": "yDaiOutForDaiIn",
      "outputs": [
        {
          "internalType": "uint128",
          "name": "",
          "type": "uint128"
        }
      ],
      "stateMutability": "pure",
      "type": "function"
    },
    {
      "inputs": [
        {
          "internalType": "uint128",
          "name": "daiReserves",
          "type": "uint128"
        },
        {
          "internalType": "uint128",
          "name": "yDAIReserves",
          "type": "uint128"
        },
        {
          "internalType": "uint128",
          "name": "yDAIAmount",
          "type": "uint128"
        },
        {
          "internalType": "uint128",
          "name": "timeTillMaturity",
          "type": "uint128"
        },
        {
          "internalType": "int128",
          "name": "k",
          "type": "int128"
        },
        {
          "internalType": "int128",
          "name": "g",
          "type": "int128"
        }
      ],
      "name": "daiOutForYDaiIn",
      "outputs": [
        {
          "internalType": "uint128",
          "name": "",
          "type": "uint128"
        }
      ],
      "stateMutability": "pure",
      "type": "function"
    },
    {
      "inputs": [
        {
          "internalType": "uint128",
          "name": "daiReserves",
          "type": "uint128"
        },
        {
          "internalType": "uint128",
          "name": "yDAIReserves",
          "type": "uint128"
        },
        {
          "internalType": "uint128",
          "name": "daiAmount",
          "type": "uint128"
        },
        {
          "internalType": "uint128",
          "name": "timeTillMaturity",
          "type": "uint128"
        },
        {
          "internalType": "int128",
          "name": "k",
          "type": "int128"
        },
        {
          "internalType": "int128",
          "name": "g",
          "type": "int128"
        }
      ],
      "name": "yDaiInForDaiOut",
      "outputs": [
        {
          "internalType": "uint128",
          "name": "",
          "type": "uint128"
        }
      ],
      "stateMutability": "pure",
      "type": "function"
    },
    {
      "inputs": [
        {
          "internalType": "uint128",
          "name": "daiReserves",
          "type": "uint128"
        },
        {
          "internalType": "uint128",
          "name": "yDAIReserves",
          "type": "uint128"
        },
        {
          "internalType": "uint128",
          "name": "yDAIAmount",
          "type": "uint128"
        },
        {
          "internalType": "uint128",
          "name": "timeTillMaturity",
          "type": "uint128"
        },
        {
          "internalType": "int128",
          "name": "k",
          "type": "int128"
        },
        {
          "internalType": "int128",
          "name": "g",
          "type": "int128"
        }
      ],
      "name": "daiInForYDaiOut",
      "outputs": [
        {
          "internalType": "uint128",
          "name": "",
          "type": "uint128"
        }
      ],
      "stateMutability": "pure",
      "type": "function"
    },
    {
      "inputs": [
        {
          "internalType": "uint128",
          "name": "daiReserves",
          "type": "uint128"
        },
        {
          "internalType": "uint128",
          "name": "yDAIReserves",
          "type": "uint128"
        },
        {
          "internalType": "uint128",
          "name": "daiAmount",
          "type": "uint128"
        },
        {
          "internalType": "uint128",
          "name": "timeTillMaturity",
          "type": "uint128"
        },
        {
          "internalType": "int128",
          "name": "k",
          "type": "int128"
        },
        {
          "internalType": "int128",
          "name": "g",
          "type": "int128"
        }
      ],
      "name": "yDaiOutForDaiIn64",
      "outputs": [
        {
          "internalType": "uint128",
          "name": "",
          "type": "uint128"
        }
      ],
      "stateMutability": "pure",
      "type": "function"
    },
    {
      "inputs": [
        {
          "internalType": "uint128",
          "name": "daiReserves",
          "type": "uint128"
        },
        {
          "internalType": "uint128",
          "name": "yDAIReserves",
          "type": "uint128"
        },
        {
          "internalType": "uint128",
          "name": "yDAIAmount",
          "type": "uint128"
        },
        {
          "internalType": "uint128",
          "name": "timeTillMaturity",
          "type": "uint128"
        },
        {
          "internalType": "int128",
          "name": "k",
          "type": "int128"
        },
        {
          "internalType": "int128",
          "name": "g",
          "type": "int128"
        }
      ],
      "name": "daiOutForYDaiIn64",
      "outputs": [
        {
          "internalType": "uint128",
          "name": "",
          "type": "uint128"
        }
      ],
      "stateMutability": "pure",
      "type": "function"
    },
    {
      "inputs": [
        {
          "internalType": "uint128",
          "name": "daiReserves",
          "type": "uint128"
        },
        {
          "internalType": "uint128",
          "name": "yDAIReserves",
          "type": "uint128"
        },
        {
          "internalType": "uint128",
          "name": "daiAmount",
          "type": "uint128"
        },
        {
          "internalType": "uint128",
          "name": "timeTillMaturity",
          "type": "uint128"
        },
        {
          "internalType": "int128",
          "name": "k",
          "type": "int128"
        },
        {
          "internalType": "int128",
          "name": "g",
          "type": "int128"
        }
      ],
      "name": "yDaiInForDaiOut64",
      "outputs": [
        {
          "internalType": "uint128",
          "name": "",
          "type": "uint128"
        }
      ],
      "stateMutability": "pure",
      "type": "function"
    },
    {
      "inputs": [
        {
          "internalType": "uint128",
          "name": "daiReserves",
          "type": "uint128"
        },
        {
          "internalType": "uint128",
          "name": "yDAIReserves",
          "type": "uint128"
        },
        {
          "internalType": "uint128",
          "name": "yDAIAmount",
          "type": "uint128"
        },
        {
          "internalType": "uint128",
          "name": "timeTillMaturity",
          "type": "uint128"
        },
        {
          "internalType": "int128",
          "name": "k",
          "type": "int128"
        },
        {
          "internalType": "int128",
          "name": "g",
          "type": "int128"
        }
      ],
      "name": "daiInForYDaiOut64",
      "outputs": [
        {
          "internalType": "uint128",
          "name": "",
          "type": "uint128"
        }
      ],
      "stateMutability": "pure",
      "type": "function"
    },
    {
      "inputs": [
        {
          "internalType": "uint128",
          "name": "daiReserves",
          "type": "uint128"
        },
        {
          "internalType": "uint128",
          "name": "yDAIReserves",
          "type": "uint128"
        },
        {
          "internalType": "uint128",
          "name": "daiAmount",
          "type": "uint128"
        },
        {
          "internalType": "uint128",
          "name": "timeTillMaturity",
          "type": "uint128"
        },
        {
          "internalType": "int128",
          "name": "k",
          "type": "int128"
        },
        {
          "internalType": "int128",
          "name": "g",
          "type": "int128"
        }
      ],
      "name": "yDaiOutForDaiIn48",
      "outputs": [
        {
          "internalType": "uint128",
          "name": "",
          "type": "uint128"
        }
      ],
      "stateMutability": "pure",
      "type": "function"
    },
    {
      "inputs": [
        {
          "internalType": "uint128",
          "name": "daiReserves",
          "type": "uint128"
        },
        {
          "internalType": "uint128",
          "name": "yDAIReserves",
          "type": "uint128"
        },
        {
          "internalType": "uint128",
          "name": "yDAIAmount",
          "type": "uint128"
        },
        {
          "internalType": "uint128",
          "name": "timeTillMaturity",
          "type": "uint128"
        },
        {
          "internalType": "int128",
          "name": "k",
          "type": "int128"
        },
        {
          "internalType": "int128",
          "name": "g",
          "type": "int128"
        }
      ],
      "name": "daiOutForYDaiIn48",
      "outputs": [
        {
          "internalType": "uint128",
          "name": "",
          "type": "uint128"
        }
      ],
      "stateMutability": "pure",
      "type": "function"
    },
    {
      "inputs": [
        {
          "internalType": "uint128",
          "name": "daiReserves",
          "type": "uint128"
        },
        {
          "internalType": "uint128",
          "name": "yDAIReserves",
          "type": "uint128"
        },
        {
          "internalType": "uint128",
          "name": "daiAmount",
          "type": "uint128"
        },
        {
          "internalType": "uint128",
          "name": "timeTillMaturity",
          "type": "uint128"
        },
        {
          "internalType": "int128",
          "name": "k",
          "type": "int128"
        },
        {
          "internalType": "int128",
          "name": "g",
          "type": "int128"
        }
      ],
      "name": "yDaiInForDaiOut48",
      "outputs": [
        {
          "internalType": "uint128",
          "name": "",
          "type": "uint128"
        }
      ],
      "stateMutability": "pure",
      "type": "function"
    },
    {
      "inputs": [
        {
          "internalType": "uint128",
          "name": "daiReserves",
          "type": "uint128"
        },
        {
          "internalType": "uint128",
          "name": "yDAIReserves",
          "type": "uint128"
        },
        {
          "internalType": "uint128",
          "name": "yDAIAmount",
          "type": "uint128"
        },
        {
          "internalType": "uint128",
          "name": "timeTillMaturity",
          "type": "uint128"
        },
        {
          "internalType": "int128",
          "name": "k",
          "type": "int128"
        },
        {
          "internalType": "int128",
          "name": "g",
          "type": "int128"
        }
      ],
      "name": "daiInForYDaiOut48",
      "outputs": [
        {
          "internalType": "uint128",
          "name": "",
          "type": "uint128"
        }
      ],
      "stateMutability": "pure",
      "type": "function"
    }
  ],
  "bytecode": "0x608060405234801561001057600080fd5b50614fcc806100206000396000f3fe608060405234801561001057600080fd5b50600436106100b45760003560e01c8063832022891161007157806383202289146102c757806398f799381461031a578063a9ab56e61461036d578063f092c5bb146103c0578063fc12aec514610413578063fe677afe14610466576100b4565b80632151d9da146100b9578063232eae5514610128578063250143491461017b5780632a0456d1146101ce5780635d05a1241461022157806368935c3514610274575b600080fd5b61010c600480360360c08110156100cf57600080fd5b506001600160801b038135811691602081013582169160408201358116916060810135909116906080810135600f90810b9160a00135900b6104b9565b604080516001600160801b039092168252519081900360200190f35b61010c600480360360c081101561013e57600080fd5b506001600160801b038135811691602081013582169160408201358116916060810135909116906080810135600f90810b9160a00135900b6104d4565b61010c600480360360c081101561019157600080fd5b506001600160801b038135811691602081013582169160408201358116916060810135909116906080810135600f90810b9160a00135900b6104e4565b61010c600480360360c08110156101e457600080fd5b506001600160801b038135811691602081013582169160408201358116916060810135909116906080810135600f90810b9160a00135900b6104f4565b61010c600480360360c081101561023757600080fd5b506001600160801b038135811691602081013582169160408201358116916060810135909116906080810135600f90810b9160a00135900b610504565b61010c600480360360c081101561028a57600080fd5b506001600160801b038135811691602081013582169160408201358116916060810135909116906080810135600f90810b9160a00135900b610514565b61010c600480360360c08110156102dd57600080fd5b506001600160801b038135811691602081013582169160408201358116916060810135909116906080810135600f90810b9160a00135900b610524565b61010c600480360360c081101561033057600080fd5b506001600160801b038135811691602081013582169160408201358116916060810135909116906080810135600f90810b9160a00135900b610534565b61010c600480360360c081101561038357600080fd5b506001600160801b038135811691602081013582169160408201358116916060810135909116906080810135600f90810b9160a00135900b610544565b61010c600480360360c08110156103d657600080fd5b506001600160801b038135811691602081013582169160408201358116916060810135909116906080810135600f90810b9160a00135900b610554565b61010c600480360360c081101561042957600080fd5b506001600160801b038135811691602081013582169160408201358116916060810135909116906080810135600f90810b9160a00135900b610564565b61010c600480360360c081101561047c57600080fd5b506001600160801b038135811691602081013582169160408201358116916060810135909116906080810135600f90810b9160a00135900b610574565b60006104c9878787878787610584565b979650505050505050565b60006104c987878787878761068c565b60006104c98787878787876107a7565b60006104c9878787878787610885565b60006104c9878787878787610959565b60006104c9878787878787610a33565b60006104c9878787878787610af0565b60006104c9878787878787610bd6565b60006104c9878787878787610ca5565b60006104c9878787878787610d83565b60006104c9878787878787610e5d565b60006104c9878787878787610f1a565b6000856001600160801b0316856001600160801b031611156105a557600080fd5b60006105d3600160401b6105ce856105c9886105c98b6001600160801b0316610fe9565b611007565b611045565b9050600081600f0b136105e557600080fd5b6001600160801b0380871690881603600160801b811061060457600080fd5b60006106158284600160401b611078565b6106248a85600160401b611078565b6106338c86600160401b611078565b01036001600160801b03169050600160801b811061065057600080fd5b60008a61066283600160401b87611078565b036001600160801b03169050600160801b811061067e57600080fd5b9a9950505050505050505050565b6000866001600160801b0316856001600160801b031611156106ad57600080fd5b60006106c5846105c9876001600160801b0316610fe9565b905060006106db600160401b6105ce8685611007565b9050600081600f0b136106ed57600080fd5b6001600160801b03808816908a1603600160801b811061070c57600080fd5b600061071d8284600160401b611126565b6001600160801b03166107358b85600160401b611126565b6001600160801b031661074d8d86600160401b611126565b6001600160801b031601039050600160801b811061076a57600080fd5b60008a61077c83600160401b87611126565b036001600160801b03169050600160801b811061079857600080fd5b9b9a5050505050505050505050565b6000866001600160801b0316856001600160801b031611156107c857600080fd5b60006107e0846105c9876001600160801b0316610fe9565b905060006107f6600160401b6105ce8685611007565b9050600081600f0b1361080857600080fd5b6001600160801b03808816908a1603600160801b811061082757600080fd5b60006108388284600160401b6111c3565b6108478b85600160401b6111c3565b6108568d86600160401b6111c3565b01036001600160801b03169050600160801b811061087357600080fd5b60008a61077c83600160401b876111c3565b6000856001600160801b0316856001600160801b031611156108a657600080fd5b60006108ca600160401b6105ce856105c9886105c98b6001600160801b0316610fe9565b9050600081600f0b136108dc57600080fd5b6001600160801b0380871690881603600160801b81106108fb57600080fd5b600061090c8284600160401b6111c3565b61091b8a85600160401b6111c3565b61092a8c86600160401b6111c3565b01036001600160801b03169050600160801b811061094757600080fd5b60008a61066283600160401b876111c3565b600080610972846105c9876001600160801b0316610fe9565b90506000610988600160401b6105ce8685611007565b9050600081600f0b1361099a57600080fd5b6001600160801b0389811690881601600160801b81106109b957600080fd5b60006109ca8284600160401b6111c3565b6109d98b85600160401b6111c3565b6109e88d86600160401b6111c3565b01036001600160801b03169050600160801b8110610a0557600080fd5b6000610a1682600160401b866111c3565b8b036001600160801b03169050600160801b811061079857600080fd5b600080610a4c846105c9876001600160801b0316610fe9565b90506000610a62600160401b6105ce8685611007565b9050600081600f0b13610a7457600080fd5b6001600160801b0389811690881601600160801b8110610a9357600080fd5b6000610aa48284600160401b611078565b610ab38b85600160401b611078565b610ac28d86600160401b611078565b01036001600160801b03169050600160801b8110610adf57600080fd5b6000610a1682600160401b86611078565b6000856001600160801b0316856001600160801b03161115610b1157600080fd5b6000610b35600160401b6105ce856105c9886105c98b6001600160801b0316610fe9565b9050600081600f0b13610b4757600080fd5b6001600160801b0380871690881603600160801b8110610b6657600080fd5b6000610b778284600160401b611126565b6001600160801b0316610b8f8a85600160401b611126565b6001600160801b0316610ba78c86600160401b611126565b6001600160801b031601039050600160801b8110610bc457600080fd5b60008a61066283600160401b87611126565b600080610bef846105c9876001600160801b0316610fe9565b90506000610c05600160401b6105ce8685611007565b9050600081600f0b13610c1757600080fd5b6001600160801b0389811690881601600160801b8110610c3657600080fd5b6000610c478284600160401b611126565b6001600160801b0316610c5f8b85600160401b611126565b6001600160801b0316610c778d86600160401b611126565b6001600160801b031601039050600160801b8110610c9457600080fd5b6000610a1682600160401b86611126565b6000866001600160801b0316856001600160801b03161115610cc657600080fd5b6000610cde846105c9876001600160801b0316610fe9565b90506000610cf4600160401b6105ce8685611007565b9050600081600f0b13610d0657600080fd5b6001600160801b03808816908a1603600160801b8110610d2557600080fd5b6000610d368284600160401b611078565b610d458b85600160401b611078565b610d548d86600160401b611078565b01036001600160801b03169050600160801b8110610d7157600080fd5b60008a61077c83600160401b87611078565b600080610d9c846105c9876001600160801b0316610fe9565b90506000610db2600160401b6105ce8685611007565b9050600081600f0b13610dc457600080fd5b6001600160801b0388811690881601600160801b8110610de357600080fd5b6000610df48a84600160401b6111c3565b610e038385600160401b6111c3565b610e128d86600160401b6111c3565b03016001600160801b03169050600160801b8110610e2f57600080fd5b6000610e4082600160401b866111c3565b8c036001600160801b03169050600160801b811061079857600080fd5b600080610e76846105c9876001600160801b0316610fe9565b90506000610e8c600160401b6105ce8685611007565b9050600081600f0b13610e9e57600080fd5b6001600160801b0388811690881601600160801b8110610ebd57600080fd5b6000610ece8a84600160401b611078565b610edd8385600160401b611078565b610eec8d86600160401b611078565b03016001600160801b03169050600160801b8110610f0957600080fd5b6000610e4082600160401b86611078565b600080610f33846105c9876001600160801b0316610fe9565b90506000610f49600160401b6105ce8685611007565b9050600081600f0b13610f5b57600080fd5b6001600160801b0388811690881601600160801b8110610f7a57600080fd5b6000610f8b8a84600160401b611126565b6001600160801b0316610fa38385600160401b611126565b6001600160801b031603610fbc8c85600160401b611126565b6001600160801b0316039050600160801b8110610fd857600080fd5b6000610e4082600160401b86611126565b6000677fffffffffffffff82111561100057600080fd5b5060401b90565b6000600f83810b9083900b0260401d60016001607f1b03198112801590611035575060016001607f1b038113155b61103e57600080fd5b9392505050565b6000600f82810b9084900b0360016001607f1b03198112801590611035575060016001607f1b0381131561103e57600080fd5b60006001600160801b03821661108d57600080fd5b6001600160801b0384166110b6576001600160801b0383166110ae57600080fd5b50600061103e565b6000826001600160801b0316846001600160801b03166110d587611260565b6001600160801b03036001600160801b031602816110ef57fe5b0490506001600160801b0381111561110b57600091505061103e565b61111d816001600160801b0303611a55565b95945050505050565b60006001600160801b03821661113b57600080fd5b6001600160801b03841661115c576001600160801b0383166110ae57600080fd5b6000826001600160801b0316846001600160801b031661117b876122d6565b6001600160801b03036001600160801b0316028161119557fe5b0490506001600160801b038111156111b157600091505061103e565b61111d816001600160801b03036132eb565b60006001600160801b0382166111d857600080fd5b6001600160801b0384166111f9576001600160801b0383166110ae57600080fd5b6000826001600160801b0316846001600160801b03166112188761431f565b6001600160801b03036001600160801b0316028161123257fe5b0490506001600160801b0381111561124e57600091505061103e565b61111d816001600160801b0303614914565b60006001600160801b03821661127557600080fd5b6001600160801b038216607f60791b600160401b8210156112a25760409190911b9060016001607f1b0319015b600160601b8210156112c05760209190911b9060016001607e1b0319015b600160701b8210156112de5760109190911b9060016001607d1b0319015b600160781b8210156112fc5760089190911b9060016001607c1b0319015b6001607c1b82101561131a5760049190911b9060016001607b1b0319015b6001607e1b8210156113385760029190911b9060016001607a1b0319015b6001607f1b8210156113565760019190911b906001600160791b0319015b908002607f1c90600160801b82106113765760019190911c90600160781b175b908002607f1c90600160801b82106113965760019190911c90600160771b175b908002607f1c90600160801b82106113b65760019190911c90600160761b175b908002607f1c90600160801b82106113d65760019190911c90600160751b175b908002607f1c90600160801b82106113f65760019190911c90600160741b175b908002607f1c90600160801b82106114165760019190911c90600160731b175b908002607f1c90600160801b82106114365760019190911c90600160721b175b908002607f1c90600160801b82106114565760019190911c90600160711b175b908002607f1c90600160801b82106114765760019190911c90600160701b175b908002607f1c90600160801b82106114965760019190911c906001606f1b175b908002607f1c90600160801b82106114b65760019190911c906001606e1b175b908002607f1c90600160801b82106114d65760019190911c906001606d1b175b908002607f1c90600160801b82106114f65760019190911c906001606c1b175b908002607f1c90600160801b82106115165760019190911c906001606b1b175b908002607f1c90600160801b82106115365760019190911c906001606a1b175b908002607f1c90600160801b82106115565760019190911c90600160691b175b908002607f1c90600160801b82106115765760019190911c90600160681b175b908002607f1c90600160801b82106115965760019190911c90600160671b175b908002607f1c90600160801b82106115b65760019190911c90600160661b175b908002607f1c90600160801b82106115d65760019190911c90600160651b175b908002607f1c90600160801b82106115f65760019190911c90600160641b175b908002607f1c90600160801b82106116165760019190911c90600160631b175b908002607f1c90600160801b82106116365760019190911c90600160621b175b908002607f1c90600160801b82106116565760019190911c90600160611b175b908002607f1c90600160801b82106116765760019190911c90600160601b175b908002607f1c90600160801b82106116965760019190911c906001605f1b175b908002607f1c90600160801b82106116b65760019190911c906001605e1b175b908002607f1c90600160801b82106116d65760019190911c906001605d1b175b908002607f1c90600160801b82106116f65760019190911c906001605c1b175b908002607f1c90600160801b82106117165760019190911c906001605b1b175b908002607f1c90600160801b82106117365760019190911c906001605a1b175b908002607f1c90600160801b82106117565760019190911c90600160591b175b908002607f1c90600160801b82106117765760019190911c90600160581b175b908002607f1c90600160801b82106117965760019190911c90600160571b175b908002607f1c90600160801b82106117b65760019190911c90600160561b175b908002607f1c90600160801b82106117d65760019190911c90600160551b175b908002607f1c90600160801b82106117f65760019190911c90600160541b175b908002607f1c90600160801b82106118165760019190911c90600160531b175b908002607f1c90600160801b82106118365760019190911c90600160521b175b908002607f1c90600160801b82106118565760019190911c90600160511b175b908002607f1c90600160801b82106118765760019190911c90600160501b175b908002607f1c90600160801b82106118965760019190911c906001604f1b175b908002607f1c90600160801b82106118b65760019190911c906001604e1b175b908002607f1c90600160801b82106118d65760019190911c906001604d1b175b908002607f1c90600160801b82106118f65760019190911c906001604c1b175b908002607f1c90600160801b82106119165760019190911c906001604b1b175b908002607f1c90600160801b82106119365760019190911c906001604a1b175b908002607f1c90600160801b82106119565760019190911c90600160491b175b908002607f1c90600160801b82106119765760019190911c90600160481b175b908002607f1c90600160801b82106119965760019190911c90600160471b175b908002607f1c90600160801b82106119b65760019190911c90600160461b175b908002607f1c90600160801b82106119d65760019190911c90600160451b175b908002607f1c90600160801b82106119f65760019190911c90600160441b175b908002607f1c90600160801b8210611a165760019190911c90600160431b175b908002607f1c90600160801b8210611a365760019190911c90600160421b175b908002607f1c90600160801b821061103e57600160411b179392505050565b60006001607f1b600160781b831615611a7e576fb504f333f9de6484597d89b3754abe9f02607f1c5b600160771b831615611aa0576f9837f0518db8a96f46ad23182e42f6f602607f1c5b600160761b831615611ac2576f8b95c1e3ea8bd6e6fbe4628758a53c9002607f1c5b600160751b831615611ae4576f85aac367cc487b14c5c95b8c2154c1b202607f1c5b600160741b831615611b06576f82cd8698ac2ba1d73e2a475b46520bff02607f1c5b600160731b831615611b28576f8164d1f3bc0307737be56527bd14def402607f1c5b600160721b831615611b4a576f80b1ed4fd999ab6c25335719b6e6fd2002607f1c5b600160711b831615611b6c576f8058d7d2d5e5f6b094d589f608ee4aa202607f1c5b600160701b831615611b8e576f802c6436d0e04f50ff8ce94a6797b3ce02607f1c5b6001606f1b831615611bb0576f8016302f174676283690dfe44d11d00802607f1c5b6001606e1b831615611bd2576f800b179c82028fd0945e54e2ae18f2f002607f1c5b6001606d1b831615611bf4576f80058baf7fee3b5d1c718b38e549cb9302607f1c5b6001606c1b831615611c16576f8002c5d00fdcfcb6b6566a58c048be1f02607f1c5b6001606b1b831615611c38576f800162e61bed4a48e84c2e1a463473d902607f1c5b6001606a1b831615611c5a576f8000b17292f702a3aa22beacca94901302607f1c5b600160691b831615611c7c576f800058b92abbae02030c5fa5256f41fe02607f1c5b600160681b831615611c9e576f80002c5c8dade4d71776c0f4dbea67d602607f1c5b600160671b831615611cc0576f8000162e44eaf636526be456600bdbe402607f1c5b600160661b831615611ce2576f80000b1721fa7c188307016c1cd4e8b602607f1c5b600160651b831615611d04576f8000058b90de7e4cecfc487503488bb102607f1c5b600160641b831615611d26576f800002c5c8678f36cbfce50a6de60b1402607f1c5b600160631b831615611d48576f80000162e431db9f80b2347b5d62e51602607f1c5b600160621b831615611d6a576f800000b1721872d0c7b08cf1e011415202607f1c5b600160611b831615611d8c576f80000058b90c1aa8a5c3736cb77e8dff02607f1c5b600160601b831615611dae576f8000002c5c8605a4635f2efc2362d97802607f1c5b6001605f1b831615611dd0576f800000162e4300e635cf4a109e3939bd02607f1c5b6001605e1b831615611df2576f8000000b17217ff81bef9c551590cf8302607f1c5b6001605d1b831615611e14576f800000058b90bfdd4e39cd52c0cfa27c02607f1c5b6001605c1b831615611e36576f80000002c5c85fe6f72d669e0e76e41102607f1c5b6001605b1b831615611e58576f8000000162e42ff18f9ad35186d0df2802607f1c5b6001605a1b831615611e7a576f80000000b17217f84cce71aa0dcfffe702607f1c5b600160591b831615611e9c576f8000000058b90bfc07a77ad56ed22aaa02607f1c5b600160581b831615611ebe576f800000002c5c85fdfc23cdead40da8d602607f1c5b600160571b831615611ee0576f80000000162e42fefc25eb1571853a6602607f1c5b600160561b831615611f02576f800000000b17217f7d97f692baacded502607f1c5b600160551b831615611f24576f80000000058b90bfbead3b8b5dd254d702607f1c5b600160541b831615611f46576f8000000002c5c85fdf4eedd62f084e6702607f1c5b600160531b831615611f68576f800000000162e42fefa58aef378bf58602607f1c5b600160521b831615611f8a576f8000000000b17217f7d24a78a3c7ef0202607f1c5b600160511b831615611fac576f800000000058b90bfbe9067c93e474a602607f1c5b600160501b831615611fce576f80000000002c5c85fdf47b8e5a72599f02607f1c5b6001604f1b831615611ff0576f8000000000162e42fefa3bdb315934a202607f1c5b6001604e1b831615612012576f80000000000b17217f7d1d7299b49c4602607f1c5b6001604d1b831615612034576f8000000000058b90bfbe8e9a8d1c4ea002607f1c5b6001604c1b831615612056576f800000000002c5c85fdf4745969ea76f02607f1c5b6001604b1b831615612078576f80000000000162e42fefa3a0df5373bf02607f1c5b6001604a1b83161561209a576f800000000000b17217f7d1cff4aac1e102607f1c5b600160491b8316156120bc576f80000000000058b90bfbe8e7db95a2f102607f1c5b600160481b8316156120de576f8000000000002c5c85fdf473e61ae1f802607f1c5b600160471b831615612100576f800000000000162e42fefa39f121751c02607f1c5b600160461b831615612122576f8000000000000b17217f7d1cf815bb9602607f1c5b600160451b831615612144576f800000000000058b90bfbe8e7bec1e0d02607f1c5b600160441b831615612166576f80000000000002c5c85fdf473dee5f1702607f1c5b600160431b831615612188576f8000000000000162e42fefa39ef5438f02607f1c5b600160421b8316156121aa576f80000000000000b17217f7d1cf7a26c802607f1c5b600160411b8316156121cc576f8000000000000058b90bfbe8e7bcf4a402607f1c5b600160401b8316156121ee576f800000000000002c5c85fdf473de72a202607f1c5b6001603f1b831615612210576f80000000000000162e42fefa39ef376502607f1c5b6001603e1b831615612232576f800000000000000b17217f7d1cf79b3702607f1c5b6001603d1b831615612254576f80000000000000058b90bfbe8e7bcd7d02607f1c5b6001603c1b831615612276576f8000000000000002c5c85fdf473de6b602607f1c5b6001603b1b831615612298576f800000000000000162e42fefa39ef35902607f1c5b6001603a1b8316156122ba576f8000000000000000b17217f7d1cf79ac02607f1c5b607f607984901c811690036001600160801b03161c9050919050565b60006001600160801b0382166122eb57600080fd5b6001600160801b038216607f60791b600160401b8210156123185760409190911b9060016001607f1b0319015b600160601b8210156123365760209190911b9060016001607e1b0319015b600160701b8210156123545760109190911b9060016001607d1b0319015b600160781b8210156123725760089190911b9060016001607c1b0319015b6001607c1b8210156123905760049190911b9060016001607b1b0319015b6001607e1b8210156123ae5760029190911b9060016001607a1b0319015b6001607f1b8210156123cc5760019190911b906001600160791b0319015b908002607f1c90600160801b82106123ec5760019190911c90600160781b175b908002607f1c90600160801b821061240c5760019190911c90600160771b175b908002607f1c90600160801b821061242c5760019190911c90600160761b175b908002607f1c90600160801b821061244c5760019190911c90600160751b175b908002607f1c90600160801b821061246c5760019190911c90600160741b175b908002607f1c90600160801b821061248c5760019190911c90600160731b175b908002607f1c90600160801b82106124ac5760019190911c90600160721b175b908002607f1c90600160801b82106124cc5760019190911c90600160711b175b908002607f1c90600160801b82106124ec5760019190911c90600160701b175b908002607f1c90600160801b821061250c5760019190911c906001606f1b175b908002607f1c90600160801b821061252c5760019190911c906001606e1b175b908002607f1c90600160801b821061254c5760019190911c906001606d1b175b908002607f1c90600160801b821061256c5760019190911c906001606c1b175b908002607f1c90600160801b821061258c5760019190911c906001606b1b175b908002607f1c90600160801b82106125ac5760019190911c906001606a1b175b908002607f1c90600160801b82106125cc5760019190911c90600160691b175b908002607f1c90600160801b82106125ec5760019190911c90600160681b175b908002607f1c90600160801b821061260c5760019190911c90600160671b175b908002607f1c90600160801b821061262c5760019190911c90600160661b175b908002607f1c90600160801b821061264c5760019190911c90600160651b175b908002607f1c90600160801b821061266c5760019190911c90600160641b175b908002607f1c90600160801b821061268c5760019190911c90600160631b175b908002607f1c90600160801b82106126ac5760019190911c90600160621b175b908002607f1c90600160801b82106126cc5760019190911c90600160611b175b908002607f1c90600160801b82106126ec5760019190911c90600160601b175b908002607f1c90600160801b821061270c5760019190911c906001605f1b175b908002607f1c90600160801b821061272c5760019190911c906001605e1b175b908002607f1c90600160801b821061274c5760019190911c906001605d1b175b908002607f1c90600160801b821061276c5760019190911c906001605c1b175b908002607f1c90600160801b821061278c5760019190911c906001605b1b175b908002607f1c90600160801b82106127ac5760019190911c906001605a1b175b908002607f1c90600160801b82106127cc5760019190911c90600160591b175b908002607f1c90600160801b82106127ec5760019190911c90600160581b175b908002607f1c90600160801b821061280c5760019190911c90600160571b175b908002607f1c90600160801b821061282c5760019190911c90600160561b175b908002607f1c90600160801b821061284c5760019190911c90600160551b175b908002607f1c90600160801b821061286c5760019190911c90600160541b175b908002607f1c90600160801b821061288c5760019190911c90600160531b175b908002607f1c90600160801b82106128ac5760019190911c90600160521b175b908002607f1c90600160801b82106128cc5760019190911c90600160511b175b908002607f1c90600160801b82106128ec5760019190911c90600160501b175b908002607f1c90600160801b821061290c5760019190911c906001604f1b175b908002607f1c90600160801b821061292c5760019190911c906001604e1b175b908002607f1c90600160801b821061294c5760019190911c906001604d1b175b908002607f1c90600160801b821061296c5760019190911c906001604c1b175b908002607f1c90600160801b821061298c5760019190911c906001604b1b175b908002607f1c90600160801b82106129ac5760019190911c906001604a1b175b908002607f1c90600160801b82106129cc5760019190911c90600160491b175b908002607f1c90600160801b82106129ec5760019190911c90600160481b175b908002607f1c90600160801b8210612a0c5760019190911c90600160471b175b908002607f1c90600160801b8210612a2c5760019190911c90600160461b175b908002607f1c90600160801b8210612a4c5760019190911c90600160451b175b908002607f1c90600160801b8210612a6c5760019190911c90600160441b175b908002607f1c90600160801b8210612a8c5760019190911c90600160431b175b908002607f1c90600160801b8210612aac5760019190911c90600160421b175b908002607f1c90600160801b8210612acc5760019190911c90600160411b175b908002607f1c90600160801b8210612aec5760019190911c90600160401b175b908002607f1c90600160801b8210612b0c5760019190911c906001603f1b175b908002607f1c90600160801b8210612b2c5760019190911c906001603e1b175b908002607f1c90600160801b8210612b4c5760019190911c906001603d1b175b908002607f1c90600160801b8210612b6c5760019190911c906001603c1b175b908002607f1c90600160801b8210612b8c5760019190911c906001603b1b175b908002607f1c90600160801b8210612bac5760019190911c906001603a1b175b908002607f1c90600160801b8210612bcc5760019190911c90600160391b175b908002607f1c90600160801b8210612bec5760019190911c90600160381b175b908002607f1c90600160801b8210612c0f5760019190911c906680000000000000175b908002607f1c90600160801b8210612c325760019190911c906640000000000000175b908002607f1c90600160801b8210612c555760019190911c906620000000000000175b908002607f1c90600160801b8210612c785760019190911c906610000000000000175b908002607f1c90600160801b8210612c9b5760019190911c906608000000000000175b908002607f1c90600160801b8210612cbe5760019190911c906604000000000000175b908002607f1c90600160801b8210612ce15760019190911c906602000000000000175b908002607f1c90600160801b8210612d045760019190911c906601000000000000175b908002607f1c90600160801b8210612d265760019190911c9065800000000000175b908002607f1c90600160801b8210612d485760019190911c9065400000000000175b908002607f1c90600160801b8210612d6a5760019190911c9065200000000000175b908002607f1c90600160801b8210612d8c5760019190911c9065100000000000175b908002607f1c90600160801b8210612dae5760019190911c9065080000000000175b908002607f1c90600160801b8210612dd05760019190911c9065040000000000175b908002607f1c90600160801b8210612df25760019190911c9065020000000000175b908002607f1c90600160801b8210612e145760019190911c9065010000000000175b908002607f1c90600160801b8210612e355760019190911c90648000000000175b908002607f1c90600160801b8210612e565760019190911c90644000000000175b908002607f1c90600160801b8210612e775760019190911c90642000000000175b908002607f1c90600160801b8210612e985760019190911c90641000000000175b908002607f1c90600160801b8210612eb95760019190911c90640800000000175b908002607f1c90600160801b8210612eda5760019190911c90640400000000175b908002607f1c90600160801b8210612efb5760019190911c90640200000000175b908002607f1c90600160801b8210612f1c5760019190911c90640100000000175b908002607f1c90600160801b8210612f3c5760019190911c906380000000175b908002607f1c90600160801b8210612f5c5760019190911c906340000000175b908002607f1c90600160801b8210612f7c5760019190911c906320000000175b908002607f1c90600160801b8210612f9c5760019190911c906310000000175b908002607f1c90600160801b8210612fbc5760019190911c906308000000175b908002607f1c90600160801b8210612fdc5760019190911c906304000000175b908002607f1c90600160801b8210612ffc5760019190911c906302000000175b908002607f1c90600160801b821061301c5760019190911c906301000000175b908002607f1c90600160801b821061303b5760019190911c9062800000175b908002607f1c90600160801b821061305a5760019190911c9062400000175b908002607f1c90600160801b82106130795760019190911c9062200000175b908002607f1c90600160801b82106130985760019190911c9062100000175b908002607f1c90600160801b82106130b75760019190911c9062080000175b908002607f1c90600160801b82106130d65760019190911c9062040000175b908002607f1c90600160801b82106130f55760019190911c9062020000175b908002607f1c90600160801b82106131145760019190911c9062010000175b908002607f1c90600160801b82106131325760019190911c90618000175b908002607f1c90600160801b82106131505760019190911c90614000175b908002607f1c90600160801b821061316e5760019190911c90612000175b908002607f1c90600160801b821061318c5760019190911c90611000175b908002607f1c90600160801b82106131aa5760019190911c90610800175b908002607f1c90600160801b82106131c85760019190911c90610400175b908002607f1c90600160801b82106131e65760019190911c90610200175b908002607f1c90600160801b82106132045760019190911c90610100175b908002607f1c90600160801b82106132215760019190911c906080175b908002607f1c90600160801b821061323e5760019190911c906040175b908002607f1c90600160801b821061325b5760019190911c906020175b908002607f1c90600160801b82106132785760019190911c906010175b908002607f1c90600160801b82106132955760019190911c906008175b908002607f1c90600160801b82106132b25760019190911c906004175b908002607f1c90600160801b82106132cf5760019190911c906002175b908002607f1c90600160801b821061103e576001179392505050565b60006001607f1b600160781b831615613314576fb504f333f9de6484597d89b3754abe9f02607f1c5b600160771b831615613336576f9837f0518db8a96f46ad23182e42f6f602607f1c5b600160761b831615613358576f8b95c1e3ea8bd6e6fbe4628758a53c9002607f1c5b600160751b83161561337a576f85aac367cc487b14c5c95b8c2154c1b202607f1c5b600160741b83161561339c576f82cd8698ac2ba1d73e2a475b46520bff02607f1c5b600160731b8316156133be576f8164d1f3bc0307737be56527bd14def402607f1c5b600160721b8316156133e0576f80b1ed4fd999ab6c25335719b6e6fd2002607f1c5b600160711b831615613402576f8058d7d2d5e5f6b094d589f608ee4aa202607f1c5b600160701b831615613424576f802c6436d0e04f50ff8ce94a6797b3ce02607f1c5b6001606f1b831615613446576f8016302f174676283690dfe44d11d00802607f1c5b6001606e1b831615613468576f800b179c82028fd0945e54e2ae18f2f002607f1c5b6001606d1b83161561348a576f80058baf7fee3b5d1c718b38e549cb9302607f1c5b6001606c1b8316156134ac576f8002c5d00fdcfcb6b6566a58c048be1f02607f1c5b6001606b1b8316156134ce576f800162e61bed4a48e84c2e1a463473d902607f1c5b6001606a1b8316156134f0576f8000b17292f702a3aa22beacca94901302607f1c5b600160691b831615613512576f800058b92abbae02030c5fa5256f41fe02607f1c5b600160681b831615613534576f80002c5c8dade4d71776c0f4dbea67d602607f1c5b600160671b831615613556576f8000162e44eaf636526be456600bdbe402607f1c5b600160661b831615613578576f80000b1721fa7c188307016c1cd4e8b602607f1c5b600160651b83161561359a576f8000058b90de7e4cecfc487503488bb102607f1c5b600160641b8316156135bc576f800002c5c8678f36cbfce50a6de60b1402607f1c5b600160631b8316156135de576f80000162e431db9f80b2347b5d62e51602607f1c5b600160621b831615613600576f800000b1721872d0c7b08cf1e011415202607f1c5b600160611b831615613622576f80000058b90c1aa8a5c3736cb77e8dff02607f1c5b600160601b831615613644576f8000002c5c8605a4635f2efc2362d97802607f1c5b6001605f1b831615613666576f800000162e4300e635cf4a109e3939bd02607f1c5b6001605e1b831615613688576f8000000b17217ff81bef9c551590cf8302607f1c5b6001605d1b8316156136aa576f800000058b90bfdd4e39cd52c0cfa27c02607f1c5b6001605c1b8316156136cc576f80000002c5c85fe6f72d669e0e76e41102607f1c5b6001605b1b8316156136ee576f8000000162e42ff18f9ad35186d0df2802607f1c5b6001605a1b831615613710576f80000000b17217f84cce71aa0dcfffe702607f1c5b600160591b831615613732576f8000000058b90bfc07a77ad56ed22aaa02607f1c5b600160581b831615613754576f800000002c5c85fdfc23cdead40da8d602607f1c5b600160571b831615613776576f80000000162e42fefc25eb1571853a6602607f1c5b600160561b831615613798576f800000000b17217f7d97f692baacded502607f1c5b600160551b8316156137ba576f80000000058b90bfbead3b8b5dd254d702607f1c5b600160541b8316156137dc576f8000000002c5c85fdf4eedd62f084e6702607f1c5b600160531b8316156137fe576f800000000162e42fefa58aef378bf58602607f1c5b600160521b831615613820576f8000000000b17217f7d24a78a3c7ef0202607f1c5b600160511b831615613842576f800000000058b90bfbe9067c93e474a602607f1c5b600160501b831615613864576f80000000002c5c85fdf47b8e5a72599f02607f1c5b6001604f1b831615613886576f8000000000162e42fefa3bdb315934a202607f1c5b6001604e1b8316156138a8576f80000000000b17217f7d1d7299b49c4602607f1c5b6001604d1b8316156138ca576f8000000000058b90bfbe8e9a8d1c4ea002607f1c5b6001604c1b8316156138ec576f800000000002c5c85fdf4745969ea76f02607f1c5b6001604b1b83161561390e576f80000000000162e42fefa3a0df5373bf02607f1c5b6001604a1b831615613930576f800000000000b17217f7d1cff4aac1e102607f1c5b600160491b831615613952576f80000000000058b90bfbe8e7db95a2f102607f1c5b600160481b831615613974576f8000000000002c5c85fdf473e61ae1f802607f1c5b600160471b831615613996576f800000000000162e42fefa39f121751c02607f1c5b600160461b8316156139b8576f8000000000000b17217f7d1cf815bb9602607f1c5b600160451b8316156139da576f800000000000058b90bfbe8e7bec1e0d02607f1c5b600160441b8316156139fc576f80000000000002c5c85fdf473dee5f1702607f1c5b600160431b831615613a1e576f8000000000000162e42fefa39ef5438f02607f1c5b600160421b831615613a40576f80000000000000b17217f7d1cf7a26c802607f1c5b600160411b831615613a62576f8000000000000058b90bfbe8e7bcf4a402607f1c5b600160401b831615613a84576f800000000000002c5c85fdf473de72a202607f1c5b6001603f1b831615613aa6576f80000000000000162e42fefa39ef376502607f1c5b6001603e1b831615613ac8576f800000000000000b17217f7d1cf79b3702607f1c5b6001603d1b831615613aea576f80000000000000058b90bfbe8e7bcd7d02607f1c5b6001603c1b831615613b0c576f8000000000000002c5c85fdf473de6b602607f1c5b6001603b1b831615613b2e576f800000000000000162e42fefa39ef35902607f1c5b6001603a1b831615613b50576f8000000000000000b17217f7d1cf79ac02607f1c5b600160391b831615613b72576f800000000000000058b90bfbe8e7bcd602607f1c5b600160381b831615613b94576f80000000000000002c5c85fdf473de6a02607f1c5b6680000000000000831615613bb9576f8000000000000000162e42fefa39ef3502607f1c5b6640000000000000831615613bde576f80000000000000000b17217f7d1cf79a02607f1c5b6620000000000000831615613c03576f8000000000000000058b90bfbe8e7bcd02607f1c5b6610000000000000831615613c28576f800000000000000002c5c85fdf473de602607f1c5b6608000000000000831615613c4d576f80000000000000000162e42fefa39ef302607f1c5b6604000000000000831615613c72576f800000000000000000b17217f7d1cf7902607f1c5b6602000000000000831615613c97576f80000000000000000058b90bfbe8e7bc02607f1c5b6601000000000000831615613cbc576f8000000000000000002c5c85fdf473de02607f1c5b65800000000000831615613ce0576f800000000000000000162e42fefa39ef02607f1c5b65400000000000831615613d04576f8000000000000000000b17217f7d1cf702607f1c5b65200000000000831615613d28576f800000000000000000058b90bfbe8e7b02607f1c5b65100000000000831615613d4c576f80000000000000000002c5c85fdf473d02607f1c5b65080000000000831615613d70576f8000000000000000000162e42fefa39e02607f1c5b65040000000000831615613d94576f80000000000000000000b17217f7d1cf02607f1c5b65020000000000831615613db8576f8000000000000000000058b90bfbe8e702607f1c5b65010000000000831615613ddc576f800000000000000000002c5c85fdf47302607f1c5b648000000000831615613dff576f80000000000000000000162e42fefa3902607f1c5b644000000000831615613e22576f800000000000000000000b17217f7d1c02607f1c5b642000000000831615613e45576f80000000000000000000058b90bfbe8e02607f1c5b641000000000831615613e68576f8000000000000000000002c5c85fdf4702607f1c5b640800000000831615613e8b576f800000000000000000000162e42fefa302607f1c5b640400000000831615613eae576f8000000000000000000000b17217f7d102607f1c5b640200000000831615613ed1576f800000000000000000000058b90bfbe802607f1c5b640100000000831615613ef4576f80000000000000000000002c5c85fdf402607f1c5b6380000000831615613f16576f8000000000000000000000162e42fefa02607f1c5b6340000000831615613f38576f80000000000000000000000b17217f7d02607f1c5b6320000000831615613f5a576f8000000000000000000000058b90bfbe02607f1c5b6310000000831615613f7c576f800000000000000000000002c5c85fdf02607f1c5b6308000000831615613f9e576f80000000000000000000000162e42fef02607f1c5b6304000000831615613fc0576f800000000000000000000000b17217f702607f1c5b6302000000831615613fe2576f80000000000000000000000058b90bfb02607f1c5b6301000000831615614004576f8000000000000000000000002c5c85fd02607f1c5b62800000831615614025576f800000000000000000000000162e42fe02607f1c5b62400000831615614046576f8000000000000000000000000b17217f02607f1c5b62200000831615614067576f800000000000000000000000058b90bf02607f1c5b62100000831615614088576f80000000000000000000000002c5c85f02607f1c5b620800008316156140a9576f8000000000000000000000000162e42f02607f1c5b620400008316156140ca576f80000000000000000000000000b1721702607f1c5b620200008316156140eb576f8000000000000000000000000058b90b02607f1c5b6201000083161561410c576f800000000000000000000000002c5c8502607f1c5b61800083161561412c576f80000000000000000000000000162e4202607f1c5b61400083161561414c576f800000000000000000000000000b172102607f1c5b61200083161561416c576f80000000000000000000000000058b9002607f1c5b61100083161561418c576f8000000000000000000000000002c5c802607f1c5b6108008316156141ac576f800000000000000000000000000162e402607f1c5b6104008316156141cc576f8000000000000000000000000000b17202607f1c5b6102008316156141ec576f800000000000000000000000000058b902607f1c5b61010083161561420c576f80000000000000000000000000002c5c02607f1c5b608083161561422b576f8000000000000000000000000000162e02607f1c5b604083161561424a576f80000000000000000000000000000b1702607f1c5b6020831615614269576f8000000000000000000000000000058b02607f1c5b6010831615614288576f800000000000000000000000000002c502607f1c5b60088316156142a7576f8000000000000000000000000000016202607f1c5b60048316156142c6576f800000000000000000000000000000b102607f1c5b60028316156142e5576f8000000000000000000000000000005802607f1c5b60018316156122ba576f8000000000000000000000000000002c02607f1c607f607984901c811690036001600160801b03161c9050919050565b60006001600160801b03821661433457600080fd5b6001600160801b038216607f60791b600160401b8210156143615760409190911b9060016001607f1b0319015b600160601b82101561437f5760209190911b9060016001607e1b0319015b600160701b82101561439d5760109190911b9060016001607d1b0319015b600160781b8210156143bb5760089190911b9060016001607c1b0319015b6001607c1b8210156143d95760049190911b9060016001607b1b0319015b6001607e1b8210156143f75760029190911b9060016001607a1b0319015b6001607f1b8210156144155760019190911b906001600160791b0319015b908002607f1c90600160801b82106144355760019190911c90600160781b175b908002607f1c90600160801b82106144555760019190911c90600160771b175b908002607f1c90600160801b82106144755760019190911c90600160761b175b908002607f1c90600160801b82106144955760019190911c90600160751b175b908002607f1c90600160801b82106144b55760019190911c90600160741b175b908002607f1c90600160801b82106144d55760019190911c90600160731b175b908002607f1c90600160801b82106144f55760019190911c90600160721b175b908002607f1c90600160801b82106145155760019190911c90600160711b175b908002607f1c90600160801b82106145355760019190911c90600160701b175b908002607f1c90600160801b82106145555760019190911c906001606f1b175b908002607f1c90600160801b82106145755760019190911c906001606e1b175b908002607f1c90600160801b82106145955760019190911c906001606d1b175b908002607f1c90600160801b82106145b55760019190911c906001606c1b175b908002607f1c90600160801b82106145d55760019190911c906001606b1b175b908002607f1c90600160801b82106145f55760019190911c906001606a1b175b908002607f1c90600160801b82106146155760019190911c90600160691b175b908002607f1c90600160801b82106146355760019190911c90600160681b175b908002607f1c90600160801b82106146555760019190911c90600160671b175b908002607f1c90600160801b82106146755760019190911c90600160661b175b908002607f1c90600160801b82106146955760019190911c90600160651b175b908002607f1c90600160801b82106146b55760019190911c90600160641b175b908002607f1c90600160801b82106146d55760019190911c90600160631b175b908002607f1c90600160801b82106146f55760019190911c90600160621b175b908002607f1c90600160801b82106147155760019190911c90600160611b175b908002607f1c90600160801b82106147355760019190911c90600160601b175b908002607f1c90600160801b82106147555760019190911c906001605f1b175b908002607f1c90600160801b82106147755760019190911c906001605e1b175b908002607f1c90600160801b82106147955760019190911c906001605d1b175b908002607f1c90600160801b82106147b55760019190911c906001605c1b175b908002607f1c90600160801b82106147d55760019190911c906001605b1b175b908002607f1c90600160801b82106147f55760019190911c906001605a1b175b908002607f1c90600160801b82106148155760019190911c90600160591b175b908002607f1c90600160801b82106148355760019190911c90600160581b175b908002607f1c90600160801b82106148555760019190911c90600160571b175b908002607f1c90600160801b82106148755760019190911c90600160561b175b908002607f1c90600160801b82106148955760019190911c90600160551b175b908002607f1c90600160801b82106148b55760019190911c90600160541b175b908002607f1c90600160801b82106148d55760019190911c90600160531b175b908002607f1c90600160801b82106148f55760019190911c90600160521b175b908002607f1c90600160801b821061103e57600160511b179392505050565b60006001607f1b600160781b83161561493d576fb504f333f9de6484597d89b3754abe9f02607f1c5b600160771b83161561495f576f9837f0518db8a96f46ad23182e42f6f602607f1c5b600160761b831615614981576f8b95c1e3ea8bd6e6fbe4628758a53c9002607f1c5b600160751b8316156149a3576f85aac367cc487b14c5c95b8c2154c1b202607f1c5b600160741b8316156149c5576f82cd8698ac2ba1d73e2a475b46520bff02607f1c5b600160731b8316156149e7576f8164d1f3bc0307737be56527bd14def402607f1c5b600160721b831615614a09576f80b1ed4fd999ab6c25335719b6e6fd2002607f1c5b600160711b831615614a2b576f8058d7d2d5e5f6b094d589f608ee4aa202607f1c5b600160701b831615614a4d576f802c6436d0e04f50ff8ce94a6797b3ce02607f1c5b6001606f1b831615614a6f576f8016302f174676283690dfe44d11d00802607f1c5b6001606e1b831615614a91576f800b179c82028fd0945e54e2ae18f2f002607f1c5b6001606d1b831615614ab3576f80058baf7fee3b5d1c718b38e549cb9302607f1c5b6001606c1b831615614ad5576f8002c5d00fdcfcb6b6566a58c048be1f02607f1c5b6001606b1b831615614af7576f800162e61bed4a48e84c2e1a463473d902607f1c5b6001606a1b831615614b19576f8000b17292f702a3aa22beacca94901302607f1c5b600160691b831615614b3b576f800058b92abbae02030c5fa5256f41fe02607f1c5b600160681b831615614b5d576f80002c5c8dade4d71776c0f4dbea67d602607f1c5b600160671b831615614b7f576f8000162e44eaf636526be456600bdbe402607f1c5b600160661b831615614ba1576f80000b1721fa7c188307016c1cd4e8b602607f1c5b600160651b831615614bc3576f8000058b90de7e4cecfc487503488bb102607f1c5b600160641b831615614be5576f800002c5c8678f36cbfce50a6de60b1402607f1c5b600160631b831615614c07576f80000162e431db9f80b2347b5d62e51602607f1c5b600160621b831615614c29576f800000b1721872d0c7b08cf1e011415202607f1c5b600160611b831615614c4b576f80000058b90c1aa8a5c3736cb77e8dff02607f1c5b600160601b831615614c6d576f8000002c5c8605a4635f2efc2362d97802607f1c5b6001605f1b831615614c8f576f800000162e4300e635cf4a109e3939bd02607f1c5b6001605e1b831615614cb1576f8000000b17217ff81bef9c551590cf8302607f1c5b6001605d1b831615614cd3576f800000058b90bfdd4e39cd52c0cfa27c02607f1c5b6001605c1b831615614cf5576f80000002c5c85fe6f72d669e0e76e41102607f1c5b6001605b1b831615614d17576f8000000162e42ff18f9ad35186d0df2802607f1c5b6001605a1b831615614d39576f80000000b17217f84cce71aa0dcfffe702607f1c5b600160591b831615614d5b576f8000000058b90bfc07a77ad56ed22aaa02607f1c5b600160581b831615614d7d576f800000002c5c85fdfc23cdead40da8d602607f1c5b600160571b831615614d9f576f80000000162e42fefc25eb1571853a6602607f1c5b600160561b831615614dc1576f800000000b17217f7d97f692baacded502607f1c5b600160551b831615614de3576f80000000058b90bfbead3b8b5dd254d702607f1c5b600160541b831615614e05576f8000000002c5c85fdf4eedd62f084e6702607f1c5b600160531b831615614e27576f800000000162e42fefa58aef378bf58602607f1c5b600160521b831615614e49576f8000000000b17217f7d24a78a3c7ef0202607f1c5b600160511b831615614e6b576f800000000058b90bfbe9067c93e474a602607f1c5b600160501b831615614e8d576f80000000002c5c85fdf47b8e5a72599f02607f1c5b6001604f1b831615614eaf576f8000000000162e42fefa3bdb315934a202607f1c5b6001604e1b831615614ed1576f80000000000b17217f7d1d7299b49c4602607f1c5b6001604d1b831615614ef3576f8000000000058b90bfbe8e9a8d1c4ea002607f1c5b6001604c1b831615614f15576f800000000002c5c85fdf4745969ea76f02607f1c5b6001604b1b831615614f37576f80000000000162e42fefa3a0df5373bf02607f1c5b6001604a1b831615614f59576f800000000000b17217f7d1cff4aac1e102607f1c5b600160491b8316156122ba576f80000000000058b90bfbe8e7db95a2f102607f1c607f607984901c811690036001600160801b03161c905091905056fea264697066735822122002826de9c3cbc21d30225dfb0d94b0774f7da28d487dfe0b0a242f705e3903d164736f6c634300060a0033",
  "source": "// SPDX-License-Identifier: GPL-3.0-or-later\npragma solidity ^0.6.10;\n\nimport \"../market/YieldMath.sol\";\nimport \"../mocks/YieldMath64.sol\";\nimport \"../mocks/YieldMath48.sol\";\n\n\ncontract YieldMathMock {\n    function yDaiOutForDaiIn (\n        uint128 daiReserves, uint128 yDAIReserves, uint128 daiAmount,\n        uint128 timeTillMaturity, int128 k, int128 g)\n    external pure returns (uint128) {\n        return YieldMath.yDaiOutForDaiIn(daiReserves, yDAIReserves, daiAmount, timeTillMaturity, k, g);\n    }\n\n    function daiOutForYDaiIn (\n        uint128 daiReserves, uint128 yDAIReserves, uint128 yDAIAmount,\n        uint128 timeTillMaturity, int128 k, int128 g)\n    external pure returns (uint128) {\n        return YieldMath.daiOutForYDaiIn(daiReserves, yDAIReserves, yDAIAmount, timeTillMaturity, k, g);\n    }\n\n    function yDaiInForDaiOut (\n        uint128 daiReserves, uint128 yDAIReserves, uint128 daiAmount,\n        uint128 timeTillMaturity, int128 k, int128 g)\n    external pure returns (uint128) {\n        return YieldMath.yDaiInForDaiOut(daiReserves, yDAIReserves, daiAmount, timeTillMaturity, k, g);\n    }\n\n    function daiInForYDaiOut (\n        uint128 daiReserves, uint128 yDAIReserves, uint128 yDAIAmount,\n        uint128 timeTillMaturity, int128 k, int128 g)\n    external pure returns (uint128) {\n        return YieldMath.daiInForYDaiOut(daiReserves, yDAIReserves, yDAIAmount, timeTillMaturity, k, g);\n    }\n\n    // --- 64 ---\n\n    function yDaiOutForDaiIn64 (\n        uint128 daiReserves, uint128 yDAIReserves, uint128 daiAmount,\n        uint128 timeTillMaturity, int128 k, int128 g)\n    external pure returns (uint128) {\n        return YieldMath64.yDaiOutForDaiIn(daiReserves, yDAIReserves, daiAmount, timeTillMaturity, k, g);\n    }\n\n    function daiOutForYDaiIn64 (\n        uint128 daiReserves, uint128 yDAIReserves, uint128 yDAIAmount,\n        uint128 timeTillMaturity, int128 k, int128 g)\n    external pure returns (uint128) {\n        return YieldMath64.daiOutForYDaiIn(daiReserves, yDAIReserves, yDAIAmount, timeTillMaturity, k, g);\n    }\n\n    function yDaiInForDaiOut64 (\n        uint128 daiReserves, uint128 yDAIReserves, uint128 daiAmount,\n        uint128 timeTillMaturity, int128 k, int128 g)\n    external pure returns (uint128) {\n        return YieldMath64.yDaiInForDaiOut(daiReserves, yDAIReserves, daiAmount, timeTillMaturity, k, g);\n    }\n\n    function daiInForYDaiOut64 (\n        uint128 daiReserves, uint128 yDAIReserves, uint128 yDAIAmount,\n        uint128 timeTillMaturity, int128 k, int128 g)\n    external pure returns (uint128) {\n        return YieldMath64.daiInForYDaiOut(daiReserves, yDAIReserves, yDAIAmount, timeTillMaturity, k, g);\n    }\n\n    // --- 48 ---\n\n    function yDaiOutForDaiIn48 (\n        uint128 daiReserves, uint128 yDAIReserves, uint128 daiAmount,\n        uint128 timeTillMaturity, int128 k, int128 g)\n    external pure returns (uint128) {\n        return YieldMath48.yDaiOutForDaiIn(daiReserves, yDAIReserves, daiAmount, timeTillMaturity, k, g);\n    }\n\n    function daiOutForYDaiIn48 (\n        uint128 daiReserves, uint128 yDAIReserves, uint128 yDAIAmount,\n        uint128 timeTillMaturity, int128 k, int128 g)\n    external pure returns (uint128) {\n        return YieldMath48.daiOutForYDaiIn(daiReserves, yDAIReserves, yDAIAmount, timeTillMaturity, k, g);\n    }\n\n    function yDaiInForDaiOut48 (\n        uint128 daiReserves, uint128 yDAIReserves, uint128 daiAmount,\n        uint128 timeTillMaturity, int128 k, int128 g)\n    external pure returns (uint128) {\n        return YieldMath48.yDaiInForDaiOut(daiReserves, yDAIReserves, daiAmount, timeTillMaturity, k, g);\n    }\n\n    function daiInForYDaiOut48 (\n        uint128 daiReserves, uint128 yDAIReserves, uint128 yDAIAmount,\n        uint128 timeTillMaturity, int128 k, int128 g)\n    external pure returns (uint128) {\n        return YieldMath48.daiInForYDaiOut(daiReserves, yDAIReserves, yDAIAmount, timeTillMaturity, k, g);\n    }\n}",
  "sourcePath": "/Users/bruce/dev/yieldprotocol/ytoken-mvp/contracts/mocks/YieldMathMock.sol",
  "compiler": {
    "name": "solc",
    "version": "0.6.10+commit.00c0fcaf.Emscripten.clang"
  },
  "schemaVersion": "3.0.23",
  "updatedAt": "2020-07-20T10:58:15.552Z",
  "devdoc": {
    "methods": {}
  },
  "userdoc": {
    "methods": {}
  }
}