{
  "contractName": "YieldMathMock",
  "abi": [
    {
      "inputs": [
        {
          "internalType": "uint128",
          "name": "daiReserves",
          "type": "uint128"
        },
        {
          "internalType": "uint128",
          "name": "yDAIReserves",
          "type": "uint128"
        },
        {
          "internalType": "uint128",
          "name": "daiAmount",
          "type": "uint128"
        },
        {
          "internalType": "uint128",
          "name": "timeTillMaturity",
          "type": "uint128"
        },
        {
          "internalType": "int128",
          "name": "k",
          "type": "int128"
        },
        {
          "internalType": "int128",
          "name": "g",
          "type": "int128"
        }
      ],
      "name": "yDaiOutForDaiIn128",
      "outputs": [
        {
          "internalType": "uint128",
          "name": "",
          "type": "uint128"
        }
      ],
      "stateMutability": "pure",
      "type": "function"
    },
    {
      "inputs": [
        {
          "internalType": "uint128",
          "name": "daiReserves",
          "type": "uint128"
        },
        {
          "internalType": "uint128",
          "name": "yDAIReserves",
          "type": "uint128"
        },
        {
          "internalType": "uint128",
          "name": "yDAIAmount",
          "type": "uint128"
        },
        {
          "internalType": "uint128",
          "name": "timeTillMaturity",
          "type": "uint128"
        },
        {
          "internalType": "int128",
          "name": "k",
          "type": "int128"
        },
        {
          "internalType": "int128",
          "name": "g",
          "type": "int128"
        }
      ],
      "name": "daiOutForYDaiIn128",
      "outputs": [
        {
          "internalType": "uint128",
          "name": "",
          "type": "uint128"
        }
      ],
      "stateMutability": "pure",
      "type": "function"
    },
    {
      "inputs": [
        {
          "internalType": "uint128",
          "name": "daiReserves",
          "type": "uint128"
        },
        {
          "internalType": "uint128",
          "name": "yDAIReserves",
          "type": "uint128"
        },
        {
          "internalType": "uint128",
          "name": "daiAmount",
          "type": "uint128"
        },
        {
          "internalType": "uint128",
          "name": "timeTillMaturity",
          "type": "uint128"
        },
        {
          "internalType": "int128",
          "name": "k",
          "type": "int128"
        },
        {
          "internalType": "int128",
          "name": "g",
          "type": "int128"
        }
      ],
      "name": "yDaiInForDaiOut128",
      "outputs": [
        {
          "internalType": "uint128",
          "name": "",
          "type": "uint128"
        }
      ],
      "stateMutability": "pure",
      "type": "function"
    },
    {
      "inputs": [
        {
          "internalType": "uint128",
          "name": "daiReserves",
          "type": "uint128"
        },
        {
          "internalType": "uint128",
          "name": "yDAIReserves",
          "type": "uint128"
        },
        {
          "internalType": "uint128",
          "name": "yDAIAmount",
          "type": "uint128"
        },
        {
          "internalType": "uint128",
          "name": "timeTillMaturity",
          "type": "uint128"
        },
        {
          "internalType": "int128",
          "name": "k",
          "type": "int128"
        },
        {
          "internalType": "int128",
          "name": "g",
          "type": "int128"
        }
      ],
      "name": "daiInForYDaiOut128",
      "outputs": [
        {
          "internalType": "uint128",
          "name": "",
          "type": "uint128"
        }
      ],
      "stateMutability": "pure",
      "type": "function"
    },
    {
      "inputs": [
        {
          "internalType": "uint128",
          "name": "daiReserves",
          "type": "uint128"
        },
        {
          "internalType": "uint128",
          "name": "yDAIReserves",
          "type": "uint128"
        },
        {
          "internalType": "uint128",
          "name": "daiAmount",
          "type": "uint128"
        },
        {
          "internalType": "uint128",
          "name": "timeTillMaturity",
          "type": "uint128"
        },
        {
          "internalType": "int128",
          "name": "k",
          "type": "int128"
        },
        {
          "internalType": "int128",
          "name": "g",
          "type": "int128"
        }
      ],
      "name": "yDaiOutForDaiIn64",
      "outputs": [
        {
          "internalType": "uint128",
          "name": "",
          "type": "uint128"
        }
      ],
      "stateMutability": "pure",
      "type": "function"
    },
    {
      "inputs": [
        {
          "internalType": "uint128",
          "name": "daiReserves",
          "type": "uint128"
        },
        {
          "internalType": "uint128",
          "name": "yDAIReserves",
          "type": "uint128"
        },
        {
          "internalType": "uint128",
          "name": "yDAIAmount",
          "type": "uint128"
        },
        {
          "internalType": "uint128",
          "name": "timeTillMaturity",
          "type": "uint128"
        },
        {
          "internalType": "int128",
          "name": "k",
          "type": "int128"
        },
        {
          "internalType": "int128",
          "name": "g",
          "type": "int128"
        }
      ],
      "name": "daiOutForYDaiIn64",
      "outputs": [
        {
          "internalType": "uint128",
          "name": "",
          "type": "uint128"
        }
      ],
      "stateMutability": "pure",
      "type": "function"
    },
    {
      "inputs": [
        {
          "internalType": "uint128",
          "name": "daiReserves",
          "type": "uint128"
        },
        {
          "internalType": "uint128",
          "name": "yDAIReserves",
          "type": "uint128"
        },
        {
          "internalType": "uint128",
          "name": "daiAmount",
          "type": "uint128"
        },
        {
          "internalType": "uint128",
          "name": "timeTillMaturity",
          "type": "uint128"
        },
        {
          "internalType": "int128",
          "name": "k",
          "type": "int128"
        },
        {
          "internalType": "int128",
          "name": "g",
          "type": "int128"
        }
      ],
      "name": "yDaiInForDaiOut64",
      "outputs": [
        {
          "internalType": "uint128",
          "name": "",
          "type": "uint128"
        }
      ],
      "stateMutability": "pure",
      "type": "function"
    },
    {
      "inputs": [
        {
          "internalType": "uint128",
          "name": "daiReserves",
          "type": "uint128"
        },
        {
          "internalType": "uint128",
          "name": "yDAIReserves",
          "type": "uint128"
        },
        {
          "internalType": "uint128",
          "name": "yDAIAmount",
          "type": "uint128"
        },
        {
          "internalType": "uint128",
          "name": "timeTillMaturity",
          "type": "uint128"
        },
        {
          "internalType": "int128",
          "name": "k",
          "type": "int128"
        },
        {
          "internalType": "int128",
          "name": "g",
          "type": "int128"
        }
      ],
      "name": "daiInForYDaiOut64",
      "outputs": [
        {
          "internalType": "uint128",
          "name": "",
          "type": "uint128"
        }
      ],
      "stateMutability": "pure",
      "type": "function"
    },
    {
      "inputs": [
        {
          "internalType": "uint128",
          "name": "daiReserves",
          "type": "uint128"
        },
        {
          "internalType": "uint128",
          "name": "yDAIReserves",
          "type": "uint128"
        },
        {
          "internalType": "uint128",
          "name": "daiAmount",
          "type": "uint128"
        },
        {
          "internalType": "uint128",
          "name": "timeTillMaturity",
          "type": "uint128"
        },
        {
          "internalType": "int128",
          "name": "k",
          "type": "int128"
        },
        {
          "internalType": "int128",
          "name": "g",
          "type": "int128"
        }
      ],
      "name": "yDaiOutForDaiIn",
      "outputs": [
        {
          "internalType": "uint128",
          "name": "",
          "type": "uint128"
        }
      ],
      "stateMutability": "pure",
      "type": "function"
    },
    {
      "inputs": [
        {
          "internalType": "uint128",
          "name": "daiReserves",
          "type": "uint128"
        },
        {
          "internalType": "uint128",
          "name": "yDAIReserves",
          "type": "uint128"
        },
        {
          "internalType": "uint128",
          "name": "yDAIAmount",
          "type": "uint128"
        },
        {
          "internalType": "uint128",
          "name": "timeTillMaturity",
          "type": "uint128"
        },
        {
          "internalType": "int128",
          "name": "k",
          "type": "int128"
        },
        {
          "internalType": "int128",
          "name": "g",
          "type": "int128"
        }
      ],
      "name": "daiOutForYDaiIn",
      "outputs": [
        {
          "internalType": "uint128",
          "name": "",
          "type": "uint128"
        }
      ],
      "stateMutability": "pure",
      "type": "function"
    },
    {
      "inputs": [
        {
          "internalType": "uint128",
          "name": "daiReserves",
          "type": "uint128"
        },
        {
          "internalType": "uint128",
          "name": "yDAIReserves",
          "type": "uint128"
        },
        {
          "internalType": "uint128",
          "name": "daiAmount",
          "type": "uint128"
        },
        {
          "internalType": "uint128",
          "name": "timeTillMaturity",
          "type": "uint128"
        },
        {
          "internalType": "int128",
          "name": "k",
          "type": "int128"
        },
        {
          "internalType": "int128",
          "name": "g",
          "type": "int128"
        }
      ],
      "name": "yDaiInForDaiOut",
      "outputs": [
        {
          "internalType": "uint128",
          "name": "",
          "type": "uint128"
        }
      ],
      "stateMutability": "pure",
      "type": "function"
    },
    {
      "inputs": [
        {
          "internalType": "uint128",
          "name": "daiReserves",
          "type": "uint128"
        },
        {
          "internalType": "uint128",
          "name": "yDAIReserves",
          "type": "uint128"
        },
        {
          "internalType": "uint128",
          "name": "yDAIAmount",
          "type": "uint128"
        },
        {
          "internalType": "uint128",
          "name": "timeTillMaturity",
          "type": "uint128"
        },
        {
          "internalType": "int128",
          "name": "k",
          "type": "int128"
        },
        {
          "internalType": "int128",
          "name": "g",
          "type": "int128"
        }
      ],
      "name": "daiInForYDaiOut",
      "outputs": [
        {
          "internalType": "uint128",
          "name": "",
          "type": "uint128"
        }
      ],
      "stateMutability": "pure",
      "type": "function"
    }
  ],
  "bytecode": "0x608060405234801561001057600080fd5b506153df806100206000396000f3fe608060405234801561001057600080fd5b50600436106100b45760003560e01c8063832022891161007157806383202289146102c757806398f799381461031a578063a9ab56e61461036d578063f091b751146103c0578063fc12aec514610413578063fe677afe14610466576100b4565b80631c3e8b58146100b95780632151d9da14610128578063229852c91461017b578063232eae55146101ce57806368935c351461022157806371670b7014610274575b600080fd5b61010c600480360360c08110156100cf57600080fd5b506001600160801b038135811691602081013582169160408201358116916060810135909116906080810135600f90810b9160a00135900b6104b9565b604080516001600160801b039092168252519081900360200190f35b61010c600480360360c081101561013e57600080fd5b506001600160801b038135811691602081013582169160408201358116916060810135909116906080810135600f90810b9160a00135900b6104d4565b61010c600480360360c081101561019157600080fd5b506001600160801b038135811691602081013582169160408201358116916060810135909116906080810135600f90810b9160a00135900b6104e4565b61010c600480360360c08110156101e457600080fd5b506001600160801b038135811691602081013582169160408201358116916060810135909116906080810135600f90810b9160a00135900b6104f4565b61010c600480360360c081101561023757600080fd5b506001600160801b038135811691602081013582169160408201358116916060810135909116906080810135600f90810b9160a00135900b610504565b61010c600480360360c081101561028a57600080fd5b506001600160801b038135811691602081013582169160408201358116916060810135909116906080810135600f90810b9160a00135900b610514565b61010c600480360360c08110156102dd57600080fd5b506001600160801b038135811691602081013582169160408201358116916060810135909116906080810135600f90810b9160a00135900b610524565b61010c600480360360c081101561033057600080fd5b506001600160801b038135811691602081013582169160408201358116916060810135909116906080810135600f90810b9160a00135900b610534565b61010c600480360360c081101561038357600080fd5b506001600160801b038135811691602081013582169160408201358116916060810135909116906080810135600f90810b9160a00135900b610544565b61010c600480360360c08110156103d657600080fd5b506001600160801b038135811691602081013582169160408201358116916060810135909116906080810135600f90810b9160a00135900b610554565b61010c600480360360c081101561042957600080fd5b506001600160801b038135811691602081013582169160408201358116916060810135909116906080810135600f90810b9160a00135900b610564565b61010c600480360360c081101561047c57600080fd5b506001600160801b038135811691602081013582169160408201358116916060810135909116906080810135600f90810b9160a00135900b610574565b60006104c9878787878787610584565b979650505050505050565b60006104c9878787878787610689565b60006104c9878787878787610787565b60006104c9878787878787610873565b60006104c9878787878787610a41565b60006104c9878787878787610afe565b60006104c9878787878787610c0a565b60006104c9878787878787610dce565b60006104c9878787878787610f9c565b60006104c987878787878761107a565b60006104c9878787878787611160565b60006104c987878787878761121d565b6000806105a28461059d876001600160801b03166113eb565b611409565b905060006105bd600160401b6105b88685611409565b611447565b9050600081600f0b136105cf57600080fd5b6001600160801b0388811690881601600160801b81106105ee57600080fd5b60006105ff8a84600160401b61147a565b6001600160801b03166106178385600160401b61147a565b6001600160801b0316036106308c85600160401b61147a565b6001600160801b0316039050600160801b811061064c57600080fd5b600061065d82600160401b8661147a565b8c036001600160801b03169050600160801b811061067a57600080fd5b9b9a5050505050505050505050565b6000856001600160801b0316856001600160801b031611156106aa57600080fd5b60006106ce600160401b6105b88561059d8861059d8b6001600160801b03166113eb565b9050600081600f0b136106e057600080fd5b6001600160801b0380871690881603600160801b81106106ff57600080fd5b60006107108284600160401b611528565b61071f8a85600160401b611528565b61072e8c86600160401b611528565b01036001600160801b03169050600160801b811061074b57600080fd5b60008a61075d83600160401b87611528565b036001600160801b03169050600160801b811061077957600080fd5b9a9950505050505050505050565b6000806107a08461059d876001600160801b03166113eb565b905060006107b6600160401b6105b88685611409565b9050600081600f0b136107c857600080fd5b6001600160801b0389811690881601600160801b81106107e757600080fd5b60006107f88284600160401b61147a565b6001600160801b03166108108b85600160401b61147a565b6001600160801b03166108288d86600160401b61147a565b6001600160801b031601039050600160801b811061084557600080fd5b600061085682600160401b8661147a565b8b036001600160801b03169050600160801b811061067a57600080fd5b60008061088c8461059d876001600160801b03166113eb565b905060006108a2600160401b6105b88685611409565b9050600081600f0b136108ea576040805162461bcd60e51b81526020600482018190526024820152600080516020615366833981519152604482015290519081900360640190fd5b6001600160801b03808816908a1603600160801b8110610951576040805162461bcd60e51b815260206004820152601b60248201527f5969656c644d6174683a20546f6f206d75636820446169206f75740000000000604482015290519081900360640190fd5b60006109628284600160401b6115c5565b6001600160801b031661097a8b85600160401b6115c5565b6001600160801b03166109928d86600160401b6115c5565b6001600160801b031601039050600160801b81106109e15760405162461bcd60e51b815260040180806020018281038252602b8152602001806152cb602b913960400191505060405180910390fd5b60008a6109f383600160401b876115c5565b036001600160801b03169050600160801b811061067a5760405162461bcd60e51b815260040180806020018281038252602181526020018061531b6021913960400191505060405180910390fd5b600080610a5a8461059d876001600160801b03166113eb565b90506000610a70600160401b6105b88685611409565b9050600081600f0b13610a8257600080fd5b6001600160801b0389811690881601600160801b8110610aa157600080fd5b6000610ab28284600160401b611528565b610ac18b85600160401b611528565b610ad08d86600160401b611528565b01036001600160801b03169050600160801b8110610aed57600080fd5b600061085682600160401b86611528565b6000866001600160801b0316856001600160801b03161115610b1f57600080fd5b6000610b378461059d876001600160801b03166113eb565b90506000610b4d600160401b6105b88685611409565b9050600081600f0b13610b5f57600080fd5b6001600160801b03808816908a1603600160801b8110610b7e57600080fd5b6000610b8f8284600160401b61147a565b6001600160801b0316610ba78b85600160401b61147a565b6001600160801b0316610bbf8d86600160401b61147a565b6001600160801b031601039050600160801b8110610bdc57600080fd5b60008a610bee83600160401b8761147a565b036001600160801b03169050600160801b811061067a57600080fd5b600080610c2f600160401b6105b88561059d8861059d8b6001600160801b03166113eb565b9050600081600f0b13610c77576040805162461bcd60e51b81526020600482018190526024820152600080516020615366833981519152604482015290519081900360640190fd5b6001600160801b0380871690881603600160801b8110610cde576040805162461bcd60e51b815260206004820152601c60248201527f5969656c644d6174683a20546f6f206d7563682079446169206f757400000000604482015290519081900360640190fd5b6000610cef8284600160401b6115c5565b6001600160801b0316610d078a85600160401b6115c5565b6001600160801b0316610d1f8c86600160401b6115c5565b6001600160801b031601039050600160801b8110610d6e5760405162461bcd60e51b815260040180806020018281038252602a81526020018061533c602a913960400191505060405180910390fd5b60008a610d8083600160401b876115c5565b036001600160801b03169050600160801b81106107795760405162461bcd60e51b815260040180806020018281038252602181526020018061531b6021913960400191505060405180910390fd5b600080610de78461059d876001600160801b03166113eb565b90506000610dfd600160401b6105b88685611409565b9050600081600f0b13610e45576040805162461bcd60e51b81526020600482018190526024820152600080516020615366833981519152604482015290519081900360640190fd5b6001600160801b0389811690881601600160801b8110610eac576040805162461bcd60e51b815260206004820152601a60248201527f5969656c644d6174683a20546f6f206d7563682044616920696e000000000000604482015290519081900360640190fd5b6000610ebd8284600160401b6115c5565b6001600160801b0316610ed58b85600160401b6115c5565b6001600160801b0316610eed8d86600160401b6115c5565b6001600160801b031601039050600160801b8110610f3c5760405162461bcd60e51b81526004018080602001828103825260258152602001806152f66025913960400191505060405180910390fd5b6000610f4d82600160401b866115c5565b8b036001600160801b03169050600160801b811061067a5760405162461bcd60e51b815260040180806020018281038252602181526020018061531b6021913960400191505060405180910390fd5b6000866001600160801b0316856001600160801b03161115610fbd57600080fd5b6000610fd58461059d876001600160801b03166113eb565b90506000610feb600160401b6105b88685611409565b9050600081600f0b13610ffd57600080fd5b6001600160801b03808816908a1603600160801b811061101c57600080fd5b600061102d8284600160401b611528565b61103c8b85600160401b611528565b61104b8d86600160401b611528565b01036001600160801b03169050600160801b811061106857600080fd5b60008a610bee83600160401b87611528565b6000856001600160801b0316856001600160801b0316111561109b57600080fd5b60006110bf600160401b6105b88561059d8861059d8b6001600160801b03166113eb565b9050600081600f0b136110d157600080fd5b6001600160801b0380871690881603600160801b81106110f057600080fd5b60006111018284600160401b61147a565b6001600160801b03166111198a85600160401b61147a565b6001600160801b03166111318c86600160401b61147a565b6001600160801b031601039050600160801b811061114e57600080fd5b60008a61075d83600160401b8761147a565b6000806111798461059d876001600160801b03166113eb565b9050600061118f600160401b6105b88685611409565b9050600081600f0b136111a157600080fd5b6001600160801b0388811690881601600160801b81106111c057600080fd5b60006111d18a84600160401b611528565b6111e08385600160401b611528565b6111ef8d86600160401b611528565b03016001600160801b03169050600160801b811061120c57600080fd5b600061065d82600160401b86611528565b6000806112368461059d876001600160801b03166113eb565b9050600061124c600160401b6105b88685611409565b9050600081600f0b13611294576040805162461bcd60e51b81526020600482018190526024820152600080516020615366833981519152604482015290519081900360640190fd5b6001600160801b0388811690881601600160801b81106112fb576040805162461bcd60e51b815260206004820152601b60248201527f5969656c644d6174683a20546f6f206d756368207944616920696e0000000000604482015290519081900360640190fd5b600061130c8a84600160401b6115c5565b6001600160801b03166113248385600160401b6115c5565b6001600160801b031661133c8d86600160401b6115c5565b6001600160801b031603019050600160801b811061138b5760405162461bcd60e51b81526004018080602001828103825260248152602001806153866024913960400191505060405180910390fd5b600061139c82600160401b866115c5565b8c036001600160801b03169050600160801b811061067a5760405162461bcd60e51b815260040180806020018281038252602181526020018061531b6021913960400191505060405180910390fd5b6000677fffffffffffffff82111561140257600080fd5b5060401b90565b6000600f83810b9083900b0260401d60016001607f1b03198112801590611437575060016001607f1b038113155b61144057600080fd5b9392505050565b6000600f82810b9084900b0360016001607f1b03198112801590611437575060016001607f1b0381131561144057600080fd5b60006001600160801b03821661148f57600080fd5b6001600160801b0384166114b8576001600160801b0383166114b057600080fd5b506000611440565b6000826001600160801b0316846001600160801b03166114d787611662565b6001600160801b03036001600160801b031602816114f157fe5b0490506001600160801b0381111561150d576000915050611440565b61151f816001600160801b0303612677565b95945050505050565b60006001600160801b03821661153d57600080fd5b6001600160801b03841661155e576001600160801b0383166114b057600080fd5b6000826001600160801b0316846001600160801b031661157d876136ac565b6001600160801b03036001600160801b0316028161159757fe5b0490506001600160801b038111156115b3576000915050611440565b61151f816001600160801b0303613ea1565b60006001600160801b0382166115da57600080fd5b6001600160801b0384166115fb576001600160801b0383166114b057600080fd5b6000826001600160801b0316846001600160801b031661161a87614721565b6001600160801b03036001600160801b0316028161163457fe5b0490506001600160801b03811115611650576000915050611440565b61151f816001600160801b0303614d36565b60006001600160801b03821661167757600080fd5b6001600160801b038216607f60791b600160401b8210156116a45760409190911b9060016001607f1b0319015b600160601b8210156116c25760209190911b9060016001607e1b0319015b600160701b8210156116e05760109190911b9060016001607d1b0319015b600160781b8210156116fe5760089190911b9060016001607c1b0319015b6001607c1b82101561171c5760049190911b9060016001607b1b0319015b6001607e1b82101561173a5760029190911b9060016001607a1b0319015b6001607f1b8210156117585760019190911b906001600160791b0319015b908002607f1c90600160801b82106117785760019190911c90600160781b175b908002607f1c90600160801b82106117985760019190911c90600160771b175b908002607f1c90600160801b82106117b85760019190911c90600160761b175b908002607f1c90600160801b82106117d85760019190911c90600160751b175b908002607f1c90600160801b82106117f85760019190911c90600160741b175b908002607f1c90600160801b82106118185760019190911c90600160731b175b908002607f1c90600160801b82106118385760019190911c90600160721b175b908002607f1c90600160801b82106118585760019190911c90600160711b175b908002607f1c90600160801b82106118785760019190911c90600160701b175b908002607f1c90600160801b82106118985760019190911c906001606f1b175b908002607f1c90600160801b82106118b85760019190911c906001606e1b175b908002607f1c90600160801b82106118d85760019190911c906001606d1b175b908002607f1c90600160801b82106118f85760019190911c906001606c1b175b908002607f1c90600160801b82106119185760019190911c906001606b1b175b908002607f1c90600160801b82106119385760019190911c906001606a1b175b908002607f1c90600160801b82106119585760019190911c90600160691b175b908002607f1c90600160801b82106119785760019190911c90600160681b175b908002607f1c90600160801b82106119985760019190911c90600160671b175b908002607f1c90600160801b82106119b85760019190911c90600160661b175b908002607f1c90600160801b82106119d85760019190911c90600160651b175b908002607f1c90600160801b82106119f85760019190911c90600160641b175b908002607f1c90600160801b8210611a185760019190911c90600160631b175b908002607f1c90600160801b8210611a385760019190911c90600160621b175b908002607f1c90600160801b8210611a585760019190911c90600160611b175b908002607f1c90600160801b8210611a785760019190911c90600160601b175b908002607f1c90600160801b8210611a985760019190911c906001605f1b175b908002607f1c90600160801b8210611ab85760019190911c906001605e1b175b908002607f1c90600160801b8210611ad85760019190911c906001605d1b175b908002607f1c90600160801b8210611af85760019190911c906001605c1b175b908002607f1c90600160801b8210611b185760019190911c906001605b1b175b908002607f1c90600160801b8210611b385760019190911c906001605a1b175b908002607f1c90600160801b8210611b585760019190911c90600160591b175b908002607f1c90600160801b8210611b785760019190911c90600160581b175b908002607f1c90600160801b8210611b985760019190911c90600160571b175b908002607f1c90600160801b8210611bb85760019190911c90600160561b175b908002607f1c90600160801b8210611bd85760019190911c90600160551b175b908002607f1c90600160801b8210611bf85760019190911c90600160541b175b908002607f1c90600160801b8210611c185760019190911c90600160531b175b908002607f1c90600160801b8210611c385760019190911c90600160521b175b908002607f1c90600160801b8210611c585760019190911c90600160511b175b908002607f1c90600160801b8210611c785760019190911c90600160501b175b908002607f1c90600160801b8210611c985760019190911c906001604f1b175b908002607f1c90600160801b8210611cb85760019190911c906001604e1b175b908002607f1c90600160801b8210611cd85760019190911c906001604d1b175b908002607f1c90600160801b8210611cf85760019190911c906001604c1b175b908002607f1c90600160801b8210611d185760019190911c906001604b1b175b908002607f1c90600160801b8210611d385760019190911c906001604a1b175b908002607f1c90600160801b8210611d585760019190911c90600160491b175b908002607f1c90600160801b8210611d785760019190911c90600160481b175b908002607f1c90600160801b8210611d985760019190911c90600160471b175b908002607f1c90600160801b8210611db85760019190911c90600160461b175b908002607f1c90600160801b8210611dd85760019190911c90600160451b175b908002607f1c90600160801b8210611df85760019190911c90600160441b175b908002607f1c90600160801b8210611e185760019190911c90600160431b175b908002607f1c90600160801b8210611e385760019190911c90600160421b175b908002607f1c90600160801b8210611e585760019190911c90600160411b175b908002607f1c90600160801b8210611e785760019190911c90600160401b175b908002607f1c90600160801b8210611e985760019190911c906001603f1b175b908002607f1c90600160801b8210611eb85760019190911c906001603e1b175b908002607f1c90600160801b8210611ed85760019190911c906001603d1b175b908002607f1c90600160801b8210611ef85760019190911c906001603c1b175b908002607f1c90600160801b8210611f185760019190911c906001603b1b175b908002607f1c90600160801b8210611f385760019190911c906001603a1b175b908002607f1c90600160801b8210611f585760019190911c90600160391b175b908002607f1c90600160801b8210611f785760019190911c90600160381b175b908002607f1c90600160801b8210611f9b5760019190911c906680000000000000175b908002607f1c90600160801b8210611fbe5760019190911c906640000000000000175b908002607f1c90600160801b8210611fe15760019190911c906620000000000000175b908002607f1c90600160801b82106120045760019190911c906610000000000000175b908002607f1c90600160801b82106120275760019190911c906608000000000000175b908002607f1c90600160801b821061204a5760019190911c906604000000000000175b908002607f1c90600160801b821061206d5760019190911c906602000000000000175b908002607f1c90600160801b82106120905760019190911c906601000000000000175b908002607f1c90600160801b82106120b25760019190911c9065800000000000175b908002607f1c90600160801b82106120d45760019190911c9065400000000000175b908002607f1c90600160801b82106120f65760019190911c9065200000000000175b908002607f1c90600160801b82106121185760019190911c9065100000000000175b908002607f1c90600160801b821061213a5760019190911c9065080000000000175b908002607f1c90600160801b821061215c5760019190911c9065040000000000175b908002607f1c90600160801b821061217e5760019190911c9065020000000000175b908002607f1c90600160801b82106121a05760019190911c9065010000000000175b908002607f1c90600160801b82106121c15760019190911c90648000000000175b908002607f1c90600160801b82106121e25760019190911c90644000000000175b908002607f1c90600160801b82106122035760019190911c90642000000000175b908002607f1c90600160801b82106122245760019190911c90641000000000175b908002607f1c90600160801b82106122455760019190911c90640800000000175b908002607f1c90600160801b82106122665760019190911c90640400000000175b908002607f1c90600160801b82106122875760019190911c90640200000000175b908002607f1c90600160801b82106122a85760019190911c90640100000000175b908002607f1c90600160801b82106122c85760019190911c906380000000175b908002607f1c90600160801b82106122e85760019190911c906340000000175b908002607f1c90600160801b82106123085760019190911c906320000000175b908002607f1c90600160801b82106123285760019190911c906310000000175b908002607f1c90600160801b82106123485760019190911c906308000000175b908002607f1c90600160801b82106123685760019190911c906304000000175b908002607f1c90600160801b82106123885760019190911c906302000000175b908002607f1c90600160801b82106123a85760019190911c906301000000175b908002607f1c90600160801b82106123c75760019190911c9062800000175b908002607f1c90600160801b82106123e65760019190911c9062400000175b908002607f1c90600160801b82106124055760019190911c9062200000175b908002607f1c90600160801b82106124245760019190911c9062100000175b908002607f1c90600160801b82106124435760019190911c9062080000175b908002607f1c90600160801b82106124625760019190911c9062040000175b908002607f1c90600160801b82106124815760019190911c9062020000175b908002607f1c90600160801b82106124a05760019190911c9062010000175b908002607f1c90600160801b82106124be5760019190911c90618000175b908002607f1c90600160801b82106124dc5760019190911c90614000175b908002607f1c90600160801b82106124fa5760019190911c90612000175b908002607f1c90600160801b82106125185760019190911c90611000175b908002607f1c90600160801b82106125365760019190911c90610800175b908002607f1c90600160801b82106125545760019190911c90610400175b908002607f1c90600160801b82106125725760019190911c90610200175b908002607f1c90600160801b82106125905760019190911c90610100175b908002607f1c90600160801b82106125ad5760019190911c906080175b908002607f1c90600160801b82106125ca5760019190911c906040175b908002607f1c90600160801b82106125e75760019190911c906020175b908002607f1c90600160801b82106126045760019190911c906010175b908002607f1c90600160801b82106126215760019190911c906008175b908002607f1c90600160801b821061263e5760019190911c906004175b908002607f1c90600160801b821061265b5760019190911c906002175b908002607f1c90600160801b8210611440576001179392505050565b60006001607f1b600160781b8316156126a0576fb504f333f9de6484597d89b3754abe9f02607f1c5b600160771b8316156126c2576f9837f0518db8a96f46ad23182e42f6f602607f1c5b600160761b8316156126e4576f8b95c1e3ea8bd6e6fbe4628758a53c9002607f1c5b600160751b831615612706576f85aac367cc487b14c5c95b8c2154c1b202607f1c5b600160741b831615612728576f82cd8698ac2ba1d73e2a475b46520bff02607f1c5b600160731b83161561274a576f8164d1f3bc0307737be56527bd14def402607f1c5b600160721b83161561276c576f80b1ed4fd999ab6c25335719b6e6fd2002607f1c5b600160711b83161561278e576f8058d7d2d5e5f6b094d589f608ee4aa202607f1c5b600160701b8316156127b0576f802c6436d0e04f50ff8ce94a6797b3ce02607f1c5b6001606f1b8316156127d2576f8016302f174676283690dfe44d11d00802607f1c5b6001606e1b8316156127f4576f800b179c82028fd0945e54e2ae18f2f002607f1c5b6001606d1b831615612816576f80058baf7fee3b5d1c718b38e549cb9302607f1c5b6001606c1b831615612838576f8002c5d00fdcfcb6b6566a58c048be1f02607f1c5b6001606b1b83161561285a576f800162e61bed4a48e84c2e1a463473d902607f1c5b6001606a1b83161561287c576f8000b17292f702a3aa22beacca94901302607f1c5b600160691b83161561289e576f800058b92abbae02030c5fa5256f41fe02607f1c5b600160681b8316156128c0576f80002c5c8dade4d71776c0f4dbea67d602607f1c5b600160671b8316156128e2576f8000162e44eaf636526be456600bdbe402607f1c5b600160661b831615612904576f80000b1721fa7c188307016c1cd4e8b602607f1c5b600160651b831615612926576f8000058b90de7e4cecfc487503488bb102607f1c5b600160641b831615612948576f800002c5c8678f36cbfce50a6de60b1402607f1c5b600160631b83161561296a576f80000162e431db9f80b2347b5d62e51602607f1c5b600160621b83161561298c576f800000b1721872d0c7b08cf1e011415202607f1c5b600160611b8316156129ae576f80000058b90c1aa8a5c3736cb77e8dff02607f1c5b600160601b8316156129d0576f8000002c5c8605a4635f2efc2362d97802607f1c5b6001605f1b8316156129f2576f800000162e4300e635cf4a109e3939bd02607f1c5b6001605e1b831615612a14576f8000000b17217ff81bef9c551590cf8302607f1c5b6001605d1b831615612a36576f800000058b90bfdd4e39cd52c0cfa27c02607f1c5b6001605c1b831615612a58576f80000002c5c85fe6f72d669e0e76e41102607f1c5b6001605b1b831615612a7a576f8000000162e42ff18f9ad35186d0df2802607f1c5b6001605a1b831615612a9c576f80000000b17217f84cce71aa0dcfffe702607f1c5b600160591b831615612abe576f8000000058b90bfc07a77ad56ed22aaa02607f1c5b600160581b831615612ae0576f800000002c5c85fdfc23cdead40da8d602607f1c5b600160571b831615612b02576f80000000162e42fefc25eb1571853a6602607f1c5b600160561b831615612b24576f800000000b17217f7d97f692baacded502607f1c5b600160551b831615612b46576f80000000058b90bfbead3b8b5dd254d702607f1c5b600160541b831615612b68576f8000000002c5c85fdf4eedd62f084e6702607f1c5b600160531b831615612b8a576f800000000162e42fefa58aef378bf58602607f1c5b600160521b831615612bac576f8000000000b17217f7d24a78a3c7ef0202607f1c5b600160511b831615612bce576f800000000058b90bfbe9067c93e474a602607f1c5b600160501b831615612bf0576f80000000002c5c85fdf47b8e5a72599f02607f1c5b6001604f1b831615612c12576f8000000000162e42fefa3bdb315934a202607f1c5b6001604e1b831615612c34576f80000000000b17217f7d1d7299b49c4602607f1c5b6001604d1b831615612c56576f8000000000058b90bfbe8e9a8d1c4ea002607f1c5b6001604c1b831615612c78576f800000000002c5c85fdf4745969ea76f02607f1c5b6001604b1b831615612c9a576f80000000000162e42fefa3a0df5373bf02607f1c5b6001604a1b831615612cbc576f800000000000b17217f7d1cff4aac1e102607f1c5b600160491b831615612cde576f80000000000058b90bfbe8e7db95a2f102607f1c5b600160481b831615612d00576f8000000000002c5c85fdf473e61ae1f802607f1c5b600160471b831615612d22576f800000000000162e42fefa39f121751c02607f1c5b600160461b831615612d44576f8000000000000b17217f7d1cf815bb9602607f1c5b600160451b831615612d66576f800000000000058b90bfbe8e7bec1e0d02607f1c5b600160441b831615612d88576f80000000000002c5c85fdf473dee5f1702607f1c5b600160431b831615612daa576f8000000000000162e42fefa39ef5438f02607f1c5b600160421b831615612dcc576f80000000000000b17217f7d1cf7a26c802607f1c5b600160411b831615612dee576f8000000000000058b90bfbe8e7bcf4a402607f1c5b600160401b831615612e10576f800000000000002c5c85fdf473de72a202607f1c5b6001603f1b831615612e32576f80000000000000162e42fefa39ef376502607f1c5b6001603e1b831615612e54576f800000000000000b17217f7d1cf79b3702607f1c5b6001603d1b831615612e76576f80000000000000058b90bfbe8e7bcd7d02607f1c5b6001603c1b831615612e98576f8000000000000002c5c85fdf473de6b602607f1c5b6001603b1b831615612eba576f800000000000000162e42fefa39ef35902607f1c5b6001603a1b831615612edc576f8000000000000000b17217f7d1cf79ac02607f1c5b600160391b831615612efe576f800000000000000058b90bfbe8e7bcd602607f1c5b600160381b831615612f20576f80000000000000002c5c85fdf473de6a02607f1c5b6680000000000000831615612f45576f8000000000000000162e42fefa39ef3502607f1c5b6640000000000000831615612f6a576f80000000000000000b17217f7d1cf79a02607f1c5b6620000000000000831615612f8f576f8000000000000000058b90bfbe8e7bcd02607f1c5b6610000000000000831615612fb4576f800000000000000002c5c85fdf473de602607f1c5b6608000000000000831615612fd9576f80000000000000000162e42fefa39ef302607f1c5b6604000000000000831615612ffe576f800000000000000000b17217f7d1cf7902607f1c5b6602000000000000831615613023576f80000000000000000058b90bfbe8e7bc02607f1c5b6601000000000000831615613048576f8000000000000000002c5c85fdf473de02607f1c5b6580000000000083161561306c576f800000000000000000162e42fefa39ef02607f1c5b65400000000000831615613090576f8000000000000000000b17217f7d1cf702607f1c5b652000000000008316156130b4576f800000000000000000058b90bfbe8e7b02607f1c5b651000000000008316156130d8576f80000000000000000002c5c85fdf473d02607f1c5b650800000000008316156130fc576f8000000000000000000162e42fefa39e02607f1c5b65040000000000831615613120576f80000000000000000000b17217f7d1cf02607f1c5b65020000000000831615613144576f8000000000000000000058b90bfbe8e702607f1c5b65010000000000831615613168576f800000000000000000002c5c85fdf47302607f1c5b64800000000083161561318b576f80000000000000000000162e42fefa3902607f1c5b6440000000008316156131ae576f800000000000000000000b17217f7d1c02607f1c5b6420000000008316156131d1576f80000000000000000000058b90bfbe8e02607f1c5b6410000000008316156131f4576f8000000000000000000002c5c85fdf4702607f1c5b640800000000831615613217576f800000000000000000000162e42fefa302607f1c5b64040000000083161561323a576f8000000000000000000000b17217f7d102607f1c5b64020000000083161561325d576f800000000000000000000058b90bfbe802607f1c5b640100000000831615613280576f80000000000000000000002c5c85fdf402607f1c5b63800000008316156132a2576f8000000000000000000000162e42fefa02607f1c5b63400000008316156132c4576f80000000000000000000000b17217f7d02607f1c5b63200000008316156132e6576f8000000000000000000000058b90bfbe02607f1c5b6310000000831615613308576f800000000000000000000002c5c85fdf02607f1c5b630800000083161561332a576f80000000000000000000000162e42fef02607f1c5b630400000083161561334c576f800000000000000000000000b17217f702607f1c5b630200000083161561336e576f80000000000000000000000058b90bfb02607f1c5b6301000000831615613390576f8000000000000000000000002c5c85fd02607f1c5b628000008316156133b1576f800000000000000000000000162e42fe02607f1c5b624000008316156133d2576f8000000000000000000000000b17217f02607f1c5b622000008316156133f3576f800000000000000000000000058b90bf02607f1c5b62100000831615613414576f80000000000000000000000002c5c85f02607f1c5b62080000831615613435576f8000000000000000000000000162e42f02607f1c5b62040000831615613456576f80000000000000000000000000b1721702607f1c5b62020000831615613477576f8000000000000000000000000058b90b02607f1c5b62010000831615613498576f800000000000000000000000002c5c8502607f1c5b6180008316156134b8576f80000000000000000000000000162e4202607f1c5b6140008316156134d8576f800000000000000000000000000b172102607f1c5b6120008316156134f8576f80000000000000000000000000058b9002607f1c5b611000831615613518576f8000000000000000000000000002c5c802607f1c5b610800831615613538576f800000000000000000000000000162e402607f1c5b610400831615613558576f8000000000000000000000000000b17202607f1c5b610200831615613578576f800000000000000000000000000058b902607f1c5b610100831615613598576f80000000000000000000000000002c5c02607f1c5b60808316156135b7576f8000000000000000000000000000162e02607f1c5b60408316156135d6576f80000000000000000000000000000b1702607f1c5b60208316156135f5576f8000000000000000000000000000058b02607f1c5b6010831615613614576f800000000000000000000000000002c502607f1c5b6008831615613633576f8000000000000000000000000000016202607f1c5b6004831615613652576f800000000000000000000000000000b102607f1c5b6002831615613671576f8000000000000000000000000000005802607f1c5b6001831615613690576f8000000000000000000000000000002c02607f1c5b607f607984901c811690036001600160801b03161c9050919050565b60006001600160801b0382166136c157600080fd5b6001600160801b038216607f60791b600160401b8210156136ee5760409190911b9060016001607f1b0319015b600160601b82101561370c5760209190911b9060016001607e1b0319015b600160701b82101561372a5760109190911b9060016001607d1b0319015b600160781b8210156137485760089190911b9060016001607c1b0319015b6001607c1b8210156137665760049190911b9060016001607b1b0319015b6001607e1b8210156137845760029190911b9060016001607a1b0319015b6001607f1b8210156137a25760019190911b906001600160791b0319015b908002607f1c90600160801b82106137c25760019190911c90600160781b175b908002607f1c90600160801b82106137e25760019190911c90600160771b175b908002607f1c90600160801b82106138025760019190911c90600160761b175b908002607f1c90600160801b82106138225760019190911c90600160751b175b908002607f1c90600160801b82106138425760019190911c90600160741b175b908002607f1c90600160801b82106138625760019190911c90600160731b175b908002607f1c90600160801b82106138825760019190911c90600160721b175b908002607f1c90600160801b82106138a25760019190911c90600160711b175b908002607f1c90600160801b82106138c25760019190911c90600160701b175b908002607f1c90600160801b82106138e25760019190911c906001606f1b175b908002607f1c90600160801b82106139025760019190911c906001606e1b175b908002607f1c90600160801b82106139225760019190911c906001606d1b175b908002607f1c90600160801b82106139425760019190911c906001606c1b175b908002607f1c90600160801b82106139625760019190911c906001606b1b175b908002607f1c90600160801b82106139825760019190911c906001606a1b175b908002607f1c90600160801b82106139a25760019190911c90600160691b175b908002607f1c90600160801b82106139c25760019190911c90600160681b175b908002607f1c90600160801b82106139e25760019190911c90600160671b175b908002607f1c90600160801b8210613a025760019190911c90600160661b175b908002607f1c90600160801b8210613a225760019190911c90600160651b175b908002607f1c90600160801b8210613a425760019190911c90600160641b175b908002607f1c90600160801b8210613a625760019190911c90600160631b175b908002607f1c90600160801b8210613a825760019190911c90600160621b175b908002607f1c90600160801b8210613aa25760019190911c90600160611b175b908002607f1c90600160801b8210613ac25760019190911c90600160601b175b908002607f1c90600160801b8210613ae25760019190911c906001605f1b175b908002607f1c90600160801b8210613b025760019190911c906001605e1b175b908002607f1c90600160801b8210613b225760019190911c906001605d1b175b908002607f1c90600160801b8210613b425760019190911c906001605c1b175b908002607f1c90600160801b8210613b625760019190911c906001605b1b175b908002607f1c90600160801b8210613b825760019190911c906001605a1b175b908002607f1c90600160801b8210613ba25760019190911c90600160591b175b908002607f1c90600160801b8210613bc25760019190911c90600160581b175b908002607f1c90600160801b8210613be25760019190911c90600160571b175b908002607f1c90600160801b8210613c025760019190911c90600160561b175b908002607f1c90600160801b8210613c225760019190911c90600160551b175b908002607f1c90600160801b8210613c425760019190911c90600160541b175b908002607f1c90600160801b8210613c625760019190911c90600160531b175b908002607f1c90600160801b8210613c825760019190911c90600160521b175b908002607f1c90600160801b8210613ca25760019190911c90600160511b175b908002607f1c90600160801b8210613cc25760019190911c90600160501b175b908002607f1c90600160801b8210613ce25760019190911c906001604f1b175b908002607f1c90600160801b8210613d025760019190911c906001604e1b175b908002607f1c90600160801b8210613d225760019190911c906001604d1b175b908002607f1c90600160801b8210613d425760019190911c906001604c1b175b908002607f1c90600160801b8210613d625760019190911c906001604b1b175b908002607f1c90600160801b8210613d825760019190911c906001604a1b175b908002607f1c90600160801b8210613da25760019190911c90600160491b175b908002607f1c90600160801b8210613dc25760019190911c90600160481b175b908002607f1c90600160801b8210613de25760019190911c90600160471b175b908002607f1c90600160801b8210613e025760019190911c90600160461b175b908002607f1c90600160801b8210613e225760019190911c90600160451b175b908002607f1c90600160801b8210613e425760019190911c90600160441b175b908002607f1c90600160801b8210613e625760019190911c90600160431b175b908002607f1c90600160801b8210613e825760019190911c90600160421b175b908002607f1c90600160801b821061144057600160411b179392505050565b60006001607f1b600160781b831615613eca576fb504f333f9de6484597d89b3754abe9f02607f1c5b600160771b831615613eec576f9837f0518db8a96f46ad23182e42f6f602607f1c5b600160761b831615613f0e576f8b95c1e3ea8bd6e6fbe4628758a53c9002607f1c5b600160751b831615613f30576f85aac367cc487b14c5c95b8c2154c1b202607f1c5b600160741b831615613f52576f82cd8698ac2ba1d73e2a475b46520bff02607f1c5b600160731b831615613f74576f8164d1f3bc0307737be56527bd14def402607f1c5b600160721b831615613f96576f80b1ed4fd999ab6c25335719b6e6fd2002607f1c5b600160711b831615613fb8576f8058d7d2d5e5f6b094d589f608ee4aa202607f1c5b600160701b831615613fda576f802c6436d0e04f50ff8ce94a6797b3ce02607f1c5b6001606f1b831615613ffc576f8016302f174676283690dfe44d11d00802607f1c5b6001606e1b83161561401e576f800b179c82028fd0945e54e2ae18f2f002607f1c5b6001606d1b831615614040576f80058baf7fee3b5d1c718b38e549cb9302607f1c5b6001606c1b831615614062576f8002c5d00fdcfcb6b6566a58c048be1f02607f1c5b6001606b1b831615614084576f800162e61bed4a48e84c2e1a463473d902607f1c5b6001606a1b8316156140a6576f8000b17292f702a3aa22beacca94901302607f1c5b600160691b8316156140c8576f800058b92abbae02030c5fa5256f41fe02607f1c5b600160681b8316156140ea576f80002c5c8dade4d71776c0f4dbea67d602607f1c5b600160671b83161561410c576f8000162e44eaf636526be456600bdbe402607f1c5b600160661b83161561412e576f80000b1721fa7c188307016c1cd4e8b602607f1c5b600160651b831615614150576f8000058b90de7e4cecfc487503488bb102607f1c5b600160641b831615614172576f800002c5c8678f36cbfce50a6de60b1402607f1c5b600160631b831615614194576f80000162e431db9f80b2347b5d62e51602607f1c5b600160621b8316156141b6576f800000b1721872d0c7b08cf1e011415202607f1c5b600160611b8316156141d8576f80000058b90c1aa8a5c3736cb77e8dff02607f1c5b600160601b8316156141fa576f8000002c5c8605a4635f2efc2362d97802607f1c5b6001605f1b83161561421c576f800000162e4300e635cf4a109e3939bd02607f1c5b6001605e1b83161561423e576f8000000b17217ff81bef9c551590cf8302607f1c5b6001605d1b831615614260576f800000058b90bfdd4e39cd52c0cfa27c02607f1c5b6001605c1b831615614282576f80000002c5c85fe6f72d669e0e76e41102607f1c5b6001605b1b8316156142a4576f8000000162e42ff18f9ad35186d0df2802607f1c5b6001605a1b8316156142c6576f80000000b17217f84cce71aa0dcfffe702607f1c5b600160591b8316156142e8576f8000000058b90bfc07a77ad56ed22aaa02607f1c5b600160581b83161561430a576f800000002c5c85fdfc23cdead40da8d602607f1c5b600160571b83161561432c576f80000000162e42fefc25eb1571853a6602607f1c5b600160561b83161561434e576f800000000b17217f7d97f692baacded502607f1c5b600160551b831615614370576f80000000058b90bfbead3b8b5dd254d702607f1c5b600160541b831615614392576f8000000002c5c85fdf4eedd62f084e6702607f1c5b600160531b8316156143b4576f800000000162e42fefa58aef378bf58602607f1c5b600160521b8316156143d6576f8000000000b17217f7d24a78a3c7ef0202607f1c5b600160511b8316156143f8576f800000000058b90bfbe9067c93e474a602607f1c5b600160501b83161561441a576f80000000002c5c85fdf47b8e5a72599f02607f1c5b6001604f1b83161561443c576f8000000000162e42fefa3bdb315934a202607f1c5b6001604e1b83161561445e576f80000000000b17217f7d1d7299b49c4602607f1c5b6001604d1b831615614480576f8000000000058b90bfbe8e9a8d1c4ea002607f1c5b6001604c1b8316156144a2576f800000000002c5c85fdf4745969ea76f02607f1c5b6001604b1b8316156144c4576f80000000000162e42fefa3a0df5373bf02607f1c5b6001604a1b8316156144e6576f800000000000b17217f7d1cff4aac1e102607f1c5b600160491b831615614508576f80000000000058b90bfbe8e7db95a2f102607f1c5b600160481b83161561452a576f8000000000002c5c85fdf473e61ae1f802607f1c5b600160471b83161561454c576f800000000000162e42fefa39f121751c02607f1c5b600160461b83161561456e576f8000000000000b17217f7d1cf815bb9602607f1c5b600160451b831615614590576f800000000000058b90bfbe8e7bec1e0d02607f1c5b600160441b8316156145b2576f80000000000002c5c85fdf473dee5f1702607f1c5b600160431b8316156145d4576f8000000000000162e42fefa39ef5438f02607f1c5b600160421b8316156145f6576f80000000000000b17217f7d1cf7a26c802607f1c5b600160411b831615614618576f8000000000000058b90bfbe8e7bcf4a402607f1c5b600160401b83161561463a576f800000000000002c5c85fdf473de72a202607f1c5b6001603f1b83161561465c576f80000000000000162e42fefa39ef376502607f1c5b6001603e1b83161561467e576f800000000000000b17217f7d1cf79b3702607f1c5b6001603d1b8316156146a0576f80000000000000058b90bfbe8e7bcd7d02607f1c5b6001603c1b8316156146c2576f8000000000000002c5c85fdf473de6b602607f1c5b6001603b1b8316156146e4576f800000000000000162e42fefa39ef35902607f1c5b6001603a1b831615613690576f8000000000000000b17217f7d1cf79ac02607f1c607f607984901c811690036001600160801b03161c9050919050565b60006001600160801b03821661473657600080fd5b6001600160801b038216607f60791b600160401b8210156147635760409190911b9060016001607f1b0319015b600160601b8210156147815760209190911b9060016001607e1b0319015b600160701b82101561479f5760109190911b9060016001607d1b0319015b600160781b8210156147bd5760089190911b9060016001607c1b0319015b6001607c1b8210156147db5760049190911b9060016001607b1b0319015b6001607e1b8210156147f95760029190911b9060016001607a1b0319015b6001607f1b8210156148175760019190911b906001600160791b0319015b908002607f1c90600160801b82106148375760019190911c90600160781b175b908002607f1c90600160801b82106148575760019190911c90600160771b175b908002607f1c90600160801b82106148775760019190911c90600160761b175b908002607f1c90600160801b82106148975760019190911c90600160751b175b908002607f1c90600160801b82106148b75760019190911c90600160741b175b908002607f1c90600160801b82106148d75760019190911c90600160731b175b908002607f1c90600160801b82106148f75760019190911c90600160721b175b908002607f1c90600160801b82106149175760019190911c90600160711b175b908002607f1c90600160801b82106149375760019190911c90600160701b175b908002607f1c90600160801b82106149575760019190911c906001606f1b175b908002607f1c90600160801b82106149775760019190911c906001606e1b175b908002607f1c90600160801b82106149975760019190911c906001606d1b175b908002607f1c90600160801b82106149b75760019190911c906001606c1b175b908002607f1c90600160801b82106149d75760019190911c906001606b1b175b908002607f1c90600160801b82106149f75760019190911c906001606a1b175b908002607f1c90600160801b8210614a175760019190911c90600160691b175b908002607f1c90600160801b8210614a375760019190911c90600160681b175b908002607f1c90600160801b8210614a575760019190911c90600160671b175b908002607f1c90600160801b8210614a775760019190911c90600160661b175b908002607f1c90600160801b8210614a975760019190911c90600160651b175b908002607f1c90600160801b8210614ab75760019190911c90600160641b175b908002607f1c90600160801b8210614ad75760019190911c90600160631b175b908002607f1c90600160801b8210614af75760019190911c90600160621b175b908002607f1c90600160801b8210614b175760019190911c90600160611b175b908002607f1c90600160801b8210614b375760019190911c90600160601b175b908002607f1c90600160801b8210614b575760019190911c906001605f1b175b908002607f1c90600160801b8210614b775760019190911c906001605e1b175b908002607f1c90600160801b8210614b975760019190911c906001605d1b175b908002607f1c90600160801b8210614bb75760019190911c906001605c1b175b908002607f1c90600160801b8210614bd75760019190911c906001605b1b175b908002607f1c90600160801b8210614bf75760019190911c906001605a1b175b908002607f1c90600160801b8210614c175760019190911c90600160591b175b908002607f1c90600160801b8210614c375760019190911c90600160581b175b908002607f1c90600160801b8210614c575760019190911c90600160571b175b908002607f1c90600160801b8210614c775760019190911c90600160561b175b908002607f1c90600160801b8210614c975760019190911c90600160551b175b908002607f1c90600160801b8210614cb75760019190911c90600160541b175b908002607f1c90600160801b8210614cd75760019190911c90600160531b175b908002607f1c90600160801b8210614cf75760019190911c90600160521b175b908002607f1c90600160801b8210614d175760019190911c90600160511b175b908002607f1c90600160801b821061144057600160501b179392505050565b60006001607f1b600160781b831615614d5f576fb504f333f9de6484597d89b3754abe9f02607f1c5b600160771b831615614d81576f9837f0518db8a96f46ad23182e42f6f602607f1c5b600160761b831615614da3576f8b95c1e3ea8bd6e6fbe4628758a53c9002607f1c5b600160751b831615614dc5576f85aac367cc487b14c5c95b8c2154c1b202607f1c5b600160741b831615614de7576f82cd8698ac2ba1d73e2a475b46520bff02607f1c5b600160731b831615614e09576f8164d1f3bc0307737be56527bd14def402607f1c5b600160721b831615614e2b576f80b1ed4fd999ab6c25335719b6e6fd2002607f1c5b600160711b831615614e4d576f8058d7d2d5e5f6b094d589f608ee4aa202607f1c5b600160701b831615614e6f576f802c6436d0e04f50ff8ce94a6797b3ce02607f1c5b6001606f1b831615614e91576f8016302f174676283690dfe44d11d00802607f1c5b6001606e1b831615614eb3576f800b179c82028fd0945e54e2ae18f2f002607f1c5b6001606d1b831615614ed5576f80058baf7fee3b5d1c718b38e549cb9302607f1c5b6001606c1b831615614ef7576f8002c5d00fdcfcb6b6566a58c048be1f02607f1c5b6001606b1b831615614f19576f800162e61bed4a48e84c2e1a463473d902607f1c5b6001606a1b831615614f3b576f8000b17292f702a3aa22beacca94901302607f1c5b600160691b831615614f5d576f800058b92abbae02030c5fa5256f41fe02607f1c5b600160681b831615614f7f576f80002c5c8dade4d71776c0f4dbea67d602607f1c5b600160671b831615614fa1576f8000162e44eaf636526be456600bdbe402607f1c5b600160661b831615614fc3576f80000b1721fa7c188307016c1cd4e8b602607f1c5b600160651b831615614fe5576f8000058b90de7e4cecfc487503488bb102607f1c5b600160641b831615615007576f800002c5c8678f36cbfce50a6de60b1402607f1c5b600160631b831615615029576f80000162e431db9f80b2347b5d62e51602607f1c5b600160621b83161561504b576f800000b1721872d0c7b08cf1e011415202607f1c5b600160611b83161561506d576f80000058b90c1aa8a5c3736cb77e8dff02607f1c5b600160601b83161561508f576f8000002c5c8605a4635f2efc2362d97802607f1c5b6001605f1b8316156150b1576f800000162e4300e635cf4a109e3939bd02607f1c5b6001605e1b8316156150d3576f8000000b17217ff81bef9c551590cf8302607f1c5b6001605d1b8316156150f5576f800000058b90bfdd4e39cd52c0cfa27c02607f1c5b6001605c1b831615615117576f80000002c5c85fe6f72d669e0e76e41102607f1c5b6001605b1b831615615139576f8000000162e42ff18f9ad35186d0df2802607f1c5b6001605a1b83161561515b576f80000000b17217f84cce71aa0dcfffe702607f1c5b600160591b83161561517d576f8000000058b90bfc07a77ad56ed22aaa02607f1c5b600160581b83161561519f576f800000002c5c85fdfc23cdead40da8d602607f1c5b600160571b8316156151c1576f80000000162e42fefc25eb1571853a6602607f1c5b600160561b8316156151e3576f800000000b17217f7d97f692baacded502607f1c5b600160551b831615615205576f80000000058b90bfbead3b8b5dd254d702607f1c5b600160541b831615615227576f8000000002c5c85fdf4eedd62f084e6702607f1c5b600160531b831615615249576f800000000162e42fefa58aef378bf58602607f1c5b600160521b83161561526b576f8000000000b17217f7d24a78a3c7ef0202607f1c5b600160511b83161561528d576f800000000058b90bfbe9067c93e474a602607f1c5b600160501b831615613690576f80000000002c5c85fdf47b8e5a72599f02607f1c607f607984901c811690036001600160801b03161c905091905056fe5969656c644d6174683a20526573756c74696e67207944616920726573657276657320746f6f20686967685969656c644d6174683a20496e73756666696369656e7420794441492072657365727665735969656c644d6174683a20526f756e64696e6720696e6475636564206572726f725969656c644d6174683a20526573756c74696e672044616920726573657276657320746f6f20686967685969656c644d6174683a20546f6f206661722066726f6d206d617475726974795969656c644d6174683a20496e73756666696369656e7420446169207265736572766573a26469706673582212206b337fdaf06c106479e062f2bb0d7c10a838c17c215ce383540bfe9066b257a364736f6c634300060a0033",
  "immutableReferences": {},
  "source": "// SPDX-License-Identifier: GPL-3.0-or-later\r\npragma solidity ^0.6.10;\r\n\r\nimport \"../pool/YieldMath.sol\";\r\nimport \"../mocks/YieldMath64.sol\";\r\nimport \"../mocks/YieldMath128.sol\";\r\n\r\n\r\ncontract YieldMathMock {\r\n\r\n    // --- 128 ---\r\n\r\n    function yDaiOutForDaiIn128 (\r\n        uint128 daiReserves, uint128 yDAIReserves, uint128 daiAmount,\r\n        uint128 timeTillMaturity, int128 k, int128 g)\r\n    external pure returns (uint128) {\r\n        return YieldMath128.yDaiOutForDaiIn(daiReserves, yDAIReserves, daiAmount, timeTillMaturity, k, g);\r\n    }\r\n\r\n    function daiOutForYDaiIn128 (\r\n        uint128 daiReserves, uint128 yDAIReserves, uint128 yDAIAmount,\r\n        uint128 timeTillMaturity, int128 k, int128 g)\r\n    external pure returns (uint128) {\r\n        return YieldMath128.daiOutForYDaiIn(daiReserves, yDAIReserves, yDAIAmount, timeTillMaturity, k, g);\r\n    }\r\n\r\n    function yDaiInForDaiOut128 (\r\n        uint128 daiReserves, uint128 yDAIReserves, uint128 daiAmount,\r\n        uint128 timeTillMaturity, int128 k, int128 g)\r\n    external pure returns (uint128) {\r\n        return YieldMath128.yDaiInForDaiOut(daiReserves, yDAIReserves, daiAmount, timeTillMaturity, k, g);\r\n    }\r\n\r\n    function daiInForYDaiOut128 (\r\n        uint128 daiReserves, uint128 yDAIReserves, uint128 yDAIAmount,\r\n        uint128 timeTillMaturity, int128 k, int128 g)\r\n    external pure returns (uint128) {\r\n        return YieldMath128.daiInForYDaiOut(daiReserves, yDAIReserves, yDAIAmount, timeTillMaturity, k, g);\r\n    }\r\n\r\n    // --- 64 ---\r\n\r\n    function yDaiOutForDaiIn64 (\r\n        uint128 daiReserves, uint128 yDAIReserves, uint128 daiAmount,\r\n        uint128 timeTillMaturity, int128 k, int128 g)\r\n    external pure returns (uint128) {\r\n        return YieldMath64.yDaiOutForDaiIn(daiReserves, yDAIReserves, daiAmount, timeTillMaturity, k, g);\r\n    }\r\n\r\n    function daiOutForYDaiIn64 (\r\n        uint128 daiReserves, uint128 yDAIReserves, uint128 yDAIAmount,\r\n        uint128 timeTillMaturity, int128 k, int128 g)\r\n    external pure returns (uint128) {\r\n        return YieldMath64.daiOutForYDaiIn(daiReserves, yDAIReserves, yDAIAmount, timeTillMaturity, k, g);\r\n    }\r\n\r\n    function yDaiInForDaiOut64 (\r\n        uint128 daiReserves, uint128 yDAIReserves, uint128 daiAmount,\r\n        uint128 timeTillMaturity, int128 k, int128 g)\r\n    external pure returns (uint128) {\r\n        return YieldMath64.yDaiInForDaiOut(daiReserves, yDAIReserves, daiAmount, timeTillMaturity, k, g);\r\n    }\r\n\r\n    function daiInForYDaiOut64 (\r\n        uint128 daiReserves, uint128 yDAIReserves, uint128 yDAIAmount,\r\n        uint128 timeTillMaturity, int128 k, int128 g)\r\n    external pure returns (uint128) {\r\n        return YieldMath64.daiInForYDaiOut(daiReserves, yDAIReserves, yDAIAmount, timeTillMaturity, k, g);\r\n    }\r\n\r\n    // --- 48 ---\r\n\r\n    function yDaiOutForDaiIn (\r\n        uint128 daiReserves, uint128 yDAIReserves, uint128 daiAmount,\r\n        uint128 timeTillMaturity, int128 k, int128 g)\r\n    external pure returns (uint128) {\r\n        return YieldMath.yDaiOutForDaiIn(daiReserves, yDAIReserves, daiAmount, timeTillMaturity, k, g);\r\n    }\r\n\r\n    function daiOutForYDaiIn (\r\n        uint128 daiReserves, uint128 yDAIReserves, uint128 yDAIAmount,\r\n        uint128 timeTillMaturity, int128 k, int128 g)\r\n    external pure returns (uint128) {\r\n        return YieldMath.daiOutForYDaiIn(daiReserves, yDAIReserves, yDAIAmount, timeTillMaturity, k, g);\r\n    }\r\n\r\n    function yDaiInForDaiOut (\r\n        uint128 daiReserves, uint128 yDAIReserves, uint128 daiAmount,\r\n        uint128 timeTillMaturity, int128 k, int128 g)\r\n    external pure returns (uint128) {\r\n        return YieldMath.yDaiInForDaiOut(daiReserves, yDAIReserves, daiAmount, timeTillMaturity, k, g);\r\n    }\r\n\r\n    function daiInForYDaiOut (\r\n        uint128 daiReserves, uint128 yDAIReserves, uint128 yDAIAmount,\r\n        uint128 timeTillMaturity, int128 k, int128 g)\r\n    external pure returns (uint128) {\r\n        return YieldMath.daiInForYDaiOut(daiReserves, yDAIReserves, yDAIAmount, timeTillMaturity, k, g);\r\n    }\r\n}",
  "sourcePath": "C:/Users/bruce/dev/yield/yDai/contracts/mocks/YieldMathMock.sol",
  "compiler": {
    "name": "solc",
    "version": "0.6.10+commit.00c0fcaf.Emscripten.clang"
  },
  "schemaVersion": "3.2.3",
  "updatedAt": "2020-08-19T15:24:08.834Z",
  "devdoc": {
    "methods": {}
  },
  "userdoc": {
    "methods": {}
  }
}