{
  "contractName": "YieldMathDAIWrapper",
  "abi": [
    {
      "inputs": [
        {
          "internalType": "uint128",
          "name": "daiReserves",
          "type": "uint128"
        },
        {
          "internalType": "uint128",
          "name": "yDAIReserves",
          "type": "uint128"
        },
        {
          "internalType": "uint128",
          "name": "daiAmount",
          "type": "uint128"
        },
        {
          "internalType": "uint128",
          "name": "timeTillMaturity",
          "type": "uint128"
        },
        {
          "internalType": "int128",
          "name": "k",
          "type": "int128"
        },
        {
          "internalType": "int128",
          "name": "g",
          "type": "int128"
        }
      ],
      "name": "yDaiOutForDaiIn",
      "outputs": [
        {
          "internalType": "bool",
          "name": "",
          "type": "bool"
        },
        {
          "internalType": "uint128",
          "name": "",
          "type": "uint128"
        }
      ],
      "stateMutability": "pure",
      "type": "function"
    },
    {
      "inputs": [
        {
          "internalType": "uint128",
          "name": "daiReserves",
          "type": "uint128"
        },
        {
          "internalType": "uint128",
          "name": "yDAIReserves",
          "type": "uint128"
        },
        {
          "internalType": "uint128",
          "name": "yDAIAmount",
          "type": "uint128"
        },
        {
          "internalType": "uint128",
          "name": "timeTillMaturity",
          "type": "uint128"
        },
        {
          "internalType": "int128",
          "name": "k",
          "type": "int128"
        },
        {
          "internalType": "int128",
          "name": "g",
          "type": "int128"
        }
      ],
      "name": "daiOutForYDaiIn",
      "outputs": [
        {
          "internalType": "bool",
          "name": "",
          "type": "bool"
        },
        {
          "internalType": "uint128",
          "name": "",
          "type": "uint128"
        }
      ],
      "stateMutability": "pure",
      "type": "function"
    },
    {
      "inputs": [
        {
          "internalType": "uint128",
          "name": "daiReserves",
          "type": "uint128"
        },
        {
          "internalType": "uint128",
          "name": "yDAIReserves",
          "type": "uint128"
        },
        {
          "internalType": "uint128",
          "name": "daiAmount",
          "type": "uint128"
        },
        {
          "internalType": "uint128",
          "name": "timeTillMaturity",
          "type": "uint128"
        },
        {
          "internalType": "int128",
          "name": "k",
          "type": "int128"
        },
        {
          "internalType": "int128",
          "name": "g",
          "type": "int128"
        }
      ],
      "name": "yDaiInForDaiOut",
      "outputs": [
        {
          "internalType": "bool",
          "name": "",
          "type": "bool"
        },
        {
          "internalType": "uint128",
          "name": "",
          "type": "uint128"
        }
      ],
      "stateMutability": "pure",
      "type": "function"
    },
    {
      "inputs": [
        {
          "internalType": "uint128",
          "name": "daiReserves",
          "type": "uint128"
        },
        {
          "internalType": "uint128",
          "name": "yDAIReserves",
          "type": "uint128"
        },
        {
          "internalType": "uint128",
          "name": "yDAIAmount",
          "type": "uint128"
        },
        {
          "internalType": "uint128",
          "name": "timeTillMaturity",
          "type": "uint128"
        },
        {
          "internalType": "int128",
          "name": "k",
          "type": "int128"
        },
        {
          "internalType": "int128",
          "name": "g",
          "type": "int128"
        }
      ],
      "name": "daiInForYDaiOut",
      "outputs": [
        {
          "internalType": "bool",
          "name": "",
          "type": "bool"
        },
        {
          "internalType": "uint128",
          "name": "",
          "type": "uint128"
        }
      ],
      "stateMutability": "pure",
      "type": "function"
    },
    {
      "inputs": [
        {
          "internalType": "uint128",
          "name": "x",
          "type": "uint128"
        },
        {
          "internalType": "uint128",
          "name": "y",
          "type": "uint128"
        },
        {
          "internalType": "uint128",
          "name": "z",
          "type": "uint128"
        }
      ],
      "name": "pow",
      "outputs": [
        {
          "internalType": "bool",
          "name": "",
          "type": "bool"
        },
        {
          "internalType": "uint128",
          "name": "",
          "type": "uint128"
        }
      ],
      "stateMutability": "pure",
      "type": "function"
    },
    {
      "inputs": [
        {
          "internalType": "uint128",
          "name": "x",
          "type": "uint128"
        }
      ],
      "name": "log_2",
      "outputs": [
        {
          "internalType": "bool",
          "name": "",
          "type": "bool"
        },
        {
          "internalType": "uint128",
          "name": "",
          "type": "uint128"
        }
      ],
      "stateMutability": "pure",
      "type": "function"
    },
    {
      "inputs": [
        {
          "internalType": "uint128",
          "name": "x",
          "type": "uint128"
        }
      ],
      "name": "pow_2",
      "outputs": [
        {
          "internalType": "bool",
          "name": "",
          "type": "bool"
        },
        {
          "internalType": "uint128",
          "name": "",
          "type": "uint128"
        }
      ],
      "stateMutability": "pure",
      "type": "function"
    }
  ],
  "bytecode": "0x608060405234801561001057600080fd5b50611899806100206000396000f3fe608060405234801561001057600080fd5b506004361061007d5760003560e01c8063832022891161005b578063832022891461014457806398f7993814610197578063fc58222a146101ea578063fe677afe146102225761007d565b806318c608ea14610082578063232eae55146100cb57806356c5209e1461011e575b600080fd5b6100a86004803603602081101561009857600080fd5b50356001600160801b0316610275565b6040805192151583526001600160801b0390911660208301528051918290030190f35b6100a8600480360360c08110156100e157600080fd5b506001600160801b038135811691602081013582169160408201358116916060810135909116906080810135600f90810b9160a00135900b61028c565b6100a86004803603602081101561013457600080fd5b50356001600160801b03166102ae565b6100a8600480360360c081101561015a57600080fd5b506001600160801b038135811691602081013582169160408201358116916060810135909116906080810135600f90810b9160a00135900b6102bc565b6100a8600480360360c08110156101ad57600080fd5b506001600160801b038135811691602081013582169160408201358116916060810135909116906080810135600f90810b9160a00135900b6102cf565b6100a86004803603606081101561020057600080fd5b506001600160801b0381358116916020810135821691604090910135166102e2565b6100a8600480360360c081101561023857600080fd5b506001600160801b038135811691602081013582169160408201358116916060810135909116906080810135600f90810b9160a00135900b6102fe565b600080600161028384610311565b91509150915091565b600080600161029f898989898989610964565b91509150965096945050505050565b600080600161028384610b4b565b600080600161029f8989898989896110e0565b600080600161029f8989898989896112b2565b60008060016102f2868686611480565b91509150935093915050565b600080600161029f89898989898961152e565b60006001600160801b03821661032657600080fd5b6001600160801b038216607f60791b600160401b8210156103535760409190911b9060016001607f1b0319015b600160601b82101561037a5760209190911b906f3fffffffffffffffffffffffffffffff19015b600160701b8210156103a15760109190911b906f1fffffffffffffffffffffffffffffff19015b600160781b8210156103c85760089190911b906f0fffffffffffffffffffffffffffffff19015b6001607c1b8210156103ef5760049190911b906f07ffffffffffffffffffffffffffffff19015b6001607e1b8210156104165760029190911b906f03ffffffffffffffffffffffffffffff19015b6001607f1b82101561043d5760019190911b906f01ffffffffffffffffffffffffffffff19015b908002607f1c90600160801b821061045d5760019190911c90600160781b175b908002607f1c90600160801b821061047d5760019190911c90600160771b175b908002607f1c90600160801b821061049d5760019190911c90600160761b175b908002607f1c90600160801b82106104bd5760019190911c90600160751b175b908002607f1c90600160801b82106104dd5760019190911c90600160741b175b908002607f1c90600160801b82106104fd5760019190911c90600160731b175b908002607f1c90600160801b821061051d5760019190911c90600160721b175b908002607f1c90600160801b821061053d5760019190911c90600160711b175b908002607f1c90600160801b821061055d5760019190911c90600160701b175b908002607f1c90600160801b821061057d5760019190911c906001606f1b175b908002607f1c90600160801b821061059d5760019190911c906001606e1b175b908002607f1c90600160801b82106105bd5760019190911c906001606d1b175b908002607f1c90600160801b82106105dd5760019190911c906001606c1b175b908002607f1c90600160801b82106105fd5760019190911c906001606b1b175b908002607f1c90600160801b821061061d5760019190911c906001606a1b175b908002607f1c90600160801b821061063d5760019190911c90600160691b175b908002607f1c90600160801b821061065d5760019190911c90600160681b175b908002607f1c90600160801b821061067d5760019190911c90600160671b175b908002607f1c90600160801b821061069d5760019190911c90600160661b175b908002607f1c90600160801b82106106bd5760019190911c90600160651b175b908002607f1c90600160801b82106106dd5760019190911c90600160641b175b908002607f1c90600160801b82106106fd5760019190911c90600160631b175b908002607f1c90600160801b821061071d5760019190911c90600160621b175b908002607f1c90600160801b821061073d5760019190911c90600160611b175b908002607f1c90600160801b821061075d5760019190911c90600160601b175b908002607f1c90600160801b821061077d5760019190911c906001605f1b175b908002607f1c90600160801b821061079d5760019190911c906001605e1b175b908002607f1c90600160801b82106107bd5760019190911c906001605d1b175b908002607f1c90600160801b82106107dd5760019190911c906001605c1b175b908002607f1c90600160801b82106107fd5760019190911c906001605b1b175b908002607f1c90600160801b821061081d5760019190911c906001605a1b175b908002607f1c90600160801b821061083d5760019190911c90600160591b175b908002607f1c90600160801b821061085d5760019190911c90600160581b175b908002607f1c90600160801b821061087d5760019190911c90600160571b175b908002607f1c90600160801b821061089d5760019190911c90600160561b175b908002607f1c90600160801b82106108bd5760019190911c90600160551b175b908002607f1c90600160801b82106108dd5760019190911c90600160541b175b908002607f1c90600160801b82106108fd5760019190911c90600160531b175b908002607f1c90600160801b821061091d5760019190911c90600160521b175b908002607f1c90600160801b821061093d5760019190911c90600160511b175b908002607f1c90600160801b821061095d5760019190911c90600160501b175b9392505050565b6000806109828461097d876001600160801b03166116fc565b61171a565b9050600061099d600160401b610998868561171a565b611751565b9050600081600f0b136109e5576040805162461bcd60e51b81526020600482018190526024820152600080516020611820833981519152604482015290519081900360640190fd5b6001600160801b03808816908a1603600160801b8110610a4c576040805162461bcd60e51b815260206004820152601b60248201527f5969656c644d6174683a20546f6f206d75636820446169206f75740000000000604482015290519081900360640190fd5b6000610a5d8284600160401b611480565b6001600160801b0316610a758b85600160401b611480565b6001600160801b0316610a8d8d86600160401b611480565b6001600160801b031601039050600160801b8110610adc5760405162461bcd60e51b815260040180806020018281038252602b815260200180611785602b913960400191505060405180910390fd5b60008a610aee83600160401b87611480565b036001600160801b03169050600160801b8110610b3c5760405162461bcd60e51b81526004018080602001828103825260218152602001806117d56021913960400191505060405180910390fd5b9b9a5050505050505050505050565b60006001607f1b600160781b831615610b74576fb504f333f9de6484597d89b3754abe9f02607f1c5b600160771b831615610b96576f9837f0518db8a96f46ad23182e42f6f602607f1c5b600160761b831615610bb8576f8b95c1e3ea8bd6e6fbe4628758a53c9002607f1c5b600160751b831615610bda576f85aac367cc487b14c5c95b8c2154c1b202607f1c5b600160741b831615610bfc576f82cd8698ac2ba1d73e2a475b46520bff02607f1c5b600160731b831615610c1e576f8164d1f3bc0307737be56527bd14def402607f1c5b600160721b831615610c40576f80b1ed4fd999ab6c25335719b6e6fd2002607f1c5b600160711b831615610c62576f8058d7d2d5e5f6b094d589f608ee4aa202607f1c5b600160701b831615610c84576f802c6436d0e04f50ff8ce94a6797b3ce02607f1c5b6001606f1b831615610ca6576f8016302f174676283690dfe44d11d00802607f1c5b6001606e1b831615610cc8576f800b179c82028fd0945e54e2ae18f2f002607f1c5b6001606d1b831615610cea576f80058baf7fee3b5d1c718b38e549cb9302607f1c5b6001606c1b831615610d0c576f8002c5d00fdcfcb6b6566a58c048be1f02607f1c5b6001606b1b831615610d2e576f800162e61bed4a48e84c2e1a463473d902607f1c5b6001606a1b831615610d50576f8000b17292f702a3aa22beacca94901302607f1c5b600160691b831615610d72576f800058b92abbae02030c5fa5256f41fe02607f1c5b600160681b831615610d94576f80002c5c8dade4d71776c0f4dbea67d602607f1c5b600160671b831615610db6576f8000162e44eaf636526be456600bdbe402607f1c5b600160661b831615610dd8576f80000b1721fa7c188307016c1cd4e8b602607f1c5b600160651b831615610dfa576f8000058b90de7e4cecfc487503488bb102607f1c5b600160641b831615610e1c576f800002c5c8678f36cbfce50a6de60b1402607f1c5b600160631b831615610e3e576f80000162e431db9f80b2347b5d62e51602607f1c5b600160621b831615610e60576f800000b1721872d0c7b08cf1e011415202607f1c5b600160611b831615610e82576f80000058b90c1aa8a5c3736cb77e8dff02607f1c5b600160601b831615610ea4576f8000002c5c8605a4635f2efc2362d97802607f1c5b6001605f1b831615610ec6576f800000162e4300e635cf4a109e3939bd02607f1c5b6001605e1b831615610ee8576f8000000b17217ff81bef9c551590cf8302607f1c5b6001605d1b831615610f0a576f800000058b90bfdd4e39cd52c0cfa27c02607f1c5b6001605c1b831615610f2c576f80000002c5c85fe6f72d669e0e76e41102607f1c5b6001605b1b831615610f4e576f8000000162e42ff18f9ad35186d0df2802607f1c5b6001605a1b831615610f70576f80000000b17217f84cce71aa0dcfffe702607f1c5b600160591b831615610f92576f8000000058b90bfc07a77ad56ed22aaa02607f1c5b600160581b831615610fb4576f800000002c5c85fdfc23cdead40da8d602607f1c5b600160571b831615610fd6576f80000000162e42fefc25eb1571853a6602607f1c5b600160561b831615610ff8576f800000000b17217f7d97f692baacded502607f1c5b600160551b83161561101a576f80000000058b90bfbead3b8b5dd254d702607f1c5b600160541b83161561103c576f8000000002c5c85fdf4eedd62f084e6702607f1c5b600160531b83161561105e576f800000000162e42fefa58aef378bf58602607f1c5b600160521b831615611080576f8000000000b17217f7d24a78a3c7ef0202607f1c5b600160511b8316156110a2576f800000000058b90bfbe9067c93e474a602607f1c5b600160501b8316156110c4576f80000000002c5c85fdf47b8e5a72599f02607f1c5b607f607984901c811690036001600160801b03161c9050919050565b600080611105600160401b6109988561097d8861097d8b6001600160801b03166116fc565b9050600081600f0b1361114d576040805162461bcd60e51b81526020600482018190526024820152600080516020611820833981519152604482015290519081900360640190fd5b6001600160801b0380871690881603600160801b81106111b4576040805162461bcd60e51b815260206004820152601c60248201527f5969656c644d6174683a20546f6f206d7563682079446169206f757400000000604482015290519081900360640190fd5b60006111c58284600160401b611480565b6001600160801b03166111dd8a85600160401b611480565b6001600160801b03166111f58c86600160401b611480565b6001600160801b031601039050600160801b81106112445760405162461bcd60e51b815260040180806020018281038252602a8152602001806117f6602a913960400191505060405180910390fd5b60008a61125683600160401b87611480565b036001600160801b03169050600160801b81106112a45760405162461bcd60e51b81526004018080602001828103825260218152602001806117d56021913960400191505060405180910390fd5b9a9950505050505050505050565b6000806112cb8461097d876001600160801b03166116fc565b905060006112e1600160401b610998868561171a565b9050600081600f0b13611329576040805162461bcd60e51b81526020600482018190526024820152600080516020611820833981519152604482015290519081900360640190fd5b6001600160801b0389811690881601600160801b8110611390576040805162461bcd60e51b815260206004820152601a60248201527f5969656c644d6174683a20546f6f206d7563682044616920696e000000000000604482015290519081900360640190fd5b60006113a18284600160401b611480565b6001600160801b03166113b98b85600160401b611480565b6001600160801b03166113d18d86600160401b611480565b6001600160801b031601039050600160801b81106114205760405162461bcd60e51b81526004018080602001828103825260258152602001806117b06025913960400191505060405180910390fd5b600061143182600160401b86611480565b8b036001600160801b03169050600160801b8110610b3c5760405162461bcd60e51b81526004018080602001828103825260218152602001806117d56021913960400191505060405180910390fd5b60006001600160801b03821661149557600080fd5b6001600160801b0384166114be576001600160801b0383166114b657600080fd5b50600061095d565b6000826001600160801b0316846001600160801b03166114dd87610311565b6001600160801b03036001600160801b031602816114f757fe5b0490506001600160801b0381111561151357600091505061095d565b611525816001600160801b0303610b4b565b95945050505050565b6000806115478461097d876001600160801b03166116fc565b9050600061155d600160401b610998868561171a565b9050600081600f0b136115a5576040805162461bcd60e51b81526020600482018190526024820152600080516020611820833981519152604482015290519081900360640190fd5b6001600160801b0388811690881601600160801b811061160c576040805162461bcd60e51b815260206004820152601b60248201527f5969656c644d6174683a20546f6f206d756368207944616920696e0000000000604482015290519081900360640190fd5b600061161d8a84600160401b611480565b6001600160801b03166116358385600160401b611480565b6001600160801b031661164d8d86600160401b611480565b6001600160801b031603019050600160801b811061169c5760405162461bcd60e51b81526004018080602001828103825260248152602001806118406024913960400191505060405180910390fd5b60006116ad82600160401b86611480565b8c036001600160801b03169050600160801b8110610b3c5760405162461bcd60e51b81526004018080602001828103825260218152602001806117d56021913960400191505060405180910390fd5b6000677fffffffffffffff82111561171357600080fd5b5060401b90565b6000600f83810b9083900b0260401d60016001607f1b03198112801590611748575060016001607f1b038113155b61095d57600080fd5b6000600f82810b9084900b0360016001607f1b03198112801590611748575060016001607f1b0381131561095d57600080fdfe5969656c644d6174683a20526573756c74696e67207944616920726573657276657320746f6f20686967685969656c644d6174683a20496e73756666696369656e7420794441492072657365727665735969656c644d6174683a20526f756e64696e6720696e6475636564206572726f725969656c644d6174683a20526573756c74696e672044616920726573657276657320746f6f20686967685969656c644d6174683a20546f6f206661722066726f6d206d617475726974795969656c644d6174683a20496e73756666696369656e7420446169207265736572766573a26469706673582212202910634d6316d75d3ce5d069b435f0c20b7fcde32d6d3cdd103ea285c9f4e33864736f6c634300060a0033",
  "immutableReferences": {},
  "source": "// SPDX-License-Identifier: GPL-3.0-or-later\r\n/*\r\n * Wrapper for Yield Math Smart Contract Library.\r\n * Copyright  2020 by ABDK Consulting.\r\n * Author: Mikhail Vladimirov <mikhail.vladimirov@gmail.com>\r\n */\r\npragma solidity ^0.5.0 || ^0.6.0;\r\n\r\nimport \"../pool/YieldMath.sol\";\r\n\r\n/**\r\n * Wrapper for Yield Math Smart Contract Library.\r\n */\r\ncontract YieldMathDAIWrapper {\r\n  /**\r\n   * Calculate the amount of yDAI a user would get for given amount of DAI.\r\n   *\r\n   * @param daiReserves DAI reserves amount\r\n   * @param yDAIReserves yDAI reserves amount\r\n   * @param daiAmount DAI amount to be traded\r\n   * @param timeTillMaturity time till maturity in seconds\r\n   * @param k time till maturity coefficient, multiplied by 2^64\r\n   * @param g fee coefficient, multiplied by 2^64\r\n   * @return the amount of yDAI a user would get for given amount of DAI\r\n   */\r\n  function yDaiOutForDaiIn (\r\n    uint128 daiReserves, uint128 yDAIReserves, uint128 daiAmount,\r\n    uint128 timeTillMaturity, int128 k, int128 g)\r\n  public pure returns (bool, uint128) {\r\n    return (\r\n      true,\r\n      YieldMath.yDaiOutForDaiIn (\r\n        daiReserves, yDAIReserves, daiAmount, timeTillMaturity, k, g));\r\n  }\r\n\r\n  /**\r\n   * Calculate the amount of DAI a user would get for certain amount of yDAI.\r\n   *\r\n   * @param daiReserves DAI reserves amount\r\n   * @param yDAIReserves yDAI reserves amount\r\n   * @param yDAIAmount yDAI amount to be traded\r\n   * @param timeTillMaturity time till maturity in seconds\r\n   * @param k time till maturity coefficient, multiplied by 2^64\r\n   * @param g fee coefficient, multiplied by 2^64\r\n   * @return the amount of DAI a user would get for given amount of yDAI\r\n   */\r\n  function daiOutForYDaiIn (\r\n    uint128 daiReserves, uint128 yDAIReserves, uint128 yDAIAmount,\r\n    uint128 timeTillMaturity, int128 k, int128 g)\r\n  public pure returns (bool, uint128) {\r\n    return (\r\n      true,\r\n      YieldMath.daiOutForYDaiIn (\r\n        daiReserves, yDAIReserves, yDAIAmount, timeTillMaturity, k, g));\r\n  }\r\n\r\n  /**\r\n   * Calculate the amount of yDAI a user could sell for given amount of DAI.\r\n   *\r\n   * @param daiReserves DAI reserves amount\r\n   * @param yDAIReserves yDAI reserves amount\r\n   * @param daiAmount DAI amount to be traded\r\n   * @param timeTillMaturity time till maturity in seconds\r\n   * @param k time till maturity coefficient, multiplied by 2^64\r\n   * @param g fee coefficient, multiplied by 2^64\r\n   * @return the amount of yDAI a user could sell for given amount of DAI\r\n   */\r\n  function yDaiInForDaiOut (\r\n    uint128 daiReserves, uint128 yDAIReserves, uint128 daiAmount,\r\n    uint128 timeTillMaturity, int128 k, int128 g)\r\n  public pure returns (bool, uint128) {\r\n    return (\r\n      true,\r\n      YieldMath.yDaiInForDaiOut (\r\n        daiReserves, yDAIReserves, daiAmount, timeTillMaturity, k, g));\r\n  }\r\n\r\n  /**\r\n   * Calculate the amount of DAI a user would have to pay for certain amount of\r\n   * yDAI.\r\n   *\r\n   * @param daiReserves DAI reserves amount\r\n   * @param yDAIReserves yDAI reserves amount\r\n   * @param yDAIAmount yDAI amount to be traded\r\n   * @param timeTillMaturity time till maturity in seconds\r\n   * @param k time till maturity coefficient, multiplied by 2^64\r\n   * @param g fee coefficient, multiplied by 2^64\r\n   * @return the amount of DAI a user would have to pay for given amount of\r\n   *         yDAI\r\n   */\r\n  function daiInForYDaiOut (\r\n    uint128 daiReserves, uint128 yDAIReserves, uint128 yDAIAmount,\r\n    uint128 timeTillMaturity, int128 k, int128 g)\r\n  public pure returns (bool, uint128) {\r\n    return (\r\n      true,\r\n      YieldMath.daiInForYDaiOut (\r\n        daiReserves, yDAIReserves, yDAIAmount, timeTillMaturity, k, g));\r\n  }\r\n\r\n  /**\r\n   * Raise given number x into power specified as a simple fraction y/z and then\r\n   * multiply the result by the normalization factor 2^(128 * (1 - y/z)).\r\n   * Revert if z is zero, or if both x and y are zeros.\r\n   *\r\n   * @param x number to raise into given power y/z\r\n   * @param y numerator of the power to raise x into\r\n   * @param z denominator of the power to raise x into\r\n   * @return x raised into power y/z and then multiplied by 2^(128 * (1 - y/z))\r\n   */\r\n  function pow (uint128 x, uint128 y, uint128 z)\r\n  public pure returns (bool, uint128) {\r\n    return (\r\n      true,\r\n      YieldMath.pow (x, y, z));\r\n  }\r\n\r\n  /**\r\n   * Calculate base 2 logarithm of an unsigned 128-bit integer number.  Revert\r\n   * in case x is zero.\r\n   *\r\n   * @param x number to calculate 2-base logarithm of\r\n   * @return 2-base logarithm of x, multiplied by 2^121\r\n   */\r\n  function log_2 (uint128 x)\r\n  public pure returns (bool, uint128) {\r\n    return (\r\n      true,\r\n      YieldMath.log_2 (x));\r\n  }\r\n\r\n  /**\r\n   * Calculate 2 raised into given power.\r\n   *\r\n   * @param x power to raise 2 into, multiplied by 2^121\r\n   * @return 2 raised into given power\r\n   */\r\n  function pow_2 (uint128 x)\r\n  public pure returns (bool, uint128) {\r\n    return (\r\n      true,\r\n      YieldMath.pow_2 (x));\r\n  }\r\n}\r\n",
  "sourcePath": "C:/Users/bruce/dev/yield/yDai/contracts/mocks/YieldMathDAIWrapper.sol",
  "compiler": {
    "name": "solc",
    "version": "0.6.10+commit.00c0fcaf.Emscripten.clang"
  },
  "schemaVersion": "3.2.3",
  "updatedAt": "2020-08-24T15:06:41.306Z",
  "devdoc": {
    "methods": {
      "daiInForYDaiOut(uint128,uint128,uint128,uint128,int128,int128)": {
        "params": {
          "daiReserves": "DAI reserves amount",
          "g": "fee coefficient, multiplied by 2^64",
          "k": "time till maturity coefficient, multiplied by 2^64",
          "timeTillMaturity": "time till maturity in seconds",
          "yDAIAmount": "yDAI amount to be traded",
          "yDAIReserves": "yDAI reserves amount"
        },
        "returns": {
          "_0": "the amount of DAI a user would have to pay for given amount of         yDAI"
        }
      },
      "daiOutForYDaiIn(uint128,uint128,uint128,uint128,int128,int128)": {
        "params": {
          "daiReserves": "DAI reserves amount",
          "g": "fee coefficient, multiplied by 2^64",
          "k": "time till maturity coefficient, multiplied by 2^64",
          "timeTillMaturity": "time till maturity in seconds",
          "yDAIAmount": "yDAI amount to be traded",
          "yDAIReserves": "yDAI reserves amount"
        },
        "returns": {
          "_0": "the amount of DAI a user would get for given amount of yDAI"
        }
      },
      "log_2(uint128)": {
        "params": {
          "x": "number to calculate 2-base logarithm of"
        },
        "returns": {
          "_0": "2-base logarithm of x, multiplied by 2^121"
        }
      },
      "pow(uint128,uint128,uint128)": {
        "params": {
          "x": "number to raise into given power y/z",
          "y": "numerator of the power to raise x into",
          "z": "denominator of the power to raise x into"
        },
        "returns": {
          "_0": "x raised into power y/z and then multiplied by 2^(128 * (1 - y/z))"
        }
      },
      "pow_2(uint128)": {
        "params": {
          "x": "power to raise 2 into, multiplied by 2^121"
        },
        "returns": {
          "_0": "2 raised into given power"
        }
      },
      "yDaiInForDaiOut(uint128,uint128,uint128,uint128,int128,int128)": {
        "params": {
          "daiAmount": "DAI amount to be traded",
          "daiReserves": "DAI reserves amount",
          "g": "fee coefficient, multiplied by 2^64",
          "k": "time till maturity coefficient, multiplied by 2^64",
          "timeTillMaturity": "time till maturity in seconds",
          "yDAIReserves": "yDAI reserves amount"
        },
        "returns": {
          "_0": "the amount of yDAI a user could sell for given amount of DAI"
        }
      },
      "yDaiOutForDaiIn(uint128,uint128,uint128,uint128,int128,int128)": {
        "params": {
          "daiAmount": "DAI amount to be traded",
          "daiReserves": "DAI reserves amount",
          "g": "fee coefficient, multiplied by 2^64",
          "k": "time till maturity coefficient, multiplied by 2^64",
          "timeTillMaturity": "time till maturity in seconds",
          "yDAIReserves": "yDAI reserves amount"
        },
        "returns": {
          "_0": "the amount of yDAI a user would get for given amount of DAI"
        }
      }
    }
  },
  "userdoc": {
    "methods": {
      "daiInForYDaiOut(uint128,uint128,uint128,uint128,int128,int128)": {
        "notice": "Calculate the amount of DAI a user would have to pay for certain amount of yDAI."
      },
      "daiOutForYDaiIn(uint128,uint128,uint128,uint128,int128,int128)": {
        "notice": "Calculate the amount of DAI a user would get for certain amount of yDAI."
      },
      "log_2(uint128)": {
        "notice": "Calculate base 2 logarithm of an unsigned 128-bit integer number.  Revert in case x is zero."
      },
      "pow(uint128,uint128,uint128)": {
        "notice": "Raise given number x into power specified as a simple fraction y/z and then multiply the result by the normalization factor 2^(128 * (1 - y/z)). Revert if z is zero, or if both x and y are zeros."
      },
      "pow_2(uint128)": {
        "notice": "Calculate 2 raised into given power."
      },
      "yDaiInForDaiOut(uint128,uint128,uint128,uint128,int128,int128)": {
        "notice": "Calculate the amount of yDAI a user could sell for given amount of DAI."
      },
      "yDaiOutForDaiIn(uint128,uint128,uint128,uint128,int128,int128)": {
        "notice": "Calculate the amount of yDAI a user would get for given amount of DAI."
      }
    },
    "notice": "Wrapper for Yield Math Smart Contract Library."
  }
}