{
  "contractName": "YieldProxy",
  "abi": [
    {
      "inputs": [
        {
          "internalType": "address",
          "name": "controller_",
          "type": "address"
        },
        {
          "internalType": "contract IPool[]",
          "name": "_pools",
          "type": "address[]"
        }
      ],
      "stateMutability": "nonpayable",
      "type": "constructor"
    },
    {
      "inputs": [],
      "name": "CHAI",
      "outputs": [
        {
          "internalType": "bytes32",
          "name": "",
          "type": "bytes32"
        }
      ],
      "stateMutability": "view",
      "type": "function",
      "constant": true
    },
    {
      "inputs": [],
      "name": "MTY",
      "outputs": [
        {
          "internalType": "bool",
          "name": "",
          "type": "bool"
        }
      ],
      "stateMutability": "view",
      "type": "function",
      "constant": true
    },
    {
      "inputs": [],
      "name": "UNIT",
      "outputs": [
        {
          "internalType": "uint256",
          "name": "",
          "type": "uint256"
        }
      ],
      "stateMutability": "view",
      "type": "function",
      "constant": true
    },
    {
      "inputs": [],
      "name": "WETH",
      "outputs": [
        {
          "internalType": "bytes32",
          "name": "",
          "type": "bytes32"
        }
      ],
      "stateMutability": "view",
      "type": "function",
      "constant": true
    },
    {
      "inputs": [],
      "name": "YTM",
      "outputs": [
        {
          "internalType": "bool",
          "name": "",
          "type": "bool"
        }
      ],
      "stateMutability": "view",
      "type": "function",
      "constant": true
    },
    {
      "inputs": [],
      "name": "chai",
      "outputs": [
        {
          "internalType": "contract IChai",
          "name": "",
          "type": "address"
        }
      ],
      "stateMutability": "view",
      "type": "function",
      "constant": true
    },
    {
      "inputs": [],
      "name": "controller",
      "outputs": [
        {
          "internalType": "contract IController",
          "name": "",
          "type": "address"
        }
      ],
      "stateMutability": "view",
      "type": "function",
      "constant": true
    },
    {
      "inputs": [],
      "name": "dai",
      "outputs": [
        {
          "internalType": "contract IDai",
          "name": "",
          "type": "address"
        }
      ],
      "stateMutability": "view",
      "type": "function",
      "constant": true
    },
    {
      "inputs": [],
      "name": "daiJoin",
      "outputs": [
        {
          "internalType": "contract IDaiJoin",
          "name": "",
          "type": "address"
        }
      ],
      "stateMutability": "view",
      "type": "function",
      "constant": true
    },
    {
      "inputs": [
        {
          "internalType": "uint256",
          "name": "",
          "type": "uint256"
        }
      ],
      "name": "pools",
      "outputs": [
        {
          "internalType": "contract IPool",
          "name": "",
          "type": "address"
        }
      ],
      "stateMutability": "view",
      "type": "function",
      "constant": true
    },
    {
      "inputs": [
        {
          "internalType": "address",
          "name": "",
          "type": "address"
        }
      ],
      "name": "poolsMap",
      "outputs": [
        {
          "internalType": "bool",
          "name": "",
          "type": "bool"
        }
      ],
      "stateMutability": "view",
      "type": "function",
      "constant": true
    },
    {
      "inputs": [],
      "name": "vat",
      "outputs": [
        {
          "internalType": "contract IVat",
          "name": "",
          "type": "address"
        }
      ],
      "stateMutability": "view",
      "type": "function",
      "constant": true
    },
    {
      "inputs": [],
      "name": "weth",
      "outputs": [
        {
          "internalType": "contract IWeth",
          "name": "",
          "type": "address"
        }
      ],
      "stateMutability": "view",
      "type": "function",
      "constant": true
    },
    {
      "inputs": [],
      "name": "wethJoin",
      "outputs": [
        {
          "internalType": "contract IGemJoin",
          "name": "",
          "type": "address"
        }
      ],
      "stateMutability": "view",
      "type": "function",
      "constant": true
    },
    {
      "stateMutability": "payable",
      "type": "receive",
      "payable": true
    },
    {
      "inputs": [
        {
          "internalType": "address",
          "name": "from",
          "type": "address"
        },
        {
          "internalType": "bytes",
          "name": "daiSignature",
          "type": "bytes"
        },
        {
          "internalType": "bytes",
          "name": "controllerSig",
          "type": "bytes"
        }
      ],
      "name": "onboard",
      "outputs": [],
      "stateMutability": "nonpayable",
      "type": "function"
    },
    {
      "inputs": [
        {
          "internalType": "contract IPool",
          "name": "pool",
          "type": "address"
        },
        {
          "internalType": "address",
          "name": "from",
          "type": "address"
        },
        {
          "internalType": "bytes",
          "name": "daiSig",
          "type": "bytes"
        },
        {
          "internalType": "bytes",
          "name": "yDaiSig",
          "type": "bytes"
        },
        {
          "internalType": "bytes",
          "name": "poolSig",
          "type": "bytes"
        }
      ],
      "name": "authorizePool",
      "outputs": [],
      "stateMutability": "nonpayable",
      "type": "function"
    },
    {
      "inputs": [
        {
          "internalType": "address",
          "name": "to",
          "type": "address"
        }
      ],
      "name": "post",
      "outputs": [],
      "stateMutability": "payable",
      "type": "function",
      "payable": true
    },
    {
      "inputs": [
        {
          "internalType": "address payable",
          "name": "to",
          "type": "address"
        },
        {
          "internalType": "uint256",
          "name": "amount",
          "type": "uint256"
        }
      ],
      "name": "withdraw",
      "outputs": [],
      "stateMutability": "nonpayable",
      "type": "function"
    },
    {
      "inputs": [
        {
          "internalType": "contract IPool",
          "name": "pool",
          "type": "address"
        },
        {
          "internalType": "uint256",
          "name": "daiUsed",
          "type": "uint256"
        },
        {
          "internalType": "uint256",
          "name": "maxYDai",
          "type": "uint256"
        }
      ],
      "name": "addLiquidity",
      "outputs": [
        {
          "internalType": "uint256",
          "name": "",
          "type": "uint256"
        }
      ],
      "stateMutability": "nonpayable",
      "type": "function"
    },
    {
      "inputs": [
        {
          "internalType": "contract IPool",
          "name": "pool",
          "type": "address"
        },
        {
          "internalType": "uint256",
          "name": "poolTokens",
          "type": "uint256"
        },
        {
          "internalType": "uint256",
          "name": "minimumDai",
          "type": "uint256"
        }
      ],
      "name": "removeLiquidityEarly",
      "outputs": [],
      "stateMutability": "nonpayable",
      "type": "function"
    },
    {
      "inputs": [
        {
          "internalType": "contract IPool",
          "name": "pool",
          "type": "address"
        },
        {
          "internalType": "uint256",
          "name": "poolTokens",
          "type": "uint256"
        }
      ],
      "name": "removeLiquidityMature",
      "outputs": [],
      "stateMutability": "nonpayable",
      "type": "function"
    },
    {
      "inputs": [
        {
          "internalType": "contract IPool",
          "name": "pool",
          "type": "address"
        },
        {
          "internalType": "bytes32",
          "name": "collateral",
          "type": "bytes32"
        },
        {
          "internalType": "uint256",
          "name": "maturity",
          "type": "uint256"
        },
        {
          "internalType": "address",
          "name": "to",
          "type": "address"
        },
        {
          "internalType": "uint256",
          "name": "maximumYDai",
          "type": "uint256"
        },
        {
          "internalType": "uint256",
          "name": "daiToBorrow",
          "type": "uint256"
        }
      ],
      "name": "borrowDaiForMaximumYDai",
      "outputs": [
        {
          "internalType": "uint256",
          "name": "",
          "type": "uint256"
        }
      ],
      "stateMutability": "nonpayable",
      "type": "function"
    },
    {
      "inputs": [
        {
          "internalType": "contract IPool",
          "name": "pool",
          "type": "address"
        },
        {
          "internalType": "bytes32",
          "name": "collateral",
          "type": "bytes32"
        },
        {
          "internalType": "uint256",
          "name": "maturity",
          "type": "uint256"
        },
        {
          "internalType": "address",
          "name": "to",
          "type": "address"
        },
        {
          "internalType": "uint256",
          "name": "yDaiToBorrow",
          "type": "uint256"
        },
        {
          "internalType": "uint256",
          "name": "minimumDaiToBorrow",
          "type": "uint256"
        }
      ],
      "name": "borrowMinimumDaiForYDai",
      "outputs": [
        {
          "internalType": "uint256",
          "name": "",
          "type": "uint256"
        }
      ],
      "stateMutability": "nonpayable",
      "type": "function"
    },
    {
      "inputs": [
        {
          "internalType": "contract IPool",
          "name": "pool",
          "type": "address"
        },
        {
          "internalType": "bytes32",
          "name": "collateral",
          "type": "bytes32"
        },
        {
          "internalType": "uint256",
          "name": "maturity",
          "type": "uint256"
        },
        {
          "internalType": "address",
          "name": "to",
          "type": "address"
        },
        {
          "internalType": "uint256",
          "name": "yDaiRepayment",
          "type": "uint256"
        },
        {
          "internalType": "uint256",
          "name": "maximumRepaymentInDai",
          "type": "uint256"
        }
      ],
      "name": "repayYDaiDebtForMaximumDai",
      "outputs": [
        {
          "internalType": "uint256",
          "name": "",
          "type": "uint256"
        }
      ],
      "stateMutability": "nonpayable",
      "type": "function"
    },
    {
      "inputs": [
        {
          "internalType": "contract IPool",
          "name": "pool",
          "type": "address"
        },
        {
          "internalType": "bytes32",
          "name": "collateral",
          "type": "bytes32"
        },
        {
          "internalType": "uint256",
          "name": "maturity",
          "type": "uint256"
        },
        {
          "internalType": "address",
          "name": "to",
          "type": "address"
        },
        {
          "internalType": "uint256",
          "name": "minimumYDaiRepayment",
          "type": "uint256"
        },
        {
          "internalType": "uint256",
          "name": "repaymentInDai",
          "type": "uint256"
        }
      ],
      "name": "repayMinimumYDaiDebtForDai",
      "outputs": [
        {
          "internalType": "uint256",
          "name": "",
          "type": "uint256"
        }
      ],
      "stateMutability": "nonpayable",
      "type": "function"
    },
    {
      "inputs": [
        {
          "internalType": "address",
          "name": "pool",
          "type": "address"
        },
        {
          "internalType": "address",
          "name": "to",
          "type": "address"
        },
        {
          "internalType": "uint128",
          "name": "daiIn",
          "type": "uint128"
        },
        {
          "internalType": "uint128",
          "name": "minYDaiOut",
          "type": "uint128"
        }
      ],
      "name": "sellDai",
      "outputs": [
        {
          "internalType": "uint256",
          "name": "",
          "type": "uint256"
        }
      ],
      "stateMutability": "nonpayable",
      "type": "function"
    },
    {
      "inputs": [
        {
          "internalType": "address",
          "name": "pool",
          "type": "address"
        },
        {
          "internalType": "address",
          "name": "to",
          "type": "address"
        },
        {
          "internalType": "uint128",
          "name": "daiOut",
          "type": "uint128"
        },
        {
          "internalType": "uint128",
          "name": "maxYDaiIn",
          "type": "uint128"
        }
      ],
      "name": "buyDai",
      "outputs": [
        {
          "internalType": "uint256",
          "name": "",
          "type": "uint256"
        }
      ],
      "stateMutability": "nonpayable",
      "type": "function"
    },
    {
      "inputs": [
        {
          "internalType": "address",
          "name": "pool",
          "type": "address"
        },
        {
          "internalType": "address",
          "name": "to",
          "type": "address"
        },
        {
          "internalType": "uint128",
          "name": "yDaiIn",
          "type": "uint128"
        },
        {
          "internalType": "uint128",
          "name": "minDaiOut",
          "type": "uint128"
        }
      ],
      "name": "sellYDai",
      "outputs": [
        {
          "internalType": "uint256",
          "name": "",
          "type": "uint256"
        }
      ],
      "stateMutability": "nonpayable",
      "type": "function"
    },
    {
      "inputs": [
        {
          "internalType": "address",
          "name": "pool",
          "type": "address"
        },
        {
          "internalType": "address",
          "name": "to",
          "type": "address"
        },
        {
          "internalType": "uint128",
          "name": "yDaiOut",
          "type": "uint128"
        },
        {
          "internalType": "uint128",
          "name": "maxDaiIn",
          "type": "uint128"
        }
      ],
      "name": "buyYDai",
      "outputs": [
        {
          "internalType": "uint256",
          "name": "",
          "type": "uint256"
        }
      ],
      "stateMutability": "nonpayable",
      "type": "function"
    },
    {
      "inputs": [
        {
          "internalType": "address",
          "name": "pool",
          "type": "address"
        },
        {
          "internalType": "address",
          "name": "user",
          "type": "address"
        },
        {
          "internalType": "uint256",
          "name": "wethAmount",
          "type": "uint256"
        },
        {
          "internalType": "uint256",
          "name": "daiAmount",
          "type": "uint256"
        }
      ],
      "name": "makerToYield",
      "outputs": [],
      "stateMutability": "nonpayable",
      "type": "function"
    },
    {
      "inputs": [
        {
          "internalType": "address",
          "name": "pool",
          "type": "address"
        },
        {
          "internalType": "address",
          "name": "user",
          "type": "address"
        },
        {
          "internalType": "uint256",
          "name": "yDaiAmount",
          "type": "uint256"
        },
        {
          "internalType": "uint256",
          "name": "wethAmount",
          "type": "uint256"
        }
      ],
      "name": "yieldToMaker",
      "outputs": [],
      "stateMutability": "nonpayable",
      "type": "function"
    },
    {
      "inputs": [
        {
          "internalType": "address",
          "name": "",
          "type": "address"
        },
        {
          "internalType": "uint256",
          "name": "yDaiAmount",
          "type": "uint256"
        },
        {
          "internalType": "bytes",
          "name": "data",
          "type": "bytes"
        }
      ],
      "name": "executeOnFlashMint",
      "outputs": [],
      "stateMutability": "nonpayable",
      "type": "function"
    },
    {
      "inputs": [
        {
          "internalType": "uint256",
          "name": "daiAmount",
          "type": "uint256"
        }
      ],
      "name": "wethForDai",
      "outputs": [
        {
          "internalType": "uint256",
          "name": "",
          "type": "uint256"
        }
      ],
      "stateMutability": "view",
      "type": "function",
      "constant": true
    },
    {
      "inputs": [
        {
          "internalType": "uint256",
          "name": "yDaiAmount",
          "type": "uint256"
        }
      ],
      "name": "wethForYDai",
      "outputs": [
        {
          "internalType": "uint256",
          "name": "",
          "type": "uint256"
        }
      ],
      "stateMutability": "view",
      "type": "function",
      "constant": true
    },
    {
      "inputs": [
        {
          "internalType": "address",
          "name": "pool",
          "type": "address"
        },
        {
          "internalType": "uint256",
          "name": "daiAmount",
          "type": "uint256"
        }
      ],
      "name": "yDaiForDai",
      "outputs": [
        {
          "internalType": "uint256",
          "name": "",
          "type": "uint256"
        }
      ],
      "stateMutability": "view",
      "type": "function",
      "constant": true
    },
    {
      "inputs": [
        {
          "internalType": "address",
          "name": "pool",
          "type": "address"
        },
        {
          "internalType": "uint256",
          "name": "yDaiAmount",
          "type": "uint256"
        }
      ],
      "name": "daiForYDai",
      "outputs": [
        {
          "internalType": "uint256",
          "name": "",
          "type": "uint256"
        }
      ],
      "stateMutability": "view",
      "type": "function",
      "constant": true
    }
  ],
  "bytecode": "0x60806040523480156200001157600080fd5b506040516200569a3803806200569a833981810160405260408110156200003757600080fd5b8151602083018051604051929492938301929190846401000000008211156200005f57600080fd5b9083019060208201858111156200007557600080fd5b82518660208202830111640100000000821117156200009357600080fd5b82525081516020918201928201910280838360005b83811015620000c2578181015183820152602001620000a8565b50505050919091016040818152600080546001600160a01b0319166001600160a01b038a8116919091178083556361d027b360e01b855292519197509190911694506361d027b3935060048083019350602092829003018186803b1580156200012a57600080fd5b505afa1580156200013f573d6000803e3d6000fd5b505050506040513d60208110156200015657600080fd5b505160408051633fc8cef360e01b815290519192506001600160a01b03831691633fc8cef391600480820192602092909190829003018186803b1580156200019d57600080fd5b505afa158015620001b2573d6000803e3d6000fd5b505050506040513d6020811015620001c957600080fd5b5051600480546001600160a01b0319166001600160a01b039283161781556040805163f4b9fa7560e01b815290519284169263f4b9fa7592828101926020929190829003018186803b1580156200021f57600080fd5b505afa15801562000234573d6000803e3d6000fd5b505050506040513d60208110156200024b57600080fd5b5051600280546001600160a01b0319166001600160a01b0392831617905560408051635b4e822b60e11b815290519183169163b69d045691600480820192602092909190829003018186803b158015620002a457600080fd5b505afa158015620002b9573d6000803e3d6000fd5b505050506040513d6020811015620002d057600080fd5b5051600380546001600160a01b0319166001600160a01b0392831617905560408051633045916f60e21b815290519183169163c11645bc91600480820192602092909190829003018186803b1580156200032957600080fd5b505afa1580156200033e573d6000803e3d6000fd5b505050506040513d60208110156200035557600080fd5b5051600680546001600160a01b0319166001600160a01b0392831617905560408051632dbacef360e01b8152905191831691632dbacef391600480820192602092909190829003018186803b158015620003ae57600080fd5b505afa158015620003c3573d6000803e3d6000fd5b505050506040513d6020811015620003da57600080fd5b5051600580546001600160a01b0319166001600160a01b03928316179055604080516336569e7760e01b81529051918316916336569e7791600480820192602092909190829003018186803b1580156200043357600080fd5b505afa15801562000448573d6000803e3d6000fd5b505050506040513d60208110156200045f57600080fd5b5051600180546001600160a01b0319166001600160a01b039283161790556002546040805163095ea7b360e01b8152848416600482015260001960248201529051919092169163095ea7b39160448083019260209291908290030181600087803b158015620004cd57600080fd5b505af1158015620004e2573d6000803e3d6000fd5b505050506040513d6020811015620004f957600080fd5b50506003546040805163095ea7b360e01b81526001600160a01b03848116600483015260001960248301529151919092169163095ea7b39160448083019260209291908290030181600087803b1580156200055357600080fd5b505af115801562000568573d6000803e3d6000fd5b505050506040513d60208110156200057f57600080fd5b5050600480546040805163095ea7b360e01b81526001600160a01b038581169482019490945260001960248201529051929091169163095ea7b3916044808201926020929091908290030181600087803b158015620005dd57600080fd5b505af1158015620005f2573d6000803e3d6000fd5b505050506040513d60208110156200060957600080fd5b50506002546003546040805163095ea7b360e01b81526001600160a01b03928316600482015260001960248201529051919092169163095ea7b39160448083019260209291908290030181600087803b1580156200066657600080fd5b505af11580156200067b573d6000803e3d6000fd5b505050506040513d60208110156200069257600080fd5b5050600154600654604080516328ec8bf160e21b81526001600160a01b0392831660048201529051919092169163a3b22fc491602480830192600092919082900301818387803b158015620006e657600080fd5b505af1158015620006fb573d6000803e3d6000fd5b5050600154600554604080516328ec8bf160e21b81526001600160a01b039283166004820152905191909216935063a3b22fc49250602480830192600092919082900301818387803b1580156200075157600080fd5b505af115801562000766573d6000803e3d6000fd5b50506002546006546040805163095ea7b360e01b81526001600160a01b0392831660048201526000196024820152905191909216935063095ea7b3925060448083019260209291908290030181600087803b158015620007c557600080fd5b505af1158015620007da573d6000803e3d6000fd5b505050506040513d6020811015620007f157600080fd5b5050600480546005546040805163095ea7b360e01b81526001600160a01b039283169481019490945260001960248501525191169163095ea7b39160448083019260209291908290030181600087803b1580156200084e57600080fd5b505af115801562000863573d6000803e3d6000fd5b505050506040513d60208110156200087a57600080fd5b5050600480546040805163095ea7b360e01b81526001600160a01b038581169482019490945260001960248201529051929091169163095ea7b3916044808201926020929091908290030181600087803b158015620008d857600080fd5b505af1158015620008ed573d6000803e3d6000fd5b505050506040513d60208110156200090457600080fd5b50600090505b825181101562000b3c5760025483516001600160a01b039091169063095ea7b3908590849081106200093857fe5b60200260200101516000196040518363ffffffff1660e01b815260040180836001600160a01b03166001600160a01b0316815260200182815260200192505050602060405180830381600087803b1580156200099357600080fd5b505af1158015620009a8573d6000803e3d6000fd5b505050506040513d6020811015620009bf57600080fd5b50508251839082908110620009d057fe5b60200260200101516001600160a01b031663aef52e3f6040518163ffffffff1660e01b815260040160206040518083038186803b15801562000a1157600080fd5b505afa15801562000a26573d6000803e3d6000fd5b505050506040513d602081101562000a3d57600080fd5b505183516001600160a01b039091169063095ea7b39085908490811062000a6057fe5b60200260200101516000196040518363ffffffff1660e01b815260040180836001600160a01b03166001600160a01b0316815260200182815260200192505050602060405180830381600087803b15801562000abb57600080fd5b505af115801562000ad0573d6000803e3d6000fd5b505050506040513d602081101562000ae757600080fd5b5050825160019060089060009086908590811062000b0157fe5b6020908102919091018101516001600160a01b03168252810191909152604001600020805460ff19169115159190911790556001016200090a565b50815162000b5290600790602085019062000b5c565b5050505062000bf0565b82805482825590600052602060002090810192821562000bb4579160200282015b8281111562000bb457825182546001600160a01b0319166001600160a01b0390911617825560209092019160019091019062000b7d565b5062000bc292915062000bc6565b5090565b62000bed91905b8082111562000bc25780546001600160a01b031916815560010162000bcd565b90565b614a9a8062000c006000396000f3fe6080604052600436106102135760003560e01c8063ac4afa3811610118578063c11645bc116100a0578063f3fef3a31161006f578063f3fef3a314610b73578063f4b9fa7514610bac578063f5216b0214610bc1578063f77c479114610c00578063f7bbc3ca14610c155761021a565b8063c11645bc14610aac578063c43a860814610ac1578063cc53d7bf14610ad6578063ef788f4d14610b2a5761021a565b8063b4714804116100e7578063b4714804146103cd578063b69d0456146109b9578063b6dbf9ce146109ce578063b8fde750146109e3578063bdd26b3114610a1c5761021a565b8063ac4afa38146108d1578063ad5c4648146108fb578063ae70747c14610910578063aef07576146109645761021a565b806355776b771161019b5780637e3d4cfa1161016a5780637e3d4cfa146107e65780638ba1d1c91461080f5780639d8e217714610842578063a536362714610857578063a98018821461087d5761021a565b806355776b771461055157806357120ded146105905780636f795225146105d9578063723d9489146107ad5761021a565b80632dbacef3116101e25780632dbacef31461044c57806336569e771461047d57806337ba839b146104925780633fc8cef3146104e75780635047c7f4146104fc5761021a565b806304b60aa01461021f578063081129a61461028557806315d9c754146103cd578063215b548c146103f75761021a565b3661021a57005b600080fd5b34801561022b57600080fd5b506102736004803603608081101561024257600080fd5b506001600160a01b0381358116916020810135909116906001600160801b0360408201358116916060013516610c4e565b60408051918252519081900360200190f35b34801561029157600080fd5b506103cb600480360360608110156102a857600080fd5b6001600160a01b038235169190810190604081016020820135600160201b8111156102d257600080fd5b8201836020820111156102e457600080fd5b803590602001918460018302840111600160201b8311171561030557600080fd5b91908080601f0160208091040260200160405190810160405280939291908181526020018383808284376000920191909152509295949360208101935035915050600160201b81111561035757600080fd5b82018360208201111561036957600080fd5b803590602001918460018302840111600160201b8311171561038a57600080fd5b91908080601f016020809104026020016040519081016040528093929190818152602001838380828437600092019190915250929550610d4b945050505050565b005b3480156103d957600080fd5b50610273600480360360208110156103f057600080fd5b5035610f1b565b34801561040357600080fd5b50610273600480360360c081101561041a57600080fd5b506001600160a01b03813581169160208101359160408201359160608101359091169060808101359060a00135610fb5565b34801561045857600080fd5b5061046161118b565b604080516001600160a01b039092168252519081900360200190f35b34801561048957600080fd5b5061046161119a565b34801561049e57600080fd5b50610273600480360360c08110156104b557600080fd5b506001600160a01b03813581169160208101359160408201359160608101359091169060808101359060a001356111a9565b3480156104f357600080fd5b50610461611405565b34801561050857600080fd5b50610273600480360360c081101561051f57600080fd5b506001600160a01b03813581169160208101359160408201359160608101359091169060808101359060a00135611414565b34801561055d57600080fd5b506102736004803603606081101561057457600080fd5b506001600160a01b0381351690602081013590604001356115e5565b34801561059c57600080fd5b506103cb600480360360808110156105b357600080fd5b506001600160a01b03813581169160208101359091169060408101359060600135611d5b565b3480156105e557600080fd5b506103cb600480360360a08110156105fc57600080fd5b6001600160a01b038235811692602081013590911691810190606081016040820135600160201b81111561062f57600080fd5b82018360208201111561064157600080fd5b803590602001918460018302840111600160201b8311171561066257600080fd5b91908080601f0160208091040260200160405190810160405280939291908181526020018383808284376000920191909152509295949360208101935035915050600160201b8111156106b457600080fd5b8201836020820111156106c657600080fd5b803590602001918460018302840111600160201b831117156106e757600080fd5b91908080601f0160208091040260200160405190810160405280939291908181526020018383808284376000920191909152509295949360208101935035915050600160201b81111561073957600080fd5b82018360208201111561074b57600080fd5b803590602001918460018302840111600160201b8311171561076c57600080fd5b91908080601f0160208091040260200160405190810160405280939291908181526020018383808284376000920191909152509295506120c2945050505050565b3480156107b957600080fd5b50610273600480360360408110156107d057600080fd5b506001600160a01b0381351690602001356123d4565b3480156107f257600080fd5b506107fb612472565b604080519115158252519081900360200190f35b34801561081b57600080fd5b506107fb6004803603602081101561083257600080fd5b50356001600160a01b0316612477565b34801561084e57600080fd5b5061027361248c565b6103cb6004803603602081101561086d57600080fd5b50356001600160a01b031661249c565b34801561088957600080fd5b50610273600480360360808110156108a057600080fd5b506001600160a01b0381358116916020810135909116906001600160801b036040820135811691606001351661257b565b3480156108dd57600080fd5b50610461600480360360208110156108f457600080fd5b503561266f565b34801561090757600080fd5b50610273612696565b34801561091c57600080fd5b506102736004803603608081101561093357600080fd5b506001600160a01b0381358116916020810135909116906001600160801b03604082013581169160600135166126a2565b34801561097057600080fd5b50610273600480360360c081101561098757600080fd5b506001600160a01b03813581169160208101359160408201359160608101359091169060808101359060a00135612707565b3480156109c557600080fd5b506104616128b9565b3480156109da57600080fd5b506102736128c8565b3480156109ef57600080fd5b506103cb60048036036040811015610a0657600080fd5b506001600160a01b0381351690602001356128d3565b348015610a2857600080fd5b506103cb60048036036060811015610a3f57600080fd5b6001600160a01b0382351691602081013591810190606081016040820135600160201b811115610a6e57600080fd5b820183602082011115610a8057600080fd5b803590602001918460018302840111600160201b83111715610aa157600080fd5b509092509050612aae565b348015610ab857600080fd5b50610461612b24565b348015610acd57600080fd5b506107fb612b33565b348015610ae257600080fd5b5061027360048036036080811015610af957600080fd5b506001600160a01b0381358116916020810135909116906001600160801b0360408201358116916060013516612b38565b348015610b3657600080fd5b506103cb60048036036080811015610b4d57600080fd5b506001600160a01b03813581169160208101359091169060408101359060600135612b9d565b348015610b7f57600080fd5b506103cb60048036036040811015610b9657600080fd5b506001600160a01b038135169060200135612f23565b348015610bb857600080fd5b5061046161303b565b348015610bcd57600080fd5b506103cb60048036036060811015610be457600080fd5b506001600160a01b03813516906020810135906040013561304a565b348015610c0c57600080fd5b5061046161330a565b348015610c2157600080fd5b5061027360048036036040811015610c3857600080fd5b506001600160a01b038135169060200135613319565b60408051630d43fde760e41b81523360048201526001600160a01b0385811660248301526001600160801b0385166044830152915160009283929088169163d43fde709160648082019260209290919082900301818787803b158015610cb357600080fd5b505af1158015610cc7573d6000803e3d6000fd5b505050506040513d6020811015610cdd57600080fd5b50516001600160801b0390811691508316811115610d42576040805162461bcd60e51b815260206004820152601a60248201527f5969656c6450726f78793a204c696d6974206578636565646564000000000000604482015290519081900360640190fd5b95945050505050565b6000806000610d5985613333565b60025460408051623f675f60e91b81526001600160a01b038c8116600483015291519598509396509194501691638fcbaf0c91899130918591637ecebe0091602480820192602092909190829003018186803b158015610db857600080fd5b505afa158015610dcc573d6000803e3d6000fd5b505050506040513d6020811015610de257600080fd5b5051604080516001600160e01b031960e087901b1681526001600160a01b039485166004820152929093166024830152604482015260001960648201526001608482015260ff851660a482015260c4810187905260e48101869052905161010480830192600092919082900301818387803b158015610e6057600080fd5b505af1158015610e74573d6000803e3d6000fd5b50505050610e8184613333565b6000805460408051631a28ff0560e01b81526001600160a01b038d81166004830152306024830152600019604483015260ff861660648301526084820188905260a4820187905291519699509497509295509190911692631a28ff059260c480820193929182900301818387803b158015610efb57600080fd5b505af1158015610f0f573d6000803e3d6000fd5b50505050505050505050565b60015460408051636cb1c69b60e11b8152644554482d4160d81b6004820152905160009283926001600160a01b039091169163d9638d369160248082019260a092909190829003018186803b158015610f7357600080fd5b505afa158015610f87573d6000803e3d6000fd5b505050506040513d60a0811015610f9d57600080fd5b50604001519050610fae838261334e565b9392505050565b6001600160a01b03861660009081526008602052604081205460ff16611010576040805162461bcd60e51b8152602060048201526018602482015260008051602061499a833981519152604482015290519081900360640190fd5b6000876001600160a01b031663b26be922333061102c87613370565b604080516001600160e01b031960e087901b1681526001600160a01b0394851660048201529290931660248301526001600160801b03166044820152905160648083019260209291908290030181600087803b15801561108b57600080fd5b505af115801561109f573d6000803e3d6000fd5b505050506040513d60208110156110b557600080fd5b50516001600160801b03169050838110156111015760405162461bcd60e51b815260040180806020018281038252602781526020018061492d6027913960400191505060405180910390fd5b60008054604080516391371ffb60e01b8152600481018b9052602481018a90523060448201526001600160a01b03898116606483015260848201869052915191909216926391371ffb9260a4808201939182900301818387803b15801561116757600080fd5b505af115801561117b573d6000803e3d6000fd5b50929a9950505050505050505050565b6005546001600160a01b031681565b6001546001600160a01b031681565b6001600160a01b03861660009081526008602052604081205460ff16611204576040805162461bcd60e51b8152602060048201526018602482015260008051602061499a833981519152604482015290519081900360640190fd5b6000876001600160a01b0316634e20e95261121e85613370565b6040518263ffffffff1660e01b815260040180826001600160801b03166001600160801b0316815260200191505060206040518083038186803b15801561126457600080fd5b505afa158015611278573d6000803e3d6000fd5b505050506040513d602081101561128e57600080fd5b50516001600160801b03169050838111156112da5760405162461bcd60e51b81526004018080602001828103825260228152602001806149ba6022913960400191505060405180910390fd5b600080546040805163801d325f60e01b8152600481018b9052602481018a90523360448201523060648201526084810185905290516001600160a01b039092169263801d325f9260a48084019382900301818387803b15801561133c57600080fd5b505af1158015611350573d6000803e3d6000fd5b50505050876001600160a01b031663cc5783d3308761136e87613370565b604080516001600160e01b031960e087901b1681526001600160a01b0394851660048201529290931660248301526001600160801b03166044820152905160648083019260209291908290030181600087803b1580156113cd57600080fd5b505af11580156113e1573d6000803e3d6000fd5b505050506040513d60208110156113f757600080fd5b509098975050505050505050565b6004546001600160a01b031681565b6001600160a01b03861660009081526008602052604081205460ff1661146f576040805162461bcd60e51b8152602060048201526018602482015260008051602061499a833981519152604482015290519081900360640190fd5b600080546040805163801d325f60e01b8152600481018a9052602481018990523360448201523060648201526084810187905290516001600160a01b039092169263801d325f9260a48084019382900301818387803b1580156114d157600080fd5b505af11580156114e5573d6000803e3d6000fd5b505050506000876001600160a01b031663c47b5b83308761150588613370565b604080516001600160e01b031960e087901b1681526001600160a01b0394851660048201529290931660248301526001600160801b03166044820152905160648083019260209291908290030181600087803b15801561156457600080fd5b505af1158015611578573d6000803e3d6000fd5b505050506040513d602081101561158e57600080fd5b50516001600160801b03169050828110156115da5760405162461bcd60e51b8152600401808060200182810382526023815260200180614a216023913960400191505060405180910390fd5b979650505050505050565b6001600160a01b03831660009081526008602052604081205460ff16611640576040805162461bcd60e51b8152602060048201526018602482015260008051602061499a833981519152604482015290519081900360640190fd5b6000846001600160a01b031663aef52e3f6040518163ffffffff1660e01b815260040160206040518083038186803b15801561167b57600080fd5b505afa15801561168f573d6000803e3d6000fd5b505050506040513d60208110156116a557600080fd5b50516040805163ae4e7fdf60e01b815290519192506001600160a01b0383169163ae4e7fdf91600480820192602092909190829003018186803b1580156116eb57600080fd5b505afa1580156116ff573d6000803e3d6000fd5b505050506040513d602081101561171557600080fd5b505115156001141561176e576040805162461bcd60e51b815260206004820181905260248201527f5969656c6450726f78793a204f6e6c79206265666f7265206d61747572697479604482015290519081900360640190fd5b600254604080516323b872dd60e01b81523360048201523060248201526044810187905290516001600160a01b03909216916323b872dd916064808201926020929091908290030181600087803b1580156117c857600080fd5b505af11580156117dc573d6000803e3d6000fd5b505050506040513d60208110156117f257600080fd5b5051611845576040805162461bcd60e51b815260206004820152601b60248201527f5969656c6450726f78793a205472616e73666572204661696c65640000000000604482015290519081900360640190fd5b600254604080516370a0823160e01b81526001600160a01b038881166004830152915160009392909216916370a0823191602480820192602092909190829003018186803b15801561189657600080fd5b505afa1580156118aa573d6000803e3d6000fd5b505050506040513d60208110156118c057600080fd5b5051604080516370a0823160e01b81526001600160a01b0389811660048301529151929350600092918516916370a0823191602480820192602092909190829003018186803b15801561191257600080fd5b505afa158015611926573d6000803e3d6000fd5b505050506040513d602081101561193c57600080fd5b505190506000611971611955838563ffffffff6133ce16565b611965898663ffffffff61342816565b9063ffffffff61348116565b90506000611985888363ffffffff6134c316565b9050868111156119dc576040805162461bcd60e51b815260206004820152601c60248201527f5969656c6450726f78793a206d61785944616920657863656564656400000000604482015290519081900360640190fd5b60035460408051633b4da69f60e01b81523060048201526024810184905290516001600160a01b0390921691633b4da69f9160448082019260009290919082900301818387803b158015611a2f57600080fd5b505af1158015611a43573d6000803e3d6000fd5b505060035460408051633612d9a360e11b81523060048201529051600094506001600160a01b039092169250636c25b34691602480830192602092919082900301818787803b158015611a9557600080fd5b505af1158015611aa9573d6000803e3d6000fd5b505050506040513d6020811015611abf57600080fd5b5051600054600354604080516370a0823160e01b8152306004820181905291519495506001600160a01b039384169463adb9e54e94634348414960e01b9433939116916370a0823191602480820192602092909190829003018186803b158015611b2857600080fd5b505afa158015611b3c573d6000803e3d6000fd5b505050506040513d6020811015611b5257600080fd5b5051604080516001600160e01b031960e088901b16815260048101959095526001600160a01b039384166024860152919092166044840152606483019190915251608480830192600092919082900301818387803b158015611bb357600080fd5b505af1158015611bc7573d6000803e3d6000fd5b505050506000809054906101000a90046001600160a01b03166001600160a01b031663801d325f634348414960e01b886001600160a01b031663204f83f96040518163ffffffff1660e01b815260040160206040518083038186803b158015611c2f57600080fd5b505afa158015611c43573d6000803e3d6000fd5b505050506040513d6020811015611c5957600080fd5b5051604080516001600160e01b031960e086901b16815260048101939093526024830191909152336044830152306064830152608482018590525160a480830192600092919082900301818387803b158015611cb457600080fd5b505af1158015611cc8573d6000803e3d6000fd5b505060408051636361ddf360e11b81523060048201523360248201526044810187905290516001600160a01b038e16935063c6c3bbe6925060648083019260209291908290030181600087803b158015611d2157600080fd5b505af1158015611d35573d6000803e3d6000fd5b505050506040513d6020811015611d4b57600080fd5b50519a9950505050505050505050565b600154604080516309092f9760e21b8152644554482d4160d81b60048201526001600160a01b03868116602483015282516000948594921692632424be5c926044808301939192829003018186803b158015611db657600080fd5b505afa158015611dca573d6000803e3d6000fd5b505050506040513d6040811015611de057600080fd5b50805160209091015160015460408051636cb1c69b60e11b8152644554482d4160d81b600482015290519395509193506000926001600160a01b039091169163d9638d369160248083019260a0929190829003018186803b158015611e4457600080fd5b505afa158015611e58573d6000803e3d6000fd5b505050506040513d60a0811015611e6e57600080fd5b50602001519050611e7f8282613505565b841115611ebd5760405162461bcd60e51b81526004018080602001828103825260248152602001806149766024913960400191505060405180910390fd5b82851115611efc5760405162461bcd60e51b815260040180806020018281038252602a815260200180614903602a913960400191505060405180910390fd5b6000876001600160a01b031663aef52e3f6040518163ffffffff1660e01b815260040160206040518083038186803b158015611f3757600080fd5b505afa158015611f4b573d6000803e3d6000fd5b505050506040513d6020811015611f6157600080fd5b505190506001600160a01b038116633ea2146530611f7f8b896123d4565b60018c8c8c8c6040516020018086151515158152602001856001600160a01b03166001600160a01b03168152602001846001600160a01b03166001600160a01b03168152602001838152602001828152602001955050505050506040516020818303038152906040526040518463ffffffff1660e01b815260040180846001600160a01b03166001600160a01b0316815260200183815260200180602001828103825283818151815260200191508051906020019080838360005b8381101561205257818101518382015260200161203a565b50505050905090810190601f16801561207f5780820380516001836020036101000a031916815260200191505b50945050505050600060405180830381600087803b1580156120a057600080fd5b505af11580156120b4573d6000803e3d6000fd5b505050505050505050505050565b6001600160a01b03851660009081526008602052604090205460ff1661211d576040805162461bcd60e51b8152602060048201526018602482015260008051602061499a833981519152604482015290519081900360640190fd5b600080600061212b86613333565b60025460408051623f675f60e91b81526001600160a01b038d8116600483015291519598509396509194501691638fcbaf0c918a918c918591637ecebe0091602480820192602092909190829003018186803b15801561218a57600080fd5b505afa15801561219e573d6000803e3d6000fd5b505050506040513d60208110156121b457600080fd5b5051604080516001600160e01b031960e087901b1681526001600160a01b039485166004820152929093166024830152604482015260001960648201526001608482015260ff851660a482015260c4810187905260e48101869052905161010480830192600092919082900301818387803b15801561223257600080fd5b505af1158015612246573d6000803e3d6000fd5b5050505061225385613333565b809350819450829550505050876001600160a01b031663aef52e3f6040518163ffffffff1660e01b815260040160206040518083038186803b15801561229857600080fd5b505afa1580156122ac573d6000803e3d6000fd5b505050506040513d60208110156122c257600080fd5b50516040805163d505accf60e01b81526001600160a01b038a8116600483015230602483015260001960448301819052606483015260ff8516608483015260a4820187905260c482018690529151919092169163d505accf9160e480830192600092919082900301818387803b15801561233b57600080fd5b505af115801561234f573d6000803e3d6000fd5b5050505061235c84613333565b60408051631a28ff0560e01b81526001600160a01b038c81166004830152306024830152600019604483015260ff841660648301526084820186905260a4820185905291519497509295509093508a1691631a28ff059160c48082019260009290919082900301818387803b1580156120a057600080fd5b6000826001600160a01b0316634e20e9526123ee84613370565b6040518263ffffffff1660e01b815260040180826001600160801b03166001600160801b0316815260200191505060206040518083038186803b15801561243457600080fd5b505afa158015612448573d6000803e3d6000fd5b505050506040513d602081101561245e57600080fd5b50516001600160801b031690505b92915050565b600181565b60086020526000908152604090205460ff1681565b6b033b2e3c9fd0803ce800000081565b6004805460408051630d0e30db60e41b815290516001600160a01b039092169263d0e30db0923492808301926000929182900301818588803b1580156124e157600080fd5b505af11580156124f5573d6000803e3d6000fd5b505060008054604080516356dcf2a760e11b8152644554482d4160d81b60048201523060248201526001600160a01b038881166044830152346064830152915191909216955063adb9e54e945060848083019450909182900301818387803b15801561256057600080fd5b505af1158015612574573d6000803e3d6000fd5b5050505050565b6040805163c47b5b8360e01b81523360048201526001600160a01b0385811660248301526001600160801b0385166044830152915160009283929088169163c47b5b839160648082019260209290919082900301818787803b1580156125e057600080fd5b505af11580156125f4573d6000803e3d6000fd5b505050506040513d602081101561260a57600080fd5b50516001600160801b0390811691508316811015610d42576040805162461bcd60e51b815260206004820152601d60248201527f5969656c6450726f78793a204c696d6974206e6f742072656163686564000000604482015290519081900360640190fd5b6007818154811061267c57fe5b6000918252602090912001546001600160a01b0316905081565b644554482d4160d81b81565b60408051635935f49160e11b81523360048201526001600160a01b0385811660248301526001600160801b0385166044830152915160009283929088169163b26be9229160648082019260209290919082900301818787803b1580156125e057600080fd5b6001600160a01b03861660009081526008602052604081205460ff16612762576040805162461bcd60e51b8152602060048201526018602482015260008051602061499a833981519152604482015290519081900360640190fd5b6000876001600160a01b031663d43fde70333061277e88613370565b604080516001600160e01b031960e087901b1681526001600160a01b0394851660048201529290931660248301526001600160801b03166044820152905160648083019260209291908290030181600087803b1580156127dd57600080fd5b505af11580156127f1573d6000803e3d6000fd5b505050506040513d602081101561280757600080fd5b50516001600160801b03169050828111156128535760405162461bcd60e51b8152600401808060200182810382526021815260200180614a446021913960400191505060405180910390fd5b60008054604080516391371ffb60e01b8152600481018b9052602481018a90523060448201526001600160a01b03898116606483015260848201899052915191909216926391371ffb9260a4808201939182900301818387803b15801561116757600080fd5b6003546001600160a01b031681565b634348414960e01b81565b6001600160a01b03821660009081526008602052604090205460ff1661292e576040805162461bcd60e51b8152602060048201526018602482015260008051602061499a833981519152604482015290519081900360640190fd5b6000826001600160a01b031663aef52e3f6040518163ffffffff1660e01b815260040160206040518083038186803b15801561296957600080fd5b505afa15801561297d573d6000803e3d6000fd5b505050506040513d602081101561299357600080fd5b505160408051633dae446f60e21b815233600482015230602482015260448101859052815192935060009283926001600160a01b0388169263f6b911bc926064808301939282900301818787803b1580156129ed57600080fd5b505af1158015612a01573d6000803e3d6000fd5b505050506040513d6040811015612a1757600080fd5b50805160209091015190925090508015612a995760408051630e6dfcd560e01b8152306004820181905260248201526044810183905290516001600160a01b03851691630e6dfcd591606480830192600092919082900301818387803b158015612a8057600080fd5b505af1158015612a94573d6000803e3d6000fd5b505050505b612aa583836000613527565b612574836137d3565b6000806000806000868660a0811015612ac657600080fd5b508035151595506001600160a01b036020820135811695506040820135169350606081013592506080013590506001851415612b0857612b0884848484613c20565b84612b1957612b1984848a8561414c565b505050505050505050565b6006546001600160a01b031681565b600081565b6040805163cc5783d360e01b81523360048201526001600160a01b0385811660248301526001600160801b0385166044830152915160009283929088169163cc5783d39160648082019260209290919082900301818787803b158015610cb357600080fd5b6000846001600160a01b031663aef52e3f6040518163ffffffff1660e01b815260040160206040518083038186803b158015612bd857600080fd5b505afa158015612bec573d6000803e3d6000fd5b505050506040513d6020811015612c0257600080fd5b50516000546040805163204f83f960e01b815290519293506001600160a01b03918216926398cdae5a92644554482d4160d81b929086169163204f83f991600480820192602092909190829003018186803b158015612c6057600080fd5b505afa158015612c74573d6000803e3d6000fd5b505050506040513d6020811015612c8a57600080fd5b5051604080516001600160e01b031960e086901b168152600481019390935260248301919091526001600160a01b0388166044830152516064808301926020929190829003018186803b158015612ce057600080fd5b505afa158015612cf4573d6000803e3d6000fd5b505050506040513d6020811015612d0a57600080fd5b5051831115612d4a5760405162461bcd60e51b81526004018080602001828103825260248152602001806149fd6024913960400191505060405180910390fd5b6000546040805163dd62f42360e01b8152644554482d4160d81b60048201526001600160a01b0387811660248301529151919092169163dd62f423916044808301926020929190829003018186803b158015612da557600080fd5b505afa158015612db9573d6000803e3d6000fd5b505050506040513d6020811015612dcf57600080fd5b5051821115612e0f5760405162461bcd60e51b815260040180806020018281038252602a8152602001806148d9602a913960400191505060405180910390fd5b60408051600060208083018290526001600160a01b03898116848601528881166060808601919091526080850188905260a08086018590528651808703909101815260c0860196879052633ea2146560e01b9096523060c4860181815260e487018b905261010487019283528751610124880152875193891697633ea214659792968c969195929493610144019291860191908190849084905b83811015612ec1578181015183820152602001612ea9565b50505050905090810190601f168015612eee5780820380516001836020036101000a031916815260200191505b50945050505050600060405180830381600087803b158015612f0f57600080fd5b505af1158015612b19573d6000803e3d6000fd5b600080546040805163470660bb60e11b8152644554482d4160d81b60048201523360248201523060448201526064810185905290516001600160a01b0390921692638e0cc1769260848084019382900301818387803b158015612f8557600080fd5b505af1158015612f99573d6000803e3d6000fd5b50506004805460408051632e1a7d4d60e01b8152928301869052516001600160a01b039091169350632e1a7d4d9250602480830192600092919082900301818387803b158015612fe857600080fd5b505af1158015612ffc573d6000803e3d6000fd5b50506040516001600160a01b038516925083156108fc02915083906000818181858888f19350505050158015613036573d6000803e3d6000fd5b505050565b6002546001600160a01b031681565b6001600160a01b03831660009081526008602052604090205460ff166130a5576040805162461bcd60e51b8152602060048201526018602482015260008051602061499a833981519152604482015290519081900360640190fd5b6000836001600160a01b031663aef52e3f6040518163ffffffff1660e01b815260040160206040518083038186803b1580156130e057600080fd5b505afa1580156130f4573d6000803e3d6000fd5b505050506040513d602081101561310a57600080fd5b505160408051633dae446f60e21b815233600482015230602482015260448101869052815192935060009283926001600160a01b0389169263f6b911bc926064808301939282900301818787803b15801561316457600080fd5b505af1158015613178573d6000803e3d6000fd5b505050506040513d604081101561318e57600080fd5b50805160209091015190925090506131a7838383613527565b604080516370a0823160e01b815230600482015290516000916001600160a01b038616916370a0823191602480820192602092909190829003018186803b1580156131f157600080fd5b505afa158015613205573d6000803e3d6000fd5b505050506040513d602081101561321b57600080fd5b5051905080156132f8576040805163c47b5b8360e01b8152306004820181905260248201526001600160801b0383166044820152905186916001600160a01b038a169163c47b5b83916064808201926020929091908290030181600087803b15801561328657600080fd5b505af115801561329a573d6000803e3d6000fd5b505050506040513d60208110156132b057600080fd5b50516001600160801b031610156132f85760405162461bcd60e51b81526004018080602001828103825260228152602001806149546022913960400191505060405180910390fd5b613301846137d3565b50505050505050565b6000546001600160a01b031681565b6000826001600160a01b0316631e4d81db6123ee84613370565b60208101516040820151606090920151909260009190911a90565b6000610fae82611965856b033b2e3c9fd0803ce800000063ffffffff61342816565b60006001600160801b038211156133ca576040805162461bcd60e51b81526020600482015260196024820152785969656c6450726f78793a2043617374206f766572666c6f7760381b604482015290519081900360640190fd5b5090565b600082820183811015610fae576040805162461bcd60e51b815260206004820152601b60248201527f536166654d6174683a206164646974696f6e206f766572666c6f770000000000604482015290519081900360640190fd5b6000826134375750600061246c565b8282028284828161344457fe5b0414610fae5760405162461bcd60e51b81526004018080602001828103825260218152602001806149dc6021913960400191505060405180910390fd5b6000610fae83836040518060400160405280601a81526020017f536166654d6174683a206469766973696f6e206279207a65726f00000000000081525061473a565b6000610fae83836040518060400160405280601e81526020017f536166654d6174683a207375627472616374696f6e206f766572666c6f7700008152506147dc565b6000610fae6b033b2e3c9fd0803ce8000000611965858563ffffffff61342816565b6000836001600160a01b031663204f83f96040518163ffffffff1660e01b815260040160206040518083038186803b15801561356257600080fd5b505afa158015613576573d6000803e3d6000fd5b505050506040513d602081101561358c57600080fd5b50519050811580159061362857506000805460408051634c66d72d60e11b8152634348414960e01b60048201526024810185905233604482015290516001600160a01b03909216916398cdae5a91606480820192602092909190829003018186803b1580156135fa57600080fd5b505afa15801561360e573d6000803e3d6000fd5b505050506040513d602081101561362457600080fd5b5051115b156136ae5760008054604080516391371ffb60e01b8152634348414960e01b6004820152602481018590523060448201523360648201526084810186905290516001600160a01b03909216926391371ffb9260a48084019382900301818387803b15801561369557600080fd5b505af11580156136a9573d6000803e3d6000fd5b505050505b60008311801561374757506000805460408051634c66d72d60e11b8152634348414960e01b60048201526024810185905233604482015290516001600160a01b03909216916398cdae5a91606480820192602092909190829003018186803b15801561371957600080fd5b505afa15801561372d573d6000803e3d6000fd5b505050506040513d602081101561374357600080fd5b5051115b156137cd5760008054604080516325d3cd1760e01b8152634348414960e01b6004820152602481018590523060448201523360648201526084810187905290516001600160a01b03909216926325d3cd179260a48084019382900301818387803b1580156137b457600080fd5b505af11580156137c8573d6000803e3d6000fd5b505050505b50505050565b6000809054906101000a90046001600160a01b03166001600160a01b03166398cdae5a634348414960e01b836001600160a01b031663204f83f96040518163ffffffff1660e01b815260040160206040518083038186803b15801561383757600080fd5b505afa15801561384b573d6000803e3d6000fd5b505050506040513d602081101561386157600080fd5b5051604080516001600160e01b031960e086901b16815260048101939093526024830191909152336044830152516064808301926020929190829003018186803b1580156138ae57600080fd5b505afa1580156138c2573d6000803e3d6000fd5b505050506040513d60208110156138d857600080fd5b5051613ad1576000546040805163dd62f42360e01b8152634348414960e01b60048201819052336024830181905292516001600160a01b0390941693638e0cc1769391923091869163dd62f423916044808301926020929190829003018186803b15801561394557600080fd5b505afa158015613959573d6000803e3d6000fd5b505050506040513d602081101561396f57600080fd5b5051604080516001600160e01b031960e088901b16815260048101959095526001600160a01b039384166024860152919092166044840152606483019190915251608480830192600092919082900301818387803b1580156139d057600080fd5b505af11580156139e4573d6000803e3d6000fd5b5050600354604080516370a0823160e01b8152306004820181905291516001600160a01b03909316945063ef693bed9350909184916370a08231916024808301926020929190829003018186803b158015613a3e57600080fd5b505afa158015613a52573d6000803e3d6000fd5b505050506040513d6020811015613a6857600080fd5b5051604080516001600160e01b031960e086901b1681526001600160a01b039093166004840152602483019190915251604480830192600092919082900301818387803b158015613ab857600080fd5b505af1158015613acc573d6000803e3d6000fd5b505050505b600254604080516370a0823160e01b815230600482015290516001600160a01b039092169163a9059cbb91339184916370a08231916024808301926020929190829003018186803b158015613b2557600080fd5b505afa158015613b39573d6000803e3d6000fd5b505050506040513d6020811015613b4f57600080fd5b5051604080516001600160e01b031960e086901b1681526001600160a01b03909316600484015260248301919091525160448083019260209291908290030181600087803b158015613ba057600080fd5b505af1158015613bb4573d6000803e3d6000fd5b505050506040513d6020811015613bca57600080fd5b5051613c1d576040805162461bcd60e51b815260206004820152601f60248201527f5969656c6450726f78793a20446169205472616e73666572204661696c656400604482015290519081900360640190fd5b50565b60008490506000816001600160a01b031663aef52e3f6040518163ffffffff1660e01b815260040160206040518083038186803b158015613c6057600080fd5b505afa158015613c74573d6000803e3d6000fd5b505050506040513d6020811015613c8a57600080fd5b5051905060006001600160a01b03831663cc5783d33080613caa88613370565b604080516001600160e01b031960e087901b1681526001600160a01b0394851660048201529290931660248301526001600160801b03166044820152905160648083019260209291908290030181600087803b158015613d0957600080fd5b505af1158015613d1d573d6000803e3d6000fd5b505050506040513d6020811015613d3357600080fd5b505160065460408051633b4da69f60e01b81526001600160a01b038a811660048301526024820189905291516001600160801b039094169450911691633b4da69f9160448082019260009290919082900301818387803b158015613d9657600080fd5b505af1158015613daa573d6000803e3d6000fd5b505060015460408051636cb1c69b60e11b8152644554482d4160d81b60048201529051600094506001600160a01b03909216925063d9638d369160248083019260a0929190829003018186803b158015613e0357600080fd5b505afa158015613e17573d6000803e3d6000fd5b505050506040513d60a0811015613e2d57600080fd5b50602001516001549091506001600160a01b03166376088703888080613e528b614836565b600003613e67613e628c89614890565b614836565b604080516001600160e01b031960e089901b168152644554482d4160d81b60048201526001600160a01b03968716602482015294861660448601529290941660648401526084830152600092830360a48301525160c4808301939282900301818387803b158015613ed757600080fd5b505af1158015613eeb573d6000803e3d6000fd5b505060015460408051633088df1760e11b8152644554482d4160d81b60048201526001600160a01b038c81166024830152306044830152606482018c90529151919092169350636111be2e9250608480830192600092919082900301818387803b158015613f5857600080fd5b505af1158015613f6c573d6000803e3d6000fd5b50506005546040805163ef693bed60e01b8152306004820152602481018b905290516001600160a01b03909216935063ef693bed925060448082019260009290919082900301818387803b158015613fc357600080fd5b505af1158015613fd7573d6000803e3d6000fd5b505060008054604080516356dcf2a760e11b8152644554482d4160d81b60048201523060248201526001600160a01b038d81166044830152606482018d9052915191909216945063adb9e54e93506084808301939282900301818387803b15801561404157600080fd5b505af1158015614055573d6000803e3d6000fd5b505050506000809054906101000a90046001600160a01b03166001600160a01b031663801d325f644554482d4160d81b856001600160a01b031663204f83f96040518163ffffffff1660e01b815260040160206040518083038186803b1580156140be57600080fd5b505afa1580156140d2573d6000803e3d6000fd5b505050506040513d60208110156140e857600080fd5b5051604080516001600160e01b031960e086901b168152600481019390935260248301919091526001600160a01b038b166044830152306064830152608482018690525160a480830192600092919082900301818387803b1580156120a057600080fd5b60008490506000816001600160a01b031663aef52e3f6040518163ffffffff1660e01b815260040160206040518083038186803b15801561418c57600080fd5b505afa1580156141a0573d6000803e3d6000fd5b505050506040513d60208110156141b657600080fd5b50516000546040805163204f83f960e01b815290519293506001600160a01b03918216926391371ffb92644554482d4160d81b929086169163204f83f991600480820192602092909190829003018186803b15801561421457600080fd5b505afa158015614228573d6000803e3d6000fd5b505050506040513d602081101561423e57600080fd5b5051604080516001600160e01b031960e086901b168152600481019390935260248301919091523060448301526001600160a01b0389166064830152608482018890525160a480830192600092919082900301818387803b1580156142a257600080fd5b505af11580156142b6573d6000803e3d6000fd5b5050600080546040805163470660bb60e11b8152644554482d4160d81b60048201526001600160a01b038b81166024830152306044830152606482018a90529151919092169450638e0cc17693506084808301939282900301818387803b15801561432057600080fd5b505af1158015614334573d6000803e3d6000fd5b505060055460408051633b4da69f60e01b81526001600160a01b038a81166004830152602482018990529151919092169350633b4da69f9250604480830192600092919082900301818387803b15801561438d57600080fd5b505af11580156143a1573d6000803e3d6000fd5b505050506000826001600160a01b0316631e4d81db6143bf87613370565b6040518263ffffffff1660e01b815260040180826001600160801b03166001600160801b0316815260200191505060206040518083038186803b15801561440557600080fd5b505afa158015614419573d6000803e3d6000fd5b505050506040513d602081101561442f57600080fd5b505160015460408051636cb1c69b60e11b8152644554482d4160d81b600482015290516001600160801b0390931693506000926001600160a01b039092169163d9638d369160248082019260a092909190829003018186803b15801561449457600080fd5b505afa1580156144a8573d6000803e3d6000fd5b505050506040513d60a08110156144be57600080fd5b50602001516001549091506001600160a01b031663760887038880806144e38a614836565b6144f0613e628989614890565b604080516001600160e01b031960e089901b168152644554482d4160d81b60048201526001600160a01b0396871660248201529486166044860152929094166064840152608483015260a4820192909252905160c480830192600092919082900301818387803b15801561456357600080fd5b505af1158015614577573d6000803e3d6000fd5b50506001546001600160a01b0316915063bb35783b905088306145ac866b033b2e3c9fd0803ce800000063ffffffff61342816565b6040518463ffffffff1660e01b815260040180846001600160a01b03166001600160a01b03168152602001836001600160a01b03166001600160a01b031681526020018281526020019350505050600060405180830381600087803b15801561461457600080fd5b505af1158015614628573d6000803e3d6000fd5b50506006546040805163ef693bed60e01b81523060048201526024810187905290516001600160a01b03909216935063ef693bed925060448082019260009290919082900301818387803b15801561467f57600080fd5b505af1158015614693573d6000803e3d6000fd5b50505050836001600160a01b031663d43fde7030306146b18a613370565b604080516001600160e01b031960e087901b1681526001600160a01b0394851660048201529290931660248301526001600160801b03166044820152905160648083019260209291908290030181600087803b15801561471057600080fd5b505af1158015614724573d6000803e3d6000fd5b505050506040513d6020811015610f0f57600080fd5b600081836147c65760405162461bcd60e51b81526004018080602001828103825283818151815260200191508051906020019080838360005b8381101561478b578181015183820152602001614773565b50505050905090810190601f1680156147b85780820380516001836020036101000a031916815260200191505b509250505060405180910390fd5b5060008385816147d257fe5b0495945050505050565b6000818484111561482e5760405162461bcd60e51b815260206004820181815283516024840152835190928392604490910191908501908083836000831561478b578181015183820152602001614773565b505050900390565b60006001600160ff1b038211156133ca576040805162461bcd60e51b81526020600482015260196024820152785969656c6450726f78793a2043617374206f766572666c6f7760381b604482015290519081900360640190fd5b6000806148b383611965866b204fce5e3e2502611000000063ffffffff61342816565b9050600a8106156148cd57600a810460010191505061246c565b600a9004905061246c56fe5969656c6450726f78793a204e6f7420656e6f75676820636f6c6c61746572616c20696e205969656c645969656c6450726f78793a204e6f7420656e6f75676820636f6c6c61746572616c20696e204d616b65725969656c6450726f78793a204e6f7420656e6f75676820794461692064656274207265706169645969656c6450726f78793a206d696e696d756d446169206e6f7420726561636865645969656c6450726f78793a204e6f7420656e6f756768206465627420696e204d616b65725969656c6450726f78793a20556e6b6e6f776e20706f6f6c00000000000000005969656c6450726f78793a20546f6f206d7563682079446169207265717569726564536166654d6174683a206d756c7469706c69636174696f6e206f766572666c6f775969656c6450726f78793a204e6f7420656e6f756768206465627420696e205969656c645969656c6450726f78793a204e6f7420656e6f75676820446169206f627461696e65645969656c6450726f78793a20546f6f206d75636820446169207265717569726564a2646970667358221220274a55b5a6d1ffc67f757ae6e736ffdcb5e4b0ed8d286d2f2c77c6e94dece52464736f6c634300060a0033",
  "immutableReferences": {},
  "source": "// SPDX-License-Identifier: GPL-3.0-or-later\r\npragma solidity ^0.6.10;\r\n\r\nimport \"../interfaces/IController.sol\";\r\n\r\nimport \"../interfaces/IWeth.sol\";\r\nimport \"../interfaces/IDai.sol\";\r\nimport \"../interfaces/IGemJoin.sol\";\r\nimport \"../interfaces/IDaiJoin.sol\";\r\nimport \"../interfaces/IVat.sol\";\r\nimport \"../interfaces/IPot.sol\";\r\nimport \"../interfaces/IPool.sol\";\r\nimport \"../interfaces/IYDai.sol\";\r\nimport \"../interfaces/IChai.sol\";\r\nimport \"../interfaces/IFlashMinter.sol\";\r\n\r\nimport \"../helpers/DecimalMath.sol\";\r\n\r\nlibrary SafeCast {\r\n    /// @dev Safe casting from uint256 to uint128\r\n    function toUint128(uint256 x) internal pure returns(uint128) {\r\n        require(\r\n            x <= type(uint128).max,\r\n            \"YieldProxy: Cast overflow\"\r\n        );\r\n        return uint128(x);\r\n    }\r\n\r\n    /// @dev Safe casting from uint256 to int256\r\n    function toInt256(uint256 x) internal pure returns(int256) {\r\n        require(\r\n            x <= uint256(type(int256).max),\r\n            \"YieldProxy: Cast overflow\"\r\n        );\r\n        return int256(x);\r\n    }\r\n}\r\n\r\ncontract YieldProxy is DecimalMath, IFlashMinter {\r\n    using SafeCast for uint256;\r\n\r\n    IController public controller;\r\n\r\n    IVat public vat;\r\n    IDai public dai;\r\n    IChai public chai;\r\n    IWeth public weth;\r\n    IGemJoin public wethJoin;\r\n    IDaiJoin public daiJoin;\r\n\r\n    IPool[] public pools;\r\n    mapping (address => bool) public poolsMap;\r\n\r\n    bytes32 public constant CHAI = \"CHAI\";\r\n    bytes32 public constant WETH = \"ETH-A\";\r\n    bool constant public MTY = true;\r\n    bool constant public YTM = false;\r\n\r\n\r\n    constructor(address controller_, IPool[] memory _pools) public {\r\n        controller = IController(controller_);\r\n        ITreasury treasury = controller.treasury();\r\n\r\n        weth = treasury.weth();\r\n        dai = IDai(address(treasury.dai()));\r\n        chai = treasury.chai();\r\n        daiJoin = treasury.daiJoin();\r\n        wethJoin = treasury.wethJoin();\r\n        vat = treasury.vat();\r\n\r\n        // for repaying debt\r\n        dai.approve(address(treasury), uint(-1));\r\n\r\n        // for posting to the controller\r\n        chai.approve(address(treasury), uint(-1));\r\n        weth.approve(address(treasury), uint(-1));\r\n\r\n        // for converting DAI to CHAI\r\n        dai.approve(address(chai), uint(-1));\r\n\r\n        vat.hope(address(daiJoin));\r\n        vat.hope(address(wethJoin));\r\n\r\n        dai.approve(address(daiJoin), uint(-1));\r\n        weth.approve(address(wethJoin), uint(-1));\r\n        weth.approve(address(treasury), uint(-1));\r\n\r\n        // allow all the pools to pull YDai/dai from us for LPing\r\n        for (uint i = 0 ; i < _pools.length; i++) {\r\n            dai.approve(address(_pools[i]), uint(-1));\r\n            _pools[i].yDai().approve(address(_pools[i]), uint(-1));\r\n            poolsMap[address(_pools[i])]= true;\r\n        }\r\n\r\n        pools = _pools;\r\n    }\r\n\r\n    function unpack(bytes memory signature) private pure returns (bytes32 r, bytes32 s, uint8 v) {\r\n        assembly {\r\n            r := mload(add(signature, 0x20))\r\n            s := mload(add(signature, 0x40))\r\n            v := byte(0, mload(add(signature, 0x60)))\r\n        }\r\n    }\r\n\r\n    /// @dev Performs the initial onboarding of the user. It `permit`'s DAI to be used by the proxy, and adds the proxy as a delegate in the controller\r\n    function onboard(address from, bytes memory daiSignature, bytes memory controllerSig) external {\r\n        bytes32 r;\r\n        bytes32 s;\r\n        uint8 v;\r\n\r\n        (r, s, v) = unpack(daiSignature);\r\n        dai.permit(from, address(this), dai.nonces(from), uint(-1), true, v, r, s);\r\n\r\n        (r, s, v) = unpack(controllerSig);\r\n        controller.addDelegateBySignature(from, address(this), uint(-1), v, r, s);\r\n    }\r\n\r\n    /// @dev Given a pool and 3 signatures, it `permit`'s dai and yDAI for that pool and adds it as a delegate\r\n    function authorizePool(IPool pool, address from, bytes memory daiSig, bytes memory yDaiSig, bytes memory poolSig) public {\r\n        require(poolsMap[address(pool)], \"YieldProxy: Unknown pool\");\r\n        bytes32 r;\r\n        bytes32 s;\r\n        uint8 v;\r\n\r\n        (r, s, v) = unpack(daiSig);\r\n        dai.permit(from, address(pool), dai.nonces(from), uint(-1), true, v, r, s);\r\n\r\n        (r, s, v) = unpack(yDaiSig);\r\n        pool.yDai().permit(from, address(this), uint(-1), uint(-1), v, r, s);\r\n\r\n        (r, s, v) = unpack(poolSig);\r\n        pool.addDelegateBySignature(from, address(this), uint(-1), v, r, s);\r\n    }\r\n\r\n    /// @dev The WETH9 contract will send ether to YieldProxy on `weth.withdraw` using this function.\r\n    receive() external payable { }\r\n\r\n    /// @dev Users use `post` in YieldProxy to post ETH to the Controller (amount = msg.value), which will be converted to Weth here.\r\n    /// @param to Yield Vault to deposit collateral in.\r\n    function post(address to)\r\n        public payable {\r\n        weth.deposit{ value: msg.value }();\r\n        controller.post(WETH, address(this), to, msg.value);\r\n    }\r\n\r\n    /// @dev Users wishing to withdraw their Weth as ETH from the Controller should use this function.\r\n    /// Users must have called `controller.addDelegate(yieldProxy.address)` to authorize YieldProxy to act in their behalf.\r\n    /// @param to Wallet to send Eth to.\r\n    /// @param amount Amount of weth to move.\r\n    function withdraw(address payable to, uint256 amount)\r\n        public {\r\n        controller.withdraw(WETH, msg.sender, address(this), amount);\r\n        weth.withdraw(amount);\r\n        to.transfer(amount);\r\n    }\r\n\r\n    /// @dev Mints liquidity with provided Dai by borrowing yDai with some of the Dai.\r\n    /// Caller must have approved the proxy using`controller.addDelegate(yieldProxy)`\r\n    /// Caller must have approved the dai transfer with `dai.approve(daiUsed)`\r\n    /// @param daiUsed amount of Dai to use to mint liquidity. \r\n    /// @param maxYDai maximum amount of yDai to be borrowed to mint liquidity. \r\n    /// @return The amount of liquidity tokens minted.  \r\n    function addLiquidity(IPool pool, uint256 daiUsed, uint256 maxYDai) external returns (uint256) {\r\n        require(poolsMap[address(pool)], \"YieldProxy: Unknown pool\");\r\n        IYDai yDai = pool.yDai();\r\n        require(yDai.isMature() != true, \"YieldProxy: Only before maturity\");\r\n        require(dai.transferFrom(msg.sender, address(this), daiUsed), \"YieldProxy: Transfer Failed\");\r\n\r\n        // calculate needed yDai\r\n        uint256 daiReserves = dai.balanceOf(address(pool));\r\n        uint256 yDaiReserves = yDai.balanceOf(address(pool));\r\n        uint256 daiToAdd = daiUsed.mul(daiReserves).div(yDaiReserves.add(daiReserves));\r\n        uint256 daiToConvert = daiUsed.sub(daiToAdd);\r\n        require(\r\n            daiToConvert <= maxYDai,\r\n            \"YieldProxy: maxYDai exceeded\"\r\n        ); // 1 Dai == 1 yDai\r\n\r\n        // convert dai to chai and borrow needed yDai\r\n        chai.join(address(this), daiToConvert);\r\n        // look at the balance of chai in dai to avoid rounding issues\r\n        uint256 toBorrow = chai.dai(address(this));\r\n        controller.post(CHAI, address(this), msg.sender, chai.balanceOf(address(this)));\r\n        controller.borrow(CHAI, yDai.maturity(), msg.sender, address(this), toBorrow);\r\n        \r\n        // mint liquidity tokens\r\n        return pool.mint(address(this), msg.sender, daiToAdd);\r\n    }\r\n\r\n    /// @dev Burns tokens and repays yDai debt. Buys needed yDai or sells any excess, and all Dai is returned.\r\n    /// Caller must have approved the proxy using`controller.addDelegate(yieldProxy)` and `pool.addDelegate(yieldProxy)`\r\n    /// Caller must have approved the liquidity burn with `pool.approve(poolTokens)`\r\n    /// @param poolTokens amount of pool tokens to burn. \r\n    /// @param minimumDai minimum amount of Dai to be bought with yDai when burning. \r\n    function removeLiquidityEarly(IPool pool, uint256 poolTokens, uint256 minimumDai) external {\r\n        require(poolsMap[address(pool)], \"YieldProxy: Unknown pool\");\r\n        IYDai yDai = pool.yDai();\r\n        (uint256 daiObtained, uint256 yDaiObtained) = pool.burn(msg.sender, address(this), poolTokens);\r\n        repayDebt(yDai, daiObtained, yDaiObtained);\r\n        uint256 remainingYDai = yDai.balanceOf(address(this));\r\n        if (remainingYDai > 0) {\r\n            require(\r\n                pool.sellYDai(address(this), address(this), uint128(remainingYDai)) >= minimumDai,\r\n                \"YieldProxy: minimumDai not reached\"\r\n            );\r\n        }\r\n        withdrawAssets(yDai);\r\n    }\r\n\r\n    /// @dev Burns tokens and repays yDai debt after Maturity. \r\n    /// Caller must have approved the proxy using`controller.addDelegate(yieldProxy)`\r\n    /// Caller must have approved the liquidity burn with `pool.approve(poolTokens)`\r\n    /// @param poolTokens amount of pool tokens to burn.\r\n    function removeLiquidityMature(IPool pool, uint256 poolTokens) external {\r\n        require(poolsMap[address(pool)], \"YieldProxy: Unknown pool\");\r\n        IYDai yDai = pool.yDai();\r\n        (uint256 daiObtained, uint256 yDaiObtained) = pool.burn(msg.sender, address(this), poolTokens);\r\n        if (yDaiObtained > 0) yDai.redeem(address(this), address(this), yDaiObtained);\r\n        repayDebt(yDai, daiObtained, 0);\r\n        withdrawAssets(yDai);\r\n    }\r\n\r\n    /// @dev Repay debt from the caller using the dai and yDai supplied\r\n    /// @param daiAvailable amount of dai to use for repayments.\r\n    /// @param yDaiAvailable amount of yDai to use for repayments.\r\n    function repayDebt(IYDai yDai, uint256 daiAvailable, uint256 yDaiAvailable) internal {\r\n        uint256 maturity = yDai.maturity();\r\n        if (yDaiAvailable > 0 && controller.debtYDai(CHAI, maturity, msg.sender) > 0) {\r\n            controller.repayYDai(CHAI, maturity, address(this), msg.sender, yDaiAvailable);\r\n        }\r\n        if (daiAvailable > 0 && controller.debtYDai(CHAI, maturity, msg.sender) > 0) {\r\n            controller.repayDai(CHAI, maturity, address(this), msg.sender, daiAvailable);\r\n        }\r\n    }\r\n\r\n    /// @dev Return to caller all posted chai if there is no debt, converted to dai, plus any dai remaining in the contract.\r\n    function withdrawAssets(IYDai yDai) internal {\r\n        if (controller.debtYDai(CHAI, yDai.maturity(), msg.sender) == 0) {\r\n            controller.withdraw(CHAI, msg.sender, address(this), controller.posted(CHAI, msg.sender));\r\n            chai.exit(address(this), chai.balanceOf(address(this)));\r\n        }\r\n        require(dai.transfer(msg.sender, dai.balanceOf(address(this))), \"YieldProxy: Dai Transfer Failed\");\r\n    }\r\n\r\n    /// @dev Borrow yDai from Controller and sell it immediately for Dai, for a maximum yDai debt.\r\n    /// Must have approved the operator with `controller.addDelegate(yieldProxy.address)`.\r\n    /// @param collateral Valid collateral type.\r\n    /// @param maturity Maturity of an added series\r\n    /// @param to Wallet to send the resulting Dai to.\r\n    /// @param maximumYDai Maximum amount of YDai to borrow.\r\n    /// @param daiToBorrow Exact amount of Dai that should be obtained.\r\n    function borrowDaiForMaximumYDai(\r\n        IPool pool,\r\n        bytes32 collateral,\r\n        uint256 maturity,\r\n        address to,\r\n        uint256 maximumYDai,\r\n        uint256 daiToBorrow\r\n    )\r\n        public\r\n        returns (uint256)\r\n    {\r\n        require(poolsMap[address(pool)], \"YieldProxy: Unknown pool\");\r\n        uint256 yDaiToBorrow = pool.buyDaiPreview(daiToBorrow.toUint128());\r\n        require (yDaiToBorrow <= maximumYDai, \"YieldProxy: Too much yDai required\");\r\n\r\n        // The collateral for this borrow needs to have been posted beforehand\r\n        controller.borrow(collateral, maturity, msg.sender, address(this), yDaiToBorrow);\r\n        pool.buyDai(address(this), to, daiToBorrow.toUint128());\r\n\r\n        return yDaiToBorrow;\r\n    }\r\n\r\n    /// @dev Borrow yDai from Controller and sell it immediately for Dai, if a minimum amount of Dai can be obtained such.\r\n    /// Must have approved the operator with `controller.addDelegate(yieldProxy.address)`.\r\n    /// @param collateral Valid collateral type.\r\n    /// @param maturity Maturity of an added series\r\n    /// @param to Wallet to sent the resulting Dai to.\r\n    /// @param yDaiToBorrow Amount of yDai to borrow.\r\n    /// @param minimumDaiToBorrow Minimum amount of Dai that should be borrowed.\r\n    function borrowMinimumDaiForYDai(\r\n        IPool pool,\r\n        bytes32 collateral,\r\n        uint256 maturity,\r\n        address to,\r\n        uint256 yDaiToBorrow,\r\n        uint256 minimumDaiToBorrow\r\n    )\r\n        public\r\n        returns (uint256)\r\n    {\r\n        require(poolsMap[address(pool)], \"YieldProxy: Unknown pool\");\r\n        // The collateral for this borrow needs to have been posted beforehand\r\n        controller.borrow(collateral, maturity, msg.sender, address(this), yDaiToBorrow);\r\n        uint256 boughtDai = pool.sellYDai(address(this), to, yDaiToBorrow.toUint128());\r\n        require (boughtDai >= minimumDaiToBorrow, \"YieldProxy: Not enough Dai obtained\");\r\n\r\n        return boughtDai;\r\n    }\r\n\r\n\r\n    /// @dev Repay an amount of yDai debt in Controller using Dai exchanged for yDai at pool rates, up to a maximum amount of Dai spent.\r\n    /// Must have approved the operator with `pool.addDelegate(yieldProxy.address)`.\r\n    /// @param collateral Valid collateral type.\r\n    /// @param maturity Maturity of an added series\r\n    /// @param to Yield Vault to repay yDai debt for.\r\n    /// @param yDaiRepayment Amount of yDai debt to repay.\r\n    /// @param maximumRepaymentInDai Maximum amount of Dai that should be spent on the repayment.\r\n    function repayYDaiDebtForMaximumDai(\r\n        IPool pool,\r\n        bytes32 collateral,\r\n        uint256 maturity,\r\n        address to,\r\n        uint256 yDaiRepayment,\r\n        uint256 maximumRepaymentInDai\r\n    )\r\n        public\r\n        returns (uint256)\r\n    {\r\n        require(poolsMap[address(pool)], \"YieldProxy: Unknown pool\");\r\n        uint256 repaymentInDai = pool.buyYDai(msg.sender, address(this), yDaiRepayment.toUint128());\r\n        require (repaymentInDai <= maximumRepaymentInDai, \"YieldProxy: Too much Dai required\");\r\n        controller.repayYDai(collateral, maturity, address(this), to, yDaiRepayment);\r\n\r\n        return repaymentInDai;\r\n    }\r\n\r\n    /// @dev Repay an amount of yDai debt in Controller using a given amount of Dai exchanged for yDai at pool rates, with a minimum of yDai debt required to be paid.\r\n    /// Must have approved the operator with `pool.addDelegate(yieldProxy.address)`.\r\n    /// @param collateral Valid collateral type.\r\n    /// @param maturity Maturity of an added series\r\n    /// @param to Yield Vault to repay yDai debt for.\r\n    /// @param minimumYDaiRepayment Minimum amount of yDai debt to repay.\r\n    /// @param repaymentInDai Exact amount of Dai that should be spent on the repayment.\r\n    function repayMinimumYDaiDebtForDai(\r\n        IPool pool,\r\n        bytes32 collateral,\r\n        uint256 maturity,\r\n        address to,\r\n        uint256 minimumYDaiRepayment,\r\n        uint256 repaymentInDai\r\n    )\r\n        public\r\n        returns (uint256)\r\n    {\r\n        require(poolsMap[address(pool)], \"YieldProxy: Unknown pool\");\r\n        uint256 yDaiRepayment = pool.sellDai(msg.sender, address(this), repaymentInDai.toUint128());\r\n        require (yDaiRepayment >= minimumYDaiRepayment, \"YieldProxy: Not enough yDai debt repaid\");\r\n        controller.repayYDai(collateral, maturity, address(this), to, yDaiRepayment);\r\n\r\n        return yDaiRepayment;\r\n    }\r\n\r\n    /// @dev Sell Dai for yDai\r\n    /// @param to Wallet receiving the yDai being bought\r\n    /// @param daiIn Amount of dai being sold\r\n    /// @param minYDaiOut Minimum amount of yDai being bought\r\n    function sellDai(address pool, address to, uint128 daiIn, uint128 minYDaiOut)\r\n        external\r\n        returns(uint256)\r\n    {\r\n        uint256 yDaiOut = IPool(pool).sellDai(msg.sender, to, daiIn);\r\n        require(\r\n            yDaiOut >= minYDaiOut,\r\n            \"YieldProxy: Limit not reached\"\r\n        );\r\n        return yDaiOut;\r\n    }\r\n\r\n    /// @dev Buy Dai for yDai\r\n    /// @param to Wallet receiving the dai being bought\r\n    /// @param daiOut Amount of dai being bought\r\n    /// @param maxYDaiIn Maximum amount of yDai being sold\r\n    function buyDai(address pool, address to, uint128 daiOut, uint128 maxYDaiIn)\r\n        external\r\n        returns(uint256)\r\n    {\r\n        uint256 yDaiIn = IPool(pool).buyDai(msg.sender, to, daiOut);\r\n        require(\r\n            maxYDaiIn >= yDaiIn,\r\n            \"YieldProxy: Limit exceeded\"\r\n        );\r\n        return yDaiIn;\r\n    }\r\n\r\n    /// @dev Sell yDai for Dai\r\n    /// @param to Wallet receiving the dai being bought\r\n    /// @param yDaiIn Amount of yDai being sold\r\n    /// @param minDaiOut Minimum amount of dai being bought\r\n    function sellYDai(address pool, address to, uint128 yDaiIn, uint128 minDaiOut)\r\n        external\r\n        returns(uint256)\r\n    {\r\n        uint256 daiOut = IPool(pool).sellYDai(msg.sender, to, yDaiIn);\r\n        require(\r\n            daiOut >= minDaiOut,\r\n            \"YieldProxy: Limit not reached\"\r\n        );\r\n        return daiOut;\r\n    }\r\n\r\n    /// @dev Buy yDai for dai\r\n    /// @param to Wallet receiving the yDai being bought\r\n    /// @param yDaiOut Amount of yDai being bought\r\n    /// @param maxDaiIn Maximum amount of dai being sold\r\n    function buyYDai(address pool, address to, uint128 yDaiOut, uint128 maxDaiIn)\r\n        external\r\n        returns(uint256)\r\n    {\r\n        uint256 daiIn = IPool(pool).buyYDai(msg.sender, to, yDaiOut);\r\n        require(\r\n            maxDaiIn >= daiIn,\r\n            \"YieldProxy: Limit exceeded\"\r\n        );\r\n        return daiIn;\r\n    }\r\n\r\n    // YieldProxy: Maker to Yield proxy\r\n\r\n    /// @dev Transfer debt and collateral from MakerDAO to Yield\r\n    /// Needs vat.hope(splitter.address, { from: user });\r\n    /// Needs controller.addDelegate(splitter.address, { from: user });\r\n    /// @param pool The pool to trade in (and therefore yDai series to borrow)\r\n    /// @param user Vault to migrate.\r\n    /// @param wethAmount weth to move from MakerDAO to Yield. Needs to be high enough to collateralize the dai debt in Yield,\r\n    /// and low enough to make sure that debt left in MakerDAO is also collateralized.\r\n    /// @param daiAmount dai debt to move from MakerDAO to Yield. Denominated in Dai (= art * rate)\r\n    function makerToYield(address pool, address user, uint256 wethAmount, uint256 daiAmount) public {\r\n        // The user specifies the yDai he wants to mint to cover his maker debt, the weth to be passed on as collateral, and the dai debt to move\r\n        (uint256 ink, uint256 art) = vat.urns(WETH, user);\r\n        (, uint256 rate,,,) = vat.ilks(\"ETH-A\");\r\n        require(\r\n            daiAmount <= muld(art, rate),\r\n            \"YieldProxy: Not enough debt in Maker\"\r\n        );\r\n        require(\r\n            wethAmount <= ink,\r\n            \"YieldProxy: Not enough collateral in Maker\"\r\n        );\r\n        // Flash mint the yDai\r\n        IYDai yDai = IPool(pool).yDai();\r\n        yDai.flashMint(\r\n            address(this),\r\n            yDaiForDai(pool, daiAmount),\r\n            abi.encode(MTY, pool, user, wethAmount, daiAmount)\r\n        );\r\n    }\r\n\r\n    /// @dev Transfer debt and collateral from Yield to MakerDAO\r\n    /// Needs vat.hope(splitter.address, { from: user });\r\n    /// Needs controller.addDelegate(splitter.address, { from: user });\r\n    /// @param pool The pool to trade in (and therefore yDai series to migrate)\r\n    /// @param user Vault to migrate.\r\n    /// @param yDaiAmount yDai debt to move from Yield to MakerDAO.\r\n    /// @param wethAmount weth to move from Yield to MakerDAO. Needs to be high enough to collateralize the dai debt in MakerDAO,\r\n    /// and low enough to make sure that debt left in Yield is also collateralized.\r\n    function yieldToMaker(address pool, address user, uint256 yDaiAmount, uint256 wethAmount) public {\r\n        IYDai yDai = IPool(pool).yDai();\r\n\r\n        // The user specifies the yDai he wants to move, and the weth to be passed on as collateral\r\n        require(\r\n            yDaiAmount <= controller.debtYDai(WETH, yDai.maturity(), user),\r\n            \"YieldProxy: Not enough debt in Yield\"\r\n        );\r\n        require(\r\n            wethAmount <= controller.posted(WETH, user),\r\n            \"YieldProxy: Not enough collateral in Yield\"\r\n        );\r\n        // Flash mint the yDai\r\n        yDai.flashMint(\r\n            address(this),\r\n            yDaiAmount,\r\n            abi.encode(YTM, pool, user, wethAmount, 0)\r\n        ); // The daiAmount encoded is ignored\r\n    }\r\n\r\n    /// @dev Callback from `YDai.flashMint()`\r\n    function executeOnFlashMint(address, uint256 yDaiAmount, bytes calldata data) external override {\r\n        (bool direction, address pool, address user, uint256 wethAmount, uint256 daiAmount) = \r\n            abi.decode(data, (bool, address, address, uint256, uint256));\r\n        if(direction == MTY) _makerToYield(pool, user, wethAmount, daiAmount);\r\n        if(direction == YTM) _yieldToMaker(pool, user, yDaiAmount, wethAmount);\r\n    }\r\n\r\n    /// @dev Minimum weth needed to collateralize an amount of dai in MakerDAO\r\n    function wethForDai(uint256 daiAmount) public view returns (uint256) {\r\n        (,, uint256 spot,,) = vat.ilks(\"ETH-A\");\r\n        return divd(daiAmount, spot);\r\n    }\r\n\r\n    /// @dev Minimum weth needed to collateralize an amount of yDai in Yield. Yes, it's the same formula.\r\n    function wethForYDai(uint256 yDaiAmount) public view returns (uint256) {\r\n        (,, uint256 spot,,) = vat.ilks(\"ETH-A\");\r\n        return divd(yDaiAmount, spot);\r\n    }\r\n\r\n    /// @dev Amount of yDai debt that will result from migrating Dai debt from MakerDAO to Yield\r\n    function yDaiForDai(address pool, uint256 daiAmount) public view returns (uint256) {\r\n        return IPool(pool).buyDaiPreview(daiAmount.toUint128());\r\n    }\r\n\r\n    /// @dev Amount of dai debt that will result from migrating yDai debt from Yield to MakerDAO\r\n    function daiForYDai(address pool, uint256 yDaiAmount) public view returns (uint256) {\r\n        return IPool(pool).buyYDaiPreview(yDaiAmount.toUint128());\r\n    }\r\n\r\n    /// @dev Internal function to transfer debt and collateral from MakerDAO to Yield\r\n    /// @param pool The pool to trade in (and therefore yDai series to borrow)\r\n    /// @param user Vault to migrate.\r\n    /// @param wethAmount weth to move from MakerDAO to Yield. Needs to be high enough to collateralize the dai debt in Yield,\r\n    /// and low enough to make sure that debt left in MakerDAO is also collateralized.\r\n    /// @param daiAmount dai debt to move from MakerDAO to Yield. Denominated in Dai (= art * rate)\r\n    /// Needs vat.hope(splitter.address, { from: user });\r\n    /// Needs controller.addDelegate(splitter.address, { from: user });\r\n    function _makerToYield(address pool, address user, uint256 wethAmount, uint256 daiAmount) internal {\r\n        IPool _pool = IPool(pool);\r\n        IYDai yDai = IYDai(_pool.yDai());\r\n\r\n        // Pool should take exactly all yDai flash minted. YieldProxy will hold the dai temporarily\r\n        uint256 yDaiSold = _pool.buyDai(address(this), address(this), daiAmount.toUint128());\r\n\r\n        daiJoin.join(user, daiAmount);      // Put the Dai in Maker\r\n        (, uint256 rate,,,) = vat.ilks(\"ETH-A\");\r\n        vat.frob(                           // Pay the debt and unlock collateral in Maker\r\n            \"ETH-A\",\r\n            user,\r\n            user,\r\n            user,\r\n            -wethAmount.toInt256(),               // Removing Weth collateral\r\n            -divdrup(daiAmount, rate).toInt256()  // Removing Dai debt\r\n        );\r\n\r\n        vat.flux(\"ETH-A\", user, address(this), wethAmount);             // Remove the collateral from Maker\r\n        wethJoin.exit(address(this), wethAmount);                       // Hold the weth in YieldProxy\r\n        controller.post(WETH, address(this), user, wethAmount);         // Add the collateral to Yield\r\n        controller.borrow(WETH, yDai.maturity(), user, address(this), yDaiSold); // Borrow the yDai\r\n    }\r\n\r\n\r\n    /// @dev Internal function to transfer debt and collateral from Yield to MakerDAO\r\n    /// Needs vat.hope(splitter.address, { from: user });\r\n    /// Needs controller.addDelegate(splitter.address, { from: user });\r\n    /// @param pool The pool to trade in (and therefore yDai series to migrate)\r\n    /// @param user Vault to migrate.\r\n    /// @param yDaiAmount yDai debt to move from Yield to MakerDAO.\r\n    /// @param wethAmount weth to move from Yield to MakerDAO. Needs to be high enough to collateralize the dai debt in MakerDAO,\r\n    /// and low enough to make sure that debt left in Yield is also collateralized.\r\n    function _yieldToMaker(address pool, address user, uint256 yDaiAmount, uint256 wethAmount) internal {\r\n        IPool _pool = IPool(pool);\r\n        IYDai yDai = IYDai(_pool.yDai());\r\n\r\n        // Pay the Yield debt - YieldProxy pays YDai to remove the debt of `user`\r\n        // Controller should take exactly all yDai flash minted.\r\n        controller.repayYDai(WETH, yDai.maturity(), address(this), user, yDaiAmount);\r\n\r\n        // Withdraw the collateral from Yield, YieldProxy will hold it\r\n        controller.withdraw(WETH, user, address(this), wethAmount);\r\n\r\n        // Post the collateral to Maker, in the `user` vault\r\n        wethJoin.join(user, wethAmount);\r\n\r\n        // We are going to need to buy the YDai back with Dai borrowed from Maker\r\n        uint256 daiAmount = _pool.buyYDaiPreview(yDaiAmount.toUint128());\r\n\r\n        // Borrow the Dai from Maker\r\n        (, uint256 rate,,,) = vat.ilks(\"ETH-A\"); // Retrieve the MakerDAO stability fee for Weth\r\n        vat.frob(\r\n            \"ETH-A\",\r\n            user,\r\n            user,\r\n            user,\r\n            wethAmount.toInt256(),                   // Adding Weth collateral\r\n            divdrup(daiAmount, rate).toInt256()      // Adding Dai debt\r\n        );\r\n        vat.move(user, address(this), daiAmount.mul(UNIT)); // Transfer the Dai to YieldProxy within MakerDAO, in RAD\r\n        daiJoin.exit(address(this), daiAmount);             // YieldProxy will hold the dai temporarily\r\n\r\n        // Sell the Dai for YDai at Pool - It should make up for what was taken with repayYdai\r\n        _pool.buyYDai(address(this), address(this), yDaiAmount.toUint128());\r\n    }\r\n}\r\n",
  "sourcePath": "C:/Users/bruce/dev/yield/yDai/contracts/peripheral/YieldProxy.sol",
  "compiler": {
    "name": "solc",
    "version": "0.6.10+commit.00c0fcaf.Emscripten.clang"
  },
  "schemaVersion": "3.2.3",
  "updatedAt": "2020-08-26T07:49:16.192Z",
  "networkType": "ethereum",
  "devdoc": {
    "methods": {
      "addLiquidity(address,uint256,uint256)": {
        "details": "Mints liquidity with provided Dai by borrowing yDai with some of the Dai. Caller must have approved the proxy using`controller.addDelegate(yieldProxy)` Caller must have approved the dai transfer with `dai.approve(daiUsed)`",
        "params": {
          "daiUsed": "amount of Dai to use to mint liquidity. ",
          "maxYDai": "maximum amount of yDai to be borrowed to mint liquidity. "
        },
        "returns": {
          "_0": "The amount of liquidity tokens minted.  "
        }
      },
      "authorizePool(address,address,bytes,bytes,bytes)": {
        "details": "Given a pool and 3 signatures, it `permit`'s dai and yDAI for that pool and adds it as a delegate"
      },
      "borrowDaiForMaximumYDai(address,bytes32,uint256,address,uint256,uint256)": {
        "details": "Borrow yDai from Controller and sell it immediately for Dai, for a maximum yDai debt. Must have approved the operator with `controller.addDelegate(yieldProxy.address)`.",
        "params": {
          "collateral": "Valid collateral type.",
          "daiToBorrow": "Exact amount of Dai that should be obtained.",
          "maturity": "Maturity of an added series",
          "maximumYDai": "Maximum amount of YDai to borrow.",
          "to": "Wallet to send the resulting Dai to."
        }
      },
      "borrowMinimumDaiForYDai(address,bytes32,uint256,address,uint256,uint256)": {
        "details": "Borrow yDai from Controller and sell it immediately for Dai, if a minimum amount of Dai can be obtained such. Must have approved the operator with `controller.addDelegate(yieldProxy.address)`.",
        "params": {
          "collateral": "Valid collateral type.",
          "maturity": "Maturity of an added series",
          "minimumDaiToBorrow": "Minimum amount of Dai that should be borrowed.",
          "to": "Wallet to sent the resulting Dai to.",
          "yDaiToBorrow": "Amount of yDai to borrow."
        }
      },
      "buyDai(address,address,uint128,uint128)": {
        "details": "Buy Dai for yDai",
        "params": {
          "daiOut": "Amount of dai being bought",
          "maxYDaiIn": "Maximum amount of yDai being sold",
          "to": "Wallet receiving the dai being bought"
        }
      },
      "buyYDai(address,address,uint128,uint128)": {
        "details": "Buy yDai for dai",
        "params": {
          "maxDaiIn": "Maximum amount of dai being sold",
          "to": "Wallet receiving the yDai being bought",
          "yDaiOut": "Amount of yDai being bought"
        }
      },
      "daiForYDai(address,uint256)": {
        "details": "Amount of dai debt that will result from migrating yDai debt from Yield to MakerDAO"
      },
      "executeOnFlashMint(address,uint256,bytes)": {
        "details": "Callback from `YDai.flashMint()`"
      },
      "makerToYield(address,address,uint256,uint256)": {
        "details": "Transfer debt and collateral from MakerDAO to Yield Needs vat.hope(splitter.address, { from: user }); Needs controller.addDelegate(splitter.address, { from: user });",
        "params": {
          "daiAmount": "dai debt to move from MakerDAO to Yield. Denominated in Dai (= art * rate)",
          "pool": "The pool to trade in (and therefore yDai series to borrow)",
          "user": "Vault to migrate.",
          "wethAmount": "weth to move from MakerDAO to Yield. Needs to be high enough to collateralize the dai debt in Yield, and low enough to make sure that debt left in MakerDAO is also collateralized."
        }
      },
      "onboard(address,bytes,bytes)": {
        "details": "Performs the initial onboarding of the user. It `permit`'s DAI to be used by the proxy, and adds the proxy as a delegate in the controller"
      },
      "post(address)": {
        "details": "Users use `post` in YieldProxy to post ETH to the Controller (amount = msg.value), which will be converted to Weth here.",
        "params": {
          "to": "Yield Vault to deposit collateral in."
        }
      },
      "removeLiquidityEarly(address,uint256,uint256)": {
        "details": "Burns tokens and repays yDai debt. Buys needed yDai or sells any excess, and all Dai is returned. Caller must have approved the proxy using`controller.addDelegate(yieldProxy)` and `pool.addDelegate(yieldProxy)` Caller must have approved the liquidity burn with `pool.approve(poolTokens)`",
        "params": {
          "minimumDai": "minimum amount of Dai to be bought with yDai when burning. ",
          "poolTokens": "amount of pool tokens to burn. "
        }
      },
      "removeLiquidityMature(address,uint256)": {
        "details": "Burns tokens and repays yDai debt after Maturity.  Caller must have approved the proxy using`controller.addDelegate(yieldProxy)` Caller must have approved the liquidity burn with `pool.approve(poolTokens)`",
        "params": {
          "poolTokens": "amount of pool tokens to burn."
        }
      },
      "repayMinimumYDaiDebtForDai(address,bytes32,uint256,address,uint256,uint256)": {
        "details": "Repay an amount of yDai debt in Controller using a given amount of Dai exchanged for yDai at pool rates, with a minimum of yDai debt required to be paid. Must have approved the operator with `pool.addDelegate(yieldProxy.address)`.",
        "params": {
          "collateral": "Valid collateral type.",
          "maturity": "Maturity of an added series",
          "minimumYDaiRepayment": "Minimum amount of yDai debt to repay.",
          "repaymentInDai": "Exact amount of Dai that should be spent on the repayment.",
          "to": "Yield Vault to repay yDai debt for."
        }
      },
      "repayYDaiDebtForMaximumDai(address,bytes32,uint256,address,uint256,uint256)": {
        "details": "Repay an amount of yDai debt in Controller using Dai exchanged for yDai at pool rates, up to a maximum amount of Dai spent. Must have approved the operator with `pool.addDelegate(yieldProxy.address)`.",
        "params": {
          "collateral": "Valid collateral type.",
          "maturity": "Maturity of an added series",
          "maximumRepaymentInDai": "Maximum amount of Dai that should be spent on the repayment.",
          "to": "Yield Vault to repay yDai debt for.",
          "yDaiRepayment": "Amount of yDai debt to repay."
        }
      },
      "sellDai(address,address,uint128,uint128)": {
        "details": "Sell Dai for yDai",
        "params": {
          "daiIn": "Amount of dai being sold",
          "minYDaiOut": "Minimum amount of yDai being bought",
          "to": "Wallet receiving the yDai being bought"
        }
      },
      "sellYDai(address,address,uint128,uint128)": {
        "details": "Sell yDai for Dai",
        "params": {
          "minDaiOut": "Minimum amount of dai being bought",
          "to": "Wallet receiving the dai being bought",
          "yDaiIn": "Amount of yDai being sold"
        }
      },
      "wethForDai(uint256)": {
        "details": "Minimum weth needed to collateralize an amount of dai in MakerDAO"
      },
      "wethForYDai(uint256)": {
        "details": "Minimum weth needed to collateralize an amount of yDai in Yield. Yes, it's the same formula."
      },
      "withdraw(address,uint256)": {
        "details": "Users wishing to withdraw their Weth as ETH from the Controller should use this function. Users must have called `controller.addDelegate(yieldProxy.address)` to authorize YieldProxy to act in their behalf.",
        "params": {
          "amount": "Amount of weth to move.",
          "to": "Wallet to send Eth to."
        }
      },
      "yDaiForDai(address,uint256)": {
        "details": "Amount of yDai debt that will result from migrating Dai debt from MakerDAO to Yield"
      },
      "yieldToMaker(address,address,uint256,uint256)": {
        "details": "Transfer debt and collateral from Yield to MakerDAO Needs vat.hope(splitter.address, { from: user }); Needs controller.addDelegate(splitter.address, { from: user });",
        "params": {
          "pool": "The pool to trade in (and therefore yDai series to migrate)",
          "user": "Vault to migrate.",
          "wethAmount": "weth to move from Yield to MakerDAO. Needs to be high enough to collateralize the dai debt in MakerDAO, and low enough to make sure that debt left in Yield is also collateralized.",
          "yDaiAmount": "yDai debt to move from Yield to MakerDAO."
        }
      }
    }
  },
  "userdoc": {
    "methods": {}
  }
}