{
  "contractName": "YieldProxy",
  "abi": [
    {
      "inputs": [
        {
          "internalType": "address",
          "name": "controller_",
          "type": "address"
        },
        {
          "internalType": "contract IPool[]",
          "name": "_pools",
          "type": "address[]"
        }
      ],
      "stateMutability": "nonpayable",
      "type": "constructor"
    },
    {
      "inputs": [],
      "name": "CHAI",
      "outputs": [
        {
          "internalType": "bytes32",
          "name": "",
          "type": "bytes32"
        }
      ],
      "stateMutability": "view",
      "type": "function"
    },
    {
      "inputs": [],
      "name": "MTY",
      "outputs": [
        {
          "internalType": "bool",
          "name": "",
          "type": "bool"
        }
      ],
      "stateMutability": "view",
      "type": "function"
    },
    {
      "inputs": [],
      "name": "UNIT",
      "outputs": [
        {
          "internalType": "uint256",
          "name": "",
          "type": "uint256"
        }
      ],
      "stateMutability": "view",
      "type": "function"
    },
    {
      "inputs": [],
      "name": "WETH",
      "outputs": [
        {
          "internalType": "bytes32",
          "name": "",
          "type": "bytes32"
        }
      ],
      "stateMutability": "view",
      "type": "function"
    },
    {
      "inputs": [],
      "name": "YTM",
      "outputs": [
        {
          "internalType": "bool",
          "name": "",
          "type": "bool"
        }
      ],
      "stateMutability": "view",
      "type": "function"
    },
    {
      "inputs": [],
      "name": "chai",
      "outputs": [
        {
          "internalType": "contract IChai",
          "name": "",
          "type": "address"
        }
      ],
      "stateMutability": "view",
      "type": "function"
    },
    {
      "inputs": [],
      "name": "controller",
      "outputs": [
        {
          "internalType": "contract IController",
          "name": "",
          "type": "address"
        }
      ],
      "stateMutability": "view",
      "type": "function"
    },
    {
      "inputs": [],
      "name": "dai",
      "outputs": [
        {
          "internalType": "contract IDai",
          "name": "",
          "type": "address"
        }
      ],
      "stateMutability": "view",
      "type": "function"
    },
    {
      "inputs": [],
      "name": "daiJoin",
      "outputs": [
        {
          "internalType": "contract IDaiJoin",
          "name": "",
          "type": "address"
        }
      ],
      "stateMutability": "view",
      "type": "function"
    },
    {
      "inputs": [
        {
          "internalType": "uint256",
          "name": "",
          "type": "uint256"
        }
      ],
      "name": "pools",
      "outputs": [
        {
          "internalType": "contract IPool",
          "name": "",
          "type": "address"
        }
      ],
      "stateMutability": "view",
      "type": "function"
    },
    {
      "inputs": [
        {
          "internalType": "address",
          "name": "",
          "type": "address"
        }
      ],
      "name": "poolsMap",
      "outputs": [
        {
          "internalType": "bool",
          "name": "",
          "type": "bool"
        }
      ],
      "stateMutability": "view",
      "type": "function"
    },
    {
      "inputs": [],
      "name": "treasury",
      "outputs": [
        {
          "internalType": "contract ITreasury",
          "name": "",
          "type": "address"
        }
      ],
      "stateMutability": "view",
      "type": "function"
    },
    {
      "inputs": [],
      "name": "vat",
      "outputs": [
        {
          "internalType": "contract IVat",
          "name": "",
          "type": "address"
        }
      ],
      "stateMutability": "view",
      "type": "function"
    },
    {
      "inputs": [],
      "name": "weth",
      "outputs": [
        {
          "internalType": "contract IWeth",
          "name": "",
          "type": "address"
        }
      ],
      "stateMutability": "view",
      "type": "function"
    },
    {
      "inputs": [],
      "name": "wethJoin",
      "outputs": [
        {
          "internalType": "contract IGemJoin",
          "name": "",
          "type": "address"
        }
      ],
      "stateMutability": "view",
      "type": "function"
    },
    {
      "stateMutability": "payable",
      "type": "receive"
    },
    {
      "inputs": [
        {
          "internalType": "address",
          "name": "from",
          "type": "address"
        },
        {
          "internalType": "bytes",
          "name": "daiSignature",
          "type": "bytes"
        },
        {
          "internalType": "bytes",
          "name": "controllerSig",
          "type": "bytes"
        }
      ],
      "name": "onboard",
      "outputs": [],
      "stateMutability": "nonpayable",
      "type": "function"
    },
    {
      "inputs": [
        {
          "internalType": "contract IPool",
          "name": "pool",
          "type": "address"
        },
        {
          "internalType": "address",
          "name": "from",
          "type": "address"
        },
        {
          "internalType": "bytes",
          "name": "daiSig",
          "type": "bytes"
        },
        {
          "internalType": "bytes",
          "name": "fyDaiSig",
          "type": "bytes"
        },
        {
          "internalType": "bytes",
          "name": "poolSig",
          "type": "bytes"
        }
      ],
      "name": "authorizePool",
      "outputs": [],
      "stateMutability": "nonpayable",
      "type": "function"
    },
    {
      "inputs": [
        {
          "internalType": "address",
          "name": "to",
          "type": "address"
        }
      ],
      "name": "post",
      "outputs": [],
      "stateMutability": "payable",
      "type": "function"
    },
    {
      "inputs": [
        {
          "internalType": "address payable",
          "name": "to",
          "type": "address"
        },
        {
          "internalType": "uint256",
          "name": "amount",
          "type": "uint256"
        }
      ],
      "name": "withdraw",
      "outputs": [],
      "stateMutability": "nonpayable",
      "type": "function"
    },
    {
      "inputs": [
        {
          "internalType": "contract IPool",
          "name": "pool",
          "type": "address"
        },
        {
          "internalType": "uint256",
          "name": "daiUsed",
          "type": "uint256"
        },
        {
          "internalType": "uint256",
          "name": "maxFYDai",
          "type": "uint256"
        }
      ],
      "name": "addLiquidity",
      "outputs": [
        {
          "internalType": "uint256",
          "name": "",
          "type": "uint256"
        }
      ],
      "stateMutability": "nonpayable",
      "type": "function"
    },
    {
      "inputs": [
        {
          "internalType": "contract IPool",
          "name": "pool",
          "type": "address"
        },
        {
          "internalType": "uint256",
          "name": "poolTokens",
          "type": "uint256"
        },
        {
          "internalType": "uint256",
          "name": "minimumDaiPrice",
          "type": "uint256"
        },
        {
          "internalType": "uint256",
          "name": "minimumFYDaiPrice",
          "type": "uint256"
        }
      ],
      "name": "removeLiquidityEarlyDaiPool",
      "outputs": [],
      "stateMutability": "nonpayable",
      "type": "function"
    },
    {
      "inputs": [
        {
          "internalType": "contract IPool",
          "name": "pool",
          "type": "address"
        },
        {
          "internalType": "uint256",
          "name": "poolTokens",
          "type": "uint256"
        },
        {
          "internalType": "uint256",
          "name": "minimumFYDaiPrice",
          "type": "uint256"
        }
      ],
      "name": "removeLiquidityEarlyDaiFixed",
      "outputs": [],
      "stateMutability": "nonpayable",
      "type": "function"
    },
    {
      "inputs": [
        {
          "internalType": "contract IPool",
          "name": "pool",
          "type": "address"
        },
        {
          "internalType": "uint256",
          "name": "poolTokens",
          "type": "uint256"
        }
      ],
      "name": "removeLiquidityMature",
      "outputs": [],
      "stateMutability": "nonpayable",
      "type": "function"
    },
    {
      "inputs": [
        {
          "internalType": "contract IPool",
          "name": "pool",
          "type": "address"
        },
        {
          "internalType": "bytes32",
          "name": "collateral",
          "type": "bytes32"
        },
        {
          "internalType": "uint256",
          "name": "maturity",
          "type": "uint256"
        },
        {
          "internalType": "address",
          "name": "to",
          "type": "address"
        },
        {
          "internalType": "uint256",
          "name": "maximumFYDai",
          "type": "uint256"
        },
        {
          "internalType": "uint256",
          "name": "daiToBorrow",
          "type": "uint256"
        }
      ],
      "name": "borrowDaiForMaximumFYDai",
      "outputs": [
        {
          "internalType": "uint256",
          "name": "",
          "type": "uint256"
        }
      ],
      "stateMutability": "nonpayable",
      "type": "function"
    },
    {
      "inputs": [
        {
          "internalType": "contract IPool",
          "name": "pool",
          "type": "address"
        },
        {
          "internalType": "bytes32",
          "name": "collateral",
          "type": "bytes32"
        },
        {
          "internalType": "uint256",
          "name": "maturity",
          "type": "uint256"
        },
        {
          "internalType": "address",
          "name": "to",
          "type": "address"
        },
        {
          "internalType": "uint256",
          "name": "fyDaiToBorrow",
          "type": "uint256"
        },
        {
          "internalType": "uint256",
          "name": "minimumDaiToBorrow",
          "type": "uint256"
        }
      ],
      "name": "borrowMinimumDaiForFYDai",
      "outputs": [
        {
          "internalType": "uint256",
          "name": "",
          "type": "uint256"
        }
      ],
      "stateMutability": "nonpayable",
      "type": "function"
    },
    {
      "inputs": [
        {
          "internalType": "contract IPool",
          "name": "pool",
          "type": "address"
        },
        {
          "internalType": "bytes32",
          "name": "collateral",
          "type": "bytes32"
        },
        {
          "internalType": "uint256",
          "name": "maturity",
          "type": "uint256"
        },
        {
          "internalType": "address",
          "name": "to",
          "type": "address"
        },
        {
          "internalType": "uint256",
          "name": "fyDaiRepayment",
          "type": "uint256"
        },
        {
          "internalType": "uint256",
          "name": "maximumRepaymentInDai",
          "type": "uint256"
        }
      ],
      "name": "repayFYDaiDebtForMaximumDai",
      "outputs": [
        {
          "internalType": "uint256",
          "name": "",
          "type": "uint256"
        }
      ],
      "stateMutability": "nonpayable",
      "type": "function"
    },
    {
      "inputs": [
        {
          "internalType": "contract IPool",
          "name": "pool",
          "type": "address"
        },
        {
          "internalType": "bytes32",
          "name": "collateral",
          "type": "bytes32"
        },
        {
          "internalType": "uint256",
          "name": "maturity",
          "type": "uint256"
        },
        {
          "internalType": "address",
          "name": "to",
          "type": "address"
        },
        {
          "internalType": "uint256",
          "name": "minimumFYDaiRepayment",
          "type": "uint256"
        },
        {
          "internalType": "uint256",
          "name": "repaymentInDai",
          "type": "uint256"
        }
      ],
      "name": "repayMinimumFYDaiDebtForDai",
      "outputs": [
        {
          "internalType": "uint256",
          "name": "",
          "type": "uint256"
        }
      ],
      "stateMutability": "nonpayable",
      "type": "function"
    },
    {
      "inputs": [
        {
          "internalType": "address",
          "name": "pool",
          "type": "address"
        },
        {
          "internalType": "address",
          "name": "to",
          "type": "address"
        },
        {
          "internalType": "uint128",
          "name": "daiIn",
          "type": "uint128"
        },
        {
          "internalType": "uint128",
          "name": "minFYDaiOut",
          "type": "uint128"
        }
      ],
      "name": "sellDai",
      "outputs": [
        {
          "internalType": "uint256",
          "name": "",
          "type": "uint256"
        }
      ],
      "stateMutability": "nonpayable",
      "type": "function"
    },
    {
      "inputs": [
        {
          "internalType": "address",
          "name": "pool",
          "type": "address"
        },
        {
          "internalType": "address",
          "name": "to",
          "type": "address"
        },
        {
          "internalType": "uint128",
          "name": "daiOut",
          "type": "uint128"
        },
        {
          "internalType": "uint128",
          "name": "maxFYDaiIn",
          "type": "uint128"
        }
      ],
      "name": "buyDai",
      "outputs": [
        {
          "internalType": "uint256",
          "name": "",
          "type": "uint256"
        }
      ],
      "stateMutability": "nonpayable",
      "type": "function"
    },
    {
      "inputs": [
        {
          "internalType": "address",
          "name": "pool",
          "type": "address"
        },
        {
          "internalType": "address",
          "name": "to",
          "type": "address"
        },
        {
          "internalType": "uint128",
          "name": "daiOut",
          "type": "uint128"
        },
        {
          "internalType": "uint128",
          "name": "maxFYDaiIn",
          "type": "uint128"
        },
        {
          "internalType": "bytes",
          "name": "signature",
          "type": "bytes"
        }
      ],
      "name": "buyDaiWithSignature",
      "outputs": [
        {
          "internalType": "uint256",
          "name": "",
          "type": "uint256"
        }
      ],
      "stateMutability": "nonpayable",
      "type": "function"
    },
    {
      "inputs": [
        {
          "internalType": "address",
          "name": "pool",
          "type": "address"
        },
        {
          "internalType": "address",
          "name": "to",
          "type": "address"
        },
        {
          "internalType": "uint128",
          "name": "fyDaiIn",
          "type": "uint128"
        },
        {
          "internalType": "uint128",
          "name": "minDaiOut",
          "type": "uint128"
        }
      ],
      "name": "sellFYDai",
      "outputs": [
        {
          "internalType": "uint256",
          "name": "",
          "type": "uint256"
        }
      ],
      "stateMutability": "nonpayable",
      "type": "function"
    },
    {
      "inputs": [
        {
          "internalType": "address",
          "name": "pool",
          "type": "address"
        },
        {
          "internalType": "address",
          "name": "to",
          "type": "address"
        },
        {
          "internalType": "uint128",
          "name": "fyDaiOut",
          "type": "uint128"
        },
        {
          "internalType": "uint128",
          "name": "maxDaiIn",
          "type": "uint128"
        }
      ],
      "name": "buyFYDai",
      "outputs": [
        {
          "internalType": "uint256",
          "name": "",
          "type": "uint256"
        }
      ],
      "stateMutability": "nonpayable",
      "type": "function"
    },
    {
      "inputs": [
        {
          "internalType": "bytes32",
          "name": "collateral",
          "type": "bytes32"
        },
        {
          "internalType": "uint256",
          "name": "maturity",
          "type": "uint256"
        },
        {
          "internalType": "address",
          "name": "to",
          "type": "address"
        },
        {
          "internalType": "uint256",
          "name": "daiAmount",
          "type": "uint256"
        },
        {
          "internalType": "bytes",
          "name": "signature",
          "type": "bytes"
        }
      ],
      "name": "repayDaiWithSignature",
      "outputs": [
        {
          "internalType": "uint256",
          "name": "",
          "type": "uint256"
        }
      ],
      "stateMutability": "nonpayable",
      "type": "function"
    },
    {
      "inputs": [
        {
          "internalType": "address",
          "name": "pool",
          "type": "address"
        },
        {
          "internalType": "address",
          "name": "user",
          "type": "address"
        },
        {
          "internalType": "uint256",
          "name": "wethAmount",
          "type": "uint256"
        },
        {
          "internalType": "uint256",
          "name": "daiAmount",
          "type": "uint256"
        }
      ],
      "name": "makerToYield",
      "outputs": [],
      "stateMutability": "nonpayable",
      "type": "function"
    },
    {
      "inputs": [
        {
          "internalType": "address",
          "name": "pool",
          "type": "address"
        },
        {
          "internalType": "address",
          "name": "user",
          "type": "address"
        },
        {
          "internalType": "uint256",
          "name": "wethAmount",
          "type": "uint256"
        },
        {
          "internalType": "uint256",
          "name": "fyDaiAmount",
          "type": "uint256"
        }
      ],
      "name": "yieldToMaker",
      "outputs": [],
      "stateMutability": "nonpayable",
      "type": "function"
    },
    {
      "inputs": [
        {
          "internalType": "address",
          "name": "",
          "type": "address"
        },
        {
          "internalType": "uint256",
          "name": "fyDaiAmount",
          "type": "uint256"
        },
        {
          "internalType": "bytes",
          "name": "data",
          "type": "bytes"
        }
      ],
      "name": "executeOnFlashMint",
      "outputs": [],
      "stateMutability": "nonpayable",
      "type": "function"
    },
    {
      "inputs": [
        {
          "internalType": "uint256",
          "name": "daiAmount",
          "type": "uint256"
        }
      ],
      "name": "wethForDai",
      "outputs": [
        {
          "internalType": "uint256",
          "name": "",
          "type": "uint256"
        }
      ],
      "stateMutability": "view",
      "type": "function"
    },
    {
      "inputs": [
        {
          "internalType": "uint256",
          "name": "fyDaiAmount",
          "type": "uint256"
        }
      ],
      "name": "wethForFYDai",
      "outputs": [
        {
          "internalType": "uint256",
          "name": "",
          "type": "uint256"
        }
      ],
      "stateMutability": "view",
      "type": "function"
    },
    {
      "inputs": [
        {
          "internalType": "address",
          "name": "pool",
          "type": "address"
        },
        {
          "internalType": "uint256",
          "name": "daiAmount",
          "type": "uint256"
        }
      ],
      "name": "fyDaiForDai",
      "outputs": [
        {
          "internalType": "uint256",
          "name": "",
          "type": "uint256"
        }
      ],
      "stateMutability": "view",
      "type": "function"
    },
    {
      "inputs": [
        {
          "internalType": "address",
          "name": "pool",
          "type": "address"
        },
        {
          "internalType": "uint256",
          "name": "fyDaiAmount",
          "type": "uint256"
        }
      ],
      "name": "daiForFYDai",
      "outputs": [
        {
          "internalType": "uint256",
          "name": "",
          "type": "uint256"
        }
      ],
      "stateMutability": "view",
      "type": "function"
    }
  ],
  "bytecode": "0x60806040523480156200001157600080fd5b50604051620066a5380380620066a5833981810160405260408110156200003757600080fd5b8151602083018051604051929492938301929190846401000000008211156200005f57600080fd5b9083019060208201858111156200007557600080fd5b82518660208202830111640100000000821117156200009357600080fd5b82525081516020918201928201910280838360005b83811015620000c2578181015183820152602001620000a8565b50505050919091016040818152600680546001600160a01b0319166001600160a01b038a811691909117918290556361d027b360e01b84529151911695506361d027b3945060048083019450602093509091829003018186803b1580156200012957600080fd5b505afa1580156200013e573d6000803e3d6000fd5b505050506040513d60208110156200015557600080fd5b5051600780546001600160a01b0319166001600160a01b03928316179081905560408051633fc8cef360e01b815290519190921691633fc8cef3916004808301926020929190829003018186803b158015620001b057600080fd5b505afa158015620001c5573d6000803e3d6000fd5b505050506040513d6020811015620001dc57600080fd5b5051600180546001600160a01b0319166001600160a01b039283161790556007546040805163f4b9fa7560e01b81529051919092169163f4b9fa75916004808301926020929190829003018186803b1580156200023857600080fd5b505afa1580156200024d573d6000803e3d6000fd5b505050506040513d60208110156200026457600080fd5b5051600280546001600160a01b0319166001600160a01b0392831617905560075460408051635b4e822b60e11b81529051919092169163b69d0456916004808301926020929190829003018186803b158015620002c057600080fd5b505afa158015620002d5573d6000803e3d6000fd5b505050506040513d6020811015620002ec57600080fd5b5051600580546001600160a01b0319166001600160a01b0392831617905560075460408051633045916f60e21b81529051919092169163c11645bc916004808301926020929190829003018186803b1580156200034857600080fd5b505afa1580156200035d573d6000803e3d6000fd5b505050506040513d60208110156200037457600080fd5b5051600480546001600160a01b0319166001600160a01b0392831617815560075460408051632dbacef360e01b815290519190931692632dbacef39281810192602092909190829003018186803b158015620003cf57600080fd5b505afa158015620003e4573d6000803e3d6000fd5b505050506040513d6020811015620003fb57600080fd5b5051600380546001600160a01b0319166001600160a01b03928316179055600754604080516336569e7760e01b8152905191909216916336569e77916004808301926020929190829003018186803b1580156200045757600080fd5b505afa1580156200046c573d6000803e3d6000fd5b505050506040513d60208110156200048357600080fd5b5051600080546001600160a01b0319166001600160a01b039283161781556002546007546040805163095ea7b360e01b81529185166004830152600019602483015251919093169263095ea7b39260448083019360209390929083900390910190829087803b158015620004f657600080fd5b505af11580156200050b573d6000803e3d6000fd5b505050506040513d60208110156200052257600080fd5b50506005546007546040805163095ea7b360e01b81526001600160a01b03928316600482015260001960248201529051919092169163095ea7b39160448083019260209291908290030181600087803b1580156200057f57600080fd5b505af115801562000594573d6000803e3d6000fd5b505050506040513d6020811015620005ab57600080fd5b50506001546007546040805163095ea7b360e01b81526001600160a01b03928316600482015260001960248201529051919092169163095ea7b39160448083019260209291908290030181600087803b1580156200060857600080fd5b505af11580156200061d573d6000803e3d6000fd5b505050506040513d60208110156200063457600080fd5b50506002546005546040805163095ea7b360e01b81526001600160a01b03928316600482015260001960248201529051919092169163095ea7b39160448083019260209291908290030181600087803b1580156200069157600080fd5b505af1158015620006a6573d6000803e3d6000fd5b505050506040513d6020811015620006bd57600080fd5b50506000805460048054604080516328ec8bf160e21b81526001600160a01b03928316938101939093525192169263a3b22fc49260248084019382900301818387803b1580156200070d57600080fd5b505af115801562000722573d6000803e3d6000fd5b505060008054600354604080516328ec8bf160e21b81526001600160a01b039283166004820152905191909216945063a3b22fc493506024808301939282900301818387803b1580156200077557600080fd5b505af11580156200078a573d6000803e3d6000fd5b5050600254600480546040805163095ea7b360e01b81526001600160a01b03928316938101939093526000196024840152519216935063095ea7b392506044808201926020929091908290030181600087803b158015620007ea57600080fd5b505af1158015620007ff573d6000803e3d6000fd5b505050506040513d60208110156200081657600080fd5b50506001546003546040805163095ea7b360e01b81526001600160a01b03928316600482015260001960248201529051919092169163095ea7b39160448083019260209291908290030181600087803b1580156200087357600080fd5b505af115801562000888573d6000803e3d6000fd5b505050506040513d60208110156200089f57600080fd5b50506001546007546040805163095ea7b360e01b81526001600160a01b03928316600482015260001960248201529051919092169163095ea7b39160448083019260209291908290030181600087803b158015620008fc57600080fd5b505af115801562000911573d6000803e3d6000fd5b505050506040513d60208110156200092857600080fd5b50600090505b815181101562000b605760025482516001600160a01b039091169063095ea7b3908490849081106200095c57fe5b60200260200101516000196040518363ffffffff1660e01b815260040180836001600160a01b03166001600160a01b0316815260200182815260200192505050602060405180830381600087803b158015620009b757600080fd5b505af1158015620009cc573d6000803e3d6000fd5b505050506040513d6020811015620009e357600080fd5b50508151829082908110620009f457fe5b60200260200101516001600160a01b031663284f44446040518163ffffffff1660e01b815260040160206040518083038186803b15801562000a3557600080fd5b505afa15801562000a4a573d6000803e3d6000fd5b505050506040513d602081101562000a6157600080fd5b505182516001600160a01b039091169063095ea7b39084908490811062000a8457fe5b60200260200101516000196040518363ffffffff1660e01b815260040180836001600160a01b03166001600160a01b0316815260200182815260200192505050602060405180830381600087803b15801562000adf57600080fd5b505af115801562000af4573d6000803e3d6000fd5b505050506040513d602081101562000b0b57600080fd5b5050815160019060099060009085908590811062000b2557fe5b6020908102919091018101516001600160a01b03168252810191909152604001600020805460ff19169115159190911790556001016200092e565b50805162000b7690600890602084019062000b7f565b50505062000c13565b82805482825590600052602060002090810192821562000bd7579160200282015b8281111562000bd757825182546001600160a01b0319166001600160a01b0390911617825560209092019160019091019062000ba0565b5062000be592915062000be9565b5090565b62000c1091905b8082111562000be55780546001600160a01b031916815560010162000bf0565b90565b615a828062000c236000396000f3fe60806040526004361061023f5760003560e01c80639d8e21771161012e578063c11645bc116100ab578063d6dd8a891161006f578063d6dd8a8914610d89578063ef788f4d14610ddd578063f3fef3a314610e26578063f4b9fa7514610e5f578063f77c479114610e7457610246565b8063c11645bc14610c61578063c43a860814610c76578063c452963314610c8b578063cc53d7bf14610ce0578063d43bb05914610d3457610246565b8063b4714804116100f2578063b471480414610680578063b69d045614610b6e578063b6dbf9ce14610b83578063b8fde75014610b98578063bdd26b3114610bd157610246565b80639d8e217714610aa0578063a536362714610ab5578063ac4afa3814610adb578063ad5c464814610b05578063ae70747c14610b1a57610246565b8063572d9c4f116101bc5780636f795225116101805780636f795225146107e257806374191001146109b65780637e3d4cfa14610a0b57806388d52dca14610a345780638ba1d1c914610a6d57610246565b8063572d9c4f1461062c57806361d027b31461066b578063627ea4b1146106805780636c223e95146106aa5780636d9d1d98146106ff57610246565b806336569e771161020357806336569e771461053557806336b4f5bd1461054a5780633fc8cef31461058f57806355776b77146105a457806357120ded146105e357610246565b8063081129a61461024b5780631aa1a50c1461039357806329d7d663146103de5780632dbacef3146104b057806330b4b075146104e157610246565b3661024657005b600080fd5b34801561025757600080fd5b506103916004803603606081101561026e57600080fd5b6001600160a01b038235169190810190604081016020820135600160201b81111561029857600080fd5b8201836020820111156102aa57600080fd5b803590602001918460018302840111600160201b831117156102cb57600080fd5b91908080601f0160208091040260200160405190810160405280939291908181526020018383808284376000920191909152509295949360208101935035915050600160201b81111561031d57600080fd5b82018360208201111561032f57600080fd5b803590602001918460018302840111600160201b8311171561035057600080fd5b91908080601f016020809104026020016040519081016040528093929190818152602001838380828437600092019190915250929550610e89945050505050565b005b34801561039f57600080fd5b506103cc600480360360408110156103b657600080fd5b506001600160a01b038135169060200135611059565b60408051918252519081900360200190f35b3480156103ea57600080fd5b506103cc600480360360a081101561040157600080fd5b8135916020810135916001600160a01b036040830135169160608101359181019060a081016080820135600160201b81111561043c57600080fd5b82018360208201111561044e57600080fd5b803590602001918460018302840111600160201b8311171561046f57600080fd5b91908080601f0160208091040260200160405190810160405280939291908181526020018383808284376000920191909152509295506110f7945050505050565b3480156104bc57600080fd5b506104c56112cd565b604080516001600160a01b039092168252519081900360200190f35b3480156104ed57600080fd5b506103cc6004803603608081101561050457600080fd5b506001600160a01b0381358116916020810135909116906001600160801b03604082013581169160600135166112dc565b34801561054157600080fd5b506104c56113d9565b34801561055657600080fd5b506103916004803603608081101561056d57600080fd5b506001600160a01b0381351690602081013590604081013590606001356113e8565b34801561059b57600080fd5b506104c56118fd565b3480156105b057600080fd5b506103cc600480360360608110156105c757600080fd5b506001600160a01b03813516906020810135906040013561190c565b3480156105ef57600080fd5b506103916004803603608081101561060657600080fd5b506001600160a01b03813581169160208101359091169060408101359060600135612083565b34801561063857600080fd5b506103916004803603606081101561064f57600080fd5b506001600160a01b0381351690602081013590604001356123e9565b34801561067757600080fd5b506104c561292c565b34801561068c57600080fd5b506103cc600480360360208110156106a357600080fd5b503561293b565b3480156106b657600080fd5b506103cc600480360360c08110156106cd57600080fd5b506001600160a01b03813581169160208101359160408201359160608101359091169060808101359060a001356129d0565b34801561070b57600080fd5b506103cc600480360360a081101561072257600080fd5b6001600160a01b0382358116926020810135909116916001600160801b03604083013581169260608101359091169181019060a081016080820135600160201b81111561076e57600080fd5b82018360208201111561078057600080fd5b803590602001918460018302840111600160201b831117156107a157600080fd5b91908080601f016020809104026020016040519081016040528093929190818152602001838380828437600092019190915250929550612ba6945050505050565b3480156107ee57600080fd5b50610391600480360360a081101561080557600080fd5b6001600160a01b038235811692602081013590911691810190606081016040820135600160201b81111561083857600080fd5b82018360208201111561084a57600080fd5b803590602001918460018302840111600160201b8311171561086b57600080fd5b91908080601f0160208091040260200160405190810160405280939291908181526020018383808284376000920191909152509295949360208101935035915050600160201b8111156108bd57600080fd5b8201836020820111156108cf57600080fd5b803590602001918460018302840111600160201b831117156108f057600080fd5b91908080601f0160208091040260200160405190810160405280939291908181526020018383808284376000920191909152509295949360208101935035915050600160201b81111561094257600080fd5b82018360208201111561095457600080fd5b803590602001918460018302840111600160201b8311171561097557600080fd5b91908080601f016020809104026020016040519081016040528093929190818152602001838380828437600092019190915250929550612cc8945050505050565b3480156109c257600080fd5b506103cc600480360360c08110156109d957600080fd5b506001600160a01b03813581169160208101359160408201359160608101359091169060808101359060a00135612fda565b348015610a1757600080fd5b50610a2061323b565b604080519115158252519081900360200190f35b348015610a4057600080fd5b506103cc60048036036040811015610a5757600080fd5b506001600160a01b038135169060200135613240565b348015610a7957600080fd5b50610a2060048036036020811015610a9057600080fd5b50356001600160a01b031661325a565b348015610aac57600080fd5b506103cc61326f565b61039160048036036020811015610acb57600080fd5b50356001600160a01b031661327f565b348015610ae757600080fd5b506104c560048036036020811015610afe57600080fd5b5035613369565b348015610b1157600080fd5b506103cc613390565b348015610b2657600080fd5b506103cc60048036036080811015610b3d57600080fd5b506001600160a01b0381358116916020810135909116906001600160801b036040820135811691606001351661339c565b348015610b7a57600080fd5b506104c5613490565b348015610b8f57600080fd5b506103cc61349f565b348015610ba457600080fd5b5061039160048036036040811015610bbb57600080fd5b506001600160a01b0381351690602001356134aa565b348015610bdd57600080fd5b5061039160048036036060811015610bf457600080fd5b6001600160a01b0382351691602081013591810190606081016040820135600160201b811115610c2357600080fd5b820183602082011115610c3557600080fd5b803590602001918460018302840111600160201b83111715610c5657600080fd5b509092509050613854565b348015610c6d57600080fd5b506104c56138bf565b348015610c8257600080fd5b50610a206138ce565b348015610c9757600080fd5b506103cc600480360360c0811015610cae57600080fd5b506001600160a01b03813581169160208101359160408201359160608101359091169060808101359060a001356138d3565b348015610cec57600080fd5b506103cc60048036036080811015610d0357600080fd5b506001600160a01b0381358116916020810135909116906001600160801b0360408201358116916060013516613c92565b348015610d4057600080fd5b506103cc600480360360c0811015610d5757600080fd5b506001600160a01b03813581169160208101359160408201359160608101359091169060808101359060a00135613cf7565b348015610d9557600080fd5b506103cc60048036036080811015610dac57600080fd5b506001600160a01b0381358116916020810135909116906001600160801b0360408201358116916060013516613f87565b348015610de957600080fd5b5061039160048036036080811015610e0057600080fd5b506001600160a01b03813581169160208101359091169060408101359060600135613fec565b348015610e3257600080fd5b5061039160048036036040811015610e4957600080fd5b506001600160a01b038135169060200135614372565b348015610e6b57600080fd5b506104c5614491565b348015610e8057600080fd5b506104c56144a0565b6000806000610e97856144af565b60025460408051623f675f60e91b81526001600160a01b038c8116600483015291519598509396509194501691638fcbaf0c91899130918591637ecebe0091602480820192602092909190829003018186803b158015610ef657600080fd5b505afa158015610f0a573d6000803e3d6000fd5b505050506040513d6020811015610f2057600080fd5b5051604080516001600160e01b031960e087901b1681526001600160a01b039485166004820152929093166024830152604482015260001960648201526001608482015260ff851660a482015260c4810187905260e48101869052905161010480830192600092919082900301818387803b158015610f9e57600080fd5b505af1158015610fb2573d6000803e3d6000fd5b50505050610fbf846144af565b60065460408051631a28ff0560e01b81526001600160a01b038c81166004830152306024830152600019604483015260ff851660648301526084820187905260a4820186905291519598509396509194501691631a28ff059160c48082019260009290919082900301818387803b15801561103957600080fd5b505af115801561104d573d6000803e3d6000fd5b50505050505050505050565b6000826001600160a01b03166398ba4aec611073846144ca565b6040518263ffffffff1660e01b815260040180826001600160801b03166001600160801b0316815260200191505060206040518083038186803b1580156110b957600080fd5b505afa1580156110cd573d6000803e3d6000fd5b505050506040513d60208110156110e357600080fd5b50516001600160801b031690505b92915050565b600080600080611106856144af565b60025460075460408051623f675f60e91b8152336004820181905291519699509497509295506001600160a01b0391821694638fcbaf0c9491909216918591637ecebe00916024808301926020929190829003018186803b15801561116a57600080fd5b505afa15801561117e573d6000803e3d6000fd5b505050506040513d602081101561119457600080fd5b5051604080516001600160e01b031960e087901b1681526001600160a01b039485166004820152929093166024830152604482015260001960648201526001608482015260ff851660a482015260c4810187905260e48101869052905161010480830192600092919082900301818387803b15801561121257600080fd5b505af1158015611226573d6000803e3d6000fd5b5050600654604080516325d3cd1760e01b8152600481018e9052602481018d90523360448201526001600160a01b038c81166064830152608482018c905291519190921693506325d3cd17925060a48083019260209291908290030181600087803b15801561129457600080fd5b505af11580156112a8573d6000803e3d6000fd5b505050506040513d60208110156112be57600080fd5b50939998505050505050505050565b6003546001600160a01b031681565b60408051631d50f8e760e21b81523360048201526001600160a01b0385811660248301526001600160801b03851660448301529151600092839290881691637543e39c9160648082019260209290919082900301818787803b15801561134157600080fd5b505af1158015611355573d6000803e3d6000fd5b505050506040513d602081101561136b57600080fd5b50516001600160801b03908116915083168111156113d0576040805162461bcd60e51b815260206004820152601a60248201527f5969656c6450726f78793a204c696d6974206578636565646564000000000000604482015290519081900360640190fd5b95945050505050565b6000546001600160a01b031681565b6001600160a01b03841660009081526009602052604090205460ff16611443576040805162461bcd60e51b81526020600482015260186024820152600080516020615909833981519152604482015290519081900360640190fd5b6000846001600160a01b031663284f44446040518163ffffffff1660e01b815260040160206040518083038186803b15801561147e57600080fd5b505afa158015611492573d6000803e3d6000fd5b505050506040513d60208110156114a857600080fd5b50516040805163204f83f960e01b815290519192506000916001600160a01b0384169163204f83f9916004808301926020929190829003018186803b1580156114f057600080fd5b505afa158015611504573d6000803e3d6000fd5b505050506040513d602081101561151a57600080fd5b505160408051633dae446f60e21b815233600482015230602482015260448101889052815192935060009283926001600160a01b038b169263f6b911bc926064808301939282900301818787803b15801561157457600080fd5b505af1158015611588573d6000803e3d6000fd5b505050506040513d604081101561159e57600080fd5b508051602090910151909250905060006001600160a01b03891663b26be92230806115c8876144ca565b604080516001600160e01b031960e087901b1681526001600160a01b0394851660048201529290931660248301526001600160801b03166044820152905160648083019260209291908290030181600087803b15801561162757600080fd5b505af115801561163b573d6000803e3d6000fd5b505050506040513d602081101561165157600080fd5b50516001600160801b031690506116688388614528565b8110156116a65760405162461bcd60e51b81526004018080602001828103825260278152602001806159296027913960400191505060405180910390fd5b6116b6828263ffffffff61454a16565b9150600080831180156117515750600654604080516324c94bb560e21b8152634348414960e01b60048201526024810188905233604482015290516000926001600160a01b0316916393252ed4916064808301926020929190829003018186803b15801561172357600080fd5b505afa158015611737573d6000803e3d6000fd5b505050506040513d602081101561174d57600080fd5b5051115b156117f3576006546040805163b93dd41d60e01b8152634348414960e01b6004820152602481018890523060448201523360648201526084810186905290516001600160a01b039092169163b93dd41d9160a4808201926020929091908290030181600087803b1580156117c457600080fd5b505af11580156117d8573d6000803e3d6000fd5b505050506040513d60208110156117ee57600080fd5b505190505b6000611805848363ffffffff6145a416565b905080156118e7576118178189614528565b604080516360561e0560e01b8152306004820181905260248201526001600160801b038416604482015290516001600160a01b038e16916360561e059160648083019260209291908290030181600087803b15801561187557600080fd5b505af1158015611889573d6000803e3d6000fd5b505050506040513d602081101561189f57600080fd5b50516001600160801b031610156118e75760405162461bcd60e51b81526004018080602001828103825260298152602001806159b86029913960400191505060405180910390fd5b6118f0876145e6565b5050505050505050505050565b6001546001600160a01b031681565b6001600160a01b03831660009081526009602052604081205460ff16611967576040805162461bcd60e51b81526020600482015260186024820152600080516020615909833981519152604482015290519081900360640190fd5b6000846001600160a01b031663284f44446040518163ffffffff1660e01b815260040160206040518083038186803b1580156119a257600080fd5b505afa1580156119b6573d6000803e3d6000fd5b505050506040513d60208110156119cc57600080fd5b50516040805163ae4e7fdf60e01b815290519192506001600160a01b0383169163ae4e7fdf91600480820192602092909190829003018186803b158015611a1257600080fd5b505afa158015611a26573d6000803e3d6000fd5b505050506040513d6020811015611a3c57600080fd5b5051151560011415611a95576040805162461bcd60e51b815260206004820181905260248201527f5969656c6450726f78793a204f6e6c79206265666f7265206d61747572697479604482015290519081900360640190fd5b600254604080516323b872dd60e01b81523360048201523060248201526044810187905290516001600160a01b03909216916323b872dd916064808201926020929091908290030181600087803b158015611aef57600080fd5b505af1158015611b03573d6000803e3d6000fd5b505050506040513d6020811015611b1957600080fd5b5051611b6c576040805162461bcd60e51b815260206004820152601b60248201527f5969656c6450726f78793a205472616e73666572204661696c65640000000000604482015290519081900360640190fd5b600254604080516370a0823160e01b81526001600160a01b038881166004830152915160009392909216916370a0823191602480820192602092909190829003018186803b158015611bbd57600080fd5b505afa158015611bd1573d6000803e3d6000fd5b505050506040513d6020811015611be757600080fd5b5051604080516370a0823160e01b81526001600160a01b0389811660048301529151929350600092918516916370a0823191602480820192602092909190829003018186803b158015611c3957600080fd5b505afa158015611c4d573d6000803e3d6000fd5b505050506040513d6020811015611c6357600080fd5b505190506000611c98611c7c838563ffffffff61454a16565b611c8c898663ffffffff614a3416565b9063ffffffff614a8d16565b90506000611cac888363ffffffff6145a416565b905086811115611d03576040805162461bcd60e51b815260206004820152601d60248201527f5969656c6450726f78793a206d61784659446169206578636565646564000000604482015290519081900360640190fd5b60055460408051633b4da69f60e01b81523060048201526024810184905290516001600160a01b0390921691633b4da69f9160448082019260009290919082900301818387803b158015611d5657600080fd5b505af1158015611d6a573d6000803e3d6000fd5b505060055460408051633612d9a360e11b81523060048201529051600094506001600160a01b039092169250636c25b34691602480830192602092919082900301818787803b158015611dbc57600080fd5b505af1158015611dd0573d6000803e3d6000fd5b505050506040513d6020811015611de657600080fd5b5051600654600554604080516370a0823160e01b8152306004820181905291519495506001600160a01b039384169463adb9e54e94634348414960e01b9433939116916370a0823191602480820192602092909190829003018186803b158015611e4f57600080fd5b505afa158015611e63573d6000803e3d6000fd5b505050506040513d6020811015611e7957600080fd5b5051604080516001600160e01b031960e088901b16815260048101959095526001600160a01b039384166024860152919092166044840152606483019190915251608480830192600092919082900301818387803b158015611eda57600080fd5b505af1158015611eee573d6000803e3d6000fd5b50505050600660009054906101000a90046001600160a01b03166001600160a01b031663801d325f634348414960e01b886001600160a01b031663204f83f96040518163ffffffff1660e01b815260040160206040518083038186803b158015611f5757600080fd5b505afa158015611f6b573d6000803e3d6000fd5b505050506040513d6020811015611f8157600080fd5b5051604080516001600160e01b031960e086901b16815260048101939093526024830191909152336044830152306064830152608482018590525160a480830192600092919082900301818387803b158015611fdc57600080fd5b505af1158015611ff0573d6000803e3d6000fd5b505060408051636361ddf360e11b81523060048201523360248201526044810187905290516001600160a01b038e16935063c6c3bbe6925060648083019260209291908290030181600087803b15801561204957600080fd5b505af115801561205d573d6000803e3d6000fd5b505050506040513d602081101561207357600080fd5b50519a9950505050505050505050565b60008054604080516309092f9760e21b8152644554482d4160d81b60048201526001600160a01b038781166024830152825185949190911692632424be5c9260448082019391829003018186803b1580156120dd57600080fd5b505afa1580156120f1573d6000803e3d6000fd5b505050506040513d604081101561210757600080fd5b5080516020909101516000805460408051636cb1c69b60e11b8152644554482d4160d81b6004820152905194965092945090926001600160a01b039091169163d9638d369160248083019260a0929190829003018186803b15801561216b57600080fd5b505afa15801561217f573d6000803e3d6000fd5b505050506040513d60a081101561219557600080fd5b506020015190506121a68282614528565b8411156121e45760405162461bcd60e51b81526004018080602001828103825260248152602001806158e56024913960400191505060405180910390fd5b828511156122235760405162461bcd60e51b815260040180806020018281038252602a8152602001806158bb602a913960400191505060405180910390fd5b6000876001600160a01b031663284f44446040518163ffffffff1660e01b815260040160206040518083038186803b15801561225e57600080fd5b505afa158015612272573d6000803e3d6000fd5b505050506040513d602081101561228857600080fd5b505190506001600160a01b038116633ea21465306122a68b89613240565b60018c8c8c8c6040516020018086151515158152602001856001600160a01b03166001600160a01b03168152602001846001600160a01b03166001600160a01b03168152602001838152602001828152602001955050505050506040516020818303038152906040526040518463ffffffff1660e01b815260040180846001600160a01b03166001600160a01b0316815260200183815260200180602001828103825283818151815260200191508051906020019080838360005b83811015612379578181015183820152602001612361565b50505050905090810190601f1680156123a65780820380516001836020036101000a031916815260200191505b50945050505050600060405180830381600087803b1580156123c757600080fd5b505af11580156123db573d6000803e3d6000fd5b505050505050505050505050565b6001600160a01b03831660009081526009602052604090205460ff16612444576040805162461bcd60e51b81526020600482015260186024820152600080516020615909833981519152604482015290519081900360640190fd5b6000836001600160a01b031663284f44446040518163ffffffff1660e01b815260040160206040518083038186803b15801561247f57600080fd5b505afa158015612493573d6000803e3d6000fd5b505050506040513d60208110156124a957600080fd5b50516040805163204f83f960e01b815290519192506000916001600160a01b0384169163204f83f9916004808301926020929190829003018186803b1580156124f157600080fd5b505afa158015612505573d6000803e3d6000fd5b505050506040513d602081101561251b57600080fd5b505160408051633dae446f60e21b815233600482015230602482015260448101879052815192935060009283926001600160a01b038a169263f6b911bc926064808301939282900301818787803b15801561257557600080fd5b505af1158015612589573d6000803e3d6000fd5b505050506040513d604081101561259f57600080fd5b5080516020909101519092509050600081158015906126465750600654604080516324c94bb560e21b8152634348414960e01b60048201526024810187905233604482015290516000926001600160a01b0316916393252ed4916064808301926020929190829003018186803b15801561261857600080fd5b505afa15801561262c573d6000803e3d6000fd5b505050506040513d602081101561264257600080fd5b5051115b156126e8576006546040805163b93dd41d60e01b8152634348414960e01b6004820152602481018790523060448201523360648201526084810185905290516001600160a01b039092169163b93dd41d9160a4808201926020929091908290030181600087803b1580156126b957600080fd5b505af11580156126cd573d6000803e3d6000fd5b505050506040513d60208110156126e357600080fd5b505190505b60006126fa838363ffffffff6145a416565b90508061283e576000841180156127995750600654604080516324c94bb560e21b8152634348414960e01b60048201526024810188905233604482015290516000926001600160a01b0316916393252ed4916064808301926020929190829003018186803b15801561276b57600080fd5b505afa15801561277f573d6000803e3d6000fd5b505050506040513d602081101561279557600080fd5b5051115b1561283957600654604080516325d3cd1760e01b8152634348414960e01b6004820152602481018890523060448201523360648201526084810187905290516001600160a01b03909216916325d3cd179160a4808201926020929091908290030181600087803b15801561280c57600080fd5b505af1158015612820573d6000803e3d6000fd5b505050506040513d602081101561283657600080fd5b50505b612918565b6128488188614528565b604080516360561e0560e01b8152306004820181905260248201526001600160801b038416604482015290516001600160a01b038c16916360561e059160648083019260209291908290030181600087803b1580156128a657600080fd5b505af11580156128ba573d6000803e3d6000fd5b505050506040513d60208110156128d057600080fd5b50516001600160801b031610156129185760405162461bcd60e51b81526004018080602001828103825260298152602001806159b86029913960400191505060405180910390fd5b612921866145e6565b505050505050505050565b6007546001600160a01b031681565b6000805460408051636cb1c69b60e11b8152644554482d4160d81b6004820152905183926001600160a01b03169163d9638d369160248083019260a0929190829003018186803b15801561298e57600080fd5b505afa1580156129a2573d6000803e3d6000fd5b505050506040513d60a08110156129b857600080fd5b506040015190506129c98382614acf565b9392505050565b6001600160a01b03861660009081526009602052604081205460ff16612a2b576040805162461bcd60e51b81526020600482015260186024820152600080516020615909833981519152604482015290519081900360640190fd5b6006546040805163801d325f60e01b815260048101899052602481018890523360448201523060648201526084810186905290516001600160a01b039092169163801d325f9160a48082019260009290919082900301818387803b158015612a9257600080fd5b505af1158015612aa6573d6000803e3d6000fd5b505050506000876001600160a01b03166360561e053087612ac6886144ca565b604080516001600160e01b031960e087901b1681526001600160a01b0394851660048201529290931660248301526001600160801b03166044820152905160648083019260209291908290030181600087803b158015612b2557600080fd5b505af1158015612b39573d6000803e3d6000fd5b505050506040513d6020811015612b4f57600080fd5b50516001600160801b0316905082811015612b9b5760405162461bcd60e51b81526004018080602001828103825260238152602001806159956023913960400191505060405180910390fd5b979650505050505050565b600080600080612bb5856144af565b925092509250886001600160a01b031663284f44446040518163ffffffff1660e01b815260040160206040518083038186803b158015612bf457600080fd5b505afa158015612c08573d6000803e3d6000fd5b505050506040513d6020811015612c1e57600080fd5b50516040805163d505accf60e01b81523360048201526001600160a01b038c8116602483015260001960448301819052606483015260ff8516608483015260a4820187905260c482018690529151919092169163d505accf9160e480830192600092919082900301818387803b158015612c9757600080fd5b505af1158015612cab573d6000803e3d6000fd5b50505050612cbb89898989613c92565b9998505050505050505050565b6001600160a01b03851660009081526009602052604090205460ff16612d23576040805162461bcd60e51b81526020600482015260186024820152600080516020615909833981519152604482015290519081900360640190fd5b6000806000612d31866144af565b60025460408051623f675f60e91b81526001600160a01b038d8116600483015291519598509396509194501691638fcbaf0c918a918c918591637ecebe0091602480820192602092909190829003018186803b158015612d9057600080fd5b505afa158015612da4573d6000803e3d6000fd5b505050506040513d6020811015612dba57600080fd5b5051604080516001600160e01b031960e087901b1681526001600160a01b039485166004820152929093166024830152604482015260001960648201526001608482015260ff851660a482015260c4810187905260e48101869052905161010480830192600092919082900301818387803b158015612e3857600080fd5b505af1158015612e4c573d6000803e3d6000fd5b50505050612e59856144af565b809350819450829550505050876001600160a01b031663284f44446040518163ffffffff1660e01b815260040160206040518083038186803b158015612e9e57600080fd5b505afa158015612eb2573d6000803e3d6000fd5b505050506040513d6020811015612ec857600080fd5b50516040805163d505accf60e01b81526001600160a01b038a8116600483015230602483015260001960448301819052606483015260ff8516608483015260a4820187905260c482018690529151919092169163d505accf9160e480830192600092919082900301818387803b158015612f4157600080fd5b505af1158015612f55573d6000803e3d6000fd5b50505050612f62846144af565b60408051631a28ff0560e01b81526001600160a01b038c81166004830152306024830152600019604483015260ff841660648301526084820186905260a4820185905291519497509295509093508a1691631a28ff059160c48082019260009290919082900301818387803b1580156123c757600080fd5b6001600160a01b03861660009081526009602052604081205460ff16613035576040805162461bcd60e51b81526020600482015260186024820152600080516020615909833981519152604482015290519081900360640190fd5b6000876001600160a01b0316634e20e95261304f856144ca565b6040518263ffffffff1660e01b815260040180826001600160801b03166001600160801b0316815260200191505060206040518083038186803b15801561309557600080fd5b505afa1580156130a9573d6000803e3d6000fd5b505050506040513d60208110156130bf57600080fd5b50516001600160801b031690508381111561310b5760405162461bcd60e51b81526004018080602001828103825260238152602001806159e16023913960400191505060405180910390fd5b6006546040805163801d325f60e01b8152600481018a9052602481018990523360448201523060648201526084810184905290516001600160a01b039092169163801d325f9160a48082019260009290919082900301818387803b15801561317257600080fd5b505af1158015613186573d6000803e3d6000fd5b50505050876001600160a01b031663cc5783d330876131a4876144ca565b604080516001600160e01b031960e087901b1681526001600160a01b0394851660048201529290931660248301526001600160801b03166044820152905160648083019260209291908290030181600087803b15801561320357600080fd5b505af1158015613217573d6000803e3d6000fd5b505050506040513d602081101561322d57600080fd5b509098975050505050505050565b600181565b6000826001600160a01b0316634e20e952611073846144ca565b60096020526000908152604090205460ff1681565b6b033b2e3c9fd0803ce800000081565b600160009054906101000a90046001600160a01b03166001600160a01b031663d0e30db0346040518263ffffffff1660e01b81526004016000604051808303818588803b1580156132cf57600080fd5b505af11580156132e3573d6000803e3d6000fd5b5050600654604080516356dcf2a760e11b8152644554482d4160d81b60048201523060248201526001600160a01b038781166044830152346064830152915191909216945063adb9e54e93506084808301935060009282900301818387803b15801561334e57600080fd5b505af1158015613362573d6000803e3d6000fd5b5050505050565b6008818154811061337657fe5b6000918252602090912001546001600160a01b0316905081565b644554482d4160d81b81565b60408051635935f49160e11b81523360048201526001600160a01b0385811660248301526001600160801b0385166044830152915160009283929088169163b26be9229160648082019260209290919082900301818787803b15801561340157600080fd5b505af1158015613415573d6000803e3d6000fd5b505050506040513d602081101561342b57600080fd5b50516001600160801b03908116915083168110156113d0576040805162461bcd60e51b815260206004820152601d60248201527f5969656c6450726f78793a204c696d6974206e6f742072656163686564000000604482015290519081900360640190fd5b6005546001600160a01b031681565b634348414960e01b81565b6001600160a01b03821660009081526009602052604090205460ff16613505576040805162461bcd60e51b81526020600482015260186024820152600080516020615909833981519152604482015290519081900360640190fd5b6000826001600160a01b031663284f44446040518163ffffffff1660e01b815260040160206040518083038186803b15801561354057600080fd5b505afa158015613554573d6000803e3d6000fd5b505050506040513d602081101561356a57600080fd5b50516040805163204f83f960e01b815290519192506000916001600160a01b0384169163204f83f9916004808301926020929190829003018186803b1580156135b257600080fd5b505afa1580156135c6573d6000803e3d6000fd5b505050506040513d60208110156135dc57600080fd5b505160408051633dae446f60e21b815233600482015230602482015260448101869052815192935060009283926001600160a01b0389169263f6b911bc926064808301939282900301818787803b15801561363657600080fd5b505af115801561364a573d6000803e3d6000fd5b505050506040513d604081101561366057600080fd5b5080516020909101519092509050801561370b5760408051630e6dfcd560e01b815230600482018190526024820152604481018390529051613708916001600160a01b03871691630e6dfcd5916064808201926020929091908290030181600087803b1580156136cf57600080fd5b505af11580156136e3573d6000803e3d6000fd5b505050506040513d60208110156136f957600080fd5b5051839063ffffffff61454a16565b91505b6000821180156137a35750600654604080516324c94bb560e21b8152634348414960e01b60048201526024810186905233604482015290516000926001600160a01b0316916393252ed4916064808301926020929190829003018186803b15801561377557600080fd5b505afa158015613789573d6000803e3d6000fd5b505050506040513d602081101561379f57600080fd5b5051115b1561384357600654604080516325d3cd1760e01b8152634348414960e01b6004820152602481018690523060448201523360648201526084810185905290516001600160a01b03909216916325d3cd179160a4808201926020929091908290030181600087803b15801561381657600080fd5b505af115801561382a573d6000803e3d6000fd5b505050506040513d602081101561384057600080fd5b50505b61384c846145e6565b505050505050565b6000806000806000868660a081101561386c57600080fd5b508035151595506001600160a01b0360208201358116955060408201351693506060810135925060800135905060018514156138ae576138ae84848484614af1565b84612921576129218484848b615021565b6004546001600160a01b031681565b600081565b6001600160a01b03861660009081526009602052604081205460ff1661392e576040805162461bcd60e51b81526020600482015260186024820152600080516020615909833981519152604482015290519081900360640190fd5b6000876001600160a01b03166385561a34613948856144ca565b6040518263ffffffff1660e01b815260040180826001600160801b03166001600160801b0316815260200191505060206040518083038186803b15801561398e57600080fd5b505afa1580156139a2573d6000803e3d6000fd5b505050506040513d60208110156139b857600080fd5b5051600654604080516324c94bb560e21b8152600481018b9052602481018a90526001600160a01b03898116604483015291516001600160801b03909416945060009391909216916393252ed4916064808301926020929190829003018186803b158015613a2557600080fd5b505afa158015613a39573d6000803e3d6000fd5b505050506040513d6020811015613a4f57600080fd5b50519050808211613b0557886001600160a01b031663b26be9223330613a74886144ca565b604080516001600160e01b031960e087901b1681526001600160a01b0394851660048201529290931660248301526001600160801b03166044820152905160648083019260209291908290030181600087803b158015613ad357600080fd5b505af1158015613ae7573d6000803e3d6000fd5b505050506040513d6020811015613afd57600080fd5b50613bb09050565b886001600160a01b0316637543e39c3330613b1f856144ca565b604080516001600160e01b031960e087901b1681526001600160a01b0394851660048201529290931660248301526001600160801b03166044820152905160648083019260209291908290030181600087803b158015613b7e57600080fd5b505af1158015613b92573d6000803e3d6000fd5b505050506040513d6020811015613ba857600080fd5b509091508190505b84821015613bef5760405162461bcd60e51b8152600401808060200182810382526028815260200180615a256028913960400191505060405180910390fd5b6006546040805163b93dd41d60e01b8152600481018b9052602481018a90523060448201526001600160a01b038981166064830152608482018690529151919092169163b93dd41d9160a48083019260209291908290030181600087803b158015613c5957600080fd5b505af1158015613c6d573d6000803e3d6000fd5b505050506040513d6020811015613c8357600080fd5b50919998505050505050505050565b6040805163cc5783d360e01b81523360048201526001600160a01b0385811660248301526001600160801b0385166044830152915160009283929088169163cc5783d39160648082019260209290919082900301818787803b15801561134157600080fd5b6001600160a01b03861660009081526009602052604081205460ff16613d52576040805162461bcd60e51b81526020600482015260186024820152600080516020615909833981519152604482015290519081900360640190fd5b600654604080516324c94bb560e21b815260048101899052602481018890526001600160a01b038781166044830152915160009392909216916393252ed491606480820192602092909190829003018186803b158015613db157600080fd5b505afa158015613dc5573d6000803e3d6000fd5b505050506040513d6020811015613ddb57600080fd5b505190506000848210613dee5784613df0565b815b90506000896001600160a01b0316637543e39c3330613e0e866144ca565b604080516001600160e01b031960e087901b1681526001600160a01b0394851660048201529290931660248301526001600160801b03166044820152905160648083019260209291908290030181600087803b158015613e6d57600080fd5b505af1158015613e81573d6000803e3d6000fd5b505050506040513d6020811015613e9757600080fd5b50516001600160801b0316905084811115613ee35760405162461bcd60e51b8152600401808060200182810382526021815260200180615a046021913960400191505060405180910390fd5b6006546040805163b93dd41d60e01b8152600481018c9052602481018b90523060448201526001600160a01b038a81166064830152608482018690529151919092169163b93dd41d9160a48083019260209291908290030181600087803b158015613f4d57600080fd5b505af1158015613f61573d6000803e3d6000fd5b505050506040513d6020811015613f7757600080fd5b50909a9950505050505050505050565b604080516360561e0560e01b81523360048201526001600160a01b0385811660248301526001600160801b038516604483015291516000928392908816916360561e059160648082019260209290919082900301818787803b15801561340157600080fd5b6000846001600160a01b031663284f44446040518163ffffffff1660e01b815260040160206040518083038186803b15801561402757600080fd5b505afa15801561403b573d6000803e3d6000fd5b505050506040513d602081101561405157600080fd5b50516006546040805163204f83f960e01b815290519293506001600160a01b03918216926393252ed492644554482d4160d81b929086169163204f83f991600480820192602092909190829003018186803b1580156140af57600080fd5b505afa1580156140c3573d6000803e3d6000fd5b505050506040513d60208110156140d957600080fd5b5051604080516001600160e01b031960e086901b168152600481019390935260248301919091526001600160a01b0388166044830152516064808301926020929190829003018186803b15801561412f57600080fd5b505afa158015614143573d6000803e3d6000fd5b505050506040513d602081101561415957600080fd5b50518211156141995760405162461bcd60e51b81526004018080602001828103825260248152602001806159716024913960400191505060405180910390fd5b6006546040805163dd62f42360e01b8152644554482d4160d81b60048201526001600160a01b0387811660248301529151919092169163dd62f423916044808301926020929190829003018186803b1580156141f457600080fd5b505afa158015614208573d6000803e3d6000fd5b505050506040513d602081101561421e57600080fd5b505183111561425e5760405162461bcd60e51b815260040180806020018281038252602a815260200180615891602a913960400191505060405180910390fd5b60408051600060208083018290526001600160a01b03898116848601528881166060808601919091526080850189905260a08086018590528651808703909101815260c0860196879052633ea2146560e01b9096523060c4860181815260e487018a905261010487019283528751610124880152875193891697633ea214659792968b969195929493610144019291860191908190849084905b838110156143105781810151838201526020016142f8565b50505050905090810190601f16801561433d5780820380516001836020036101000a031916815260200191505b50945050505050600060405180830381600087803b15801561435e57600080fd5b505af1158015612921573d6000803e3d6000fd5b6006546040805163470660bb60e11b8152644554482d4160d81b60048201523360248201523060448201526064810184905290516001600160a01b0390921691638e0cc1769160848082019260009290919082900301818387803b1580156143d957600080fd5b505af11580156143ed573d6000803e3d6000fd5b505060015460408051632e1a7d4d60e01b81526004810186905290516001600160a01b039092169350632e1a7d4d925060248082019260009290919082900301818387803b15801561443e57600080fd5b505af1158015614452573d6000803e3d6000fd5b50506040516001600160a01b038516925083156108fc02915083906000818181858888f1935050505015801561448c573d6000803e3d6000fd5b505050565b6002546001600160a01b031681565b6006546001600160a01b031681565b60208101516040820151606090920151909260009190911a90565b60006001600160801b03821115614524576040805162461bcd60e51b81526020600482015260196024820152785969656c6450726f78793a2043617374206f766572666c6f7760381b604482015290519081900360640190fd5b5090565b60006129c96b033b2e3c9fd0803ce8000000611c8c858563ffffffff614a3416565b6000828201838110156129c9576040805162461bcd60e51b815260206004820152601b60248201527f536166654d6174683a206164646974696f6e206f766572666c6f770000000000604482015290519081900360640190fd5b60006129c983836040518060400160405280601e81526020017f536166654d6174683a207375627472616374696f6e206f766572666c6f770000815250615627565b600660009054906101000a90046001600160a01b03166001600160a01b03166393252ed4634348414960e01b836001600160a01b031663204f83f96040518163ffffffff1660e01b815260040160206040518083038186803b15801561464b57600080fd5b505afa15801561465f573d6000803e3d6000fd5b505050506040513d602081101561467557600080fd5b5051604080516001600160e01b031960e086901b16815260048101939093526024830191909152336044830152516064808301926020929190829003018186803b1580156146c257600080fd5b505afa1580156146d6573d6000803e3d6000fd5b505050506040513d60208110156146ec57600080fd5b50516148e5576006546040805163dd62f42360e01b8152634348414960e01b60048201819052336024830181905292516001600160a01b0390941693638e0cc1769391923091869163dd62f423916044808301926020929190829003018186803b15801561475957600080fd5b505afa15801561476d573d6000803e3d6000fd5b505050506040513d602081101561478357600080fd5b5051604080516001600160e01b031960e088901b16815260048101959095526001600160a01b039384166024860152919092166044840152606483019190915251608480830192600092919082900301818387803b1580156147e457600080fd5b505af11580156147f8573d6000803e3d6000fd5b5050600554604080516370a0823160e01b8152306004820181905291516001600160a01b03909316945063ef693bed9350909184916370a08231916024808301926020929190829003018186803b15801561485257600080fd5b505afa158015614866573d6000803e3d6000fd5b505050506040513d602081101561487c57600080fd5b5051604080516001600160e01b031960e086901b1681526001600160a01b039093166004840152602483019190915251604480830192600092919082900301818387803b1580156148cc57600080fd5b505af11580156148e0573d6000803e3d6000fd5b505050505b600254604080516370a0823160e01b815230600482015290516001600160a01b039092169163a9059cbb91339184916370a08231916024808301926020929190829003018186803b15801561493957600080fd5b505afa15801561494d573d6000803e3d6000fd5b505050506040513d602081101561496357600080fd5b5051604080516001600160e01b031960e086901b1681526001600160a01b03909316600484015260248301919091525160448083019260209291908290030181600087803b1580156149b457600080fd5b505af11580156149c8573d6000803e3d6000fd5b505050506040513d60208110156149de57600080fd5b5051614a31576040805162461bcd60e51b815260206004820152601f60248201527f5969656c6450726f78793a20446169205472616e73666572204661696c656400604482015290519081900360640190fd5b50565b600082614a43575060006110f1565b82820282848281614a5057fe5b04146129c95760405162461bcd60e51b81526004018080602001828103825260218152602001806159506021913960400191505060405180910390fd5b60006129c983836040518060400160405280601a81526020017f536166654d6174683a206469766973696f6e206279207a65726f0000000000008152506156be565b60006129c982611c8c856b033b2e3c9fd0803ce800000063ffffffff614a3416565b60008490506000816001600160a01b031663284f44446040518163ffffffff1660e01b815260040160206040518083038186803b158015614b3157600080fd5b505afa158015614b45573d6000803e3d6000fd5b505050506040513d6020811015614b5b57600080fd5b5051905060006001600160a01b03831663cc5783d33080614b7b886144ca565b604080516001600160e01b031960e087901b1681526001600160a01b0394851660048201529290931660248301526001600160801b03166044820152905160648083019260209291908290030181600087803b158015614bda57600080fd5b505af1158015614bee573d6000803e3d6000fd5b505050506040513d6020811015614c0457600080fd5b50516004805460408051633b4da69f60e01b81526001600160a01b038b8116948201949094526024810189905290516001600160801b039094169450911691633b4da69f9160448082019260009290919082900301818387803b158015614c6a57600080fd5b505af1158015614c7e573d6000803e3d6000fd5b50506000805460408051636cb1c69b60e11b8152644554482d4160d81b600482015290519294506001600160a01b03909116925063d9638d369160248083019260a0929190829003018186803b158015614cd757600080fd5b505afa158015614ceb573d6000803e3d6000fd5b505050506040513d60a0811015614d0157600080fd5b50602001516000549091506001600160a01b03166376088703888080614d268b615723565b600003614d3b614d368c8961577d565b615723565b604080516001600160e01b031960e089901b168152644554482d4160d81b60048201526001600160a01b03968716602482015294861660448601529290941660648401526084830152600092830360a48301525160c4808301939282900301818387803b158015614dab57600080fd5b505af1158015614dbf573d6000803e3d6000fd5b50506000805460408051633088df1760e11b8152644554482d4160d81b60048201526001600160a01b038d81166024830152306044830152606482018d90529151919092169450636111be2e93506084808301939282900301818387803b158015614e2957600080fd5b505af1158015614e3d573d6000803e3d6000fd5b50506003546040805163ef693bed60e01b8152306004820152602481018b905290516001600160a01b03909216935063ef693bed925060448082019260009290919082900301818387803b158015614e9457600080fd5b505af1158015614ea8573d6000803e3d6000fd5b5050600654604080516356dcf2a760e11b8152644554482d4160d81b60048201523060248201526001600160a01b038c81166044830152606482018c9052915191909216935063adb9e54e9250608480830192600092919082900301818387803b158015614f1557600080fd5b505af1158015614f29573d6000803e3d6000fd5b50505050600660009054906101000a90046001600160a01b03166001600160a01b031663801d325f644554482d4160d81b856001600160a01b031663204f83f96040518163ffffffff1660e01b815260040160206040518083038186803b158015614f9357600080fd5b505afa158015614fa7573d6000803e3d6000fd5b505050506040513d6020811015614fbd57600080fd5b5051604080516001600160e01b031960e086901b168152600481019390935260248301919091526001600160a01b038b166044830152306064830152608482018690525160a480830192600092919082900301818387803b1580156123c757600080fd5b60008490506000816001600160a01b031663284f44446040518163ffffffff1660e01b815260040160206040518083038186803b15801561506157600080fd5b505afa158015615075573d6000803e3d6000fd5b505050506040513d602081101561508b57600080fd5b50516006546040805163204f83f960e01b815290519293506001600160a01b039182169263b93dd41d92644554482d4160d81b929086169163204f83f991600480820192602092909190829003018186803b1580156150e957600080fd5b505afa1580156150fd573d6000803e3d6000fd5b505050506040513d602081101561511357600080fd5b5051604080516001600160e01b031960e086901b168152600481019390935260248301919091523060448301526001600160a01b0389166064830152608482018790525160a48083019260209291908290030181600087803b15801561517857600080fd5b505af115801561518c573d6000803e3d6000fd5b505050506040513d60208110156151a257600080fd5b50506006546040805163470660bb60e11b8152644554482d4160d81b60048201526001600160a01b0388811660248301523060448301526064820188905291519190921691638e0cc17691608480830192600092919082900301818387803b15801561520d57600080fd5b505af1158015615221573d6000803e3d6000fd5b505060035460408051633b4da69f60e01b81526001600160a01b038a81166004830152602482018a90529151919092169350633b4da69f9250604480830192600092919082900301818387803b15801561527a57600080fd5b505af115801561528e573d6000803e3d6000fd5b505050506000826001600160a01b03166398ba4aec6152ac866144ca565b6040518263ffffffff1660e01b815260040180826001600160801b03166001600160801b0316815260200191505060206040518083038186803b1580156152f257600080fd5b505afa158015615306573d6000803e3d6000fd5b505050506040513d602081101561531c57600080fd5b50516000805460408051636cb1c69b60e11b8152644554482d4160d81b600482015290516001600160801b03909416945091926001600160a01b039091169163d9638d369160248083019260a0929190829003018186803b15801561538057600080fd5b505afa158015615394573d6000803e3d6000fd5b505050506040513d60a08110156153aa57600080fd5b50602001516000549091506001600160a01b031663760887038880806153cf8b615723565b6153dc614d36898961577d565b604080516001600160e01b031960e089901b168152644554482d4160d81b60048201526001600160a01b0396871660248201529486166044860152929094166064840152608483015260a4820192909252905160c480830192600092919082900301818387803b15801561544f57600080fd5b505af1158015615463573d6000803e3d6000fd5b50506000546001600160a01b0316915063bb35783b90508830615498866b033b2e3c9fd0803ce800000063ffffffff614a3416565b6040518463ffffffff1660e01b815260040180846001600160a01b03166001600160a01b03168152602001836001600160a01b03166001600160a01b031681526020018281526020019350505050600060405180830381600087803b15801561550057600080fd5b505af1158015615514573d6000803e3d6000fd5b5050600480546040805163ef693bed60e01b8152309381019390935260248301879052516001600160a01b03909116935063ef693bed9250604480830192600092919082900301818387803b15801561556c57600080fd5b505af1158015615580573d6000803e3d6000fd5b50505050836001600160a01b0316637543e39c303061559e896144ca565b604080516001600160e01b031960e087901b1681526001600160a01b0394851660048201529290931660248301526001600160801b03166044820152905160648083019260209291908290030181600087803b1580156155fd57600080fd5b505af1158015615611573d6000803e3d6000fd5b505050506040513d602081101561104d57600080fd5b600081848411156156b65760405162461bcd60e51b81526004018080602001828103825283818151815260200191508051906020019080838360005b8381101561567b578181015183820152602001615663565b50505050905090810190601f1680156156a85780820380516001836020036101000a031916815260200191505b509250505060405180910390fd5b505050900390565b6000818361570d5760405162461bcd60e51b815260206004820181815283516024840152835190928392604490910191908501908083836000831561567b578181015183820152602001615663565b50600083858161571957fe5b0495945050505050565b60006001600160ff1b03821115614524576040805162461bcd60e51b81526020600482015260196024820152785969656c6450726f78793a2043617374206f766572666c6f7760381b604482015290519081900360640190fd5b60008061579c846b033b2e3c9fd0803ce800000063ffffffff614a3416565b90506157ae818463ffffffff6157f116565b156157d9576157d460016157c8838663ffffffff614a8d16565b9063ffffffff61454a16565b6157e9565b6157e9818463ffffffff614a8d16565b949350505050565b60006129c983836040518060400160405280601881526020017f536166654d6174683a206d6f64756c6f206279207a65726f00000000000000008152506000818361587d5760405162461bcd60e51b815260206004820181815283516024840152835190928392604490910191908501908083836000831561567b578181015183820152602001615663565b5082848161588757fe5b0694935050505056fe5969656c6450726f78793a204e6f7420656e6f75676820636f6c6c61746572616c20696e205969656c645969656c6450726f78793a204e6f7420656e6f75676820636f6c6c61746572616c20696e204d616b65725969656c6450726f78793a204e6f7420656e6f756768206465627420696e204d616b65725969656c6450726f78793a20556e6b6e6f776e20706f6f6c00000000000000005969656c6450726f78793a206d696e696d756d4461695072696365206e6f742072656163686564536166654d6174683a206d756c7469706c69636174696f6e206f766572666c6f775969656c6450726f78793a204e6f7420656e6f756768206465627420696e205969656c645969656c6450726f78793a204e6f7420656e6f75676820446169206f627461696e65645969656c6450726f78793a206d696e696d756d46594461695072696365206e6f7420726561636865645969656c6450726f78793a20546f6f206d7563682066794461692072657175697265645969656c6450726f78793a20546f6f206d756368204461692072657175697265645969656c6450726f78793a204e6f7420656e6f756768206679446169206465627420726570616964a26469706673582212203e39674c103b6ee2ce5e7c01f6d2f5f12dc03708c38e20a9ed6c7f90c500e17364736f6c634300060a0033",
  "immutableReferences": {},
  "source": "// SPDX-License-Identifier: GPL-3.0-or-later\npragma solidity ^0.6.10;\n\nimport \"../interfaces/IController.sol\";\nimport \"../interfaces/IWeth.sol\";\nimport \"../interfaces/IDai.sol\";\nimport \"../interfaces/IGemJoin.sol\";\nimport \"../interfaces/IDaiJoin.sol\";\nimport \"../interfaces/IVat.sol\";\nimport \"../interfaces/IPot.sol\";\nimport \"../interfaces/IPool.sol\";\nimport \"../interfaces/IFYDai.sol\";\nimport \"../interfaces/IChai.sol\";\nimport \"../interfaces/IFlashMinter.sol\";\nimport \"../helpers/DecimalMath.sol\";\n\n\nlibrary SafeCast {\n    /// @dev Safe casting from uint256 to uint128\n    function toUint128(uint256 x) internal pure returns(uint128) {\n        require(\n            x <= type(uint128).max,\n            \"YieldProxy: Cast overflow\"\n        );\n        return uint128(x);\n    }\n\n    /// @dev Safe casting from uint256 to int256\n    function toInt256(uint256 x) internal pure returns(int256) {\n        require(\n            x <= uint256(type(int256).max),\n            \"YieldProxy: Cast overflow\"\n        );\n        return int256(x);\n    }\n}\n\ncontract YieldProxy is DecimalMath, IFlashMinter {\n    using SafeCast for uint256;\n\n    IVat public vat;\n    IWeth public weth;\n    IDai public dai;\n    IGemJoin public wethJoin;\n    IDaiJoin public daiJoin;\n    IChai public chai;\n    IController public controller;\n    ITreasury public treasury;\n\n    IPool[] public pools;\n    mapping (address => bool) public poolsMap;\n\n    bytes32 public constant CHAI = \"CHAI\";\n    bytes32 public constant WETH = \"ETH-A\";\n    bool constant public MTY = true;\n    bool constant public YTM = false;\n\n\n    constructor(address controller_, IPool[] memory _pools) public {\n        controller = IController(controller_);\n        treasury = controller.treasury();\n\n        weth = treasury.weth();\n        dai = IDai(address(treasury.dai()));\n        chai = treasury.chai();\n        daiJoin = treasury.daiJoin();\n        wethJoin = treasury.wethJoin();\n        vat = treasury.vat();\n\n        // for repaying debt\n        dai.approve(address(treasury), uint(-1));\n\n        // for posting to the controller\n        chai.approve(address(treasury), uint(-1));\n        weth.approve(address(treasury), uint(-1));\n\n        // for converting DAI to CHAI\n        dai.approve(address(chai), uint(-1));\n\n        vat.hope(address(daiJoin));\n        vat.hope(address(wethJoin));\n\n        dai.approve(address(daiJoin), uint(-1));\n        weth.approve(address(wethJoin), uint(-1));\n        weth.approve(address(treasury), uint(-1));\n\n        // allow all the pools to pull FYDai/dai from us for LPing\n        for (uint i = 0 ; i < _pools.length; i++) {\n            dai.approve(address(_pools[i]), uint(-1));\n            _pools[i].fyDai().approve(address(_pools[i]), uint(-1));\n            poolsMap[address(_pools[i])]= true;\n        }\n\n        pools = _pools;\n    }\n\n    /// @dev Unpack r, s and v from a `bytes` signature\n    function unpack(bytes memory signature) private pure returns (bytes32 r, bytes32 s, uint8 v) {\n        assembly {\n            r := mload(add(signature, 0x20))\n            s := mload(add(signature, 0x40))\n            v := byte(0, mload(add(signature, 0x60)))\n        }\n    }\n\n    /// @dev Performs the initial onboarding of the user. It `permit`'s DAI to be used by the proxy, and adds the proxy as a delegate in the controller\n    function onboard(address from, bytes memory daiSignature, bytes memory controllerSig) external {\n        bytes32 r;\n        bytes32 s;\n        uint8 v;\n\n        (r, s, v) = unpack(daiSignature);\n        dai.permit(from, address(this), dai.nonces(from), uint(-1), true, v, r, s);\n\n        (r, s, v) = unpack(controllerSig);\n        controller.addDelegateBySignature(from, address(this), uint(-1), v, r, s);\n    }\n\n    /// @dev Given a pool and 3 signatures, it `permit`'s dai and fyDai for that pool and adds it as a delegate\n    function authorizePool(IPool pool, address from, bytes memory daiSig, bytes memory fyDaiSig, bytes memory poolSig) public {\n        require(poolsMap[address(pool)], \"YieldProxy: Unknown pool\");\n        bytes32 r;\n        bytes32 s;\n        uint8 v;\n\n        (r, s, v) = unpack(daiSig);\n        dai.permit(from, address(pool), dai.nonces(from), uint(-1), true, v, r, s);\n\n        (r, s, v) = unpack(fyDaiSig);\n        pool.fyDai().permit(from, address(this), uint(-1), uint(-1), v, r, s);\n\n        (r, s, v) = unpack(poolSig);\n        pool.addDelegateBySignature(from, address(this), uint(-1), v, r, s);\n    }\n\n    /// @dev The WETH9 contract will send ether to YieldProxy on `weth.withdraw` using this function.\n    receive() external payable { }\n\n    /// @dev Users use `post` in YieldProxy to post ETH to the Controller (amount = msg.value), which will be converted to Weth here.\n    /// @param to Yield Vault to deposit collateral in.\n    function post(address to)\n        public payable {\n        weth.deposit{ value: msg.value }();\n        controller.post(WETH, address(this), to, msg.value);\n    }\n\n    /// @dev Users wishing to withdraw their Weth as ETH from the Controller should use this function.\n    /// Users must have called `controller.addDelegate(yieldProxy.address)` to authorize YieldProxy to act in their behalf.\n    /// @param to Wallet to send Eth to.\n    /// @param amount Amount of weth to move.\n    function withdraw(address payable to, uint256 amount)\n        public {\n        controller.withdraw(WETH, msg.sender, address(this), amount);\n        weth.withdraw(amount);\n        to.transfer(amount);\n    }\n\n    /// @dev Mints liquidity with provided Dai by borrowing fyDai with some of the Dai.\n    /// Caller must have approved the proxy using`controller.addDelegate(yieldProxy)`\n    /// Caller must have approved the dai transfer with `dai.approve(daiUsed)`\n    /// @param daiUsed amount of Dai to use to mint liquidity. \n    /// @param maxFYDai maximum amount of fyDai to be borrowed to mint liquidity. \n    /// @return The amount of liquidity tokens minted.  \n    function addLiquidity(IPool pool, uint256 daiUsed, uint256 maxFYDai) external returns (uint256) {\n        require(poolsMap[address(pool)], \"YieldProxy: Unknown pool\");\n        IFYDai fyDai = pool.fyDai();\n        require(fyDai.isMature() != true, \"YieldProxy: Only before maturity\");\n        require(dai.transferFrom(msg.sender, address(this), daiUsed), \"YieldProxy: Transfer Failed\");\n\n        // calculate needed fyDai\n        uint256 daiReserves = dai.balanceOf(address(pool));\n        uint256 fyDaiReserves = fyDai.balanceOf(address(pool));\n        uint256 daiToAdd = daiUsed.mul(daiReserves).div(fyDaiReserves.add(daiReserves));\n        uint256 daiToConvert = daiUsed.sub(daiToAdd);\n        require(\n            daiToConvert <= maxFYDai,\n            \"YieldProxy: maxFYDai exceeded\"\n        ); // 1 Dai == 1 fyDai\n\n        // convert dai to chai and borrow needed fyDai\n        chai.join(address(this), daiToConvert);\n        // look at the balance of chai in dai to avoid rounding issues\n        uint256 toBorrow = chai.dai(address(this));\n        controller.post(CHAI, address(this), msg.sender, chai.balanceOf(address(this)));\n        controller.borrow(CHAI, fyDai.maturity(), msg.sender, address(this), toBorrow);\n        \n        // mint liquidity tokens\n        return pool.mint(address(this), msg.sender, daiToAdd);\n    }\n\n    /// @dev Burns tokens and sells Dai proceedings for fyDai. Pays as much debt as possible, then sells back any remaining fyDai for Dai. Then returns all Dai, and if there is no debt in the Controller, all posted Chai.\n    /// Caller must have approved the proxy using`controller.addDelegate(yieldProxy)` and `pool.addDelegate(yieldProxy)`\n    /// Caller must have approved the liquidity burn with `pool.approve(poolTokens)`\n    /// @param poolTokens amount of pool tokens to burn. \n    /// @param minimumDaiPrice minimum fyDai/Dai price to be accepted when internally selling Dai.\n    /// @param minimumFYDaiPrice minimum Dai/fyDai price to be accepted when internally selling fyDai.\n    function removeLiquidityEarlyDaiPool(IPool pool, uint256 poolTokens, uint256 minimumDaiPrice, uint256 minimumFYDaiPrice) external {\n        require(poolsMap[address(pool)], \"YieldProxy: Unknown pool\");\n        IFYDai fyDai = pool.fyDai();\n        uint256 maturity = fyDai.maturity();\n        (uint256 daiObtained, uint256 fyDaiObtained) = pool.burn(msg.sender, address(this), poolTokens);\n\n        // Exchange Dai for fyDai to pay as much debt as possible\n        uint256 fyDaiBought = pool.sellDai(address(this), address(this), daiObtained.toUint128());\n        require(\n            fyDaiBought >= muld(daiObtained, minimumDaiPrice),\n            \"YieldProxy: minimumDaiPrice not reached\"\n        );\n        fyDaiObtained = fyDaiObtained.add(fyDaiBought);\n        \n        uint256 fyDaiUsed;\n        if (fyDaiObtained > 0 && controller.debtFYDai(CHAI, maturity, msg.sender) > 0) {\n            fyDaiUsed = controller.repayFYDai(CHAI, maturity, address(this), msg.sender, fyDaiObtained);\n        }\n        uint256 fyDaiRemaining = fyDaiObtained.sub(fyDaiUsed);\n\n        if (fyDaiRemaining > 0) {// There is fyDai left, so exchange it for Dai to withdraw only Dai and Chai\n            require(\n                pool.sellFYDai(address(this), address(this), uint128(fyDaiRemaining)) >= muld(fyDaiRemaining, minimumFYDaiPrice),\n                \"YieldProxy: minimumFYDaiPrice not reached\"\n            );\n        }\n        withdrawAssets(fyDai);\n    }\n\n    /// @dev Burns tokens and repays debt with proceedings. Sells any excess fyDai for Dai, then returns all Dai, and if there is no debt in the Controller, all posted Chai.\n    /// Caller must have approved the proxy using`controller.addDelegate(yieldProxy)` and `pool.addDelegate(yieldProxy)`\n    /// Caller must have approved the liquidity burn with `pool.approve(poolTokens)`\n    /// @param poolTokens amount of pool tokens to burn. \n    /// @param minimumFYDaiPrice minimum Dai/fyDai price to be accepted when internally selling fyDai.\n    function removeLiquidityEarlyDaiFixed(IPool pool, uint256 poolTokens, uint256 minimumFYDaiPrice) external {\n        require(poolsMap[address(pool)], \"YieldProxy: Unknown pool\");\n        IFYDai fyDai = pool.fyDai();\n        uint256 maturity = fyDai.maturity();\n        (uint256 daiObtained, uint256 fyDaiObtained) = pool.burn(msg.sender, address(this), poolTokens);\n\n        uint256 fyDaiUsed;\n        if (fyDaiObtained > 0 && controller.debtFYDai(CHAI, maturity, msg.sender) > 0) {\n            fyDaiUsed = controller.repayFYDai(CHAI, maturity, address(this), msg.sender, fyDaiObtained);\n        }\n\n        uint256 fyDaiRemaining = fyDaiObtained.sub(fyDaiUsed);\n        if (fyDaiRemaining == 0) { // We used all the fyDai, so probably there is debt left, so pay with Dai\n            if (daiObtained > 0 && controller.debtFYDai(CHAI, maturity, msg.sender) > 0) {\n                controller.repayDai(CHAI, maturity, address(this), msg.sender, daiObtained);\n            }\n        } else { // Exchange remaining fyDai for Dai to withdraw only Dai and Chai\n            require(\n                pool.sellFYDai(address(this), address(this), uint128(fyDaiRemaining)) >= muld(fyDaiRemaining, minimumFYDaiPrice),\n                \"YieldProxy: minimumFYDaiPrice not reached\"\n            );\n        }\n        withdrawAssets(fyDai);\n    }\n\n    /// @dev Burns tokens and repays fyDai debt after Maturity. \n    /// Caller must have approved the proxy using`controller.addDelegate(yieldProxy)`\n    /// Caller must have approved the liquidity burn with `pool.approve(poolTokens)`\n    /// @param poolTokens amount of pool tokens to burn.\n    function removeLiquidityMature(IPool pool, uint256 poolTokens) external {\n        require(poolsMap[address(pool)], \"YieldProxy: Unknown pool\");\n        IFYDai fyDai = pool.fyDai();\n        uint256 maturity = fyDai.maturity();\n        (uint256 daiObtained, uint256 fyDaiObtained) = pool.burn(msg.sender, address(this), poolTokens);\n        if (fyDaiObtained > 0) {\n            daiObtained = daiObtained.add(fyDai.redeem(address(this), address(this), fyDaiObtained));\n        }\n        \n        // Repay debt\n        if (daiObtained > 0 && controller.debtFYDai(CHAI, maturity, msg.sender) > 0) {\n            controller.repayDai(CHAI, maturity, address(this), msg.sender, daiObtained);\n        }\n        withdrawAssets(fyDai);\n    }\n\n    /// @dev Return to caller all posted chai if there is no debt, converted to dai, plus any dai remaining in the contract.\n    function withdrawAssets(IFYDai fyDai) internal {\n        if (controller.debtFYDai(CHAI, fyDai.maturity(), msg.sender) == 0) {\n            controller.withdraw(CHAI, msg.sender, address(this), controller.posted(CHAI, msg.sender));\n            chai.exit(address(this), chai.balanceOf(address(this)));\n        }\n        require(dai.transfer(msg.sender, dai.balanceOf(address(this))), \"YieldProxy: Dai Transfer Failed\");\n    }\n\n    /// @dev Borrow fyDai from Controller and sell it immediately for Dai, for a maximum fyDai debt.\n    /// Must have approved the operator with `controller.addDelegate(yieldProxy.address)`.\n    /// @param collateral Valid collateral type.\n    /// @param maturity Maturity of an added series\n    /// @param to Wallet to send the resulting Dai to.\n    /// @param maximumFYDai Maximum amount of FYDai to borrow.\n    /// @param daiToBorrow Exact amount of Dai that should be obtained.\n    function borrowDaiForMaximumFYDai(\n        IPool pool,\n        bytes32 collateral,\n        uint256 maturity,\n        address to,\n        uint256 maximumFYDai,\n        uint256 daiToBorrow\n    )\n        public\n        returns (uint256)\n    {\n        require(poolsMap[address(pool)], \"YieldProxy: Unknown pool\");\n        uint256 fyDaiToBorrow = pool.buyDaiPreview(daiToBorrow.toUint128());\n        require (fyDaiToBorrow <= maximumFYDai, \"YieldProxy: Too much fyDai required\");\n\n        // The collateral for this borrow needs to have been posted beforehand\n        controller.borrow(collateral, maturity, msg.sender, address(this), fyDaiToBorrow);\n        pool.buyDai(address(this), to, daiToBorrow.toUint128());\n\n        return fyDaiToBorrow;\n    }\n\n    /// @dev Borrow fyDai from Controller and sell it immediately for Dai, if a minimum amount of Dai can be obtained such.\n    /// Must have approved the operator with `controller.addDelegate(yieldProxy.address)`.\n    /// @param collateral Valid collateral type.\n    /// @param maturity Maturity of an added series\n    /// @param to Wallet to sent the resulting Dai to.\n    /// @param fyDaiToBorrow Amount of fyDai to borrow.\n    /// @param minimumDaiToBorrow Minimum amount of Dai that should be borrowed.\n    function borrowMinimumDaiForFYDai(\n        IPool pool,\n        bytes32 collateral,\n        uint256 maturity,\n        address to,\n        uint256 fyDaiToBorrow,\n        uint256 minimumDaiToBorrow\n    )\n        public\n        returns (uint256)\n    {\n        require(poolsMap[address(pool)], \"YieldProxy: Unknown pool\");\n        // The collateral for this borrow needs to have been posted beforehand\n        controller.borrow(collateral, maturity, msg.sender, address(this), fyDaiToBorrow);\n        uint256 boughtDai = pool.sellFYDai(address(this), to, fyDaiToBorrow.toUint128());\n        require (boughtDai >= minimumDaiToBorrow, \"YieldProxy: Not enough Dai obtained\");\n\n        return boughtDai;\n    }\n\n\n    /// @dev Repay an amount of fyDai debt in Controller using Dai exchanged for fyDai at pool rates, up to a maximum amount of Dai spent.\n    /// Must have approved the operator with `pool.addDelegate(yieldProxy.address)`.\n    /// If `fyDaiRepayment` exceeds the existing debt, only the necessary fyDai will be used.\n    /// @param collateral Valid collateral type.\n    /// @param maturity Maturity of an added series\n    /// @param to Yield Vault to repay fyDai debt for.\n    /// @param fyDaiRepayment Amount of fyDai debt to repay.\n    /// @param maximumRepaymentInDai Maximum amount of Dai that should be spent on the repayment.\n    function repayFYDaiDebtForMaximumDai(\n        IPool pool,\n        bytes32 collateral,\n        uint256 maturity,\n        address to,\n        uint256 fyDaiRepayment,\n        uint256 maximumRepaymentInDai\n    )\n        public\n        returns (uint256)\n    {\n        require(poolsMap[address(pool)], \"YieldProxy: Unknown pool\");\n        uint256 fyDaiDebt = controller.debtFYDai(collateral, maturity, to);\n        uint256 fyDaiToUse = fyDaiDebt < fyDaiRepayment ? fyDaiDebt : fyDaiRepayment; // Use no more fyDai than debt\n        uint256 repaymentInDai = pool.buyFYDai(msg.sender, address(this), fyDaiToUse.toUint128());\n        require (repaymentInDai <= maximumRepaymentInDai, \"YieldProxy: Too much Dai required\");\n        controller.repayFYDai(collateral, maturity, address(this), to, fyDaiToUse);\n\n        return repaymentInDai;\n    }\n\n    /// @dev Repay an amount of fyDai debt in Controller using a given amount of Dai exchanged for fyDai at pool rates, with a minimum of fyDai debt required to be paid.\n    /// Must have approved the operator with `pool.addDelegate(yieldProxy.address)`.\n    /// If `repaymentInDai` exceeds the existing debt, only the necessary Dai will be used.\n    /// @param collateral Valid collateral type.\n    /// @param maturity Maturity of an added series\n    /// @param to Yield Vault to repay fyDai debt for.\n    /// @param minimumFYDaiRepayment Minimum amount of fyDai debt to repay.\n    /// @param repaymentInDai Exact amount of Dai that should be spent on the repayment.\n    function repayMinimumFYDaiDebtForDai(\n        IPool pool,\n        bytes32 collateral,\n        uint256 maturity,\n        address to,\n        uint256 minimumFYDaiRepayment,\n        uint256 repaymentInDai\n    )\n        public\n        returns (uint256)\n    {\n        require(poolsMap[address(pool)], \"YieldProxy: Unknown pool\");\n        uint256 fyDaiRepayment = pool.sellDaiPreview(repaymentInDai.toUint128());\n        uint256 fyDaiDebt = controller.debtFYDai(collateral, maturity, to);\n        if(fyDaiRepayment <= fyDaiDebt) { // Sell no more Dai than needed to cancel all the debt\n            pool.sellDai(msg.sender, address(this), repaymentInDai.toUint128());\n        } else { // If we have too much Dai, then don't sell it all and buy the exact amount of fyDai needed instead.\n            pool.buyFYDai(msg.sender, address(this), fyDaiDebt.toUint128());\n            fyDaiRepayment = fyDaiDebt;\n        }\n        require (fyDaiRepayment >= minimumFYDaiRepayment, \"YieldProxy: Not enough fyDai debt repaid\");\n        controller.repayFYDai(collateral, maturity, address(this), to, fyDaiRepayment);\n\n        return fyDaiRepayment;\n    }\n\n    /// @dev Sell Dai for fyDai\n    /// @param to Wallet receiving the fyDai being bought\n    /// @param daiIn Amount of dai being sold\n    /// @param minFYDaiOut Minimum amount of fyDai being bought\n    function sellDai(address pool, address to, uint128 daiIn, uint128 minFYDaiOut)\n        external\n        returns(uint256)\n    {\n        uint256 fyDaiOut = IPool(pool).sellDai(msg.sender, to, daiIn);\n        require(\n            fyDaiOut >= minFYDaiOut,\n            \"YieldProxy: Limit not reached\"\n        );\n        return fyDaiOut;\n    }\n\n    /// @dev Buy Dai for fyDai\n    /// @param to Wallet receiving the dai being bought\n    /// @param daiOut Amount of dai being bought\n    /// @param maxFYDaiIn Maximum amount of fyDai being sold\n    function buyDai(address pool, address to, uint128 daiOut, uint128 maxFYDaiIn)\n        public\n        returns(uint256)\n    {\n        uint256 fyDaiIn = IPool(pool).buyDai(msg.sender, to, daiOut);\n        require(\n            maxFYDaiIn >= fyDaiIn,\n            \"YieldProxy: Limit exceeded\"\n        );\n        return fyDaiIn;\n    }\n\n    /// @dev Buy Dai for fyDai and permits infinite fyDai to the pool\n    /// @param to Wallet receiving the dai being bought\n    /// @param daiOut Amount of dai being bought\n    /// @param maxFYDaiIn Maximum amount of fyDai being sold\n    /// @param signature The `permit` call's signature\n    function buyDaiWithSignature(address pool, address to, uint128 daiOut, uint128 maxFYDaiIn, bytes memory signature)\n        external\n        returns(uint256)\n    {\n        (bytes32 r, bytes32 s, uint8 v) = unpack(signature);\n        IPool(pool).fyDai().permit(msg.sender, address(pool), uint(-1), uint(-1), v, r, s);\n\n        return buyDai(pool, to, daiOut, maxFYDaiIn);\n    }\n\n    /// @dev Sell fyDai for Dai\n    /// @param to Wallet receiving the dai being bought\n    /// @param fyDaiIn Amount of fyDai being sold\n    /// @param minDaiOut Minimum amount of dai being bought\n    function sellFYDai(address pool, address to, uint128 fyDaiIn, uint128 minDaiOut)\n        external\n        returns(uint256)\n    {\n        uint256 daiOut = IPool(pool).sellFYDai(msg.sender, to, fyDaiIn);\n        require(\n            daiOut >= minDaiOut,\n            \"YieldProxy: Limit not reached\"\n        );\n        return daiOut;\n    }\n\n    /// @dev Buy fyDai for dai\n    /// @param to Wallet receiving the fyDai being bought\n    /// @param fyDaiOut Amount of fyDai being bought\n    /// @param maxDaiIn Maximum amount of dai being sold\n    function buyFYDai(address pool, address to, uint128 fyDaiOut, uint128 maxDaiIn)\n        external\n        returns(uint256)\n    {\n        uint256 daiIn = IPool(pool).buyFYDai(msg.sender, to, fyDaiOut);\n        require(\n            maxDaiIn >= daiIn,\n            \"YieldProxy: Limit exceeded\"\n        );\n        return daiIn;\n    }\n\n    /// @dev Burns Dai from caller to repay debt in a Yield Vault.\n    /// User debt is decreased for the given collateral and fyDai series, in Yield vault `to`.\n    /// The amount of debt repaid changes according to series maturity and MakerDAO rate and chi, depending on collateral type.\n    /// `A signature is provided as a parameter to this function, so that `dai.approve()` doesn't need to be called.\n    /// @param collateral Valid collateral type.\n    /// @param maturity Maturity of an added series\n    /// @param to Yield vault to repay debt for.\n    /// @param daiAmount Amount of Dai to use for debt repayment.\n    /// @param signature The `permit` call's signature\n    function repayDaiWithSignature(bytes32 collateral, uint256 maturity, address to, uint256 daiAmount, bytes memory signature)\n        external\n        returns(uint256)\n    {\n        (bytes32 r, bytes32 s, uint8 v) = unpack(signature);\n        dai.permit(msg.sender, address(treasury), dai.nonces(msg.sender), uint(-1), true, v, r, s);\n        controller.repayDai(collateral, maturity, msg.sender, to, daiAmount);\n    }\n\n\n    // YieldProxy: Maker to Yield proxy\n\n    /// @dev Transfer debt and collateral from MakerDAO to Yield\n    /// Needs vat.hope(splitter.address, { from: user });\n    /// Needs controller.addDelegate(splitter.address, { from: user });\n    /// @param pool The pool to trade in (and therefore fyDai series to borrow)\n    /// @param user Vault to migrate.\n    /// @param wethAmount weth to move from MakerDAO to Yield. Needs to be high enough to collateralize the dai debt in Yield,\n    /// and low enough to make sure that debt left in MakerDAO is also collateralized.\n    /// @param daiAmount dai debt to move from MakerDAO to Yield. Denominated in Dai (= art * rate)\n    function makerToYield(address pool, address user, uint256 wethAmount, uint256 daiAmount) public {\n        // The user specifies the fyDai he wants to mint to cover his maker debt, the weth to be passed on as collateral, and the dai debt to move\n        (uint256 ink, uint256 art) = vat.urns(WETH, user);\n        (, uint256 rate,,,) = vat.ilks(\"ETH-A\");\n        require(\n            daiAmount <= muld(art, rate),\n            \"YieldProxy: Not enough debt in Maker\"\n        );\n        require(\n            wethAmount <= ink,\n            \"YieldProxy: Not enough collateral in Maker\"\n        );\n        // Flash mint the fyDai\n        IFYDai fyDai = IPool(pool).fyDai();\n        fyDai.flashMint(\n            address(this),\n            fyDaiForDai(pool, daiAmount),\n            abi.encode(MTY, pool, user, wethAmount, daiAmount)\n        );\n    }\n\n    /// @dev Transfer debt and collateral from Yield to MakerDAO\n    /// Needs vat.hope(splitter.address, { from: user });\n    /// Needs controller.addDelegate(splitter.address, { from: user });\n    /// @param pool The pool to trade in (and therefore fyDai series to migrate)\n    /// @param user Vault to migrate.\n    /// @param wethAmount weth to move from Yield to MakerDAO. Needs to be high enough to collateralize the dai debt in MakerDAO,\n    /// and low enough to make sure that debt left in Yield is also collateralized.\n    /// @param fyDaiAmount fyDai debt to move from Yield to MakerDAO.\n    function yieldToMaker(address pool, address user, uint256 wethAmount, uint256 fyDaiAmount) public {\n        IFYDai fyDai = IPool(pool).fyDai();\n\n        // The user specifies the fyDai he wants to move, and the weth to be passed on as collateral\n        require(\n            fyDaiAmount <= controller.debtFYDai(WETH, fyDai.maturity(), user),\n            \"YieldProxy: Not enough debt in Yield\"\n        );\n        require(\n            wethAmount <= controller.posted(WETH, user),\n            \"YieldProxy: Not enough collateral in Yield\"\n        );\n        // Flash mint the fyDai\n        fyDai.flashMint(\n            address(this),\n            fyDaiAmount,\n            abi.encode(YTM, pool, user, wethAmount, 0)\n        ); // The daiAmount encoded is ignored\n    }\n\n    /// @dev Callback from `FYDai.flashMint()`\n    function executeOnFlashMint(address, uint256 fyDaiAmount, bytes calldata data) external override {\n        (bool direction, address pool, address user, uint256 wethAmount, uint256 daiAmount) = \n            abi.decode(data, (bool, address, address, uint256, uint256));\n        if(direction == MTY) _makerToYield(pool, user, wethAmount, daiAmount);\n        if(direction == YTM) _yieldToMaker(pool, user, wethAmount, fyDaiAmount);\n    }\n\n    /// @dev Minimum weth needed to collateralize an amount of dai in MakerDAO\n    function wethForDai(uint256 daiAmount) public view returns (uint256) {\n        (,, uint256 spot,,) = vat.ilks(\"ETH-A\");\n        return divd(daiAmount, spot);\n    }\n\n    /// @dev Minimum weth needed to collateralize an amount of fyDai in Yield. Yes, it's the same formula.\n    function wethForFYDai(uint256 fyDaiAmount) public view returns (uint256) {\n        (,, uint256 spot,,) = vat.ilks(\"ETH-A\");\n        return divd(fyDaiAmount, spot);\n    }\n\n    /// @dev Amount of fyDai debt that will result from migrating Dai debt from MakerDAO to Yield\n    function fyDaiForDai(address pool, uint256 daiAmount) public view returns (uint256) {\n        return IPool(pool).buyDaiPreview(daiAmount.toUint128());\n    }\n\n    /// @dev Amount of dai debt that will result from migrating fyDai debt from Yield to MakerDAO\n    function daiForFYDai(address pool, uint256 fyDaiAmount) public view returns (uint256) {\n        return IPool(pool).buyFYDaiPreview(fyDaiAmount.toUint128());\n    }\n\n    /// @dev Internal function to transfer debt and collateral from MakerDAO to Yield\n    /// @param pool The pool to trade in (and therefore fyDai series to borrow)\n    /// @param user Vault to migrate.\n    /// @param wethAmount weth to move from MakerDAO to Yield. Needs to be high enough to collateralize the dai debt in Yield,\n    /// and low enough to make sure that debt left in MakerDAO is also collateralized.\n    /// @param daiAmount dai debt to move from MakerDAO to Yield. Denominated in Dai (= art * rate)\n    /// Needs vat.hope(splitter.address, { from: user });\n    /// Needs controller.addDelegate(splitter.address, { from: user });\n    function _makerToYield(address pool, address user, uint256 wethAmount, uint256 daiAmount) internal {\n        IPool _pool = IPool(pool);\n        IFYDai fyDai = IFYDai(_pool.fyDai());\n\n        // Pool should take exactly all fyDai flash minted. YieldProxy will hold the dai temporarily\n        uint256 fyDaiSold = _pool.buyDai(address(this), address(this), daiAmount.toUint128());\n\n        daiJoin.join(user, daiAmount);      // Put the Dai in Maker\n        (, uint256 rate,,,) = vat.ilks(\"ETH-A\");\n        vat.frob(                           // Pay the debt and unlock collateral in Maker\n            \"ETH-A\",\n            user,\n            user,\n            user,\n            -wethAmount.toInt256(),               // Removing Weth collateral\n            -divdrup(daiAmount, rate).toInt256()  // Removing Dai debt\n        );\n\n        vat.flux(\"ETH-A\", user, address(this), wethAmount);             // Remove the collateral from Maker\n        wethJoin.exit(address(this), wethAmount);                       // Hold the weth in YieldProxy\n        controller.post(WETH, address(this), user, wethAmount);         // Add the collateral to Yield\n        controller.borrow(WETH, fyDai.maturity(), user, address(this), fyDaiSold); // Borrow the fyDai\n    }\n\n\n    /// @dev Internal function to transfer debt and collateral from Yield to MakerDAO\n    /// Needs vat.hope(splitter.address, { from: user });\n    /// Needs controller.addDelegate(splitter.address, { from: user });\n    /// @param pool The pool to trade in (and therefore fyDai series to migrate)\n    /// @param user Vault to migrate.\n    /// @param wethAmount weth to move from Yield to MakerDAO. Needs to be high enough to collateralize the dai debt in MakerDAO,\n    /// and low enough to make sure that debt left in Yield is also collateralized.\n    /// @param fyDaiAmount fyDai debt to move from Yield to MakerDAO.\n    function _yieldToMaker(address pool, address user, uint256 wethAmount, uint256 fyDaiAmount) internal {\n        IPool _pool = IPool(pool);\n        IFYDai fyDai = IFYDai(_pool.fyDai());\n\n        // Pay the Yield debt - YieldProxy pays FYDai to remove the debt of `user`\n        // Controller should take exactly all fyDai flash minted.\n        controller.repayFYDai(WETH, fyDai.maturity(), address(this), user, fyDaiAmount);\n\n        // Withdraw the collateral from Yield, YieldProxy will hold it\n        controller.withdraw(WETH, user, address(this), wethAmount);\n\n        // Post the collateral to Maker, in the `user` vault\n        wethJoin.join(user, wethAmount);\n\n        // We are going to need to buy the FYDai back with Dai borrowed from Maker\n        uint256 daiAmount = _pool.buyFYDaiPreview(fyDaiAmount.toUint128());\n\n        // Borrow the Dai from Maker\n        (, uint256 rate,,,) = vat.ilks(\"ETH-A\"); // Retrieve the MakerDAO stability fee for Weth\n        vat.frob(\n            \"ETH-A\",\n            user,\n            user,\n            user,\n            wethAmount.toInt256(),                   // Adding Weth collateral\n            divdrup(daiAmount, rate).toInt256()      // Adding Dai debt\n        );\n        vat.move(user, address(this), daiAmount.mul(UNIT)); // Transfer the Dai to YieldProxy within MakerDAO, in RAD\n        daiJoin.exit(address(this), daiAmount);             // YieldProxy will hold the dai temporarily\n\n        // Sell the Dai for FYDai at Pool - It should make up for what was taken with repayYdai\n        _pool.buyFYDai(address(this), address(this), fyDaiAmount.toUint128());\n    }\n}\n",
  "sourcePath": "/Users/brucedonovan/dev/yield/yDai/contracts/peripheral/YieldProxy.sol",
  "compiler": {
    "name": "solc",
    "version": "0.6.10+commit.00c0fcaf.Emscripten.clang"
  },
  "schemaVersion": "3.2.3",
  "updatedAt": "2020-10-06T08:33:42.159Z",
  "devdoc": {
    "methods": {
      "addLiquidity(address,uint256,uint256)": {
        "details": "Mints liquidity with provided Dai by borrowing fyDai with some of the Dai. Caller must have approved the proxy using`controller.addDelegate(yieldProxy)` Caller must have approved the dai transfer with `dai.approve(daiUsed)`",
        "params": {
          "daiUsed": "amount of Dai to use to mint liquidity. ",
          "maxFYDai": "maximum amount of fyDai to be borrowed to mint liquidity. "
        },
        "returns": {
          "_0": "The amount of liquidity tokens minted.  "
        }
      },
      "authorizePool(address,address,bytes,bytes,bytes)": {
        "details": "Given a pool and 3 signatures, it `permit`'s dai and fyDai for that pool and adds it as a delegate"
      },
      "borrowDaiForMaximumFYDai(address,bytes32,uint256,address,uint256,uint256)": {
        "details": "Borrow fyDai from Controller and sell it immediately for Dai, for a maximum fyDai debt. Must have approved the operator with `controller.addDelegate(yieldProxy.address)`.",
        "params": {
          "collateral": "Valid collateral type.",
          "daiToBorrow": "Exact amount of Dai that should be obtained.",
          "maturity": "Maturity of an added series",
          "maximumFYDai": "Maximum amount of FYDai to borrow.",
          "to": "Wallet to send the resulting Dai to."
        }
      },
      "borrowMinimumDaiForFYDai(address,bytes32,uint256,address,uint256,uint256)": {
        "details": "Borrow fyDai from Controller and sell it immediately for Dai, if a minimum amount of Dai can be obtained such. Must have approved the operator with `controller.addDelegate(yieldProxy.address)`.",
        "params": {
          "collateral": "Valid collateral type.",
          "fyDaiToBorrow": "Amount of fyDai to borrow.",
          "maturity": "Maturity of an added series",
          "minimumDaiToBorrow": "Minimum amount of Dai that should be borrowed.",
          "to": "Wallet to sent the resulting Dai to."
        }
      },
      "buyDai(address,address,uint128,uint128)": {
        "details": "Buy Dai for fyDai",
        "params": {
          "daiOut": "Amount of dai being bought",
          "maxFYDaiIn": "Maximum amount of fyDai being sold",
          "to": "Wallet receiving the dai being bought"
        }
      },
      "buyDaiWithSignature(address,address,uint128,uint128,bytes)": {
        "details": "Buy Dai for fyDai and permits infinite fyDai to the pool",
        "params": {
          "daiOut": "Amount of dai being bought",
          "maxFYDaiIn": "Maximum amount of fyDai being sold",
          "signature": "The `permit` call's signature",
          "to": "Wallet receiving the dai being bought"
        }
      },
      "buyFYDai(address,address,uint128,uint128)": {
        "details": "Buy fyDai for dai",
        "params": {
          "fyDaiOut": "Amount of fyDai being bought",
          "maxDaiIn": "Maximum amount of dai being sold",
          "to": "Wallet receiving the fyDai being bought"
        }
      },
      "daiForFYDai(address,uint256)": {
        "details": "Amount of dai debt that will result from migrating fyDai debt from Yield to MakerDAO"
      },
      "executeOnFlashMint(address,uint256,bytes)": {
        "details": "Callback from `FYDai.flashMint()`"
      },
      "fyDaiForDai(address,uint256)": {
        "details": "Amount of fyDai debt that will result from migrating Dai debt from MakerDAO to Yield"
      },
      "makerToYield(address,address,uint256,uint256)": {
        "details": "Transfer debt and collateral from MakerDAO to Yield Needs vat.hope(splitter.address, { from: user }); Needs controller.addDelegate(splitter.address, { from: user });",
        "params": {
          "daiAmount": "dai debt to move from MakerDAO to Yield. Denominated in Dai (= art * rate)",
          "pool": "The pool to trade in (and therefore fyDai series to borrow)",
          "user": "Vault to migrate.",
          "wethAmount": "weth to move from MakerDAO to Yield. Needs to be high enough to collateralize the dai debt in Yield, and low enough to make sure that debt left in MakerDAO is also collateralized."
        }
      },
      "onboard(address,bytes,bytes)": {
        "details": "Performs the initial onboarding of the user. It `permit`'s DAI to be used by the proxy, and adds the proxy as a delegate in the controller"
      },
      "post(address)": {
        "details": "Users use `post` in YieldProxy to post ETH to the Controller (amount = msg.value), which will be converted to Weth here.",
        "params": {
          "to": "Yield Vault to deposit collateral in."
        }
      },
      "removeLiquidityEarlyDaiFixed(address,uint256,uint256)": {
        "details": "Burns tokens and repays debt with proceedings. Sells any excess fyDai for Dai, then returns all Dai, and if there is no debt in the Controller, all posted Chai. Caller must have approved the proxy using`controller.addDelegate(yieldProxy)` and `pool.addDelegate(yieldProxy)` Caller must have approved the liquidity burn with `pool.approve(poolTokens)`",
        "params": {
          "minimumFYDaiPrice": "minimum Dai/fyDai price to be accepted when internally selling fyDai.",
          "poolTokens": "amount of pool tokens to burn. "
        }
      },
      "removeLiquidityEarlyDaiPool(address,uint256,uint256,uint256)": {
        "details": "Burns tokens and sells Dai proceedings for fyDai. Pays as much debt as possible, then sells back any remaining fyDai for Dai. Then returns all Dai, and if there is no debt in the Controller, all posted Chai. Caller must have approved the proxy using`controller.addDelegate(yieldProxy)` and `pool.addDelegate(yieldProxy)` Caller must have approved the liquidity burn with `pool.approve(poolTokens)`",
        "params": {
          "minimumDaiPrice": "minimum fyDai/Dai price to be accepted when internally selling Dai.",
          "minimumFYDaiPrice": "minimum Dai/fyDai price to be accepted when internally selling fyDai.",
          "poolTokens": "amount of pool tokens to burn. "
        }
      },
      "removeLiquidityMature(address,uint256)": {
        "details": "Burns tokens and repays fyDai debt after Maturity.  Caller must have approved the proxy using`controller.addDelegate(yieldProxy)` Caller must have approved the liquidity burn with `pool.approve(poolTokens)`",
        "params": {
          "poolTokens": "amount of pool tokens to burn."
        }
      },
      "repayDaiWithSignature(bytes32,uint256,address,uint256,bytes)": {
        "details": "Burns Dai from caller to repay debt in a Yield Vault. User debt is decreased for the given collateral and fyDai series, in Yield vault `to`. The amount of debt repaid changes according to series maturity and MakerDAO rate and chi, depending on collateral type. `A signature is provided as a parameter to this function, so that `dai.approve()` doesn't need to be called.",
        "params": {
          "collateral": "Valid collateral type.",
          "daiAmount": "Amount of Dai to use for debt repayment.",
          "maturity": "Maturity of an added series",
          "signature": "The `permit` call's signature",
          "to": "Yield vault to repay debt for."
        }
      },
      "repayFYDaiDebtForMaximumDai(address,bytes32,uint256,address,uint256,uint256)": {
        "details": "Repay an amount of fyDai debt in Controller using Dai exchanged for fyDai at pool rates, up to a maximum amount of Dai spent. Must have approved the operator with `pool.addDelegate(yieldProxy.address)`. If `fyDaiRepayment` exceeds the existing debt, only the necessary fyDai will be used.",
        "params": {
          "collateral": "Valid collateral type.",
          "fyDaiRepayment": "Amount of fyDai debt to repay.",
          "maturity": "Maturity of an added series",
          "maximumRepaymentInDai": "Maximum amount of Dai that should be spent on the repayment.",
          "to": "Yield Vault to repay fyDai debt for."
        }
      },
      "repayMinimumFYDaiDebtForDai(address,bytes32,uint256,address,uint256,uint256)": {
        "details": "Repay an amount of fyDai debt in Controller using a given amount of Dai exchanged for fyDai at pool rates, with a minimum of fyDai debt required to be paid. Must have approved the operator with `pool.addDelegate(yieldProxy.address)`. If `repaymentInDai` exceeds the existing debt, only the necessary Dai will be used.",
        "params": {
          "collateral": "Valid collateral type.",
          "maturity": "Maturity of an added series",
          "minimumFYDaiRepayment": "Minimum amount of fyDai debt to repay.",
          "repaymentInDai": "Exact amount of Dai that should be spent on the repayment.",
          "to": "Yield Vault to repay fyDai debt for."
        }
      },
      "sellDai(address,address,uint128,uint128)": {
        "details": "Sell Dai for fyDai",
        "params": {
          "daiIn": "Amount of dai being sold",
          "minFYDaiOut": "Minimum amount of fyDai being bought",
          "to": "Wallet receiving the fyDai being bought"
        }
      },
      "sellFYDai(address,address,uint128,uint128)": {
        "details": "Sell fyDai for Dai",
        "params": {
          "fyDaiIn": "Amount of fyDai being sold",
          "minDaiOut": "Minimum amount of dai being bought",
          "to": "Wallet receiving the dai being bought"
        }
      },
      "wethForDai(uint256)": {
        "details": "Minimum weth needed to collateralize an amount of dai in MakerDAO"
      },
      "wethForFYDai(uint256)": {
        "details": "Minimum weth needed to collateralize an amount of fyDai in Yield. Yes, it's the same formula."
      },
      "withdraw(address,uint256)": {
        "details": "Users wishing to withdraw their Weth as ETH from the Controller should use this function. Users must have called `controller.addDelegate(yieldProxy.address)` to authorize YieldProxy to act in their behalf.",
        "params": {
          "amount": "Amount of weth to move.",
          "to": "Wallet to send Eth to."
        }
      },
      "yieldToMaker(address,address,uint256,uint256)": {
        "details": "Transfer debt and collateral from Yield to MakerDAO Needs vat.hope(splitter.address, { from: user }); Needs controller.addDelegate(splitter.address, { from: user });",
        "params": {
          "fyDaiAmount": "fyDai debt to move from Yield to MakerDAO.",
          "pool": "The pool to trade in (and therefore fyDai series to migrate)",
          "user": "Vault to migrate.",
          "wethAmount": "weth to move from Yield to MakerDAO. Needs to be high enough to collateralize the dai debt in MakerDAO, and low enough to make sure that debt left in Yield is also collateralized."
        }
      }
    }
  },
  "userdoc": {
    "methods": {}
  }
}