{
  "contractName": "YieldProxy",
  "abi": [
    {
      "inputs": [
        {
          "internalType": "address",
          "name": "controller_",
          "type": "address"
        },
        {
          "internalType": "contract IPool[]",
          "name": "_pools",
          "type": "address[]"
        }
      ],
      "stateMutability": "nonpayable",
      "type": "constructor"
    },
    {
      "inputs": [],
      "name": "CHAI",
      "outputs": [
        {
          "internalType": "bytes32",
          "name": "",
          "type": "bytes32"
        }
      ],
      "stateMutability": "view",
      "type": "function",
      "constant": true
    },
    {
      "inputs": [],
      "name": "MTY",
      "outputs": [
        {
          "internalType": "bool",
          "name": "",
          "type": "bool"
        }
      ],
      "stateMutability": "view",
      "type": "function",
      "constant": true
    },
    {
      "inputs": [],
      "name": "UNIT",
      "outputs": [
        {
          "internalType": "uint256",
          "name": "",
          "type": "uint256"
        }
      ],
      "stateMutability": "view",
      "type": "function",
      "constant": true
    },
    {
      "inputs": [],
      "name": "WETH",
      "outputs": [
        {
          "internalType": "bytes32",
          "name": "",
          "type": "bytes32"
        }
      ],
      "stateMutability": "view",
      "type": "function",
      "constant": true
    },
    {
      "inputs": [],
      "name": "YTM",
      "outputs": [
        {
          "internalType": "bool",
          "name": "",
          "type": "bool"
        }
      ],
      "stateMutability": "view",
      "type": "function",
      "constant": true
    },
    {
      "inputs": [],
      "name": "chai",
      "outputs": [
        {
          "internalType": "contract IChai",
          "name": "",
          "type": "address"
        }
      ],
      "stateMutability": "view",
      "type": "function",
      "constant": true
    },
    {
      "inputs": [],
      "name": "controller",
      "outputs": [
        {
          "internalType": "contract IController",
          "name": "",
          "type": "address"
        }
      ],
      "stateMutability": "view",
      "type": "function",
      "constant": true
    },
    {
      "inputs": [],
      "name": "dai",
      "outputs": [
        {
          "internalType": "contract IDai",
          "name": "",
          "type": "address"
        }
      ],
      "stateMutability": "view",
      "type": "function",
      "constant": true
    },
    {
      "inputs": [],
      "name": "daiJoin",
      "outputs": [
        {
          "internalType": "contract IDaiJoin",
          "name": "",
          "type": "address"
        }
      ],
      "stateMutability": "view",
      "type": "function",
      "constant": true
    },
    {
      "inputs": [
        {
          "internalType": "uint256",
          "name": "",
          "type": "uint256"
        }
      ],
      "name": "pools",
      "outputs": [
        {
          "internalType": "contract IPool",
          "name": "",
          "type": "address"
        }
      ],
      "stateMutability": "view",
      "type": "function",
      "constant": true
    },
    {
      "inputs": [
        {
          "internalType": "address",
          "name": "",
          "type": "address"
        }
      ],
      "name": "poolsMap",
      "outputs": [
        {
          "internalType": "bool",
          "name": "",
          "type": "bool"
        }
      ],
      "stateMutability": "view",
      "type": "function",
      "constant": true
    },
    {
      "inputs": [],
      "name": "treasury",
      "outputs": [
        {
          "internalType": "contract ITreasury",
          "name": "",
          "type": "address"
        }
      ],
      "stateMutability": "view",
      "type": "function",
      "constant": true
    },
    {
      "inputs": [],
      "name": "vat",
      "outputs": [
        {
          "internalType": "contract IVat",
          "name": "",
          "type": "address"
        }
      ],
      "stateMutability": "view",
      "type": "function",
      "constant": true
    },
    {
      "inputs": [],
      "name": "weth",
      "outputs": [
        {
          "internalType": "contract IWeth",
          "name": "",
          "type": "address"
        }
      ],
      "stateMutability": "view",
      "type": "function",
      "constant": true
    },
    {
      "inputs": [],
      "name": "wethJoin",
      "outputs": [
        {
          "internalType": "contract IGemJoin",
          "name": "",
          "type": "address"
        }
      ],
      "stateMutability": "view",
      "type": "function",
      "constant": true
    },
    {
      "stateMutability": "payable",
      "type": "receive",
      "payable": true
    },
    {
      "inputs": [
        {
          "internalType": "address",
          "name": "from",
          "type": "address"
        },
        {
          "internalType": "bytes",
          "name": "daiSignature",
          "type": "bytes"
        },
        {
          "internalType": "bytes",
          "name": "controllerSig",
          "type": "bytes"
        }
      ],
      "name": "onboard",
      "outputs": [],
      "stateMutability": "nonpayable",
      "type": "function"
    },
    {
      "inputs": [
        {
          "internalType": "contract IPool",
          "name": "pool",
          "type": "address"
        },
        {
          "internalType": "address",
          "name": "from",
          "type": "address"
        },
        {
          "internalType": "bytes",
          "name": "daiSig",
          "type": "bytes"
        },
        {
          "internalType": "bytes",
          "name": "eDaiSig",
          "type": "bytes"
        },
        {
          "internalType": "bytes",
          "name": "poolSig",
          "type": "bytes"
        }
      ],
      "name": "authorizePool",
      "outputs": [],
      "stateMutability": "nonpayable",
      "type": "function"
    },
    {
      "inputs": [
        {
          "internalType": "address",
          "name": "to",
          "type": "address"
        }
      ],
      "name": "post",
      "outputs": [],
      "stateMutability": "payable",
      "type": "function",
      "payable": true
    },
    {
      "inputs": [
        {
          "internalType": "address payable",
          "name": "to",
          "type": "address"
        },
        {
          "internalType": "uint256",
          "name": "amount",
          "type": "uint256"
        }
      ],
      "name": "withdraw",
      "outputs": [],
      "stateMutability": "nonpayable",
      "type": "function"
    },
    {
      "inputs": [
        {
          "internalType": "contract IPool",
          "name": "pool",
          "type": "address"
        },
        {
          "internalType": "uint256",
          "name": "daiUsed",
          "type": "uint256"
        },
        {
          "internalType": "uint256",
          "name": "maxEDai",
          "type": "uint256"
        }
      ],
      "name": "addLiquidity",
      "outputs": [
        {
          "internalType": "uint256",
          "name": "",
          "type": "uint256"
        }
      ],
      "stateMutability": "nonpayable",
      "type": "function"
    },
    {
      "inputs": [
        {
          "internalType": "contract IPool",
          "name": "pool",
          "type": "address"
        },
        {
          "internalType": "uint256",
          "name": "poolTokens",
          "type": "uint256"
        },
        {
          "internalType": "uint256",
          "name": "minimumDaiPrice",
          "type": "uint256"
        },
        {
          "internalType": "uint256",
          "name": "minimumEDaiPrice",
          "type": "uint256"
        }
      ],
      "name": "removeLiquidityEarlyDaiPool",
      "outputs": [],
      "stateMutability": "nonpayable",
      "type": "function"
    },
    {
      "inputs": [
        {
          "internalType": "contract IPool",
          "name": "pool",
          "type": "address"
        },
        {
          "internalType": "uint256",
          "name": "poolTokens",
          "type": "uint256"
        },
        {
          "internalType": "uint256",
          "name": "minimumEDaiPrice",
          "type": "uint256"
        }
      ],
      "name": "removeLiquidityEarlyDaiFixed",
      "outputs": [],
      "stateMutability": "nonpayable",
      "type": "function"
    },
    {
      "inputs": [
        {
          "internalType": "contract IPool",
          "name": "pool",
          "type": "address"
        },
        {
          "internalType": "uint256",
          "name": "poolTokens",
          "type": "uint256"
        }
      ],
      "name": "removeLiquidityMature",
      "outputs": [],
      "stateMutability": "nonpayable",
      "type": "function"
    },
    {
      "inputs": [
        {
          "internalType": "contract IPool",
          "name": "pool",
          "type": "address"
        },
        {
          "internalType": "bytes32",
          "name": "collateral",
          "type": "bytes32"
        },
        {
          "internalType": "uint256",
          "name": "maturity",
          "type": "uint256"
        },
        {
          "internalType": "address",
          "name": "to",
          "type": "address"
        },
        {
          "internalType": "uint256",
          "name": "maximumEDai",
          "type": "uint256"
        },
        {
          "internalType": "uint256",
          "name": "daiToBorrow",
          "type": "uint256"
        }
      ],
      "name": "borrowDaiForMaximumEDai",
      "outputs": [
        {
          "internalType": "uint256",
          "name": "",
          "type": "uint256"
        }
      ],
      "stateMutability": "nonpayable",
      "type": "function"
    },
    {
      "inputs": [
        {
          "internalType": "contract IPool",
          "name": "pool",
          "type": "address"
        },
        {
          "internalType": "bytes32",
          "name": "collateral",
          "type": "bytes32"
        },
        {
          "internalType": "uint256",
          "name": "maturity",
          "type": "uint256"
        },
        {
          "internalType": "address",
          "name": "to",
          "type": "address"
        },
        {
          "internalType": "uint256",
          "name": "eDaiToBorrow",
          "type": "uint256"
        },
        {
          "internalType": "uint256",
          "name": "minimumDaiToBorrow",
          "type": "uint256"
        }
      ],
      "name": "borrowMinimumDaiForEDai",
      "outputs": [
        {
          "internalType": "uint256",
          "name": "",
          "type": "uint256"
        }
      ],
      "stateMutability": "nonpayable",
      "type": "function"
    },
    {
      "inputs": [
        {
          "internalType": "contract IPool",
          "name": "pool",
          "type": "address"
        },
        {
          "internalType": "bytes32",
          "name": "collateral",
          "type": "bytes32"
        },
        {
          "internalType": "uint256",
          "name": "maturity",
          "type": "uint256"
        },
        {
          "internalType": "address",
          "name": "to",
          "type": "address"
        },
        {
          "internalType": "uint256",
          "name": "eDaiRepayment",
          "type": "uint256"
        },
        {
          "internalType": "uint256",
          "name": "maximumRepaymentInDai",
          "type": "uint256"
        }
      ],
      "name": "repayEDaiDebtForMaximumDai",
      "outputs": [
        {
          "internalType": "uint256",
          "name": "",
          "type": "uint256"
        }
      ],
      "stateMutability": "nonpayable",
      "type": "function"
    },
    {
      "inputs": [
        {
          "internalType": "contract IPool",
          "name": "pool",
          "type": "address"
        },
        {
          "internalType": "bytes32",
          "name": "collateral",
          "type": "bytes32"
        },
        {
          "internalType": "uint256",
          "name": "maturity",
          "type": "uint256"
        },
        {
          "internalType": "address",
          "name": "to",
          "type": "address"
        },
        {
          "internalType": "uint256",
          "name": "minimumEDaiRepayment",
          "type": "uint256"
        },
        {
          "internalType": "uint256",
          "name": "repaymentInDai",
          "type": "uint256"
        }
      ],
      "name": "repayMinimumEDaiDebtForDai",
      "outputs": [
        {
          "internalType": "uint256",
          "name": "",
          "type": "uint256"
        }
      ],
      "stateMutability": "nonpayable",
      "type": "function"
    },
    {
      "inputs": [
        {
          "internalType": "address",
          "name": "pool",
          "type": "address"
        },
        {
          "internalType": "address",
          "name": "to",
          "type": "address"
        },
        {
          "internalType": "uint128",
          "name": "daiIn",
          "type": "uint128"
        },
        {
          "internalType": "uint128",
          "name": "minEDaiOut",
          "type": "uint128"
        }
      ],
      "name": "sellDai",
      "outputs": [
        {
          "internalType": "uint256",
          "name": "",
          "type": "uint256"
        }
      ],
      "stateMutability": "nonpayable",
      "type": "function"
    },
    {
      "inputs": [
        {
          "internalType": "address",
          "name": "pool",
          "type": "address"
        },
        {
          "internalType": "address",
          "name": "to",
          "type": "address"
        },
        {
          "internalType": "uint128",
          "name": "daiOut",
          "type": "uint128"
        },
        {
          "internalType": "uint128",
          "name": "maxEDaiIn",
          "type": "uint128"
        }
      ],
      "name": "buyDai",
      "outputs": [
        {
          "internalType": "uint256",
          "name": "",
          "type": "uint256"
        }
      ],
      "stateMutability": "nonpayable",
      "type": "function"
    },
    {
      "inputs": [
        {
          "internalType": "address",
          "name": "pool",
          "type": "address"
        },
        {
          "internalType": "address",
          "name": "to",
          "type": "address"
        },
        {
          "internalType": "uint128",
          "name": "daiOut",
          "type": "uint128"
        },
        {
          "internalType": "uint128",
          "name": "maxEDaiIn",
          "type": "uint128"
        },
        {
          "internalType": "bytes",
          "name": "signature",
          "type": "bytes"
        }
      ],
      "name": "buyDaiWithSignature",
      "outputs": [
        {
          "internalType": "uint256",
          "name": "",
          "type": "uint256"
        }
      ],
      "stateMutability": "nonpayable",
      "type": "function"
    },
    {
      "inputs": [
        {
          "internalType": "address",
          "name": "pool",
          "type": "address"
        },
        {
          "internalType": "address",
          "name": "to",
          "type": "address"
        },
        {
          "internalType": "uint128",
          "name": "eDaiIn",
          "type": "uint128"
        },
        {
          "internalType": "uint128",
          "name": "minDaiOut",
          "type": "uint128"
        }
      ],
      "name": "sellEDai",
      "outputs": [
        {
          "internalType": "uint256",
          "name": "",
          "type": "uint256"
        }
      ],
      "stateMutability": "nonpayable",
      "type": "function"
    },
    {
      "inputs": [
        {
          "internalType": "address",
          "name": "pool",
          "type": "address"
        },
        {
          "internalType": "address",
          "name": "to",
          "type": "address"
        },
        {
          "internalType": "uint128",
          "name": "eDaiOut",
          "type": "uint128"
        },
        {
          "internalType": "uint128",
          "name": "maxDaiIn",
          "type": "uint128"
        }
      ],
      "name": "buyEDai",
      "outputs": [
        {
          "internalType": "uint256",
          "name": "",
          "type": "uint256"
        }
      ],
      "stateMutability": "nonpayable",
      "type": "function"
    },
    {
      "inputs": [
        {
          "internalType": "bytes32",
          "name": "collateral",
          "type": "bytes32"
        },
        {
          "internalType": "uint256",
          "name": "maturity",
          "type": "uint256"
        },
        {
          "internalType": "address",
          "name": "to",
          "type": "address"
        },
        {
          "internalType": "uint256",
          "name": "daiAmount",
          "type": "uint256"
        },
        {
          "internalType": "bytes",
          "name": "signature",
          "type": "bytes"
        }
      ],
      "name": "repayDaiWithSignature",
      "outputs": [
        {
          "internalType": "uint256",
          "name": "",
          "type": "uint256"
        }
      ],
      "stateMutability": "nonpayable",
      "type": "function"
    },
    {
      "inputs": [
        {
          "internalType": "address",
          "name": "pool",
          "type": "address"
        },
        {
          "internalType": "address",
          "name": "user",
          "type": "address"
        },
        {
          "internalType": "uint256",
          "name": "wethAmount",
          "type": "uint256"
        },
        {
          "internalType": "uint256",
          "name": "daiAmount",
          "type": "uint256"
        }
      ],
      "name": "makerToYield",
      "outputs": [],
      "stateMutability": "nonpayable",
      "type": "function"
    },
    {
      "inputs": [
        {
          "internalType": "address",
          "name": "pool",
          "type": "address"
        },
        {
          "internalType": "address",
          "name": "user",
          "type": "address"
        },
        {
          "internalType": "uint256",
          "name": "eDaiAmount",
          "type": "uint256"
        },
        {
          "internalType": "uint256",
          "name": "wethAmount",
          "type": "uint256"
        }
      ],
      "name": "yieldToMaker",
      "outputs": [],
      "stateMutability": "nonpayable",
      "type": "function"
    },
    {
      "inputs": [
        {
          "internalType": "address",
          "name": "",
          "type": "address"
        },
        {
          "internalType": "uint256",
          "name": "eDaiAmount",
          "type": "uint256"
        },
        {
          "internalType": "bytes",
          "name": "data",
          "type": "bytes"
        }
      ],
      "name": "executeOnFlashMint",
      "outputs": [],
      "stateMutability": "nonpayable",
      "type": "function"
    },
    {
      "inputs": [
        {
          "internalType": "uint256",
          "name": "daiAmount",
          "type": "uint256"
        }
      ],
      "name": "wethForDai",
      "outputs": [
        {
          "internalType": "uint256",
          "name": "",
          "type": "uint256"
        }
      ],
      "stateMutability": "view",
      "type": "function",
      "constant": true
    },
    {
      "inputs": [
        {
          "internalType": "uint256",
          "name": "eDaiAmount",
          "type": "uint256"
        }
      ],
      "name": "wethForEDai",
      "outputs": [
        {
          "internalType": "uint256",
          "name": "",
          "type": "uint256"
        }
      ],
      "stateMutability": "view",
      "type": "function",
      "constant": true
    },
    {
      "inputs": [
        {
          "internalType": "address",
          "name": "pool",
          "type": "address"
        },
        {
          "internalType": "uint256",
          "name": "daiAmount",
          "type": "uint256"
        }
      ],
      "name": "eDaiForDai",
      "outputs": [
        {
          "internalType": "uint256",
          "name": "",
          "type": "uint256"
        }
      ],
      "stateMutability": "view",
      "type": "function",
      "constant": true
    },
    {
      "inputs": [
        {
          "internalType": "address",
          "name": "pool",
          "type": "address"
        },
        {
          "internalType": "uint256",
          "name": "eDaiAmount",
          "type": "uint256"
        }
      ],
      "name": "daiForEDai",
      "outputs": [
        {
          "internalType": "uint256",
          "name": "",
          "type": "uint256"
        }
      ],
      "stateMutability": "view",
      "type": "function",
      "constant": true
    }
  ],
  "bytecode": "0x60806040523480156200001157600080fd5b50604051620063bf380380620063bf833981810160405260408110156200003757600080fd5b8151602083018051604051929492938301929190846401000000008211156200005f57600080fd5b9083019060208201858111156200007557600080fd5b82518660208202830111640100000000821117156200009357600080fd5b82525081516020918201928201910280838360005b83811015620000c2578181015183820152602001620000a8565b50505050919091016040818152600680546001600160a01b0319166001600160a01b038a811691909117918290556361d027b360e01b84529151911695506361d027b3945060048083019450602093509091829003018186803b1580156200012957600080fd5b505afa1580156200013e573d6000803e3d6000fd5b505050506040513d60208110156200015557600080fd5b5051600780546001600160a01b0319166001600160a01b03928316179081905560408051633fc8cef360e01b815290519190921691633fc8cef3916004808301926020929190829003018186803b158015620001b057600080fd5b505afa158015620001c5573d6000803e3d6000fd5b505050506040513d6020811015620001dc57600080fd5b5051600180546001600160a01b0319166001600160a01b039283161790556007546040805163f4b9fa7560e01b81529051919092169163f4b9fa75916004808301926020929190829003018186803b1580156200023857600080fd5b505afa1580156200024d573d6000803e3d6000fd5b505050506040513d60208110156200026457600080fd5b5051600280546001600160a01b0319166001600160a01b0392831617905560075460408051635b4e822b60e11b81529051919092169163b69d0456916004808301926020929190829003018186803b158015620002c057600080fd5b505afa158015620002d5573d6000803e3d6000fd5b505050506040513d6020811015620002ec57600080fd5b5051600580546001600160a01b0319166001600160a01b0392831617905560075460408051633045916f60e21b81529051919092169163c11645bc916004808301926020929190829003018186803b1580156200034857600080fd5b505afa1580156200035d573d6000803e3d6000fd5b505050506040513d60208110156200037457600080fd5b5051600480546001600160a01b0319166001600160a01b0392831617815560075460408051632dbacef360e01b815290519190931692632dbacef39281810192602092909190829003018186803b158015620003cf57600080fd5b505afa158015620003e4573d6000803e3d6000fd5b505050506040513d6020811015620003fb57600080fd5b5051600380546001600160a01b0319166001600160a01b03928316179055600754604080516336569e7760e01b8152905191909216916336569e77916004808301926020929190829003018186803b1580156200045757600080fd5b505afa1580156200046c573d6000803e3d6000fd5b505050506040513d60208110156200048357600080fd5b5051600080546001600160a01b0319166001600160a01b039283161781556002546007546040805163095ea7b360e01b81529185166004830152600019602483015251919093169263095ea7b39260448083019360209390929083900390910190829087803b158015620004f657600080fd5b505af11580156200050b573d6000803e3d6000fd5b505050506040513d60208110156200052257600080fd5b50506005546007546040805163095ea7b360e01b81526001600160a01b03928316600482015260001960248201529051919092169163095ea7b39160448083019260209291908290030181600087803b1580156200057f57600080fd5b505af115801562000594573d6000803e3d6000fd5b505050506040513d6020811015620005ab57600080fd5b50506001546007546040805163095ea7b360e01b81526001600160a01b03928316600482015260001960248201529051919092169163095ea7b39160448083019260209291908290030181600087803b1580156200060857600080fd5b505af11580156200061d573d6000803e3d6000fd5b505050506040513d60208110156200063457600080fd5b50506002546005546040805163095ea7b360e01b81526001600160a01b03928316600482015260001960248201529051919092169163095ea7b39160448083019260209291908290030181600087803b1580156200069157600080fd5b505af1158015620006a6573d6000803e3d6000fd5b505050506040513d6020811015620006bd57600080fd5b50506000805460048054604080516328ec8bf160e21b81526001600160a01b03928316938101939093525192169263a3b22fc49260248084019382900301818387803b1580156200070d57600080fd5b505af115801562000722573d6000803e3d6000fd5b505060008054600354604080516328ec8bf160e21b81526001600160a01b039283166004820152905191909216945063a3b22fc493506024808301939282900301818387803b1580156200077557600080fd5b505af11580156200078a573d6000803e3d6000fd5b5050600254600480546040805163095ea7b360e01b81526001600160a01b03928316938101939093526000196024840152519216935063095ea7b392506044808201926020929091908290030181600087803b158015620007ea57600080fd5b505af1158015620007ff573d6000803e3d6000fd5b505050506040513d60208110156200081657600080fd5b50506001546003546040805163095ea7b360e01b81526001600160a01b03928316600482015260001960248201529051919092169163095ea7b39160448083019260209291908290030181600087803b1580156200087357600080fd5b505af115801562000888573d6000803e3d6000fd5b505050506040513d60208110156200089f57600080fd5b50506001546007546040805163095ea7b360e01b81526001600160a01b03928316600482015260001960248201529051919092169163095ea7b39160448083019260209291908290030181600087803b158015620008fc57600080fd5b505af115801562000911573d6000803e3d6000fd5b505050506040513d60208110156200092857600080fd5b50600090505b815181101562000b605760025482516001600160a01b039091169063095ea7b3908490849081106200095c57fe5b60200260200101516000196040518363ffffffff1660e01b815260040180836001600160a01b03166001600160a01b0316815260200182815260200192505050602060405180830381600087803b158015620009b757600080fd5b505af1158015620009cc573d6000803e3d6000fd5b505050506040513d6020811015620009e357600080fd5b50508151829082908110620009f457fe5b60200260200101516001600160a01b031663f2e41a246040518163ffffffff1660e01b815260040160206040518083038186803b15801562000a3557600080fd5b505afa15801562000a4a573d6000803e3d6000fd5b505050506040513d602081101562000a6157600080fd5b505182516001600160a01b039091169063095ea7b39084908490811062000a8457fe5b60200260200101516000196040518363ffffffff1660e01b815260040180836001600160a01b03166001600160a01b0316815260200182815260200192505050602060405180830381600087803b15801562000adf57600080fd5b505af115801562000af4573d6000803e3d6000fd5b505050506040513d602081101562000b0b57600080fd5b5050815160019060099060009085908590811062000b2557fe5b6020908102919091018101516001600160a01b03168252810191909152604001600020805460ff19169115159190911790556001016200092e565b50805162000b7690600890602084019062000b7f565b50505062000c13565b82805482825590600052602060002090810192821562000bd7579160200282015b8281111562000bd757825182546001600160a01b0319166001600160a01b0390911617825560209092019160019091019062000ba0565b5062000be592915062000be9565b5090565b62000c1091905b8082111562000be55780546001600160a01b031916815560010162000bf0565b90565b61579c8062000c236000396000f3fe60806040526004361061023f5760003560e01c80639d8e21771161012e578063bdd26b31116100ab578063ef788f4d1161006f578063ef788f4d14610d88578063f3fef3a314610dd1578063f4247f2414610e0a578063f4b9fa7514610e5f578063f77c479114610e7457610246565b8063bdd26b3114610c25578063c11645bc14610cb5578063c43a860814610cca578063cc53d7bf14610cdf578063d0fedd2514610d3357610246565b8063b4714804116100f2578063b471480414610393578063b69d045614610b89578063b6dbf9ce14610b9e578063b8fde75014610bb3578063b97078b914610bec57610246565b80639d8e217714610abb578063a536362714610ad0578063ac4afa3814610af6578063ad5c464814610b20578063ae70747c14610b3557610246565b806361d027b3116101bc57806378aadaf91161018057806378aadaf9146109615780637e3d4cfa146109b65780638a6cdd6b146109df5780638ba1d1c914610a335780639050d79714610a6657610246565b806361d027b3146106085780636b0c096f1461061d5780636d9d1d98146106715780636f79522514610754578063780ade1c1461092857610246565b806336b4f5bd1161020357806336b4f5bd146104e75780633fc8cef31461052c57806355776b771461054157806357120ded14610580578063572d9c4f146105c957610246565b8063081129a61461024b57806312c362c71461039357806329d7d663146103cf5780632dbacef3146104a157806336569e77146104d257610246565b3661024657005b600080fd5b34801561025757600080fd5b506103916004803603606081101561026e57600080fd5b6001600160a01b038235169190810190604081016020820135600160201b81111561029857600080fd5b8201836020820111156102aa57600080fd5b803590602001918460018302840111600160201b831117156102cb57600080fd5b91908080601f0160208091040260200160405190810160405280939291908181526020018383808284376000920191909152509295949360208101935035915050600160201b81111561031d57600080fd5b82018360208201111561032f57600080fd5b803590602001918460018302840111600160201b8311171561035057600080fd5b91908080601f016020809104026020016040519081016040528093929190818152602001838380828437600092019190915250929550610e89945050505050565b005b34801561039f57600080fd5b506103bd600480360360208110156103b657600080fd5b5035611059565b60408051918252519081900360200190f35b3480156103db57600080fd5b506103bd600480360360a08110156103f257600080fd5b8135916020810135916001600160a01b036040830135169160608101359181019060a081016080820135600160201b81111561042d57600080fd5b82018360208201111561043f57600080fd5b803590602001918460018302840111600160201b8311171561046057600080fd5b91908080601f0160208091040260200160405190810160405280939291908181526020018383808284376000920191909152509295506110ee945050505050565b3480156104ad57600080fd5b506104b66112c4565b604080516001600160a01b039092168252519081900360200190f35b3480156104de57600080fd5b506104b66112d3565b3480156104f357600080fd5b506103916004803603608081101561050a57600080fd5b506001600160a01b0381351690602081013590604081013590606001356112e2565b34801561053857600080fd5b506104b66117f7565b34801561054d57600080fd5b506103bd6004803603606081101561056457600080fd5b506001600160a01b038135169060208101359060400135611806565b34801561058c57600080fd5b50610391600480360360808110156105a357600080fd5b506001600160a01b03813581169160208101359091169060408101359060600135611f7d565b3480156105d557600080fd5b50610391600480360360608110156105ec57600080fd5b506001600160a01b0381351690602081013590604001356122e3565b34801561061457600080fd5b506104b6612826565b34801561062957600080fd5b506103bd6004803603608081101561064057600080fd5b506001600160a01b0381358116916020810135909116906001600160801b0360408201358116916060013516612835565b34801561067d57600080fd5b506103bd600480360360a081101561069457600080fd5b6001600160a01b0382358116926020810135909116916001600160801b03604083013581169260608101359091169181019060a081016080820135600160201b8111156106e057600080fd5b8201836020820111156106f257600080fd5b803590602001918460018302840111600160201b8311171561071357600080fd5b91908080601f016020809104026020016040519081016040528093929190818152602001838380828437600092019190915250929550612932945050505050565b34801561076057600080fd5b50610391600480360360a081101561077757600080fd5b6001600160a01b038235811692602081013590911691810190606081016040820135600160201b8111156107aa57600080fd5b8201836020820111156107bc57600080fd5b803590602001918460018302840111600160201b831117156107dd57600080fd5b91908080601f0160208091040260200160405190810160405280939291908181526020018383808284376000920191909152509295949360208101935035915050600160201b81111561082f57600080fd5b82018360208201111561084157600080fd5b803590602001918460018302840111600160201b8311171561086257600080fd5b91908080601f0160208091040260200160405190810160405280939291908181526020018383808284376000920191909152509295949360208101935035915050600160201b8111156108b457600080fd5b8201836020820111156108c657600080fd5b803590602001918460018302840111600160201b831117156108e757600080fd5b91908080601f016020809104026020016040519081016040528093929190818152602001838380828437600092019190915250929550612a54945050505050565b34801561093457600080fd5b506103bd6004803603604081101561094b57600080fd5b506001600160a01b038135169060200135612d66565b34801561096d57600080fd5b506103bd600480360360c081101561098457600080fd5b506001600160a01b03813581169160208101359160408201359160608101359091169060808101359060a00135612e04565b3480156109c257600080fd5b506109cb612fda565b604080519115158252519081900360200190f35b3480156109eb57600080fd5b506103bd60048036036080811015610a0257600080fd5b506001600160a01b0381358116916020810135909116906001600160801b0360408201358116916060013516612fdf565b348015610a3f57600080fd5b506109cb60048036036020811015610a5657600080fd5b50356001600160a01b03166130d3565b348015610a7257600080fd5b506103bd600480360360c0811015610a8957600080fd5b506001600160a01b03813581169160208101359160408201359160608101359091169060808101359060a001356130e8565b348015610ac757600080fd5b506103bd6132d6565b61039160048036036020811015610ae657600080fd5b50356001600160a01b03166132e6565b348015610b0257600080fd5b506104b660048036036020811015610b1957600080fd5b50356133d0565b348015610b2c57600080fd5b506103bd6133f7565b348015610b4157600080fd5b506103bd60048036036080811015610b5857600080fd5b506001600160a01b0381358116916020810135909116906001600160801b0360408201358116916060013516613403565b348015610b9557600080fd5b506104b6613468565b348015610baa57600080fd5b506103bd613477565b348015610bbf57600080fd5b5061039160048036036040811015610bd657600080fd5b506001600160a01b038135169060200135613482565b348015610bf857600080fd5b506103bd60048036036040811015610c0f57600080fd5b506001600160a01b03813516906020013561382c565b348015610c3157600080fd5b5061039160048036036060811015610c4857600080fd5b6001600160a01b0382351691602081013591810190606081016040820135600160201b811115610c7757600080fd5b820183602082011115610c8957600080fd5b803590602001918460018302840111600160201b83111715610caa57600080fd5b509092509050613846565b348015610cc157600080fd5b506104b66138b1565b348015610cd657600080fd5b506109cb6138c0565b348015610ceb57600080fd5b506103bd60048036036080811015610d0257600080fd5b506001600160a01b0381358116916020810135909116906001600160801b03604082013581169160600135166138c5565b348015610d3f57600080fd5b506103bd600480360360c0811015610d5657600080fd5b506001600160a01b03813581169160208101359160408201359160608101359091169060808101359060a0013561392a565b348015610d9457600080fd5b5061039160048036036080811015610dab57600080fd5b506001600160a01b03813581169160208101359091169060408101359060600135613b53565b348015610ddd57600080fd5b5061039160048036036040811015610df457600080fd5b506001600160a01b038135169060200135613ed9565b348015610e1657600080fd5b506103bd600480360360c0811015610e2d57600080fd5b506001600160a01b03813581169160208101359160408201359160608101359091169060808101359060a00135613ff8565b348015610e6b57600080fd5b506104b66141ae565b348015610e8057600080fd5b506104b66141bd565b6000806000610e97856141cc565b60025460408051623f675f60e91b81526001600160a01b038c8116600483015291519598509396509194501691638fcbaf0c91899130918591637ecebe0091602480820192602092909190829003018186803b158015610ef657600080fd5b505afa158015610f0a573d6000803e3d6000fd5b505050506040513d6020811015610f2057600080fd5b5051604080516001600160e01b031960e087901b1681526001600160a01b039485166004820152929093166024830152604482015260001960648201526001608482015260ff851660a482015260c4810187905260e48101869052905161010480830192600092919082900301818387803b158015610f9e57600080fd5b505af1158015610fb2573d6000803e3d6000fd5b50505050610fbf846141cc565b60065460408051631a28ff0560e01b81526001600160a01b038c81166004830152306024830152600019604483015260ff851660648301526084820187905260a4820186905291519598509396509194501691631a28ff059160c48082019260009290919082900301818387803b15801561103957600080fd5b505af115801561104d573d6000803e3d6000fd5b50505050505050505050565b6000805460408051636cb1c69b60e11b8152644554482d4160d81b6004820152905183926001600160a01b03169163d9638d369160248083019260a0929190829003018186803b1580156110ac57600080fd5b505afa1580156110c0573d6000803e3d6000fd5b505050506040513d60a08110156110d657600080fd5b506040015190506110e783826141e7565b9392505050565b6000806000806110fd856141cc565b60025460075460408051623f675f60e91b8152336004820181905291519699509497509295506001600160a01b0391821694638fcbaf0c9491909216918591637ecebe00916024808301926020929190829003018186803b15801561116157600080fd5b505afa158015611175573d6000803e3d6000fd5b505050506040513d602081101561118b57600080fd5b5051604080516001600160e01b031960e087901b1681526001600160a01b039485166004820152929093166024830152604482015260001960648201526001608482015260ff851660a482015260c4810187905260e48101869052905161010480830192600092919082900301818387803b15801561120957600080fd5b505af115801561121d573d6000803e3d6000fd5b5050600654604080516325d3cd1760e01b8152600481018e9052602481018d90523360448201526001600160a01b038c81166064830152608482018c905291519190921693506325d3cd17925060a48083019260209291908290030181600087803b15801561128b57600080fd5b505af115801561129f573d6000803e3d6000fd5b505050506040513d60208110156112b557600080fd5b50939998505050505050505050565b6003546001600160a01b031681565b6000546001600160a01b031681565b6001600160a01b03841660009081526009602052604090205460ff1661133d576040805162461bcd60e51b81526020600482015260186024820152600080516020615670833981519152604482015290519081900360640190fd5b6000846001600160a01b031663f2e41a246040518163ffffffff1660e01b815260040160206040518083038186803b15801561137857600080fd5b505afa15801561138c573d6000803e3d6000fd5b505050506040513d60208110156113a257600080fd5b50516040805163204f83f960e01b815290519192506000916001600160a01b0384169163204f83f9916004808301926020929190829003018186803b1580156113ea57600080fd5b505afa1580156113fe573d6000803e3d6000fd5b505050506040513d602081101561141457600080fd5b505160408051633dae446f60e21b815233600482015230602482015260448101889052815192935060009283926001600160a01b038b169263f6b911bc926064808301939282900301818787803b15801561146e57600080fd5b505af1158015611482573d6000803e3d6000fd5b505050506040513d604081101561149857600080fd5b508051602090910151909250905060006001600160a01b03891663b26be92230806114c287614209565b604080516001600160e01b031960e087901b1681526001600160a01b0394851660048201529290931660248301526001600160801b03166044820152905160648083019260209291908290030181600087803b15801561152157600080fd5b505af1158015611535573d6000803e3d6000fd5b505050506040513d602081101561154b57600080fd5b50516001600160801b031690506115628388614267565b8110156115a05760405162461bcd60e51b81526004018080602001828103825260278152602001806156906027913960400191505060405180910390fd5b6115b0828263ffffffff61428916565b91506000808311801561164b575060065460408051632b1ef3cd60e11b8152634348414960e01b60048201526024810188905233604482015290516000926001600160a01b03169163563de79a916064808301926020929190829003018186803b15801561161d57600080fd5b505afa158015611631573d6000803e3d6000fd5b505050506040513d602081101561164757600080fd5b5051115b156116ed576006546040805163bbddb02d60e01b8152634348414960e01b6004820152602481018890523060448201523360648201526084810186905290516001600160a01b039092169163bbddb02d9160a4808201926020929091908290030181600087803b1580156116be57600080fd5b505af11580156116d2573d6000803e3d6000fd5b505050506040513d60208110156116e857600080fd5b505190505b60006116ff848363ffffffff6142e316565b905080156117e1576117118189614267565b604080516342edf2c960e11b8152306004820181905260248201526001600160801b038416604482015290516001600160a01b038e16916385dbe5929160648083019260209291908290030181600087803b15801561176f57600080fd5b505af1158015611783573d6000803e3d6000fd5b505050506040513d602081101561179957600080fd5b50516001600160801b031610156117e15760405162461bcd60e51b81526004018080602001828103825260288152602001806156246028913960400191505060405180910390fd5b6117ea87614325565b5050505050505050505050565b6001546001600160a01b031681565b6001600160a01b03831660009081526009602052604081205460ff16611861576040805162461bcd60e51b81526020600482015260186024820152600080516020615670833981519152604482015290519081900360640190fd5b6000846001600160a01b031663f2e41a246040518163ffffffff1660e01b815260040160206040518083038186803b15801561189c57600080fd5b505afa1580156118b0573d6000803e3d6000fd5b505050506040513d60208110156118c657600080fd5b50516040805163ae4e7fdf60e01b815290519192506001600160a01b0383169163ae4e7fdf91600480820192602092909190829003018186803b15801561190c57600080fd5b505afa158015611920573d6000803e3d6000fd5b505050506040513d602081101561193657600080fd5b505115156001141561198f576040805162461bcd60e51b815260206004820181905260248201527f5969656c6450726f78793a204f6e6c79206265666f7265206d61747572697479604482015290519081900360640190fd5b600254604080516323b872dd60e01b81523360048201523060248201526044810187905290516001600160a01b03909216916323b872dd916064808201926020929091908290030181600087803b1580156119e957600080fd5b505af11580156119fd573d6000803e3d6000fd5b505050506040513d6020811015611a1357600080fd5b5051611a66576040805162461bcd60e51b815260206004820152601b60248201527f5969656c6450726f78793a205472616e73666572204661696c65640000000000604482015290519081900360640190fd5b600254604080516370a0823160e01b81526001600160a01b038881166004830152915160009392909216916370a0823191602480820192602092909190829003018186803b158015611ab757600080fd5b505afa158015611acb573d6000803e3d6000fd5b505050506040513d6020811015611ae157600080fd5b5051604080516370a0823160e01b81526001600160a01b0389811660048301529151929350600092918516916370a0823191602480820192602092909190829003018186803b158015611b3357600080fd5b505afa158015611b47573d6000803e3d6000fd5b505050506040513d6020811015611b5d57600080fd5b505190506000611b92611b76838563ffffffff61428916565b611b86898663ffffffff61477316565b9063ffffffff6147cc16565b90506000611ba6888363ffffffff6142e316565b905086811115611bfd576040805162461bcd60e51b815260206004820152601c60248201527f5969656c6450726f78793a206d61784544616920657863656564656400000000604482015290519081900360640190fd5b60055460408051633b4da69f60e01b81523060048201526024810184905290516001600160a01b0390921691633b4da69f9160448082019260009290919082900301818387803b158015611c5057600080fd5b505af1158015611c64573d6000803e3d6000fd5b505060055460408051633612d9a360e11b81523060048201529051600094506001600160a01b039092169250636c25b34691602480830192602092919082900301818787803b158015611cb657600080fd5b505af1158015611cca573d6000803e3d6000fd5b505050506040513d6020811015611ce057600080fd5b5051600654600554604080516370a0823160e01b8152306004820181905291519495506001600160a01b039384169463adb9e54e94634348414960e01b9433939116916370a0823191602480820192602092909190829003018186803b158015611d4957600080fd5b505afa158015611d5d573d6000803e3d6000fd5b505050506040513d6020811015611d7357600080fd5b5051604080516001600160e01b031960e088901b16815260048101959095526001600160a01b039384166024860152919092166044840152606483019190915251608480830192600092919082900301818387803b158015611dd457600080fd5b505af1158015611de8573d6000803e3d6000fd5b50505050600660009054906101000a90046001600160a01b03166001600160a01b031663801d325f634348414960e01b886001600160a01b031663204f83f96040518163ffffffff1660e01b815260040160206040518083038186803b158015611e5157600080fd5b505afa158015611e65573d6000803e3d6000fd5b505050506040513d6020811015611e7b57600080fd5b5051604080516001600160e01b031960e086901b16815260048101939093526024830191909152336044830152306064830152608482018590525160a480830192600092919082900301818387803b158015611ed657600080fd5b505af1158015611eea573d6000803e3d6000fd5b505060408051636361ddf360e11b81523060048201523360248201526044810187905290516001600160a01b038e16935063c6c3bbe6925060648083019260209291908290030181600087803b158015611f4357600080fd5b505af1158015611f57573d6000803e3d6000fd5b505050506040513d6020811015611f6d57600080fd5b50519a9950505050505050505050565b60008054604080516309092f9760e21b8152644554482d4160d81b60048201526001600160a01b038781166024830152825185949190911692632424be5c9260448082019391829003018186803b158015611fd757600080fd5b505afa158015611feb573d6000803e3d6000fd5b505050506040513d604081101561200157600080fd5b5080516020909101516000805460408051636cb1c69b60e11b8152644554482d4160d81b6004820152905194965092945090926001600160a01b039091169163d9638d369160248083019260a0929190829003018186803b15801561206557600080fd5b505afa158015612079573d6000803e3d6000fd5b505050506040513d60a081101561208f57600080fd5b506020015190506120a08282614267565b8411156120de5760405162461bcd60e51b815260040180806020018281038252602481526020018061564c6024913960400191505060405180910390fd5b8285111561211d5760405162461bcd60e51b815260040180806020018281038252602a8152602001806155d8602a913960400191505060405180910390fd5b6000876001600160a01b031663f2e41a246040518163ffffffff1660e01b815260040160206040518083038186803b15801561215857600080fd5b505afa15801561216c573d6000803e3d6000fd5b505050506040513d602081101561218257600080fd5b505190506001600160a01b038116633ea21465306121a08b89612d66565b60018c8c8c8c6040516020018086151515158152602001856001600160a01b03166001600160a01b03168152602001846001600160a01b03166001600160a01b03168152602001838152602001828152602001955050505050506040516020818303038152906040526040518463ffffffff1660e01b815260040180846001600160a01b03166001600160a01b0316815260200183815260200180602001828103825283818151815260200191508051906020019080838360005b8381101561227357818101518382015260200161225b565b50505050905090810190601f1680156122a05780820380516001836020036101000a031916815260200191505b50945050505050600060405180830381600087803b1580156122c157600080fd5b505af11580156122d5573d6000803e3d6000fd5b505050505050505050505050565b6001600160a01b03831660009081526009602052604090205460ff1661233e576040805162461bcd60e51b81526020600482015260186024820152600080516020615670833981519152604482015290519081900360640190fd5b6000836001600160a01b031663f2e41a246040518163ffffffff1660e01b815260040160206040518083038186803b15801561237957600080fd5b505afa15801561238d573d6000803e3d6000fd5b505050506040513d60208110156123a357600080fd5b50516040805163204f83f960e01b815290519192506000916001600160a01b0384169163204f83f9916004808301926020929190829003018186803b1580156123eb57600080fd5b505afa1580156123ff573d6000803e3d6000fd5b505050506040513d602081101561241557600080fd5b505160408051633dae446f60e21b815233600482015230602482015260448101879052815192935060009283926001600160a01b038a169263f6b911bc926064808301939282900301818787803b15801561246f57600080fd5b505af1158015612483573d6000803e3d6000fd5b505050506040513d604081101561249957600080fd5b508051602090910151909250905060008115801590612540575060065460408051632b1ef3cd60e11b8152634348414960e01b60048201526024810187905233604482015290516000926001600160a01b03169163563de79a916064808301926020929190829003018186803b15801561251257600080fd5b505afa158015612526573d6000803e3d6000fd5b505050506040513d602081101561253c57600080fd5b5051115b156125e2576006546040805163bbddb02d60e01b8152634348414960e01b6004820152602481018790523060448201523360648201526084810185905290516001600160a01b039092169163bbddb02d9160a4808201926020929091908290030181600087803b1580156125b357600080fd5b505af11580156125c7573d6000803e3d6000fd5b505050506040513d60208110156125dd57600080fd5b505190505b60006125f4838363ffffffff6142e316565b90508061273857600084118015612693575060065460408051632b1ef3cd60e11b8152634348414960e01b60048201526024810188905233604482015290516000926001600160a01b03169163563de79a916064808301926020929190829003018186803b15801561266557600080fd5b505afa158015612679573d6000803e3d6000fd5b505050506040513d602081101561268f57600080fd5b5051115b1561273357600654604080516325d3cd1760e01b8152634348414960e01b6004820152602481018890523060448201523360648201526084810187905290516001600160a01b03909216916325d3cd179160a4808201926020929091908290030181600087803b15801561270657600080fd5b505af115801561271a573d6000803e3d6000fd5b505050506040513d602081101561273057600080fd5b50505b612812565b6127428188614267565b604080516342edf2c960e11b8152306004820181905260248201526001600160801b038416604482015290516001600160a01b038c16916385dbe5929160648083019260209291908290030181600087803b1580156127a057600080fd5b505af11580156127b4573d6000803e3d6000fd5b505050506040513d60208110156127ca57600080fd5b50516001600160801b031610156128125760405162461bcd60e51b81526004018080602001828103825260288152602001806156246028913960400191505060405180910390fd5b61281b86614325565b505050505050505050565b6007546001600160a01b031681565b6040805163864e8d8160e01b81523360048201526001600160a01b0385811660248301526001600160801b0385166044830152915160009283929088169163864e8d819160648082019260209290919082900301818787803b15801561289a57600080fd5b505af11580156128ae573d6000803e3d6000fd5b505050506040513d60208110156128c457600080fd5b50516001600160801b0390811691508316811115612929576040805162461bcd60e51b815260206004820152601a60248201527f5969656c6450726f78793a204c696d6974206578636565646564000000000000604482015290519081900360640190fd5b95945050505050565b600080600080612941856141cc565b925092509250886001600160a01b031663f2e41a246040518163ffffffff1660e01b815260040160206040518083038186803b15801561298057600080fd5b505afa158015612994573d6000803e3d6000fd5b505050506040513d60208110156129aa57600080fd5b50516040805163d505accf60e01b81523360048201526001600160a01b038c8116602483015260001960448301819052606483015260ff8516608483015260a4820187905260c482018690529151919092169163d505accf9160e480830192600092919082900301818387803b158015612a2357600080fd5b505af1158015612a37573d6000803e3d6000fd5b50505050612a47898989896138c5565b9998505050505050505050565b6001600160a01b03851660009081526009602052604090205460ff16612aaf576040805162461bcd60e51b81526020600482015260186024820152600080516020615670833981519152604482015290519081900360640190fd5b6000806000612abd866141cc565b60025460408051623f675f60e91b81526001600160a01b038d8116600483015291519598509396509194501691638fcbaf0c918a918c918591637ecebe0091602480820192602092909190829003018186803b158015612b1c57600080fd5b505afa158015612b30573d6000803e3d6000fd5b505050506040513d6020811015612b4657600080fd5b5051604080516001600160e01b031960e087901b1681526001600160a01b039485166004820152929093166024830152604482015260001960648201526001608482015260ff851660a482015260c4810187905260e48101869052905161010480830192600092919082900301818387803b158015612bc457600080fd5b505af1158015612bd8573d6000803e3d6000fd5b50505050612be5856141cc565b809350819450829550505050876001600160a01b031663f2e41a246040518163ffffffff1660e01b815260040160206040518083038186803b158015612c2a57600080fd5b505afa158015612c3e573d6000803e3d6000fd5b505050506040513d6020811015612c5457600080fd5b50516040805163d505accf60e01b81526001600160a01b038a8116600483015230602483015260001960448301819052606483015260ff8516608483015260a4820187905260c482018690529151919092169163d505accf9160e480830192600092919082900301818387803b158015612ccd57600080fd5b505af1158015612ce1573d6000803e3d6000fd5b50505050612cee846141cc565b60408051631a28ff0560e01b81526001600160a01b038c81166004830152306024830152600019604483015260ff841660648301526084820186905260a4820185905291519497509295509093508a1691631a28ff059160c48082019260009290919082900301818387803b1580156122c157600080fd5b6000826001600160a01b0316634e20e952612d8084614209565b6040518263ffffffff1660e01b815260040180826001600160801b03166001600160801b0316815260200191505060206040518083038186803b158015612dc657600080fd5b505afa158015612dda573d6000803e3d6000fd5b505050506040513d6020811015612df057600080fd5b50516001600160801b031690505b92915050565b6001600160a01b03861660009081526009602052604081205460ff16612e5f576040805162461bcd60e51b81526020600482015260186024820152600080516020615670833981519152604482015290519081900360640190fd5b6006546040805163801d325f60e01b815260048101899052602481018890523360448201523060648201526084810186905290516001600160a01b039092169163801d325f9160a48082019260009290919082900301818387803b158015612ec657600080fd5b505af1158015612eda573d6000803e3d6000fd5b505050506000876001600160a01b03166385dbe5923087612efa88614209565b604080516001600160e01b031960e087901b1681526001600160a01b0394851660048201529290931660248301526001600160801b03166044820152905160648083019260209291908290030181600087803b158015612f5957600080fd5b505af1158015612f6d573d6000803e3d6000fd5b505050506040513d6020811015612f8357600080fd5b50516001600160801b0316905082811015612fcf5760405162461bcd60e51b81526004018080602001828103825260238152602001806157236023913960400191505060405180910390fd5b979650505050505050565b600181565b604080516342edf2c960e11b81523360048201526001600160a01b0385811660248301526001600160801b038516604483015291516000928392908816916385dbe5929160648082019260209290919082900301818787803b15801561304457600080fd5b505af1158015613058573d6000803e3d6000fd5b505050506040513d602081101561306e57600080fd5b50516001600160801b0390811691508316811015612929576040805162461bcd60e51b815260206004820152601d60248201527f5969656c6450726f78793a204c696d6974206e6f742072656163686564000000604482015290519081900360640190fd5b60096020526000908152604090205460ff1681565b6001600160a01b03861660009081526009602052604081205460ff16613143576040805162461bcd60e51b81526020600482015260186024820152600080516020615670833981519152604482015290519081900360640190fd5b6000876001600160a01b031663b26be922333061315f87614209565b604080516001600160e01b031960e087901b1681526001600160a01b0394851660048201529290931660248301526001600160801b03166044820152905160648083019260209291908290030181600087803b1580156131be57600080fd5b505af11580156131d2573d6000803e3d6000fd5b505050506040513d60208110156131e857600080fd5b50516001600160801b03169050838110156132345760405162461bcd60e51b81526004018080602001828103825260278152602001806156d86027913960400191505060405180910390fd5b6006546040805163bbddb02d60e01b8152600481018a9052602481018990523060448201526001600160a01b038881166064830152608482018590529151919092169163bbddb02d9160a48083019260209291908290030181600087803b15801561329e57600080fd5b505af11580156132b2573d6000803e3d6000fd5b505050506040513d60208110156132c857600080fd5b509098975050505050505050565b6b033b2e3c9fd0803ce800000081565b600160009054906101000a90046001600160a01b03166001600160a01b031663d0e30db0346040518263ffffffff1660e01b81526004016000604051808303818588803b15801561333657600080fd5b505af115801561334a573d6000803e3d6000fd5b5050600654604080516356dcf2a760e11b8152644554482d4160d81b60048201523060248201526001600160a01b038781166044830152346064830152915191909216945063adb9e54e93506084808301935060009282900301818387803b1580156133b557600080fd5b505af11580156133c9573d6000803e3d6000fd5b5050505050565b600881815481106133dd57fe5b6000918252602090912001546001600160a01b0316905081565b644554482d4160d81b81565b60408051635935f49160e11b81523360048201526001600160a01b0385811660248301526001600160801b0385166044830152915160009283929088169163b26be9229160648082019260209290919082900301818787803b15801561304457600080fd5b6005546001600160a01b031681565b634348414960e01b81565b6001600160a01b03821660009081526009602052604090205460ff166134dd576040805162461bcd60e51b81526020600482015260186024820152600080516020615670833981519152604482015290519081900360640190fd5b6000826001600160a01b031663f2e41a246040518163ffffffff1660e01b815260040160206040518083038186803b15801561351857600080fd5b505afa15801561352c573d6000803e3d6000fd5b505050506040513d602081101561354257600080fd5b50516040805163204f83f960e01b815290519192506000916001600160a01b0384169163204f83f9916004808301926020929190829003018186803b15801561358a57600080fd5b505afa15801561359e573d6000803e3d6000fd5b505050506040513d60208110156135b457600080fd5b505160408051633dae446f60e21b815233600482015230602482015260448101869052815192935060009283926001600160a01b0389169263f6b911bc926064808301939282900301818787803b15801561360e57600080fd5b505af1158015613622573d6000803e3d6000fd5b505050506040513d604081101561363857600080fd5b508051602090910151909250905080156136e35760408051630e6dfcd560e01b8152306004820181905260248201526044810183905290516136e0916001600160a01b03871691630e6dfcd5916064808201926020929091908290030181600087803b1580156136a757600080fd5b505af11580156136bb573d6000803e3d6000fd5b505050506040513d60208110156136d157600080fd5b5051839063ffffffff61428916565b91505b60008211801561377b575060065460408051632b1ef3cd60e11b8152634348414960e01b60048201526024810186905233604482015290516000926001600160a01b03169163563de79a916064808301926020929190829003018186803b15801561374d57600080fd5b505afa158015613761573d6000803e3d6000fd5b505050506040513d602081101561377757600080fd5b5051115b1561381b57600654604080516325d3cd1760e01b8152634348414960e01b6004820152602481018690523060448201523360648201526084810185905290516001600160a01b03909216916325d3cd179160a4808201926020929091908290030181600087803b1580156137ee57600080fd5b505af1158015613802573d6000803e3d6000fd5b505050506040513d602081101561381857600080fd5b50505b61382484614325565b505050505050565b6000826001600160a01b03166340cb51da612d8084614209565b6000806000806000868660a081101561385e57600080fd5b508035151595506001600160a01b0360208201358116955060408201351693506060810135925060800135905060018514156138a0576138a08484848461480e565b8461281b5761281b84848a85614d3e565b6004546001600160a01b031681565b600081565b6040805163cc5783d360e01b81523360048201526001600160a01b0385811660248301526001600160801b0385166044830152915160009283929088169163cc5783d39160648082019260209290919082900301818787803b15801561289a57600080fd5b6001600160a01b03861660009081526009602052604081205460ff16613985576040805162461bcd60e51b81526020600482015260186024820152600080516020615670833981519152604482015290519081900360640190fd5b6000876001600160a01b0316634e20e95261399f85614209565b6040518263ffffffff1660e01b815260040180826001600160801b03166001600160801b0316815260200191505060206040518083038186803b1580156139e557600080fd5b505afa1580156139f9573d6000803e3d6000fd5b505050506040513d6020811015613a0f57600080fd5b50516001600160801b0316905083811115613a5b5760405162461bcd60e51b81526004018080602001828103825260228152602001806156026022913960400191505060405180910390fd5b6006546040805163801d325f60e01b8152600481018a9052602481018990523360448201523060648201526084810184905290516001600160a01b039092169163801d325f9160a48082019260009290919082900301818387803b158015613ac257600080fd5b505af1158015613ad6573d6000803e3d6000fd5b50505050876001600160a01b031663cc5783d33087613af487614209565b604080516001600160e01b031960e087901b1681526001600160a01b0394851660048201529290931660248301526001600160801b03166044820152905160648083019260209291908290030181600087803b15801561329e57600080fd5b6000846001600160a01b031663f2e41a246040518163ffffffff1660e01b815260040160206040518083038186803b158015613b8e57600080fd5b505afa158015613ba2573d6000803e3d6000fd5b505050506040513d6020811015613bb857600080fd5b50516006546040805163204f83f960e01b815290519293506001600160a01b039182169263563de79a92644554482d4160d81b929086169163204f83f991600480820192602092909190829003018186803b158015613c1657600080fd5b505afa158015613c2a573d6000803e3d6000fd5b505050506040513d6020811015613c4057600080fd5b5051604080516001600160e01b031960e086901b168152600481019390935260248301919091526001600160a01b0388166044830152516064808301926020929190829003018186803b158015613c9657600080fd5b505afa158015613caa573d6000803e3d6000fd5b505050506040513d6020811015613cc057600080fd5b5051831115613d005760405162461bcd60e51b81526004018080602001828103825260248152602001806156ff6024913960400191505060405180910390fd5b6006546040805163dd62f42360e01b8152644554482d4160d81b60048201526001600160a01b0387811660248301529151919092169163dd62f423916044808301926020929190829003018186803b158015613d5b57600080fd5b505afa158015613d6f573d6000803e3d6000fd5b505050506040513d6020811015613d8557600080fd5b5051821115613dc55760405162461bcd60e51b815260040180806020018281038252602a8152602001806155ae602a913960400191505060405180910390fd5b60408051600060208083018290526001600160a01b03898116848601528881166060808601919091526080850188905260a08086018590528651808703909101815260c0860196879052633ea2146560e01b9096523060c4860181815260e487018b905261010487019283528751610124880152875193891697633ea214659792968c969195929493610144019291860191908190849084905b83811015613e77578181015183820152602001613e5f565b50505050905090810190601f168015613ea45780820380516001836020036101000a031916815260200191505b50945050505050600060405180830381600087803b158015613ec557600080fd5b505af115801561281b573d6000803e3d6000fd5b6006546040805163470660bb60e11b8152644554482d4160d81b60048201523360248201523060448201526064810184905290516001600160a01b0390921691638e0cc1769160848082019260009290919082900301818387803b158015613f4057600080fd5b505af1158015613f54573d6000803e3d6000fd5b505060015460408051632e1a7d4d60e01b81526004810186905290516001600160a01b039092169350632e1a7d4d925060248082019260009290919082900301818387803b158015613fa557600080fd5b505af1158015613fb9573d6000803e3d6000fd5b50506040516001600160a01b038516925083156108fc02915083906000818181858888f19350505050158015613ff3573d6000803e3d6000fd5b505050565b6001600160a01b03861660009081526009602052604081205460ff16614053576040805162461bcd60e51b81526020600482015260186024820152600080516020615670833981519152604482015290519081900360640190fd5b6000876001600160a01b031663864e8d81333061406f88614209565b604080516001600160e01b031960e087901b1681526001600160a01b0394851660048201529290931660248301526001600160801b03166044820152905160648083019260209291908290030181600087803b1580156140ce57600080fd5b505af11580156140e2573d6000803e3d6000fd5b505050506040513d60208110156140f857600080fd5b50516001600160801b03169050828111156141445760405162461bcd60e51b81526004018080602001828103825260218152602001806157466021913960400191505060405180910390fd5b6006546040805163bbddb02d60e01b8152600481018a9052602481018990523060448201526001600160a01b038881166064830152608482018890529151919092169163bbddb02d9160a48083019260209291908290030181600087803b15801561329e57600080fd5b6002546001600160a01b031681565b6006546001600160a01b031681565b60208101516040820151606090920151909260009190911a90565b60006110e782611b86856b033b2e3c9fd0803ce800000063ffffffff61477316565b60006001600160801b03821115614263576040805162461bcd60e51b81526020600482015260196024820152785969656c6450726f78793a2043617374206f766572666c6f7760381b604482015290519081900360640190fd5b5090565b60006110e76b033b2e3c9fd0803ce8000000611b86858563ffffffff61477316565b6000828201838110156110e7576040805162461bcd60e51b815260206004820152601b60248201527f536166654d6174683a206164646974696f6e206f766572666c6f770000000000604482015290519081900360640190fd5b60006110e783836040518060400160405280601e81526020017f536166654d6174683a207375627472616374696f6e206f766572666c6f770000815250615344565b600660009054906101000a90046001600160a01b03166001600160a01b031663563de79a634348414960e01b836001600160a01b031663204f83f96040518163ffffffff1660e01b815260040160206040518083038186803b15801561438a57600080fd5b505afa15801561439e573d6000803e3d6000fd5b505050506040513d60208110156143b457600080fd5b5051604080516001600160e01b031960e086901b16815260048101939093526024830191909152336044830152516064808301926020929190829003018186803b15801561440157600080fd5b505afa158015614415573d6000803e3d6000fd5b505050506040513d602081101561442b57600080fd5b5051614624576006546040805163dd62f42360e01b8152634348414960e01b60048201819052336024830181905292516001600160a01b0390941693638e0cc1769391923091869163dd62f423916044808301926020929190829003018186803b15801561449857600080fd5b505afa1580156144ac573d6000803e3d6000fd5b505050506040513d60208110156144c257600080fd5b5051604080516001600160e01b031960e088901b16815260048101959095526001600160a01b039384166024860152919092166044840152606483019190915251608480830192600092919082900301818387803b15801561452357600080fd5b505af1158015614537573d6000803e3d6000fd5b5050600554604080516370a0823160e01b8152306004820181905291516001600160a01b03909316945063ef693bed9350909184916370a08231916024808301926020929190829003018186803b15801561459157600080fd5b505afa1580156145a5573d6000803e3d6000fd5b505050506040513d60208110156145bb57600080fd5b5051604080516001600160e01b031960e086901b1681526001600160a01b039093166004840152602483019190915251604480830192600092919082900301818387803b15801561460b57600080fd5b505af115801561461f573d6000803e3d6000fd5b505050505b600254604080516370a0823160e01b815230600482015290516001600160a01b039092169163a9059cbb91339184916370a08231916024808301926020929190829003018186803b15801561467857600080fd5b505afa15801561468c573d6000803e3d6000fd5b505050506040513d60208110156146a257600080fd5b5051604080516001600160e01b031960e086901b1681526001600160a01b03909316600484015260248301919091525160448083019260209291908290030181600087803b1580156146f357600080fd5b505af1158015614707573d6000803e3d6000fd5b505050506040513d602081101561471d57600080fd5b5051614770576040805162461bcd60e51b815260206004820152601f60248201527f5969656c6450726f78793a20446169205472616e73666572204661696c656400604482015290519081900360640190fd5b50565b60008261478257506000612dfe565b8282028284828161478f57fe5b04146110e75760405162461bcd60e51b81526004018080602001828103825260218152602001806156b76021913960400191505060405180910390fd5b60006110e783836040518060400160405280601a81526020017f536166654d6174683a206469766973696f6e206279207a65726f0000000000008152506153db565b60008490506000816001600160a01b031663f2e41a246040518163ffffffff1660e01b815260040160206040518083038186803b15801561484e57600080fd5b505afa158015614862573d6000803e3d6000fd5b505050506040513d602081101561487857600080fd5b5051905060006001600160a01b03831663cc5783d3308061489888614209565b604080516001600160e01b031960e087901b1681526001600160a01b0394851660048201529290931660248301526001600160801b03166044820152905160648083019260209291908290030181600087803b1580156148f757600080fd5b505af115801561490b573d6000803e3d6000fd5b505050506040513d602081101561492157600080fd5b50516004805460408051633b4da69f60e01b81526001600160a01b038b8116948201949094526024810189905290516001600160801b039094169450911691633b4da69f9160448082019260009290919082900301818387803b15801561498757600080fd5b505af115801561499b573d6000803e3d6000fd5b50506000805460408051636cb1c69b60e11b8152644554482d4160d81b600482015290519294506001600160a01b03909116925063d9638d369160248083019260a0929190829003018186803b1580156149f457600080fd5b505afa158015614a08573d6000803e3d6000fd5b505050506040513d60a0811015614a1e57600080fd5b50602001516000549091506001600160a01b03166376088703888080614a438b615440565b600003614a58614a538c8961549a565b615440565b604080516001600160e01b031960e089901b168152644554482d4160d81b60048201526001600160a01b03968716602482015294861660448601529290941660648401526084830152600092830360a48301525160c4808301939282900301818387803b158015614ac857600080fd5b505af1158015614adc573d6000803e3d6000fd5b50506000805460408051633088df1760e11b8152644554482d4160d81b60048201526001600160a01b038d81166024830152306044830152606482018d90529151919092169450636111be2e93506084808301939282900301818387803b158015614b4657600080fd5b505af1158015614b5a573d6000803e3d6000fd5b50506003546040805163ef693bed60e01b8152306004820152602481018b905290516001600160a01b03909216935063ef693bed925060448082019260009290919082900301818387803b158015614bb157600080fd5b505af1158015614bc5573d6000803e3d6000fd5b5050600654604080516356dcf2a760e11b8152644554482d4160d81b60048201523060248201526001600160a01b038c81166044830152606482018c9052915191909216935063adb9e54e9250608480830192600092919082900301818387803b158015614c3257600080fd5b505af1158015614c46573d6000803e3d6000fd5b50505050600660009054906101000a90046001600160a01b03166001600160a01b031663801d325f644554482d4160d81b856001600160a01b031663204f83f96040518163ffffffff1660e01b815260040160206040518083038186803b158015614cb057600080fd5b505afa158015614cc4573d6000803e3d6000fd5b505050506040513d6020811015614cda57600080fd5b5051604080516001600160e01b031960e086901b168152600481019390935260248301919091526001600160a01b038b166044830152306064830152608482018690525160a480830192600092919082900301818387803b1580156122c157600080fd5b60008490506000816001600160a01b031663f2e41a246040518163ffffffff1660e01b815260040160206040518083038186803b158015614d7e57600080fd5b505afa158015614d92573d6000803e3d6000fd5b505050506040513d6020811015614da857600080fd5b50516006546040805163204f83f960e01b815290519293506001600160a01b039182169263bbddb02d92644554482d4160d81b929086169163204f83f991600480820192602092909190829003018186803b158015614e0657600080fd5b505afa158015614e1a573d6000803e3d6000fd5b505050506040513d6020811015614e3057600080fd5b5051604080516001600160e01b031960e086901b168152600481019390935260248301919091523060448301526001600160a01b0389166064830152608482018890525160a48083019260209291908290030181600087803b158015614e9557600080fd5b505af1158015614ea9573d6000803e3d6000fd5b505050506040513d6020811015614ebf57600080fd5b50506006546040805163470660bb60e11b8152644554482d4160d81b60048201526001600160a01b0388811660248301523060448301526064820187905291519190921691638e0cc17691608480830192600092919082900301818387803b158015614f2a57600080fd5b505af1158015614f3e573d6000803e3d6000fd5b505060035460408051633b4da69f60e01b81526001600160a01b038a81166004830152602482018990529151919092169350633b4da69f9250604480830192600092919082900301818387803b158015614f9757600080fd5b505af1158015614fab573d6000803e3d6000fd5b505050506000826001600160a01b03166340cb51da614fc987614209565b6040518263ffffffff1660e01b815260040180826001600160801b03166001600160801b0316815260200191505060206040518083038186803b15801561500f57600080fd5b505afa158015615023573d6000803e3d6000fd5b505050506040513d602081101561503957600080fd5b50516000805460408051636cb1c69b60e11b8152644554482d4160d81b600482015290516001600160801b03909416945091926001600160a01b039091169163d9638d369160248083019260a0929190829003018186803b15801561509d57600080fd5b505afa1580156150b1573d6000803e3d6000fd5b505050506040513d60a08110156150c757600080fd5b50602001516000549091506001600160a01b031663760887038880806150ec8a615440565b6150f9614a53898961549a565b604080516001600160e01b031960e089901b168152644554482d4160d81b60048201526001600160a01b0396871660248201529486166044860152929094166064840152608483015260a4820192909252905160c480830192600092919082900301818387803b15801561516c57600080fd5b505af1158015615180573d6000803e3d6000fd5b50506000546001600160a01b0316915063bb35783b905088306151b5866b033b2e3c9fd0803ce800000063ffffffff61477316565b6040518463ffffffff1660e01b815260040180846001600160a01b03166001600160a01b03168152602001836001600160a01b03166001600160a01b031681526020018281526020019350505050600060405180830381600087803b15801561521d57600080fd5b505af1158015615231573d6000803e3d6000fd5b5050600480546040805163ef693bed60e01b8152309381019390935260248301879052516001600160a01b03909116935063ef693bed9250604480830192600092919082900301818387803b15801561528957600080fd5b505af115801561529d573d6000803e3d6000fd5b50505050836001600160a01b031663864e8d8130306152bb8a614209565b604080516001600160e01b031960e087901b1681526001600160a01b0394851660048201529290931660248301526001600160801b03166044820152905160648083019260209291908290030181600087803b15801561531a57600080fd5b505af115801561532e573d6000803e3d6000fd5b505050506040513d602081101561104d57600080fd5b600081848411156153d35760405162461bcd60e51b81526004018080602001828103825283818151815260200191508051906020019080838360005b83811015615398578181015183820152602001615380565b50505050905090810190601f1680156153c55780820380516001836020036101000a031916815260200191505b509250505060405180910390fd5b505050900390565b6000818361542a5760405162461bcd60e51b8152602060048201818152835160248401528351909283926044909101919085019080838360008315615398578181015183820152602001615380565b50600083858161543657fe5b0495945050505050565b60006001600160ff1b03821115614263576040805162461bcd60e51b81526020600482015260196024820152785969656c6450726f78793a2043617374206f766572666c6f7760381b604482015290519081900360640190fd5b6000806154b9846b033b2e3c9fd0803ce800000063ffffffff61477316565b90506154cb818463ffffffff61550e16565b156154f6576154f160016154e5838663ffffffff6147cc16565b9063ffffffff61428916565b615506565b615506818463ffffffff6147cc16565b949350505050565b60006110e783836040518060400160405280601881526020017f536166654d6174683a206d6f64756c6f206279207a65726f00000000000000008152506000818361559a5760405162461bcd60e51b8152602060048201818152835160248401528351909283926044909101919085019080838360008315615398578181015183820152602001615380565b508284816155a457fe5b0694935050505056fe5969656c6450726f78793a204e6f7420656e6f75676820636f6c6c61746572616c20696e205969656c645969656c6450726f78793a204e6f7420656e6f75676820636f6c6c61746572616c20696e204d616b65725969656c6450726f78793a20546f6f206d75636820654461692072657175697265645969656c6450726f78793a206d696e696d756d454461695072696365206e6f7420726561636865645969656c6450726f78793a204e6f7420656e6f756768206465627420696e204d616b65725969656c6450726f78793a20556e6b6e6f776e20706f6f6c00000000000000005969656c6450726f78793a206d696e696d756d4461695072696365206e6f742072656163686564536166654d6174683a206d756c7469706c69636174696f6e206f766572666c6f775969656c6450726f78793a204e6f7420656e6f75676820654461692064656274207265706169645969656c6450726f78793a204e6f7420656e6f756768206465627420696e205969656c645969656c6450726f78793a204e6f7420656e6f75676820446169206f627461696e65645969656c6450726f78793a20546f6f206d75636820446169207265717569726564a2646970667358221220d8115799b8c30642690047c9db047f5380a8e4403b8090c1856adb4e7ca4d51564736f6c634300060a0033",
  "immutableReferences": {},
  "source": "// SPDX-License-Identifier: GPL-3.0-or-later\npragma solidity ^0.6.10;\n\nimport \"../interfaces/IController.sol\";\nimport \"../interfaces/IWeth.sol\";\nimport \"../interfaces/IDai.sol\";\nimport \"../interfaces/IGemJoin.sol\";\nimport \"../interfaces/IDaiJoin.sol\";\nimport \"../interfaces/IVat.sol\";\nimport \"../interfaces/IPot.sol\";\nimport \"../interfaces/IPool.sol\";\nimport \"../interfaces/IEDai.sol\";\nimport \"../interfaces/IChai.sol\";\nimport \"../interfaces/IFlashMinter.sol\";\nimport \"../helpers/DecimalMath.sol\";\n\n\nlibrary SafeCast {\n    /// @dev Safe casting from uint256 to uint128\n    function toUint128(uint256 x) internal pure returns(uint128) {\n        require(\n            x <= type(uint128).max,\n            \"YieldProxy: Cast overflow\"\n        );\n        return uint128(x);\n    }\n\n    /// @dev Safe casting from uint256 to int256\n    function toInt256(uint256 x) internal pure returns(int256) {\n        require(\n            x <= uint256(type(int256).max),\n            \"YieldProxy: Cast overflow\"\n        );\n        return int256(x);\n    }\n}\n\ncontract YieldProxy is DecimalMath, IFlashMinter {\n    using SafeCast for uint256;\n\n    IVat public vat;\n    IWeth public weth;\n    IDai public dai;\n    IGemJoin public wethJoin;\n    IDaiJoin public daiJoin;\n    IChai public chai;\n    IController public controller;\n    ITreasury public treasury;\n\n    IPool[] public pools;\n    mapping (address => bool) public poolsMap;\n\n    bytes32 public constant CHAI = \"CHAI\";\n    bytes32 public constant WETH = \"ETH-A\";\n    bool constant public MTY = true;\n    bool constant public YTM = false;\n\n\n    constructor(address controller_, IPool[] memory _pools) public {\n        controller = IController(controller_);\n        treasury = controller.treasury();\n\n        weth = treasury.weth();\n        dai = IDai(address(treasury.dai()));\n        chai = treasury.chai();\n        daiJoin = treasury.daiJoin();\n        wethJoin = treasury.wethJoin();\n        vat = treasury.vat();\n\n        // for repaying debt\n        dai.approve(address(treasury), uint(-1));\n\n        // for posting to the controller\n        chai.approve(address(treasury), uint(-1));\n        weth.approve(address(treasury), uint(-1));\n\n        // for converting DAI to CHAI\n        dai.approve(address(chai), uint(-1));\n\n        vat.hope(address(daiJoin));\n        vat.hope(address(wethJoin));\n\n        dai.approve(address(daiJoin), uint(-1));\n        weth.approve(address(wethJoin), uint(-1));\n        weth.approve(address(treasury), uint(-1));\n\n        // allow all the pools to pull EDai/dai from us for LPing\n        for (uint i = 0 ; i < _pools.length; i++) {\n            dai.approve(address(_pools[i]), uint(-1));\n            _pools[i].eDai().approve(address(_pools[i]), uint(-1));\n            poolsMap[address(_pools[i])]= true;\n        }\n\n        pools = _pools;\n    }\n\n    /// @dev Unpack r, s and v from a `bytes` signature\n    function unpack(bytes memory signature) private pure returns (bytes32 r, bytes32 s, uint8 v) {\n        assembly {\n            r := mload(add(signature, 0x20))\n            s := mload(add(signature, 0x40))\n            v := byte(0, mload(add(signature, 0x60)))\n        }\n    }\n\n    /// @dev Performs the initial onboarding of the user. It `permit`'s DAI to be used by the proxy, and adds the proxy as a delegate in the controller\n    function onboard(address from, bytes memory daiSignature, bytes memory controllerSig) external {\n        bytes32 r;\n        bytes32 s;\n        uint8 v;\n\n        (r, s, v) = unpack(daiSignature);\n        dai.permit(from, address(this), dai.nonces(from), uint(-1), true, v, r, s);\n\n        (r, s, v) = unpack(controllerSig);\n        controller.addDelegateBySignature(from, address(this), uint(-1), v, r, s);\n    }\n\n    /// @dev Given a pool and 3 signatures, it `permit`'s dai and eDai for that pool and adds it as a delegate\n    function authorizePool(IPool pool, address from, bytes memory daiSig, bytes memory eDaiSig, bytes memory poolSig) public {\n        require(poolsMap[address(pool)], \"YieldProxy: Unknown pool\");\n        bytes32 r;\n        bytes32 s;\n        uint8 v;\n\n        (r, s, v) = unpack(daiSig);\n        dai.permit(from, address(pool), dai.nonces(from), uint(-1), true, v, r, s);\n\n        (r, s, v) = unpack(eDaiSig);\n        pool.eDai().permit(from, address(this), uint(-1), uint(-1), v, r, s);\n\n        (r, s, v) = unpack(poolSig);\n        pool.addDelegateBySignature(from, address(this), uint(-1), v, r, s);\n    }\n\n    /// @dev The WETH9 contract will send ether to YieldProxy on `weth.withdraw` using this function.\n    receive() external payable { }\n\n    /// @dev Users use `post` in YieldProxy to post ETH to the Controller (amount = msg.value), which will be converted to Weth here.\n    /// @param to Yield Vault to deposit collateral in.\n    function post(address to)\n        public payable {\n        weth.deposit{ value: msg.value }();\n        controller.post(WETH, address(this), to, msg.value);\n    }\n\n    /// @dev Users wishing to withdraw their Weth as ETH from the Controller should use this function.\n    /// Users must have called `controller.addDelegate(yieldProxy.address)` to authorize YieldProxy to act in their behalf.\n    /// @param to Wallet to send Eth to.\n    /// @param amount Amount of weth to move.\n    function withdraw(address payable to, uint256 amount)\n        public {\n        controller.withdraw(WETH, msg.sender, address(this), amount);\n        weth.withdraw(amount);\n        to.transfer(amount);\n    }\n\n    /// @dev Mints liquidity with provided Dai by borrowing eDai with some of the Dai.\n    /// Caller must have approved the proxy using`controller.addDelegate(yieldProxy)`\n    /// Caller must have approved the dai transfer with `dai.approve(daiUsed)`\n    /// @param daiUsed amount of Dai to use to mint liquidity. \n    /// @param maxEDai maximum amount of eDai to be borrowed to mint liquidity. \n    /// @return The amount of liquidity tokens minted.  \n    function addLiquidity(IPool pool, uint256 daiUsed, uint256 maxEDai) external returns (uint256) {\n        require(poolsMap[address(pool)], \"YieldProxy: Unknown pool\");\n        IEDai eDai = pool.eDai();\n        require(eDai.isMature() != true, \"YieldProxy: Only before maturity\");\n        require(dai.transferFrom(msg.sender, address(this), daiUsed), \"YieldProxy: Transfer Failed\");\n\n        // calculate needed eDai\n        uint256 daiReserves = dai.balanceOf(address(pool));\n        uint256 eDaiReserves = eDai.balanceOf(address(pool));\n        uint256 daiToAdd = daiUsed.mul(daiReserves).div(eDaiReserves.add(daiReserves));\n        uint256 daiToConvert = daiUsed.sub(daiToAdd);\n        require(\n            daiToConvert <= maxEDai,\n            \"YieldProxy: maxEDai exceeded\"\n        ); // 1 Dai == 1 eDai\n\n        // convert dai to chai and borrow needed eDai\n        chai.join(address(this), daiToConvert);\n        // look at the balance of chai in dai to avoid rounding issues\n        uint256 toBorrow = chai.dai(address(this));\n        controller.post(CHAI, address(this), msg.sender, chai.balanceOf(address(this)));\n        controller.borrow(CHAI, eDai.maturity(), msg.sender, address(this), toBorrow);\n        \n        // mint liquidity tokens\n        return pool.mint(address(this), msg.sender, daiToAdd);\n    }\n\n    /// @dev Burns tokens and sells Dai proceedings for eDai. Pays as much debt as possible, then sells back any remaining eDai for Dai. Then returns all Dai, and if there is no debt in the Controller, all posted Chai.\n    /// Caller must have approved the proxy using`controller.addDelegate(yieldProxy)` and `pool.addDelegate(yieldProxy)`\n    /// Caller must have approved the liquidity burn with `pool.approve(poolTokens)`\n    /// @param poolTokens amount of pool tokens to burn. \n    /// @param minimumDaiPrice minimum eDai/Dai price to be accepted when internally selling Dai.\n    /// @param minimumEDaiPrice minimum Dai/eDai price to be accepted when internally selling eDai.\n    function removeLiquidityEarlyDaiPool(IPool pool, uint256 poolTokens, uint256 minimumDaiPrice, uint256 minimumEDaiPrice) external {\n        require(poolsMap[address(pool)], \"YieldProxy: Unknown pool\");\n        IEDai eDai = pool.eDai();\n        uint256 maturity = eDai.maturity();\n        (uint256 daiObtained, uint256 eDaiObtained) = pool.burn(msg.sender, address(this), poolTokens);\n\n        // Exchange Dai for eDai to pay as much debt as possible\n        uint256 eDaiBought = pool.sellDai(address(this), address(this), daiObtained.toUint128());\n        require(\n            eDaiBought >= muld(daiObtained, minimumDaiPrice),\n            \"YieldProxy: minimumDaiPrice not reached\"\n        );\n        eDaiObtained = eDaiObtained.add(eDaiBought);\n        \n        uint256 eDaiUsed;\n        if (eDaiObtained > 0 && controller.debtEDai(CHAI, maturity, msg.sender) > 0) {\n            eDaiUsed = controller.repayEDai(CHAI, maturity, address(this), msg.sender, eDaiObtained);\n        }\n        uint256 eDaiRemaining = eDaiObtained.sub(eDaiUsed);\n\n        if (eDaiRemaining > 0) {// There is eDai left, so exchange it for Dai to withdraw only Dai and Chai\n            require(\n                pool.sellEDai(address(this), address(this), uint128(eDaiRemaining)) >= muld(eDaiRemaining, minimumEDaiPrice),\n                \"YieldProxy: minimumEDaiPrice not reached\"\n            );\n        }\n        withdrawAssets(eDai);\n    }\n\n    /// @dev Burns tokens and repays debt with proceedings. Sells any excess eDai for Dai, then returns all Dai, and if there is no debt in the Controller, all posted Chai.\n    /// Caller must have approved the proxy using`controller.addDelegate(yieldProxy)` and `pool.addDelegate(yieldProxy)`\n    /// Caller must have approved the liquidity burn with `pool.approve(poolTokens)`\n    /// @param poolTokens amount of pool tokens to burn. \n    /// @param minimumEDaiPrice minimum Dai/eDai price to be accepted when internally selling eDai.\n    function removeLiquidityEarlyDaiFixed(IPool pool, uint256 poolTokens, uint256 minimumEDaiPrice) external {\n        require(poolsMap[address(pool)], \"YieldProxy: Unknown pool\");\n        IEDai eDai = pool.eDai();\n        uint256 maturity = eDai.maturity();\n        (uint256 daiObtained, uint256 eDaiObtained) = pool.burn(msg.sender, address(this), poolTokens);\n\n        uint256 eDaiUsed;\n        if (eDaiObtained > 0 && controller.debtEDai(CHAI, maturity, msg.sender) > 0) {\n            eDaiUsed = controller.repayEDai(CHAI, maturity, address(this), msg.sender, eDaiObtained);\n        }\n\n        uint256 eDaiRemaining = eDaiObtained.sub(eDaiUsed);\n        if (eDaiRemaining == 0) { // We used all the eDai, so probably there is debt left, so pay with Dai\n            if (daiObtained > 0 && controller.debtEDai(CHAI, maturity, msg.sender) > 0) {\n                controller.repayDai(CHAI, maturity, address(this), msg.sender, daiObtained);\n            }\n        } else { // Exchange remaining eDai for Dai to withdraw only Dai and Chai\n            require(\n                pool.sellEDai(address(this), address(this), uint128(eDaiRemaining)) >= muld(eDaiRemaining, minimumEDaiPrice),\n                \"YieldProxy: minimumEDaiPrice not reached\"\n            );\n        }\n        withdrawAssets(eDai);\n    }\n\n    /// @dev Burns tokens and repays eDai debt after Maturity. \n    /// Caller must have approved the proxy using`controller.addDelegate(yieldProxy)`\n    /// Caller must have approved the liquidity burn with `pool.approve(poolTokens)`\n    /// @param poolTokens amount of pool tokens to burn.\n    function removeLiquidityMature(IPool pool, uint256 poolTokens) external {\n        require(poolsMap[address(pool)], \"YieldProxy: Unknown pool\");\n        IEDai eDai = pool.eDai();\n        uint256 maturity = eDai.maturity();\n        (uint256 daiObtained, uint256 eDaiObtained) = pool.burn(msg.sender, address(this), poolTokens);\n        if (eDaiObtained > 0) {\n            daiObtained = daiObtained.add(eDai.redeem(address(this), address(this), eDaiObtained));\n        }\n        \n        // Repay debt\n        if (daiObtained > 0 && controller.debtEDai(CHAI, maturity, msg.sender) > 0) {\n            controller.repayDai(CHAI, maturity, address(this), msg.sender, daiObtained);\n        }\n        withdrawAssets(eDai);\n    }\n\n    /// @dev Return to caller all posted chai if there is no debt, converted to dai, plus any dai remaining in the contract.\n    function withdrawAssets(IEDai eDai) internal {\n        if (controller.debtEDai(CHAI, eDai.maturity(), msg.sender) == 0) {\n            controller.withdraw(CHAI, msg.sender, address(this), controller.posted(CHAI, msg.sender));\n            chai.exit(address(this), chai.balanceOf(address(this)));\n        }\n        require(dai.transfer(msg.sender, dai.balanceOf(address(this))), \"YieldProxy: Dai Transfer Failed\");\n    }\n\n    /// @dev Borrow eDai from Controller and sell it immediately for Dai, for a maximum eDai debt.\n    /// Must have approved the operator with `controller.addDelegate(yieldProxy.address)`.\n    /// @param collateral Valid collateral type.\n    /// @param maturity Maturity of an added series\n    /// @param to Wallet to send the resulting Dai to.\n    /// @param maximumEDai Maximum amount of EDai to borrow.\n    /// @param daiToBorrow Exact amount of Dai that should be obtained.\n    function borrowDaiForMaximumEDai(\n        IPool pool,\n        bytes32 collateral,\n        uint256 maturity,\n        address to,\n        uint256 maximumEDai,\n        uint256 daiToBorrow\n    )\n        public\n        returns (uint256)\n    {\n        require(poolsMap[address(pool)], \"YieldProxy: Unknown pool\");\n        uint256 eDaiToBorrow = pool.buyDaiPreview(daiToBorrow.toUint128());\n        require (eDaiToBorrow <= maximumEDai, \"YieldProxy: Too much eDai required\");\n\n        // The collateral for this borrow needs to have been posted beforehand\n        controller.borrow(collateral, maturity, msg.sender, address(this), eDaiToBorrow);\n        pool.buyDai(address(this), to, daiToBorrow.toUint128());\n\n        return eDaiToBorrow;\n    }\n\n    /// @dev Borrow eDai from Controller and sell it immediately for Dai, if a minimum amount of Dai can be obtained such.\n    /// Must have approved the operator with `controller.addDelegate(yieldProxy.address)`.\n    /// @param collateral Valid collateral type.\n    /// @param maturity Maturity of an added series\n    /// @param to Wallet to sent the resulting Dai to.\n    /// @param eDaiToBorrow Amount of eDai to borrow.\n    /// @param minimumDaiToBorrow Minimum amount of Dai that should be borrowed.\n    function borrowMinimumDaiForEDai(\n        IPool pool,\n        bytes32 collateral,\n        uint256 maturity,\n        address to,\n        uint256 eDaiToBorrow,\n        uint256 minimumDaiToBorrow\n    )\n        public\n        returns (uint256)\n    {\n        require(poolsMap[address(pool)], \"YieldProxy: Unknown pool\");\n        // The collateral for this borrow needs to have been posted beforehand\n        controller.borrow(collateral, maturity, msg.sender, address(this), eDaiToBorrow);\n        uint256 boughtDai = pool.sellEDai(address(this), to, eDaiToBorrow.toUint128());\n        require (boughtDai >= minimumDaiToBorrow, \"YieldProxy: Not enough Dai obtained\");\n\n        return boughtDai;\n    }\n\n\n    /// @dev Repay an amount of eDai debt in Controller using Dai exchanged for eDai at pool rates, up to a maximum amount of Dai spent.\n    /// Must have approved the operator with `pool.addDelegate(yieldProxy.address)`.\n    /// @param collateral Valid collateral type.\n    /// @param maturity Maturity of an added series\n    /// @param to Yield Vault to repay eDai debt for.\n    /// @param eDaiRepayment Amount of eDai debt to repay.\n    /// @param maximumRepaymentInDai Maximum amount of Dai that should be spent on the repayment.\n    function repayEDaiDebtForMaximumDai(\n        IPool pool,\n        bytes32 collateral,\n        uint256 maturity,\n        address to,\n        uint256 eDaiRepayment,\n        uint256 maximumRepaymentInDai\n    )\n        public\n        returns (uint256)\n    {\n        require(poolsMap[address(pool)], \"YieldProxy: Unknown pool\");\n        uint256 repaymentInDai = pool.buyEDai(msg.sender, address(this), eDaiRepayment.toUint128());\n        require (repaymentInDai <= maximumRepaymentInDai, \"YieldProxy: Too much Dai required\");\n        controller.repayEDai(collateral, maturity, address(this), to, eDaiRepayment);\n\n        return repaymentInDai;\n    }\n\n    /// @dev Repay an amount of eDai debt in Controller using a given amount of Dai exchanged for eDai at pool rates, with a minimum of eDai debt required to be paid.\n    /// Must have approved the operator with `pool.addDelegate(yieldProxy.address)`.\n    /// @param collateral Valid collateral type.\n    /// @param maturity Maturity of an added series\n    /// @param to Yield Vault to repay eDai debt for.\n    /// @param minimumEDaiRepayment Minimum amount of eDai debt to repay.\n    /// @param repaymentInDai Exact amount of Dai that should be spent on the repayment.\n    function repayMinimumEDaiDebtForDai(\n        IPool pool,\n        bytes32 collateral,\n        uint256 maturity,\n        address to,\n        uint256 minimumEDaiRepayment,\n        uint256 repaymentInDai\n    )\n        public\n        returns (uint256)\n    {\n        require(poolsMap[address(pool)], \"YieldProxy: Unknown pool\");\n        uint256 eDaiRepayment = pool.sellDai(msg.sender, address(this), repaymentInDai.toUint128());\n        require (eDaiRepayment >= minimumEDaiRepayment, \"YieldProxy: Not enough eDai debt repaid\");\n        controller.repayEDai(collateral, maturity, address(this), to, eDaiRepayment);\n\n        return eDaiRepayment;\n    }\n\n    /// @dev Sell Dai for eDai\n    /// @param to Wallet receiving the eDai being bought\n    /// @param daiIn Amount of dai being sold\n    /// @param minEDaiOut Minimum amount of eDai being bought\n    function sellDai(address pool, address to, uint128 daiIn, uint128 minEDaiOut)\n        external\n        returns(uint256)\n    {\n        uint256 eDaiOut = IPool(pool).sellDai(msg.sender, to, daiIn);\n        require(\n            eDaiOut >= minEDaiOut,\n            \"YieldProxy: Limit not reached\"\n        );\n        return eDaiOut;\n    }\n\n    /// @dev Buy Dai for eDai\n    /// @param to Wallet receiving the dai being bought\n    /// @param daiOut Amount of dai being bought\n    /// @param maxEDaiIn Maximum amount of eDai being sold\n    function buyDai(address pool, address to, uint128 daiOut, uint128 maxEDaiIn)\n        public\n        returns(uint256)\n    {\n        uint256 eDaiIn = IPool(pool).buyDai(msg.sender, to, daiOut);\n        require(\n            maxEDaiIn >= eDaiIn,\n            \"YieldProxy: Limit exceeded\"\n        );\n        return eDaiIn;\n    }\n\n    /// @dev Buy Dai for eDai and permits infinite eDai to the pool\n    /// @param to Wallet receiving the dai being bought\n    /// @param daiOut Amount of dai being bought\n    /// @param maxEDaiIn Maximum amount of eDai being sold\n    /// @param signature The `permit` call's signature\n    function buyDaiWithSignature(address pool, address to, uint128 daiOut, uint128 maxEDaiIn, bytes memory signature)\n        external\n        returns(uint256)\n    {\n        (bytes32 r, bytes32 s, uint8 v) = unpack(signature);\n        IPool(pool).eDai().permit(msg.sender, address(pool), uint(-1), uint(-1), v, r, s);\n\n        return buyDai(pool, to, daiOut, maxEDaiIn);\n    }\n\n    /// @dev Sell eDai for Dai\n    /// @param to Wallet receiving the dai being bought\n    /// @param eDaiIn Amount of eDai being sold\n    /// @param minDaiOut Minimum amount of dai being bought\n    function sellEDai(address pool, address to, uint128 eDaiIn, uint128 minDaiOut)\n        external\n        returns(uint256)\n    {\n        uint256 daiOut = IPool(pool).sellEDai(msg.sender, to, eDaiIn);\n        require(\n            daiOut >= minDaiOut,\n            \"YieldProxy: Limit not reached\"\n        );\n        return daiOut;\n    }\n\n    /// @dev Buy eDai for dai\n    /// @param to Wallet receiving the eDai being bought\n    /// @param eDaiOut Amount of eDai being bought\n    /// @param maxDaiIn Maximum amount of dai being sold\n    function buyEDai(address pool, address to, uint128 eDaiOut, uint128 maxDaiIn)\n        external\n        returns(uint256)\n    {\n        uint256 daiIn = IPool(pool).buyEDai(msg.sender, to, eDaiOut);\n        require(\n            maxDaiIn >= daiIn,\n            \"YieldProxy: Limit exceeded\"\n        );\n        return daiIn;\n    }\n\n    /// @dev Burns Dai from caller to repay debt in a Yield Vault.\n    /// User debt is decreased for the given collateral and eDai series, in Yield vault `to`.\n    /// The amount of debt repaid changes according to series maturity and MakerDAO rate and chi, depending on collateral type.\n    /// `A signature is provided as a parameter to this function, so that `dai.approve()` doesn't need to be called.\n    /// @param collateral Valid collateral type.\n    /// @param maturity Maturity of an added series\n    /// @param to Yield vault to repay debt for.\n    /// @param daiAmount Amount of Dai to use for debt repayment.\n    /// @param signature The `permit` call's signature\n    function repayDaiWithSignature(bytes32 collateral, uint256 maturity, address to, uint256 daiAmount, bytes memory signature)\n        external\n        returns(uint256)\n    {\n        (bytes32 r, bytes32 s, uint8 v) = unpack(signature);\n        dai.permit(msg.sender, address(treasury), dai.nonces(msg.sender), uint(-1), true, v, r, s);\n        controller.repayDai(collateral, maturity, msg.sender, to, daiAmount);\n    }\n\n\n    // YieldProxy: Maker to Yield proxy\n\n    /// @dev Transfer debt and collateral from MakerDAO to Yield\n    /// Needs vat.hope(splitter.address, { from: user });\n    /// Needs controller.addDelegate(splitter.address, { from: user });\n    /// @param pool The pool to trade in (and therefore eDai series to borrow)\n    /// @param user Vault to migrate.\n    /// @param wethAmount weth to move from MakerDAO to Yield. Needs to be high enough to collateralize the dai debt in Yield,\n    /// and low enough to make sure that debt left in MakerDAO is also collateralized.\n    /// @param daiAmount dai debt to move from MakerDAO to Yield. Denominated in Dai (= art * rate)\n    function makerToYield(address pool, address user, uint256 wethAmount, uint256 daiAmount) public {\n        // The user specifies the eDai he wants to mint to cover his maker debt, the weth to be passed on as collateral, and the dai debt to move\n        (uint256 ink, uint256 art) = vat.urns(WETH, user);\n        (, uint256 rate,,,) = vat.ilks(\"ETH-A\");\n        require(\n            daiAmount <= muld(art, rate),\n            \"YieldProxy: Not enough debt in Maker\"\n        );\n        require(\n            wethAmount <= ink,\n            \"YieldProxy: Not enough collateral in Maker\"\n        );\n        // Flash mint the eDai\n        IEDai eDai = IPool(pool).eDai();\n        eDai.flashMint(\n            address(this),\n            eDaiForDai(pool, daiAmount),\n            abi.encode(MTY, pool, user, wethAmount, daiAmount)\n        );\n    }\n\n    /// @dev Transfer debt and collateral from Yield to MakerDAO\n    /// Needs vat.hope(splitter.address, { from: user });\n    /// Needs controller.addDelegate(splitter.address, { from: user });\n    /// @param pool The pool to trade in (and therefore eDai series to migrate)\n    /// @param user Vault to migrate.\n    /// @param eDaiAmount eDai debt to move from Yield to MakerDAO.\n    /// @param wethAmount weth to move from Yield to MakerDAO. Needs to be high enough to collateralize the dai debt in MakerDAO,\n    /// and low enough to make sure that debt left in Yield is also collateralized.\n    function yieldToMaker(address pool, address user, uint256 eDaiAmount, uint256 wethAmount) public {\n        IEDai eDai = IPool(pool).eDai();\n\n        // The user specifies the eDai he wants to move, and the weth to be passed on as collateral\n        require(\n            eDaiAmount <= controller.debtEDai(WETH, eDai.maturity(), user),\n            \"YieldProxy: Not enough debt in Yield\"\n        );\n        require(\n            wethAmount <= controller.posted(WETH, user),\n            \"YieldProxy: Not enough collateral in Yield\"\n        );\n        // Flash mint the eDai\n        eDai.flashMint(\n            address(this),\n            eDaiAmount,\n            abi.encode(YTM, pool, user, wethAmount, 0)\n        ); // The daiAmount encoded is ignored\n    }\n\n    /// @dev Callback from `EDai.flashMint()`\n    function executeOnFlashMint(address, uint256 eDaiAmount, bytes calldata data) external override {\n        (bool direction, address pool, address user, uint256 wethAmount, uint256 daiAmount) = \n            abi.decode(data, (bool, address, address, uint256, uint256));\n        if(direction == MTY) _makerToYield(pool, user, wethAmount, daiAmount);\n        if(direction == YTM) _yieldToMaker(pool, user, eDaiAmount, wethAmount);\n    }\n\n    /// @dev Minimum weth needed to collateralize an amount of dai in MakerDAO\n    function wethForDai(uint256 daiAmount) public view returns (uint256) {\n        (,, uint256 spot,,) = vat.ilks(\"ETH-A\");\n        return divd(daiAmount, spot);\n    }\n\n    /// @dev Minimum weth needed to collateralize an amount of eDai in Yield. Yes, it's the same formula.\n    function wethForEDai(uint256 eDaiAmount) public view returns (uint256) {\n        (,, uint256 spot,,) = vat.ilks(\"ETH-A\");\n        return divd(eDaiAmount, spot);\n    }\n\n    /// @dev Amount of eDai debt that will result from migrating Dai debt from MakerDAO to Yield\n    function eDaiForDai(address pool, uint256 daiAmount) public view returns (uint256) {\n        return IPool(pool).buyDaiPreview(daiAmount.toUint128());\n    }\n\n    /// @dev Amount of dai debt that will result from migrating eDai debt from Yield to MakerDAO\n    function daiForEDai(address pool, uint256 eDaiAmount) public view returns (uint256) {\n        return IPool(pool).buyEDaiPreview(eDaiAmount.toUint128());\n    }\n\n    /// @dev Internal function to transfer debt and collateral from MakerDAO to Yield\n    /// @param pool The pool to trade in (and therefore eDai series to borrow)\n    /// @param user Vault to migrate.\n    /// @param wethAmount weth to move from MakerDAO to Yield. Needs to be high enough to collateralize the dai debt in Yield,\n    /// and low enough to make sure that debt left in MakerDAO is also collateralized.\n    /// @param daiAmount dai debt to move from MakerDAO to Yield. Denominated in Dai (= art * rate)\n    /// Needs vat.hope(splitter.address, { from: user });\n    /// Needs controller.addDelegate(splitter.address, { from: user });\n    function _makerToYield(address pool, address user, uint256 wethAmount, uint256 daiAmount) internal {\n        IPool _pool = IPool(pool);\n        IEDai eDai = IEDai(_pool.eDai());\n\n        // Pool should take exactly all eDai flash minted. YieldProxy will hold the dai temporarily\n        uint256 eDaiSold = _pool.buyDai(address(this), address(this), daiAmount.toUint128());\n\n        daiJoin.join(user, daiAmount);      // Put the Dai in Maker\n        (, uint256 rate,,,) = vat.ilks(\"ETH-A\");\n        vat.frob(                           // Pay the debt and unlock collateral in Maker\n            \"ETH-A\",\n            user,\n            user,\n            user,\n            -wethAmount.toInt256(),               // Removing Weth collateral\n            -divdrup(daiAmount, rate).toInt256()  // Removing Dai debt\n        );\n\n        vat.flux(\"ETH-A\", user, address(this), wethAmount);             // Remove the collateral from Maker\n        wethJoin.exit(address(this), wethAmount);                       // Hold the weth in YieldProxy\n        controller.post(WETH, address(this), user, wethAmount);         // Add the collateral to Yield\n        controller.borrow(WETH, eDai.maturity(), user, address(this), eDaiSold); // Borrow the eDai\n    }\n\n\n    /// @dev Internal function to transfer debt and collateral from Yield to MakerDAO\n    /// Needs vat.hope(splitter.address, { from: user });\n    /// Needs controller.addDelegate(splitter.address, { from: user });\n    /// @param pool The pool to trade in (and therefore eDai series to migrate)\n    /// @param user Vault to migrate.\n    /// @param eDaiAmount eDai debt to move from Yield to MakerDAO.\n    /// @param wethAmount weth to move from Yield to MakerDAO. Needs to be high enough to collateralize the dai debt in MakerDAO,\n    /// and low enough to make sure that debt left in Yield is also collateralized.\n    function _yieldToMaker(address pool, address user, uint256 eDaiAmount, uint256 wethAmount) internal {\n        IPool _pool = IPool(pool);\n        IEDai eDai = IEDai(_pool.eDai());\n\n        // Pay the Yield debt - YieldProxy pays EDai to remove the debt of `user`\n        // Controller should take exactly all eDai flash minted.\n        controller.repayEDai(WETH, eDai.maturity(), address(this), user, eDaiAmount);\n\n        // Withdraw the collateral from Yield, YieldProxy will hold it\n        controller.withdraw(WETH, user, address(this), wethAmount);\n\n        // Post the collateral to Maker, in the `user` vault\n        wethJoin.join(user, wethAmount);\n\n        // We are going to need to buy the EDai back with Dai borrowed from Maker\n        uint256 daiAmount = _pool.buyEDaiPreview(eDaiAmount.toUint128());\n\n        // Borrow the Dai from Maker\n        (, uint256 rate,,,) = vat.ilks(\"ETH-A\"); // Retrieve the MakerDAO stability fee for Weth\n        vat.frob(\n            \"ETH-A\",\n            user,\n            user,\n            user,\n            wethAmount.toInt256(),                   // Adding Weth collateral\n            divdrup(daiAmount, rate).toInt256()      // Adding Dai debt\n        );\n        vat.move(user, address(this), daiAmount.mul(UNIT)); // Transfer the Dai to YieldProxy within MakerDAO, in RAD\n        daiJoin.exit(address(this), daiAmount);             // YieldProxy will hold the dai temporarily\n\n        // Sell the Dai for EDai at Pool - It should make up for what was taken with repayYdai\n        _pool.buyEDai(address(this), address(this), eDaiAmount.toUint128());\n    }\n}\n",
  "sourcePath": "/Users/brucedonovan/dev/yield/yDai/contracts/peripheral/YieldProxy.sol",
  "compiler": {
    "name": "solc",
    "version": "0.6.10+commit.00c0fcaf.Emscripten.clang"
  },
  "schemaVersion": "3.2.3",
  "updatedAt": "2020-09-16T14:23:23.162Z",
  "networkType": "ethereum",
  "devdoc": {
    "methods": {
      "addLiquidity(address,uint256,uint256)": {
        "details": "Mints liquidity with provided Dai by borrowing eDai with some of the Dai. Caller must have approved the proxy using`controller.addDelegate(yieldProxy)` Caller must have approved the dai transfer with `dai.approve(daiUsed)`",
        "params": {
          "daiUsed": "amount of Dai to use to mint liquidity. ",
          "maxEDai": "maximum amount of eDai to be borrowed to mint liquidity. "
        },
        "returns": {
          "_0": "The amount of liquidity tokens minted.  "
        }
      },
      "authorizePool(address,address,bytes,bytes,bytes)": {
        "details": "Given a pool and 3 signatures, it `permit`'s dai and eDai for that pool and adds it as a delegate"
      },
      "borrowDaiForMaximumEDai(address,bytes32,uint256,address,uint256,uint256)": {
        "details": "Borrow eDai from Controller and sell it immediately for Dai, for a maximum eDai debt. Must have approved the operator with `controller.addDelegate(yieldProxy.address)`.",
        "params": {
          "collateral": "Valid collateral type.",
          "daiToBorrow": "Exact amount of Dai that should be obtained.",
          "maturity": "Maturity of an added series",
          "maximumEDai": "Maximum amount of EDai to borrow.",
          "to": "Wallet to send the resulting Dai to."
        }
      },
      "borrowMinimumDaiForEDai(address,bytes32,uint256,address,uint256,uint256)": {
        "details": "Borrow eDai from Controller and sell it immediately for Dai, if a minimum amount of Dai can be obtained such. Must have approved the operator with `controller.addDelegate(yieldProxy.address)`.",
        "params": {
          "collateral": "Valid collateral type.",
          "eDaiToBorrow": "Amount of eDai to borrow.",
          "maturity": "Maturity of an added series",
          "minimumDaiToBorrow": "Minimum amount of Dai that should be borrowed.",
          "to": "Wallet to sent the resulting Dai to."
        }
      },
      "buyDai(address,address,uint128,uint128)": {
        "details": "Buy Dai for eDai",
        "params": {
          "daiOut": "Amount of dai being bought",
          "maxEDaiIn": "Maximum amount of eDai being sold",
          "to": "Wallet receiving the dai being bought"
        }
      },
      "buyDaiWithSignature(address,address,uint128,uint128,bytes)": {
        "details": "Buy Dai for eDai and permits infinite eDai to the pool",
        "params": {
          "daiOut": "Amount of dai being bought",
          "maxEDaiIn": "Maximum amount of eDai being sold",
          "signature": "The `permit` call's signature",
          "to": "Wallet receiving the dai being bought"
        }
      },
      "buyEDai(address,address,uint128,uint128)": {
        "details": "Buy eDai for dai",
        "params": {
          "eDaiOut": "Amount of eDai being bought",
          "maxDaiIn": "Maximum amount of dai being sold",
          "to": "Wallet receiving the eDai being bought"
        }
      },
      "daiForEDai(address,uint256)": {
        "details": "Amount of dai debt that will result from migrating eDai debt from Yield to MakerDAO"
      },
      "eDaiForDai(address,uint256)": {
        "details": "Amount of eDai debt that will result from migrating Dai debt from MakerDAO to Yield"
      },
      "executeOnFlashMint(address,uint256,bytes)": {
        "details": "Callback from `EDai.flashMint()`"
      },
      "makerToYield(address,address,uint256,uint256)": {
        "details": "Transfer debt and collateral from MakerDAO to Yield Needs vat.hope(splitter.address, { from: user }); Needs controller.addDelegate(splitter.address, { from: user });",
        "params": {
          "daiAmount": "dai debt to move from MakerDAO to Yield. Denominated in Dai (= art * rate)",
          "pool": "The pool to trade in (and therefore eDai series to borrow)",
          "user": "Vault to migrate.",
          "wethAmount": "weth to move from MakerDAO to Yield. Needs to be high enough to collateralize the dai debt in Yield, and low enough to make sure that debt left in MakerDAO is also collateralized."
        }
      },
      "onboard(address,bytes,bytes)": {
        "details": "Performs the initial onboarding of the user. It `permit`'s DAI to be used by the proxy, and adds the proxy as a delegate in the controller"
      },
      "post(address)": {
        "details": "Users use `post` in YieldProxy to post ETH to the Controller (amount = msg.value), which will be converted to Weth here.",
        "params": {
          "to": "Yield Vault to deposit collateral in."
        }
      },
      "removeLiquidityEarlyDaiFixed(address,uint256,uint256)": {
        "details": "Burns tokens and repays debt with proceedings. Sells any excess eDai for Dai, then returns all Dai, and if there is no debt in the Controller, all posted Chai. Caller must have approved the proxy using`controller.addDelegate(yieldProxy)` and `pool.addDelegate(yieldProxy)` Caller must have approved the liquidity burn with `pool.approve(poolTokens)`",
        "params": {
          "minimumEDaiPrice": "minimum Dai/eDai price to be accepted when internally selling eDai.",
          "poolTokens": "amount of pool tokens to burn. "
        }
      },
      "removeLiquidityEarlyDaiPool(address,uint256,uint256,uint256)": {
        "details": "Burns tokens and sells Dai proceedings for eDai. Pays as much debt as possible, then sells back any remaining eDai for Dai. Then returns all Dai, and if there is no debt in the Controller, all posted Chai. Caller must have approved the proxy using`controller.addDelegate(yieldProxy)` and `pool.addDelegate(yieldProxy)` Caller must have approved the liquidity burn with `pool.approve(poolTokens)`",
        "params": {
          "minimumDaiPrice": "minimum eDai/Dai price to be accepted when internally selling Dai.",
          "minimumEDaiPrice": "minimum Dai/eDai price to be accepted when internally selling eDai.",
          "poolTokens": "amount of pool tokens to burn. "
        }
      },
      "removeLiquidityMature(address,uint256)": {
        "details": "Burns tokens and repays eDai debt after Maturity.  Caller must have approved the proxy using`controller.addDelegate(yieldProxy)` Caller must have approved the liquidity burn with `pool.approve(poolTokens)`",
        "params": {
          "poolTokens": "amount of pool tokens to burn."
        }
      },
      "repayDaiWithSignature(bytes32,uint256,address,uint256,bytes)": {
        "details": "Burns Dai from caller to repay debt in a Yield Vault. User debt is decreased for the given collateral and eDai series, in Yield vault `to`. The amount of debt repaid changes according to series maturity and MakerDAO rate and chi, depending on collateral type. `A signature is provided as a parameter to this function, so that `dai.approve()` doesn't need to be called.",
        "params": {
          "collateral": "Valid collateral type.",
          "daiAmount": "Amount of Dai to use for debt repayment.",
          "maturity": "Maturity of an added series",
          "signature": "The `permit` call's signature",
          "to": "Yield vault to repay debt for."
        }
      },
      "repayEDaiDebtForMaximumDai(address,bytes32,uint256,address,uint256,uint256)": {
        "details": "Repay an amount of eDai debt in Controller using Dai exchanged for eDai at pool rates, up to a maximum amount of Dai spent. Must have approved the operator with `pool.addDelegate(yieldProxy.address)`.",
        "params": {
          "collateral": "Valid collateral type.",
          "eDaiRepayment": "Amount of eDai debt to repay.",
          "maturity": "Maturity of an added series",
          "maximumRepaymentInDai": "Maximum amount of Dai that should be spent on the repayment.",
          "to": "Yield Vault to repay eDai debt for."
        }
      },
      "repayMinimumEDaiDebtForDai(address,bytes32,uint256,address,uint256,uint256)": {
        "details": "Repay an amount of eDai debt in Controller using a given amount of Dai exchanged for eDai at pool rates, with a minimum of eDai debt required to be paid. Must have approved the operator with `pool.addDelegate(yieldProxy.address)`.",
        "params": {
          "collateral": "Valid collateral type.",
          "maturity": "Maturity of an added series",
          "minimumEDaiRepayment": "Minimum amount of eDai debt to repay.",
          "repaymentInDai": "Exact amount of Dai that should be spent on the repayment.",
          "to": "Yield Vault to repay eDai debt for."
        }
      },
      "sellDai(address,address,uint128,uint128)": {
        "details": "Sell Dai for eDai",
        "params": {
          "daiIn": "Amount of dai being sold",
          "minEDaiOut": "Minimum amount of eDai being bought",
          "to": "Wallet receiving the eDai being bought"
        }
      },
      "sellEDai(address,address,uint128,uint128)": {
        "details": "Sell eDai for Dai",
        "params": {
          "eDaiIn": "Amount of eDai being sold",
          "minDaiOut": "Minimum amount of dai being bought",
          "to": "Wallet receiving the dai being bought"
        }
      },
      "wethForDai(uint256)": {
        "details": "Minimum weth needed to collateralize an amount of dai in MakerDAO"
      },
      "wethForEDai(uint256)": {
        "details": "Minimum weth needed to collateralize an amount of eDai in Yield. Yes, it's the same formula."
      },
      "withdraw(address,uint256)": {
        "details": "Users wishing to withdraw their Weth as ETH from the Controller should use this function. Users must have called `controller.addDelegate(yieldProxy.address)` to authorize YieldProxy to act in their behalf.",
        "params": {
          "amount": "Amount of weth to move.",
          "to": "Wallet to send Eth to."
        }
      },
      "yieldToMaker(address,address,uint256,uint256)": {
        "details": "Transfer debt and collateral from Yield to MakerDAO Needs vat.hope(splitter.address, { from: user }); Needs controller.addDelegate(splitter.address, { from: user });",
        "params": {
          "eDaiAmount": "eDai debt to move from Yield to MakerDAO.",
          "pool": "The pool to trade in (and therefore eDai series to migrate)",
          "user": "Vault to migrate.",
          "wethAmount": "weth to move from Yield to MakerDAO. Needs to be high enough to collateralize the dai debt in MakerDAO, and low enough to make sure that debt left in Yield is also collateralized."
        }
      }
    }
  },
  "userdoc": {
    "methods": {}
  }
}